{
	"Textbook/Chapter4/differenceBtwConditionalStatement.sol": {
		"Ex4_4": {
			"abi": [
				{
					"inputs": [
						{
							"internalType": "uint256",
							"name": "a",
							"type": "uint256"
						}
					],
					"name": "fun1",
					"outputs": [
						{
							"internalType": "uint256",
							"name": "",
							"type": "uint256"
						}
					],
					"stateMutability": "pure",
					"type": "function"
				},
				{
					"inputs": [
						{
							"internalType": "uint256",
							"name": "a",
							"type": "uint256"
						}
					],
					"name": "fun2",
					"outputs": [
						{
							"internalType": "uint256",
							"name": "",
							"type": "uint256"
						}
					],
					"stateMutability": "pure",
					"type": "function"
				}
			],
			"devdoc": {
				"kind": "dev",
				"methods": {},
				"version": 1
			},
			"evm": {
				"assembly": "    /* \"Textbook/Chapter4/differenceBtwConditionalStatement.sol\":57:709  contract Ex4_4 {... */\n  mstore(0x40, 0x80)\n  callvalue\n  dup1\n  iszero\n  tag_1\n  jumpi\n  0x00\n  dup1\n  revert\ntag_1:\n  pop\n  dataSize(sub_0)\n  dup1\n  dataOffset(sub_0)\n  0x00\n  codecopy\n  0x00\n  return\nstop\n\nsub_0: assembly {\n        /* \"Textbook/Chapter4/differenceBtwConditionalStatement.sol\":57:709  contract Ex4_4 {... */\n      mstore(0x40, 0x80)\n      callvalue\n      dup1\n      iszero\n      tag_1\n      jumpi\n      0x00\n      dup1\n      revert\n    tag_1:\n      pop\n      jumpi(tag_2, lt(calldatasize, 0x04))\n      shr(0xe0, calldataload(0x00))\n      dup1\n      0x7a927e8f\n      eq\n      tag_3\n      jumpi\n      dup1\n      0xacd9fd65\n      eq\n      tag_4\n      jumpi\n    tag_2:\n      0x00\n      dup1\n      revert\n        /* \"Textbook/Chapter4/differenceBtwConditionalStatement.sol\":328:560  function fun2(uint a)... */\n    tag_3:\n      tag_5\n      0x04\n      dup1\n      calldatasize\n      sub\n      dup2\n      add\n      swap1\n      tag_6\n      swap2\n      swap1\n      tag_7\n      jump\t// in\n    tag_6:\n      tag_8\n      jump\t// in\n    tag_5:\n      mload(0x40)\n      tag_9\n      swap2\n      swap1\n      tag_10\n      jump\t// in\n    tag_9:\n      mload(0x40)\n      dup1\n      swap2\n      sub\n      swap1\n      return\n        /* \"Textbook/Chapter4/differenceBtwConditionalStatement.sol\":79:322  function fun1(uint a) ... */\n    tag_4:\n      tag_11\n      0x04\n      dup1\n      calldatasize\n      sub\n      dup2\n      add\n      swap1\n      tag_12\n      swap2\n      swap1\n      tag_7\n      jump\t// in\n    tag_12:\n      tag_13\n      jump\t// in\n    tag_11:\n      mload(0x40)\n      tag_14\n      swap2\n      swap1\n      tag_10\n      jump\t// in\n    tag_14:\n      mload(0x40)\n      dup1\n      swap2\n      sub\n      swap1\n      return\n        /* \"Textbook/Chapter4/differenceBtwConditionalStatement.sol\":328:560  function fun2(uint a)... */\n    tag_8:\n        /* \"Textbook/Chapter4/differenceBtwConditionalStatement.sol\":396:400  uint */\n      0x00\n        /* \"Textbook/Chapter4/differenceBtwConditionalStatement.sol\":425:426  1 */\n      0x01\n        /* \"Textbook/Chapter4/differenceBtwConditionalStatement.sol\":420:421  a */\n      dup3\n        /* \"Textbook/Chapter4/differenceBtwConditionalStatement.sol\":420:426  a >= 1 */\n      lt\n        /* \"Textbook/Chapter4/differenceBtwConditionalStatement.sol\":416:436  if (a >= 1) {a = 1;} */\n      tag_16\n      jumpi\n        /* \"Textbook/Chapter4/differenceBtwConditionalStatement.sol\":433:434  1 */\n      0x01\n        /* \"Textbook/Chapter4/differenceBtwConditionalStatement.sol\":429:434  a = 1 */\n      swap2\n      pop\n        /* \"Textbook/Chapter4/differenceBtwConditionalStatement.sol\":416:436  if (a >= 1) {a = 1;} */\n    tag_16:\n        /* \"Textbook/Chapter4/differenceBtwConditionalStatement.sol\":458:459  2 */\n      0x02\n        /* \"Textbook/Chapter4/differenceBtwConditionalStatement.sol\":453:454  a */\n      dup3\n        /* \"Textbook/Chapter4/differenceBtwConditionalStatement.sol\":453:459  a >= 2 */\n      lt\n        /* \"Textbook/Chapter4/differenceBtwConditionalStatement.sol\":449:469  if (a >= 2) {a = 2;} */\n      tag_17\n      jumpi\n        /* \"Textbook/Chapter4/differenceBtwConditionalStatement.sol\":466:467  2 */\n      0x02\n        /* \"Textbook/Chapter4/differenceBtwConditionalStatement.sol\":462:467  a = 2 */\n      swap2\n      pop\n        /* \"Textbook/Chapter4/differenceBtwConditionalStatement.sol\":449:469  if (a >= 2) {a = 2;} */\n    tag_17:\n        /* \"Textbook/Chapter4/differenceBtwConditionalStatement.sol\":491:492  3 */\n      0x03\n        /* \"Textbook/Chapter4/differenceBtwConditionalStatement.sol\":486:487  a */\n      dup3\n        /* \"Textbook/Chapter4/differenceBtwConditionalStatement.sol\":486:492  a >= 3 */\n      lt\n        /* \"Textbook/Chapter4/differenceBtwConditionalStatement.sol\":482:528  if (a >= 3) {a = 3;}... */\n      tag_18\n      jumpi\n        /* \"Textbook/Chapter4/differenceBtwConditionalStatement.sol\":499:500  3 */\n      0x03\n        /* \"Textbook/Chapter4/differenceBtwConditionalStatement.sol\":495:500  a = 3 */\n      swap2\n      pop\n        /* \"Textbook/Chapter4/differenceBtwConditionalStatement.sol\":482:528  if (a >= 3) {a = 3;}... */\n      jump(tag_19)\n    tag_18:\n        /* \"Textbook/Chapter4/differenceBtwConditionalStatement.sol\":525:526  4 */\n      0x04\n        /* \"Textbook/Chapter4/differenceBtwConditionalStatement.sol\":521:526  a = 4 */\n      swap2\n      pop\n        /* \"Textbook/Chapter4/differenceBtwConditionalStatement.sol\":482:528  if (a >= 3) {a = 3;}... */\n    tag_19:\n        /* \"Textbook/Chapter4/differenceBtwConditionalStatement.sol\":548:549  a */\n      dup2\n        /* \"Textbook/Chapter4/differenceBtwConditionalStatement.sol\":541:549  return a */\n      swap1\n      pop\n        /* \"Textbook/Chapter4/differenceBtwConditionalStatement.sol\":328:560  function fun2(uint a)... */\n      swap2\n      swap1\n      pop\n      jump\t// out\n        /* \"Textbook/Chapter4/differenceBtwConditionalStatement.sol\":79:322  function fun1(uint a) ... */\n    tag_13:\n        /* \"Textbook/Chapter4/differenceBtwConditionalStatement.sol\":148:152  uint */\n      0x00\n        /* \"Textbook/Chapter4/differenceBtwConditionalStatement.sol\":177:178  1 */\n      0x01\n        /* \"Textbook/Chapter4/differenceBtwConditionalStatement.sol\":172:173  a */\n      dup3\n        /* \"Textbook/Chapter4/differenceBtwConditionalStatement.sol\":172:178  a >= 1 */\n      lt\n        /* \"Textbook/Chapter4/differenceBtwConditionalStatement.sol\":168:290  if (a >= 1) {a = 1;}... */\n      tag_21\n      jumpi\n        /* \"Textbook/Chapter4/differenceBtwConditionalStatement.sol\":185:186  1 */\n      0x01\n        /* \"Textbook/Chapter4/differenceBtwConditionalStatement.sol\":181:186  a = 1 */\n      swap2\n      pop\n        /* \"Textbook/Chapter4/differenceBtwConditionalStatement.sol\":168:290  if (a >= 1) {a = 1;}... */\n      jump(tag_22)\n    tag_21:\n        /* \"Textbook/Chapter4/differenceBtwConditionalStatement.sol\":215:216  2 */\n      0x02\n        /* \"Textbook/Chapter4/differenceBtwConditionalStatement.sol\":210:211  a */\n      dup3\n        /* \"Textbook/Chapter4/differenceBtwConditionalStatement.sol\":210:216  a >= 2 */\n      lt\n        /* \"Textbook/Chapter4/differenceBtwConditionalStatement.sol\":206:290  if (a >= 2) {a = 2;}... */\n      tag_23\n      jumpi\n        /* \"Textbook/Chapter4/differenceBtwConditionalStatement.sol\":223:224  2 */\n      0x02\n        /* \"Textbook/Chapter4/differenceBtwConditionalStatement.sol\":219:224  a = 2 */\n      swap2\n      pop\n        /* \"Textbook/Chapter4/differenceBtwConditionalStatement.sol\":206:290  if (a >= 2) {a = 2;}... */\n      jump(tag_24)\n    tag_23:\n        /* \"Textbook/Chapter4/differenceBtwConditionalStatement.sol\":253:254  3 */\n      0x03\n        /* \"Textbook/Chapter4/differenceBtwConditionalStatement.sol\":248:249  a */\n      dup3\n        /* \"Textbook/Chapter4/differenceBtwConditionalStatement.sol\":248:254  a >= 3 */\n      lt\n        /* \"Textbook/Chapter4/differenceBtwConditionalStatement.sol\":244:290  if (a >= 3) {a = 3;}... */\n      tag_25\n      jumpi\n        /* \"Textbook/Chapter4/differenceBtwConditionalStatement.sol\":261:262  3 */\n      0x03\n        /* \"Textbook/Chapter4/differenceBtwConditionalStatement.sol\":257:262  a = 3 */\n      swap2\n      pop\n        /* \"Textbook/Chapter4/differenceBtwConditionalStatement.sol\":244:290  if (a >= 3) {a = 3;}... */\n      jump(tag_26)\n    tag_25:\n        /* \"Textbook/Chapter4/differenceBtwConditionalStatement.sol\":287:288  4 */\n      0x04\n        /* \"Textbook/Chapter4/differenceBtwConditionalStatement.sol\":283:288  a = 4 */\n      swap2\n      pop\n        /* \"Textbook/Chapter4/differenceBtwConditionalStatement.sol\":244:290  if (a >= 3) {a = 3;}... */\n    tag_26:\n        /* \"Textbook/Chapter4/differenceBtwConditionalStatement.sol\":206:290  if (a >= 2) {a = 2;}... */\n    tag_24:\n        /* \"Textbook/Chapter4/differenceBtwConditionalStatement.sol\":168:290  if (a >= 1) {a = 1;}... */\n    tag_22:\n        /* \"Textbook/Chapter4/differenceBtwConditionalStatement.sol\":310:311  a */\n      dup2\n        /* \"Textbook/Chapter4/differenceBtwConditionalStatement.sol\":303:311  return a */\n      swap1\n      pop\n        /* \"Textbook/Chapter4/differenceBtwConditionalStatement.sol\":79:322  function fun1(uint a) ... */\n      swap2\n      swap1\n      pop\n      jump\t// out\n        /* \"#utility.yul\":88:205   */\n    tag_28:\n        /* \"#utility.yul\":197:198   */\n      0x00\n        /* \"#utility.yul\":194:195   */\n      dup1\n        /* \"#utility.yul\":187:199   */\n      revert\n        /* \"#utility.yul\":334:411   */\n    tag_30:\n        /* \"#utility.yul\":371:378   */\n      0x00\n        /* \"#utility.yul\":400:405   */\n      dup2\n        /* \"#utility.yul\":389:405   */\n      swap1\n      pop\n        /* \"#utility.yul\":334:411   */\n      swap2\n      swap1\n      pop\n      jump\t// out\n        /* \"#utility.yul\":417:539   */\n    tag_31:\n        /* \"#utility.yul\":490:514   */\n      tag_40\n        /* \"#utility.yul\":508:513   */\n      dup2\n        /* \"#utility.yul\":490:514   */\n      tag_30\n      jump\t// in\n    tag_40:\n        /* \"#utility.yul\":483:488   */\n      dup2\n        /* \"#utility.yul\":480:515   */\n      eq\n        /* \"#utility.yul\":470:533   */\n      tag_41\n      jumpi\n        /* \"#utility.yul\":529:530   */\n      0x00\n        /* \"#utility.yul\":526:527   */\n      dup1\n        /* \"#utility.yul\":519:531   */\n      revert\n        /* \"#utility.yul\":470:533   */\n    tag_41:\n        /* \"#utility.yul\":417:539   */\n      pop\n      jump\t// out\n        /* \"#utility.yul\":545:684   */\n    tag_32:\n        /* \"#utility.yul\":591:596   */\n      0x00\n        /* \"#utility.yul\":629:635   */\n      dup2\n        /* \"#utility.yul\":616:636   */\n      calldataload\n        /* \"#utility.yul\":607:636   */\n      swap1\n      pop\n        /* \"#utility.yul\":645:678   */\n      tag_43\n        /* \"#utility.yul\":672:677   */\n      dup2\n        /* \"#utility.yul\":645:678   */\n      tag_31\n      jump\t// in\n    tag_43:\n        /* \"#utility.yul\":545:684   */\n      swap3\n      swap2\n      pop\n      pop\n      jump\t// out\n        /* \"#utility.yul\":690:1019   */\n    tag_7:\n        /* \"#utility.yul\":749:755   */\n      0x00\n        /* \"#utility.yul\":798:800   */\n      0x20\n        /* \"#utility.yul\":786:795   */\n      dup3\n        /* \"#utility.yul\":777:784   */\n      dup5\n        /* \"#utility.yul\":773:796   */\n      sub\n        /* \"#utility.yul\":769:801   */\n      slt\n        /* \"#utility.yul\":766:885   */\n      iszero\n      tag_45\n      jumpi\n        /* \"#utility.yul\":804:883   */\n      tag_46\n      tag_28\n      jump\t// in\n    tag_46:\n        /* \"#utility.yul\":766:885   */\n    tag_45:\n        /* \"#utility.yul\":924:925   */\n      0x00\n        /* \"#utility.yul\":949:1002   */\n      tag_47\n        /* \"#utility.yul\":994:1001   */\n      dup5\n        /* \"#utility.yul\":985:991   */\n      dup3\n        /* \"#utility.yul\":974:983   */\n      dup6\n        /* \"#utility.yul\":970:992   */\n      add\n        /* \"#utility.yul\":949:1002   */\n      tag_32\n      jump\t// in\n    tag_47:\n        /* \"#utility.yul\":939:1002   */\n      swap2\n      pop\n        /* \"#utility.yul\":895:1012   */\n      pop\n        /* \"#utility.yul\":690:1019   */\n      swap3\n      swap2\n      pop\n      pop\n      jump\t// out\n        /* \"#utility.yul\":1025:1143   */\n    tag_33:\n        /* \"#utility.yul\":1112:1136   */\n      tag_49\n        /* \"#utility.yul\":1130:1135   */\n      dup2\n        /* \"#utility.yul\":1112:1136   */\n      tag_30\n      jump\t// in\n    tag_49:\n        /* \"#utility.yul\":1107:1110   */\n      dup3\n        /* \"#utility.yul\":1100:1137   */\n      mstore\n        /* \"#utility.yul\":1025:1143   */\n      pop\n      pop\n      jump\t// out\n        /* \"#utility.yul\":1149:1371   */\n    tag_10:\n        /* \"#utility.yul\":1242:1246   */\n      0x00\n        /* \"#utility.yul\":1280:1282   */\n      0x20\n        /* \"#utility.yul\":1269:1278   */\n      dup3\n        /* \"#utility.yul\":1265:1283   */\n      add\n        /* \"#utility.yul\":1257:1283   */\n      swap1\n      pop\n        /* \"#utility.yul\":1293:1364   */\n      tag_51\n        /* \"#utility.yul\":1361:1362   */\n      0x00\n        /* \"#utility.yul\":1350:1359   */\n      dup4\n        /* \"#utility.yul\":1346:1363   */\n      add\n        /* \"#utility.yul\":1337:1343   */\n      dup5\n        /* \"#utility.yul\":1293:1364   */\n      tag_33\n      jump\t// in\n    tag_51:\n        /* \"#utility.yul\":1149:1371   */\n      swap3\n      swap2\n      pop\n      pop\n      jump\t// out\n\n    auxdata: 0xa26469706673582212204d223c81dcd94d672e6352d6398abcf53d4699d625e9a4c35d832e25d1432cc164736f6c63430008120033\n}\n",
				"bytecode": {
					"linkReferences": {},
					"object": "608060405234801561001057600080fd5b506101e1806100206000396000f3fe608060405234801561001057600080fd5b50600436106100365760003560e01c80637a927e8f1461003b578063acd9fd651461006b575b600080fd5b61005560048036038101906100509190610154565b61009b565b6040516100629190610190565b60405180910390f35b61008560048036038101906100809190610154565b6100d5565b6040516100929190610190565b60405180910390f35b6000600182106100aa57600191505b600282106100b757600291505b600382106100c857600391506100cd565b600491505b819050919050565b6000600182106100e85760019150610111565b600282106100f95760029150610110565b6003821061010a576003915061010f565b600491505b5b5b819050919050565b600080fd5b6000819050919050565b6101318161011e565b811461013c57600080fd5b50565b60008135905061014e81610128565b92915050565b60006020828403121561016a57610169610119565b5b60006101788482850161013f565b91505092915050565b61018a8161011e565b82525050565b60006020820190506101a56000830184610181565b9291505056fea26469706673582212204d223c81dcd94d672e6352d6398abcf53d4699d625e9a4c35d832e25d1432cc164736f6c63430008120033",
					"opcodes": "PUSH1 0x80 PUSH1 0x40 MSTORE CALLVALUE DUP1 ISZERO PUSH2 0x10 JUMPI PUSH1 0x0 DUP1 REVERT JUMPDEST POP PUSH2 0x1E1 DUP1 PUSH2 0x20 PUSH1 0x0 CODECOPY PUSH1 0x0 RETURN INVALID PUSH1 0x80 PUSH1 0x40 MSTORE CALLVALUE DUP1 ISZERO PUSH2 0x10 JUMPI PUSH1 0x0 DUP1 REVERT JUMPDEST POP PUSH1 0x4 CALLDATASIZE LT PUSH2 0x36 JUMPI PUSH1 0x0 CALLDATALOAD PUSH1 0xE0 SHR DUP1 PUSH4 0x7A927E8F EQ PUSH2 0x3B JUMPI DUP1 PUSH4 0xACD9FD65 EQ PUSH2 0x6B JUMPI JUMPDEST PUSH1 0x0 DUP1 REVERT JUMPDEST PUSH2 0x55 PUSH1 0x4 DUP1 CALLDATASIZE SUB DUP2 ADD SWAP1 PUSH2 0x50 SWAP2 SWAP1 PUSH2 0x154 JUMP JUMPDEST PUSH2 0x9B JUMP JUMPDEST PUSH1 0x40 MLOAD PUSH2 0x62 SWAP2 SWAP1 PUSH2 0x190 JUMP JUMPDEST PUSH1 0x40 MLOAD DUP1 SWAP2 SUB SWAP1 RETURN JUMPDEST PUSH2 0x85 PUSH1 0x4 DUP1 CALLDATASIZE SUB DUP2 ADD SWAP1 PUSH2 0x80 SWAP2 SWAP1 PUSH2 0x154 JUMP JUMPDEST PUSH2 0xD5 JUMP JUMPDEST PUSH1 0x40 MLOAD PUSH2 0x92 SWAP2 SWAP1 PUSH2 0x190 JUMP JUMPDEST PUSH1 0x40 MLOAD DUP1 SWAP2 SUB SWAP1 RETURN JUMPDEST PUSH1 0x0 PUSH1 0x1 DUP3 LT PUSH2 0xAA JUMPI PUSH1 0x1 SWAP2 POP JUMPDEST PUSH1 0x2 DUP3 LT PUSH2 0xB7 JUMPI PUSH1 0x2 SWAP2 POP JUMPDEST PUSH1 0x3 DUP3 LT PUSH2 0xC8 JUMPI PUSH1 0x3 SWAP2 POP PUSH2 0xCD JUMP JUMPDEST PUSH1 0x4 SWAP2 POP JUMPDEST DUP2 SWAP1 POP SWAP2 SWAP1 POP JUMP JUMPDEST PUSH1 0x0 PUSH1 0x1 DUP3 LT PUSH2 0xE8 JUMPI PUSH1 0x1 SWAP2 POP PUSH2 0x111 JUMP JUMPDEST PUSH1 0x2 DUP3 LT PUSH2 0xF9 JUMPI PUSH1 0x2 SWAP2 POP PUSH2 0x110 JUMP JUMPDEST PUSH1 0x3 DUP3 LT PUSH2 0x10A JUMPI PUSH1 0x3 SWAP2 POP PUSH2 0x10F JUMP JUMPDEST PUSH1 0x4 SWAP2 POP JUMPDEST JUMPDEST JUMPDEST DUP2 SWAP1 POP SWAP2 SWAP1 POP JUMP JUMPDEST PUSH1 0x0 DUP1 REVERT JUMPDEST PUSH1 0x0 DUP2 SWAP1 POP SWAP2 SWAP1 POP JUMP JUMPDEST PUSH2 0x131 DUP2 PUSH2 0x11E JUMP JUMPDEST DUP2 EQ PUSH2 0x13C JUMPI PUSH1 0x0 DUP1 REVERT JUMPDEST POP JUMP JUMPDEST PUSH1 0x0 DUP2 CALLDATALOAD SWAP1 POP PUSH2 0x14E DUP2 PUSH2 0x128 JUMP JUMPDEST SWAP3 SWAP2 POP POP JUMP JUMPDEST PUSH1 0x0 PUSH1 0x20 DUP3 DUP5 SUB SLT ISZERO PUSH2 0x16A JUMPI PUSH2 0x169 PUSH2 0x119 JUMP JUMPDEST JUMPDEST PUSH1 0x0 PUSH2 0x178 DUP5 DUP3 DUP6 ADD PUSH2 0x13F JUMP JUMPDEST SWAP2 POP POP SWAP3 SWAP2 POP POP JUMP JUMPDEST PUSH2 0x18A DUP2 PUSH2 0x11E JUMP JUMPDEST DUP3 MSTORE POP POP JUMP JUMPDEST PUSH1 0x0 PUSH1 0x20 DUP3 ADD SWAP1 POP PUSH2 0x1A5 PUSH1 0x0 DUP4 ADD DUP5 PUSH2 0x181 JUMP JUMPDEST SWAP3 SWAP2 POP POP JUMP INVALID LOG2 PUSH5 0x6970667358 0x22 SLT KECCAK256 0x4D 0x22 EXTCODECOPY DUP2 0xDC 0xD9 0x4D PUSH8 0x2E6352D6398ABCF5 RETURNDATASIZE CHAINID SWAP10 0xD6 0x25 0xE9 LOG4 0xC3 0x5D DUP4 0x2E 0x25 0xD1 NUMBER 0x2C 0xC1 PUSH5 0x736F6C6343 STOP ADDMOD SLT STOP CALLER "
				},
				"gasEstimates": {
					"creation": {
						"codeDepositCost": "96200",
						"executionCost": "147",
						"totalCost": "96347"
					},
					"external": {
						"fun1(uint256)": "infinite",
						"fun2(uint256)": "infinite"
					}
				},
				"methodIdentifiers": {
					"fun1(uint256)": "acd9fd65",
					"fun2(uint256)": "7a927e8f"
				}
			},
			"storageLayout": {
				"storage": [],
				"types": null
			},
			"userdoc": {
				"kind": "user",
				"methods": {},
				"version": 1
			}
		}
	}
}