{
	"data": {
		"bytecode": {
			"linkReferences": {},
			"object": "60806040526001600260016101000a81548160ff02191690831515021790555034801561002b57600080fd5b50336000806101000a81548173ffffffffffffffffffffffffffffffffffffffff021916908373ffffffffffffffffffffffffffffffffffffffff160217905550610f698061007b6000396000f3fe60806040526004361061007b5760003560e01c8063b12cf0321161004e578063b12cf03214610104578063e97dcb621461012f578063f71d96cb14610139578063fa12d782146101765761007b565b8063481c6a75146100805780635d495aea146100ab578063786b844b146100c25780638b5b9ccc146100d9575b600080fd5b34801561008c57600080fd5b5061009561018d565b6040516100a29190610961565b60405180910390f35b3480156100b757600080fd5b506100c06101b1565b005b3480156100ce57600080fd5b506100d76103a3565b005b3480156100e557600080fd5b506100ee61045e565b6040516100fb9190610a3a565b60405180910390f35b34801561011057600080fd5b506101196104ec565b6040516101269190610ad3565b60405180910390f35b6101376104ff565b005b34801561014557600080fd5b50610160600480360381019061015b9190610b29565b6106fd565b60405161016d9190610961565b60405180910390f35b34801561018257600080fd5b5061018b61073c565b005b60008054906101000a900473ffffffffffffffffffffffffffffffffffffffff1681565b60008054906101000a900473ffffffffffffffffffffffffffffffffffffffff1673ffffffffffffffffffffffffffffffffffffffff163373ffffffffffffffffffffffffffffffffffffffff161461023f576040517f08c379a000000000000000000000000000000000000000000000000000000000815260040161023690610bd9565b60405180910390fd5b60018081111561025257610251610a5c565b5b600260009054906101000a900460ff16600181111561027457610273610a5c565b5b146102b4576040517f08c379a00000000000000000000000000000000000000000000000000000000081526004016102ab90610c45565b60405180910390fd5b60006001805490506102c46107f7565b6102ce9190610c94565b90506000600182815481106102e6576102e5610cc5565b5b9060005260206000200160009054906101000a900473ffffffffffffffffffffffffffffffffffffffff1690506001600061032191906108e2565b8073ffffffffffffffffffffffffffffffffffffffff166108fc479081150290604051600060405180830381858888f19350505050158015610367573d6000803e3d6000fd5b507f745c90b656b4aafe296c8ca35aeacfe56cb96c90e1d320e5da643fff1051b6c0816040516103979190610961565b60405180910390a15050565b60008054906101000a900473ffffffffffffffffffffffffffffffffffffffff1673ffffffffffffffffffffffffffffffffffffffff163373ffffffffffffffffffffffffffffffffffffffff1614610431576040517f08c379a000000000000000000000000000000000000000000000000000000000815260040161042890610bd9565b60405180910390fd5b6001600260006101000a81548160ff0219169083600181111561045757610456610a5c565b5b0217905550565b606060018054806020026020016040519081016040528092919081815260200182805480156104e257602002820191906000526020600020905b8160009054906101000a900473ffffffffffffffffffffffffffffffffffffffff1673ffffffffffffffffffffffffffffffffffffffff1681526020019060010190808311610498575b5050505050905090565b600260009054906101000a900460ff1681565b60008054906101000a900473ffffffffffffffffffffffffffffffffffffffff1673ffffffffffffffffffffffffffffffffffffffff163373ffffffffffffffffffffffffffffffffffffffff160361058d576040517f08c379a000000000000000000000000000000000000000000000000000000000815260040161058490610d66565b60405180910390fd5b600060018111156105a1576105a0610a5c565b5b600260009054906101000a900460ff1660018111156105c3576105c2610a5c565b5b14610603576040517f08c379a00000000000000000000000000000000000000000000000000000000081526004016105fa90610dd2565b60405180910390fd5b670de0b6b3a7640000341461064d576040517f08c379a000000000000000000000000000000000000000000000000000000000815260040161064490610e3e565b60405180910390fd5b60001515610659610836565b1515036106fb576001339080600181540180825580915050600190039060005260206000200160009091909190916101000a81548173ffffffffffffffffffffffffffffffffffffffff021916908373ffffffffffffffffffffffffffffffffffffffff1602179055507f4d999952f9aa655a216ee2df5968ca0e670e9582ddc96cfe7d8168114b8ca37f336040516106f29190610961565b60405180910390a15b565b6001818154811061070d57600080fd5b906000526020600020016000915054906101000a900473ffffffffffffffffffffffffffffffffffffffff1681565b60008054906101000a900473ffffffffffffffffffffffffffffffffffffffff1673ffffffffffffffffffffffffffffffffffffffff163373ffffffffffffffffffffffffffffffffffffffff16146107ca576040517f08c379a00000000000000000000000000000000000000000000000000000000081526004016107c190610bd9565b60405180910390fd5b6000600260006101000a81548160ff021916908360018111156107f0576107ef610a5c565b5b0217905550565b600080434260018054905060405160200161081493929190610e7f565b6040516020818303038152906040528051906020012060001c90508091505090565b600080600090505b6001805490508110156108d9573373ffffffffffffffffffffffffffffffffffffffff166001828154811061087657610875610cc5565b5b9060005260206000200160009054906101000a900473ffffffffffffffffffffffffffffffffffffffff1673ffffffffffffffffffffffffffffffffffffffff16036108c65760019150506108df565b80806108d190610eeb565b91505061083e565b50600090505b90565b50805460008255906000526020600020908101906109009190610903565b50565b5b8082111561091c576000816000905550600101610904565b5090565b600073ffffffffffffffffffffffffffffffffffffffff82169050919050565b600061094b82610920565b9050919050565b61095b81610940565b82525050565b60006020820190506109766000830184610952565b92915050565b600081519050919050565b600082825260208201905092915050565b6000819050602082019050919050565b6109b181610940565b82525050565b60006109c383836109a8565b60208301905092915050565b6000602082019050919050565b60006109e78261097c565b6109f18185610987565b93506109fc83610998565b8060005b83811015610a2d578151610a1488826109b7565b9750610a1f836109cf565b925050600181019050610a00565b5085935050505092915050565b60006020820190508181036000830152610a5481846109dc565b905092915050565b7f4e487b7100000000000000000000000000000000000000000000000000000000600052602160045260246000fd5b60028110610a9c57610a9b610a5c565b5b50565b6000819050610aad82610a8b565b919050565b6000610abd82610a9f565b9050919050565b610acd81610ab2565b82525050565b6000602082019050610ae86000830184610ac4565b92915050565b600080fd5b6000819050919050565b610b0681610af3565b8114610b1157600080fd5b50565b600081359050610b2381610afd565b92915050565b600060208284031215610b3f57610b3e610aee565b5b6000610b4d84828501610b14565b91505092915050565b600082825260208201905092915050565b7f4572726f72203a204f6e6c7920746865206d616e616765722063616e2063616c60008201527f6c20746869732066756e6374696f6e0000000000000000000000000000000000602082015250565b6000610bc3602f83610b56565b9150610bce82610b67565b604082019050919050565b60006020820190508181036000830152610bf281610bb6565b9050919050565b7f4572726f72203a205468652047616d65206973206e6f7420656e646564000000600082015250565b6000610c2f601d83610b56565b9150610c3a82610bf9565b602082019050919050565b60006020820190508181036000830152610c5e81610c22565b9050919050565b7f4e487b7100000000000000000000000000000000000000000000000000000000600052601260045260246000fd5b6000610c9f82610af3565b9150610caa83610af3565b925082610cba57610cb9610c65565b5b828206905092915050565b7f4e487b7100000000000000000000000000000000000000000000000000000000600052603260045260246000fd5b7f4572726f72203a204d616e616765722063616e206e6f7420626574207468652060008201527f6c6f74746572792067616d650000000000000000000000000000000000000000602082015250565b6000610d50602c83610b56565b9150610d5b82610cf4565b604082019050919050565b60006020820190508181036000830152610d7f81610d43565b9050919050565b7f4572726f72203a2047616e65206973206e6f74206f70656e0000000000000000600082015250565b6000610dbc601883610b56565b9150610dc782610d86565b602082019050919050565b60006020820190508181036000830152610deb81610daf565b9050919050565b7f4f6e6c79203120457468657220697320416c6c6f776564000000000000000000600082015250565b6000610e28601783610b56565b9150610e3382610df2565b602082019050919050565b60006020820190508181036000830152610e5781610e1b565b9050919050565b6000819050919050565b610e79610e7482610af3565b610e5e565b82525050565b6000610e8b8286610e68565b602082019150610e9b8285610e68565b602082019150610eab8284610e68565b602082019150819050949350505050565b7f4e487b7100000000000000000000000000000000000000000000000000000000600052601160045260246000fd5b6000610ef682610af3565b91507fffffffffffffffffffffffffffffffffffffffffffffffffffffffffffffffff8203610f2857610f27610ebc565b5b60018201905091905056fea2646970667358221220f98589aff783a0f25d5b2b314e9cbecda67a859d3b7260bd0efe4e0b8d208c9564736f6c63430008120033",
			"opcodes": "PUSH1 0x80 PUSH1 0x40 MSTORE PUSH1 0x1 PUSH1 0x2 PUSH1 0x1 PUSH2 0x100 EXP DUP2 SLOAD DUP2 PUSH1 0xFF MUL NOT AND SWAP1 DUP4 ISZERO ISZERO MUL OR SWAP1 SSTORE POP CALLVALUE DUP1 ISZERO PUSH2 0x2B JUMPI PUSH1 0x0 DUP1 REVERT JUMPDEST POP CALLER PUSH1 0x0 DUP1 PUSH2 0x100 EXP DUP2 SLOAD DUP2 PUSH20 0xFFFFFFFFFFFFFFFFFFFFFFFFFFFFFFFFFFFFFFFF MUL NOT AND SWAP1 DUP4 PUSH20 0xFFFFFFFFFFFFFFFFFFFFFFFFFFFFFFFFFFFFFFFF AND MUL OR SWAP1 SSTORE POP PUSH2 0xF69 DUP1 PUSH2 0x7B PUSH1 0x0 CODECOPY PUSH1 0x0 RETURN INVALID PUSH1 0x80 PUSH1 0x40 MSTORE PUSH1 0x4 CALLDATASIZE LT PUSH2 0x7B JUMPI PUSH1 0x0 CALLDATALOAD PUSH1 0xE0 SHR DUP1 PUSH4 0xB12CF032 GT PUSH2 0x4E JUMPI DUP1 PUSH4 0xB12CF032 EQ PUSH2 0x104 JUMPI DUP1 PUSH4 0xE97DCB62 EQ PUSH2 0x12F JUMPI DUP1 PUSH4 0xF71D96CB EQ PUSH2 0x139 JUMPI DUP1 PUSH4 0xFA12D782 EQ PUSH2 0x176 JUMPI PUSH2 0x7B JUMP JUMPDEST DUP1 PUSH4 0x481C6A75 EQ PUSH2 0x80 JUMPI DUP1 PUSH4 0x5D495AEA EQ PUSH2 0xAB JUMPI DUP1 PUSH4 0x786B844B EQ PUSH2 0xC2 JUMPI DUP1 PUSH4 0x8B5B9CCC EQ PUSH2 0xD9 JUMPI JUMPDEST PUSH1 0x0 DUP1 REVERT JUMPDEST CALLVALUE DUP1 ISZERO PUSH2 0x8C JUMPI PUSH1 0x0 DUP1 REVERT JUMPDEST POP PUSH2 0x95 PUSH2 0x18D JUMP JUMPDEST PUSH1 0x40 MLOAD PUSH2 0xA2 SWAP2 SWAP1 PUSH2 0x961 JUMP JUMPDEST PUSH1 0x40 MLOAD DUP1 SWAP2 SUB SWAP1 RETURN JUMPDEST CALLVALUE DUP1 ISZERO PUSH2 0xB7 JUMPI PUSH1 0x0 DUP1 REVERT JUMPDEST POP PUSH2 0xC0 PUSH2 0x1B1 JUMP JUMPDEST STOP JUMPDEST CALLVALUE DUP1 ISZERO PUSH2 0xCE JUMPI PUSH1 0x0 DUP1 REVERT JUMPDEST POP PUSH2 0xD7 PUSH2 0x3A3 JUMP JUMPDEST STOP JUMPDEST CALLVALUE DUP1 ISZERO PUSH2 0xE5 JUMPI PUSH1 0x0 DUP1 REVERT JUMPDEST POP PUSH2 0xEE PUSH2 0x45E JUMP JUMPDEST PUSH1 0x40 MLOAD PUSH2 0xFB SWAP2 SWAP1 PUSH2 0xA3A JUMP JUMPDEST PUSH1 0x40 MLOAD DUP1 SWAP2 SUB SWAP1 RETURN JUMPDEST CALLVALUE DUP1 ISZERO PUSH2 0x110 JUMPI PUSH1 0x0 DUP1 REVERT JUMPDEST POP PUSH2 0x119 PUSH2 0x4EC JUMP JUMPDEST PUSH1 0x40 MLOAD PUSH2 0x126 SWAP2 SWAP1 PUSH2 0xAD3 JUMP JUMPDEST PUSH1 0x40 MLOAD DUP1 SWAP2 SUB SWAP1 RETURN JUMPDEST PUSH2 0x137 PUSH2 0x4FF JUMP JUMPDEST STOP JUMPDEST CALLVALUE DUP1 ISZERO PUSH2 0x145 JUMPI PUSH1 0x0 DUP1 REVERT JUMPDEST POP PUSH2 0x160 PUSH1 0x4 DUP1 CALLDATASIZE SUB DUP2 ADD SWAP1 PUSH2 0x15B SWAP2 SWAP1 PUSH2 0xB29 JUMP JUMPDEST PUSH2 0x6FD JUMP JUMPDEST PUSH1 0x40 MLOAD PUSH2 0x16D SWAP2 SWAP1 PUSH2 0x961 JUMP JUMPDEST PUSH1 0x40 MLOAD DUP1 SWAP2 SUB SWAP1 RETURN JUMPDEST CALLVALUE DUP1 ISZERO PUSH2 0x182 JUMPI PUSH1 0x0 DUP1 REVERT JUMPDEST POP PUSH2 0x18B PUSH2 0x73C JUMP JUMPDEST STOP JUMPDEST PUSH1 0x0 DUP1 SLOAD SWAP1 PUSH2 0x100 EXP SWAP1 DIV PUSH20 0xFFFFFFFFFFFFFFFFFFFFFFFFFFFFFFFFFFFFFFFF AND DUP2 JUMP JUMPDEST PUSH1 0x0 DUP1 SLOAD SWAP1 PUSH2 0x100 EXP SWAP1 DIV PUSH20 0xFFFFFFFFFFFFFFFFFFFFFFFFFFFFFFFFFFFFFFFF AND PUSH20 0xFFFFFFFFFFFFFFFFFFFFFFFFFFFFFFFFFFFFFFFF AND CALLER PUSH20 0xFFFFFFFFFFFFFFFFFFFFFFFFFFFFFFFFFFFFFFFF AND EQ PUSH2 0x23F JUMPI PUSH1 0x40 MLOAD PUSH32 0x8C379A000000000000000000000000000000000000000000000000000000000 DUP2 MSTORE PUSH1 0x4 ADD PUSH2 0x236 SWAP1 PUSH2 0xBD9 JUMP JUMPDEST PUSH1 0x40 MLOAD DUP1 SWAP2 SUB SWAP1 REVERT JUMPDEST PUSH1 0x1 DUP1 DUP2 GT ISZERO PUSH2 0x252 JUMPI PUSH2 0x251 PUSH2 0xA5C JUMP JUMPDEST JUMPDEST PUSH1 0x2 PUSH1 0x0 SWAP1 SLOAD SWAP1 PUSH2 0x100 EXP SWAP1 DIV PUSH1 0xFF AND PUSH1 0x1 DUP2 GT ISZERO PUSH2 0x274 JUMPI PUSH2 0x273 PUSH2 0xA5C JUMP JUMPDEST JUMPDEST EQ PUSH2 0x2B4 JUMPI PUSH1 0x40 MLOAD PUSH32 0x8C379A000000000000000000000000000000000000000000000000000000000 DUP2 MSTORE PUSH1 0x4 ADD PUSH2 0x2AB SWAP1 PUSH2 0xC45 JUMP JUMPDEST PUSH1 0x40 MLOAD DUP1 SWAP2 SUB SWAP1 REVERT JUMPDEST PUSH1 0x0 PUSH1 0x1 DUP1 SLOAD SWAP1 POP PUSH2 0x2C4 PUSH2 0x7F7 JUMP JUMPDEST PUSH2 0x2CE SWAP2 SWAP1 PUSH2 0xC94 JUMP JUMPDEST SWAP1 POP PUSH1 0x0 PUSH1 0x1 DUP3 DUP2 SLOAD DUP2 LT PUSH2 0x2E6 JUMPI PUSH2 0x2E5 PUSH2 0xCC5 JUMP JUMPDEST JUMPDEST SWAP1 PUSH1 0x0 MSTORE PUSH1 0x20 PUSH1 0x0 KECCAK256 ADD PUSH1 0x0 SWAP1 SLOAD SWAP1 PUSH2 0x100 EXP SWAP1 DIV PUSH20 0xFFFFFFFFFFFFFFFFFFFFFFFFFFFFFFFFFFFFFFFF AND SWAP1 POP PUSH1 0x1 PUSH1 0x0 PUSH2 0x321 SWAP2 SWAP1 PUSH2 0x8E2 JUMP JUMPDEST DUP1 PUSH20 0xFFFFFFFFFFFFFFFFFFFFFFFFFFFFFFFFFFFFFFFF AND PUSH2 0x8FC SELFBALANCE SWAP1 DUP2 ISZERO MUL SWAP1 PUSH1 0x40 MLOAD PUSH1 0x0 PUSH1 0x40 MLOAD DUP1 DUP4 SUB DUP2 DUP6 DUP9 DUP9 CALL SWAP4 POP POP POP POP ISZERO DUP1 ISZERO PUSH2 0x367 JUMPI RETURNDATASIZE PUSH1 0x0 DUP1 RETURNDATACOPY RETURNDATASIZE PUSH1 0x0 REVERT JUMPDEST POP PUSH32 0x745C90B656B4AAFE296C8CA35AEACFE56CB96C90E1D320E5DA643FFF1051B6C0 DUP2 PUSH1 0x40 MLOAD PUSH2 0x397 SWAP2 SWAP1 PUSH2 0x961 JUMP JUMPDEST PUSH1 0x40 MLOAD DUP1 SWAP2 SUB SWAP1 LOG1 POP POP JUMP JUMPDEST PUSH1 0x0 DUP1 SLOAD SWAP1 PUSH2 0x100 EXP SWAP1 DIV PUSH20 0xFFFFFFFFFFFFFFFFFFFFFFFFFFFFFFFFFFFFFFFF AND PUSH20 0xFFFFFFFFFFFFFFFFFFFFFFFFFFFFFFFFFFFFFFFF AND CALLER PUSH20 0xFFFFFFFFFFFFFFFFFFFFFFFFFFFFFFFFFFFFFFFF AND EQ PUSH2 0x431 JUMPI PUSH1 0x40 MLOAD PUSH32 0x8C379A000000000000000000000000000000000000000000000000000000000 DUP2 MSTORE PUSH1 0x4 ADD PUSH2 0x428 SWAP1 PUSH2 0xBD9 JUMP JUMPDEST PUSH1 0x40 MLOAD DUP1 SWAP2 SUB SWAP1 REVERT JUMPDEST PUSH1 0x1 PUSH1 0x2 PUSH1 0x0 PUSH2 0x100 EXP DUP2 SLOAD DUP2 PUSH1 0xFF MUL NOT AND SWAP1 DUP4 PUSH1 0x1 DUP2 GT ISZERO PUSH2 0x457 JUMPI PUSH2 0x456 PUSH2 0xA5C JUMP JUMPDEST JUMPDEST MUL OR SWAP1 SSTORE POP JUMP JUMPDEST PUSH1 0x60 PUSH1 0x1 DUP1 SLOAD DUP1 PUSH1 0x20 MUL PUSH1 0x20 ADD PUSH1 0x40 MLOAD SWAP1 DUP2 ADD PUSH1 0x40 MSTORE DUP1 SWAP3 SWAP2 SWAP1 DUP2 DUP2 MSTORE PUSH1 0x20 ADD DUP3 DUP1 SLOAD DUP1 ISZERO PUSH2 0x4E2 JUMPI PUSH1 0x20 MUL DUP3 ADD SWAP2 SWAP1 PUSH1 0x0 MSTORE PUSH1 0x20 PUSH1 0x0 KECCAK256 SWAP1 JUMPDEST DUP2 PUSH1 0x0 SWAP1 SLOAD SWAP1 PUSH2 0x100 EXP SWAP1 DIV PUSH20 0xFFFFFFFFFFFFFFFFFFFFFFFFFFFFFFFFFFFFFFFF AND PUSH20 0xFFFFFFFFFFFFFFFFFFFFFFFFFFFFFFFFFFFFFFFF AND DUP2 MSTORE PUSH1 0x20 ADD SWAP1 PUSH1 0x1 ADD SWAP1 DUP1 DUP4 GT PUSH2 0x498 JUMPI JUMPDEST POP POP POP POP POP SWAP1 POP SWAP1 JUMP JUMPDEST PUSH1 0x2 PUSH1 0x0 SWAP1 SLOAD SWAP1 PUSH2 0x100 EXP SWAP1 DIV PUSH1 0xFF AND DUP2 JUMP JUMPDEST PUSH1 0x0 DUP1 SLOAD SWAP1 PUSH2 0x100 EXP SWAP1 DIV PUSH20 0xFFFFFFFFFFFFFFFFFFFFFFFFFFFFFFFFFFFFFFFF AND PUSH20 0xFFFFFFFFFFFFFFFFFFFFFFFFFFFFFFFFFFFFFFFF AND CALLER PUSH20 0xFFFFFFFFFFFFFFFFFFFFFFFFFFFFFFFFFFFFFFFF AND SUB PUSH2 0x58D JUMPI PUSH1 0x40 MLOAD PUSH32 0x8C379A000000000000000000000000000000000000000000000000000000000 DUP2 MSTORE PUSH1 0x4 ADD PUSH2 0x584 SWAP1 PUSH2 0xD66 JUMP JUMPDEST PUSH1 0x40 MLOAD DUP1 SWAP2 SUB SWAP1 REVERT JUMPDEST PUSH1 0x0 PUSH1 0x1 DUP2 GT ISZERO PUSH2 0x5A1 JUMPI PUSH2 0x5A0 PUSH2 0xA5C JUMP JUMPDEST JUMPDEST PUSH1 0x2 PUSH1 0x0 SWAP1 SLOAD SWAP1 PUSH2 0x100 EXP SWAP1 DIV PUSH1 0xFF AND PUSH1 0x1 DUP2 GT ISZERO PUSH2 0x5C3 JUMPI PUSH2 0x5C2 PUSH2 0xA5C JUMP JUMPDEST JUMPDEST EQ PUSH2 0x603 JUMPI PUSH1 0x40 MLOAD PUSH32 0x8C379A000000000000000000000000000000000000000000000000000000000 DUP2 MSTORE PUSH1 0x4 ADD PUSH2 0x5FA SWAP1 PUSH2 0xDD2 JUMP JUMPDEST PUSH1 0x40 MLOAD DUP1 SWAP2 SUB SWAP1 REVERT JUMPDEST PUSH8 0xDE0B6B3A7640000 CALLVALUE EQ PUSH2 0x64D JUMPI PUSH1 0x40 MLOAD PUSH32 0x8C379A000000000000000000000000000000000000000000000000000000000 DUP2 MSTORE PUSH1 0x4 ADD PUSH2 0x644 SWAP1 PUSH2 0xE3E JUMP JUMPDEST PUSH1 0x40 MLOAD DUP1 SWAP2 SUB SWAP1 REVERT JUMPDEST PUSH1 0x0 ISZERO ISZERO PUSH2 0x659 PUSH2 0x836 JUMP JUMPDEST ISZERO ISZERO SUB PUSH2 0x6FB JUMPI PUSH1 0x1 CALLER SWAP1 DUP1 PUSH1 0x1 DUP2 SLOAD ADD DUP1 DUP3 SSTORE DUP1 SWAP2 POP POP PUSH1 0x1 SWAP1 SUB SWAP1 PUSH1 0x0 MSTORE PUSH1 0x20 PUSH1 0x0 KECCAK256 ADD PUSH1 0x0 SWAP1 SWAP2 SWAP1 SWAP2 SWAP1 SWAP2 PUSH2 0x100 EXP DUP2 SLOAD DUP2 PUSH20 0xFFFFFFFFFFFFFFFFFFFFFFFFFFFFFFFFFFFFFFFF MUL NOT AND SWAP1 DUP4 PUSH20 0xFFFFFFFFFFFFFFFFFFFFFFFFFFFFFFFFFFFFFFFF AND MUL OR SWAP1 SSTORE POP PUSH32 0x4D999952F9AA655A216EE2DF5968CA0E670E9582DDC96CFE7D8168114B8CA37F CALLER PUSH1 0x40 MLOAD PUSH2 0x6F2 SWAP2 SWAP1 PUSH2 0x961 JUMP JUMPDEST PUSH1 0x40 MLOAD DUP1 SWAP2 SUB SWAP1 LOG1 JUMPDEST JUMP JUMPDEST PUSH1 0x1 DUP2 DUP2 SLOAD DUP2 LT PUSH2 0x70D JUMPI PUSH1 0x0 DUP1 REVERT JUMPDEST SWAP1 PUSH1 0x0 MSTORE PUSH1 0x20 PUSH1 0x0 KECCAK256 ADD PUSH1 0x0 SWAP2 POP SLOAD SWAP1 PUSH2 0x100 EXP SWAP1 DIV PUSH20 0xFFFFFFFFFFFFFFFFFFFFFFFFFFFFFFFFFFFFFFFF AND DUP2 JUMP JUMPDEST PUSH1 0x0 DUP1 SLOAD SWAP1 PUSH2 0x100 EXP SWAP1 DIV PUSH20 0xFFFFFFFFFFFFFFFFFFFFFFFFFFFFFFFFFFFFFFFF AND PUSH20 0xFFFFFFFFFFFFFFFFFFFFFFFFFFFFFFFFFFFFFFFF AND CALLER PUSH20 0xFFFFFFFFFFFFFFFFFFFFFFFFFFFFFFFFFFFFFFFF AND EQ PUSH2 0x7CA JUMPI PUSH1 0x40 MLOAD PUSH32 0x8C379A000000000000000000000000000000000000000000000000000000000 DUP2 MSTORE PUSH1 0x4 ADD PUSH2 0x7C1 SWAP1 PUSH2 0xBD9 JUMP JUMPDEST PUSH1 0x40 MLOAD DUP1 SWAP2 SUB SWAP1 REVERT JUMPDEST PUSH1 0x0 PUSH1 0x2 PUSH1 0x0 PUSH2 0x100 EXP DUP2 SLOAD DUP2 PUSH1 0xFF MUL NOT AND SWAP1 DUP4 PUSH1 0x1 DUP2 GT ISZERO PUSH2 0x7F0 JUMPI PUSH2 0x7EF PUSH2 0xA5C JUMP JUMPDEST JUMPDEST MUL OR SWAP1 SSTORE POP JUMP JUMPDEST PUSH1 0x0 DUP1 NUMBER TIMESTAMP PUSH1 0x1 DUP1 SLOAD SWAP1 POP PUSH1 0x40 MLOAD PUSH1 0x20 ADD PUSH2 0x814 SWAP4 SWAP3 SWAP2 SWAP1 PUSH2 0xE7F JUMP JUMPDEST PUSH1 0x40 MLOAD PUSH1 0x20 DUP2 DUP4 SUB SUB DUP2 MSTORE SWAP1 PUSH1 0x40 MSTORE DUP1 MLOAD SWAP1 PUSH1 0x20 ADD KECCAK256 PUSH1 0x0 SHR SWAP1 POP DUP1 SWAP2 POP POP SWAP1 JUMP JUMPDEST PUSH1 0x0 DUP1 PUSH1 0x0 SWAP1 POP JUMPDEST PUSH1 0x1 DUP1 SLOAD SWAP1 POP DUP2 LT ISZERO PUSH2 0x8D9 JUMPI CALLER PUSH20 0xFFFFFFFFFFFFFFFFFFFFFFFFFFFFFFFFFFFFFFFF AND PUSH1 0x1 DUP3 DUP2 SLOAD DUP2 LT PUSH2 0x876 JUMPI PUSH2 0x875 PUSH2 0xCC5 JUMP JUMPDEST JUMPDEST SWAP1 PUSH1 0x0 MSTORE PUSH1 0x20 PUSH1 0x0 KECCAK256 ADD PUSH1 0x0 SWAP1 SLOAD SWAP1 PUSH2 0x100 EXP SWAP1 DIV PUSH20 0xFFFFFFFFFFFFFFFFFFFFFFFFFFFFFFFFFFFFFFFF AND PUSH20 0xFFFFFFFFFFFFFFFFFFFFFFFFFFFFFFFFFFFFFFFF AND SUB PUSH2 0x8C6 JUMPI PUSH1 0x1 SWAP2 POP POP PUSH2 0x8DF JUMP JUMPDEST DUP1 DUP1 PUSH2 0x8D1 SWAP1 PUSH2 0xEEB JUMP JUMPDEST SWAP2 POP POP PUSH2 0x83E JUMP JUMPDEST POP PUSH1 0x0 SWAP1 POP JUMPDEST SWAP1 JUMP JUMPDEST POP DUP1 SLOAD PUSH1 0x0 DUP3 SSTORE SWAP1 PUSH1 0x0 MSTORE PUSH1 0x20 PUSH1 0x0 KECCAK256 SWAP1 DUP2 ADD SWAP1 PUSH2 0x900 SWAP2 SWAP1 PUSH2 0x903 JUMP JUMPDEST POP JUMP JUMPDEST JUMPDEST DUP1 DUP3 GT ISZERO PUSH2 0x91C JUMPI PUSH1 0x0 DUP2 PUSH1 0x0 SWAP1 SSTORE POP PUSH1 0x1 ADD PUSH2 0x904 JUMP JUMPDEST POP SWAP1 JUMP JUMPDEST PUSH1 0x0 PUSH20 0xFFFFFFFFFFFFFFFFFFFFFFFFFFFFFFFFFFFFFFFF DUP3 AND SWAP1 POP SWAP2 SWAP1 POP JUMP JUMPDEST PUSH1 0x0 PUSH2 0x94B DUP3 PUSH2 0x920 JUMP JUMPDEST SWAP1 POP SWAP2 SWAP1 POP JUMP JUMPDEST PUSH2 0x95B DUP2 PUSH2 0x940 JUMP JUMPDEST DUP3 MSTORE POP POP JUMP JUMPDEST PUSH1 0x0 PUSH1 0x20 DUP3 ADD SWAP1 POP PUSH2 0x976 PUSH1 0x0 DUP4 ADD DUP5 PUSH2 0x952 JUMP JUMPDEST SWAP3 SWAP2 POP POP JUMP JUMPDEST PUSH1 0x0 DUP2 MLOAD SWAP1 POP SWAP2 SWAP1 POP JUMP JUMPDEST PUSH1 0x0 DUP3 DUP3 MSTORE PUSH1 0x20 DUP3 ADD SWAP1 POP SWAP3 SWAP2 POP POP JUMP JUMPDEST PUSH1 0x0 DUP2 SWAP1 POP PUSH1 0x20 DUP3 ADD SWAP1 POP SWAP2 SWAP1 POP JUMP JUMPDEST PUSH2 0x9B1 DUP2 PUSH2 0x940 JUMP JUMPDEST DUP3 MSTORE POP POP JUMP JUMPDEST PUSH1 0x0 PUSH2 0x9C3 DUP4 DUP4 PUSH2 0x9A8 JUMP JUMPDEST PUSH1 0x20 DUP4 ADD SWAP1 POP SWAP3 SWAP2 POP POP JUMP JUMPDEST PUSH1 0x0 PUSH1 0x20 DUP3 ADD SWAP1 POP SWAP2 SWAP1 POP JUMP JUMPDEST PUSH1 0x0 PUSH2 0x9E7 DUP3 PUSH2 0x97C JUMP JUMPDEST PUSH2 0x9F1 DUP2 DUP6 PUSH2 0x987 JUMP JUMPDEST SWAP4 POP PUSH2 0x9FC DUP4 PUSH2 0x998 JUMP JUMPDEST DUP1 PUSH1 0x0 JUMPDEST DUP4 DUP2 LT ISZERO PUSH2 0xA2D JUMPI DUP2 MLOAD PUSH2 0xA14 DUP9 DUP3 PUSH2 0x9B7 JUMP JUMPDEST SWAP8 POP PUSH2 0xA1F DUP4 PUSH2 0x9CF JUMP JUMPDEST SWAP3 POP POP PUSH1 0x1 DUP2 ADD SWAP1 POP PUSH2 0xA00 JUMP JUMPDEST POP DUP6 SWAP4 POP POP POP POP SWAP3 SWAP2 POP POP JUMP JUMPDEST PUSH1 0x0 PUSH1 0x20 DUP3 ADD SWAP1 POP DUP2 DUP2 SUB PUSH1 0x0 DUP4 ADD MSTORE PUSH2 0xA54 DUP2 DUP5 PUSH2 0x9DC JUMP JUMPDEST SWAP1 POP SWAP3 SWAP2 POP POP JUMP JUMPDEST PUSH32 0x4E487B7100000000000000000000000000000000000000000000000000000000 PUSH1 0x0 MSTORE PUSH1 0x21 PUSH1 0x4 MSTORE PUSH1 0x24 PUSH1 0x0 REVERT JUMPDEST PUSH1 0x2 DUP2 LT PUSH2 0xA9C JUMPI PUSH2 0xA9B PUSH2 0xA5C JUMP JUMPDEST JUMPDEST POP JUMP JUMPDEST PUSH1 0x0 DUP2 SWAP1 POP PUSH2 0xAAD DUP3 PUSH2 0xA8B JUMP JUMPDEST SWAP2 SWAP1 POP JUMP JUMPDEST PUSH1 0x0 PUSH2 0xABD DUP3 PUSH2 0xA9F JUMP JUMPDEST SWAP1 POP SWAP2 SWAP1 POP JUMP JUMPDEST PUSH2 0xACD DUP2 PUSH2 0xAB2 JUMP JUMPDEST DUP3 MSTORE POP POP JUMP JUMPDEST PUSH1 0x0 PUSH1 0x20 DUP3 ADD SWAP1 POP PUSH2 0xAE8 PUSH1 0x0 DUP4 ADD DUP5 PUSH2 0xAC4 JUMP JUMPDEST SWAP3 SWAP2 POP POP JUMP JUMPDEST PUSH1 0x0 DUP1 REVERT JUMPDEST PUSH1 0x0 DUP2 SWAP1 POP SWAP2 SWAP1 POP JUMP JUMPDEST PUSH2 0xB06 DUP2 PUSH2 0xAF3 JUMP JUMPDEST DUP2 EQ PUSH2 0xB11 JUMPI PUSH1 0x0 DUP1 REVERT JUMPDEST POP JUMP JUMPDEST PUSH1 0x0 DUP2 CALLDATALOAD SWAP1 POP PUSH2 0xB23 DUP2 PUSH2 0xAFD JUMP JUMPDEST SWAP3 SWAP2 POP POP JUMP JUMPDEST PUSH1 0x0 PUSH1 0x20 DUP3 DUP5 SUB SLT ISZERO PUSH2 0xB3F JUMPI PUSH2 0xB3E PUSH2 0xAEE JUMP JUMPDEST JUMPDEST PUSH1 0x0 PUSH2 0xB4D DUP5 DUP3 DUP6 ADD PUSH2 0xB14 JUMP JUMPDEST SWAP2 POP POP SWAP3 SWAP2 POP POP JUMP JUMPDEST PUSH1 0x0 DUP3 DUP3 MSTORE PUSH1 0x20 DUP3 ADD SWAP1 POP SWAP3 SWAP2 POP POP JUMP JUMPDEST PUSH32 0x4572726F72203A204F6E6C7920746865206D616E616765722063616E2063616C PUSH1 0x0 DUP3 ADD MSTORE PUSH32 0x6C20746869732066756E6374696F6E0000000000000000000000000000000000 PUSH1 0x20 DUP3 ADD MSTORE POP JUMP JUMPDEST PUSH1 0x0 PUSH2 0xBC3 PUSH1 0x2F DUP4 PUSH2 0xB56 JUMP JUMPDEST SWAP2 POP PUSH2 0xBCE DUP3 PUSH2 0xB67 JUMP JUMPDEST PUSH1 0x40 DUP3 ADD SWAP1 POP SWAP2 SWAP1 POP JUMP JUMPDEST PUSH1 0x0 PUSH1 0x20 DUP3 ADD SWAP1 POP DUP2 DUP2 SUB PUSH1 0x0 DUP4 ADD MSTORE PUSH2 0xBF2 DUP2 PUSH2 0xBB6 JUMP JUMPDEST SWAP1 POP SWAP2 SWAP1 POP JUMP JUMPDEST PUSH32 0x4572726F72203A205468652047616D65206973206E6F7420656E646564000000 PUSH1 0x0 DUP3 ADD MSTORE POP JUMP JUMPDEST PUSH1 0x0 PUSH2 0xC2F PUSH1 0x1D DUP4 PUSH2 0xB56 JUMP JUMPDEST SWAP2 POP PUSH2 0xC3A DUP3 PUSH2 0xBF9 JUMP JUMPDEST PUSH1 0x20 DUP3 ADD SWAP1 POP SWAP2 SWAP1 POP JUMP JUMPDEST PUSH1 0x0 PUSH1 0x20 DUP3 ADD SWAP1 POP DUP2 DUP2 SUB PUSH1 0x0 DUP4 ADD MSTORE PUSH2 0xC5E DUP2 PUSH2 0xC22 JUMP JUMPDEST SWAP1 POP SWAP2 SWAP1 POP JUMP JUMPDEST PUSH32 0x4E487B7100000000000000000000000000000000000000000000000000000000 PUSH1 0x0 MSTORE PUSH1 0x12 PUSH1 0x4 MSTORE PUSH1 0x24 PUSH1 0x0 REVERT JUMPDEST PUSH1 0x0 PUSH2 0xC9F DUP3 PUSH2 0xAF3 JUMP JUMPDEST SWAP2 POP PUSH2 0xCAA DUP4 PUSH2 0xAF3 JUMP JUMPDEST SWAP3 POP DUP3 PUSH2 0xCBA JUMPI PUSH2 0xCB9 PUSH2 0xC65 JUMP JUMPDEST JUMPDEST DUP3 DUP3 MOD SWAP1 POP SWAP3 SWAP2 POP POP JUMP JUMPDEST PUSH32 0x4E487B7100000000000000000000000000000000000000000000000000000000 PUSH1 0x0 MSTORE PUSH1 0x32 PUSH1 0x4 MSTORE PUSH1 0x24 PUSH1 0x0 REVERT JUMPDEST PUSH32 0x4572726F72203A204D616E616765722063616E206E6F74206265742074686520 PUSH1 0x0 DUP3 ADD MSTORE PUSH32 0x6C6F74746572792067616D650000000000000000000000000000000000000000 PUSH1 0x20 DUP3 ADD MSTORE POP JUMP JUMPDEST PUSH1 0x0 PUSH2 0xD50 PUSH1 0x2C DUP4 PUSH2 0xB56 JUMP JUMPDEST SWAP2 POP PUSH2 0xD5B DUP3 PUSH2 0xCF4 JUMP JUMPDEST PUSH1 0x40 DUP3 ADD SWAP1 POP SWAP2 SWAP1 POP JUMP JUMPDEST PUSH1 0x0 PUSH1 0x20 DUP3 ADD SWAP1 POP DUP2 DUP2 SUB PUSH1 0x0 DUP4 ADD MSTORE PUSH2 0xD7F DUP2 PUSH2 0xD43 JUMP JUMPDEST SWAP1 POP SWAP2 SWAP1 POP JUMP JUMPDEST PUSH32 0x4572726F72203A2047616E65206973206E6F74206F70656E0000000000000000 PUSH1 0x0 DUP3 ADD MSTORE POP JUMP JUMPDEST PUSH1 0x0 PUSH2 0xDBC PUSH1 0x18 DUP4 PUSH2 0xB56 JUMP JUMPDEST SWAP2 POP PUSH2 0xDC7 DUP3 PUSH2 0xD86 JUMP JUMPDEST PUSH1 0x20 DUP3 ADD SWAP1 POP SWAP2 SWAP1 POP JUMP JUMPDEST PUSH1 0x0 PUSH1 0x20 DUP3 ADD SWAP1 POP DUP2 DUP2 SUB PUSH1 0x0 DUP4 ADD MSTORE PUSH2 0xDEB DUP2 PUSH2 0xDAF JUMP JUMPDEST SWAP1 POP SWAP2 SWAP1 POP JUMP JUMPDEST PUSH32 0x4F6E6C79203120457468657220697320416C6C6F776564000000000000000000 PUSH1 0x0 DUP3 ADD MSTORE POP JUMP JUMPDEST PUSH1 0x0 PUSH2 0xE28 PUSH1 0x17 DUP4 PUSH2 0xB56 JUMP JUMPDEST SWAP2 POP PUSH2 0xE33 DUP3 PUSH2 0xDF2 JUMP JUMPDEST PUSH1 0x20 DUP3 ADD SWAP1 POP SWAP2 SWAP1 POP JUMP JUMPDEST PUSH1 0x0 PUSH1 0x20 DUP3 ADD SWAP1 POP DUP2 DUP2 SUB PUSH1 0x0 DUP4 ADD MSTORE PUSH2 0xE57 DUP2 PUSH2 0xE1B JUMP JUMPDEST SWAP1 POP SWAP2 SWAP1 POP JUMP JUMPDEST PUSH1 0x0 DUP2 SWAP1 POP SWAP2 SWAP1 POP JUMP JUMPDEST PUSH2 0xE79 PUSH2 0xE74 DUP3 PUSH2 0xAF3 JUMP JUMPDEST PUSH2 0xE5E JUMP JUMPDEST DUP3 MSTORE POP POP JUMP JUMPDEST PUSH1 0x0 PUSH2 0xE8B DUP3 DUP7 PUSH2 0xE68 JUMP JUMPDEST PUSH1 0x20 DUP3 ADD SWAP2 POP PUSH2 0xE9B DUP3 DUP6 PUSH2 0xE68 JUMP JUMPDEST PUSH1 0x20 DUP3 ADD SWAP2 POP PUSH2 0xEAB DUP3 DUP5 PUSH2 0xE68 JUMP JUMPDEST PUSH1 0x20 DUP3 ADD SWAP2 POP DUP2 SWAP1 POP SWAP5 SWAP4 POP POP POP POP JUMP JUMPDEST PUSH32 0x4E487B7100000000000000000000000000000000000000000000000000000000 PUSH1 0x0 MSTORE PUSH1 0x11 PUSH1 0x4 MSTORE PUSH1 0x24 PUSH1 0x0 REVERT JUMPDEST PUSH1 0x0 PUSH2 0xEF6 DUP3 PUSH2 0xAF3 JUMP JUMPDEST SWAP2 POP PUSH32 0xFFFFFFFFFFFFFFFFFFFFFFFFFFFFFFFFFFFFFFFFFFFFFFFFFFFFFFFFFFFFFFFF DUP3 SUB PUSH2 0xF28 JUMPI PUSH2 0xF27 PUSH2 0xEBC JUMP JUMPDEST JUMPDEST PUSH1 0x1 DUP3 ADD SWAP1 POP SWAP2 SWAP1 POP JUMP INVALID LOG2 PUSH5 0x6970667358 0x22 SLT KECCAK256 0xF9 DUP6 DUP10 0xAF 0xF7 DUP4 LOG0 CALLCODE 0x5D JUMPDEST 0x2B BALANCE 0x4E SWAP13 0xBE 0xCD 0xA6 PUSH27 0x859D3B7260BD0EFE4E0B8D208C9564736F6C634300081200330000 "
		},
		"gasEstimates": {
			"creation": {
				"codeDepositCost": "789000",
				"executionCost": "49408",
				"totalCost": "838408"
			},
			"external": {
				"closeGame()": "26643",
				"enter()": "infinite",
				"getPlayers()": "infinite",
				"lottoStatus()": "2560",
				"manager()": "2512",
				"openGame()": "26664",
				"pickWinner()": "infinite",
				"players(uint256)": "5000"
			},
			"internal": {
				"checkDup()": "infinite",
				"random()": "infinite"
			}
		},
		"methodIdentifiers": {
			"closeGame()": "786b844b",
			"enter()": "e97dcb62",
			"getPlayers()": "8b5b9ccc",
			"lottoStatus()": "b12cf032",
			"manager()": "481c6a75",
			"openGame()": "fa12d782",
			"pickWinner()": "5d495aea",
			"players(uint256)": "f71d96cb"
		}
	},
	"abi": [
		{
			"inputs": [],
			"stateMutability": "nonpayable",
			"type": "constructor"
		},
		{
			"anonymous": false,
			"inputs": [
				{
					"indexed": false,
					"internalType": "address",
					"name": "player",
					"type": "address"
				}
			],
			"name": "PlayerEntered",
			"type": "event"
		},
		{
			"anonymous": false,
			"inputs": [
				{
					"indexed": false,
					"internalType": "address",
					"name": "winner",
					"type": "address"
				}
			],
			"name": "Winner",
			"type": "event"
		},
		{
			"inputs": [],
			"name": "closeGame",
			"outputs": [],
			"stateMutability": "nonpayable",
			"type": "function"
		},
		{
			"inputs": [],
			"name": "enter",
			"outputs": [],
			"stateMutability": "payable",
			"type": "function"
		},
		{
			"inputs": [],
			"name": "getPlayers",
			"outputs": [
				{
					"internalType": "address[]",
					"name": "",
					"type": "address[]"
				}
			],
			"stateMutability": "view",
			"type": "function"
		},
		{
			"inputs": [],
			"name": "lottoStatus",
			"outputs": [
				{
					"internalType": "enum LotteryGame.Status",
					"name": "",
					"type": "uint8"
				}
			],
			"stateMutability": "view",
			"type": "function"
		},
		{
			"inputs": [],
			"name": "manager",
			"outputs": [
				{
					"internalType": "address",
					"name": "",
					"type": "address"
				}
			],
			"stateMutability": "view",
			"type": "function"
		},
		{
			"inputs": [],
			"name": "openGame",
			"outputs": [],
			"stateMutability": "nonpayable",
			"type": "function"
		},
		{
			"inputs": [],
			"name": "pickWinner",
			"outputs": [],
			"stateMutability": "nonpayable",
			"type": "function"
		},
		{
			"inputs": [
				{
					"internalType": "uint256",
					"name": "",
					"type": "uint256"
				}
			],
			"name": "players",
			"outputs": [
				{
					"internalType": "address",
					"name": "",
					"type": "address"
				}
			],
			"stateMutability": "view",
			"type": "function"
		}
	]
}