{
	"data": {
		"bytecode": {
			"linkReferences": {},
			"object": "60806040523480156200001157600080fd5b50604051620028973803806200289783398181016040528101906200003791906200048f565b336000806101000a81548173ffffffffffffffffffffffffffffffffffffffff021916908373ffffffffffffffffffffffffffffffffffffffff16021790555081600590816200008891906200075f565b5080600690816200009a91906200075f565b506000600190505b60058111620000d357620000bd3382620000dc60201b60201c565b8080620000ca9062000875565b915050620000a2565b505050620009b7565b600073ffffffffffffffffffffffffffffffffffffffff168273ffffffffffffffffffffffffffffffffffffffff16036200014e576040517f08c379a0000000000000000000000000000000000000000000000000000000008152600401620001459062000923565b60405180910390fd5b600073ffffffffffffffffffffffffffffffffffffffff166001600083815260200190815260200160002060009054906101000a900473ffffffffffffffffffffffffffffffffffffffff1673ffffffffffffffffffffffffffffffffffffffff1614620001f3576040517f08c379a0000000000000000000000000000000000000000000000000000000008152600401620001ea9062000995565b60405180910390fd5b600260008373ffffffffffffffffffffffffffffffffffffffff1673ffffffffffffffffffffffffffffffffffffffff1681526020019081526020016000206000815480929190620002459062000875565b9190505550816001600083815260200190815260200160002060006101000a81548173ffffffffffffffffffffffffffffffffffffffff021916908373ffffffffffffffffffffffffffffffffffffffff160217905550808273ffffffffffffffffffffffffffffffffffffffff16600073ffffffffffffffffffffffffffffffffffffffff167fddf252ad1be2c89b69c2b068fc378daa952ba7f163c4a11628f55a4df523b3ef60405160405180910390a45050565b6000604051905090565b600080fd5b600080fd5b600080fd5b600080fd5b6000601f19601f8301169050919050565b7f4e487b7100000000000000000000000000000000000000000000000000000000600052604160045260246000fd5b62000365826200031a565b810181811067ffffffffffffffff821117156200038757620003866200032b565b5b80604052505050565b60006200039c620002fc565b9050620003aa82826200035a565b919050565b600067ffffffffffffffff821115620003cd57620003cc6200032b565b5b620003d8826200031a565b9050602081019050919050565b60005b8381101562000405578082015181840152602081019050620003e8565b60008484015250505050565b6000620004286200042284620003af565b62000390565b90508281526020810184848401111562000447576200044662000315565b5b62000454848285620003e5565b509392505050565b600082601f83011262000474576200047362000310565b5b81516200048684826020860162000411565b91505092915050565b60008060408385031215620004a957620004a862000306565b5b600083015167ffffffffffffffff811115620004ca57620004c96200030b565b5b620004d8858286016200045c565b925050602083015167ffffffffffffffff811115620004fc57620004fb6200030b565b5b6200050a858286016200045c565b9150509250929050565b600081519050919050565b7f4e487b7100000000000000000000000000000000000000000000000000000000600052602260045260246000fd5b600060028204905060018216806200056757607f821691505b6020821081036200057d576200057c6200051f565b5b50919050565b60008190508160005260206000209050919050565b60006020601f8301049050919050565b600082821b905092915050565b600060088302620005e77fffffffffffffffffffffffffffffffffffffffffffffffffffffffffffffffff82620005a8565b620005f38683620005a8565b95508019841693508086168417925050509392505050565b6000819050919050565b6000819050919050565b6000620006406200063a62000634846200060b565b62000615565b6200060b565b9050919050565b6000819050919050565b6200065c836200061f565b620006746200066b8262000647565b848454620005b5565b825550505050565b600090565b6200068b6200067c565b6200069881848462000651565b505050565b5b81811015620006c057620006b460008262000681565b6001810190506200069e565b5050565b601f8211156200070f57620006d98162000583565b620006e48462000598565b81016020851015620006f4578190505b6200070c620007038562000598565b8301826200069d565b50505b505050565b600082821c905092915050565b6000620007346000198460080262000714565b1980831691505092915050565b60006200074f838362000721565b9150826002028217905092915050565b6200076a8262000514565b67ffffffffffffffff8111156200078657620007856200032b565b5b6200079282546200054e565b6200079f828285620006c4565b600060209050601f831160018114620007d75760008415620007c2578287015190505b620007ce858262000741565b8655506200083e565b601f198416620007e78662000583565b60005b828110156200081157848901518255600182019150602085019450602081019050620007ea565b868310156200083157848901516200082d601f89168262000721565b8355505b6001600288020188555050505b505050505050565b7f4e487b7100000000000000000000000000000000000000000000000000000000600052601160045260246000fd5b600062000882826200060b565b91507fffffffffffffffffffffffffffffffffffffffffffffffffffffffffffffffff8203620008b757620008b662000846565b5b600182019050919050565b600082825260208201905092915050565b7f4572726f72203a206d696e7420746f207a65726f206164647265737300000000600082015250565b60006200090b601c83620008c2565b91506200091882620008d3565b602082019050919050565b600060208201905081810360008301526200093e81620008fc565b9050919050565b7f4572726f72203a20416c7265616479206d696e74656421000000000000000000600082015250565b60006200097d601783620008c2565b91506200098a8262000945565b602082019050919050565b60006020820190508181036000830152620009b0816200096e565b9050919050565b611ed080620009c76000396000f3fe6080604052600436106100dd5760003560e01c80636352211e1161007f578063a22cb46511610059578063a22cb465146102b8578063b88d4fde146102e1578063e985e9c5146102fd578063edc3bc3f1461033a576100dd565b80636352211e1461021357806370a082311461025057806395d89b411461028d576100dd565b8063095ea7b3116100bb578063095ea7b31461018757806323b872dd146101a35780633c168eab146101bf5780634d853ee5146101e8576100dd565b806301ffc9a7146100e257806306fdde031461011f578063081812fc1461014a575b600080fd5b3480156100ee57600080fd5b50610109600480360381019061010491906113b6565b610377565b60405161011691906113fe565b60405180910390f35b34801561012b57600080fd5b50610134610449565b60405161014191906114a9565b60405180910390f35b34801561015657600080fd5b50610171600480360381019061016c9190611501565b6104d7565b60405161017e919061156f565b60405180910390f35b6101a1600480360381019061019c91906115b6565b6105b5565b005b6101bd60048036038101906101b891906115f6565b61079e565b005b3480156101cb57600080fd5b506101e660048036038101906101e191906115b6565b6107ae565b005b3480156101f457600080fd5b506101fd61084a565b60405161020a919061156f565b60405180910390f35b34801561021f57600080fd5b5061023a60048036038101906102359190611501565b61086e565b604051610247919061156f565b60405180910390f35b34801561025c57600080fd5b5061027760048036038101906102729190611649565b61091f565b6040516102849190611685565b60405180910390f35b34801561029957600080fd5b506102a26109d6565b6040516102af91906114a9565b60405180910390f35b3480156102c457600080fd5b506102df60048036038101906102da91906116cc565b610a64565b005b6102fb60048036038101906102f69190611771565b610b61565b005b34801561030957600080fd5b50610324600480360381019061031f91906117f9565b610c9f565b60405161033191906113fe565b60405180910390f35b34801561034657600080fd5b50610361600480360381019061035c91906117f9565b610d33565b60405161036e91906113fe565b60405180910390f35b60007fc22876c3000000000000000000000000000000000000000000000000000000007bffffffffffffffffffffffffffffffffffffffffffffffffffffffff1916827bffffffffffffffffffffffffffffffffffffffffffffffffffffffff1916148061044257507f01ffc9a7000000000000000000000000000000000000000000000000000000007bffffffffffffffffffffffffffffffffffffffffffffffffffffffff1916827bffffffffffffffffffffffffffffffffffffffffffffffffffffffff1916145b9050919050565b6005805461045690611868565b80601f016020809104026020016040519081016040528092919081815260200182805461048290611868565b80156104cf5780601f106104a4576101008083540402835291602001916104cf565b820191906000526020600020905b8154815290600101906020018083116104b257829003601f168201915b505050505081565b60008073ffffffffffffffffffffffffffffffffffffffff166001600084815260200190815260200160002060009054906101000a900473ffffffffffffffffffffffffffffffffffffffff1673ffffffffffffffffffffffffffffffffffffffff160361057a576040517f08c379a0000000000000000000000000000000000000000000000000000000008152600401610571906118e5565b60405180910390fd5b6003600083815260200190815260200160002060009054906101000a900473ffffffffffffffffffffffffffffffffffffffff169050919050565b60006001600083815260200190815260200160002060009054906101000a900473ffffffffffffffffffffffffffffffffffffffff1690508073ffffffffffffffffffffffffffffffffffffffff163373ffffffffffffffffffffffffffffffffffffffff1614806106ad5750600460008273ffffffffffffffffffffffffffffffffffffffff1673ffffffffffffffffffffffffffffffffffffffff16815260200190815260200160002060003373ffffffffffffffffffffffffffffffffffffffff1673ffffffffffffffffffffffffffffffffffffffff16815260200190815260200160002060009054906101000a900460ff165b6106ec576040517f08c379a00000000000000000000000000000000000000000000000000000000081526004016106e390611951565b60405180910390fd5b826003600084815260200190815260200160002060006101000a81548173ffffffffffffffffffffffffffffffffffffffff021916908373ffffffffffffffffffffffffffffffffffffffff160217905550818373ffffffffffffffffffffffffffffffffffffffff168273ffffffffffffffffffffffffffffffffffffffff167f8c5be1e5ebec7d5bd14f71427d1e84f3dd0314c0f7b2291e5b200ac8c7c3b92560405160405180910390a4505050565b6107a9838383610d62565b505050565b60008054906101000a900473ffffffffffffffffffffffffffffffffffffffff1673ffffffffffffffffffffffffffffffffffffffff163373ffffffffffffffffffffffffffffffffffffffff161461083c576040517f08c379a0000000000000000000000000000000000000000000000000000000008152600401610833906119e3565b60405180910390fd5b610846828261113c565b5050565b60008054906101000a900473ffffffffffffffffffffffffffffffffffffffff1681565b6000806001600084815260200190815260200160002060009054906101000a900473ffffffffffffffffffffffffffffffffffffffff169050600073ffffffffffffffffffffffffffffffffffffffff168173ffffffffffffffffffffffffffffffffffffffff1603610916576040517f08c379a000000000000000000000000000000000000000000000000000000000815260040161090d90611a4f565b60405180910390fd5b80915050919050565b60008073ffffffffffffffffffffffffffffffffffffffff168273ffffffffffffffffffffffffffffffffffffffff160361098f576040517f08c379a000000000000000000000000000000000000000000000000000000000815260040161098690611ae1565b60405180910390fd5b600260008373ffffffffffffffffffffffffffffffffffffffff1673ffffffffffffffffffffffffffffffffffffffff168152602001908152602001600020549050919050565b600680546109e390611868565b80601f0160208091040260200160405190810160405280929190818152602001828054610a0f90611868565b8015610a5c5780601f10610a3157610100808354040283529160200191610a5c565b820191906000526020600020905b815481529060010190602001808311610a3f57829003601f168201915b505050505081565b80600460003373ffffffffffffffffffffffffffffffffffffffff1673ffffffffffffffffffffffffffffffffffffffff16815260200190815260200160002060008473ffffffffffffffffffffffffffffffffffffffff1673ffffffffffffffffffffffffffffffffffffffff16815260200190815260200160002060006101000a81548160ff0219169083151502179055508173ffffffffffffffffffffffffffffffffffffffff163373ffffffffffffffffffffffffffffffffffffffff167f17307eab39ab6107e8899845ad3d59bd9653f200f220920489ca2b5937696c3183604051610b5591906113fe565b60405180910390a35050565b610b6c858585610d62565b60008473ffffffffffffffffffffffffffffffffffffffff163b1480610c59575063150b7a0260e01b7bffffffffffffffffffffffffffffffffffffffffffffffffffffffff19168473ffffffffffffffffffffffffffffffffffffffff1663150b7a0233888787876040518663ffffffff1660e01b8152600401610bf5959493929190611b4e565b6020604051808303816000875af1158015610c14573d6000803e3d6000fd5b505050506040513d601f19601f82011682018060405250810190610c389190611bb1565b7bffffffffffffffffffffffffffffffffffffffffffffffffffffffff1916145b610c98576040517f08c379a0000000000000000000000000000000000000000000000000000000008152600401610c8f90611c2a565b60405180910390fd5b5050505050565b6000600460008473ffffffffffffffffffffffffffffffffffffffff1673ffffffffffffffffffffffffffffffffffffffff16815260200190815260200160002060008373ffffffffffffffffffffffffffffffffffffffff1673ffffffffffffffffffffffffffffffffffffffff16815260200190815260200160002060009054906101000a900460ff16905092915050565b60046020528160005260406000206020528060005260406000206000915091509054906101000a900460ff1681565b60006001600083815260200190815260200160002060009054906101000a900473ffffffffffffffffffffffffffffffffffffffff1690508073ffffffffffffffffffffffffffffffffffffffff168473ffffffffffffffffffffffffffffffffffffffff1614610e08576040517f08c379a0000000000000000000000000000000000000000000000000000000008152600401610dff90611c96565b60405180910390fd5b600073ffffffffffffffffffffffffffffffffffffffff168373ffffffffffffffffffffffffffffffffffffffff1603610e77576040517f08c379a0000000000000000000000000000000000000000000000000000000008152600401610e6e90611d02565b60405180910390fd5b8073ffffffffffffffffffffffffffffffffffffffff163373ffffffffffffffffffffffffffffffffffffffff161480610f0f57506003600083815260200190815260200160002060009054906101000a900473ffffffffffffffffffffffffffffffffffffffff1673ffffffffffffffffffffffffffffffffffffffff163373ffffffffffffffffffffffffffffffffffffffff16145b80610fa05750600460008273ffffffffffffffffffffffffffffffffffffffff1673ffffffffffffffffffffffffffffffffffffffff16815260200190815260200160002060003373ffffffffffffffffffffffffffffffffffffffff1673ffffffffffffffffffffffffffffffffffffffff16815260200190815260200160002060009054906101000a900460ff165b610fa957600080fd5b600260008573ffffffffffffffffffffffffffffffffffffffff1673ffffffffffffffffffffffffffffffffffffffff1681526020019081526020016000206000815480929190610ff990611d51565b9190505550600260008473ffffffffffffffffffffffffffffffffffffffff1673ffffffffffffffffffffffffffffffffffffffff168152602001908152602001600020600081548092919061104e90611d7a565b9190505550826001600084815260200190815260200160002060006101000a81548173ffffffffffffffffffffffffffffffffffffffff021916908373ffffffffffffffffffffffffffffffffffffffff1602179055506003600083815260200190815260200160002060006101000a81549073ffffffffffffffffffffffffffffffffffffffff0219169055818373ffffffffffffffffffffffffffffffffffffffff168573ffffffffffffffffffffffffffffffffffffffff167fddf252ad1be2c89b69c2b068fc378daa952ba7f163c4a11628f55a4df523b3ef60405160405180910390a450505050565b600073ffffffffffffffffffffffffffffffffffffffff168273ffffffffffffffffffffffffffffffffffffffff16036111ab576040517f08c379a00000000000000000000000000000000000000000000000000000000081526004016111a290611e0e565b60405180910390fd5b600073ffffffffffffffffffffffffffffffffffffffff166001600083815260200190815260200160002060009054906101000a900473ffffffffffffffffffffffffffffffffffffffff1673ffffffffffffffffffffffffffffffffffffffff161461124d576040517f08c379a000000000000000000000000000000000000000000000000000000000815260040161124490611e7a565b60405180910390fd5b600260008373ffffffffffffffffffffffffffffffffffffffff1673ffffffffffffffffffffffffffffffffffffffff168152602001908152602001600020600081548092919061129d90611d7a565b9190505550816001600083815260200190815260200160002060006101000a81548173ffffffffffffffffffffffffffffffffffffffff021916908373ffffffffffffffffffffffffffffffffffffffff160217905550808273ffffffffffffffffffffffffffffffffffffffff16600073ffffffffffffffffffffffffffffffffffffffff167fddf252ad1be2c89b69c2b068fc378daa952ba7f163c4a11628f55a4df523b3ef60405160405180910390a45050565b600080fd5b600080fd5b60007fffffffff0000000000000000000000000000000000000000000000000000000082169050919050565b6113938161135e565b811461139e57600080fd5b50565b6000813590506113b08161138a565b92915050565b6000602082840312156113cc576113cb611354565b5b60006113da848285016113a1565b91505092915050565b60008115159050919050565b6113f8816113e3565b82525050565b600060208201905061141360008301846113ef565b92915050565b600081519050919050565b600082825260208201905092915050565b60005b83811015611453578082015181840152602081019050611438565b60008484015250505050565b6000601f19601f8301169050919050565b600061147b82611419565b6114858185611424565b9350611495818560208601611435565b61149e8161145f565b840191505092915050565b600060208201905081810360008301526114c38184611470565b905092915050565b6000819050919050565b6114de816114cb565b81146114e957600080fd5b50565b6000813590506114fb816114d5565b92915050565b60006020828403121561151757611516611354565b5b6000611525848285016114ec565b91505092915050565b600073ffffffffffffffffffffffffffffffffffffffff82169050919050565b60006115598261152e565b9050919050565b6115698161154e565b82525050565b60006020820190506115846000830184611560565b92915050565b6115938161154e565b811461159e57600080fd5b50565b6000813590506115b08161158a565b92915050565b600080604083850312156115cd576115cc611354565b5b60006115db858286016115a1565b92505060206115ec858286016114ec565b9150509250929050565b60008060006060848603121561160f5761160e611354565b5b600061161d868287016115a1565b935050602061162e868287016115a1565b925050604061163f868287016114ec565b9150509250925092565b60006020828403121561165f5761165e611354565b5b600061166d848285016115a1565b91505092915050565b61167f816114cb565b82525050565b600060208201905061169a6000830184611676565b92915050565b6116a9816113e3565b81146116b457600080fd5b50565b6000813590506116c6816116a0565b92915050565b600080604083850312156116e3576116e2611354565b5b60006116f1858286016115a1565b9250506020611702858286016116b7565b9150509250929050565b600080fd5b600080fd5b600080fd5b60008083601f8401126117315761173061170c565b5b8235905067ffffffffffffffff81111561174e5761174d611711565b5b60208301915083600182028301111561176a57611769611716565b5b9250929050565b60008060008060006080868803121561178d5761178c611354565b5b600061179b888289016115a1565b95505060206117ac888289016115a1565b94505060406117bd888289016114ec565b935050606086013567ffffffffffffffff8111156117de576117dd611359565b5b6117ea8882890161171b565b92509250509295509295909350565b600080604083850312156118105761180f611354565b5b600061181e858286016115a1565b925050602061182f858286016115a1565b9150509250929050565b7f4e487b7100000000000000000000000000000000000000000000000000000000600052602260045260246000fd5b6000600282049050600182168061188057607f821691505b60208210810361189357611892611839565b5b50919050565b7f4572726f72203a20746f6b656e20646f6573206e6f7420657869737400000000600082015250565b60006118cf601c83611424565b91506118da82611899565b602082019050919050565b600060208201905081810360008301526118fe816118c2565b9050919050565b7f6e6f7420617574686f72697a6564000000000000000000000000000000000000600082015250565b600061193b600e83611424565b915061194682611905565b602082019050919050565b6000602082019050818103600083015261196a8161192e565b9050919050565b7f4572726f72203a20596f7520617265206e6f7420616e20617574686f72697a6560008201527f64206d696e746572000000000000000000000000000000000000000000000000602082015250565b60006119cd602883611424565b91506119d882611971565b604082019050919050565b600060208201905081810360008301526119fc816119c0565b9050919050565b7f4572726f72203a20546f6b656e20646f6573206e6f7420657869737400000000600082015250565b6000611a39601c83611424565b9150611a4482611a03565b602082019050919050565b60006020820190508181036000830152611a6881611a2c565b9050919050565b7f4572726f72203a2062616c616e636520717565727920666f7220746865207a6560008201527f726f206164647265737300000000000000000000000000000000000000000000602082015250565b6000611acb602a83611424565b9150611ad682611a6f565b604082019050919050565b60006020820190508181036000830152611afa81611abe565b9050919050565b600082825260208201905092915050565b82818337600083830152505050565b6000611b2d8385611b01565b9350611b3a838584611b12565b611b438361145f565b840190509392505050565b6000608082019050611b636000830188611560565b611b706020830187611560565b611b7d6040830186611676565b8181036060830152611b90818486611b21565b90509695505050505050565b600081519050611bab8161138a565b92915050565b600060208284031215611bc757611bc6611354565b5b6000611bd584828501611b9c565b91505092915050565b7f4572726f72203a20756e7361666520726563697069656e740000000000000000600082015250565b6000611c14601883611424565b9150611c1f82611bde565b602082019050919050565b60006020820190508181036000830152611c4381611c07565b9050919050565b7f66726f6d20213d206f776e657200000000000000000000000000000000000000600082015250565b6000611c80600d83611424565b9150611c8b82611c4a565b602082019050919050565b60006020820190508181036000830152611caf81611c73565b9050919050565b7f7472616e7366657220746f207a65726f20616464726573730000000000000000600082015250565b6000611cec601883611424565b9150611cf782611cb6565b602082019050919050565b60006020820190508181036000830152611d1b81611cdf565b9050919050565b7f4e487b7100000000000000000000000000000000000000000000000000000000600052601160045260246000fd5b6000611d5c826114cb565b915060008203611d6f57611d6e611d22565b5b600182039050919050565b6000611d85826114cb565b91507fffffffffffffffffffffffffffffffffffffffffffffffffffffffffffffffff8203611db757611db6611d22565b5b600182019050919050565b7f4572726f72203a206d696e7420746f207a65726f206164647265737300000000600082015250565b6000611df8601c83611424565b9150611e0382611dc2565b602082019050919050565b60006020820190508181036000830152611e2781611deb565b9050919050565b7f4572726f72203a20416c7265616479206d696e74656421000000000000000000600082015250565b6000611e64601783611424565b9150611e6f82611e2e565b602082019050919050565b60006020820190508181036000830152611e9381611e57565b905091905056fea264697066735822122032f669242b4fe1d0c1d89a6214ad1923ffdca0295682289e3bf6c82e3a95502464736f6c63430008120033",
			"opcodes": "PUSH1 0x80 PUSH1 0x40 MSTORE CALLVALUE DUP1 ISZERO PUSH3 0x11 JUMPI PUSH1 0x0 DUP1 REVERT JUMPDEST POP PUSH1 0x40 MLOAD PUSH3 0x2897 CODESIZE SUB DUP1 PUSH3 0x2897 DUP4 CODECOPY DUP2 DUP2 ADD PUSH1 0x40 MSTORE DUP2 ADD SWAP1 PUSH3 0x37 SWAP2 SWAP1 PUSH3 0x48F JUMP JUMPDEST CALLER PUSH1 0x0 DUP1 PUSH2 0x100 EXP DUP2 SLOAD DUP2 PUSH20 0xFFFFFFFFFFFFFFFFFFFFFFFFFFFFFFFFFFFFFFFF MUL NOT AND SWAP1 DUP4 PUSH20 0xFFFFFFFFFFFFFFFFFFFFFFFFFFFFFFFFFFFFFFFF AND MUL OR SWAP1 SSTORE POP DUP2 PUSH1 0x5 SWAP1 DUP2 PUSH3 0x88 SWAP2 SWAP1 PUSH3 0x75F JUMP JUMPDEST POP DUP1 PUSH1 0x6 SWAP1 DUP2 PUSH3 0x9A SWAP2 SWAP1 PUSH3 0x75F JUMP JUMPDEST POP PUSH1 0x0 PUSH1 0x1 SWAP1 POP JUMPDEST PUSH1 0x5 DUP2 GT PUSH3 0xD3 JUMPI PUSH3 0xBD CALLER DUP3 PUSH3 0xDC PUSH1 0x20 SHL PUSH1 0x20 SHR JUMP JUMPDEST DUP1 DUP1 PUSH3 0xCA SWAP1 PUSH3 0x875 JUMP JUMPDEST SWAP2 POP POP PUSH3 0xA2 JUMP JUMPDEST POP POP POP PUSH3 0x9B7 JUMP JUMPDEST PUSH1 0x0 PUSH20 0xFFFFFFFFFFFFFFFFFFFFFFFFFFFFFFFFFFFFFFFF AND DUP3 PUSH20 0xFFFFFFFFFFFFFFFFFFFFFFFFFFFFFFFFFFFFFFFF AND SUB PUSH3 0x14E JUMPI PUSH1 0x40 MLOAD PUSH32 0x8C379A000000000000000000000000000000000000000000000000000000000 DUP2 MSTORE PUSH1 0x4 ADD PUSH3 0x145 SWAP1 PUSH3 0x923 JUMP JUMPDEST PUSH1 0x40 MLOAD DUP1 SWAP2 SUB SWAP1 REVERT JUMPDEST PUSH1 0x0 PUSH20 0xFFFFFFFFFFFFFFFFFFFFFFFFFFFFFFFFFFFFFFFF AND PUSH1 0x1 PUSH1 0x0 DUP4 DUP2 MSTORE PUSH1 0x20 ADD SWAP1 DUP2 MSTORE PUSH1 0x20 ADD PUSH1 0x0 KECCAK256 PUSH1 0x0 SWAP1 SLOAD SWAP1 PUSH2 0x100 EXP SWAP1 DIV PUSH20 0xFFFFFFFFFFFFFFFFFFFFFFFFFFFFFFFFFFFFFFFF AND PUSH20 0xFFFFFFFFFFFFFFFFFFFFFFFFFFFFFFFFFFFFFFFF AND EQ PUSH3 0x1F3 JUMPI PUSH1 0x40 MLOAD PUSH32 0x8C379A000000000000000000000000000000000000000000000000000000000 DUP2 MSTORE PUSH1 0x4 ADD PUSH3 0x1EA SWAP1 PUSH3 0x995 JUMP JUMPDEST PUSH1 0x40 MLOAD DUP1 SWAP2 SUB SWAP1 REVERT JUMPDEST PUSH1 0x2 PUSH1 0x0 DUP4 PUSH20 0xFFFFFFFFFFFFFFFFFFFFFFFFFFFFFFFFFFFFFFFF AND PUSH20 0xFFFFFFFFFFFFFFFFFFFFFFFFFFFFFFFFFFFFFFFF AND DUP2 MSTORE PUSH1 0x20 ADD SWAP1 DUP2 MSTORE PUSH1 0x20 ADD PUSH1 0x0 KECCAK256 PUSH1 0x0 DUP2 SLOAD DUP1 SWAP3 SWAP2 SWAP1 PUSH3 0x245 SWAP1 PUSH3 0x875 JUMP JUMPDEST SWAP2 SWAP1 POP SSTORE POP DUP2 PUSH1 0x1 PUSH1 0x0 DUP4 DUP2 MSTORE PUSH1 0x20 ADD SWAP1 DUP2 MSTORE PUSH1 0x20 ADD PUSH1 0x0 KECCAK256 PUSH1 0x0 PUSH2 0x100 EXP DUP2 SLOAD DUP2 PUSH20 0xFFFFFFFFFFFFFFFFFFFFFFFFFFFFFFFFFFFFFFFF MUL NOT AND SWAP1 DUP4 PUSH20 0xFFFFFFFFFFFFFFFFFFFFFFFFFFFFFFFFFFFFFFFF AND MUL OR SWAP1 SSTORE POP DUP1 DUP3 PUSH20 0xFFFFFFFFFFFFFFFFFFFFFFFFFFFFFFFFFFFFFFFF AND PUSH1 0x0 PUSH20 0xFFFFFFFFFFFFFFFFFFFFFFFFFFFFFFFFFFFFFFFF AND PUSH32 0xDDF252AD1BE2C89B69C2B068FC378DAA952BA7F163C4A11628F55A4DF523B3EF PUSH1 0x40 MLOAD PUSH1 0x40 MLOAD DUP1 SWAP2 SUB SWAP1 LOG4 POP POP JUMP JUMPDEST PUSH1 0x0 PUSH1 0x40 MLOAD SWAP1 POP SWAP1 JUMP JUMPDEST PUSH1 0x0 DUP1 REVERT JUMPDEST PUSH1 0x0 DUP1 REVERT JUMPDEST PUSH1 0x0 DUP1 REVERT JUMPDEST PUSH1 0x0 DUP1 REVERT JUMPDEST PUSH1 0x0 PUSH1 0x1F NOT PUSH1 0x1F DUP4 ADD AND SWAP1 POP SWAP2 SWAP1 POP JUMP JUMPDEST PUSH32 0x4E487B7100000000000000000000000000000000000000000000000000000000 PUSH1 0x0 MSTORE PUSH1 0x41 PUSH1 0x4 MSTORE PUSH1 0x24 PUSH1 0x0 REVERT JUMPDEST PUSH3 0x365 DUP3 PUSH3 0x31A JUMP JUMPDEST DUP2 ADD DUP2 DUP2 LT PUSH8 0xFFFFFFFFFFFFFFFF DUP3 GT OR ISZERO PUSH3 0x387 JUMPI PUSH3 0x386 PUSH3 0x32B JUMP JUMPDEST JUMPDEST DUP1 PUSH1 0x40 MSTORE POP POP POP JUMP JUMPDEST PUSH1 0x0 PUSH3 0x39C PUSH3 0x2FC JUMP JUMPDEST SWAP1 POP PUSH3 0x3AA DUP3 DUP3 PUSH3 0x35A JUMP JUMPDEST SWAP2 SWAP1 POP JUMP JUMPDEST PUSH1 0x0 PUSH8 0xFFFFFFFFFFFFFFFF DUP3 GT ISZERO PUSH3 0x3CD JUMPI PUSH3 0x3CC PUSH3 0x32B JUMP JUMPDEST JUMPDEST PUSH3 0x3D8 DUP3 PUSH3 0x31A JUMP JUMPDEST SWAP1 POP PUSH1 0x20 DUP2 ADD SWAP1 POP SWAP2 SWAP1 POP JUMP JUMPDEST PUSH1 0x0 JUMPDEST DUP4 DUP2 LT ISZERO PUSH3 0x405 JUMPI DUP1 DUP3 ADD MLOAD DUP2 DUP5 ADD MSTORE PUSH1 0x20 DUP2 ADD SWAP1 POP PUSH3 0x3E8 JUMP JUMPDEST PUSH1 0x0 DUP5 DUP5 ADD MSTORE POP POP POP POP JUMP JUMPDEST PUSH1 0x0 PUSH3 0x428 PUSH3 0x422 DUP5 PUSH3 0x3AF JUMP JUMPDEST PUSH3 0x390 JUMP JUMPDEST SWAP1 POP DUP3 DUP2 MSTORE PUSH1 0x20 DUP2 ADD DUP5 DUP5 DUP5 ADD GT ISZERO PUSH3 0x447 JUMPI PUSH3 0x446 PUSH3 0x315 JUMP JUMPDEST JUMPDEST PUSH3 0x454 DUP5 DUP3 DUP6 PUSH3 0x3E5 JUMP JUMPDEST POP SWAP4 SWAP3 POP POP POP JUMP JUMPDEST PUSH1 0x0 DUP3 PUSH1 0x1F DUP4 ADD SLT PUSH3 0x474 JUMPI PUSH3 0x473 PUSH3 0x310 JUMP JUMPDEST JUMPDEST DUP2 MLOAD PUSH3 0x486 DUP5 DUP3 PUSH1 0x20 DUP7 ADD PUSH3 0x411 JUMP JUMPDEST SWAP2 POP POP SWAP3 SWAP2 POP POP JUMP JUMPDEST PUSH1 0x0 DUP1 PUSH1 0x40 DUP4 DUP6 SUB SLT ISZERO PUSH3 0x4A9 JUMPI PUSH3 0x4A8 PUSH3 0x306 JUMP JUMPDEST JUMPDEST PUSH1 0x0 DUP4 ADD MLOAD PUSH8 0xFFFFFFFFFFFFFFFF DUP2 GT ISZERO PUSH3 0x4CA JUMPI PUSH3 0x4C9 PUSH3 0x30B JUMP JUMPDEST JUMPDEST PUSH3 0x4D8 DUP6 DUP3 DUP7 ADD PUSH3 0x45C JUMP JUMPDEST SWAP3 POP POP PUSH1 0x20 DUP4 ADD MLOAD PUSH8 0xFFFFFFFFFFFFFFFF DUP2 GT ISZERO PUSH3 0x4FC JUMPI PUSH3 0x4FB PUSH3 0x30B JUMP JUMPDEST JUMPDEST PUSH3 0x50A DUP6 DUP3 DUP7 ADD PUSH3 0x45C JUMP JUMPDEST SWAP2 POP POP SWAP3 POP SWAP3 SWAP1 POP JUMP JUMPDEST PUSH1 0x0 DUP2 MLOAD SWAP1 POP SWAP2 SWAP1 POP JUMP JUMPDEST PUSH32 0x4E487B7100000000000000000000000000000000000000000000000000000000 PUSH1 0x0 MSTORE PUSH1 0x22 PUSH1 0x4 MSTORE PUSH1 0x24 PUSH1 0x0 REVERT JUMPDEST PUSH1 0x0 PUSH1 0x2 DUP3 DIV SWAP1 POP PUSH1 0x1 DUP3 AND DUP1 PUSH3 0x567 JUMPI PUSH1 0x7F DUP3 AND SWAP2 POP JUMPDEST PUSH1 0x20 DUP3 LT DUP2 SUB PUSH3 0x57D JUMPI PUSH3 0x57C PUSH3 0x51F JUMP JUMPDEST JUMPDEST POP SWAP2 SWAP1 POP JUMP JUMPDEST PUSH1 0x0 DUP2 SWAP1 POP DUP2 PUSH1 0x0 MSTORE PUSH1 0x20 PUSH1 0x0 KECCAK256 SWAP1 POP SWAP2 SWAP1 POP JUMP JUMPDEST PUSH1 0x0 PUSH1 0x20 PUSH1 0x1F DUP4 ADD DIV SWAP1 POP SWAP2 SWAP1 POP JUMP JUMPDEST PUSH1 0x0 DUP3 DUP3 SHL SWAP1 POP SWAP3 SWAP2 POP POP JUMP JUMPDEST PUSH1 0x0 PUSH1 0x8 DUP4 MUL PUSH3 0x5E7 PUSH32 0xFFFFFFFFFFFFFFFFFFFFFFFFFFFFFFFFFFFFFFFFFFFFFFFFFFFFFFFFFFFFFFFF DUP3 PUSH3 0x5A8 JUMP JUMPDEST PUSH3 0x5F3 DUP7 DUP4 PUSH3 0x5A8 JUMP JUMPDEST SWAP6 POP DUP1 NOT DUP5 AND SWAP4 POP DUP1 DUP7 AND DUP5 OR SWAP3 POP POP POP SWAP4 SWAP3 POP POP POP JUMP JUMPDEST PUSH1 0x0 DUP2 SWAP1 POP SWAP2 SWAP1 POP JUMP JUMPDEST PUSH1 0x0 DUP2 SWAP1 POP SWAP2 SWAP1 POP JUMP JUMPDEST PUSH1 0x0 PUSH3 0x640 PUSH3 0x63A PUSH3 0x634 DUP5 PUSH3 0x60B JUMP JUMPDEST PUSH3 0x615 JUMP JUMPDEST PUSH3 0x60B JUMP JUMPDEST SWAP1 POP SWAP2 SWAP1 POP JUMP JUMPDEST PUSH1 0x0 DUP2 SWAP1 POP SWAP2 SWAP1 POP JUMP JUMPDEST PUSH3 0x65C DUP4 PUSH3 0x61F JUMP JUMPDEST PUSH3 0x674 PUSH3 0x66B DUP3 PUSH3 0x647 JUMP JUMPDEST DUP5 DUP5 SLOAD PUSH3 0x5B5 JUMP JUMPDEST DUP3 SSTORE POP POP POP POP JUMP JUMPDEST PUSH1 0x0 SWAP1 JUMP JUMPDEST PUSH3 0x68B PUSH3 0x67C JUMP JUMPDEST PUSH3 0x698 DUP2 DUP5 DUP5 PUSH3 0x651 JUMP JUMPDEST POP POP POP JUMP JUMPDEST JUMPDEST DUP2 DUP2 LT ISZERO PUSH3 0x6C0 JUMPI PUSH3 0x6B4 PUSH1 0x0 DUP3 PUSH3 0x681 JUMP JUMPDEST PUSH1 0x1 DUP2 ADD SWAP1 POP PUSH3 0x69E JUMP JUMPDEST POP POP JUMP JUMPDEST PUSH1 0x1F DUP3 GT ISZERO PUSH3 0x70F JUMPI PUSH3 0x6D9 DUP2 PUSH3 0x583 JUMP JUMPDEST PUSH3 0x6E4 DUP5 PUSH3 0x598 JUMP JUMPDEST DUP2 ADD PUSH1 0x20 DUP6 LT ISZERO PUSH3 0x6F4 JUMPI DUP2 SWAP1 POP JUMPDEST PUSH3 0x70C PUSH3 0x703 DUP6 PUSH3 0x598 JUMP JUMPDEST DUP4 ADD DUP3 PUSH3 0x69D JUMP JUMPDEST POP POP JUMPDEST POP POP POP JUMP JUMPDEST PUSH1 0x0 DUP3 DUP3 SHR SWAP1 POP SWAP3 SWAP2 POP POP JUMP JUMPDEST PUSH1 0x0 PUSH3 0x734 PUSH1 0x0 NOT DUP5 PUSH1 0x8 MUL PUSH3 0x714 JUMP JUMPDEST NOT DUP1 DUP4 AND SWAP2 POP POP SWAP3 SWAP2 POP POP JUMP JUMPDEST PUSH1 0x0 PUSH3 0x74F DUP4 DUP4 PUSH3 0x721 JUMP JUMPDEST SWAP2 POP DUP3 PUSH1 0x2 MUL DUP3 OR SWAP1 POP SWAP3 SWAP2 POP POP JUMP JUMPDEST PUSH3 0x76A DUP3 PUSH3 0x514 JUMP JUMPDEST PUSH8 0xFFFFFFFFFFFFFFFF DUP2 GT ISZERO PUSH3 0x786 JUMPI PUSH3 0x785 PUSH3 0x32B JUMP JUMPDEST JUMPDEST PUSH3 0x792 DUP3 SLOAD PUSH3 0x54E JUMP JUMPDEST PUSH3 0x79F DUP3 DUP3 DUP6 PUSH3 0x6C4 JUMP JUMPDEST PUSH1 0x0 PUSH1 0x20 SWAP1 POP PUSH1 0x1F DUP4 GT PUSH1 0x1 DUP2 EQ PUSH3 0x7D7 JUMPI PUSH1 0x0 DUP5 ISZERO PUSH3 0x7C2 JUMPI DUP3 DUP8 ADD MLOAD SWAP1 POP JUMPDEST PUSH3 0x7CE DUP6 DUP3 PUSH3 0x741 JUMP JUMPDEST DUP7 SSTORE POP PUSH3 0x83E JUMP JUMPDEST PUSH1 0x1F NOT DUP5 AND PUSH3 0x7E7 DUP7 PUSH3 0x583 JUMP JUMPDEST PUSH1 0x0 JUMPDEST DUP3 DUP2 LT ISZERO PUSH3 0x811 JUMPI DUP5 DUP10 ADD MLOAD DUP3 SSTORE PUSH1 0x1 DUP3 ADD SWAP2 POP PUSH1 0x20 DUP6 ADD SWAP5 POP PUSH1 0x20 DUP2 ADD SWAP1 POP PUSH3 0x7EA JUMP JUMPDEST DUP7 DUP4 LT ISZERO PUSH3 0x831 JUMPI DUP5 DUP10 ADD MLOAD PUSH3 0x82D PUSH1 0x1F DUP10 AND DUP3 PUSH3 0x721 JUMP JUMPDEST DUP4 SSTORE POP JUMPDEST PUSH1 0x1 PUSH1 0x2 DUP9 MUL ADD DUP9 SSTORE POP POP POP JUMPDEST POP POP POP POP POP POP JUMP JUMPDEST PUSH32 0x4E487B7100000000000000000000000000000000000000000000000000000000 PUSH1 0x0 MSTORE PUSH1 0x11 PUSH1 0x4 MSTORE PUSH1 0x24 PUSH1 0x0 REVERT JUMPDEST PUSH1 0x0 PUSH3 0x882 DUP3 PUSH3 0x60B JUMP JUMPDEST SWAP2 POP PUSH32 0xFFFFFFFFFFFFFFFFFFFFFFFFFFFFFFFFFFFFFFFFFFFFFFFFFFFFFFFFFFFFFFFF DUP3 SUB PUSH3 0x8B7 JUMPI PUSH3 0x8B6 PUSH3 0x846 JUMP JUMPDEST JUMPDEST PUSH1 0x1 DUP3 ADD SWAP1 POP SWAP2 SWAP1 POP JUMP JUMPDEST PUSH1 0x0 DUP3 DUP3 MSTORE PUSH1 0x20 DUP3 ADD SWAP1 POP SWAP3 SWAP2 POP POP JUMP JUMPDEST PUSH32 0x4572726F72203A206D696E7420746F207A65726F206164647265737300000000 PUSH1 0x0 DUP3 ADD MSTORE POP JUMP JUMPDEST PUSH1 0x0 PUSH3 0x90B PUSH1 0x1C DUP4 PUSH3 0x8C2 JUMP JUMPDEST SWAP2 POP PUSH3 0x918 DUP3 PUSH3 0x8D3 JUMP JUMPDEST PUSH1 0x20 DUP3 ADD SWAP1 POP SWAP2 SWAP1 POP JUMP JUMPDEST PUSH1 0x0 PUSH1 0x20 DUP3 ADD SWAP1 POP DUP2 DUP2 SUB PUSH1 0x0 DUP4 ADD MSTORE PUSH3 0x93E DUP2 PUSH3 0x8FC JUMP JUMPDEST SWAP1 POP SWAP2 SWAP1 POP JUMP JUMPDEST PUSH32 0x4572726F72203A20416C7265616479206D696E74656421000000000000000000 PUSH1 0x0 DUP3 ADD MSTORE POP JUMP JUMPDEST PUSH1 0x0 PUSH3 0x97D PUSH1 0x17 DUP4 PUSH3 0x8C2 JUMP JUMPDEST SWAP2 POP PUSH3 0x98A DUP3 PUSH3 0x945 JUMP JUMPDEST PUSH1 0x20 DUP3 ADD SWAP1 POP SWAP2 SWAP1 POP JUMP JUMPDEST PUSH1 0x0 PUSH1 0x20 DUP3 ADD SWAP1 POP DUP2 DUP2 SUB PUSH1 0x0 DUP4 ADD MSTORE PUSH3 0x9B0 DUP2 PUSH3 0x96E JUMP JUMPDEST SWAP1 POP SWAP2 SWAP1 POP JUMP JUMPDEST PUSH2 0x1ED0 DUP1 PUSH3 0x9C7 PUSH1 0x0 CODECOPY PUSH1 0x0 RETURN INVALID PUSH1 0x80 PUSH1 0x40 MSTORE PUSH1 0x4 CALLDATASIZE LT PUSH2 0xDD JUMPI PUSH1 0x0 CALLDATALOAD PUSH1 0xE0 SHR DUP1 PUSH4 0x6352211E GT PUSH2 0x7F JUMPI DUP1 PUSH4 0xA22CB465 GT PUSH2 0x59 JUMPI DUP1 PUSH4 0xA22CB465 EQ PUSH2 0x2B8 JUMPI DUP1 PUSH4 0xB88D4FDE EQ PUSH2 0x2E1 JUMPI DUP1 PUSH4 0xE985E9C5 EQ PUSH2 0x2FD JUMPI DUP1 PUSH4 0xEDC3BC3F EQ PUSH2 0x33A JUMPI PUSH2 0xDD JUMP JUMPDEST DUP1 PUSH4 0x6352211E EQ PUSH2 0x213 JUMPI DUP1 PUSH4 0x70A08231 EQ PUSH2 0x250 JUMPI DUP1 PUSH4 0x95D89B41 EQ PUSH2 0x28D JUMPI PUSH2 0xDD JUMP JUMPDEST DUP1 PUSH4 0x95EA7B3 GT PUSH2 0xBB JUMPI DUP1 PUSH4 0x95EA7B3 EQ PUSH2 0x187 JUMPI DUP1 PUSH4 0x23B872DD EQ PUSH2 0x1A3 JUMPI DUP1 PUSH4 0x3C168EAB EQ PUSH2 0x1BF JUMPI DUP1 PUSH4 0x4D853EE5 EQ PUSH2 0x1E8 JUMPI PUSH2 0xDD JUMP JUMPDEST DUP1 PUSH4 0x1FFC9A7 EQ PUSH2 0xE2 JUMPI DUP1 PUSH4 0x6FDDE03 EQ PUSH2 0x11F JUMPI DUP1 PUSH4 0x81812FC EQ PUSH2 0x14A JUMPI JUMPDEST PUSH1 0x0 DUP1 REVERT JUMPDEST CALLVALUE DUP1 ISZERO PUSH2 0xEE JUMPI PUSH1 0x0 DUP1 REVERT JUMPDEST POP PUSH2 0x109 PUSH1 0x4 DUP1 CALLDATASIZE SUB DUP2 ADD SWAP1 PUSH2 0x104 SWAP2 SWAP1 PUSH2 0x13B6 JUMP JUMPDEST PUSH2 0x377 JUMP JUMPDEST PUSH1 0x40 MLOAD PUSH2 0x116 SWAP2 SWAP1 PUSH2 0x13FE JUMP JUMPDEST PUSH1 0x40 MLOAD DUP1 SWAP2 SUB SWAP1 RETURN JUMPDEST CALLVALUE DUP1 ISZERO PUSH2 0x12B JUMPI PUSH1 0x0 DUP1 REVERT JUMPDEST POP PUSH2 0x134 PUSH2 0x449 JUMP JUMPDEST PUSH1 0x40 MLOAD PUSH2 0x141 SWAP2 SWAP1 PUSH2 0x14A9 JUMP JUMPDEST PUSH1 0x40 MLOAD DUP1 SWAP2 SUB SWAP1 RETURN JUMPDEST CALLVALUE DUP1 ISZERO PUSH2 0x156 JUMPI PUSH1 0x0 DUP1 REVERT JUMPDEST POP PUSH2 0x171 PUSH1 0x4 DUP1 CALLDATASIZE SUB DUP2 ADD SWAP1 PUSH2 0x16C SWAP2 SWAP1 PUSH2 0x1501 JUMP JUMPDEST PUSH2 0x4D7 JUMP JUMPDEST PUSH1 0x40 MLOAD PUSH2 0x17E SWAP2 SWAP1 PUSH2 0x156F JUMP JUMPDEST PUSH1 0x40 MLOAD DUP1 SWAP2 SUB SWAP1 RETURN JUMPDEST PUSH2 0x1A1 PUSH1 0x4 DUP1 CALLDATASIZE SUB DUP2 ADD SWAP1 PUSH2 0x19C SWAP2 SWAP1 PUSH2 0x15B6 JUMP JUMPDEST PUSH2 0x5B5 JUMP JUMPDEST STOP JUMPDEST PUSH2 0x1BD PUSH1 0x4 DUP1 CALLDATASIZE SUB DUP2 ADD SWAP1 PUSH2 0x1B8 SWAP2 SWAP1 PUSH2 0x15F6 JUMP JUMPDEST PUSH2 0x79E JUMP JUMPDEST STOP JUMPDEST CALLVALUE DUP1 ISZERO PUSH2 0x1CB JUMPI PUSH1 0x0 DUP1 REVERT JUMPDEST POP PUSH2 0x1E6 PUSH1 0x4 DUP1 CALLDATASIZE SUB DUP2 ADD SWAP1 PUSH2 0x1E1 SWAP2 SWAP1 PUSH2 0x15B6 JUMP JUMPDEST PUSH2 0x7AE JUMP JUMPDEST STOP JUMPDEST CALLVALUE DUP1 ISZERO PUSH2 0x1F4 JUMPI PUSH1 0x0 DUP1 REVERT JUMPDEST POP PUSH2 0x1FD PUSH2 0x84A JUMP JUMPDEST PUSH1 0x40 MLOAD PUSH2 0x20A SWAP2 SWAP1 PUSH2 0x156F JUMP JUMPDEST PUSH1 0x40 MLOAD DUP1 SWAP2 SUB SWAP1 RETURN JUMPDEST CALLVALUE DUP1 ISZERO PUSH2 0x21F JUMPI PUSH1 0x0 DUP1 REVERT JUMPDEST POP PUSH2 0x23A PUSH1 0x4 DUP1 CALLDATASIZE SUB DUP2 ADD SWAP1 PUSH2 0x235 SWAP2 SWAP1 PUSH2 0x1501 JUMP JUMPDEST PUSH2 0x86E JUMP JUMPDEST PUSH1 0x40 MLOAD PUSH2 0x247 SWAP2 SWAP1 PUSH2 0x156F JUMP JUMPDEST PUSH1 0x40 MLOAD DUP1 SWAP2 SUB SWAP1 RETURN JUMPDEST CALLVALUE DUP1 ISZERO PUSH2 0x25C JUMPI PUSH1 0x0 DUP1 REVERT JUMPDEST POP PUSH2 0x277 PUSH1 0x4 DUP1 CALLDATASIZE SUB DUP2 ADD SWAP1 PUSH2 0x272 SWAP2 SWAP1 PUSH2 0x1649 JUMP JUMPDEST PUSH2 0x91F JUMP JUMPDEST PUSH1 0x40 MLOAD PUSH2 0x284 SWAP2 SWAP1 PUSH2 0x1685 JUMP JUMPDEST PUSH1 0x40 MLOAD DUP1 SWAP2 SUB SWAP1 RETURN JUMPDEST CALLVALUE DUP1 ISZERO PUSH2 0x299 JUMPI PUSH1 0x0 DUP1 REVERT JUMPDEST POP PUSH2 0x2A2 PUSH2 0x9D6 JUMP JUMPDEST PUSH1 0x40 MLOAD PUSH2 0x2AF SWAP2 SWAP1 PUSH2 0x14A9 JUMP JUMPDEST PUSH1 0x40 MLOAD DUP1 SWAP2 SUB SWAP1 RETURN JUMPDEST CALLVALUE DUP1 ISZERO PUSH2 0x2C4 JUMPI PUSH1 0x0 DUP1 REVERT JUMPDEST POP PUSH2 0x2DF PUSH1 0x4 DUP1 CALLDATASIZE SUB DUP2 ADD SWAP1 PUSH2 0x2DA SWAP2 SWAP1 PUSH2 0x16CC JUMP JUMPDEST PUSH2 0xA64 JUMP JUMPDEST STOP JUMPDEST PUSH2 0x2FB PUSH1 0x4 DUP1 CALLDATASIZE SUB DUP2 ADD SWAP1 PUSH2 0x2F6 SWAP2 SWAP1 PUSH2 0x1771 JUMP JUMPDEST PUSH2 0xB61 JUMP JUMPDEST STOP JUMPDEST CALLVALUE DUP1 ISZERO PUSH2 0x309 JUMPI PUSH1 0x0 DUP1 REVERT JUMPDEST POP PUSH2 0x324 PUSH1 0x4 DUP1 CALLDATASIZE SUB DUP2 ADD SWAP1 PUSH2 0x31F SWAP2 SWAP1 PUSH2 0x17F9 JUMP JUMPDEST PUSH2 0xC9F JUMP JUMPDEST PUSH1 0x40 MLOAD PUSH2 0x331 SWAP2 SWAP1 PUSH2 0x13FE JUMP JUMPDEST PUSH1 0x40 MLOAD DUP1 SWAP2 SUB SWAP1 RETURN JUMPDEST CALLVALUE DUP1 ISZERO PUSH2 0x346 JUMPI PUSH1 0x0 DUP1 REVERT JUMPDEST POP PUSH2 0x361 PUSH1 0x4 DUP1 CALLDATASIZE SUB DUP2 ADD SWAP1 PUSH2 0x35C SWAP2 SWAP1 PUSH2 0x17F9 JUMP JUMPDEST PUSH2 0xD33 JUMP JUMPDEST PUSH1 0x40 MLOAD PUSH2 0x36E SWAP2 SWAP1 PUSH2 0x13FE JUMP JUMPDEST PUSH1 0x40 MLOAD DUP1 SWAP2 SUB SWAP1 RETURN JUMPDEST PUSH1 0x0 PUSH32 0xC22876C300000000000000000000000000000000000000000000000000000000 PUSH28 0xFFFFFFFFFFFFFFFFFFFFFFFFFFFFFFFFFFFFFFFFFFFFFFFFFFFFFFFF NOT AND DUP3 PUSH28 0xFFFFFFFFFFFFFFFFFFFFFFFFFFFFFFFFFFFFFFFFFFFFFFFFFFFFFFFF NOT AND EQ DUP1 PUSH2 0x442 JUMPI POP PUSH32 0x1FFC9A700000000000000000000000000000000000000000000000000000000 PUSH28 0xFFFFFFFFFFFFFFFFFFFFFFFFFFFFFFFFFFFFFFFFFFFFFFFFFFFFFFFF NOT AND DUP3 PUSH28 0xFFFFFFFFFFFFFFFFFFFFFFFFFFFFFFFFFFFFFFFFFFFFFFFFFFFFFFFF NOT AND EQ JUMPDEST SWAP1 POP SWAP2 SWAP1 POP JUMP JUMPDEST PUSH1 0x5 DUP1 SLOAD PUSH2 0x456 SWAP1 PUSH2 0x1868 JUMP JUMPDEST DUP1 PUSH1 0x1F ADD PUSH1 0x20 DUP1 SWAP2 DIV MUL PUSH1 0x20 ADD PUSH1 0x40 MLOAD SWAP1 DUP2 ADD PUSH1 0x40 MSTORE DUP1 SWAP3 SWAP2 SWAP1 DUP2 DUP2 MSTORE PUSH1 0x20 ADD DUP3 DUP1 SLOAD PUSH2 0x482 SWAP1 PUSH2 0x1868 JUMP JUMPDEST DUP1 ISZERO PUSH2 0x4CF JUMPI DUP1 PUSH1 0x1F LT PUSH2 0x4A4 JUMPI PUSH2 0x100 DUP1 DUP4 SLOAD DIV MUL DUP4 MSTORE SWAP2 PUSH1 0x20 ADD SWAP2 PUSH2 0x4CF JUMP JUMPDEST DUP3 ADD SWAP2 SWAP1 PUSH1 0x0 MSTORE PUSH1 0x20 PUSH1 0x0 KECCAK256 SWAP1 JUMPDEST DUP2 SLOAD DUP2 MSTORE SWAP1 PUSH1 0x1 ADD SWAP1 PUSH1 0x20 ADD DUP1 DUP4 GT PUSH2 0x4B2 JUMPI DUP3 SWAP1 SUB PUSH1 0x1F AND DUP3 ADD SWAP2 JUMPDEST POP POP POP POP POP DUP2 JUMP JUMPDEST PUSH1 0x0 DUP1 PUSH20 0xFFFFFFFFFFFFFFFFFFFFFFFFFFFFFFFFFFFFFFFF AND PUSH1 0x1 PUSH1 0x0 DUP5 DUP2 MSTORE PUSH1 0x20 ADD SWAP1 DUP2 MSTORE PUSH1 0x20 ADD PUSH1 0x0 KECCAK256 PUSH1 0x0 SWAP1 SLOAD SWAP1 PUSH2 0x100 EXP SWAP1 DIV PUSH20 0xFFFFFFFFFFFFFFFFFFFFFFFFFFFFFFFFFFFFFFFF AND PUSH20 0xFFFFFFFFFFFFFFFFFFFFFFFFFFFFFFFFFFFFFFFF AND SUB PUSH2 0x57A JUMPI PUSH1 0x40 MLOAD PUSH32 0x8C379A000000000000000000000000000000000000000000000000000000000 DUP2 MSTORE PUSH1 0x4 ADD PUSH2 0x571 SWAP1 PUSH2 0x18E5 JUMP JUMPDEST PUSH1 0x40 MLOAD DUP1 SWAP2 SUB SWAP1 REVERT JUMPDEST PUSH1 0x3 PUSH1 0x0 DUP4 DUP2 MSTORE PUSH1 0x20 ADD SWAP1 DUP2 MSTORE PUSH1 0x20 ADD PUSH1 0x0 KECCAK256 PUSH1 0x0 SWAP1 SLOAD SWAP1 PUSH2 0x100 EXP SWAP1 DIV PUSH20 0xFFFFFFFFFFFFFFFFFFFFFFFFFFFFFFFFFFFFFFFF AND SWAP1 POP SWAP2 SWAP1 POP JUMP JUMPDEST PUSH1 0x0 PUSH1 0x1 PUSH1 0x0 DUP4 DUP2 MSTORE PUSH1 0x20 ADD SWAP1 DUP2 MSTORE PUSH1 0x20 ADD PUSH1 0x0 KECCAK256 PUSH1 0x0 SWAP1 SLOAD SWAP1 PUSH2 0x100 EXP SWAP1 DIV PUSH20 0xFFFFFFFFFFFFFFFFFFFFFFFFFFFFFFFFFFFFFFFF AND SWAP1 POP DUP1 PUSH20 0xFFFFFFFFFFFFFFFFFFFFFFFFFFFFFFFFFFFFFFFF AND CALLER PUSH20 0xFFFFFFFFFFFFFFFFFFFFFFFFFFFFFFFFFFFFFFFF AND EQ DUP1 PUSH2 0x6AD JUMPI POP PUSH1 0x4 PUSH1 0x0 DUP3 PUSH20 0xFFFFFFFFFFFFFFFFFFFFFFFFFFFFFFFFFFFFFFFF AND PUSH20 0xFFFFFFFFFFFFFFFFFFFFFFFFFFFFFFFFFFFFFFFF AND DUP2 MSTORE PUSH1 0x20 ADD SWAP1 DUP2 MSTORE PUSH1 0x20 ADD PUSH1 0x0 KECCAK256 PUSH1 0x0 CALLER PUSH20 0xFFFFFFFFFFFFFFFFFFFFFFFFFFFFFFFFFFFFFFFF AND PUSH20 0xFFFFFFFFFFFFFFFFFFFFFFFFFFFFFFFFFFFFFFFF AND DUP2 MSTORE PUSH1 0x20 ADD SWAP1 DUP2 MSTORE PUSH1 0x20 ADD PUSH1 0x0 KECCAK256 PUSH1 0x0 SWAP1 SLOAD SWAP1 PUSH2 0x100 EXP SWAP1 DIV PUSH1 0xFF AND JUMPDEST PUSH2 0x6EC JUMPI PUSH1 0x40 MLOAD PUSH32 0x8C379A000000000000000000000000000000000000000000000000000000000 DUP2 MSTORE PUSH1 0x4 ADD PUSH2 0x6E3 SWAP1 PUSH2 0x1951 JUMP JUMPDEST PUSH1 0x40 MLOAD DUP1 SWAP2 SUB SWAP1 REVERT JUMPDEST DUP3 PUSH1 0x3 PUSH1 0x0 DUP5 DUP2 MSTORE PUSH1 0x20 ADD SWAP1 DUP2 MSTORE PUSH1 0x20 ADD PUSH1 0x0 KECCAK256 PUSH1 0x0 PUSH2 0x100 EXP DUP2 SLOAD DUP2 PUSH20 0xFFFFFFFFFFFFFFFFFFFFFFFFFFFFFFFFFFFFFFFF MUL NOT AND SWAP1 DUP4 PUSH20 0xFFFFFFFFFFFFFFFFFFFFFFFFFFFFFFFFFFFFFFFF AND MUL OR SWAP1 SSTORE POP DUP2 DUP4 PUSH20 0xFFFFFFFFFFFFFFFFFFFFFFFFFFFFFFFFFFFFFFFF AND DUP3 PUSH20 0xFFFFFFFFFFFFFFFFFFFFFFFFFFFFFFFFFFFFFFFF AND PUSH32 0x8C5BE1E5EBEC7D5BD14F71427D1E84F3DD0314C0F7B2291E5B200AC8C7C3B925 PUSH1 0x40 MLOAD PUSH1 0x40 MLOAD DUP1 SWAP2 SUB SWAP1 LOG4 POP POP POP JUMP JUMPDEST PUSH2 0x7A9 DUP4 DUP4 DUP4 PUSH2 0xD62 JUMP JUMPDEST POP POP POP JUMP JUMPDEST PUSH1 0x0 DUP1 SLOAD SWAP1 PUSH2 0x100 EXP SWAP1 DIV PUSH20 0xFFFFFFFFFFFFFFFFFFFFFFFFFFFFFFFFFFFFFFFF AND PUSH20 0xFFFFFFFFFFFFFFFFFFFFFFFFFFFFFFFFFFFFFFFF AND CALLER PUSH20 0xFFFFFFFFFFFFFFFFFFFFFFFFFFFFFFFFFFFFFFFF AND EQ PUSH2 0x83C JUMPI PUSH1 0x40 MLOAD PUSH32 0x8C379A000000000000000000000000000000000000000000000000000000000 DUP2 MSTORE PUSH1 0x4 ADD PUSH2 0x833 SWAP1 PUSH2 0x19E3 JUMP JUMPDEST PUSH1 0x40 MLOAD DUP1 SWAP2 SUB SWAP1 REVERT JUMPDEST PUSH2 0x846 DUP3 DUP3 PUSH2 0x113C JUMP JUMPDEST POP POP JUMP JUMPDEST PUSH1 0x0 DUP1 SLOAD SWAP1 PUSH2 0x100 EXP SWAP1 DIV PUSH20 0xFFFFFFFFFFFFFFFFFFFFFFFFFFFFFFFFFFFFFFFF AND DUP2 JUMP JUMPDEST PUSH1 0x0 DUP1 PUSH1 0x1 PUSH1 0x0 DUP5 DUP2 MSTORE PUSH1 0x20 ADD SWAP1 DUP2 MSTORE PUSH1 0x20 ADD PUSH1 0x0 KECCAK256 PUSH1 0x0 SWAP1 SLOAD SWAP1 PUSH2 0x100 EXP SWAP1 DIV PUSH20 0xFFFFFFFFFFFFFFFFFFFFFFFFFFFFFFFFFFFFFFFF AND SWAP1 POP PUSH1 0x0 PUSH20 0xFFFFFFFFFFFFFFFFFFFFFFFFFFFFFFFFFFFFFFFF AND DUP2 PUSH20 0xFFFFFFFFFFFFFFFFFFFFFFFFFFFFFFFFFFFFFFFF AND SUB PUSH2 0x916 JUMPI PUSH1 0x40 MLOAD PUSH32 0x8C379A000000000000000000000000000000000000000000000000000000000 DUP2 MSTORE PUSH1 0x4 ADD PUSH2 0x90D SWAP1 PUSH2 0x1A4F JUMP JUMPDEST PUSH1 0x40 MLOAD DUP1 SWAP2 SUB SWAP1 REVERT JUMPDEST DUP1 SWAP2 POP POP SWAP2 SWAP1 POP JUMP JUMPDEST PUSH1 0x0 DUP1 PUSH20 0xFFFFFFFFFFFFFFFFFFFFFFFFFFFFFFFFFFFFFFFF AND DUP3 PUSH20 0xFFFFFFFFFFFFFFFFFFFFFFFFFFFFFFFFFFFFFFFF AND SUB PUSH2 0x98F JUMPI PUSH1 0x40 MLOAD PUSH32 0x8C379A000000000000000000000000000000000000000000000000000000000 DUP2 MSTORE PUSH1 0x4 ADD PUSH2 0x986 SWAP1 PUSH2 0x1AE1 JUMP JUMPDEST PUSH1 0x40 MLOAD DUP1 SWAP2 SUB SWAP1 REVERT JUMPDEST PUSH1 0x2 PUSH1 0x0 DUP4 PUSH20 0xFFFFFFFFFFFFFFFFFFFFFFFFFFFFFFFFFFFFFFFF AND PUSH20 0xFFFFFFFFFFFFFFFFFFFFFFFFFFFFFFFFFFFFFFFF AND DUP2 MSTORE PUSH1 0x20 ADD SWAP1 DUP2 MSTORE PUSH1 0x20 ADD PUSH1 0x0 KECCAK256 SLOAD SWAP1 POP SWAP2 SWAP1 POP JUMP JUMPDEST PUSH1 0x6 DUP1 SLOAD PUSH2 0x9E3 SWAP1 PUSH2 0x1868 JUMP JUMPDEST DUP1 PUSH1 0x1F ADD PUSH1 0x20 DUP1 SWAP2 DIV MUL PUSH1 0x20 ADD PUSH1 0x40 MLOAD SWAP1 DUP2 ADD PUSH1 0x40 MSTORE DUP1 SWAP3 SWAP2 SWAP1 DUP2 DUP2 MSTORE PUSH1 0x20 ADD DUP3 DUP1 SLOAD PUSH2 0xA0F SWAP1 PUSH2 0x1868 JUMP JUMPDEST DUP1 ISZERO PUSH2 0xA5C JUMPI DUP1 PUSH1 0x1F LT PUSH2 0xA31 JUMPI PUSH2 0x100 DUP1 DUP4 SLOAD DIV MUL DUP4 MSTORE SWAP2 PUSH1 0x20 ADD SWAP2 PUSH2 0xA5C JUMP JUMPDEST DUP3 ADD SWAP2 SWAP1 PUSH1 0x0 MSTORE PUSH1 0x20 PUSH1 0x0 KECCAK256 SWAP1 JUMPDEST DUP2 SLOAD DUP2 MSTORE SWAP1 PUSH1 0x1 ADD SWAP1 PUSH1 0x20 ADD DUP1 DUP4 GT PUSH2 0xA3F JUMPI DUP3 SWAP1 SUB PUSH1 0x1F AND DUP3 ADD SWAP2 JUMPDEST POP POP POP POP POP DUP2 JUMP JUMPDEST DUP1 PUSH1 0x4 PUSH1 0x0 CALLER PUSH20 0xFFFFFFFFFFFFFFFFFFFFFFFFFFFFFFFFFFFFFFFF AND PUSH20 0xFFFFFFFFFFFFFFFFFFFFFFFFFFFFFFFFFFFFFFFF AND DUP2 MSTORE PUSH1 0x20 ADD SWAP1 DUP2 MSTORE PUSH1 0x20 ADD PUSH1 0x0 KECCAK256 PUSH1 0x0 DUP5 PUSH20 0xFFFFFFFFFFFFFFFFFFFFFFFFFFFFFFFFFFFFFFFF AND PUSH20 0xFFFFFFFFFFFFFFFFFFFFFFFFFFFFFFFFFFFFFFFF AND DUP2 MSTORE PUSH1 0x20 ADD SWAP1 DUP2 MSTORE PUSH1 0x20 ADD PUSH1 0x0 KECCAK256 PUSH1 0x0 PUSH2 0x100 EXP DUP2 SLOAD DUP2 PUSH1 0xFF MUL NOT AND SWAP1 DUP4 ISZERO ISZERO MUL OR SWAP1 SSTORE POP DUP2 PUSH20 0xFFFFFFFFFFFFFFFFFFFFFFFFFFFFFFFFFFFFFFFF AND CALLER PUSH20 0xFFFFFFFFFFFFFFFFFFFFFFFFFFFFFFFFFFFFFFFF AND PUSH32 0x17307EAB39AB6107E8899845AD3D59BD9653F200F220920489CA2B5937696C31 DUP4 PUSH1 0x40 MLOAD PUSH2 0xB55 SWAP2 SWAP1 PUSH2 0x13FE JUMP JUMPDEST PUSH1 0x40 MLOAD DUP1 SWAP2 SUB SWAP1 LOG3 POP POP JUMP JUMPDEST PUSH2 0xB6C DUP6 DUP6 DUP6 PUSH2 0xD62 JUMP JUMPDEST PUSH1 0x0 DUP5 PUSH20 0xFFFFFFFFFFFFFFFFFFFFFFFFFFFFFFFFFFFFFFFF AND EXTCODESIZE EQ DUP1 PUSH2 0xC59 JUMPI POP PUSH4 0x150B7A02 PUSH1 0xE0 SHL PUSH28 0xFFFFFFFFFFFFFFFFFFFFFFFFFFFFFFFFFFFFFFFFFFFFFFFFFFFFFFFF NOT AND DUP5 PUSH20 0xFFFFFFFFFFFFFFFFFFFFFFFFFFFFFFFFFFFFFFFF AND PUSH4 0x150B7A02 CALLER DUP9 DUP8 DUP8 DUP8 PUSH1 0x40 MLOAD DUP7 PUSH4 0xFFFFFFFF AND PUSH1 0xE0 SHL DUP2 MSTORE PUSH1 0x4 ADD PUSH2 0xBF5 SWAP6 SWAP5 SWAP4 SWAP3 SWAP2 SWAP1 PUSH2 0x1B4E JUMP JUMPDEST PUSH1 0x20 PUSH1 0x40 MLOAD DUP1 DUP4 SUB DUP2 PUSH1 0x0 DUP8 GAS CALL ISZERO DUP1 ISZERO PUSH2 0xC14 JUMPI RETURNDATASIZE PUSH1 0x0 DUP1 RETURNDATACOPY RETURNDATASIZE PUSH1 0x0 REVERT JUMPDEST POP POP POP POP PUSH1 0x40 MLOAD RETURNDATASIZE PUSH1 0x1F NOT PUSH1 0x1F DUP3 ADD AND DUP3 ADD DUP1 PUSH1 0x40 MSTORE POP DUP2 ADD SWAP1 PUSH2 0xC38 SWAP2 SWAP1 PUSH2 0x1BB1 JUMP JUMPDEST PUSH28 0xFFFFFFFFFFFFFFFFFFFFFFFFFFFFFFFFFFFFFFFFFFFFFFFFFFFFFFFF NOT AND EQ JUMPDEST PUSH2 0xC98 JUMPI PUSH1 0x40 MLOAD PUSH32 0x8C379A000000000000000000000000000000000000000000000000000000000 DUP2 MSTORE PUSH1 0x4 ADD PUSH2 0xC8F SWAP1 PUSH2 0x1C2A JUMP JUMPDEST PUSH1 0x40 MLOAD DUP1 SWAP2 SUB SWAP1 REVERT JUMPDEST POP POP POP POP POP JUMP JUMPDEST PUSH1 0x0 PUSH1 0x4 PUSH1 0x0 DUP5 PUSH20 0xFFFFFFFFFFFFFFFFFFFFFFFFFFFFFFFFFFFFFFFF AND PUSH20 0xFFFFFFFFFFFFFFFFFFFFFFFFFFFFFFFFFFFFFFFF AND DUP2 MSTORE PUSH1 0x20 ADD SWAP1 DUP2 MSTORE PUSH1 0x20 ADD PUSH1 0x0 KECCAK256 PUSH1 0x0 DUP4 PUSH20 0xFFFFFFFFFFFFFFFFFFFFFFFFFFFFFFFFFFFFFFFF AND PUSH20 0xFFFFFFFFFFFFFFFFFFFFFFFFFFFFFFFFFFFFFFFF AND DUP2 MSTORE PUSH1 0x20 ADD SWAP1 DUP2 MSTORE PUSH1 0x20 ADD PUSH1 0x0 KECCAK256 PUSH1 0x0 SWAP1 SLOAD SWAP1 PUSH2 0x100 EXP SWAP1 DIV PUSH1 0xFF AND SWAP1 POP SWAP3 SWAP2 POP POP JUMP JUMPDEST PUSH1 0x4 PUSH1 0x20 MSTORE DUP2 PUSH1 0x0 MSTORE PUSH1 0x40 PUSH1 0x0 KECCAK256 PUSH1 0x20 MSTORE DUP1 PUSH1 0x0 MSTORE PUSH1 0x40 PUSH1 0x0 KECCAK256 PUSH1 0x0 SWAP2 POP SWAP2 POP SWAP1 SLOAD SWAP1 PUSH2 0x100 EXP SWAP1 DIV PUSH1 0xFF AND DUP2 JUMP JUMPDEST PUSH1 0x0 PUSH1 0x1 PUSH1 0x0 DUP4 DUP2 MSTORE PUSH1 0x20 ADD SWAP1 DUP2 MSTORE PUSH1 0x20 ADD PUSH1 0x0 KECCAK256 PUSH1 0x0 SWAP1 SLOAD SWAP1 PUSH2 0x100 EXP SWAP1 DIV PUSH20 0xFFFFFFFFFFFFFFFFFFFFFFFFFFFFFFFFFFFFFFFF AND SWAP1 POP DUP1 PUSH20 0xFFFFFFFFFFFFFFFFFFFFFFFFFFFFFFFFFFFFFFFF AND DUP5 PUSH20 0xFFFFFFFFFFFFFFFFFFFFFFFFFFFFFFFFFFFFFFFF AND EQ PUSH2 0xE08 JUMPI PUSH1 0x40 MLOAD PUSH32 0x8C379A000000000000000000000000000000000000000000000000000000000 DUP2 MSTORE PUSH1 0x4 ADD PUSH2 0xDFF SWAP1 PUSH2 0x1C96 JUMP JUMPDEST PUSH1 0x40 MLOAD DUP1 SWAP2 SUB SWAP1 REVERT JUMPDEST PUSH1 0x0 PUSH20 0xFFFFFFFFFFFFFFFFFFFFFFFFFFFFFFFFFFFFFFFF AND DUP4 PUSH20 0xFFFFFFFFFFFFFFFFFFFFFFFFFFFFFFFFFFFFFFFF AND SUB PUSH2 0xE77 JUMPI PUSH1 0x40 MLOAD PUSH32 0x8C379A000000000000000000000000000000000000000000000000000000000 DUP2 MSTORE PUSH1 0x4 ADD PUSH2 0xE6E SWAP1 PUSH2 0x1D02 JUMP JUMPDEST PUSH1 0x40 MLOAD DUP1 SWAP2 SUB SWAP1 REVERT JUMPDEST DUP1 PUSH20 0xFFFFFFFFFFFFFFFFFFFFFFFFFFFFFFFFFFFFFFFF AND CALLER PUSH20 0xFFFFFFFFFFFFFFFFFFFFFFFFFFFFFFFFFFFFFFFF AND EQ DUP1 PUSH2 0xF0F JUMPI POP PUSH1 0x3 PUSH1 0x0 DUP4 DUP2 MSTORE PUSH1 0x20 ADD SWAP1 DUP2 MSTORE PUSH1 0x20 ADD PUSH1 0x0 KECCAK256 PUSH1 0x0 SWAP1 SLOAD SWAP1 PUSH2 0x100 EXP SWAP1 DIV PUSH20 0xFFFFFFFFFFFFFFFFFFFFFFFFFFFFFFFFFFFFFFFF AND PUSH20 0xFFFFFFFFFFFFFFFFFFFFFFFFFFFFFFFFFFFFFFFF AND CALLER PUSH20 0xFFFFFFFFFFFFFFFFFFFFFFFFFFFFFFFFFFFFFFFF AND EQ JUMPDEST DUP1 PUSH2 0xFA0 JUMPI POP PUSH1 0x4 PUSH1 0x0 DUP3 PUSH20 0xFFFFFFFFFFFFFFFFFFFFFFFFFFFFFFFFFFFFFFFF AND PUSH20 0xFFFFFFFFFFFFFFFFFFFFFFFFFFFFFFFFFFFFFFFF AND DUP2 MSTORE PUSH1 0x20 ADD SWAP1 DUP2 MSTORE PUSH1 0x20 ADD PUSH1 0x0 KECCAK256 PUSH1 0x0 CALLER PUSH20 0xFFFFFFFFFFFFFFFFFFFFFFFFFFFFFFFFFFFFFFFF AND PUSH20 0xFFFFFFFFFFFFFFFFFFFFFFFFFFFFFFFFFFFFFFFF AND DUP2 MSTORE PUSH1 0x20 ADD SWAP1 DUP2 MSTORE PUSH1 0x20 ADD PUSH1 0x0 KECCAK256 PUSH1 0x0 SWAP1 SLOAD SWAP1 PUSH2 0x100 EXP SWAP1 DIV PUSH1 0xFF AND JUMPDEST PUSH2 0xFA9 JUMPI PUSH1 0x0 DUP1 REVERT JUMPDEST PUSH1 0x2 PUSH1 0x0 DUP6 PUSH20 0xFFFFFFFFFFFFFFFFFFFFFFFFFFFFFFFFFFFFFFFF AND PUSH20 0xFFFFFFFFFFFFFFFFFFFFFFFFFFFFFFFFFFFFFFFF AND DUP2 MSTORE PUSH1 0x20 ADD SWAP1 DUP2 MSTORE PUSH1 0x20 ADD PUSH1 0x0 KECCAK256 PUSH1 0x0 DUP2 SLOAD DUP1 SWAP3 SWAP2 SWAP1 PUSH2 0xFF9 SWAP1 PUSH2 0x1D51 JUMP JUMPDEST SWAP2 SWAP1 POP SSTORE POP PUSH1 0x2 PUSH1 0x0 DUP5 PUSH20 0xFFFFFFFFFFFFFFFFFFFFFFFFFFFFFFFFFFFFFFFF AND PUSH20 0xFFFFFFFFFFFFFFFFFFFFFFFFFFFFFFFFFFFFFFFF AND DUP2 MSTORE PUSH1 0x20 ADD SWAP1 DUP2 MSTORE PUSH1 0x20 ADD PUSH1 0x0 KECCAK256 PUSH1 0x0 DUP2 SLOAD DUP1 SWAP3 SWAP2 SWAP1 PUSH2 0x104E SWAP1 PUSH2 0x1D7A JUMP JUMPDEST SWAP2 SWAP1 POP SSTORE POP DUP3 PUSH1 0x1 PUSH1 0x0 DUP5 DUP2 MSTORE PUSH1 0x20 ADD SWAP1 DUP2 MSTORE PUSH1 0x20 ADD PUSH1 0x0 KECCAK256 PUSH1 0x0 PUSH2 0x100 EXP DUP2 SLOAD DUP2 PUSH20 0xFFFFFFFFFFFFFFFFFFFFFFFFFFFFFFFFFFFFFFFF MUL NOT AND SWAP1 DUP4 PUSH20 0xFFFFFFFFFFFFFFFFFFFFFFFFFFFFFFFFFFFFFFFF AND MUL OR SWAP1 SSTORE POP PUSH1 0x3 PUSH1 0x0 DUP4 DUP2 MSTORE PUSH1 0x20 ADD SWAP1 DUP2 MSTORE PUSH1 0x20 ADD PUSH1 0x0 KECCAK256 PUSH1 0x0 PUSH2 0x100 EXP DUP2 SLOAD SWAP1 PUSH20 0xFFFFFFFFFFFFFFFFFFFFFFFFFFFFFFFFFFFFFFFF MUL NOT AND SWAP1 SSTORE DUP2 DUP4 PUSH20 0xFFFFFFFFFFFFFFFFFFFFFFFFFFFFFFFFFFFFFFFF AND DUP6 PUSH20 0xFFFFFFFFFFFFFFFFFFFFFFFFFFFFFFFFFFFFFFFF AND PUSH32 0xDDF252AD1BE2C89B69C2B068FC378DAA952BA7F163C4A11628F55A4DF523B3EF PUSH1 0x40 MLOAD PUSH1 0x40 MLOAD DUP1 SWAP2 SUB SWAP1 LOG4 POP POP POP POP JUMP JUMPDEST PUSH1 0x0 PUSH20 0xFFFFFFFFFFFFFFFFFFFFFFFFFFFFFFFFFFFFFFFF AND DUP3 PUSH20 0xFFFFFFFFFFFFFFFFFFFFFFFFFFFFFFFFFFFFFFFF AND SUB PUSH2 0x11AB JUMPI PUSH1 0x40 MLOAD PUSH32 0x8C379A000000000000000000000000000000000000000000000000000000000 DUP2 MSTORE PUSH1 0x4 ADD PUSH2 0x11A2 SWAP1 PUSH2 0x1E0E JUMP JUMPDEST PUSH1 0x40 MLOAD DUP1 SWAP2 SUB SWAP1 REVERT JUMPDEST PUSH1 0x0 PUSH20 0xFFFFFFFFFFFFFFFFFFFFFFFFFFFFFFFFFFFFFFFF AND PUSH1 0x1 PUSH1 0x0 DUP4 DUP2 MSTORE PUSH1 0x20 ADD SWAP1 DUP2 MSTORE PUSH1 0x20 ADD PUSH1 0x0 KECCAK256 PUSH1 0x0 SWAP1 SLOAD SWAP1 PUSH2 0x100 EXP SWAP1 DIV PUSH20 0xFFFFFFFFFFFFFFFFFFFFFFFFFFFFFFFFFFFFFFFF AND PUSH20 0xFFFFFFFFFFFFFFFFFFFFFFFFFFFFFFFFFFFFFFFF AND EQ PUSH2 0x124D JUMPI PUSH1 0x40 MLOAD PUSH32 0x8C379A000000000000000000000000000000000000000000000000000000000 DUP2 MSTORE PUSH1 0x4 ADD PUSH2 0x1244 SWAP1 PUSH2 0x1E7A JUMP JUMPDEST PUSH1 0x40 MLOAD DUP1 SWAP2 SUB SWAP1 REVERT JUMPDEST PUSH1 0x2 PUSH1 0x0 DUP4 PUSH20 0xFFFFFFFFFFFFFFFFFFFFFFFFFFFFFFFFFFFFFFFF AND PUSH20 0xFFFFFFFFFFFFFFFFFFFFFFFFFFFFFFFFFFFFFFFF AND DUP2 MSTORE PUSH1 0x20 ADD SWAP1 DUP2 MSTORE PUSH1 0x20 ADD PUSH1 0x0 KECCAK256 PUSH1 0x0 DUP2 SLOAD DUP1 SWAP3 SWAP2 SWAP1 PUSH2 0x129D SWAP1 PUSH2 0x1D7A JUMP JUMPDEST SWAP2 SWAP1 POP SSTORE POP DUP2 PUSH1 0x1 PUSH1 0x0 DUP4 DUP2 MSTORE PUSH1 0x20 ADD SWAP1 DUP2 MSTORE PUSH1 0x20 ADD PUSH1 0x0 KECCAK256 PUSH1 0x0 PUSH2 0x100 EXP DUP2 SLOAD DUP2 PUSH20 0xFFFFFFFFFFFFFFFFFFFFFFFFFFFFFFFFFFFFFFFF MUL NOT AND SWAP1 DUP4 PUSH20 0xFFFFFFFFFFFFFFFFFFFFFFFFFFFFFFFFFFFFFFFF AND MUL OR SWAP1 SSTORE POP DUP1 DUP3 PUSH20 0xFFFFFFFFFFFFFFFFFFFFFFFFFFFFFFFFFFFFFFFF AND PUSH1 0x0 PUSH20 0xFFFFFFFFFFFFFFFFFFFFFFFFFFFFFFFFFFFFFFFF AND PUSH32 0xDDF252AD1BE2C89B69C2B068FC378DAA952BA7F163C4A11628F55A4DF523B3EF PUSH1 0x40 MLOAD PUSH1 0x40 MLOAD DUP1 SWAP2 SUB SWAP1 LOG4 POP POP JUMP JUMPDEST PUSH1 0x0 DUP1 REVERT JUMPDEST PUSH1 0x0 DUP1 REVERT JUMPDEST PUSH1 0x0 PUSH32 0xFFFFFFFF00000000000000000000000000000000000000000000000000000000 DUP3 AND SWAP1 POP SWAP2 SWAP1 POP JUMP JUMPDEST PUSH2 0x1393 DUP2 PUSH2 0x135E JUMP JUMPDEST DUP2 EQ PUSH2 0x139E JUMPI PUSH1 0x0 DUP1 REVERT JUMPDEST POP JUMP JUMPDEST PUSH1 0x0 DUP2 CALLDATALOAD SWAP1 POP PUSH2 0x13B0 DUP2 PUSH2 0x138A JUMP JUMPDEST SWAP3 SWAP2 POP POP JUMP JUMPDEST PUSH1 0x0 PUSH1 0x20 DUP3 DUP5 SUB SLT ISZERO PUSH2 0x13CC JUMPI PUSH2 0x13CB PUSH2 0x1354 JUMP JUMPDEST JUMPDEST PUSH1 0x0 PUSH2 0x13DA DUP5 DUP3 DUP6 ADD PUSH2 0x13A1 JUMP JUMPDEST SWAP2 POP POP SWAP3 SWAP2 POP POP JUMP JUMPDEST PUSH1 0x0 DUP2 ISZERO ISZERO SWAP1 POP SWAP2 SWAP1 POP JUMP JUMPDEST PUSH2 0x13F8 DUP2 PUSH2 0x13E3 JUMP JUMPDEST DUP3 MSTORE POP POP JUMP JUMPDEST PUSH1 0x0 PUSH1 0x20 DUP3 ADD SWAP1 POP PUSH2 0x1413 PUSH1 0x0 DUP4 ADD DUP5 PUSH2 0x13EF JUMP JUMPDEST SWAP3 SWAP2 POP POP JUMP JUMPDEST PUSH1 0x0 DUP2 MLOAD SWAP1 POP SWAP2 SWAP1 POP JUMP JUMPDEST PUSH1 0x0 DUP3 DUP3 MSTORE PUSH1 0x20 DUP3 ADD SWAP1 POP SWAP3 SWAP2 POP POP JUMP JUMPDEST PUSH1 0x0 JUMPDEST DUP4 DUP2 LT ISZERO PUSH2 0x1453 JUMPI DUP1 DUP3 ADD MLOAD DUP2 DUP5 ADD MSTORE PUSH1 0x20 DUP2 ADD SWAP1 POP PUSH2 0x1438 JUMP JUMPDEST PUSH1 0x0 DUP5 DUP5 ADD MSTORE POP POP POP POP JUMP JUMPDEST PUSH1 0x0 PUSH1 0x1F NOT PUSH1 0x1F DUP4 ADD AND SWAP1 POP SWAP2 SWAP1 POP JUMP JUMPDEST PUSH1 0x0 PUSH2 0x147B DUP3 PUSH2 0x1419 JUMP JUMPDEST PUSH2 0x1485 DUP2 DUP6 PUSH2 0x1424 JUMP JUMPDEST SWAP4 POP PUSH2 0x1495 DUP2 DUP6 PUSH1 0x20 DUP7 ADD PUSH2 0x1435 JUMP JUMPDEST PUSH2 0x149E DUP2 PUSH2 0x145F JUMP JUMPDEST DUP5 ADD SWAP2 POP POP SWAP3 SWAP2 POP POP JUMP JUMPDEST PUSH1 0x0 PUSH1 0x20 DUP3 ADD SWAP1 POP DUP2 DUP2 SUB PUSH1 0x0 DUP4 ADD MSTORE PUSH2 0x14C3 DUP2 DUP5 PUSH2 0x1470 JUMP JUMPDEST SWAP1 POP SWAP3 SWAP2 POP POP JUMP JUMPDEST PUSH1 0x0 DUP2 SWAP1 POP SWAP2 SWAP1 POP JUMP JUMPDEST PUSH2 0x14DE DUP2 PUSH2 0x14CB JUMP JUMPDEST DUP2 EQ PUSH2 0x14E9 JUMPI PUSH1 0x0 DUP1 REVERT JUMPDEST POP JUMP JUMPDEST PUSH1 0x0 DUP2 CALLDATALOAD SWAP1 POP PUSH2 0x14FB DUP2 PUSH2 0x14D5 JUMP JUMPDEST SWAP3 SWAP2 POP POP JUMP JUMPDEST PUSH1 0x0 PUSH1 0x20 DUP3 DUP5 SUB SLT ISZERO PUSH2 0x1517 JUMPI PUSH2 0x1516 PUSH2 0x1354 JUMP JUMPDEST JUMPDEST PUSH1 0x0 PUSH2 0x1525 DUP5 DUP3 DUP6 ADD PUSH2 0x14EC JUMP JUMPDEST SWAP2 POP POP SWAP3 SWAP2 POP POP JUMP JUMPDEST PUSH1 0x0 PUSH20 0xFFFFFFFFFFFFFFFFFFFFFFFFFFFFFFFFFFFFFFFF DUP3 AND SWAP1 POP SWAP2 SWAP1 POP JUMP JUMPDEST PUSH1 0x0 PUSH2 0x1559 DUP3 PUSH2 0x152E JUMP JUMPDEST SWAP1 POP SWAP2 SWAP1 POP JUMP JUMPDEST PUSH2 0x1569 DUP2 PUSH2 0x154E JUMP JUMPDEST DUP3 MSTORE POP POP JUMP JUMPDEST PUSH1 0x0 PUSH1 0x20 DUP3 ADD SWAP1 POP PUSH2 0x1584 PUSH1 0x0 DUP4 ADD DUP5 PUSH2 0x1560 JUMP JUMPDEST SWAP3 SWAP2 POP POP JUMP JUMPDEST PUSH2 0x1593 DUP2 PUSH2 0x154E JUMP JUMPDEST DUP2 EQ PUSH2 0x159E JUMPI PUSH1 0x0 DUP1 REVERT JUMPDEST POP JUMP JUMPDEST PUSH1 0x0 DUP2 CALLDATALOAD SWAP1 POP PUSH2 0x15B0 DUP2 PUSH2 0x158A JUMP JUMPDEST SWAP3 SWAP2 POP POP JUMP JUMPDEST PUSH1 0x0 DUP1 PUSH1 0x40 DUP4 DUP6 SUB SLT ISZERO PUSH2 0x15CD JUMPI PUSH2 0x15CC PUSH2 0x1354 JUMP JUMPDEST JUMPDEST PUSH1 0x0 PUSH2 0x15DB DUP6 DUP3 DUP7 ADD PUSH2 0x15A1 JUMP JUMPDEST SWAP3 POP POP PUSH1 0x20 PUSH2 0x15EC DUP6 DUP3 DUP7 ADD PUSH2 0x14EC JUMP JUMPDEST SWAP2 POP POP SWAP3 POP SWAP3 SWAP1 POP JUMP JUMPDEST PUSH1 0x0 DUP1 PUSH1 0x0 PUSH1 0x60 DUP5 DUP7 SUB SLT ISZERO PUSH2 0x160F JUMPI PUSH2 0x160E PUSH2 0x1354 JUMP JUMPDEST JUMPDEST PUSH1 0x0 PUSH2 0x161D DUP7 DUP3 DUP8 ADD PUSH2 0x15A1 JUMP JUMPDEST SWAP4 POP POP PUSH1 0x20 PUSH2 0x162E DUP7 DUP3 DUP8 ADD PUSH2 0x15A1 JUMP JUMPDEST SWAP3 POP POP PUSH1 0x40 PUSH2 0x163F DUP7 DUP3 DUP8 ADD PUSH2 0x14EC JUMP JUMPDEST SWAP2 POP POP SWAP3 POP SWAP3 POP SWAP3 JUMP JUMPDEST PUSH1 0x0 PUSH1 0x20 DUP3 DUP5 SUB SLT ISZERO PUSH2 0x165F JUMPI PUSH2 0x165E PUSH2 0x1354 JUMP JUMPDEST JUMPDEST PUSH1 0x0 PUSH2 0x166D DUP5 DUP3 DUP6 ADD PUSH2 0x15A1 JUMP JUMPDEST SWAP2 POP POP SWAP3 SWAP2 POP POP JUMP JUMPDEST PUSH2 0x167F DUP2 PUSH2 0x14CB JUMP JUMPDEST DUP3 MSTORE POP POP JUMP JUMPDEST PUSH1 0x0 PUSH1 0x20 DUP3 ADD SWAP1 POP PUSH2 0x169A PUSH1 0x0 DUP4 ADD DUP5 PUSH2 0x1676 JUMP JUMPDEST SWAP3 SWAP2 POP POP JUMP JUMPDEST PUSH2 0x16A9 DUP2 PUSH2 0x13E3 JUMP JUMPDEST DUP2 EQ PUSH2 0x16B4 JUMPI PUSH1 0x0 DUP1 REVERT JUMPDEST POP JUMP JUMPDEST PUSH1 0x0 DUP2 CALLDATALOAD SWAP1 POP PUSH2 0x16C6 DUP2 PUSH2 0x16A0 JUMP JUMPDEST SWAP3 SWAP2 POP POP JUMP JUMPDEST PUSH1 0x0 DUP1 PUSH1 0x40 DUP4 DUP6 SUB SLT ISZERO PUSH2 0x16E3 JUMPI PUSH2 0x16E2 PUSH2 0x1354 JUMP JUMPDEST JUMPDEST PUSH1 0x0 PUSH2 0x16F1 DUP6 DUP3 DUP7 ADD PUSH2 0x15A1 JUMP JUMPDEST SWAP3 POP POP PUSH1 0x20 PUSH2 0x1702 DUP6 DUP3 DUP7 ADD PUSH2 0x16B7 JUMP JUMPDEST SWAP2 POP POP SWAP3 POP SWAP3 SWAP1 POP JUMP JUMPDEST PUSH1 0x0 DUP1 REVERT JUMPDEST PUSH1 0x0 DUP1 REVERT JUMPDEST PUSH1 0x0 DUP1 REVERT JUMPDEST PUSH1 0x0 DUP1 DUP4 PUSH1 0x1F DUP5 ADD SLT PUSH2 0x1731 JUMPI PUSH2 0x1730 PUSH2 0x170C JUMP JUMPDEST JUMPDEST DUP3 CALLDATALOAD SWAP1 POP PUSH8 0xFFFFFFFFFFFFFFFF DUP2 GT ISZERO PUSH2 0x174E JUMPI PUSH2 0x174D PUSH2 0x1711 JUMP JUMPDEST JUMPDEST PUSH1 0x20 DUP4 ADD SWAP2 POP DUP4 PUSH1 0x1 DUP3 MUL DUP4 ADD GT ISZERO PUSH2 0x176A JUMPI PUSH2 0x1769 PUSH2 0x1716 JUMP JUMPDEST JUMPDEST SWAP3 POP SWAP3 SWAP1 POP JUMP JUMPDEST PUSH1 0x0 DUP1 PUSH1 0x0 DUP1 PUSH1 0x0 PUSH1 0x80 DUP7 DUP9 SUB SLT ISZERO PUSH2 0x178D JUMPI PUSH2 0x178C PUSH2 0x1354 JUMP JUMPDEST JUMPDEST PUSH1 0x0 PUSH2 0x179B DUP9 DUP3 DUP10 ADD PUSH2 0x15A1 JUMP JUMPDEST SWAP6 POP POP PUSH1 0x20 PUSH2 0x17AC DUP9 DUP3 DUP10 ADD PUSH2 0x15A1 JUMP JUMPDEST SWAP5 POP POP PUSH1 0x40 PUSH2 0x17BD DUP9 DUP3 DUP10 ADD PUSH2 0x14EC JUMP JUMPDEST SWAP4 POP POP PUSH1 0x60 DUP7 ADD CALLDATALOAD PUSH8 0xFFFFFFFFFFFFFFFF DUP2 GT ISZERO PUSH2 0x17DE JUMPI PUSH2 0x17DD PUSH2 0x1359 JUMP JUMPDEST JUMPDEST PUSH2 0x17EA DUP9 DUP3 DUP10 ADD PUSH2 0x171B JUMP JUMPDEST SWAP3 POP SWAP3 POP POP SWAP3 SWAP6 POP SWAP3 SWAP6 SWAP1 SWAP4 POP JUMP JUMPDEST PUSH1 0x0 DUP1 PUSH1 0x40 DUP4 DUP6 SUB SLT ISZERO PUSH2 0x1810 JUMPI PUSH2 0x180F PUSH2 0x1354 JUMP JUMPDEST JUMPDEST PUSH1 0x0 PUSH2 0x181E DUP6 DUP3 DUP7 ADD PUSH2 0x15A1 JUMP JUMPDEST SWAP3 POP POP PUSH1 0x20 PUSH2 0x182F DUP6 DUP3 DUP7 ADD PUSH2 0x15A1 JUMP JUMPDEST SWAP2 POP POP SWAP3 POP SWAP3 SWAP1 POP JUMP JUMPDEST PUSH32 0x4E487B7100000000000000000000000000000000000000000000000000000000 PUSH1 0x0 MSTORE PUSH1 0x22 PUSH1 0x4 MSTORE PUSH1 0x24 PUSH1 0x0 REVERT JUMPDEST PUSH1 0x0 PUSH1 0x2 DUP3 DIV SWAP1 POP PUSH1 0x1 DUP3 AND DUP1 PUSH2 0x1880 JUMPI PUSH1 0x7F DUP3 AND SWAP2 POP JUMPDEST PUSH1 0x20 DUP3 LT DUP2 SUB PUSH2 0x1893 JUMPI PUSH2 0x1892 PUSH2 0x1839 JUMP JUMPDEST JUMPDEST POP SWAP2 SWAP1 POP JUMP JUMPDEST PUSH32 0x4572726F72203A20746F6B656E20646F6573206E6F7420657869737400000000 PUSH1 0x0 DUP3 ADD MSTORE POP JUMP JUMPDEST PUSH1 0x0 PUSH2 0x18CF PUSH1 0x1C DUP4 PUSH2 0x1424 JUMP JUMPDEST SWAP2 POP PUSH2 0x18DA DUP3 PUSH2 0x1899 JUMP JUMPDEST PUSH1 0x20 DUP3 ADD SWAP1 POP SWAP2 SWAP1 POP JUMP JUMPDEST PUSH1 0x0 PUSH1 0x20 DUP3 ADD SWAP1 POP DUP2 DUP2 SUB PUSH1 0x0 DUP4 ADD MSTORE PUSH2 0x18FE DUP2 PUSH2 0x18C2 JUMP JUMPDEST SWAP1 POP SWAP2 SWAP1 POP JUMP JUMPDEST PUSH32 0x6E6F7420617574686F72697A6564000000000000000000000000000000000000 PUSH1 0x0 DUP3 ADD MSTORE POP JUMP JUMPDEST PUSH1 0x0 PUSH2 0x193B PUSH1 0xE DUP4 PUSH2 0x1424 JUMP JUMPDEST SWAP2 POP PUSH2 0x1946 DUP3 PUSH2 0x1905 JUMP JUMPDEST PUSH1 0x20 DUP3 ADD SWAP1 POP SWAP2 SWAP1 POP JUMP JUMPDEST PUSH1 0x0 PUSH1 0x20 DUP3 ADD SWAP1 POP DUP2 DUP2 SUB PUSH1 0x0 DUP4 ADD MSTORE PUSH2 0x196A DUP2 PUSH2 0x192E JUMP JUMPDEST SWAP1 POP SWAP2 SWAP1 POP JUMP JUMPDEST PUSH32 0x4572726F72203A20596F7520617265206E6F7420616E20617574686F72697A65 PUSH1 0x0 DUP3 ADD MSTORE PUSH32 0x64206D696E746572000000000000000000000000000000000000000000000000 PUSH1 0x20 DUP3 ADD MSTORE POP JUMP JUMPDEST PUSH1 0x0 PUSH2 0x19CD PUSH1 0x28 DUP4 PUSH2 0x1424 JUMP JUMPDEST SWAP2 POP PUSH2 0x19D8 DUP3 PUSH2 0x1971 JUMP JUMPDEST PUSH1 0x40 DUP3 ADD SWAP1 POP SWAP2 SWAP1 POP JUMP JUMPDEST PUSH1 0x0 PUSH1 0x20 DUP3 ADD SWAP1 POP DUP2 DUP2 SUB PUSH1 0x0 DUP4 ADD MSTORE PUSH2 0x19FC DUP2 PUSH2 0x19C0 JUMP JUMPDEST SWAP1 POP SWAP2 SWAP1 POP JUMP JUMPDEST PUSH32 0x4572726F72203A20546F6B656E20646F6573206E6F7420657869737400000000 PUSH1 0x0 DUP3 ADD MSTORE POP JUMP JUMPDEST PUSH1 0x0 PUSH2 0x1A39 PUSH1 0x1C DUP4 PUSH2 0x1424 JUMP JUMPDEST SWAP2 POP PUSH2 0x1A44 DUP3 PUSH2 0x1A03 JUMP JUMPDEST PUSH1 0x20 DUP3 ADD SWAP1 POP SWAP2 SWAP1 POP JUMP JUMPDEST PUSH1 0x0 PUSH1 0x20 DUP3 ADD SWAP1 POP DUP2 DUP2 SUB PUSH1 0x0 DUP4 ADD MSTORE PUSH2 0x1A68 DUP2 PUSH2 0x1A2C JUMP JUMPDEST SWAP1 POP SWAP2 SWAP1 POP JUMP JUMPDEST PUSH32 0x4572726F72203A2062616C616E636520717565727920666F7220746865207A65 PUSH1 0x0 DUP3 ADD MSTORE PUSH32 0x726F206164647265737300000000000000000000000000000000000000000000 PUSH1 0x20 DUP3 ADD MSTORE POP JUMP JUMPDEST PUSH1 0x0 PUSH2 0x1ACB PUSH1 0x2A DUP4 PUSH2 0x1424 JUMP JUMPDEST SWAP2 POP PUSH2 0x1AD6 DUP3 PUSH2 0x1A6F JUMP JUMPDEST PUSH1 0x40 DUP3 ADD SWAP1 POP SWAP2 SWAP1 POP JUMP JUMPDEST PUSH1 0x0 PUSH1 0x20 DUP3 ADD SWAP1 POP DUP2 DUP2 SUB PUSH1 0x0 DUP4 ADD MSTORE PUSH2 0x1AFA DUP2 PUSH2 0x1ABE JUMP JUMPDEST SWAP1 POP SWAP2 SWAP1 POP JUMP JUMPDEST PUSH1 0x0 DUP3 DUP3 MSTORE PUSH1 0x20 DUP3 ADD SWAP1 POP SWAP3 SWAP2 POP POP JUMP JUMPDEST DUP3 DUP2 DUP4 CALLDATACOPY PUSH1 0x0 DUP4 DUP4 ADD MSTORE POP POP POP JUMP JUMPDEST PUSH1 0x0 PUSH2 0x1B2D DUP4 DUP6 PUSH2 0x1B01 JUMP JUMPDEST SWAP4 POP PUSH2 0x1B3A DUP4 DUP6 DUP5 PUSH2 0x1B12 JUMP JUMPDEST PUSH2 0x1B43 DUP4 PUSH2 0x145F JUMP JUMPDEST DUP5 ADD SWAP1 POP SWAP4 SWAP3 POP POP POP JUMP JUMPDEST PUSH1 0x0 PUSH1 0x80 DUP3 ADD SWAP1 POP PUSH2 0x1B63 PUSH1 0x0 DUP4 ADD DUP9 PUSH2 0x1560 JUMP JUMPDEST PUSH2 0x1B70 PUSH1 0x20 DUP4 ADD DUP8 PUSH2 0x1560 JUMP JUMPDEST PUSH2 0x1B7D PUSH1 0x40 DUP4 ADD DUP7 PUSH2 0x1676 JUMP JUMPDEST DUP2 DUP2 SUB PUSH1 0x60 DUP4 ADD MSTORE PUSH2 0x1B90 DUP2 DUP5 DUP7 PUSH2 0x1B21 JUMP JUMPDEST SWAP1 POP SWAP7 SWAP6 POP POP POP POP POP POP JUMP JUMPDEST PUSH1 0x0 DUP2 MLOAD SWAP1 POP PUSH2 0x1BAB DUP2 PUSH2 0x138A JUMP JUMPDEST SWAP3 SWAP2 POP POP JUMP JUMPDEST PUSH1 0x0 PUSH1 0x20 DUP3 DUP5 SUB SLT ISZERO PUSH2 0x1BC7 JUMPI PUSH2 0x1BC6 PUSH2 0x1354 JUMP JUMPDEST JUMPDEST PUSH1 0x0 PUSH2 0x1BD5 DUP5 DUP3 DUP6 ADD PUSH2 0x1B9C JUMP JUMPDEST SWAP2 POP POP SWAP3 SWAP2 POP POP JUMP JUMPDEST PUSH32 0x4572726F72203A20756E7361666520726563697069656E740000000000000000 PUSH1 0x0 DUP3 ADD MSTORE POP JUMP JUMPDEST PUSH1 0x0 PUSH2 0x1C14 PUSH1 0x18 DUP4 PUSH2 0x1424 JUMP JUMPDEST SWAP2 POP PUSH2 0x1C1F DUP3 PUSH2 0x1BDE JUMP JUMPDEST PUSH1 0x20 DUP3 ADD SWAP1 POP SWAP2 SWAP1 POP JUMP JUMPDEST PUSH1 0x0 PUSH1 0x20 DUP3 ADD SWAP1 POP DUP2 DUP2 SUB PUSH1 0x0 DUP4 ADD MSTORE PUSH2 0x1C43 DUP2 PUSH2 0x1C07 JUMP JUMPDEST SWAP1 POP SWAP2 SWAP1 POP JUMP JUMPDEST PUSH32 0x66726F6D20213D206F776E657200000000000000000000000000000000000000 PUSH1 0x0 DUP3 ADD MSTORE POP JUMP JUMPDEST PUSH1 0x0 PUSH2 0x1C80 PUSH1 0xD DUP4 PUSH2 0x1424 JUMP JUMPDEST SWAP2 POP PUSH2 0x1C8B DUP3 PUSH2 0x1C4A JUMP JUMPDEST PUSH1 0x20 DUP3 ADD SWAP1 POP SWAP2 SWAP1 POP JUMP JUMPDEST PUSH1 0x0 PUSH1 0x20 DUP3 ADD SWAP1 POP DUP2 DUP2 SUB PUSH1 0x0 DUP4 ADD MSTORE PUSH2 0x1CAF DUP2 PUSH2 0x1C73 JUMP JUMPDEST SWAP1 POP SWAP2 SWAP1 POP JUMP JUMPDEST PUSH32 0x7472616E7366657220746F207A65726F20616464726573730000000000000000 PUSH1 0x0 DUP3 ADD MSTORE POP JUMP JUMPDEST PUSH1 0x0 PUSH2 0x1CEC PUSH1 0x18 DUP4 PUSH2 0x1424 JUMP JUMPDEST SWAP2 POP PUSH2 0x1CF7 DUP3 PUSH2 0x1CB6 JUMP JUMPDEST PUSH1 0x20 DUP3 ADD SWAP1 POP SWAP2 SWAP1 POP JUMP JUMPDEST PUSH1 0x0 PUSH1 0x20 DUP3 ADD SWAP1 POP DUP2 DUP2 SUB PUSH1 0x0 DUP4 ADD MSTORE PUSH2 0x1D1B DUP2 PUSH2 0x1CDF JUMP JUMPDEST SWAP1 POP SWAP2 SWAP1 POP JUMP JUMPDEST PUSH32 0x4E487B7100000000000000000000000000000000000000000000000000000000 PUSH1 0x0 MSTORE PUSH1 0x11 PUSH1 0x4 MSTORE PUSH1 0x24 PUSH1 0x0 REVERT JUMPDEST PUSH1 0x0 PUSH2 0x1D5C DUP3 PUSH2 0x14CB JUMP JUMPDEST SWAP2 POP PUSH1 0x0 DUP3 SUB PUSH2 0x1D6F JUMPI PUSH2 0x1D6E PUSH2 0x1D22 JUMP JUMPDEST JUMPDEST PUSH1 0x1 DUP3 SUB SWAP1 POP SWAP2 SWAP1 POP JUMP JUMPDEST PUSH1 0x0 PUSH2 0x1D85 DUP3 PUSH2 0x14CB JUMP JUMPDEST SWAP2 POP PUSH32 0xFFFFFFFFFFFFFFFFFFFFFFFFFFFFFFFFFFFFFFFFFFFFFFFFFFFFFFFFFFFFFFFF DUP3 SUB PUSH2 0x1DB7 JUMPI PUSH2 0x1DB6 PUSH2 0x1D22 JUMP JUMPDEST JUMPDEST PUSH1 0x1 DUP3 ADD SWAP1 POP SWAP2 SWAP1 POP JUMP JUMPDEST PUSH32 0x4572726F72203A206D696E7420746F207A65726F206164647265737300000000 PUSH1 0x0 DUP3 ADD MSTORE POP JUMP JUMPDEST PUSH1 0x0 PUSH2 0x1DF8 PUSH1 0x1C DUP4 PUSH2 0x1424 JUMP JUMPDEST SWAP2 POP PUSH2 0x1E03 DUP3 PUSH2 0x1DC2 JUMP JUMPDEST PUSH1 0x20 DUP3 ADD SWAP1 POP SWAP2 SWAP1 POP JUMP JUMPDEST PUSH1 0x0 PUSH1 0x20 DUP3 ADD SWAP1 POP DUP2 DUP2 SUB PUSH1 0x0 DUP4 ADD MSTORE PUSH2 0x1E27 DUP2 PUSH2 0x1DEB JUMP JUMPDEST SWAP1 POP SWAP2 SWAP1 POP JUMP JUMPDEST PUSH32 0x4572726F72203A20416C7265616479206D696E74656421000000000000000000 PUSH1 0x0 DUP3 ADD MSTORE POP JUMP JUMPDEST PUSH1 0x0 PUSH2 0x1E64 PUSH1 0x17 DUP4 PUSH2 0x1424 JUMP JUMPDEST SWAP2 POP PUSH2 0x1E6F DUP3 PUSH2 0x1E2E JUMP JUMPDEST PUSH1 0x20 DUP3 ADD SWAP1 POP SWAP2 SWAP1 POP JUMP JUMPDEST PUSH1 0x0 PUSH1 0x20 DUP3 ADD SWAP1 POP DUP2 DUP2 SUB PUSH1 0x0 DUP4 ADD MSTORE PUSH2 0x1E93 DUP2 PUSH2 0x1E57 JUMP JUMPDEST SWAP1 POP SWAP2 SWAP1 POP JUMP INVALID LOG2 PUSH5 0x6970667358 0x22 SLT KECCAK256 ORIGIN 0xF6 PUSH10 0x242B4FE1D0C1D89A6214 0xAD NOT 0x23 SELFDESTRUCT 0xDC LOG0 0x29 JUMP DUP3 0x28 SWAP15 EXTCODESIZE 0xF6 0xC8 0x2E GASPRICE SWAP6 POP 0x24 PUSH5 0x736F6C6343 STOP ADDMOD SLT STOP CALLER "
		},
		"gasEstimates": {
			"creation": {
				"codeDepositCost": "1577600",
				"executionCost": "infinite",
				"totalCost": "infinite"
			},
			"external": {
				"_operatorApprovals(address,address)": "infinite",
				"approve(address,uint256)": "31493",
				"balanceOf(address)": "2921",
				"founder()": "2600",
				"getApproved(uint256)": "5182",
				"isApprovedForAll(address,address)": "infinite",
				"mintNFT(address,uint256)": "infinite",
				"name()": "infinite",
				"ownerOf(uint256)": "2979",
				"safeTransferFrom(address,address,uint256,bytes)": "infinite",
				"setApprovalForAll(address,bool)": "infinite",
				"supportsInterface(bytes4)": "708",
				"symbol()": "infinite",
				"transferFrom(address,address,uint256)": "infinite"
			},
			"internal": {
				"_mint(address,uint256)": "infinite",
				"_transferFrom(address,address,uint256)": "infinite"
			}
		},
		"methodIdentifiers": {
			"_operatorApprovals(address,address)": "edc3bc3f",
			"approve(address,uint256)": "095ea7b3",
			"balanceOf(address)": "70a08231",
			"founder()": "4d853ee5",
			"getApproved(uint256)": "081812fc",
			"isApprovedForAll(address,address)": "e985e9c5",
			"mintNFT(address,uint256)": "3c168eab",
			"name()": "06fdde03",
			"ownerOf(uint256)": "6352211e",
			"safeTransferFrom(address,address,uint256,bytes)": "b88d4fde",
			"setApprovalForAll(address,bool)": "a22cb465",
			"supportsInterface(bytes4)": "01ffc9a7",
			"symbol()": "95d89b41",
			"transferFrom(address,address,uint256)": "23b872dd"
		}
	},
	"abi": [
		{
			"inputs": [
				{
					"internalType": "string",
					"name": "_name",
					"type": "string"
				},
				{
					"internalType": "string",
					"name": "_symbol",
					"type": "string"
				}
			],
			"stateMutability": "nonpayable",
			"type": "constructor"
		},
		{
			"anonymous": false,
			"inputs": [
				{
					"indexed": true,
					"internalType": "address",
					"name": "_owner",
					"type": "address"
				},
				{
					"indexed": true,
					"internalType": "address",
					"name": "_approved",
					"type": "address"
				},
				{
					"indexed": true,
					"internalType": "uint256",
					"name": "_tokenId",
					"type": "uint256"
				}
			],
			"name": "Approval",
			"type": "event"
		},
		{
			"anonymous": false,
			"inputs": [
				{
					"indexed": true,
					"internalType": "address",
					"name": "_owner",
					"type": "address"
				},
				{
					"indexed": true,
					"internalType": "address",
					"name": "_operator",
					"type": "address"
				},
				{
					"indexed": false,
					"internalType": "bool",
					"name": "_approved",
					"type": "bool"
				}
			],
			"name": "ApprovalForAll",
			"type": "event"
		},
		{
			"anonymous": false,
			"inputs": [
				{
					"indexed": true,
					"internalType": "address",
					"name": "_from",
					"type": "address"
				},
				{
					"indexed": true,
					"internalType": "address",
					"name": "_to",
					"type": "address"
				},
				{
					"indexed": true,
					"internalType": "uint256",
					"name": "_tokenId",
					"type": "uint256"
				}
			],
			"name": "Transfer",
			"type": "event"
		},
		{
			"inputs": [
				{
					"internalType": "address",
					"name": "",
					"type": "address"
				},
				{
					"internalType": "address",
					"name": "",
					"type": "address"
				}
			],
			"name": "_operatorApprovals",
			"outputs": [
				{
					"internalType": "bool",
					"name": "",
					"type": "bool"
				}
			],
			"stateMutability": "view",
			"type": "function"
		},
		{
			"inputs": [
				{
					"internalType": "address",
					"name": "_approved",
					"type": "address"
				},
				{
					"internalType": "uint256",
					"name": "_tokenId",
					"type": "uint256"
				}
			],
			"name": "approve",
			"outputs": [],
			"stateMutability": "payable",
			"type": "function"
		},
		{
			"inputs": [
				{
					"internalType": "address",
					"name": "_owner",
					"type": "address"
				}
			],
			"name": "balanceOf",
			"outputs": [
				{
					"internalType": "uint256",
					"name": "",
					"type": "uint256"
				}
			],
			"stateMutability": "view",
			"type": "function"
		},
		{
			"inputs": [],
			"name": "founder",
			"outputs": [
				{
					"internalType": "address",
					"name": "",
					"type": "address"
				}
			],
			"stateMutability": "view",
			"type": "function"
		},
		{
			"inputs": [
				{
					"internalType": "uint256",
					"name": "_tokenID",
					"type": "uint256"
				}
			],
			"name": "getApproved",
			"outputs": [
				{
					"internalType": "address",
					"name": "",
					"type": "address"
				}
			],
			"stateMutability": "view",
			"type": "function"
		},
		{
			"inputs": [
				{
					"internalType": "address",
					"name": "_owner",
					"type": "address"
				},
				{
					"internalType": "address",
					"name": "_operator",
					"type": "address"
				}
			],
			"name": "isApprovedForAll",
			"outputs": [
				{
					"internalType": "bool",
					"name": "",
					"type": "bool"
				}
			],
			"stateMutability": "view",
			"type": "function"
		},
		{
			"inputs": [
				{
					"internalType": "address",
					"name": "to",
					"type": "address"
				},
				{
					"internalType": "uint256",
					"name": "tokenID",
					"type": "uint256"
				}
			],
			"name": "mintNFT",
			"outputs": [],
			"stateMutability": "nonpayable",
			"type": "function"
		},
		{
			"inputs": [],
			"name": "name",
			"outputs": [
				{
					"internalType": "string",
					"name": "",
					"type": "string"
				}
			],
			"stateMutability": "view",
			"type": "function"
		},
		{
			"inputs": [
				{
					"internalType": "uint256",
					"name": "_tokenID",
					"type": "uint256"
				}
			],
			"name": "ownerOf",
			"outputs": [
				{
					"internalType": "address",
					"name": "",
					"type": "address"
				}
			],
			"stateMutability": "view",
			"type": "function"
		},
		{
			"inputs": [
				{
					"internalType": "address",
					"name": "_from",
					"type": "address"
				},
				{
					"internalType": "address",
					"name": "_to",
					"type": "address"
				},
				{
					"internalType": "uint256",
					"name": "_tokenId",
					"type": "uint256"
				},
				{
					"internalType": "bytes",
					"name": "data",
					"type": "bytes"
				}
			],
			"name": "safeTransferFrom",
			"outputs": [],
			"stateMutability": "payable",
			"type": "function"
		},
		{
			"inputs": [
				{
					"internalType": "address",
					"name": "_operator",
					"type": "address"
				},
				{
					"internalType": "bool",
					"name": "_approved",
					"type": "bool"
				}
			],
			"name": "setApprovalForAll",
			"outputs": [],
			"stateMutability": "nonpayable",
			"type": "function"
		},
		{
			"inputs": [
				{
					"internalType": "bytes4",
					"name": "interfaceId",
					"type": "bytes4"
				}
			],
			"name": "supportsInterface",
			"outputs": [
				{
					"internalType": "bool",
					"name": "",
					"type": "bool"
				}
			],
			"stateMutability": "pure",
			"type": "function"
		},
		{
			"inputs": [],
			"name": "symbol",
			"outputs": [
				{
					"internalType": "string",
					"name": "",
					"type": "string"
				}
			],
			"stateMutability": "view",
			"type": "function"
		},
		{
			"inputs": [
				{
					"internalType": "address",
					"name": "_from",
					"type": "address"
				},
				{
					"internalType": "address",
					"name": "_to",
					"type": "address"
				},
				{
					"internalType": "uint256",
					"name": "_tokenId",
					"type": "uint256"
				}
			],
			"name": "transferFrom",
			"outputs": [],
			"stateMutability": "payable",
			"type": "function"
		}
	]
}