{
	"data": {
		"bytecode": {
			"linkReferences": {},
			"object": "60806040526003600055600560015534801561001a57600080fd5b506101618061002a6000396000f3fe608060405234801561001057600080fd5b50600436106100415760003560e01c80630dbe671f146100465780634df7e3d01461006457806375bbb4e714610082575b600080fd5b61004e6100a1565b60405161005b91906100dd565b60405180910390f35b61006c6100a7565b60405161007991906100dd565b60405180910390f35b61008a6100ad565b6040516100989291906100f8565b60405180910390f35b60005481565b60015481565b60008060646000819055506000600181905550600054600154915091509091565b6100d781610121565b82525050565b60006020820190506100f260008301846100ce565b92915050565b600060408201905061010d60008301856100ce565b61011a60208301846100ce565b9392505050565b600081905091905056fea2646970667358221220e9658b5d88aa9e6e2ecf0e97048a3f0ac97a1ded6121bbbda2a6fbdfc8bdd47c64736f6c63430008000033",
			"opcodes": "PUSH1 0x80 PUSH1 0x40 MSTORE PUSH1 0x3 PUSH1 0x0 SSTORE PUSH1 0x5 PUSH1 0x1 SSTORE CALLVALUE DUP1 ISZERO PUSH2 0x1A JUMPI PUSH1 0x0 DUP1 REVERT JUMPDEST POP PUSH2 0x161 DUP1 PUSH2 0x2A PUSH1 0x0 CODECOPY PUSH1 0x0 RETURN INVALID PUSH1 0x80 PUSH1 0x40 MSTORE CALLVALUE DUP1 ISZERO PUSH2 0x10 JUMPI PUSH1 0x0 DUP1 REVERT JUMPDEST POP PUSH1 0x4 CALLDATASIZE LT PUSH2 0x41 JUMPI PUSH1 0x0 CALLDATALOAD PUSH1 0xE0 SHR DUP1 PUSH4 0xDBE671F EQ PUSH2 0x46 JUMPI DUP1 PUSH4 0x4DF7E3D0 EQ PUSH2 0x64 JUMPI DUP1 PUSH4 0x75BBB4E7 EQ PUSH2 0x82 JUMPI JUMPDEST PUSH1 0x0 DUP1 REVERT JUMPDEST PUSH2 0x4E PUSH2 0xA1 JUMP JUMPDEST PUSH1 0x40 MLOAD PUSH2 0x5B SWAP2 SWAP1 PUSH2 0xDD JUMP JUMPDEST PUSH1 0x40 MLOAD DUP1 SWAP2 SUB SWAP1 RETURN JUMPDEST PUSH2 0x6C PUSH2 0xA7 JUMP JUMPDEST PUSH1 0x40 MLOAD PUSH2 0x79 SWAP2 SWAP1 PUSH2 0xDD JUMP JUMPDEST PUSH1 0x40 MLOAD DUP1 SWAP2 SUB SWAP1 RETURN JUMPDEST PUSH2 0x8A PUSH2 0xAD JUMP JUMPDEST PUSH1 0x40 MLOAD PUSH2 0x98 SWAP3 SWAP2 SWAP1 PUSH2 0xF8 JUMP JUMPDEST PUSH1 0x40 MLOAD DUP1 SWAP2 SUB SWAP1 RETURN JUMPDEST PUSH1 0x0 SLOAD DUP2 JUMP JUMPDEST PUSH1 0x1 SLOAD DUP2 JUMP JUMPDEST PUSH1 0x0 DUP1 PUSH1 0x64 PUSH1 0x0 DUP2 SWAP1 SSTORE POP PUSH1 0x0 PUSH1 0x1 DUP2 SWAP1 SSTORE POP PUSH1 0x0 SLOAD PUSH1 0x1 SLOAD SWAP2 POP SWAP2 POP SWAP1 SWAP2 JUMP JUMPDEST PUSH2 0xD7 DUP2 PUSH2 0x121 JUMP JUMPDEST DUP3 MSTORE POP POP JUMP JUMPDEST PUSH1 0x0 PUSH1 0x20 DUP3 ADD SWAP1 POP PUSH2 0xF2 PUSH1 0x0 DUP4 ADD DUP5 PUSH2 0xCE JUMP JUMPDEST SWAP3 SWAP2 POP POP JUMP JUMPDEST PUSH1 0x0 PUSH1 0x40 DUP3 ADD SWAP1 POP PUSH2 0x10D PUSH1 0x0 DUP4 ADD DUP6 PUSH2 0xCE JUMP JUMPDEST PUSH2 0x11A PUSH1 0x20 DUP4 ADD DUP5 PUSH2 0xCE JUMP JUMPDEST SWAP4 SWAP3 POP POP POP JUMP JUMPDEST PUSH1 0x0 DUP2 SWAP1 POP SWAP2 SWAP1 POP JUMP INVALID LOG2 PUSH5 0x6970667358 0x22 SLT KECCAK256 0xE9 PUSH6 0x8B5D88AA9E6E 0x2E 0xCF 0xE SWAP8 DIV DUP11 EXTCODEHASH EXP 0xC9 PUSH27 0x1DED6121BBBDA2A6FBDFC8BDD47C64736F6C634300080000330000 "
		},
		"gasEstimates": {
			"creation": {
				"codeDepositCost": "70600",
				"executionCost": "40135",
				"totalCost": "110735"
			},
			"external": {
				"a()": "1107",
				"b()": "1129",
				"myFun()": "infinite"
			}
		},
		"methodIdentifiers": {
			"a()": "0dbe671f",
			"b()": "4df7e3d0",
			"myFun()": "75bbb4e7"
		}
	},
	"abi": [
		{
			"inputs": [],
			"name": "a",
			"outputs": [
				{
					"internalType": "uint256",
					"name": "",
					"type": "uint256"
				}
			],
			"stateMutability": "view",
			"type": "function"
		},
		{
			"inputs": [],
			"name": "b",
			"outputs": [
				{
					"internalType": "uint256",
					"name": "",
					"type": "uint256"
				}
			],
			"stateMutability": "view",
			"type": "function"
		},
		{
			"inputs": [],
			"name": "myFun",
			"outputs": [
				{
					"internalType": "uint256",
					"name": "",
					"type": "uint256"
				},
				{
					"internalType": "uint256",
					"name": "",
					"type": "uint256"
				}
			],
			"stateMutability": "nonpayable",
			"type": "function"
		}
	]
}