{
	"data": {
		"bytecode": {
			"linkReferences": {},
			"object": "6080604052600160f81b6000806101000a81548160ff021916908360f81c0217905550600360f81b600060016101000a81548160ff021916908360f81c021790555034801561004d57600080fd5b506101878061005d6000396000f3fe608060405234801561001057600080fd5b506004361061002b5760003560e01c8063856b16a414610030575b600080fd5b610038610051565b60405161004894939291906100e0565b60405180910390f35b600080600080600060019054906101000a900460f81b60008054906101000a900460f81b16600060019054906101000a900460f81b60008054906101000a900460f81b17600060019054906101000a900460f81b60008054906101000a900460f81b1860008054906101000a900460f81b19935093509350935090919293565b6100da81610125565b82525050565b60006080820190506100f560008301876100d1565b61010260208301866100d1565b61010f60408301856100d1565b61011c60608301846100d1565b95945050505050565b60007fff000000000000000000000000000000000000000000000000000000000000008216905091905056fea264697066735822122077a6508b5a41f88c193712392e61cdf23da6353ef205e47cec370a7d4c1bee0664736f6c63430008000033",
			"opcodes": "PUSH1 0x80 PUSH1 0x40 MSTORE PUSH1 0x1 PUSH1 0xF8 SHL PUSH1 0x0 DUP1 PUSH2 0x100 EXP DUP2 SLOAD DUP2 PUSH1 0xFF MUL NOT AND SWAP1 DUP4 PUSH1 0xF8 SHR MUL OR SWAP1 SSTORE POP PUSH1 0x3 PUSH1 0xF8 SHL PUSH1 0x0 PUSH1 0x1 PUSH2 0x100 EXP DUP2 SLOAD DUP2 PUSH1 0xFF MUL NOT AND SWAP1 DUP4 PUSH1 0xF8 SHR MUL OR SWAP1 SSTORE POP CALLVALUE DUP1 ISZERO PUSH2 0x4D JUMPI PUSH1 0x0 DUP1 REVERT JUMPDEST POP PUSH2 0x187 DUP1 PUSH2 0x5D PUSH1 0x0 CODECOPY PUSH1 0x0 RETURN INVALID PUSH1 0x80 PUSH1 0x40 MSTORE CALLVALUE DUP1 ISZERO PUSH2 0x10 JUMPI PUSH1 0x0 DUP1 REVERT JUMPDEST POP PUSH1 0x4 CALLDATASIZE LT PUSH2 0x2B JUMPI PUSH1 0x0 CALLDATALOAD PUSH1 0xE0 SHR DUP1 PUSH4 0x856B16A4 EQ PUSH2 0x30 JUMPI JUMPDEST PUSH1 0x0 DUP1 REVERT JUMPDEST PUSH2 0x38 PUSH2 0x51 JUMP JUMPDEST PUSH1 0x40 MLOAD PUSH2 0x48 SWAP5 SWAP4 SWAP3 SWAP2 SWAP1 PUSH2 0xE0 JUMP JUMPDEST PUSH1 0x40 MLOAD DUP1 SWAP2 SUB SWAP1 RETURN JUMPDEST PUSH1 0x0 DUP1 PUSH1 0x0 DUP1 PUSH1 0x0 PUSH1 0x1 SWAP1 SLOAD SWAP1 PUSH2 0x100 EXP SWAP1 DIV PUSH1 0xF8 SHL PUSH1 0x0 DUP1 SLOAD SWAP1 PUSH2 0x100 EXP SWAP1 DIV PUSH1 0xF8 SHL AND PUSH1 0x0 PUSH1 0x1 SWAP1 SLOAD SWAP1 PUSH2 0x100 EXP SWAP1 DIV PUSH1 0xF8 SHL PUSH1 0x0 DUP1 SLOAD SWAP1 PUSH2 0x100 EXP SWAP1 DIV PUSH1 0xF8 SHL OR PUSH1 0x0 PUSH1 0x1 SWAP1 SLOAD SWAP1 PUSH2 0x100 EXP SWAP1 DIV PUSH1 0xF8 SHL PUSH1 0x0 DUP1 SLOAD SWAP1 PUSH2 0x100 EXP SWAP1 DIV PUSH1 0xF8 SHL XOR PUSH1 0x0 DUP1 SLOAD SWAP1 PUSH2 0x100 EXP SWAP1 DIV PUSH1 0xF8 SHL NOT SWAP4 POP SWAP4 POP SWAP4 POP SWAP4 POP SWAP1 SWAP2 SWAP3 SWAP4 JUMP JUMPDEST PUSH2 0xDA DUP2 PUSH2 0x125 JUMP JUMPDEST DUP3 MSTORE POP POP JUMP JUMPDEST PUSH1 0x0 PUSH1 0x80 DUP3 ADD SWAP1 POP PUSH2 0xF5 PUSH1 0x0 DUP4 ADD DUP8 PUSH2 0xD1 JUMP JUMPDEST PUSH2 0x102 PUSH1 0x20 DUP4 ADD DUP7 PUSH2 0xD1 JUMP JUMPDEST PUSH2 0x10F PUSH1 0x40 DUP4 ADD DUP6 PUSH2 0xD1 JUMP JUMPDEST PUSH2 0x11C PUSH1 0x60 DUP4 ADD DUP5 PUSH2 0xD1 JUMP JUMPDEST SWAP6 SWAP5 POP POP POP POP POP JUMP JUMPDEST PUSH1 0x0 PUSH32 0xFF00000000000000000000000000000000000000000000000000000000000000 DUP3 AND SWAP1 POP SWAP2 SWAP1 POP JUMP INVALID LOG2 PUSH5 0x6970667358 0x22 SLT KECCAK256 PUSH24 0xA6508B5A41F88C193712392E61CDF23DA6353EF205E47CEC CALLDATACOPY EXP PUSH30 0x4C1BEE0664736F6C63430008000033000000000000000000000000000000 "
		},
		"gasEstimates": {
			"creation": {
				"codeDepositCost": "78200",
				"executionCost": "41925",
				"totalCost": "120125"
			},
			"external": {
				"bitwise()": "infinite"
			}
		},
		"methodIdentifiers": {
			"bitwise()": "856b16a4"
		}
	},
	"abi": [
		{
			"inputs": [],
			"name": "bitwise",
			"outputs": [
				{
					"internalType": "bytes1",
					"name": "",
					"type": "bytes1"
				},
				{
					"internalType": "bytes1",
					"name": "",
					"type": "bytes1"
				},
				{
					"internalType": "bytes1",
					"name": "",
					"type": "bytes1"
				},
				{
					"internalType": "bytes1",
					"name": "",
					"type": "bytes1"
				}
			],
			"stateMutability": "view",
			"type": "function"
		}
	]
}