{
	"ballot/ballot-contract/contracts/Ballot.sol": {
		"Ballot": {
			"abi": [
				{
					"inputs": [
						{
							"internalType": "uint8",
							"name": "numProposals",
							"type": "uint8"
						}
					],
					"stateMutability": "nonpayable",
					"type": "constructor"
				},
				{
					"inputs": [
						{
							"internalType": "uint256",
							"name": "",
							"type": "uint256"
						}
					],
					"name": "proposals",
					"outputs": [
						{
							"internalType": "uint256",
							"name": "voteCount",
							"type": "uint256"
						}
					],
					"stateMutability": "view",
					"type": "function"
				},
				{
					"inputs": [
						{
							"internalType": "address",
							"name": "_voter",
							"type": "address"
						}
					],
					"name": "register",
					"outputs": [],
					"stateMutability": "nonpayable",
					"type": "function"
				},
				{
					"inputs": [],
					"name": "reqWinner",
					"outputs": [
						{
							"internalType": "uint256",
							"name": "",
							"type": "uint256"
						}
					],
					"stateMutability": "view",
					"type": "function"
				},
				{
					"inputs": [
						{
							"internalType": "uint8",
							"name": "_number",
							"type": "uint8"
						}
					],
					"name": "vote",
					"outputs": [],
					"stateMutability": "nonpayable",
					"type": "function"
				},
				{
					"inputs": [
						{
							"internalType": "address",
							"name": "",
							"type": "address"
						}
					],
					"name": "voters",
					"outputs": [
						{
							"internalType": "uint256",
							"name": "weight",
							"type": "uint256"
						},
						{
							"internalType": "bool",
							"name": "voted",
							"type": "bool"
						},
						{
							"internalType": "uint256",
							"name": "vote",
							"type": "uint256"
						}
					],
					"stateMutability": "view",
					"type": "function"
				}
			],
			"devdoc": {
				"kind": "dev",
				"methods": {},
				"version": 1
			},
			"evm": {
				"assembly": "    /* \"ballot/ballot-contract/contracts/Ballot.sol\":69:2028  contract Ballot {... */\n  mstore(0x40, 0x80)\n    /* \"ballot/ballot-contract/contracts/Ballot.sol\":396:578  constructor (uint8 numProposals) {... */\n  callvalue\n  dup1\n  iszero\n  tag_1\n  jumpi\n  0x00\n  dup1\n  revert\ntag_1:\n  pop\n  mload(0x40)\n  sub(codesize, bytecodeSize)\n  dup1\n  bytecodeSize\n  dup4\n  codecopy\n  dup2\n  dup2\n  add\n  0x40\n  mstore\n  dup2\n  add\n  swap1\n  tag_2\n  swap2\n  swap1\n  tag_3\n  jump\t// in\ntag_2:\n    /* \"ballot/ballot-contract/contracts/Ballot.sol\":453:463  msg.sender */\n  caller\n    /* \"ballot/ballot-contract/contracts/Ballot.sol\":439:450  chairperson */\n  0x00\n  dup1\n    /* \"ballot/ballot-contract/contracts/Ballot.sol\":439:463  chairperson = msg.sender */\n  0x0100\n  exp\n  dup2\n  sload\n  dup2\n  0xffffffffffffffffffffffffffffffffffffffff\n  mul\n  not\n  and\n  swap1\n  dup4\n  0xffffffffffffffffffffffffffffffffffffffff\n  and\n  mul\n  or\n  swap1\n  sstore\n  pop\n    /* \"ballot/ballot-contract/contracts/Ballot.sol\":478:487  uint8 idx */\n  0x00\n    /* \"ballot/ballot-contract/contracts/Ballot.sol\":473:572  for (uint8 idx = 0; idx < numProposals; idx ++){... */\ntag_6:\n    /* \"ballot/ballot-contract/contracts/Ballot.sol\":499:511  numProposals */\n  dup2\n    /* \"ballot/ballot-contract/contracts/Ballot.sol\":493:511  idx < numProposals */\n  0xff\n  and\n    /* \"ballot/ballot-contract/contracts/Ballot.sol\":493:496  idx */\n  dup2\n    /* \"ballot/ballot-contract/contracts/Ballot.sol\":493:511  idx < numProposals */\n  0xff\n  and\n  lt\n    /* \"ballot/ballot-contract/contracts/Ballot.sol\":473:572  for (uint8 idx = 0; idx < numProposals; idx ++){... */\n  iszero\n  tag_7\n  jumpi\n    /* \"ballot/ballot-contract/contracts/Ballot.sol\":534:543  proposals */\n  0x02\n    /* \"ballot/ballot-contract/contracts/Ballot.sol\":549:560  Proposal(0) */\n  mload(0x40)\n  dup1\n  0x20\n  add\n  0x40\n  mstore\n  dup1\n    /* \"ballot/ballot-contract/contracts/Ballot.sol\":558:559  0 */\n  0x00\n    /* \"ballot/ballot-contract/contracts/Ballot.sol\":549:560  Proposal(0) */\n  dup2\n  mstore\n  pop\n    /* \"ballot/ballot-contract/contracts/Ballot.sol\":534:561  proposals.push(Proposal(0)) */\n  swap1\n  dup1\n  0x01\n  dup2\n  sload\n  add\n  dup1\n  dup3\n  sstore\n  dup1\n  swap2\n  pop\n  pop\n  0x01\n  swap1\n  sub\n  swap1\n  0x00\n  mstore\n  keccak256(0x00, 0x20)\n  add\n  0x00\n  swap1\n  swap2\n  swap1\n  swap2\n  swap1\n  swap2\n  pop\n  0x00\n  dup3\n  add\n  mload\n  dup2\n  0x00\n  add\n  sstore\n  pop\n  pop\n    /* \"ballot/ballot-contract/contracts/Ballot.sol\":513:519  idx ++ */\n  dup1\n  dup1\n  tag_10\n  swap1\n  tag_11\n  jump\t// in\ntag_10:\n  swap2\n  pop\n  pop\n    /* \"ballot/ballot-contract/contracts/Ballot.sol\":473:572  for (uint8 idx = 0; idx < numProposals; idx ++){... */\n  jump(tag_6)\ntag_7:\n  pop\n    /* \"ballot/ballot-contract/contracts/Ballot.sol\":396:578  constructor (uint8 numProposals) {... */\n  pop\n    /* \"ballot/ballot-contract/contracts/Ballot.sol\":69:2028  contract Ballot {... */\n  jump(tag_12)\n    /* \"#utility.yul\":88:205   */\ntag_14:\n    /* \"#utility.yul\":197:198   */\n  0x00\n    /* \"#utility.yul\":194:195   */\n  dup1\n    /* \"#utility.yul\":187:199   */\n  revert\n    /* \"#utility.yul\":334:420   */\ntag_16:\n    /* \"#utility.yul\":369:376   */\n  0x00\n    /* \"#utility.yul\":409:413   */\n  0xff\n    /* \"#utility.yul\":402:407   */\n  dup3\n    /* \"#utility.yul\":398:414   */\n  and\n    /* \"#utility.yul\":387:414   */\n  swap1\n  pop\n    /* \"#utility.yul\":334:420   */\n  swap2\n  swap1\n  pop\n  jump\t// out\n    /* \"#utility.yul\":426:544   */\ntag_17:\n    /* \"#utility.yul\":497:519   */\n  tag_26\n    /* \"#utility.yul\":513:518   */\n  dup2\n    /* \"#utility.yul\":497:519   */\n  tag_16\n  jump\t// in\ntag_26:\n    /* \"#utility.yul\":490:495   */\n  dup2\n    /* \"#utility.yul\":487:520   */\n  eq\n    /* \"#utility.yul\":477:538   */\n  tag_27\n  jumpi\n    /* \"#utility.yul\":534:535   */\n  0x00\n    /* \"#utility.yul\":531:532   */\n  dup1\n    /* \"#utility.yul\":524:536   */\n  revert\n    /* \"#utility.yul\":477:538   */\ntag_27:\n    /* \"#utility.yul\":426:544   */\n  pop\n  jump\t// out\n    /* \"#utility.yul\":550:689   */\ntag_18:\n    /* \"#utility.yul\":605:610   */\n  0x00\n    /* \"#utility.yul\":636:642   */\n  dup2\n    /* \"#utility.yul\":630:643   */\n  mload\n    /* \"#utility.yul\":621:643   */\n  swap1\n  pop\n    /* \"#utility.yul\":652:683   */\n  tag_29\n    /* \"#utility.yul\":677:682   */\n  dup2\n    /* \"#utility.yul\":652:683   */\n  tag_17\n  jump\t// in\ntag_29:\n    /* \"#utility.yul\":550:689   */\n  swap3\n  swap2\n  pop\n  pop\n  jump\t// out\n    /* \"#utility.yul\":695:1042   */\ntag_3:\n    /* \"#utility.yul\":763:769   */\n  0x00\n    /* \"#utility.yul\":812:814   */\n  0x20\n    /* \"#utility.yul\":800:809   */\n  dup3\n    /* \"#utility.yul\":791:798   */\n  dup5\n    /* \"#utility.yul\":787:810   */\n  sub\n    /* \"#utility.yul\":783:815   */\n  slt\n    /* \"#utility.yul\":780:899   */\n  iszero\n  tag_31\n  jumpi\n    /* \"#utility.yul\":818:897   */\n  tag_32\n  tag_14\n  jump\t// in\ntag_32:\n    /* \"#utility.yul\":780:899   */\ntag_31:\n    /* \"#utility.yul\":938:939   */\n  0x00\n    /* \"#utility.yul\":963:1025   */\n  tag_33\n    /* \"#utility.yul\":1017:1024   */\n  dup5\n    /* \"#utility.yul\":1008:1014   */\n  dup3\n    /* \"#utility.yul\":997:1006   */\n  dup6\n    /* \"#utility.yul\":993:1015   */\n  add\n    /* \"#utility.yul\":963:1025   */\n  tag_18\n  jump\t// in\ntag_33:\n    /* \"#utility.yul\":953:1025   */\n  swap2\n  pop\n    /* \"#utility.yul\":909:1035   */\n  pop\n    /* \"#utility.yul\":695:1042   */\n  swap3\n  swap2\n  pop\n  pop\n  jump\t// out\n    /* \"#utility.yul\":1048:1228   */\ntag_19:\n    /* \"#utility.yul\":1096:1173   */\n  0x4e487b7100000000000000000000000000000000000000000000000000000000\n    /* \"#utility.yul\":1093:1094   */\n  0x00\n    /* \"#utility.yul\":1086:1174   */\n  mstore\n    /* \"#utility.yul\":1193:1197   */\n  0x11\n    /* \"#utility.yul\":1190:1191   */\n  0x04\n    /* \"#utility.yul\":1183:1198   */\n  mstore\n    /* \"#utility.yul\":1217:1221   */\n  0x24\n    /* \"#utility.yul\":1214:1215   */\n  0x00\n    /* \"#utility.yul\":1207:1222   */\n  revert\n    /* \"#utility.yul\":1234:1401   */\ntag_11:\n    /* \"#utility.yul\":1271:1274   */\n  0x00\n    /* \"#utility.yul\":1294:1316   */\n  tag_36\n    /* \"#utility.yul\":1310:1315   */\n  dup3\n    /* \"#utility.yul\":1294:1316   */\n  tag_16\n  jump\t// in\ntag_36:\n    /* \"#utility.yul\":1285:1316   */\n  swap2\n  pop\n    /* \"#utility.yul\":1338:1342   */\n  0xff\n    /* \"#utility.yul\":1331:1336   */\n  dup3\n    /* \"#utility.yul\":1328:1343   */\n  sub\n    /* \"#utility.yul\":1325:1366   */\n  tag_37\n  jumpi\n    /* \"#utility.yul\":1346:1364   */\n  tag_38\n  tag_19\n  jump\t// in\ntag_38:\n    /* \"#utility.yul\":1325:1366   */\ntag_37:\n    /* \"#utility.yul\":1393:1394   */\n  0x01\n    /* \"#utility.yul\":1386:1391   */\n  dup3\n    /* \"#utility.yul\":1382:1395   */\n  add\n    /* \"#utility.yul\":1375:1395   */\n  swap1\n  pop\n    /* \"#utility.yul\":1234:1401   */\n  swap2\n  swap1\n  pop\n  jump\t// out\n    /* \"ballot/ballot-contract/contracts/Ballot.sol\":69:2028  contract Ballot {... */\ntag_12:\n  dataSize(sub_0)\n  dup1\n  dataOffset(sub_0)\n  0x00\n  codecopy\n  0x00\n  return\nstop\n\nsub_0: assembly {\n        /* \"ballot/ballot-contract/contracts/Ballot.sol\":69:2028  contract Ballot {... */\n      mstore(0x40, 0x80)\n      callvalue\n      dup1\n      iszero\n      tag_1\n      jumpi\n      0x00\n      dup1\n      revert\n    tag_1:\n      pop\n      jumpi(tag_2, lt(calldatasize, 0x04))\n      shr(0xe0, calldataload(0x00))\n      dup1\n      0x013cf08b\n      eq\n      tag_3\n      jumpi\n      dup1\n      0x4420e486\n      eq\n      tag_4\n      jumpi\n      dup1\n      0x508b30c9\n      eq\n      tag_5\n      jumpi\n      dup1\n      0xa3ec138d\n      eq\n      tag_6\n      jumpi\n      dup1\n      0xb3f98adc\n      eq\n      tag_7\n      jumpi\n    tag_2:\n      0x00\n      dup1\n      revert\n        /* \"ballot/ballot-contract/contracts/Ballot.sol\":362:389  Proposal[] public proposals */\n    tag_3:\n      tag_8\n      0x04\n      dup1\n      calldatasize\n      sub\n      dup2\n      add\n      swap1\n      tag_9\n      swap2\n      swap1\n      tag_10\n      jump\t// in\n    tag_9:\n      tag_11\n      jump\t// in\n    tag_8:\n      mload(0x40)\n      tag_12\n      swap2\n      swap1\n      tag_13\n      jump\t// in\n    tag_12:\n      mload(0x40)\n      dup1\n      swap2\n      sub\n      swap1\n      return\n        /* \"ballot/ballot-contract/contracts/Ballot.sol\":834:1158  function register(address _voter) ... */\n    tag_4:\n      tag_14\n      0x04\n      dup1\n      calldatasize\n      sub\n      dup2\n      add\n      swap1\n      tag_15\n      swap2\n      swap1\n      tag_16\n      jump\t// in\n    tag_15:\n      tag_17\n      jump\t// in\n    tag_14:\n      stop\n        /* \"ballot/ballot-contract/contracts/Ballot.sol\":1586:2026  function reqWinner() ... */\n    tag_5:\n      tag_18\n      tag_19\n      jump\t// in\n    tag_18:\n      mload(0x40)\n      tag_20\n      swap2\n      swap1\n      tag_13\n      jump\t// in\n    tag_20:\n      mload(0x40)\n      dup1\n      swap2\n      sub\n      swap1\n      return\n        /* \"ballot/ballot-contract/contracts/Ballot.sol\":316:355  mapping(address => Voter) public voters */\n    tag_6:\n      tag_21\n      0x04\n      dup1\n      calldatasize\n      sub\n      dup2\n      add\n      swap1\n      tag_22\n      swap2\n      swap1\n      tag_16\n      jump\t// in\n    tag_22:\n      tag_23\n      jump\t// in\n    tag_21:\n      mload(0x40)\n      tag_24\n      swap4\n      swap3\n      swap2\n      swap1\n      tag_25\n      jump\t// in\n    tag_24:\n      mload(0x40)\n      dup1\n      swap2\n      sub\n      swap1\n      return\n        /* \"ballot/ballot-contract/contracts/Ballot.sol\":1168:1580  function vote(uint8 _number)... */\n    tag_7:\n      tag_26\n      0x04\n      dup1\n      calldatasize\n      sub\n      dup2\n      add\n      swap1\n      tag_27\n      swap2\n      swap1\n      tag_28\n      jump\t// in\n    tag_27:\n      tag_29\n      jump\t// in\n    tag_26:\n      stop\n        /* \"ballot/ballot-contract/contracts/Ballot.sol\":362:389  Proposal[] public proposals */\n    tag_11:\n      0x02\n      dup2\n      dup2\n      sload\n      dup2\n      lt\n      tag_30\n      jumpi\n      0x00\n      dup1\n      revert\n    tag_30:\n      swap1\n      0x00\n      mstore\n      keccak256(0x00, 0x20)\n      add\n      0x00\n      swap2\n      pop\n      swap1\n      pop\n      dup1\n      0x00\n      add\n      sload\n      swap1\n      pop\n      dup2\n      jump\t// out\n        /* \"ballot/ballot-contract/contracts/Ballot.sol\":834:1158  function register(address _voter) ... */\n    tag_17:\n        /* \"ballot/ballot-contract/contracts/Ballot.sol\":638:648  msg.sender */\n      caller\n        /* \"ballot/ballot-contract/contracts/Ballot.sol\":623:648  chairperson == msg.sender */\n      0xffffffffffffffffffffffffffffffffffffffff\n      and\n        /* \"ballot/ballot-contract/contracts/Ballot.sol\":623:634  chairperson */\n      0x00\n      dup1\n      sload\n      swap1\n      0x0100\n      exp\n      swap1\n      div\n      0xffffffffffffffffffffffffffffffffffffffff\n      and\n        /* \"ballot/ballot-contract/contracts/Ballot.sol\":623:648  chairperson == msg.sender */\n      0xffffffffffffffffffffffffffffffffffffffff\n      and\n      eq\n        /* \"ballot/ballot-contract/contracts/Ballot.sol\":615:690  require(chairperson == msg.sender, \"Error : Only chairman can call a vote\") */\n      tag_33\n      jumpi\n      mload(0x40)\n      0x08c379a000000000000000000000000000000000000000000000000000000000\n      dup2\n      mstore\n      0x04\n      add\n      tag_34\n      swap1\n      tag_35\n      jump\t// in\n    tag_34:\n      mload(0x40)\n      dup1\n      swap2\n      sub\n      swap1\n      revert\n    tag_33:\n        /* \"ballot/ballot-contract/contracts/Ballot.sol\":934:945  chairperson */\n      0x00\n      dup1\n      sload\n      swap1\n      0x0100\n      exp\n      swap1\n      div\n      0xffffffffffffffffffffffffffffffffffffffff\n      and\n        /* \"ballot/ballot-contract/contracts/Ballot.sol\":924:945  _voter == chairperson */\n      0xffffffffffffffffffffffffffffffffffffffff\n      and\n        /* \"ballot/ballot-contract/contracts/Ballot.sol\":924:930  _voter */\n      dup2\n        /* \"ballot/ballot-contract/contracts/Ballot.sol\":924:945  _voter == chairperson */\n      0xffffffffffffffffffffffffffffffffffffffff\n      and\n      sub\n        /* \"ballot/ballot-contract/contracts/Ballot.sol\":920:1069  if (_voter == chairperson) {... */\n      tag_37\n      jumpi\n        /* \"ballot/ballot-contract/contracts/Ballot.sol\":989:990  2 */\n      0x02\n        /* \"ballot/ballot-contract/contracts/Ballot.sol\":965:971  voters */\n      0x01\n        /* \"ballot/ballot-contract/contracts/Ballot.sol\":965:979  voters[_voter] */\n      0x00\n        /* \"ballot/ballot-contract/contracts/Ballot.sol\":972:978  _voter */\n      dup4\n        /* \"ballot/ballot-contract/contracts/Ballot.sol\":965:979  voters[_voter] */\n      0xffffffffffffffffffffffffffffffffffffffff\n      and\n      0xffffffffffffffffffffffffffffffffffffffff\n      and\n      dup2\n      mstore\n      0x20\n      add\n      swap1\n      dup2\n      mstore\n      0x20\n      add\n      0x00\n      keccak256\n        /* \"ballot/ballot-contract/contracts/Ballot.sol\":965:986  voters[_voter].weight */\n      0x00\n      add\n        /* \"ballot/ballot-contract/contracts/Ballot.sol\":965:990  voters[_voter].weight = 2 */\n      dup2\n      swap1\n      sstore\n      pop\n        /* \"ballot/ballot-contract/contracts/Ballot.sol\":920:1069  if (_voter == chairperson) {... */\n      jump(tag_38)\n    tag_37:\n        /* \"ballot/ballot-contract/contracts/Ballot.sol\":1053:1054  1 */\n      0x01\n        /* \"ballot/ballot-contract/contracts/Ballot.sol\":1029:1035  voters */\n      dup1\n        /* \"ballot/ballot-contract/contracts/Ballot.sol\":1029:1043  voters[_voter] */\n      0x00\n        /* \"ballot/ballot-contract/contracts/Ballot.sol\":1036:1042  _voter */\n      dup4\n        /* \"ballot/ballot-contract/contracts/Ballot.sol\":1029:1043  voters[_voter] */\n      0xffffffffffffffffffffffffffffffffffffffff\n      and\n      0xffffffffffffffffffffffffffffffffffffffff\n      and\n      dup2\n      mstore\n      0x20\n      add\n      swap1\n      dup2\n      mstore\n      0x20\n      add\n      0x00\n      keccak256\n        /* \"ballot/ballot-contract/contracts/Ballot.sol\":1029:1050  voters[_voter].weight */\n      0x00\n      add\n        /* \"ballot/ballot-contract/contracts/Ballot.sol\":1029:1054  voters[_voter].weight = 1 */\n      dup2\n      swap1\n      sstore\n      pop\n        /* \"ballot/ballot-contract/contracts/Ballot.sol\":920:1069  if (_voter == chairperson) {... */\n    tag_38:\n        /* \"ballot/ballot-contract/contracts/Ballot.sol\":1105:1110  false */\n      0x00\n        /* \"ballot/ballot-contract/contracts/Ballot.sol\":1082:1088  voters */\n      0x01\n        /* \"ballot/ballot-contract/contracts/Ballot.sol\":1082:1096  voters[_voter] */\n      0x00\n        /* \"ballot/ballot-contract/contracts/Ballot.sol\":1089:1095  _voter */\n      dup4\n        /* \"ballot/ballot-contract/contracts/Ballot.sol\":1082:1096  voters[_voter] */\n      0xffffffffffffffffffffffffffffffffffffffff\n      and\n      0xffffffffffffffffffffffffffffffffffffffff\n      and\n      dup2\n      mstore\n      0x20\n      add\n      swap1\n      dup2\n      mstore\n      0x20\n      add\n      0x00\n      keccak256\n        /* \"ballot/ballot-contract/contracts/Ballot.sol\":1082:1102  voters[_voter].voted */\n      0x01\n      add\n      0x00\n        /* \"ballot/ballot-contract/contracts/Ballot.sol\":1082:1110  voters[_voter].voted = false */\n      0x0100\n      exp\n      dup2\n      sload\n      dup2\n      0xff\n      mul\n      not\n      and\n      swap1\n      dup4\n      iszero\n      iszero\n      mul\n      or\n      swap1\n      sstore\n      pop\n        /* \"ballot/ballot-contract/contracts/Ballot.sol\":1146:1147  0 */\n      0x00\n        /* \"ballot/ballot-contract/contracts/Ballot.sol\":1124:1130  voters */\n      0x01\n        /* \"ballot/ballot-contract/contracts/Ballot.sol\":1124:1138  voters[_voter] */\n      0x00\n        /* \"ballot/ballot-contract/contracts/Ballot.sol\":1131:1137  _voter */\n      dup4\n        /* \"ballot/ballot-contract/contracts/Ballot.sol\":1124:1138  voters[_voter] */\n      0xffffffffffffffffffffffffffffffffffffffff\n      and\n      0xffffffffffffffffffffffffffffffffffffffff\n      and\n      dup2\n      mstore\n      0x20\n      add\n      swap1\n      dup2\n      mstore\n      0x20\n      add\n      0x00\n      keccak256\n        /* \"ballot/ballot-contract/contracts/Ballot.sol\":1124:1143  voters[_voter].vote */\n      0x02\n      add\n        /* \"ballot/ballot-contract/contracts/Ballot.sol\":1124:1147  voters[_voter].vote = 0 */\n      dup2\n      swap1\n      sstore\n      pop\n        /* \"ballot/ballot-contract/contracts/Ballot.sol\":834:1158  function register(address _voter) ... */\n      pop\n      jump\t// out\n        /* \"ballot/ballot-contract/contracts/Ballot.sol\":1586:2026  function reqWinner() ... */\n    tag_19:\n        /* \"ballot/ballot-contract/contracts/Ballot.sol\":1654:1658  uint */\n      0x00\n        /* \"ballot/ballot-contract/contracts/Ballot.sol\":1674:1685  uint maxIdx */\n      dup1\n        /* \"ballot/ballot-contract/contracts/Ballot.sol\":1688:1689  0 */\n      0x00\n        /* \"ballot/ballot-contract/contracts/Ballot.sol\":1674:1689  uint maxIdx = 0 */\n      swap1\n      pop\n        /* \"ballot/ballot-contract/contracts/Ballot.sol\":1703:1716  uint maxValue */\n      0x00\n        /* \"ballot/ballot-contract/contracts/Ballot.sol\":1719:1728  proposals */\n      0x02\n        /* \"ballot/ballot-contract/contracts/Ballot.sol\":1729:1730  0 */\n      0x00\n        /* \"ballot/ballot-contract/contracts/Ballot.sol\":1719:1731  proposals[0] */\n      dup2\n      sload\n      dup2\n      lt\n      tag_40\n      jumpi\n      tag_41\n      tag_42\n      jump\t// in\n    tag_41:\n    tag_40:\n      swap1\n      0x00\n      mstore\n      keccak256(0x00, 0x20)\n      add\n        /* \"ballot/ballot-contract/contracts/Ballot.sol\":1719:1741  proposals[0].voteCount */\n      0x00\n      add\n      sload\n        /* \"ballot/ballot-contract/contracts/Ballot.sol\":1703:1741  uint maxValue = proposals[0].voteCount */\n      swap1\n      pop\n        /* \"ballot/ballot-contract/contracts/Ballot.sol\":1760:1768  uint idx */\n      0x00\n        /* \"ballot/ballot-contract/contracts/Ballot.sol\":1771:1772  1 */\n      0x01\n        /* \"ballot/ballot-contract/contracts/Ballot.sol\":1760:1772  uint idx = 1 */\n      swap1\n      pop\n        /* \"ballot/ballot-contract/contracts/Ballot.sol\":1756:1987  for(uint idx = 1; idx < proposals.length; idx++) {... */\n    tag_44:\n        /* \"ballot/ballot-contract/contracts/Ballot.sol\":1780:1789  proposals */\n      0x02\n        /* \"ballot/ballot-contract/contracts/Ballot.sol\":1780:1796  proposals.length */\n      dup1\n      sload\n      swap1\n      pop\n        /* \"ballot/ballot-contract/contracts/Ballot.sol\":1774:1777  idx */\n      dup2\n        /* \"ballot/ballot-contract/contracts/Ballot.sol\":1774:1796  idx < proposals.length */\n      lt\n        /* \"ballot/ballot-contract/contracts/Ballot.sol\":1756:1987  for(uint idx = 1; idx < proposals.length; idx++) {... */\n      iszero\n      tag_45\n      jumpi\n        /* \"ballot/ballot-contract/contracts/Ballot.sol\":1853:1861  maxValue */\n      dup2\n        /* \"ballot/ballot-contract/contracts/Ballot.sol\":1826:1835  proposals */\n      0x02\n        /* \"ballot/ballot-contract/contracts/Ballot.sol\":1836:1839  idx */\n      dup3\n        /* \"ballot/ballot-contract/contracts/Ballot.sol\":1826:1840  proposals[idx] */\n      dup2\n      sload\n      dup2\n      lt\n      tag_47\n      jumpi\n      tag_48\n      tag_42\n      jump\t// in\n    tag_48:\n    tag_47:\n      swap1\n      0x00\n      mstore\n      keccak256(0x00, 0x20)\n      add\n        /* \"ballot/ballot-contract/contracts/Ballot.sol\":1826:1850  proposals[idx].voteCount */\n      0x00\n      add\n      sload\n        /* \"ballot/ballot-contract/contracts/Ballot.sol\":1826:1861  proposals[idx].voteCount > maxValue */\n      gt\n        /* \"ballot/ballot-contract/contracts/Ballot.sol\":1823:1973  if(proposals[idx].voteCount > maxValue) {... */\n      iszero\n      tag_50\n      jumpi\n        /* \"ballot/ballot-contract/contracts/Ballot.sol\":1896:1905  proposals */\n      0x02\n        /* \"ballot/ballot-contract/contracts/Ballot.sol\":1906:1909  idx */\n      dup2\n        /* \"ballot/ballot-contract/contracts/Ballot.sol\":1896:1910  proposals[idx] */\n      dup2\n      sload\n      dup2\n      lt\n      tag_51\n      jumpi\n      tag_52\n      tag_42\n      jump\t// in\n    tag_52:\n    tag_51:\n      swap1\n      0x00\n      mstore\n      keccak256(0x00, 0x20)\n      add\n        /* \"ballot/ballot-contract/contracts/Ballot.sol\":1896:1920  proposals[idx].voteCount */\n      0x00\n      add\n      sload\n        /* \"ballot/ballot-contract/contracts/Ballot.sol\":1885:1920  maxValue = proposals[idx].voteCount */\n      swap2\n      pop\n        /* \"ballot/ballot-contract/contracts/Ballot.sol\":1951:1954  idx */\n      dup1\n        /* \"ballot/ballot-contract/contracts/Ballot.sol\":1942:1954  maxIdx = idx */\n      swap3\n      pop\n        /* \"ballot/ballot-contract/contracts/Ballot.sol\":1823:1973  if(proposals[idx].voteCount > maxValue) {... */\n    tag_50:\n        /* \"ballot/ballot-contract/contracts/Ballot.sol\":1798:1803  idx++ */\n      dup1\n      dup1\n      tag_54\n      swap1\n      tag_55\n      jump\t// in\n    tag_54:\n      swap2\n      pop\n      pop\n        /* \"ballot/ballot-contract/contracts/Ballot.sol\":1756:1987  for(uint idx = 1; idx < proposals.length; idx++) {... */\n      jump(tag_44)\n    tag_45:\n      pop\n        /* \"ballot/ballot-contract/contracts/Ballot.sol\":2008:2014  maxIdx */\n      dup2\n        /* \"ballot/ballot-contract/contracts/Ballot.sol\":2000:2015  return (maxIdx) */\n      swap3\n      pop\n      pop\n      pop\n        /* \"ballot/ballot-contract/contracts/Ballot.sol\":1586:2026  function reqWinner() ... */\n      swap1\n      jump\t// out\n        /* \"ballot/ballot-contract/contracts/Ballot.sol\":316:355  mapping(address => Voter) public voters */\n    tag_23:\n      mstore(0x20, 0x01)\n      dup1\n      0x00\n      mstore\n      keccak256(0x00, 0x40)\n      0x00\n      swap2\n      pop\n      swap1\n      pop\n      dup1\n      0x00\n      add\n      sload\n      swap1\n      dup1\n      0x01\n      add\n      0x00\n      swap1\n      sload\n      swap1\n      0x0100\n      exp\n      swap1\n      div\n      0xff\n      and\n      swap1\n      dup1\n      0x02\n      add\n      sload\n      swap1\n      pop\n      dup4\n      jump\t// out\n        /* \"ballot/ballot-contract/contracts/Ballot.sol\":1168:1580  function vote(uint8 _number)... */\n    tag_29:\n        /* \"ballot/ballot-contract/contracts/Ballot.sol\":782:783  0 */\n      0x00\n        /* \"ballot/ballot-contract/contracts/Ballot.sol\":754:760  voters */\n      0x01\n        /* \"ballot/ballot-contract/contracts/Ballot.sol\":754:772  voters[msg.sender] */\n      0x00\n        /* \"ballot/ballot-contract/contracts/Ballot.sol\":761:771  msg.sender */\n      caller\n        /* \"ballot/ballot-contract/contracts/Ballot.sol\":754:772  voters[msg.sender] */\n      0xffffffffffffffffffffffffffffffffffffffff\n      and\n      0xffffffffffffffffffffffffffffffffffffffff\n      and\n      dup2\n      mstore\n      0x20\n      add\n      swap1\n      dup2\n      mstore\n      0x20\n      add\n      0x00\n      keccak256\n        /* \"ballot/ballot-contract/contracts/Ballot.sol\":754:779  voters[msg.sender].weight */\n      0x00\n      add\n      sload\n        /* \"ballot/ballot-contract/contracts/Ballot.sol\":754:783  voters[msg.sender].weight > 0 */\n      gt\n        /* \"ballot/ballot-contract/contracts/Ballot.sol\":746:810  require(voters[msg.sender].weight > 0, \"Not a registered voter\") */\n      tag_57\n      jumpi\n      mload(0x40)\n      0x08c379a000000000000000000000000000000000000000000000000000000000\n      dup2\n      mstore\n      0x04\n      add\n      tag_58\n      swap1\n      tag_59\n      jump\t// in\n    tag_58:\n      mload(0x40)\n      dup1\n      swap2\n      sub\n      swap1\n      revert\n    tag_57:\n        /* \"ballot/ballot-contract/contracts/Ballot.sol\":1284:1289  false */\n      0x00\n        /* \"ballot/ballot-contract/contracts/Ballot.sol\":1256:1289  voters[msg.sender].voted == false */\n      iszero\n      iszero\n        /* \"ballot/ballot-contract/contracts/Ballot.sol\":1256:1262  voters */\n      0x01\n        /* \"ballot/ballot-contract/contracts/Ballot.sol\":1256:1274  voters[msg.sender] */\n      0x00\n        /* \"ballot/ballot-contract/contracts/Ballot.sol\":1263:1273  msg.sender */\n      caller\n        /* \"ballot/ballot-contract/contracts/Ballot.sol\":1256:1274  voters[msg.sender] */\n      0xffffffffffffffffffffffffffffffffffffffff\n      and\n      0xffffffffffffffffffffffffffffffffffffffff\n      and\n      dup2\n      mstore\n      0x20\n      add\n      swap1\n      dup2\n      mstore\n      0x20\n      add\n      0x00\n      keccak256\n        /* \"ballot/ballot-contract/contracts/Ballot.sol\":1256:1280  voters[msg.sender].voted */\n      0x01\n      add\n      0x00\n      swap1\n      sload\n      swap1\n      0x0100\n      exp\n      swap1\n      div\n      0xff\n      and\n        /* \"ballot/ballot-contract/contracts/Ballot.sol\":1256:1289  voters[msg.sender].voted == false */\n      iszero\n      iszero\n      eq\n        /* \"ballot/ballot-contract/contracts/Ballot.sol\":1248:1329  require(voters[msg.sender].voted == false, \"Error : You already have been voted\") */\n      tag_61\n      jumpi\n      mload(0x40)\n      0x08c379a000000000000000000000000000000000000000000000000000000000\n      dup2\n      mstore\n      0x04\n      add\n      tag_62\n      swap1\n      tag_63\n      jump\t// in\n    tag_62:\n      mload(0x40)\n      dup1\n      swap2\n      sub\n      swap1\n      revert\n    tag_61:\n        /* \"ballot/ballot-contract/contracts/Ballot.sol\":1361:1370  proposals */\n      0x02\n        /* \"ballot/ballot-contract/contracts/Ballot.sol\":1361:1377  proposals.length */\n      dup1\n      sload\n      swap1\n      pop\n        /* \"ballot/ballot-contract/contracts/Ballot.sol\":1351:1358  _number */\n      dup2\n        /* \"ballot/ballot-contract/contracts/Ballot.sol\":1351:1377  _number < proposals.length */\n      0xff\n      and\n      lt\n        /* \"ballot/ballot-contract/contracts/Ballot.sol\":1343:1404  require(_number < proposals.length, \"Error : invalid number\") */\n      tag_64\n      jumpi\n      mload(0x40)\n      0x08c379a000000000000000000000000000000000000000000000000000000000\n      dup2\n      mstore\n      0x04\n      add\n      tag_65\n      swap1\n      tag_66\n      jump\t// in\n    tag_65:\n      mload(0x40)\n      dup1\n      swap2\n      sub\n      swap1\n      revert\n    tag_64:\n        /* \"ballot/ballot-contract/contracts/Ballot.sol\":1446:1450  true */\n      0x01\n        /* \"ballot/ballot-contract/contracts/Ballot.sol\":1419:1425  voters */\n      dup1\n        /* \"ballot/ballot-contract/contracts/Ballot.sol\":1419:1437  voters[msg.sender] */\n      0x00\n        /* \"ballot/ballot-contract/contracts/Ballot.sol\":1426:1436  msg.sender */\n      caller\n        /* \"ballot/ballot-contract/contracts/Ballot.sol\":1419:1437  voters[msg.sender] */\n      0xffffffffffffffffffffffffffffffffffffffff\n      and\n      0xffffffffffffffffffffffffffffffffffffffff\n      and\n      dup2\n      mstore\n      0x20\n      add\n      swap1\n      dup2\n      mstore\n      0x20\n      add\n      0x00\n      keccak256\n        /* \"ballot/ballot-contract/contracts/Ballot.sol\":1419:1443  voters[msg.sender].voted */\n      0x01\n      add\n      0x00\n        /* \"ballot/ballot-contract/contracts/Ballot.sol\":1419:1450  voters[msg.sender].voted = true */\n      0x0100\n      exp\n      dup2\n      sload\n      dup2\n      0xff\n      mul\n      not\n      and\n      swap1\n      dup4\n      iszero\n      iszero\n      mul\n      or\n      swap1\n      sstore\n      pop\n        /* \"ballot/ballot-contract/contracts/Ballot.sol\":1490:1497  _number */\n      dup1\n        /* \"ballot/ballot-contract/contracts/Ballot.sol\":1464:1497  voters[msg.sender].vote = _number */\n      0xff\n      and\n        /* \"ballot/ballot-contract/contracts/Ballot.sol\":1464:1470  voters */\n      0x01\n        /* \"ballot/ballot-contract/contracts/Ballot.sol\":1464:1482  voters[msg.sender] */\n      0x00\n        /* \"ballot/ballot-contract/contracts/Ballot.sol\":1471:1481  msg.sender */\n      caller\n        /* \"ballot/ballot-contract/contracts/Ballot.sol\":1464:1482  voters[msg.sender] */\n      0xffffffffffffffffffffffffffffffffffffffff\n      and\n      0xffffffffffffffffffffffffffffffffffffffff\n      and\n      dup2\n      mstore\n      0x20\n      add\n      swap1\n      dup2\n      mstore\n      0x20\n      add\n      0x00\n      keccak256\n        /* \"ballot/ballot-contract/contracts/Ballot.sol\":1464:1487  voters[msg.sender].vote */\n      0x02\n      add\n        /* \"ballot/ballot-contract/contracts/Ballot.sol\":1464:1497  voters[msg.sender].vote = _number */\n      dup2\n      swap1\n      sstore\n      pop\n        /* \"ballot/ballot-contract/contracts/Ballot.sol\":1544:1550  voters */\n      0x01\n        /* \"ballot/ballot-contract/contracts/Ballot.sol\":1544:1562  voters[msg.sender] */\n      0x00\n        /* \"ballot/ballot-contract/contracts/Ballot.sol\":1551:1561  msg.sender */\n      caller\n        /* \"ballot/ballot-contract/contracts/Ballot.sol\":1544:1562  voters[msg.sender] */\n      0xffffffffffffffffffffffffffffffffffffffff\n      and\n      0xffffffffffffffffffffffffffffffffffffffff\n      and\n      dup2\n      mstore\n      0x20\n      add\n      swap1\n      dup2\n      mstore\n      0x20\n      add\n      0x00\n      keccak256\n        /* \"ballot/ballot-contract/contracts/Ballot.sol\":1544:1569  voters[msg.sender].weight */\n      0x00\n      add\n      sload\n        /* \"ballot/ballot-contract/contracts/Ballot.sol\":1512:1521  proposals */\n      0x02\n        /* \"ballot/ballot-contract/contracts/Ballot.sol\":1522:1529  _number */\n      dup3\n        /* \"ballot/ballot-contract/contracts/Ballot.sol\":1512:1530  proposals[_number] */\n      0xff\n      and\n      dup2\n      sload\n      dup2\n      lt\n      tag_67\n      jumpi\n      tag_68\n      tag_42\n      jump\t// in\n    tag_68:\n    tag_67:\n      swap1\n      0x00\n      mstore\n      keccak256(0x00, 0x20)\n      add\n        /* \"ballot/ballot-contract/contracts/Ballot.sol\":1512:1540  proposals[_number].voteCount */\n      0x00\n      add\n      0x00\n        /* \"ballot/ballot-contract/contracts/Ballot.sol\":1512:1569  proposals[_number].voteCount += voters[msg.sender].weight */\n      dup3\n      dup3\n      sload\n      tag_70\n      swap2\n      swap1\n      tag_71\n      jump\t// in\n    tag_70:\n      swap3\n      pop\n      pop\n      dup2\n      swap1\n      sstore\n      pop\n        /* \"ballot/ballot-contract/contracts/Ballot.sol\":1168:1580  function vote(uint8 _number)... */\n      pop\n      jump\t// out\n        /* \"#utility.yul\":88:205   */\n    tag_73:\n        /* \"#utility.yul\":197:198   */\n      0x00\n        /* \"#utility.yul\":194:195   */\n      dup1\n        /* \"#utility.yul\":187:199   */\n      revert\n        /* \"#utility.yul\":334:411   */\n    tag_75:\n        /* \"#utility.yul\":371:378   */\n      0x00\n        /* \"#utility.yul\":400:405   */\n      dup2\n        /* \"#utility.yul\":389:405   */\n      swap1\n      pop\n        /* \"#utility.yul\":334:411   */\n      swap2\n      swap1\n      pop\n      jump\t// out\n        /* \"#utility.yul\":417:539   */\n    tag_76:\n        /* \"#utility.yul\":490:514   */\n      tag_104\n        /* \"#utility.yul\":508:513   */\n      dup2\n        /* \"#utility.yul\":490:514   */\n      tag_75\n      jump\t// in\n    tag_104:\n        /* \"#utility.yul\":483:488   */\n      dup2\n        /* \"#utility.yul\":480:515   */\n      eq\n        /* \"#utility.yul\":470:533   */\n      tag_105\n      jumpi\n        /* \"#utility.yul\":529:530   */\n      0x00\n        /* \"#utility.yul\":526:527   */\n      dup1\n        /* \"#utility.yul\":519:531   */\n      revert\n        /* \"#utility.yul\":470:533   */\n    tag_105:\n        /* \"#utility.yul\":417:539   */\n      pop\n      jump\t// out\n        /* \"#utility.yul\":545:684   */\n    tag_77:\n        /* \"#utility.yul\":591:596   */\n      0x00\n        /* \"#utility.yul\":629:635   */\n      dup2\n        /* \"#utility.yul\":616:636   */\n      calldataload\n        /* \"#utility.yul\":607:636   */\n      swap1\n      pop\n        /* \"#utility.yul\":645:678   */\n      tag_107\n        /* \"#utility.yul\":672:677   */\n      dup2\n        /* \"#utility.yul\":645:678   */\n      tag_76\n      jump\t// in\n    tag_107:\n        /* \"#utility.yul\":545:684   */\n      swap3\n      swap2\n      pop\n      pop\n      jump\t// out\n        /* \"#utility.yul\":690:1019   */\n    tag_10:\n        /* \"#utility.yul\":749:755   */\n      0x00\n        /* \"#utility.yul\":798:800   */\n      0x20\n        /* \"#utility.yul\":786:795   */\n      dup3\n        /* \"#utility.yul\":777:784   */\n      dup5\n        /* \"#utility.yul\":773:796   */\n      sub\n        /* \"#utility.yul\":769:801   */\n      slt\n        /* \"#utility.yul\":766:885   */\n      iszero\n      tag_109\n      jumpi\n        /* \"#utility.yul\":804:883   */\n      tag_110\n      tag_73\n      jump\t// in\n    tag_110:\n        /* \"#utility.yul\":766:885   */\n    tag_109:\n        /* \"#utility.yul\":924:925   */\n      0x00\n        /* \"#utility.yul\":949:1002   */\n      tag_111\n        /* \"#utility.yul\":994:1001   */\n      dup5\n        /* \"#utility.yul\":985:991   */\n      dup3\n        /* \"#utility.yul\":974:983   */\n      dup6\n        /* \"#utility.yul\":970:992   */\n      add\n        /* \"#utility.yul\":949:1002   */\n      tag_77\n      jump\t// in\n    tag_111:\n        /* \"#utility.yul\":939:1002   */\n      swap2\n      pop\n        /* \"#utility.yul\":895:1012   */\n      pop\n        /* \"#utility.yul\":690:1019   */\n      swap3\n      swap2\n      pop\n      pop\n      jump\t// out\n        /* \"#utility.yul\":1025:1143   */\n    tag_78:\n        /* \"#utility.yul\":1112:1136   */\n      tag_113\n        /* \"#utility.yul\":1130:1135   */\n      dup2\n        /* \"#utility.yul\":1112:1136   */\n      tag_75\n      jump\t// in\n    tag_113:\n        /* \"#utility.yul\":1107:1110   */\n      dup3\n        /* \"#utility.yul\":1100:1137   */\n      mstore\n        /* \"#utility.yul\":1025:1143   */\n      pop\n      pop\n      jump\t// out\n        /* \"#utility.yul\":1149:1371   */\n    tag_13:\n        /* \"#utility.yul\":1242:1246   */\n      0x00\n        /* \"#utility.yul\":1280:1282   */\n      0x20\n        /* \"#utility.yul\":1269:1278   */\n      dup3\n        /* \"#utility.yul\":1265:1283   */\n      add\n        /* \"#utility.yul\":1257:1283   */\n      swap1\n      pop\n        /* \"#utility.yul\":1293:1364   */\n      tag_115\n        /* \"#utility.yul\":1361:1362   */\n      0x00\n        /* \"#utility.yul\":1350:1359   */\n      dup4\n        /* \"#utility.yul\":1346:1363   */\n      add\n        /* \"#utility.yul\":1337:1343   */\n      dup5\n        /* \"#utility.yul\":1293:1364   */\n      tag_78\n      jump\t// in\n    tag_115:\n        /* \"#utility.yul\":1149:1371   */\n      swap3\n      swap2\n      pop\n      pop\n      jump\t// out\n        /* \"#utility.yul\":1377:1503   */\n    tag_79:\n        /* \"#utility.yul\":1414:1421   */\n      0x00\n        /* \"#utility.yul\":1454:1496   */\n      0xffffffffffffffffffffffffffffffffffffffff\n        /* \"#utility.yul\":1447:1452   */\n      dup3\n        /* \"#utility.yul\":1443:1497   */\n      and\n        /* \"#utility.yul\":1432:1497   */\n      swap1\n      pop\n        /* \"#utility.yul\":1377:1503   */\n      swap2\n      swap1\n      pop\n      jump\t// out\n        /* \"#utility.yul\":1509:1605   */\n    tag_80:\n        /* \"#utility.yul\":1546:1553   */\n      0x00\n        /* \"#utility.yul\":1575:1599   */\n      tag_118\n        /* \"#utility.yul\":1593:1598   */\n      dup3\n        /* \"#utility.yul\":1575:1599   */\n      tag_79\n      jump\t// in\n    tag_118:\n        /* \"#utility.yul\":1564:1599   */\n      swap1\n      pop\n        /* \"#utility.yul\":1509:1605   */\n      swap2\n      swap1\n      pop\n      jump\t// out\n        /* \"#utility.yul\":1611:1733   */\n    tag_81:\n        /* \"#utility.yul\":1684:1708   */\n      tag_120\n        /* \"#utility.yul\":1702:1707   */\n      dup2\n        /* \"#utility.yul\":1684:1708   */\n      tag_80\n      jump\t// in\n    tag_120:\n        /* \"#utility.yul\":1677:1682   */\n      dup2\n        /* \"#utility.yul\":1674:1709   */\n      eq\n        /* \"#utility.yul\":1664:1727   */\n      tag_121\n      jumpi\n        /* \"#utility.yul\":1723:1724   */\n      0x00\n        /* \"#utility.yul\":1720:1721   */\n      dup1\n        /* \"#utility.yul\":1713:1725   */\n      revert\n        /* \"#utility.yul\":1664:1727   */\n    tag_121:\n        /* \"#utility.yul\":1611:1733   */\n      pop\n      jump\t// out\n        /* \"#utility.yul\":1739:1878   */\n    tag_82:\n        /* \"#utility.yul\":1785:1790   */\n      0x00\n        /* \"#utility.yul\":1823:1829   */\n      dup2\n        /* \"#utility.yul\":1810:1830   */\n      calldataload\n        /* \"#utility.yul\":1801:1830   */\n      swap1\n      pop\n        /* \"#utility.yul\":1839:1872   */\n      tag_123\n        /* \"#utility.yul\":1866:1871   */\n      dup2\n        /* \"#utility.yul\":1839:1872   */\n      tag_81\n      jump\t// in\n    tag_123:\n        /* \"#utility.yul\":1739:1878   */\n      swap3\n      swap2\n      pop\n      pop\n      jump\t// out\n        /* \"#utility.yul\":1884:2213   */\n    tag_16:\n        /* \"#utility.yul\":1943:1949   */\n      0x00\n        /* \"#utility.yul\":1992:1994   */\n      0x20\n        /* \"#utility.yul\":1980:1989   */\n      dup3\n        /* \"#utility.yul\":1971:1978   */\n      dup5\n        /* \"#utility.yul\":1967:1990   */\n      sub\n        /* \"#utility.yul\":1963:1995   */\n      slt\n        /* \"#utility.yul\":1960:2079   */\n      iszero\n      tag_125\n      jumpi\n        /* \"#utility.yul\":1998:2077   */\n      tag_126\n      tag_73\n      jump\t// in\n    tag_126:\n        /* \"#utility.yul\":1960:2079   */\n    tag_125:\n        /* \"#utility.yul\":2118:2119   */\n      0x00\n        /* \"#utility.yul\":2143:2196   */\n      tag_127\n        /* \"#utility.yul\":2188:2195   */\n      dup5\n        /* \"#utility.yul\":2179:2185   */\n      dup3\n        /* \"#utility.yul\":2168:2177   */\n      dup6\n        /* \"#utility.yul\":2164:2186   */\n      add\n        /* \"#utility.yul\":2143:2196   */\n      tag_82\n      jump\t// in\n    tag_127:\n        /* \"#utility.yul\":2133:2196   */\n      swap2\n      pop\n        /* \"#utility.yul\":2089:2206   */\n      pop\n        /* \"#utility.yul\":1884:2213   */\n      swap3\n      swap2\n      pop\n      pop\n      jump\t// out\n        /* \"#utility.yul\":2219:2309   */\n    tag_83:\n        /* \"#utility.yul\":2253:2260   */\n      0x00\n        /* \"#utility.yul\":2296:2301   */\n      dup2\n        /* \"#utility.yul\":2289:2302   */\n      iszero\n        /* \"#utility.yul\":2282:2303   */\n      iszero\n        /* \"#utility.yul\":2271:2303   */\n      swap1\n      pop\n        /* \"#utility.yul\":2219:2309   */\n      swap2\n      swap1\n      pop\n      jump\t// out\n        /* \"#utility.yul\":2315:2424   */\n    tag_84:\n        /* \"#utility.yul\":2396:2417   */\n      tag_130\n        /* \"#utility.yul\":2411:2416   */\n      dup2\n        /* \"#utility.yul\":2396:2417   */\n      tag_83\n      jump\t// in\n    tag_130:\n        /* \"#utility.yul\":2391:2394   */\n      dup3\n        /* \"#utility.yul\":2384:2418   */\n      mstore\n        /* \"#utility.yul\":2315:2424   */\n      pop\n      pop\n      jump\t// out\n        /* \"#utility.yul\":2430:2860   */\n    tag_25:\n        /* \"#utility.yul\":2573:2577   */\n      0x00\n        /* \"#utility.yul\":2611:2613   */\n      0x60\n        /* \"#utility.yul\":2600:2609   */\n      dup3\n        /* \"#utility.yul\":2596:2614   */\n      add\n        /* \"#utility.yul\":2588:2614   */\n      swap1\n      pop\n        /* \"#utility.yul\":2624:2695   */\n      tag_132\n        /* \"#utility.yul\":2692:2693   */\n      0x00\n        /* \"#utility.yul\":2681:2690   */\n      dup4\n        /* \"#utility.yul\":2677:2694   */\n      add\n        /* \"#utility.yul\":2668:2674   */\n      dup7\n        /* \"#utility.yul\":2624:2695   */\n      tag_78\n      jump\t// in\n    tag_132:\n        /* \"#utility.yul\":2705:2771   */\n      tag_133\n        /* \"#utility.yul\":2767:2769   */\n      0x20\n        /* \"#utility.yul\":2756:2765   */\n      dup4\n        /* \"#utility.yul\":2752:2770   */\n      add\n        /* \"#utility.yul\":2743:2749   */\n      dup6\n        /* \"#utility.yul\":2705:2771   */\n      tag_84\n      jump\t// in\n    tag_133:\n        /* \"#utility.yul\":2781:2853   */\n      tag_134\n        /* \"#utility.yul\":2849:2851   */\n      0x40\n        /* \"#utility.yul\":2838:2847   */\n      dup4\n        /* \"#utility.yul\":2834:2852   */\n      add\n        /* \"#utility.yul\":2825:2831   */\n      dup5\n        /* \"#utility.yul\":2781:2853   */\n      tag_78\n      jump\t// in\n    tag_134:\n        /* \"#utility.yul\":2430:2860   */\n      swap5\n      swap4\n      pop\n      pop\n      pop\n      pop\n      jump\t// out\n        /* \"#utility.yul\":2866:2952   */\n    tag_85:\n        /* \"#utility.yul\":2901:2908   */\n      0x00\n        /* \"#utility.yul\":2941:2945   */\n      0xff\n        /* \"#utility.yul\":2934:2939   */\n      dup3\n        /* \"#utility.yul\":2930:2946   */\n      and\n        /* \"#utility.yul\":2919:2946   */\n      swap1\n      pop\n        /* \"#utility.yul\":2866:2952   */\n      swap2\n      swap1\n      pop\n      jump\t// out\n        /* \"#utility.yul\":2958:3076   */\n    tag_86:\n        /* \"#utility.yul\":3029:3051   */\n      tag_137\n        /* \"#utility.yul\":3045:3050   */\n      dup2\n        /* \"#utility.yul\":3029:3051   */\n      tag_85\n      jump\t// in\n    tag_137:\n        /* \"#utility.yul\":3022:3027   */\n      dup2\n        /* \"#utility.yul\":3019:3052   */\n      eq\n        /* \"#utility.yul\":3009:3070   */\n      tag_138\n      jumpi\n        /* \"#utility.yul\":3066:3067   */\n      0x00\n        /* \"#utility.yul\":3063:3064   */\n      dup1\n        /* \"#utility.yul\":3056:3068   */\n      revert\n        /* \"#utility.yul\":3009:3070   */\n    tag_138:\n        /* \"#utility.yul\":2958:3076   */\n      pop\n      jump\t// out\n        /* \"#utility.yul\":3082:3217   */\n    tag_87:\n        /* \"#utility.yul\":3126:3131   */\n      0x00\n        /* \"#utility.yul\":3164:3170   */\n      dup2\n        /* \"#utility.yul\":3151:3171   */\n      calldataload\n        /* \"#utility.yul\":3142:3171   */\n      swap1\n      pop\n        /* \"#utility.yul\":3180:3211   */\n      tag_140\n        /* \"#utility.yul\":3205:3210   */\n      dup2\n        /* \"#utility.yul\":3180:3211   */\n      tag_86\n      jump\t// in\n    tag_140:\n        /* \"#utility.yul\":3082:3217   */\n      swap3\n      swap2\n      pop\n      pop\n      jump\t// out\n        /* \"#utility.yul\":3223:3548   */\n    tag_28:\n        /* \"#utility.yul\":3280:3286   */\n      0x00\n        /* \"#utility.yul\":3329:3331   */\n      0x20\n        /* \"#utility.yul\":3317:3326   */\n      dup3\n        /* \"#utility.yul\":3308:3315   */\n      dup5\n        /* \"#utility.yul\":3304:3327   */\n      sub\n        /* \"#utility.yul\":3300:3332   */\n      slt\n        /* \"#utility.yul\":3297:3416   */\n      iszero\n      tag_142\n      jumpi\n        /* \"#utility.yul\":3335:3414   */\n      tag_143\n      tag_73\n      jump\t// in\n    tag_143:\n        /* \"#utility.yul\":3297:3416   */\n    tag_142:\n        /* \"#utility.yul\":3455:3456   */\n      0x00\n        /* \"#utility.yul\":3480:3531   */\n      tag_144\n        /* \"#utility.yul\":3523:3530   */\n      dup5\n        /* \"#utility.yul\":3514:3520   */\n      dup3\n        /* \"#utility.yul\":3503:3512   */\n      dup6\n        /* \"#utility.yul\":3499:3521   */\n      add\n        /* \"#utility.yul\":3480:3531   */\n      tag_87\n      jump\t// in\n    tag_144:\n        /* \"#utility.yul\":3470:3531   */\n      swap2\n      pop\n        /* \"#utility.yul\":3426:3541   */\n      pop\n        /* \"#utility.yul\":3223:3548   */\n      swap3\n      swap2\n      pop\n      pop\n      jump\t// out\n        /* \"#utility.yul\":3554:3723   */\n    tag_88:\n        /* \"#utility.yul\":3638:3649   */\n      0x00\n        /* \"#utility.yul\":3672:3678   */\n      dup3\n        /* \"#utility.yul\":3667:3670   */\n      dup3\n        /* \"#utility.yul\":3660:3679   */\n      mstore\n        /* \"#utility.yul\":3712:3716   */\n      0x20\n        /* \"#utility.yul\":3707:3710   */\n      dup3\n        /* \"#utility.yul\":3703:3717   */\n      add\n        /* \"#utility.yul\":3688:3717   */\n      swap1\n      pop\n        /* \"#utility.yul\":3554:3723   */\n      swap3\n      swap2\n      pop\n      pop\n      jump\t// out\n        /* \"#utility.yul\":3729:3953   */\n    tag_89:\n        /* \"#utility.yul\":3869:3903   */\n      0x4572726f72203a204f6e6c792063686169726d616e2063616e2063616c6c2061\n        /* \"#utility.yul\":3865:3866   */\n      0x00\n        /* \"#utility.yul\":3857:3863   */\n      dup3\n        /* \"#utility.yul\":3853:3867   */\n      add\n        /* \"#utility.yul\":3846:3904   */\n      mstore\n        /* \"#utility.yul\":3938:3945   */\n      0x20766f7465000000000000000000000000000000000000000000000000000000\n        /* \"#utility.yul\":3933:3935   */\n      0x20\n        /* \"#utility.yul\":3925:3931   */\n      dup3\n        /* \"#utility.yul\":3921:3936   */\n      add\n        /* \"#utility.yul\":3914:3946   */\n      mstore\n        /* \"#utility.yul\":3729:3953   */\n      pop\n      jump\t// out\n        /* \"#utility.yul\":3959:4325   */\n    tag_90:\n        /* \"#utility.yul\":4101:4104   */\n      0x00\n        /* \"#utility.yul\":4122:4189   */\n      tag_148\n        /* \"#utility.yul\":4186:4188   */\n      0x25\n        /* \"#utility.yul\":4181:4184   */\n      dup4\n        /* \"#utility.yul\":4122:4189   */\n      tag_88\n      jump\t// in\n    tag_148:\n        /* \"#utility.yul\":4115:4189   */\n      swap2\n      pop\n        /* \"#utility.yul\":4198:4291   */\n      tag_149\n        /* \"#utility.yul\":4287:4290   */\n      dup3\n        /* \"#utility.yul\":4198:4291   */\n      tag_89\n      jump\t// in\n    tag_149:\n        /* \"#utility.yul\":4316:4318   */\n      0x40\n        /* \"#utility.yul\":4311:4314   */\n      dup3\n        /* \"#utility.yul\":4307:4319   */\n      add\n        /* \"#utility.yul\":4300:4319   */\n      swap1\n      pop\n        /* \"#utility.yul\":3959:4325   */\n      swap2\n      swap1\n      pop\n      jump\t// out\n        /* \"#utility.yul\":4331:4750   */\n    tag_35:\n        /* \"#utility.yul\":4497:4501   */\n      0x00\n        /* \"#utility.yul\":4535:4537   */\n      0x20\n        /* \"#utility.yul\":4524:4533   */\n      dup3\n        /* \"#utility.yul\":4520:4538   */\n      add\n        /* \"#utility.yul\":4512:4538   */\n      swap1\n      pop\n        /* \"#utility.yul\":4584:4593   */\n      dup2\n        /* \"#utility.yul\":4578:4582   */\n      dup2\n        /* \"#utility.yul\":4574:4594   */\n      sub\n        /* \"#utility.yul\":4570:4571   */\n      0x00\n        /* \"#utility.yul\":4559:4568   */\n      dup4\n        /* \"#utility.yul\":4555:4572   */\n      add\n        /* \"#utility.yul\":4548:4595   */\n      mstore\n        /* \"#utility.yul\":4612:4743   */\n      tag_151\n        /* \"#utility.yul\":4738:4742   */\n      dup2\n        /* \"#utility.yul\":4612:4743   */\n      tag_90\n      jump\t// in\n    tag_151:\n        /* \"#utility.yul\":4604:4743   */\n      swap1\n      pop\n        /* \"#utility.yul\":4331:4750   */\n      swap2\n      swap1\n      pop\n      jump\t// out\n        /* \"#utility.yul\":4756:4936   */\n    tag_42:\n        /* \"#utility.yul\":4804:4881   */\n      0x4e487b7100000000000000000000000000000000000000000000000000000000\n        /* \"#utility.yul\":4801:4802   */\n      0x00\n        /* \"#utility.yul\":4794:4882   */\n      mstore\n        /* \"#utility.yul\":4901:4905   */\n      0x32\n        /* \"#utility.yul\":4898:4899   */\n      0x04\n        /* \"#utility.yul\":4891:4906   */\n      mstore\n        /* \"#utility.yul\":4925:4929   */\n      0x24\n        /* \"#utility.yul\":4922:4923   */\n      0x00\n        /* \"#utility.yul\":4915:4930   */\n      revert\n        /* \"#utility.yul\":4942:5122   */\n    tag_91:\n        /* \"#utility.yul\":4990:5067   */\n      0x4e487b7100000000000000000000000000000000000000000000000000000000\n        /* \"#utility.yul\":4987:4988   */\n      0x00\n        /* \"#utility.yul\":4980:5068   */\n      mstore\n        /* \"#utility.yul\":5087:5091   */\n      0x11\n        /* \"#utility.yul\":5084:5085   */\n      0x04\n        /* \"#utility.yul\":5077:5092   */\n      mstore\n        /* \"#utility.yul\":5111:5115   */\n      0x24\n        /* \"#utility.yul\":5108:5109   */\n      0x00\n        /* \"#utility.yul\":5101:5116   */\n      revert\n        /* \"#utility.yul\":5128:5361   */\n    tag_55:\n        /* \"#utility.yul\":5167:5170   */\n      0x00\n        /* \"#utility.yul\":5190:5214   */\n      tag_155\n        /* \"#utility.yul\":5208:5213   */\n      dup3\n        /* \"#utility.yul\":5190:5214   */\n      tag_75\n      jump\t// in\n    tag_155:\n        /* \"#utility.yul\":5181:5214   */\n      swap2\n      pop\n        /* \"#utility.yul\":5236:5302   */\n      0xffffffffffffffffffffffffffffffffffffffffffffffffffffffffffffffff\n        /* \"#utility.yul\":5229:5234   */\n      dup3\n        /* \"#utility.yul\":5226:5303   */\n      sub\n        /* \"#utility.yul\":5223:5326   */\n      tag_156\n      jumpi\n        /* \"#utility.yul\":5306:5324   */\n      tag_157\n      tag_91\n      jump\t// in\n    tag_157:\n        /* \"#utility.yul\":5223:5326   */\n    tag_156:\n        /* \"#utility.yul\":5353:5354   */\n      0x01\n        /* \"#utility.yul\":5346:5351   */\n      dup3\n        /* \"#utility.yul\":5342:5355   */\n      add\n        /* \"#utility.yul\":5335:5355   */\n      swap1\n      pop\n        /* \"#utility.yul\":5128:5361   */\n      swap2\n      swap1\n      pop\n      jump\t// out\n        /* \"#utility.yul\":5367:5539   */\n    tag_92:\n        /* \"#utility.yul\":5507:5531   */\n      0x4e6f742061207265676973746572656420766f74657200000000000000000000\n        /* \"#utility.yul\":5503:5504   */\n      0x00\n        /* \"#utility.yul\":5495:5501   */\n      dup3\n        /* \"#utility.yul\":5491:5505   */\n      add\n        /* \"#utility.yul\":5484:5532   */\n      mstore\n        /* \"#utility.yul\":5367:5539   */\n      pop\n      jump\t// out\n        /* \"#utility.yul\":5545:5911   */\n    tag_93:\n        /* \"#utility.yul\":5687:5690   */\n      0x00\n        /* \"#utility.yul\":5708:5775   */\n      tag_160\n        /* \"#utility.yul\":5772:5774   */\n      0x16\n        /* \"#utility.yul\":5767:5770   */\n      dup4\n        /* \"#utility.yul\":5708:5775   */\n      tag_88\n      jump\t// in\n    tag_160:\n        /* \"#utility.yul\":5701:5775   */\n      swap2\n      pop\n        /* \"#utility.yul\":5784:5877   */\n      tag_161\n        /* \"#utility.yul\":5873:5876   */\n      dup3\n        /* \"#utility.yul\":5784:5877   */\n      tag_92\n      jump\t// in\n    tag_161:\n        /* \"#utility.yul\":5902:5904   */\n      0x20\n        /* \"#utility.yul\":5897:5900   */\n      dup3\n        /* \"#utility.yul\":5893:5905   */\n      add\n        /* \"#utility.yul\":5886:5905   */\n      swap1\n      pop\n        /* \"#utility.yul\":5545:5911   */\n      swap2\n      swap1\n      pop\n      jump\t// out\n        /* \"#utility.yul\":5917:6336   */\n    tag_59:\n        /* \"#utility.yul\":6083:6087   */\n      0x00\n        /* \"#utility.yul\":6121:6123   */\n      0x20\n        /* \"#utility.yul\":6110:6119   */\n      dup3\n        /* \"#utility.yul\":6106:6124   */\n      add\n        /* \"#utility.yul\":6098:6124   */\n      swap1\n      pop\n        /* \"#utility.yul\":6170:6179   */\n      dup2\n        /* \"#utility.yul\":6164:6168   */\n      dup2\n        /* \"#utility.yul\":6160:6180   */\n      sub\n        /* \"#utility.yul\":6156:6157   */\n      0x00\n        /* \"#utility.yul\":6145:6154   */\n      dup4\n        /* \"#utility.yul\":6141:6158   */\n      add\n        /* \"#utility.yul\":6134:6181   */\n      mstore\n        /* \"#utility.yul\":6198:6329   */\n      tag_163\n        /* \"#utility.yul\":6324:6328   */\n      dup2\n        /* \"#utility.yul\":6198:6329   */\n      tag_93\n      jump\t// in\n    tag_163:\n        /* \"#utility.yul\":6190:6329   */\n      swap1\n      pop\n        /* \"#utility.yul\":5917:6336   */\n      swap2\n      swap1\n      pop\n      jump\t// out\n        /* \"#utility.yul\":6342:6564   */\n    tag_94:\n        /* \"#utility.yul\":6482:6516   */\n      0x4572726f72203a20596f7520616c72656164792068617665206265656e20766f\n        /* \"#utility.yul\":6478:6479   */\n      0x00\n        /* \"#utility.yul\":6470:6476   */\n      dup3\n        /* \"#utility.yul\":6466:6480   */\n      add\n        /* \"#utility.yul\":6459:6517   */\n      mstore\n        /* \"#utility.yul\":6551:6556   */\n      0x7465640000000000000000000000000000000000000000000000000000000000\n        /* \"#utility.yul\":6546:6548   */\n      0x20\n        /* \"#utility.yul\":6538:6544   */\n      dup3\n        /* \"#utility.yul\":6534:6549   */\n      add\n        /* \"#utility.yul\":6527:6557   */\n      mstore\n        /* \"#utility.yul\":6342:6564   */\n      pop\n      jump\t// out\n        /* \"#utility.yul\":6570:6936   */\n    tag_95:\n        /* \"#utility.yul\":6712:6715   */\n      0x00\n        /* \"#utility.yul\":6733:6800   */\n      tag_166\n        /* \"#utility.yul\":6797:6799   */\n      0x23\n        /* \"#utility.yul\":6792:6795   */\n      dup4\n        /* \"#utility.yul\":6733:6800   */\n      tag_88\n      jump\t// in\n    tag_166:\n        /* \"#utility.yul\":6726:6800   */\n      swap2\n      pop\n        /* \"#utility.yul\":6809:6902   */\n      tag_167\n        /* \"#utility.yul\":6898:6901   */\n      dup3\n        /* \"#utility.yul\":6809:6902   */\n      tag_94\n      jump\t// in\n    tag_167:\n        /* \"#utility.yul\":6927:6929   */\n      0x40\n        /* \"#utility.yul\":6922:6925   */\n      dup3\n        /* \"#utility.yul\":6918:6930   */\n      add\n        /* \"#utility.yul\":6911:6930   */\n      swap1\n      pop\n        /* \"#utility.yul\":6570:6936   */\n      swap2\n      swap1\n      pop\n      jump\t// out\n        /* \"#utility.yul\":6942:7361   */\n    tag_63:\n        /* \"#utility.yul\":7108:7112   */\n      0x00\n        /* \"#utility.yul\":7146:7148   */\n      0x20\n        /* \"#utility.yul\":7135:7144   */\n      dup3\n        /* \"#utility.yul\":7131:7149   */\n      add\n        /* \"#utility.yul\":7123:7149   */\n      swap1\n      pop\n        /* \"#utility.yul\":7195:7204   */\n      dup2\n        /* \"#utility.yul\":7189:7193   */\n      dup2\n        /* \"#utility.yul\":7185:7205   */\n      sub\n        /* \"#utility.yul\":7181:7182   */\n      0x00\n        /* \"#utility.yul\":7170:7179   */\n      dup4\n        /* \"#utility.yul\":7166:7183   */\n      add\n        /* \"#utility.yul\":7159:7206   */\n      mstore\n        /* \"#utility.yul\":7223:7354   */\n      tag_169\n        /* \"#utility.yul\":7349:7353   */\n      dup2\n        /* \"#utility.yul\":7223:7354   */\n      tag_95\n      jump\t// in\n    tag_169:\n        /* \"#utility.yul\":7215:7354   */\n      swap1\n      pop\n        /* \"#utility.yul\":6942:7361   */\n      swap2\n      swap1\n      pop\n      jump\t// out\n        /* \"#utility.yul\":7367:7539   */\n    tag_96:\n        /* \"#utility.yul\":7507:7531   */\n      0x4572726f72203a20696e76616c6964206e756d62657200000000000000000000\n        /* \"#utility.yul\":7503:7504   */\n      0x00\n        /* \"#utility.yul\":7495:7501   */\n      dup3\n        /* \"#utility.yul\":7491:7505   */\n      add\n        /* \"#utility.yul\":7484:7532   */\n      mstore\n        /* \"#utility.yul\":7367:7539   */\n      pop\n      jump\t// out\n        /* \"#utility.yul\":7545:7911   */\n    tag_97:\n        /* \"#utility.yul\":7687:7690   */\n      0x00\n        /* \"#utility.yul\":7708:7775   */\n      tag_172\n        /* \"#utility.yul\":7772:7774   */\n      0x16\n        /* \"#utility.yul\":7767:7770   */\n      dup4\n        /* \"#utility.yul\":7708:7775   */\n      tag_88\n      jump\t// in\n    tag_172:\n        /* \"#utility.yul\":7701:7775   */\n      swap2\n      pop\n        /* \"#utility.yul\":7784:7877   */\n      tag_173\n        /* \"#utility.yul\":7873:7876   */\n      dup3\n        /* \"#utility.yul\":7784:7877   */\n      tag_96\n      jump\t// in\n    tag_173:\n        /* \"#utility.yul\":7902:7904   */\n      0x20\n        /* \"#utility.yul\":7897:7900   */\n      dup3\n        /* \"#utility.yul\":7893:7905   */\n      add\n        /* \"#utility.yul\":7886:7905   */\n      swap1\n      pop\n        /* \"#utility.yul\":7545:7911   */\n      swap2\n      swap1\n      pop\n      jump\t// out\n        /* \"#utility.yul\":7917:8336   */\n    tag_66:\n        /* \"#utility.yul\":8083:8087   */\n      0x00\n        /* \"#utility.yul\":8121:8123   */\n      0x20\n        /* \"#utility.yul\":8110:8119   */\n      dup3\n        /* \"#utility.yul\":8106:8124   */\n      add\n        /* \"#utility.yul\":8098:8124   */\n      swap1\n      pop\n        /* \"#utility.yul\":8170:8179   */\n      dup2\n        /* \"#utility.yul\":8164:8168   */\n      dup2\n        /* \"#utility.yul\":8160:8180   */\n      sub\n        /* \"#utility.yul\":8156:8157   */\n      0x00\n        /* \"#utility.yul\":8145:8154   */\n      dup4\n        /* \"#utility.yul\":8141:8158   */\n      add\n        /* \"#utility.yul\":8134:8181   */\n      mstore\n        /* \"#utility.yul\":8198:8329   */\n      tag_175\n        /* \"#utility.yul\":8324:8328   */\n      dup2\n        /* \"#utility.yul\":8198:8329   */\n      tag_97\n      jump\t// in\n    tag_175:\n        /* \"#utility.yul\":8190:8329   */\n      swap1\n      pop\n        /* \"#utility.yul\":7917:8336   */\n      swap2\n      swap1\n      pop\n      jump\t// out\n        /* \"#utility.yul\":8342:8533   */\n    tag_71:\n        /* \"#utility.yul\":8382:8385   */\n      0x00\n        /* \"#utility.yul\":8401:8421   */\n      tag_177\n        /* \"#utility.yul\":8419:8420   */\n      dup3\n        /* \"#utility.yul\":8401:8421   */\n      tag_75\n      jump\t// in\n    tag_177:\n        /* \"#utility.yul\":8396:8421   */\n      swap2\n      pop\n        /* \"#utility.yul\":8435:8455   */\n      tag_178\n        /* \"#utility.yul\":8453:8454   */\n      dup4\n        /* \"#utility.yul\":8435:8455   */\n      tag_75\n      jump\t// in\n    tag_178:\n        /* \"#utility.yul\":8430:8455   */\n      swap3\n      pop\n        /* \"#utility.yul\":8478:8479   */\n      dup3\n        /* \"#utility.yul\":8475:8476   */\n      dup3\n        /* \"#utility.yul\":8471:8480   */\n      add\n        /* \"#utility.yul\":8464:8480   */\n      swap1\n      pop\n        /* \"#utility.yul\":8499:8502   */\n      dup1\n        /* \"#utility.yul\":8496:8497   */\n      dup3\n        /* \"#utility.yul\":8493:8503   */\n      gt\n        /* \"#utility.yul\":8490:8526   */\n      iszero\n      tag_179\n      jumpi\n        /* \"#utility.yul\":8506:8524   */\n      tag_180\n      tag_91\n      jump\t// in\n    tag_180:\n        /* \"#utility.yul\":8490:8526   */\n    tag_179:\n        /* \"#utility.yul\":8342:8533   */\n      swap3\n      swap2\n      pop\n      pop\n      jump\t// out\n\n    auxdata: 0xa2646970667358221220b5fe3009a16e641bc86c8eb8643a40c0583f96980b08d7d30f8e4298c9723fbf64736f6c63430008120033\n}\n",
				"bytecode": {
					"linkReferences": {},
					"object": "60806040523480156200001157600080fd5b5060405162000d8738038062000d8783398181016040528101906200003791906200012d565b336000806101000a81548173ffffffffffffffffffffffffffffffffffffffff021916908373ffffffffffffffffffffffffffffffffffffffff16021790555060005b8160ff168160ff161015620000e257600260405180602001604052806000815250908060018154018082558091505060019003906000526020600020016000909190919091506000820151816000015550508080620000d9906200018e565b9150506200007a565b5050620001bc565b600080fd5b600060ff82169050919050565b6200010781620000ef565b81146200011357600080fd5b50565b6000815190506200012781620000fc565b92915050565b600060208284031215620001465762000145620000ea565b5b6000620001568482850162000116565b91505092915050565b7f4e487b7100000000000000000000000000000000000000000000000000000000600052601160045260246000fd5b60006200019b82620000ef565b915060ff8203620001b157620001b06200015f565b5b600182019050919050565b610bbb80620001cc6000396000f3fe608060405234801561001057600080fd5b50600436106100575760003560e01c8063013cf08b1461005c5780634420e4861461008c578063508b30c9146100a8578063a3ec138d146100c6578063b3f98adc146100f8575b600080fd5b61007660048036038101906100719190610704565b610114565b6040516100839190610740565b60405180910390f35b6100a660048036038101906100a191906107b9565b61013e565b005b6100b061035a565b6040516100bd9190610740565b60405180910390f35b6100e060048036038101906100db91906107b9565b610409565b6040516100ef93929190610801565b60405180910390f35b610112600480360381019061010d9190610871565b610440565b005b6002818154811061012457600080fd5b906000526020600020016000915090508060000154905081565b3373ffffffffffffffffffffffffffffffffffffffff1660008054906101000a900473ffffffffffffffffffffffffffffffffffffffff1673ffffffffffffffffffffffffffffffffffffffff16146101cc576040517f08c379a00000000000000000000000000000000000000000000000000000000081526004016101c390610921565b60405180910390fd5b60008054906101000a900473ffffffffffffffffffffffffffffffffffffffff1673ffffffffffffffffffffffffffffffffffffffff168173ffffffffffffffffffffffffffffffffffffffff160361026c576002600160008373ffffffffffffffffffffffffffffffffffffffff1673ffffffffffffffffffffffffffffffffffffffff168152602001908152602001600020600001819055506102b4565b60018060008373ffffffffffffffffffffffffffffffffffffffff1673ffffffffffffffffffffffffffffffffffffffff168152602001908152602001600020600001819055505b6000600160008373ffffffffffffffffffffffffffffffffffffffff1673ffffffffffffffffffffffffffffffffffffffff16815260200190815260200160002060010160006101000a81548160ff0219169083151502179055506000600160008373ffffffffffffffffffffffffffffffffffffffff1673ffffffffffffffffffffffffffffffffffffffff1681526020019081526020016000206002018190555050565b600080600090506000600260008154811061037857610377610941565b5b906000526020600020016000015490506000600190505b6002805490508110156104005781600282815481106103b1576103b0610941565b5b906000526020600020016000015411156103ed57600281815481106103d9576103d8610941565b5b906000526020600020016000015491508092505b80806103f89061099f565b91505061038f565b50819250505090565b60016020528060005260406000206000915090508060000154908060010160009054906101000a900460ff16908060020154905083565b6000600160003373ffffffffffffffffffffffffffffffffffffffff1673ffffffffffffffffffffffffffffffffffffffff16815260200190815260200160002060000154116104c5576040517f08c379a00000000000000000000000000000000000000000000000000000000081526004016104bc90610a33565b60405180910390fd5b60001515600160003373ffffffffffffffffffffffffffffffffffffffff1673ffffffffffffffffffffffffffffffffffffffff16815260200190815260200160002060010160009054906101000a900460ff1615151461055b576040517f08c379a000000000000000000000000000000000000000000000000000000000815260040161055290610ac5565b60405180910390fd5b6002805490508160ff16106105a5576040517f08c379a000000000000000000000000000000000000000000000000000000000815260040161059c90610b31565b60405180910390fd5b60018060003373ffffffffffffffffffffffffffffffffffffffff1673ffffffffffffffffffffffffffffffffffffffff16815260200190815260200160002060010160006101000a81548160ff0219169083151502179055508060ff16600160003373ffffffffffffffffffffffffffffffffffffffff1673ffffffffffffffffffffffffffffffffffffffff16815260200190815260200160002060020181905550600160003373ffffffffffffffffffffffffffffffffffffffff1673ffffffffffffffffffffffffffffffffffffffff1681526020019081526020016000206000015460028260ff16815481106106a3576106a2610941565b5b9060005260206000200160000160008282546106bf9190610b51565b9250508190555050565b600080fd5b6000819050919050565b6106e1816106ce565b81146106ec57600080fd5b50565b6000813590506106fe816106d8565b92915050565b60006020828403121561071a576107196106c9565b5b6000610728848285016106ef565b91505092915050565b61073a816106ce565b82525050565b60006020820190506107556000830184610731565b92915050565b600073ffffffffffffffffffffffffffffffffffffffff82169050919050565b60006107868261075b565b9050919050565b6107968161077b565b81146107a157600080fd5b50565b6000813590506107b38161078d565b92915050565b6000602082840312156107cf576107ce6106c9565b5b60006107dd848285016107a4565b91505092915050565b60008115159050919050565b6107fb816107e6565b82525050565b60006060820190506108166000830186610731565b61082360208301856107f2565b6108306040830184610731565b949350505050565b600060ff82169050919050565b61084e81610838565b811461085957600080fd5b50565b60008135905061086b81610845565b92915050565b600060208284031215610887576108866106c9565b5b60006108958482850161085c565b91505092915050565b600082825260208201905092915050565b7f4572726f72203a204f6e6c792063686169726d616e2063616e2063616c6c206160008201527f20766f7465000000000000000000000000000000000000000000000000000000602082015250565b600061090b60258361089e565b9150610916826108af565b604082019050919050565b6000602082019050818103600083015261093a816108fe565b9050919050565b7f4e487b7100000000000000000000000000000000000000000000000000000000600052603260045260246000fd5b7f4e487b7100000000000000000000000000000000000000000000000000000000600052601160045260246000fd5b60006109aa826106ce565b91507fffffffffffffffffffffffffffffffffffffffffffffffffffffffffffffffff82036109dc576109db610970565b5b600182019050919050565b7f4e6f742061207265676973746572656420766f74657200000000000000000000600082015250565b6000610a1d60168361089e565b9150610a28826109e7565b602082019050919050565b60006020820190508181036000830152610a4c81610a10565b9050919050565b7f4572726f72203a20596f7520616c72656164792068617665206265656e20766f60008201527f7465640000000000000000000000000000000000000000000000000000000000602082015250565b6000610aaf60238361089e565b9150610aba82610a53565b604082019050919050565b60006020820190508181036000830152610ade81610aa2565b9050919050565b7f4572726f72203a20696e76616c6964206e756d62657200000000000000000000600082015250565b6000610b1b60168361089e565b9150610b2682610ae5565b602082019050919050565b60006020820190508181036000830152610b4a81610b0e565b9050919050565b6000610b5c826106ce565b9150610b67836106ce565b9250828201905080821115610b7f57610b7e610970565b5b9291505056fea2646970667358221220b5fe3009a16e641bc86c8eb8643a40c0583f96980b08d7d30f8e4298c9723fbf64736f6c63430008120033",
					"opcodes": "PUSH1 0x80 PUSH1 0x40 MSTORE CALLVALUE DUP1 ISZERO PUSH3 0x11 JUMPI PUSH1 0x0 DUP1 REVERT JUMPDEST POP PUSH1 0x40 MLOAD PUSH3 0xD87 CODESIZE SUB DUP1 PUSH3 0xD87 DUP4 CODECOPY DUP2 DUP2 ADD PUSH1 0x40 MSTORE DUP2 ADD SWAP1 PUSH3 0x37 SWAP2 SWAP1 PUSH3 0x12D JUMP JUMPDEST CALLER PUSH1 0x0 DUP1 PUSH2 0x100 EXP DUP2 SLOAD DUP2 PUSH20 0xFFFFFFFFFFFFFFFFFFFFFFFFFFFFFFFFFFFFFFFF MUL NOT AND SWAP1 DUP4 PUSH20 0xFFFFFFFFFFFFFFFFFFFFFFFFFFFFFFFFFFFFFFFF AND MUL OR SWAP1 SSTORE POP PUSH1 0x0 JUMPDEST DUP2 PUSH1 0xFF AND DUP2 PUSH1 0xFF AND LT ISZERO PUSH3 0xE2 JUMPI PUSH1 0x2 PUSH1 0x40 MLOAD DUP1 PUSH1 0x20 ADD PUSH1 0x40 MSTORE DUP1 PUSH1 0x0 DUP2 MSTORE POP SWAP1 DUP1 PUSH1 0x1 DUP2 SLOAD ADD DUP1 DUP3 SSTORE DUP1 SWAP2 POP POP PUSH1 0x1 SWAP1 SUB SWAP1 PUSH1 0x0 MSTORE PUSH1 0x20 PUSH1 0x0 KECCAK256 ADD PUSH1 0x0 SWAP1 SWAP2 SWAP1 SWAP2 SWAP1 SWAP2 POP PUSH1 0x0 DUP3 ADD MLOAD DUP2 PUSH1 0x0 ADD SSTORE POP POP DUP1 DUP1 PUSH3 0xD9 SWAP1 PUSH3 0x18E JUMP JUMPDEST SWAP2 POP POP PUSH3 0x7A JUMP JUMPDEST POP POP PUSH3 0x1BC JUMP JUMPDEST PUSH1 0x0 DUP1 REVERT JUMPDEST PUSH1 0x0 PUSH1 0xFF DUP3 AND SWAP1 POP SWAP2 SWAP1 POP JUMP JUMPDEST PUSH3 0x107 DUP2 PUSH3 0xEF JUMP JUMPDEST DUP2 EQ PUSH3 0x113 JUMPI PUSH1 0x0 DUP1 REVERT JUMPDEST POP JUMP JUMPDEST PUSH1 0x0 DUP2 MLOAD SWAP1 POP PUSH3 0x127 DUP2 PUSH3 0xFC JUMP JUMPDEST SWAP3 SWAP2 POP POP JUMP JUMPDEST PUSH1 0x0 PUSH1 0x20 DUP3 DUP5 SUB SLT ISZERO PUSH3 0x146 JUMPI PUSH3 0x145 PUSH3 0xEA JUMP JUMPDEST JUMPDEST PUSH1 0x0 PUSH3 0x156 DUP5 DUP3 DUP6 ADD PUSH3 0x116 JUMP JUMPDEST SWAP2 POP POP SWAP3 SWAP2 POP POP JUMP JUMPDEST PUSH32 0x4E487B7100000000000000000000000000000000000000000000000000000000 PUSH1 0x0 MSTORE PUSH1 0x11 PUSH1 0x4 MSTORE PUSH1 0x24 PUSH1 0x0 REVERT JUMPDEST PUSH1 0x0 PUSH3 0x19B DUP3 PUSH3 0xEF JUMP JUMPDEST SWAP2 POP PUSH1 0xFF DUP3 SUB PUSH3 0x1B1 JUMPI PUSH3 0x1B0 PUSH3 0x15F JUMP JUMPDEST JUMPDEST PUSH1 0x1 DUP3 ADD SWAP1 POP SWAP2 SWAP1 POP JUMP JUMPDEST PUSH2 0xBBB DUP1 PUSH3 0x1CC PUSH1 0x0 CODECOPY PUSH1 0x0 RETURN INVALID PUSH1 0x80 PUSH1 0x40 MSTORE CALLVALUE DUP1 ISZERO PUSH2 0x10 JUMPI PUSH1 0x0 DUP1 REVERT JUMPDEST POP PUSH1 0x4 CALLDATASIZE LT PUSH2 0x57 JUMPI PUSH1 0x0 CALLDATALOAD PUSH1 0xE0 SHR DUP1 PUSH4 0x13CF08B EQ PUSH2 0x5C JUMPI DUP1 PUSH4 0x4420E486 EQ PUSH2 0x8C JUMPI DUP1 PUSH4 0x508B30C9 EQ PUSH2 0xA8 JUMPI DUP1 PUSH4 0xA3EC138D EQ PUSH2 0xC6 JUMPI DUP1 PUSH4 0xB3F98ADC EQ PUSH2 0xF8 JUMPI JUMPDEST PUSH1 0x0 DUP1 REVERT JUMPDEST PUSH2 0x76 PUSH1 0x4 DUP1 CALLDATASIZE SUB DUP2 ADD SWAP1 PUSH2 0x71 SWAP2 SWAP1 PUSH2 0x704 JUMP JUMPDEST PUSH2 0x114 JUMP JUMPDEST PUSH1 0x40 MLOAD PUSH2 0x83 SWAP2 SWAP1 PUSH2 0x740 JUMP JUMPDEST PUSH1 0x40 MLOAD DUP1 SWAP2 SUB SWAP1 RETURN JUMPDEST PUSH2 0xA6 PUSH1 0x4 DUP1 CALLDATASIZE SUB DUP2 ADD SWAP1 PUSH2 0xA1 SWAP2 SWAP1 PUSH2 0x7B9 JUMP JUMPDEST PUSH2 0x13E JUMP JUMPDEST STOP JUMPDEST PUSH2 0xB0 PUSH2 0x35A JUMP JUMPDEST PUSH1 0x40 MLOAD PUSH2 0xBD SWAP2 SWAP1 PUSH2 0x740 JUMP JUMPDEST PUSH1 0x40 MLOAD DUP1 SWAP2 SUB SWAP1 RETURN JUMPDEST PUSH2 0xE0 PUSH1 0x4 DUP1 CALLDATASIZE SUB DUP2 ADD SWAP1 PUSH2 0xDB SWAP2 SWAP1 PUSH2 0x7B9 JUMP JUMPDEST PUSH2 0x409 JUMP JUMPDEST PUSH1 0x40 MLOAD PUSH2 0xEF SWAP4 SWAP3 SWAP2 SWAP1 PUSH2 0x801 JUMP JUMPDEST PUSH1 0x40 MLOAD DUP1 SWAP2 SUB SWAP1 RETURN JUMPDEST PUSH2 0x112 PUSH1 0x4 DUP1 CALLDATASIZE SUB DUP2 ADD SWAP1 PUSH2 0x10D SWAP2 SWAP1 PUSH2 0x871 JUMP JUMPDEST PUSH2 0x440 JUMP JUMPDEST STOP JUMPDEST PUSH1 0x2 DUP2 DUP2 SLOAD DUP2 LT PUSH2 0x124 JUMPI PUSH1 0x0 DUP1 REVERT JUMPDEST SWAP1 PUSH1 0x0 MSTORE PUSH1 0x20 PUSH1 0x0 KECCAK256 ADD PUSH1 0x0 SWAP2 POP SWAP1 POP DUP1 PUSH1 0x0 ADD SLOAD SWAP1 POP DUP2 JUMP JUMPDEST CALLER PUSH20 0xFFFFFFFFFFFFFFFFFFFFFFFFFFFFFFFFFFFFFFFF AND PUSH1 0x0 DUP1 SLOAD SWAP1 PUSH2 0x100 EXP SWAP1 DIV PUSH20 0xFFFFFFFFFFFFFFFFFFFFFFFFFFFFFFFFFFFFFFFF AND PUSH20 0xFFFFFFFFFFFFFFFFFFFFFFFFFFFFFFFFFFFFFFFF AND EQ PUSH2 0x1CC JUMPI PUSH1 0x40 MLOAD PUSH32 0x8C379A000000000000000000000000000000000000000000000000000000000 DUP2 MSTORE PUSH1 0x4 ADD PUSH2 0x1C3 SWAP1 PUSH2 0x921 JUMP JUMPDEST PUSH1 0x40 MLOAD DUP1 SWAP2 SUB SWAP1 REVERT JUMPDEST PUSH1 0x0 DUP1 SLOAD SWAP1 PUSH2 0x100 EXP SWAP1 DIV PUSH20 0xFFFFFFFFFFFFFFFFFFFFFFFFFFFFFFFFFFFFFFFF AND PUSH20 0xFFFFFFFFFFFFFFFFFFFFFFFFFFFFFFFFFFFFFFFF AND DUP2 PUSH20 0xFFFFFFFFFFFFFFFFFFFFFFFFFFFFFFFFFFFFFFFF AND SUB PUSH2 0x26C JUMPI PUSH1 0x2 PUSH1 0x1 PUSH1 0x0 DUP4 PUSH20 0xFFFFFFFFFFFFFFFFFFFFFFFFFFFFFFFFFFFFFFFF AND PUSH20 0xFFFFFFFFFFFFFFFFFFFFFFFFFFFFFFFFFFFFFFFF AND DUP2 MSTORE PUSH1 0x20 ADD SWAP1 DUP2 MSTORE PUSH1 0x20 ADD PUSH1 0x0 KECCAK256 PUSH1 0x0 ADD DUP2 SWAP1 SSTORE POP PUSH2 0x2B4 JUMP JUMPDEST PUSH1 0x1 DUP1 PUSH1 0x0 DUP4 PUSH20 0xFFFFFFFFFFFFFFFFFFFFFFFFFFFFFFFFFFFFFFFF AND PUSH20 0xFFFFFFFFFFFFFFFFFFFFFFFFFFFFFFFFFFFFFFFF AND DUP2 MSTORE PUSH1 0x20 ADD SWAP1 DUP2 MSTORE PUSH1 0x20 ADD PUSH1 0x0 KECCAK256 PUSH1 0x0 ADD DUP2 SWAP1 SSTORE POP JUMPDEST PUSH1 0x0 PUSH1 0x1 PUSH1 0x0 DUP4 PUSH20 0xFFFFFFFFFFFFFFFFFFFFFFFFFFFFFFFFFFFFFFFF AND PUSH20 0xFFFFFFFFFFFFFFFFFFFFFFFFFFFFFFFFFFFFFFFF AND DUP2 MSTORE PUSH1 0x20 ADD SWAP1 DUP2 MSTORE PUSH1 0x20 ADD PUSH1 0x0 KECCAK256 PUSH1 0x1 ADD PUSH1 0x0 PUSH2 0x100 EXP DUP2 SLOAD DUP2 PUSH1 0xFF MUL NOT AND SWAP1 DUP4 ISZERO ISZERO MUL OR SWAP1 SSTORE POP PUSH1 0x0 PUSH1 0x1 PUSH1 0x0 DUP4 PUSH20 0xFFFFFFFFFFFFFFFFFFFFFFFFFFFFFFFFFFFFFFFF AND PUSH20 0xFFFFFFFFFFFFFFFFFFFFFFFFFFFFFFFFFFFFFFFF AND DUP2 MSTORE PUSH1 0x20 ADD SWAP1 DUP2 MSTORE PUSH1 0x20 ADD PUSH1 0x0 KECCAK256 PUSH1 0x2 ADD DUP2 SWAP1 SSTORE POP POP JUMP JUMPDEST PUSH1 0x0 DUP1 PUSH1 0x0 SWAP1 POP PUSH1 0x0 PUSH1 0x2 PUSH1 0x0 DUP2 SLOAD DUP2 LT PUSH2 0x378 JUMPI PUSH2 0x377 PUSH2 0x941 JUMP JUMPDEST JUMPDEST SWAP1 PUSH1 0x0 MSTORE PUSH1 0x20 PUSH1 0x0 KECCAK256 ADD PUSH1 0x0 ADD SLOAD SWAP1 POP PUSH1 0x0 PUSH1 0x1 SWAP1 POP JUMPDEST PUSH1 0x2 DUP1 SLOAD SWAP1 POP DUP2 LT ISZERO PUSH2 0x400 JUMPI DUP2 PUSH1 0x2 DUP3 DUP2 SLOAD DUP2 LT PUSH2 0x3B1 JUMPI PUSH2 0x3B0 PUSH2 0x941 JUMP JUMPDEST JUMPDEST SWAP1 PUSH1 0x0 MSTORE PUSH1 0x20 PUSH1 0x0 KECCAK256 ADD PUSH1 0x0 ADD SLOAD GT ISZERO PUSH2 0x3ED JUMPI PUSH1 0x2 DUP2 DUP2 SLOAD DUP2 LT PUSH2 0x3D9 JUMPI PUSH2 0x3D8 PUSH2 0x941 JUMP JUMPDEST JUMPDEST SWAP1 PUSH1 0x0 MSTORE PUSH1 0x20 PUSH1 0x0 KECCAK256 ADD PUSH1 0x0 ADD SLOAD SWAP2 POP DUP1 SWAP3 POP JUMPDEST DUP1 DUP1 PUSH2 0x3F8 SWAP1 PUSH2 0x99F JUMP JUMPDEST SWAP2 POP POP PUSH2 0x38F JUMP JUMPDEST POP DUP2 SWAP3 POP POP POP SWAP1 JUMP JUMPDEST PUSH1 0x1 PUSH1 0x20 MSTORE DUP1 PUSH1 0x0 MSTORE PUSH1 0x40 PUSH1 0x0 KECCAK256 PUSH1 0x0 SWAP2 POP SWAP1 POP DUP1 PUSH1 0x0 ADD SLOAD SWAP1 DUP1 PUSH1 0x1 ADD PUSH1 0x0 SWAP1 SLOAD SWAP1 PUSH2 0x100 EXP SWAP1 DIV PUSH1 0xFF AND SWAP1 DUP1 PUSH1 0x2 ADD SLOAD SWAP1 POP DUP4 JUMP JUMPDEST PUSH1 0x0 PUSH1 0x1 PUSH1 0x0 CALLER PUSH20 0xFFFFFFFFFFFFFFFFFFFFFFFFFFFFFFFFFFFFFFFF AND PUSH20 0xFFFFFFFFFFFFFFFFFFFFFFFFFFFFFFFFFFFFFFFF AND DUP2 MSTORE PUSH1 0x20 ADD SWAP1 DUP2 MSTORE PUSH1 0x20 ADD PUSH1 0x0 KECCAK256 PUSH1 0x0 ADD SLOAD GT PUSH2 0x4C5 JUMPI PUSH1 0x40 MLOAD PUSH32 0x8C379A000000000000000000000000000000000000000000000000000000000 DUP2 MSTORE PUSH1 0x4 ADD PUSH2 0x4BC SWAP1 PUSH2 0xA33 JUMP JUMPDEST PUSH1 0x40 MLOAD DUP1 SWAP2 SUB SWAP1 REVERT JUMPDEST PUSH1 0x0 ISZERO ISZERO PUSH1 0x1 PUSH1 0x0 CALLER PUSH20 0xFFFFFFFFFFFFFFFFFFFFFFFFFFFFFFFFFFFFFFFF AND PUSH20 0xFFFFFFFFFFFFFFFFFFFFFFFFFFFFFFFFFFFFFFFF AND DUP2 MSTORE PUSH1 0x20 ADD SWAP1 DUP2 MSTORE PUSH1 0x20 ADD PUSH1 0x0 KECCAK256 PUSH1 0x1 ADD PUSH1 0x0 SWAP1 SLOAD SWAP1 PUSH2 0x100 EXP SWAP1 DIV PUSH1 0xFF AND ISZERO ISZERO EQ PUSH2 0x55B JUMPI PUSH1 0x40 MLOAD PUSH32 0x8C379A000000000000000000000000000000000000000000000000000000000 DUP2 MSTORE PUSH1 0x4 ADD PUSH2 0x552 SWAP1 PUSH2 0xAC5 JUMP JUMPDEST PUSH1 0x40 MLOAD DUP1 SWAP2 SUB SWAP1 REVERT JUMPDEST PUSH1 0x2 DUP1 SLOAD SWAP1 POP DUP2 PUSH1 0xFF AND LT PUSH2 0x5A5 JUMPI PUSH1 0x40 MLOAD PUSH32 0x8C379A000000000000000000000000000000000000000000000000000000000 DUP2 MSTORE PUSH1 0x4 ADD PUSH2 0x59C SWAP1 PUSH2 0xB31 JUMP JUMPDEST PUSH1 0x40 MLOAD DUP1 SWAP2 SUB SWAP1 REVERT JUMPDEST PUSH1 0x1 DUP1 PUSH1 0x0 CALLER PUSH20 0xFFFFFFFFFFFFFFFFFFFFFFFFFFFFFFFFFFFFFFFF AND PUSH20 0xFFFFFFFFFFFFFFFFFFFFFFFFFFFFFFFFFFFFFFFF AND DUP2 MSTORE PUSH1 0x20 ADD SWAP1 DUP2 MSTORE PUSH1 0x20 ADD PUSH1 0x0 KECCAK256 PUSH1 0x1 ADD PUSH1 0x0 PUSH2 0x100 EXP DUP2 SLOAD DUP2 PUSH1 0xFF MUL NOT AND SWAP1 DUP4 ISZERO ISZERO MUL OR SWAP1 SSTORE POP DUP1 PUSH1 0xFF AND PUSH1 0x1 PUSH1 0x0 CALLER PUSH20 0xFFFFFFFFFFFFFFFFFFFFFFFFFFFFFFFFFFFFFFFF AND PUSH20 0xFFFFFFFFFFFFFFFFFFFFFFFFFFFFFFFFFFFFFFFF AND DUP2 MSTORE PUSH1 0x20 ADD SWAP1 DUP2 MSTORE PUSH1 0x20 ADD PUSH1 0x0 KECCAK256 PUSH1 0x2 ADD DUP2 SWAP1 SSTORE POP PUSH1 0x1 PUSH1 0x0 CALLER PUSH20 0xFFFFFFFFFFFFFFFFFFFFFFFFFFFFFFFFFFFFFFFF AND PUSH20 0xFFFFFFFFFFFFFFFFFFFFFFFFFFFFFFFFFFFFFFFF AND DUP2 MSTORE PUSH1 0x20 ADD SWAP1 DUP2 MSTORE PUSH1 0x20 ADD PUSH1 0x0 KECCAK256 PUSH1 0x0 ADD SLOAD PUSH1 0x2 DUP3 PUSH1 0xFF AND DUP2 SLOAD DUP2 LT PUSH2 0x6A3 JUMPI PUSH2 0x6A2 PUSH2 0x941 JUMP JUMPDEST JUMPDEST SWAP1 PUSH1 0x0 MSTORE PUSH1 0x20 PUSH1 0x0 KECCAK256 ADD PUSH1 0x0 ADD PUSH1 0x0 DUP3 DUP3 SLOAD PUSH2 0x6BF SWAP2 SWAP1 PUSH2 0xB51 JUMP JUMPDEST SWAP3 POP POP DUP2 SWAP1 SSTORE POP POP JUMP JUMPDEST PUSH1 0x0 DUP1 REVERT JUMPDEST PUSH1 0x0 DUP2 SWAP1 POP SWAP2 SWAP1 POP JUMP JUMPDEST PUSH2 0x6E1 DUP2 PUSH2 0x6CE JUMP JUMPDEST DUP2 EQ PUSH2 0x6EC JUMPI PUSH1 0x0 DUP1 REVERT JUMPDEST POP JUMP JUMPDEST PUSH1 0x0 DUP2 CALLDATALOAD SWAP1 POP PUSH2 0x6FE DUP2 PUSH2 0x6D8 JUMP JUMPDEST SWAP3 SWAP2 POP POP JUMP JUMPDEST PUSH1 0x0 PUSH1 0x20 DUP3 DUP5 SUB SLT ISZERO PUSH2 0x71A JUMPI PUSH2 0x719 PUSH2 0x6C9 JUMP JUMPDEST JUMPDEST PUSH1 0x0 PUSH2 0x728 DUP5 DUP3 DUP6 ADD PUSH2 0x6EF JUMP JUMPDEST SWAP2 POP POP SWAP3 SWAP2 POP POP JUMP JUMPDEST PUSH2 0x73A DUP2 PUSH2 0x6CE JUMP JUMPDEST DUP3 MSTORE POP POP JUMP JUMPDEST PUSH1 0x0 PUSH1 0x20 DUP3 ADD SWAP1 POP PUSH2 0x755 PUSH1 0x0 DUP4 ADD DUP5 PUSH2 0x731 JUMP JUMPDEST SWAP3 SWAP2 POP POP JUMP JUMPDEST PUSH1 0x0 PUSH20 0xFFFFFFFFFFFFFFFFFFFFFFFFFFFFFFFFFFFFFFFF DUP3 AND SWAP1 POP SWAP2 SWAP1 POP JUMP JUMPDEST PUSH1 0x0 PUSH2 0x786 DUP3 PUSH2 0x75B JUMP JUMPDEST SWAP1 POP SWAP2 SWAP1 POP JUMP JUMPDEST PUSH2 0x796 DUP2 PUSH2 0x77B JUMP JUMPDEST DUP2 EQ PUSH2 0x7A1 JUMPI PUSH1 0x0 DUP1 REVERT JUMPDEST POP JUMP JUMPDEST PUSH1 0x0 DUP2 CALLDATALOAD SWAP1 POP PUSH2 0x7B3 DUP2 PUSH2 0x78D JUMP JUMPDEST SWAP3 SWAP2 POP POP JUMP JUMPDEST PUSH1 0x0 PUSH1 0x20 DUP3 DUP5 SUB SLT ISZERO PUSH2 0x7CF JUMPI PUSH2 0x7CE PUSH2 0x6C9 JUMP JUMPDEST JUMPDEST PUSH1 0x0 PUSH2 0x7DD DUP5 DUP3 DUP6 ADD PUSH2 0x7A4 JUMP JUMPDEST SWAP2 POP POP SWAP3 SWAP2 POP POP JUMP JUMPDEST PUSH1 0x0 DUP2 ISZERO ISZERO SWAP1 POP SWAP2 SWAP1 POP JUMP JUMPDEST PUSH2 0x7FB DUP2 PUSH2 0x7E6 JUMP JUMPDEST DUP3 MSTORE POP POP JUMP JUMPDEST PUSH1 0x0 PUSH1 0x60 DUP3 ADD SWAP1 POP PUSH2 0x816 PUSH1 0x0 DUP4 ADD DUP7 PUSH2 0x731 JUMP JUMPDEST PUSH2 0x823 PUSH1 0x20 DUP4 ADD DUP6 PUSH2 0x7F2 JUMP JUMPDEST PUSH2 0x830 PUSH1 0x40 DUP4 ADD DUP5 PUSH2 0x731 JUMP JUMPDEST SWAP5 SWAP4 POP POP POP POP JUMP JUMPDEST PUSH1 0x0 PUSH1 0xFF DUP3 AND SWAP1 POP SWAP2 SWAP1 POP JUMP JUMPDEST PUSH2 0x84E DUP2 PUSH2 0x838 JUMP JUMPDEST DUP2 EQ PUSH2 0x859 JUMPI PUSH1 0x0 DUP1 REVERT JUMPDEST POP JUMP JUMPDEST PUSH1 0x0 DUP2 CALLDATALOAD SWAP1 POP PUSH2 0x86B DUP2 PUSH2 0x845 JUMP JUMPDEST SWAP3 SWAP2 POP POP JUMP JUMPDEST PUSH1 0x0 PUSH1 0x20 DUP3 DUP5 SUB SLT ISZERO PUSH2 0x887 JUMPI PUSH2 0x886 PUSH2 0x6C9 JUMP JUMPDEST JUMPDEST PUSH1 0x0 PUSH2 0x895 DUP5 DUP3 DUP6 ADD PUSH2 0x85C JUMP JUMPDEST SWAP2 POP POP SWAP3 SWAP2 POP POP JUMP JUMPDEST PUSH1 0x0 DUP3 DUP3 MSTORE PUSH1 0x20 DUP3 ADD SWAP1 POP SWAP3 SWAP2 POP POP JUMP JUMPDEST PUSH32 0x4572726F72203A204F6E6C792063686169726D616E2063616E2063616C6C2061 PUSH1 0x0 DUP3 ADD MSTORE PUSH32 0x20766F7465000000000000000000000000000000000000000000000000000000 PUSH1 0x20 DUP3 ADD MSTORE POP JUMP JUMPDEST PUSH1 0x0 PUSH2 0x90B PUSH1 0x25 DUP4 PUSH2 0x89E JUMP JUMPDEST SWAP2 POP PUSH2 0x916 DUP3 PUSH2 0x8AF JUMP JUMPDEST PUSH1 0x40 DUP3 ADD SWAP1 POP SWAP2 SWAP1 POP JUMP JUMPDEST PUSH1 0x0 PUSH1 0x20 DUP3 ADD SWAP1 POP DUP2 DUP2 SUB PUSH1 0x0 DUP4 ADD MSTORE PUSH2 0x93A DUP2 PUSH2 0x8FE JUMP JUMPDEST SWAP1 POP SWAP2 SWAP1 POP JUMP JUMPDEST PUSH32 0x4E487B7100000000000000000000000000000000000000000000000000000000 PUSH1 0x0 MSTORE PUSH1 0x32 PUSH1 0x4 MSTORE PUSH1 0x24 PUSH1 0x0 REVERT JUMPDEST PUSH32 0x4E487B7100000000000000000000000000000000000000000000000000000000 PUSH1 0x0 MSTORE PUSH1 0x11 PUSH1 0x4 MSTORE PUSH1 0x24 PUSH1 0x0 REVERT JUMPDEST PUSH1 0x0 PUSH2 0x9AA DUP3 PUSH2 0x6CE JUMP JUMPDEST SWAP2 POP PUSH32 0xFFFFFFFFFFFFFFFFFFFFFFFFFFFFFFFFFFFFFFFFFFFFFFFFFFFFFFFFFFFFFFFF DUP3 SUB PUSH2 0x9DC JUMPI PUSH2 0x9DB PUSH2 0x970 JUMP JUMPDEST JUMPDEST PUSH1 0x1 DUP3 ADD SWAP1 POP SWAP2 SWAP1 POP JUMP JUMPDEST PUSH32 0x4E6F742061207265676973746572656420766F74657200000000000000000000 PUSH1 0x0 DUP3 ADD MSTORE POP JUMP JUMPDEST PUSH1 0x0 PUSH2 0xA1D PUSH1 0x16 DUP4 PUSH2 0x89E JUMP JUMPDEST SWAP2 POP PUSH2 0xA28 DUP3 PUSH2 0x9E7 JUMP JUMPDEST PUSH1 0x20 DUP3 ADD SWAP1 POP SWAP2 SWAP1 POP JUMP JUMPDEST PUSH1 0x0 PUSH1 0x20 DUP3 ADD SWAP1 POP DUP2 DUP2 SUB PUSH1 0x0 DUP4 ADD MSTORE PUSH2 0xA4C DUP2 PUSH2 0xA10 JUMP JUMPDEST SWAP1 POP SWAP2 SWAP1 POP JUMP JUMPDEST PUSH32 0x4572726F72203A20596F7520616C72656164792068617665206265656E20766F PUSH1 0x0 DUP3 ADD MSTORE PUSH32 0x7465640000000000000000000000000000000000000000000000000000000000 PUSH1 0x20 DUP3 ADD MSTORE POP JUMP JUMPDEST PUSH1 0x0 PUSH2 0xAAF PUSH1 0x23 DUP4 PUSH2 0x89E JUMP JUMPDEST SWAP2 POP PUSH2 0xABA DUP3 PUSH2 0xA53 JUMP JUMPDEST PUSH1 0x40 DUP3 ADD SWAP1 POP SWAP2 SWAP1 POP JUMP JUMPDEST PUSH1 0x0 PUSH1 0x20 DUP3 ADD SWAP1 POP DUP2 DUP2 SUB PUSH1 0x0 DUP4 ADD MSTORE PUSH2 0xADE DUP2 PUSH2 0xAA2 JUMP JUMPDEST SWAP1 POP SWAP2 SWAP1 POP JUMP JUMPDEST PUSH32 0x4572726F72203A20696E76616C6964206E756D62657200000000000000000000 PUSH1 0x0 DUP3 ADD MSTORE POP JUMP JUMPDEST PUSH1 0x0 PUSH2 0xB1B PUSH1 0x16 DUP4 PUSH2 0x89E JUMP JUMPDEST SWAP2 POP PUSH2 0xB26 DUP3 PUSH2 0xAE5 JUMP JUMPDEST PUSH1 0x20 DUP3 ADD SWAP1 POP SWAP2 SWAP1 POP JUMP JUMPDEST PUSH1 0x0 PUSH1 0x20 DUP3 ADD SWAP1 POP DUP2 DUP2 SUB PUSH1 0x0 DUP4 ADD MSTORE PUSH2 0xB4A DUP2 PUSH2 0xB0E JUMP JUMPDEST SWAP1 POP SWAP2 SWAP1 POP JUMP JUMPDEST PUSH1 0x0 PUSH2 0xB5C DUP3 PUSH2 0x6CE JUMP JUMPDEST SWAP2 POP PUSH2 0xB67 DUP4 PUSH2 0x6CE JUMP JUMPDEST SWAP3 POP DUP3 DUP3 ADD SWAP1 POP DUP1 DUP3 GT ISZERO PUSH2 0xB7F JUMPI PUSH2 0xB7E PUSH2 0x970 JUMP JUMPDEST JUMPDEST SWAP3 SWAP2 POP POP JUMP INVALID LOG2 PUSH5 0x6970667358 0x22 SLT KECCAK256 0xB5 INVALID ADDRESS MULMOD LOG1 PUSH15 0x641BC86C8EB8643A40C0583F96980B ADDMOD 0xD7 0xD3 0xF DUP15 TIMESTAMP SWAP9 0xC9 PUSH19 0x3FBF64736F6C63430008120033000000000000 "
				},
				"gasEstimates": {
					"creation": {
						"codeDepositCost": "600600",
						"executionCost": "infinite",
						"totalCost": "infinite"
					},
					"external": {
						"proposals(uint256)": "infinite",
						"register(address)": "56484",
						"reqWinner()": "infinite",
						"vote(uint8)": "infinite",
						"voters(address)": "infinite"
					}
				},
				"methodIdentifiers": {
					"proposals(uint256)": "013cf08b",
					"register(address)": "4420e486",
					"reqWinner()": "508b30c9",
					"vote(uint8)": "b3f98adc",
					"voters(address)": "a3ec138d"
				}
			},
			"storageLayout": {
				"storage": [
					{
						"astId": 13,
						"contract": "ballot/ballot-contract/contracts/Ballot.sol:Ballot",
						"label": "chairperson",
						"offset": 0,
						"slot": "0",
						"type": "t_address"
					},
					{
						"astId": 18,
						"contract": "ballot/ballot-contract/contracts/Ballot.sol:Ballot",
						"label": "voters",
						"offset": 0,
						"slot": "1",
						"type": "t_mapping(t_address,t_struct(Voter)8_storage)"
					},
					{
						"astId": 22,
						"contract": "ballot/ballot-contract/contracts/Ballot.sol:Ballot",
						"label": "proposals",
						"offset": 0,
						"slot": "2",
						"type": "t_array(t_struct(Proposal)11_storage)dyn_storage"
					}
				],
				"types": {
					"t_address": {
						"encoding": "inplace",
						"label": "address",
						"numberOfBytes": "20"
					},
					"t_array(t_struct(Proposal)11_storage)dyn_storage": {
						"base": "t_struct(Proposal)11_storage",
						"encoding": "dynamic_array",
						"label": "struct Ballot.Proposal[]",
						"numberOfBytes": "32"
					},
					"t_bool": {
						"encoding": "inplace",
						"label": "bool",
						"numberOfBytes": "1"
					},
					"t_mapping(t_address,t_struct(Voter)8_storage)": {
						"encoding": "mapping",
						"key": "t_address",
						"label": "mapping(address => struct Ballot.Voter)",
						"numberOfBytes": "32",
						"value": "t_struct(Voter)8_storage"
					},
					"t_struct(Proposal)11_storage": {
						"encoding": "inplace",
						"label": "struct Ballot.Proposal",
						"members": [
							{
								"astId": 10,
								"contract": "ballot/ballot-contract/contracts/Ballot.sol:Ballot",
								"label": "voteCount",
								"offset": 0,
								"slot": "0",
								"type": "t_uint256"
							}
						],
						"numberOfBytes": "32"
					},
					"t_struct(Voter)8_storage": {
						"encoding": "inplace",
						"label": "struct Ballot.Voter",
						"members": [
							{
								"astId": 3,
								"contract": "ballot/ballot-contract/contracts/Ballot.sol:Ballot",
								"label": "weight",
								"offset": 0,
								"slot": "0",
								"type": "t_uint256"
							},
							{
								"astId": 5,
								"contract": "ballot/ballot-contract/contracts/Ballot.sol:Ballot",
								"label": "voted",
								"offset": 0,
								"slot": "1",
								"type": "t_bool"
							},
							{
								"astId": 7,
								"contract": "ballot/ballot-contract/contracts/Ballot.sol:Ballot",
								"label": "vote",
								"offset": 0,
								"slot": "2",
								"type": "t_uint256"
							}
						],
						"numberOfBytes": "96"
					},
					"t_uint256": {
						"encoding": "inplace",
						"label": "uint256",
						"numberOfBytes": "32"
					}
				}
			},
			"userdoc": {
				"kind": "user",
				"methods": {},
				"version": 1
			}
		}
	}
}