{
	"data": {
		"bytecode": {
			"linkReferences": {},
			"object": "608060405234801561001057600080fd5b50610210806100206000396000f3fe608060405234801561001057600080fd5b506004361061002b5760003560e01c8063446a45b714610030575b600080fd5b61003861004e565b60405161004591906100d2565b60405180910390f35b600080600090506000600190505b60028110156100b1576000600290505b600481101561009f578082610081919061011c565b8361008c919061015e565b92508061009890610192565b905061006c565b50806100aa90610192565b905061005c565b508091505090565b6000819050919050565b6100cc816100b9565b82525050565b60006020820190506100e760008301846100c3565b92915050565b7f4e487b7100000000000000000000000000000000000000000000000000000000600052601160045260246000fd5b6000610127826100b9565b9150610132836100b9565b9250828202610140816100b9565b91508282048414831517610157576101566100ed565b5b5092915050565b6000610169826100b9565b9150610174836100b9565b925082820190508082111561018c5761018b6100ed565b5b92915050565b600061019d826100b9565b91507fffffffffffffffffffffffffffffffffffffffffffffffffffffffffffffffff82036101cf576101ce6100ed565b5b60018201905091905056fea264697066735822122054c454506e91ec991046cbb1acab6941196aea4df8590466b9816048910cbbb964736f6c63430008120033",
			"opcodes": "PUSH1 0x80 PUSH1 0x40 MSTORE CALLVALUE DUP1 ISZERO PUSH2 0x10 JUMPI PUSH1 0x0 DUP1 REVERT JUMPDEST POP PUSH2 0x210 DUP1 PUSH2 0x20 PUSH1 0x0 CODECOPY PUSH1 0x0 RETURN INVALID PUSH1 0x80 PUSH1 0x40 MSTORE CALLVALUE DUP1 ISZERO PUSH2 0x10 JUMPI PUSH1 0x0 DUP1 REVERT JUMPDEST POP PUSH1 0x4 CALLDATASIZE LT PUSH2 0x2B JUMPI PUSH1 0x0 CALLDATALOAD PUSH1 0xE0 SHR DUP1 PUSH4 0x446A45B7 EQ PUSH2 0x30 JUMPI JUMPDEST PUSH1 0x0 DUP1 REVERT JUMPDEST PUSH2 0x38 PUSH2 0x4E JUMP JUMPDEST PUSH1 0x40 MLOAD PUSH2 0x45 SWAP2 SWAP1 PUSH2 0xD2 JUMP JUMPDEST PUSH1 0x40 MLOAD DUP1 SWAP2 SUB SWAP1 RETURN JUMPDEST PUSH1 0x0 DUP1 PUSH1 0x0 SWAP1 POP PUSH1 0x0 PUSH1 0x1 SWAP1 POP JUMPDEST PUSH1 0x2 DUP2 LT ISZERO PUSH2 0xB1 JUMPI PUSH1 0x0 PUSH1 0x2 SWAP1 POP JUMPDEST PUSH1 0x4 DUP2 LT ISZERO PUSH2 0x9F JUMPI DUP1 DUP3 PUSH2 0x81 SWAP2 SWAP1 PUSH2 0x11C JUMP JUMPDEST DUP4 PUSH2 0x8C SWAP2 SWAP1 PUSH2 0x15E JUMP JUMPDEST SWAP3 POP DUP1 PUSH2 0x98 SWAP1 PUSH2 0x192 JUMP JUMPDEST SWAP1 POP PUSH2 0x6C JUMP JUMPDEST POP DUP1 PUSH2 0xAA SWAP1 PUSH2 0x192 JUMP JUMPDEST SWAP1 POP PUSH2 0x5C JUMP JUMPDEST POP DUP1 SWAP2 POP POP SWAP1 JUMP JUMPDEST PUSH1 0x0 DUP2 SWAP1 POP SWAP2 SWAP1 POP JUMP JUMPDEST PUSH2 0xCC DUP2 PUSH2 0xB9 JUMP JUMPDEST DUP3 MSTORE POP POP JUMP JUMPDEST PUSH1 0x0 PUSH1 0x20 DUP3 ADD SWAP1 POP PUSH2 0xE7 PUSH1 0x0 DUP4 ADD DUP5 PUSH2 0xC3 JUMP JUMPDEST SWAP3 SWAP2 POP POP JUMP JUMPDEST PUSH32 0x4E487B7100000000000000000000000000000000000000000000000000000000 PUSH1 0x0 MSTORE PUSH1 0x11 PUSH1 0x4 MSTORE PUSH1 0x24 PUSH1 0x0 REVERT JUMPDEST PUSH1 0x0 PUSH2 0x127 DUP3 PUSH2 0xB9 JUMP JUMPDEST SWAP2 POP PUSH2 0x132 DUP4 PUSH2 0xB9 JUMP JUMPDEST SWAP3 POP DUP3 DUP3 MUL PUSH2 0x140 DUP2 PUSH2 0xB9 JUMP JUMPDEST SWAP2 POP DUP3 DUP3 DIV DUP5 EQ DUP4 ISZERO OR PUSH2 0x157 JUMPI PUSH2 0x156 PUSH2 0xED JUMP JUMPDEST JUMPDEST POP SWAP3 SWAP2 POP POP JUMP JUMPDEST PUSH1 0x0 PUSH2 0x169 DUP3 PUSH2 0xB9 JUMP JUMPDEST SWAP2 POP PUSH2 0x174 DUP4 PUSH2 0xB9 JUMP JUMPDEST SWAP3 POP DUP3 DUP3 ADD SWAP1 POP DUP1 DUP3 GT ISZERO PUSH2 0x18C JUMPI PUSH2 0x18B PUSH2 0xED JUMP JUMPDEST JUMPDEST SWAP3 SWAP2 POP POP JUMP JUMPDEST PUSH1 0x0 PUSH2 0x19D DUP3 PUSH2 0xB9 JUMP JUMPDEST SWAP2 POP PUSH32 0xFFFFFFFFFFFFFFFFFFFFFFFFFFFFFFFFFFFFFFFFFFFFFFFFFFFFFFFFFFFFFFFF DUP3 SUB PUSH2 0x1CF JUMPI PUSH2 0x1CE PUSH2 0xED JUMP JUMPDEST JUMPDEST PUSH1 0x1 DUP3 ADD SWAP1 POP SWAP2 SWAP1 POP JUMP INVALID LOG2 PUSH5 0x6970667358 0x22 SLT KECCAK256 SLOAD 0xC4 SLOAD POP PUSH15 0x91EC991046CBB1ACAB6941196AEA4D 0xF8 MSIZE DIV PUSH7 0xB9816048910CBB 0xB9 PUSH5 0x736F6C6343 STOP ADDMOD SLT STOP CALLER "
		},
		"gasEstimates": {
			"creation": {
				"codeDepositCost": "105600",
				"executionCost": "153",
				"totalCost": "105753"
			},
			"external": {
				"fun1()": "infinite"
			}
		},
		"methodIdentifiers": {
			"fun1()": "446a45b7"
		}
	},
	"abi": [
		{
			"inputs": [],
			"name": "fun1",
			"outputs": [
				{
					"internalType": "uint256",
					"name": "",
					"type": "uint256"
				}
			],
			"stateMutability": "pure",
			"type": "function"
		}
	]
}