{
	"Lecture Note/week12/ERC721StdTokens.sol": {
		"ERC721StdNFT": {
			"abi": [
				{
					"inputs": [
						{
							"internalType": "string",
							"name": "_name",
							"type": "string"
						},
						{
							"internalType": "string",
							"name": "_symbol",
							"type": "string"
						}
					],
					"stateMutability": "nonpayable",
					"type": "constructor"
				},
				{
					"anonymous": false,
					"inputs": [
						{
							"indexed": true,
							"internalType": "address",
							"name": "_owner",
							"type": "address"
						},
						{
							"indexed": true,
							"internalType": "address",
							"name": "_approved",
							"type": "address"
						},
						{
							"indexed": true,
							"internalType": "uint256",
							"name": "_tokenId",
							"type": "uint256"
						}
					],
					"name": "Approval",
					"type": "event"
				},
				{
					"anonymous": false,
					"inputs": [
						{
							"indexed": true,
							"internalType": "address",
							"name": "_owner",
							"type": "address"
						},
						{
							"indexed": true,
							"internalType": "address",
							"name": "_operator",
							"type": "address"
						},
						{
							"indexed": false,
							"internalType": "bool",
							"name": "_approved",
							"type": "bool"
						}
					],
					"name": "ApprovalForAll",
					"type": "event"
				},
				{
					"anonymous": false,
					"inputs": [
						{
							"indexed": true,
							"internalType": "address",
							"name": "_from",
							"type": "address"
						},
						{
							"indexed": true,
							"internalType": "address",
							"name": "_to",
							"type": "address"
						},
						{
							"indexed": true,
							"internalType": "uint256",
							"name": "_tokenId",
							"type": "uint256"
						}
					],
					"name": "Transfer",
					"type": "event"
				},
				{
					"inputs": [
						{
							"internalType": "address",
							"name": "",
							"type": "address"
						},
						{
							"internalType": "address",
							"name": "",
							"type": "address"
						}
					],
					"name": "_operatorApprovals",
					"outputs": [
						{
							"internalType": "bool",
							"name": "",
							"type": "bool"
						}
					],
					"stateMutability": "view",
					"type": "function"
				},
				{
					"inputs": [
						{
							"internalType": "address",
							"name": "_approved",
							"type": "address"
						},
						{
							"internalType": "uint256",
							"name": "_tokenId",
							"type": "uint256"
						}
					],
					"name": "approve",
					"outputs": [],
					"stateMutability": "payable",
					"type": "function"
				},
				{
					"inputs": [
						{
							"internalType": "address",
							"name": "_owner",
							"type": "address"
						}
					],
					"name": "balanceOf",
					"outputs": [
						{
							"internalType": "uint256",
							"name": "",
							"type": "uint256"
						}
					],
					"stateMutability": "view",
					"type": "function"
				},
				{
					"inputs": [],
					"name": "founder",
					"outputs": [
						{
							"internalType": "address",
							"name": "",
							"type": "address"
						}
					],
					"stateMutability": "view",
					"type": "function"
				},
				{
					"inputs": [
						{
							"internalType": "uint256",
							"name": "_tokenID",
							"type": "uint256"
						}
					],
					"name": "getApproved",
					"outputs": [
						{
							"internalType": "address",
							"name": "",
							"type": "address"
						}
					],
					"stateMutability": "view",
					"type": "function"
				},
				{
					"inputs": [
						{
							"internalType": "address",
							"name": "_owner",
							"type": "address"
						},
						{
							"internalType": "address",
							"name": "_operator",
							"type": "address"
						}
					],
					"name": "isApprovedForAll",
					"outputs": [
						{
							"internalType": "bool",
							"name": "",
							"type": "bool"
						}
					],
					"stateMutability": "view",
					"type": "function"
				},
				{
					"inputs": [
						{
							"internalType": "address",
							"name": "to",
							"type": "address"
						},
						{
							"internalType": "uint256",
							"name": "tokenID",
							"type": "uint256"
						}
					],
					"name": "mintNFT",
					"outputs": [],
					"stateMutability": "nonpayable",
					"type": "function"
				},
				{
					"inputs": [],
					"name": "name",
					"outputs": [
						{
							"internalType": "string",
							"name": "",
							"type": "string"
						}
					],
					"stateMutability": "view",
					"type": "function"
				},
				{
					"inputs": [
						{
							"internalType": "uint256",
							"name": "_tokenID",
							"type": "uint256"
						}
					],
					"name": "ownerOf",
					"outputs": [
						{
							"internalType": "address",
							"name": "",
							"type": "address"
						}
					],
					"stateMutability": "view",
					"type": "function"
				},
				{
					"inputs": [
						{
							"internalType": "address",
							"name": "_from",
							"type": "address"
						},
						{
							"internalType": "address",
							"name": "_to",
							"type": "address"
						},
						{
							"internalType": "uint256",
							"name": "_tokenId",
							"type": "uint256"
						},
						{
							"internalType": "bytes",
							"name": "data",
							"type": "bytes"
						}
					],
					"name": "safeTransferFrom",
					"outputs": [],
					"stateMutability": "payable",
					"type": "function"
				},
				{
					"inputs": [
						{
							"internalType": "address",
							"name": "_operator",
							"type": "address"
						},
						{
							"internalType": "bool",
							"name": "_approved",
							"type": "bool"
						}
					],
					"name": "setApprovalForAll",
					"outputs": [],
					"stateMutability": "nonpayable",
					"type": "function"
				},
				{
					"inputs": [
						{
							"internalType": "bytes4",
							"name": "interfaceId",
							"type": "bytes4"
						}
					],
					"name": "supportsInterface",
					"outputs": [
						{
							"internalType": "bool",
							"name": "",
							"type": "bool"
						}
					],
					"stateMutability": "pure",
					"type": "function"
				},
				{
					"inputs": [],
					"name": "symbol",
					"outputs": [
						{
							"internalType": "string",
							"name": "",
							"type": "string"
						}
					],
					"stateMutability": "view",
					"type": "function"
				},
				{
					"inputs": [
						{
							"internalType": "address",
							"name": "_from",
							"type": "address"
						},
						{
							"internalType": "address",
							"name": "_to",
							"type": "address"
						},
						{
							"internalType": "uint256",
							"name": "_tokenId",
							"type": "uint256"
						}
					],
					"name": "transferFrom",
					"outputs": [],
					"stateMutability": "payable",
					"type": "function"
				}
			],
			"devdoc": {
				"kind": "dev",
				"methods": {},
				"version": 1
			},
			"evm": {
				"assembly": "    /* \"Lecture Note/week12/ERC721StdTokens.sol\":2142:6778  contract ERC721StdNFT is ERC721 {... */\n  mstore(0x40, 0x80)\n    /* \"Lecture Note/week12/ERC721StdTokens.sol\":2484:2759  constructor (string memory _name,... */\n  callvalue\n  dup1\n  iszero\n  tag_1\n  jumpi\n  0x00\n  dup1\n  revert\ntag_1:\n  pop\n  mload(0x40)\n  sub(codesize, bytecodeSize)\n  dup1\n  bytecodeSize\n  dup4\n  codecopy\n  dup2\n  dup2\n  add\n  0x40\n  mstore\n  dup2\n  add\n  swap1\n  tag_2\n  swap2\n  swap1\n  tag_3\n  jump\t// in\ntag_2:\n    /* \"Lecture Note/week12/ERC721StdTokens.sol\":2578:2588  msg.sender */\n  caller\n    /* \"Lecture Note/week12/ERC721StdTokens.sol\":2568:2575  founder */\n  0x00\n  dup1\n    /* \"Lecture Note/week12/ERC721StdTokens.sol\":2568:2588  founder = msg.sender */\n  0x0100\n  exp\n  dup2\n  sload\n  dup2\n  0xffffffffffffffffffffffffffffffffffffffff\n  mul\n  not\n  and\n  swap1\n  dup4\n  0xffffffffffffffffffffffffffffffffffffffff\n  and\n  mul\n  or\n  swap1\n  sstore\n  pop\n    /* \"Lecture Note/week12/ERC721StdTokens.sol\":2605:2610  _name */\n  dup2\n    /* \"Lecture Note/week12/ERC721StdTokens.sol\":2598:2602  name */\n  0x05\n    /* \"Lecture Note/week12/ERC721StdTokens.sol\":2598:2610  name = _name */\n  swap1\n  dup2\n  tag_6\n  swap2\n  swap1\n  tag_7\n  jump\t// in\ntag_6:\n  pop\n    /* \"Lecture Note/week12/ERC721StdTokens.sol\":2629:2636  _symbol */\n  dup1\n    /* \"Lecture Note/week12/ERC721StdTokens.sol\":2620:2626  symbol */\n  0x06\n    /* \"Lecture Note/week12/ERC721StdTokens.sol\":2620:2636  symbol = _symbol */\n  swap1\n  dup2\n  tag_8\n  swap2\n  swap1\n  tag_7\n  jump\t// in\ntag_8:\n  pop\n    /* \"Lecture Note/week12/ERC721StdTokens.sol\":2659:2671  uint tokenID */\n  0x00\n    /* \"Lecture Note/week12/ERC721StdTokens.sol\":2674:2675  1 */\n  0x01\n    /* \"Lecture Note/week12/ERC721StdTokens.sol\":2659:2675  uint tokenID = 1 */\n  swap1\n  pop\n    /* \"Lecture Note/week12/ERC721StdTokens.sol\":2655:2753  for(uint tokenID = 1; tokenID <= 5; tokenID++) {... */\ntag_9:\n    /* \"Lecture Note/week12/ERC721StdTokens.sol\":2688:2689  5 */\n  0x05\n    /* \"Lecture Note/week12/ERC721StdTokens.sol\":2677:2684  tokenID */\n  dup2\n    /* \"Lecture Note/week12/ERC721StdTokens.sol\":2677:2689  tokenID <= 5 */\n  gt\n    /* \"Lecture Note/week12/ERC721StdTokens.sol\":2655:2753  for(uint tokenID = 1; tokenID <= 5; tokenID++) {... */\n  tag_10\n  jumpi\n    /* \"Lecture Note/week12/ERC721StdTokens.sol\":2716:2742  _mint(msg.sender, tokenID) */\n  tag_12\n    /* \"Lecture Note/week12/ERC721StdTokens.sol\":2722:2732  msg.sender */\n  caller\n    /* \"Lecture Note/week12/ERC721StdTokens.sol\":2734:2741  tokenID */\n  dup3\n    /* \"Lecture Note/week12/ERC721StdTokens.sol\":2716:2721  _mint */\n  shl(0x20, tag_13)\n    /* \"Lecture Note/week12/ERC721StdTokens.sol\":2716:2742  _mint(msg.sender, tokenID) */\n  0x20\n  shr\n  jump\t// in\ntag_12:\n    /* \"Lecture Note/week12/ERC721StdTokens.sol\":2691:2700  tokenID++ */\n  dup1\n  dup1\n  tag_14\n  swap1\n  tag_15\n  jump\t// in\ntag_14:\n  swap2\n  pop\n  pop\n    /* \"Lecture Note/week12/ERC721StdTokens.sol\":2655:2753  for(uint tokenID = 1; tokenID <= 5; tokenID++) {... */\n  jump(tag_9)\ntag_10:\n  pop\n    /* \"Lecture Note/week12/ERC721StdTokens.sol\":2484:2759  constructor (string memory _name,... */\n  pop\n  pop\n    /* \"Lecture Note/week12/ERC721StdTokens.sol\":2142:6778  contract ERC721StdNFT is ERC721 {... */\n  jump(tag_16)\n    /* \"Lecture Note/week12/ERC721StdTokens.sol\":2765:3106  function _mint(address to, ... */\ntag_13:\n    /* \"Lecture Note/week12/ERC721StdTokens.sol\":2874:2875  0 */\n  0x00\n    /* \"Lecture Note/week12/ERC721StdTokens.sol\":2860:2876  to != address(0) */\n  0xffffffffffffffffffffffffffffffffffffffff\n  and\n    /* \"Lecture Note/week12/ERC721StdTokens.sol\":2860:2862  to */\n  dup3\n    /* \"Lecture Note/week12/ERC721StdTokens.sol\":2860:2876  to != address(0) */\n  0xffffffffffffffffffffffffffffffffffffffff\n  and\n  sub\n    /* \"Lecture Note/week12/ERC721StdTokens.sol\":2852:2909  require(to != address(0), \"Error : mint to zero address\") */\n  tag_18\n  jumpi\n  mload(0x40)\n  0x08c379a000000000000000000000000000000000000000000000000000000000\n  dup2\n  mstore\n  0x04\n  add\n  tag_19\n  swap1\n  tag_20\n  jump\t// in\ntag_19:\n  mload(0x40)\n  dup1\n  swap2\n  sub\n  swap1\n  revert\ntag_18:\n    /* \"Lecture Note/week12/ERC721StdTokens.sol\":2955:2956  0 */\n  0x00\n    /* \"Lecture Note/week12/ERC721StdTokens.sol\":2931:2957  _ownerOf[id] == address(0) */\n  0xffffffffffffffffffffffffffffffffffffffff\n  and\n    /* \"Lecture Note/week12/ERC721StdTokens.sol\":2931:2939  _ownerOf */\n  0x01\n    /* \"Lecture Note/week12/ERC721StdTokens.sol\":2931:2943  _ownerOf[id] */\n  0x00\n    /* \"Lecture Note/week12/ERC721StdTokens.sol\":2940:2942  id */\n  dup4\n    /* \"Lecture Note/week12/ERC721StdTokens.sol\":2931:2943  _ownerOf[id] */\n  dup2\n  mstore\n  0x20\n  add\n  swap1\n  dup2\n  mstore\n  0x20\n  add\n  0x00\n  keccak256\n  0x00\n  swap1\n  sload\n  swap1\n  0x0100\n  exp\n  swap1\n  div\n  0xffffffffffffffffffffffffffffffffffffffff\n  and\n    /* \"Lecture Note/week12/ERC721StdTokens.sol\":2931:2957  _ownerOf[id] == address(0) */\n  0xffffffffffffffffffffffffffffffffffffffff\n  and\n  eq\n    /* \"Lecture Note/week12/ERC721StdTokens.sol\":2923:2985  require(_ownerOf[id] == address(0), \"Error : Already minted!\") */\n  tag_21\n  jumpi\n  mload(0x40)\n  0x08c379a000000000000000000000000000000000000000000000000000000000\n  dup2\n  mstore\n  0x04\n  add\n  tag_22\n  swap1\n  tag_23\n  jump\t// in\ntag_22:\n  mload(0x40)\n  dup1\n  swap2\n  sub\n  swap1\n  revert\ntag_21:\n    /* \"Lecture Note/week12/ERC721StdTokens.sol\":3000:3010  _balanceOf */\n  0x02\n    /* \"Lecture Note/week12/ERC721StdTokens.sol\":3000:3014  _balanceOf[to] */\n  0x00\n    /* \"Lecture Note/week12/ERC721StdTokens.sol\":3011:3013  to */\n  dup4\n    /* \"Lecture Note/week12/ERC721StdTokens.sol\":3000:3014  _balanceOf[to] */\n  0xffffffffffffffffffffffffffffffffffffffff\n  and\n  0xffffffffffffffffffffffffffffffffffffffff\n  and\n  dup2\n  mstore\n  0x20\n  add\n  swap1\n  dup2\n  mstore\n  0x20\n  add\n  0x00\n  keccak256\n  0x00\n    /* \"Lecture Note/week12/ERC721StdTokens.sol\":3000:3016  _balanceOf[to]++ */\n  dup2\n  sload\n  dup1\n  swap3\n  swap2\n  swap1\n  tag_24\n  swap1\n  tag_15\n  jump\t// in\ntag_24:\n  swap2\n  swap1\n  pop\n  sstore\n  pop\n    /* \"Lecture Note/week12/ERC721StdTokens.sol\":3045:3047  to */\n  dup2\n    /* \"Lecture Note/week12/ERC721StdTokens.sol\":3030:3038  _ownerOf */\n  0x01\n    /* \"Lecture Note/week12/ERC721StdTokens.sol\":3030:3042  _ownerOf[id] */\n  0x00\n    /* \"Lecture Note/week12/ERC721StdTokens.sol\":3039:3041  id */\n  dup4\n    /* \"Lecture Note/week12/ERC721StdTokens.sol\":3030:3042  _ownerOf[id] */\n  dup2\n  mstore\n  0x20\n  add\n  swap1\n  dup2\n  mstore\n  0x20\n  add\n  0x00\n  keccak256\n  0x00\n    /* \"Lecture Note/week12/ERC721StdTokens.sol\":3030:3047  _ownerOf[id] = to */\n  0x0100\n  exp\n  dup2\n  sload\n  dup2\n  0xffffffffffffffffffffffffffffffffffffffff\n  mul\n  not\n  and\n  swap1\n  dup4\n  0xffffffffffffffffffffffffffffffffffffffff\n  and\n  mul\n  or\n  swap1\n  sstore\n  pop\n    /* \"Lecture Note/week12/ERC721StdTokens.sol\":3092:3094  id */\n  dup1\n    /* \"Lecture Note/week12/ERC721StdTokens.sol\":3088:3090  to */\n  dup3\n    /* \"Lecture Note/week12/ERC721StdTokens.sol\":3067:3095  Transfer(address(0), to, id) */\n  0xffffffffffffffffffffffffffffffffffffffff\n  and\n    /* \"Lecture Note/week12/ERC721StdTokens.sol\":3084:3085  0 */\n  0x00\n    /* \"Lecture Note/week12/ERC721StdTokens.sol\":3067:3095  Transfer(address(0), to, id) */\n  0xffffffffffffffffffffffffffffffffffffffff\n  and\n  0xddf252ad1be2c89b69c2b068fc378daa952ba7f163c4a11628f55a4df523b3ef\n  mload(0x40)\n  mload(0x40)\n  dup1\n  swap2\n  sub\n  swap1\n  log4\n    /* \"Lecture Note/week12/ERC721StdTokens.sol\":2765:3106  function _mint(address to, ... */\n  pop\n  pop\n  jump\t// out\n    /* \"#utility.yul\":7:82   */\ntag_25:\n    /* \"#utility.yul\":40:46   */\n  0x00\n    /* \"#utility.yul\":73:75   */\n  0x40\n    /* \"#utility.yul\":67:76   */\n  mload\n    /* \"#utility.yul\":57:76   */\n  swap1\n  pop\n    /* \"#utility.yul\":7:82   */\n  swap1\n  jump\t// out\n    /* \"#utility.yul\":88:205   */\ntag_26:\n    /* \"#utility.yul\":197:198   */\n  0x00\n    /* \"#utility.yul\":194:195   */\n  dup1\n    /* \"#utility.yul\":187:199   */\n  revert\n    /* \"#utility.yul\":211:328   */\ntag_27:\n    /* \"#utility.yul\":320:321   */\n  0x00\n    /* \"#utility.yul\":317:318   */\n  dup1\n    /* \"#utility.yul\":310:322   */\n  revert\n    /* \"#utility.yul\":334:451   */\ntag_28:\n    /* \"#utility.yul\":443:444   */\n  0x00\n    /* \"#utility.yul\":440:441   */\n  dup1\n    /* \"#utility.yul\":433:445   */\n  revert\n    /* \"#utility.yul\":457:574   */\ntag_29:\n    /* \"#utility.yul\":566:567   */\n  0x00\n    /* \"#utility.yul\":563:564   */\n  dup1\n    /* \"#utility.yul\":556:568   */\n  revert\n    /* \"#utility.yul\":580:682   */\ntag_30:\n    /* \"#utility.yul\":621:627   */\n  0x00\n    /* \"#utility.yul\":672:674   */\n  0x1f\n    /* \"#utility.yul\":668:675   */\n  not\n    /* \"#utility.yul\":663:665   */\n  0x1f\n    /* \"#utility.yul\":656:661   */\n  dup4\n    /* \"#utility.yul\":652:666   */\n  add\n    /* \"#utility.yul\":648:676   */\n  and\n    /* \"#utility.yul\":638:676   */\n  swap1\n  pop\n    /* \"#utility.yul\":580:682   */\n  swap2\n  swap1\n  pop\n  jump\t// out\n    /* \"#utility.yul\":688:868   */\ntag_31:\n    /* \"#utility.yul\":736:813   */\n  0x4e487b7100000000000000000000000000000000000000000000000000000000\n    /* \"#utility.yul\":733:734   */\n  0x00\n    /* \"#utility.yul\":726:814   */\n  mstore\n    /* \"#utility.yul\":833:837   */\n  0x41\n    /* \"#utility.yul\":830:831   */\n  0x04\n    /* \"#utility.yul\":823:838   */\n  mstore\n    /* \"#utility.yul\":857:861   */\n  0x24\n    /* \"#utility.yul\":854:855   */\n  0x00\n    /* \"#utility.yul\":847:862   */\n  revert\n    /* \"#utility.yul\":874:1155   */\ntag_32:\n    /* \"#utility.yul\":957:984   */\n  tag_72\n    /* \"#utility.yul\":979:983   */\n  dup3\n    /* \"#utility.yul\":957:984   */\n  tag_30\n  jump\t// in\ntag_72:\n    /* \"#utility.yul\":949:955   */\n  dup2\n    /* \"#utility.yul\":945:985   */\n  add\n    /* \"#utility.yul\":1087:1093   */\n  dup2\n    /* \"#utility.yul\":1075:1085   */\n  dup2\n    /* \"#utility.yul\":1072:1094   */\n  lt\n    /* \"#utility.yul\":1051:1069   */\n  0xffffffffffffffff\n    /* \"#utility.yul\":1039:1049   */\n  dup3\n    /* \"#utility.yul\":1036:1070   */\n  gt\n    /* \"#utility.yul\":1033:1095   */\n  or\n    /* \"#utility.yul\":1030:1118   */\n  iszero\n  tag_73\n  jumpi\n    /* \"#utility.yul\":1098:1116   */\n  tag_74\n  tag_31\n  jump\t// in\ntag_74:\n    /* \"#utility.yul\":1030:1118   */\ntag_73:\n    /* \"#utility.yul\":1138:1148   */\n  dup1\n    /* \"#utility.yul\":1134:1136   */\n  0x40\n    /* \"#utility.yul\":1127:1149   */\n  mstore\n    /* \"#utility.yul\":917:1155   */\n  pop\n    /* \"#utility.yul\":874:1155   */\n  pop\n  pop\n  jump\t// out\n    /* \"#utility.yul\":1161:1290   */\ntag_33:\n    /* \"#utility.yul\":1195:1201   */\n  0x00\n    /* \"#utility.yul\":1222:1242   */\n  tag_76\n  tag_25\n  jump\t// in\ntag_76:\n    /* \"#utility.yul\":1212:1242   */\n  swap1\n  pop\n    /* \"#utility.yul\":1251:1284   */\n  tag_77\n    /* \"#utility.yul\":1279:1283   */\n  dup3\n    /* \"#utility.yul\":1271:1277   */\n  dup3\n    /* \"#utility.yul\":1251:1284   */\n  tag_32\n  jump\t// in\ntag_77:\n    /* \"#utility.yul\":1161:1290   */\n  swap2\n  swap1\n  pop\n  jump\t// out\n    /* \"#utility.yul\":1296:1604   */\ntag_34:\n    /* \"#utility.yul\":1358:1362   */\n  0x00\n    /* \"#utility.yul\":1448:1466   */\n  0xffffffffffffffff\n    /* \"#utility.yul\":1440:1446   */\n  dup3\n    /* \"#utility.yul\":1437:1467   */\n  gt\n    /* \"#utility.yul\":1434:1490   */\n  iszero\n  tag_79\n  jumpi\n    /* \"#utility.yul\":1470:1488   */\n  tag_80\n  tag_31\n  jump\t// in\ntag_80:\n    /* \"#utility.yul\":1434:1490   */\ntag_79:\n    /* \"#utility.yul\":1508:1537   */\n  tag_81\n    /* \"#utility.yul\":1530:1536   */\n  dup3\n    /* \"#utility.yul\":1508:1537   */\n  tag_30\n  jump\t// in\ntag_81:\n    /* \"#utility.yul\":1500:1537   */\n  swap1\n  pop\n    /* \"#utility.yul\":1592:1596   */\n  0x20\n    /* \"#utility.yul\":1586:1590   */\n  dup2\n    /* \"#utility.yul\":1582:1597   */\n  add\n    /* \"#utility.yul\":1574:1597   */\n  swap1\n  pop\n    /* \"#utility.yul\":1296:1604   */\n  swap2\n  swap1\n  pop\n  jump\t// out\n    /* \"#utility.yul\":1610:1856   */\ntag_35:\n    /* \"#utility.yul\":1691:1692   */\n  0x00\n    /* \"#utility.yul\":1701:1814   */\ntag_83:\n    /* \"#utility.yul\":1715:1721   */\n  dup4\n    /* \"#utility.yul\":1712:1713   */\n  dup2\n    /* \"#utility.yul\":1709:1722   */\n  lt\n    /* \"#utility.yul\":1701:1814   */\n  iszero\n  tag_85\n  jumpi\n    /* \"#utility.yul\":1800:1801   */\n  dup1\n    /* \"#utility.yul\":1795:1798   */\n  dup3\n    /* \"#utility.yul\":1791:1802   */\n  add\n    /* \"#utility.yul\":1785:1803   */\n  mload\n    /* \"#utility.yul\":1781:1782   */\n  dup2\n    /* \"#utility.yul\":1776:1779   */\n  dup5\n    /* \"#utility.yul\":1772:1783   */\n  add\n    /* \"#utility.yul\":1765:1804   */\n  mstore\n    /* \"#utility.yul\":1737:1739   */\n  0x20\n    /* \"#utility.yul\":1734:1735   */\n  dup2\n    /* \"#utility.yul\":1730:1740   */\n  add\n    /* \"#utility.yul\":1725:1740   */\n  swap1\n  pop\n    /* \"#utility.yul\":1701:1814   */\n  jump(tag_83)\ntag_85:\n    /* \"#utility.yul\":1848:1849   */\n  0x00\n    /* \"#utility.yul\":1839:1845   */\n  dup5\n    /* \"#utility.yul\":1834:1837   */\n  dup5\n    /* \"#utility.yul\":1830:1846   */\n  add\n    /* \"#utility.yul\":1823:1850   */\n  mstore\n    /* \"#utility.yul\":1672:1856   */\n  pop\n    /* \"#utility.yul\":1610:1856   */\n  pop\n  pop\n  pop\n  jump\t// out\n    /* \"#utility.yul\":1862:2296   */\ntag_36:\n    /* \"#utility.yul\":1951:1956   */\n  0x00\n    /* \"#utility.yul\":1976:2042   */\n  tag_87\n    /* \"#utility.yul\":1992:2041   */\n  tag_88\n    /* \"#utility.yul\":2034:2040   */\n  dup5\n    /* \"#utility.yul\":1992:2041   */\n  tag_34\n  jump\t// in\ntag_88:\n    /* \"#utility.yul\":1976:2042   */\n  tag_33\n  jump\t// in\ntag_87:\n    /* \"#utility.yul\":1967:2042   */\n  swap1\n  pop\n    /* \"#utility.yul\":2065:2071   */\n  dup3\n    /* \"#utility.yul\":2058:2063   */\n  dup2\n    /* \"#utility.yul\":2051:2072   */\n  mstore\n    /* \"#utility.yul\":2103:2107   */\n  0x20\n    /* \"#utility.yul\":2096:2101   */\n  dup2\n    /* \"#utility.yul\":2092:2108   */\n  add\n    /* \"#utility.yul\":2141:2144   */\n  dup5\n    /* \"#utility.yul\":2132:2138   */\n  dup5\n    /* \"#utility.yul\":2127:2130   */\n  dup5\n    /* \"#utility.yul\":2123:2139   */\n  add\n    /* \"#utility.yul\":2120:2145   */\n  gt\n    /* \"#utility.yul\":2117:2229   */\n  iszero\n  tag_89\n  jumpi\n    /* \"#utility.yul\":2148:2227   */\n  tag_90\n  tag_29\n  jump\t// in\ntag_90:\n    /* \"#utility.yul\":2117:2229   */\ntag_89:\n    /* \"#utility.yul\":2238:2290   */\n  tag_91\n    /* \"#utility.yul\":2283:2289   */\n  dup5\n    /* \"#utility.yul\":2278:2281   */\n  dup3\n    /* \"#utility.yul\":2273:2276   */\n  dup6\n    /* \"#utility.yul\":2238:2290   */\n  tag_35\n  jump\t// in\ntag_91:\n    /* \"#utility.yul\":1957:2296   */\n  pop\n    /* \"#utility.yul\":1862:2296   */\n  swap4\n  swap3\n  pop\n  pop\n  pop\n  jump\t// out\n    /* \"#utility.yul\":2316:2671   */\ntag_37:\n    /* \"#utility.yul\":2383:2388   */\n  0x00\n    /* \"#utility.yul\":2432:2435   */\n  dup3\n    /* \"#utility.yul\":2425:2429   */\n  0x1f\n    /* \"#utility.yul\":2417:2423   */\n  dup4\n    /* \"#utility.yul\":2413:2430   */\n  add\n    /* \"#utility.yul\":2409:2436   */\n  slt\n    /* \"#utility.yul\":2399:2521   */\n  tag_93\n  jumpi\n    /* \"#utility.yul\":2440:2519   */\n  tag_94\n  tag_28\n  jump\t// in\ntag_94:\n    /* \"#utility.yul\":2399:2521   */\ntag_93:\n    /* \"#utility.yul\":2550:2556   */\n  dup2\n    /* \"#utility.yul\":2544:2557   */\n  mload\n    /* \"#utility.yul\":2575:2665   */\n  tag_95\n    /* \"#utility.yul\":2661:2664   */\n  dup5\n    /* \"#utility.yul\":2653:2659   */\n  dup3\n    /* \"#utility.yul\":2646:2650   */\n  0x20\n    /* \"#utility.yul\":2638:2644   */\n  dup7\n    /* \"#utility.yul\":2634:2651   */\n  add\n    /* \"#utility.yul\":2575:2665   */\n  tag_36\n  jump\t// in\ntag_95:\n    /* \"#utility.yul\":2566:2665   */\n  swap2\n  pop\n    /* \"#utility.yul\":2389:2671   */\n  pop\n    /* \"#utility.yul\":2316:2671   */\n  swap3\n  swap2\n  pop\n  pop\n  jump\t// out\n    /* \"#utility.yul\":2677:3530   */\ntag_3:\n    /* \"#utility.yul\":2776:2782   */\n  0x00\n    /* \"#utility.yul\":2784:2790   */\n  dup1\n    /* \"#utility.yul\":2833:2835   */\n  0x40\n    /* \"#utility.yul\":2821:2830   */\n  dup4\n    /* \"#utility.yul\":2812:2819   */\n  dup6\n    /* \"#utility.yul\":2808:2831   */\n  sub\n    /* \"#utility.yul\":2804:2836   */\n  slt\n    /* \"#utility.yul\":2801:2920   */\n  iszero\n  tag_97\n  jumpi\n    /* \"#utility.yul\":2839:2918   */\n  tag_98\n  tag_26\n  jump\t// in\ntag_98:\n    /* \"#utility.yul\":2801:2920   */\ntag_97:\n    /* \"#utility.yul\":2980:2981   */\n  0x00\n    /* \"#utility.yul\":2969:2978   */\n  dup4\n    /* \"#utility.yul\":2965:2982   */\n  add\n    /* \"#utility.yul\":2959:2983   */\n  mload\n    /* \"#utility.yul\":3010:3028   */\n  0xffffffffffffffff\n    /* \"#utility.yul\":3002:3008   */\n  dup2\n    /* \"#utility.yul\":2999:3029   */\n  gt\n    /* \"#utility.yul\":2996:3113   */\n  iszero\n  tag_99\n  jumpi\n    /* \"#utility.yul\":3032:3111   */\n  tag_100\n  tag_27\n  jump\t// in\ntag_100:\n    /* \"#utility.yul\":2996:3113   */\ntag_99:\n    /* \"#utility.yul\":3137:3211   */\n  tag_101\n    /* \"#utility.yul\":3203:3210   */\n  dup6\n    /* \"#utility.yul\":3194:3200   */\n  dup3\n    /* \"#utility.yul\":3183:3192   */\n  dup7\n    /* \"#utility.yul\":3179:3201   */\n  add\n    /* \"#utility.yul\":3137:3211   */\n  tag_37\n  jump\t// in\ntag_101:\n    /* \"#utility.yul\":3127:3211   */\n  swap3\n  pop\n    /* \"#utility.yul\":2930:3221   */\n  pop\n    /* \"#utility.yul\":3281:3283   */\n  0x20\n    /* \"#utility.yul\":3270:3279   */\n  dup4\n    /* \"#utility.yul\":3266:3284   */\n  add\n    /* \"#utility.yul\":3260:3285   */\n  mload\n    /* \"#utility.yul\":3312:3330   */\n  0xffffffffffffffff\n    /* \"#utility.yul\":3304:3310   */\n  dup2\n    /* \"#utility.yul\":3301:3331   */\n  gt\n    /* \"#utility.yul\":3298:3415   */\n  iszero\n  tag_102\n  jumpi\n    /* \"#utility.yul\":3334:3413   */\n  tag_103\n  tag_27\n  jump\t// in\ntag_103:\n    /* \"#utility.yul\":3298:3415   */\ntag_102:\n    /* \"#utility.yul\":3439:3513   */\n  tag_104\n    /* \"#utility.yul\":3505:3512   */\n  dup6\n    /* \"#utility.yul\":3496:3502   */\n  dup3\n    /* \"#utility.yul\":3485:3494   */\n  dup7\n    /* \"#utility.yul\":3481:3503   */\n  add\n    /* \"#utility.yul\":3439:3513   */\n  tag_37\n  jump\t// in\ntag_104:\n    /* \"#utility.yul\":3429:3513   */\n  swap2\n  pop\n    /* \"#utility.yul\":3231:3523   */\n  pop\n    /* \"#utility.yul\":2677:3530   */\n  swap3\n  pop\n  swap3\n  swap1\n  pop\n  jump\t// out\n    /* \"#utility.yul\":3536:3635   */\ntag_38:\n    /* \"#utility.yul\":3588:3594   */\n  0x00\n    /* \"#utility.yul\":3622:3627   */\n  dup2\n    /* \"#utility.yul\":3616:3628   */\n  mload\n    /* \"#utility.yul\":3606:3628   */\n  swap1\n  pop\n    /* \"#utility.yul\":3536:3635   */\n  swap2\n  swap1\n  pop\n  jump\t// out\n    /* \"#utility.yul\":3641:3821   */\ntag_39:\n    /* \"#utility.yul\":3689:3766   */\n  0x4e487b7100000000000000000000000000000000000000000000000000000000\n    /* \"#utility.yul\":3686:3687   */\n  0x00\n    /* \"#utility.yul\":3679:3767   */\n  mstore\n    /* \"#utility.yul\":3786:3790   */\n  0x22\n    /* \"#utility.yul\":3783:3784   */\n  0x04\n    /* \"#utility.yul\":3776:3791   */\n  mstore\n    /* \"#utility.yul\":3810:3814   */\n  0x24\n    /* \"#utility.yul\":3807:3808   */\n  0x00\n    /* \"#utility.yul\":3800:3815   */\n  revert\n    /* \"#utility.yul\":3827:4147   */\ntag_40:\n    /* \"#utility.yul\":3871:3877   */\n  0x00\n    /* \"#utility.yul\":3908:3909   */\n  0x02\n    /* \"#utility.yul\":3902:3906   */\n  dup3\n    /* \"#utility.yul\":3898:3910   */\n  div\n    /* \"#utility.yul\":3888:3910   */\n  swap1\n  pop\n    /* \"#utility.yul\":3955:3956   */\n  0x01\n    /* \"#utility.yul\":3949:3953   */\n  dup3\n    /* \"#utility.yul\":3945:3957   */\n  and\n    /* \"#utility.yul\":3976:3994   */\n  dup1\n    /* \"#utility.yul\":3966:4047   */\n  tag_108\n  jumpi\n    /* \"#utility.yul\":4032:4036   */\n  0x7f\n    /* \"#utility.yul\":4024:4030   */\n  dup3\n    /* \"#utility.yul\":4020:4037   */\n  and\n    /* \"#utility.yul\":4010:4037   */\n  swap2\n  pop\n    /* \"#utility.yul\":3966:4047   */\ntag_108:\n    /* \"#utility.yul\":4094:4096   */\n  0x20\n    /* \"#utility.yul\":4086:4092   */\n  dup3\n    /* \"#utility.yul\":4083:4097   */\n  lt\n    /* \"#utility.yul\":4063:4081   */\n  dup2\n    /* \"#utility.yul\":4060:4098   */\n  sub\n    /* \"#utility.yul\":4057:4141   */\n  tag_109\n  jumpi\n    /* \"#utility.yul\":4113:4131   */\n  tag_110\n  tag_39\n  jump\t// in\ntag_110:\n    /* \"#utility.yul\":4057:4141   */\ntag_109:\n    /* \"#utility.yul\":3878:4147   */\n  pop\n    /* \"#utility.yul\":3827:4147   */\n  swap2\n  swap1\n  pop\n  jump\t// out\n    /* \"#utility.yul\":4153:4294   */\ntag_41:\n    /* \"#utility.yul\":4202:4206   */\n  0x00\n    /* \"#utility.yul\":4225:4228   */\n  dup2\n    /* \"#utility.yul\":4217:4228   */\n  swap1\n  pop\n    /* \"#utility.yul\":4248:4251   */\n  dup2\n    /* \"#utility.yul\":4245:4246   */\n  0x00\n    /* \"#utility.yul\":4238:4252   */\n  mstore\n    /* \"#utility.yul\":4282:4286   */\n  0x20\n    /* \"#utility.yul\":4279:4280   */\n  0x00\n    /* \"#utility.yul\":4269:4287   */\n  keccak256\n    /* \"#utility.yul\":4261:4287   */\n  swap1\n  pop\n    /* \"#utility.yul\":4153:4294   */\n  swap2\n  swap1\n  pop\n  jump\t// out\n    /* \"#utility.yul\":4300:4393   */\ntag_42:\n    /* \"#utility.yul\":4337:4343   */\n  0x00\n    /* \"#utility.yul\":4384:4386   */\n  0x20\n    /* \"#utility.yul\":4379:4381   */\n  0x1f\n    /* \"#utility.yul\":4372:4377   */\n  dup4\n    /* \"#utility.yul\":4368:4382   */\n  add\n    /* \"#utility.yul\":4364:4387   */\n  div\n    /* \"#utility.yul\":4354:4387   */\n  swap1\n  pop\n    /* \"#utility.yul\":4300:4393   */\n  swap2\n  swap1\n  pop\n  jump\t// out\n    /* \"#utility.yul\":4399:4506   */\ntag_43:\n    /* \"#utility.yul\":4443:4451   */\n  0x00\n    /* \"#utility.yul\":4493:4498   */\n  dup3\n    /* \"#utility.yul\":4487:4491   */\n  dup3\n    /* \"#utility.yul\":4483:4499   */\n  shl\n    /* \"#utility.yul\":4462:4499   */\n  swap1\n  pop\n    /* \"#utility.yul\":4399:4506   */\n  swap3\n  swap2\n  pop\n  pop\n  jump\t// out\n    /* \"#utility.yul\":4512:4905   */\ntag_44:\n    /* \"#utility.yul\":4581:4587   */\n  0x00\n    /* \"#utility.yul\":4631:4632   */\n  0x08\n    /* \"#utility.yul\":4619:4629   */\n  dup4\n    /* \"#utility.yul\":4615:4633   */\n  mul\n    /* \"#utility.yul\":4654:4751   */\n  tag_115\n    /* \"#utility.yul\":4684:4750   */\n  0xffffffffffffffffffffffffffffffffffffffffffffffffffffffffffffffff\n    /* \"#utility.yul\":4673:4682   */\n  dup3\n    /* \"#utility.yul\":4654:4751   */\n  tag_43\n  jump\t// in\ntag_115:\n    /* \"#utility.yul\":4772:4811   */\n  tag_116\n    /* \"#utility.yul\":4802:4810   */\n  dup7\n    /* \"#utility.yul\":4791:4800   */\n  dup4\n    /* \"#utility.yul\":4772:4811   */\n  tag_43\n  jump\t// in\ntag_116:\n    /* \"#utility.yul\":4760:4811   */\n  swap6\n  pop\n    /* \"#utility.yul\":4844:4848   */\n  dup1\n    /* \"#utility.yul\":4840:4849   */\n  not\n    /* \"#utility.yul\":4833:4838   */\n  dup5\n    /* \"#utility.yul\":4829:4850   */\n  and\n    /* \"#utility.yul\":4820:4850   */\n  swap4\n  pop\n    /* \"#utility.yul\":4893:4897   */\n  dup1\n    /* \"#utility.yul\":4883:4891   */\n  dup7\n    /* \"#utility.yul\":4879:4898   */\n  and\n    /* \"#utility.yul\":4872:4877   */\n  dup5\n    /* \"#utility.yul\":4869:4899   */\n  or\n    /* \"#utility.yul\":4859:4899   */\n  swap3\n  pop\n    /* \"#utility.yul\":4588:4905   */\n  pop\n  pop\n    /* \"#utility.yul\":4512:4905   */\n  swap4\n  swap3\n  pop\n  pop\n  pop\n  jump\t// out\n    /* \"#utility.yul\":4911:4988   */\ntag_45:\n    /* \"#utility.yul\":4948:4955   */\n  0x00\n    /* \"#utility.yul\":4977:4982   */\n  dup2\n    /* \"#utility.yul\":4966:4982   */\n  swap1\n  pop\n    /* \"#utility.yul\":4911:4988   */\n  swap2\n  swap1\n  pop\n  jump\t// out\n    /* \"#utility.yul\":4994:5054   */\ntag_46:\n    /* \"#utility.yul\":5022:5025   */\n  0x00\n    /* \"#utility.yul\":5043:5048   */\n  dup2\n    /* \"#utility.yul\":5036:5048   */\n  swap1\n  pop\n    /* \"#utility.yul\":4994:5054   */\n  swap2\n  swap1\n  pop\n  jump\t// out\n    /* \"#utility.yul\":5060:5202   */\ntag_47:\n    /* \"#utility.yul\":5110:5119   */\n  0x00\n    /* \"#utility.yul\":5143:5196   */\n  tag_120\n    /* \"#utility.yul\":5161:5195   */\n  tag_121\n    /* \"#utility.yul\":5170:5194   */\n  tag_122\n    /* \"#utility.yul\":5188:5193   */\n  dup5\n    /* \"#utility.yul\":5170:5194   */\n  tag_45\n  jump\t// in\ntag_122:\n    /* \"#utility.yul\":5161:5195   */\n  tag_46\n  jump\t// in\ntag_121:\n    /* \"#utility.yul\":5143:5196   */\n  tag_45\n  jump\t// in\ntag_120:\n    /* \"#utility.yul\":5130:5196   */\n  swap1\n  pop\n    /* \"#utility.yul\":5060:5202   */\n  swap2\n  swap1\n  pop\n  jump\t// out\n    /* \"#utility.yul\":5208:5283   */\ntag_48:\n    /* \"#utility.yul\":5251:5254   */\n  0x00\n    /* \"#utility.yul\":5272:5277   */\n  dup2\n    /* \"#utility.yul\":5265:5277   */\n  swap1\n  pop\n    /* \"#utility.yul\":5208:5283   */\n  swap2\n  swap1\n  pop\n  jump\t// out\n    /* \"#utility.yul\":5289:5558   */\ntag_49:\n    /* \"#utility.yul\":5399:5438   */\n  tag_125\n    /* \"#utility.yul\":5430:5437   */\n  dup4\n    /* \"#utility.yul\":5399:5438   */\n  tag_47\n  jump\t// in\ntag_125:\n    /* \"#utility.yul\":5460:5551   */\n  tag_126\n    /* \"#utility.yul\":5509:5550   */\n  tag_127\n    /* \"#utility.yul\":5533:5549   */\n  dup3\n    /* \"#utility.yul\":5509:5550   */\n  tag_48\n  jump\t// in\ntag_127:\n    /* \"#utility.yul\":5501:5507   */\n  dup5\n    /* \"#utility.yul\":5494:5498   */\n  dup5\n    /* \"#utility.yul\":5488:5499   */\n  sload\n    /* \"#utility.yul\":5460:5551   */\n  tag_44\n  jump\t// in\ntag_126:\n    /* \"#utility.yul\":5454:5458   */\n  dup3\n    /* \"#utility.yul\":5447:5552   */\n  sstore\n    /* \"#utility.yul\":5365:5558   */\n  pop\n    /* \"#utility.yul\":5289:5558   */\n  pop\n  pop\n  pop\n  jump\t// out\n    /* \"#utility.yul\":5564:5637   */\ntag_50:\n    /* \"#utility.yul\":5609:5612   */\n  0x00\n    /* \"#utility.yul\":5564:5637   */\n  swap1\n  jump\t// out\n    /* \"#utility.yul\":5643:5832   */\ntag_51:\n    /* \"#utility.yul\":5720:5752   */\n  tag_130\n  tag_50\n  jump\t// in\ntag_130:\n    /* \"#utility.yul\":5761:5826   */\n  tag_131\n    /* \"#utility.yul\":5819:5825   */\n  dup2\n    /* \"#utility.yul\":5811:5817   */\n  dup5\n    /* \"#utility.yul\":5805:5809   */\n  dup5\n    /* \"#utility.yul\":5761:5826   */\n  tag_49\n  jump\t// in\ntag_131:\n    /* \"#utility.yul\":5696:5832   */\n  pop\n    /* \"#utility.yul\":5643:5832   */\n  pop\n  pop\n  jump\t// out\n    /* \"#utility.yul\":5838:6024   */\ntag_52:\n    /* \"#utility.yul\":5898:6018   */\ntag_133:\n    /* \"#utility.yul\":5915:5918   */\n  dup2\n    /* \"#utility.yul\":5908:5913   */\n  dup2\n    /* \"#utility.yul\":5905:5919   */\n  lt\n    /* \"#utility.yul\":5898:6018   */\n  iszero\n  tag_135\n  jumpi\n    /* \"#utility.yul\":5969:6008   */\n  tag_136\n    /* \"#utility.yul\":6006:6007   */\n  0x00\n    /* \"#utility.yul\":5999:6004   */\n  dup3\n    /* \"#utility.yul\":5969:6008   */\n  tag_51\n  jump\t// in\ntag_136:\n    /* \"#utility.yul\":5942:5943   */\n  0x01\n    /* \"#utility.yul\":5935:5940   */\n  dup2\n    /* \"#utility.yul\":5931:5944   */\n  add\n    /* \"#utility.yul\":5922:5944   */\n  swap1\n  pop\n    /* \"#utility.yul\":5898:6018   */\n  jump(tag_133)\ntag_135:\n    /* \"#utility.yul\":5838:6024   */\n  pop\n  pop\n  jump\t// out\n    /* \"#utility.yul\":6030:6573   */\ntag_53:\n    /* \"#utility.yul\":6131:6133   */\n  0x1f\n    /* \"#utility.yul\":6126:6129   */\n  dup3\n    /* \"#utility.yul\":6123:6134   */\n  gt\n    /* \"#utility.yul\":6120:6566   */\n  iszero\n  tag_138\n  jumpi\n    /* \"#utility.yul\":6165:6203   */\n  tag_139\n    /* \"#utility.yul\":6197:6202   */\n  dup2\n    /* \"#utility.yul\":6165:6203   */\n  tag_41\n  jump\t// in\ntag_139:\n    /* \"#utility.yul\":6249:6278   */\n  tag_140\n    /* \"#utility.yul\":6267:6277   */\n  dup5\n    /* \"#utility.yul\":6249:6278   */\n  tag_42\n  jump\t// in\ntag_140:\n    /* \"#utility.yul\":6239:6247   */\n  dup2\n    /* \"#utility.yul\":6235:6279   */\n  add\n    /* \"#utility.yul\":6432:6434   */\n  0x20\n    /* \"#utility.yul\":6420:6430   */\n  dup6\n    /* \"#utility.yul\":6417:6435   */\n  lt\n    /* \"#utility.yul\":6414:6463   */\n  iszero\n  tag_141\n  jumpi\n    /* \"#utility.yul\":6453:6461   */\n  dup2\n    /* \"#utility.yul\":6438:6461   */\n  swap1\n  pop\n    /* \"#utility.yul\":6414:6463   */\ntag_141:\n    /* \"#utility.yul\":6476:6556   */\n  tag_142\n    /* \"#utility.yul\":6532:6554   */\n  tag_143\n    /* \"#utility.yul\":6550:6553   */\n  dup6\n    /* \"#utility.yul\":6532:6554   */\n  tag_42\n  jump\t// in\ntag_143:\n    /* \"#utility.yul\":6522:6530   */\n  dup4\n    /* \"#utility.yul\":6518:6555   */\n  add\n    /* \"#utility.yul\":6505:6516   */\n  dup3\n    /* \"#utility.yul\":6476:6556   */\n  tag_52\n  jump\t// in\ntag_142:\n    /* \"#utility.yul\":6135:6566   */\n  pop\n  pop\n    /* \"#utility.yul\":6120:6566   */\ntag_138:\n    /* \"#utility.yul\":6030:6573   */\n  pop\n  pop\n  pop\n  jump\t// out\n    /* \"#utility.yul\":6579:6696   */\ntag_54:\n    /* \"#utility.yul\":6633:6641   */\n  0x00\n    /* \"#utility.yul\":6683:6688   */\n  dup3\n    /* \"#utility.yul\":6677:6681   */\n  dup3\n    /* \"#utility.yul\":6673:6689   */\n  shr\n    /* \"#utility.yul\":6652:6689   */\n  swap1\n  pop\n    /* \"#utility.yul\":6579:6696   */\n  swap3\n  swap2\n  pop\n  pop\n  jump\t// out\n    /* \"#utility.yul\":6702:6871   */\ntag_55:\n    /* \"#utility.yul\":6746:6752   */\n  0x00\n    /* \"#utility.yul\":6779:6830   */\n  tag_146\n    /* \"#utility.yul\":6827:6828   */\n  0x00\n    /* \"#utility.yul\":6823:6829   */\n  not\n    /* \"#utility.yul\":6815:6820   */\n  dup5\n    /* \"#utility.yul\":6812:6813   */\n  0x08\n    /* \"#utility.yul\":6808:6821   */\n  mul\n    /* \"#utility.yul\":6779:6830   */\n  tag_54\n  jump\t// in\ntag_146:\n    /* \"#utility.yul\":6775:6831   */\n  not\n    /* \"#utility.yul\":6860:6864   */\n  dup1\n    /* \"#utility.yul\":6854:6858   */\n  dup4\n    /* \"#utility.yul\":6850:6865   */\n  and\n    /* \"#utility.yul\":6840:6865   */\n  swap2\n  pop\n    /* \"#utility.yul\":6753:6871   */\n  pop\n    /* \"#utility.yul\":6702:6871   */\n  swap3\n  swap2\n  pop\n  pop\n  jump\t// out\n    /* \"#utility.yul\":6876:7171   */\ntag_56:\n    /* \"#utility.yul\":6952:6956   */\n  0x00\n    /* \"#utility.yul\":7098:7127   */\n  tag_148\n    /* \"#utility.yul\":7123:7126   */\n  dup4\n    /* \"#utility.yul\":7117:7121   */\n  dup4\n    /* \"#utility.yul\":7098:7127   */\n  tag_55\n  jump\t// in\ntag_148:\n    /* \"#utility.yul\":7090:7127   */\n  swap2\n  pop\n    /* \"#utility.yul\":7160:7163   */\n  dup3\n    /* \"#utility.yul\":7157:7158   */\n  0x02\n    /* \"#utility.yul\":7153:7164   */\n  mul\n    /* \"#utility.yul\":7147:7151   */\n  dup3\n    /* \"#utility.yul\":7144:7165   */\n  or\n    /* \"#utility.yul\":7136:7165   */\n  swap1\n  pop\n    /* \"#utility.yul\":6876:7171   */\n  swap3\n  swap2\n  pop\n  pop\n  jump\t// out\n    /* \"#utility.yul\":7176:8571   */\ntag_7:\n    /* \"#utility.yul\":7293:7330   */\n  tag_150\n    /* \"#utility.yul\":7326:7329   */\n  dup3\n    /* \"#utility.yul\":7293:7330   */\n  tag_38\n  jump\t// in\ntag_150:\n    /* \"#utility.yul\":7395:7413   */\n  0xffffffffffffffff\n    /* \"#utility.yul\":7387:7393   */\n  dup2\n    /* \"#utility.yul\":7384:7414   */\n  gt\n    /* \"#utility.yul\":7381:7437   */\n  iszero\n  tag_151\n  jumpi\n    /* \"#utility.yul\":7417:7435   */\n  tag_152\n  tag_31\n  jump\t// in\ntag_152:\n    /* \"#utility.yul\":7381:7437   */\ntag_151:\n    /* \"#utility.yul\":7461:7499   */\n  tag_153\n    /* \"#utility.yul\":7493:7497   */\n  dup3\n    /* \"#utility.yul\":7487:7498   */\n  sload\n    /* \"#utility.yul\":7461:7499   */\n  tag_40\n  jump\t// in\ntag_153:\n    /* \"#utility.yul\":7546:7613   */\n  tag_154\n    /* \"#utility.yul\":7606:7612   */\n  dup3\n    /* \"#utility.yul\":7598:7604   */\n  dup3\n    /* \"#utility.yul\":7592:7596   */\n  dup6\n    /* \"#utility.yul\":7546:7613   */\n  tag_53\n  jump\t// in\ntag_154:\n    /* \"#utility.yul\":7640:7641   */\n  0x00\n    /* \"#utility.yul\":7664:7668   */\n  0x20\n    /* \"#utility.yul\":7651:7668   */\n  swap1\n  pop\n    /* \"#utility.yul\":7696:7698   */\n  0x1f\n    /* \"#utility.yul\":7688:7694   */\n  dup4\n    /* \"#utility.yul\":7685:7699   */\n  gt\n    /* \"#utility.yul\":7713:7714   */\n  0x01\n    /* \"#utility.yul\":7708:8326   */\n  dup2\n  eq\n  tag_156\n  jumpi\n    /* \"#utility.yul\":8370:8371   */\n  0x00\n    /* \"#utility.yul\":8387:8393   */\n  dup5\n    /* \"#utility.yul\":8384:8461   */\n  iszero\n  tag_157\n  jumpi\n    /* \"#utility.yul\":8436:8445   */\n  dup3\n    /* \"#utility.yul\":8431:8434   */\n  dup8\n    /* \"#utility.yul\":8427:8446   */\n  add\n    /* \"#utility.yul\":8421:8447   */\n  mload\n    /* \"#utility.yul\":8412:8447   */\n  swap1\n  pop\n    /* \"#utility.yul\":8384:8461   */\ntag_157:\n    /* \"#utility.yul\":8487:8554   */\n  tag_158\n    /* \"#utility.yul\":8547:8553   */\n  dup6\n    /* \"#utility.yul\":8540:8545   */\n  dup3\n    /* \"#utility.yul\":8487:8554   */\n  tag_56\n  jump\t// in\ntag_158:\n    /* \"#utility.yul\":8481:8485   */\n  dup7\n    /* \"#utility.yul\":8474:8555   */\n  sstore\n    /* \"#utility.yul\":8343:8565   */\n  pop\n    /* \"#utility.yul\":7678:8565   */\n  jump(tag_155)\n    /* \"#utility.yul\":7708:8326   */\ntag_156:\n    /* \"#utility.yul\":7760:7764   */\n  0x1f\n    /* \"#utility.yul\":7756:7765   */\n  not\n    /* \"#utility.yul\":7748:7754   */\n  dup5\n    /* \"#utility.yul\":7744:7766   */\n  and\n    /* \"#utility.yul\":7794:7831   */\n  tag_159\n    /* \"#utility.yul\":7826:7830   */\n  dup7\n    /* \"#utility.yul\":7794:7831   */\n  tag_41\n  jump\t// in\ntag_159:\n    /* \"#utility.yul\":7853:7854   */\n  0x00\n    /* \"#utility.yul\":7867:8075   */\ntag_160:\n    /* \"#utility.yul\":7881:7888   */\n  dup3\n    /* \"#utility.yul\":7878:7879   */\n  dup2\n    /* \"#utility.yul\":7875:7889   */\n  lt\n    /* \"#utility.yul\":7867:8075   */\n  iszero\n  tag_162\n  jumpi\n    /* \"#utility.yul\":7960:7969   */\n  dup5\n    /* \"#utility.yul\":7955:7958   */\n  dup10\n    /* \"#utility.yul\":7951:7970   */\n  add\n    /* \"#utility.yul\":7945:7971   */\n  mload\n    /* \"#utility.yul\":7937:7943   */\n  dup3\n    /* \"#utility.yul\":7930:7972   */\n  sstore\n    /* \"#utility.yul\":8011:8012   */\n  0x01\n    /* \"#utility.yul\":8003:8009   */\n  dup3\n    /* \"#utility.yul\":7999:8013   */\n  add\n    /* \"#utility.yul\":7989:8013   */\n  swap2\n  pop\n    /* \"#utility.yul\":8058:8060   */\n  0x20\n    /* \"#utility.yul\":8047:8056   */\n  dup6\n    /* \"#utility.yul\":8043:8061   */\n  add\n    /* \"#utility.yul\":8030:8061   */\n  swap5\n  pop\n    /* \"#utility.yul\":7904:7908   */\n  0x20\n    /* \"#utility.yul\":7901:7902   */\n  dup2\n    /* \"#utility.yul\":7897:7909   */\n  add\n    /* \"#utility.yul\":7892:7909   */\n  swap1\n  pop\n    /* \"#utility.yul\":7867:8075   */\n  jump(tag_160)\ntag_162:\n    /* \"#utility.yul\":8103:8109   */\n  dup7\n    /* \"#utility.yul\":8094:8101   */\n  dup4\n    /* \"#utility.yul\":8091:8110   */\n  lt\n    /* \"#utility.yul\":8088:8267   */\n  iszero\n  tag_163\n  jumpi\n    /* \"#utility.yul\":8161:8170   */\n  dup5\n    /* \"#utility.yul\":8156:8159   */\n  dup10\n    /* \"#utility.yul\":8152:8171   */\n  add\n    /* \"#utility.yul\":8146:8172   */\n  mload\n    /* \"#utility.yul\":8204:8252   */\n  tag_164\n    /* \"#utility.yul\":8246:8250   */\n  0x1f\n    /* \"#utility.yul\":8238:8244   */\n  dup10\n    /* \"#utility.yul\":8234:8251   */\n  and\n    /* \"#utility.yul\":8223:8232   */\n  dup3\n    /* \"#utility.yul\":8204:8252   */\n  tag_55\n  jump\t// in\ntag_164:\n    /* \"#utility.yul\":8196:8202   */\n  dup4\n    /* \"#utility.yul\":8189:8253   */\n  sstore\n    /* \"#utility.yul\":8111:8267   */\n  pop\n    /* \"#utility.yul\":8088:8267   */\ntag_163:\n    /* \"#utility.yul\":8313:8314   */\n  0x01\n    /* \"#utility.yul\":8309:8310   */\n  0x02\n    /* \"#utility.yul\":8301:8307   */\n  dup9\n    /* \"#utility.yul\":8297:8311   */\n  mul\n    /* \"#utility.yul\":8293:8315   */\n  add\n    /* \"#utility.yul\":8287:8291   */\n  dup9\n    /* \"#utility.yul\":8280:8316   */\n  sstore\n    /* \"#utility.yul\":7715:8326   */\n  pop\n  pop\n  pop\n    /* \"#utility.yul\":7678:8565   */\ntag_155:\n  pop\n    /* \"#utility.yul\":7268:8571   */\n  pop\n  pop\n  pop\n    /* \"#utility.yul\":7176:8571   */\n  pop\n  pop\n  jump\t// out\n    /* \"#utility.yul\":8577:8757   */\ntag_57:\n    /* \"#utility.yul\":8625:8702   */\n  0x4e487b7100000000000000000000000000000000000000000000000000000000\n    /* \"#utility.yul\":8622:8623   */\n  0x00\n    /* \"#utility.yul\":8615:8703   */\n  mstore\n    /* \"#utility.yul\":8722:8726   */\n  0x11\n    /* \"#utility.yul\":8719:8720   */\n  0x04\n    /* \"#utility.yul\":8712:8727   */\n  mstore\n    /* \"#utility.yul\":8746:8750   */\n  0x24\n    /* \"#utility.yul\":8743:8744   */\n  0x00\n    /* \"#utility.yul\":8736:8751   */\n  revert\n    /* \"#utility.yul\":8763:8996   */\ntag_15:\n    /* \"#utility.yul\":8802:8805   */\n  0x00\n    /* \"#utility.yul\":8825:8849   */\n  tag_167\n    /* \"#utility.yul\":8843:8848   */\n  dup3\n    /* \"#utility.yul\":8825:8849   */\n  tag_45\n  jump\t// in\ntag_167:\n    /* \"#utility.yul\":8816:8849   */\n  swap2\n  pop\n    /* \"#utility.yul\":8871:8937   */\n  0xffffffffffffffffffffffffffffffffffffffffffffffffffffffffffffffff\n    /* \"#utility.yul\":8864:8869   */\n  dup3\n    /* \"#utility.yul\":8861:8938   */\n  sub\n    /* \"#utility.yul\":8858:8961   */\n  tag_168\n  jumpi\n    /* \"#utility.yul\":8941:8959   */\n  tag_169\n  tag_57\n  jump\t// in\ntag_169:\n    /* \"#utility.yul\":8858:8961   */\ntag_168:\n    /* \"#utility.yul\":8988:8989   */\n  0x01\n    /* \"#utility.yul\":8981:8986   */\n  dup3\n    /* \"#utility.yul\":8977:8990   */\n  add\n    /* \"#utility.yul\":8970:8990   */\n  swap1\n  pop\n    /* \"#utility.yul\":8763:8996   */\n  swap2\n  swap1\n  pop\n  jump\t// out\n    /* \"#utility.yul\":9002:9171   */\ntag_58:\n    /* \"#utility.yul\":9086:9097   */\n  0x00\n    /* \"#utility.yul\":9120:9126   */\n  dup3\n    /* \"#utility.yul\":9115:9118   */\n  dup3\n    /* \"#utility.yul\":9108:9127   */\n  mstore\n    /* \"#utility.yul\":9160:9164   */\n  0x20\n    /* \"#utility.yul\":9155:9158   */\n  dup3\n    /* \"#utility.yul\":9151:9165   */\n  add\n    /* \"#utility.yul\":9136:9165   */\n  swap1\n  pop\n    /* \"#utility.yul\":9002:9171   */\n  swap3\n  swap2\n  pop\n  pop\n  jump\t// out\n    /* \"#utility.yul\":9177:9355   */\ntag_59:\n    /* \"#utility.yul\":9317:9347   */\n  0x4572726f72203a206d696e7420746f207a65726f206164647265737300000000\n    /* \"#utility.yul\":9313:9314   */\n  0x00\n    /* \"#utility.yul\":9305:9311   */\n  dup3\n    /* \"#utility.yul\":9301:9315   */\n  add\n    /* \"#utility.yul\":9294:9348   */\n  mstore\n    /* \"#utility.yul\":9177:9355   */\n  pop\n  jump\t// out\n    /* \"#utility.yul\":9361:9727   */\ntag_60:\n    /* \"#utility.yul\":9503:9506   */\n  0x00\n    /* \"#utility.yul\":9524:9591   */\n  tag_173\n    /* \"#utility.yul\":9588:9590   */\n  0x1c\n    /* \"#utility.yul\":9583:9586   */\n  dup4\n    /* \"#utility.yul\":9524:9591   */\n  tag_58\n  jump\t// in\ntag_173:\n    /* \"#utility.yul\":9517:9591   */\n  swap2\n  pop\n    /* \"#utility.yul\":9600:9693   */\n  tag_174\n    /* \"#utility.yul\":9689:9692   */\n  dup3\n    /* \"#utility.yul\":9600:9693   */\n  tag_59\n  jump\t// in\ntag_174:\n    /* \"#utility.yul\":9718:9720   */\n  0x20\n    /* \"#utility.yul\":9713:9716   */\n  dup3\n    /* \"#utility.yul\":9709:9721   */\n  add\n    /* \"#utility.yul\":9702:9721   */\n  swap1\n  pop\n    /* \"#utility.yul\":9361:9727   */\n  swap2\n  swap1\n  pop\n  jump\t// out\n    /* \"#utility.yul\":9733:10152   */\ntag_20:\n    /* \"#utility.yul\":9899:9903   */\n  0x00\n    /* \"#utility.yul\":9937:9939   */\n  0x20\n    /* \"#utility.yul\":9926:9935   */\n  dup3\n    /* \"#utility.yul\":9922:9940   */\n  add\n    /* \"#utility.yul\":9914:9940   */\n  swap1\n  pop\n    /* \"#utility.yul\":9986:9995   */\n  dup2\n    /* \"#utility.yul\":9980:9984   */\n  dup2\n    /* \"#utility.yul\":9976:9996   */\n  sub\n    /* \"#utility.yul\":9972:9973   */\n  0x00\n    /* \"#utility.yul\":9961:9970   */\n  dup4\n    /* \"#utility.yul\":9957:9974   */\n  add\n    /* \"#utility.yul\":9950:9997   */\n  mstore\n    /* \"#utility.yul\":10014:10145   */\n  tag_176\n    /* \"#utility.yul\":10140:10144   */\n  dup2\n    /* \"#utility.yul\":10014:10145   */\n  tag_60\n  jump\t// in\ntag_176:\n    /* \"#utility.yul\":10006:10145   */\n  swap1\n  pop\n    /* \"#utility.yul\":9733:10152   */\n  swap2\n  swap1\n  pop\n  jump\t// out\n    /* \"#utility.yul\":10158:10331   */\ntag_61:\n    /* \"#utility.yul\":10298:10323   */\n  0x4572726f72203a20416c7265616479206d696e74656421000000000000000000\n    /* \"#utility.yul\":10294:10295   */\n  0x00\n    /* \"#utility.yul\":10286:10292   */\n  dup3\n    /* \"#utility.yul\":10282:10296   */\n  add\n    /* \"#utility.yul\":10275:10324   */\n  mstore\n    /* \"#utility.yul\":10158:10331   */\n  pop\n  jump\t// out\n    /* \"#utility.yul\":10337:10703   */\ntag_62:\n    /* \"#utility.yul\":10479:10482   */\n  0x00\n    /* \"#utility.yul\":10500:10567   */\n  tag_179\n    /* \"#utility.yul\":10564:10566   */\n  0x17\n    /* \"#utility.yul\":10559:10562   */\n  dup4\n    /* \"#utility.yul\":10500:10567   */\n  tag_58\n  jump\t// in\ntag_179:\n    /* \"#utility.yul\":10493:10567   */\n  swap2\n  pop\n    /* \"#utility.yul\":10576:10669   */\n  tag_180\n    /* \"#utility.yul\":10665:10668   */\n  dup3\n    /* \"#utility.yul\":10576:10669   */\n  tag_61\n  jump\t// in\ntag_180:\n    /* \"#utility.yul\":10694:10696   */\n  0x20\n    /* \"#utility.yul\":10689:10692   */\n  dup3\n    /* \"#utility.yul\":10685:10697   */\n  add\n    /* \"#utility.yul\":10678:10697   */\n  swap1\n  pop\n    /* \"#utility.yul\":10337:10703   */\n  swap2\n  swap1\n  pop\n  jump\t// out\n    /* \"#utility.yul\":10709:11128   */\ntag_23:\n    /* \"#utility.yul\":10875:10879   */\n  0x00\n    /* \"#utility.yul\":10913:10915   */\n  0x20\n    /* \"#utility.yul\":10902:10911   */\n  dup3\n    /* \"#utility.yul\":10898:10916   */\n  add\n    /* \"#utility.yul\":10890:10916   */\n  swap1\n  pop\n    /* \"#utility.yul\":10962:10971   */\n  dup2\n    /* \"#utility.yul\":10956:10960   */\n  dup2\n    /* \"#utility.yul\":10952:10972   */\n  sub\n    /* \"#utility.yul\":10948:10949   */\n  0x00\n    /* \"#utility.yul\":10937:10946   */\n  dup4\n    /* \"#utility.yul\":10933:10950   */\n  add\n    /* \"#utility.yul\":10926:10973   */\n  mstore\n    /* \"#utility.yul\":10990:11121   */\n  tag_182\n    /* \"#utility.yul\":11116:11120   */\n  dup2\n    /* \"#utility.yul\":10990:11121   */\n  tag_62\n  jump\t// in\ntag_182:\n    /* \"#utility.yul\":10982:11121   */\n  swap1\n  pop\n    /* \"#utility.yul\":10709:11128   */\n  swap2\n  swap1\n  pop\n  jump\t// out\n    /* \"Lecture Note/week12/ERC721StdTokens.sol\":2142:6778  contract ERC721StdNFT is ERC721 {... */\ntag_16:\n  dataSize(sub_0)\n  dup1\n  dataOffset(sub_0)\n  0x00\n  codecopy\n  0x00\n  return\nstop\n\nsub_0: assembly {\n        /* \"Lecture Note/week12/ERC721StdTokens.sol\":2142:6778  contract ERC721StdNFT is ERC721 {... */\n      mstore(0x40, 0x80)\n      jumpi(tag_1, lt(calldatasize, 0x04))\n      shr(0xe0, calldataload(0x00))\n      dup1\n      0x6352211e\n      gt\n      tag_16\n      jumpi\n      dup1\n      0xa22cb465\n      gt\n      tag_17\n      jumpi\n      dup1\n      0xa22cb465\n      eq\n      tag_12\n      jumpi\n      dup1\n      0xb88d4fde\n      eq\n      tag_13\n      jumpi\n      dup1\n      0xe985e9c5\n      eq\n      tag_14\n      jumpi\n      dup1\n      0xedc3bc3f\n      eq\n      tag_15\n      jumpi\n      jump(tag_1)\n    tag_17:\n      dup1\n      0x6352211e\n      eq\n      tag_9\n      jumpi\n      dup1\n      0x70a08231\n      eq\n      tag_10\n      jumpi\n      dup1\n      0x95d89b41\n      eq\n      tag_11\n      jumpi\n      jump(tag_1)\n    tag_16:\n      dup1\n      0x095ea7b3\n      gt\n      tag_18\n      jumpi\n      dup1\n      0x095ea7b3\n      eq\n      tag_5\n      jumpi\n      dup1\n      0x23b872dd\n      eq\n      tag_6\n      jumpi\n      dup1\n      0x3c168eab\n      eq\n      tag_7\n      jumpi\n      dup1\n      0x4d853ee5\n      eq\n      tag_8\n      jumpi\n      jump(tag_1)\n    tag_18:\n      dup1\n      0x01ffc9a7\n      eq\n      tag_2\n      jumpi\n      dup1\n      0x06fdde03\n      eq\n      tag_3\n      jumpi\n      dup1\n      0x081812fc\n      eq\n      tag_4\n      jumpi\n    tag_1:\n      0x00\n      dup1\n      revert\n        /* \"Lecture Note/week12/ERC721StdTokens.sol\":6527:6776  function supportsInterface(bytes4 interfaceId) ... */\n    tag_2:\n      callvalue\n      dup1\n      iszero\n      tag_19\n      jumpi\n      0x00\n      dup1\n      revert\n    tag_19:\n      pop\n      tag_20\n      0x04\n      dup1\n      calldatasize\n      sub\n      dup2\n      add\n      swap1\n      tag_21\n      swap2\n      swap1\n      tag_22\n      jump\t// in\n    tag_21:\n      tag_23\n      jump\t// in\n    tag_20:\n      mload(0x40)\n      tag_24\n      swap2\n      swap1\n      tag_25\n      jump\t// in\n    tag_24:\n      mload(0x40)\n      dup1\n      swap2\n      sub\n      swap1\n      return\n        /* \"Lecture Note/week12/ERC721StdTokens.sol\":2433:2451  string public name */\n    tag_3:\n      callvalue\n      dup1\n      iszero\n      tag_26\n      jumpi\n      0x00\n      dup1\n      revert\n    tag_26:\n      pop\n      tag_27\n      tag_28\n      jump\t// in\n    tag_27:\n      mload(0x40)\n      tag_29\n      swap2\n      swap1\n      tag_30\n      jump\t// in\n    tag_29:\n      mload(0x40)\n      dup1\n      swap2\n      sub\n      swap1\n      return\n        /* \"Lecture Note/week12/ERC721StdTokens.sol\":3842:4077  function getApproved(uint256 _tokenID)... */\n    tag_4:\n      callvalue\n      dup1\n      iszero\n      tag_31\n      jumpi\n      0x00\n      dup1\n      revert\n    tag_31:\n      pop\n      tag_32\n      0x04\n      dup1\n      calldatasize\n      sub\n      dup2\n      add\n      swap1\n      tag_33\n      swap2\n      swap1\n      tag_34\n      jump\t// in\n    tag_33:\n      tag_35\n      jump\t// in\n    tag_32:\n      mload(0x40)\n      tag_36\n      swap2\n      swap1\n      tag_37\n      jump\t// in\n    tag_36:\n      mload(0x40)\n      dup1\n      swap2\n      sub\n      swap1\n      return\n        /* \"Lecture Note/week12/ERC721StdTokens.sol\":4311:4729  function approve(address _approved, ... */\n    tag_5:\n      tag_38\n      0x04\n      dup1\n      calldatasize\n      sub\n      dup2\n      add\n      swap1\n      tag_39\n      swap2\n      swap1\n      tag_40\n      jump\t// in\n    tag_39:\n      tag_41\n      jump\t// in\n    tag_38:\n      stop\n        /* \"Lecture Note/week12/ERC721StdTokens.sol\":5006:5224  function transferFrom(address _from, ... */\n    tag_6:\n      tag_42\n      0x04\n      dup1\n      calldatasize\n      sub\n      dup2\n      add\n      swap1\n      tag_43\n      swap2\n      swap1\n      tag_44\n      jump\t// in\n    tag_43:\n      tag_45\n      jump\t// in\n    tag_42:\n      stop\n        /* \"Lecture Note/week12/ERC721StdTokens.sol\":3116:3330  function mintNFT(address to, ... */\n    tag_7:\n      callvalue\n      dup1\n      iszero\n      tag_46\n      jumpi\n      0x00\n      dup1\n      revert\n    tag_46:\n      pop\n      tag_47\n      0x04\n      dup1\n      calldatasize\n      sub\n      dup2\n      add\n      swap1\n      tag_48\n      swap2\n      swap1\n      tag_40\n      jump\t// in\n    tag_48:\n      tag_49\n      jump\t// in\n    tag_47:\n      stop\n        /* \"Lecture Note/week12/ERC721StdTokens.sol\":2180:2202  address public founder */\n    tag_8:\n      callvalue\n      dup1\n      iszero\n      tag_50\n      jumpi\n      0x00\n      dup1\n      revert\n    tag_50:\n      pop\n      tag_51\n      tag_52\n      jump\t// in\n    tag_51:\n      mload(0x40)\n      tag_53\n      swap2\n      swap1\n      tag_37\n      jump\t// in\n    tag_53:\n      mload(0x40)\n      dup1\n      swap2\n      sub\n      swap1\n      return\n        /* \"Lecture Note/week12/ERC721StdTokens.sol\":3340:3591  function ownerOf(uint256 _tokenID)... */\n    tag_9:\n      callvalue\n      dup1\n      iszero\n      tag_54\n      jumpi\n      0x00\n      dup1\n      revert\n    tag_54:\n      pop\n      tag_55\n      0x04\n      dup1\n      calldatasize\n      sub\n      dup2\n      add\n      swap1\n      tag_56\n      swap2\n      swap1\n      tag_34\n      jump\t// in\n    tag_56:\n      tag_57\n      jump\t// in\n    tag_55:\n      mload(0x40)\n      tag_58\n      swap2\n      swap1\n      tag_37\n      jump\t// in\n    tag_58:\n      mload(0x40)\n      dup1\n      swap2\n      sub\n      swap1\n      return\n        /* \"Lecture Note/week12/ERC721StdTokens.sol\":3601:3832  function balanceOf(address _owner)... */\n    tag_10:\n      callvalue\n      dup1\n      iszero\n      tag_59\n      jumpi\n      0x00\n      dup1\n      revert\n    tag_59:\n      pop\n      tag_60\n      0x04\n      dup1\n      calldatasize\n      sub\n      dup2\n      add\n      swap1\n      tag_61\n      swap2\n      swap1\n      tag_62\n      jump\t// in\n    tag_61:\n      tag_63\n      jump\t// in\n    tag_60:\n      mload(0x40)\n      tag_64\n      swap2\n      swap1\n      tag_65\n      jump\t// in\n    tag_64:\n      mload(0x40)\n      dup1\n      swap2\n      sub\n      swap1\n      return\n        /* \"Lecture Note/week12/ERC721StdTokens.sol\":2457:2477  string public symbol */\n    tag_11:\n      callvalue\n      dup1\n      iszero\n      tag_66\n      jumpi\n      0x00\n      dup1\n      revert\n    tag_66:\n      pop\n      tag_67\n      tag_68\n      jump\t// in\n    tag_67:\n      mload(0x40)\n      tag_69\n      swap2\n      swap1\n      tag_30\n      jump\t// in\n    tag_69:\n      mload(0x40)\n      dup1\n      swap2\n      sub\n      swap1\n      return\n        /* \"Lecture Note/week12/ERC721StdTokens.sol\":4739:4996  function setApprovalForAll(address _operator, ... */\n    tag_12:\n      callvalue\n      dup1\n      iszero\n      tag_70\n      jumpi\n      0x00\n      dup1\n      revert\n    tag_70:\n      pop\n      tag_71\n      0x04\n      dup1\n      calldatasize\n      sub\n      dup2\n      add\n      swap1\n      tag_72\n      swap2\n      swap1\n      tag_73\n      jump\t// in\n    tag_72:\n      tag_74\n      jump\t// in\n    tag_71:\n      stop\n        /* \"Lecture Note/week12/ERC721StdTokens.sol\":5959:6517  function safeTransferFrom(address _from, ... */\n    tag_13:\n      tag_75\n      0x04\n      dup1\n      calldatasize\n      sub\n      dup2\n      add\n      swap1\n      tag_76\n      swap2\n      swap1\n      tag_77\n      jump\t// in\n    tag_76:\n      tag_78\n      jump\t// in\n    tag_75:\n      stop\n        /* \"Lecture Note/week12/ERC721StdTokens.sol\":4087:4301  function isApprovedForAll(address _owner,... */\n    tag_14:\n      callvalue\n      dup1\n      iszero\n      tag_79\n      jumpi\n      0x00\n      dup1\n      revert\n    tag_79:\n      pop\n      tag_80\n      0x04\n      dup1\n      calldatasize\n      sub\n      dup2\n      add\n      swap1\n      tag_81\n      swap2\n      swap1\n      tag_82\n      jump\t// in\n    tag_81:\n      tag_83\n      jump\t// in\n    tag_80:\n      mload(0x40)\n      tag_84\n      swap2\n      swap1\n      tag_25\n      jump\t// in\n    tag_84:\n      mload(0x40)\n      dup1\n      swap2\n      sub\n      swap1\n      return\n        /* \"Lecture Note/week12/ERC721StdTokens.sol\":2356:2426  mapping(address => mapping(address => bool)) public _operatorApprovals */\n    tag_15:\n      callvalue\n      dup1\n      iszero\n      tag_85\n      jumpi\n      0x00\n      dup1\n      revert\n    tag_85:\n      pop\n      tag_86\n      0x04\n      dup1\n      calldatasize\n      sub\n      dup2\n      add\n      swap1\n      tag_87\n      swap2\n      swap1\n      tag_82\n      jump\t// in\n    tag_87:\n      tag_88\n      jump\t// in\n    tag_86:\n      mload(0x40)\n      tag_89\n      swap2\n      swap1\n      tag_25\n      jump\t// in\n    tag_89:\n      mload(0x40)\n      dup1\n      swap2\n      sub\n      swap1\n      return\n        /* \"Lecture Note/week12/ERC721StdTokens.sol\":6527:6776  function supportsInterface(bytes4 interfaceId) ... */\n    tag_23:\n        /* \"Lecture Note/week12/ERC721StdTokens.sol\":6624:6628  bool */\n      0x00\n        /* \"Lecture Note/week12/ERC721StdTokens.sol\":6682:6706  type(ERC721).interfaceId */\n      0xc22876c300000000000000000000000000000000000000000000000000000000\n        /* \"Lecture Note/week12/ERC721StdTokens.sol\":6667:6706  interfaceId == type(ERC721).interfaceId */\n      not(0xffffffffffffffffffffffffffffffffffffffffffffffffffffffff)\n      and\n        /* \"Lecture Note/week12/ERC721StdTokens.sol\":6667:6678  interfaceId */\n      dup3\n        /* \"Lecture Note/week12/ERC721StdTokens.sol\":6667:6706  interfaceId == type(ERC721).interfaceId */\n      not(0xffffffffffffffffffffffffffffffffffffffffffffffffffffffff)\n      and\n      eq\n        /* \"Lecture Note/week12/ERC721StdTokens.sol\":6667:6765  interfaceId == type(ERC721).interfaceId ||... */\n      dup1\n      tag_91\n      jumpi\n      pop\n        /* \"Lecture Note/week12/ERC721StdTokens.sol\":6741:6765  type(ERC165).interfaceId */\n      0x01ffc9a700000000000000000000000000000000000000000000000000000000\n        /* \"Lecture Note/week12/ERC721StdTokens.sol\":6726:6765  interfaceId == type(ERC165).interfaceId */\n      not(0xffffffffffffffffffffffffffffffffffffffffffffffffffffffff)\n      and\n        /* \"Lecture Note/week12/ERC721StdTokens.sol\":6726:6737  interfaceId */\n      dup3\n        /* \"Lecture Note/week12/ERC721StdTokens.sol\":6726:6765  interfaceId == type(ERC165).interfaceId */\n      not(0xffffffffffffffffffffffffffffffffffffffffffffffffffffffff)\n      and\n      eq\n        /* \"Lecture Note/week12/ERC721StdTokens.sol\":6667:6765  interfaceId == type(ERC721).interfaceId ||... */\n    tag_91:\n        /* \"Lecture Note/week12/ERC721StdTokens.sol\":6644:6765  return... */\n      swap1\n      pop\n        /* \"Lecture Note/week12/ERC721StdTokens.sol\":6527:6776  function supportsInterface(bytes4 interfaceId) ... */\n      swap2\n      swap1\n      pop\n      jump\t// out\n        /* \"Lecture Note/week12/ERC721StdTokens.sol\":2433:2451  string public name */\n    tag_28:\n      0x05\n      dup1\n      sload\n      tag_92\n      swap1\n      tag_93\n      jump\t// in\n    tag_92:\n      dup1\n      0x1f\n      add\n      0x20\n      dup1\n      swap2\n      div\n      mul\n      0x20\n      add\n      mload(0x40)\n      swap1\n      dup2\n      add\n      0x40\n      mstore\n      dup1\n      swap3\n      swap2\n      swap1\n      dup2\n      dup2\n      mstore\n      0x20\n      add\n      dup3\n      dup1\n      sload\n      tag_94\n      swap1\n      tag_93\n      jump\t// in\n    tag_94:\n      dup1\n      iszero\n      tag_95\n      jumpi\n      dup1\n      0x1f\n      lt\n      tag_96\n      jumpi\n      0x0100\n      dup1\n      dup4\n      sload\n      div\n      mul\n      dup4\n      mstore\n      swap2\n      0x20\n      add\n      swap2\n      jump(tag_95)\n    tag_96:\n      dup3\n      add\n      swap2\n      swap1\n      0x00\n      mstore\n      keccak256(0x00, 0x20)\n      swap1\n    tag_97:\n      dup2\n      sload\n      dup2\n      mstore\n      swap1\n      0x01\n      add\n      swap1\n      0x20\n      add\n      dup1\n      dup4\n      gt\n      tag_97\n      jumpi\n      dup3\n      swap1\n      sub\n      0x1f\n      and\n      dup3\n      add\n      swap2\n    tag_95:\n      pop\n      pop\n      pop\n      pop\n      pop\n      dup2\n      jump\t// out\n        /* \"Lecture Note/week12/ERC721StdTokens.sol\":3842:4077  function getApproved(uint256 _tokenID)... */\n    tag_35:\n        /* \"Lecture Note/week12/ERC721StdTokens.sol\":3929:3936  address */\n      0x00\n        /* \"Lecture Note/week12/ERC721StdTokens.sol\":3990:3991  0 */\n      dup1\n        /* \"Lecture Note/week12/ERC721StdTokens.sol\":3960:3992  _ownerOf[_tokenID] != address(0) */\n      0xffffffffffffffffffffffffffffffffffffffff\n      and\n        /* \"Lecture Note/week12/ERC721StdTokens.sol\":3960:3968  _ownerOf */\n      0x01\n        /* \"Lecture Note/week12/ERC721StdTokens.sol\":3960:3978  _ownerOf[_tokenID] */\n      0x00\n        /* \"Lecture Note/week12/ERC721StdTokens.sol\":3969:3977  _tokenID */\n      dup5\n        /* \"Lecture Note/week12/ERC721StdTokens.sol\":3960:3978  _ownerOf[_tokenID] */\n      dup2\n      mstore\n      0x20\n      add\n      swap1\n      dup2\n      mstore\n      0x20\n      add\n      0x00\n      keccak256\n      0x00\n      swap1\n      sload\n      swap1\n      0x0100\n      exp\n      swap1\n      div\n      0xffffffffffffffffffffffffffffffffffffffff\n      and\n        /* \"Lecture Note/week12/ERC721StdTokens.sol\":3960:3992  _ownerOf[_tokenID] != address(0) */\n      0xffffffffffffffffffffffffffffffffffffffff\n      and\n      sub\n        /* \"Lecture Note/week12/ERC721StdTokens.sol\":3952:4025  require(_ownerOf[_tokenID] != address(0), \"Error : token does not exist\") */\n      tag_99\n      jumpi\n      mload(0x40)\n      0x08c379a000000000000000000000000000000000000000000000000000000000\n      dup2\n      mstore\n      0x04\n      add\n      tag_100\n      swap1\n      tag_101\n      jump\t// in\n    tag_100:\n      mload(0x40)\n      dup1\n      swap2\n      sub\n      swap1\n      revert\n    tag_99:\n        /* \"Lecture Note/week12/ERC721StdTokens.sol\":4046:4056  _approvals */\n      0x03\n        /* \"Lecture Note/week12/ERC721StdTokens.sol\":4046:4066  _approvals[_tokenID] */\n      0x00\n        /* \"Lecture Note/week12/ERC721StdTokens.sol\":4057:4065  _tokenID */\n      dup4\n        /* \"Lecture Note/week12/ERC721StdTokens.sol\":4046:4066  _approvals[_tokenID] */\n      dup2\n      mstore\n      0x20\n      add\n      swap1\n      dup2\n      mstore\n      0x20\n      add\n      0x00\n      keccak256\n      0x00\n      swap1\n      sload\n      swap1\n      0x0100\n      exp\n      swap1\n      div\n      0xffffffffffffffffffffffffffffffffffffffff\n      and\n        /* \"Lecture Note/week12/ERC721StdTokens.sol\":4039:4066  return _approvals[_tokenID] */\n      swap1\n      pop\n        /* \"Lecture Note/week12/ERC721StdTokens.sol\":3842:4077  function getApproved(uint256 _tokenID)... */\n      swap2\n      swap1\n      pop\n      jump\t// out\n        /* \"Lecture Note/week12/ERC721StdTokens.sol\":4311:4729  function approve(address _approved, ... */\n    tag_41:\n        /* \"Lecture Note/week12/ERC721StdTokens.sol\":4436:4449  address owner */\n      0x00\n        /* \"Lecture Note/week12/ERC721StdTokens.sol\":4452:4460  _ownerOf */\n      0x01\n        /* \"Lecture Note/week12/ERC721StdTokens.sol\":4452:4470  _ownerOf[_tokenId] */\n      0x00\n        /* \"Lecture Note/week12/ERC721StdTokens.sol\":4461:4469  _tokenId */\n      dup4\n        /* \"Lecture Note/week12/ERC721StdTokens.sol\":4452:4470  _ownerOf[_tokenId] */\n      dup2\n      mstore\n      0x20\n      add\n      swap1\n      dup2\n      mstore\n      0x20\n      add\n      0x00\n      keccak256\n      0x00\n      swap1\n      sload\n      swap1\n      0x0100\n      exp\n      swap1\n      div\n      0xffffffffffffffffffffffffffffffffffffffff\n      and\n        /* \"Lecture Note/week12/ERC721StdTokens.sol\":4436:4470  address owner = _ownerOf[_tokenId] */\n      swap1\n      pop\n        /* \"Lecture Note/week12/ERC721StdTokens.sol\":4523:4528  owner */\n      dup1\n        /* \"Lecture Note/week12/ERC721StdTokens.sol\":4509:4528  msg.sender == owner */\n      0xffffffffffffffffffffffffffffffffffffffff\n      and\n        /* \"Lecture Note/week12/ERC721StdTokens.sol\":4509:4519  msg.sender */\n      caller\n        /* \"Lecture Note/week12/ERC721StdTokens.sol\":4509:4528  msg.sender == owner */\n      0xffffffffffffffffffffffffffffffffffffffff\n      and\n      eq\n        /* \"Lecture Note/week12/ERC721StdTokens.sol\":4509:4569  msg.sender == owner || _operatorApprovals[owner][msg.sender] */\n      dup1\n      tag_103\n      jumpi\n      pop\n        /* \"Lecture Note/week12/ERC721StdTokens.sol\":4532:4550  _operatorApprovals */\n      0x04\n        /* \"Lecture Note/week12/ERC721StdTokens.sol\":4532:4557  _operatorApprovals[owner] */\n      0x00\n        /* \"Lecture Note/week12/ERC721StdTokens.sol\":4551:4556  owner */\n      dup3\n        /* \"Lecture Note/week12/ERC721StdTokens.sol\":4532:4557  _operatorApprovals[owner] */\n      0xffffffffffffffffffffffffffffffffffffffff\n      and\n      0xffffffffffffffffffffffffffffffffffffffff\n      and\n      dup2\n      mstore\n      0x20\n      add\n      swap1\n      dup2\n      mstore\n      0x20\n      add\n      0x00\n      keccak256\n        /* \"Lecture Note/week12/ERC721StdTokens.sol\":4532:4569  _operatorApprovals[owner][msg.sender] */\n      0x00\n        /* \"Lecture Note/week12/ERC721StdTokens.sol\":4558:4568  msg.sender */\n      caller\n        /* \"Lecture Note/week12/ERC721StdTokens.sol\":4532:4569  _operatorApprovals[owner][msg.sender] */\n      0xffffffffffffffffffffffffffffffffffffffff\n      and\n      0xffffffffffffffffffffffffffffffffffffffff\n      and\n      dup2\n      mstore\n      0x20\n      add\n      swap1\n      dup2\n      mstore\n      0x20\n      add\n      0x00\n      keccak256\n      0x00\n      swap1\n      sload\n      swap1\n      0x0100\n      exp\n      swap1\n      div\n      0xff\n      and\n        /* \"Lecture Note/week12/ERC721StdTokens.sol\":4509:4569  msg.sender == owner || _operatorApprovals[owner][msg.sender] */\n    tag_103:\n        /* \"Lecture Note/week12/ERC721StdTokens.sol\":4484:4617  require(... */\n      tag_104\n      jumpi\n      mload(0x40)\n      0x08c379a000000000000000000000000000000000000000000000000000000000\n      dup2\n      mstore\n      0x04\n      add\n      tag_105\n      swap1\n      tag_106\n      jump\t// in\n    tag_105:\n      mload(0x40)\n      dup1\n      swap2\n      sub\n      swap1\n      revert\n    tag_104:\n        /* \"Lecture Note/week12/ERC721StdTokens.sol\":4654:4663  _approved */\n      dup3\n        /* \"Lecture Note/week12/ERC721StdTokens.sol\":4631:4641  _approvals */\n      0x03\n        /* \"Lecture Note/week12/ERC721StdTokens.sol\":4631:4651  _approvals[_tokenId] */\n      0x00\n        /* \"Lecture Note/week12/ERC721StdTokens.sol\":4642:4650  _tokenId */\n      dup5\n        /* \"Lecture Note/week12/ERC721StdTokens.sol\":4631:4651  _approvals[_tokenId] */\n      dup2\n      mstore\n      0x20\n      add\n      swap1\n      dup2\n      mstore\n      0x20\n      add\n      0x00\n      keccak256\n      0x00\n        /* \"Lecture Note/week12/ERC721StdTokens.sol\":4631:4663  _approvals[_tokenId] = _approved */\n      0x0100\n      exp\n      dup2\n      sload\n      dup2\n      0xffffffffffffffffffffffffffffffffffffffff\n      mul\n      not\n      and\n      swap1\n      dup4\n      0xffffffffffffffffffffffffffffffffffffffff\n      and\n      mul\n      or\n      swap1\n      sstore\n      pop\n        /* \"Lecture Note/week12/ERC721StdTokens.sol\":4709:4717  _tokenId */\n      dup2\n        /* \"Lecture Note/week12/ERC721StdTokens.sol\":4698:4707  _approved */\n      dup4\n        /* \"Lecture Note/week12/ERC721StdTokens.sol\":4682:4718  Approval(owner, _approved, _tokenId) */\n      0xffffffffffffffffffffffffffffffffffffffff\n      and\n        /* \"Lecture Note/week12/ERC721StdTokens.sol\":4691:4696  owner */\n      dup3\n        /* \"Lecture Note/week12/ERC721StdTokens.sol\":4682:4718  Approval(owner, _approved, _tokenId) */\n      0xffffffffffffffffffffffffffffffffffffffff\n      and\n      0x8c5be1e5ebec7d5bd14f71427d1e84f3dd0314c0f7b2291e5b200ac8c7c3b925\n      mload(0x40)\n      mload(0x40)\n      dup1\n      swap2\n      sub\n      swap1\n      log4\n        /* \"Lecture Note/week12/ERC721StdTokens.sol\":4422:4729  {... */\n      pop\n        /* \"Lecture Note/week12/ERC721StdTokens.sol\":4311:4729  function approve(address _approved, ... */\n      pop\n      pop\n      jump\t// out\n        /* \"Lecture Note/week12/ERC721StdTokens.sol\":5006:5224  function transferFrom(address _from, ... */\n    tag_45:\n        /* \"Lecture Note/week12/ERC721StdTokens.sol\":5177:5213  _transferFrom( _from, _to, _tokenId) */\n      tag_108\n        /* \"Lecture Note/week12/ERC721StdTokens.sol\":5192:5197  _from */\n      dup4\n        /* \"Lecture Note/week12/ERC721StdTokens.sol\":5199:5202  _to */\n      dup4\n        /* \"Lecture Note/week12/ERC721StdTokens.sol\":5204:5212  _tokenId */\n      dup4\n        /* \"Lecture Note/week12/ERC721StdTokens.sol\":5177:5190  _transferFrom */\n      tag_109\n        /* \"Lecture Note/week12/ERC721StdTokens.sol\":5177:5213  _transferFrom( _from, _to, _tokenId) */\n      jump\t// in\n    tag_108:\n        /* \"Lecture Note/week12/ERC721StdTokens.sol\":5006:5224  function transferFrom(address _from, ... */\n      pop\n      pop\n      pop\n      jump\t// out\n        /* \"Lecture Note/week12/ERC721StdTokens.sol\":3116:3330  function mintNFT(address to, ... */\n    tag_49:\n        /* \"Lecture Note/week12/ERC721StdTokens.sol\":3235:3242  founder */\n      0x00\n      dup1\n      sload\n      swap1\n      0x0100\n      exp\n      swap1\n      div\n      0xffffffffffffffffffffffffffffffffffffffff\n      and\n        /* \"Lecture Note/week12/ERC721StdTokens.sol\":3221:3242  msg.sender == founder */\n      0xffffffffffffffffffffffffffffffffffffffff\n      and\n        /* \"Lecture Note/week12/ERC721StdTokens.sol\":3221:3231  msg.sender */\n      caller\n        /* \"Lecture Note/week12/ERC721StdTokens.sol\":3221:3242  msg.sender == founder */\n      0xffffffffffffffffffffffffffffffffffffffff\n      and\n      eq\n        /* \"Lecture Note/week12/ERC721StdTokens.sol\":3213:3287  require(msg.sender == founder, \"Error : You are not an authorized minter\") */\n      tag_111\n      jumpi\n      mload(0x40)\n      0x08c379a000000000000000000000000000000000000000000000000000000000\n      dup2\n      mstore\n      0x04\n      add\n      tag_112\n      swap1\n      tag_113\n      jump\t// in\n    tag_112:\n      mload(0x40)\n      dup1\n      swap2\n      sub\n      swap1\n      revert\n    tag_111:\n        /* \"Lecture Note/week12/ERC721StdTokens.sol\":3301:3319  _mint(to, tokenID) */\n      tag_114\n        /* \"Lecture Note/week12/ERC721StdTokens.sol\":3307:3309  to */\n      dup3\n        /* \"Lecture Note/week12/ERC721StdTokens.sol\":3311:3318  tokenID */\n      dup3\n        /* \"Lecture Note/week12/ERC721StdTokens.sol\":3301:3306  _mint */\n      tag_115\n        /* \"Lecture Note/week12/ERC721StdTokens.sol\":3301:3319  _mint(to, tokenID) */\n      jump\t// in\n    tag_114:\n        /* \"Lecture Note/week12/ERC721StdTokens.sol\":3116:3330  function mintNFT(address to, ... */\n      pop\n      pop\n      jump\t// out\n        /* \"Lecture Note/week12/ERC721StdTokens.sol\":2180:2202  address public founder */\n    tag_52:\n      0x00\n      dup1\n      sload\n      swap1\n      0x0100\n      exp\n      swap1\n      div\n      0xffffffffffffffffffffffffffffffffffffffff\n      and\n      dup2\n      jump\t// out\n        /* \"Lecture Note/week12/ERC721StdTokens.sol\":3340:3591  function ownerOf(uint256 _tokenID)... */\n    tag_57:\n        /* \"Lecture Note/week12/ERC721StdTokens.sol\":3423:3430  address */\n      0x00\n        /* \"Lecture Note/week12/ERC721StdTokens.sol\":3446:3459  address owner */\n      dup1\n        /* \"Lecture Note/week12/ERC721StdTokens.sol\":3462:3470  _ownerOf */\n      0x01\n        /* \"Lecture Note/week12/ERC721StdTokens.sol\":3462:3480  _ownerOf[_tokenID] */\n      0x00\n        /* \"Lecture Note/week12/ERC721StdTokens.sol\":3471:3479  _tokenID */\n      dup5\n        /* \"Lecture Note/week12/ERC721StdTokens.sol\":3462:3480  _ownerOf[_tokenID] */\n      dup2\n      mstore\n      0x20\n      add\n      swap1\n      dup2\n      mstore\n      0x20\n      add\n      0x00\n      keccak256\n      0x00\n      swap1\n      sload\n      swap1\n      0x0100\n      exp\n      swap1\n      div\n      0xffffffffffffffffffffffffffffffffffffffff\n      and\n        /* \"Lecture Note/week12/ERC721StdTokens.sol\":3446:3480  address owner = _ownerOf[_tokenID] */\n      swap1\n      pop\n        /* \"Lecture Note/week12/ERC721StdTokens.sol\":3519:3520  0 */\n      0x00\n        /* \"Lecture Note/week12/ERC721StdTokens.sol\":3502:3521  owner != address(0) */\n      0xffffffffffffffffffffffffffffffffffffffff\n      and\n        /* \"Lecture Note/week12/ERC721StdTokens.sol\":3502:3507  owner */\n      dup2\n        /* \"Lecture Note/week12/ERC721StdTokens.sol\":3502:3521  owner != address(0) */\n      0xffffffffffffffffffffffffffffffffffffffff\n      and\n      sub\n        /* \"Lecture Note/week12/ERC721StdTokens.sol\":3494:3554  require(owner != address(0), \"Error : Token does not exist\") */\n      tag_117\n      jumpi\n      mload(0x40)\n      0x08c379a000000000000000000000000000000000000000000000000000000000\n      dup2\n      mstore\n      0x04\n      add\n      tag_118\n      swap1\n      tag_119\n      jump\t// in\n    tag_118:\n      mload(0x40)\n      dup1\n      swap2\n      sub\n      swap1\n      revert\n    tag_117:\n        /* \"Lecture Note/week12/ERC721StdTokens.sol\":3575:3580  owner */\n      dup1\n        /* \"Lecture Note/week12/ERC721StdTokens.sol\":3568:3580  return owner */\n      swap2\n      pop\n      pop\n        /* \"Lecture Note/week12/ERC721StdTokens.sol\":3340:3591  function ownerOf(uint256 _tokenID)... */\n      swap2\n      swap1\n      pop\n      jump\t// out\n        /* \"Lecture Note/week12/ERC721StdTokens.sol\":3601:3832  function balanceOf(address _owner)... */\n    tag_63:\n        /* \"Lecture Note/week12/ERC721StdTokens.sol\":3684:3691  uint256 */\n      0x00\n        /* \"Lecture Note/week12/ERC721StdTokens.sol\":3733:3734  0 */\n      dup1\n        /* \"Lecture Note/week12/ERC721StdTokens.sol\":3715:3735  _owner != address(0) */\n      0xffffffffffffffffffffffffffffffffffffffff\n      and\n        /* \"Lecture Note/week12/ERC721StdTokens.sol\":3715:3721  _owner */\n      dup3\n        /* \"Lecture Note/week12/ERC721StdTokens.sol\":3715:3735  _owner != address(0) */\n      0xffffffffffffffffffffffffffffffffffffffff\n      and\n      sub\n        /* \"Lecture Note/week12/ERC721StdTokens.sol\":3707:3782  require(_owner != address(0), \"Error : balance query for the zero address\") */\n      tag_121\n      jumpi\n      mload(0x40)\n      0x08c379a000000000000000000000000000000000000000000000000000000000\n      dup2\n      mstore\n      0x04\n      add\n      tag_122\n      swap1\n      tag_123\n      jump\t// in\n    tag_122:\n      mload(0x40)\n      dup1\n      swap2\n      sub\n      swap1\n      revert\n    tag_121:\n        /* \"Lecture Note/week12/ERC721StdTokens.sol\":3803:3813  _balanceOf */\n      0x02\n        /* \"Lecture Note/week12/ERC721StdTokens.sol\":3803:3821  _balanceOf[_owner] */\n      0x00\n        /* \"Lecture Note/week12/ERC721StdTokens.sol\":3814:3820  _owner */\n      dup4\n        /* \"Lecture Note/week12/ERC721StdTokens.sol\":3803:3821  _balanceOf[_owner] */\n      0xffffffffffffffffffffffffffffffffffffffff\n      and\n      0xffffffffffffffffffffffffffffffffffffffff\n      and\n      dup2\n      mstore\n      0x20\n      add\n      swap1\n      dup2\n      mstore\n      0x20\n      add\n      0x00\n      keccak256\n      sload\n        /* \"Lecture Note/week12/ERC721StdTokens.sol\":3796:3821  return _balanceOf[_owner] */\n      swap1\n      pop\n        /* \"Lecture Note/week12/ERC721StdTokens.sol\":3601:3832  function balanceOf(address _owner)... */\n      swap2\n      swap1\n      pop\n      jump\t// out\n        /* \"Lecture Note/week12/ERC721StdTokens.sol\":2457:2477  string public symbol */\n    tag_68:\n      0x06\n      dup1\n      sload\n      tag_124\n      swap1\n      tag_93\n      jump\t// in\n    tag_124:\n      dup1\n      0x1f\n      add\n      0x20\n      dup1\n      swap2\n      div\n      mul\n      0x20\n      add\n      mload(0x40)\n      swap1\n      dup2\n      add\n      0x40\n      mstore\n      dup1\n      swap3\n      swap2\n      swap1\n      dup2\n      dup2\n      mstore\n      0x20\n      add\n      dup3\n      dup1\n      sload\n      tag_125\n      swap1\n      tag_93\n      jump\t// in\n    tag_125:\n      dup1\n      iszero\n      tag_126\n      jumpi\n      dup1\n      0x1f\n      lt\n      tag_127\n      jumpi\n      0x0100\n      dup1\n      dup4\n      sload\n      div\n      mul\n      dup4\n      mstore\n      swap2\n      0x20\n      add\n      swap2\n      jump(tag_126)\n    tag_127:\n      dup3\n      add\n      swap2\n      swap1\n      0x00\n      mstore\n      keccak256(0x00, 0x20)\n      swap1\n    tag_128:\n      dup2\n      sload\n      dup2\n      mstore\n      swap1\n      0x01\n      add\n      swap1\n      0x20\n      add\n      dup1\n      dup4\n      gt\n      tag_128\n      jumpi\n      dup3\n      swap1\n      sub\n      0x1f\n      and\n      dup3\n      add\n      swap2\n    tag_126:\n      pop\n      pop\n      pop\n      pop\n      pop\n      dup2\n      jump\t// out\n        /* \"Lecture Note/week12/ERC721StdTokens.sol\":4739:4996  function setApprovalForAll(address _operator, ... */\n    tag_74:\n        /* \"Lecture Note/week12/ERC721StdTokens.sol\":4909:4918  _approved */\n      dup1\n        /* \"Lecture Note/week12/ERC721StdTokens.sol\":4865:4883  _operatorApprovals */\n      0x04\n        /* \"Lecture Note/week12/ERC721StdTokens.sol\":4865:4895  _operatorApprovals[msg.sender] */\n      0x00\n        /* \"Lecture Note/week12/ERC721StdTokens.sol\":4884:4894  msg.sender */\n      caller\n        /* \"Lecture Note/week12/ERC721StdTokens.sol\":4865:4895  _operatorApprovals[msg.sender] */\n      0xffffffffffffffffffffffffffffffffffffffff\n      and\n      0xffffffffffffffffffffffffffffffffffffffff\n      and\n      dup2\n      mstore\n      0x20\n      add\n      swap1\n      dup2\n      mstore\n      0x20\n      add\n      0x00\n      keccak256\n        /* \"Lecture Note/week12/ERC721StdTokens.sol\":4865:4906  _operatorApprovals[msg.sender][_operator] */\n      0x00\n        /* \"Lecture Note/week12/ERC721StdTokens.sol\":4896:4905  _operator */\n      dup5\n        /* \"Lecture Note/week12/ERC721StdTokens.sol\":4865:4906  _operatorApprovals[msg.sender][_operator] */\n      0xffffffffffffffffffffffffffffffffffffffff\n      and\n      0xffffffffffffffffffffffffffffffffffffffff\n      and\n      dup2\n      mstore\n      0x20\n      add\n      swap1\n      dup2\n      mstore\n      0x20\n      add\n      0x00\n      keccak256\n      0x00\n        /* \"Lecture Note/week12/ERC721StdTokens.sol\":4865:4918  _operatorApprovals[msg.sender][_operator] = _approved */\n      0x0100\n      exp\n      dup2\n      sload\n      dup2\n      0xff\n      mul\n      not\n      and\n      swap1\n      dup4\n      iszero\n      iszero\n      mul\n      or\n      swap1\n      sstore\n      pop\n        /* \"Lecture Note/week12/ERC721StdTokens.sol\":4964:4973  _operator */\n      dup2\n        /* \"Lecture Note/week12/ERC721StdTokens.sol\":4937:4985  ApprovalForAll(msg.sender, _operator, _approved) */\n      0xffffffffffffffffffffffffffffffffffffffff\n      and\n        /* \"Lecture Note/week12/ERC721StdTokens.sol\":4952:4962  msg.sender */\n      caller\n        /* \"Lecture Note/week12/ERC721StdTokens.sol\":4937:4985  ApprovalForAll(msg.sender, _operator, _approved) */\n      0xffffffffffffffffffffffffffffffffffffffff\n      and\n      0x17307eab39ab6107e8899845ad3d59bd9653f200f220920489ca2b5937696c31\n        /* \"Lecture Note/week12/ERC721StdTokens.sol\":4975:4984  _approved */\n      dup4\n        /* \"Lecture Note/week12/ERC721StdTokens.sol\":4937:4985  ApprovalForAll(msg.sender, _operator, _approved) */\n      mload(0x40)\n      tag_130\n      swap2\n      swap1\n      tag_25\n      jump\t// in\n    tag_130:\n      mload(0x40)\n      dup1\n      swap2\n      sub\n      swap1\n      log3\n        /* \"Lecture Note/week12/ERC721StdTokens.sol\":4739:4996  function setApprovalForAll(address _operator, ... */\n      pop\n      pop\n      jump\t// out\n        /* \"Lecture Note/week12/ERC721StdTokens.sol\":5959:6517  function safeTransferFrom(address _from, ... */\n    tag_78:\n        /* \"Lecture Note/week12/ERC721StdTokens.sol\":6194:6229  _transferFrom(_from, _to, _tokenId) */\n      tag_132\n        /* \"Lecture Note/week12/ERC721StdTokens.sol\":6208:6213  _from */\n      dup6\n        /* \"Lecture Note/week12/ERC721StdTokens.sol\":6215:6218  _to */\n      dup6\n        /* \"Lecture Note/week12/ERC721StdTokens.sol\":6220:6228  _tokenId */\n      dup6\n        /* \"Lecture Note/week12/ERC721StdTokens.sol\":6194:6207  _transferFrom */\n      tag_109\n        /* \"Lecture Note/week12/ERC721StdTokens.sol\":6194:6229  _transferFrom(_from, _to, _tokenId) */\n      jump\t// in\n    tag_132:\n        /* \"Lecture Note/week12/ERC721StdTokens.sol\":6270:6271  0 */\n      0x00\n        /* \"Lecture Note/week12/ERC721StdTokens.sol\":6251:6254  _to */\n      dup5\n        /* \"Lecture Note/week12/ERC721StdTokens.sol\":6251:6266  _to.code.length */\n      0xffffffffffffffffffffffffffffffffffffffff\n      and\n      extcodesize\n        /* \"Lecture Note/week12/ERC721StdTokens.sol\":6251:6271  _to.code.length == 0 */\n      eq\n        /* \"Lecture Note/week12/ERC721StdTokens.sol\":6251:6440  _to.code.length == 0 ||... */\n      dup1\n      tag_133\n      jumpi\n      pop\n        /* \"Lecture Note/week12/ERC721StdTokens.sol\":6395:6440  ERC721TokenReceiver.onERC721Received.selector */\n      shl(0xe0, 0x150b7a02)\n        /* \"Lecture Note/week12/ERC721StdTokens.sol\":6295:6440  ERC721TokenReceiver(_to).onERC721Received(msg.sender, _from, _tokenId, data) ==... */\n      not(0xffffffffffffffffffffffffffffffffffffffffffffffffffffffff)\n      and\n        /* \"Lecture Note/week12/ERC721StdTokens.sol\":6315:6318  _to */\n      dup5\n        /* \"Lecture Note/week12/ERC721StdTokens.sol\":6295:6336  ERC721TokenReceiver(_to).onERC721Received */\n      0xffffffffffffffffffffffffffffffffffffffff\n      and\n      0x150b7a02\n        /* \"Lecture Note/week12/ERC721StdTokens.sol\":6337:6347  msg.sender */\n      caller\n        /* \"Lecture Note/week12/ERC721StdTokens.sol\":6349:6354  _from */\n      dup9\n        /* \"Lecture Note/week12/ERC721StdTokens.sol\":6356:6364  _tokenId */\n      dup8\n        /* \"Lecture Note/week12/ERC721StdTokens.sol\":6366:6370  data */\n      dup8\n      dup8\n        /* \"Lecture Note/week12/ERC721StdTokens.sol\":6295:6371  ERC721TokenReceiver(_to).onERC721Received(msg.sender, _from, _tokenId, data) */\n      mload(0x40)\n      dup7\n      0xffffffff\n      and\n      0xe0\n      shl\n      dup2\n      mstore\n      0x04\n      add\n      tag_134\n      swap6\n      swap5\n      swap4\n      swap3\n      swap2\n      swap1\n      tag_135\n      jump\t// in\n    tag_134:\n      0x20\n      mload(0x40)\n      dup1\n      dup4\n      sub\n      dup2\n      0x00\n      dup8\n      gas\n      call\n      iszero\n      dup1\n      iszero\n      tag_137\n      jumpi\n      returndatasize\n      0x00\n      dup1\n      returndatacopy\n      revert(0x00, returndatasize)\n    tag_137:\n      pop\n      pop\n      pop\n      pop\n      mload(0x40)\n      returndatasize\n      not(0x1f)\n      0x1f\n      dup3\n      add\n      and\n      dup3\n      add\n      dup1\n      0x40\n      mstore\n      pop\n      dup2\n      add\n      swap1\n      tag_138\n      swap2\n      swap1\n      tag_139\n      jump\t// in\n    tag_138:\n        /* \"Lecture Note/week12/ERC721StdTokens.sol\":6295:6440  ERC721TokenReceiver(_to).onERC721Received(msg.sender, _from, _tokenId, data) ==... */\n      not(0xffffffffffffffffffffffffffffffffffffffffffffffffffffffff)\n      and\n      eq\n        /* \"Lecture Note/week12/ERC721StdTokens.sol\":6251:6440  _to.code.length == 0 ||... */\n    tag_133:\n        /* \"Lecture Note/week12/ERC721StdTokens.sol\":6243:6506  require(_to.code.length == 0 ||... */\n      tag_140\n      jumpi\n      mload(0x40)\n      0x08c379a000000000000000000000000000000000000000000000000000000000\n      dup2\n      mstore\n      0x04\n      add\n      tag_141\n      swap1\n      tag_142\n      jump\t// in\n    tag_141:\n      mload(0x40)\n      dup1\n      swap2\n      sub\n      swap1\n      revert\n    tag_140:\n        /* \"Lecture Note/week12/ERC721StdTokens.sol\":5959:6517  function safeTransferFrom(address _from, ... */\n      pop\n      pop\n      pop\n      pop\n      pop\n      jump\t// out\n        /* \"Lecture Note/week12/ERC721StdTokens.sol\":4087:4301  function isApprovedForAll(address _owner,... */\n    tag_83:\n        /* \"Lecture Note/week12/ERC721StdTokens.sol\":4226:4230  bool */\n      0x00\n        /* \"Lecture Note/week12/ERC721StdTokens.sol\":4253:4271  _operatorApprovals */\n      0x04\n        /* \"Lecture Note/week12/ERC721StdTokens.sol\":4253:4279  _operatorApprovals[_owner] */\n      0x00\n        /* \"Lecture Note/week12/ERC721StdTokens.sol\":4272:4278  _owner */\n      dup5\n        /* \"Lecture Note/week12/ERC721StdTokens.sol\":4253:4279  _operatorApprovals[_owner] */\n      0xffffffffffffffffffffffffffffffffffffffff\n      and\n      0xffffffffffffffffffffffffffffffffffffffff\n      and\n      dup2\n      mstore\n      0x20\n      add\n      swap1\n      dup2\n      mstore\n      0x20\n      add\n      0x00\n      keccak256\n        /* \"Lecture Note/week12/ERC721StdTokens.sol\":4253:4290  _operatorApprovals[_owner][_operator] */\n      0x00\n        /* \"Lecture Note/week12/ERC721StdTokens.sol\":4280:4289  _operator */\n      dup4\n        /* \"Lecture Note/week12/ERC721StdTokens.sol\":4253:4290  _operatorApprovals[_owner][_operator] */\n      0xffffffffffffffffffffffffffffffffffffffff\n      and\n      0xffffffffffffffffffffffffffffffffffffffff\n      and\n      dup2\n      mstore\n      0x20\n      add\n      swap1\n      dup2\n      mstore\n      0x20\n      add\n      0x00\n      keccak256\n      0x00\n      swap1\n      sload\n      swap1\n      0x0100\n      exp\n      swap1\n      div\n      0xff\n      and\n        /* \"Lecture Note/week12/ERC721StdTokens.sol\":4246:4290  return _operatorApprovals[_owner][_operator] */\n      swap1\n      pop\n        /* \"Lecture Note/week12/ERC721StdTokens.sol\":4087:4301  function isApprovedForAll(address _owner,... */\n      swap3\n      swap2\n      pop\n      pop\n      jump\t// out\n        /* \"Lecture Note/week12/ERC721StdTokens.sol\":2356:2426  mapping(address => mapping(address => bool)) public _operatorApprovals */\n    tag_88:\n      mstore(0x20, 0x04)\n      dup2\n      0x00\n      mstore\n      mstore(0x20, keccak256(0x00, 0x40))\n      dup1\n      0x00\n      mstore\n      keccak256(0x00, 0x40)\n      0x00\n      swap2\n      pop\n      swap2\n      pop\n      swap1\n      sload\n      swap1\n      0x0100\n      exp\n      swap1\n      div\n      0xff\n      and\n      dup2\n      jump\t// out\n        /* \"Lecture Note/week12/ERC721StdTokens.sol\":5230:5949  function _transferFrom(address _from, ... */\n    tag_109:\n        /* \"Lecture Note/week12/ERC721StdTokens.sol\":5386:5399  address owner */\n      0x00\n        /* \"Lecture Note/week12/ERC721StdTokens.sol\":5402:5410  _ownerOf */\n      0x01\n        /* \"Lecture Note/week12/ERC721StdTokens.sol\":5402:5420  _ownerOf[_tokenId] */\n      0x00\n        /* \"Lecture Note/week12/ERC721StdTokens.sol\":5411:5419  _tokenId */\n      dup4\n        /* \"Lecture Note/week12/ERC721StdTokens.sol\":5402:5420  _ownerOf[_tokenId] */\n      dup2\n      mstore\n      0x20\n      add\n      swap1\n      dup2\n      mstore\n      0x20\n      add\n      0x00\n      keccak256\n      0x00\n      swap1\n      sload\n      swap1\n      0x0100\n      exp\n      swap1\n      div\n      0xffffffffffffffffffffffffffffffffffffffff\n      and\n        /* \"Lecture Note/week12/ERC721StdTokens.sol\":5386:5420  address owner = _ownerOf[_tokenId] */\n      swap1\n      pop\n        /* \"Lecture Note/week12/ERC721StdTokens.sol\":5451:5456  owner */\n      dup1\n        /* \"Lecture Note/week12/ERC721StdTokens.sol\":5442:5456  _from == owner */\n      0xffffffffffffffffffffffffffffffffffffffff\n      and\n        /* \"Lecture Note/week12/ERC721StdTokens.sol\":5442:5447  _from */\n      dup5\n        /* \"Lecture Note/week12/ERC721StdTokens.sol\":5442:5456  _from == owner */\n      0xffffffffffffffffffffffffffffffffffffffff\n      and\n      eq\n        /* \"Lecture Note/week12/ERC721StdTokens.sol\":5434:5474  require(_from == owner, \"from != owner\") */\n      tag_145\n      jumpi\n      mload(0x40)\n      0x08c379a000000000000000000000000000000000000000000000000000000000\n      dup2\n      mstore\n      0x04\n      add\n      tag_146\n      swap1\n      tag_147\n      jump\t// in\n    tag_146:\n      mload(0x40)\n      dup1\n      swap2\n      sub\n      swap1\n      revert\n    tag_145:\n        /* \"Lecture Note/week12/ERC721StdTokens.sol\":5511:5512  0 */\n      0x00\n        /* \"Lecture Note/week12/ERC721StdTokens.sol\":5496:5513  _to != address(0) */\n      0xffffffffffffffffffffffffffffffffffffffff\n      and\n        /* \"Lecture Note/week12/ERC721StdTokens.sol\":5496:5499  _to */\n      dup4\n        /* \"Lecture Note/week12/ERC721StdTokens.sol\":5496:5513  _to != address(0) */\n      0xffffffffffffffffffffffffffffffffffffffff\n      and\n      sub\n        /* \"Lecture Note/week12/ERC721StdTokens.sol\":5488:5542  require(_to != address(0), \"transfer to zero address\") */\n      tag_148\n      jumpi\n      mload(0x40)\n      0x08c379a000000000000000000000000000000000000000000000000000000000\n      dup2\n      mstore\n      0x04\n      add\n      tag_149\n      swap1\n      tag_150\n      jump\t// in\n    tag_149:\n      mload(0x40)\n      dup1\n      swap2\n      sub\n      swap1\n      revert\n    tag_148:\n        /* \"Lecture Note/week12/ERC721StdTokens.sol\":5578:5583  owner */\n      dup1\n        /* \"Lecture Note/week12/ERC721StdTokens.sol\":5564:5583  msg.sender == owner */\n      0xffffffffffffffffffffffffffffffffffffffff\n      and\n        /* \"Lecture Note/week12/ERC721StdTokens.sol\":5564:5574  msg.sender */\n      caller\n        /* \"Lecture Note/week12/ERC721StdTokens.sol\":5564:5583  msg.sender == owner */\n      0xffffffffffffffffffffffffffffffffffffffff\n      and\n      eq\n        /* \"Lecture Note/week12/ERC721StdTokens.sol\":5564:5637  msg.sender == owner... */\n      dup1\n      tag_151\n      jumpi\n      pop\n        /* \"Lecture Note/week12/ERC721StdTokens.sol\":5617:5627  _approvals */\n      0x03\n        /* \"Lecture Note/week12/ERC721StdTokens.sol\":5617:5637  _approvals[_tokenId] */\n      0x00\n        /* \"Lecture Note/week12/ERC721StdTokens.sol\":5628:5636  _tokenId */\n      dup4\n        /* \"Lecture Note/week12/ERC721StdTokens.sol\":5617:5637  _approvals[_tokenId] */\n      dup2\n      mstore\n      0x20\n      add\n      swap1\n      dup2\n      mstore\n      0x20\n      add\n      0x00\n      keccak256\n      0x00\n      swap1\n      sload\n      swap1\n      0x0100\n      exp\n      swap1\n      div\n      0xffffffffffffffffffffffffffffffffffffffff\n      and\n        /* \"Lecture Note/week12/ERC721StdTokens.sol\":5603:5637  msg.sender == _approvals[_tokenId] */\n      0xffffffffffffffffffffffffffffffffffffffff\n      and\n        /* \"Lecture Note/week12/ERC721StdTokens.sol\":5603:5613  msg.sender */\n      caller\n        /* \"Lecture Note/week12/ERC721StdTokens.sol\":5603:5637  msg.sender == _approvals[_tokenId] */\n      0xffffffffffffffffffffffffffffffffffffffff\n      and\n      eq\n        /* \"Lecture Note/week12/ERC721StdTokens.sol\":5564:5637  msg.sender == owner... */\n    tag_151:\n        /* \"Lecture Note/week12/ERC721StdTokens.sol\":5564:5694  msg.sender == owner... */\n      dup1\n      tag_152\n      jumpi\n      pop\n        /* \"Lecture Note/week12/ERC721StdTokens.sol\":5657:5675  _operatorApprovals */\n      0x04\n        /* \"Lecture Note/week12/ERC721StdTokens.sol\":5657:5682  _operatorApprovals[owner] */\n      0x00\n        /* \"Lecture Note/week12/ERC721StdTokens.sol\":5676:5681  owner */\n      dup3\n        /* \"Lecture Note/week12/ERC721StdTokens.sol\":5657:5682  _operatorApprovals[owner] */\n      0xffffffffffffffffffffffffffffffffffffffff\n      and\n      0xffffffffffffffffffffffffffffffffffffffff\n      and\n      dup2\n      mstore\n      0x20\n      add\n      swap1\n      dup2\n      mstore\n      0x20\n      add\n      0x00\n      keccak256\n        /* \"Lecture Note/week12/ERC721StdTokens.sol\":5657:5694  _operatorApprovals[owner][msg.sender] */\n      0x00\n        /* \"Lecture Note/week12/ERC721StdTokens.sol\":5683:5693  msg.sender */\n      caller\n        /* \"Lecture Note/week12/ERC721StdTokens.sol\":5657:5694  _operatorApprovals[owner][msg.sender] */\n      0xffffffffffffffffffffffffffffffffffffffff\n      and\n      0xffffffffffffffffffffffffffffffffffffffff\n      and\n      dup2\n      mstore\n      0x20\n      add\n      swap1\n      dup2\n      mstore\n      0x20\n      add\n      0x00\n      keccak256\n      0x00\n      swap1\n      sload\n      swap1\n      0x0100\n      exp\n      swap1\n      div\n      0xff\n      and\n        /* \"Lecture Note/week12/ERC721StdTokens.sol\":5564:5694  msg.sender == owner... */\n    tag_152:\n        /* \"Lecture Note/week12/ERC721StdTokens.sol\":5556:5695  require(msg.sender == owner... */\n      tag_153\n      jumpi\n      0x00\n      dup1\n      revert\n    tag_153:\n        /* \"Lecture Note/week12/ERC721StdTokens.sol\":5760:5770  _balanceOf */\n      0x02\n        /* \"Lecture Note/week12/ERC721StdTokens.sol\":5760:5777  _balanceOf[_from] */\n      0x00\n        /* \"Lecture Note/week12/ERC721StdTokens.sol\":5771:5776  _from */\n      dup6\n        /* \"Lecture Note/week12/ERC721StdTokens.sol\":5760:5777  _balanceOf[_from] */\n      0xffffffffffffffffffffffffffffffffffffffff\n      and\n      0xffffffffffffffffffffffffffffffffffffffff\n      and\n      dup2\n      mstore\n      0x20\n      add\n      swap1\n      dup2\n      mstore\n      0x20\n      add\n      0x00\n      keccak256\n      0x00\n        /* \"Lecture Note/week12/ERC721StdTokens.sol\":5760:5779  _balanceOf[_from]-- */\n      dup2\n      sload\n      dup1\n      swap3\n      swap2\n      swap1\n      tag_154\n      swap1\n      tag_155\n      jump\t// in\n    tag_154:\n      swap2\n      swap1\n      pop\n      sstore\n      pop\n        /* \"Lecture Note/week12/ERC721StdTokens.sol\":5793:5803  _balanceOf */\n      0x02\n        /* \"Lecture Note/week12/ERC721StdTokens.sol\":5793:5808  _balanceOf[_to] */\n      0x00\n        /* \"Lecture Note/week12/ERC721StdTokens.sol\":5804:5807  _to */\n      dup5\n        /* \"Lecture Note/week12/ERC721StdTokens.sol\":5793:5808  _balanceOf[_to] */\n      0xffffffffffffffffffffffffffffffffffffffff\n      and\n      0xffffffffffffffffffffffffffffffffffffffff\n      and\n      dup2\n      mstore\n      0x20\n      add\n      swap1\n      dup2\n      mstore\n      0x20\n      add\n      0x00\n      keccak256\n      0x00\n        /* \"Lecture Note/week12/ERC721StdTokens.sol\":5793:5810  _balanceOf[_to]++ */\n      dup2\n      sload\n      dup1\n      swap3\n      swap2\n      swap1\n      tag_156\n      swap1\n      tag_157\n      jump\t// in\n    tag_156:\n      swap2\n      swap1\n      pop\n      sstore\n      pop\n        /* \"Lecture Note/week12/ERC721StdTokens.sol\":5845:5848  _to */\n      dup3\n        /* \"Lecture Note/week12/ERC721StdTokens.sol\":5824:5832  _ownerOf */\n      0x01\n        /* \"Lecture Note/week12/ERC721StdTokens.sol\":5824:5842  _ownerOf[_tokenId] */\n      0x00\n        /* \"Lecture Note/week12/ERC721StdTokens.sol\":5833:5841  _tokenId */\n      dup5\n        /* \"Lecture Note/week12/ERC721StdTokens.sol\":5824:5842  _ownerOf[_tokenId] */\n      dup2\n      mstore\n      0x20\n      add\n      swap1\n      dup2\n      mstore\n      0x20\n      add\n      0x00\n      keccak256\n      0x00\n        /* \"Lecture Note/week12/ERC721StdTokens.sol\":5824:5848  _ownerOf[_tokenId] = _to */\n      0x0100\n      exp\n      dup2\n      sload\n      dup2\n      0xffffffffffffffffffffffffffffffffffffffff\n      mul\n      not\n      and\n      swap1\n      dup4\n      0xffffffffffffffffffffffffffffffffffffffff\n      and\n      mul\n      or\n      swap1\n      sstore\n      pop\n        /* \"Lecture Note/week12/ERC721StdTokens.sol\":5869:5879  _approvals */\n      0x03\n        /* \"Lecture Note/week12/ERC721StdTokens.sol\":5869:5889  _approvals[_tokenId] */\n      0x00\n        /* \"Lecture Note/week12/ERC721StdTokens.sol\":5880:5888  _tokenId */\n      dup4\n        /* \"Lecture Note/week12/ERC721StdTokens.sol\":5869:5889  _approvals[_tokenId] */\n      dup2\n      mstore\n      0x20\n      add\n      swap1\n      dup2\n      mstore\n      0x20\n      add\n      0x00\n      keccak256\n      0x00\n        /* \"Lecture Note/week12/ERC721StdTokens.sol\":5862:5889  delete _approvals[_tokenId] */\n      0x0100\n      exp\n      dup2\n      sload\n      swap1\n      0xffffffffffffffffffffffffffffffffffffffff\n      mul\n      not\n      and\n      swap1\n      sstore\n        /* \"Lecture Note/week12/ERC721StdTokens.sol\":5929:5937  _tokenId */\n      dup2\n        /* \"Lecture Note/week12/ERC721StdTokens.sol\":5924:5927  _to */\n      dup4\n        /* \"Lecture Note/week12/ERC721StdTokens.sol\":5908:5938  Transfer(_from, _to, _tokenId) */\n      0xffffffffffffffffffffffffffffffffffffffff\n      and\n        /* \"Lecture Note/week12/ERC721StdTokens.sol\":5917:5922  _from */\n      dup6\n        /* \"Lecture Note/week12/ERC721StdTokens.sol\":5908:5938  Transfer(_from, _to, _tokenId) */\n      0xffffffffffffffffffffffffffffffffffffffff\n      and\n      0xddf252ad1be2c89b69c2b068fc378daa952ba7f163c4a11628f55a4df523b3ef\n      mload(0x40)\n      mload(0x40)\n      dup1\n      swap2\n      sub\n      swap1\n      log4\n        /* \"Lecture Note/week12/ERC721StdTokens.sol\":5372:5949  {... */\n      pop\n        /* \"Lecture Note/week12/ERC721StdTokens.sol\":5230:5949  function _transferFrom(address _from, ... */\n      pop\n      pop\n      pop\n      jump\t// out\n        /* \"Lecture Note/week12/ERC721StdTokens.sol\":2765:3106  function _mint(address to, ... */\n    tag_115:\n        /* \"Lecture Note/week12/ERC721StdTokens.sol\":2874:2875  0 */\n      0x00\n        /* \"Lecture Note/week12/ERC721StdTokens.sol\":2860:2876  to != address(0) */\n      0xffffffffffffffffffffffffffffffffffffffff\n      and\n        /* \"Lecture Note/week12/ERC721StdTokens.sol\":2860:2862  to */\n      dup3\n        /* \"Lecture Note/week12/ERC721StdTokens.sol\":2860:2876  to != address(0) */\n      0xffffffffffffffffffffffffffffffffffffffff\n      and\n      sub\n        /* \"Lecture Note/week12/ERC721StdTokens.sol\":2852:2909  require(to != address(0), \"Error : mint to zero address\") */\n      tag_159\n      jumpi\n      mload(0x40)\n      0x08c379a000000000000000000000000000000000000000000000000000000000\n      dup2\n      mstore\n      0x04\n      add\n      tag_160\n      swap1\n      tag_161\n      jump\t// in\n    tag_160:\n      mload(0x40)\n      dup1\n      swap2\n      sub\n      swap1\n      revert\n    tag_159:\n        /* \"Lecture Note/week12/ERC721StdTokens.sol\":2955:2956  0 */\n      0x00\n        /* \"Lecture Note/week12/ERC721StdTokens.sol\":2931:2957  _ownerOf[id] == address(0) */\n      0xffffffffffffffffffffffffffffffffffffffff\n      and\n        /* \"Lecture Note/week12/ERC721StdTokens.sol\":2931:2939  _ownerOf */\n      0x01\n        /* \"Lecture Note/week12/ERC721StdTokens.sol\":2931:2943  _ownerOf[id] */\n      0x00\n        /* \"Lecture Note/week12/ERC721StdTokens.sol\":2940:2942  id */\n      dup4\n        /* \"Lecture Note/week12/ERC721StdTokens.sol\":2931:2943  _ownerOf[id] */\n      dup2\n      mstore\n      0x20\n      add\n      swap1\n      dup2\n      mstore\n      0x20\n      add\n      0x00\n      keccak256\n      0x00\n      swap1\n      sload\n      swap1\n      0x0100\n      exp\n      swap1\n      div\n      0xffffffffffffffffffffffffffffffffffffffff\n      and\n        /* \"Lecture Note/week12/ERC721StdTokens.sol\":2931:2957  _ownerOf[id] == address(0) */\n      0xffffffffffffffffffffffffffffffffffffffff\n      and\n      eq\n        /* \"Lecture Note/week12/ERC721StdTokens.sol\":2923:2985  require(_ownerOf[id] == address(0), \"Error : Already minted!\") */\n      tag_162\n      jumpi\n      mload(0x40)\n      0x08c379a000000000000000000000000000000000000000000000000000000000\n      dup2\n      mstore\n      0x04\n      add\n      tag_163\n      swap1\n      tag_164\n      jump\t// in\n    tag_163:\n      mload(0x40)\n      dup1\n      swap2\n      sub\n      swap1\n      revert\n    tag_162:\n        /* \"Lecture Note/week12/ERC721StdTokens.sol\":3000:3010  _balanceOf */\n      0x02\n        /* \"Lecture Note/week12/ERC721StdTokens.sol\":3000:3014  _balanceOf[to] */\n      0x00\n        /* \"Lecture Note/week12/ERC721StdTokens.sol\":3011:3013  to */\n      dup4\n        /* \"Lecture Note/week12/ERC721StdTokens.sol\":3000:3014  _balanceOf[to] */\n      0xffffffffffffffffffffffffffffffffffffffff\n      and\n      0xffffffffffffffffffffffffffffffffffffffff\n      and\n      dup2\n      mstore\n      0x20\n      add\n      swap1\n      dup2\n      mstore\n      0x20\n      add\n      0x00\n      keccak256\n      0x00\n        /* \"Lecture Note/week12/ERC721StdTokens.sol\":3000:3016  _balanceOf[to]++ */\n      dup2\n      sload\n      dup1\n      swap3\n      swap2\n      swap1\n      tag_165\n      swap1\n      tag_157\n      jump\t// in\n    tag_165:\n      swap2\n      swap1\n      pop\n      sstore\n      pop\n        /* \"Lecture Note/week12/ERC721StdTokens.sol\":3045:3047  to */\n      dup2\n        /* \"Lecture Note/week12/ERC721StdTokens.sol\":3030:3038  _ownerOf */\n      0x01\n        /* \"Lecture Note/week12/ERC721StdTokens.sol\":3030:3042  _ownerOf[id] */\n      0x00\n        /* \"Lecture Note/week12/ERC721StdTokens.sol\":3039:3041  id */\n      dup4\n        /* \"Lecture Note/week12/ERC721StdTokens.sol\":3030:3042  _ownerOf[id] */\n      dup2\n      mstore\n      0x20\n      add\n      swap1\n      dup2\n      mstore\n      0x20\n      add\n      0x00\n      keccak256\n      0x00\n        /* \"Lecture Note/week12/ERC721StdTokens.sol\":3030:3047  _ownerOf[id] = to */\n      0x0100\n      exp\n      dup2\n      sload\n      dup2\n      0xffffffffffffffffffffffffffffffffffffffff\n      mul\n      not\n      and\n      swap1\n      dup4\n      0xffffffffffffffffffffffffffffffffffffffff\n      and\n      mul\n      or\n      swap1\n      sstore\n      pop\n        /* \"Lecture Note/week12/ERC721StdTokens.sol\":3092:3094  id */\n      dup1\n        /* \"Lecture Note/week12/ERC721StdTokens.sol\":3088:3090  to */\n      dup3\n        /* \"Lecture Note/week12/ERC721StdTokens.sol\":3067:3095  Transfer(address(0), to, id) */\n      0xffffffffffffffffffffffffffffffffffffffff\n      and\n        /* \"Lecture Note/week12/ERC721StdTokens.sol\":3084:3085  0 */\n      0x00\n        /* \"Lecture Note/week12/ERC721StdTokens.sol\":3067:3095  Transfer(address(0), to, id) */\n      0xffffffffffffffffffffffffffffffffffffffff\n      and\n      0xddf252ad1be2c89b69c2b068fc378daa952ba7f163c4a11628f55a4df523b3ef\n      mload(0x40)\n      mload(0x40)\n      dup1\n      swap2\n      sub\n      swap1\n      log4\n        /* \"Lecture Note/week12/ERC721StdTokens.sol\":2765:3106  function _mint(address to, ... */\n      pop\n      pop\n      jump\t// out\n        /* \"#utility.yul\":88:205   */\n    tag_167:\n        /* \"#utility.yul\":197:198   */\n      0x00\n        /* \"#utility.yul\":194:195   */\n      dup1\n        /* \"#utility.yul\":187:199   */\n      revert\n        /* \"#utility.yul\":211:328   */\n    tag_168:\n        /* \"#utility.yul\":320:321   */\n      0x00\n        /* \"#utility.yul\":317:318   */\n      dup1\n        /* \"#utility.yul\":310:322   */\n      revert\n        /* \"#utility.yul\":334:483   */\n    tag_169:\n        /* \"#utility.yul\":370:377   */\n      0x00\n        /* \"#utility.yul\":410:476   */\n      0xffffffff00000000000000000000000000000000000000000000000000000000\n        /* \"#utility.yul\":403:408   */\n      dup3\n        /* \"#utility.yul\":399:477   */\n      and\n        /* \"#utility.yul\":388:477   */\n      swap1\n      pop\n        /* \"#utility.yul\":334:483   */\n      swap2\n      swap1\n      pop\n      jump\t// out\n        /* \"#utility.yul\":489:609   */\n    tag_170:\n        /* \"#utility.yul\":561:584   */\n      tag_226\n        /* \"#utility.yul\":578:583   */\n      dup2\n        /* \"#utility.yul\":561:584   */\n      tag_169\n      jump\t// in\n    tag_226:\n        /* \"#utility.yul\":554:559   */\n      dup2\n        /* \"#utility.yul\":551:585   */\n      eq\n        /* \"#utility.yul\":541:603   */\n      tag_227\n      jumpi\n        /* \"#utility.yul\":599:600   */\n      0x00\n        /* \"#utility.yul\":596:597   */\n      dup1\n        /* \"#utility.yul\":589:601   */\n      revert\n        /* \"#utility.yul\":541:603   */\n    tag_227:\n        /* \"#utility.yul\":489:609   */\n      pop\n      jump\t// out\n        /* \"#utility.yul\":615:752   */\n    tag_171:\n        /* \"#utility.yul\":660:665   */\n      0x00\n        /* \"#utility.yul\":698:704   */\n      dup2\n        /* \"#utility.yul\":685:705   */\n      calldataload\n        /* \"#utility.yul\":676:705   */\n      swap1\n      pop\n        /* \"#utility.yul\":714:746   */\n      tag_229\n        /* \"#utility.yul\":740:745   */\n      dup2\n        /* \"#utility.yul\":714:746   */\n      tag_170\n      jump\t// in\n    tag_229:\n        /* \"#utility.yul\":615:752   */\n      swap3\n      swap2\n      pop\n      pop\n      jump\t// out\n        /* \"#utility.yul\":758:1085   */\n    tag_22:\n        /* \"#utility.yul\":816:822   */\n      0x00\n        /* \"#utility.yul\":865:867   */\n      0x20\n        /* \"#utility.yul\":853:862   */\n      dup3\n        /* \"#utility.yul\":844:851   */\n      dup5\n        /* \"#utility.yul\":840:863   */\n      sub\n        /* \"#utility.yul\":836:868   */\n      slt\n        /* \"#utility.yul\":833:952   */\n      iszero\n      tag_231\n      jumpi\n        /* \"#utility.yul\":871:950   */\n      tag_232\n      tag_167\n      jump\t// in\n    tag_232:\n        /* \"#utility.yul\":833:952   */\n    tag_231:\n        /* \"#utility.yul\":991:992   */\n      0x00\n        /* \"#utility.yul\":1016:1068   */\n      tag_233\n        /* \"#utility.yul\":1060:1067   */\n      dup5\n        /* \"#utility.yul\":1051:1057   */\n      dup3\n        /* \"#utility.yul\":1040:1049   */\n      dup6\n        /* \"#utility.yul\":1036:1058   */\n      add\n        /* \"#utility.yul\":1016:1068   */\n      tag_171\n      jump\t// in\n    tag_233:\n        /* \"#utility.yul\":1006:1068   */\n      swap2\n      pop\n        /* \"#utility.yul\":962:1078   */\n      pop\n        /* \"#utility.yul\":758:1085   */\n      swap3\n      swap2\n      pop\n      pop\n      jump\t// out\n        /* \"#utility.yul\":1091:1181   */\n    tag_172:\n        /* \"#utility.yul\":1125:1132   */\n      0x00\n        /* \"#utility.yul\":1168:1173   */\n      dup2\n        /* \"#utility.yul\":1161:1174   */\n      iszero\n        /* \"#utility.yul\":1154:1175   */\n      iszero\n        /* \"#utility.yul\":1143:1175   */\n      swap1\n      pop\n        /* \"#utility.yul\":1091:1181   */\n      swap2\n      swap1\n      pop\n      jump\t// out\n        /* \"#utility.yul\":1187:1296   */\n    tag_173:\n        /* \"#utility.yul\":1268:1289   */\n      tag_236\n        /* \"#utility.yul\":1283:1288   */\n      dup2\n        /* \"#utility.yul\":1268:1289   */\n      tag_172\n      jump\t// in\n    tag_236:\n        /* \"#utility.yul\":1263:1266   */\n      dup3\n        /* \"#utility.yul\":1256:1290   */\n      mstore\n        /* \"#utility.yul\":1187:1296   */\n      pop\n      pop\n      jump\t// out\n        /* \"#utility.yul\":1302:1512   */\n    tag_25:\n        /* \"#utility.yul\":1389:1393   */\n      0x00\n        /* \"#utility.yul\":1427:1429   */\n      0x20\n        /* \"#utility.yul\":1416:1425   */\n      dup3\n        /* \"#utility.yul\":1412:1430   */\n      add\n        /* \"#utility.yul\":1404:1430   */\n      swap1\n      pop\n        /* \"#utility.yul\":1440:1505   */\n      tag_238\n        /* \"#utility.yul\":1502:1503   */\n      0x00\n        /* \"#utility.yul\":1491:1500   */\n      dup4\n        /* \"#utility.yul\":1487:1504   */\n      add\n        /* \"#utility.yul\":1478:1484   */\n      dup5\n        /* \"#utility.yul\":1440:1505   */\n      tag_173\n      jump\t// in\n    tag_238:\n        /* \"#utility.yul\":1302:1512   */\n      swap3\n      swap2\n      pop\n      pop\n      jump\t// out\n        /* \"#utility.yul\":1518:1617   */\n    tag_174:\n        /* \"#utility.yul\":1570:1576   */\n      0x00\n        /* \"#utility.yul\":1604:1609   */\n      dup2\n        /* \"#utility.yul\":1598:1610   */\n      mload\n        /* \"#utility.yul\":1588:1610   */\n      swap1\n      pop\n        /* \"#utility.yul\":1518:1617   */\n      swap2\n      swap1\n      pop\n      jump\t// out\n        /* \"#utility.yul\":1623:1792   */\n    tag_175:\n        /* \"#utility.yul\":1707:1718   */\n      0x00\n        /* \"#utility.yul\":1741:1747   */\n      dup3\n        /* \"#utility.yul\":1736:1739   */\n      dup3\n        /* \"#utility.yul\":1729:1748   */\n      mstore\n        /* \"#utility.yul\":1781:1785   */\n      0x20\n        /* \"#utility.yul\":1776:1779   */\n      dup3\n        /* \"#utility.yul\":1772:1786   */\n      add\n        /* \"#utility.yul\":1757:1786   */\n      swap1\n      pop\n        /* \"#utility.yul\":1623:1792   */\n      swap3\n      swap2\n      pop\n      pop\n      jump\t// out\n        /* \"#utility.yul\":1798:2044   */\n    tag_176:\n        /* \"#utility.yul\":1879:1880   */\n      0x00\n        /* \"#utility.yul\":1889:2002   */\n    tag_242:\n        /* \"#utility.yul\":1903:1909   */\n      dup4\n        /* \"#utility.yul\":1900:1901   */\n      dup2\n        /* \"#utility.yul\":1897:1910   */\n      lt\n        /* \"#utility.yul\":1889:2002   */\n      iszero\n      tag_244\n      jumpi\n        /* \"#utility.yul\":1988:1989   */\n      dup1\n        /* \"#utility.yul\":1983:1986   */\n      dup3\n        /* \"#utility.yul\":1979:1990   */\n      add\n        /* \"#utility.yul\":1973:1991   */\n      mload\n        /* \"#utility.yul\":1969:1970   */\n      dup2\n        /* \"#utility.yul\":1964:1967   */\n      dup5\n        /* \"#utility.yul\":1960:1971   */\n      add\n        /* \"#utility.yul\":1953:1992   */\n      mstore\n        /* \"#utility.yul\":1925:1927   */\n      0x20\n        /* \"#utility.yul\":1922:1923   */\n      dup2\n        /* \"#utility.yul\":1918:1928   */\n      add\n        /* \"#utility.yul\":1913:1928   */\n      swap1\n      pop\n        /* \"#utility.yul\":1889:2002   */\n      jump(tag_242)\n    tag_244:\n        /* \"#utility.yul\":2036:2037   */\n      0x00\n        /* \"#utility.yul\":2027:2033   */\n      dup5\n        /* \"#utility.yul\":2022:2025   */\n      dup5\n        /* \"#utility.yul\":2018:2034   */\n      add\n        /* \"#utility.yul\":2011:2038   */\n      mstore\n        /* \"#utility.yul\":1860:2044   */\n      pop\n        /* \"#utility.yul\":1798:2044   */\n      pop\n      pop\n      pop\n      jump\t// out\n        /* \"#utility.yul\":2050:2152   */\n    tag_177:\n        /* \"#utility.yul\":2091:2097   */\n      0x00\n        /* \"#utility.yul\":2142:2144   */\n      0x1f\n        /* \"#utility.yul\":2138:2145   */\n      not\n        /* \"#utility.yul\":2133:2135   */\n      0x1f\n        /* \"#utility.yul\":2126:2131   */\n      dup4\n        /* \"#utility.yul\":2122:2136   */\n      add\n        /* \"#utility.yul\":2118:2146   */\n      and\n        /* \"#utility.yul\":2108:2146   */\n      swap1\n      pop\n        /* \"#utility.yul\":2050:2152   */\n      swap2\n      swap1\n      pop\n      jump\t// out\n        /* \"#utility.yul\":2158:2535   */\n    tag_178:\n        /* \"#utility.yul\":2246:2249   */\n      0x00\n        /* \"#utility.yul\":2274:2313   */\n      tag_247\n        /* \"#utility.yul\":2307:2312   */\n      dup3\n        /* \"#utility.yul\":2274:2313   */\n      tag_174\n      jump\t// in\n    tag_247:\n        /* \"#utility.yul\":2329:2400   */\n      tag_248\n        /* \"#utility.yul\":2393:2399   */\n      dup2\n        /* \"#utility.yul\":2388:2391   */\n      dup6\n        /* \"#utility.yul\":2329:2400   */\n      tag_175\n      jump\t// in\n    tag_248:\n        /* \"#utility.yul\":2322:2400   */\n      swap4\n      pop\n        /* \"#utility.yul\":2409:2474   */\n      tag_249\n        /* \"#utility.yul\":2467:2473   */\n      dup2\n        /* \"#utility.yul\":2462:2465   */\n      dup6\n        /* \"#utility.yul\":2455:2459   */\n      0x20\n        /* \"#utility.yul\":2448:2453   */\n      dup7\n        /* \"#utility.yul\":2444:2460   */\n      add\n        /* \"#utility.yul\":2409:2474   */\n      tag_176\n      jump\t// in\n    tag_249:\n        /* \"#utility.yul\":2499:2528   */\n      tag_250\n        /* \"#utility.yul\":2521:2527   */\n      dup2\n        /* \"#utility.yul\":2499:2528   */\n      tag_177\n      jump\t// in\n    tag_250:\n        /* \"#utility.yul\":2494:2497   */\n      dup5\n        /* \"#utility.yul\":2490:2529   */\n      add\n        /* \"#utility.yul\":2483:2529   */\n      swap2\n      pop\n        /* \"#utility.yul\":2250:2535   */\n      pop\n        /* \"#utility.yul\":2158:2535   */\n      swap3\n      swap2\n      pop\n      pop\n      jump\t// out\n        /* \"#utility.yul\":2541:2854   */\n    tag_30:\n        /* \"#utility.yul\":2654:2658   */\n      0x00\n        /* \"#utility.yul\":2692:2694   */\n      0x20\n        /* \"#utility.yul\":2681:2690   */\n      dup3\n        /* \"#utility.yul\":2677:2695   */\n      add\n        /* \"#utility.yul\":2669:2695   */\n      swap1\n      pop\n        /* \"#utility.yul\":2741:2750   */\n      dup2\n        /* \"#utility.yul\":2735:2739   */\n      dup2\n        /* \"#utility.yul\":2731:2751   */\n      sub\n        /* \"#utility.yul\":2727:2728   */\n      0x00\n        /* \"#utility.yul\":2716:2725   */\n      dup4\n        /* \"#utility.yul\":2712:2729   */\n      add\n        /* \"#utility.yul\":2705:2752   */\n      mstore\n        /* \"#utility.yul\":2769:2847   */\n      tag_252\n        /* \"#utility.yul\":2842:2846   */\n      dup2\n        /* \"#utility.yul\":2833:2839   */\n      dup5\n        /* \"#utility.yul\":2769:2847   */\n      tag_178\n      jump\t// in\n    tag_252:\n        /* \"#utility.yul\":2761:2847   */\n      swap1\n      pop\n        /* \"#utility.yul\":2541:2854   */\n      swap3\n      swap2\n      pop\n      pop\n      jump\t// out\n        /* \"#utility.yul\":2860:2937   */\n    tag_179:\n        /* \"#utility.yul\":2897:2904   */\n      0x00\n        /* \"#utility.yul\":2926:2931   */\n      dup2\n        /* \"#utility.yul\":2915:2931   */\n      swap1\n      pop\n        /* \"#utility.yul\":2860:2937   */\n      swap2\n      swap1\n      pop\n      jump\t// out\n        /* \"#utility.yul\":2943:3065   */\n    tag_180:\n        /* \"#utility.yul\":3016:3040   */\n      tag_255\n        /* \"#utility.yul\":3034:3039   */\n      dup2\n        /* \"#utility.yul\":3016:3040   */\n      tag_179\n      jump\t// in\n    tag_255:\n        /* \"#utility.yul\":3009:3014   */\n      dup2\n        /* \"#utility.yul\":3006:3041   */\n      eq\n        /* \"#utility.yul\":2996:3059   */\n      tag_256\n      jumpi\n        /* \"#utility.yul\":3055:3056   */\n      0x00\n        /* \"#utility.yul\":3052:3053   */\n      dup1\n        /* \"#utility.yul\":3045:3057   */\n      revert\n        /* \"#utility.yul\":2996:3059   */\n    tag_256:\n        /* \"#utility.yul\":2943:3065   */\n      pop\n      jump\t// out\n        /* \"#utility.yul\":3071:3210   */\n    tag_181:\n        /* \"#utility.yul\":3117:3122   */\n      0x00\n        /* \"#utility.yul\":3155:3161   */\n      dup2\n        /* \"#utility.yul\":3142:3162   */\n      calldataload\n        /* \"#utility.yul\":3133:3162   */\n      swap1\n      pop\n        /* \"#utility.yul\":3171:3204   */\n      tag_258\n        /* \"#utility.yul\":3198:3203   */\n      dup2\n        /* \"#utility.yul\":3171:3204   */\n      tag_180\n      jump\t// in\n    tag_258:\n        /* \"#utility.yul\":3071:3210   */\n      swap3\n      swap2\n      pop\n      pop\n      jump\t// out\n        /* \"#utility.yul\":3216:3545   */\n    tag_34:\n        /* \"#utility.yul\":3275:3281   */\n      0x00\n        /* \"#utility.yul\":3324:3326   */\n      0x20\n        /* \"#utility.yul\":3312:3321   */\n      dup3\n        /* \"#utility.yul\":3303:3310   */\n      dup5\n        /* \"#utility.yul\":3299:3322   */\n      sub\n        /* \"#utility.yul\":3295:3327   */\n      slt\n        /* \"#utility.yul\":3292:3411   */\n      iszero\n      tag_260\n      jumpi\n        /* \"#utility.yul\":3330:3409   */\n      tag_261\n      tag_167\n      jump\t// in\n    tag_261:\n        /* \"#utility.yul\":3292:3411   */\n    tag_260:\n        /* \"#utility.yul\":3450:3451   */\n      0x00\n        /* \"#utility.yul\":3475:3528   */\n      tag_262\n        /* \"#utility.yul\":3520:3527   */\n      dup5\n        /* \"#utility.yul\":3511:3517   */\n      dup3\n        /* \"#utility.yul\":3500:3509   */\n      dup6\n        /* \"#utility.yul\":3496:3518   */\n      add\n        /* \"#utility.yul\":3475:3528   */\n      tag_181\n      jump\t// in\n    tag_262:\n        /* \"#utility.yul\":3465:3528   */\n      swap2\n      pop\n        /* \"#utility.yul\":3421:3538   */\n      pop\n        /* \"#utility.yul\":3216:3545   */\n      swap3\n      swap2\n      pop\n      pop\n      jump\t// out\n        /* \"#utility.yul\":3551:3677   */\n    tag_182:\n        /* \"#utility.yul\":3588:3595   */\n      0x00\n        /* \"#utility.yul\":3628:3670   */\n      0xffffffffffffffffffffffffffffffffffffffff\n        /* \"#utility.yul\":3621:3626   */\n      dup3\n        /* \"#utility.yul\":3617:3671   */\n      and\n        /* \"#utility.yul\":3606:3671   */\n      swap1\n      pop\n        /* \"#utility.yul\":3551:3677   */\n      swap2\n      swap1\n      pop\n      jump\t// out\n        /* \"#utility.yul\":3683:3779   */\n    tag_183:\n        /* \"#utility.yul\":3720:3727   */\n      0x00\n        /* \"#utility.yul\":3749:3773   */\n      tag_265\n        /* \"#utility.yul\":3767:3772   */\n      dup3\n        /* \"#utility.yul\":3749:3773   */\n      tag_182\n      jump\t// in\n    tag_265:\n        /* \"#utility.yul\":3738:3773   */\n      swap1\n      pop\n        /* \"#utility.yul\":3683:3779   */\n      swap2\n      swap1\n      pop\n      jump\t// out\n        /* \"#utility.yul\":3785:3903   */\n    tag_184:\n        /* \"#utility.yul\":3872:3896   */\n      tag_267\n        /* \"#utility.yul\":3890:3895   */\n      dup2\n        /* \"#utility.yul\":3872:3896   */\n      tag_183\n      jump\t// in\n    tag_267:\n        /* \"#utility.yul\":3867:3870   */\n      dup3\n        /* \"#utility.yul\":3860:3897   */\n      mstore\n        /* \"#utility.yul\":3785:3903   */\n      pop\n      pop\n      jump\t// out\n        /* \"#utility.yul\":3909:4131   */\n    tag_37:\n        /* \"#utility.yul\":4002:4006   */\n      0x00\n        /* \"#utility.yul\":4040:4042   */\n      0x20\n        /* \"#utility.yul\":4029:4038   */\n      dup3\n        /* \"#utility.yul\":4025:4043   */\n      add\n        /* \"#utility.yul\":4017:4043   */\n      swap1\n      pop\n        /* \"#utility.yul\":4053:4124   */\n      tag_269\n        /* \"#utility.yul\":4121:4122   */\n      0x00\n        /* \"#utility.yul\":4110:4119   */\n      dup4\n        /* \"#utility.yul\":4106:4123   */\n      add\n        /* \"#utility.yul\":4097:4103   */\n      dup5\n        /* \"#utility.yul\":4053:4124   */\n      tag_184\n      jump\t// in\n    tag_269:\n        /* \"#utility.yul\":3909:4131   */\n      swap3\n      swap2\n      pop\n      pop\n      jump\t// out\n        /* \"#utility.yul\":4137:4259   */\n    tag_185:\n        /* \"#utility.yul\":4210:4234   */\n      tag_271\n        /* \"#utility.yul\":4228:4233   */\n      dup2\n        /* \"#utility.yul\":4210:4234   */\n      tag_183\n      jump\t// in\n    tag_271:\n        /* \"#utility.yul\":4203:4208   */\n      dup2\n        /* \"#utility.yul\":4200:4235   */\n      eq\n        /* \"#utility.yul\":4190:4253   */\n      tag_272\n      jumpi\n        /* \"#utility.yul\":4249:4250   */\n      0x00\n        /* \"#utility.yul\":4246:4247   */\n      dup1\n        /* \"#utility.yul\":4239:4251   */\n      revert\n        /* \"#utility.yul\":4190:4253   */\n    tag_272:\n        /* \"#utility.yul\":4137:4259   */\n      pop\n      jump\t// out\n        /* \"#utility.yul\":4265:4404   */\n    tag_186:\n        /* \"#utility.yul\":4311:4316   */\n      0x00\n        /* \"#utility.yul\":4349:4355   */\n      dup2\n        /* \"#utility.yul\":4336:4356   */\n      calldataload\n        /* \"#utility.yul\":4327:4356   */\n      swap1\n      pop\n        /* \"#utility.yul\":4365:4398   */\n      tag_274\n        /* \"#utility.yul\":4392:4397   */\n      dup2\n        /* \"#utility.yul\":4365:4398   */\n      tag_185\n      jump\t// in\n    tag_274:\n        /* \"#utility.yul\":4265:4404   */\n      swap3\n      swap2\n      pop\n      pop\n      jump\t// out\n        /* \"#utility.yul\":4410:4884   */\n    tag_40:\n        /* \"#utility.yul\":4478:4484   */\n      0x00\n        /* \"#utility.yul\":4486:4492   */\n      dup1\n        /* \"#utility.yul\":4535:4537   */\n      0x40\n        /* \"#utility.yul\":4523:4532   */\n      dup4\n        /* \"#utility.yul\":4514:4521   */\n      dup6\n        /* \"#utility.yul\":4510:4533   */\n      sub\n        /* \"#utility.yul\":4506:4538   */\n      slt\n        /* \"#utility.yul\":4503:4622   */\n      iszero\n      tag_276\n      jumpi\n        /* \"#utility.yul\":4541:4620   */\n      tag_277\n      tag_167\n      jump\t// in\n    tag_277:\n        /* \"#utility.yul\":4503:4622   */\n    tag_276:\n        /* \"#utility.yul\":4661:4662   */\n      0x00\n        /* \"#utility.yul\":4686:4739   */\n      tag_278\n        /* \"#utility.yul\":4731:4738   */\n      dup6\n        /* \"#utility.yul\":4722:4728   */\n      dup3\n        /* \"#utility.yul\":4711:4720   */\n      dup7\n        /* \"#utility.yul\":4707:4729   */\n      add\n        /* \"#utility.yul\":4686:4739   */\n      tag_186\n      jump\t// in\n    tag_278:\n        /* \"#utility.yul\":4676:4739   */\n      swap3\n      pop\n        /* \"#utility.yul\":4632:4749   */\n      pop\n        /* \"#utility.yul\":4788:4790   */\n      0x20\n        /* \"#utility.yul\":4814:4867   */\n      tag_279\n        /* \"#utility.yul\":4859:4866   */\n      dup6\n        /* \"#utility.yul\":4850:4856   */\n      dup3\n        /* \"#utility.yul\":4839:4848   */\n      dup7\n        /* \"#utility.yul\":4835:4857   */\n      add\n        /* \"#utility.yul\":4814:4867   */\n      tag_181\n      jump\t// in\n    tag_279:\n        /* \"#utility.yul\":4804:4867   */\n      swap2\n      pop\n        /* \"#utility.yul\":4759:4877   */\n      pop\n        /* \"#utility.yul\":4410:4884   */\n      swap3\n      pop\n      swap3\n      swap1\n      pop\n      jump\t// out\n        /* \"#utility.yul\":4890:5509   */\n    tag_44:\n        /* \"#utility.yul\":4967:4973   */\n      0x00\n        /* \"#utility.yul\":4975:4981   */\n      dup1\n        /* \"#utility.yul\":4983:4989   */\n      0x00\n        /* \"#utility.yul\":5032:5034   */\n      0x60\n        /* \"#utility.yul\":5020:5029   */\n      dup5\n        /* \"#utility.yul\":5011:5018   */\n      dup7\n        /* \"#utility.yul\":5007:5030   */\n      sub\n        /* \"#utility.yul\":5003:5035   */\n      slt\n        /* \"#utility.yul\":5000:5119   */\n      iszero\n      tag_281\n      jumpi\n        /* \"#utility.yul\":5038:5117   */\n      tag_282\n      tag_167\n      jump\t// in\n    tag_282:\n        /* \"#utility.yul\":5000:5119   */\n    tag_281:\n        /* \"#utility.yul\":5158:5159   */\n      0x00\n        /* \"#utility.yul\":5183:5236   */\n      tag_283\n        /* \"#utility.yul\":5228:5235   */\n      dup7\n        /* \"#utility.yul\":5219:5225   */\n      dup3\n        /* \"#utility.yul\":5208:5217   */\n      dup8\n        /* \"#utility.yul\":5204:5226   */\n      add\n        /* \"#utility.yul\":5183:5236   */\n      tag_186\n      jump\t// in\n    tag_283:\n        /* \"#utility.yul\":5173:5236   */\n      swap4\n      pop\n        /* \"#utility.yul\":5129:5246   */\n      pop\n        /* \"#utility.yul\":5285:5287   */\n      0x20\n        /* \"#utility.yul\":5311:5364   */\n      tag_284\n        /* \"#utility.yul\":5356:5363   */\n      dup7\n        /* \"#utility.yul\":5347:5353   */\n      dup3\n        /* \"#utility.yul\":5336:5345   */\n      dup8\n        /* \"#utility.yul\":5332:5354   */\n      add\n        /* \"#utility.yul\":5311:5364   */\n      tag_186\n      jump\t// in\n    tag_284:\n        /* \"#utility.yul\":5301:5364   */\n      swap3\n      pop\n        /* \"#utility.yul\":5256:5374   */\n      pop\n        /* \"#utility.yul\":5413:5415   */\n      0x40\n        /* \"#utility.yul\":5439:5492   */\n      tag_285\n        /* \"#utility.yul\":5484:5491   */\n      dup7\n        /* \"#utility.yul\":5475:5481   */\n      dup3\n        /* \"#utility.yul\":5464:5473   */\n      dup8\n        /* \"#utility.yul\":5460:5482   */\n      add\n        /* \"#utility.yul\":5439:5492   */\n      tag_181\n      jump\t// in\n    tag_285:\n        /* \"#utility.yul\":5429:5492   */\n      swap2\n      pop\n        /* \"#utility.yul\":5384:5502   */\n      pop\n        /* \"#utility.yul\":4890:5509   */\n      swap3\n      pop\n      swap3\n      pop\n      swap3\n      jump\t// out\n        /* \"#utility.yul\":5515:5844   */\n    tag_62:\n        /* \"#utility.yul\":5574:5580   */\n      0x00\n        /* \"#utility.yul\":5623:5625   */\n      0x20\n        /* \"#utility.yul\":5611:5620   */\n      dup3\n        /* \"#utility.yul\":5602:5609   */\n      dup5\n        /* \"#utility.yul\":5598:5621   */\n      sub\n        /* \"#utility.yul\":5594:5626   */\n      slt\n        /* \"#utility.yul\":5591:5710   */\n      iszero\n      tag_287\n      jumpi\n        /* \"#utility.yul\":5629:5708   */\n      tag_288\n      tag_167\n      jump\t// in\n    tag_288:\n        /* \"#utility.yul\":5591:5710   */\n    tag_287:\n        /* \"#utility.yul\":5749:5750   */\n      0x00\n        /* \"#utility.yul\":5774:5827   */\n      tag_289\n        /* \"#utility.yul\":5819:5826   */\n      dup5\n        /* \"#utility.yul\":5810:5816   */\n      dup3\n        /* \"#utility.yul\":5799:5808   */\n      dup6\n        /* \"#utility.yul\":5795:5817   */\n      add\n        /* \"#utility.yul\":5774:5827   */\n      tag_186\n      jump\t// in\n    tag_289:\n        /* \"#utility.yul\":5764:5827   */\n      swap2\n      pop\n        /* \"#utility.yul\":5720:5837   */\n      pop\n        /* \"#utility.yul\":5515:5844   */\n      swap3\n      swap2\n      pop\n      pop\n      jump\t// out\n        /* \"#utility.yul\":5850:5968   */\n    tag_187:\n        /* \"#utility.yul\":5937:5961   */\n      tag_291\n        /* \"#utility.yul\":5955:5960   */\n      dup2\n        /* \"#utility.yul\":5937:5961   */\n      tag_179\n      jump\t// in\n    tag_291:\n        /* \"#utility.yul\":5932:5935   */\n      dup3\n        /* \"#utility.yul\":5925:5962   */\n      mstore\n        /* \"#utility.yul\":5850:5968   */\n      pop\n      pop\n      jump\t// out\n        /* \"#utility.yul\":5974:6196   */\n    tag_65:\n        /* \"#utility.yul\":6067:6071   */\n      0x00\n        /* \"#utility.yul\":6105:6107   */\n      0x20\n        /* \"#utility.yul\":6094:6103   */\n      dup3\n        /* \"#utility.yul\":6090:6108   */\n      add\n        /* \"#utility.yul\":6082:6108   */\n      swap1\n      pop\n        /* \"#utility.yul\":6118:6189   */\n      tag_293\n        /* \"#utility.yul\":6186:6187   */\n      0x00\n        /* \"#utility.yul\":6175:6184   */\n      dup4\n        /* \"#utility.yul\":6171:6188   */\n      add\n        /* \"#utility.yul\":6162:6168   */\n      dup5\n        /* \"#utility.yul\":6118:6189   */\n      tag_187\n      jump\t// in\n    tag_293:\n        /* \"#utility.yul\":5974:6196   */\n      swap3\n      swap2\n      pop\n      pop\n      jump\t// out\n        /* \"#utility.yul\":6202:6318   */\n    tag_188:\n        /* \"#utility.yul\":6272:6293   */\n      tag_295\n        /* \"#utility.yul\":6287:6292   */\n      dup2\n        /* \"#utility.yul\":6272:6293   */\n      tag_172\n      jump\t// in\n    tag_295:\n        /* \"#utility.yul\":6265:6270   */\n      dup2\n        /* \"#utility.yul\":6262:6294   */\n      eq\n        /* \"#utility.yul\":6252:6312   */\n      tag_296\n      jumpi\n        /* \"#utility.yul\":6308:6309   */\n      0x00\n        /* \"#utility.yul\":6305:6306   */\n      dup1\n        /* \"#utility.yul\":6298:6310   */\n      revert\n        /* \"#utility.yul\":6252:6312   */\n    tag_296:\n        /* \"#utility.yul\":6202:6318   */\n      pop\n      jump\t// out\n        /* \"#utility.yul\":6324:6457   */\n    tag_189:\n        /* \"#utility.yul\":6367:6372   */\n      0x00\n        /* \"#utility.yul\":6405:6411   */\n      dup2\n        /* \"#utility.yul\":6392:6412   */\n      calldataload\n        /* \"#utility.yul\":6383:6412   */\n      swap1\n      pop\n        /* \"#utility.yul\":6421:6451   */\n      tag_298\n        /* \"#utility.yul\":6445:6450   */\n      dup2\n        /* \"#utility.yul\":6421:6451   */\n      tag_188\n      jump\t// in\n    tag_298:\n        /* \"#utility.yul\":6324:6457   */\n      swap3\n      swap2\n      pop\n      pop\n      jump\t// out\n        /* \"#utility.yul\":6463:6931   */\n    tag_73:\n        /* \"#utility.yul\":6528:6534   */\n      0x00\n        /* \"#utility.yul\":6536:6542   */\n      dup1\n        /* \"#utility.yul\":6585:6587   */\n      0x40\n        /* \"#utility.yul\":6573:6582   */\n      dup4\n        /* \"#utility.yul\":6564:6571   */\n      dup6\n        /* \"#utility.yul\":6560:6583   */\n      sub\n        /* \"#utility.yul\":6556:6588   */\n      slt\n        /* \"#utility.yul\":6553:6672   */\n      iszero\n      tag_300\n      jumpi\n        /* \"#utility.yul\":6591:6670   */\n      tag_301\n      tag_167\n      jump\t// in\n    tag_301:\n        /* \"#utility.yul\":6553:6672   */\n    tag_300:\n        /* \"#utility.yul\":6711:6712   */\n      0x00\n        /* \"#utility.yul\":6736:6789   */\n      tag_302\n        /* \"#utility.yul\":6781:6788   */\n      dup6\n        /* \"#utility.yul\":6772:6778   */\n      dup3\n        /* \"#utility.yul\":6761:6770   */\n      dup7\n        /* \"#utility.yul\":6757:6779   */\n      add\n        /* \"#utility.yul\":6736:6789   */\n      tag_186\n      jump\t// in\n    tag_302:\n        /* \"#utility.yul\":6726:6789   */\n      swap3\n      pop\n        /* \"#utility.yul\":6682:6799   */\n      pop\n        /* \"#utility.yul\":6838:6840   */\n      0x20\n        /* \"#utility.yul\":6864:6914   */\n      tag_303\n        /* \"#utility.yul\":6906:6913   */\n      dup6\n        /* \"#utility.yul\":6897:6903   */\n      dup3\n        /* \"#utility.yul\":6886:6895   */\n      dup7\n        /* \"#utility.yul\":6882:6904   */\n      add\n        /* \"#utility.yul\":6864:6914   */\n      tag_189\n      jump\t// in\n    tag_303:\n        /* \"#utility.yul\":6854:6914   */\n      swap2\n      pop\n        /* \"#utility.yul\":6809:6924   */\n      pop\n        /* \"#utility.yul\":6463:6931   */\n      swap3\n      pop\n      swap3\n      swap1\n      pop\n      jump\t// out\n        /* \"#utility.yul\":6937:7054   */\n    tag_190:\n        /* \"#utility.yul\":7046:7047   */\n      0x00\n        /* \"#utility.yul\":7043:7044   */\n      dup1\n        /* \"#utility.yul\":7036:7048   */\n      revert\n        /* \"#utility.yul\":7060:7177   */\n    tag_191:\n        /* \"#utility.yul\":7169:7170   */\n      0x00\n        /* \"#utility.yul\":7166:7167   */\n      dup1\n        /* \"#utility.yul\":7159:7171   */\n      revert\n        /* \"#utility.yul\":7183:7300   */\n    tag_192:\n        /* \"#utility.yul\":7292:7293   */\n      0x00\n        /* \"#utility.yul\":7289:7290   */\n      dup1\n        /* \"#utility.yul\":7282:7294   */\n      revert\n        /* \"#utility.yul\":7319:7871   */\n    tag_193:\n        /* \"#utility.yul\":7376:7384   */\n      0x00\n        /* \"#utility.yul\":7386:7392   */\n      dup1\n        /* \"#utility.yul\":7436:7439   */\n      dup4\n        /* \"#utility.yul\":7429:7433   */\n      0x1f\n        /* \"#utility.yul\":7421:7427   */\n      dup5\n        /* \"#utility.yul\":7417:7434   */\n      add\n        /* \"#utility.yul\":7413:7440   */\n      slt\n        /* \"#utility.yul\":7403:7525   */\n      tag_308\n      jumpi\n        /* \"#utility.yul\":7444:7523   */\n      tag_309\n      tag_190\n      jump\t// in\n    tag_309:\n        /* \"#utility.yul\":7403:7525   */\n    tag_308:\n        /* \"#utility.yul\":7557:7563   */\n      dup3\n        /* \"#utility.yul\":7544:7564   */\n      calldataload\n        /* \"#utility.yul\":7534:7564   */\n      swap1\n      pop\n        /* \"#utility.yul\":7587:7605   */\n      0xffffffffffffffff\n        /* \"#utility.yul\":7579:7585   */\n      dup2\n        /* \"#utility.yul\":7576:7606   */\n      gt\n        /* \"#utility.yul\":7573:7690   */\n      iszero\n      tag_310\n      jumpi\n        /* \"#utility.yul\":7609:7688   */\n      tag_311\n      tag_191\n      jump\t// in\n    tag_311:\n        /* \"#utility.yul\":7573:7690   */\n    tag_310:\n        /* \"#utility.yul\":7723:7727   */\n      0x20\n        /* \"#utility.yul\":7715:7721   */\n      dup4\n        /* \"#utility.yul\":7711:7728   */\n      add\n        /* \"#utility.yul\":7699:7728   */\n      swap2\n      pop\n        /* \"#utility.yul\":7777:7780   */\n      dup4\n        /* \"#utility.yul\":7769:7773   */\n      0x01\n        /* \"#utility.yul\":7761:7767   */\n      dup3\n        /* \"#utility.yul\":7757:7774   */\n      mul\n        /* \"#utility.yul\":7747:7755   */\n      dup4\n        /* \"#utility.yul\":7743:7775   */\n      add\n        /* \"#utility.yul\":7740:7781   */\n      gt\n        /* \"#utility.yul\":7737:7865   */\n      iszero\n      tag_312\n      jumpi\n        /* \"#utility.yul\":7784:7863   */\n      tag_313\n      tag_192\n      jump\t// in\n    tag_313:\n        /* \"#utility.yul\":7737:7865   */\n    tag_312:\n        /* \"#utility.yul\":7319:7871   */\n      swap3\n      pop\n      swap3\n      swap1\n      pop\n      jump\t// out\n        /* \"#utility.yul\":7877:8840   */\n    tag_77:\n        /* \"#utility.yul\":7974:7980   */\n      0x00\n        /* \"#utility.yul\":7982:7988   */\n      dup1\n        /* \"#utility.yul\":7990:7996   */\n      0x00\n        /* \"#utility.yul\":7998:8004   */\n      dup1\n        /* \"#utility.yul\":8006:8012   */\n      0x00\n        /* \"#utility.yul\":8055:8058   */\n      0x80\n        /* \"#utility.yul\":8043:8052   */\n      dup7\n        /* \"#utility.yul\":8034:8041   */\n      dup9\n        /* \"#utility.yul\":8030:8053   */\n      sub\n        /* \"#utility.yul\":8026:8059   */\n      slt\n        /* \"#utility.yul\":8023:8143   */\n      iszero\n      tag_315\n      jumpi\n        /* \"#utility.yul\":8062:8141   */\n      tag_316\n      tag_167\n      jump\t// in\n    tag_316:\n        /* \"#utility.yul\":8023:8143   */\n    tag_315:\n        /* \"#utility.yul\":8182:8183   */\n      0x00\n        /* \"#utility.yul\":8207:8260   */\n      tag_317\n        /* \"#utility.yul\":8252:8259   */\n      dup9\n        /* \"#utility.yul\":8243:8249   */\n      dup3\n        /* \"#utility.yul\":8232:8241   */\n      dup10\n        /* \"#utility.yul\":8228:8250   */\n      add\n        /* \"#utility.yul\":8207:8260   */\n      tag_186\n      jump\t// in\n    tag_317:\n        /* \"#utility.yul\":8197:8260   */\n      swap6\n      pop\n        /* \"#utility.yul\":8153:8270   */\n      pop\n        /* \"#utility.yul\":8309:8311   */\n      0x20\n        /* \"#utility.yul\":8335:8388   */\n      tag_318\n        /* \"#utility.yul\":8380:8387   */\n      dup9\n        /* \"#utility.yul\":8371:8377   */\n      dup3\n        /* \"#utility.yul\":8360:8369   */\n      dup10\n        /* \"#utility.yul\":8356:8378   */\n      add\n        /* \"#utility.yul\":8335:8388   */\n      tag_186\n      jump\t// in\n    tag_318:\n        /* \"#utility.yul\":8325:8388   */\n      swap5\n      pop\n        /* \"#utility.yul\":8280:8398   */\n      pop\n        /* \"#utility.yul\":8437:8439   */\n      0x40\n        /* \"#utility.yul\":8463:8516   */\n      tag_319\n        /* \"#utility.yul\":8508:8515   */\n      dup9\n        /* \"#utility.yul\":8499:8505   */\n      dup3\n        /* \"#utility.yul\":8488:8497   */\n      dup10\n        /* \"#utility.yul\":8484:8506   */\n      add\n        /* \"#utility.yul\":8463:8516   */\n      tag_181\n      jump\t// in\n    tag_319:\n        /* \"#utility.yul\":8453:8516   */\n      swap4\n      pop\n        /* \"#utility.yul\":8408:8526   */\n      pop\n        /* \"#utility.yul\":8593:8595   */\n      0x60\n        /* \"#utility.yul\":8582:8591   */\n      dup7\n        /* \"#utility.yul\":8578:8596   */\n      add\n        /* \"#utility.yul\":8565:8597   */\n      calldataload\n        /* \"#utility.yul\":8624:8642   */\n      0xffffffffffffffff\n        /* \"#utility.yul\":8616:8622   */\n      dup2\n        /* \"#utility.yul\":8613:8643   */\n      gt\n        /* \"#utility.yul\":8610:8727   */\n      iszero\n      tag_320\n      jumpi\n        /* \"#utility.yul\":8646:8725   */\n      tag_321\n      tag_168\n      jump\t// in\n    tag_321:\n        /* \"#utility.yul\":8610:8727   */\n    tag_320:\n        /* \"#utility.yul\":8759:8823   */\n      tag_322\n        /* \"#utility.yul\":8815:8822   */\n      dup9\n        /* \"#utility.yul\":8806:8812   */\n      dup3\n        /* \"#utility.yul\":8795:8804   */\n      dup10\n        /* \"#utility.yul\":8791:8813   */\n      add\n        /* \"#utility.yul\":8759:8823   */\n      tag_193\n      jump\t// in\n    tag_322:\n        /* \"#utility.yul\":8741:8823   */\n      swap3\n      pop\n      swap3\n      pop\n        /* \"#utility.yul\":8536:8833   */\n      pop\n        /* \"#utility.yul\":7877:8840   */\n      swap3\n      swap6\n      pop\n      swap3\n      swap6\n      swap1\n      swap4\n      pop\n      jump\t// out\n        /* \"#utility.yul\":8846:9320   */\n    tag_82:\n        /* \"#utility.yul\":8914:8920   */\n      0x00\n        /* \"#utility.yul\":8922:8928   */\n      dup1\n        /* \"#utility.yul\":8971:8973   */\n      0x40\n        /* \"#utility.yul\":8959:8968   */\n      dup4\n        /* \"#utility.yul\":8950:8957   */\n      dup6\n        /* \"#utility.yul\":8946:8969   */\n      sub\n        /* \"#utility.yul\":8942:8974   */\n      slt\n        /* \"#utility.yul\":8939:9058   */\n      iszero\n      tag_324\n      jumpi\n        /* \"#utility.yul\":8977:9056   */\n      tag_325\n      tag_167\n      jump\t// in\n    tag_325:\n        /* \"#utility.yul\":8939:9058   */\n    tag_324:\n        /* \"#utility.yul\":9097:9098   */\n      0x00\n        /* \"#utility.yul\":9122:9175   */\n      tag_326\n        /* \"#utility.yul\":9167:9174   */\n      dup6\n        /* \"#utility.yul\":9158:9164   */\n      dup3\n        /* \"#utility.yul\":9147:9156   */\n      dup7\n        /* \"#utility.yul\":9143:9165   */\n      add\n        /* \"#utility.yul\":9122:9175   */\n      tag_186\n      jump\t// in\n    tag_326:\n        /* \"#utility.yul\":9112:9175   */\n      swap3\n      pop\n        /* \"#utility.yul\":9068:9185   */\n      pop\n        /* \"#utility.yul\":9224:9226   */\n      0x20\n        /* \"#utility.yul\":9250:9303   */\n      tag_327\n        /* \"#utility.yul\":9295:9302   */\n      dup6\n        /* \"#utility.yul\":9286:9292   */\n      dup3\n        /* \"#utility.yul\":9275:9284   */\n      dup7\n        /* \"#utility.yul\":9271:9293   */\n      add\n        /* \"#utility.yul\":9250:9303   */\n      tag_186\n      jump\t// in\n    tag_327:\n        /* \"#utility.yul\":9240:9303   */\n      swap2\n      pop\n        /* \"#utility.yul\":9195:9313   */\n      pop\n        /* \"#utility.yul\":8846:9320   */\n      swap3\n      pop\n      swap3\n      swap1\n      pop\n      jump\t// out\n        /* \"#utility.yul\":9326:9506   */\n    tag_194:\n        /* \"#utility.yul\":9374:9451   */\n      0x4e487b7100000000000000000000000000000000000000000000000000000000\n        /* \"#utility.yul\":9371:9372   */\n      0x00\n        /* \"#utility.yul\":9364:9452   */\n      mstore\n        /* \"#utility.yul\":9471:9475   */\n      0x22\n        /* \"#utility.yul\":9468:9469   */\n      0x04\n        /* \"#utility.yul\":9461:9476   */\n      mstore\n        /* \"#utility.yul\":9495:9499   */\n      0x24\n        /* \"#utility.yul\":9492:9493   */\n      0x00\n        /* \"#utility.yul\":9485:9500   */\n      revert\n        /* \"#utility.yul\":9512:9832   */\n    tag_93:\n        /* \"#utility.yul\":9556:9562   */\n      0x00\n        /* \"#utility.yul\":9593:9594   */\n      0x02\n        /* \"#utility.yul\":9587:9591   */\n      dup3\n        /* \"#utility.yul\":9583:9595   */\n      div\n        /* \"#utility.yul\":9573:9595   */\n      swap1\n      pop\n        /* \"#utility.yul\":9640:9641   */\n      0x01\n        /* \"#utility.yul\":9634:9638   */\n      dup3\n        /* \"#utility.yul\":9630:9642   */\n      and\n        /* \"#utility.yul\":9661:9679   */\n      dup1\n        /* \"#utility.yul\":9651:9732   */\n      tag_330\n      jumpi\n        /* \"#utility.yul\":9717:9721   */\n      0x7f\n        /* \"#utility.yul\":9709:9715   */\n      dup3\n        /* \"#utility.yul\":9705:9722   */\n      and\n        /* \"#utility.yul\":9695:9722   */\n      swap2\n      pop\n        /* \"#utility.yul\":9651:9732   */\n    tag_330:\n        /* \"#utility.yul\":9779:9781   */\n      0x20\n        /* \"#utility.yul\":9771:9777   */\n      dup3\n        /* \"#utility.yul\":9768:9782   */\n      lt\n        /* \"#utility.yul\":9748:9766   */\n      dup2\n        /* \"#utility.yul\":9745:9783   */\n      sub\n        /* \"#utility.yul\":9742:9826   */\n      tag_331\n      jumpi\n        /* \"#utility.yul\":9798:9816   */\n      tag_332\n      tag_194\n      jump\t// in\n    tag_332:\n        /* \"#utility.yul\":9742:9826   */\n    tag_331:\n        /* \"#utility.yul\":9563:9832   */\n      pop\n        /* \"#utility.yul\":9512:9832   */\n      swap2\n      swap1\n      pop\n      jump\t// out\n        /* \"#utility.yul\":9838:10016   */\n    tag_195:\n        /* \"#utility.yul\":9978:10008   */\n      0x4572726f72203a20746f6b656e20646f6573206e6f7420657869737400000000\n        /* \"#utility.yul\":9974:9975   */\n      0x00\n        /* \"#utility.yul\":9966:9972   */\n      dup3\n        /* \"#utility.yul\":9962:9976   */\n      add\n        /* \"#utility.yul\":9955:10009   */\n      mstore\n        /* \"#utility.yul\":9838:10016   */\n      pop\n      jump\t// out\n        /* \"#utility.yul\":10022:10388   */\n    tag_196:\n        /* \"#utility.yul\":10164:10167   */\n      0x00\n        /* \"#utility.yul\":10185:10252   */\n      tag_335\n        /* \"#utility.yul\":10249:10251   */\n      0x1c\n        /* \"#utility.yul\":10244:10247   */\n      dup4\n        /* \"#utility.yul\":10185:10252   */\n      tag_175\n      jump\t// in\n    tag_335:\n        /* \"#utility.yul\":10178:10252   */\n      swap2\n      pop\n        /* \"#utility.yul\":10261:10354   */\n      tag_336\n        /* \"#utility.yul\":10350:10353   */\n      dup3\n        /* \"#utility.yul\":10261:10354   */\n      tag_195\n      jump\t// in\n    tag_336:\n        /* \"#utility.yul\":10379:10381   */\n      0x20\n        /* \"#utility.yul\":10374:10377   */\n      dup3\n        /* \"#utility.yul\":10370:10382   */\n      add\n        /* \"#utility.yul\":10363:10382   */\n      swap1\n      pop\n        /* \"#utility.yul\":10022:10388   */\n      swap2\n      swap1\n      pop\n      jump\t// out\n        /* \"#utility.yul\":10394:10813   */\n    tag_101:\n        /* \"#utility.yul\":10560:10564   */\n      0x00\n        /* \"#utility.yul\":10598:10600   */\n      0x20\n        /* \"#utility.yul\":10587:10596   */\n      dup3\n        /* \"#utility.yul\":10583:10601   */\n      add\n        /* \"#utility.yul\":10575:10601   */\n      swap1\n      pop\n        /* \"#utility.yul\":10647:10656   */\n      dup2\n        /* \"#utility.yul\":10641:10645   */\n      dup2\n        /* \"#utility.yul\":10637:10657   */\n      sub\n        /* \"#utility.yul\":10633:10634   */\n      0x00\n        /* \"#utility.yul\":10622:10631   */\n      dup4\n        /* \"#utility.yul\":10618:10635   */\n      add\n        /* \"#utility.yul\":10611:10658   */\n      mstore\n        /* \"#utility.yul\":10675:10806   */\n      tag_338\n        /* \"#utility.yul\":10801:10805   */\n      dup2\n        /* \"#utility.yul\":10675:10806   */\n      tag_196\n      jump\t// in\n    tag_338:\n        /* \"#utility.yul\":10667:10806   */\n      swap1\n      pop\n        /* \"#utility.yul\":10394:10813   */\n      swap2\n      swap1\n      pop\n      jump\t// out\n        /* \"#utility.yul\":10819:10983   */\n    tag_197:\n        /* \"#utility.yul\":10959:10975   */\n      0x6e6f7420617574686f72697a6564000000000000000000000000000000000000\n        /* \"#utility.yul\":10955:10956   */\n      0x00\n        /* \"#utility.yul\":10947:10953   */\n      dup3\n        /* \"#utility.yul\":10943:10957   */\n      add\n        /* \"#utility.yul\":10936:10976   */\n      mstore\n        /* \"#utility.yul\":10819:10983   */\n      pop\n      jump\t// out\n        /* \"#utility.yul\":10989:11355   */\n    tag_198:\n        /* \"#utility.yul\":11131:11134   */\n      0x00\n        /* \"#utility.yul\":11152:11219   */\n      tag_341\n        /* \"#utility.yul\":11216:11218   */\n      0x0e\n        /* \"#utility.yul\":11211:11214   */\n      dup4\n        /* \"#utility.yul\":11152:11219   */\n      tag_175\n      jump\t// in\n    tag_341:\n        /* \"#utility.yul\":11145:11219   */\n      swap2\n      pop\n        /* \"#utility.yul\":11228:11321   */\n      tag_342\n        /* \"#utility.yul\":11317:11320   */\n      dup3\n        /* \"#utility.yul\":11228:11321   */\n      tag_197\n      jump\t// in\n    tag_342:\n        /* \"#utility.yul\":11346:11348   */\n      0x20\n        /* \"#utility.yul\":11341:11344   */\n      dup3\n        /* \"#utility.yul\":11337:11349   */\n      add\n        /* \"#utility.yul\":11330:11349   */\n      swap1\n      pop\n        /* \"#utility.yul\":10989:11355   */\n      swap2\n      swap1\n      pop\n      jump\t// out\n        /* \"#utility.yul\":11361:11780   */\n    tag_106:\n        /* \"#utility.yul\":11527:11531   */\n      0x00\n        /* \"#utility.yul\":11565:11567   */\n      0x20\n        /* \"#utility.yul\":11554:11563   */\n      dup3\n        /* \"#utility.yul\":11550:11568   */\n      add\n        /* \"#utility.yul\":11542:11568   */\n      swap1\n      pop\n        /* \"#utility.yul\":11614:11623   */\n      dup2\n        /* \"#utility.yul\":11608:11612   */\n      dup2\n        /* \"#utility.yul\":11604:11624   */\n      sub\n        /* \"#utility.yul\":11600:11601   */\n      0x00\n        /* \"#utility.yul\":11589:11598   */\n      dup4\n        /* \"#utility.yul\":11585:11602   */\n      add\n        /* \"#utility.yul\":11578:11625   */\n      mstore\n        /* \"#utility.yul\":11642:11773   */\n      tag_344\n        /* \"#utility.yul\":11768:11772   */\n      dup2\n        /* \"#utility.yul\":11642:11773   */\n      tag_198\n      jump\t// in\n    tag_344:\n        /* \"#utility.yul\":11634:11773   */\n      swap1\n      pop\n        /* \"#utility.yul\":11361:11780   */\n      swap2\n      swap1\n      pop\n      jump\t// out\n        /* \"#utility.yul\":11786:12013   */\n    tag_199:\n        /* \"#utility.yul\":11926:11960   */\n      0x4572726f72203a20596f7520617265206e6f7420616e20617574686f72697a65\n        /* \"#utility.yul\":11922:11923   */\n      0x00\n        /* \"#utility.yul\":11914:11920   */\n      dup3\n        /* \"#utility.yul\":11910:11924   */\n      add\n        /* \"#utility.yul\":11903:11961   */\n      mstore\n        /* \"#utility.yul\":11995:12005   */\n      0x64206d696e746572000000000000000000000000000000000000000000000000\n        /* \"#utility.yul\":11990:11992   */\n      0x20\n        /* \"#utility.yul\":11982:11988   */\n      dup3\n        /* \"#utility.yul\":11978:11993   */\n      add\n        /* \"#utility.yul\":11971:12006   */\n      mstore\n        /* \"#utility.yul\":11786:12013   */\n      pop\n      jump\t// out\n        /* \"#utility.yul\":12019:12385   */\n    tag_200:\n        /* \"#utility.yul\":12161:12164   */\n      0x00\n        /* \"#utility.yul\":12182:12249   */\n      tag_347\n        /* \"#utility.yul\":12246:12248   */\n      0x28\n        /* \"#utility.yul\":12241:12244   */\n      dup4\n        /* \"#utility.yul\":12182:12249   */\n      tag_175\n      jump\t// in\n    tag_347:\n        /* \"#utility.yul\":12175:12249   */\n      swap2\n      pop\n        /* \"#utility.yul\":12258:12351   */\n      tag_348\n        /* \"#utility.yul\":12347:12350   */\n      dup3\n        /* \"#utility.yul\":12258:12351   */\n      tag_199\n      jump\t// in\n    tag_348:\n        /* \"#utility.yul\":12376:12378   */\n      0x40\n        /* \"#utility.yul\":12371:12374   */\n      dup3\n        /* \"#utility.yul\":12367:12379   */\n      add\n        /* \"#utility.yul\":12360:12379   */\n      swap1\n      pop\n        /* \"#utility.yul\":12019:12385   */\n      swap2\n      swap1\n      pop\n      jump\t// out\n        /* \"#utility.yul\":12391:12810   */\n    tag_113:\n        /* \"#utility.yul\":12557:12561   */\n      0x00\n        /* \"#utility.yul\":12595:12597   */\n      0x20\n        /* \"#utility.yul\":12584:12593   */\n      dup3\n        /* \"#utility.yul\":12580:12598   */\n      add\n        /* \"#utility.yul\":12572:12598   */\n      swap1\n      pop\n        /* \"#utility.yul\":12644:12653   */\n      dup2\n        /* \"#utility.yul\":12638:12642   */\n      dup2\n        /* \"#utility.yul\":12634:12654   */\n      sub\n        /* \"#utility.yul\":12630:12631   */\n      0x00\n        /* \"#utility.yul\":12619:12628   */\n      dup4\n        /* \"#utility.yul\":12615:12632   */\n      add\n        /* \"#utility.yul\":12608:12655   */\n      mstore\n        /* \"#utility.yul\":12672:12803   */\n      tag_350\n        /* \"#utility.yul\":12798:12802   */\n      dup2\n        /* \"#utility.yul\":12672:12803   */\n      tag_200\n      jump\t// in\n    tag_350:\n        /* \"#utility.yul\":12664:12803   */\n      swap1\n      pop\n        /* \"#utility.yul\":12391:12810   */\n      swap2\n      swap1\n      pop\n      jump\t// out\n        /* \"#utility.yul\":12816:12994   */\n    tag_201:\n        /* \"#utility.yul\":12956:12986   */\n      0x4572726f72203a20546f6b656e20646f6573206e6f7420657869737400000000\n        /* \"#utility.yul\":12952:12953   */\n      0x00\n        /* \"#utility.yul\":12944:12950   */\n      dup3\n        /* \"#utility.yul\":12940:12954   */\n      add\n        /* \"#utility.yul\":12933:12987   */\n      mstore\n        /* \"#utility.yul\":12816:12994   */\n      pop\n      jump\t// out\n        /* \"#utility.yul\":13000:13366   */\n    tag_202:\n        /* \"#utility.yul\":13142:13145   */\n      0x00\n        /* \"#utility.yul\":13163:13230   */\n      tag_353\n        /* \"#utility.yul\":13227:13229   */\n      0x1c\n        /* \"#utility.yul\":13222:13225   */\n      dup4\n        /* \"#utility.yul\":13163:13230   */\n      tag_175\n      jump\t// in\n    tag_353:\n        /* \"#utility.yul\":13156:13230   */\n      swap2\n      pop\n        /* \"#utility.yul\":13239:13332   */\n      tag_354\n        /* \"#utility.yul\":13328:13331   */\n      dup3\n        /* \"#utility.yul\":13239:13332   */\n      tag_201\n      jump\t// in\n    tag_354:\n        /* \"#utility.yul\":13357:13359   */\n      0x20\n        /* \"#utility.yul\":13352:13355   */\n      dup3\n        /* \"#utility.yul\":13348:13360   */\n      add\n        /* \"#utility.yul\":13341:13360   */\n      swap1\n      pop\n        /* \"#utility.yul\":13000:13366   */\n      swap2\n      swap1\n      pop\n      jump\t// out\n        /* \"#utility.yul\":13372:13791   */\n    tag_119:\n        /* \"#utility.yul\":13538:13542   */\n      0x00\n        /* \"#utility.yul\":13576:13578   */\n      0x20\n        /* \"#utility.yul\":13565:13574   */\n      dup3\n        /* \"#utility.yul\":13561:13579   */\n      add\n        /* \"#utility.yul\":13553:13579   */\n      swap1\n      pop\n        /* \"#utility.yul\":13625:13634   */\n      dup2\n        /* \"#utility.yul\":13619:13623   */\n      dup2\n        /* \"#utility.yul\":13615:13635   */\n      sub\n        /* \"#utility.yul\":13611:13612   */\n      0x00\n        /* \"#utility.yul\":13600:13609   */\n      dup4\n        /* \"#utility.yul\":13596:13613   */\n      add\n        /* \"#utility.yul\":13589:13636   */\n      mstore\n        /* \"#utility.yul\":13653:13784   */\n      tag_356\n        /* \"#utility.yul\":13779:13783   */\n      dup2\n        /* \"#utility.yul\":13653:13784   */\n      tag_202\n      jump\t// in\n    tag_356:\n        /* \"#utility.yul\":13645:13784   */\n      swap1\n      pop\n        /* \"#utility.yul\":13372:13791   */\n      swap2\n      swap1\n      pop\n      jump\t// out\n        /* \"#utility.yul\":13797:14026   */\n    tag_203:\n        /* \"#utility.yul\":13937:13971   */\n      0x4572726f72203a2062616c616e636520717565727920666f7220746865207a65\n        /* \"#utility.yul\":13933:13934   */\n      0x00\n        /* \"#utility.yul\":13925:13931   */\n      dup3\n        /* \"#utility.yul\":13921:13935   */\n      add\n        /* \"#utility.yul\":13914:13972   */\n      mstore\n        /* \"#utility.yul\":14006:14018   */\n      0x726f206164647265737300000000000000000000000000000000000000000000\n        /* \"#utility.yul\":14001:14003   */\n      0x20\n        /* \"#utility.yul\":13993:13999   */\n      dup3\n        /* \"#utility.yul\":13989:14004   */\n      add\n        /* \"#utility.yul\":13982:14019   */\n      mstore\n        /* \"#utility.yul\":13797:14026   */\n      pop\n      jump\t// out\n        /* \"#utility.yul\":14032:14398   */\n    tag_204:\n        /* \"#utility.yul\":14174:14177   */\n      0x00\n        /* \"#utility.yul\":14195:14262   */\n      tag_359\n        /* \"#utility.yul\":14259:14261   */\n      0x2a\n        /* \"#utility.yul\":14254:14257   */\n      dup4\n        /* \"#utility.yul\":14195:14262   */\n      tag_175\n      jump\t// in\n    tag_359:\n        /* \"#utility.yul\":14188:14262   */\n      swap2\n      pop\n        /* \"#utility.yul\":14271:14364   */\n      tag_360\n        /* \"#utility.yul\":14360:14363   */\n      dup3\n        /* \"#utility.yul\":14271:14364   */\n      tag_203\n      jump\t// in\n    tag_360:\n        /* \"#utility.yul\":14389:14391   */\n      0x40\n        /* \"#utility.yul\":14384:14387   */\n      dup3\n        /* \"#utility.yul\":14380:14392   */\n      add\n        /* \"#utility.yul\":14373:14392   */\n      swap1\n      pop\n        /* \"#utility.yul\":14032:14398   */\n      swap2\n      swap1\n      pop\n      jump\t// out\n        /* \"#utility.yul\":14404:14823   */\n    tag_123:\n        /* \"#utility.yul\":14570:14574   */\n      0x00\n        /* \"#utility.yul\":14608:14610   */\n      0x20\n        /* \"#utility.yul\":14597:14606   */\n      dup3\n        /* \"#utility.yul\":14593:14611   */\n      add\n        /* \"#utility.yul\":14585:14611   */\n      swap1\n      pop\n        /* \"#utility.yul\":14657:14666   */\n      dup2\n        /* \"#utility.yul\":14651:14655   */\n      dup2\n        /* \"#utility.yul\":14647:14667   */\n      sub\n        /* \"#utility.yul\":14643:14644   */\n      0x00\n        /* \"#utility.yul\":14632:14641   */\n      dup4\n        /* \"#utility.yul\":14628:14645   */\n      add\n        /* \"#utility.yul\":14621:14668   */\n      mstore\n        /* \"#utility.yul\":14685:14816   */\n      tag_362\n        /* \"#utility.yul\":14811:14815   */\n      dup2\n        /* \"#utility.yul\":14685:14816   */\n      tag_204\n      jump\t// in\n    tag_362:\n        /* \"#utility.yul\":14677:14816   */\n      swap1\n      pop\n        /* \"#utility.yul\":14404:14823   */\n      swap2\n      swap1\n      pop\n      jump\t// out\n        /* \"#utility.yul\":14829:14997   */\n    tag_205:\n        /* \"#utility.yul\":14912:14923   */\n      0x00\n        /* \"#utility.yul\":14946:14952   */\n      dup3\n        /* \"#utility.yul\":14941:14944   */\n      dup3\n        /* \"#utility.yul\":14934:14953   */\n      mstore\n        /* \"#utility.yul\":14986:14990   */\n      0x20\n        /* \"#utility.yul\":14981:14984   */\n      dup3\n        /* \"#utility.yul\":14977:14991   */\n      add\n        /* \"#utility.yul\":14962:14991   */\n      swap1\n      pop\n        /* \"#utility.yul\":14829:14997   */\n      swap3\n      swap2\n      pop\n      pop\n      jump\t// out\n        /* \"#utility.yul\":15003:15149   */\n    tag_206:\n        /* \"#utility.yul\":15100:15106   */\n      dup3\n        /* \"#utility.yul\":15095:15098   */\n      dup2\n        /* \"#utility.yul\":15090:15093   */\n      dup4\n        /* \"#utility.yul\":15077:15107   */\n      calldatacopy\n        /* \"#utility.yul\":15141:15142   */\n      0x00\n        /* \"#utility.yul\":15132:15138   */\n      dup4\n        /* \"#utility.yul\":15127:15130   */\n      dup4\n        /* \"#utility.yul\":15123:15139   */\n      add\n        /* \"#utility.yul\":15116:15143   */\n      mstore\n        /* \"#utility.yul\":15003:15149   */\n      pop\n      pop\n      pop\n      jump\t// out\n        /* \"#utility.yul\":15177:15491   */\n    tag_207:\n        /* \"#utility.yul\":15273:15276   */\n      0x00\n        /* \"#utility.yul\":15294:15364   */\n      tag_366\n        /* \"#utility.yul\":15357:15363   */\n      dup4\n        /* \"#utility.yul\":15352:15355   */\n      dup6\n        /* \"#utility.yul\":15294:15364   */\n      tag_205\n      jump\t// in\n    tag_366:\n        /* \"#utility.yul\":15287:15364   */\n      swap4\n      pop\n        /* \"#utility.yul\":15374:15430   */\n      tag_367\n        /* \"#utility.yul\":15423:15429   */\n      dup4\n        /* \"#utility.yul\":15418:15421   */\n      dup6\n        /* \"#utility.yul\":15411:15416   */\n      dup5\n        /* \"#utility.yul\":15374:15430   */\n      tag_206\n      jump\t// in\n    tag_367:\n        /* \"#utility.yul\":15455:15484   */\n      tag_368\n        /* \"#utility.yul\":15477:15483   */\n      dup4\n        /* \"#utility.yul\":15455:15484   */\n      tag_177\n      jump\t// in\n    tag_368:\n        /* \"#utility.yul\":15450:15453   */\n      dup5\n        /* \"#utility.yul\":15446:15485   */\n      add\n        /* \"#utility.yul\":15439:15485   */\n      swap1\n      pop\n        /* \"#utility.yul\":15177:15491   */\n      swap4\n      swap3\n      pop\n      pop\n      pop\n      jump\t// out\n        /* \"#utility.yul\":15497:16157   */\n    tag_135:\n        /* \"#utility.yul\":15702:15706   */\n      0x00\n        /* \"#utility.yul\":15740:15743   */\n      0x80\n        /* \"#utility.yul\":15729:15738   */\n      dup3\n        /* \"#utility.yul\":15725:15744   */\n      add\n        /* \"#utility.yul\":15717:15744   */\n      swap1\n      pop\n        /* \"#utility.yul\":15754:15825   */\n      tag_370\n        /* \"#utility.yul\":15822:15823   */\n      0x00\n        /* \"#utility.yul\":15811:15820   */\n      dup4\n        /* \"#utility.yul\":15807:15824   */\n      add\n        /* \"#utility.yul\":15798:15804   */\n      dup9\n        /* \"#utility.yul\":15754:15825   */\n      tag_184\n      jump\t// in\n    tag_370:\n        /* \"#utility.yul\":15835:15907   */\n      tag_371\n        /* \"#utility.yul\":15903:15905   */\n      0x20\n        /* \"#utility.yul\":15892:15901   */\n      dup4\n        /* \"#utility.yul\":15888:15906   */\n      add\n        /* \"#utility.yul\":15879:15885   */\n      dup8\n        /* \"#utility.yul\":15835:15907   */\n      tag_184\n      jump\t// in\n    tag_371:\n        /* \"#utility.yul\":15917:15989   */\n      tag_372\n        /* \"#utility.yul\":15985:15987   */\n      0x40\n        /* \"#utility.yul\":15974:15983   */\n      dup4\n        /* \"#utility.yul\":15970:15988   */\n      add\n        /* \"#utility.yul\":15961:15967   */\n      dup7\n        /* \"#utility.yul\":15917:15989   */\n      tag_187\n      jump\t// in\n    tag_372:\n        /* \"#utility.yul\":16036:16045   */\n      dup2\n        /* \"#utility.yul\":16030:16034   */\n      dup2\n        /* \"#utility.yul\":16026:16046   */\n      sub\n        /* \"#utility.yul\":16021:16023   */\n      0x60\n        /* \"#utility.yul\":16010:16019   */\n      dup4\n        /* \"#utility.yul\":16006:16024   */\n      add\n        /* \"#utility.yul\":15999:16047   */\n      mstore\n        /* \"#utility.yul\":16064:16150   */\n      tag_373\n        /* \"#utility.yul\":16145:16149   */\n      dup2\n        /* \"#utility.yul\":16136:16142   */\n      dup5\n        /* \"#utility.yul\":16128:16134   */\n      dup7\n        /* \"#utility.yul\":16064:16150   */\n      tag_207\n      jump\t// in\n    tag_373:\n        /* \"#utility.yul\":16056:16150   */\n      swap1\n      pop\n        /* \"#utility.yul\":15497:16157   */\n      swap7\n      swap6\n      pop\n      pop\n      pop\n      pop\n      pop\n      pop\n      jump\t// out\n        /* \"#utility.yul\":16163:16304   */\n    tag_208:\n        /* \"#utility.yul\":16219:16224   */\n      0x00\n        /* \"#utility.yul\":16250:16256   */\n      dup2\n        /* \"#utility.yul\":16244:16257   */\n      mload\n        /* \"#utility.yul\":16235:16257   */\n      swap1\n      pop\n        /* \"#utility.yul\":16266:16298   */\n      tag_375\n        /* \"#utility.yul\":16292:16297   */\n      dup2\n        /* \"#utility.yul\":16266:16298   */\n      tag_170\n      jump\t// in\n    tag_375:\n        /* \"#utility.yul\":16163:16304   */\n      swap3\n      swap2\n      pop\n      pop\n      jump\t// out\n        /* \"#utility.yul\":16310:16659   */\n    tag_139:\n        /* \"#utility.yul\":16379:16385   */\n      0x00\n        /* \"#utility.yul\":16428:16430   */\n      0x20\n        /* \"#utility.yul\":16416:16425   */\n      dup3\n        /* \"#utility.yul\":16407:16414   */\n      dup5\n        /* \"#utility.yul\":16403:16426   */\n      sub\n        /* \"#utility.yul\":16399:16431   */\n      slt\n        /* \"#utility.yul\":16396:16515   */\n      iszero\n      tag_377\n      jumpi\n        /* \"#utility.yul\":16434:16513   */\n      tag_378\n      tag_167\n      jump\t// in\n    tag_378:\n        /* \"#utility.yul\":16396:16515   */\n    tag_377:\n        /* \"#utility.yul\":16554:16555   */\n      0x00\n        /* \"#utility.yul\":16579:16642   */\n      tag_379\n        /* \"#utility.yul\":16634:16641   */\n      dup5\n        /* \"#utility.yul\":16625:16631   */\n      dup3\n        /* \"#utility.yul\":16614:16623   */\n      dup6\n        /* \"#utility.yul\":16610:16632   */\n      add\n        /* \"#utility.yul\":16579:16642   */\n      tag_208\n      jump\t// in\n    tag_379:\n        /* \"#utility.yul\":16569:16642   */\n      swap2\n      pop\n        /* \"#utility.yul\":16525:16652   */\n      pop\n        /* \"#utility.yul\":16310:16659   */\n      swap3\n      swap2\n      pop\n      pop\n      jump\t// out\n        /* \"#utility.yul\":16665:16839   */\n    tag_209:\n        /* \"#utility.yul\":16805:16831   */\n      0x4572726f72203a20756e7361666520726563697069656e740000000000000000\n        /* \"#utility.yul\":16801:16802   */\n      0x00\n        /* \"#utility.yul\":16793:16799   */\n      dup3\n        /* \"#utility.yul\":16789:16803   */\n      add\n        /* \"#utility.yul\":16782:16832   */\n      mstore\n        /* \"#utility.yul\":16665:16839   */\n      pop\n      jump\t// out\n        /* \"#utility.yul\":16845:17211   */\n    tag_210:\n        /* \"#utility.yul\":16987:16990   */\n      0x00\n        /* \"#utility.yul\":17008:17075   */\n      tag_382\n        /* \"#utility.yul\":17072:17074   */\n      0x18\n        /* \"#utility.yul\":17067:17070   */\n      dup4\n        /* \"#utility.yul\":17008:17075   */\n      tag_175\n      jump\t// in\n    tag_382:\n        /* \"#utility.yul\":17001:17075   */\n      swap2\n      pop\n        /* \"#utility.yul\":17084:17177   */\n      tag_383\n        /* \"#utility.yul\":17173:17176   */\n      dup3\n        /* \"#utility.yul\":17084:17177   */\n      tag_209\n      jump\t// in\n    tag_383:\n        /* \"#utility.yul\":17202:17204   */\n      0x20\n        /* \"#utility.yul\":17197:17200   */\n      dup3\n        /* \"#utility.yul\":17193:17205   */\n      add\n        /* \"#utility.yul\":17186:17205   */\n      swap1\n      pop\n        /* \"#utility.yul\":16845:17211   */\n      swap2\n      swap1\n      pop\n      jump\t// out\n        /* \"#utility.yul\":17217:17636   */\n    tag_142:\n        /* \"#utility.yul\":17383:17387   */\n      0x00\n        /* \"#utility.yul\":17421:17423   */\n      0x20\n        /* \"#utility.yul\":17410:17419   */\n      dup3\n        /* \"#utility.yul\":17406:17424   */\n      add\n        /* \"#utility.yul\":17398:17424   */\n      swap1\n      pop\n        /* \"#utility.yul\":17470:17479   */\n      dup2\n        /* \"#utility.yul\":17464:17468   */\n      dup2\n        /* \"#utility.yul\":17460:17480   */\n      sub\n        /* \"#utility.yul\":17456:17457   */\n      0x00\n        /* \"#utility.yul\":17445:17454   */\n      dup4\n        /* \"#utility.yul\":17441:17458   */\n      add\n        /* \"#utility.yul\":17434:17481   */\n      mstore\n        /* \"#utility.yul\":17498:17629   */\n      tag_385\n        /* \"#utility.yul\":17624:17628   */\n      dup2\n        /* \"#utility.yul\":17498:17629   */\n      tag_210\n      jump\t// in\n    tag_385:\n        /* \"#utility.yul\":17490:17629   */\n      swap1\n      pop\n        /* \"#utility.yul\":17217:17636   */\n      swap2\n      swap1\n      pop\n      jump\t// out\n        /* \"#utility.yul\":17642:17805   */\n    tag_211:\n        /* \"#utility.yul\":17782:17797   */\n      0x66726f6d20213d206f776e657200000000000000000000000000000000000000\n        /* \"#utility.yul\":17778:17779   */\n      0x00\n        /* \"#utility.yul\":17770:17776   */\n      dup3\n        /* \"#utility.yul\":17766:17780   */\n      add\n        /* \"#utility.yul\":17759:17798   */\n      mstore\n        /* \"#utility.yul\":17642:17805   */\n      pop\n      jump\t// out\n        /* \"#utility.yul\":17811:18177   */\n    tag_212:\n        /* \"#utility.yul\":17953:17956   */\n      0x00\n        /* \"#utility.yul\":17974:18041   */\n      tag_388\n        /* \"#utility.yul\":18038:18040   */\n      0x0d\n        /* \"#utility.yul\":18033:18036   */\n      dup4\n        /* \"#utility.yul\":17974:18041   */\n      tag_175\n      jump\t// in\n    tag_388:\n        /* \"#utility.yul\":17967:18041   */\n      swap2\n      pop\n        /* \"#utility.yul\":18050:18143   */\n      tag_389\n        /* \"#utility.yul\":18139:18142   */\n      dup3\n        /* \"#utility.yul\":18050:18143   */\n      tag_211\n      jump\t// in\n    tag_389:\n        /* \"#utility.yul\":18168:18170   */\n      0x20\n        /* \"#utility.yul\":18163:18166   */\n      dup3\n        /* \"#utility.yul\":18159:18171   */\n      add\n        /* \"#utility.yul\":18152:18171   */\n      swap1\n      pop\n        /* \"#utility.yul\":17811:18177   */\n      swap2\n      swap1\n      pop\n      jump\t// out\n        /* \"#utility.yul\":18183:18602   */\n    tag_147:\n        /* \"#utility.yul\":18349:18353   */\n      0x00\n        /* \"#utility.yul\":18387:18389   */\n      0x20\n        /* \"#utility.yul\":18376:18385   */\n      dup3\n        /* \"#utility.yul\":18372:18390   */\n      add\n        /* \"#utility.yul\":18364:18390   */\n      swap1\n      pop\n        /* \"#utility.yul\":18436:18445   */\n      dup2\n        /* \"#utility.yul\":18430:18434   */\n      dup2\n        /* \"#utility.yul\":18426:18446   */\n      sub\n        /* \"#utility.yul\":18422:18423   */\n      0x00\n        /* \"#utility.yul\":18411:18420   */\n      dup4\n        /* \"#utility.yul\":18407:18424   */\n      add\n        /* \"#utility.yul\":18400:18447   */\n      mstore\n        /* \"#utility.yul\":18464:18595   */\n      tag_391\n        /* \"#utility.yul\":18590:18594   */\n      dup2\n        /* \"#utility.yul\":18464:18595   */\n      tag_212\n      jump\t// in\n    tag_391:\n        /* \"#utility.yul\":18456:18595   */\n      swap1\n      pop\n        /* \"#utility.yul\":18183:18602   */\n      swap2\n      swap1\n      pop\n      jump\t// out\n        /* \"#utility.yul\":18608:18782   */\n    tag_213:\n        /* \"#utility.yul\":18748:18774   */\n      0x7472616e7366657220746f207a65726f20616464726573730000000000000000\n        /* \"#utility.yul\":18744:18745   */\n      0x00\n        /* \"#utility.yul\":18736:18742   */\n      dup3\n        /* \"#utility.yul\":18732:18746   */\n      add\n        /* \"#utility.yul\":18725:18775   */\n      mstore\n        /* \"#utility.yul\":18608:18782   */\n      pop\n      jump\t// out\n        /* \"#utility.yul\":18788:19154   */\n    tag_214:\n        /* \"#utility.yul\":18930:18933   */\n      0x00\n        /* \"#utility.yul\":18951:19018   */\n      tag_394\n        /* \"#utility.yul\":19015:19017   */\n      0x18\n        /* \"#utility.yul\":19010:19013   */\n      dup4\n        /* \"#utility.yul\":18951:19018   */\n      tag_175\n      jump\t// in\n    tag_394:\n        /* \"#utility.yul\":18944:19018   */\n      swap2\n      pop\n        /* \"#utility.yul\":19027:19120   */\n      tag_395\n        /* \"#utility.yul\":19116:19119   */\n      dup3\n        /* \"#utility.yul\":19027:19120   */\n      tag_213\n      jump\t// in\n    tag_395:\n        /* \"#utility.yul\":19145:19147   */\n      0x20\n        /* \"#utility.yul\":19140:19143   */\n      dup3\n        /* \"#utility.yul\":19136:19148   */\n      add\n        /* \"#utility.yul\":19129:19148   */\n      swap1\n      pop\n        /* \"#utility.yul\":18788:19154   */\n      swap2\n      swap1\n      pop\n      jump\t// out\n        /* \"#utility.yul\":19160:19579   */\n    tag_150:\n        /* \"#utility.yul\":19326:19330   */\n      0x00\n        /* \"#utility.yul\":19364:19366   */\n      0x20\n        /* \"#utility.yul\":19353:19362   */\n      dup3\n        /* \"#utility.yul\":19349:19367   */\n      add\n        /* \"#utility.yul\":19341:19367   */\n      swap1\n      pop\n        /* \"#utility.yul\":19413:19422   */\n      dup2\n        /* \"#utility.yul\":19407:19411   */\n      dup2\n        /* \"#utility.yul\":19403:19423   */\n      sub\n        /* \"#utility.yul\":19399:19400   */\n      0x00\n        /* \"#utility.yul\":19388:19397   */\n      dup4\n        /* \"#utility.yul\":19384:19401   */\n      add\n        /* \"#utility.yul\":19377:19424   */\n      mstore\n        /* \"#utility.yul\":19441:19572   */\n      tag_397\n        /* \"#utility.yul\":19567:19571   */\n      dup2\n        /* \"#utility.yul\":19441:19572   */\n      tag_214\n      jump\t// in\n    tag_397:\n        /* \"#utility.yul\":19433:19572   */\n      swap1\n      pop\n        /* \"#utility.yul\":19160:19579   */\n      swap2\n      swap1\n      pop\n      jump\t// out\n        /* \"#utility.yul\":19585:19765   */\n    tag_215:\n        /* \"#utility.yul\":19633:19710   */\n      0x4e487b7100000000000000000000000000000000000000000000000000000000\n        /* \"#utility.yul\":19630:19631   */\n      0x00\n        /* \"#utility.yul\":19623:19711   */\n      mstore\n        /* \"#utility.yul\":19730:19734   */\n      0x11\n        /* \"#utility.yul\":19727:19728   */\n      0x04\n        /* \"#utility.yul\":19720:19735   */\n      mstore\n        /* \"#utility.yul\":19754:19758   */\n      0x24\n        /* \"#utility.yul\":19751:19752   */\n      0x00\n        /* \"#utility.yul\":19744:19759   */\n      revert\n        /* \"#utility.yul\":19771:19942   */\n    tag_155:\n        /* \"#utility.yul\":19810:19813   */\n      0x00\n        /* \"#utility.yul\":19833:19857   */\n      tag_400\n        /* \"#utility.yul\":19851:19856   */\n      dup3\n        /* \"#utility.yul\":19833:19857   */\n      tag_179\n      jump\t// in\n    tag_400:\n        /* \"#utility.yul\":19824:19857   */\n      swap2\n      pop\n        /* \"#utility.yul\":19879:19883   */\n      0x00\n        /* \"#utility.yul\":19872:19877   */\n      dup3\n        /* \"#utility.yul\":19869:19884   */\n      sub\n        /* \"#utility.yul\":19866:19907   */\n      tag_401\n      jumpi\n        /* \"#utility.yul\":19887:19905   */\n      tag_402\n      tag_215\n      jump\t// in\n    tag_402:\n        /* \"#utility.yul\":19866:19907   */\n    tag_401:\n        /* \"#utility.yul\":19934:19935   */\n      0x01\n        /* \"#utility.yul\":19927:19932   */\n      dup3\n        /* \"#utility.yul\":19923:19936   */\n      sub\n        /* \"#utility.yul\":19916:19936   */\n      swap1\n      pop\n        /* \"#utility.yul\":19771:19942   */\n      swap2\n      swap1\n      pop\n      jump\t// out\n        /* \"#utility.yul\":19948:20181   */\n    tag_157:\n        /* \"#utility.yul\":19987:19990   */\n      0x00\n        /* \"#utility.yul\":20010:20034   */\n      tag_404\n        /* \"#utility.yul\":20028:20033   */\n      dup3\n        /* \"#utility.yul\":20010:20034   */\n      tag_179\n      jump\t// in\n    tag_404:\n        /* \"#utility.yul\":20001:20034   */\n      swap2\n      pop\n        /* \"#utility.yul\":20056:20122   */\n      0xffffffffffffffffffffffffffffffffffffffffffffffffffffffffffffffff\n        /* \"#utility.yul\":20049:20054   */\n      dup3\n        /* \"#utility.yul\":20046:20123   */\n      sub\n        /* \"#utility.yul\":20043:20146   */\n      tag_405\n      jumpi\n        /* \"#utility.yul\":20126:20144   */\n      tag_406\n      tag_215\n      jump\t// in\n    tag_406:\n        /* \"#utility.yul\":20043:20146   */\n    tag_405:\n        /* \"#utility.yul\":20173:20174   */\n      0x01\n        /* \"#utility.yul\":20166:20171   */\n      dup3\n        /* \"#utility.yul\":20162:20175   */\n      add\n        /* \"#utility.yul\":20155:20175   */\n      swap1\n      pop\n        /* \"#utility.yul\":19948:20181   */\n      swap2\n      swap1\n      pop\n      jump\t// out\n        /* \"#utility.yul\":20187:20365   */\n    tag_216:\n        /* \"#utility.yul\":20327:20357   */\n      0x4572726f72203a206d696e7420746f207a65726f206164647265737300000000\n        /* \"#utility.yul\":20323:20324   */\n      0x00\n        /* \"#utility.yul\":20315:20321   */\n      dup3\n        /* \"#utility.yul\":20311:20325   */\n      add\n        /* \"#utility.yul\":20304:20358   */\n      mstore\n        /* \"#utility.yul\":20187:20365   */\n      pop\n      jump\t// out\n        /* \"#utility.yul\":20371:20737   */\n    tag_217:\n        /* \"#utility.yul\":20513:20516   */\n      0x00\n        /* \"#utility.yul\":20534:20601   */\n      tag_409\n        /* \"#utility.yul\":20598:20600   */\n      0x1c\n        /* \"#utility.yul\":20593:20596   */\n      dup4\n        /* \"#utility.yul\":20534:20601   */\n      tag_175\n      jump\t// in\n    tag_409:\n        /* \"#utility.yul\":20527:20601   */\n      swap2\n      pop\n        /* \"#utility.yul\":20610:20703   */\n      tag_410\n        /* \"#utility.yul\":20699:20702   */\n      dup3\n        /* \"#utility.yul\":20610:20703   */\n      tag_216\n      jump\t// in\n    tag_410:\n        /* \"#utility.yul\":20728:20730   */\n      0x20\n        /* \"#utility.yul\":20723:20726   */\n      dup3\n        /* \"#utility.yul\":20719:20731   */\n      add\n        /* \"#utility.yul\":20712:20731   */\n      swap1\n      pop\n        /* \"#utility.yul\":20371:20737   */\n      swap2\n      swap1\n      pop\n      jump\t// out\n        /* \"#utility.yul\":20743:21162   */\n    tag_161:\n        /* \"#utility.yul\":20909:20913   */\n      0x00\n        /* \"#utility.yul\":20947:20949   */\n      0x20\n        /* \"#utility.yul\":20936:20945   */\n      dup3\n        /* \"#utility.yul\":20932:20950   */\n      add\n        /* \"#utility.yul\":20924:20950   */\n      swap1\n      pop\n        /* \"#utility.yul\":20996:21005   */\n      dup2\n        /* \"#utility.yul\":20990:20994   */\n      dup2\n        /* \"#utility.yul\":20986:21006   */\n      sub\n        /* \"#utility.yul\":20982:20983   */\n      0x00\n        /* \"#utility.yul\":20971:20980   */\n      dup4\n        /* \"#utility.yul\":20967:20984   */\n      add\n        /* \"#utility.yul\":20960:21007   */\n      mstore\n        /* \"#utility.yul\":21024:21155   */\n      tag_412\n        /* \"#utility.yul\":21150:21154   */\n      dup2\n        /* \"#utility.yul\":21024:21155   */\n      tag_217\n      jump\t// in\n    tag_412:\n        /* \"#utility.yul\":21016:21155   */\n      swap1\n      pop\n        /* \"#utility.yul\":20743:21162   */\n      swap2\n      swap1\n      pop\n      jump\t// out\n        /* \"#utility.yul\":21168:21341   */\n    tag_218:\n        /* \"#utility.yul\":21308:21333   */\n      0x4572726f72203a20416c7265616479206d696e74656421000000000000000000\n        /* \"#utility.yul\":21304:21305   */\n      0x00\n        /* \"#utility.yul\":21296:21302   */\n      dup3\n        /* \"#utility.yul\":21292:21306   */\n      add\n        /* \"#utility.yul\":21285:21334   */\n      mstore\n        /* \"#utility.yul\":21168:21341   */\n      pop\n      jump\t// out\n        /* \"#utility.yul\":21347:21713   */\n    tag_219:\n        /* \"#utility.yul\":21489:21492   */\n      0x00\n        /* \"#utility.yul\":21510:21577   */\n      tag_415\n        /* \"#utility.yul\":21574:21576   */\n      0x17\n        /* \"#utility.yul\":21569:21572   */\n      dup4\n        /* \"#utility.yul\":21510:21577   */\n      tag_175\n      jump\t// in\n    tag_415:\n        /* \"#utility.yul\":21503:21577   */\n      swap2\n      pop\n        /* \"#utility.yul\":21586:21679   */\n      tag_416\n        /* \"#utility.yul\":21675:21678   */\n      dup3\n        /* \"#utility.yul\":21586:21679   */\n      tag_218\n      jump\t// in\n    tag_416:\n        /* \"#utility.yul\":21704:21706   */\n      0x20\n        /* \"#utility.yul\":21699:21702   */\n      dup3\n        /* \"#utility.yul\":21695:21707   */\n      add\n        /* \"#utility.yul\":21688:21707   */\n      swap1\n      pop\n        /* \"#utility.yul\":21347:21713   */\n      swap2\n      swap1\n      pop\n      jump\t// out\n        /* \"#utility.yul\":21719:22138   */\n    tag_164:\n        /* \"#utility.yul\":21885:21889   */\n      0x00\n        /* \"#utility.yul\":21923:21925   */\n      0x20\n        /* \"#utility.yul\":21912:21921   */\n      dup3\n        /* \"#utility.yul\":21908:21926   */\n      add\n        /* \"#utility.yul\":21900:21926   */\n      swap1\n      pop\n        /* \"#utility.yul\":21972:21981   */\n      dup2\n        /* \"#utility.yul\":21966:21970   */\n      dup2\n        /* \"#utility.yul\":21962:21982   */\n      sub\n        /* \"#utility.yul\":21958:21959   */\n      0x00\n        /* \"#utility.yul\":21947:21956   */\n      dup4\n        /* \"#utility.yul\":21943:21960   */\n      add\n        /* \"#utility.yul\":21936:21983   */\n      mstore\n        /* \"#utility.yul\":22000:22131   */\n      tag_418\n        /* \"#utility.yul\":22126:22130   */\n      dup2\n        /* \"#utility.yul\":22000:22131   */\n      tag_219\n      jump\t// in\n    tag_418:\n        /* \"#utility.yul\":21992:22131   */\n      swap1\n      pop\n        /* \"#utility.yul\":21719:22138   */\n      swap2\n      swap1\n      pop\n      jump\t// out\n\n    auxdata: 0xa264697066735822122032f669242b4fe1d0c1d89a6214ad1923ffdca0295682289e3bf6c82e3a95502464736f6c63430008120033\n}\n",
				"bytecode": {
					"linkReferences": {},
					"object": "60806040523480156200001157600080fd5b50604051620028973803806200289783398181016040528101906200003791906200048f565b336000806101000a81548173ffffffffffffffffffffffffffffffffffffffff021916908373ffffffffffffffffffffffffffffffffffffffff16021790555081600590816200008891906200075f565b5080600690816200009a91906200075f565b506000600190505b60058111620000d357620000bd3382620000dc60201b60201c565b8080620000ca9062000875565b915050620000a2565b505050620009b7565b600073ffffffffffffffffffffffffffffffffffffffff168273ffffffffffffffffffffffffffffffffffffffff16036200014e576040517f08c379a0000000000000000000000000000000000000000000000000000000008152600401620001459062000923565b60405180910390fd5b600073ffffffffffffffffffffffffffffffffffffffff166001600083815260200190815260200160002060009054906101000a900473ffffffffffffffffffffffffffffffffffffffff1673ffffffffffffffffffffffffffffffffffffffff1614620001f3576040517f08c379a0000000000000000000000000000000000000000000000000000000008152600401620001ea9062000995565b60405180910390fd5b600260008373ffffffffffffffffffffffffffffffffffffffff1673ffffffffffffffffffffffffffffffffffffffff1681526020019081526020016000206000815480929190620002459062000875565b9190505550816001600083815260200190815260200160002060006101000a81548173ffffffffffffffffffffffffffffffffffffffff021916908373ffffffffffffffffffffffffffffffffffffffff160217905550808273ffffffffffffffffffffffffffffffffffffffff16600073ffffffffffffffffffffffffffffffffffffffff167fddf252ad1be2c89b69c2b068fc378daa952ba7f163c4a11628f55a4df523b3ef60405160405180910390a45050565b6000604051905090565b600080fd5b600080fd5b600080fd5b600080fd5b6000601f19601f8301169050919050565b7f4e487b7100000000000000000000000000000000000000000000000000000000600052604160045260246000fd5b62000365826200031a565b810181811067ffffffffffffffff821117156200038757620003866200032b565b5b80604052505050565b60006200039c620002fc565b9050620003aa82826200035a565b919050565b600067ffffffffffffffff821115620003cd57620003cc6200032b565b5b620003d8826200031a565b9050602081019050919050565b60005b8381101562000405578082015181840152602081019050620003e8565b60008484015250505050565b6000620004286200042284620003af565b62000390565b90508281526020810184848401111562000447576200044662000315565b5b62000454848285620003e5565b509392505050565b600082601f83011262000474576200047362000310565b5b81516200048684826020860162000411565b91505092915050565b60008060408385031215620004a957620004a862000306565b5b600083015167ffffffffffffffff811115620004ca57620004c96200030b565b5b620004d8858286016200045c565b925050602083015167ffffffffffffffff811115620004fc57620004fb6200030b565b5b6200050a858286016200045c565b9150509250929050565b600081519050919050565b7f4e487b7100000000000000000000000000000000000000000000000000000000600052602260045260246000fd5b600060028204905060018216806200056757607f821691505b6020821081036200057d576200057c6200051f565b5b50919050565b60008190508160005260206000209050919050565b60006020601f8301049050919050565b600082821b905092915050565b600060088302620005e77fffffffffffffffffffffffffffffffffffffffffffffffffffffffffffffffff82620005a8565b620005f38683620005a8565b95508019841693508086168417925050509392505050565b6000819050919050565b6000819050919050565b6000620006406200063a62000634846200060b565b62000615565b6200060b565b9050919050565b6000819050919050565b6200065c836200061f565b620006746200066b8262000647565b848454620005b5565b825550505050565b600090565b6200068b6200067c565b6200069881848462000651565b505050565b5b81811015620006c057620006b460008262000681565b6001810190506200069e565b5050565b601f8211156200070f57620006d98162000583565b620006e48462000598565b81016020851015620006f4578190505b6200070c620007038562000598565b8301826200069d565b50505b505050565b600082821c905092915050565b6000620007346000198460080262000714565b1980831691505092915050565b60006200074f838362000721565b9150826002028217905092915050565b6200076a8262000514565b67ffffffffffffffff8111156200078657620007856200032b565b5b6200079282546200054e565b6200079f828285620006c4565b600060209050601f831160018114620007d75760008415620007c2578287015190505b620007ce858262000741565b8655506200083e565b601f198416620007e78662000583565b60005b828110156200081157848901518255600182019150602085019450602081019050620007ea565b868310156200083157848901516200082d601f89168262000721565b8355505b6001600288020188555050505b505050505050565b7f4e487b7100000000000000000000000000000000000000000000000000000000600052601160045260246000fd5b600062000882826200060b565b91507fffffffffffffffffffffffffffffffffffffffffffffffffffffffffffffffff8203620008b757620008b662000846565b5b600182019050919050565b600082825260208201905092915050565b7f4572726f72203a206d696e7420746f207a65726f206164647265737300000000600082015250565b60006200090b601c83620008c2565b91506200091882620008d3565b602082019050919050565b600060208201905081810360008301526200093e81620008fc565b9050919050565b7f4572726f72203a20416c7265616479206d696e74656421000000000000000000600082015250565b60006200097d601783620008c2565b91506200098a8262000945565b602082019050919050565b60006020820190508181036000830152620009b0816200096e565b9050919050565b611ed080620009c76000396000f3fe6080604052600436106100dd5760003560e01c80636352211e1161007f578063a22cb46511610059578063a22cb465146102b8578063b88d4fde146102e1578063e985e9c5146102fd578063edc3bc3f1461033a576100dd565b80636352211e1461021357806370a082311461025057806395d89b411461028d576100dd565b8063095ea7b3116100bb578063095ea7b31461018757806323b872dd146101a35780633c168eab146101bf5780634d853ee5146101e8576100dd565b806301ffc9a7146100e257806306fdde031461011f578063081812fc1461014a575b600080fd5b3480156100ee57600080fd5b50610109600480360381019061010491906113b6565b610377565b60405161011691906113fe565b60405180910390f35b34801561012b57600080fd5b50610134610449565b60405161014191906114a9565b60405180910390f35b34801561015657600080fd5b50610171600480360381019061016c9190611501565b6104d7565b60405161017e919061156f565b60405180910390f35b6101a1600480360381019061019c91906115b6565b6105b5565b005b6101bd60048036038101906101b891906115f6565b61079e565b005b3480156101cb57600080fd5b506101e660048036038101906101e191906115b6565b6107ae565b005b3480156101f457600080fd5b506101fd61084a565b60405161020a919061156f565b60405180910390f35b34801561021f57600080fd5b5061023a60048036038101906102359190611501565b61086e565b604051610247919061156f565b60405180910390f35b34801561025c57600080fd5b5061027760048036038101906102729190611649565b61091f565b6040516102849190611685565b60405180910390f35b34801561029957600080fd5b506102a26109d6565b6040516102af91906114a9565b60405180910390f35b3480156102c457600080fd5b506102df60048036038101906102da91906116cc565b610a64565b005b6102fb60048036038101906102f69190611771565b610b61565b005b34801561030957600080fd5b50610324600480360381019061031f91906117f9565b610c9f565b60405161033191906113fe565b60405180910390f35b34801561034657600080fd5b50610361600480360381019061035c91906117f9565b610d33565b60405161036e91906113fe565b60405180910390f35b60007fc22876c3000000000000000000000000000000000000000000000000000000007bffffffffffffffffffffffffffffffffffffffffffffffffffffffff1916827bffffffffffffffffffffffffffffffffffffffffffffffffffffffff1916148061044257507f01ffc9a7000000000000000000000000000000000000000000000000000000007bffffffffffffffffffffffffffffffffffffffffffffffffffffffff1916827bffffffffffffffffffffffffffffffffffffffffffffffffffffffff1916145b9050919050565b6005805461045690611868565b80601f016020809104026020016040519081016040528092919081815260200182805461048290611868565b80156104cf5780601f106104a4576101008083540402835291602001916104cf565b820191906000526020600020905b8154815290600101906020018083116104b257829003601f168201915b505050505081565b60008073ffffffffffffffffffffffffffffffffffffffff166001600084815260200190815260200160002060009054906101000a900473ffffffffffffffffffffffffffffffffffffffff1673ffffffffffffffffffffffffffffffffffffffff160361057a576040517f08c379a0000000000000000000000000000000000000000000000000000000008152600401610571906118e5565b60405180910390fd5b6003600083815260200190815260200160002060009054906101000a900473ffffffffffffffffffffffffffffffffffffffff169050919050565b60006001600083815260200190815260200160002060009054906101000a900473ffffffffffffffffffffffffffffffffffffffff1690508073ffffffffffffffffffffffffffffffffffffffff163373ffffffffffffffffffffffffffffffffffffffff1614806106ad5750600460008273ffffffffffffffffffffffffffffffffffffffff1673ffffffffffffffffffffffffffffffffffffffff16815260200190815260200160002060003373ffffffffffffffffffffffffffffffffffffffff1673ffffffffffffffffffffffffffffffffffffffff16815260200190815260200160002060009054906101000a900460ff165b6106ec576040517f08c379a00000000000000000000000000000000000000000000000000000000081526004016106e390611951565b60405180910390fd5b826003600084815260200190815260200160002060006101000a81548173ffffffffffffffffffffffffffffffffffffffff021916908373ffffffffffffffffffffffffffffffffffffffff160217905550818373ffffffffffffffffffffffffffffffffffffffff168273ffffffffffffffffffffffffffffffffffffffff167f8c5be1e5ebec7d5bd14f71427d1e84f3dd0314c0f7b2291e5b200ac8c7c3b92560405160405180910390a4505050565b6107a9838383610d62565b505050565b60008054906101000a900473ffffffffffffffffffffffffffffffffffffffff1673ffffffffffffffffffffffffffffffffffffffff163373ffffffffffffffffffffffffffffffffffffffff161461083c576040517f08c379a0000000000000000000000000000000000000000000000000000000008152600401610833906119e3565b60405180910390fd5b610846828261113c565b5050565b60008054906101000a900473ffffffffffffffffffffffffffffffffffffffff1681565b6000806001600084815260200190815260200160002060009054906101000a900473ffffffffffffffffffffffffffffffffffffffff169050600073ffffffffffffffffffffffffffffffffffffffff168173ffffffffffffffffffffffffffffffffffffffff1603610916576040517f08c379a000000000000000000000000000000000000000000000000000000000815260040161090d90611a4f565b60405180910390fd5b80915050919050565b60008073ffffffffffffffffffffffffffffffffffffffff168273ffffffffffffffffffffffffffffffffffffffff160361098f576040517f08c379a000000000000000000000000000000000000000000000000000000000815260040161098690611ae1565b60405180910390fd5b600260008373ffffffffffffffffffffffffffffffffffffffff1673ffffffffffffffffffffffffffffffffffffffff168152602001908152602001600020549050919050565b600680546109e390611868565b80601f0160208091040260200160405190810160405280929190818152602001828054610a0f90611868565b8015610a5c5780601f10610a3157610100808354040283529160200191610a5c565b820191906000526020600020905b815481529060010190602001808311610a3f57829003601f168201915b505050505081565b80600460003373ffffffffffffffffffffffffffffffffffffffff1673ffffffffffffffffffffffffffffffffffffffff16815260200190815260200160002060008473ffffffffffffffffffffffffffffffffffffffff1673ffffffffffffffffffffffffffffffffffffffff16815260200190815260200160002060006101000a81548160ff0219169083151502179055508173ffffffffffffffffffffffffffffffffffffffff163373ffffffffffffffffffffffffffffffffffffffff167f17307eab39ab6107e8899845ad3d59bd9653f200f220920489ca2b5937696c3183604051610b5591906113fe565b60405180910390a35050565b610b6c858585610d62565b60008473ffffffffffffffffffffffffffffffffffffffff163b1480610c59575063150b7a0260e01b7bffffffffffffffffffffffffffffffffffffffffffffffffffffffff19168473ffffffffffffffffffffffffffffffffffffffff1663150b7a0233888787876040518663ffffffff1660e01b8152600401610bf5959493929190611b4e565b6020604051808303816000875af1158015610c14573d6000803e3d6000fd5b505050506040513d601f19601f82011682018060405250810190610c389190611bb1565b7bffffffffffffffffffffffffffffffffffffffffffffffffffffffff1916145b610c98576040517f08c379a0000000000000000000000000000000000000000000000000000000008152600401610c8f90611c2a565b60405180910390fd5b5050505050565b6000600460008473ffffffffffffffffffffffffffffffffffffffff1673ffffffffffffffffffffffffffffffffffffffff16815260200190815260200160002060008373ffffffffffffffffffffffffffffffffffffffff1673ffffffffffffffffffffffffffffffffffffffff16815260200190815260200160002060009054906101000a900460ff16905092915050565b60046020528160005260406000206020528060005260406000206000915091509054906101000a900460ff1681565b60006001600083815260200190815260200160002060009054906101000a900473ffffffffffffffffffffffffffffffffffffffff1690508073ffffffffffffffffffffffffffffffffffffffff168473ffffffffffffffffffffffffffffffffffffffff1614610e08576040517f08c379a0000000000000000000000000000000000000000000000000000000008152600401610dff90611c96565b60405180910390fd5b600073ffffffffffffffffffffffffffffffffffffffff168373ffffffffffffffffffffffffffffffffffffffff1603610e77576040517f08c379a0000000000000000000000000000000000000000000000000000000008152600401610e6e90611d02565b60405180910390fd5b8073ffffffffffffffffffffffffffffffffffffffff163373ffffffffffffffffffffffffffffffffffffffff161480610f0f57506003600083815260200190815260200160002060009054906101000a900473ffffffffffffffffffffffffffffffffffffffff1673ffffffffffffffffffffffffffffffffffffffff163373ffffffffffffffffffffffffffffffffffffffff16145b80610fa05750600460008273ffffffffffffffffffffffffffffffffffffffff1673ffffffffffffffffffffffffffffffffffffffff16815260200190815260200160002060003373ffffffffffffffffffffffffffffffffffffffff1673ffffffffffffffffffffffffffffffffffffffff16815260200190815260200160002060009054906101000a900460ff165b610fa957600080fd5b600260008573ffffffffffffffffffffffffffffffffffffffff1673ffffffffffffffffffffffffffffffffffffffff1681526020019081526020016000206000815480929190610ff990611d51565b9190505550600260008473ffffffffffffffffffffffffffffffffffffffff1673ffffffffffffffffffffffffffffffffffffffff168152602001908152602001600020600081548092919061104e90611d7a565b9190505550826001600084815260200190815260200160002060006101000a81548173ffffffffffffffffffffffffffffffffffffffff021916908373ffffffffffffffffffffffffffffffffffffffff1602179055506003600083815260200190815260200160002060006101000a81549073ffffffffffffffffffffffffffffffffffffffff0219169055818373ffffffffffffffffffffffffffffffffffffffff168573ffffffffffffffffffffffffffffffffffffffff167fddf252ad1be2c89b69c2b068fc378daa952ba7f163c4a11628f55a4df523b3ef60405160405180910390a450505050565b600073ffffffffffffffffffffffffffffffffffffffff168273ffffffffffffffffffffffffffffffffffffffff16036111ab576040517f08c379a00000000000000000000000000000000000000000000000000000000081526004016111a290611e0e565b60405180910390fd5b600073ffffffffffffffffffffffffffffffffffffffff166001600083815260200190815260200160002060009054906101000a900473ffffffffffffffffffffffffffffffffffffffff1673ffffffffffffffffffffffffffffffffffffffff161461124d576040517f08c379a000000000000000000000000000000000000000000000000000000000815260040161124490611e7a565b60405180910390fd5b600260008373ffffffffffffffffffffffffffffffffffffffff1673ffffffffffffffffffffffffffffffffffffffff168152602001908152602001600020600081548092919061129d90611d7a565b9190505550816001600083815260200190815260200160002060006101000a81548173ffffffffffffffffffffffffffffffffffffffff021916908373ffffffffffffffffffffffffffffffffffffffff160217905550808273ffffffffffffffffffffffffffffffffffffffff16600073ffffffffffffffffffffffffffffffffffffffff167fddf252ad1be2c89b69c2b068fc378daa952ba7f163c4a11628f55a4df523b3ef60405160405180910390a45050565b600080fd5b600080fd5b60007fffffffff0000000000000000000000000000000000000000000000000000000082169050919050565b6113938161135e565b811461139e57600080fd5b50565b6000813590506113b08161138a565b92915050565b6000602082840312156113cc576113cb611354565b5b60006113da848285016113a1565b91505092915050565b60008115159050919050565b6113f8816113e3565b82525050565b600060208201905061141360008301846113ef565b92915050565b600081519050919050565b600082825260208201905092915050565b60005b83811015611453578082015181840152602081019050611438565b60008484015250505050565b6000601f19601f8301169050919050565b600061147b82611419565b6114858185611424565b9350611495818560208601611435565b61149e8161145f565b840191505092915050565b600060208201905081810360008301526114c38184611470565b905092915050565b6000819050919050565b6114de816114cb565b81146114e957600080fd5b50565b6000813590506114fb816114d5565b92915050565b60006020828403121561151757611516611354565b5b6000611525848285016114ec565b91505092915050565b600073ffffffffffffffffffffffffffffffffffffffff82169050919050565b60006115598261152e565b9050919050565b6115698161154e565b82525050565b60006020820190506115846000830184611560565b92915050565b6115938161154e565b811461159e57600080fd5b50565b6000813590506115b08161158a565b92915050565b600080604083850312156115cd576115cc611354565b5b60006115db858286016115a1565b92505060206115ec858286016114ec565b9150509250929050565b60008060006060848603121561160f5761160e611354565b5b600061161d868287016115a1565b935050602061162e868287016115a1565b925050604061163f868287016114ec565b9150509250925092565b60006020828403121561165f5761165e611354565b5b600061166d848285016115a1565b91505092915050565b61167f816114cb565b82525050565b600060208201905061169a6000830184611676565b92915050565b6116a9816113e3565b81146116b457600080fd5b50565b6000813590506116c6816116a0565b92915050565b600080604083850312156116e3576116e2611354565b5b60006116f1858286016115a1565b9250506020611702858286016116b7565b9150509250929050565b600080fd5b600080fd5b600080fd5b60008083601f8401126117315761173061170c565b5b8235905067ffffffffffffffff81111561174e5761174d611711565b5b60208301915083600182028301111561176a57611769611716565b5b9250929050565b60008060008060006080868803121561178d5761178c611354565b5b600061179b888289016115a1565b95505060206117ac888289016115a1565b94505060406117bd888289016114ec565b935050606086013567ffffffffffffffff8111156117de576117dd611359565b5b6117ea8882890161171b565b92509250509295509295909350565b600080604083850312156118105761180f611354565b5b600061181e858286016115a1565b925050602061182f858286016115a1565b9150509250929050565b7f4e487b7100000000000000000000000000000000000000000000000000000000600052602260045260246000fd5b6000600282049050600182168061188057607f821691505b60208210810361189357611892611839565b5b50919050565b7f4572726f72203a20746f6b656e20646f6573206e6f7420657869737400000000600082015250565b60006118cf601c83611424565b91506118da82611899565b602082019050919050565b600060208201905081810360008301526118fe816118c2565b9050919050565b7f6e6f7420617574686f72697a6564000000000000000000000000000000000000600082015250565b600061193b600e83611424565b915061194682611905565b602082019050919050565b6000602082019050818103600083015261196a8161192e565b9050919050565b7f4572726f72203a20596f7520617265206e6f7420616e20617574686f72697a6560008201527f64206d696e746572000000000000000000000000000000000000000000000000602082015250565b60006119cd602883611424565b91506119d882611971565b604082019050919050565b600060208201905081810360008301526119fc816119c0565b9050919050565b7f4572726f72203a20546f6b656e20646f6573206e6f7420657869737400000000600082015250565b6000611a39601c83611424565b9150611a4482611a03565b602082019050919050565b60006020820190508181036000830152611a6881611a2c565b9050919050565b7f4572726f72203a2062616c616e636520717565727920666f7220746865207a6560008201527f726f206164647265737300000000000000000000000000000000000000000000602082015250565b6000611acb602a83611424565b9150611ad682611a6f565b604082019050919050565b60006020820190508181036000830152611afa81611abe565b9050919050565b600082825260208201905092915050565b82818337600083830152505050565b6000611b2d8385611b01565b9350611b3a838584611b12565b611b438361145f565b840190509392505050565b6000608082019050611b636000830188611560565b611b706020830187611560565b611b7d6040830186611676565b8181036060830152611b90818486611b21565b90509695505050505050565b600081519050611bab8161138a565b92915050565b600060208284031215611bc757611bc6611354565b5b6000611bd584828501611b9c565b91505092915050565b7f4572726f72203a20756e7361666520726563697069656e740000000000000000600082015250565b6000611c14601883611424565b9150611c1f82611bde565b602082019050919050565b60006020820190508181036000830152611c4381611c07565b9050919050565b7f66726f6d20213d206f776e657200000000000000000000000000000000000000600082015250565b6000611c80600d83611424565b9150611c8b82611c4a565b602082019050919050565b60006020820190508181036000830152611caf81611c73565b9050919050565b7f7472616e7366657220746f207a65726f20616464726573730000000000000000600082015250565b6000611cec601883611424565b9150611cf782611cb6565b602082019050919050565b60006020820190508181036000830152611d1b81611cdf565b9050919050565b7f4e487b7100000000000000000000000000000000000000000000000000000000600052601160045260246000fd5b6000611d5c826114cb565b915060008203611d6f57611d6e611d22565b5b600182039050919050565b6000611d85826114cb565b91507fffffffffffffffffffffffffffffffffffffffffffffffffffffffffffffffff8203611db757611db6611d22565b5b600182019050919050565b7f4572726f72203a206d696e7420746f207a65726f206164647265737300000000600082015250565b6000611df8601c83611424565b9150611e0382611dc2565b602082019050919050565b60006020820190508181036000830152611e2781611deb565b9050919050565b7f4572726f72203a20416c7265616479206d696e74656421000000000000000000600082015250565b6000611e64601783611424565b9150611e6f82611e2e565b602082019050919050565b60006020820190508181036000830152611e9381611e57565b905091905056fea264697066735822122032f669242b4fe1d0c1d89a6214ad1923ffdca0295682289e3bf6c82e3a95502464736f6c63430008120033",
					"opcodes": "PUSH1 0x80 PUSH1 0x40 MSTORE CALLVALUE DUP1 ISZERO PUSH3 0x11 JUMPI PUSH1 0x0 DUP1 REVERT JUMPDEST POP PUSH1 0x40 MLOAD PUSH3 0x2897 CODESIZE SUB DUP1 PUSH3 0x2897 DUP4 CODECOPY DUP2 DUP2 ADD PUSH1 0x40 MSTORE DUP2 ADD SWAP1 PUSH3 0x37 SWAP2 SWAP1 PUSH3 0x48F JUMP JUMPDEST CALLER PUSH1 0x0 DUP1 PUSH2 0x100 EXP DUP2 SLOAD DUP2 PUSH20 0xFFFFFFFFFFFFFFFFFFFFFFFFFFFFFFFFFFFFFFFF MUL NOT AND SWAP1 DUP4 PUSH20 0xFFFFFFFFFFFFFFFFFFFFFFFFFFFFFFFFFFFFFFFF AND MUL OR SWAP1 SSTORE POP DUP2 PUSH1 0x5 SWAP1 DUP2 PUSH3 0x88 SWAP2 SWAP1 PUSH3 0x75F JUMP JUMPDEST POP DUP1 PUSH1 0x6 SWAP1 DUP2 PUSH3 0x9A SWAP2 SWAP1 PUSH3 0x75F JUMP JUMPDEST POP PUSH1 0x0 PUSH1 0x1 SWAP1 POP JUMPDEST PUSH1 0x5 DUP2 GT PUSH3 0xD3 JUMPI PUSH3 0xBD CALLER DUP3 PUSH3 0xDC PUSH1 0x20 SHL PUSH1 0x20 SHR JUMP JUMPDEST DUP1 DUP1 PUSH3 0xCA SWAP1 PUSH3 0x875 JUMP JUMPDEST SWAP2 POP POP PUSH3 0xA2 JUMP JUMPDEST POP POP POP PUSH3 0x9B7 JUMP JUMPDEST PUSH1 0x0 PUSH20 0xFFFFFFFFFFFFFFFFFFFFFFFFFFFFFFFFFFFFFFFF AND DUP3 PUSH20 0xFFFFFFFFFFFFFFFFFFFFFFFFFFFFFFFFFFFFFFFF AND SUB PUSH3 0x14E JUMPI PUSH1 0x40 MLOAD PUSH32 0x8C379A000000000000000000000000000000000000000000000000000000000 DUP2 MSTORE PUSH1 0x4 ADD PUSH3 0x145 SWAP1 PUSH3 0x923 JUMP JUMPDEST PUSH1 0x40 MLOAD DUP1 SWAP2 SUB SWAP1 REVERT JUMPDEST PUSH1 0x0 PUSH20 0xFFFFFFFFFFFFFFFFFFFFFFFFFFFFFFFFFFFFFFFF AND PUSH1 0x1 PUSH1 0x0 DUP4 DUP2 MSTORE PUSH1 0x20 ADD SWAP1 DUP2 MSTORE PUSH1 0x20 ADD PUSH1 0x0 KECCAK256 PUSH1 0x0 SWAP1 SLOAD SWAP1 PUSH2 0x100 EXP SWAP1 DIV PUSH20 0xFFFFFFFFFFFFFFFFFFFFFFFFFFFFFFFFFFFFFFFF AND PUSH20 0xFFFFFFFFFFFFFFFFFFFFFFFFFFFFFFFFFFFFFFFF AND EQ PUSH3 0x1F3 JUMPI PUSH1 0x40 MLOAD PUSH32 0x8C379A000000000000000000000000000000000000000000000000000000000 DUP2 MSTORE PUSH1 0x4 ADD PUSH3 0x1EA SWAP1 PUSH3 0x995 JUMP JUMPDEST PUSH1 0x40 MLOAD DUP1 SWAP2 SUB SWAP1 REVERT JUMPDEST PUSH1 0x2 PUSH1 0x0 DUP4 PUSH20 0xFFFFFFFFFFFFFFFFFFFFFFFFFFFFFFFFFFFFFFFF AND PUSH20 0xFFFFFFFFFFFFFFFFFFFFFFFFFFFFFFFFFFFFFFFF AND DUP2 MSTORE PUSH1 0x20 ADD SWAP1 DUP2 MSTORE PUSH1 0x20 ADD PUSH1 0x0 KECCAK256 PUSH1 0x0 DUP2 SLOAD DUP1 SWAP3 SWAP2 SWAP1 PUSH3 0x245 SWAP1 PUSH3 0x875 JUMP JUMPDEST SWAP2 SWAP1 POP SSTORE POP DUP2 PUSH1 0x1 PUSH1 0x0 DUP4 DUP2 MSTORE PUSH1 0x20 ADD SWAP1 DUP2 MSTORE PUSH1 0x20 ADD PUSH1 0x0 KECCAK256 PUSH1 0x0 PUSH2 0x100 EXP DUP2 SLOAD DUP2 PUSH20 0xFFFFFFFFFFFFFFFFFFFFFFFFFFFFFFFFFFFFFFFF MUL NOT AND SWAP1 DUP4 PUSH20 0xFFFFFFFFFFFFFFFFFFFFFFFFFFFFFFFFFFFFFFFF AND MUL OR SWAP1 SSTORE POP DUP1 DUP3 PUSH20 0xFFFFFFFFFFFFFFFFFFFFFFFFFFFFFFFFFFFFFFFF AND PUSH1 0x0 PUSH20 0xFFFFFFFFFFFFFFFFFFFFFFFFFFFFFFFFFFFFFFFF AND PUSH32 0xDDF252AD1BE2C89B69C2B068FC378DAA952BA7F163C4A11628F55A4DF523B3EF PUSH1 0x40 MLOAD PUSH1 0x40 MLOAD DUP1 SWAP2 SUB SWAP1 LOG4 POP POP JUMP JUMPDEST PUSH1 0x0 PUSH1 0x40 MLOAD SWAP1 POP SWAP1 JUMP JUMPDEST PUSH1 0x0 DUP1 REVERT JUMPDEST PUSH1 0x0 DUP1 REVERT JUMPDEST PUSH1 0x0 DUP1 REVERT JUMPDEST PUSH1 0x0 DUP1 REVERT JUMPDEST PUSH1 0x0 PUSH1 0x1F NOT PUSH1 0x1F DUP4 ADD AND SWAP1 POP SWAP2 SWAP1 POP JUMP JUMPDEST PUSH32 0x4E487B7100000000000000000000000000000000000000000000000000000000 PUSH1 0x0 MSTORE PUSH1 0x41 PUSH1 0x4 MSTORE PUSH1 0x24 PUSH1 0x0 REVERT JUMPDEST PUSH3 0x365 DUP3 PUSH3 0x31A JUMP JUMPDEST DUP2 ADD DUP2 DUP2 LT PUSH8 0xFFFFFFFFFFFFFFFF DUP3 GT OR ISZERO PUSH3 0x387 JUMPI PUSH3 0x386 PUSH3 0x32B JUMP JUMPDEST JUMPDEST DUP1 PUSH1 0x40 MSTORE POP POP POP JUMP JUMPDEST PUSH1 0x0 PUSH3 0x39C PUSH3 0x2FC JUMP JUMPDEST SWAP1 POP PUSH3 0x3AA DUP3 DUP3 PUSH3 0x35A JUMP JUMPDEST SWAP2 SWAP1 POP JUMP JUMPDEST PUSH1 0x0 PUSH8 0xFFFFFFFFFFFFFFFF DUP3 GT ISZERO PUSH3 0x3CD JUMPI PUSH3 0x3CC PUSH3 0x32B JUMP JUMPDEST JUMPDEST PUSH3 0x3D8 DUP3 PUSH3 0x31A JUMP JUMPDEST SWAP1 POP PUSH1 0x20 DUP2 ADD SWAP1 POP SWAP2 SWAP1 POP JUMP JUMPDEST PUSH1 0x0 JUMPDEST DUP4 DUP2 LT ISZERO PUSH3 0x405 JUMPI DUP1 DUP3 ADD MLOAD DUP2 DUP5 ADD MSTORE PUSH1 0x20 DUP2 ADD SWAP1 POP PUSH3 0x3E8 JUMP JUMPDEST PUSH1 0x0 DUP5 DUP5 ADD MSTORE POP POP POP POP JUMP JUMPDEST PUSH1 0x0 PUSH3 0x428 PUSH3 0x422 DUP5 PUSH3 0x3AF JUMP JUMPDEST PUSH3 0x390 JUMP JUMPDEST SWAP1 POP DUP3 DUP2 MSTORE PUSH1 0x20 DUP2 ADD DUP5 DUP5 DUP5 ADD GT ISZERO PUSH3 0x447 JUMPI PUSH3 0x446 PUSH3 0x315 JUMP JUMPDEST JUMPDEST PUSH3 0x454 DUP5 DUP3 DUP6 PUSH3 0x3E5 JUMP JUMPDEST POP SWAP4 SWAP3 POP POP POP JUMP JUMPDEST PUSH1 0x0 DUP3 PUSH1 0x1F DUP4 ADD SLT PUSH3 0x474 JUMPI PUSH3 0x473 PUSH3 0x310 JUMP JUMPDEST JUMPDEST DUP2 MLOAD PUSH3 0x486 DUP5 DUP3 PUSH1 0x20 DUP7 ADD PUSH3 0x411 JUMP JUMPDEST SWAP2 POP POP SWAP3 SWAP2 POP POP JUMP JUMPDEST PUSH1 0x0 DUP1 PUSH1 0x40 DUP4 DUP6 SUB SLT ISZERO PUSH3 0x4A9 JUMPI PUSH3 0x4A8 PUSH3 0x306 JUMP JUMPDEST JUMPDEST PUSH1 0x0 DUP4 ADD MLOAD PUSH8 0xFFFFFFFFFFFFFFFF DUP2 GT ISZERO PUSH3 0x4CA JUMPI PUSH3 0x4C9 PUSH3 0x30B JUMP JUMPDEST JUMPDEST PUSH3 0x4D8 DUP6 DUP3 DUP7 ADD PUSH3 0x45C JUMP JUMPDEST SWAP3 POP POP PUSH1 0x20 DUP4 ADD MLOAD PUSH8 0xFFFFFFFFFFFFFFFF DUP2 GT ISZERO PUSH3 0x4FC JUMPI PUSH3 0x4FB PUSH3 0x30B JUMP JUMPDEST JUMPDEST PUSH3 0x50A DUP6 DUP3 DUP7 ADD PUSH3 0x45C JUMP JUMPDEST SWAP2 POP POP SWAP3 POP SWAP3 SWAP1 POP JUMP JUMPDEST PUSH1 0x0 DUP2 MLOAD SWAP1 POP SWAP2 SWAP1 POP JUMP JUMPDEST PUSH32 0x4E487B7100000000000000000000000000000000000000000000000000000000 PUSH1 0x0 MSTORE PUSH1 0x22 PUSH1 0x4 MSTORE PUSH1 0x24 PUSH1 0x0 REVERT JUMPDEST PUSH1 0x0 PUSH1 0x2 DUP3 DIV SWAP1 POP PUSH1 0x1 DUP3 AND DUP1 PUSH3 0x567 JUMPI PUSH1 0x7F DUP3 AND SWAP2 POP JUMPDEST PUSH1 0x20 DUP3 LT DUP2 SUB PUSH3 0x57D JUMPI PUSH3 0x57C PUSH3 0x51F JUMP JUMPDEST JUMPDEST POP SWAP2 SWAP1 POP JUMP JUMPDEST PUSH1 0x0 DUP2 SWAP1 POP DUP2 PUSH1 0x0 MSTORE PUSH1 0x20 PUSH1 0x0 KECCAK256 SWAP1 POP SWAP2 SWAP1 POP JUMP JUMPDEST PUSH1 0x0 PUSH1 0x20 PUSH1 0x1F DUP4 ADD DIV SWAP1 POP SWAP2 SWAP1 POP JUMP JUMPDEST PUSH1 0x0 DUP3 DUP3 SHL SWAP1 POP SWAP3 SWAP2 POP POP JUMP JUMPDEST PUSH1 0x0 PUSH1 0x8 DUP4 MUL PUSH3 0x5E7 PUSH32 0xFFFFFFFFFFFFFFFFFFFFFFFFFFFFFFFFFFFFFFFFFFFFFFFFFFFFFFFFFFFFFFFF DUP3 PUSH3 0x5A8 JUMP JUMPDEST PUSH3 0x5F3 DUP7 DUP4 PUSH3 0x5A8 JUMP JUMPDEST SWAP6 POP DUP1 NOT DUP5 AND SWAP4 POP DUP1 DUP7 AND DUP5 OR SWAP3 POP POP POP SWAP4 SWAP3 POP POP POP JUMP JUMPDEST PUSH1 0x0 DUP2 SWAP1 POP SWAP2 SWAP1 POP JUMP JUMPDEST PUSH1 0x0 DUP2 SWAP1 POP SWAP2 SWAP1 POP JUMP JUMPDEST PUSH1 0x0 PUSH3 0x640 PUSH3 0x63A PUSH3 0x634 DUP5 PUSH3 0x60B JUMP JUMPDEST PUSH3 0x615 JUMP JUMPDEST PUSH3 0x60B JUMP JUMPDEST SWAP1 POP SWAP2 SWAP1 POP JUMP JUMPDEST PUSH1 0x0 DUP2 SWAP1 POP SWAP2 SWAP1 POP JUMP JUMPDEST PUSH3 0x65C DUP4 PUSH3 0x61F JUMP JUMPDEST PUSH3 0x674 PUSH3 0x66B DUP3 PUSH3 0x647 JUMP JUMPDEST DUP5 DUP5 SLOAD PUSH3 0x5B5 JUMP JUMPDEST DUP3 SSTORE POP POP POP POP JUMP JUMPDEST PUSH1 0x0 SWAP1 JUMP JUMPDEST PUSH3 0x68B PUSH3 0x67C JUMP JUMPDEST PUSH3 0x698 DUP2 DUP5 DUP5 PUSH3 0x651 JUMP JUMPDEST POP POP POP JUMP JUMPDEST JUMPDEST DUP2 DUP2 LT ISZERO PUSH3 0x6C0 JUMPI PUSH3 0x6B4 PUSH1 0x0 DUP3 PUSH3 0x681 JUMP JUMPDEST PUSH1 0x1 DUP2 ADD SWAP1 POP PUSH3 0x69E JUMP JUMPDEST POP POP JUMP JUMPDEST PUSH1 0x1F DUP3 GT ISZERO PUSH3 0x70F JUMPI PUSH3 0x6D9 DUP2 PUSH3 0x583 JUMP JUMPDEST PUSH3 0x6E4 DUP5 PUSH3 0x598 JUMP JUMPDEST DUP2 ADD PUSH1 0x20 DUP6 LT ISZERO PUSH3 0x6F4 JUMPI DUP2 SWAP1 POP JUMPDEST PUSH3 0x70C PUSH3 0x703 DUP6 PUSH3 0x598 JUMP JUMPDEST DUP4 ADD DUP3 PUSH3 0x69D JUMP JUMPDEST POP POP JUMPDEST POP POP POP JUMP JUMPDEST PUSH1 0x0 DUP3 DUP3 SHR SWAP1 POP SWAP3 SWAP2 POP POP JUMP JUMPDEST PUSH1 0x0 PUSH3 0x734 PUSH1 0x0 NOT DUP5 PUSH1 0x8 MUL PUSH3 0x714 JUMP JUMPDEST NOT DUP1 DUP4 AND SWAP2 POP POP SWAP3 SWAP2 POP POP JUMP JUMPDEST PUSH1 0x0 PUSH3 0x74F DUP4 DUP4 PUSH3 0x721 JUMP JUMPDEST SWAP2 POP DUP3 PUSH1 0x2 MUL DUP3 OR SWAP1 POP SWAP3 SWAP2 POP POP JUMP JUMPDEST PUSH3 0x76A DUP3 PUSH3 0x514 JUMP JUMPDEST PUSH8 0xFFFFFFFFFFFFFFFF DUP2 GT ISZERO PUSH3 0x786 JUMPI PUSH3 0x785 PUSH3 0x32B JUMP JUMPDEST JUMPDEST PUSH3 0x792 DUP3 SLOAD PUSH3 0x54E JUMP JUMPDEST PUSH3 0x79F DUP3 DUP3 DUP6 PUSH3 0x6C4 JUMP JUMPDEST PUSH1 0x0 PUSH1 0x20 SWAP1 POP PUSH1 0x1F DUP4 GT PUSH1 0x1 DUP2 EQ PUSH3 0x7D7 JUMPI PUSH1 0x0 DUP5 ISZERO PUSH3 0x7C2 JUMPI DUP3 DUP8 ADD MLOAD SWAP1 POP JUMPDEST PUSH3 0x7CE DUP6 DUP3 PUSH3 0x741 JUMP JUMPDEST DUP7 SSTORE POP PUSH3 0x83E JUMP JUMPDEST PUSH1 0x1F NOT DUP5 AND PUSH3 0x7E7 DUP7 PUSH3 0x583 JUMP JUMPDEST PUSH1 0x0 JUMPDEST DUP3 DUP2 LT ISZERO PUSH3 0x811 JUMPI DUP5 DUP10 ADD MLOAD DUP3 SSTORE PUSH1 0x1 DUP3 ADD SWAP2 POP PUSH1 0x20 DUP6 ADD SWAP5 POP PUSH1 0x20 DUP2 ADD SWAP1 POP PUSH3 0x7EA JUMP JUMPDEST DUP7 DUP4 LT ISZERO PUSH3 0x831 JUMPI DUP5 DUP10 ADD MLOAD PUSH3 0x82D PUSH1 0x1F DUP10 AND DUP3 PUSH3 0x721 JUMP JUMPDEST DUP4 SSTORE POP JUMPDEST PUSH1 0x1 PUSH1 0x2 DUP9 MUL ADD DUP9 SSTORE POP POP POP JUMPDEST POP POP POP POP POP POP JUMP JUMPDEST PUSH32 0x4E487B7100000000000000000000000000000000000000000000000000000000 PUSH1 0x0 MSTORE PUSH1 0x11 PUSH1 0x4 MSTORE PUSH1 0x24 PUSH1 0x0 REVERT JUMPDEST PUSH1 0x0 PUSH3 0x882 DUP3 PUSH3 0x60B JUMP JUMPDEST SWAP2 POP PUSH32 0xFFFFFFFFFFFFFFFFFFFFFFFFFFFFFFFFFFFFFFFFFFFFFFFFFFFFFFFFFFFFFFFF DUP3 SUB PUSH3 0x8B7 JUMPI PUSH3 0x8B6 PUSH3 0x846 JUMP JUMPDEST JUMPDEST PUSH1 0x1 DUP3 ADD SWAP1 POP SWAP2 SWAP1 POP JUMP JUMPDEST PUSH1 0x0 DUP3 DUP3 MSTORE PUSH1 0x20 DUP3 ADD SWAP1 POP SWAP3 SWAP2 POP POP JUMP JUMPDEST PUSH32 0x4572726F72203A206D696E7420746F207A65726F206164647265737300000000 PUSH1 0x0 DUP3 ADD MSTORE POP JUMP JUMPDEST PUSH1 0x0 PUSH3 0x90B PUSH1 0x1C DUP4 PUSH3 0x8C2 JUMP JUMPDEST SWAP2 POP PUSH3 0x918 DUP3 PUSH3 0x8D3 JUMP JUMPDEST PUSH1 0x20 DUP3 ADD SWAP1 POP SWAP2 SWAP1 POP JUMP JUMPDEST PUSH1 0x0 PUSH1 0x20 DUP3 ADD SWAP1 POP DUP2 DUP2 SUB PUSH1 0x0 DUP4 ADD MSTORE PUSH3 0x93E DUP2 PUSH3 0x8FC JUMP JUMPDEST SWAP1 POP SWAP2 SWAP1 POP JUMP JUMPDEST PUSH32 0x4572726F72203A20416C7265616479206D696E74656421000000000000000000 PUSH1 0x0 DUP3 ADD MSTORE POP JUMP JUMPDEST PUSH1 0x0 PUSH3 0x97D PUSH1 0x17 DUP4 PUSH3 0x8C2 JUMP JUMPDEST SWAP2 POP PUSH3 0x98A DUP3 PUSH3 0x945 JUMP JUMPDEST PUSH1 0x20 DUP3 ADD SWAP1 POP SWAP2 SWAP1 POP JUMP JUMPDEST PUSH1 0x0 PUSH1 0x20 DUP3 ADD SWAP1 POP DUP2 DUP2 SUB PUSH1 0x0 DUP4 ADD MSTORE PUSH3 0x9B0 DUP2 PUSH3 0x96E JUMP JUMPDEST SWAP1 POP SWAP2 SWAP1 POP JUMP JUMPDEST PUSH2 0x1ED0 DUP1 PUSH3 0x9C7 PUSH1 0x0 CODECOPY PUSH1 0x0 RETURN INVALID PUSH1 0x80 PUSH1 0x40 MSTORE PUSH1 0x4 CALLDATASIZE LT PUSH2 0xDD JUMPI PUSH1 0x0 CALLDATALOAD PUSH1 0xE0 SHR DUP1 PUSH4 0x6352211E GT PUSH2 0x7F JUMPI DUP1 PUSH4 0xA22CB465 GT PUSH2 0x59 JUMPI DUP1 PUSH4 0xA22CB465 EQ PUSH2 0x2B8 JUMPI DUP1 PUSH4 0xB88D4FDE EQ PUSH2 0x2E1 JUMPI DUP1 PUSH4 0xE985E9C5 EQ PUSH2 0x2FD JUMPI DUP1 PUSH4 0xEDC3BC3F EQ PUSH2 0x33A JUMPI PUSH2 0xDD JUMP JUMPDEST DUP1 PUSH4 0x6352211E EQ PUSH2 0x213 JUMPI DUP1 PUSH4 0x70A08231 EQ PUSH2 0x250 JUMPI DUP1 PUSH4 0x95D89B41 EQ PUSH2 0x28D JUMPI PUSH2 0xDD JUMP JUMPDEST DUP1 PUSH4 0x95EA7B3 GT PUSH2 0xBB JUMPI DUP1 PUSH4 0x95EA7B3 EQ PUSH2 0x187 JUMPI DUP1 PUSH4 0x23B872DD EQ PUSH2 0x1A3 JUMPI DUP1 PUSH4 0x3C168EAB EQ PUSH2 0x1BF JUMPI DUP1 PUSH4 0x4D853EE5 EQ PUSH2 0x1E8 JUMPI PUSH2 0xDD JUMP JUMPDEST DUP1 PUSH4 0x1FFC9A7 EQ PUSH2 0xE2 JUMPI DUP1 PUSH4 0x6FDDE03 EQ PUSH2 0x11F JUMPI DUP1 PUSH4 0x81812FC EQ PUSH2 0x14A JUMPI JUMPDEST PUSH1 0x0 DUP1 REVERT JUMPDEST CALLVALUE DUP1 ISZERO PUSH2 0xEE JUMPI PUSH1 0x0 DUP1 REVERT JUMPDEST POP PUSH2 0x109 PUSH1 0x4 DUP1 CALLDATASIZE SUB DUP2 ADD SWAP1 PUSH2 0x104 SWAP2 SWAP1 PUSH2 0x13B6 JUMP JUMPDEST PUSH2 0x377 JUMP JUMPDEST PUSH1 0x40 MLOAD PUSH2 0x116 SWAP2 SWAP1 PUSH2 0x13FE JUMP JUMPDEST PUSH1 0x40 MLOAD DUP1 SWAP2 SUB SWAP1 RETURN JUMPDEST CALLVALUE DUP1 ISZERO PUSH2 0x12B JUMPI PUSH1 0x0 DUP1 REVERT JUMPDEST POP PUSH2 0x134 PUSH2 0x449 JUMP JUMPDEST PUSH1 0x40 MLOAD PUSH2 0x141 SWAP2 SWAP1 PUSH2 0x14A9 JUMP JUMPDEST PUSH1 0x40 MLOAD DUP1 SWAP2 SUB SWAP1 RETURN JUMPDEST CALLVALUE DUP1 ISZERO PUSH2 0x156 JUMPI PUSH1 0x0 DUP1 REVERT JUMPDEST POP PUSH2 0x171 PUSH1 0x4 DUP1 CALLDATASIZE SUB DUP2 ADD SWAP1 PUSH2 0x16C SWAP2 SWAP1 PUSH2 0x1501 JUMP JUMPDEST PUSH2 0x4D7 JUMP JUMPDEST PUSH1 0x40 MLOAD PUSH2 0x17E SWAP2 SWAP1 PUSH2 0x156F JUMP JUMPDEST PUSH1 0x40 MLOAD DUP1 SWAP2 SUB SWAP1 RETURN JUMPDEST PUSH2 0x1A1 PUSH1 0x4 DUP1 CALLDATASIZE SUB DUP2 ADD SWAP1 PUSH2 0x19C SWAP2 SWAP1 PUSH2 0x15B6 JUMP JUMPDEST PUSH2 0x5B5 JUMP JUMPDEST STOP JUMPDEST PUSH2 0x1BD PUSH1 0x4 DUP1 CALLDATASIZE SUB DUP2 ADD SWAP1 PUSH2 0x1B8 SWAP2 SWAP1 PUSH2 0x15F6 JUMP JUMPDEST PUSH2 0x79E JUMP JUMPDEST STOP JUMPDEST CALLVALUE DUP1 ISZERO PUSH2 0x1CB JUMPI PUSH1 0x0 DUP1 REVERT JUMPDEST POP PUSH2 0x1E6 PUSH1 0x4 DUP1 CALLDATASIZE SUB DUP2 ADD SWAP1 PUSH2 0x1E1 SWAP2 SWAP1 PUSH2 0x15B6 JUMP JUMPDEST PUSH2 0x7AE JUMP JUMPDEST STOP JUMPDEST CALLVALUE DUP1 ISZERO PUSH2 0x1F4 JUMPI PUSH1 0x0 DUP1 REVERT JUMPDEST POP PUSH2 0x1FD PUSH2 0x84A JUMP JUMPDEST PUSH1 0x40 MLOAD PUSH2 0x20A SWAP2 SWAP1 PUSH2 0x156F JUMP JUMPDEST PUSH1 0x40 MLOAD DUP1 SWAP2 SUB SWAP1 RETURN JUMPDEST CALLVALUE DUP1 ISZERO PUSH2 0x21F JUMPI PUSH1 0x0 DUP1 REVERT JUMPDEST POP PUSH2 0x23A PUSH1 0x4 DUP1 CALLDATASIZE SUB DUP2 ADD SWAP1 PUSH2 0x235 SWAP2 SWAP1 PUSH2 0x1501 JUMP JUMPDEST PUSH2 0x86E JUMP JUMPDEST PUSH1 0x40 MLOAD PUSH2 0x247 SWAP2 SWAP1 PUSH2 0x156F JUMP JUMPDEST PUSH1 0x40 MLOAD DUP1 SWAP2 SUB SWAP1 RETURN JUMPDEST CALLVALUE DUP1 ISZERO PUSH2 0x25C JUMPI PUSH1 0x0 DUP1 REVERT JUMPDEST POP PUSH2 0x277 PUSH1 0x4 DUP1 CALLDATASIZE SUB DUP2 ADD SWAP1 PUSH2 0x272 SWAP2 SWAP1 PUSH2 0x1649 JUMP JUMPDEST PUSH2 0x91F JUMP JUMPDEST PUSH1 0x40 MLOAD PUSH2 0x284 SWAP2 SWAP1 PUSH2 0x1685 JUMP JUMPDEST PUSH1 0x40 MLOAD DUP1 SWAP2 SUB SWAP1 RETURN JUMPDEST CALLVALUE DUP1 ISZERO PUSH2 0x299 JUMPI PUSH1 0x0 DUP1 REVERT JUMPDEST POP PUSH2 0x2A2 PUSH2 0x9D6 JUMP JUMPDEST PUSH1 0x40 MLOAD PUSH2 0x2AF SWAP2 SWAP1 PUSH2 0x14A9 JUMP JUMPDEST PUSH1 0x40 MLOAD DUP1 SWAP2 SUB SWAP1 RETURN JUMPDEST CALLVALUE DUP1 ISZERO PUSH2 0x2C4 JUMPI PUSH1 0x0 DUP1 REVERT JUMPDEST POP PUSH2 0x2DF PUSH1 0x4 DUP1 CALLDATASIZE SUB DUP2 ADD SWAP1 PUSH2 0x2DA SWAP2 SWAP1 PUSH2 0x16CC JUMP JUMPDEST PUSH2 0xA64 JUMP JUMPDEST STOP JUMPDEST PUSH2 0x2FB PUSH1 0x4 DUP1 CALLDATASIZE SUB DUP2 ADD SWAP1 PUSH2 0x2F6 SWAP2 SWAP1 PUSH2 0x1771 JUMP JUMPDEST PUSH2 0xB61 JUMP JUMPDEST STOP JUMPDEST CALLVALUE DUP1 ISZERO PUSH2 0x309 JUMPI PUSH1 0x0 DUP1 REVERT JUMPDEST POP PUSH2 0x324 PUSH1 0x4 DUP1 CALLDATASIZE SUB DUP2 ADD SWAP1 PUSH2 0x31F SWAP2 SWAP1 PUSH2 0x17F9 JUMP JUMPDEST PUSH2 0xC9F JUMP JUMPDEST PUSH1 0x40 MLOAD PUSH2 0x331 SWAP2 SWAP1 PUSH2 0x13FE JUMP JUMPDEST PUSH1 0x40 MLOAD DUP1 SWAP2 SUB SWAP1 RETURN JUMPDEST CALLVALUE DUP1 ISZERO PUSH2 0x346 JUMPI PUSH1 0x0 DUP1 REVERT JUMPDEST POP PUSH2 0x361 PUSH1 0x4 DUP1 CALLDATASIZE SUB DUP2 ADD SWAP1 PUSH2 0x35C SWAP2 SWAP1 PUSH2 0x17F9 JUMP JUMPDEST PUSH2 0xD33 JUMP JUMPDEST PUSH1 0x40 MLOAD PUSH2 0x36E SWAP2 SWAP1 PUSH2 0x13FE JUMP JUMPDEST PUSH1 0x40 MLOAD DUP1 SWAP2 SUB SWAP1 RETURN JUMPDEST PUSH1 0x0 PUSH32 0xC22876C300000000000000000000000000000000000000000000000000000000 PUSH28 0xFFFFFFFFFFFFFFFFFFFFFFFFFFFFFFFFFFFFFFFFFFFFFFFFFFFFFFFF NOT AND DUP3 PUSH28 0xFFFFFFFFFFFFFFFFFFFFFFFFFFFFFFFFFFFFFFFFFFFFFFFFFFFFFFFF NOT AND EQ DUP1 PUSH2 0x442 JUMPI POP PUSH32 0x1FFC9A700000000000000000000000000000000000000000000000000000000 PUSH28 0xFFFFFFFFFFFFFFFFFFFFFFFFFFFFFFFFFFFFFFFFFFFFFFFFFFFFFFFF NOT AND DUP3 PUSH28 0xFFFFFFFFFFFFFFFFFFFFFFFFFFFFFFFFFFFFFFFFFFFFFFFFFFFFFFFF NOT AND EQ JUMPDEST SWAP1 POP SWAP2 SWAP1 POP JUMP JUMPDEST PUSH1 0x5 DUP1 SLOAD PUSH2 0x456 SWAP1 PUSH2 0x1868 JUMP JUMPDEST DUP1 PUSH1 0x1F ADD PUSH1 0x20 DUP1 SWAP2 DIV MUL PUSH1 0x20 ADD PUSH1 0x40 MLOAD SWAP1 DUP2 ADD PUSH1 0x40 MSTORE DUP1 SWAP3 SWAP2 SWAP1 DUP2 DUP2 MSTORE PUSH1 0x20 ADD DUP3 DUP1 SLOAD PUSH2 0x482 SWAP1 PUSH2 0x1868 JUMP JUMPDEST DUP1 ISZERO PUSH2 0x4CF JUMPI DUP1 PUSH1 0x1F LT PUSH2 0x4A4 JUMPI PUSH2 0x100 DUP1 DUP4 SLOAD DIV MUL DUP4 MSTORE SWAP2 PUSH1 0x20 ADD SWAP2 PUSH2 0x4CF JUMP JUMPDEST DUP3 ADD SWAP2 SWAP1 PUSH1 0x0 MSTORE PUSH1 0x20 PUSH1 0x0 KECCAK256 SWAP1 JUMPDEST DUP2 SLOAD DUP2 MSTORE SWAP1 PUSH1 0x1 ADD SWAP1 PUSH1 0x20 ADD DUP1 DUP4 GT PUSH2 0x4B2 JUMPI DUP3 SWAP1 SUB PUSH1 0x1F AND DUP3 ADD SWAP2 JUMPDEST POP POP POP POP POP DUP2 JUMP JUMPDEST PUSH1 0x0 DUP1 PUSH20 0xFFFFFFFFFFFFFFFFFFFFFFFFFFFFFFFFFFFFFFFF AND PUSH1 0x1 PUSH1 0x0 DUP5 DUP2 MSTORE PUSH1 0x20 ADD SWAP1 DUP2 MSTORE PUSH1 0x20 ADD PUSH1 0x0 KECCAK256 PUSH1 0x0 SWAP1 SLOAD SWAP1 PUSH2 0x100 EXP SWAP1 DIV PUSH20 0xFFFFFFFFFFFFFFFFFFFFFFFFFFFFFFFFFFFFFFFF AND PUSH20 0xFFFFFFFFFFFFFFFFFFFFFFFFFFFFFFFFFFFFFFFF AND SUB PUSH2 0x57A JUMPI PUSH1 0x40 MLOAD PUSH32 0x8C379A000000000000000000000000000000000000000000000000000000000 DUP2 MSTORE PUSH1 0x4 ADD PUSH2 0x571 SWAP1 PUSH2 0x18E5 JUMP JUMPDEST PUSH1 0x40 MLOAD DUP1 SWAP2 SUB SWAP1 REVERT JUMPDEST PUSH1 0x3 PUSH1 0x0 DUP4 DUP2 MSTORE PUSH1 0x20 ADD SWAP1 DUP2 MSTORE PUSH1 0x20 ADD PUSH1 0x0 KECCAK256 PUSH1 0x0 SWAP1 SLOAD SWAP1 PUSH2 0x100 EXP SWAP1 DIV PUSH20 0xFFFFFFFFFFFFFFFFFFFFFFFFFFFFFFFFFFFFFFFF AND SWAP1 POP SWAP2 SWAP1 POP JUMP JUMPDEST PUSH1 0x0 PUSH1 0x1 PUSH1 0x0 DUP4 DUP2 MSTORE PUSH1 0x20 ADD SWAP1 DUP2 MSTORE PUSH1 0x20 ADD PUSH1 0x0 KECCAK256 PUSH1 0x0 SWAP1 SLOAD SWAP1 PUSH2 0x100 EXP SWAP1 DIV PUSH20 0xFFFFFFFFFFFFFFFFFFFFFFFFFFFFFFFFFFFFFFFF AND SWAP1 POP DUP1 PUSH20 0xFFFFFFFFFFFFFFFFFFFFFFFFFFFFFFFFFFFFFFFF AND CALLER PUSH20 0xFFFFFFFFFFFFFFFFFFFFFFFFFFFFFFFFFFFFFFFF AND EQ DUP1 PUSH2 0x6AD JUMPI POP PUSH1 0x4 PUSH1 0x0 DUP3 PUSH20 0xFFFFFFFFFFFFFFFFFFFFFFFFFFFFFFFFFFFFFFFF AND PUSH20 0xFFFFFFFFFFFFFFFFFFFFFFFFFFFFFFFFFFFFFFFF AND DUP2 MSTORE PUSH1 0x20 ADD SWAP1 DUP2 MSTORE PUSH1 0x20 ADD PUSH1 0x0 KECCAK256 PUSH1 0x0 CALLER PUSH20 0xFFFFFFFFFFFFFFFFFFFFFFFFFFFFFFFFFFFFFFFF AND PUSH20 0xFFFFFFFFFFFFFFFFFFFFFFFFFFFFFFFFFFFFFFFF AND DUP2 MSTORE PUSH1 0x20 ADD SWAP1 DUP2 MSTORE PUSH1 0x20 ADD PUSH1 0x0 KECCAK256 PUSH1 0x0 SWAP1 SLOAD SWAP1 PUSH2 0x100 EXP SWAP1 DIV PUSH1 0xFF AND JUMPDEST PUSH2 0x6EC JUMPI PUSH1 0x40 MLOAD PUSH32 0x8C379A000000000000000000000000000000000000000000000000000000000 DUP2 MSTORE PUSH1 0x4 ADD PUSH2 0x6E3 SWAP1 PUSH2 0x1951 JUMP JUMPDEST PUSH1 0x40 MLOAD DUP1 SWAP2 SUB SWAP1 REVERT JUMPDEST DUP3 PUSH1 0x3 PUSH1 0x0 DUP5 DUP2 MSTORE PUSH1 0x20 ADD SWAP1 DUP2 MSTORE PUSH1 0x20 ADD PUSH1 0x0 KECCAK256 PUSH1 0x0 PUSH2 0x100 EXP DUP2 SLOAD DUP2 PUSH20 0xFFFFFFFFFFFFFFFFFFFFFFFFFFFFFFFFFFFFFFFF MUL NOT AND SWAP1 DUP4 PUSH20 0xFFFFFFFFFFFFFFFFFFFFFFFFFFFFFFFFFFFFFFFF AND MUL OR SWAP1 SSTORE POP DUP2 DUP4 PUSH20 0xFFFFFFFFFFFFFFFFFFFFFFFFFFFFFFFFFFFFFFFF AND DUP3 PUSH20 0xFFFFFFFFFFFFFFFFFFFFFFFFFFFFFFFFFFFFFFFF AND PUSH32 0x8C5BE1E5EBEC7D5BD14F71427D1E84F3DD0314C0F7B2291E5B200AC8C7C3B925 PUSH1 0x40 MLOAD PUSH1 0x40 MLOAD DUP1 SWAP2 SUB SWAP1 LOG4 POP POP POP JUMP JUMPDEST PUSH2 0x7A9 DUP4 DUP4 DUP4 PUSH2 0xD62 JUMP JUMPDEST POP POP POP JUMP JUMPDEST PUSH1 0x0 DUP1 SLOAD SWAP1 PUSH2 0x100 EXP SWAP1 DIV PUSH20 0xFFFFFFFFFFFFFFFFFFFFFFFFFFFFFFFFFFFFFFFF AND PUSH20 0xFFFFFFFFFFFFFFFFFFFFFFFFFFFFFFFFFFFFFFFF AND CALLER PUSH20 0xFFFFFFFFFFFFFFFFFFFFFFFFFFFFFFFFFFFFFFFF AND EQ PUSH2 0x83C JUMPI PUSH1 0x40 MLOAD PUSH32 0x8C379A000000000000000000000000000000000000000000000000000000000 DUP2 MSTORE PUSH1 0x4 ADD PUSH2 0x833 SWAP1 PUSH2 0x19E3 JUMP JUMPDEST PUSH1 0x40 MLOAD DUP1 SWAP2 SUB SWAP1 REVERT JUMPDEST PUSH2 0x846 DUP3 DUP3 PUSH2 0x113C JUMP JUMPDEST POP POP JUMP JUMPDEST PUSH1 0x0 DUP1 SLOAD SWAP1 PUSH2 0x100 EXP SWAP1 DIV PUSH20 0xFFFFFFFFFFFFFFFFFFFFFFFFFFFFFFFFFFFFFFFF AND DUP2 JUMP JUMPDEST PUSH1 0x0 DUP1 PUSH1 0x1 PUSH1 0x0 DUP5 DUP2 MSTORE PUSH1 0x20 ADD SWAP1 DUP2 MSTORE PUSH1 0x20 ADD PUSH1 0x0 KECCAK256 PUSH1 0x0 SWAP1 SLOAD SWAP1 PUSH2 0x100 EXP SWAP1 DIV PUSH20 0xFFFFFFFFFFFFFFFFFFFFFFFFFFFFFFFFFFFFFFFF AND SWAP1 POP PUSH1 0x0 PUSH20 0xFFFFFFFFFFFFFFFFFFFFFFFFFFFFFFFFFFFFFFFF AND DUP2 PUSH20 0xFFFFFFFFFFFFFFFFFFFFFFFFFFFFFFFFFFFFFFFF AND SUB PUSH2 0x916 JUMPI PUSH1 0x40 MLOAD PUSH32 0x8C379A000000000000000000000000000000000000000000000000000000000 DUP2 MSTORE PUSH1 0x4 ADD PUSH2 0x90D SWAP1 PUSH2 0x1A4F JUMP JUMPDEST PUSH1 0x40 MLOAD DUP1 SWAP2 SUB SWAP1 REVERT JUMPDEST DUP1 SWAP2 POP POP SWAP2 SWAP1 POP JUMP JUMPDEST PUSH1 0x0 DUP1 PUSH20 0xFFFFFFFFFFFFFFFFFFFFFFFFFFFFFFFFFFFFFFFF AND DUP3 PUSH20 0xFFFFFFFFFFFFFFFFFFFFFFFFFFFFFFFFFFFFFFFF AND SUB PUSH2 0x98F JUMPI PUSH1 0x40 MLOAD PUSH32 0x8C379A000000000000000000000000000000000000000000000000000000000 DUP2 MSTORE PUSH1 0x4 ADD PUSH2 0x986 SWAP1 PUSH2 0x1AE1 JUMP JUMPDEST PUSH1 0x40 MLOAD DUP1 SWAP2 SUB SWAP1 REVERT JUMPDEST PUSH1 0x2 PUSH1 0x0 DUP4 PUSH20 0xFFFFFFFFFFFFFFFFFFFFFFFFFFFFFFFFFFFFFFFF AND PUSH20 0xFFFFFFFFFFFFFFFFFFFFFFFFFFFFFFFFFFFFFFFF AND DUP2 MSTORE PUSH1 0x20 ADD SWAP1 DUP2 MSTORE PUSH1 0x20 ADD PUSH1 0x0 KECCAK256 SLOAD SWAP1 POP SWAP2 SWAP1 POP JUMP JUMPDEST PUSH1 0x6 DUP1 SLOAD PUSH2 0x9E3 SWAP1 PUSH2 0x1868 JUMP JUMPDEST DUP1 PUSH1 0x1F ADD PUSH1 0x20 DUP1 SWAP2 DIV MUL PUSH1 0x20 ADD PUSH1 0x40 MLOAD SWAP1 DUP2 ADD PUSH1 0x40 MSTORE DUP1 SWAP3 SWAP2 SWAP1 DUP2 DUP2 MSTORE PUSH1 0x20 ADD DUP3 DUP1 SLOAD PUSH2 0xA0F SWAP1 PUSH2 0x1868 JUMP JUMPDEST DUP1 ISZERO PUSH2 0xA5C JUMPI DUP1 PUSH1 0x1F LT PUSH2 0xA31 JUMPI PUSH2 0x100 DUP1 DUP4 SLOAD DIV MUL DUP4 MSTORE SWAP2 PUSH1 0x20 ADD SWAP2 PUSH2 0xA5C JUMP JUMPDEST DUP3 ADD SWAP2 SWAP1 PUSH1 0x0 MSTORE PUSH1 0x20 PUSH1 0x0 KECCAK256 SWAP1 JUMPDEST DUP2 SLOAD DUP2 MSTORE SWAP1 PUSH1 0x1 ADD SWAP1 PUSH1 0x20 ADD DUP1 DUP4 GT PUSH2 0xA3F JUMPI DUP3 SWAP1 SUB PUSH1 0x1F AND DUP3 ADD SWAP2 JUMPDEST POP POP POP POP POP DUP2 JUMP JUMPDEST DUP1 PUSH1 0x4 PUSH1 0x0 CALLER PUSH20 0xFFFFFFFFFFFFFFFFFFFFFFFFFFFFFFFFFFFFFFFF AND PUSH20 0xFFFFFFFFFFFFFFFFFFFFFFFFFFFFFFFFFFFFFFFF AND DUP2 MSTORE PUSH1 0x20 ADD SWAP1 DUP2 MSTORE PUSH1 0x20 ADD PUSH1 0x0 KECCAK256 PUSH1 0x0 DUP5 PUSH20 0xFFFFFFFFFFFFFFFFFFFFFFFFFFFFFFFFFFFFFFFF AND PUSH20 0xFFFFFFFFFFFFFFFFFFFFFFFFFFFFFFFFFFFFFFFF AND DUP2 MSTORE PUSH1 0x20 ADD SWAP1 DUP2 MSTORE PUSH1 0x20 ADD PUSH1 0x0 KECCAK256 PUSH1 0x0 PUSH2 0x100 EXP DUP2 SLOAD DUP2 PUSH1 0xFF MUL NOT AND SWAP1 DUP4 ISZERO ISZERO MUL OR SWAP1 SSTORE POP DUP2 PUSH20 0xFFFFFFFFFFFFFFFFFFFFFFFFFFFFFFFFFFFFFFFF AND CALLER PUSH20 0xFFFFFFFFFFFFFFFFFFFFFFFFFFFFFFFFFFFFFFFF AND PUSH32 0x17307EAB39AB6107E8899845AD3D59BD9653F200F220920489CA2B5937696C31 DUP4 PUSH1 0x40 MLOAD PUSH2 0xB55 SWAP2 SWAP1 PUSH2 0x13FE JUMP JUMPDEST PUSH1 0x40 MLOAD DUP1 SWAP2 SUB SWAP1 LOG3 POP POP JUMP JUMPDEST PUSH2 0xB6C DUP6 DUP6 DUP6 PUSH2 0xD62 JUMP JUMPDEST PUSH1 0x0 DUP5 PUSH20 0xFFFFFFFFFFFFFFFFFFFFFFFFFFFFFFFFFFFFFFFF AND EXTCODESIZE EQ DUP1 PUSH2 0xC59 JUMPI POP PUSH4 0x150B7A02 PUSH1 0xE0 SHL PUSH28 0xFFFFFFFFFFFFFFFFFFFFFFFFFFFFFFFFFFFFFFFFFFFFFFFFFFFFFFFF NOT AND DUP5 PUSH20 0xFFFFFFFFFFFFFFFFFFFFFFFFFFFFFFFFFFFFFFFF AND PUSH4 0x150B7A02 CALLER DUP9 DUP8 DUP8 DUP8 PUSH1 0x40 MLOAD DUP7 PUSH4 0xFFFFFFFF AND PUSH1 0xE0 SHL DUP2 MSTORE PUSH1 0x4 ADD PUSH2 0xBF5 SWAP6 SWAP5 SWAP4 SWAP3 SWAP2 SWAP1 PUSH2 0x1B4E JUMP JUMPDEST PUSH1 0x20 PUSH1 0x40 MLOAD DUP1 DUP4 SUB DUP2 PUSH1 0x0 DUP8 GAS CALL ISZERO DUP1 ISZERO PUSH2 0xC14 JUMPI RETURNDATASIZE PUSH1 0x0 DUP1 RETURNDATACOPY RETURNDATASIZE PUSH1 0x0 REVERT JUMPDEST POP POP POP POP PUSH1 0x40 MLOAD RETURNDATASIZE PUSH1 0x1F NOT PUSH1 0x1F DUP3 ADD AND DUP3 ADD DUP1 PUSH1 0x40 MSTORE POP DUP2 ADD SWAP1 PUSH2 0xC38 SWAP2 SWAP1 PUSH2 0x1BB1 JUMP JUMPDEST PUSH28 0xFFFFFFFFFFFFFFFFFFFFFFFFFFFFFFFFFFFFFFFFFFFFFFFFFFFFFFFF NOT AND EQ JUMPDEST PUSH2 0xC98 JUMPI PUSH1 0x40 MLOAD PUSH32 0x8C379A000000000000000000000000000000000000000000000000000000000 DUP2 MSTORE PUSH1 0x4 ADD PUSH2 0xC8F SWAP1 PUSH2 0x1C2A JUMP JUMPDEST PUSH1 0x40 MLOAD DUP1 SWAP2 SUB SWAP1 REVERT JUMPDEST POP POP POP POP POP JUMP JUMPDEST PUSH1 0x0 PUSH1 0x4 PUSH1 0x0 DUP5 PUSH20 0xFFFFFFFFFFFFFFFFFFFFFFFFFFFFFFFFFFFFFFFF AND PUSH20 0xFFFFFFFFFFFFFFFFFFFFFFFFFFFFFFFFFFFFFFFF AND DUP2 MSTORE PUSH1 0x20 ADD SWAP1 DUP2 MSTORE PUSH1 0x20 ADD PUSH1 0x0 KECCAK256 PUSH1 0x0 DUP4 PUSH20 0xFFFFFFFFFFFFFFFFFFFFFFFFFFFFFFFFFFFFFFFF AND PUSH20 0xFFFFFFFFFFFFFFFFFFFFFFFFFFFFFFFFFFFFFFFF AND DUP2 MSTORE PUSH1 0x20 ADD SWAP1 DUP2 MSTORE PUSH1 0x20 ADD PUSH1 0x0 KECCAK256 PUSH1 0x0 SWAP1 SLOAD SWAP1 PUSH2 0x100 EXP SWAP1 DIV PUSH1 0xFF AND SWAP1 POP SWAP3 SWAP2 POP POP JUMP JUMPDEST PUSH1 0x4 PUSH1 0x20 MSTORE DUP2 PUSH1 0x0 MSTORE PUSH1 0x40 PUSH1 0x0 KECCAK256 PUSH1 0x20 MSTORE DUP1 PUSH1 0x0 MSTORE PUSH1 0x40 PUSH1 0x0 KECCAK256 PUSH1 0x0 SWAP2 POP SWAP2 POP SWAP1 SLOAD SWAP1 PUSH2 0x100 EXP SWAP1 DIV PUSH1 0xFF AND DUP2 JUMP JUMPDEST PUSH1 0x0 PUSH1 0x1 PUSH1 0x0 DUP4 DUP2 MSTORE PUSH1 0x20 ADD SWAP1 DUP2 MSTORE PUSH1 0x20 ADD PUSH1 0x0 KECCAK256 PUSH1 0x0 SWAP1 SLOAD SWAP1 PUSH2 0x100 EXP SWAP1 DIV PUSH20 0xFFFFFFFFFFFFFFFFFFFFFFFFFFFFFFFFFFFFFFFF AND SWAP1 POP DUP1 PUSH20 0xFFFFFFFFFFFFFFFFFFFFFFFFFFFFFFFFFFFFFFFF AND DUP5 PUSH20 0xFFFFFFFFFFFFFFFFFFFFFFFFFFFFFFFFFFFFFFFF AND EQ PUSH2 0xE08 JUMPI PUSH1 0x40 MLOAD PUSH32 0x8C379A000000000000000000000000000000000000000000000000000000000 DUP2 MSTORE PUSH1 0x4 ADD PUSH2 0xDFF SWAP1 PUSH2 0x1C96 JUMP JUMPDEST PUSH1 0x40 MLOAD DUP1 SWAP2 SUB SWAP1 REVERT JUMPDEST PUSH1 0x0 PUSH20 0xFFFFFFFFFFFFFFFFFFFFFFFFFFFFFFFFFFFFFFFF AND DUP4 PUSH20 0xFFFFFFFFFFFFFFFFFFFFFFFFFFFFFFFFFFFFFFFF AND SUB PUSH2 0xE77 JUMPI PUSH1 0x40 MLOAD PUSH32 0x8C379A000000000000000000000000000000000000000000000000000000000 DUP2 MSTORE PUSH1 0x4 ADD PUSH2 0xE6E SWAP1 PUSH2 0x1D02 JUMP JUMPDEST PUSH1 0x40 MLOAD DUP1 SWAP2 SUB SWAP1 REVERT JUMPDEST DUP1 PUSH20 0xFFFFFFFFFFFFFFFFFFFFFFFFFFFFFFFFFFFFFFFF AND CALLER PUSH20 0xFFFFFFFFFFFFFFFFFFFFFFFFFFFFFFFFFFFFFFFF AND EQ DUP1 PUSH2 0xF0F JUMPI POP PUSH1 0x3 PUSH1 0x0 DUP4 DUP2 MSTORE PUSH1 0x20 ADD SWAP1 DUP2 MSTORE PUSH1 0x20 ADD PUSH1 0x0 KECCAK256 PUSH1 0x0 SWAP1 SLOAD SWAP1 PUSH2 0x100 EXP SWAP1 DIV PUSH20 0xFFFFFFFFFFFFFFFFFFFFFFFFFFFFFFFFFFFFFFFF AND PUSH20 0xFFFFFFFFFFFFFFFFFFFFFFFFFFFFFFFFFFFFFFFF AND CALLER PUSH20 0xFFFFFFFFFFFFFFFFFFFFFFFFFFFFFFFFFFFFFFFF AND EQ JUMPDEST DUP1 PUSH2 0xFA0 JUMPI POP PUSH1 0x4 PUSH1 0x0 DUP3 PUSH20 0xFFFFFFFFFFFFFFFFFFFFFFFFFFFFFFFFFFFFFFFF AND PUSH20 0xFFFFFFFFFFFFFFFFFFFFFFFFFFFFFFFFFFFFFFFF AND DUP2 MSTORE PUSH1 0x20 ADD SWAP1 DUP2 MSTORE PUSH1 0x20 ADD PUSH1 0x0 KECCAK256 PUSH1 0x0 CALLER PUSH20 0xFFFFFFFFFFFFFFFFFFFFFFFFFFFFFFFFFFFFFFFF AND PUSH20 0xFFFFFFFFFFFFFFFFFFFFFFFFFFFFFFFFFFFFFFFF AND DUP2 MSTORE PUSH1 0x20 ADD SWAP1 DUP2 MSTORE PUSH1 0x20 ADD PUSH1 0x0 KECCAK256 PUSH1 0x0 SWAP1 SLOAD SWAP1 PUSH2 0x100 EXP SWAP1 DIV PUSH1 0xFF AND JUMPDEST PUSH2 0xFA9 JUMPI PUSH1 0x0 DUP1 REVERT JUMPDEST PUSH1 0x2 PUSH1 0x0 DUP6 PUSH20 0xFFFFFFFFFFFFFFFFFFFFFFFFFFFFFFFFFFFFFFFF AND PUSH20 0xFFFFFFFFFFFFFFFFFFFFFFFFFFFFFFFFFFFFFFFF AND DUP2 MSTORE PUSH1 0x20 ADD SWAP1 DUP2 MSTORE PUSH1 0x20 ADD PUSH1 0x0 KECCAK256 PUSH1 0x0 DUP2 SLOAD DUP1 SWAP3 SWAP2 SWAP1 PUSH2 0xFF9 SWAP1 PUSH2 0x1D51 JUMP JUMPDEST SWAP2 SWAP1 POP SSTORE POP PUSH1 0x2 PUSH1 0x0 DUP5 PUSH20 0xFFFFFFFFFFFFFFFFFFFFFFFFFFFFFFFFFFFFFFFF AND PUSH20 0xFFFFFFFFFFFFFFFFFFFFFFFFFFFFFFFFFFFFFFFF AND DUP2 MSTORE PUSH1 0x20 ADD SWAP1 DUP2 MSTORE PUSH1 0x20 ADD PUSH1 0x0 KECCAK256 PUSH1 0x0 DUP2 SLOAD DUP1 SWAP3 SWAP2 SWAP1 PUSH2 0x104E SWAP1 PUSH2 0x1D7A JUMP JUMPDEST SWAP2 SWAP1 POP SSTORE POP DUP3 PUSH1 0x1 PUSH1 0x0 DUP5 DUP2 MSTORE PUSH1 0x20 ADD SWAP1 DUP2 MSTORE PUSH1 0x20 ADD PUSH1 0x0 KECCAK256 PUSH1 0x0 PUSH2 0x100 EXP DUP2 SLOAD DUP2 PUSH20 0xFFFFFFFFFFFFFFFFFFFFFFFFFFFFFFFFFFFFFFFF MUL NOT AND SWAP1 DUP4 PUSH20 0xFFFFFFFFFFFFFFFFFFFFFFFFFFFFFFFFFFFFFFFF AND MUL OR SWAP1 SSTORE POP PUSH1 0x3 PUSH1 0x0 DUP4 DUP2 MSTORE PUSH1 0x20 ADD SWAP1 DUP2 MSTORE PUSH1 0x20 ADD PUSH1 0x0 KECCAK256 PUSH1 0x0 PUSH2 0x100 EXP DUP2 SLOAD SWAP1 PUSH20 0xFFFFFFFFFFFFFFFFFFFFFFFFFFFFFFFFFFFFFFFF MUL NOT AND SWAP1 SSTORE DUP2 DUP4 PUSH20 0xFFFFFFFFFFFFFFFFFFFFFFFFFFFFFFFFFFFFFFFF AND DUP6 PUSH20 0xFFFFFFFFFFFFFFFFFFFFFFFFFFFFFFFFFFFFFFFF AND PUSH32 0xDDF252AD1BE2C89B69C2B068FC378DAA952BA7F163C4A11628F55A4DF523B3EF PUSH1 0x40 MLOAD PUSH1 0x40 MLOAD DUP1 SWAP2 SUB SWAP1 LOG4 POP POP POP POP JUMP JUMPDEST PUSH1 0x0 PUSH20 0xFFFFFFFFFFFFFFFFFFFFFFFFFFFFFFFFFFFFFFFF AND DUP3 PUSH20 0xFFFFFFFFFFFFFFFFFFFFFFFFFFFFFFFFFFFFFFFF AND SUB PUSH2 0x11AB JUMPI PUSH1 0x40 MLOAD PUSH32 0x8C379A000000000000000000000000000000000000000000000000000000000 DUP2 MSTORE PUSH1 0x4 ADD PUSH2 0x11A2 SWAP1 PUSH2 0x1E0E JUMP JUMPDEST PUSH1 0x40 MLOAD DUP1 SWAP2 SUB SWAP1 REVERT JUMPDEST PUSH1 0x0 PUSH20 0xFFFFFFFFFFFFFFFFFFFFFFFFFFFFFFFFFFFFFFFF AND PUSH1 0x1 PUSH1 0x0 DUP4 DUP2 MSTORE PUSH1 0x20 ADD SWAP1 DUP2 MSTORE PUSH1 0x20 ADD PUSH1 0x0 KECCAK256 PUSH1 0x0 SWAP1 SLOAD SWAP1 PUSH2 0x100 EXP SWAP1 DIV PUSH20 0xFFFFFFFFFFFFFFFFFFFFFFFFFFFFFFFFFFFFFFFF AND PUSH20 0xFFFFFFFFFFFFFFFFFFFFFFFFFFFFFFFFFFFFFFFF AND EQ PUSH2 0x124D JUMPI PUSH1 0x40 MLOAD PUSH32 0x8C379A000000000000000000000000000000000000000000000000000000000 DUP2 MSTORE PUSH1 0x4 ADD PUSH2 0x1244 SWAP1 PUSH2 0x1E7A JUMP JUMPDEST PUSH1 0x40 MLOAD DUP1 SWAP2 SUB SWAP1 REVERT JUMPDEST PUSH1 0x2 PUSH1 0x0 DUP4 PUSH20 0xFFFFFFFFFFFFFFFFFFFFFFFFFFFFFFFFFFFFFFFF AND PUSH20 0xFFFFFFFFFFFFFFFFFFFFFFFFFFFFFFFFFFFFFFFF AND DUP2 MSTORE PUSH1 0x20 ADD SWAP1 DUP2 MSTORE PUSH1 0x20 ADD PUSH1 0x0 KECCAK256 PUSH1 0x0 DUP2 SLOAD DUP1 SWAP3 SWAP2 SWAP1 PUSH2 0x129D SWAP1 PUSH2 0x1D7A JUMP JUMPDEST SWAP2 SWAP1 POP SSTORE POP DUP2 PUSH1 0x1 PUSH1 0x0 DUP4 DUP2 MSTORE PUSH1 0x20 ADD SWAP1 DUP2 MSTORE PUSH1 0x20 ADD PUSH1 0x0 KECCAK256 PUSH1 0x0 PUSH2 0x100 EXP DUP2 SLOAD DUP2 PUSH20 0xFFFFFFFFFFFFFFFFFFFFFFFFFFFFFFFFFFFFFFFF MUL NOT AND SWAP1 DUP4 PUSH20 0xFFFFFFFFFFFFFFFFFFFFFFFFFFFFFFFFFFFFFFFF AND MUL OR SWAP1 SSTORE POP DUP1 DUP3 PUSH20 0xFFFFFFFFFFFFFFFFFFFFFFFFFFFFFFFFFFFFFFFF AND PUSH1 0x0 PUSH20 0xFFFFFFFFFFFFFFFFFFFFFFFFFFFFFFFFFFFFFFFF AND PUSH32 0xDDF252AD1BE2C89B69C2B068FC378DAA952BA7F163C4A11628F55A4DF523B3EF PUSH1 0x40 MLOAD PUSH1 0x40 MLOAD DUP1 SWAP2 SUB SWAP1 LOG4 POP POP JUMP JUMPDEST PUSH1 0x0 DUP1 REVERT JUMPDEST PUSH1 0x0 DUP1 REVERT JUMPDEST PUSH1 0x0 PUSH32 0xFFFFFFFF00000000000000000000000000000000000000000000000000000000 DUP3 AND SWAP1 POP SWAP2 SWAP1 POP JUMP JUMPDEST PUSH2 0x1393 DUP2 PUSH2 0x135E JUMP JUMPDEST DUP2 EQ PUSH2 0x139E JUMPI PUSH1 0x0 DUP1 REVERT JUMPDEST POP JUMP JUMPDEST PUSH1 0x0 DUP2 CALLDATALOAD SWAP1 POP PUSH2 0x13B0 DUP2 PUSH2 0x138A JUMP JUMPDEST SWAP3 SWAP2 POP POP JUMP JUMPDEST PUSH1 0x0 PUSH1 0x20 DUP3 DUP5 SUB SLT ISZERO PUSH2 0x13CC JUMPI PUSH2 0x13CB PUSH2 0x1354 JUMP JUMPDEST JUMPDEST PUSH1 0x0 PUSH2 0x13DA DUP5 DUP3 DUP6 ADD PUSH2 0x13A1 JUMP JUMPDEST SWAP2 POP POP SWAP3 SWAP2 POP POP JUMP JUMPDEST PUSH1 0x0 DUP2 ISZERO ISZERO SWAP1 POP SWAP2 SWAP1 POP JUMP JUMPDEST PUSH2 0x13F8 DUP2 PUSH2 0x13E3 JUMP JUMPDEST DUP3 MSTORE POP POP JUMP JUMPDEST PUSH1 0x0 PUSH1 0x20 DUP3 ADD SWAP1 POP PUSH2 0x1413 PUSH1 0x0 DUP4 ADD DUP5 PUSH2 0x13EF JUMP JUMPDEST SWAP3 SWAP2 POP POP JUMP JUMPDEST PUSH1 0x0 DUP2 MLOAD SWAP1 POP SWAP2 SWAP1 POP JUMP JUMPDEST PUSH1 0x0 DUP3 DUP3 MSTORE PUSH1 0x20 DUP3 ADD SWAP1 POP SWAP3 SWAP2 POP POP JUMP JUMPDEST PUSH1 0x0 JUMPDEST DUP4 DUP2 LT ISZERO PUSH2 0x1453 JUMPI DUP1 DUP3 ADD MLOAD DUP2 DUP5 ADD MSTORE PUSH1 0x20 DUP2 ADD SWAP1 POP PUSH2 0x1438 JUMP JUMPDEST PUSH1 0x0 DUP5 DUP5 ADD MSTORE POP POP POP POP JUMP JUMPDEST PUSH1 0x0 PUSH1 0x1F NOT PUSH1 0x1F DUP4 ADD AND SWAP1 POP SWAP2 SWAP1 POP JUMP JUMPDEST PUSH1 0x0 PUSH2 0x147B DUP3 PUSH2 0x1419 JUMP JUMPDEST PUSH2 0x1485 DUP2 DUP6 PUSH2 0x1424 JUMP JUMPDEST SWAP4 POP PUSH2 0x1495 DUP2 DUP6 PUSH1 0x20 DUP7 ADD PUSH2 0x1435 JUMP JUMPDEST PUSH2 0x149E DUP2 PUSH2 0x145F JUMP JUMPDEST DUP5 ADD SWAP2 POP POP SWAP3 SWAP2 POP POP JUMP JUMPDEST PUSH1 0x0 PUSH1 0x20 DUP3 ADD SWAP1 POP DUP2 DUP2 SUB PUSH1 0x0 DUP4 ADD MSTORE PUSH2 0x14C3 DUP2 DUP5 PUSH2 0x1470 JUMP JUMPDEST SWAP1 POP SWAP3 SWAP2 POP POP JUMP JUMPDEST PUSH1 0x0 DUP2 SWAP1 POP SWAP2 SWAP1 POP JUMP JUMPDEST PUSH2 0x14DE DUP2 PUSH2 0x14CB JUMP JUMPDEST DUP2 EQ PUSH2 0x14E9 JUMPI PUSH1 0x0 DUP1 REVERT JUMPDEST POP JUMP JUMPDEST PUSH1 0x0 DUP2 CALLDATALOAD SWAP1 POP PUSH2 0x14FB DUP2 PUSH2 0x14D5 JUMP JUMPDEST SWAP3 SWAP2 POP POP JUMP JUMPDEST PUSH1 0x0 PUSH1 0x20 DUP3 DUP5 SUB SLT ISZERO PUSH2 0x1517 JUMPI PUSH2 0x1516 PUSH2 0x1354 JUMP JUMPDEST JUMPDEST PUSH1 0x0 PUSH2 0x1525 DUP5 DUP3 DUP6 ADD PUSH2 0x14EC JUMP JUMPDEST SWAP2 POP POP SWAP3 SWAP2 POP POP JUMP JUMPDEST PUSH1 0x0 PUSH20 0xFFFFFFFFFFFFFFFFFFFFFFFFFFFFFFFFFFFFFFFF DUP3 AND SWAP1 POP SWAP2 SWAP1 POP JUMP JUMPDEST PUSH1 0x0 PUSH2 0x1559 DUP3 PUSH2 0x152E JUMP JUMPDEST SWAP1 POP SWAP2 SWAP1 POP JUMP JUMPDEST PUSH2 0x1569 DUP2 PUSH2 0x154E JUMP JUMPDEST DUP3 MSTORE POP POP JUMP JUMPDEST PUSH1 0x0 PUSH1 0x20 DUP3 ADD SWAP1 POP PUSH2 0x1584 PUSH1 0x0 DUP4 ADD DUP5 PUSH2 0x1560 JUMP JUMPDEST SWAP3 SWAP2 POP POP JUMP JUMPDEST PUSH2 0x1593 DUP2 PUSH2 0x154E JUMP JUMPDEST DUP2 EQ PUSH2 0x159E JUMPI PUSH1 0x0 DUP1 REVERT JUMPDEST POP JUMP JUMPDEST PUSH1 0x0 DUP2 CALLDATALOAD SWAP1 POP PUSH2 0x15B0 DUP2 PUSH2 0x158A JUMP JUMPDEST SWAP3 SWAP2 POP POP JUMP JUMPDEST PUSH1 0x0 DUP1 PUSH1 0x40 DUP4 DUP6 SUB SLT ISZERO PUSH2 0x15CD JUMPI PUSH2 0x15CC PUSH2 0x1354 JUMP JUMPDEST JUMPDEST PUSH1 0x0 PUSH2 0x15DB DUP6 DUP3 DUP7 ADD PUSH2 0x15A1 JUMP JUMPDEST SWAP3 POP POP PUSH1 0x20 PUSH2 0x15EC DUP6 DUP3 DUP7 ADD PUSH2 0x14EC JUMP JUMPDEST SWAP2 POP POP SWAP3 POP SWAP3 SWAP1 POP JUMP JUMPDEST PUSH1 0x0 DUP1 PUSH1 0x0 PUSH1 0x60 DUP5 DUP7 SUB SLT ISZERO PUSH2 0x160F JUMPI PUSH2 0x160E PUSH2 0x1354 JUMP JUMPDEST JUMPDEST PUSH1 0x0 PUSH2 0x161D DUP7 DUP3 DUP8 ADD PUSH2 0x15A1 JUMP JUMPDEST SWAP4 POP POP PUSH1 0x20 PUSH2 0x162E DUP7 DUP3 DUP8 ADD PUSH2 0x15A1 JUMP JUMPDEST SWAP3 POP POP PUSH1 0x40 PUSH2 0x163F DUP7 DUP3 DUP8 ADD PUSH2 0x14EC JUMP JUMPDEST SWAP2 POP POP SWAP3 POP SWAP3 POP SWAP3 JUMP JUMPDEST PUSH1 0x0 PUSH1 0x20 DUP3 DUP5 SUB SLT ISZERO PUSH2 0x165F JUMPI PUSH2 0x165E PUSH2 0x1354 JUMP JUMPDEST JUMPDEST PUSH1 0x0 PUSH2 0x166D DUP5 DUP3 DUP6 ADD PUSH2 0x15A1 JUMP JUMPDEST SWAP2 POP POP SWAP3 SWAP2 POP POP JUMP JUMPDEST PUSH2 0x167F DUP2 PUSH2 0x14CB JUMP JUMPDEST DUP3 MSTORE POP POP JUMP JUMPDEST PUSH1 0x0 PUSH1 0x20 DUP3 ADD SWAP1 POP PUSH2 0x169A PUSH1 0x0 DUP4 ADD DUP5 PUSH2 0x1676 JUMP JUMPDEST SWAP3 SWAP2 POP POP JUMP JUMPDEST PUSH2 0x16A9 DUP2 PUSH2 0x13E3 JUMP JUMPDEST DUP2 EQ PUSH2 0x16B4 JUMPI PUSH1 0x0 DUP1 REVERT JUMPDEST POP JUMP JUMPDEST PUSH1 0x0 DUP2 CALLDATALOAD SWAP1 POP PUSH2 0x16C6 DUP2 PUSH2 0x16A0 JUMP JUMPDEST SWAP3 SWAP2 POP POP JUMP JUMPDEST PUSH1 0x0 DUP1 PUSH1 0x40 DUP4 DUP6 SUB SLT ISZERO PUSH2 0x16E3 JUMPI PUSH2 0x16E2 PUSH2 0x1354 JUMP JUMPDEST JUMPDEST PUSH1 0x0 PUSH2 0x16F1 DUP6 DUP3 DUP7 ADD PUSH2 0x15A1 JUMP JUMPDEST SWAP3 POP POP PUSH1 0x20 PUSH2 0x1702 DUP6 DUP3 DUP7 ADD PUSH2 0x16B7 JUMP JUMPDEST SWAP2 POP POP SWAP3 POP SWAP3 SWAP1 POP JUMP JUMPDEST PUSH1 0x0 DUP1 REVERT JUMPDEST PUSH1 0x0 DUP1 REVERT JUMPDEST PUSH1 0x0 DUP1 REVERT JUMPDEST PUSH1 0x0 DUP1 DUP4 PUSH1 0x1F DUP5 ADD SLT PUSH2 0x1731 JUMPI PUSH2 0x1730 PUSH2 0x170C JUMP JUMPDEST JUMPDEST DUP3 CALLDATALOAD SWAP1 POP PUSH8 0xFFFFFFFFFFFFFFFF DUP2 GT ISZERO PUSH2 0x174E JUMPI PUSH2 0x174D PUSH2 0x1711 JUMP JUMPDEST JUMPDEST PUSH1 0x20 DUP4 ADD SWAP2 POP DUP4 PUSH1 0x1 DUP3 MUL DUP4 ADD GT ISZERO PUSH2 0x176A JUMPI PUSH2 0x1769 PUSH2 0x1716 JUMP JUMPDEST JUMPDEST SWAP3 POP SWAP3 SWAP1 POP JUMP JUMPDEST PUSH1 0x0 DUP1 PUSH1 0x0 DUP1 PUSH1 0x0 PUSH1 0x80 DUP7 DUP9 SUB SLT ISZERO PUSH2 0x178D JUMPI PUSH2 0x178C PUSH2 0x1354 JUMP JUMPDEST JUMPDEST PUSH1 0x0 PUSH2 0x179B DUP9 DUP3 DUP10 ADD PUSH2 0x15A1 JUMP JUMPDEST SWAP6 POP POP PUSH1 0x20 PUSH2 0x17AC DUP9 DUP3 DUP10 ADD PUSH2 0x15A1 JUMP JUMPDEST SWAP5 POP POP PUSH1 0x40 PUSH2 0x17BD DUP9 DUP3 DUP10 ADD PUSH2 0x14EC JUMP JUMPDEST SWAP4 POP POP PUSH1 0x60 DUP7 ADD CALLDATALOAD PUSH8 0xFFFFFFFFFFFFFFFF DUP2 GT ISZERO PUSH2 0x17DE JUMPI PUSH2 0x17DD PUSH2 0x1359 JUMP JUMPDEST JUMPDEST PUSH2 0x17EA DUP9 DUP3 DUP10 ADD PUSH2 0x171B JUMP JUMPDEST SWAP3 POP SWAP3 POP POP SWAP3 SWAP6 POP SWAP3 SWAP6 SWAP1 SWAP4 POP JUMP JUMPDEST PUSH1 0x0 DUP1 PUSH1 0x40 DUP4 DUP6 SUB SLT ISZERO PUSH2 0x1810 JUMPI PUSH2 0x180F PUSH2 0x1354 JUMP JUMPDEST JUMPDEST PUSH1 0x0 PUSH2 0x181E DUP6 DUP3 DUP7 ADD PUSH2 0x15A1 JUMP JUMPDEST SWAP3 POP POP PUSH1 0x20 PUSH2 0x182F DUP6 DUP3 DUP7 ADD PUSH2 0x15A1 JUMP JUMPDEST SWAP2 POP POP SWAP3 POP SWAP3 SWAP1 POP JUMP JUMPDEST PUSH32 0x4E487B7100000000000000000000000000000000000000000000000000000000 PUSH1 0x0 MSTORE PUSH1 0x22 PUSH1 0x4 MSTORE PUSH1 0x24 PUSH1 0x0 REVERT JUMPDEST PUSH1 0x0 PUSH1 0x2 DUP3 DIV SWAP1 POP PUSH1 0x1 DUP3 AND DUP1 PUSH2 0x1880 JUMPI PUSH1 0x7F DUP3 AND SWAP2 POP JUMPDEST PUSH1 0x20 DUP3 LT DUP2 SUB PUSH2 0x1893 JUMPI PUSH2 0x1892 PUSH2 0x1839 JUMP JUMPDEST JUMPDEST POP SWAP2 SWAP1 POP JUMP JUMPDEST PUSH32 0x4572726F72203A20746F6B656E20646F6573206E6F7420657869737400000000 PUSH1 0x0 DUP3 ADD MSTORE POP JUMP JUMPDEST PUSH1 0x0 PUSH2 0x18CF PUSH1 0x1C DUP4 PUSH2 0x1424 JUMP JUMPDEST SWAP2 POP PUSH2 0x18DA DUP3 PUSH2 0x1899 JUMP JUMPDEST PUSH1 0x20 DUP3 ADD SWAP1 POP SWAP2 SWAP1 POP JUMP JUMPDEST PUSH1 0x0 PUSH1 0x20 DUP3 ADD SWAP1 POP DUP2 DUP2 SUB PUSH1 0x0 DUP4 ADD MSTORE PUSH2 0x18FE DUP2 PUSH2 0x18C2 JUMP JUMPDEST SWAP1 POP SWAP2 SWAP1 POP JUMP JUMPDEST PUSH32 0x6E6F7420617574686F72697A6564000000000000000000000000000000000000 PUSH1 0x0 DUP3 ADD MSTORE POP JUMP JUMPDEST PUSH1 0x0 PUSH2 0x193B PUSH1 0xE DUP4 PUSH2 0x1424 JUMP JUMPDEST SWAP2 POP PUSH2 0x1946 DUP3 PUSH2 0x1905 JUMP JUMPDEST PUSH1 0x20 DUP3 ADD SWAP1 POP SWAP2 SWAP1 POP JUMP JUMPDEST PUSH1 0x0 PUSH1 0x20 DUP3 ADD SWAP1 POP DUP2 DUP2 SUB PUSH1 0x0 DUP4 ADD MSTORE PUSH2 0x196A DUP2 PUSH2 0x192E JUMP JUMPDEST SWAP1 POP SWAP2 SWAP1 POP JUMP JUMPDEST PUSH32 0x4572726F72203A20596F7520617265206E6F7420616E20617574686F72697A65 PUSH1 0x0 DUP3 ADD MSTORE PUSH32 0x64206D696E746572000000000000000000000000000000000000000000000000 PUSH1 0x20 DUP3 ADD MSTORE POP JUMP JUMPDEST PUSH1 0x0 PUSH2 0x19CD PUSH1 0x28 DUP4 PUSH2 0x1424 JUMP JUMPDEST SWAP2 POP PUSH2 0x19D8 DUP3 PUSH2 0x1971 JUMP JUMPDEST PUSH1 0x40 DUP3 ADD SWAP1 POP SWAP2 SWAP1 POP JUMP JUMPDEST PUSH1 0x0 PUSH1 0x20 DUP3 ADD SWAP1 POP DUP2 DUP2 SUB PUSH1 0x0 DUP4 ADD MSTORE PUSH2 0x19FC DUP2 PUSH2 0x19C0 JUMP JUMPDEST SWAP1 POP SWAP2 SWAP1 POP JUMP JUMPDEST PUSH32 0x4572726F72203A20546F6B656E20646F6573206E6F7420657869737400000000 PUSH1 0x0 DUP3 ADD MSTORE POP JUMP JUMPDEST PUSH1 0x0 PUSH2 0x1A39 PUSH1 0x1C DUP4 PUSH2 0x1424 JUMP JUMPDEST SWAP2 POP PUSH2 0x1A44 DUP3 PUSH2 0x1A03 JUMP JUMPDEST PUSH1 0x20 DUP3 ADD SWAP1 POP SWAP2 SWAP1 POP JUMP JUMPDEST PUSH1 0x0 PUSH1 0x20 DUP3 ADD SWAP1 POP DUP2 DUP2 SUB PUSH1 0x0 DUP4 ADD MSTORE PUSH2 0x1A68 DUP2 PUSH2 0x1A2C JUMP JUMPDEST SWAP1 POP SWAP2 SWAP1 POP JUMP JUMPDEST PUSH32 0x4572726F72203A2062616C616E636520717565727920666F7220746865207A65 PUSH1 0x0 DUP3 ADD MSTORE PUSH32 0x726F206164647265737300000000000000000000000000000000000000000000 PUSH1 0x20 DUP3 ADD MSTORE POP JUMP JUMPDEST PUSH1 0x0 PUSH2 0x1ACB PUSH1 0x2A DUP4 PUSH2 0x1424 JUMP JUMPDEST SWAP2 POP PUSH2 0x1AD6 DUP3 PUSH2 0x1A6F JUMP JUMPDEST PUSH1 0x40 DUP3 ADD SWAP1 POP SWAP2 SWAP1 POP JUMP JUMPDEST PUSH1 0x0 PUSH1 0x20 DUP3 ADD SWAP1 POP DUP2 DUP2 SUB PUSH1 0x0 DUP4 ADD MSTORE PUSH2 0x1AFA DUP2 PUSH2 0x1ABE JUMP JUMPDEST SWAP1 POP SWAP2 SWAP1 POP JUMP JUMPDEST PUSH1 0x0 DUP3 DUP3 MSTORE PUSH1 0x20 DUP3 ADD SWAP1 POP SWAP3 SWAP2 POP POP JUMP JUMPDEST DUP3 DUP2 DUP4 CALLDATACOPY PUSH1 0x0 DUP4 DUP4 ADD MSTORE POP POP POP JUMP JUMPDEST PUSH1 0x0 PUSH2 0x1B2D DUP4 DUP6 PUSH2 0x1B01 JUMP JUMPDEST SWAP4 POP PUSH2 0x1B3A DUP4 DUP6 DUP5 PUSH2 0x1B12 JUMP JUMPDEST PUSH2 0x1B43 DUP4 PUSH2 0x145F JUMP JUMPDEST DUP5 ADD SWAP1 POP SWAP4 SWAP3 POP POP POP JUMP JUMPDEST PUSH1 0x0 PUSH1 0x80 DUP3 ADD SWAP1 POP PUSH2 0x1B63 PUSH1 0x0 DUP4 ADD DUP9 PUSH2 0x1560 JUMP JUMPDEST PUSH2 0x1B70 PUSH1 0x20 DUP4 ADD DUP8 PUSH2 0x1560 JUMP JUMPDEST PUSH2 0x1B7D PUSH1 0x40 DUP4 ADD DUP7 PUSH2 0x1676 JUMP JUMPDEST DUP2 DUP2 SUB PUSH1 0x60 DUP4 ADD MSTORE PUSH2 0x1B90 DUP2 DUP5 DUP7 PUSH2 0x1B21 JUMP JUMPDEST SWAP1 POP SWAP7 SWAP6 POP POP POP POP POP POP JUMP JUMPDEST PUSH1 0x0 DUP2 MLOAD SWAP1 POP PUSH2 0x1BAB DUP2 PUSH2 0x138A JUMP JUMPDEST SWAP3 SWAP2 POP POP JUMP JUMPDEST PUSH1 0x0 PUSH1 0x20 DUP3 DUP5 SUB SLT ISZERO PUSH2 0x1BC7 JUMPI PUSH2 0x1BC6 PUSH2 0x1354 JUMP JUMPDEST JUMPDEST PUSH1 0x0 PUSH2 0x1BD5 DUP5 DUP3 DUP6 ADD PUSH2 0x1B9C JUMP JUMPDEST SWAP2 POP POP SWAP3 SWAP2 POP POP JUMP JUMPDEST PUSH32 0x4572726F72203A20756E7361666520726563697069656E740000000000000000 PUSH1 0x0 DUP3 ADD MSTORE POP JUMP JUMPDEST PUSH1 0x0 PUSH2 0x1C14 PUSH1 0x18 DUP4 PUSH2 0x1424 JUMP JUMPDEST SWAP2 POP PUSH2 0x1C1F DUP3 PUSH2 0x1BDE JUMP JUMPDEST PUSH1 0x20 DUP3 ADD SWAP1 POP SWAP2 SWAP1 POP JUMP JUMPDEST PUSH1 0x0 PUSH1 0x20 DUP3 ADD SWAP1 POP DUP2 DUP2 SUB PUSH1 0x0 DUP4 ADD MSTORE PUSH2 0x1C43 DUP2 PUSH2 0x1C07 JUMP JUMPDEST SWAP1 POP SWAP2 SWAP1 POP JUMP JUMPDEST PUSH32 0x66726F6D20213D206F776E657200000000000000000000000000000000000000 PUSH1 0x0 DUP3 ADD MSTORE POP JUMP JUMPDEST PUSH1 0x0 PUSH2 0x1C80 PUSH1 0xD DUP4 PUSH2 0x1424 JUMP JUMPDEST SWAP2 POP PUSH2 0x1C8B DUP3 PUSH2 0x1C4A JUMP JUMPDEST PUSH1 0x20 DUP3 ADD SWAP1 POP SWAP2 SWAP1 POP JUMP JUMPDEST PUSH1 0x0 PUSH1 0x20 DUP3 ADD SWAP1 POP DUP2 DUP2 SUB PUSH1 0x0 DUP4 ADD MSTORE PUSH2 0x1CAF DUP2 PUSH2 0x1C73 JUMP JUMPDEST SWAP1 POP SWAP2 SWAP1 POP JUMP JUMPDEST PUSH32 0x7472616E7366657220746F207A65726F20616464726573730000000000000000 PUSH1 0x0 DUP3 ADD MSTORE POP JUMP JUMPDEST PUSH1 0x0 PUSH2 0x1CEC PUSH1 0x18 DUP4 PUSH2 0x1424 JUMP JUMPDEST SWAP2 POP PUSH2 0x1CF7 DUP3 PUSH2 0x1CB6 JUMP JUMPDEST PUSH1 0x20 DUP3 ADD SWAP1 POP SWAP2 SWAP1 POP JUMP JUMPDEST PUSH1 0x0 PUSH1 0x20 DUP3 ADD SWAP1 POP DUP2 DUP2 SUB PUSH1 0x0 DUP4 ADD MSTORE PUSH2 0x1D1B DUP2 PUSH2 0x1CDF JUMP JUMPDEST SWAP1 POP SWAP2 SWAP1 POP JUMP JUMPDEST PUSH32 0x4E487B7100000000000000000000000000000000000000000000000000000000 PUSH1 0x0 MSTORE PUSH1 0x11 PUSH1 0x4 MSTORE PUSH1 0x24 PUSH1 0x0 REVERT JUMPDEST PUSH1 0x0 PUSH2 0x1D5C DUP3 PUSH2 0x14CB JUMP JUMPDEST SWAP2 POP PUSH1 0x0 DUP3 SUB PUSH2 0x1D6F JUMPI PUSH2 0x1D6E PUSH2 0x1D22 JUMP JUMPDEST JUMPDEST PUSH1 0x1 DUP3 SUB SWAP1 POP SWAP2 SWAP1 POP JUMP JUMPDEST PUSH1 0x0 PUSH2 0x1D85 DUP3 PUSH2 0x14CB JUMP JUMPDEST SWAP2 POP PUSH32 0xFFFFFFFFFFFFFFFFFFFFFFFFFFFFFFFFFFFFFFFFFFFFFFFFFFFFFFFFFFFFFFFF DUP3 SUB PUSH2 0x1DB7 JUMPI PUSH2 0x1DB6 PUSH2 0x1D22 JUMP JUMPDEST JUMPDEST PUSH1 0x1 DUP3 ADD SWAP1 POP SWAP2 SWAP1 POP JUMP JUMPDEST PUSH32 0x4572726F72203A206D696E7420746F207A65726F206164647265737300000000 PUSH1 0x0 DUP3 ADD MSTORE POP JUMP JUMPDEST PUSH1 0x0 PUSH2 0x1DF8 PUSH1 0x1C DUP4 PUSH2 0x1424 JUMP JUMPDEST SWAP2 POP PUSH2 0x1E03 DUP3 PUSH2 0x1DC2 JUMP JUMPDEST PUSH1 0x20 DUP3 ADD SWAP1 POP SWAP2 SWAP1 POP JUMP JUMPDEST PUSH1 0x0 PUSH1 0x20 DUP3 ADD SWAP1 POP DUP2 DUP2 SUB PUSH1 0x0 DUP4 ADD MSTORE PUSH2 0x1E27 DUP2 PUSH2 0x1DEB JUMP JUMPDEST SWAP1 POP SWAP2 SWAP1 POP JUMP JUMPDEST PUSH32 0x4572726F72203A20416C7265616479206D696E74656421000000000000000000 PUSH1 0x0 DUP3 ADD MSTORE POP JUMP JUMPDEST PUSH1 0x0 PUSH2 0x1E64 PUSH1 0x17 DUP4 PUSH2 0x1424 JUMP JUMPDEST SWAP2 POP PUSH2 0x1E6F DUP3 PUSH2 0x1E2E JUMP JUMPDEST PUSH1 0x20 DUP3 ADD SWAP1 POP SWAP2 SWAP1 POP JUMP JUMPDEST PUSH1 0x0 PUSH1 0x20 DUP3 ADD SWAP1 POP DUP2 DUP2 SUB PUSH1 0x0 DUP4 ADD MSTORE PUSH2 0x1E93 DUP2 PUSH2 0x1E57 JUMP JUMPDEST SWAP1 POP SWAP2 SWAP1 POP JUMP INVALID LOG2 PUSH5 0x6970667358 0x22 SLT KECCAK256 ORIGIN 0xF6 PUSH10 0x242B4FE1D0C1D89A6214 0xAD NOT 0x23 SELFDESTRUCT 0xDC LOG0 0x29 JUMP DUP3 0x28 SWAP15 EXTCODESIZE 0xF6 0xC8 0x2E GASPRICE SWAP6 POP 0x24 PUSH5 0x736F6C6343 STOP ADDMOD SLT STOP CALLER "
				},
				"gasEstimates": {
					"creation": {
						"codeDepositCost": "1577600",
						"executionCost": "infinite",
						"totalCost": "infinite"
					},
					"external": {
						"_operatorApprovals(address,address)": "infinite",
						"approve(address,uint256)": "31493",
						"balanceOf(address)": "2921",
						"founder()": "2600",
						"getApproved(uint256)": "5182",
						"isApprovedForAll(address,address)": "infinite",
						"mintNFT(address,uint256)": "infinite",
						"name()": "infinite",
						"ownerOf(uint256)": "2979",
						"safeTransferFrom(address,address,uint256,bytes)": "infinite",
						"setApprovalForAll(address,bool)": "infinite",
						"supportsInterface(bytes4)": "708",
						"symbol()": "infinite",
						"transferFrom(address,address,uint256)": "infinite"
					},
					"internal": {
						"_mint(address,uint256)": "infinite",
						"_transferFrom(address,address,uint256)": "infinite"
					}
				},
				"methodIdentifiers": {
					"_operatorApprovals(address,address)": "edc3bc3f",
					"approve(address,uint256)": "095ea7b3",
					"balanceOf(address)": "70a08231",
					"founder()": "4d853ee5",
					"getApproved(uint256)": "081812fc",
					"isApprovedForAll(address,address)": "e985e9c5",
					"mintNFT(address,uint256)": "3c168eab",
					"name()": "06fdde03",
					"ownerOf(uint256)": "6352211e",
					"safeTransferFrom(address,address,uint256,bytes)": "b88d4fde",
					"setApprovalForAll(address,bool)": "a22cb465",
					"supportsInterface(bytes4)": "01ffc9a7",
					"symbol()": "95d89b41",
					"transferFrom(address,address,uint256)": "23b872dd"
				}
			},
			"storageLayout": {
				"storage": [
					{
						"astId": 118,
						"contract": "Lecture Note/week12/ERC721StdTokens.sol:ERC721StdNFT",
						"label": "founder",
						"offset": 0,
						"slot": "0",
						"type": "t_address"
					},
					{
						"astId": 122,
						"contract": "Lecture Note/week12/ERC721StdTokens.sol:ERC721StdNFT",
						"label": "_ownerOf",
						"offset": 0,
						"slot": "1",
						"type": "t_mapping(t_uint256,t_address)"
					},
					{
						"astId": 126,
						"contract": "Lecture Note/week12/ERC721StdTokens.sol:ERC721StdNFT",
						"label": "_balanceOf",
						"offset": 0,
						"slot": "2",
						"type": "t_mapping(t_address,t_uint256)"
					},
					{
						"astId": 130,
						"contract": "Lecture Note/week12/ERC721StdTokens.sol:ERC721StdNFT",
						"label": "_approvals",
						"offset": 0,
						"slot": "3",
						"type": "t_mapping(t_uint256,t_address)"
					},
					{
						"astId": 136,
						"contract": "Lecture Note/week12/ERC721StdTokens.sol:ERC721StdNFT",
						"label": "_operatorApprovals",
						"offset": 0,
						"slot": "4",
						"type": "t_mapping(t_address,t_mapping(t_address,t_bool))"
					},
					{
						"astId": 138,
						"contract": "Lecture Note/week12/ERC721StdTokens.sol:ERC721StdNFT",
						"label": "name",
						"offset": 0,
						"slot": "5",
						"type": "t_string_storage"
					},
					{
						"astId": 140,
						"contract": "Lecture Note/week12/ERC721StdTokens.sol:ERC721StdNFT",
						"label": "symbol",
						"offset": 0,
						"slot": "6",
						"type": "t_string_storage"
					}
				],
				"types": {
					"t_address": {
						"encoding": "inplace",
						"label": "address",
						"numberOfBytes": "20"
					},
					"t_bool": {
						"encoding": "inplace",
						"label": "bool",
						"numberOfBytes": "1"
					},
					"t_mapping(t_address,t_bool)": {
						"encoding": "mapping",
						"key": "t_address",
						"label": "mapping(address => bool)",
						"numberOfBytes": "32",
						"value": "t_bool"
					},
					"t_mapping(t_address,t_mapping(t_address,t_bool))": {
						"encoding": "mapping",
						"key": "t_address",
						"label": "mapping(address => mapping(address => bool))",
						"numberOfBytes": "32",
						"value": "t_mapping(t_address,t_bool)"
					},
					"t_mapping(t_address,t_uint256)": {
						"encoding": "mapping",
						"key": "t_address",
						"label": "mapping(address => uint256)",
						"numberOfBytes": "32",
						"value": "t_uint256"
					},
					"t_mapping(t_uint256,t_address)": {
						"encoding": "mapping",
						"key": "t_uint256",
						"label": "mapping(uint256 => address)",
						"numberOfBytes": "32",
						"value": "t_address"
					},
					"t_string_storage": {
						"encoding": "bytes",
						"label": "string",
						"numberOfBytes": "32"
					},
					"t_uint256": {
						"encoding": "inplace",
						"label": "uint256",
						"numberOfBytes": "32"
					}
				}
			},
			"userdoc": {
				"kind": "user",
				"methods": {},
				"version": 1
			}
		}
	}
}