{
	"Lecture Note/week09/CrowdFunding.sol": {
		"CrowdFund": {
			"abi": [
				{
					"inputs": [
						{
							"internalType": "uint256",
							"name": "_duration",
							"type": "uint256"
						},
						{
							"internalType": "uint256",
							"name": "_goalAmount",
							"type": "uint256"
						}
					],
					"stateMutability": "nonpayable",
					"type": "constructor"
				},
				{
					"inputs": [],
					"name": "checkGoalReached",
					"outputs": [],
					"stateMutability": "nonpayable",
					"type": "function"
				},
				{
					"inputs": [],
					"name": "deadline",
					"outputs": [
						{
							"internalType": "uint256",
							"name": "",
							"type": "uint256"
						}
					],
					"stateMutability": "view",
					"type": "function"
				},
				{
					"inputs": [],
					"name": "ended",
					"outputs": [
						{
							"internalType": "bool",
							"name": "",
							"type": "bool"
						}
					],
					"stateMutability": "view",
					"type": "function"
				},
				{
					"inputs": [],
					"name": "fund",
					"outputs": [],
					"stateMutability": "payable",
					"type": "function"
				},
				{
					"inputs": [],
					"name": "goalAmount",
					"outputs": [
						{
							"internalType": "uint256",
							"name": "",
							"type": "uint256"
						}
					],
					"stateMutability": "view",
					"type": "function"
				},
				{
					"inputs": [
						{
							"internalType": "uint256",
							"name": "",
							"type": "uint256"
						}
					],
					"name": "investors",
					"outputs": [
						{
							"internalType": "address",
							"name": "addr",
							"type": "address"
						},
						{
							"internalType": "uint256",
							"name": "amount",
							"type": "uint256"
						}
					],
					"stateMutability": "view",
					"type": "function"
				},
				{
					"inputs": [],
					"name": "numInvestors",
					"outputs": [
						{
							"internalType": "uint256",
							"name": "",
							"type": "uint256"
						}
					],
					"stateMutability": "view",
					"type": "function"
				},
				{
					"inputs": [],
					"name": "owner",
					"outputs": [
						{
							"internalType": "address",
							"name": "",
							"type": "address"
						}
					],
					"stateMutability": "view",
					"type": "function"
				},
				{
					"inputs": [],
					"name": "status",
					"outputs": [
						{
							"internalType": "string",
							"name": "",
							"type": "string"
						}
					],
					"stateMutability": "view",
					"type": "function"
				},
				{
					"inputs": [],
					"name": "totalAmount",
					"outputs": [
						{
							"internalType": "uint256",
							"name": "",
							"type": "uint256"
						}
					],
					"stateMutability": "view",
					"type": "function"
				}
			],
			"devdoc": {
				"kind": "dev",
				"methods": {},
				"version": 1
			},
			"evm": {
				"assembly": "    /* \"Lecture Note/week09/CrowdFunding.sol\":57:1938  contract CrowdFund {... */\n  mstore(0x40, 0x80)\n    /* \"Lecture Note/week09/CrowdFunding.sol\":394:671  constructor(uint _duration, uint _goalAmount) {... */\n  callvalue\n  dup1\n  iszero\n  tag_1\n  jumpi\n  0x00\n  dup1\n  revert\ntag_1:\n  pop\n  mload(0x40)\n  sub(codesize, bytecodeSize)\n  dup1\n  bytecodeSize\n  dup4\n  codecopy\n  dup2\n  dup2\n  add\n  0x40\n  mstore\n  dup2\n  add\n  swap1\n  tag_2\n  swap2\n  swap1\n  tag_3\n  jump\t// in\ntag_2:\n    /* \"Lecture Note/week09/CrowdFunding.sol\":458:468  msg.sender */\n  caller\n    /* \"Lecture Note/week09/CrowdFunding.sol\":450:455  owner */\n  0x00\n  dup1\n    /* \"Lecture Note/week09/CrowdFunding.sol\":450:468  owner = msg.sender */\n  0x0100\n  exp\n  dup2\n  sload\n  dup2\n  0xffffffffffffffffffffffffffffffffffffffff\n  mul\n  not\n  and\n  swap1\n  dup4\n  0xffffffffffffffffffffffffffffffffffffffff\n  and\n  mul\n  or\n  swap1\n  sstore\n  pop\n    /* \"Lecture Note/week09/CrowdFunding.sol\":508:517  _duration */\n  dup2\n    /* \"Lecture Note/week09/CrowdFunding.sol\":490:505  block.timestamp */\n  timestamp\n    /* \"Lecture Note/week09/CrowdFunding.sol\":490:517  block.timestamp + _duration */\n  tag_6\n  swap2\n  swap1\n  tag_7\n  jump\t// in\ntag_6:\n    /* \"Lecture Note/week09/CrowdFunding.sol\":479:487  deadline */\n  0x02\n    /* \"Lecture Note/week09/CrowdFunding.sol\":479:517  deadline = block.timestamp + _duration */\n  dup2\n  swap1\n  sstore\n  pop\n    /* \"Lecture Note/week09/CrowdFunding.sol\":554:561  1 ether */\n  0x0de0b6b3a7640000\n    /* \"Lecture Note/week09/CrowdFunding.sol\":540:551  _goalAmount */\n  dup2\n    /* \"Lecture Note/week09/CrowdFunding.sol\":540:561  _goalAmount * 1 ether */\n  tag_8\n  swap2\n  swap1\n  tag_9\n  jump\t// in\ntag_8:\n    /* \"Lecture Note/week09/CrowdFunding.sol\":527:537  goalAmount */\n  0x05\n    /* \"Lecture Note/week09/CrowdFunding.sol\":527:561  goalAmount = _goalAmount * 1 ether */\n  dup2\n  swap1\n  sstore\n  pop\n    /* \"Lecture Note/week09/CrowdFunding.sol\":571:589  status = \"Funding\" */\n  mload(0x40)\n  dup1\n  0x40\n  add\n  0x40\n  mstore\n  dup1\n  0x07\n  dup2\n  mstore\n  0x20\n  add\n  0x46756e64696e6700000000000000000000000000000000000000000000000000\n  dup2\n  mstore\n  pop\n    /* \"Lecture Note/week09/CrowdFunding.sol\":571:577  status */\n  0x03\n    /* \"Lecture Note/week09/CrowdFunding.sol\":571:589  status = \"Funding\" */\n  swap1\n  dup2\n  tag_10\n  swap2\n  swap1\n  tag_11\n  jump\t// in\ntag_10:\n  pop\n    /* \"Lecture Note/week09/CrowdFunding.sol\":607:612  false */\n  0x00\n    /* \"Lecture Note/week09/CrowdFunding.sol\":599:604  ended */\n  0x04\n  0x00\n    /* \"Lecture Note/week09/CrowdFunding.sol\":599:612  ended = false */\n  0x0100\n  exp\n  dup2\n  sload\n  dup2\n  0xff\n  mul\n  not\n  and\n  swap1\n  dup4\n  iszero\n  iszero\n  mul\n  or\n  swap1\n  sstore\n  pop\n    /* \"Lecture Note/week09/CrowdFunding.sol\":638:639  0 */\n  0x00\n    /* \"Lecture Note/week09/CrowdFunding.sol\":623:635  numInvestors */\n  0x01\n    /* \"Lecture Note/week09/CrowdFunding.sol\":623:639  numInvestors = 0 */\n  dup2\n  swap1\n  sstore\n  pop\n    /* \"Lecture Note/week09/CrowdFunding.sol\":663:664  0 */\n  0x00\n    /* \"Lecture Note/week09/CrowdFunding.sol\":649:660  totalAmount */\n  0x06\n    /* \"Lecture Note/week09/CrowdFunding.sol\":649:664  totalAmount = 0 */\n  dup2\n  swap1\n  sstore\n  pop\n    /* \"Lecture Note/week09/CrowdFunding.sol\":394:671  constructor(uint _duration, uint _goalAmount) {... */\n  pop\n  pop\n    /* \"Lecture Note/week09/CrowdFunding.sol\":57:1938  contract CrowdFund {... */\n  jump(tag_12)\n    /* \"#utility.yul\":88:205   */\ntag_14:\n    /* \"#utility.yul\":197:198   */\n  0x00\n    /* \"#utility.yul\":194:195   */\n  dup1\n    /* \"#utility.yul\":187:199   */\n  revert\n    /* \"#utility.yul\":334:411   */\ntag_16:\n    /* \"#utility.yul\":371:378   */\n  0x00\n    /* \"#utility.yul\":400:405   */\n  dup2\n    /* \"#utility.yul\":389:405   */\n  swap1\n  pop\n    /* \"#utility.yul\":334:411   */\n  swap2\n  swap1\n  pop\n  jump\t// out\n    /* \"#utility.yul\":417:539   */\ntag_17:\n    /* \"#utility.yul\":490:514   */\n  tag_45\n    /* \"#utility.yul\":508:513   */\n  dup2\n    /* \"#utility.yul\":490:514   */\n  tag_16\n  jump\t// in\ntag_45:\n    /* \"#utility.yul\":483:488   */\n  dup2\n    /* \"#utility.yul\":480:515   */\n  eq\n    /* \"#utility.yul\":470:533   */\n  tag_46\n  jumpi\n    /* \"#utility.yul\":529:530   */\n  0x00\n    /* \"#utility.yul\":526:527   */\n  dup1\n    /* \"#utility.yul\":519:531   */\n  revert\n    /* \"#utility.yul\":470:533   */\ntag_46:\n    /* \"#utility.yul\":417:539   */\n  pop\n  jump\t// out\n    /* \"#utility.yul\":545:688   */\ntag_18:\n    /* \"#utility.yul\":602:607   */\n  0x00\n    /* \"#utility.yul\":633:639   */\n  dup2\n    /* \"#utility.yul\":627:640   */\n  mload\n    /* \"#utility.yul\":618:640   */\n  swap1\n  pop\n    /* \"#utility.yul\":649:682   */\n  tag_48\n    /* \"#utility.yul\":676:681   */\n  dup2\n    /* \"#utility.yul\":649:682   */\n  tag_17\n  jump\t// in\ntag_48:\n    /* \"#utility.yul\":545:688   */\n  swap3\n  swap2\n  pop\n  pop\n  jump\t// out\n    /* \"#utility.yul\":694:1201   */\ntag_3:\n    /* \"#utility.yul\":773:779   */\n  0x00\n    /* \"#utility.yul\":781:787   */\n  dup1\n    /* \"#utility.yul\":830:832   */\n  0x40\n    /* \"#utility.yul\":818:827   */\n  dup4\n    /* \"#utility.yul\":809:816   */\n  dup6\n    /* \"#utility.yul\":805:828   */\n  sub\n    /* \"#utility.yul\":801:833   */\n  slt\n    /* \"#utility.yul\":798:917   */\n  iszero\n  tag_50\n  jumpi\n    /* \"#utility.yul\":836:915   */\n  tag_51\n  tag_14\n  jump\t// in\ntag_51:\n    /* \"#utility.yul\":798:917   */\ntag_50:\n    /* \"#utility.yul\":956:957   */\n  0x00\n    /* \"#utility.yul\":981:1045   */\n  tag_52\n    /* \"#utility.yul\":1037:1044   */\n  dup6\n    /* \"#utility.yul\":1028:1034   */\n  dup3\n    /* \"#utility.yul\":1017:1026   */\n  dup7\n    /* \"#utility.yul\":1013:1035   */\n  add\n    /* \"#utility.yul\":981:1045   */\n  tag_18\n  jump\t// in\ntag_52:\n    /* \"#utility.yul\":971:1045   */\n  swap3\n  pop\n    /* \"#utility.yul\":927:1055   */\n  pop\n    /* \"#utility.yul\":1094:1096   */\n  0x20\n    /* \"#utility.yul\":1120:1184   */\n  tag_53\n    /* \"#utility.yul\":1176:1183   */\n  dup6\n    /* \"#utility.yul\":1167:1173   */\n  dup3\n    /* \"#utility.yul\":1156:1165   */\n  dup7\n    /* \"#utility.yul\":1152:1174   */\n  add\n    /* \"#utility.yul\":1120:1184   */\n  tag_18\n  jump\t// in\ntag_53:\n    /* \"#utility.yul\":1110:1184   */\n  swap2\n  pop\n    /* \"#utility.yul\":1065:1194   */\n  pop\n    /* \"#utility.yul\":694:1201   */\n  swap3\n  pop\n  swap3\n  swap1\n  pop\n  jump\t// out\n    /* \"#utility.yul\":1207:1387   */\ntag_19:\n    /* \"#utility.yul\":1255:1332   */\n  0x4e487b7100000000000000000000000000000000000000000000000000000000\n    /* \"#utility.yul\":1252:1253   */\n  0x00\n    /* \"#utility.yul\":1245:1333   */\n  mstore\n    /* \"#utility.yul\":1352:1356   */\n  0x11\n    /* \"#utility.yul\":1349:1350   */\n  0x04\n    /* \"#utility.yul\":1342:1357   */\n  mstore\n    /* \"#utility.yul\":1376:1380   */\n  0x24\n    /* \"#utility.yul\":1373:1374   */\n  0x00\n    /* \"#utility.yul\":1366:1381   */\n  revert\n    /* \"#utility.yul\":1393:1584   */\ntag_7:\n    /* \"#utility.yul\":1433:1436   */\n  0x00\n    /* \"#utility.yul\":1452:1472   */\n  tag_56\n    /* \"#utility.yul\":1470:1471   */\n  dup3\n    /* \"#utility.yul\":1452:1472   */\n  tag_16\n  jump\t// in\ntag_56:\n    /* \"#utility.yul\":1447:1472   */\n  swap2\n  pop\n    /* \"#utility.yul\":1486:1506   */\n  tag_57\n    /* \"#utility.yul\":1504:1505   */\n  dup4\n    /* \"#utility.yul\":1486:1506   */\n  tag_16\n  jump\t// in\ntag_57:\n    /* \"#utility.yul\":1481:1506   */\n  swap3\n  pop\n    /* \"#utility.yul\":1529:1530   */\n  dup3\n    /* \"#utility.yul\":1526:1527   */\n  dup3\n    /* \"#utility.yul\":1522:1531   */\n  add\n    /* \"#utility.yul\":1515:1531   */\n  swap1\n  pop\n    /* \"#utility.yul\":1550:1553   */\n  dup1\n    /* \"#utility.yul\":1547:1548   */\n  dup3\n    /* \"#utility.yul\":1544:1554   */\n  gt\n    /* \"#utility.yul\":1541:1577   */\n  iszero\n  tag_58\n  jumpi\n    /* \"#utility.yul\":1557:1575   */\n  tag_59\n  tag_19\n  jump\t// in\ntag_59:\n    /* \"#utility.yul\":1541:1577   */\ntag_58:\n    /* \"#utility.yul\":1393:1584   */\n  swap3\n  swap2\n  pop\n  pop\n  jump\t// out\n    /* \"#utility.yul\":1590:2000   */\ntag_9:\n    /* \"#utility.yul\":1630:1637   */\n  0x00\n    /* \"#utility.yul\":1653:1673   */\n  tag_61\n    /* \"#utility.yul\":1671:1672   */\n  dup3\n    /* \"#utility.yul\":1653:1673   */\n  tag_16\n  jump\t// in\ntag_61:\n    /* \"#utility.yul\":1648:1673   */\n  swap2\n  pop\n    /* \"#utility.yul\":1687:1707   */\n  tag_62\n    /* \"#utility.yul\":1705:1706   */\n  dup4\n    /* \"#utility.yul\":1687:1707   */\n  tag_16\n  jump\t// in\ntag_62:\n    /* \"#utility.yul\":1682:1707   */\n  swap3\n  pop\n    /* \"#utility.yul\":1742:1743   */\n  dup3\n    /* \"#utility.yul\":1739:1740   */\n  dup3\n    /* \"#utility.yul\":1735:1744   */\n  mul\n    /* \"#utility.yul\":1764:1794   */\n  tag_63\n    /* \"#utility.yul\":1782:1793   */\n  dup2\n    /* \"#utility.yul\":1764:1794   */\n  tag_16\n  jump\t// in\ntag_63:\n    /* \"#utility.yul\":1753:1794   */\n  swap2\n  pop\n    /* \"#utility.yul\":1943:1944   */\n  dup3\n    /* \"#utility.yul\":1934:1941   */\n  dup3\n    /* \"#utility.yul\":1930:1945   */\n  div\n    /* \"#utility.yul\":1927:1928   */\n  dup5\n    /* \"#utility.yul\":1924:1946   */\n  eq\n    /* \"#utility.yul\":1904:1905   */\n  dup4\n    /* \"#utility.yul\":1897:1906   */\n  iszero\n    /* \"#utility.yul\":1877:1960   */\n  or\n    /* \"#utility.yul\":1854:1993   */\n  tag_64\n  jumpi\n    /* \"#utility.yul\":1973:1991   */\n  tag_65\n  tag_19\n  jump\t// in\ntag_65:\n    /* \"#utility.yul\":1854:1993   */\ntag_64:\n    /* \"#utility.yul\":1638:2000   */\n  pop\n    /* \"#utility.yul\":1590:2000   */\n  swap3\n  swap2\n  pop\n  pop\n  jump\t// out\n    /* \"#utility.yul\":2006:2105   */\ntag_20:\n    /* \"#utility.yul\":2058:2064   */\n  0x00\n    /* \"#utility.yul\":2092:2097   */\n  dup2\n    /* \"#utility.yul\":2086:2098   */\n  mload\n    /* \"#utility.yul\":2076:2098   */\n  swap1\n  pop\n    /* \"#utility.yul\":2006:2105   */\n  swap2\n  swap1\n  pop\n  jump\t// out\n    /* \"#utility.yul\":2111:2291   */\ntag_21:\n    /* \"#utility.yul\":2159:2236   */\n  0x4e487b7100000000000000000000000000000000000000000000000000000000\n    /* \"#utility.yul\":2156:2157   */\n  0x00\n    /* \"#utility.yul\":2149:2237   */\n  mstore\n    /* \"#utility.yul\":2256:2260   */\n  0x41\n    /* \"#utility.yul\":2253:2254   */\n  0x04\n    /* \"#utility.yul\":2246:2261   */\n  mstore\n    /* \"#utility.yul\":2280:2284   */\n  0x24\n    /* \"#utility.yul\":2277:2278   */\n  0x00\n    /* \"#utility.yul\":2270:2285   */\n  revert\n    /* \"#utility.yul\":2297:2477   */\ntag_22:\n    /* \"#utility.yul\":2345:2422   */\n  0x4e487b7100000000000000000000000000000000000000000000000000000000\n    /* \"#utility.yul\":2342:2343   */\n  0x00\n    /* \"#utility.yul\":2335:2423   */\n  mstore\n    /* \"#utility.yul\":2442:2446   */\n  0x22\n    /* \"#utility.yul\":2439:2440   */\n  0x04\n    /* \"#utility.yul\":2432:2447   */\n  mstore\n    /* \"#utility.yul\":2466:2470   */\n  0x24\n    /* \"#utility.yul\":2463:2464   */\n  0x00\n    /* \"#utility.yul\":2456:2471   */\n  revert\n    /* \"#utility.yul\":2483:2803   */\ntag_23:\n    /* \"#utility.yul\":2527:2533   */\n  0x00\n    /* \"#utility.yul\":2564:2565   */\n  0x02\n    /* \"#utility.yul\":2558:2562   */\n  dup3\n    /* \"#utility.yul\":2554:2566   */\n  div\n    /* \"#utility.yul\":2544:2566   */\n  swap1\n  pop\n    /* \"#utility.yul\":2611:2612   */\n  0x01\n    /* \"#utility.yul\":2605:2609   */\n  dup3\n    /* \"#utility.yul\":2601:2613   */\n  and\n    /* \"#utility.yul\":2632:2650   */\n  dup1\n    /* \"#utility.yul\":2622:2703   */\n  tag_70\n  jumpi\n    /* \"#utility.yul\":2688:2692   */\n  0x7f\n    /* \"#utility.yul\":2680:2686   */\n  dup3\n    /* \"#utility.yul\":2676:2693   */\n  and\n    /* \"#utility.yul\":2666:2693   */\n  swap2\n  pop\n    /* \"#utility.yul\":2622:2703   */\ntag_70:\n    /* \"#utility.yul\":2750:2752   */\n  0x20\n    /* \"#utility.yul\":2742:2748   */\n  dup3\n    /* \"#utility.yul\":2739:2753   */\n  lt\n    /* \"#utility.yul\":2719:2737   */\n  dup2\n    /* \"#utility.yul\":2716:2754   */\n  sub\n    /* \"#utility.yul\":2713:2797   */\n  tag_71\n  jumpi\n    /* \"#utility.yul\":2769:2787   */\n  tag_72\n  tag_22\n  jump\t// in\ntag_72:\n    /* \"#utility.yul\":2713:2797   */\ntag_71:\n    /* \"#utility.yul\":2534:2803   */\n  pop\n    /* \"#utility.yul\":2483:2803   */\n  swap2\n  swap1\n  pop\n  jump\t// out\n    /* \"#utility.yul\":2809:2950   */\ntag_24:\n    /* \"#utility.yul\":2858:2862   */\n  0x00\n    /* \"#utility.yul\":2881:2884   */\n  dup2\n    /* \"#utility.yul\":2873:2884   */\n  swap1\n  pop\n    /* \"#utility.yul\":2904:2907   */\n  dup2\n    /* \"#utility.yul\":2901:2902   */\n  0x00\n    /* \"#utility.yul\":2894:2908   */\n  mstore\n    /* \"#utility.yul\":2938:2942   */\n  0x20\n    /* \"#utility.yul\":2935:2936   */\n  0x00\n    /* \"#utility.yul\":2925:2943   */\n  keccak256\n    /* \"#utility.yul\":2917:2943   */\n  swap1\n  pop\n    /* \"#utility.yul\":2809:2950   */\n  swap2\n  swap1\n  pop\n  jump\t// out\n    /* \"#utility.yul\":2956:3049   */\ntag_25:\n    /* \"#utility.yul\":2993:2999   */\n  0x00\n    /* \"#utility.yul\":3040:3042   */\n  0x20\n    /* \"#utility.yul\":3035:3037   */\n  0x1f\n    /* \"#utility.yul\":3028:3033   */\n  dup4\n    /* \"#utility.yul\":3024:3038   */\n  add\n    /* \"#utility.yul\":3020:3043   */\n  div\n    /* \"#utility.yul\":3010:3043   */\n  swap1\n  pop\n    /* \"#utility.yul\":2956:3049   */\n  swap2\n  swap1\n  pop\n  jump\t// out\n    /* \"#utility.yul\":3055:3162   */\ntag_26:\n    /* \"#utility.yul\":3099:3107   */\n  0x00\n    /* \"#utility.yul\":3149:3154   */\n  dup3\n    /* \"#utility.yul\":3143:3147   */\n  dup3\n    /* \"#utility.yul\":3139:3155   */\n  shl\n    /* \"#utility.yul\":3118:3155   */\n  swap1\n  pop\n    /* \"#utility.yul\":3055:3162   */\n  swap3\n  swap2\n  pop\n  pop\n  jump\t// out\n    /* \"#utility.yul\":3168:3561   */\ntag_27:\n    /* \"#utility.yul\":3237:3243   */\n  0x00\n    /* \"#utility.yul\":3287:3288   */\n  0x08\n    /* \"#utility.yul\":3275:3285   */\n  dup4\n    /* \"#utility.yul\":3271:3289   */\n  mul\n    /* \"#utility.yul\":3310:3407   */\n  tag_77\n    /* \"#utility.yul\":3340:3406   */\n  0xffffffffffffffffffffffffffffffffffffffffffffffffffffffffffffffff\n    /* \"#utility.yul\":3329:3338   */\n  dup3\n    /* \"#utility.yul\":3310:3407   */\n  tag_26\n  jump\t// in\ntag_77:\n    /* \"#utility.yul\":3428:3467   */\n  tag_78\n    /* \"#utility.yul\":3458:3466   */\n  dup7\n    /* \"#utility.yul\":3447:3456   */\n  dup4\n    /* \"#utility.yul\":3428:3467   */\n  tag_26\n  jump\t// in\ntag_78:\n    /* \"#utility.yul\":3416:3467   */\n  swap6\n  pop\n    /* \"#utility.yul\":3500:3504   */\n  dup1\n    /* \"#utility.yul\":3496:3505   */\n  not\n    /* \"#utility.yul\":3489:3494   */\n  dup5\n    /* \"#utility.yul\":3485:3506   */\n  and\n    /* \"#utility.yul\":3476:3506   */\n  swap4\n  pop\n    /* \"#utility.yul\":3549:3553   */\n  dup1\n    /* \"#utility.yul\":3539:3547   */\n  dup7\n    /* \"#utility.yul\":3535:3554   */\n  and\n    /* \"#utility.yul\":3528:3533   */\n  dup5\n    /* \"#utility.yul\":3525:3555   */\n  or\n    /* \"#utility.yul\":3515:3555   */\n  swap3\n  pop\n    /* \"#utility.yul\":3244:3561   */\n  pop\n  pop\n    /* \"#utility.yul\":3168:3561   */\n  swap4\n  swap3\n  pop\n  pop\n  pop\n  jump\t// out\n    /* \"#utility.yul\":3567:3627   */\ntag_28:\n    /* \"#utility.yul\":3595:3598   */\n  0x00\n    /* \"#utility.yul\":3616:3621   */\n  dup2\n    /* \"#utility.yul\":3609:3621   */\n  swap1\n  pop\n    /* \"#utility.yul\":3567:3627   */\n  swap2\n  swap1\n  pop\n  jump\t// out\n    /* \"#utility.yul\":3633:3775   */\ntag_29:\n    /* \"#utility.yul\":3683:3692   */\n  0x00\n    /* \"#utility.yul\":3716:3769   */\n  tag_81\n    /* \"#utility.yul\":3734:3768   */\n  tag_82\n    /* \"#utility.yul\":3743:3767   */\n  tag_83\n    /* \"#utility.yul\":3761:3766   */\n  dup5\n    /* \"#utility.yul\":3743:3767   */\n  tag_16\n  jump\t// in\ntag_83:\n    /* \"#utility.yul\":3734:3768   */\n  tag_28\n  jump\t// in\ntag_82:\n    /* \"#utility.yul\":3716:3769   */\n  tag_16\n  jump\t// in\ntag_81:\n    /* \"#utility.yul\":3703:3769   */\n  swap1\n  pop\n    /* \"#utility.yul\":3633:3775   */\n  swap2\n  swap1\n  pop\n  jump\t// out\n    /* \"#utility.yul\":3781:3856   */\ntag_30:\n    /* \"#utility.yul\":3824:3827   */\n  0x00\n    /* \"#utility.yul\":3845:3850   */\n  dup2\n    /* \"#utility.yul\":3838:3850   */\n  swap1\n  pop\n    /* \"#utility.yul\":3781:3856   */\n  swap2\n  swap1\n  pop\n  jump\t// out\n    /* \"#utility.yul\":3862:4131   */\ntag_31:\n    /* \"#utility.yul\":3972:4011   */\n  tag_86\n    /* \"#utility.yul\":4003:4010   */\n  dup4\n    /* \"#utility.yul\":3972:4011   */\n  tag_29\n  jump\t// in\ntag_86:\n    /* \"#utility.yul\":4033:4124   */\n  tag_87\n    /* \"#utility.yul\":4082:4123   */\n  tag_88\n    /* \"#utility.yul\":4106:4122   */\n  dup3\n    /* \"#utility.yul\":4082:4123   */\n  tag_30\n  jump\t// in\ntag_88:\n    /* \"#utility.yul\":4074:4080   */\n  dup5\n    /* \"#utility.yul\":4067:4071   */\n  dup5\n    /* \"#utility.yul\":4061:4072   */\n  sload\n    /* \"#utility.yul\":4033:4124   */\n  tag_27\n  jump\t// in\ntag_87:\n    /* \"#utility.yul\":4027:4031   */\n  dup3\n    /* \"#utility.yul\":4020:4125   */\n  sstore\n    /* \"#utility.yul\":3938:4131   */\n  pop\n    /* \"#utility.yul\":3862:4131   */\n  pop\n  pop\n  pop\n  jump\t// out\n    /* \"#utility.yul\":4137:4210   */\ntag_32:\n    /* \"#utility.yul\":4182:4185   */\n  0x00\n    /* \"#utility.yul\":4137:4210   */\n  swap1\n  jump\t// out\n    /* \"#utility.yul\":4216:4405   */\ntag_33:\n    /* \"#utility.yul\":4293:4325   */\n  tag_91\n  tag_32\n  jump\t// in\ntag_91:\n    /* \"#utility.yul\":4334:4399   */\n  tag_92\n    /* \"#utility.yul\":4392:4398   */\n  dup2\n    /* \"#utility.yul\":4384:4390   */\n  dup5\n    /* \"#utility.yul\":4378:4382   */\n  dup5\n    /* \"#utility.yul\":4334:4399   */\n  tag_31\n  jump\t// in\ntag_92:\n    /* \"#utility.yul\":4269:4405   */\n  pop\n    /* \"#utility.yul\":4216:4405   */\n  pop\n  pop\n  jump\t// out\n    /* \"#utility.yul\":4411:4597   */\ntag_34:\n    /* \"#utility.yul\":4471:4591   */\ntag_94:\n    /* \"#utility.yul\":4488:4491   */\n  dup2\n    /* \"#utility.yul\":4481:4486   */\n  dup2\n    /* \"#utility.yul\":4478:4492   */\n  lt\n    /* \"#utility.yul\":4471:4591   */\n  iszero\n  tag_96\n  jumpi\n    /* \"#utility.yul\":4542:4581   */\n  tag_97\n    /* \"#utility.yul\":4579:4580   */\n  0x00\n    /* \"#utility.yul\":4572:4577   */\n  dup3\n    /* \"#utility.yul\":4542:4581   */\n  tag_33\n  jump\t// in\ntag_97:\n    /* \"#utility.yul\":4515:4516   */\n  0x01\n    /* \"#utility.yul\":4508:4513   */\n  dup2\n    /* \"#utility.yul\":4504:4517   */\n  add\n    /* \"#utility.yul\":4495:4517   */\n  swap1\n  pop\n    /* \"#utility.yul\":4471:4591   */\n  jump(tag_94)\ntag_96:\n    /* \"#utility.yul\":4411:4597   */\n  pop\n  pop\n  jump\t// out\n    /* \"#utility.yul\":4603:5146   */\ntag_35:\n    /* \"#utility.yul\":4704:4706   */\n  0x1f\n    /* \"#utility.yul\":4699:4702   */\n  dup3\n    /* \"#utility.yul\":4696:4707   */\n  gt\n    /* \"#utility.yul\":4693:5139   */\n  iszero\n  tag_99\n  jumpi\n    /* \"#utility.yul\":4738:4776   */\n  tag_100\n    /* \"#utility.yul\":4770:4775   */\n  dup2\n    /* \"#utility.yul\":4738:4776   */\n  tag_24\n  jump\t// in\ntag_100:\n    /* \"#utility.yul\":4822:4851   */\n  tag_101\n    /* \"#utility.yul\":4840:4850   */\n  dup5\n    /* \"#utility.yul\":4822:4851   */\n  tag_25\n  jump\t// in\ntag_101:\n    /* \"#utility.yul\":4812:4820   */\n  dup2\n    /* \"#utility.yul\":4808:4852   */\n  add\n    /* \"#utility.yul\":5005:5007   */\n  0x20\n    /* \"#utility.yul\":4993:5003   */\n  dup6\n    /* \"#utility.yul\":4990:5008   */\n  lt\n    /* \"#utility.yul\":4987:5036   */\n  iszero\n  tag_102\n  jumpi\n    /* \"#utility.yul\":5026:5034   */\n  dup2\n    /* \"#utility.yul\":5011:5034   */\n  swap1\n  pop\n    /* \"#utility.yul\":4987:5036   */\ntag_102:\n    /* \"#utility.yul\":5049:5129   */\n  tag_103\n    /* \"#utility.yul\":5105:5127   */\n  tag_104\n    /* \"#utility.yul\":5123:5126   */\n  dup6\n    /* \"#utility.yul\":5105:5127   */\n  tag_25\n  jump\t// in\ntag_104:\n    /* \"#utility.yul\":5095:5103   */\n  dup4\n    /* \"#utility.yul\":5091:5128   */\n  add\n    /* \"#utility.yul\":5078:5089   */\n  dup3\n    /* \"#utility.yul\":5049:5129   */\n  tag_34\n  jump\t// in\ntag_103:\n    /* \"#utility.yul\":4708:5139   */\n  pop\n  pop\n    /* \"#utility.yul\":4693:5139   */\ntag_99:\n    /* \"#utility.yul\":4603:5146   */\n  pop\n  pop\n  pop\n  jump\t// out\n    /* \"#utility.yul\":5152:5269   */\ntag_36:\n    /* \"#utility.yul\":5206:5214   */\n  0x00\n    /* \"#utility.yul\":5256:5261   */\n  dup3\n    /* \"#utility.yul\":5250:5254   */\n  dup3\n    /* \"#utility.yul\":5246:5262   */\n  shr\n    /* \"#utility.yul\":5225:5262   */\n  swap1\n  pop\n    /* \"#utility.yul\":5152:5269   */\n  swap3\n  swap2\n  pop\n  pop\n  jump\t// out\n    /* \"#utility.yul\":5275:5444   */\ntag_37:\n    /* \"#utility.yul\":5319:5325   */\n  0x00\n    /* \"#utility.yul\":5352:5403   */\n  tag_107\n    /* \"#utility.yul\":5400:5401   */\n  0x00\n    /* \"#utility.yul\":5396:5402   */\n  not\n    /* \"#utility.yul\":5388:5393   */\n  dup5\n    /* \"#utility.yul\":5385:5386   */\n  0x08\n    /* \"#utility.yul\":5381:5394   */\n  mul\n    /* \"#utility.yul\":5352:5403   */\n  tag_36\n  jump\t// in\ntag_107:\n    /* \"#utility.yul\":5348:5404   */\n  not\n    /* \"#utility.yul\":5433:5437   */\n  dup1\n    /* \"#utility.yul\":5427:5431   */\n  dup4\n    /* \"#utility.yul\":5423:5438   */\n  and\n    /* \"#utility.yul\":5413:5438   */\n  swap2\n  pop\n    /* \"#utility.yul\":5326:5444   */\n  pop\n    /* \"#utility.yul\":5275:5444   */\n  swap3\n  swap2\n  pop\n  pop\n  jump\t// out\n    /* \"#utility.yul\":5449:5744   */\ntag_38:\n    /* \"#utility.yul\":5525:5529   */\n  0x00\n    /* \"#utility.yul\":5671:5700   */\n  tag_109\n    /* \"#utility.yul\":5696:5699   */\n  dup4\n    /* \"#utility.yul\":5690:5694   */\n  dup4\n    /* \"#utility.yul\":5671:5700   */\n  tag_37\n  jump\t// in\ntag_109:\n    /* \"#utility.yul\":5663:5700   */\n  swap2\n  pop\n    /* \"#utility.yul\":5733:5736   */\n  dup3\n    /* \"#utility.yul\":5730:5731   */\n  0x02\n    /* \"#utility.yul\":5726:5737   */\n  mul\n    /* \"#utility.yul\":5720:5724   */\n  dup3\n    /* \"#utility.yul\":5717:5738   */\n  or\n    /* \"#utility.yul\":5709:5738   */\n  swap1\n  pop\n    /* \"#utility.yul\":5449:5744   */\n  swap3\n  swap2\n  pop\n  pop\n  jump\t// out\n    /* \"#utility.yul\":5749:7144   */\ntag_11:\n    /* \"#utility.yul\":5866:5903   */\n  tag_111\n    /* \"#utility.yul\":5899:5902   */\n  dup3\n    /* \"#utility.yul\":5866:5903   */\n  tag_20\n  jump\t// in\ntag_111:\n    /* \"#utility.yul\":5968:5986   */\n  0xffffffffffffffff\n    /* \"#utility.yul\":5960:5966   */\n  dup2\n    /* \"#utility.yul\":5957:5987   */\n  gt\n    /* \"#utility.yul\":5954:6010   */\n  iszero\n  tag_112\n  jumpi\n    /* \"#utility.yul\":5990:6008   */\n  tag_113\n  tag_21\n  jump\t// in\ntag_113:\n    /* \"#utility.yul\":5954:6010   */\ntag_112:\n    /* \"#utility.yul\":6034:6072   */\n  tag_114\n    /* \"#utility.yul\":6066:6070   */\n  dup3\n    /* \"#utility.yul\":6060:6071   */\n  sload\n    /* \"#utility.yul\":6034:6072   */\n  tag_23\n  jump\t// in\ntag_114:\n    /* \"#utility.yul\":6119:6186   */\n  tag_115\n    /* \"#utility.yul\":6179:6185   */\n  dup3\n    /* \"#utility.yul\":6171:6177   */\n  dup3\n    /* \"#utility.yul\":6165:6169   */\n  dup6\n    /* \"#utility.yul\":6119:6186   */\n  tag_35\n  jump\t// in\ntag_115:\n    /* \"#utility.yul\":6213:6214   */\n  0x00\n    /* \"#utility.yul\":6237:6241   */\n  0x20\n    /* \"#utility.yul\":6224:6241   */\n  swap1\n  pop\n    /* \"#utility.yul\":6269:6271   */\n  0x1f\n    /* \"#utility.yul\":6261:6267   */\n  dup4\n    /* \"#utility.yul\":6258:6272   */\n  gt\n    /* \"#utility.yul\":6286:6287   */\n  0x01\n    /* \"#utility.yul\":6281:6899   */\n  dup2\n  eq\n  tag_117\n  jumpi\n    /* \"#utility.yul\":6943:6944   */\n  0x00\n    /* \"#utility.yul\":6960:6966   */\n  dup5\n    /* \"#utility.yul\":6957:7034   */\n  iszero\n  tag_118\n  jumpi\n    /* \"#utility.yul\":7009:7018   */\n  dup3\n    /* \"#utility.yul\":7004:7007   */\n  dup8\n    /* \"#utility.yul\":7000:7019   */\n  add\n    /* \"#utility.yul\":6994:7020   */\n  mload\n    /* \"#utility.yul\":6985:7020   */\n  swap1\n  pop\n    /* \"#utility.yul\":6957:7034   */\ntag_118:\n    /* \"#utility.yul\":7060:7127   */\n  tag_119\n    /* \"#utility.yul\":7120:7126   */\n  dup6\n    /* \"#utility.yul\":7113:7118   */\n  dup3\n    /* \"#utility.yul\":7060:7127   */\n  tag_38\n  jump\t// in\ntag_119:\n    /* \"#utility.yul\":7054:7058   */\n  dup7\n    /* \"#utility.yul\":7047:7128   */\n  sstore\n    /* \"#utility.yul\":6916:7138   */\n  pop\n    /* \"#utility.yul\":6251:7138   */\n  jump(tag_116)\n    /* \"#utility.yul\":6281:6899   */\ntag_117:\n    /* \"#utility.yul\":6333:6337   */\n  0x1f\n    /* \"#utility.yul\":6329:6338   */\n  not\n    /* \"#utility.yul\":6321:6327   */\n  dup5\n    /* \"#utility.yul\":6317:6339   */\n  and\n    /* \"#utility.yul\":6367:6404   */\n  tag_120\n    /* \"#utility.yul\":6399:6403   */\n  dup7\n    /* \"#utility.yul\":6367:6404   */\n  tag_24\n  jump\t// in\ntag_120:\n    /* \"#utility.yul\":6426:6427   */\n  0x00\n    /* \"#utility.yul\":6440:6648   */\ntag_121:\n    /* \"#utility.yul\":6454:6461   */\n  dup3\n    /* \"#utility.yul\":6451:6452   */\n  dup2\n    /* \"#utility.yul\":6448:6462   */\n  lt\n    /* \"#utility.yul\":6440:6648   */\n  iszero\n  tag_123\n  jumpi\n    /* \"#utility.yul\":6533:6542   */\n  dup5\n    /* \"#utility.yul\":6528:6531   */\n  dup10\n    /* \"#utility.yul\":6524:6543   */\n  add\n    /* \"#utility.yul\":6518:6544   */\n  mload\n    /* \"#utility.yul\":6510:6516   */\n  dup3\n    /* \"#utility.yul\":6503:6545   */\n  sstore\n    /* \"#utility.yul\":6584:6585   */\n  0x01\n    /* \"#utility.yul\":6576:6582   */\n  dup3\n    /* \"#utility.yul\":6572:6586   */\n  add\n    /* \"#utility.yul\":6562:6586   */\n  swap2\n  pop\n    /* \"#utility.yul\":6631:6633   */\n  0x20\n    /* \"#utility.yul\":6620:6629   */\n  dup6\n    /* \"#utility.yul\":6616:6634   */\n  add\n    /* \"#utility.yul\":6603:6634   */\n  swap5\n  pop\n    /* \"#utility.yul\":6477:6481   */\n  0x20\n    /* \"#utility.yul\":6474:6475   */\n  dup2\n    /* \"#utility.yul\":6470:6482   */\n  add\n    /* \"#utility.yul\":6465:6482   */\n  swap1\n  pop\n    /* \"#utility.yul\":6440:6648   */\n  jump(tag_121)\ntag_123:\n    /* \"#utility.yul\":6676:6682   */\n  dup7\n    /* \"#utility.yul\":6667:6674   */\n  dup4\n    /* \"#utility.yul\":6664:6683   */\n  lt\n    /* \"#utility.yul\":6661:6840   */\n  iszero\n  tag_124\n  jumpi\n    /* \"#utility.yul\":6734:6743   */\n  dup5\n    /* \"#utility.yul\":6729:6732   */\n  dup10\n    /* \"#utility.yul\":6725:6744   */\n  add\n    /* \"#utility.yul\":6719:6745   */\n  mload\n    /* \"#utility.yul\":6777:6825   */\n  tag_125\n    /* \"#utility.yul\":6819:6823   */\n  0x1f\n    /* \"#utility.yul\":6811:6817   */\n  dup10\n    /* \"#utility.yul\":6807:6824   */\n  and\n    /* \"#utility.yul\":6796:6805   */\n  dup3\n    /* \"#utility.yul\":6777:6825   */\n  tag_37\n  jump\t// in\ntag_125:\n    /* \"#utility.yul\":6769:6775   */\n  dup4\n    /* \"#utility.yul\":6762:6826   */\n  sstore\n    /* \"#utility.yul\":6684:6840   */\n  pop\n    /* \"#utility.yul\":6661:6840   */\ntag_124:\n    /* \"#utility.yul\":6886:6887   */\n  0x01\n    /* \"#utility.yul\":6882:6883   */\n  0x02\n    /* \"#utility.yul\":6874:6880   */\n  dup9\n    /* \"#utility.yul\":6870:6884   */\n  mul\n    /* \"#utility.yul\":6866:6888   */\n  add\n    /* \"#utility.yul\":6860:6864   */\n  dup9\n    /* \"#utility.yul\":6853:6889   */\n  sstore\n    /* \"#utility.yul\":6288:6899   */\n  pop\n  pop\n  pop\n    /* \"#utility.yul\":6251:7138   */\ntag_116:\n  pop\n    /* \"#utility.yul\":5841:7144   */\n  pop\n  pop\n  pop\n    /* \"#utility.yul\":5749:7144   */\n  pop\n  pop\n  jump\t// out\n    /* \"Lecture Note/week09/CrowdFunding.sol\":57:1938  contract CrowdFund {... */\ntag_12:\n  dataSize(sub_0)\n  dup1\n  dataOffset(sub_0)\n  0x00\n  codecopy\n  0x00\n  return\nstop\n\nsub_0: assembly {\n        /* \"Lecture Note/week09/CrowdFunding.sol\":57:1938  contract CrowdFund {... */\n      mstore(0x40, 0x80)\n      jumpi(tag_1, lt(calldatasize, 0x04))\n      shr(0xe0, calldataload(0x00))\n      dup1\n      0x2636b945\n      gt\n      tag_12\n      jumpi\n      dup1\n      0x2636b945\n      eq\n      tag_7\n      jumpi\n      dup1\n      0x29dcb0cf\n      eq\n      tag_8\n      jumpi\n      dup1\n      0x3feb5f2b\n      eq\n      tag_9\n      jumpi\n      dup1\n      0x8da5cb5b\n      eq\n      tag_10\n      jumpi\n      dup1\n      0xb60d4288\n      eq\n      tag_11\n      jumpi\n      jump(tag_1)\n    tag_12:\n      dup1\n      0x01cb3b20\n      eq\n      tag_2\n      jumpi\n      dup1\n      0x12fa6feb\n      eq\n      tag_3\n      jumpi\n      dup1\n      0x132ae5e9\n      eq\n      tag_4\n      jumpi\n      dup1\n      0x1a39d8ef\n      eq\n      tag_5\n      jumpi\n      dup1\n      0x200d2ed2\n      eq\n      tag_6\n      jumpi\n    tag_1:\n      0x00\n      dup1\n      revert\n        /* \"Lecture Note/week09/CrowdFunding.sol\":1210:1936  function checkGoalReached() ... */\n    tag_2:\n      callvalue\n      dup1\n      iszero\n      tag_13\n      jumpi\n      0x00\n      dup1\n      revert\n    tag_13:\n      pop\n      tag_14\n      tag_15\n      jump\t// in\n    tag_14:\n      stop\n        /* \"Lecture Note/week09/CrowdFunding.sol\":263:280  bool public ended */\n    tag_3:\n      callvalue\n      dup1\n      iszero\n      tag_16\n      jumpi\n      0x00\n      dup1\n      revert\n    tag_16:\n      pop\n      tag_17\n      tag_18\n      jump\t// in\n    tag_17:\n      mload(0x40)\n      tag_19\n      swap2\n      swap1\n      tag_20\n      jump\t// in\n    tag_19:\n      mload(0x40)\n      dup1\n      swap2\n      sub\n      swap1\n      return\n        /* \"Lecture Note/week09/CrowdFunding.sol\":181:205  uint public numInvestors */\n    tag_4:\n      callvalue\n      dup1\n      iszero\n      tag_21\n      jumpi\n      0x00\n      dup1\n      revert\n    tag_21:\n      pop\n      tag_22\n      tag_23\n      jump\t// in\n    tag_22:\n      mload(0x40)\n      tag_24\n      swap2\n      swap1\n      tag_25\n      jump\t// in\n    tag_24:\n      mload(0x40)\n      dup1\n      swap2\n      sub\n      swap1\n      return\n        /* \"Lecture Note/week09/CrowdFunding.sol\":314:337  uint public totalAmount */\n    tag_5:\n      callvalue\n      dup1\n      iszero\n      tag_26\n      jumpi\n      0x00\n      dup1\n      revert\n    tag_26:\n      pop\n      tag_27\n      tag_28\n      jump\t// in\n    tag_27:\n      mload(0x40)\n      tag_29\n      swap2\n      swap1\n      tag_25\n      jump\t// in\n    tag_29:\n      mload(0x40)\n      dup1\n      swap2\n      sub\n      swap1\n      return\n        /* \"Lecture Note/week09/CrowdFunding.sol\":237:257  string public status */\n    tag_6:\n      callvalue\n      dup1\n      iszero\n      tag_30\n      jumpi\n      0x00\n      dup1\n      revert\n    tag_30:\n      pop\n      tag_31\n      tag_32\n      jump\t// in\n    tag_31:\n      mload(0x40)\n      tag_33\n      swap2\n      swap1\n      tag_34\n      jump\t// in\n    tag_33:\n      mload(0x40)\n      dup1\n      swap2\n      sub\n      swap1\n      return\n        /* \"Lecture Note/week09/CrowdFunding.sol\":286:308  uint public goalAmount */\n    tag_7:\n      callvalue\n      dup1\n      iszero\n      tag_35\n      jumpi\n      0x00\n      dup1\n      revert\n    tag_35:\n      pop\n      tag_36\n      tag_37\n      jump\t// in\n    tag_36:\n      mload(0x40)\n      tag_38\n      swap2\n      swap1\n      tag_25\n      jump\t// in\n    tag_38:\n      mload(0x40)\n      dup1\n      swap2\n      sub\n      swap1\n      return\n        /* \"Lecture Note/week09/CrowdFunding.sol\":211:231  uint public deadline */\n    tag_8:\n      callvalue\n      dup1\n      iszero\n      tag_39\n      jumpi\n      0x00\n      dup1\n      revert\n    tag_39:\n      pop\n      tag_40\n      tag_41\n      jump\t// in\n    tag_40:\n      mload(0x40)\n      tag_42\n      swap2\n      swap1\n      tag_25\n      jump\t// in\n    tag_42:\n      mload(0x40)\n      dup1\n      swap2\n      sub\n      swap1\n      return\n        /* \"Lecture Note/week09/CrowdFunding.sol\":344:387  mapping (uint => Investor) public investors */\n    tag_9:\n      callvalue\n      dup1\n      iszero\n      tag_43\n      jumpi\n      0x00\n      dup1\n      revert\n    tag_43:\n      pop\n      tag_44\n      0x04\n      dup1\n      calldatasize\n      sub\n      dup2\n      add\n      swap1\n      tag_45\n      swap2\n      swap1\n      tag_46\n      jump\t// in\n    tag_45:\n      tag_47\n      jump\t// in\n    tag_44:\n      mload(0x40)\n      tag_48\n      swap3\n      swap2\n      swap1\n      tag_49\n      jump\t// in\n    tag_48:\n      mload(0x40)\n      dup1\n      swap2\n      sub\n      swap1\n      return\n        /* \"Lecture Note/week09/CrowdFunding.sol\":155:175  address public owner */\n    tag_10:\n      callvalue\n      dup1\n      iszero\n      tag_50\n      jumpi\n      0x00\n      dup1\n      revert\n    tag_50:\n      pop\n      tag_51\n      tag_52\n      jump\t// in\n    tag_51:\n      mload(0x40)\n      tag_53\n      swap2\n      swap1\n      tag_54\n      jump\t// in\n    tag_53:\n      mload(0x40)\n      dup1\n      swap2\n      sub\n      swap1\n      return\n        /* \"Lecture Note/week09/CrowdFunding.sol\":797:1200  function fund()... */\n    tag_11:\n      tag_55\n      tag_56\n      jump\t// in\n    tag_55:\n      stop\n        /* \"Lecture Note/week09/CrowdFunding.sol\":1210:1936  function checkGoalReached() ... */\n    tag_15:\n        /* \"Lecture Note/week09/CrowdFunding.sol\":725:735  msg.sender */\n      caller\n        /* \"Lecture Note/week09/CrowdFunding.sol\":716:735  owner == msg.sender */\n      0xffffffffffffffffffffffffffffffffffffffff\n      and\n        /* \"Lecture Note/week09/CrowdFunding.sol\":716:721  owner */\n      0x00\n      dup1\n      sload\n      swap1\n      0x0100\n      exp\n      swap1\n      div\n      0xffffffffffffffffffffffffffffffffffffffff\n      and\n        /* \"Lecture Note/week09/CrowdFunding.sol\":716:735  owner == msg.sender */\n      0xffffffffffffffffffffffffffffffffffffffff\n      and\n      eq\n        /* \"Lecture Note/week09/CrowdFunding.sol\":708:771  require(owner == msg.sender, \"Error : caller is not the owner\") */\n      tag_58\n      jumpi\n      mload(0x40)\n      0x08c379a000000000000000000000000000000000000000000000000000000000\n      dup2\n      mstore\n      0x04\n      add\n      tag_59\n      swap1\n      tag_60\n      jump\t// in\n    tag_59:\n      mload(0x40)\n      dup1\n      swap2\n      sub\n      swap1\n      revert\n    tag_58:\n        /* \"Lecture Note/week09/CrowdFunding.sol\":1298:1303  ended */\n      0x04\n      0x00\n      swap1\n      sload\n      swap1\n      0x0100\n      exp\n      swap1\n      div\n      0xff\n      and\n        /* \"Lecture Note/week09/CrowdFunding.sol\":1297:1303  !ended */\n      iszero\n        /* \"Lecture Note/week09/CrowdFunding.sol\":1289:1341  require(!ended, \"Error : The fund is not ended yet\") */\n      tag_62\n      jumpi\n      mload(0x40)\n      0x08c379a000000000000000000000000000000000000000000000000000000000\n      dup2\n      mstore\n      0x04\n      add\n      tag_63\n      swap1\n      tag_64\n      jump\t// in\n    tag_63:\n      mload(0x40)\n      dup1\n      swap2\n      sub\n      swap1\n      revert\n    tag_62:\n        /* \"Lecture Note/week09/CrowdFunding.sol\":1375:1390  block.timestamp */\n      timestamp\n        /* \"Lecture Note/week09/CrowdFunding.sol\":1363:1371  deadline */\n      sload(0x02)\n        /* \"Lecture Note/week09/CrowdFunding.sol\":1363:1390  deadline <= block.timestamp */\n      gt\n      iszero\n        /* \"Lecture Note/week09/CrowdFunding.sol\":1355:1427  require(deadline <= block.timestamp, \"Error: The fund is not ended yet\") */\n      tag_65\n      jumpi\n      mload(0x40)\n      0x08c379a000000000000000000000000000000000000000000000000000000000\n      dup2\n      mstore\n      0x04\n      add\n      tag_66\n      swap1\n      tag_67\n      jump\t// in\n    tag_66:\n      mload(0x40)\n      dup1\n      swap2\n      sub\n      swap1\n      revert\n    tag_65:\n        /* \"Lecture Note/week09/CrowdFunding.sol\":1460:1470  goalAmount */\n      sload(0x05)\n        /* \"Lecture Note/week09/CrowdFunding.sol\":1445:1456  totalAmount */\n      sload(0x06)\n        /* \"Lecture Note/week09/CrowdFunding.sol\":1445:1470  totalAmount >= goalAmount */\n      lt\n        /* \"Lecture Note/week09/CrowdFunding.sol\":1441:1900  if (totalAmount >= goalAmount) {... */\n      tag_68\n      jumpi\n        /* \"Lecture Note/week09/CrowdFunding.sol\":1495:1501  uint i */\n      0x00\n        /* \"Lecture Note/week09/CrowdFunding.sol\":1490:1617  for (uint i = 0; i < numInvestors; i++) {... */\n    tag_69:\n        /* \"Lecture Note/week09/CrowdFunding.sol\":1511:1523  numInvestors */\n      sload(0x01)\n        /* \"Lecture Note/week09/CrowdFunding.sol\":1507:1508  i */\n      dup2\n        /* \"Lecture Note/week09/CrowdFunding.sol\":1507:1523  i < numInvestors */\n      lt\n        /* \"Lecture Note/week09/CrowdFunding.sol\":1490:1617  for (uint i = 0; i < numInvestors; i++) {... */\n      iszero\n      tag_70\n      jumpi\n        /* \"Lecture Note/week09/CrowdFunding.sol\":1560:1565  owner */\n      0x00\n      dup1\n      sload\n      swap1\n      0x0100\n      exp\n      swap1\n      div\n      0xffffffffffffffffffffffffffffffffffffffff\n      and\n        /* \"Lecture Note/week09/CrowdFunding.sol\":1552:1575  payable(owner).transfer */\n      0xffffffffffffffffffffffffffffffffffffffff\n      and\n        /* \"Lecture Note/week09/CrowdFunding.sol\":1552:1598  payable(owner).transfer(address(this).balance) */\n      0x08fc\n        /* \"Lecture Note/week09/CrowdFunding.sol\":1576:1597  address(this).balance */\n      selfbalance\n        /* \"Lecture Note/week09/CrowdFunding.sol\":1552:1598  payable(owner).transfer(address(this).balance) */\n      swap1\n      dup2\n      iszero\n      mul\n      swap1\n      mload(0x40)\n      0x00\n      mload(0x40)\n      dup1\n      dup4\n      sub\n      dup2\n      dup6\n      dup9\n      dup9\n      call\n      swap4\n      pop\n      pop\n      pop\n      pop\n      iszero\n      dup1\n      iszero\n      tag_73\n      jumpi\n      returndatasize\n      0x00\n      dup1\n      returndatacopy\n      revert(0x00, returndatasize)\n    tag_73:\n      pop\n        /* \"Lecture Note/week09/CrowdFunding.sol\":1525:1528  i++ */\n      dup1\n      dup1\n      tag_74\n      swap1\n      tag_75\n      jump\t// in\n    tag_74:\n      swap2\n      pop\n      pop\n        /* \"Lecture Note/week09/CrowdFunding.sol\":1490:1617  for (uint i = 0; i < numInvestors; i++) {... */\n      jump(tag_69)\n    tag_70:\n      pop\n        /* \"Lecture Note/week09/CrowdFunding.sol\":1634:1663  status = \"Campaign Succeeded\" */\n      mload(0x40)\n      dup1\n      0x40\n      add\n      0x40\n      mstore\n      dup1\n      0x12\n      dup2\n      mstore\n      0x20\n      add\n      0x43616d706169676e205375636365656465640000000000000000000000000000\n      dup2\n      mstore\n      pop\n        /* \"Lecture Note/week09/CrowdFunding.sol\":1634:1640  status */\n      0x03\n        /* \"Lecture Note/week09/CrowdFunding.sol\":1634:1663  status = \"Campaign Succeeded\" */\n      swap1\n      dup2\n      tag_76\n      swap2\n      swap1\n      tag_77\n      jump\t// in\n    tag_76:\n      pop\n        /* \"Lecture Note/week09/CrowdFunding.sol\":1441:1900  if (totalAmount >= goalAmount) {... */\n      jump(tag_78)\n    tag_68:\n        /* \"Lecture Note/week09/CrowdFunding.sol\":1707:1713  uint i */\n      0x00\n        /* \"Lecture Note/week09/CrowdFunding.sol\":1702:1839  for (uint i = 0; i < numInvestors; i++) {... */\n    tag_79:\n        /* \"Lecture Note/week09/CrowdFunding.sol\":1723:1735  numInvestors */\n      sload(0x01)\n        /* \"Lecture Note/week09/CrowdFunding.sol\":1719:1720  i */\n      dup2\n        /* \"Lecture Note/week09/CrowdFunding.sol\":1719:1735  i < numInvestors */\n      lt\n        /* \"Lecture Note/week09/CrowdFunding.sol\":1702:1839  for (uint i = 0; i < numInvestors; i++) {... */\n      iszero\n      tag_80\n      jumpi\n        /* \"Lecture Note/week09/CrowdFunding.sol\":1772:1781  investors */\n      0x07\n        /* \"Lecture Note/week09/CrowdFunding.sol\":1772:1784  investors[i] */\n      0x00\n        /* \"Lecture Note/week09/CrowdFunding.sol\":1782:1783  i */\n      dup3\n        /* \"Lecture Note/week09/CrowdFunding.sol\":1772:1784  investors[i] */\n      dup2\n      mstore\n      0x20\n      add\n      swap1\n      dup2\n      mstore\n      0x20\n      add\n      0x00\n      keccak256\n        /* \"Lecture Note/week09/CrowdFunding.sol\":1772:1789  investors[i].addr */\n      0x00\n      add\n      0x00\n      swap1\n      sload\n      swap1\n      0x0100\n      exp\n      swap1\n      div\n      0xffffffffffffffffffffffffffffffffffffffff\n      and\n        /* \"Lecture Note/week09/CrowdFunding.sol\":1764:1799  payable(investors[i].addr).transfer */\n      0xffffffffffffffffffffffffffffffffffffffff\n      and\n        /* \"Lecture Note/week09/CrowdFunding.sol\":1764:1820  payable(investors[i].addr).transfer(investors[i].amount) */\n      0x08fc\n        /* \"Lecture Note/week09/CrowdFunding.sol\":1800:1809  investors */\n      0x07\n        /* \"Lecture Note/week09/CrowdFunding.sol\":1800:1812  investors[i] */\n      0x00\n        /* \"Lecture Note/week09/CrowdFunding.sol\":1810:1811  i */\n      dup5\n        /* \"Lecture Note/week09/CrowdFunding.sol\":1800:1812  investors[i] */\n      dup2\n      mstore\n      0x20\n      add\n      swap1\n      dup2\n      mstore\n      0x20\n      add\n      0x00\n      keccak256\n        /* \"Lecture Note/week09/CrowdFunding.sol\":1800:1819  investors[i].amount */\n      0x01\n      add\n      sload\n        /* \"Lecture Note/week09/CrowdFunding.sol\":1764:1820  payable(investors[i].addr).transfer(investors[i].amount) */\n      swap1\n      dup2\n      iszero\n      mul\n      swap1\n      mload(0x40)\n      0x00\n      mload(0x40)\n      dup1\n      dup4\n      sub\n      dup2\n      dup6\n      dup9\n      dup9\n      call\n      swap4\n      pop\n      pop\n      pop\n      pop\n      iszero\n      dup1\n      iszero\n      tag_83\n      jumpi\n      returndatasize\n      0x00\n      dup1\n      returndatacopy\n      revert(0x00, returndatasize)\n    tag_83:\n      pop\n        /* \"Lecture Note/week09/CrowdFunding.sol\":1737:1740  i++ */\n      dup1\n      dup1\n      tag_84\n      swap1\n      tag_75\n      jump\t// in\n    tag_84:\n      swap2\n      pop\n      pop\n        /* \"Lecture Note/week09/CrowdFunding.sol\":1702:1839  for (uint i = 0; i < numInvestors; i++) {... */\n      jump(tag_79)\n    tag_80:\n      pop\n        /* \"Lecture Note/week09/CrowdFunding.sol\":1856:1882  status = \"Campaign Failed\" */\n      mload(0x40)\n      dup1\n      0x40\n      add\n      0x40\n      mstore\n      dup1\n      0x0f\n      dup2\n      mstore\n      0x20\n      add\n      0x43616d706169676e204661696c65640000000000000000000000000000000000\n      dup2\n      mstore\n      pop\n        /* \"Lecture Note/week09/CrowdFunding.sol\":1856:1862  status */\n      0x03\n        /* \"Lecture Note/week09/CrowdFunding.sol\":1856:1882  status = \"Campaign Failed\" */\n      swap1\n      dup2\n      tag_85\n      swap2\n      swap1\n      tag_77\n      jump\t// in\n    tag_85:\n      pop\n        /* \"Lecture Note/week09/CrowdFunding.sol\":1441:1900  if (totalAmount >= goalAmount) {... */\n    tag_78:\n        /* \"Lecture Note/week09/CrowdFunding.sol\":1921:1925  true */\n      0x01\n        /* \"Lecture Note/week09/CrowdFunding.sol\":1913:1918  ended */\n      0x04\n      0x00\n        /* \"Lecture Note/week09/CrowdFunding.sol\":1913:1925  ended = true */\n      0x0100\n      exp\n      dup2\n      sload\n      dup2\n      0xff\n      mul\n      not\n      and\n      swap1\n      dup4\n      iszero\n      iszero\n      mul\n      or\n      swap1\n      sstore\n      pop\n        /* \"Lecture Note/week09/CrowdFunding.sol\":1210:1936  function checkGoalReached() ... */\n      jump\t// out\n        /* \"Lecture Note/week09/CrowdFunding.sol\":263:280  bool public ended */\n    tag_18:\n      0x04\n      0x00\n      swap1\n      sload\n      swap1\n      0x0100\n      exp\n      swap1\n      div\n      0xff\n      and\n      dup2\n      jump\t// out\n        /* \"Lecture Note/week09/CrowdFunding.sol\":181:205  uint public numInvestors */\n    tag_23:\n      sload(0x01)\n      dup2\n      jump\t// out\n        /* \"Lecture Note/week09/CrowdFunding.sol\":314:337  uint public totalAmount */\n    tag_28:\n      sload(0x06)\n      dup2\n      jump\t// out\n        /* \"Lecture Note/week09/CrowdFunding.sol\":237:257  string public status */\n    tag_32:\n      0x03\n      dup1\n      sload\n      tag_86\n      swap1\n      tag_87\n      jump\t// in\n    tag_86:\n      dup1\n      0x1f\n      add\n      0x20\n      dup1\n      swap2\n      div\n      mul\n      0x20\n      add\n      mload(0x40)\n      swap1\n      dup2\n      add\n      0x40\n      mstore\n      dup1\n      swap3\n      swap2\n      swap1\n      dup2\n      dup2\n      mstore\n      0x20\n      add\n      dup3\n      dup1\n      sload\n      tag_88\n      swap1\n      tag_87\n      jump\t// in\n    tag_88:\n      dup1\n      iszero\n      tag_89\n      jumpi\n      dup1\n      0x1f\n      lt\n      tag_90\n      jumpi\n      0x0100\n      dup1\n      dup4\n      sload\n      div\n      mul\n      dup4\n      mstore\n      swap2\n      0x20\n      add\n      swap2\n      jump(tag_89)\n    tag_90:\n      dup3\n      add\n      swap2\n      swap1\n      0x00\n      mstore\n      keccak256(0x00, 0x20)\n      swap1\n    tag_91:\n      dup2\n      sload\n      dup2\n      mstore\n      swap1\n      0x01\n      add\n      swap1\n      0x20\n      add\n      dup1\n      dup4\n      gt\n      tag_91\n      jumpi\n      dup3\n      swap1\n      sub\n      0x1f\n      and\n      dup3\n      add\n      swap2\n    tag_89:\n      pop\n      pop\n      pop\n      pop\n      pop\n      dup2\n      jump\t// out\n        /* \"Lecture Note/week09/CrowdFunding.sol\":286:308  uint public goalAmount */\n    tag_37:\n      sload(0x05)\n      dup2\n      jump\t// out\n        /* \"Lecture Note/week09/CrowdFunding.sol\":211:231  uint public deadline */\n    tag_41:\n      sload(0x02)\n      dup2\n      jump\t// out\n        /* \"Lecture Note/week09/CrowdFunding.sol\":344:387  mapping (uint => Investor) public investors */\n    tag_47:\n      mstore(0x20, 0x07)\n      dup1\n      0x00\n      mstore\n      keccak256(0x00, 0x40)\n      0x00\n      swap2\n      pop\n      swap1\n      pop\n      dup1\n      0x00\n      add\n      0x00\n      swap1\n      sload\n      swap1\n      0x0100\n      exp\n      swap1\n      div\n      0xffffffffffffffffffffffffffffffffffffffff\n      and\n      swap1\n      dup1\n      0x01\n      add\n      sload\n      swap1\n      pop\n      dup3\n      jump\t// out\n        /* \"Lecture Note/week09/CrowdFunding.sol\":155:175  address public owner */\n    tag_52:\n      0x00\n      dup1\n      sload\n      swap1\n      0x0100\n      exp\n      swap1\n      div\n      0xffffffffffffffffffffffffffffffffffffffff\n      and\n      dup2\n      jump\t// out\n        /* \"Lecture Note/week09/CrowdFunding.sol\":797:1200  function fund()... */\n    tag_56:\n        /* \"Lecture Note/week09/CrowdFunding.sol\":879:880  0 */\n      0x00\n        /* \"Lecture Note/week09/CrowdFunding.sol\":867:876  msg.value */\n      callvalue\n        /* \"Lecture Note/week09/CrowdFunding.sol\":867:880  msg.value > 0 */\n      gt\n        /* \"Lecture Note/week09/CrowdFunding.sol\":859:920  require(msg.value > 0, \"Error: Value must be greater than 0\") */\n      tag_93\n      jumpi\n      mload(0x40)\n      0x08c379a000000000000000000000000000000000000000000000000000000000\n      dup2\n      mstore\n      0x04\n      add\n      tag_94\n      swap1\n      tag_95\n      jump\t// in\n    tag_94:\n      mload(0x40)\n      dup1\n      swap2\n      sub\n      swap1\n      revert\n    tag_93:\n        /* \"Lecture Note/week09/CrowdFunding.sol\":952:957  false */\n      0x00\n        /* \"Lecture Note/week09/CrowdFunding.sol\":943:957  ended == false */\n      iszero\n      iszero\n        /* \"Lecture Note/week09/CrowdFunding.sol\":943:948  ended */\n      0x04\n      0x00\n      swap1\n      sload\n      swap1\n      0x0100\n      exp\n      swap1\n      div\n      0xff\n      and\n        /* \"Lecture Note/week09/CrowdFunding.sol\":943:957  ended == false */\n      iszero\n      iszero\n      eq\n        /* \"Lecture Note/week09/CrowdFunding.sol\":935:986  require(ended == false, \"Error: The fund is ended\") */\n      tag_96\n      jumpi\n      mload(0x40)\n      0x08c379a000000000000000000000000000000000000000000000000000000000\n      dup2\n      mstore\n      0x04\n      add\n      tag_97\n      swap1\n      tag_98\n      jump\t// in\n    tag_97:\n      mload(0x40)\n      dup1\n      swap2\n      sub\n      swap1\n      revert\n    tag_96:\n        /* \"Lecture Note/week09/CrowdFunding.sol\":1031:1041  msg.sender */\n      caller\n        /* \"Lecture Note/week09/CrowdFunding.sol\":1000:1009  investors */\n      0x07\n        /* \"Lecture Note/week09/CrowdFunding.sol\":1000:1023  investors[numInvestors] */\n      0x00\n        /* \"Lecture Note/week09/CrowdFunding.sol\":1010:1022  numInvestors */\n      sload(0x01)\n        /* \"Lecture Note/week09/CrowdFunding.sol\":1000:1023  investors[numInvestors] */\n      dup2\n      mstore\n      0x20\n      add\n      swap1\n      dup2\n      mstore\n      0x20\n      add\n      0x00\n      keccak256\n        /* \"Lecture Note/week09/CrowdFunding.sol\":1000:1028  investors[numInvestors].addr */\n      0x00\n      add\n      0x00\n        /* \"Lecture Note/week09/CrowdFunding.sol\":1000:1041  investors[numInvestors].addr = msg.sender */\n      0x0100\n      exp\n      dup2\n      sload\n      dup2\n      0xffffffffffffffffffffffffffffffffffffffff\n      mul\n      not\n      and\n      swap1\n      dup4\n      0xffffffffffffffffffffffffffffffffffffffff\n      and\n      mul\n      or\n      swap1\n      sstore\n      pop\n        /* \"Lecture Note/week09/CrowdFunding.sol\":1089:1098  msg.value */\n      callvalue\n        /* \"Lecture Note/week09/CrowdFunding.sol\":1056:1065  investors */\n      0x07\n        /* \"Lecture Note/week09/CrowdFunding.sol\":1056:1079  investors[numInvestors] */\n      0x00\n        /* \"Lecture Note/week09/CrowdFunding.sol\":1066:1078  numInvestors */\n      sload(0x01)\n        /* \"Lecture Note/week09/CrowdFunding.sol\":1056:1079  investors[numInvestors] */\n      dup2\n      mstore\n      0x20\n      add\n      swap1\n      dup2\n      mstore\n      0x20\n      add\n      0x00\n      keccak256\n        /* \"Lecture Note/week09/CrowdFunding.sol\":1056:1086  investors[numInvestors].amount */\n      0x01\n      add\n        /* \"Lecture Note/week09/CrowdFunding.sol\":1056:1098  investors[numInvestors].amount = msg.value */\n      dup2\n      swap1\n      sstore\n      pop\n        /* \"Lecture Note/week09/CrowdFunding.sol\":1128:1137  investors */\n      0x07\n        /* \"Lecture Note/week09/CrowdFunding.sol\":1128:1151  investors[numInvestors] */\n      0x00\n        /* \"Lecture Note/week09/CrowdFunding.sol\":1138:1150  numInvestors */\n      sload(0x01)\n        /* \"Lecture Note/week09/CrowdFunding.sol\":1128:1151  investors[numInvestors] */\n      dup2\n      mstore\n      0x20\n      add\n      swap1\n      dup2\n      mstore\n      0x20\n      add\n      0x00\n      keccak256\n        /* \"Lecture Note/week09/CrowdFunding.sol\":1128:1158  investors[numInvestors].amount */\n      0x01\n      add\n      sload\n        /* \"Lecture Note/week09/CrowdFunding.sol\":1113:1124  totalAmount */\n      0x06\n      0x00\n        /* \"Lecture Note/week09/CrowdFunding.sol\":1113:1158  totalAmount += investors[numInvestors].amount */\n      dup3\n      dup3\n      sload\n      tag_99\n      swap2\n      swap1\n      tag_100\n      jump\t// in\n    tag_99:\n      swap3\n      pop\n      pop\n      dup2\n      swap1\n      sstore\n      pop\n        /* \"Lecture Note/week09/CrowdFunding.sol\":1188:1189  1 */\n      0x01\n        /* \"Lecture Note/week09/CrowdFunding.sol\":1172:1184  numInvestors */\n      dup1\n      0x00\n        /* \"Lecture Note/week09/CrowdFunding.sol\":1172:1189  numInvestors += 1 */\n      dup3\n      dup3\n      sload\n      tag_101\n      swap2\n      swap1\n      tag_100\n      jump\t// in\n    tag_101:\n      swap3\n      pop\n      pop\n      dup2\n      swap1\n      sstore\n      pop\n        /* \"Lecture Note/week09/CrowdFunding.sol\":797:1200  function fund()... */\n      jump\t// out\n        /* \"#utility.yul\":7:97   */\n    tag_102:\n        /* \"#utility.yul\":41:48   */\n      0x00\n        /* \"#utility.yul\":84:89   */\n      dup2\n        /* \"#utility.yul\":77:90   */\n      iszero\n        /* \"#utility.yul\":70:91   */\n      iszero\n        /* \"#utility.yul\":59:91   */\n      swap1\n      pop\n        /* \"#utility.yul\":7:97   */\n      swap2\n      swap1\n      pop\n      jump\t// out\n        /* \"#utility.yul\":103:212   */\n    tag_103:\n        /* \"#utility.yul\":184:205   */\n      tag_150\n        /* \"#utility.yul\":199:204   */\n      dup2\n        /* \"#utility.yul\":184:205   */\n      tag_102\n      jump\t// in\n    tag_150:\n        /* \"#utility.yul\":179:182   */\n      dup3\n        /* \"#utility.yul\":172:206   */\n      mstore\n        /* \"#utility.yul\":103:212   */\n      pop\n      pop\n      jump\t// out\n        /* \"#utility.yul\":218:428   */\n    tag_20:\n        /* \"#utility.yul\":305:309   */\n      0x00\n        /* \"#utility.yul\":343:345   */\n      0x20\n        /* \"#utility.yul\":332:341   */\n      dup3\n        /* \"#utility.yul\":328:346   */\n      add\n        /* \"#utility.yul\":320:346   */\n      swap1\n      pop\n        /* \"#utility.yul\":356:421   */\n      tag_152\n        /* \"#utility.yul\":418:419   */\n      0x00\n        /* \"#utility.yul\":407:416   */\n      dup4\n        /* \"#utility.yul\":403:420   */\n      add\n        /* \"#utility.yul\":394:400   */\n      dup5\n        /* \"#utility.yul\":356:421   */\n      tag_103\n      jump\t// in\n    tag_152:\n        /* \"#utility.yul\":218:428   */\n      swap3\n      swap2\n      pop\n      pop\n      jump\t// out\n        /* \"#utility.yul\":434:511   */\n    tag_104:\n        /* \"#utility.yul\":471:478   */\n      0x00\n        /* \"#utility.yul\":500:505   */\n      dup2\n        /* \"#utility.yul\":489:505   */\n      swap1\n      pop\n        /* \"#utility.yul\":434:511   */\n      swap2\n      swap1\n      pop\n      jump\t// out\n        /* \"#utility.yul\":517:635   */\n    tag_105:\n        /* \"#utility.yul\":604:628   */\n      tag_155\n        /* \"#utility.yul\":622:627   */\n      dup2\n        /* \"#utility.yul\":604:628   */\n      tag_104\n      jump\t// in\n    tag_155:\n        /* \"#utility.yul\":599:602   */\n      dup3\n        /* \"#utility.yul\":592:629   */\n      mstore\n        /* \"#utility.yul\":517:635   */\n      pop\n      pop\n      jump\t// out\n        /* \"#utility.yul\":641:863   */\n    tag_25:\n        /* \"#utility.yul\":734:738   */\n      0x00\n        /* \"#utility.yul\":772:774   */\n      0x20\n        /* \"#utility.yul\":761:770   */\n      dup3\n        /* \"#utility.yul\":757:775   */\n      add\n        /* \"#utility.yul\":749:775   */\n      swap1\n      pop\n        /* \"#utility.yul\":785:856   */\n      tag_157\n        /* \"#utility.yul\":853:854   */\n      0x00\n        /* \"#utility.yul\":842:851   */\n      dup4\n        /* \"#utility.yul\":838:855   */\n      add\n        /* \"#utility.yul\":829:835   */\n      dup5\n        /* \"#utility.yul\":785:856   */\n      tag_105\n      jump\t// in\n    tag_157:\n        /* \"#utility.yul\":641:863   */\n      swap3\n      swap2\n      pop\n      pop\n      jump\t// out\n        /* \"#utility.yul\":869:968   */\n    tag_106:\n        /* \"#utility.yul\":921:927   */\n      0x00\n        /* \"#utility.yul\":955:960   */\n      dup2\n        /* \"#utility.yul\":949:961   */\n      mload\n        /* \"#utility.yul\":939:961   */\n      swap1\n      pop\n        /* \"#utility.yul\":869:968   */\n      swap2\n      swap1\n      pop\n      jump\t// out\n        /* \"#utility.yul\":974:1143   */\n    tag_107:\n        /* \"#utility.yul\":1058:1069   */\n      0x00\n        /* \"#utility.yul\":1092:1098   */\n      dup3\n        /* \"#utility.yul\":1087:1090   */\n      dup3\n        /* \"#utility.yul\":1080:1099   */\n      mstore\n        /* \"#utility.yul\":1132:1136   */\n      0x20\n        /* \"#utility.yul\":1127:1130   */\n      dup3\n        /* \"#utility.yul\":1123:1137   */\n      add\n        /* \"#utility.yul\":1108:1137   */\n      swap1\n      pop\n        /* \"#utility.yul\":974:1143   */\n      swap3\n      swap2\n      pop\n      pop\n      jump\t// out\n        /* \"#utility.yul\":1149:1395   */\n    tag_108:\n        /* \"#utility.yul\":1230:1231   */\n      0x00\n        /* \"#utility.yul\":1240:1353   */\n    tag_161:\n        /* \"#utility.yul\":1254:1260   */\n      dup4\n        /* \"#utility.yul\":1251:1252   */\n      dup2\n        /* \"#utility.yul\":1248:1261   */\n      lt\n        /* \"#utility.yul\":1240:1353   */\n      iszero\n      tag_163\n      jumpi\n        /* \"#utility.yul\":1339:1340   */\n      dup1\n        /* \"#utility.yul\":1334:1337   */\n      dup3\n        /* \"#utility.yul\":1330:1341   */\n      add\n        /* \"#utility.yul\":1324:1342   */\n      mload\n        /* \"#utility.yul\":1320:1321   */\n      dup2\n        /* \"#utility.yul\":1315:1318   */\n      dup5\n        /* \"#utility.yul\":1311:1322   */\n      add\n        /* \"#utility.yul\":1304:1343   */\n      mstore\n        /* \"#utility.yul\":1276:1278   */\n      0x20\n        /* \"#utility.yul\":1273:1274   */\n      dup2\n        /* \"#utility.yul\":1269:1279   */\n      add\n        /* \"#utility.yul\":1264:1279   */\n      swap1\n      pop\n        /* \"#utility.yul\":1240:1353   */\n      jump(tag_161)\n    tag_163:\n        /* \"#utility.yul\":1387:1388   */\n      0x00\n        /* \"#utility.yul\":1378:1384   */\n      dup5\n        /* \"#utility.yul\":1373:1376   */\n      dup5\n        /* \"#utility.yul\":1369:1385   */\n      add\n        /* \"#utility.yul\":1362:1389   */\n      mstore\n        /* \"#utility.yul\":1211:1395   */\n      pop\n        /* \"#utility.yul\":1149:1395   */\n      pop\n      pop\n      pop\n      jump\t// out\n        /* \"#utility.yul\":1401:1503   */\n    tag_109:\n        /* \"#utility.yul\":1442:1448   */\n      0x00\n        /* \"#utility.yul\":1493:1495   */\n      0x1f\n        /* \"#utility.yul\":1489:1496   */\n      not\n        /* \"#utility.yul\":1484:1486   */\n      0x1f\n        /* \"#utility.yul\":1477:1482   */\n      dup4\n        /* \"#utility.yul\":1473:1487   */\n      add\n        /* \"#utility.yul\":1469:1497   */\n      and\n        /* \"#utility.yul\":1459:1497   */\n      swap1\n      pop\n        /* \"#utility.yul\":1401:1503   */\n      swap2\n      swap1\n      pop\n      jump\t// out\n        /* \"#utility.yul\":1509:1886   */\n    tag_110:\n        /* \"#utility.yul\":1597:1600   */\n      0x00\n        /* \"#utility.yul\":1625:1664   */\n      tag_166\n        /* \"#utility.yul\":1658:1663   */\n      dup3\n        /* \"#utility.yul\":1625:1664   */\n      tag_106\n      jump\t// in\n    tag_166:\n        /* \"#utility.yul\":1680:1751   */\n      tag_167\n        /* \"#utility.yul\":1744:1750   */\n      dup2\n        /* \"#utility.yul\":1739:1742   */\n      dup6\n        /* \"#utility.yul\":1680:1751   */\n      tag_107\n      jump\t// in\n    tag_167:\n        /* \"#utility.yul\":1673:1751   */\n      swap4\n      pop\n        /* \"#utility.yul\":1760:1825   */\n      tag_168\n        /* \"#utility.yul\":1818:1824   */\n      dup2\n        /* \"#utility.yul\":1813:1816   */\n      dup6\n        /* \"#utility.yul\":1806:1810   */\n      0x20\n        /* \"#utility.yul\":1799:1804   */\n      dup7\n        /* \"#utility.yul\":1795:1811   */\n      add\n        /* \"#utility.yul\":1760:1825   */\n      tag_108\n      jump\t// in\n    tag_168:\n        /* \"#utility.yul\":1850:1879   */\n      tag_169\n        /* \"#utility.yul\":1872:1878   */\n      dup2\n        /* \"#utility.yul\":1850:1879   */\n      tag_109\n      jump\t// in\n    tag_169:\n        /* \"#utility.yul\":1845:1848   */\n      dup5\n        /* \"#utility.yul\":1841:1880   */\n      add\n        /* \"#utility.yul\":1834:1880   */\n      swap2\n      pop\n        /* \"#utility.yul\":1601:1886   */\n      pop\n        /* \"#utility.yul\":1509:1886   */\n      swap3\n      swap2\n      pop\n      pop\n      jump\t// out\n        /* \"#utility.yul\":1892:2205   */\n    tag_34:\n        /* \"#utility.yul\":2005:2009   */\n      0x00\n        /* \"#utility.yul\":2043:2045   */\n      0x20\n        /* \"#utility.yul\":2032:2041   */\n      dup3\n        /* \"#utility.yul\":2028:2046   */\n      add\n        /* \"#utility.yul\":2020:2046   */\n      swap1\n      pop\n        /* \"#utility.yul\":2092:2101   */\n      dup2\n        /* \"#utility.yul\":2086:2090   */\n      dup2\n        /* \"#utility.yul\":2082:2102   */\n      sub\n        /* \"#utility.yul\":2078:2079   */\n      0x00\n        /* \"#utility.yul\":2067:2076   */\n      dup4\n        /* \"#utility.yul\":2063:2080   */\n      add\n        /* \"#utility.yul\":2056:2103   */\n      mstore\n        /* \"#utility.yul\":2120:2198   */\n      tag_171\n        /* \"#utility.yul\":2193:2197   */\n      dup2\n        /* \"#utility.yul\":2184:2190   */\n      dup5\n        /* \"#utility.yul\":2120:2198   */\n      tag_110\n      jump\t// in\n    tag_171:\n        /* \"#utility.yul\":2112:2198   */\n      swap1\n      pop\n        /* \"#utility.yul\":1892:2205   */\n      swap3\n      swap2\n      pop\n      pop\n      jump\t// out\n        /* \"#utility.yul\":2292:2409   */\n    tag_112:\n        /* \"#utility.yul\":2401:2402   */\n      0x00\n        /* \"#utility.yul\":2398:2399   */\n      dup1\n        /* \"#utility.yul\":2391:2403   */\n      revert\n        /* \"#utility.yul\":2538:2660   */\n    tag_114:\n        /* \"#utility.yul\":2611:2635   */\n      tag_176\n        /* \"#utility.yul\":2629:2634   */\n      dup2\n        /* \"#utility.yul\":2611:2635   */\n      tag_104\n      jump\t// in\n    tag_176:\n        /* \"#utility.yul\":2604:2609   */\n      dup2\n        /* \"#utility.yul\":2601:2636   */\n      eq\n        /* \"#utility.yul\":2591:2654   */\n      tag_177\n      jumpi\n        /* \"#utility.yul\":2650:2651   */\n      0x00\n        /* \"#utility.yul\":2647:2648   */\n      dup1\n        /* \"#utility.yul\":2640:2652   */\n      revert\n        /* \"#utility.yul\":2591:2654   */\n    tag_177:\n        /* \"#utility.yul\":2538:2660   */\n      pop\n      jump\t// out\n        /* \"#utility.yul\":2666:2805   */\n    tag_115:\n        /* \"#utility.yul\":2712:2717   */\n      0x00\n        /* \"#utility.yul\":2750:2756   */\n      dup2\n        /* \"#utility.yul\":2737:2757   */\n      calldataload\n        /* \"#utility.yul\":2728:2757   */\n      swap1\n      pop\n        /* \"#utility.yul\":2766:2799   */\n      tag_179\n        /* \"#utility.yul\":2793:2798   */\n      dup2\n        /* \"#utility.yul\":2766:2799   */\n      tag_114\n      jump\t// in\n    tag_179:\n        /* \"#utility.yul\":2666:2805   */\n      swap3\n      swap2\n      pop\n      pop\n      jump\t// out\n        /* \"#utility.yul\":2811:3140   */\n    tag_46:\n        /* \"#utility.yul\":2870:2876   */\n      0x00\n        /* \"#utility.yul\":2919:2921   */\n      0x20\n        /* \"#utility.yul\":2907:2916   */\n      dup3\n        /* \"#utility.yul\":2898:2905   */\n      dup5\n        /* \"#utility.yul\":2894:2917   */\n      sub\n        /* \"#utility.yul\":2890:2922   */\n      slt\n        /* \"#utility.yul\":2887:3006   */\n      iszero\n      tag_181\n      jumpi\n        /* \"#utility.yul\":2925:3004   */\n      tag_182\n      tag_112\n      jump\t// in\n    tag_182:\n        /* \"#utility.yul\":2887:3006   */\n    tag_181:\n        /* \"#utility.yul\":3045:3046   */\n      0x00\n        /* \"#utility.yul\":3070:3123   */\n      tag_183\n        /* \"#utility.yul\":3115:3122   */\n      dup5\n        /* \"#utility.yul\":3106:3112   */\n      dup3\n        /* \"#utility.yul\":3095:3104   */\n      dup6\n        /* \"#utility.yul\":3091:3113   */\n      add\n        /* \"#utility.yul\":3070:3123   */\n      tag_115\n      jump\t// in\n    tag_183:\n        /* \"#utility.yul\":3060:3123   */\n      swap2\n      pop\n        /* \"#utility.yul\":3016:3133   */\n      pop\n        /* \"#utility.yul\":2811:3140   */\n      swap3\n      swap2\n      pop\n      pop\n      jump\t// out\n        /* \"#utility.yul\":3146:3272   */\n    tag_116:\n        /* \"#utility.yul\":3183:3190   */\n      0x00\n        /* \"#utility.yul\":3223:3265   */\n      0xffffffffffffffffffffffffffffffffffffffff\n        /* \"#utility.yul\":3216:3221   */\n      dup3\n        /* \"#utility.yul\":3212:3266   */\n      and\n        /* \"#utility.yul\":3201:3266   */\n      swap1\n      pop\n        /* \"#utility.yul\":3146:3272   */\n      swap2\n      swap1\n      pop\n      jump\t// out\n        /* \"#utility.yul\":3278:3374   */\n    tag_117:\n        /* \"#utility.yul\":3315:3322   */\n      0x00\n        /* \"#utility.yul\":3344:3368   */\n      tag_186\n        /* \"#utility.yul\":3362:3367   */\n      dup3\n        /* \"#utility.yul\":3344:3368   */\n      tag_116\n      jump\t// in\n    tag_186:\n        /* \"#utility.yul\":3333:3368   */\n      swap1\n      pop\n        /* \"#utility.yul\":3278:3374   */\n      swap2\n      swap1\n      pop\n      jump\t// out\n        /* \"#utility.yul\":3380:3498   */\n    tag_118:\n        /* \"#utility.yul\":3467:3491   */\n      tag_188\n        /* \"#utility.yul\":3485:3490   */\n      dup2\n        /* \"#utility.yul\":3467:3491   */\n      tag_117\n      jump\t// in\n    tag_188:\n        /* \"#utility.yul\":3462:3465   */\n      dup3\n        /* \"#utility.yul\":3455:3492   */\n      mstore\n        /* \"#utility.yul\":3380:3498   */\n      pop\n      pop\n      jump\t// out\n        /* \"#utility.yul\":3504:3836   */\n    tag_49:\n        /* \"#utility.yul\":3625:3629   */\n      0x00\n        /* \"#utility.yul\":3663:3665   */\n      0x40\n        /* \"#utility.yul\":3652:3661   */\n      dup3\n        /* \"#utility.yul\":3648:3666   */\n      add\n        /* \"#utility.yul\":3640:3666   */\n      swap1\n      pop\n        /* \"#utility.yul\":3676:3747   */\n      tag_190\n        /* \"#utility.yul\":3744:3745   */\n      0x00\n        /* \"#utility.yul\":3733:3742   */\n      dup4\n        /* \"#utility.yul\":3729:3746   */\n      add\n        /* \"#utility.yul\":3720:3726   */\n      dup6\n        /* \"#utility.yul\":3676:3747   */\n      tag_118\n      jump\t// in\n    tag_190:\n        /* \"#utility.yul\":3757:3829   */\n      tag_191\n        /* \"#utility.yul\":3825:3827   */\n      0x20\n        /* \"#utility.yul\":3814:3823   */\n      dup4\n        /* \"#utility.yul\":3810:3828   */\n      add\n        /* \"#utility.yul\":3801:3807   */\n      dup5\n        /* \"#utility.yul\":3757:3829   */\n      tag_105\n      jump\t// in\n    tag_191:\n        /* \"#utility.yul\":3504:3836   */\n      swap4\n      swap3\n      pop\n      pop\n      pop\n      jump\t// out\n        /* \"#utility.yul\":3842:4064   */\n    tag_54:\n        /* \"#utility.yul\":3935:3939   */\n      0x00\n        /* \"#utility.yul\":3973:3975   */\n      0x20\n        /* \"#utility.yul\":3962:3971   */\n      dup3\n        /* \"#utility.yul\":3958:3976   */\n      add\n        /* \"#utility.yul\":3950:3976   */\n      swap1\n      pop\n        /* \"#utility.yul\":3986:4057   */\n      tag_193\n        /* \"#utility.yul\":4054:4055   */\n      0x00\n        /* \"#utility.yul\":4043:4052   */\n      dup4\n        /* \"#utility.yul\":4039:4056   */\n      add\n        /* \"#utility.yul\":4030:4036   */\n      dup5\n        /* \"#utility.yul\":3986:4057   */\n      tag_118\n      jump\t// in\n    tag_193:\n        /* \"#utility.yul\":3842:4064   */\n      swap3\n      swap2\n      pop\n      pop\n      jump\t// out\n        /* \"#utility.yul\":4070:4251   */\n    tag_119:\n        /* \"#utility.yul\":4210:4243   */\n      0x4572726f72203a2063616c6c6572206973206e6f7420746865206f776e657200\n        /* \"#utility.yul\":4206:4207   */\n      0x00\n        /* \"#utility.yul\":4198:4204   */\n      dup3\n        /* \"#utility.yul\":4194:4208   */\n      add\n        /* \"#utility.yul\":4187:4244   */\n      mstore\n        /* \"#utility.yul\":4070:4251   */\n      pop\n      jump\t// out\n        /* \"#utility.yul\":4257:4623   */\n    tag_120:\n        /* \"#utility.yul\":4399:4402   */\n      0x00\n        /* \"#utility.yul\":4420:4487   */\n      tag_196\n        /* \"#utility.yul\":4484:4486   */\n      0x1f\n        /* \"#utility.yul\":4479:4482   */\n      dup4\n        /* \"#utility.yul\":4420:4487   */\n      tag_107\n      jump\t// in\n    tag_196:\n        /* \"#utility.yul\":4413:4487   */\n      swap2\n      pop\n        /* \"#utility.yul\":4496:4589   */\n      tag_197\n        /* \"#utility.yul\":4585:4588   */\n      dup3\n        /* \"#utility.yul\":4496:4589   */\n      tag_119\n      jump\t// in\n    tag_197:\n        /* \"#utility.yul\":4614:4616   */\n      0x20\n        /* \"#utility.yul\":4609:4612   */\n      dup3\n        /* \"#utility.yul\":4605:4617   */\n      add\n        /* \"#utility.yul\":4598:4617   */\n      swap1\n      pop\n        /* \"#utility.yul\":4257:4623   */\n      swap2\n      swap1\n      pop\n      jump\t// out\n        /* \"#utility.yul\":4629:5048   */\n    tag_60:\n        /* \"#utility.yul\":4795:4799   */\n      0x00\n        /* \"#utility.yul\":4833:4835   */\n      0x20\n        /* \"#utility.yul\":4822:4831   */\n      dup3\n        /* \"#utility.yul\":4818:4836   */\n      add\n        /* \"#utility.yul\":4810:4836   */\n      swap1\n      pop\n        /* \"#utility.yul\":4882:4891   */\n      dup2\n        /* \"#utility.yul\":4876:4880   */\n      dup2\n        /* \"#utility.yul\":4872:4892   */\n      sub\n        /* \"#utility.yul\":4868:4869   */\n      0x00\n        /* \"#utility.yul\":4857:4866   */\n      dup4\n        /* \"#utility.yul\":4853:4870   */\n      add\n        /* \"#utility.yul\":4846:4893   */\n      mstore\n        /* \"#utility.yul\":4910:5041   */\n      tag_199\n        /* \"#utility.yul\":5036:5040   */\n      dup2\n        /* \"#utility.yul\":4910:5041   */\n      tag_120\n      jump\t// in\n    tag_199:\n        /* \"#utility.yul\":4902:5041   */\n      swap1\n      pop\n        /* \"#utility.yul\":4629:5048   */\n      swap2\n      swap1\n      pop\n      jump\t// out\n        /* \"#utility.yul\":5054:5274   */\n    tag_121:\n        /* \"#utility.yul\":5194:5228   */\n      0x4572726f72203a205468652066756e64206973206e6f7420656e646564207965\n        /* \"#utility.yul\":5190:5191   */\n      0x00\n        /* \"#utility.yul\":5182:5188   */\n      dup3\n        /* \"#utility.yul\":5178:5192   */\n      add\n        /* \"#utility.yul\":5171:5229   */\n      mstore\n        /* \"#utility.yul\":5263:5266   */\n      0x7400000000000000000000000000000000000000000000000000000000000000\n        /* \"#utility.yul\":5258:5260   */\n      0x20\n        /* \"#utility.yul\":5250:5256   */\n      dup3\n        /* \"#utility.yul\":5246:5261   */\n      add\n        /* \"#utility.yul\":5239:5267   */\n      mstore\n        /* \"#utility.yul\":5054:5274   */\n      pop\n      jump\t// out\n        /* \"#utility.yul\":5280:5646   */\n    tag_122:\n        /* \"#utility.yul\":5422:5425   */\n      0x00\n        /* \"#utility.yul\":5443:5510   */\n      tag_202\n        /* \"#utility.yul\":5507:5509   */\n      0x21\n        /* \"#utility.yul\":5502:5505   */\n      dup4\n        /* \"#utility.yul\":5443:5510   */\n      tag_107\n      jump\t// in\n    tag_202:\n        /* \"#utility.yul\":5436:5510   */\n      swap2\n      pop\n        /* \"#utility.yul\":5519:5612   */\n      tag_203\n        /* \"#utility.yul\":5608:5611   */\n      dup3\n        /* \"#utility.yul\":5519:5612   */\n      tag_121\n      jump\t// in\n    tag_203:\n        /* \"#utility.yul\":5637:5639   */\n      0x40\n        /* \"#utility.yul\":5632:5635   */\n      dup3\n        /* \"#utility.yul\":5628:5640   */\n      add\n        /* \"#utility.yul\":5621:5640   */\n      swap1\n      pop\n        /* \"#utility.yul\":5280:5646   */\n      swap2\n      swap1\n      pop\n      jump\t// out\n        /* \"#utility.yul\":5652:6071   */\n    tag_64:\n        /* \"#utility.yul\":5818:5822   */\n      0x00\n        /* \"#utility.yul\":5856:5858   */\n      0x20\n        /* \"#utility.yul\":5845:5854   */\n      dup3\n        /* \"#utility.yul\":5841:5859   */\n      add\n        /* \"#utility.yul\":5833:5859   */\n      swap1\n      pop\n        /* \"#utility.yul\":5905:5914   */\n      dup2\n        /* \"#utility.yul\":5899:5903   */\n      dup2\n        /* \"#utility.yul\":5895:5915   */\n      sub\n        /* \"#utility.yul\":5891:5892   */\n      0x00\n        /* \"#utility.yul\":5880:5889   */\n      dup4\n        /* \"#utility.yul\":5876:5893   */\n      add\n        /* \"#utility.yul\":5869:5916   */\n      mstore\n        /* \"#utility.yul\":5933:6064   */\n      tag_205\n        /* \"#utility.yul\":6059:6063   */\n      dup2\n        /* \"#utility.yul\":5933:6064   */\n      tag_122\n      jump\t// in\n    tag_205:\n        /* \"#utility.yul\":5925:6064   */\n      swap1\n      pop\n        /* \"#utility.yul\":5652:6071   */\n      swap2\n      swap1\n      pop\n      jump\t// out\n        /* \"#utility.yul\":6077:6259   */\n    tag_123:\n        /* \"#utility.yul\":6217:6251   */\n      0x4572726f723a205468652066756e64206973206e6f7420656e64656420796574\n        /* \"#utility.yul\":6213:6214   */\n      0x00\n        /* \"#utility.yul\":6205:6211   */\n      dup3\n        /* \"#utility.yul\":6201:6215   */\n      add\n        /* \"#utility.yul\":6194:6252   */\n      mstore\n        /* \"#utility.yul\":6077:6259   */\n      pop\n      jump\t// out\n        /* \"#utility.yul\":6265:6631   */\n    tag_124:\n        /* \"#utility.yul\":6407:6410   */\n      0x00\n        /* \"#utility.yul\":6428:6495   */\n      tag_208\n        /* \"#utility.yul\":6492:6494   */\n      0x20\n        /* \"#utility.yul\":6487:6490   */\n      dup4\n        /* \"#utility.yul\":6428:6495   */\n      tag_107\n      jump\t// in\n    tag_208:\n        /* \"#utility.yul\":6421:6495   */\n      swap2\n      pop\n        /* \"#utility.yul\":6504:6597   */\n      tag_209\n        /* \"#utility.yul\":6593:6596   */\n      dup3\n        /* \"#utility.yul\":6504:6597   */\n      tag_123\n      jump\t// in\n    tag_209:\n        /* \"#utility.yul\":6622:6624   */\n      0x20\n        /* \"#utility.yul\":6617:6620   */\n      dup3\n        /* \"#utility.yul\":6613:6625   */\n      add\n        /* \"#utility.yul\":6606:6625   */\n      swap1\n      pop\n        /* \"#utility.yul\":6265:6631   */\n      swap2\n      swap1\n      pop\n      jump\t// out\n        /* \"#utility.yul\":6637:7056   */\n    tag_67:\n        /* \"#utility.yul\":6803:6807   */\n      0x00\n        /* \"#utility.yul\":6841:6843   */\n      0x20\n        /* \"#utility.yul\":6830:6839   */\n      dup3\n        /* \"#utility.yul\":6826:6844   */\n      add\n        /* \"#utility.yul\":6818:6844   */\n      swap1\n      pop\n        /* \"#utility.yul\":6890:6899   */\n      dup2\n        /* \"#utility.yul\":6884:6888   */\n      dup2\n        /* \"#utility.yul\":6880:6900   */\n      sub\n        /* \"#utility.yul\":6876:6877   */\n      0x00\n        /* \"#utility.yul\":6865:6874   */\n      dup4\n        /* \"#utility.yul\":6861:6878   */\n      add\n        /* \"#utility.yul\":6854:6901   */\n      mstore\n        /* \"#utility.yul\":6918:7049   */\n      tag_211\n        /* \"#utility.yul\":7044:7048   */\n      dup2\n        /* \"#utility.yul\":6918:7049   */\n      tag_124\n      jump\t// in\n    tag_211:\n        /* \"#utility.yul\":6910:7049   */\n      swap1\n      pop\n        /* \"#utility.yul\":6637:7056   */\n      swap2\n      swap1\n      pop\n      jump\t// out\n        /* \"#utility.yul\":7062:7242   */\n    tag_125:\n        /* \"#utility.yul\":7110:7187   */\n      0x4e487b7100000000000000000000000000000000000000000000000000000000\n        /* \"#utility.yul\":7107:7108   */\n      0x00\n        /* \"#utility.yul\":7100:7188   */\n      mstore\n        /* \"#utility.yul\":7207:7211   */\n      0x11\n        /* \"#utility.yul\":7204:7205   */\n      0x04\n        /* \"#utility.yul\":7197:7212   */\n      mstore\n        /* \"#utility.yul\":7231:7235   */\n      0x24\n        /* \"#utility.yul\":7228:7229   */\n      0x00\n        /* \"#utility.yul\":7221:7236   */\n      revert\n        /* \"#utility.yul\":7248:7481   */\n    tag_75:\n        /* \"#utility.yul\":7287:7290   */\n      0x00\n        /* \"#utility.yul\":7310:7334   */\n      tag_214\n        /* \"#utility.yul\":7328:7333   */\n      dup3\n        /* \"#utility.yul\":7310:7334   */\n      tag_104\n      jump\t// in\n    tag_214:\n        /* \"#utility.yul\":7301:7334   */\n      swap2\n      pop\n        /* \"#utility.yul\":7356:7422   */\n      0xffffffffffffffffffffffffffffffffffffffffffffffffffffffffffffffff\n        /* \"#utility.yul\":7349:7354   */\n      dup3\n        /* \"#utility.yul\":7346:7423   */\n      sub\n        /* \"#utility.yul\":7343:7446   */\n      tag_215\n      jumpi\n        /* \"#utility.yul\":7426:7444   */\n      tag_216\n      tag_125\n      jump\t// in\n    tag_216:\n        /* \"#utility.yul\":7343:7446   */\n    tag_215:\n        /* \"#utility.yul\":7473:7474   */\n      0x01\n        /* \"#utility.yul\":7466:7471   */\n      dup3\n        /* \"#utility.yul\":7462:7475   */\n      add\n        /* \"#utility.yul\":7455:7475   */\n      swap1\n      pop\n        /* \"#utility.yul\":7248:7481   */\n      swap2\n      swap1\n      pop\n      jump\t// out\n        /* \"#utility.yul\":7487:7667   */\n    tag_126:\n        /* \"#utility.yul\":7535:7612   */\n      0x4e487b7100000000000000000000000000000000000000000000000000000000\n        /* \"#utility.yul\":7532:7533   */\n      0x00\n        /* \"#utility.yul\":7525:7613   */\n      mstore\n        /* \"#utility.yul\":7632:7636   */\n      0x41\n        /* \"#utility.yul\":7629:7630   */\n      0x04\n        /* \"#utility.yul\":7622:7637   */\n      mstore\n        /* \"#utility.yul\":7656:7660   */\n      0x24\n        /* \"#utility.yul\":7653:7654   */\n      0x00\n        /* \"#utility.yul\":7646:7661   */\n      revert\n        /* \"#utility.yul\":7673:7853   */\n    tag_127:\n        /* \"#utility.yul\":7721:7798   */\n      0x4e487b7100000000000000000000000000000000000000000000000000000000\n        /* \"#utility.yul\":7718:7719   */\n      0x00\n        /* \"#utility.yul\":7711:7799   */\n      mstore\n        /* \"#utility.yul\":7818:7822   */\n      0x22\n        /* \"#utility.yul\":7815:7816   */\n      0x04\n        /* \"#utility.yul\":7808:7823   */\n      mstore\n        /* \"#utility.yul\":7842:7846   */\n      0x24\n        /* \"#utility.yul\":7839:7840   */\n      0x00\n        /* \"#utility.yul\":7832:7847   */\n      revert\n        /* \"#utility.yul\":7859:8179   */\n    tag_87:\n        /* \"#utility.yul\":7903:7909   */\n      0x00\n        /* \"#utility.yul\":7940:7941   */\n      0x02\n        /* \"#utility.yul\":7934:7938   */\n      dup3\n        /* \"#utility.yul\":7930:7942   */\n      div\n        /* \"#utility.yul\":7920:7942   */\n      swap1\n      pop\n        /* \"#utility.yul\":7987:7988   */\n      0x01\n        /* \"#utility.yul\":7981:7985   */\n      dup3\n        /* \"#utility.yul\":7977:7989   */\n      and\n        /* \"#utility.yul\":8008:8026   */\n      dup1\n        /* \"#utility.yul\":7998:8079   */\n      tag_220\n      jumpi\n        /* \"#utility.yul\":8064:8068   */\n      0x7f\n        /* \"#utility.yul\":8056:8062   */\n      dup3\n        /* \"#utility.yul\":8052:8069   */\n      and\n        /* \"#utility.yul\":8042:8069   */\n      swap2\n      pop\n        /* \"#utility.yul\":7998:8079   */\n    tag_220:\n        /* \"#utility.yul\":8126:8128   */\n      0x20\n        /* \"#utility.yul\":8118:8124   */\n      dup3\n        /* \"#utility.yul\":8115:8129   */\n      lt\n        /* \"#utility.yul\":8095:8113   */\n      dup2\n        /* \"#utility.yul\":8092:8130   */\n      sub\n        /* \"#utility.yul\":8089:8173   */\n      tag_221\n      jumpi\n        /* \"#utility.yul\":8145:8163   */\n      tag_222\n      tag_127\n      jump\t// in\n    tag_222:\n        /* \"#utility.yul\":8089:8173   */\n    tag_221:\n        /* \"#utility.yul\":7910:8179   */\n      pop\n        /* \"#utility.yul\":7859:8179   */\n      swap2\n      swap1\n      pop\n      jump\t// out\n        /* \"#utility.yul\":8185:8326   */\n    tag_128:\n        /* \"#utility.yul\":8234:8238   */\n      0x00\n        /* \"#utility.yul\":8257:8260   */\n      dup2\n        /* \"#utility.yul\":8249:8260   */\n      swap1\n      pop\n        /* \"#utility.yul\":8280:8283   */\n      dup2\n        /* \"#utility.yul\":8277:8278   */\n      0x00\n        /* \"#utility.yul\":8270:8284   */\n      mstore\n        /* \"#utility.yul\":8314:8318   */\n      0x20\n        /* \"#utility.yul\":8311:8312   */\n      0x00\n        /* \"#utility.yul\":8301:8319   */\n      keccak256\n        /* \"#utility.yul\":8293:8319   */\n      swap1\n      pop\n        /* \"#utility.yul\":8185:8326   */\n      swap2\n      swap1\n      pop\n      jump\t// out\n        /* \"#utility.yul\":8332:8425   */\n    tag_129:\n        /* \"#utility.yul\":8369:8375   */\n      0x00\n        /* \"#utility.yul\":8416:8418   */\n      0x20\n        /* \"#utility.yul\":8411:8413   */\n      0x1f\n        /* \"#utility.yul\":8404:8409   */\n      dup4\n        /* \"#utility.yul\":8400:8414   */\n      add\n        /* \"#utility.yul\":8396:8419   */\n      div\n        /* \"#utility.yul\":8386:8419   */\n      swap1\n      pop\n        /* \"#utility.yul\":8332:8425   */\n      swap2\n      swap1\n      pop\n      jump\t// out\n        /* \"#utility.yul\":8431:8538   */\n    tag_130:\n        /* \"#utility.yul\":8475:8483   */\n      0x00\n        /* \"#utility.yul\":8525:8530   */\n      dup3\n        /* \"#utility.yul\":8519:8523   */\n      dup3\n        /* \"#utility.yul\":8515:8531   */\n      shl\n        /* \"#utility.yul\":8494:8531   */\n      swap1\n      pop\n        /* \"#utility.yul\":8431:8538   */\n      swap3\n      swap2\n      pop\n      pop\n      jump\t// out\n        /* \"#utility.yul\":8544:8937   */\n    tag_131:\n        /* \"#utility.yul\":8613:8619   */\n      0x00\n        /* \"#utility.yul\":8663:8664   */\n      0x08\n        /* \"#utility.yul\":8651:8661   */\n      dup4\n        /* \"#utility.yul\":8647:8665   */\n      mul\n        /* \"#utility.yul\":8686:8783   */\n      tag_227\n        /* \"#utility.yul\":8716:8782   */\n      0xffffffffffffffffffffffffffffffffffffffffffffffffffffffffffffffff\n        /* \"#utility.yul\":8705:8714   */\n      dup3\n        /* \"#utility.yul\":8686:8783   */\n      tag_130\n      jump\t// in\n    tag_227:\n        /* \"#utility.yul\":8804:8843   */\n      tag_228\n        /* \"#utility.yul\":8834:8842   */\n      dup7\n        /* \"#utility.yul\":8823:8832   */\n      dup4\n        /* \"#utility.yul\":8804:8843   */\n      tag_130\n      jump\t// in\n    tag_228:\n        /* \"#utility.yul\":8792:8843   */\n      swap6\n      pop\n        /* \"#utility.yul\":8876:8880   */\n      dup1\n        /* \"#utility.yul\":8872:8881   */\n      not\n        /* \"#utility.yul\":8865:8870   */\n      dup5\n        /* \"#utility.yul\":8861:8882   */\n      and\n        /* \"#utility.yul\":8852:8882   */\n      swap4\n      pop\n        /* \"#utility.yul\":8925:8929   */\n      dup1\n        /* \"#utility.yul\":8915:8923   */\n      dup7\n        /* \"#utility.yul\":8911:8930   */\n      and\n        /* \"#utility.yul\":8904:8909   */\n      dup5\n        /* \"#utility.yul\":8901:8931   */\n      or\n        /* \"#utility.yul\":8891:8931   */\n      swap3\n      pop\n        /* \"#utility.yul\":8620:8937   */\n      pop\n      pop\n        /* \"#utility.yul\":8544:8937   */\n      swap4\n      swap3\n      pop\n      pop\n      pop\n      jump\t// out\n        /* \"#utility.yul\":8943:9003   */\n    tag_132:\n        /* \"#utility.yul\":8971:8974   */\n      0x00\n        /* \"#utility.yul\":8992:8997   */\n      dup2\n        /* \"#utility.yul\":8985:8997   */\n      swap1\n      pop\n        /* \"#utility.yul\":8943:9003   */\n      swap2\n      swap1\n      pop\n      jump\t// out\n        /* \"#utility.yul\":9009:9151   */\n    tag_133:\n        /* \"#utility.yul\":9059:9068   */\n      0x00\n        /* \"#utility.yul\":9092:9145   */\n      tag_231\n        /* \"#utility.yul\":9110:9144   */\n      tag_232\n        /* \"#utility.yul\":9119:9143   */\n      tag_233\n        /* \"#utility.yul\":9137:9142   */\n      dup5\n        /* \"#utility.yul\":9119:9143   */\n      tag_104\n      jump\t// in\n    tag_233:\n        /* \"#utility.yul\":9110:9144   */\n      tag_132\n      jump\t// in\n    tag_232:\n        /* \"#utility.yul\":9092:9145   */\n      tag_104\n      jump\t// in\n    tag_231:\n        /* \"#utility.yul\":9079:9145   */\n      swap1\n      pop\n        /* \"#utility.yul\":9009:9151   */\n      swap2\n      swap1\n      pop\n      jump\t// out\n        /* \"#utility.yul\":9157:9232   */\n    tag_134:\n        /* \"#utility.yul\":9200:9203   */\n      0x00\n        /* \"#utility.yul\":9221:9226   */\n      dup2\n        /* \"#utility.yul\":9214:9226   */\n      swap1\n      pop\n        /* \"#utility.yul\":9157:9232   */\n      swap2\n      swap1\n      pop\n      jump\t// out\n        /* \"#utility.yul\":9238:9507   */\n    tag_135:\n        /* \"#utility.yul\":9348:9387   */\n      tag_236\n        /* \"#utility.yul\":9379:9386   */\n      dup4\n        /* \"#utility.yul\":9348:9387   */\n      tag_133\n      jump\t// in\n    tag_236:\n        /* \"#utility.yul\":9409:9500   */\n      tag_237\n        /* \"#utility.yul\":9458:9499   */\n      tag_238\n        /* \"#utility.yul\":9482:9498   */\n      dup3\n        /* \"#utility.yul\":9458:9499   */\n      tag_134\n      jump\t// in\n    tag_238:\n        /* \"#utility.yul\":9450:9456   */\n      dup5\n        /* \"#utility.yul\":9443:9447   */\n      dup5\n        /* \"#utility.yul\":9437:9448   */\n      sload\n        /* \"#utility.yul\":9409:9500   */\n      tag_131\n      jump\t// in\n    tag_237:\n        /* \"#utility.yul\":9403:9407   */\n      dup3\n        /* \"#utility.yul\":9396:9501   */\n      sstore\n        /* \"#utility.yul\":9314:9507   */\n      pop\n        /* \"#utility.yul\":9238:9507   */\n      pop\n      pop\n      pop\n      jump\t// out\n        /* \"#utility.yul\":9513:9586   */\n    tag_136:\n        /* \"#utility.yul\":9558:9561   */\n      0x00\n        /* \"#utility.yul\":9513:9586   */\n      swap1\n      jump\t// out\n        /* \"#utility.yul\":9592:9781   */\n    tag_137:\n        /* \"#utility.yul\":9669:9701   */\n      tag_241\n      tag_136\n      jump\t// in\n    tag_241:\n        /* \"#utility.yul\":9710:9775   */\n      tag_242\n        /* \"#utility.yul\":9768:9774   */\n      dup2\n        /* \"#utility.yul\":9760:9766   */\n      dup5\n        /* \"#utility.yul\":9754:9758   */\n      dup5\n        /* \"#utility.yul\":9710:9775   */\n      tag_135\n      jump\t// in\n    tag_242:\n        /* \"#utility.yul\":9645:9781   */\n      pop\n        /* \"#utility.yul\":9592:9781   */\n      pop\n      pop\n      jump\t// out\n        /* \"#utility.yul\":9787:9973   */\n    tag_138:\n        /* \"#utility.yul\":9847:9967   */\n    tag_244:\n        /* \"#utility.yul\":9864:9867   */\n      dup2\n        /* \"#utility.yul\":9857:9862   */\n      dup2\n        /* \"#utility.yul\":9854:9868   */\n      lt\n        /* \"#utility.yul\":9847:9967   */\n      iszero\n      tag_246\n      jumpi\n        /* \"#utility.yul\":9918:9957   */\n      tag_247\n        /* \"#utility.yul\":9955:9956   */\n      0x00\n        /* \"#utility.yul\":9948:9953   */\n      dup3\n        /* \"#utility.yul\":9918:9957   */\n      tag_137\n      jump\t// in\n    tag_247:\n        /* \"#utility.yul\":9891:9892   */\n      0x01\n        /* \"#utility.yul\":9884:9889   */\n      dup2\n        /* \"#utility.yul\":9880:9893   */\n      add\n        /* \"#utility.yul\":9871:9893   */\n      swap1\n      pop\n        /* \"#utility.yul\":9847:9967   */\n      jump(tag_244)\n    tag_246:\n        /* \"#utility.yul\":9787:9973   */\n      pop\n      pop\n      jump\t// out\n        /* \"#utility.yul\":9979:10522   */\n    tag_139:\n        /* \"#utility.yul\":10080:10082   */\n      0x1f\n        /* \"#utility.yul\":10075:10078   */\n      dup3\n        /* \"#utility.yul\":10072:10083   */\n      gt\n        /* \"#utility.yul\":10069:10515   */\n      iszero\n      tag_249\n      jumpi\n        /* \"#utility.yul\":10114:10152   */\n      tag_250\n        /* \"#utility.yul\":10146:10151   */\n      dup2\n        /* \"#utility.yul\":10114:10152   */\n      tag_128\n      jump\t// in\n    tag_250:\n        /* \"#utility.yul\":10198:10227   */\n      tag_251\n        /* \"#utility.yul\":10216:10226   */\n      dup5\n        /* \"#utility.yul\":10198:10227   */\n      tag_129\n      jump\t// in\n    tag_251:\n        /* \"#utility.yul\":10188:10196   */\n      dup2\n        /* \"#utility.yul\":10184:10228   */\n      add\n        /* \"#utility.yul\":10381:10383   */\n      0x20\n        /* \"#utility.yul\":10369:10379   */\n      dup6\n        /* \"#utility.yul\":10366:10384   */\n      lt\n        /* \"#utility.yul\":10363:10412   */\n      iszero\n      tag_252\n      jumpi\n        /* \"#utility.yul\":10402:10410   */\n      dup2\n        /* \"#utility.yul\":10387:10410   */\n      swap1\n      pop\n        /* \"#utility.yul\":10363:10412   */\n    tag_252:\n        /* \"#utility.yul\":10425:10505   */\n      tag_253\n        /* \"#utility.yul\":10481:10503   */\n      tag_254\n        /* \"#utility.yul\":10499:10502   */\n      dup6\n        /* \"#utility.yul\":10481:10503   */\n      tag_129\n      jump\t// in\n    tag_254:\n        /* \"#utility.yul\":10471:10479   */\n      dup4\n        /* \"#utility.yul\":10467:10504   */\n      add\n        /* \"#utility.yul\":10454:10465   */\n      dup3\n        /* \"#utility.yul\":10425:10505   */\n      tag_138\n      jump\t// in\n    tag_253:\n        /* \"#utility.yul\":10084:10515   */\n      pop\n      pop\n        /* \"#utility.yul\":10069:10515   */\n    tag_249:\n        /* \"#utility.yul\":9979:10522   */\n      pop\n      pop\n      pop\n      jump\t// out\n        /* \"#utility.yul\":10528:10645   */\n    tag_140:\n        /* \"#utility.yul\":10582:10590   */\n      0x00\n        /* \"#utility.yul\":10632:10637   */\n      dup3\n        /* \"#utility.yul\":10626:10630   */\n      dup3\n        /* \"#utility.yul\":10622:10638   */\n      shr\n        /* \"#utility.yul\":10601:10638   */\n      swap1\n      pop\n        /* \"#utility.yul\":10528:10645   */\n      swap3\n      swap2\n      pop\n      pop\n      jump\t// out\n        /* \"#utility.yul\":10651:10820   */\n    tag_141:\n        /* \"#utility.yul\":10695:10701   */\n      0x00\n        /* \"#utility.yul\":10728:10779   */\n      tag_257\n        /* \"#utility.yul\":10776:10777   */\n      0x00\n        /* \"#utility.yul\":10772:10778   */\n      not\n        /* \"#utility.yul\":10764:10769   */\n      dup5\n        /* \"#utility.yul\":10761:10762   */\n      0x08\n        /* \"#utility.yul\":10757:10770   */\n      mul\n        /* \"#utility.yul\":10728:10779   */\n      tag_140\n      jump\t// in\n    tag_257:\n        /* \"#utility.yul\":10724:10780   */\n      not\n        /* \"#utility.yul\":10809:10813   */\n      dup1\n        /* \"#utility.yul\":10803:10807   */\n      dup4\n        /* \"#utility.yul\":10799:10814   */\n      and\n        /* \"#utility.yul\":10789:10814   */\n      swap2\n      pop\n        /* \"#utility.yul\":10702:10820   */\n      pop\n        /* \"#utility.yul\":10651:10820   */\n      swap3\n      swap2\n      pop\n      pop\n      jump\t// out\n        /* \"#utility.yul\":10825:11120   */\n    tag_142:\n        /* \"#utility.yul\":10901:10905   */\n      0x00\n        /* \"#utility.yul\":11047:11076   */\n      tag_259\n        /* \"#utility.yul\":11072:11075   */\n      dup4\n        /* \"#utility.yul\":11066:11070   */\n      dup4\n        /* \"#utility.yul\":11047:11076   */\n      tag_141\n      jump\t// in\n    tag_259:\n        /* \"#utility.yul\":11039:11076   */\n      swap2\n      pop\n        /* \"#utility.yul\":11109:11112   */\n      dup3\n        /* \"#utility.yul\":11106:11107   */\n      0x02\n        /* \"#utility.yul\":11102:11113   */\n      mul\n        /* \"#utility.yul\":11096:11100   */\n      dup3\n        /* \"#utility.yul\":11093:11114   */\n      or\n        /* \"#utility.yul\":11085:11114   */\n      swap1\n      pop\n        /* \"#utility.yul\":10825:11120   */\n      swap3\n      swap2\n      pop\n      pop\n      jump\t// out\n        /* \"#utility.yul\":11125:12520   */\n    tag_77:\n        /* \"#utility.yul\":11242:11279   */\n      tag_261\n        /* \"#utility.yul\":11275:11278   */\n      dup3\n        /* \"#utility.yul\":11242:11279   */\n      tag_106\n      jump\t// in\n    tag_261:\n        /* \"#utility.yul\":11344:11362   */\n      0xffffffffffffffff\n        /* \"#utility.yul\":11336:11342   */\n      dup2\n        /* \"#utility.yul\":11333:11363   */\n      gt\n        /* \"#utility.yul\":11330:11386   */\n      iszero\n      tag_262\n      jumpi\n        /* \"#utility.yul\":11366:11384   */\n      tag_263\n      tag_126\n      jump\t// in\n    tag_263:\n        /* \"#utility.yul\":11330:11386   */\n    tag_262:\n        /* \"#utility.yul\":11410:11448   */\n      tag_264\n        /* \"#utility.yul\":11442:11446   */\n      dup3\n        /* \"#utility.yul\":11436:11447   */\n      sload\n        /* \"#utility.yul\":11410:11448   */\n      tag_87\n      jump\t// in\n    tag_264:\n        /* \"#utility.yul\":11495:11562   */\n      tag_265\n        /* \"#utility.yul\":11555:11561   */\n      dup3\n        /* \"#utility.yul\":11547:11553   */\n      dup3\n        /* \"#utility.yul\":11541:11545   */\n      dup6\n        /* \"#utility.yul\":11495:11562   */\n      tag_139\n      jump\t// in\n    tag_265:\n        /* \"#utility.yul\":11589:11590   */\n      0x00\n        /* \"#utility.yul\":11613:11617   */\n      0x20\n        /* \"#utility.yul\":11600:11617   */\n      swap1\n      pop\n        /* \"#utility.yul\":11645:11647   */\n      0x1f\n        /* \"#utility.yul\":11637:11643   */\n      dup4\n        /* \"#utility.yul\":11634:11648   */\n      gt\n        /* \"#utility.yul\":11662:11663   */\n      0x01\n        /* \"#utility.yul\":11657:12275   */\n      dup2\n      eq\n      tag_267\n      jumpi\n        /* \"#utility.yul\":12319:12320   */\n      0x00\n        /* \"#utility.yul\":12336:12342   */\n      dup5\n        /* \"#utility.yul\":12333:12410   */\n      iszero\n      tag_268\n      jumpi\n        /* \"#utility.yul\":12385:12394   */\n      dup3\n        /* \"#utility.yul\":12380:12383   */\n      dup8\n        /* \"#utility.yul\":12376:12395   */\n      add\n        /* \"#utility.yul\":12370:12396   */\n      mload\n        /* \"#utility.yul\":12361:12396   */\n      swap1\n      pop\n        /* \"#utility.yul\":12333:12410   */\n    tag_268:\n        /* \"#utility.yul\":12436:12503   */\n      tag_269\n        /* \"#utility.yul\":12496:12502   */\n      dup6\n        /* \"#utility.yul\":12489:12494   */\n      dup3\n        /* \"#utility.yul\":12436:12503   */\n      tag_142\n      jump\t// in\n    tag_269:\n        /* \"#utility.yul\":12430:12434   */\n      dup7\n        /* \"#utility.yul\":12423:12504   */\n      sstore\n        /* \"#utility.yul\":12292:12514   */\n      pop\n        /* \"#utility.yul\":11627:12514   */\n      jump(tag_266)\n        /* \"#utility.yul\":11657:12275   */\n    tag_267:\n        /* \"#utility.yul\":11709:11713   */\n      0x1f\n        /* \"#utility.yul\":11705:11714   */\n      not\n        /* \"#utility.yul\":11697:11703   */\n      dup5\n        /* \"#utility.yul\":11693:11715   */\n      and\n        /* \"#utility.yul\":11743:11780   */\n      tag_270\n        /* \"#utility.yul\":11775:11779   */\n      dup7\n        /* \"#utility.yul\":11743:11780   */\n      tag_128\n      jump\t// in\n    tag_270:\n        /* \"#utility.yul\":11802:11803   */\n      0x00\n        /* \"#utility.yul\":11816:12024   */\n    tag_271:\n        /* \"#utility.yul\":11830:11837   */\n      dup3\n        /* \"#utility.yul\":11827:11828   */\n      dup2\n        /* \"#utility.yul\":11824:11838   */\n      lt\n        /* \"#utility.yul\":11816:12024   */\n      iszero\n      tag_273\n      jumpi\n        /* \"#utility.yul\":11909:11918   */\n      dup5\n        /* \"#utility.yul\":11904:11907   */\n      dup10\n        /* \"#utility.yul\":11900:11919   */\n      add\n        /* \"#utility.yul\":11894:11920   */\n      mload\n        /* \"#utility.yul\":11886:11892   */\n      dup3\n        /* \"#utility.yul\":11879:11921   */\n      sstore\n        /* \"#utility.yul\":11960:11961   */\n      0x01\n        /* \"#utility.yul\":11952:11958   */\n      dup3\n        /* \"#utility.yul\":11948:11962   */\n      add\n        /* \"#utility.yul\":11938:11962   */\n      swap2\n      pop\n        /* \"#utility.yul\":12007:12009   */\n      0x20\n        /* \"#utility.yul\":11996:12005   */\n      dup6\n        /* \"#utility.yul\":11992:12010   */\n      add\n        /* \"#utility.yul\":11979:12010   */\n      swap5\n      pop\n        /* \"#utility.yul\":11853:11857   */\n      0x20\n        /* \"#utility.yul\":11850:11851   */\n      dup2\n        /* \"#utility.yul\":11846:11858   */\n      add\n        /* \"#utility.yul\":11841:11858   */\n      swap1\n      pop\n        /* \"#utility.yul\":11816:12024   */\n      jump(tag_271)\n    tag_273:\n        /* \"#utility.yul\":12052:12058   */\n      dup7\n        /* \"#utility.yul\":12043:12050   */\n      dup4\n        /* \"#utility.yul\":12040:12059   */\n      lt\n        /* \"#utility.yul\":12037:12216   */\n      iszero\n      tag_274\n      jumpi\n        /* \"#utility.yul\":12110:12119   */\n      dup5\n        /* \"#utility.yul\":12105:12108   */\n      dup10\n        /* \"#utility.yul\":12101:12120   */\n      add\n        /* \"#utility.yul\":12095:12121   */\n      mload\n        /* \"#utility.yul\":12153:12201   */\n      tag_275\n        /* \"#utility.yul\":12195:12199   */\n      0x1f\n        /* \"#utility.yul\":12187:12193   */\n      dup10\n        /* \"#utility.yul\":12183:12200   */\n      and\n        /* \"#utility.yul\":12172:12181   */\n      dup3\n        /* \"#utility.yul\":12153:12201   */\n      tag_141\n      jump\t// in\n    tag_275:\n        /* \"#utility.yul\":12145:12151   */\n      dup4\n        /* \"#utility.yul\":12138:12202   */\n      sstore\n        /* \"#utility.yul\":12060:12216   */\n      pop\n        /* \"#utility.yul\":12037:12216   */\n    tag_274:\n        /* \"#utility.yul\":12262:12263   */\n      0x01\n        /* \"#utility.yul\":12258:12259   */\n      0x02\n        /* \"#utility.yul\":12250:12256   */\n      dup9\n        /* \"#utility.yul\":12246:12260   */\n      mul\n        /* \"#utility.yul\":12242:12264   */\n      add\n        /* \"#utility.yul\":12236:12240   */\n      dup9\n        /* \"#utility.yul\":12229:12265   */\n      sstore\n        /* \"#utility.yul\":11664:12275   */\n      pop\n      pop\n      pop\n        /* \"#utility.yul\":11627:12514   */\n    tag_266:\n      pop\n        /* \"#utility.yul\":11217:12520   */\n      pop\n      pop\n      pop\n        /* \"#utility.yul\":11125:12520   */\n      pop\n      pop\n      jump\t// out\n        /* \"#utility.yul\":12526:12748   */\n    tag_143:\n        /* \"#utility.yul\":12666:12700   */\n      0x4572726f723a2056616c7565206d757374206265206772656174657220746861\n        /* \"#utility.yul\":12662:12663   */\n      0x00\n        /* \"#utility.yul\":12654:12660   */\n      dup3\n        /* \"#utility.yul\":12650:12664   */\n      add\n        /* \"#utility.yul\":12643:12701   */\n      mstore\n        /* \"#utility.yul\":12735:12740   */\n      0x6e20300000000000000000000000000000000000000000000000000000000000\n        /* \"#utility.yul\":12730:12732   */\n      0x20\n        /* \"#utility.yul\":12722:12728   */\n      dup3\n        /* \"#utility.yul\":12718:12733   */\n      add\n        /* \"#utility.yul\":12711:12741   */\n      mstore\n        /* \"#utility.yul\":12526:12748   */\n      pop\n      jump\t// out\n        /* \"#utility.yul\":12754:13120   */\n    tag_144:\n        /* \"#utility.yul\":12896:12899   */\n      0x00\n        /* \"#utility.yul\":12917:12984   */\n      tag_278\n        /* \"#utility.yul\":12981:12983   */\n      0x23\n        /* \"#utility.yul\":12976:12979   */\n      dup4\n        /* \"#utility.yul\":12917:12984   */\n      tag_107\n      jump\t// in\n    tag_278:\n        /* \"#utility.yul\":12910:12984   */\n      swap2\n      pop\n        /* \"#utility.yul\":12993:13086   */\n      tag_279\n        /* \"#utility.yul\":13082:13085   */\n      dup3\n        /* \"#utility.yul\":12993:13086   */\n      tag_143\n      jump\t// in\n    tag_279:\n        /* \"#utility.yul\":13111:13113   */\n      0x40\n        /* \"#utility.yul\":13106:13109   */\n      dup3\n        /* \"#utility.yul\":13102:13114   */\n      add\n        /* \"#utility.yul\":13095:13114   */\n      swap1\n      pop\n        /* \"#utility.yul\":12754:13120   */\n      swap2\n      swap1\n      pop\n      jump\t// out\n        /* \"#utility.yul\":13126:13545   */\n    tag_95:\n        /* \"#utility.yul\":13292:13296   */\n      0x00\n        /* \"#utility.yul\":13330:13332   */\n      0x20\n        /* \"#utility.yul\":13319:13328   */\n      dup3\n        /* \"#utility.yul\":13315:13333   */\n      add\n        /* \"#utility.yul\":13307:13333   */\n      swap1\n      pop\n        /* \"#utility.yul\":13379:13388   */\n      dup2\n        /* \"#utility.yul\":13373:13377   */\n      dup2\n        /* \"#utility.yul\":13369:13389   */\n      sub\n        /* \"#utility.yul\":13365:13366   */\n      0x00\n        /* \"#utility.yul\":13354:13363   */\n      dup4\n        /* \"#utility.yul\":13350:13367   */\n      add\n        /* \"#utility.yul\":13343:13390   */\n      mstore\n        /* \"#utility.yul\":13407:13538   */\n      tag_281\n        /* \"#utility.yul\":13533:13537   */\n      dup2\n        /* \"#utility.yul\":13407:13538   */\n      tag_144\n      jump\t// in\n    tag_281:\n        /* \"#utility.yul\":13399:13538   */\n      swap1\n      pop\n        /* \"#utility.yul\":13126:13545   */\n      swap2\n      swap1\n      pop\n      jump\t// out\n        /* \"#utility.yul\":13551:13725   */\n    tag_145:\n        /* \"#utility.yul\":13691:13717   */\n      0x4572726f723a205468652066756e6420697320656e6465640000000000000000\n        /* \"#utility.yul\":13687:13688   */\n      0x00\n        /* \"#utility.yul\":13679:13685   */\n      dup3\n        /* \"#utility.yul\":13675:13689   */\n      add\n        /* \"#utility.yul\":13668:13718   */\n      mstore\n        /* \"#utility.yul\":13551:13725   */\n      pop\n      jump\t// out\n        /* \"#utility.yul\":13731:14097   */\n    tag_146:\n        /* \"#utility.yul\":13873:13876   */\n      0x00\n        /* \"#utility.yul\":13894:13961   */\n      tag_284\n        /* \"#utility.yul\":13958:13960   */\n      0x18\n        /* \"#utility.yul\":13953:13956   */\n      dup4\n        /* \"#utility.yul\":13894:13961   */\n      tag_107\n      jump\t// in\n    tag_284:\n        /* \"#utility.yul\":13887:13961   */\n      swap2\n      pop\n        /* \"#utility.yul\":13970:14063   */\n      tag_285\n        /* \"#utility.yul\":14059:14062   */\n      dup3\n        /* \"#utility.yul\":13970:14063   */\n      tag_145\n      jump\t// in\n    tag_285:\n        /* \"#utility.yul\":14088:14090   */\n      0x20\n        /* \"#utility.yul\":14083:14086   */\n      dup3\n        /* \"#utility.yul\":14079:14091   */\n      add\n        /* \"#utility.yul\":14072:14091   */\n      swap1\n      pop\n        /* \"#utility.yul\":13731:14097   */\n      swap2\n      swap1\n      pop\n      jump\t// out\n        /* \"#utility.yul\":14103:14522   */\n    tag_98:\n        /* \"#utility.yul\":14269:14273   */\n      0x00\n        /* \"#utility.yul\":14307:14309   */\n      0x20\n        /* \"#utility.yul\":14296:14305   */\n      dup3\n        /* \"#utility.yul\":14292:14310   */\n      add\n        /* \"#utility.yul\":14284:14310   */\n      swap1\n      pop\n        /* \"#utility.yul\":14356:14365   */\n      dup2\n        /* \"#utility.yul\":14350:14354   */\n      dup2\n        /* \"#utility.yul\":14346:14366   */\n      sub\n        /* \"#utility.yul\":14342:14343   */\n      0x00\n        /* \"#utility.yul\":14331:14340   */\n      dup4\n        /* \"#utility.yul\":14327:14344   */\n      add\n        /* \"#utility.yul\":14320:14367   */\n      mstore\n        /* \"#utility.yul\":14384:14515   */\n      tag_287\n        /* \"#utility.yul\":14510:14514   */\n      dup2\n        /* \"#utility.yul\":14384:14515   */\n      tag_146\n      jump\t// in\n    tag_287:\n        /* \"#utility.yul\":14376:14515   */\n      swap1\n      pop\n        /* \"#utility.yul\":14103:14522   */\n      swap2\n      swap1\n      pop\n      jump\t// out\n        /* \"#utility.yul\":14528:14719   */\n    tag_100:\n        /* \"#utility.yul\":14568:14571   */\n      0x00\n        /* \"#utility.yul\":14587:14607   */\n      tag_289\n        /* \"#utility.yul\":14605:14606   */\n      dup3\n        /* \"#utility.yul\":14587:14607   */\n      tag_104\n      jump\t// in\n    tag_289:\n        /* \"#utility.yul\":14582:14607   */\n      swap2\n      pop\n        /* \"#utility.yul\":14621:14641   */\n      tag_290\n        /* \"#utility.yul\":14639:14640   */\n      dup4\n        /* \"#utility.yul\":14621:14641   */\n      tag_104\n      jump\t// in\n    tag_290:\n        /* \"#utility.yul\":14616:14641   */\n      swap3\n      pop\n        /* \"#utility.yul\":14664:14665   */\n      dup3\n        /* \"#utility.yul\":14661:14662   */\n      dup3\n        /* \"#utility.yul\":14657:14666   */\n      add\n        /* \"#utility.yul\":14650:14666   */\n      swap1\n      pop\n        /* \"#utility.yul\":14685:14688   */\n      dup1\n        /* \"#utility.yul\":14682:14683   */\n      dup3\n        /* \"#utility.yul\":14679:14689   */\n      gt\n        /* \"#utility.yul\":14676:14712   */\n      iszero\n      tag_291\n      jumpi\n        /* \"#utility.yul\":14692:14710   */\n      tag_292\n      tag_125\n      jump\t// in\n    tag_292:\n        /* \"#utility.yul\":14676:14712   */\n    tag_291:\n        /* \"#utility.yul\":14528:14719   */\n      swap3\n      swap2\n      pop\n      pop\n      jump\t// out\n\n    auxdata: 0xa264697066735822122064fca4062f95e3bb4f3076c9e89926e87f25b1ea8f66306ac478ae289abaa48b64736f6c63430008120033\n}\n",
				"bytecode": {
					"linkReferences": {},
					"object": "60806040523480156200001157600080fd5b50604051620015cc380380620015cc833981810160405281019062000037919062000161565b336000806101000a81548173ffffffffffffffffffffffffffffffffffffffff021916908373ffffffffffffffffffffffffffffffffffffffff1602179055508142620000859190620001d7565b600281905550670de0b6b3a764000081620000a1919062000212565b6005819055506040518060400160405280600781526020017f46756e64696e670000000000000000000000000000000000000000000000000081525060039081620000ed9190620004cd565b506000600460006101000a81548160ff021916908315150217905550600060018190555060006006819055505050620005b4565b600080fd5b6000819050919050565b6200013b8162000126565b81146200014757600080fd5b50565b6000815190506200015b8162000130565b92915050565b600080604083850312156200017b576200017a62000121565b5b60006200018b858286016200014a565b92505060206200019e858286016200014a565b9150509250929050565b7f4e487b7100000000000000000000000000000000000000000000000000000000600052601160045260246000fd5b6000620001e48262000126565b9150620001f18362000126565b92508282019050808211156200020c576200020b620001a8565b5b92915050565b60006200021f8262000126565b91506200022c8362000126565b92508282026200023c8162000126565b91508282048414831517620002565762000255620001a8565b5b5092915050565b600081519050919050565b7f4e487b7100000000000000000000000000000000000000000000000000000000600052604160045260246000fd5b7f4e487b7100000000000000000000000000000000000000000000000000000000600052602260045260246000fd5b60006002820490506001821680620002df57607f821691505b602082108103620002f557620002f462000297565b5b50919050565b60008190508160005260206000209050919050565b60006020601f8301049050919050565b600082821b905092915050565b6000600883026200035f7fffffffffffffffffffffffffffffffffffffffffffffffffffffffffffffffff8262000320565b6200036b868362000320565b95508019841693508086168417925050509392505050565b6000819050919050565b6000620003ae620003a8620003a28462000126565b62000383565b62000126565b9050919050565b6000819050919050565b620003ca836200038d565b620003e2620003d982620003b5565b8484546200032d565b825550505050565b600090565b620003f9620003ea565b62000406818484620003bf565b505050565b5b818110156200042e5762000422600082620003ef565b6001810190506200040c565b5050565b601f8211156200047d576200044781620002fb565b620004528462000310565b8101602085101562000462578190505b6200047a620004718562000310565b8301826200040b565b50505b505050565b600082821c905092915050565b6000620004a26000198460080262000482565b1980831691505092915050565b6000620004bd83836200048f565b9150826002028217905092915050565b620004d8826200025d565b67ffffffffffffffff811115620004f457620004f362000268565b5b620005008254620002c6565b6200050d82828562000432565b600060209050601f83116001811462000545576000841562000530578287015190505b6200053c8582620004af565b865550620005ac565b601f1984166200055586620002fb565b60005b828110156200057f5784890151825560018201915060208501945060208101905062000558565b868310156200059f57848901516200059b601f8916826200048f565b8355505b6001600288020188555050505b505050505050565b61100880620005c46000396000f3fe6080604052600436106100915760003560e01c80632636b945116100595780632636b9451461015957806329dcb0cf146101845780633feb5f2b146101af5780638da5cb5b146101ed578063b60d42881461021857610091565b806301cb3b201461009657806312fa6feb146100ad578063132ae5e9146100d85780631a39d8ef14610103578063200d2ed21461012e575b600080fd5b3480156100a257600080fd5b506100ab610222565b005b3480156100b957600080fd5b506100c2610539565b6040516100cf91906107ce565b60405180910390f35b3480156100e457600080fd5b506100ed61054c565b6040516100fa9190610802565b60405180910390f35b34801561010f57600080fd5b50610118610552565b6040516101259190610802565b60405180910390f35b34801561013a57600080fd5b50610143610558565b60405161015091906108ad565b60405180910390f35b34801561016557600080fd5b5061016e6105e6565b60405161017b9190610802565b60405180910390f35b34801561019057600080fd5b506101996105ec565b6040516101a69190610802565b60405180910390f35b3480156101bb57600080fd5b506101d660048036038101906101d19190610900565b6105f2565b6040516101e492919061096e565b60405180910390f35b3480156101f957600080fd5b50610202610636565b60405161020f9190610997565b60405180910390f35b61022061065a565b005b3373ffffffffffffffffffffffffffffffffffffffff1660008054906101000a900473ffffffffffffffffffffffffffffffffffffffff1673ffffffffffffffffffffffffffffffffffffffff16146102b0576040517f08c379a00000000000000000000000000000000000000000000000000000000081526004016102a7906109fe565b60405180910390fd5b600460009054906101000a900460ff1615610300576040517f08c379a00000000000000000000000000000000000000000000000000000000081526004016102f790610a90565b60405180910390fd5b426002541115610345576040517f08c379a000000000000000000000000000000000000000000000000000000000815260040161033c90610afc565b60405180910390fd5b600554600654106104225760005b6001548110156103d75760008054906101000a900473ffffffffffffffffffffffffffffffffffffffff1673ffffffffffffffffffffffffffffffffffffffff166108fc479081150290604051600060405180830381858888f193505050501580156103c3573d6000803e3d6000fd5b5080806103cf90610b4b565b915050610353565b506040518060400160405280601281526020017f43616d706169676e2053756363656564656400000000000000000000000000008152506003908161041c9190610dce565b5061051c565b60005b6001548110156104d5576007600082815260200190815260200160002060000160009054906101000a900473ffffffffffffffffffffffffffffffffffffffff1673ffffffffffffffffffffffffffffffffffffffff166108fc60076000848152602001908152602001600020600101549081150290604051600060405180830381858888f193505050501580156104c1573d6000803e3d6000fd5b5080806104cd90610b4b565b915050610425565b506040518060400160405280600f81526020017f43616d706169676e204661696c656400000000000000000000000000000000008152506003908161051a9190610dce565b505b6001600460006101000a81548160ff021916908315150217905550565b600460009054906101000a900460ff1681565b60015481565b60065481565b6003805461056590610bf1565b80601f016020809104026020016040519081016040528092919081815260200182805461059190610bf1565b80156105de5780601f106105b3576101008083540402835291602001916105de565b820191906000526020600020905b8154815290600101906020018083116105c157829003601f168201915b505050505081565b60055481565b60025481565b60076020528060005260406000206000915090508060000160009054906101000a900473ffffffffffffffffffffffffffffffffffffffff16908060010154905082565b60008054906101000a900473ffffffffffffffffffffffffffffffffffffffff1681565b6000341161069d576040517f08c379a000000000000000000000000000000000000000000000000000000000815260040161069490610f12565b60405180910390fd5b60001515600460009054906101000a900460ff161515146106f3576040517f08c379a00000000000000000000000000000000000000000000000000000000081526004016106ea90610f7e565b60405180910390fd5b3360076000600154815260200190815260200160002060000160006101000a81548173ffffffffffffffffffffffffffffffffffffffff021916908373ffffffffffffffffffffffffffffffffffffffff160217905550346007600060015481526020019081526020016000206001018190555060076000600154815260200190815260200160002060010154600660008282546107919190610f9e565b9250508190555060018060008282546107aa9190610f9e565b92505081905550565b60008115159050919050565b6107c8816107b3565b82525050565b60006020820190506107e360008301846107bf565b92915050565b6000819050919050565b6107fc816107e9565b82525050565b600060208201905061081760008301846107f3565b92915050565b600081519050919050565b600082825260208201905092915050565b60005b8381101561085757808201518184015260208101905061083c565b60008484015250505050565b6000601f19601f8301169050919050565b600061087f8261081d565b6108898185610828565b9350610899818560208601610839565b6108a281610863565b840191505092915050565b600060208201905081810360008301526108c78184610874565b905092915050565b600080fd5b6108dd816107e9565b81146108e857600080fd5b50565b6000813590506108fa816108d4565b92915050565b600060208284031215610916576109156108cf565b5b6000610924848285016108eb565b91505092915050565b600073ffffffffffffffffffffffffffffffffffffffff82169050919050565b60006109588261092d565b9050919050565b6109688161094d565b82525050565b6000604082019050610983600083018561095f565b61099060208301846107f3565b9392505050565b60006020820190506109ac600083018461095f565b92915050565b7f4572726f72203a2063616c6c6572206973206e6f7420746865206f776e657200600082015250565b60006109e8601f83610828565b91506109f3826109b2565b602082019050919050565b60006020820190508181036000830152610a17816109db565b9050919050565b7f4572726f72203a205468652066756e64206973206e6f7420656e64656420796560008201527f7400000000000000000000000000000000000000000000000000000000000000602082015250565b6000610a7a602183610828565b9150610a8582610a1e565b604082019050919050565b60006020820190508181036000830152610aa981610a6d565b9050919050565b7f4572726f723a205468652066756e64206973206e6f7420656e64656420796574600082015250565b6000610ae6602083610828565b9150610af182610ab0565b602082019050919050565b60006020820190508181036000830152610b1581610ad9565b9050919050565b7f4e487b7100000000000000000000000000000000000000000000000000000000600052601160045260246000fd5b6000610b56826107e9565b91507fffffffffffffffffffffffffffffffffffffffffffffffffffffffffffffffff8203610b8857610b87610b1c565b5b600182019050919050565b7f4e487b7100000000000000000000000000000000000000000000000000000000600052604160045260246000fd5b7f4e487b7100000000000000000000000000000000000000000000000000000000600052602260045260246000fd5b60006002820490506001821680610c0957607f821691505b602082108103610c1c57610c1b610bc2565b5b50919050565b60008190508160005260206000209050919050565b60006020601f8301049050919050565b600082821b905092915050565b600060088302610c847fffffffffffffffffffffffffffffffffffffffffffffffffffffffffffffffff82610c47565b610c8e8683610c47565b95508019841693508086168417925050509392505050565b6000819050919050565b6000610ccb610cc6610cc1846107e9565b610ca6565b6107e9565b9050919050565b6000819050919050565b610ce583610cb0565b610cf9610cf182610cd2565b848454610c54565b825550505050565b600090565b610d0e610d01565b610d19818484610cdc565b505050565b5b81811015610d3d57610d32600082610d06565b600181019050610d1f565b5050565b601f821115610d8257610d5381610c22565b610d5c84610c37565b81016020851015610d6b578190505b610d7f610d7785610c37565b830182610d1e565b50505b505050565b600082821c905092915050565b6000610da560001984600802610d87565b1980831691505092915050565b6000610dbe8383610d94565b9150826002028217905092915050565b610dd78261081d565b67ffffffffffffffff811115610df057610def610b93565b5b610dfa8254610bf1565b610e05828285610d41565b600060209050601f831160018114610e385760008415610e26578287015190505b610e308582610db2565b865550610e98565b601f198416610e4686610c22565b60005b82811015610e6e57848901518255600182019150602085019450602081019050610e49565b86831015610e8b5784890151610e87601f891682610d94565b8355505b6001600288020188555050505b505050505050565b7f4572726f723a2056616c7565206d75737420626520677265617465722074686160008201527f6e20300000000000000000000000000000000000000000000000000000000000602082015250565b6000610efc602383610828565b9150610f0782610ea0565b604082019050919050565b60006020820190508181036000830152610f2b81610eef565b9050919050565b7f4572726f723a205468652066756e6420697320656e6465640000000000000000600082015250565b6000610f68601883610828565b9150610f7382610f32565b602082019050919050565b60006020820190508181036000830152610f9781610f5b565b9050919050565b6000610fa9826107e9565b9150610fb4836107e9565b9250828201905080821115610fcc57610fcb610b1c565b5b9291505056fea264697066735822122064fca4062f95e3bb4f3076c9e89926e87f25b1ea8f66306ac478ae289abaa48b64736f6c63430008120033",
					"opcodes": "PUSH1 0x80 PUSH1 0x40 MSTORE CALLVALUE DUP1 ISZERO PUSH3 0x11 JUMPI PUSH1 0x0 DUP1 REVERT JUMPDEST POP PUSH1 0x40 MLOAD PUSH3 0x15CC CODESIZE SUB DUP1 PUSH3 0x15CC DUP4 CODECOPY DUP2 DUP2 ADD PUSH1 0x40 MSTORE DUP2 ADD SWAP1 PUSH3 0x37 SWAP2 SWAP1 PUSH3 0x161 JUMP JUMPDEST CALLER PUSH1 0x0 DUP1 PUSH2 0x100 EXP DUP2 SLOAD DUP2 PUSH20 0xFFFFFFFFFFFFFFFFFFFFFFFFFFFFFFFFFFFFFFFF MUL NOT AND SWAP1 DUP4 PUSH20 0xFFFFFFFFFFFFFFFFFFFFFFFFFFFFFFFFFFFFFFFF AND MUL OR SWAP1 SSTORE POP DUP2 TIMESTAMP PUSH3 0x85 SWAP2 SWAP1 PUSH3 0x1D7 JUMP JUMPDEST PUSH1 0x2 DUP2 SWAP1 SSTORE POP PUSH8 0xDE0B6B3A7640000 DUP2 PUSH3 0xA1 SWAP2 SWAP1 PUSH3 0x212 JUMP JUMPDEST PUSH1 0x5 DUP2 SWAP1 SSTORE POP PUSH1 0x40 MLOAD DUP1 PUSH1 0x40 ADD PUSH1 0x40 MSTORE DUP1 PUSH1 0x7 DUP2 MSTORE PUSH1 0x20 ADD PUSH32 0x46756E64696E6700000000000000000000000000000000000000000000000000 DUP2 MSTORE POP PUSH1 0x3 SWAP1 DUP2 PUSH3 0xED SWAP2 SWAP1 PUSH3 0x4CD JUMP JUMPDEST POP PUSH1 0x0 PUSH1 0x4 PUSH1 0x0 PUSH2 0x100 EXP DUP2 SLOAD DUP2 PUSH1 0xFF MUL NOT AND SWAP1 DUP4 ISZERO ISZERO MUL OR SWAP1 SSTORE POP PUSH1 0x0 PUSH1 0x1 DUP2 SWAP1 SSTORE POP PUSH1 0x0 PUSH1 0x6 DUP2 SWAP1 SSTORE POP POP POP PUSH3 0x5B4 JUMP JUMPDEST PUSH1 0x0 DUP1 REVERT JUMPDEST PUSH1 0x0 DUP2 SWAP1 POP SWAP2 SWAP1 POP JUMP JUMPDEST PUSH3 0x13B DUP2 PUSH3 0x126 JUMP JUMPDEST DUP2 EQ PUSH3 0x147 JUMPI PUSH1 0x0 DUP1 REVERT JUMPDEST POP JUMP JUMPDEST PUSH1 0x0 DUP2 MLOAD SWAP1 POP PUSH3 0x15B DUP2 PUSH3 0x130 JUMP JUMPDEST SWAP3 SWAP2 POP POP JUMP JUMPDEST PUSH1 0x0 DUP1 PUSH1 0x40 DUP4 DUP6 SUB SLT ISZERO PUSH3 0x17B JUMPI PUSH3 0x17A PUSH3 0x121 JUMP JUMPDEST JUMPDEST PUSH1 0x0 PUSH3 0x18B DUP6 DUP3 DUP7 ADD PUSH3 0x14A JUMP JUMPDEST SWAP3 POP POP PUSH1 0x20 PUSH3 0x19E DUP6 DUP3 DUP7 ADD PUSH3 0x14A JUMP JUMPDEST SWAP2 POP POP SWAP3 POP SWAP3 SWAP1 POP JUMP JUMPDEST PUSH32 0x4E487B7100000000000000000000000000000000000000000000000000000000 PUSH1 0x0 MSTORE PUSH1 0x11 PUSH1 0x4 MSTORE PUSH1 0x24 PUSH1 0x0 REVERT JUMPDEST PUSH1 0x0 PUSH3 0x1E4 DUP3 PUSH3 0x126 JUMP JUMPDEST SWAP2 POP PUSH3 0x1F1 DUP4 PUSH3 0x126 JUMP JUMPDEST SWAP3 POP DUP3 DUP3 ADD SWAP1 POP DUP1 DUP3 GT ISZERO PUSH3 0x20C JUMPI PUSH3 0x20B PUSH3 0x1A8 JUMP JUMPDEST JUMPDEST SWAP3 SWAP2 POP POP JUMP JUMPDEST PUSH1 0x0 PUSH3 0x21F DUP3 PUSH3 0x126 JUMP JUMPDEST SWAP2 POP PUSH3 0x22C DUP4 PUSH3 0x126 JUMP JUMPDEST SWAP3 POP DUP3 DUP3 MUL PUSH3 0x23C DUP2 PUSH3 0x126 JUMP JUMPDEST SWAP2 POP DUP3 DUP3 DIV DUP5 EQ DUP4 ISZERO OR PUSH3 0x256 JUMPI PUSH3 0x255 PUSH3 0x1A8 JUMP JUMPDEST JUMPDEST POP SWAP3 SWAP2 POP POP JUMP JUMPDEST PUSH1 0x0 DUP2 MLOAD SWAP1 POP SWAP2 SWAP1 POP JUMP JUMPDEST PUSH32 0x4E487B7100000000000000000000000000000000000000000000000000000000 PUSH1 0x0 MSTORE PUSH1 0x41 PUSH1 0x4 MSTORE PUSH1 0x24 PUSH1 0x0 REVERT JUMPDEST PUSH32 0x4E487B7100000000000000000000000000000000000000000000000000000000 PUSH1 0x0 MSTORE PUSH1 0x22 PUSH1 0x4 MSTORE PUSH1 0x24 PUSH1 0x0 REVERT JUMPDEST PUSH1 0x0 PUSH1 0x2 DUP3 DIV SWAP1 POP PUSH1 0x1 DUP3 AND DUP1 PUSH3 0x2DF JUMPI PUSH1 0x7F DUP3 AND SWAP2 POP JUMPDEST PUSH1 0x20 DUP3 LT DUP2 SUB PUSH3 0x2F5 JUMPI PUSH3 0x2F4 PUSH3 0x297 JUMP JUMPDEST JUMPDEST POP SWAP2 SWAP1 POP JUMP JUMPDEST PUSH1 0x0 DUP2 SWAP1 POP DUP2 PUSH1 0x0 MSTORE PUSH1 0x20 PUSH1 0x0 KECCAK256 SWAP1 POP SWAP2 SWAP1 POP JUMP JUMPDEST PUSH1 0x0 PUSH1 0x20 PUSH1 0x1F DUP4 ADD DIV SWAP1 POP SWAP2 SWAP1 POP JUMP JUMPDEST PUSH1 0x0 DUP3 DUP3 SHL SWAP1 POP SWAP3 SWAP2 POP POP JUMP JUMPDEST PUSH1 0x0 PUSH1 0x8 DUP4 MUL PUSH3 0x35F PUSH32 0xFFFFFFFFFFFFFFFFFFFFFFFFFFFFFFFFFFFFFFFFFFFFFFFFFFFFFFFFFFFFFFFF DUP3 PUSH3 0x320 JUMP JUMPDEST PUSH3 0x36B DUP7 DUP4 PUSH3 0x320 JUMP JUMPDEST SWAP6 POP DUP1 NOT DUP5 AND SWAP4 POP DUP1 DUP7 AND DUP5 OR SWAP3 POP POP POP SWAP4 SWAP3 POP POP POP JUMP JUMPDEST PUSH1 0x0 DUP2 SWAP1 POP SWAP2 SWAP1 POP JUMP JUMPDEST PUSH1 0x0 PUSH3 0x3AE PUSH3 0x3A8 PUSH3 0x3A2 DUP5 PUSH3 0x126 JUMP JUMPDEST PUSH3 0x383 JUMP JUMPDEST PUSH3 0x126 JUMP JUMPDEST SWAP1 POP SWAP2 SWAP1 POP JUMP JUMPDEST PUSH1 0x0 DUP2 SWAP1 POP SWAP2 SWAP1 POP JUMP JUMPDEST PUSH3 0x3CA DUP4 PUSH3 0x38D JUMP JUMPDEST PUSH3 0x3E2 PUSH3 0x3D9 DUP3 PUSH3 0x3B5 JUMP JUMPDEST DUP5 DUP5 SLOAD PUSH3 0x32D JUMP JUMPDEST DUP3 SSTORE POP POP POP POP JUMP JUMPDEST PUSH1 0x0 SWAP1 JUMP JUMPDEST PUSH3 0x3F9 PUSH3 0x3EA JUMP JUMPDEST PUSH3 0x406 DUP2 DUP5 DUP5 PUSH3 0x3BF JUMP JUMPDEST POP POP POP JUMP JUMPDEST JUMPDEST DUP2 DUP2 LT ISZERO PUSH3 0x42E JUMPI PUSH3 0x422 PUSH1 0x0 DUP3 PUSH3 0x3EF JUMP JUMPDEST PUSH1 0x1 DUP2 ADD SWAP1 POP PUSH3 0x40C JUMP JUMPDEST POP POP JUMP JUMPDEST PUSH1 0x1F DUP3 GT ISZERO PUSH3 0x47D JUMPI PUSH3 0x447 DUP2 PUSH3 0x2FB JUMP JUMPDEST PUSH3 0x452 DUP5 PUSH3 0x310 JUMP JUMPDEST DUP2 ADD PUSH1 0x20 DUP6 LT ISZERO PUSH3 0x462 JUMPI DUP2 SWAP1 POP JUMPDEST PUSH3 0x47A PUSH3 0x471 DUP6 PUSH3 0x310 JUMP JUMPDEST DUP4 ADD DUP3 PUSH3 0x40B JUMP JUMPDEST POP POP JUMPDEST POP POP POP JUMP JUMPDEST PUSH1 0x0 DUP3 DUP3 SHR SWAP1 POP SWAP3 SWAP2 POP POP JUMP JUMPDEST PUSH1 0x0 PUSH3 0x4A2 PUSH1 0x0 NOT DUP5 PUSH1 0x8 MUL PUSH3 0x482 JUMP JUMPDEST NOT DUP1 DUP4 AND SWAP2 POP POP SWAP3 SWAP2 POP POP JUMP JUMPDEST PUSH1 0x0 PUSH3 0x4BD DUP4 DUP4 PUSH3 0x48F JUMP JUMPDEST SWAP2 POP DUP3 PUSH1 0x2 MUL DUP3 OR SWAP1 POP SWAP3 SWAP2 POP POP JUMP JUMPDEST PUSH3 0x4D8 DUP3 PUSH3 0x25D JUMP JUMPDEST PUSH8 0xFFFFFFFFFFFFFFFF DUP2 GT ISZERO PUSH3 0x4F4 JUMPI PUSH3 0x4F3 PUSH3 0x268 JUMP JUMPDEST JUMPDEST PUSH3 0x500 DUP3 SLOAD PUSH3 0x2C6 JUMP JUMPDEST PUSH3 0x50D DUP3 DUP3 DUP6 PUSH3 0x432 JUMP JUMPDEST PUSH1 0x0 PUSH1 0x20 SWAP1 POP PUSH1 0x1F DUP4 GT PUSH1 0x1 DUP2 EQ PUSH3 0x545 JUMPI PUSH1 0x0 DUP5 ISZERO PUSH3 0x530 JUMPI DUP3 DUP8 ADD MLOAD SWAP1 POP JUMPDEST PUSH3 0x53C DUP6 DUP3 PUSH3 0x4AF JUMP JUMPDEST DUP7 SSTORE POP PUSH3 0x5AC JUMP JUMPDEST PUSH1 0x1F NOT DUP5 AND PUSH3 0x555 DUP7 PUSH3 0x2FB JUMP JUMPDEST PUSH1 0x0 JUMPDEST DUP3 DUP2 LT ISZERO PUSH3 0x57F JUMPI DUP5 DUP10 ADD MLOAD DUP3 SSTORE PUSH1 0x1 DUP3 ADD SWAP2 POP PUSH1 0x20 DUP6 ADD SWAP5 POP PUSH1 0x20 DUP2 ADD SWAP1 POP PUSH3 0x558 JUMP JUMPDEST DUP7 DUP4 LT ISZERO PUSH3 0x59F JUMPI DUP5 DUP10 ADD MLOAD PUSH3 0x59B PUSH1 0x1F DUP10 AND DUP3 PUSH3 0x48F JUMP JUMPDEST DUP4 SSTORE POP JUMPDEST PUSH1 0x1 PUSH1 0x2 DUP9 MUL ADD DUP9 SSTORE POP POP POP JUMPDEST POP POP POP POP POP POP JUMP JUMPDEST PUSH2 0x1008 DUP1 PUSH3 0x5C4 PUSH1 0x0 CODECOPY PUSH1 0x0 RETURN INVALID PUSH1 0x80 PUSH1 0x40 MSTORE PUSH1 0x4 CALLDATASIZE LT PUSH2 0x91 JUMPI PUSH1 0x0 CALLDATALOAD PUSH1 0xE0 SHR DUP1 PUSH4 0x2636B945 GT PUSH2 0x59 JUMPI DUP1 PUSH4 0x2636B945 EQ PUSH2 0x159 JUMPI DUP1 PUSH4 0x29DCB0CF EQ PUSH2 0x184 JUMPI DUP1 PUSH4 0x3FEB5F2B EQ PUSH2 0x1AF JUMPI DUP1 PUSH4 0x8DA5CB5B EQ PUSH2 0x1ED JUMPI DUP1 PUSH4 0xB60D4288 EQ PUSH2 0x218 JUMPI PUSH2 0x91 JUMP JUMPDEST DUP1 PUSH4 0x1CB3B20 EQ PUSH2 0x96 JUMPI DUP1 PUSH4 0x12FA6FEB EQ PUSH2 0xAD JUMPI DUP1 PUSH4 0x132AE5E9 EQ PUSH2 0xD8 JUMPI DUP1 PUSH4 0x1A39D8EF EQ PUSH2 0x103 JUMPI DUP1 PUSH4 0x200D2ED2 EQ PUSH2 0x12E JUMPI JUMPDEST PUSH1 0x0 DUP1 REVERT JUMPDEST CALLVALUE DUP1 ISZERO PUSH2 0xA2 JUMPI PUSH1 0x0 DUP1 REVERT JUMPDEST POP PUSH2 0xAB PUSH2 0x222 JUMP JUMPDEST STOP JUMPDEST CALLVALUE DUP1 ISZERO PUSH2 0xB9 JUMPI PUSH1 0x0 DUP1 REVERT JUMPDEST POP PUSH2 0xC2 PUSH2 0x539 JUMP JUMPDEST PUSH1 0x40 MLOAD PUSH2 0xCF SWAP2 SWAP1 PUSH2 0x7CE JUMP JUMPDEST PUSH1 0x40 MLOAD DUP1 SWAP2 SUB SWAP1 RETURN JUMPDEST CALLVALUE DUP1 ISZERO PUSH2 0xE4 JUMPI PUSH1 0x0 DUP1 REVERT JUMPDEST POP PUSH2 0xED PUSH2 0x54C JUMP JUMPDEST PUSH1 0x40 MLOAD PUSH2 0xFA SWAP2 SWAP1 PUSH2 0x802 JUMP JUMPDEST PUSH1 0x40 MLOAD DUP1 SWAP2 SUB SWAP1 RETURN JUMPDEST CALLVALUE DUP1 ISZERO PUSH2 0x10F JUMPI PUSH1 0x0 DUP1 REVERT JUMPDEST POP PUSH2 0x118 PUSH2 0x552 JUMP JUMPDEST PUSH1 0x40 MLOAD PUSH2 0x125 SWAP2 SWAP1 PUSH2 0x802 JUMP JUMPDEST PUSH1 0x40 MLOAD DUP1 SWAP2 SUB SWAP1 RETURN JUMPDEST CALLVALUE DUP1 ISZERO PUSH2 0x13A JUMPI PUSH1 0x0 DUP1 REVERT JUMPDEST POP PUSH2 0x143 PUSH2 0x558 JUMP JUMPDEST PUSH1 0x40 MLOAD PUSH2 0x150 SWAP2 SWAP1 PUSH2 0x8AD JUMP JUMPDEST PUSH1 0x40 MLOAD DUP1 SWAP2 SUB SWAP1 RETURN JUMPDEST CALLVALUE DUP1 ISZERO PUSH2 0x165 JUMPI PUSH1 0x0 DUP1 REVERT JUMPDEST POP PUSH2 0x16E PUSH2 0x5E6 JUMP JUMPDEST PUSH1 0x40 MLOAD PUSH2 0x17B SWAP2 SWAP1 PUSH2 0x802 JUMP JUMPDEST PUSH1 0x40 MLOAD DUP1 SWAP2 SUB SWAP1 RETURN JUMPDEST CALLVALUE DUP1 ISZERO PUSH2 0x190 JUMPI PUSH1 0x0 DUP1 REVERT JUMPDEST POP PUSH2 0x199 PUSH2 0x5EC JUMP JUMPDEST PUSH1 0x40 MLOAD PUSH2 0x1A6 SWAP2 SWAP1 PUSH2 0x802 JUMP JUMPDEST PUSH1 0x40 MLOAD DUP1 SWAP2 SUB SWAP1 RETURN JUMPDEST CALLVALUE DUP1 ISZERO PUSH2 0x1BB JUMPI PUSH1 0x0 DUP1 REVERT JUMPDEST POP PUSH2 0x1D6 PUSH1 0x4 DUP1 CALLDATASIZE SUB DUP2 ADD SWAP1 PUSH2 0x1D1 SWAP2 SWAP1 PUSH2 0x900 JUMP JUMPDEST PUSH2 0x5F2 JUMP JUMPDEST PUSH1 0x40 MLOAD PUSH2 0x1E4 SWAP3 SWAP2 SWAP1 PUSH2 0x96E JUMP JUMPDEST PUSH1 0x40 MLOAD DUP1 SWAP2 SUB SWAP1 RETURN JUMPDEST CALLVALUE DUP1 ISZERO PUSH2 0x1F9 JUMPI PUSH1 0x0 DUP1 REVERT JUMPDEST POP PUSH2 0x202 PUSH2 0x636 JUMP JUMPDEST PUSH1 0x40 MLOAD PUSH2 0x20F SWAP2 SWAP1 PUSH2 0x997 JUMP JUMPDEST PUSH1 0x40 MLOAD DUP1 SWAP2 SUB SWAP1 RETURN JUMPDEST PUSH2 0x220 PUSH2 0x65A JUMP JUMPDEST STOP JUMPDEST CALLER PUSH20 0xFFFFFFFFFFFFFFFFFFFFFFFFFFFFFFFFFFFFFFFF AND PUSH1 0x0 DUP1 SLOAD SWAP1 PUSH2 0x100 EXP SWAP1 DIV PUSH20 0xFFFFFFFFFFFFFFFFFFFFFFFFFFFFFFFFFFFFFFFF AND PUSH20 0xFFFFFFFFFFFFFFFFFFFFFFFFFFFFFFFFFFFFFFFF AND EQ PUSH2 0x2B0 JUMPI PUSH1 0x40 MLOAD PUSH32 0x8C379A000000000000000000000000000000000000000000000000000000000 DUP2 MSTORE PUSH1 0x4 ADD PUSH2 0x2A7 SWAP1 PUSH2 0x9FE JUMP JUMPDEST PUSH1 0x40 MLOAD DUP1 SWAP2 SUB SWAP1 REVERT JUMPDEST PUSH1 0x4 PUSH1 0x0 SWAP1 SLOAD SWAP1 PUSH2 0x100 EXP SWAP1 DIV PUSH1 0xFF AND ISZERO PUSH2 0x300 JUMPI PUSH1 0x40 MLOAD PUSH32 0x8C379A000000000000000000000000000000000000000000000000000000000 DUP2 MSTORE PUSH1 0x4 ADD PUSH2 0x2F7 SWAP1 PUSH2 0xA90 JUMP JUMPDEST PUSH1 0x40 MLOAD DUP1 SWAP2 SUB SWAP1 REVERT JUMPDEST TIMESTAMP PUSH1 0x2 SLOAD GT ISZERO PUSH2 0x345 JUMPI PUSH1 0x40 MLOAD PUSH32 0x8C379A000000000000000000000000000000000000000000000000000000000 DUP2 MSTORE PUSH1 0x4 ADD PUSH2 0x33C SWAP1 PUSH2 0xAFC JUMP JUMPDEST PUSH1 0x40 MLOAD DUP1 SWAP2 SUB SWAP1 REVERT JUMPDEST PUSH1 0x5 SLOAD PUSH1 0x6 SLOAD LT PUSH2 0x422 JUMPI PUSH1 0x0 JUMPDEST PUSH1 0x1 SLOAD DUP2 LT ISZERO PUSH2 0x3D7 JUMPI PUSH1 0x0 DUP1 SLOAD SWAP1 PUSH2 0x100 EXP SWAP1 DIV PUSH20 0xFFFFFFFFFFFFFFFFFFFFFFFFFFFFFFFFFFFFFFFF AND PUSH20 0xFFFFFFFFFFFFFFFFFFFFFFFFFFFFFFFFFFFFFFFF AND PUSH2 0x8FC SELFBALANCE SWAP1 DUP2 ISZERO MUL SWAP1 PUSH1 0x40 MLOAD PUSH1 0x0 PUSH1 0x40 MLOAD DUP1 DUP4 SUB DUP2 DUP6 DUP9 DUP9 CALL SWAP4 POP POP POP POP ISZERO DUP1 ISZERO PUSH2 0x3C3 JUMPI RETURNDATASIZE PUSH1 0x0 DUP1 RETURNDATACOPY RETURNDATASIZE PUSH1 0x0 REVERT JUMPDEST POP DUP1 DUP1 PUSH2 0x3CF SWAP1 PUSH2 0xB4B JUMP JUMPDEST SWAP2 POP POP PUSH2 0x353 JUMP JUMPDEST POP PUSH1 0x40 MLOAD DUP1 PUSH1 0x40 ADD PUSH1 0x40 MSTORE DUP1 PUSH1 0x12 DUP2 MSTORE PUSH1 0x20 ADD PUSH32 0x43616D706169676E205375636365656465640000000000000000000000000000 DUP2 MSTORE POP PUSH1 0x3 SWAP1 DUP2 PUSH2 0x41C SWAP2 SWAP1 PUSH2 0xDCE JUMP JUMPDEST POP PUSH2 0x51C JUMP JUMPDEST PUSH1 0x0 JUMPDEST PUSH1 0x1 SLOAD DUP2 LT ISZERO PUSH2 0x4D5 JUMPI PUSH1 0x7 PUSH1 0x0 DUP3 DUP2 MSTORE PUSH1 0x20 ADD SWAP1 DUP2 MSTORE PUSH1 0x20 ADD PUSH1 0x0 KECCAK256 PUSH1 0x0 ADD PUSH1 0x0 SWAP1 SLOAD SWAP1 PUSH2 0x100 EXP SWAP1 DIV PUSH20 0xFFFFFFFFFFFFFFFFFFFFFFFFFFFFFFFFFFFFFFFF AND PUSH20 0xFFFFFFFFFFFFFFFFFFFFFFFFFFFFFFFFFFFFFFFF AND PUSH2 0x8FC PUSH1 0x7 PUSH1 0x0 DUP5 DUP2 MSTORE PUSH1 0x20 ADD SWAP1 DUP2 MSTORE PUSH1 0x20 ADD PUSH1 0x0 KECCAK256 PUSH1 0x1 ADD SLOAD SWAP1 DUP2 ISZERO MUL SWAP1 PUSH1 0x40 MLOAD PUSH1 0x0 PUSH1 0x40 MLOAD DUP1 DUP4 SUB DUP2 DUP6 DUP9 DUP9 CALL SWAP4 POP POP POP POP ISZERO DUP1 ISZERO PUSH2 0x4C1 JUMPI RETURNDATASIZE PUSH1 0x0 DUP1 RETURNDATACOPY RETURNDATASIZE PUSH1 0x0 REVERT JUMPDEST POP DUP1 DUP1 PUSH2 0x4CD SWAP1 PUSH2 0xB4B JUMP JUMPDEST SWAP2 POP POP PUSH2 0x425 JUMP JUMPDEST POP PUSH1 0x40 MLOAD DUP1 PUSH1 0x40 ADD PUSH1 0x40 MSTORE DUP1 PUSH1 0xF DUP2 MSTORE PUSH1 0x20 ADD PUSH32 0x43616D706169676E204661696C65640000000000000000000000000000000000 DUP2 MSTORE POP PUSH1 0x3 SWAP1 DUP2 PUSH2 0x51A SWAP2 SWAP1 PUSH2 0xDCE JUMP JUMPDEST POP JUMPDEST PUSH1 0x1 PUSH1 0x4 PUSH1 0x0 PUSH2 0x100 EXP DUP2 SLOAD DUP2 PUSH1 0xFF MUL NOT AND SWAP1 DUP4 ISZERO ISZERO MUL OR SWAP1 SSTORE POP JUMP JUMPDEST PUSH1 0x4 PUSH1 0x0 SWAP1 SLOAD SWAP1 PUSH2 0x100 EXP SWAP1 DIV PUSH1 0xFF AND DUP2 JUMP JUMPDEST PUSH1 0x1 SLOAD DUP2 JUMP JUMPDEST PUSH1 0x6 SLOAD DUP2 JUMP JUMPDEST PUSH1 0x3 DUP1 SLOAD PUSH2 0x565 SWAP1 PUSH2 0xBF1 JUMP JUMPDEST DUP1 PUSH1 0x1F ADD PUSH1 0x20 DUP1 SWAP2 DIV MUL PUSH1 0x20 ADD PUSH1 0x40 MLOAD SWAP1 DUP2 ADD PUSH1 0x40 MSTORE DUP1 SWAP3 SWAP2 SWAP1 DUP2 DUP2 MSTORE PUSH1 0x20 ADD DUP3 DUP1 SLOAD PUSH2 0x591 SWAP1 PUSH2 0xBF1 JUMP JUMPDEST DUP1 ISZERO PUSH2 0x5DE JUMPI DUP1 PUSH1 0x1F LT PUSH2 0x5B3 JUMPI PUSH2 0x100 DUP1 DUP4 SLOAD DIV MUL DUP4 MSTORE SWAP2 PUSH1 0x20 ADD SWAP2 PUSH2 0x5DE JUMP JUMPDEST DUP3 ADD SWAP2 SWAP1 PUSH1 0x0 MSTORE PUSH1 0x20 PUSH1 0x0 KECCAK256 SWAP1 JUMPDEST DUP2 SLOAD DUP2 MSTORE SWAP1 PUSH1 0x1 ADD SWAP1 PUSH1 0x20 ADD DUP1 DUP4 GT PUSH2 0x5C1 JUMPI DUP3 SWAP1 SUB PUSH1 0x1F AND DUP3 ADD SWAP2 JUMPDEST POP POP POP POP POP DUP2 JUMP JUMPDEST PUSH1 0x5 SLOAD DUP2 JUMP JUMPDEST PUSH1 0x2 SLOAD DUP2 JUMP JUMPDEST PUSH1 0x7 PUSH1 0x20 MSTORE DUP1 PUSH1 0x0 MSTORE PUSH1 0x40 PUSH1 0x0 KECCAK256 PUSH1 0x0 SWAP2 POP SWAP1 POP DUP1 PUSH1 0x0 ADD PUSH1 0x0 SWAP1 SLOAD SWAP1 PUSH2 0x100 EXP SWAP1 DIV PUSH20 0xFFFFFFFFFFFFFFFFFFFFFFFFFFFFFFFFFFFFFFFF AND SWAP1 DUP1 PUSH1 0x1 ADD SLOAD SWAP1 POP DUP3 JUMP JUMPDEST PUSH1 0x0 DUP1 SLOAD SWAP1 PUSH2 0x100 EXP SWAP1 DIV PUSH20 0xFFFFFFFFFFFFFFFFFFFFFFFFFFFFFFFFFFFFFFFF AND DUP2 JUMP JUMPDEST PUSH1 0x0 CALLVALUE GT PUSH2 0x69D JUMPI PUSH1 0x40 MLOAD PUSH32 0x8C379A000000000000000000000000000000000000000000000000000000000 DUP2 MSTORE PUSH1 0x4 ADD PUSH2 0x694 SWAP1 PUSH2 0xF12 JUMP JUMPDEST PUSH1 0x40 MLOAD DUP1 SWAP2 SUB SWAP1 REVERT JUMPDEST PUSH1 0x0 ISZERO ISZERO PUSH1 0x4 PUSH1 0x0 SWAP1 SLOAD SWAP1 PUSH2 0x100 EXP SWAP1 DIV PUSH1 0xFF AND ISZERO ISZERO EQ PUSH2 0x6F3 JUMPI PUSH1 0x40 MLOAD PUSH32 0x8C379A000000000000000000000000000000000000000000000000000000000 DUP2 MSTORE PUSH1 0x4 ADD PUSH2 0x6EA SWAP1 PUSH2 0xF7E JUMP JUMPDEST PUSH1 0x40 MLOAD DUP1 SWAP2 SUB SWAP1 REVERT JUMPDEST CALLER PUSH1 0x7 PUSH1 0x0 PUSH1 0x1 SLOAD DUP2 MSTORE PUSH1 0x20 ADD SWAP1 DUP2 MSTORE PUSH1 0x20 ADD PUSH1 0x0 KECCAK256 PUSH1 0x0 ADD PUSH1 0x0 PUSH2 0x100 EXP DUP2 SLOAD DUP2 PUSH20 0xFFFFFFFFFFFFFFFFFFFFFFFFFFFFFFFFFFFFFFFF MUL NOT AND SWAP1 DUP4 PUSH20 0xFFFFFFFFFFFFFFFFFFFFFFFFFFFFFFFFFFFFFFFF AND MUL OR SWAP1 SSTORE POP CALLVALUE PUSH1 0x7 PUSH1 0x0 PUSH1 0x1 SLOAD DUP2 MSTORE PUSH1 0x20 ADD SWAP1 DUP2 MSTORE PUSH1 0x20 ADD PUSH1 0x0 KECCAK256 PUSH1 0x1 ADD DUP2 SWAP1 SSTORE POP PUSH1 0x7 PUSH1 0x0 PUSH1 0x1 SLOAD DUP2 MSTORE PUSH1 0x20 ADD SWAP1 DUP2 MSTORE PUSH1 0x20 ADD PUSH1 0x0 KECCAK256 PUSH1 0x1 ADD SLOAD PUSH1 0x6 PUSH1 0x0 DUP3 DUP3 SLOAD PUSH2 0x791 SWAP2 SWAP1 PUSH2 0xF9E JUMP JUMPDEST SWAP3 POP POP DUP2 SWAP1 SSTORE POP PUSH1 0x1 DUP1 PUSH1 0x0 DUP3 DUP3 SLOAD PUSH2 0x7AA SWAP2 SWAP1 PUSH2 0xF9E JUMP JUMPDEST SWAP3 POP POP DUP2 SWAP1 SSTORE POP JUMP JUMPDEST PUSH1 0x0 DUP2 ISZERO ISZERO SWAP1 POP SWAP2 SWAP1 POP JUMP JUMPDEST PUSH2 0x7C8 DUP2 PUSH2 0x7B3 JUMP JUMPDEST DUP3 MSTORE POP POP JUMP JUMPDEST PUSH1 0x0 PUSH1 0x20 DUP3 ADD SWAP1 POP PUSH2 0x7E3 PUSH1 0x0 DUP4 ADD DUP5 PUSH2 0x7BF JUMP JUMPDEST SWAP3 SWAP2 POP POP JUMP JUMPDEST PUSH1 0x0 DUP2 SWAP1 POP SWAP2 SWAP1 POP JUMP JUMPDEST PUSH2 0x7FC DUP2 PUSH2 0x7E9 JUMP JUMPDEST DUP3 MSTORE POP POP JUMP JUMPDEST PUSH1 0x0 PUSH1 0x20 DUP3 ADD SWAP1 POP PUSH2 0x817 PUSH1 0x0 DUP4 ADD DUP5 PUSH2 0x7F3 JUMP JUMPDEST SWAP3 SWAP2 POP POP JUMP JUMPDEST PUSH1 0x0 DUP2 MLOAD SWAP1 POP SWAP2 SWAP1 POP JUMP JUMPDEST PUSH1 0x0 DUP3 DUP3 MSTORE PUSH1 0x20 DUP3 ADD SWAP1 POP SWAP3 SWAP2 POP POP JUMP JUMPDEST PUSH1 0x0 JUMPDEST DUP4 DUP2 LT ISZERO PUSH2 0x857 JUMPI DUP1 DUP3 ADD MLOAD DUP2 DUP5 ADD MSTORE PUSH1 0x20 DUP2 ADD SWAP1 POP PUSH2 0x83C JUMP JUMPDEST PUSH1 0x0 DUP5 DUP5 ADD MSTORE POP POP POP POP JUMP JUMPDEST PUSH1 0x0 PUSH1 0x1F NOT PUSH1 0x1F DUP4 ADD AND SWAP1 POP SWAP2 SWAP1 POP JUMP JUMPDEST PUSH1 0x0 PUSH2 0x87F DUP3 PUSH2 0x81D JUMP JUMPDEST PUSH2 0x889 DUP2 DUP6 PUSH2 0x828 JUMP JUMPDEST SWAP4 POP PUSH2 0x899 DUP2 DUP6 PUSH1 0x20 DUP7 ADD PUSH2 0x839 JUMP JUMPDEST PUSH2 0x8A2 DUP2 PUSH2 0x863 JUMP JUMPDEST DUP5 ADD SWAP2 POP POP SWAP3 SWAP2 POP POP JUMP JUMPDEST PUSH1 0x0 PUSH1 0x20 DUP3 ADD SWAP1 POP DUP2 DUP2 SUB PUSH1 0x0 DUP4 ADD MSTORE PUSH2 0x8C7 DUP2 DUP5 PUSH2 0x874 JUMP JUMPDEST SWAP1 POP SWAP3 SWAP2 POP POP JUMP JUMPDEST PUSH1 0x0 DUP1 REVERT JUMPDEST PUSH2 0x8DD DUP2 PUSH2 0x7E9 JUMP JUMPDEST DUP2 EQ PUSH2 0x8E8 JUMPI PUSH1 0x0 DUP1 REVERT JUMPDEST POP JUMP JUMPDEST PUSH1 0x0 DUP2 CALLDATALOAD SWAP1 POP PUSH2 0x8FA DUP2 PUSH2 0x8D4 JUMP JUMPDEST SWAP3 SWAP2 POP POP JUMP JUMPDEST PUSH1 0x0 PUSH1 0x20 DUP3 DUP5 SUB SLT ISZERO PUSH2 0x916 JUMPI PUSH2 0x915 PUSH2 0x8CF JUMP JUMPDEST JUMPDEST PUSH1 0x0 PUSH2 0x924 DUP5 DUP3 DUP6 ADD PUSH2 0x8EB JUMP JUMPDEST SWAP2 POP POP SWAP3 SWAP2 POP POP JUMP JUMPDEST PUSH1 0x0 PUSH20 0xFFFFFFFFFFFFFFFFFFFFFFFFFFFFFFFFFFFFFFFF DUP3 AND SWAP1 POP SWAP2 SWAP1 POP JUMP JUMPDEST PUSH1 0x0 PUSH2 0x958 DUP3 PUSH2 0x92D JUMP JUMPDEST SWAP1 POP SWAP2 SWAP1 POP JUMP JUMPDEST PUSH2 0x968 DUP2 PUSH2 0x94D JUMP JUMPDEST DUP3 MSTORE POP POP JUMP JUMPDEST PUSH1 0x0 PUSH1 0x40 DUP3 ADD SWAP1 POP PUSH2 0x983 PUSH1 0x0 DUP4 ADD DUP6 PUSH2 0x95F JUMP JUMPDEST PUSH2 0x990 PUSH1 0x20 DUP4 ADD DUP5 PUSH2 0x7F3 JUMP JUMPDEST SWAP4 SWAP3 POP POP POP JUMP JUMPDEST PUSH1 0x0 PUSH1 0x20 DUP3 ADD SWAP1 POP PUSH2 0x9AC PUSH1 0x0 DUP4 ADD DUP5 PUSH2 0x95F JUMP JUMPDEST SWAP3 SWAP2 POP POP JUMP JUMPDEST PUSH32 0x4572726F72203A2063616C6C6572206973206E6F7420746865206F776E657200 PUSH1 0x0 DUP3 ADD MSTORE POP JUMP JUMPDEST PUSH1 0x0 PUSH2 0x9E8 PUSH1 0x1F DUP4 PUSH2 0x828 JUMP JUMPDEST SWAP2 POP PUSH2 0x9F3 DUP3 PUSH2 0x9B2 JUMP JUMPDEST PUSH1 0x20 DUP3 ADD SWAP1 POP SWAP2 SWAP1 POP JUMP JUMPDEST PUSH1 0x0 PUSH1 0x20 DUP3 ADD SWAP1 POP DUP2 DUP2 SUB PUSH1 0x0 DUP4 ADD MSTORE PUSH2 0xA17 DUP2 PUSH2 0x9DB JUMP JUMPDEST SWAP1 POP SWAP2 SWAP1 POP JUMP JUMPDEST PUSH32 0x4572726F72203A205468652066756E64206973206E6F7420656E646564207965 PUSH1 0x0 DUP3 ADD MSTORE PUSH32 0x7400000000000000000000000000000000000000000000000000000000000000 PUSH1 0x20 DUP3 ADD MSTORE POP JUMP JUMPDEST PUSH1 0x0 PUSH2 0xA7A PUSH1 0x21 DUP4 PUSH2 0x828 JUMP JUMPDEST SWAP2 POP PUSH2 0xA85 DUP3 PUSH2 0xA1E JUMP JUMPDEST PUSH1 0x40 DUP3 ADD SWAP1 POP SWAP2 SWAP1 POP JUMP JUMPDEST PUSH1 0x0 PUSH1 0x20 DUP3 ADD SWAP1 POP DUP2 DUP2 SUB PUSH1 0x0 DUP4 ADD MSTORE PUSH2 0xAA9 DUP2 PUSH2 0xA6D JUMP JUMPDEST SWAP1 POP SWAP2 SWAP1 POP JUMP JUMPDEST PUSH32 0x4572726F723A205468652066756E64206973206E6F7420656E64656420796574 PUSH1 0x0 DUP3 ADD MSTORE POP JUMP JUMPDEST PUSH1 0x0 PUSH2 0xAE6 PUSH1 0x20 DUP4 PUSH2 0x828 JUMP JUMPDEST SWAP2 POP PUSH2 0xAF1 DUP3 PUSH2 0xAB0 JUMP JUMPDEST PUSH1 0x20 DUP3 ADD SWAP1 POP SWAP2 SWAP1 POP JUMP JUMPDEST PUSH1 0x0 PUSH1 0x20 DUP3 ADD SWAP1 POP DUP2 DUP2 SUB PUSH1 0x0 DUP4 ADD MSTORE PUSH2 0xB15 DUP2 PUSH2 0xAD9 JUMP JUMPDEST SWAP1 POP SWAP2 SWAP1 POP JUMP JUMPDEST PUSH32 0x4E487B7100000000000000000000000000000000000000000000000000000000 PUSH1 0x0 MSTORE PUSH1 0x11 PUSH1 0x4 MSTORE PUSH1 0x24 PUSH1 0x0 REVERT JUMPDEST PUSH1 0x0 PUSH2 0xB56 DUP3 PUSH2 0x7E9 JUMP JUMPDEST SWAP2 POP PUSH32 0xFFFFFFFFFFFFFFFFFFFFFFFFFFFFFFFFFFFFFFFFFFFFFFFFFFFFFFFFFFFFFFFF DUP3 SUB PUSH2 0xB88 JUMPI PUSH2 0xB87 PUSH2 0xB1C JUMP JUMPDEST JUMPDEST PUSH1 0x1 DUP3 ADD SWAP1 POP SWAP2 SWAP1 POP JUMP JUMPDEST PUSH32 0x4E487B7100000000000000000000000000000000000000000000000000000000 PUSH1 0x0 MSTORE PUSH1 0x41 PUSH1 0x4 MSTORE PUSH1 0x24 PUSH1 0x0 REVERT JUMPDEST PUSH32 0x4E487B7100000000000000000000000000000000000000000000000000000000 PUSH1 0x0 MSTORE PUSH1 0x22 PUSH1 0x4 MSTORE PUSH1 0x24 PUSH1 0x0 REVERT JUMPDEST PUSH1 0x0 PUSH1 0x2 DUP3 DIV SWAP1 POP PUSH1 0x1 DUP3 AND DUP1 PUSH2 0xC09 JUMPI PUSH1 0x7F DUP3 AND SWAP2 POP JUMPDEST PUSH1 0x20 DUP3 LT DUP2 SUB PUSH2 0xC1C JUMPI PUSH2 0xC1B PUSH2 0xBC2 JUMP JUMPDEST JUMPDEST POP SWAP2 SWAP1 POP JUMP JUMPDEST PUSH1 0x0 DUP2 SWAP1 POP DUP2 PUSH1 0x0 MSTORE PUSH1 0x20 PUSH1 0x0 KECCAK256 SWAP1 POP SWAP2 SWAP1 POP JUMP JUMPDEST PUSH1 0x0 PUSH1 0x20 PUSH1 0x1F DUP4 ADD DIV SWAP1 POP SWAP2 SWAP1 POP JUMP JUMPDEST PUSH1 0x0 DUP3 DUP3 SHL SWAP1 POP SWAP3 SWAP2 POP POP JUMP JUMPDEST PUSH1 0x0 PUSH1 0x8 DUP4 MUL PUSH2 0xC84 PUSH32 0xFFFFFFFFFFFFFFFFFFFFFFFFFFFFFFFFFFFFFFFFFFFFFFFFFFFFFFFFFFFFFFFF DUP3 PUSH2 0xC47 JUMP JUMPDEST PUSH2 0xC8E DUP7 DUP4 PUSH2 0xC47 JUMP JUMPDEST SWAP6 POP DUP1 NOT DUP5 AND SWAP4 POP DUP1 DUP7 AND DUP5 OR SWAP3 POP POP POP SWAP4 SWAP3 POP POP POP JUMP JUMPDEST PUSH1 0x0 DUP2 SWAP1 POP SWAP2 SWAP1 POP JUMP JUMPDEST PUSH1 0x0 PUSH2 0xCCB PUSH2 0xCC6 PUSH2 0xCC1 DUP5 PUSH2 0x7E9 JUMP JUMPDEST PUSH2 0xCA6 JUMP JUMPDEST PUSH2 0x7E9 JUMP JUMPDEST SWAP1 POP SWAP2 SWAP1 POP JUMP JUMPDEST PUSH1 0x0 DUP2 SWAP1 POP SWAP2 SWAP1 POP JUMP JUMPDEST PUSH2 0xCE5 DUP4 PUSH2 0xCB0 JUMP JUMPDEST PUSH2 0xCF9 PUSH2 0xCF1 DUP3 PUSH2 0xCD2 JUMP JUMPDEST DUP5 DUP5 SLOAD PUSH2 0xC54 JUMP JUMPDEST DUP3 SSTORE POP POP POP POP JUMP JUMPDEST PUSH1 0x0 SWAP1 JUMP JUMPDEST PUSH2 0xD0E PUSH2 0xD01 JUMP JUMPDEST PUSH2 0xD19 DUP2 DUP5 DUP5 PUSH2 0xCDC JUMP JUMPDEST POP POP POP JUMP JUMPDEST JUMPDEST DUP2 DUP2 LT ISZERO PUSH2 0xD3D JUMPI PUSH2 0xD32 PUSH1 0x0 DUP3 PUSH2 0xD06 JUMP JUMPDEST PUSH1 0x1 DUP2 ADD SWAP1 POP PUSH2 0xD1F JUMP JUMPDEST POP POP JUMP JUMPDEST PUSH1 0x1F DUP3 GT ISZERO PUSH2 0xD82 JUMPI PUSH2 0xD53 DUP2 PUSH2 0xC22 JUMP JUMPDEST PUSH2 0xD5C DUP5 PUSH2 0xC37 JUMP JUMPDEST DUP2 ADD PUSH1 0x20 DUP6 LT ISZERO PUSH2 0xD6B JUMPI DUP2 SWAP1 POP JUMPDEST PUSH2 0xD7F PUSH2 0xD77 DUP6 PUSH2 0xC37 JUMP JUMPDEST DUP4 ADD DUP3 PUSH2 0xD1E JUMP JUMPDEST POP POP JUMPDEST POP POP POP JUMP JUMPDEST PUSH1 0x0 DUP3 DUP3 SHR SWAP1 POP SWAP3 SWAP2 POP POP JUMP JUMPDEST PUSH1 0x0 PUSH2 0xDA5 PUSH1 0x0 NOT DUP5 PUSH1 0x8 MUL PUSH2 0xD87 JUMP JUMPDEST NOT DUP1 DUP4 AND SWAP2 POP POP SWAP3 SWAP2 POP POP JUMP JUMPDEST PUSH1 0x0 PUSH2 0xDBE DUP4 DUP4 PUSH2 0xD94 JUMP JUMPDEST SWAP2 POP DUP3 PUSH1 0x2 MUL DUP3 OR SWAP1 POP SWAP3 SWAP2 POP POP JUMP JUMPDEST PUSH2 0xDD7 DUP3 PUSH2 0x81D JUMP JUMPDEST PUSH8 0xFFFFFFFFFFFFFFFF DUP2 GT ISZERO PUSH2 0xDF0 JUMPI PUSH2 0xDEF PUSH2 0xB93 JUMP JUMPDEST JUMPDEST PUSH2 0xDFA DUP3 SLOAD PUSH2 0xBF1 JUMP JUMPDEST PUSH2 0xE05 DUP3 DUP3 DUP6 PUSH2 0xD41 JUMP JUMPDEST PUSH1 0x0 PUSH1 0x20 SWAP1 POP PUSH1 0x1F DUP4 GT PUSH1 0x1 DUP2 EQ PUSH2 0xE38 JUMPI PUSH1 0x0 DUP5 ISZERO PUSH2 0xE26 JUMPI DUP3 DUP8 ADD MLOAD SWAP1 POP JUMPDEST PUSH2 0xE30 DUP6 DUP3 PUSH2 0xDB2 JUMP JUMPDEST DUP7 SSTORE POP PUSH2 0xE98 JUMP JUMPDEST PUSH1 0x1F NOT DUP5 AND PUSH2 0xE46 DUP7 PUSH2 0xC22 JUMP JUMPDEST PUSH1 0x0 JUMPDEST DUP3 DUP2 LT ISZERO PUSH2 0xE6E JUMPI DUP5 DUP10 ADD MLOAD DUP3 SSTORE PUSH1 0x1 DUP3 ADD SWAP2 POP PUSH1 0x20 DUP6 ADD SWAP5 POP PUSH1 0x20 DUP2 ADD SWAP1 POP PUSH2 0xE49 JUMP JUMPDEST DUP7 DUP4 LT ISZERO PUSH2 0xE8B JUMPI DUP5 DUP10 ADD MLOAD PUSH2 0xE87 PUSH1 0x1F DUP10 AND DUP3 PUSH2 0xD94 JUMP JUMPDEST DUP4 SSTORE POP JUMPDEST PUSH1 0x1 PUSH1 0x2 DUP9 MUL ADD DUP9 SSTORE POP POP POP JUMPDEST POP POP POP POP POP POP JUMP JUMPDEST PUSH32 0x4572726F723A2056616C7565206D757374206265206772656174657220746861 PUSH1 0x0 DUP3 ADD MSTORE PUSH32 0x6E20300000000000000000000000000000000000000000000000000000000000 PUSH1 0x20 DUP3 ADD MSTORE POP JUMP JUMPDEST PUSH1 0x0 PUSH2 0xEFC PUSH1 0x23 DUP4 PUSH2 0x828 JUMP JUMPDEST SWAP2 POP PUSH2 0xF07 DUP3 PUSH2 0xEA0 JUMP JUMPDEST PUSH1 0x40 DUP3 ADD SWAP1 POP SWAP2 SWAP1 POP JUMP JUMPDEST PUSH1 0x0 PUSH1 0x20 DUP3 ADD SWAP1 POP DUP2 DUP2 SUB PUSH1 0x0 DUP4 ADD MSTORE PUSH2 0xF2B DUP2 PUSH2 0xEEF JUMP JUMPDEST SWAP1 POP SWAP2 SWAP1 POP JUMP JUMPDEST PUSH32 0x4572726F723A205468652066756E6420697320656E6465640000000000000000 PUSH1 0x0 DUP3 ADD MSTORE POP JUMP JUMPDEST PUSH1 0x0 PUSH2 0xF68 PUSH1 0x18 DUP4 PUSH2 0x828 JUMP JUMPDEST SWAP2 POP PUSH2 0xF73 DUP3 PUSH2 0xF32 JUMP JUMPDEST PUSH1 0x20 DUP3 ADD SWAP1 POP SWAP2 SWAP1 POP JUMP JUMPDEST PUSH1 0x0 PUSH1 0x20 DUP3 ADD SWAP1 POP DUP2 DUP2 SUB PUSH1 0x0 DUP4 ADD MSTORE PUSH2 0xF97 DUP2 PUSH2 0xF5B JUMP JUMPDEST SWAP1 POP SWAP2 SWAP1 POP JUMP JUMPDEST PUSH1 0x0 PUSH2 0xFA9 DUP3 PUSH2 0x7E9 JUMP JUMPDEST SWAP2 POP PUSH2 0xFB4 DUP4 PUSH2 0x7E9 JUMP JUMPDEST SWAP3 POP DUP3 DUP3 ADD SWAP1 POP DUP1 DUP3 GT ISZERO PUSH2 0xFCC JUMPI PUSH2 0xFCB PUSH2 0xB1C JUMP JUMPDEST JUMPDEST SWAP3 SWAP2 POP POP JUMP INVALID LOG2 PUSH5 0x6970667358 0x22 SLT KECCAK256 PUSH5 0xFCA4062F95 0xE3 0xBB 0x4F ADDRESS PUSH23 0xC9E89926E87F25B1EA8F66306AC478AE289ABAA48B6473 PUSH16 0x6C634300081200330000000000000000 "
				},
				"gasEstimates": {
					"creation": {
						"codeDepositCost": "820800",
						"executionCost": "infinite",
						"totalCost": "infinite"
					},
					"external": {
						"checkGoalReached()": "infinite",
						"deadline()": "2451",
						"ended()": "2494",
						"fund()": "infinite",
						"goalAmount()": "2429",
						"investors(uint256)": "infinite",
						"numInvestors()": "2474",
						"owner()": "2577",
						"status()": "infinite",
						"totalAmount()": "2496"
					}
				},
				"methodIdentifiers": {
					"checkGoalReached()": "01cb3b20",
					"deadline()": "29dcb0cf",
					"ended()": "12fa6feb",
					"fund()": "b60d4288",
					"goalAmount()": "2636b945",
					"investors(uint256)": "3feb5f2b",
					"numInvestors()": "132ae5e9",
					"owner()": "8da5cb5b",
					"status()": "200d2ed2",
					"totalAmount()": "1a39d8ef"
				}
			},
			"storageLayout": {
				"storage": [
					{
						"astId": 8,
						"contract": "Lecture Note/week09/CrowdFunding.sol:CrowdFund",
						"label": "owner",
						"offset": 0,
						"slot": "0",
						"type": "t_address"
					},
					{
						"astId": 10,
						"contract": "Lecture Note/week09/CrowdFunding.sol:CrowdFund",
						"label": "numInvestors",
						"offset": 0,
						"slot": "1",
						"type": "t_uint256"
					},
					{
						"astId": 12,
						"contract": "Lecture Note/week09/CrowdFunding.sol:CrowdFund",
						"label": "deadline",
						"offset": 0,
						"slot": "2",
						"type": "t_uint256"
					},
					{
						"astId": 14,
						"contract": "Lecture Note/week09/CrowdFunding.sol:CrowdFund",
						"label": "status",
						"offset": 0,
						"slot": "3",
						"type": "t_string_storage"
					},
					{
						"astId": 16,
						"contract": "Lecture Note/week09/CrowdFunding.sol:CrowdFund",
						"label": "ended",
						"offset": 0,
						"slot": "4",
						"type": "t_bool"
					},
					{
						"astId": 18,
						"contract": "Lecture Note/week09/CrowdFunding.sol:CrowdFund",
						"label": "goalAmount",
						"offset": 0,
						"slot": "5",
						"type": "t_uint256"
					},
					{
						"astId": 20,
						"contract": "Lecture Note/week09/CrowdFunding.sol:CrowdFund",
						"label": "totalAmount",
						"offset": 0,
						"slot": "6",
						"type": "t_uint256"
					},
					{
						"astId": 25,
						"contract": "Lecture Note/week09/CrowdFunding.sol:CrowdFund",
						"label": "investors",
						"offset": 0,
						"slot": "7",
						"type": "t_mapping(t_uint256,t_struct(Investor)6_storage)"
					}
				],
				"types": {
					"t_address": {
						"encoding": "inplace",
						"label": "address",
						"numberOfBytes": "20"
					},
					"t_bool": {
						"encoding": "inplace",
						"label": "bool",
						"numberOfBytes": "1"
					},
					"t_mapping(t_uint256,t_struct(Investor)6_storage)": {
						"encoding": "mapping",
						"key": "t_uint256",
						"label": "mapping(uint256 => struct CrowdFund.Investor)",
						"numberOfBytes": "32",
						"value": "t_struct(Investor)6_storage"
					},
					"t_string_storage": {
						"encoding": "bytes",
						"label": "string",
						"numberOfBytes": "32"
					},
					"t_struct(Investor)6_storage": {
						"encoding": "inplace",
						"label": "struct CrowdFund.Investor",
						"members": [
							{
								"astId": 3,
								"contract": "Lecture Note/week09/CrowdFunding.sol:CrowdFund",
								"label": "addr",
								"offset": 0,
								"slot": "0",
								"type": "t_address"
							},
							{
								"astId": 5,
								"contract": "Lecture Note/week09/CrowdFunding.sol:CrowdFund",
								"label": "amount",
								"offset": 0,
								"slot": "1",
								"type": "t_uint256"
							}
						],
						"numberOfBytes": "64"
					},
					"t_uint256": {
						"encoding": "inplace",
						"label": "uint256",
						"numberOfBytes": "32"
					}
				}
			},
			"userdoc": {
				"kind": "user",
				"methods": {},
				"version": 1
			}
		}
	}
}