{
	"Textbook/Chapter8/quiz3.sol": {
		"quiz3": {
			"abi": [
				{
					"inputs": [],
					"name": "lightStatus",
					"outputs": [
						{
							"internalType": "enum quiz3.Switch",
							"name": "",
							"type": "uint8"
						}
					],
					"stateMutability": "view",
					"type": "function"
				},
				{
					"inputs": [],
					"name": "turnOffTheLight",
					"outputs": [],
					"stateMutability": "nonpayable",
					"type": "function"
				},
				{
					"inputs": [],
					"name": "turnOnTheLight",
					"outputs": [],
					"stateMutability": "nonpayable",
					"type": "function"
				}
			],
			"devdoc": {
				"kind": "dev",
				"methods": {},
				"version": 1
			},
			"evm": {
				"assembly": "    /* \"Textbook/Chapter8/quiz3.sol\":57:549  contract quiz3 {... */\n  mstore(0x40, 0x80)\n    /* \"Textbook/Chapter8/quiz3.sol\":163:176  Switch.turnOn */\n  0x01\n    /* \"Textbook/Chapter8/quiz3.sol\":135:176  Switch public lightStatus = Switch.turnOn */\n  0x00\n  dup1\n  0x0100\n  exp\n  dup2\n  sload\n  dup2\n  0xff\n  mul\n  not\n  and\n  swap1\n  dup4\n  0x01\n  dup2\n  gt\n  iszero\n  tag_1\n  jumpi\n  tag_2\n  tag_3\n  jump\t// in\ntag_2:\ntag_1:\n  mul\n  or\n  swap1\n  sstore\n  pop\n    /* \"Textbook/Chapter8/quiz3.sol\":57:549  contract quiz3 {... */\n  callvalue\n  dup1\n  iszero\n  tag_4\n  jumpi\n  0x00\n  dup1\n  revert\ntag_4:\n  pop\n  jump(tag_5)\n    /* \"#utility.yul\":7:187   */\ntag_3:\n    /* \"#utility.yul\":55:132   */\n  0x4e487b7100000000000000000000000000000000000000000000000000000000\n    /* \"#utility.yul\":52:53   */\n  0x00\n    /* \"#utility.yul\":45:133   */\n  mstore\n    /* \"#utility.yul\":152:156   */\n  0x21\n    /* \"#utility.yul\":149:150   */\n  0x04\n    /* \"#utility.yul\":142:157   */\n  mstore\n    /* \"#utility.yul\":176:180   */\n  0x24\n    /* \"#utility.yul\":173:174   */\n  0x00\n    /* \"#utility.yul\":166:181   */\n  revert\n    /* \"Textbook/Chapter8/quiz3.sol\":57:549  contract quiz3 {... */\ntag_5:\n  dataSize(sub_0)\n  dup1\n  dataOffset(sub_0)\n  0x00\n  codecopy\n  0x00\n  return\nstop\n\nsub_0: assembly {\n        /* \"Textbook/Chapter8/quiz3.sol\":57:549  contract quiz3 {... */\n      mstore(0x40, 0x80)\n      callvalue\n      dup1\n      iszero\n      tag_1\n      jumpi\n      0x00\n      dup1\n      revert\n    tag_1:\n      pop\n      jumpi(tag_2, lt(calldatasize, 0x04))\n      shr(0xe0, calldataload(0x00))\n      dup1\n      0x1bb4362b\n      eq\n      tag_3\n      jumpi\n      dup1\n      0x3f11fb99\n      eq\n      tag_4\n      jumpi\n      dup1\n      0xdd6fde70\n      eq\n      tag_5\n      jumpi\n    tag_2:\n      0x00\n      dup1\n      revert\n        /* \"Textbook/Chapter8/quiz3.sol\":183:360  function turnOnTheLight()... */\n    tag_3:\n      tag_6\n      tag_7\n      jump\t// in\n    tag_6:\n      stop\n        /* \"Textbook/Chapter8/quiz3.sol\":370:547  function turnOffTheLight()... */\n    tag_4:\n      tag_8\n      tag_9\n      jump\t// in\n    tag_8:\n      stop\n        /* \"Textbook/Chapter8/quiz3.sol\":135:176  Switch public lightStatus = Switch.turnOn */\n    tag_5:\n      tag_10\n      tag_11\n      jump\t// in\n    tag_10:\n      mload(0x40)\n      tag_12\n      swap2\n      swap1\n      tag_13\n      jump\t// in\n    tag_12:\n      mload(0x40)\n      dup1\n      swap2\n      sub\n      swap1\n      return\n        /* \"Textbook/Chapter8/quiz3.sol\":183:360  function turnOnTheLight()... */\n    tag_7:\n        /* \"Textbook/Chapter8/quiz3.sol\":261:275  Switch.turnOff */\n      0x00\n        /* \"Textbook/Chapter8/quiz3.sol\":246:275  lightStatus == Switch.turnOff */\n      0x01\n      dup2\n      gt\n      iszero\n      tag_15\n      jumpi\n      tag_16\n      tag_17\n      jump\t// in\n    tag_16:\n    tag_15:\n        /* \"Textbook/Chapter8/quiz3.sol\":246:257  lightStatus */\n      0x00\n      dup1\n      sload\n      swap1\n      0x0100\n      exp\n      swap1\n      div\n      0xff\n      and\n        /* \"Textbook/Chapter8/quiz3.sol\":246:275  lightStatus == Switch.turnOff */\n      0x01\n      dup2\n      gt\n      iszero\n      tag_18\n      jumpi\n      tag_19\n      tag_17\n      jump\t// in\n    tag_19:\n    tag_18:\n      eq\n        /* \"Textbook/Chapter8/quiz3.sol\":238:308  require(lightStatus == Switch.turnOff, \"The light must be turned off\") */\n      tag_20\n      jumpi\n      mload(0x40)\n      0x08c379a000000000000000000000000000000000000000000000000000000000\n      dup2\n      mstore\n      0x04\n      add\n      tag_21\n      swap1\n      tag_22\n      jump\t// in\n    tag_21:\n      mload(0x40)\n      dup1\n      swap2\n      sub\n      swap1\n      revert\n    tag_20:\n        /* \"Textbook/Chapter8/quiz3.sol\":336:349  Switch.turnOn */\n      0x01\n        /* \"Textbook/Chapter8/quiz3.sol\":322:333  lightStatus */\n      0x00\n      dup1\n        /* \"Textbook/Chapter8/quiz3.sol\":322:349  lightStatus = Switch.turnOn */\n      0x0100\n      exp\n      dup2\n      sload\n      dup2\n      0xff\n      mul\n      not\n      and\n      swap1\n      dup4\n      0x01\n      dup2\n      gt\n      iszero\n      tag_23\n      jumpi\n      tag_24\n      tag_17\n      jump\t// in\n    tag_24:\n    tag_23:\n      mul\n      or\n      swap1\n      sstore\n      pop\n        /* \"Textbook/Chapter8/quiz3.sol\":183:360  function turnOnTheLight()... */\n      jump\t// out\n        /* \"Textbook/Chapter8/quiz3.sol\":370:547  function turnOffTheLight()... */\n    tag_9:\n        /* \"Textbook/Chapter8/quiz3.sol\":449:462  Switch.turnOn */\n      0x01\n        /* \"Textbook/Chapter8/quiz3.sol\":434:462  lightStatus == Switch.turnOn */\n      dup1\n      dup2\n      gt\n      iszero\n      tag_26\n      jumpi\n      tag_27\n      tag_17\n      jump\t// in\n    tag_27:\n    tag_26:\n        /* \"Textbook/Chapter8/quiz3.sol\":434:445  lightStatus */\n      0x00\n      dup1\n      sload\n      swap1\n      0x0100\n      exp\n      swap1\n      div\n      0xff\n      and\n        /* \"Textbook/Chapter8/quiz3.sol\":434:462  lightStatus == Switch.turnOn */\n      0x01\n      dup2\n      gt\n      iszero\n      tag_28\n      jumpi\n      tag_29\n      tag_17\n      jump\t// in\n    tag_29:\n    tag_28:\n      eq\n        /* \"Textbook/Chapter8/quiz3.sol\":426:494  require(lightStatus == Switch.turnOn, \"The light must be truned on\") */\n      tag_30\n      jumpi\n      mload(0x40)\n      0x08c379a000000000000000000000000000000000000000000000000000000000\n      dup2\n      mstore\n      0x04\n      add\n      tag_31\n      swap1\n      tag_32\n      jump\t// in\n    tag_31:\n      mload(0x40)\n      dup1\n      swap2\n      sub\n      swap1\n      revert\n    tag_30:\n        /* \"Textbook/Chapter8/quiz3.sol\":522:536  Switch.turnOff */\n      0x00\n        /* \"Textbook/Chapter8/quiz3.sol\":508:519  lightStatus */\n      dup1\n      0x00\n        /* \"Textbook/Chapter8/quiz3.sol\":508:536  lightStatus = Switch.turnOff */\n      0x0100\n      exp\n      dup2\n      sload\n      dup2\n      0xff\n      mul\n      not\n      and\n      swap1\n      dup4\n      0x01\n      dup2\n      gt\n      iszero\n      tag_33\n      jumpi\n      tag_34\n      tag_17\n      jump\t// in\n    tag_34:\n    tag_33:\n      mul\n      or\n      swap1\n      sstore\n      pop\n        /* \"Textbook/Chapter8/quiz3.sol\":370:547  function turnOffTheLight()... */\n      jump\t// out\n        /* \"Textbook/Chapter8/quiz3.sol\":135:176  Switch public lightStatus = Switch.turnOn */\n    tag_11:\n      0x00\n      dup1\n      sload\n      swap1\n      0x0100\n      exp\n      swap1\n      div\n      0xff\n      and\n      dup2\n      jump\t// out\n        /* \"#utility.yul\":7:187   */\n    tag_17:\n        /* \"#utility.yul\":55:132   */\n      0x4e487b7100000000000000000000000000000000000000000000000000000000\n        /* \"#utility.yul\":52:53   */\n      0x00\n        /* \"#utility.yul\":45:133   */\n      mstore\n        /* \"#utility.yul\":152:156   */\n      0x21\n        /* \"#utility.yul\":149:150   */\n      0x04\n        /* \"#utility.yul\":142:157   */\n      mstore\n        /* \"#utility.yul\":176:180   */\n      0x24\n        /* \"#utility.yul\":173:174   */\n      0x00\n        /* \"#utility.yul\":166:181   */\n      revert\n        /* \"#utility.yul\":193:306   */\n    tag_35:\n        /* \"#utility.yul\":274:275   */\n      0x02\n        /* \"#utility.yul\":267:272   */\n      dup2\n        /* \"#utility.yul\":264:276   */\n      lt\n        /* \"#utility.yul\":254:300   */\n      tag_47\n      jumpi\n        /* \"#utility.yul\":280:298   */\n      tag_48\n      tag_17\n      jump\t// in\n    tag_48:\n        /* \"#utility.yul\":254:300   */\n    tag_47:\n        /* \"#utility.yul\":193:306   */\n      pop\n      jump\t// out\n        /* \"#utility.yul\":312:439   */\n    tag_36:\n        /* \"#utility.yul\":357:364   */\n      0x00\n        /* \"#utility.yul\":386:391   */\n      dup2\n        /* \"#utility.yul\":375:391   */\n      swap1\n      pop\n        /* \"#utility.yul\":392:433   */\n      tag_50\n        /* \"#utility.yul\":427:432   */\n      dup3\n        /* \"#utility.yul\":392:433   */\n      tag_35\n      jump\t// in\n    tag_50:\n        /* \"#utility.yul\":312:439   */\n      swap2\n      swap1\n      pop\n      jump\t// out\n        /* \"#utility.yul\":445:572   */\n    tag_37:\n        /* \"#utility.yul\":501:510   */\n      0x00\n        /* \"#utility.yul\":534:566   */\n      tag_52\n        /* \"#utility.yul\":560:565   */\n      dup3\n        /* \"#utility.yul\":534:566   */\n      tag_36\n      jump\t// in\n    tag_52:\n        /* \"#utility.yul\":521:566   */\n      swap1\n      pop\n        /* \"#utility.yul\":445:572   */\n      swap2\n      swap1\n      pop\n      jump\t// out\n        /* \"#utility.yul\":578:721   */\n    tag_38:\n        /* \"#utility.yul\":671:714   */\n      tag_54\n        /* \"#utility.yul\":708:713   */\n      dup2\n        /* \"#utility.yul\":671:714   */\n      tag_37\n      jump\t// in\n    tag_54:\n        /* \"#utility.yul\":666:669   */\n      dup3\n        /* \"#utility.yul\":659:715   */\n      mstore\n        /* \"#utility.yul\":578:721   */\n      pop\n      pop\n      jump\t// out\n        /* \"#utility.yul\":727:961   */\n    tag_13:\n        /* \"#utility.yul\":826:830   */\n      0x00\n        /* \"#utility.yul\":864:866   */\n      0x20\n        /* \"#utility.yul\":853:862   */\n      dup3\n        /* \"#utility.yul\":849:867   */\n      add\n        /* \"#utility.yul\":841:867   */\n      swap1\n      pop\n        /* \"#utility.yul\":877:954   */\n      tag_56\n        /* \"#utility.yul\":951:952   */\n      0x00\n        /* \"#utility.yul\":940:949   */\n      dup4\n        /* \"#utility.yul\":936:953   */\n      add\n        /* \"#utility.yul\":927:933   */\n      dup5\n        /* \"#utility.yul\":877:954   */\n      tag_38\n      jump\t// in\n    tag_56:\n        /* \"#utility.yul\":727:961   */\n      swap3\n      swap2\n      pop\n      pop\n      jump\t// out\n        /* \"#utility.yul\":967:1136   */\n    tag_39:\n        /* \"#utility.yul\":1051:1062   */\n      0x00\n        /* \"#utility.yul\":1085:1091   */\n      dup3\n        /* \"#utility.yul\":1080:1083   */\n      dup3\n        /* \"#utility.yul\":1073:1092   */\n      mstore\n        /* \"#utility.yul\":1125:1129   */\n      0x20\n        /* \"#utility.yul\":1120:1123   */\n      dup3\n        /* \"#utility.yul\":1116:1130   */\n      add\n        /* \"#utility.yul\":1101:1130   */\n      swap1\n      pop\n        /* \"#utility.yul\":967:1136   */\n      swap3\n      swap2\n      pop\n      pop\n      jump\t// out\n        /* \"#utility.yul\":1142:1320   */\n    tag_40:\n        /* \"#utility.yul\":1282:1312   */\n      0x546865206c69676874206d757374206265207475726e6564206f666600000000\n        /* \"#utility.yul\":1278:1279   */\n      0x00\n        /* \"#utility.yul\":1270:1276   */\n      dup3\n        /* \"#utility.yul\":1266:1280   */\n      add\n        /* \"#utility.yul\":1259:1313   */\n      mstore\n        /* \"#utility.yul\":1142:1320   */\n      pop\n      jump\t// out\n        /* \"#utility.yul\":1326:1692   */\n    tag_41:\n        /* \"#utility.yul\":1468:1471   */\n      0x00\n        /* \"#utility.yul\":1489:1556   */\n      tag_60\n        /* \"#utility.yul\":1553:1555   */\n      0x1c\n        /* \"#utility.yul\":1548:1551   */\n      dup4\n        /* \"#utility.yul\":1489:1556   */\n      tag_39\n      jump\t// in\n    tag_60:\n        /* \"#utility.yul\":1482:1556   */\n      swap2\n      pop\n        /* \"#utility.yul\":1565:1658   */\n      tag_61\n        /* \"#utility.yul\":1654:1657   */\n      dup3\n        /* \"#utility.yul\":1565:1658   */\n      tag_40\n      jump\t// in\n    tag_61:\n        /* \"#utility.yul\":1683:1685   */\n      0x20\n        /* \"#utility.yul\":1678:1681   */\n      dup3\n        /* \"#utility.yul\":1674:1686   */\n      add\n        /* \"#utility.yul\":1667:1686   */\n      swap1\n      pop\n        /* \"#utility.yul\":1326:1692   */\n      swap2\n      swap1\n      pop\n      jump\t// out\n        /* \"#utility.yul\":1698:2117   */\n    tag_22:\n        /* \"#utility.yul\":1864:1868   */\n      0x00\n        /* \"#utility.yul\":1902:1904   */\n      0x20\n        /* \"#utility.yul\":1891:1900   */\n      dup3\n        /* \"#utility.yul\":1887:1905   */\n      add\n        /* \"#utility.yul\":1879:1905   */\n      swap1\n      pop\n        /* \"#utility.yul\":1951:1960   */\n      dup2\n        /* \"#utility.yul\":1945:1949   */\n      dup2\n        /* \"#utility.yul\":1941:1961   */\n      sub\n        /* \"#utility.yul\":1937:1938   */\n      0x00\n        /* \"#utility.yul\":1926:1935   */\n      dup4\n        /* \"#utility.yul\":1922:1939   */\n      add\n        /* \"#utility.yul\":1915:1962   */\n      mstore\n        /* \"#utility.yul\":1979:2110   */\n      tag_63\n        /* \"#utility.yul\":2105:2109   */\n      dup2\n        /* \"#utility.yul\":1979:2110   */\n      tag_41\n      jump\t// in\n    tag_63:\n        /* \"#utility.yul\":1971:2110   */\n      swap1\n      pop\n        /* \"#utility.yul\":1698:2117   */\n      swap2\n      swap1\n      pop\n      jump\t// out\n        /* \"#utility.yul\":2123:2300   */\n    tag_42:\n        /* \"#utility.yul\":2263:2292   */\n      0x546865206c69676874206d757374206265207472756e6564206f6e0000000000\n        /* \"#utility.yul\":2259:2260   */\n      0x00\n        /* \"#utility.yul\":2251:2257   */\n      dup3\n        /* \"#utility.yul\":2247:2261   */\n      add\n        /* \"#utility.yul\":2240:2293   */\n      mstore\n        /* \"#utility.yul\":2123:2300   */\n      pop\n      jump\t// out\n        /* \"#utility.yul\":2306:2672   */\n    tag_43:\n        /* \"#utility.yul\":2448:2451   */\n      0x00\n        /* \"#utility.yul\":2469:2536   */\n      tag_66\n        /* \"#utility.yul\":2533:2535   */\n      0x1b\n        /* \"#utility.yul\":2528:2531   */\n      dup4\n        /* \"#utility.yul\":2469:2536   */\n      tag_39\n      jump\t// in\n    tag_66:\n        /* \"#utility.yul\":2462:2536   */\n      swap2\n      pop\n        /* \"#utility.yul\":2545:2638   */\n      tag_67\n        /* \"#utility.yul\":2634:2637   */\n      dup3\n        /* \"#utility.yul\":2545:2638   */\n      tag_42\n      jump\t// in\n    tag_67:\n        /* \"#utility.yul\":2663:2665   */\n      0x20\n        /* \"#utility.yul\":2658:2661   */\n      dup3\n        /* \"#utility.yul\":2654:2666   */\n      add\n        /* \"#utility.yul\":2647:2666   */\n      swap1\n      pop\n        /* \"#utility.yul\":2306:2672   */\n      swap2\n      swap1\n      pop\n      jump\t// out\n        /* \"#utility.yul\":2678:3097   */\n    tag_32:\n        /* \"#utility.yul\":2844:2848   */\n      0x00\n        /* \"#utility.yul\":2882:2884   */\n      0x20\n        /* \"#utility.yul\":2871:2880   */\n      dup3\n        /* \"#utility.yul\":2867:2885   */\n      add\n        /* \"#utility.yul\":2859:2885   */\n      swap1\n      pop\n        /* \"#utility.yul\":2931:2940   */\n      dup2\n        /* \"#utility.yul\":2925:2929   */\n      dup2\n        /* \"#utility.yul\":2921:2941   */\n      sub\n        /* \"#utility.yul\":2917:2918   */\n      0x00\n        /* \"#utility.yul\":2906:2915   */\n      dup4\n        /* \"#utility.yul\":2902:2919   */\n      add\n        /* \"#utility.yul\":2895:2942   */\n      mstore\n        /* \"#utility.yul\":2959:3090   */\n      tag_69\n        /* \"#utility.yul\":3085:3089   */\n      dup2\n        /* \"#utility.yul\":2959:3090   */\n      tag_43\n      jump\t// in\n    tag_69:\n        /* \"#utility.yul\":2951:3090   */\n      swap1\n      pop\n        /* \"#utility.yul\":2678:3097   */\n      swap2\n      swap1\n      pop\n      jump\t// out\n\n    auxdata: 0xa26469706673582212201c50f41af9c80e7ec07010b277abd65ef654b286f7eba1a03925be3f1816b32564736f6c63430008120033\n}\n",
				"bytecode": {
					"linkReferences": {},
					"object": "608060405260016000806101000a81548160ff0219169083600181111561002957610028610040565b5b021790555034801561003a57600080fd5b5061006f565b7f4e487b7100000000000000000000000000000000000000000000000000000000600052602160045260246000fd5b6103798061007e6000396000f3fe608060405234801561001057600080fd5b50600436106100415760003560e01c80631bb4362b146100465780633f11fb9914610050578063dd6fde701461005a575b600080fd5b61004e610078565b005b610058610118565b005b6100626101b7565b60405161006f919061023f565b60405180910390f35b6000600181111561008c5761008b6101c8565b5b60008054906101000a900460ff1660018111156100ac576100ab6101c8565b5b146100ec576040517f08c379a00000000000000000000000000000000000000000000000000000000081526004016100e3906102b7565b60405180910390fd5b60016000806101000a81548160ff02191690836001811115610111576101106101c8565b5b0217905550565b60018081111561012b5761012a6101c8565b5b60008054906101000a900460ff16600181111561014b5761014a6101c8565b5b1461018b576040517f08c379a000000000000000000000000000000000000000000000000000000000815260040161018290610323565b60405180910390fd5b60008060006101000a81548160ff021916908360018111156101b0576101af6101c8565b5b0217905550565b60008054906101000a900460ff1681565b7f4e487b7100000000000000000000000000000000000000000000000000000000600052602160045260246000fd5b60028110610208576102076101c8565b5b50565b6000819050610219826101f7565b919050565b60006102298261020b565b9050919050565b6102398161021e565b82525050565b60006020820190506102546000830184610230565b92915050565b600082825260208201905092915050565b7f546865206c69676874206d757374206265207475726e6564206f666600000000600082015250565b60006102a1601c8361025a565b91506102ac8261026b565b602082019050919050565b600060208201905081810360008301526102d081610294565b9050919050565b7f546865206c69676874206d757374206265207472756e6564206f6e0000000000600082015250565b600061030d601b8361025a565b9150610318826102d7565b602082019050919050565b6000602082019050818103600083015261033c81610300565b905091905056fea26469706673582212201c50f41af9c80e7ec07010b277abd65ef654b286f7eba1a03925be3f1816b32564736f6c63430008120033",
					"opcodes": "PUSH1 0x80 PUSH1 0x40 MSTORE PUSH1 0x1 PUSH1 0x0 DUP1 PUSH2 0x100 EXP DUP2 SLOAD DUP2 PUSH1 0xFF MUL NOT AND SWAP1 DUP4 PUSH1 0x1 DUP2 GT ISZERO PUSH2 0x29 JUMPI PUSH2 0x28 PUSH2 0x40 JUMP JUMPDEST JUMPDEST MUL OR SWAP1 SSTORE POP CALLVALUE DUP1 ISZERO PUSH2 0x3A JUMPI PUSH1 0x0 DUP1 REVERT JUMPDEST POP PUSH2 0x6F JUMP JUMPDEST PUSH32 0x4E487B7100000000000000000000000000000000000000000000000000000000 PUSH1 0x0 MSTORE PUSH1 0x21 PUSH1 0x4 MSTORE PUSH1 0x24 PUSH1 0x0 REVERT JUMPDEST PUSH2 0x379 DUP1 PUSH2 0x7E PUSH1 0x0 CODECOPY PUSH1 0x0 RETURN INVALID PUSH1 0x80 PUSH1 0x40 MSTORE CALLVALUE DUP1 ISZERO PUSH2 0x10 JUMPI PUSH1 0x0 DUP1 REVERT JUMPDEST POP PUSH1 0x4 CALLDATASIZE LT PUSH2 0x41 JUMPI PUSH1 0x0 CALLDATALOAD PUSH1 0xE0 SHR DUP1 PUSH4 0x1BB4362B EQ PUSH2 0x46 JUMPI DUP1 PUSH4 0x3F11FB99 EQ PUSH2 0x50 JUMPI DUP1 PUSH4 0xDD6FDE70 EQ PUSH2 0x5A JUMPI JUMPDEST PUSH1 0x0 DUP1 REVERT JUMPDEST PUSH2 0x4E PUSH2 0x78 JUMP JUMPDEST STOP JUMPDEST PUSH2 0x58 PUSH2 0x118 JUMP JUMPDEST STOP JUMPDEST PUSH2 0x62 PUSH2 0x1B7 JUMP JUMPDEST PUSH1 0x40 MLOAD PUSH2 0x6F SWAP2 SWAP1 PUSH2 0x23F JUMP JUMPDEST PUSH1 0x40 MLOAD DUP1 SWAP2 SUB SWAP1 RETURN JUMPDEST PUSH1 0x0 PUSH1 0x1 DUP2 GT ISZERO PUSH2 0x8C JUMPI PUSH2 0x8B PUSH2 0x1C8 JUMP JUMPDEST JUMPDEST PUSH1 0x0 DUP1 SLOAD SWAP1 PUSH2 0x100 EXP SWAP1 DIV PUSH1 0xFF AND PUSH1 0x1 DUP2 GT ISZERO PUSH2 0xAC JUMPI PUSH2 0xAB PUSH2 0x1C8 JUMP JUMPDEST JUMPDEST EQ PUSH2 0xEC JUMPI PUSH1 0x40 MLOAD PUSH32 0x8C379A000000000000000000000000000000000000000000000000000000000 DUP2 MSTORE PUSH1 0x4 ADD PUSH2 0xE3 SWAP1 PUSH2 0x2B7 JUMP JUMPDEST PUSH1 0x40 MLOAD DUP1 SWAP2 SUB SWAP1 REVERT JUMPDEST PUSH1 0x1 PUSH1 0x0 DUP1 PUSH2 0x100 EXP DUP2 SLOAD DUP2 PUSH1 0xFF MUL NOT AND SWAP1 DUP4 PUSH1 0x1 DUP2 GT ISZERO PUSH2 0x111 JUMPI PUSH2 0x110 PUSH2 0x1C8 JUMP JUMPDEST JUMPDEST MUL OR SWAP1 SSTORE POP JUMP JUMPDEST PUSH1 0x1 DUP1 DUP2 GT ISZERO PUSH2 0x12B JUMPI PUSH2 0x12A PUSH2 0x1C8 JUMP JUMPDEST JUMPDEST PUSH1 0x0 DUP1 SLOAD SWAP1 PUSH2 0x100 EXP SWAP1 DIV PUSH1 0xFF AND PUSH1 0x1 DUP2 GT ISZERO PUSH2 0x14B JUMPI PUSH2 0x14A PUSH2 0x1C8 JUMP JUMPDEST JUMPDEST EQ PUSH2 0x18B JUMPI PUSH1 0x40 MLOAD PUSH32 0x8C379A000000000000000000000000000000000000000000000000000000000 DUP2 MSTORE PUSH1 0x4 ADD PUSH2 0x182 SWAP1 PUSH2 0x323 JUMP JUMPDEST PUSH1 0x40 MLOAD DUP1 SWAP2 SUB SWAP1 REVERT JUMPDEST PUSH1 0x0 DUP1 PUSH1 0x0 PUSH2 0x100 EXP DUP2 SLOAD DUP2 PUSH1 0xFF MUL NOT AND SWAP1 DUP4 PUSH1 0x1 DUP2 GT ISZERO PUSH2 0x1B0 JUMPI PUSH2 0x1AF PUSH2 0x1C8 JUMP JUMPDEST JUMPDEST MUL OR SWAP1 SSTORE POP JUMP JUMPDEST PUSH1 0x0 DUP1 SLOAD SWAP1 PUSH2 0x100 EXP SWAP1 DIV PUSH1 0xFF AND DUP2 JUMP JUMPDEST PUSH32 0x4E487B7100000000000000000000000000000000000000000000000000000000 PUSH1 0x0 MSTORE PUSH1 0x21 PUSH1 0x4 MSTORE PUSH1 0x24 PUSH1 0x0 REVERT JUMPDEST PUSH1 0x2 DUP2 LT PUSH2 0x208 JUMPI PUSH2 0x207 PUSH2 0x1C8 JUMP JUMPDEST JUMPDEST POP JUMP JUMPDEST PUSH1 0x0 DUP2 SWAP1 POP PUSH2 0x219 DUP3 PUSH2 0x1F7 JUMP JUMPDEST SWAP2 SWAP1 POP JUMP JUMPDEST PUSH1 0x0 PUSH2 0x229 DUP3 PUSH2 0x20B JUMP JUMPDEST SWAP1 POP SWAP2 SWAP1 POP JUMP JUMPDEST PUSH2 0x239 DUP2 PUSH2 0x21E JUMP JUMPDEST DUP3 MSTORE POP POP JUMP JUMPDEST PUSH1 0x0 PUSH1 0x20 DUP3 ADD SWAP1 POP PUSH2 0x254 PUSH1 0x0 DUP4 ADD DUP5 PUSH2 0x230 JUMP JUMPDEST SWAP3 SWAP2 POP POP JUMP JUMPDEST PUSH1 0x0 DUP3 DUP3 MSTORE PUSH1 0x20 DUP3 ADD SWAP1 POP SWAP3 SWAP2 POP POP JUMP JUMPDEST PUSH32 0x546865206C69676874206D757374206265207475726E6564206F666600000000 PUSH1 0x0 DUP3 ADD MSTORE POP JUMP JUMPDEST PUSH1 0x0 PUSH2 0x2A1 PUSH1 0x1C DUP4 PUSH2 0x25A JUMP JUMPDEST SWAP2 POP PUSH2 0x2AC DUP3 PUSH2 0x26B JUMP JUMPDEST PUSH1 0x20 DUP3 ADD SWAP1 POP SWAP2 SWAP1 POP JUMP JUMPDEST PUSH1 0x0 PUSH1 0x20 DUP3 ADD SWAP1 POP DUP2 DUP2 SUB PUSH1 0x0 DUP4 ADD MSTORE PUSH2 0x2D0 DUP2 PUSH2 0x294 JUMP JUMPDEST SWAP1 POP SWAP2 SWAP1 POP JUMP JUMPDEST PUSH32 0x546865206C69676874206D757374206265207472756E6564206F6E0000000000 PUSH1 0x0 DUP3 ADD MSTORE POP JUMP JUMPDEST PUSH1 0x0 PUSH2 0x30D PUSH1 0x1B DUP4 PUSH2 0x25A JUMP JUMPDEST SWAP2 POP PUSH2 0x318 DUP3 PUSH2 0x2D7 JUMP JUMPDEST PUSH1 0x20 DUP3 ADD SWAP1 POP SWAP2 SWAP1 POP JUMP JUMPDEST PUSH1 0x0 PUSH1 0x20 DUP3 ADD SWAP1 POP DUP2 DUP2 SUB PUSH1 0x0 DUP4 ADD MSTORE PUSH2 0x33C DUP2 PUSH2 0x300 JUMP JUMPDEST SWAP1 POP SWAP2 SWAP1 POP JUMP INVALID LOG2 PUSH5 0x6970667358 0x22 SLT KECCAK256 SHR POP DELEGATECALL BYTE 0xF9 0xC8 0xE PUSH31 0xC07010B277ABD65EF654B286F7EBA1A03925BE3F1816B32564736F6C634300 ADDMOD SLT STOP CALLER "
				},
				"gasEstimates": {
					"creation": {
						"codeDepositCost": "177800",
						"executionCost": "24519",
						"totalCost": "202319"
					},
					"external": {
						"lightStatus()": "2579",
						"turnOffTheLight()": "26639",
						"turnOnTheLight()": "26617"
					}
				},
				"methodIdentifiers": {
					"lightStatus()": "dd6fde70",
					"turnOffTheLight()": "3f11fb99",
					"turnOnTheLight()": "1bb4362b"
				}
			},
			"storageLayout": {
				"storage": [
					{
						"astId": 9,
						"contract": "Textbook/Chapter8/quiz3.sol:quiz3",
						"label": "lightStatus",
						"offset": 0,
						"slot": "0",
						"type": "t_enum(Switch)4"
					}
				],
				"types": {
					"t_enum(Switch)4": {
						"encoding": "inplace",
						"label": "enum quiz3.Switch",
						"numberOfBytes": "1"
					}
				}
			},
			"userdoc": {
				"kind": "user",
				"methods": {},
				"version": 1
			}
		}
	}
}