{
	"Textbook/Chapter8/Ex8_3.sol": {
		"Ex8_3": {
			"abi": [
				{
					"inputs": [],
					"stateMutability": "nonpayable",
					"type": "constructor"
				},
				{
					"anonymous": false,
					"inputs": [
						{
							"indexed": false,
							"internalType": "string",
							"name": "info",
							"type": "string"
						}
					],
					"name": "Information",
					"type": "event"
				},
				{
					"inputs": [],
					"name": "deliveryFood",
					"outputs": [],
					"stateMutability": "nonpayable",
					"type": "function"
				},
				{
					"inputs": [],
					"name": "foodStatus",
					"outputs": [
						{
							"internalType": "enum Ex8_3.FoodProcess",
							"name": "",
							"type": "uint8"
						}
					],
					"stateMutability": "view",
					"type": "function"
				},
				{
					"inputs": [],
					"name": "orderFood",
					"outputs": [],
					"stateMutability": "nonpayable",
					"type": "function"
				},
				{
					"inputs": [],
					"name": "paymentFood",
					"outputs": [],
					"stateMutability": "nonpayable",
					"type": "function"
				},
				{
					"inputs": [],
					"name": "takeAwayFood",
					"outputs": [],
					"stateMutability": "nonpayable",
					"type": "function"
				}
			],
			"devdoc": {
				"kind": "dev",
				"methods": {},
				"version": 1
			},
			"evm": {
				"assembly": "    /* \"Textbook/Chapter8/Ex8_3.sol\":57:1275  contract Ex8_3 {... */\n  mstore(0x40, 0x80)\n    /* \"Textbook/Chapter8/Ex8_3.sol\":247:310  constructor() {... */\n  callvalue\n  dup1\n  iszero\n  tag_1\n  jumpi\n  0x00\n  dup1\n  revert\ntag_1:\n  pop\n    /* \"Textbook/Chapter8/Ex8_3.sol\":284:303  FoodProcess.payment */\n  0x03\n    /* \"Textbook/Chapter8/Ex8_3.sol\":271:281  foodStatus */\n  0x00\n  dup1\n    /* \"Textbook/Chapter8/Ex8_3.sol\":271:303  foodStatus = FoodProcess.payment */\n  0x0100\n  exp\n  dup2\n  sload\n  dup2\n  0xff\n  mul\n  not\n  and\n  swap1\n  dup4\n  0x03\n  dup2\n  gt\n  iszero\n  tag_4\n  jumpi\n  tag_5\n  tag_6\n  jump\t// in\ntag_5:\ntag_4:\n  mul\n  or\n  swap1\n  sstore\n  pop\n    /* \"Textbook/Chapter8/Ex8_3.sol\":57:1275  contract Ex8_3 {... */\n  jump(tag_7)\n    /* \"#utility.yul\":7:187   */\ntag_6:\n    /* \"#utility.yul\":55:132   */\n  0x4e487b7100000000000000000000000000000000000000000000000000000000\n    /* \"#utility.yul\":52:53   */\n  0x00\n    /* \"#utility.yul\":45:133   */\n  mstore\n    /* \"#utility.yul\":152:156   */\n  0x21\n    /* \"#utility.yul\":149:150   */\n  0x04\n    /* \"#utility.yul\":142:157   */\n  mstore\n    /* \"#utility.yul\":176:180   */\n  0x24\n    /* \"#utility.yul\":173:174   */\n  0x00\n    /* \"#utility.yul\":166:181   */\n  revert\n    /* \"Textbook/Chapter8/Ex8_3.sol\":57:1275  contract Ex8_3 {... */\ntag_7:\n  dataSize(sub_0)\n  dup1\n  dataOffset(sub_0)\n  0x00\n  codecopy\n  0x00\n  return\nstop\n\nsub_0: assembly {\n        /* \"Textbook/Chapter8/Ex8_3.sol\":57:1275  contract Ex8_3 {... */\n      mstore(0x40, 0x80)\n      callvalue\n      dup1\n      iszero\n      tag_1\n      jumpi\n      0x00\n      dup1\n      revert\n    tag_1:\n      pop\n      jumpi(tag_2, lt(calldatasize, 0x04))\n      shr(0xe0, calldataload(0x00))\n      dup1\n      0x429268ae\n      eq\n      tag_3\n      jumpi\n      dup1\n      0x94d15a9e\n      eq\n      tag_4\n      jumpi\n      dup1\n      0xc62efc2b\n      eq\n      tag_5\n      jumpi\n      dup1\n      0xd3e9ff83\n      eq\n      tag_6\n      jumpi\n      dup1\n      0xd9c966fd\n      eq\n      tag_7\n      jumpi\n    tag_2:\n      0x00\n      dup1\n      revert\n        /* \"Textbook/Chapter8/Ex8_3.sol\":316:543  function orderFood()... */\n    tag_3:\n      tag_8\n      tag_9\n      jump\t// in\n    tag_8:\n      stop\n        /* \"Textbook/Chapter8/Ex8_3.sol\":553:786  function takeAwayFood()... */\n    tag_4:\n      tag_10\n      tag_11\n      jump\t// in\n    tag_10:\n      stop\n        /* \"Textbook/Chapter8/Ex8_3.sol\":1044:1273  function paymentFood()... */\n    tag_5:\n      tag_12\n      tag_13\n      jump\t// in\n    tag_12:\n      stop\n        /* \"Textbook/Chapter8/Ex8_3.sol\":796:1034  function deliveryFood()... */\n    tag_6:\n      tag_14\n      tag_15\n      jump\t// in\n    tag_14:\n      stop\n        /* \"Textbook/Chapter8/Ex8_3.sol\":212:241  FoodProcess public foodStatus */\n    tag_7:\n      tag_16\n      tag_17\n      jump\t// in\n    tag_16:\n      mload(0x40)\n      tag_18\n      swap2\n      swap1\n      tag_19\n      jump\t// in\n    tag_18:\n      mload(0x40)\n      dup1\n      swap2\n      sub\n      swap1\n      return\n        /* \"Textbook/Chapter8/Ex8_3.sol\":316:543  function orderFood()... */\n    tag_9:\n        /* \"Textbook/Chapter8/Ex8_3.sol\":388:407  FoodProcess.payment */\n      0x03\n        /* \"Textbook/Chapter8/Ex8_3.sol\":374:407  foodStatus == FoodProcess.payment */\n      dup1\n      dup2\n      gt\n      iszero\n      tag_21\n      jumpi\n      tag_22\n      tag_23\n      jump\t// in\n    tag_22:\n    tag_21:\n        /* \"Textbook/Chapter8/Ex8_3.sol\":374:384  foodStatus */\n      0x00\n      dup1\n      sload\n      swap1\n      0x0100\n      exp\n      swap1\n      div\n      0xff\n      and\n        /* \"Textbook/Chapter8/Ex8_3.sol\":374:407  foodStatus == FoodProcess.payment */\n      0x03\n      dup2\n      gt\n      iszero\n      tag_24\n      jumpi\n      tag_25\n      tag_23\n      jump\t// in\n    tag_25:\n    tag_24:\n      eq\n        /* \"Textbook/Chapter8/Ex8_3.sol\":366:441  require(foodStatus == FoodProcess.payment, \"It must be the payment status\") */\n      tag_26\n      jumpi\n      mload(0x40)\n      0x08c379a000000000000000000000000000000000000000000000000000000000\n      dup2\n      mstore\n      0x04\n      add\n      tag_27\n      swap1\n      tag_28\n      jump\t// in\n    tag_27:\n      mload(0x40)\n      dup1\n      swap2\n      sub\n      swap1\n      revert\n    tag_26:\n        /* \"Textbook/Chapter8/Ex8_3.sol\":468:485  FoodProcess.order */\n      0x00\n        /* \"Textbook/Chapter8/Ex8_3.sol\":455:465  foodStatus */\n      dup1\n      0x00\n        /* \"Textbook/Chapter8/Ex8_3.sol\":455:485  foodStatus = FoodProcess.order */\n      0x0100\n      exp\n      dup2\n      sload\n      dup2\n      0xff\n      mul\n      not\n      and\n      swap1\n      dup4\n      0x03\n      dup2\n      gt\n      iszero\n      tag_29\n      jumpi\n      tag_30\n      tag_23\n      jump\t// in\n    tag_30:\n    tag_29:\n      mul\n      or\n      swap1\n      sstore\n      pop\n        /* \"Textbook/Chapter8/Ex8_3.sol\":504:532  Information(\"Order success\") */\n      0xff8fea957fb7cb582ef297c1c74436fe7a9914efbc52adf197600dc9d171efbc\n      mload(0x40)\n      tag_31\n      swap1\n      tag_32\n      jump\t// in\n    tag_31:\n      mload(0x40)\n      dup1\n      swap2\n      sub\n      swap1\n      log1\n        /* \"Textbook/Chapter8/Ex8_3.sol\":316:543  function orderFood()... */\n      jump\t// out\n        /* \"Textbook/Chapter8/Ex8_3.sol\":553:786  function takeAwayFood()... */\n    tag_11:\n        /* \"Textbook/Chapter8/Ex8_3.sol\":628:645  FoodProcess.order */\n      0x00\n        /* \"Textbook/Chapter8/Ex8_3.sol\":614:645  foodStatus == FoodProcess.order */\n      0x03\n      dup2\n      gt\n      iszero\n      tag_34\n      jumpi\n      tag_35\n      tag_23\n      jump\t// in\n    tag_35:\n    tag_34:\n        /* \"Textbook/Chapter8/Ex8_3.sol\":614:624  foodStatus */\n      0x00\n      dup1\n      sload\n      swap1\n      0x0100\n      exp\n      swap1\n      div\n      0xff\n      and\n        /* \"Textbook/Chapter8/Ex8_3.sol\":614:645  foodStatus == FoodProcess.order */\n      0x03\n      dup2\n      gt\n      iszero\n      tag_36\n      jumpi\n      tag_37\n      tag_23\n      jump\t// in\n    tag_37:\n    tag_36:\n      eq\n        /* \"Textbook/Chapter8/Ex8_3.sol\":606:677  require(foodStatus == FoodProcess.order, \"It must be the order status\") */\n      tag_38\n      jumpi\n      mload(0x40)\n      0x08c379a000000000000000000000000000000000000000000000000000000000\n      dup2\n      mstore\n      0x04\n      add\n      tag_39\n      swap1\n      tag_40\n      jump\t// in\n    tag_39:\n      mload(0x40)\n      dup1\n      swap2\n      sub\n      swap1\n      revert\n    tag_38:\n        /* \"Textbook/Chapter8/Ex8_3.sol\":705:725  FoodProcess.takeAway */\n      0x01\n        /* \"Textbook/Chapter8/Ex8_3.sol\":691:725  foodStatus == FoodProcess.takeAway */\n      0x03\n      dup2\n      gt\n      iszero\n      tag_41\n      jumpi\n      tag_42\n      tag_23\n      jump\t// in\n    tag_42:\n    tag_41:\n        /* \"Textbook/Chapter8/Ex8_3.sol\":691:701  foodStatus */\n      0x00\n      dup1\n      sload\n      swap1\n      0x0100\n      exp\n      swap1\n      div\n      0xff\n      and\n        /* \"Textbook/Chapter8/Ex8_3.sol\":691:725  foodStatus == FoodProcess.takeAway */\n      0x03\n      dup2\n      gt\n      iszero\n      tag_43\n      jumpi\n      tag_44\n      tag_23\n      jump\t// in\n    tag_44:\n    tag_43:\n      pop\n      pop\n        /* \"Textbook/Chapter8/Ex8_3.sol\":744:775  Information(\"takeAway success\") */\n      0xff8fea957fb7cb582ef297c1c74436fe7a9914efbc52adf197600dc9d171efbc\n      mload(0x40)\n      tag_45\n      swap1\n      tag_46\n      jump\t// in\n    tag_45:\n      mload(0x40)\n      dup1\n      swap2\n      sub\n      swap1\n      log1\n        /* \"Textbook/Chapter8/Ex8_3.sol\":553:786  function takeAwayFood()... */\n      jump\t// out\n        /* \"Textbook/Chapter8/Ex8_3.sol\":1044:1273  function paymentFood()... */\n    tag_13:\n        /* \"Textbook/Chapter8/Ex8_3.sol\":1130:1131  2 */\n      0x02\n        /* \"Textbook/Chapter8/Ex8_3.sol\":1118:1132  FoodProcess(2) */\n      0x03\n      dup2\n      gt\n      iszero\n      tag_48\n      jumpi\n      tag_49\n      tag_23\n      jump\t// in\n    tag_49:\n    tag_48:\n        /* \"Textbook/Chapter8/Ex8_3.sol\":1104:1132  foodStatus == FoodProcess(2) */\n      0x03\n      dup2\n      gt\n      iszero\n      tag_50\n      jumpi\n      tag_51\n      tag_23\n      jump\t// in\n    tag_51:\n    tag_50:\n        /* \"Textbook/Chapter8/Ex8_3.sol\":1104:1114  foodStatus */\n      0x00\n      dup1\n      sload\n      swap1\n      0x0100\n      exp\n      swap1\n      div\n      0xff\n      and\n        /* \"Textbook/Chapter8/Ex8_3.sol\":1104:1132  foodStatus == FoodProcess(2) */\n      0x03\n      dup2\n      gt\n      iszero\n      tag_52\n      jumpi\n      tag_53\n      tag_23\n      jump\t// in\n    tag_53:\n    tag_52:\n      eq\n        /* \"Textbook/Chapter8/Ex8_3.sol\":1096:1167  require(foodStatus == FoodProcess(2), \"It must be the delivery status\") */\n      tag_54\n      jumpi\n      mload(0x40)\n      0x08c379a000000000000000000000000000000000000000000000000000000000\n      dup2\n      mstore\n      0x04\n      add\n      tag_55\n      swap1\n      tag_56\n      jump\t// in\n    tag_55:\n      mload(0x40)\n      dup1\n      swap2\n      sub\n      swap1\n      revert\n    tag_54:\n        /* \"Textbook/Chapter8/Ex8_3.sol\":1194:1213  FoodProcess.payment */\n      0x03\n        /* \"Textbook/Chapter8/Ex8_3.sol\":1181:1191  foodStatus */\n      0x00\n      dup1\n        /* \"Textbook/Chapter8/Ex8_3.sol\":1181:1213  foodStatus = FoodProcess.payment */\n      0x0100\n      exp\n      dup2\n      sload\n      dup2\n      0xff\n      mul\n      not\n      and\n      swap1\n      dup4\n      0x03\n      dup2\n      gt\n      iszero\n      tag_57\n      jumpi\n      tag_58\n      tag_23\n      jump\t// in\n    tag_58:\n    tag_57:\n      mul\n      or\n      swap1\n      sstore\n      pop\n        /* \"Textbook/Chapter8/Ex8_3.sol\":1232:1262  Information(\"patment success\") */\n      0xff8fea957fb7cb582ef297c1c74436fe7a9914efbc52adf197600dc9d171efbc\n      mload(0x40)\n      tag_59\n      swap1\n      tag_60\n      jump\t// in\n    tag_59:\n      mload(0x40)\n      dup1\n      swap2\n      sub\n      swap1\n      log1\n        /* \"Textbook/Chapter8/Ex8_3.sol\":1044:1273  function paymentFood()... */\n      jump\t// out\n        /* \"Textbook/Chapter8/Ex8_3.sol\":796:1034  function deliveryFood()... */\n    tag_15:\n        /* \"Textbook/Chapter8/Ex8_3.sol\":871:891  FoodProcess.takeAway */\n      0x01\n        /* \"Textbook/Chapter8/Ex8_3.sol\":857:891  foodStatus == FoodProcess.takeAway */\n      0x03\n      dup2\n      gt\n      iszero\n      tag_62\n      jumpi\n      tag_63\n      tag_23\n      jump\t// in\n    tag_63:\n    tag_62:\n        /* \"Textbook/Chapter8/Ex8_3.sol\":857:867  foodStatus */\n      0x00\n      dup1\n      sload\n      swap1\n      0x0100\n      exp\n      swap1\n      div\n      0xff\n      and\n        /* \"Textbook/Chapter8/Ex8_3.sol\":857:891  foodStatus == FoodProcess.takeAway */\n      0x03\n      dup2\n      gt\n      iszero\n      tag_64\n      jumpi\n      tag_65\n      tag_23\n      jump\t// in\n    tag_65:\n    tag_64:\n      eq\n        /* \"Textbook/Chapter8/Ex8_3.sol\":849:926  require(foodStatus == FoodProcess.takeAway, \"It must be the takeAway status\") */\n      tag_66\n      jumpi\n      mload(0x40)\n      0x08c379a000000000000000000000000000000000000000000000000000000000\n      dup2\n      mstore\n      0x04\n      add\n      tag_67\n      swap1\n      tag_68\n      jump\t// in\n    tag_67:\n      mload(0x40)\n      dup1\n      swap2\n      sub\n      swap1\n      revert\n    tag_66:\n        /* \"Textbook/Chapter8/Ex8_3.sol\":953:973  FoodProcess.delivery */\n      0x02\n        /* \"Textbook/Chapter8/Ex8_3.sol\":940:950  foodStatus */\n      0x00\n      dup1\n        /* \"Textbook/Chapter8/Ex8_3.sol\":940:973  foodStatus = FoodProcess.delivery */\n      0x0100\n      exp\n      dup2\n      sload\n      dup2\n      0xff\n      mul\n      not\n      and\n      swap1\n      dup4\n      0x03\n      dup2\n      gt\n      iszero\n      tag_69\n      jumpi\n      tag_70\n      tag_23\n      jump\t// in\n    tag_70:\n    tag_69:\n      mul\n      or\n      swap1\n      sstore\n      pop\n        /* \"Textbook/Chapter8/Ex8_3.sol\":992:1023  Information(\"delivery success\") */\n      0xff8fea957fb7cb582ef297c1c74436fe7a9914efbc52adf197600dc9d171efbc\n      mload(0x40)\n      tag_71\n      swap1\n      tag_72\n      jump\t// in\n    tag_71:\n      mload(0x40)\n      dup1\n      swap2\n      sub\n      swap1\n      log1\n        /* \"Textbook/Chapter8/Ex8_3.sol\":796:1034  function deliveryFood()... */\n      jump\t// out\n        /* \"Textbook/Chapter8/Ex8_3.sol\":212:241  FoodProcess public foodStatus */\n    tag_17:\n      0x00\n      dup1\n      sload\n      swap1\n      0x0100\n      exp\n      swap1\n      div\n      0xff\n      and\n      dup2\n      jump\t// out\n        /* \"#utility.yul\":7:187   */\n    tag_23:\n        /* \"#utility.yul\":55:132   */\n      0x4e487b7100000000000000000000000000000000000000000000000000000000\n        /* \"#utility.yul\":52:53   */\n      0x00\n        /* \"#utility.yul\":45:133   */\n      mstore\n        /* \"#utility.yul\":152:156   */\n      0x21\n        /* \"#utility.yul\":149:150   */\n      0x04\n        /* \"#utility.yul\":142:157   */\n      mstore\n        /* \"#utility.yul\":176:180   */\n      0x24\n        /* \"#utility.yul\":173:174   */\n      0x00\n        /* \"#utility.yul\":166:181   */\n      revert\n        /* \"#utility.yul\":193:312   */\n    tag_73:\n        /* \"#utility.yul\":280:281   */\n      0x04\n        /* \"#utility.yul\":273:278   */\n      dup2\n        /* \"#utility.yul\":270:282   */\n      lt\n        /* \"#utility.yul\":260:306   */\n      tag_97\n      jumpi\n        /* \"#utility.yul\":286:304   */\n      tag_98\n      tag_23\n      jump\t// in\n    tag_98:\n        /* \"#utility.yul\":260:306   */\n    tag_97:\n        /* \"#utility.yul\":193:312   */\n      pop\n      jump\t// out\n        /* \"#utility.yul\":318:457   */\n    tag_74:\n        /* \"#utility.yul\":369:376   */\n      0x00\n        /* \"#utility.yul\":398:403   */\n      dup2\n        /* \"#utility.yul\":387:403   */\n      swap1\n      pop\n        /* \"#utility.yul\":404:451   */\n      tag_100\n        /* \"#utility.yul\":445:450   */\n      dup3\n        /* \"#utility.yul\":404:451   */\n      tag_73\n      jump\t// in\n    tag_100:\n        /* \"#utility.yul\":318:457   */\n      swap2\n      swap1\n      pop\n      jump\t// out\n        /* \"#utility.yul\":463:602   */\n    tag_75:\n        /* \"#utility.yul\":525:534   */\n      0x00\n        /* \"#utility.yul\":558:596   */\n      tag_102\n        /* \"#utility.yul\":590:595   */\n      dup3\n        /* \"#utility.yul\":558:596   */\n      tag_74\n      jump\t// in\n    tag_102:\n        /* \"#utility.yul\":545:596   */\n      swap1\n      pop\n        /* \"#utility.yul\":463:602   */\n      swap2\n      swap1\n      pop\n      jump\t// out\n        /* \"#utility.yul\":608:763   */\n    tag_76:\n        /* \"#utility.yul\":707:756   */\n      tag_104\n        /* \"#utility.yul\":750:755   */\n      dup2\n        /* \"#utility.yul\":707:756   */\n      tag_75\n      jump\t// in\n    tag_104:\n        /* \"#utility.yul\":702:705   */\n      dup3\n        /* \"#utility.yul\":695:757   */\n      mstore\n        /* \"#utility.yul\":608:763   */\n      pop\n      pop\n      jump\t// out\n        /* \"#utility.yul\":769:1015   */\n    tag_19:\n        /* \"#utility.yul\":874:878   */\n      0x00\n        /* \"#utility.yul\":912:914   */\n      0x20\n        /* \"#utility.yul\":901:910   */\n      dup3\n        /* \"#utility.yul\":897:915   */\n      add\n        /* \"#utility.yul\":889:915   */\n      swap1\n      pop\n        /* \"#utility.yul\":925:1008   */\n      tag_106\n        /* \"#utility.yul\":1005:1006   */\n      0x00\n        /* \"#utility.yul\":994:1003   */\n      dup4\n        /* \"#utility.yul\":990:1007   */\n      add\n        /* \"#utility.yul\":981:987   */\n      dup5\n        /* \"#utility.yul\":925:1008   */\n      tag_76\n      jump\t// in\n    tag_106:\n        /* \"#utility.yul\":769:1015   */\n      swap3\n      swap2\n      pop\n      pop\n      jump\t// out\n        /* \"#utility.yul\":1021:1190   */\n    tag_77:\n        /* \"#utility.yul\":1105:1116   */\n      0x00\n        /* \"#utility.yul\":1139:1145   */\n      dup3\n        /* \"#utility.yul\":1134:1137   */\n      dup3\n        /* \"#utility.yul\":1127:1146   */\n      mstore\n        /* \"#utility.yul\":1179:1183   */\n      0x20\n        /* \"#utility.yul\":1174:1177   */\n      dup3\n        /* \"#utility.yul\":1170:1184   */\n      add\n        /* \"#utility.yul\":1155:1184   */\n      swap1\n      pop\n        /* \"#utility.yul\":1021:1190   */\n      swap3\n      swap2\n      pop\n      pop\n      jump\t// out\n        /* \"#utility.yul\":1196:1375   */\n    tag_78:\n        /* \"#utility.yul\":1336:1367   */\n      0x4974206d75737420626520746865207061796d656e7420737461747573000000\n        /* \"#utility.yul\":1332:1333   */\n      0x00\n        /* \"#utility.yul\":1324:1330   */\n      dup3\n        /* \"#utility.yul\":1320:1334   */\n      add\n        /* \"#utility.yul\":1313:1368   */\n      mstore\n        /* \"#utility.yul\":1196:1375   */\n      pop\n      jump\t// out\n        /* \"#utility.yul\":1381:1747   */\n    tag_79:\n        /* \"#utility.yul\":1523:1526   */\n      0x00\n        /* \"#utility.yul\":1544:1611   */\n      tag_110\n        /* \"#utility.yul\":1608:1610   */\n      0x1d\n        /* \"#utility.yul\":1603:1606   */\n      dup4\n        /* \"#utility.yul\":1544:1611   */\n      tag_77\n      jump\t// in\n    tag_110:\n        /* \"#utility.yul\":1537:1611   */\n      swap2\n      pop\n        /* \"#utility.yul\":1620:1713   */\n      tag_111\n        /* \"#utility.yul\":1709:1712   */\n      dup3\n        /* \"#utility.yul\":1620:1713   */\n      tag_78\n      jump\t// in\n    tag_111:\n        /* \"#utility.yul\":1738:1740   */\n      0x20\n        /* \"#utility.yul\":1733:1736   */\n      dup3\n        /* \"#utility.yul\":1729:1741   */\n      add\n        /* \"#utility.yul\":1722:1741   */\n      swap1\n      pop\n        /* \"#utility.yul\":1381:1747   */\n      swap2\n      swap1\n      pop\n      jump\t// out\n        /* \"#utility.yul\":1753:2172   */\n    tag_28:\n        /* \"#utility.yul\":1919:1923   */\n      0x00\n        /* \"#utility.yul\":1957:1959   */\n      0x20\n        /* \"#utility.yul\":1946:1955   */\n      dup3\n        /* \"#utility.yul\":1942:1960   */\n      add\n        /* \"#utility.yul\":1934:1960   */\n      swap1\n      pop\n        /* \"#utility.yul\":2006:2015   */\n      dup2\n        /* \"#utility.yul\":2000:2004   */\n      dup2\n        /* \"#utility.yul\":1996:2016   */\n      sub\n        /* \"#utility.yul\":1992:1993   */\n      0x00\n        /* \"#utility.yul\":1981:1990   */\n      dup4\n        /* \"#utility.yul\":1977:1994   */\n      add\n        /* \"#utility.yul\":1970:2017   */\n      mstore\n        /* \"#utility.yul\":2034:2165   */\n      tag_113\n        /* \"#utility.yul\":2160:2164   */\n      dup2\n        /* \"#utility.yul\":2034:2165   */\n      tag_79\n      jump\t// in\n    tag_113:\n        /* \"#utility.yul\":2026:2165   */\n      swap1\n      pop\n        /* \"#utility.yul\":1753:2172   */\n      swap2\n      swap1\n      pop\n      jump\t// out\n        /* \"#utility.yul\":2178:2341   */\n    tag_80:\n        /* \"#utility.yul\":2318:2333   */\n      0x4f72646572207375636365737300000000000000000000000000000000000000\n        /* \"#utility.yul\":2314:2315   */\n      0x00\n        /* \"#utility.yul\":2306:2312   */\n      dup3\n        /* \"#utility.yul\":2302:2316   */\n      add\n        /* \"#utility.yul\":2295:2334   */\n      mstore\n        /* \"#utility.yul\":2178:2341   */\n      pop\n      jump\t// out\n        /* \"#utility.yul\":2347:2713   */\n    tag_81:\n        /* \"#utility.yul\":2489:2492   */\n      0x00\n        /* \"#utility.yul\":2510:2577   */\n      tag_116\n        /* \"#utility.yul\":2574:2576   */\n      0x0d\n        /* \"#utility.yul\":2569:2572   */\n      dup4\n        /* \"#utility.yul\":2510:2577   */\n      tag_77\n      jump\t// in\n    tag_116:\n        /* \"#utility.yul\":2503:2577   */\n      swap2\n      pop\n        /* \"#utility.yul\":2586:2679   */\n      tag_117\n        /* \"#utility.yul\":2675:2678   */\n      dup3\n        /* \"#utility.yul\":2586:2679   */\n      tag_80\n      jump\t// in\n    tag_117:\n        /* \"#utility.yul\":2704:2706   */\n      0x20\n        /* \"#utility.yul\":2699:2702   */\n      dup3\n        /* \"#utility.yul\":2695:2707   */\n      add\n        /* \"#utility.yul\":2688:2707   */\n      swap1\n      pop\n        /* \"#utility.yul\":2347:2713   */\n      swap2\n      swap1\n      pop\n      jump\t// out\n        /* \"#utility.yul\":2719:3138   */\n    tag_32:\n        /* \"#utility.yul\":2885:2889   */\n      0x00\n        /* \"#utility.yul\":2923:2925   */\n      0x20\n        /* \"#utility.yul\":2912:2921   */\n      dup3\n        /* \"#utility.yul\":2908:2926   */\n      add\n        /* \"#utility.yul\":2900:2926   */\n      swap1\n      pop\n        /* \"#utility.yul\":2972:2981   */\n      dup2\n        /* \"#utility.yul\":2966:2970   */\n      dup2\n        /* \"#utility.yul\":2962:2982   */\n      sub\n        /* \"#utility.yul\":2958:2959   */\n      0x00\n        /* \"#utility.yul\":2947:2956   */\n      dup4\n        /* \"#utility.yul\":2943:2960   */\n      add\n        /* \"#utility.yul\":2936:2983   */\n      mstore\n        /* \"#utility.yul\":3000:3131   */\n      tag_119\n        /* \"#utility.yul\":3126:3130   */\n      dup2\n        /* \"#utility.yul\":3000:3131   */\n      tag_81\n      jump\t// in\n    tag_119:\n        /* \"#utility.yul\":2992:3131   */\n      swap1\n      pop\n        /* \"#utility.yul\":2719:3138   */\n      swap2\n      swap1\n      pop\n      jump\t// out\n        /* \"#utility.yul\":3144:3321   */\n    tag_82:\n        /* \"#utility.yul\":3284:3313   */\n      0x4974206d75737420626520746865206f72646572207374617475730000000000\n        /* \"#utility.yul\":3280:3281   */\n      0x00\n        /* \"#utility.yul\":3272:3278   */\n      dup3\n        /* \"#utility.yul\":3268:3282   */\n      add\n        /* \"#utility.yul\":3261:3314   */\n      mstore\n        /* \"#utility.yul\":3144:3321   */\n      pop\n      jump\t// out\n        /* \"#utility.yul\":3327:3693   */\n    tag_83:\n        /* \"#utility.yul\":3469:3472   */\n      0x00\n        /* \"#utility.yul\":3490:3557   */\n      tag_122\n        /* \"#utility.yul\":3554:3556   */\n      0x1b\n        /* \"#utility.yul\":3549:3552   */\n      dup4\n        /* \"#utility.yul\":3490:3557   */\n      tag_77\n      jump\t// in\n    tag_122:\n        /* \"#utility.yul\":3483:3557   */\n      swap2\n      pop\n        /* \"#utility.yul\":3566:3659   */\n      tag_123\n        /* \"#utility.yul\":3655:3658   */\n      dup3\n        /* \"#utility.yul\":3566:3659   */\n      tag_82\n      jump\t// in\n    tag_123:\n        /* \"#utility.yul\":3684:3686   */\n      0x20\n        /* \"#utility.yul\":3679:3682   */\n      dup3\n        /* \"#utility.yul\":3675:3687   */\n      add\n        /* \"#utility.yul\":3668:3687   */\n      swap1\n      pop\n        /* \"#utility.yul\":3327:3693   */\n      swap2\n      swap1\n      pop\n      jump\t// out\n        /* \"#utility.yul\":3699:4118   */\n    tag_40:\n        /* \"#utility.yul\":3865:3869   */\n      0x00\n        /* \"#utility.yul\":3903:3905   */\n      0x20\n        /* \"#utility.yul\":3892:3901   */\n      dup3\n        /* \"#utility.yul\":3888:3906   */\n      add\n        /* \"#utility.yul\":3880:3906   */\n      swap1\n      pop\n        /* \"#utility.yul\":3952:3961   */\n      dup2\n        /* \"#utility.yul\":3946:3950   */\n      dup2\n        /* \"#utility.yul\":3942:3962   */\n      sub\n        /* \"#utility.yul\":3938:3939   */\n      0x00\n        /* \"#utility.yul\":3927:3936   */\n      dup4\n        /* \"#utility.yul\":3923:3940   */\n      add\n        /* \"#utility.yul\":3916:3963   */\n      mstore\n        /* \"#utility.yul\":3980:4111   */\n      tag_125\n        /* \"#utility.yul\":4106:4110   */\n      dup2\n        /* \"#utility.yul\":3980:4111   */\n      tag_83\n      jump\t// in\n    tag_125:\n        /* \"#utility.yul\":3972:4111   */\n      swap1\n      pop\n        /* \"#utility.yul\":3699:4118   */\n      swap2\n      swap1\n      pop\n      jump\t// out\n        /* \"#utility.yul\":4124:4290   */\n    tag_84:\n        /* \"#utility.yul\":4264:4282   */\n      0x74616b6541776179207375636365737300000000000000000000000000000000\n        /* \"#utility.yul\":4260:4261   */\n      0x00\n        /* \"#utility.yul\":4252:4258   */\n      dup3\n        /* \"#utility.yul\":4248:4262   */\n      add\n        /* \"#utility.yul\":4241:4283   */\n      mstore\n        /* \"#utility.yul\":4124:4290   */\n      pop\n      jump\t// out\n        /* \"#utility.yul\":4296:4662   */\n    tag_85:\n        /* \"#utility.yul\":4438:4441   */\n      0x00\n        /* \"#utility.yul\":4459:4526   */\n      tag_128\n        /* \"#utility.yul\":4523:4525   */\n      0x10\n        /* \"#utility.yul\":4518:4521   */\n      dup4\n        /* \"#utility.yul\":4459:4526   */\n      tag_77\n      jump\t// in\n    tag_128:\n        /* \"#utility.yul\":4452:4526   */\n      swap2\n      pop\n        /* \"#utility.yul\":4535:4628   */\n      tag_129\n        /* \"#utility.yul\":4624:4627   */\n      dup3\n        /* \"#utility.yul\":4535:4628   */\n      tag_84\n      jump\t// in\n    tag_129:\n        /* \"#utility.yul\":4653:4655   */\n      0x20\n        /* \"#utility.yul\":4648:4651   */\n      dup3\n        /* \"#utility.yul\":4644:4656   */\n      add\n        /* \"#utility.yul\":4637:4656   */\n      swap1\n      pop\n        /* \"#utility.yul\":4296:4662   */\n      swap2\n      swap1\n      pop\n      jump\t// out\n        /* \"#utility.yul\":4668:5087   */\n    tag_46:\n        /* \"#utility.yul\":4834:4838   */\n      0x00\n        /* \"#utility.yul\":4872:4874   */\n      0x20\n        /* \"#utility.yul\":4861:4870   */\n      dup3\n        /* \"#utility.yul\":4857:4875   */\n      add\n        /* \"#utility.yul\":4849:4875   */\n      swap1\n      pop\n        /* \"#utility.yul\":4921:4930   */\n      dup2\n        /* \"#utility.yul\":4915:4919   */\n      dup2\n        /* \"#utility.yul\":4911:4931   */\n      sub\n        /* \"#utility.yul\":4907:4908   */\n      0x00\n        /* \"#utility.yul\":4896:4905   */\n      dup4\n        /* \"#utility.yul\":4892:4909   */\n      add\n        /* \"#utility.yul\":4885:4932   */\n      mstore\n        /* \"#utility.yul\":4949:5080   */\n      tag_131\n        /* \"#utility.yul\":5075:5079   */\n      dup2\n        /* \"#utility.yul\":4949:5080   */\n      tag_85\n      jump\t// in\n    tag_131:\n        /* \"#utility.yul\":4941:5080   */\n      swap1\n      pop\n        /* \"#utility.yul\":4668:5087   */\n      swap2\n      swap1\n      pop\n      jump\t// out\n        /* \"#utility.yul\":5093:5273   */\n    tag_86:\n        /* \"#utility.yul\":5233:5265   */\n      0x4974206d757374206265207468652064656c6976657279207374617475730000\n        /* \"#utility.yul\":5229:5230   */\n      0x00\n        /* \"#utility.yul\":5221:5227   */\n      dup3\n        /* \"#utility.yul\":5217:5231   */\n      add\n        /* \"#utility.yul\":5210:5266   */\n      mstore\n        /* \"#utility.yul\":5093:5273   */\n      pop\n      jump\t// out\n        /* \"#utility.yul\":5279:5645   */\n    tag_87:\n        /* \"#utility.yul\":5421:5424   */\n      0x00\n        /* \"#utility.yul\":5442:5509   */\n      tag_134\n        /* \"#utility.yul\":5506:5508   */\n      0x1e\n        /* \"#utility.yul\":5501:5504   */\n      dup4\n        /* \"#utility.yul\":5442:5509   */\n      tag_77\n      jump\t// in\n    tag_134:\n        /* \"#utility.yul\":5435:5509   */\n      swap2\n      pop\n        /* \"#utility.yul\":5518:5611   */\n      tag_135\n        /* \"#utility.yul\":5607:5610   */\n      dup3\n        /* \"#utility.yul\":5518:5611   */\n      tag_86\n      jump\t// in\n    tag_135:\n        /* \"#utility.yul\":5636:5638   */\n      0x20\n        /* \"#utility.yul\":5631:5634   */\n      dup3\n        /* \"#utility.yul\":5627:5639   */\n      add\n        /* \"#utility.yul\":5620:5639   */\n      swap1\n      pop\n        /* \"#utility.yul\":5279:5645   */\n      swap2\n      swap1\n      pop\n      jump\t// out\n        /* \"#utility.yul\":5651:6070   */\n    tag_56:\n        /* \"#utility.yul\":5817:5821   */\n      0x00\n        /* \"#utility.yul\":5855:5857   */\n      0x20\n        /* \"#utility.yul\":5844:5853   */\n      dup3\n        /* \"#utility.yul\":5840:5858   */\n      add\n        /* \"#utility.yul\":5832:5858   */\n      swap1\n      pop\n        /* \"#utility.yul\":5904:5913   */\n      dup2\n        /* \"#utility.yul\":5898:5902   */\n      dup2\n        /* \"#utility.yul\":5894:5914   */\n      sub\n        /* \"#utility.yul\":5890:5891   */\n      0x00\n        /* \"#utility.yul\":5879:5888   */\n      dup4\n        /* \"#utility.yul\":5875:5892   */\n      add\n        /* \"#utility.yul\":5868:5915   */\n      mstore\n        /* \"#utility.yul\":5932:6063   */\n      tag_137\n        /* \"#utility.yul\":6058:6062   */\n      dup2\n        /* \"#utility.yul\":5932:6063   */\n      tag_87\n      jump\t// in\n    tag_137:\n        /* \"#utility.yul\":5924:6063   */\n      swap1\n      pop\n        /* \"#utility.yul\":5651:6070   */\n      swap2\n      swap1\n      pop\n      jump\t// out\n        /* \"#utility.yul\":6076:6241   */\n    tag_88:\n        /* \"#utility.yul\":6216:6233   */\n      0x7061746d656e7420737563636573730000000000000000000000000000000000\n        /* \"#utility.yul\":6212:6213   */\n      0x00\n        /* \"#utility.yul\":6204:6210   */\n      dup3\n        /* \"#utility.yul\":6200:6214   */\n      add\n        /* \"#utility.yul\":6193:6234   */\n      mstore\n        /* \"#utility.yul\":6076:6241   */\n      pop\n      jump\t// out\n        /* \"#utility.yul\":6247:6613   */\n    tag_89:\n        /* \"#utility.yul\":6389:6392   */\n      0x00\n        /* \"#utility.yul\":6410:6477   */\n      tag_140\n        /* \"#utility.yul\":6474:6476   */\n      0x0f\n        /* \"#utility.yul\":6469:6472   */\n      dup4\n        /* \"#utility.yul\":6410:6477   */\n      tag_77\n      jump\t// in\n    tag_140:\n        /* \"#utility.yul\":6403:6477   */\n      swap2\n      pop\n        /* \"#utility.yul\":6486:6579   */\n      tag_141\n        /* \"#utility.yul\":6575:6578   */\n      dup3\n        /* \"#utility.yul\":6486:6579   */\n      tag_88\n      jump\t// in\n    tag_141:\n        /* \"#utility.yul\":6604:6606   */\n      0x20\n        /* \"#utility.yul\":6599:6602   */\n      dup3\n        /* \"#utility.yul\":6595:6607   */\n      add\n        /* \"#utility.yul\":6588:6607   */\n      swap1\n      pop\n        /* \"#utility.yul\":6247:6613   */\n      swap2\n      swap1\n      pop\n      jump\t// out\n        /* \"#utility.yul\":6619:7038   */\n    tag_60:\n        /* \"#utility.yul\":6785:6789   */\n      0x00\n        /* \"#utility.yul\":6823:6825   */\n      0x20\n        /* \"#utility.yul\":6812:6821   */\n      dup3\n        /* \"#utility.yul\":6808:6826   */\n      add\n        /* \"#utility.yul\":6800:6826   */\n      swap1\n      pop\n        /* \"#utility.yul\":6872:6881   */\n      dup2\n        /* \"#utility.yul\":6866:6870   */\n      dup2\n        /* \"#utility.yul\":6862:6882   */\n      sub\n        /* \"#utility.yul\":6858:6859   */\n      0x00\n        /* \"#utility.yul\":6847:6856   */\n      dup4\n        /* \"#utility.yul\":6843:6860   */\n      add\n        /* \"#utility.yul\":6836:6883   */\n      mstore\n        /* \"#utility.yul\":6900:7031   */\n      tag_143\n        /* \"#utility.yul\":7026:7030   */\n      dup2\n        /* \"#utility.yul\":6900:7031   */\n      tag_89\n      jump\t// in\n    tag_143:\n        /* \"#utility.yul\":6892:7031   */\n      swap1\n      pop\n        /* \"#utility.yul\":6619:7038   */\n      swap2\n      swap1\n      pop\n      jump\t// out\n        /* \"#utility.yul\":7044:7224   */\n    tag_90:\n        /* \"#utility.yul\":7184:7216   */\n      0x4974206d757374206265207468652074616b6541776179207374617475730000\n        /* \"#utility.yul\":7180:7181   */\n      0x00\n        /* \"#utility.yul\":7172:7178   */\n      dup3\n        /* \"#utility.yul\":7168:7182   */\n      add\n        /* \"#utility.yul\":7161:7217   */\n      mstore\n        /* \"#utility.yul\":7044:7224   */\n      pop\n      jump\t// out\n        /* \"#utility.yul\":7230:7596   */\n    tag_91:\n        /* \"#utility.yul\":7372:7375   */\n      0x00\n        /* \"#utility.yul\":7393:7460   */\n      tag_146\n        /* \"#utility.yul\":7457:7459   */\n      0x1e\n        /* \"#utility.yul\":7452:7455   */\n      dup4\n        /* \"#utility.yul\":7393:7460   */\n      tag_77\n      jump\t// in\n    tag_146:\n        /* \"#utility.yul\":7386:7460   */\n      swap2\n      pop\n        /* \"#utility.yul\":7469:7562   */\n      tag_147\n        /* \"#utility.yul\":7558:7561   */\n      dup3\n        /* \"#utility.yul\":7469:7562   */\n      tag_90\n      jump\t// in\n    tag_147:\n        /* \"#utility.yul\":7587:7589   */\n      0x20\n        /* \"#utility.yul\":7582:7585   */\n      dup3\n        /* \"#utility.yul\":7578:7590   */\n      add\n        /* \"#utility.yul\":7571:7590   */\n      swap1\n      pop\n        /* \"#utility.yul\":7230:7596   */\n      swap2\n      swap1\n      pop\n      jump\t// out\n        /* \"#utility.yul\":7602:8021   */\n    tag_68:\n        /* \"#utility.yul\":7768:7772   */\n      0x00\n        /* \"#utility.yul\":7806:7808   */\n      0x20\n        /* \"#utility.yul\":7795:7804   */\n      dup3\n        /* \"#utility.yul\":7791:7809   */\n      add\n        /* \"#utility.yul\":7783:7809   */\n      swap1\n      pop\n        /* \"#utility.yul\":7855:7864   */\n      dup2\n        /* \"#utility.yul\":7849:7853   */\n      dup2\n        /* \"#utility.yul\":7845:7865   */\n      sub\n        /* \"#utility.yul\":7841:7842   */\n      0x00\n        /* \"#utility.yul\":7830:7839   */\n      dup4\n        /* \"#utility.yul\":7826:7843   */\n      add\n        /* \"#utility.yul\":7819:7866   */\n      mstore\n        /* \"#utility.yul\":7883:8014   */\n      tag_149\n        /* \"#utility.yul\":8009:8013   */\n      dup2\n        /* \"#utility.yul\":7883:8014   */\n      tag_91\n      jump\t// in\n    tag_149:\n        /* \"#utility.yul\":7875:8014   */\n      swap1\n      pop\n        /* \"#utility.yul\":7602:8021   */\n      swap2\n      swap1\n      pop\n      jump\t// out\n        /* \"#utility.yul\":8027:8193   */\n    tag_92:\n        /* \"#utility.yul\":8167:8185   */\n      0x64656c6976657279207375636365737300000000000000000000000000000000\n        /* \"#utility.yul\":8163:8164   */\n      0x00\n        /* \"#utility.yul\":8155:8161   */\n      dup3\n        /* \"#utility.yul\":8151:8165   */\n      add\n        /* \"#utility.yul\":8144:8186   */\n      mstore\n        /* \"#utility.yul\":8027:8193   */\n      pop\n      jump\t// out\n        /* \"#utility.yul\":8199:8565   */\n    tag_93:\n        /* \"#utility.yul\":8341:8344   */\n      0x00\n        /* \"#utility.yul\":8362:8429   */\n      tag_152\n        /* \"#utility.yul\":8426:8428   */\n      0x10\n        /* \"#utility.yul\":8421:8424   */\n      dup4\n        /* \"#utility.yul\":8362:8429   */\n      tag_77\n      jump\t// in\n    tag_152:\n        /* \"#utility.yul\":8355:8429   */\n      swap2\n      pop\n        /* \"#utility.yul\":8438:8531   */\n      tag_153\n        /* \"#utility.yul\":8527:8530   */\n      dup3\n        /* \"#utility.yul\":8438:8531   */\n      tag_92\n      jump\t// in\n    tag_153:\n        /* \"#utility.yul\":8556:8558   */\n      0x20\n        /* \"#utility.yul\":8551:8554   */\n      dup3\n        /* \"#utility.yul\":8547:8559   */\n      add\n        /* \"#utility.yul\":8540:8559   */\n      swap1\n      pop\n        /* \"#utility.yul\":8199:8565   */\n      swap2\n      swap1\n      pop\n      jump\t// out\n        /* \"#utility.yul\":8571:8990   */\n    tag_72:\n        /* \"#utility.yul\":8737:8741   */\n      0x00\n        /* \"#utility.yul\":8775:8777   */\n      0x20\n        /* \"#utility.yul\":8764:8773   */\n      dup3\n        /* \"#utility.yul\":8760:8778   */\n      add\n        /* \"#utility.yul\":8752:8778   */\n      swap1\n      pop\n        /* \"#utility.yul\":8824:8833   */\n      dup2\n        /* \"#utility.yul\":8818:8822   */\n      dup2\n        /* \"#utility.yul\":8814:8834   */\n      sub\n        /* \"#utility.yul\":8810:8811   */\n      0x00\n        /* \"#utility.yul\":8799:8808   */\n      dup4\n        /* \"#utility.yul\":8795:8812   */\n      add\n        /* \"#utility.yul\":8788:8835   */\n      mstore\n        /* \"#utility.yul\":8852:8983   */\n      tag_155\n        /* \"#utility.yul\":8978:8982   */\n      dup2\n        /* \"#utility.yul\":8852:8983   */\n      tag_93\n      jump\t// in\n    tag_155:\n        /* \"#utility.yul\":8844:8983   */\n      swap1\n      pop\n        /* \"#utility.yul\":8571:8990   */\n      swap2\n      swap1\n      pop\n      jump\t// out\n\n    auxdata: 0xa2646970667358221220196df6c1be1961b9a85e801467160b37aefcba7c6d702e8c6ed22efb10c1c99664736f6c63430008120033\n}\n",
				"bytecode": {
					"linkReferences": {},
					"object": "608060405234801561001057600080fd5b5060036000806101000a81548160ff0219169083600381111561003657610035610040565b5b021790555061006f565b7f4e487b7100000000000000000000000000000000000000000000000000000000600052602160045260246000fd5b61085d8061007e6000396000f3fe608060405234801561001057600080fd5b50600436106100575760003560e01c8063429268ae1461005c57806394d15a9e14610066578063c62efc2b14610070578063d3e9ff831461007a578063d9c966fd14610084575b600080fd5b6100646100a2565b005b61006e610176565b005b610078610257565b005b61008261033e565b005b61008c610413565b604051610099919061049b565b60405180910390f35b6003808111156100b5576100b4610424565b5b60008054906101000a900460ff1660038111156100d5576100d4610424565b5b14610115576040517f08c379a000000000000000000000000000000000000000000000000000000000815260040161010c90610513565b60405180910390fd5b60008060006101000a81548160ff0219169083600381111561013a57610139610424565b5b02179055507fff8fea957fb7cb582ef297c1c74436fe7a9914efbc52adf197600dc9d171efbc60405161016c9061057f565b60405180910390a1565b6000600381111561018a57610189610424565b5b60008054906101000a900460ff1660038111156101aa576101a9610424565b5b146101ea576040517f08c379a00000000000000000000000000000000000000000000000000000000081526004016101e1906105eb565b60405180910390fd5b600160038111156101fe576101fd610424565b5b60008054906101000a900460ff16600381111561021e5761021d610424565b5b50507fff8fea957fb7cb582ef297c1c74436fe7a9914efbc52adf197600dc9d171efbc60405161024d90610657565b60405180910390a1565b6002600381111561026b5761026a610424565b5b600381111561027d5761027c610424565b5b60008054906101000a900460ff16600381111561029d5761029c610424565b5b146102dd576040517f08c379a00000000000000000000000000000000000000000000000000000000081526004016102d4906106c3565b60405180910390fd5b60036000806101000a81548160ff0219169083600381111561030257610301610424565b5b02179055507fff8fea957fb7cb582ef297c1c74436fe7a9914efbc52adf197600dc9d171efbc6040516103349061072f565b60405180910390a1565b6001600381111561035257610351610424565b5b60008054906101000a900460ff16600381111561037257610371610424565b5b146103b2576040517f08c379a00000000000000000000000000000000000000000000000000000000081526004016103a99061079b565b60405180910390fd5b60026000806101000a81548160ff021916908360038111156103d7576103d6610424565b5b02179055507fff8fea957fb7cb582ef297c1c74436fe7a9914efbc52adf197600dc9d171efbc60405161040990610807565b60405180910390a1565b60008054906101000a900460ff1681565b7f4e487b7100000000000000000000000000000000000000000000000000000000600052602160045260246000fd5b6004811061046457610463610424565b5b50565b600081905061047582610453565b919050565b600061048582610467565b9050919050565b6104958161047a565b82525050565b60006020820190506104b0600083018461048c565b92915050565b600082825260208201905092915050565b7f4974206d75737420626520746865207061796d656e7420737461747573000000600082015250565b60006104fd601d836104b6565b9150610508826104c7565b602082019050919050565b6000602082019050818103600083015261052c816104f0565b9050919050565b7f4f72646572207375636365737300000000000000000000000000000000000000600082015250565b6000610569600d836104b6565b915061057482610533565b602082019050919050565b600060208201905081810360008301526105988161055c565b9050919050565b7f4974206d75737420626520746865206f72646572207374617475730000000000600082015250565b60006105d5601b836104b6565b91506105e08261059f565b602082019050919050565b60006020820190508181036000830152610604816105c8565b9050919050565b7f74616b6541776179207375636365737300000000000000000000000000000000600082015250565b60006106416010836104b6565b915061064c8261060b565b602082019050919050565b6000602082019050818103600083015261067081610634565b9050919050565b7f4974206d757374206265207468652064656c6976657279207374617475730000600082015250565b60006106ad601e836104b6565b91506106b882610677565b602082019050919050565b600060208201905081810360008301526106dc816106a0565b9050919050565b7f7061746d656e7420737563636573730000000000000000000000000000000000600082015250565b6000610719600f836104b6565b9150610724826106e3565b602082019050919050565b600060208201905081810360008301526107488161070c565b9050919050565b7f4974206d757374206265207468652074616b6541776179207374617475730000600082015250565b6000610785601e836104b6565b91506107908261074f565b602082019050919050565b600060208201905081810360008301526107b481610778565b9050919050565b7f64656c6976657279207375636365737300000000000000000000000000000000600082015250565b60006107f16010836104b6565b91506107fc826107bb565b602082019050919050565b60006020820190508181036000830152610820816107e4565b905091905056fea2646970667358221220196df6c1be1961b9a85e801467160b37aefcba7c6d702e8c6ed22efb10c1c99664736f6c63430008120033",
					"opcodes": "PUSH1 0x80 PUSH1 0x40 MSTORE CALLVALUE DUP1 ISZERO PUSH2 0x10 JUMPI PUSH1 0x0 DUP1 REVERT JUMPDEST POP PUSH1 0x3 PUSH1 0x0 DUP1 PUSH2 0x100 EXP DUP2 SLOAD DUP2 PUSH1 0xFF MUL NOT AND SWAP1 DUP4 PUSH1 0x3 DUP2 GT ISZERO PUSH2 0x36 JUMPI PUSH2 0x35 PUSH2 0x40 JUMP JUMPDEST JUMPDEST MUL OR SWAP1 SSTORE POP PUSH2 0x6F JUMP JUMPDEST PUSH32 0x4E487B7100000000000000000000000000000000000000000000000000000000 PUSH1 0x0 MSTORE PUSH1 0x21 PUSH1 0x4 MSTORE PUSH1 0x24 PUSH1 0x0 REVERT JUMPDEST PUSH2 0x85D DUP1 PUSH2 0x7E PUSH1 0x0 CODECOPY PUSH1 0x0 RETURN INVALID PUSH1 0x80 PUSH1 0x40 MSTORE CALLVALUE DUP1 ISZERO PUSH2 0x10 JUMPI PUSH1 0x0 DUP1 REVERT JUMPDEST POP PUSH1 0x4 CALLDATASIZE LT PUSH2 0x57 JUMPI PUSH1 0x0 CALLDATALOAD PUSH1 0xE0 SHR DUP1 PUSH4 0x429268AE EQ PUSH2 0x5C JUMPI DUP1 PUSH4 0x94D15A9E EQ PUSH2 0x66 JUMPI DUP1 PUSH4 0xC62EFC2B EQ PUSH2 0x70 JUMPI DUP1 PUSH4 0xD3E9FF83 EQ PUSH2 0x7A JUMPI DUP1 PUSH4 0xD9C966FD EQ PUSH2 0x84 JUMPI JUMPDEST PUSH1 0x0 DUP1 REVERT JUMPDEST PUSH2 0x64 PUSH2 0xA2 JUMP JUMPDEST STOP JUMPDEST PUSH2 0x6E PUSH2 0x176 JUMP JUMPDEST STOP JUMPDEST PUSH2 0x78 PUSH2 0x257 JUMP JUMPDEST STOP JUMPDEST PUSH2 0x82 PUSH2 0x33E JUMP JUMPDEST STOP JUMPDEST PUSH2 0x8C PUSH2 0x413 JUMP JUMPDEST PUSH1 0x40 MLOAD PUSH2 0x99 SWAP2 SWAP1 PUSH2 0x49B JUMP JUMPDEST PUSH1 0x40 MLOAD DUP1 SWAP2 SUB SWAP1 RETURN JUMPDEST PUSH1 0x3 DUP1 DUP2 GT ISZERO PUSH2 0xB5 JUMPI PUSH2 0xB4 PUSH2 0x424 JUMP JUMPDEST JUMPDEST PUSH1 0x0 DUP1 SLOAD SWAP1 PUSH2 0x100 EXP SWAP1 DIV PUSH1 0xFF AND PUSH1 0x3 DUP2 GT ISZERO PUSH2 0xD5 JUMPI PUSH2 0xD4 PUSH2 0x424 JUMP JUMPDEST JUMPDEST EQ PUSH2 0x115 JUMPI PUSH1 0x40 MLOAD PUSH32 0x8C379A000000000000000000000000000000000000000000000000000000000 DUP2 MSTORE PUSH1 0x4 ADD PUSH2 0x10C SWAP1 PUSH2 0x513 JUMP JUMPDEST PUSH1 0x40 MLOAD DUP1 SWAP2 SUB SWAP1 REVERT JUMPDEST PUSH1 0x0 DUP1 PUSH1 0x0 PUSH2 0x100 EXP DUP2 SLOAD DUP2 PUSH1 0xFF MUL NOT AND SWAP1 DUP4 PUSH1 0x3 DUP2 GT ISZERO PUSH2 0x13A JUMPI PUSH2 0x139 PUSH2 0x424 JUMP JUMPDEST JUMPDEST MUL OR SWAP1 SSTORE POP PUSH32 0xFF8FEA957FB7CB582EF297C1C74436FE7A9914EFBC52ADF197600DC9D171EFBC PUSH1 0x40 MLOAD PUSH2 0x16C SWAP1 PUSH2 0x57F JUMP JUMPDEST PUSH1 0x40 MLOAD DUP1 SWAP2 SUB SWAP1 LOG1 JUMP JUMPDEST PUSH1 0x0 PUSH1 0x3 DUP2 GT ISZERO PUSH2 0x18A JUMPI PUSH2 0x189 PUSH2 0x424 JUMP JUMPDEST JUMPDEST PUSH1 0x0 DUP1 SLOAD SWAP1 PUSH2 0x100 EXP SWAP1 DIV PUSH1 0xFF AND PUSH1 0x3 DUP2 GT ISZERO PUSH2 0x1AA JUMPI PUSH2 0x1A9 PUSH2 0x424 JUMP JUMPDEST JUMPDEST EQ PUSH2 0x1EA JUMPI PUSH1 0x40 MLOAD PUSH32 0x8C379A000000000000000000000000000000000000000000000000000000000 DUP2 MSTORE PUSH1 0x4 ADD PUSH2 0x1E1 SWAP1 PUSH2 0x5EB JUMP JUMPDEST PUSH1 0x40 MLOAD DUP1 SWAP2 SUB SWAP1 REVERT JUMPDEST PUSH1 0x1 PUSH1 0x3 DUP2 GT ISZERO PUSH2 0x1FE JUMPI PUSH2 0x1FD PUSH2 0x424 JUMP JUMPDEST JUMPDEST PUSH1 0x0 DUP1 SLOAD SWAP1 PUSH2 0x100 EXP SWAP1 DIV PUSH1 0xFF AND PUSH1 0x3 DUP2 GT ISZERO PUSH2 0x21E JUMPI PUSH2 0x21D PUSH2 0x424 JUMP JUMPDEST JUMPDEST POP POP PUSH32 0xFF8FEA957FB7CB582EF297C1C74436FE7A9914EFBC52ADF197600DC9D171EFBC PUSH1 0x40 MLOAD PUSH2 0x24D SWAP1 PUSH2 0x657 JUMP JUMPDEST PUSH1 0x40 MLOAD DUP1 SWAP2 SUB SWAP1 LOG1 JUMP JUMPDEST PUSH1 0x2 PUSH1 0x3 DUP2 GT ISZERO PUSH2 0x26B JUMPI PUSH2 0x26A PUSH2 0x424 JUMP JUMPDEST JUMPDEST PUSH1 0x3 DUP2 GT ISZERO PUSH2 0x27D JUMPI PUSH2 0x27C PUSH2 0x424 JUMP JUMPDEST JUMPDEST PUSH1 0x0 DUP1 SLOAD SWAP1 PUSH2 0x100 EXP SWAP1 DIV PUSH1 0xFF AND PUSH1 0x3 DUP2 GT ISZERO PUSH2 0x29D JUMPI PUSH2 0x29C PUSH2 0x424 JUMP JUMPDEST JUMPDEST EQ PUSH2 0x2DD JUMPI PUSH1 0x40 MLOAD PUSH32 0x8C379A000000000000000000000000000000000000000000000000000000000 DUP2 MSTORE PUSH1 0x4 ADD PUSH2 0x2D4 SWAP1 PUSH2 0x6C3 JUMP JUMPDEST PUSH1 0x40 MLOAD DUP1 SWAP2 SUB SWAP1 REVERT JUMPDEST PUSH1 0x3 PUSH1 0x0 DUP1 PUSH2 0x100 EXP DUP2 SLOAD DUP2 PUSH1 0xFF MUL NOT AND SWAP1 DUP4 PUSH1 0x3 DUP2 GT ISZERO PUSH2 0x302 JUMPI PUSH2 0x301 PUSH2 0x424 JUMP JUMPDEST JUMPDEST MUL OR SWAP1 SSTORE POP PUSH32 0xFF8FEA957FB7CB582EF297C1C74436FE7A9914EFBC52ADF197600DC9D171EFBC PUSH1 0x40 MLOAD PUSH2 0x334 SWAP1 PUSH2 0x72F JUMP JUMPDEST PUSH1 0x40 MLOAD DUP1 SWAP2 SUB SWAP1 LOG1 JUMP JUMPDEST PUSH1 0x1 PUSH1 0x3 DUP2 GT ISZERO PUSH2 0x352 JUMPI PUSH2 0x351 PUSH2 0x424 JUMP JUMPDEST JUMPDEST PUSH1 0x0 DUP1 SLOAD SWAP1 PUSH2 0x100 EXP SWAP1 DIV PUSH1 0xFF AND PUSH1 0x3 DUP2 GT ISZERO PUSH2 0x372 JUMPI PUSH2 0x371 PUSH2 0x424 JUMP JUMPDEST JUMPDEST EQ PUSH2 0x3B2 JUMPI PUSH1 0x40 MLOAD PUSH32 0x8C379A000000000000000000000000000000000000000000000000000000000 DUP2 MSTORE PUSH1 0x4 ADD PUSH2 0x3A9 SWAP1 PUSH2 0x79B JUMP JUMPDEST PUSH1 0x40 MLOAD DUP1 SWAP2 SUB SWAP1 REVERT JUMPDEST PUSH1 0x2 PUSH1 0x0 DUP1 PUSH2 0x100 EXP DUP2 SLOAD DUP2 PUSH1 0xFF MUL NOT AND SWAP1 DUP4 PUSH1 0x3 DUP2 GT ISZERO PUSH2 0x3D7 JUMPI PUSH2 0x3D6 PUSH2 0x424 JUMP JUMPDEST JUMPDEST MUL OR SWAP1 SSTORE POP PUSH32 0xFF8FEA957FB7CB582EF297C1C74436FE7A9914EFBC52ADF197600DC9D171EFBC PUSH1 0x40 MLOAD PUSH2 0x409 SWAP1 PUSH2 0x807 JUMP JUMPDEST PUSH1 0x40 MLOAD DUP1 SWAP2 SUB SWAP1 LOG1 JUMP JUMPDEST PUSH1 0x0 DUP1 SLOAD SWAP1 PUSH2 0x100 EXP SWAP1 DIV PUSH1 0xFF AND DUP2 JUMP JUMPDEST PUSH32 0x4E487B7100000000000000000000000000000000000000000000000000000000 PUSH1 0x0 MSTORE PUSH1 0x21 PUSH1 0x4 MSTORE PUSH1 0x24 PUSH1 0x0 REVERT JUMPDEST PUSH1 0x4 DUP2 LT PUSH2 0x464 JUMPI PUSH2 0x463 PUSH2 0x424 JUMP JUMPDEST JUMPDEST POP JUMP JUMPDEST PUSH1 0x0 DUP2 SWAP1 POP PUSH2 0x475 DUP3 PUSH2 0x453 JUMP JUMPDEST SWAP2 SWAP1 POP JUMP JUMPDEST PUSH1 0x0 PUSH2 0x485 DUP3 PUSH2 0x467 JUMP JUMPDEST SWAP1 POP SWAP2 SWAP1 POP JUMP JUMPDEST PUSH2 0x495 DUP2 PUSH2 0x47A JUMP JUMPDEST DUP3 MSTORE POP POP JUMP JUMPDEST PUSH1 0x0 PUSH1 0x20 DUP3 ADD SWAP1 POP PUSH2 0x4B0 PUSH1 0x0 DUP4 ADD DUP5 PUSH2 0x48C JUMP JUMPDEST SWAP3 SWAP2 POP POP JUMP JUMPDEST PUSH1 0x0 DUP3 DUP3 MSTORE PUSH1 0x20 DUP3 ADD SWAP1 POP SWAP3 SWAP2 POP POP JUMP JUMPDEST PUSH32 0x4974206D75737420626520746865207061796D656E7420737461747573000000 PUSH1 0x0 DUP3 ADD MSTORE POP JUMP JUMPDEST PUSH1 0x0 PUSH2 0x4FD PUSH1 0x1D DUP4 PUSH2 0x4B6 JUMP JUMPDEST SWAP2 POP PUSH2 0x508 DUP3 PUSH2 0x4C7 JUMP JUMPDEST PUSH1 0x20 DUP3 ADD SWAP1 POP SWAP2 SWAP1 POP JUMP JUMPDEST PUSH1 0x0 PUSH1 0x20 DUP3 ADD SWAP1 POP DUP2 DUP2 SUB PUSH1 0x0 DUP4 ADD MSTORE PUSH2 0x52C DUP2 PUSH2 0x4F0 JUMP JUMPDEST SWAP1 POP SWAP2 SWAP1 POP JUMP JUMPDEST PUSH32 0x4F72646572207375636365737300000000000000000000000000000000000000 PUSH1 0x0 DUP3 ADD MSTORE POP JUMP JUMPDEST PUSH1 0x0 PUSH2 0x569 PUSH1 0xD DUP4 PUSH2 0x4B6 JUMP JUMPDEST SWAP2 POP PUSH2 0x574 DUP3 PUSH2 0x533 JUMP JUMPDEST PUSH1 0x20 DUP3 ADD SWAP1 POP SWAP2 SWAP1 POP JUMP JUMPDEST PUSH1 0x0 PUSH1 0x20 DUP3 ADD SWAP1 POP DUP2 DUP2 SUB PUSH1 0x0 DUP4 ADD MSTORE PUSH2 0x598 DUP2 PUSH2 0x55C JUMP JUMPDEST SWAP1 POP SWAP2 SWAP1 POP JUMP JUMPDEST PUSH32 0x4974206D75737420626520746865206F72646572207374617475730000000000 PUSH1 0x0 DUP3 ADD MSTORE POP JUMP JUMPDEST PUSH1 0x0 PUSH2 0x5D5 PUSH1 0x1B DUP4 PUSH2 0x4B6 JUMP JUMPDEST SWAP2 POP PUSH2 0x5E0 DUP3 PUSH2 0x59F JUMP JUMPDEST PUSH1 0x20 DUP3 ADD SWAP1 POP SWAP2 SWAP1 POP JUMP JUMPDEST PUSH1 0x0 PUSH1 0x20 DUP3 ADD SWAP1 POP DUP2 DUP2 SUB PUSH1 0x0 DUP4 ADD MSTORE PUSH2 0x604 DUP2 PUSH2 0x5C8 JUMP JUMPDEST SWAP1 POP SWAP2 SWAP1 POP JUMP JUMPDEST PUSH32 0x74616B6541776179207375636365737300000000000000000000000000000000 PUSH1 0x0 DUP3 ADD MSTORE POP JUMP JUMPDEST PUSH1 0x0 PUSH2 0x641 PUSH1 0x10 DUP4 PUSH2 0x4B6 JUMP JUMPDEST SWAP2 POP PUSH2 0x64C DUP3 PUSH2 0x60B JUMP JUMPDEST PUSH1 0x20 DUP3 ADD SWAP1 POP SWAP2 SWAP1 POP JUMP JUMPDEST PUSH1 0x0 PUSH1 0x20 DUP3 ADD SWAP1 POP DUP2 DUP2 SUB PUSH1 0x0 DUP4 ADD MSTORE PUSH2 0x670 DUP2 PUSH2 0x634 JUMP JUMPDEST SWAP1 POP SWAP2 SWAP1 POP JUMP JUMPDEST PUSH32 0x4974206D757374206265207468652064656C6976657279207374617475730000 PUSH1 0x0 DUP3 ADD MSTORE POP JUMP JUMPDEST PUSH1 0x0 PUSH2 0x6AD PUSH1 0x1E DUP4 PUSH2 0x4B6 JUMP JUMPDEST SWAP2 POP PUSH2 0x6B8 DUP3 PUSH2 0x677 JUMP JUMPDEST PUSH1 0x20 DUP3 ADD SWAP1 POP SWAP2 SWAP1 POP JUMP JUMPDEST PUSH1 0x0 PUSH1 0x20 DUP3 ADD SWAP1 POP DUP2 DUP2 SUB PUSH1 0x0 DUP4 ADD MSTORE PUSH2 0x6DC DUP2 PUSH2 0x6A0 JUMP JUMPDEST SWAP1 POP SWAP2 SWAP1 POP JUMP JUMPDEST PUSH32 0x7061746D656E7420737563636573730000000000000000000000000000000000 PUSH1 0x0 DUP3 ADD MSTORE POP JUMP JUMPDEST PUSH1 0x0 PUSH2 0x719 PUSH1 0xF DUP4 PUSH2 0x4B6 JUMP JUMPDEST SWAP2 POP PUSH2 0x724 DUP3 PUSH2 0x6E3 JUMP JUMPDEST PUSH1 0x20 DUP3 ADD SWAP1 POP SWAP2 SWAP1 POP JUMP JUMPDEST PUSH1 0x0 PUSH1 0x20 DUP3 ADD SWAP1 POP DUP2 DUP2 SUB PUSH1 0x0 DUP4 ADD MSTORE PUSH2 0x748 DUP2 PUSH2 0x70C JUMP JUMPDEST SWAP1 POP SWAP2 SWAP1 POP JUMP JUMPDEST PUSH32 0x4974206D757374206265207468652074616B6541776179207374617475730000 PUSH1 0x0 DUP3 ADD MSTORE POP JUMP JUMPDEST PUSH1 0x0 PUSH2 0x785 PUSH1 0x1E DUP4 PUSH2 0x4B6 JUMP JUMPDEST SWAP2 POP PUSH2 0x790 DUP3 PUSH2 0x74F JUMP JUMPDEST PUSH1 0x20 DUP3 ADD SWAP1 POP SWAP2 SWAP1 POP JUMP JUMPDEST PUSH1 0x0 PUSH1 0x20 DUP3 ADD SWAP1 POP DUP2 DUP2 SUB PUSH1 0x0 DUP4 ADD MSTORE PUSH2 0x7B4 DUP2 PUSH2 0x778 JUMP JUMPDEST SWAP1 POP SWAP2 SWAP1 POP JUMP JUMPDEST PUSH32 0x64656C6976657279207375636365737300000000000000000000000000000000 PUSH1 0x0 DUP3 ADD MSTORE POP JUMP JUMPDEST PUSH1 0x0 PUSH2 0x7F1 PUSH1 0x10 DUP4 PUSH2 0x4B6 JUMP JUMPDEST SWAP2 POP PUSH2 0x7FC DUP3 PUSH2 0x7BB JUMP JUMPDEST PUSH1 0x20 DUP3 ADD SWAP1 POP SWAP2 SWAP1 POP JUMP JUMPDEST PUSH1 0x0 PUSH1 0x20 DUP3 ADD SWAP1 POP DUP2 DUP2 SUB PUSH1 0x0 DUP4 ADD MSTORE PUSH2 0x820 DUP2 PUSH2 0x7E4 JUMP JUMPDEST SWAP1 POP SWAP2 SWAP1 POP JUMP INVALID LOG2 PUSH5 0x6970667358 0x22 SLT KECCAK256 NOT PUSH14 0xF6C1BE1961B9A85E801467160B37 0xAE 0xFC 0xBA PUSH29 0x6D702E8C6ED22EFB10C1C99664736F6C63430008120033000000000000 "
				},
				"gasEstimates": {
					"creation": {
						"codeDepositCost": "428200",
						"executionCost": "24760",
						"totalCost": "452960"
					},
					"external": {
						"deliveryFood()": "28485",
						"foodStatus()": "2623",
						"orderFood()": "28419",
						"paymentFood()": "28489",
						"takeAwayFood()": "6349"
					}
				},
				"methodIdentifiers": {
					"deliveryFood()": "d3e9ff83",
					"foodStatus()": "d9c966fd",
					"orderFood()": "429268ae",
					"paymentFood()": "c62efc2b",
					"takeAwayFood()": "94d15a9e"
				}
			},
			"storageLayout": {
				"storage": [
					{
						"astId": 13,
						"contract": "Textbook/Chapter8/Ex8_3.sol:Ex8_3",
						"label": "foodStatus",
						"offset": 0,
						"slot": "0",
						"type": "t_enum(FoodProcess)10"
					}
				],
				"types": {
					"t_enum(FoodProcess)10": {
						"encoding": "inplace",
						"label": "enum Ex8_3.FoodProcess",
						"numberOfBytes": "1"
					}
				}
			},
			"userdoc": {
				"kind": "user",
				"methods": {},
				"version": 1
			}
		}
	}
}