{
	"Textbook/Chapter7/Ex7_2.sol": {
		"Ex7_2": {
			"abi": [
				{
					"inputs": [
						{
							"internalType": "uint256",
							"name": "num",
							"type": "uint256"
						}
					],
					"name": "runRequire",
					"outputs": [
						{
							"internalType": "uint256",
							"name": "",
							"type": "uint256"
						}
					],
					"stateMutability": "pure",
					"type": "function"
				},
				{
					"inputs": [
						{
							"internalType": "uint256",
							"name": "num",
							"type": "uint256"
						}
					],
					"name": "runRevert",
					"outputs": [
						{
							"internalType": "uint256",
							"name": "",
							"type": "uint256"
						}
					],
					"stateMutability": "pure",
					"type": "function"
				}
			],
			"devdoc": {
				"kind": "dev",
				"methods": {},
				"version": 1
			},
			"evm": {
				"assembly": "    /* \"Textbook/Chapter7/Ex7_2.sol\":57:554  contract Ex7_2 {... */\n  mstore(0x40, 0x80)\n  callvalue\n  dup1\n  iszero\n  tag_1\n  jumpi\n  0x00\n  dup1\n  revert\ntag_1:\n  pop\n  dataSize(sub_0)\n  dup1\n  dataOffset(sub_0)\n  0x00\n  codecopy\n  0x00\n  return\nstop\n\nsub_0: assembly {\n        /* \"Textbook/Chapter7/Ex7_2.sol\":57:554  contract Ex7_2 {... */\n      mstore(0x40, 0x80)\n      callvalue\n      dup1\n      iszero\n      tag_1\n      jumpi\n      0x00\n      dup1\n      revert\n    tag_1:\n      pop\n      jumpi(tag_2, lt(calldatasize, 0x04))\n      shr(0xe0, calldataload(0x00))\n      dup1\n      0xa0c6ea13\n      eq\n      tag_3\n      jumpi\n      dup1\n      0xcd95d0cc\n      eq\n      tag_4\n      jumpi\n    tag_2:\n      0x00\n      dup1\n      revert\n        /* \"Textbook/Chapter7/Ex7_2.sol\":78:304  function runRevert(uint num) ... */\n    tag_3:\n      tag_5\n      0x04\n      dup1\n      calldatasize\n      sub\n      dup2\n      add\n      swap1\n      tag_6\n      swap2\n      swap1\n      tag_7\n      jump\t// in\n    tag_6:\n      tag_8\n      jump\t// in\n    tag_5:\n      mload(0x40)\n      tag_9\n      swap2\n      swap1\n      tag_10\n      jump\t// in\n    tag_9:\n      mload(0x40)\n      dup1\n      swap2\n      sub\n      swap1\n      return\n        /* \"Textbook/Chapter7/Ex7_2.sol\":314:552  function runRequire(uint num) ... */\n    tag_4:\n      tag_11\n      0x04\n      dup1\n      calldatasize\n      sub\n      dup2\n      add\n      swap1\n      tag_12\n      swap2\n      swap1\n      tag_7\n      jump\t// in\n    tag_12:\n      tag_13\n      jump\t// in\n    tag_11:\n      mload(0x40)\n      tag_14\n      swap2\n      swap1\n      tag_10\n      jump\t// in\n    tag_14:\n      mload(0x40)\n      dup1\n      swap2\n      sub\n      swap1\n      return\n        /* \"Textbook/Chapter7/Ex7_2.sol\":78:304  function runRevert(uint num) ... */\n    tag_8:\n        /* \"Textbook/Chapter7/Ex7_2.sol\":154:158  uint */\n      0x00\n        /* \"Textbook/Chapter7/Ex7_2.sol\":185:186  3 */\n      0x03\n        /* \"Textbook/Chapter7/Ex7_2.sol\":178:181  num */\n      dup3\n        /* \"Textbook/Chapter7/Ex7_2.sol\":178:186  num <= 3 */\n      gt\n        /* \"Textbook/Chapter7/Ex7_2.sol\":174:270  if (num <= 3) {... */\n      tag_16\n      jumpi\n        /* \"Textbook/Chapter7/Ex7_2.sol\":206:255  revert(\"Revert error : should input more than 3\") */\n      mload(0x40)\n      0x08c379a000000000000000000000000000000000000000000000000000000000\n      dup2\n      mstore\n      0x04\n      add\n      tag_17\n      swap1\n      tag_18\n      jump\t// in\n    tag_17:\n      mload(0x40)\n      dup1\n      swap2\n      sub\n      swap1\n      revert\n        /* \"Textbook/Chapter7/Ex7_2.sol\":174:270  if (num <= 3) {... */\n    tag_16:\n        /* \"Textbook/Chapter7/Ex7_2.sol\":290:293  num */\n      dup2\n        /* \"Textbook/Chapter7/Ex7_2.sol\":283:293  return num */\n      swap1\n      pop\n        /* \"Textbook/Chapter7/Ex7_2.sol\":78:304  function runRevert(uint num) ... */\n      swap2\n      swap1\n      pop\n      jump\t// out\n        /* \"Textbook/Chapter7/Ex7_2.sol\":314:552  function runRequire(uint num) ... */\n    tag_13:\n        /* \"Textbook/Chapter7/Ex7_2.sol\":391:395  uint */\n      0x00\n        /* \"Textbook/Chapter7/Ex7_2.sol\":422:423  3 */\n      0x03\n        /* \"Textbook/Chapter7/Ex7_2.sol\":415:418  num */\n      dup3\n        /* \"Textbook/Chapter7/Ex7_2.sol\":415:423  num <= 3 */\n      gt\n        /* \"Textbook/Chapter7/Ex7_2.sol\":411:518  if (num <= 3) {... */\n      tag_20\n      jumpi\n        /* \"Textbook/Chapter7/Ex7_2.sol\":457:458  3 */\n      0x03\n        /* \"Textbook/Chapter7/Ex7_2.sol\":451:454  num */\n      dup3\n        /* \"Textbook/Chapter7/Ex7_2.sol\":451:458  num > 3 */\n      gt\n        /* \"Textbook/Chapter7/Ex7_2.sol\":443:503  require(num > 3, \"Require error : should input more than 3\") */\n      tag_21\n      jumpi\n      mload(0x40)\n      0x08c379a000000000000000000000000000000000000000000000000000000000\n      dup2\n      mstore\n      0x04\n      add\n      tag_22\n      swap1\n      tag_23\n      jump\t// in\n    tag_22:\n      mload(0x40)\n      dup1\n      swap2\n      sub\n      swap1\n      revert\n    tag_21:\n        /* \"Textbook/Chapter7/Ex7_2.sol\":411:518  if (num <= 3) {... */\n    tag_20:\n        /* \"Textbook/Chapter7/Ex7_2.sol\":538:541  num */\n      dup2\n        /* \"Textbook/Chapter7/Ex7_2.sol\":531:541  return num */\n      swap1\n      pop\n        /* \"Textbook/Chapter7/Ex7_2.sol\":314:552  function runRequire(uint num) ... */\n      swap2\n      swap1\n      pop\n      jump\t// out\n        /* \"#utility.yul\":88:205   */\n    tag_25:\n        /* \"#utility.yul\":197:198   */\n      0x00\n        /* \"#utility.yul\":194:195   */\n      dup1\n        /* \"#utility.yul\":187:199   */\n      revert\n        /* \"#utility.yul\":334:411   */\n    tag_27:\n        /* \"#utility.yul\":371:378   */\n      0x00\n        /* \"#utility.yul\":400:405   */\n      dup2\n        /* \"#utility.yul\":389:405   */\n      swap1\n      pop\n        /* \"#utility.yul\":334:411   */\n      swap2\n      swap1\n      pop\n      jump\t// out\n        /* \"#utility.yul\":417:539   */\n    tag_28:\n        /* \"#utility.yul\":490:514   */\n      tag_42\n        /* \"#utility.yul\":508:513   */\n      dup2\n        /* \"#utility.yul\":490:514   */\n      tag_27\n      jump\t// in\n    tag_42:\n        /* \"#utility.yul\":483:488   */\n      dup2\n        /* \"#utility.yul\":480:515   */\n      eq\n        /* \"#utility.yul\":470:533   */\n      tag_43\n      jumpi\n        /* \"#utility.yul\":529:530   */\n      0x00\n        /* \"#utility.yul\":526:527   */\n      dup1\n        /* \"#utility.yul\":519:531   */\n      revert\n        /* \"#utility.yul\":470:533   */\n    tag_43:\n        /* \"#utility.yul\":417:539   */\n      pop\n      jump\t// out\n        /* \"#utility.yul\":545:684   */\n    tag_29:\n        /* \"#utility.yul\":591:596   */\n      0x00\n        /* \"#utility.yul\":629:635   */\n      dup2\n        /* \"#utility.yul\":616:636   */\n      calldataload\n        /* \"#utility.yul\":607:636   */\n      swap1\n      pop\n        /* \"#utility.yul\":645:678   */\n      tag_45\n        /* \"#utility.yul\":672:677   */\n      dup2\n        /* \"#utility.yul\":645:678   */\n      tag_28\n      jump\t// in\n    tag_45:\n        /* \"#utility.yul\":545:684   */\n      swap3\n      swap2\n      pop\n      pop\n      jump\t// out\n        /* \"#utility.yul\":690:1019   */\n    tag_7:\n        /* \"#utility.yul\":749:755   */\n      0x00\n        /* \"#utility.yul\":798:800   */\n      0x20\n        /* \"#utility.yul\":786:795   */\n      dup3\n        /* \"#utility.yul\":777:784   */\n      dup5\n        /* \"#utility.yul\":773:796   */\n      sub\n        /* \"#utility.yul\":769:801   */\n      slt\n        /* \"#utility.yul\":766:885   */\n      iszero\n      tag_47\n      jumpi\n        /* \"#utility.yul\":804:883   */\n      tag_48\n      tag_25\n      jump\t// in\n    tag_48:\n        /* \"#utility.yul\":766:885   */\n    tag_47:\n        /* \"#utility.yul\":924:925   */\n      0x00\n        /* \"#utility.yul\":949:1002   */\n      tag_49\n        /* \"#utility.yul\":994:1001   */\n      dup5\n        /* \"#utility.yul\":985:991   */\n      dup3\n        /* \"#utility.yul\":974:983   */\n      dup6\n        /* \"#utility.yul\":970:992   */\n      add\n        /* \"#utility.yul\":949:1002   */\n      tag_29\n      jump\t// in\n    tag_49:\n        /* \"#utility.yul\":939:1002   */\n      swap2\n      pop\n        /* \"#utility.yul\":895:1012   */\n      pop\n        /* \"#utility.yul\":690:1019   */\n      swap3\n      swap2\n      pop\n      pop\n      jump\t// out\n        /* \"#utility.yul\":1025:1143   */\n    tag_30:\n        /* \"#utility.yul\":1112:1136   */\n      tag_51\n        /* \"#utility.yul\":1130:1135   */\n      dup2\n        /* \"#utility.yul\":1112:1136   */\n      tag_27\n      jump\t// in\n    tag_51:\n        /* \"#utility.yul\":1107:1110   */\n      dup3\n        /* \"#utility.yul\":1100:1137   */\n      mstore\n        /* \"#utility.yul\":1025:1143   */\n      pop\n      pop\n      jump\t// out\n        /* \"#utility.yul\":1149:1371   */\n    tag_10:\n        /* \"#utility.yul\":1242:1246   */\n      0x00\n        /* \"#utility.yul\":1280:1282   */\n      0x20\n        /* \"#utility.yul\":1269:1278   */\n      dup3\n        /* \"#utility.yul\":1265:1283   */\n      add\n        /* \"#utility.yul\":1257:1283   */\n      swap1\n      pop\n        /* \"#utility.yul\":1293:1364   */\n      tag_53\n        /* \"#utility.yul\":1361:1362   */\n      0x00\n        /* \"#utility.yul\":1350:1359   */\n      dup4\n        /* \"#utility.yul\":1346:1363   */\n      add\n        /* \"#utility.yul\":1337:1343   */\n      dup5\n        /* \"#utility.yul\":1293:1364   */\n      tag_30\n      jump\t// in\n    tag_53:\n        /* \"#utility.yul\":1149:1371   */\n      swap3\n      swap2\n      pop\n      pop\n      jump\t// out\n        /* \"#utility.yul\":1377:1546   */\n    tag_31:\n        /* \"#utility.yul\":1461:1472   */\n      0x00\n        /* \"#utility.yul\":1495:1501   */\n      dup3\n        /* \"#utility.yul\":1490:1493   */\n      dup3\n        /* \"#utility.yul\":1483:1502   */\n      mstore\n        /* \"#utility.yul\":1535:1539   */\n      0x20\n        /* \"#utility.yul\":1530:1533   */\n      dup3\n        /* \"#utility.yul\":1526:1540   */\n      add\n        /* \"#utility.yul\":1511:1540   */\n      swap1\n      pop\n        /* \"#utility.yul\":1377:1546   */\n      swap3\n      swap2\n      pop\n      pop\n      jump\t// out\n        /* \"#utility.yul\":1552:1778   */\n    tag_32:\n        /* \"#utility.yul\":1692:1726   */\n      0x526576657274206572726f72203a2073686f756c6420696e707574206d6f7265\n        /* \"#utility.yul\":1688:1689   */\n      0x00\n        /* \"#utility.yul\":1680:1686   */\n      dup3\n        /* \"#utility.yul\":1676:1690   */\n      add\n        /* \"#utility.yul\":1669:1727   */\n      mstore\n        /* \"#utility.yul\":1761:1770   */\n      0x207468616e203300000000000000000000000000000000000000000000000000\n        /* \"#utility.yul\":1756:1758   */\n      0x20\n        /* \"#utility.yul\":1748:1754   */\n      dup3\n        /* \"#utility.yul\":1744:1759   */\n      add\n        /* \"#utility.yul\":1737:1771   */\n      mstore\n        /* \"#utility.yul\":1552:1778   */\n      pop\n      jump\t// out\n        /* \"#utility.yul\":1784:2150   */\n    tag_33:\n        /* \"#utility.yul\":1926:1929   */\n      0x00\n        /* \"#utility.yul\":1947:2014   */\n      tag_57\n        /* \"#utility.yul\":2011:2013   */\n      0x27\n        /* \"#utility.yul\":2006:2009   */\n      dup4\n        /* \"#utility.yul\":1947:2014   */\n      tag_31\n      jump\t// in\n    tag_57:\n        /* \"#utility.yul\":1940:2014   */\n      swap2\n      pop\n        /* \"#utility.yul\":2023:2116   */\n      tag_58\n        /* \"#utility.yul\":2112:2115   */\n      dup3\n        /* \"#utility.yul\":2023:2116   */\n      tag_32\n      jump\t// in\n    tag_58:\n        /* \"#utility.yul\":2141:2143   */\n      0x40\n        /* \"#utility.yul\":2136:2139   */\n      dup3\n        /* \"#utility.yul\":2132:2144   */\n      add\n        /* \"#utility.yul\":2125:2144   */\n      swap1\n      pop\n        /* \"#utility.yul\":1784:2150   */\n      swap2\n      swap1\n      pop\n      jump\t// out\n        /* \"#utility.yul\":2156:2575   */\n    tag_18:\n        /* \"#utility.yul\":2322:2326   */\n      0x00\n        /* \"#utility.yul\":2360:2362   */\n      0x20\n        /* \"#utility.yul\":2349:2358   */\n      dup3\n        /* \"#utility.yul\":2345:2363   */\n      add\n        /* \"#utility.yul\":2337:2363   */\n      swap1\n      pop\n        /* \"#utility.yul\":2409:2418   */\n      dup2\n        /* \"#utility.yul\":2403:2407   */\n      dup2\n        /* \"#utility.yul\":2399:2419   */\n      sub\n        /* \"#utility.yul\":2395:2396   */\n      0x00\n        /* \"#utility.yul\":2384:2393   */\n      dup4\n        /* \"#utility.yul\":2380:2397   */\n      add\n        /* \"#utility.yul\":2373:2420   */\n      mstore\n        /* \"#utility.yul\":2437:2568   */\n      tag_60\n        /* \"#utility.yul\":2563:2567   */\n      dup2\n        /* \"#utility.yul\":2437:2568   */\n      tag_33\n      jump\t// in\n    tag_60:\n        /* \"#utility.yul\":2429:2568   */\n      swap1\n      pop\n        /* \"#utility.yul\":2156:2575   */\n      swap2\n      swap1\n      pop\n      jump\t// out\n        /* \"#utility.yul\":2581:2808   */\n    tag_34:\n        /* \"#utility.yul\":2721:2755   */\n      0x52657175697265206572726f72203a2073686f756c6420696e707574206d6f72\n        /* \"#utility.yul\":2717:2718   */\n      0x00\n        /* \"#utility.yul\":2709:2715   */\n      dup3\n        /* \"#utility.yul\":2705:2719   */\n      add\n        /* \"#utility.yul\":2698:2756   */\n      mstore\n        /* \"#utility.yul\":2790:2800   */\n      0x65207468616e2033000000000000000000000000000000000000000000000000\n        /* \"#utility.yul\":2785:2787   */\n      0x20\n        /* \"#utility.yul\":2777:2783   */\n      dup3\n        /* \"#utility.yul\":2773:2788   */\n      add\n        /* \"#utility.yul\":2766:2801   */\n      mstore\n        /* \"#utility.yul\":2581:2808   */\n      pop\n      jump\t// out\n        /* \"#utility.yul\":2814:3180   */\n    tag_35:\n        /* \"#utility.yul\":2956:2959   */\n      0x00\n        /* \"#utility.yul\":2977:3044   */\n      tag_63\n        /* \"#utility.yul\":3041:3043   */\n      0x28\n        /* \"#utility.yul\":3036:3039   */\n      dup4\n        /* \"#utility.yul\":2977:3044   */\n      tag_31\n      jump\t// in\n    tag_63:\n        /* \"#utility.yul\":2970:3044   */\n      swap2\n      pop\n        /* \"#utility.yul\":3053:3146   */\n      tag_64\n        /* \"#utility.yul\":3142:3145   */\n      dup3\n        /* \"#utility.yul\":3053:3146   */\n      tag_34\n      jump\t// in\n    tag_64:\n        /* \"#utility.yul\":3171:3173   */\n      0x40\n        /* \"#utility.yul\":3166:3169   */\n      dup3\n        /* \"#utility.yul\":3162:3174   */\n      add\n        /* \"#utility.yul\":3155:3174   */\n      swap1\n      pop\n        /* \"#utility.yul\":2814:3180   */\n      swap2\n      swap1\n      pop\n      jump\t// out\n        /* \"#utility.yul\":3186:3605   */\n    tag_23:\n        /* \"#utility.yul\":3352:3356   */\n      0x00\n        /* \"#utility.yul\":3390:3392   */\n      0x20\n        /* \"#utility.yul\":3379:3388   */\n      dup3\n        /* \"#utility.yul\":3375:3393   */\n      add\n        /* \"#utility.yul\":3367:3393   */\n      swap1\n      pop\n        /* \"#utility.yul\":3439:3448   */\n      dup2\n        /* \"#utility.yul\":3433:3437   */\n      dup2\n        /* \"#utility.yul\":3429:3449   */\n      sub\n        /* \"#utility.yul\":3425:3426   */\n      0x00\n        /* \"#utility.yul\":3414:3423   */\n      dup4\n        /* \"#utility.yul\":3410:3427   */\n      add\n        /* \"#utility.yul\":3403:3450   */\n      mstore\n        /* \"#utility.yul\":3467:3598   */\n      tag_66\n        /* \"#utility.yul\":3593:3597   */\n      dup2\n        /* \"#utility.yul\":3467:3598   */\n      tag_35\n      jump\t// in\n    tag_66:\n        /* \"#utility.yul\":3459:3598   */\n      swap1\n      pop\n        /* \"#utility.yul\":3186:3605   */\n      swap2\n      swap1\n      pop\n      jump\t// out\n\n    auxdata: 0xa2646970667358221220050319f0af07b600c2784ee56a2708f8c6336f9df5f64e096ed014fce4a432a364736f6c63430008120033\n}\n",
				"bytecode": {
					"linkReferences": {},
					"object": "608060405234801561001057600080fd5b5061033b806100206000396000f3fe608060405234801561001057600080fd5b50600436106100365760003560e01c8063a0c6ea131461003b578063cd95d0cc1461006b575b600080fd5b61005560048036038101906100509190610179565b61009b565b60405161006291906101b5565b60405180910390f35b61008560048036038101906100809190610179565b6100e8565b60405161009291906101b5565b60405180910390f35b6000600382116100e0576040517f08c379a00000000000000000000000000000000000000000000000000000000081526004016100d790610253565b60405180910390fd5b819050919050565b6000600382116101365760038211610135576040517f08c379a000000000000000000000000000000000000000000000000000000000815260040161012c906102e5565b60405180910390fd5b5b819050919050565b600080fd5b6000819050919050565b61015681610143565b811461016157600080fd5b50565b6000813590506101738161014d565b92915050565b60006020828403121561018f5761018e61013e565b5b600061019d84828501610164565b91505092915050565b6101af81610143565b82525050565b60006020820190506101ca60008301846101a6565b92915050565b600082825260208201905092915050565b7f526576657274206572726f72203a2073686f756c6420696e707574206d6f726560008201527f207468616e203300000000000000000000000000000000000000000000000000602082015250565b600061023d6027836101d0565b9150610248826101e1565b604082019050919050565b6000602082019050818103600083015261026c81610230565b9050919050565b7f52657175697265206572726f72203a2073686f756c6420696e707574206d6f7260008201527f65207468616e2033000000000000000000000000000000000000000000000000602082015250565b60006102cf6028836101d0565b91506102da82610273565b604082019050919050565b600060208201905081810360008301526102fe816102c2565b905091905056fea2646970667358221220050319f0af07b600c2784ee56a2708f8c6336f9df5f64e096ed014fce4a432a364736f6c63430008120033",
					"opcodes": "PUSH1 0x80 PUSH1 0x40 MSTORE CALLVALUE DUP1 ISZERO PUSH2 0x10 JUMPI PUSH1 0x0 DUP1 REVERT JUMPDEST POP PUSH2 0x33B DUP1 PUSH2 0x20 PUSH1 0x0 CODECOPY PUSH1 0x0 RETURN INVALID PUSH1 0x80 PUSH1 0x40 MSTORE CALLVALUE DUP1 ISZERO PUSH2 0x10 JUMPI PUSH1 0x0 DUP1 REVERT JUMPDEST POP PUSH1 0x4 CALLDATASIZE LT PUSH2 0x36 JUMPI PUSH1 0x0 CALLDATALOAD PUSH1 0xE0 SHR DUP1 PUSH4 0xA0C6EA13 EQ PUSH2 0x3B JUMPI DUP1 PUSH4 0xCD95D0CC EQ PUSH2 0x6B JUMPI JUMPDEST PUSH1 0x0 DUP1 REVERT JUMPDEST PUSH2 0x55 PUSH1 0x4 DUP1 CALLDATASIZE SUB DUP2 ADD SWAP1 PUSH2 0x50 SWAP2 SWAP1 PUSH2 0x179 JUMP JUMPDEST PUSH2 0x9B JUMP JUMPDEST PUSH1 0x40 MLOAD PUSH2 0x62 SWAP2 SWAP1 PUSH2 0x1B5 JUMP JUMPDEST PUSH1 0x40 MLOAD DUP1 SWAP2 SUB SWAP1 RETURN JUMPDEST PUSH2 0x85 PUSH1 0x4 DUP1 CALLDATASIZE SUB DUP2 ADD SWAP1 PUSH2 0x80 SWAP2 SWAP1 PUSH2 0x179 JUMP JUMPDEST PUSH2 0xE8 JUMP JUMPDEST PUSH1 0x40 MLOAD PUSH2 0x92 SWAP2 SWAP1 PUSH2 0x1B5 JUMP JUMPDEST PUSH1 0x40 MLOAD DUP1 SWAP2 SUB SWAP1 RETURN JUMPDEST PUSH1 0x0 PUSH1 0x3 DUP3 GT PUSH2 0xE0 JUMPI PUSH1 0x40 MLOAD PUSH32 0x8C379A000000000000000000000000000000000000000000000000000000000 DUP2 MSTORE PUSH1 0x4 ADD PUSH2 0xD7 SWAP1 PUSH2 0x253 JUMP JUMPDEST PUSH1 0x40 MLOAD DUP1 SWAP2 SUB SWAP1 REVERT JUMPDEST DUP2 SWAP1 POP SWAP2 SWAP1 POP JUMP JUMPDEST PUSH1 0x0 PUSH1 0x3 DUP3 GT PUSH2 0x136 JUMPI PUSH1 0x3 DUP3 GT PUSH2 0x135 JUMPI PUSH1 0x40 MLOAD PUSH32 0x8C379A000000000000000000000000000000000000000000000000000000000 DUP2 MSTORE PUSH1 0x4 ADD PUSH2 0x12C SWAP1 PUSH2 0x2E5 JUMP JUMPDEST PUSH1 0x40 MLOAD DUP1 SWAP2 SUB SWAP1 REVERT JUMPDEST JUMPDEST DUP2 SWAP1 POP SWAP2 SWAP1 POP JUMP JUMPDEST PUSH1 0x0 DUP1 REVERT JUMPDEST PUSH1 0x0 DUP2 SWAP1 POP SWAP2 SWAP1 POP JUMP JUMPDEST PUSH2 0x156 DUP2 PUSH2 0x143 JUMP JUMPDEST DUP2 EQ PUSH2 0x161 JUMPI PUSH1 0x0 DUP1 REVERT JUMPDEST POP JUMP JUMPDEST PUSH1 0x0 DUP2 CALLDATALOAD SWAP1 POP PUSH2 0x173 DUP2 PUSH2 0x14D JUMP JUMPDEST SWAP3 SWAP2 POP POP JUMP JUMPDEST PUSH1 0x0 PUSH1 0x20 DUP3 DUP5 SUB SLT ISZERO PUSH2 0x18F JUMPI PUSH2 0x18E PUSH2 0x13E JUMP JUMPDEST JUMPDEST PUSH1 0x0 PUSH2 0x19D DUP5 DUP3 DUP6 ADD PUSH2 0x164 JUMP JUMPDEST SWAP2 POP POP SWAP3 SWAP2 POP POP JUMP JUMPDEST PUSH2 0x1AF DUP2 PUSH2 0x143 JUMP JUMPDEST DUP3 MSTORE POP POP JUMP JUMPDEST PUSH1 0x0 PUSH1 0x20 DUP3 ADD SWAP1 POP PUSH2 0x1CA PUSH1 0x0 DUP4 ADD DUP5 PUSH2 0x1A6 JUMP JUMPDEST SWAP3 SWAP2 POP POP JUMP JUMPDEST PUSH1 0x0 DUP3 DUP3 MSTORE PUSH1 0x20 DUP3 ADD SWAP1 POP SWAP3 SWAP2 POP POP JUMP JUMPDEST PUSH32 0x526576657274206572726F72203A2073686F756C6420696E707574206D6F7265 PUSH1 0x0 DUP3 ADD MSTORE PUSH32 0x207468616E203300000000000000000000000000000000000000000000000000 PUSH1 0x20 DUP3 ADD MSTORE POP JUMP JUMPDEST PUSH1 0x0 PUSH2 0x23D PUSH1 0x27 DUP4 PUSH2 0x1D0 JUMP JUMPDEST SWAP2 POP PUSH2 0x248 DUP3 PUSH2 0x1E1 JUMP JUMPDEST PUSH1 0x40 DUP3 ADD SWAP1 POP SWAP2 SWAP1 POP JUMP JUMPDEST PUSH1 0x0 PUSH1 0x20 DUP3 ADD SWAP1 POP DUP2 DUP2 SUB PUSH1 0x0 DUP4 ADD MSTORE PUSH2 0x26C DUP2 PUSH2 0x230 JUMP JUMPDEST SWAP1 POP SWAP2 SWAP1 POP JUMP JUMPDEST PUSH32 0x52657175697265206572726F72203A2073686F756C6420696E707574206D6F72 PUSH1 0x0 DUP3 ADD MSTORE PUSH32 0x65207468616E2033000000000000000000000000000000000000000000000000 PUSH1 0x20 DUP3 ADD MSTORE POP JUMP JUMPDEST PUSH1 0x0 PUSH2 0x2CF PUSH1 0x28 DUP4 PUSH2 0x1D0 JUMP JUMPDEST SWAP2 POP PUSH2 0x2DA DUP3 PUSH2 0x273 JUMP JUMPDEST PUSH1 0x40 DUP3 ADD SWAP1 POP SWAP2 SWAP1 POP JUMP JUMPDEST PUSH1 0x0 PUSH1 0x20 DUP3 ADD SWAP1 POP DUP2 DUP2 SUB PUSH1 0x0 DUP4 ADD MSTORE PUSH2 0x2FE DUP2 PUSH2 0x2C2 JUMP JUMPDEST SWAP1 POP SWAP2 SWAP1 POP JUMP INVALID LOG2 PUSH5 0x6970667358 0x22 SLT KECCAK256 SDIV SUB NOT CREATE 0xAF SMOD 0xB6 STOP 0xC2 PUSH25 0x4EE56A2708F8C6336F9DF5F64E096ED014FCE4A432A364736F PUSH13 0x63430008120033000000000000 "
				},
				"gasEstimates": {
					"creation": {
						"codeDepositCost": "165400",
						"executionCost": "208",
						"totalCost": "165608"
					},
					"external": {
						"runRequire(uint256)": "infinite",
						"runRevert(uint256)": "infinite"
					}
				},
				"methodIdentifiers": {
					"runRequire(uint256)": "cd95d0cc",
					"runRevert(uint256)": "a0c6ea13"
				}
			},
			"storageLayout": {
				"storage": [],
				"types": null
			},
			"userdoc": {
				"kind": "user",
				"methods": {},
				"version": 1
			}
		}
	}
}