{
	"Textbook/Chapter7/quiz3.sol": {
		"quiz3": {
			"abi": [
				{
					"inputs": [],
					"name": "arrPop",
					"outputs": [],
					"stateMutability": "nonpayable",
					"type": "function"
				},
				{
					"inputs": [],
					"name": "arrPopWithTryCatch",
					"outputs": [
						{
							"internalType": "bool",
							"name": "",
							"type": "bool"
						}
					],
					"stateMutability": "nonpayable",
					"type": "function"
				}
			],
			"devdoc": {
				"kind": "dev",
				"methods": {},
				"version": 1
			},
			"evm": {
				"assembly": "    /* \"Textbook/Chapter7/quiz3.sol\":57:391  contract quiz3 {... */\n  mstore(0x40, 0x80)\n  callvalue\n  dup1\n  iszero\n  tag_1\n  jumpi\n  0x00\n  dup1\n  revert\ntag_1:\n  pop\n  dataSize(sub_0)\n  dup1\n  dataOffset(sub_0)\n  0x00\n  codecopy\n  0x00\n  return\nstop\n\nsub_0: assembly {\n        /* \"Textbook/Chapter7/quiz3.sol\":57:391  contract quiz3 {... */\n      mstore(0x40, 0x80)\n      callvalue\n      dup1\n      iszero\n      tag_1\n      jumpi\n      0x00\n      dup1\n      revert\n    tag_1:\n      pop\n      jumpi(tag_2, lt(calldatasize, 0x04))\n      shr(0xe0, calldataload(0x00))\n      dup1\n      0xac9fc382\n      eq\n      tag_3\n      jumpi\n      dup1\n      0xc01023a2\n      eq\n      tag_4\n      jumpi\n    tag_2:\n      0x00\n      dup1\n      revert\n        /* \"Textbook/Chapter7/quiz3.sol\":177:389  function arrPopWithTryCatch()... */\n    tag_3:\n      tag_5\n      tag_6\n      jump\t// in\n    tag_5:\n      mload(0x40)\n      tag_7\n      swap2\n      swap1\n      tag_8\n      jump\t// in\n    tag_7:\n      mload(0x40)\n      dup1\n      swap2\n      sub\n      swap1\n      return\n        /* \"Textbook/Chapter7/quiz3.sol\":100:167  function arrPop()... */\n    tag_4:\n      tag_9\n      tag_10\n      jump\t// in\n    tag_9:\n      stop\n        /* \"Textbook/Chapter7/quiz3.sol\":177:389  function arrPopWithTryCatch()... */\n    tag_6:\n        /* \"Textbook/Chapter7/quiz3.sol\":239:243  bool */\n      0x00\n        /* \"Textbook/Chapter7/quiz3.sol\":263:267  this */\n      address\n        /* \"Textbook/Chapter7/quiz3.sol\":263:274  this.arrPop */\n      0xffffffffffffffffffffffffffffffffffffffff\n      and\n      0xc01023a2\n        /* \"Textbook/Chapter7/quiz3.sol\":263:276  this.arrPop() */\n      mload(0x40)\n      dup2\n      0xffffffff\n      and\n      0xe0\n      shl\n      dup2\n      mstore\n      0x04\n      add\n      0x00\n      mload(0x40)\n      dup1\n      dup4\n      sub\n      dup2\n      0x00\n      dup8\n      dup1\n      extcodesize\n      iszero\n      dup1\n      iszero\n      tag_12\n      jumpi\n      0x00\n      dup1\n      revert\n    tag_12:\n      pop\n      gas\n      call\n      swap3\n      pop\n      pop\n      pop\n      dup1\n      iszero\n      tag_13\n      jumpi\n      pop\n      0x01\n    tag_13:\n        /* \"Textbook/Chapter7/quiz3.sol\":259:379  try this.arrPop() {... */\n      tag_14\n      jumpi\n        /* \"Textbook/Chapter7/quiz3.sol\":357:362  false */\n      0x00\n        /* \"Textbook/Chapter7/quiz3.sol\":349:363  return (false) */\n      swap1\n      pop\n      jump(tag_11)\n        /* \"Textbook/Chapter7/quiz3.sol\":259:379  try this.arrPop() {... */\n    tag_14:\n        /* \"Textbook/Chapter7/quiz3.sol\":303:307  true */\n      0x01\n        /* \"Textbook/Chapter7/quiz3.sol\":295:308  return (true) */\n      swap1\n      pop\n        /* \"Textbook/Chapter7/quiz3.sol\":177:389  function arrPopWithTryCatch()... */\n    tag_11:\n      swap1\n      jump\t// out\n        /* \"Textbook/Chapter7/quiz3.sol\":100:167  function arrPop()... */\n    tag_10:\n        /* \"Textbook/Chapter7/quiz3.sol\":147:150  arr */\n      0x00\n        /* \"Textbook/Chapter7/quiz3.sol\":147:156  arr.pop() */\n      dup1\n      sload\n      dup1\n      tag_20\n      jumpi\n      tag_21\n      tag_22\n      jump\t// in\n    tag_21:\n    tag_20:\n      0x01\n      swap1\n      sub\n      dup2\n      dup2\n      swap1\n      0x00\n      mstore\n      keccak256(0x00, 0x20)\n      add\n      0x00\n      swap1\n      sstore\n      swap1\n      sstore\n        /* \"Textbook/Chapter7/quiz3.sol\":100:167  function arrPop()... */\n      jump\t// out\n        /* \"#utility.yul\":7:97   */\n    tag_24:\n        /* \"#utility.yul\":41:48   */\n      0x00\n        /* \"#utility.yul\":84:89   */\n      dup2\n        /* \"#utility.yul\":77:90   */\n      iszero\n        /* \"#utility.yul\":70:91   */\n      iszero\n        /* \"#utility.yul\":59:91   */\n      swap1\n      pop\n        /* \"#utility.yul\":7:97   */\n      swap2\n      swap1\n      pop\n      jump\t// out\n        /* \"#utility.yul\":103:212   */\n    tag_25:\n        /* \"#utility.yul\":184:205   */\n      tag_29\n        /* \"#utility.yul\":199:204   */\n      dup2\n        /* \"#utility.yul\":184:205   */\n      tag_24\n      jump\t// in\n    tag_29:\n        /* \"#utility.yul\":179:182   */\n      dup3\n        /* \"#utility.yul\":172:206   */\n      mstore\n        /* \"#utility.yul\":103:212   */\n      pop\n      pop\n      jump\t// out\n        /* \"#utility.yul\":218:428   */\n    tag_8:\n        /* \"#utility.yul\":305:309   */\n      0x00\n        /* \"#utility.yul\":343:345   */\n      0x20\n        /* \"#utility.yul\":332:341   */\n      dup3\n        /* \"#utility.yul\":328:346   */\n      add\n        /* \"#utility.yul\":320:346   */\n      swap1\n      pop\n        /* \"#utility.yul\":356:421   */\n      tag_31\n        /* \"#utility.yul\":418:419   */\n      0x00\n        /* \"#utility.yul\":407:416   */\n      dup4\n        /* \"#utility.yul\":403:420   */\n      add\n        /* \"#utility.yul\":394:400   */\n      dup5\n        /* \"#utility.yul\":356:421   */\n      tag_25\n      jump\t// in\n    tag_31:\n        /* \"#utility.yul\":218:428   */\n      swap3\n      swap2\n      pop\n      pop\n      jump\t// out\n        /* \"#utility.yul\":434:614   */\n    tag_22:\n        /* \"#utility.yul\":482:559   */\n      0x4e487b7100000000000000000000000000000000000000000000000000000000\n        /* \"#utility.yul\":479:480   */\n      0x00\n        /* \"#utility.yul\":472:560   */\n      mstore\n        /* \"#utility.yul\":579:583   */\n      0x31\n        /* \"#utility.yul\":576:577   */\n      0x04\n        /* \"#utility.yul\":569:584   */\n      mstore\n        /* \"#utility.yul\":603:607   */\n      0x24\n        /* \"#utility.yul\":600:601   */\n      0x00\n        /* \"#utility.yul\":593:608   */\n      revert\n\n    auxdata: 0xa26469706673582212203a07f96d0f9213a4134530cdbe8e6c4dce6bcb4bf0ffa00cff88c29901cc2cc064736f6c63430008120033\n}\n",
				"bytecode": {
					"linkReferences": {},
					"object": "608060405234801561001057600080fd5b50610198806100206000396000f3fe608060405234801561001057600080fd5b50600436106100365760003560e01c8063ac9fc3821461003b578063c01023a214610059575b600080fd5b610043610063565b6040516100509190610118565b60405180910390f35b6100616100d3565b005b60003073ffffffffffffffffffffffffffffffffffffffff1663c01023a26040518163ffffffff1660e01b8152600401600060405180830381600087803b1580156100ad57600080fd5b505af19250505080156100be575060015b6100cb57600090506100d0565b600190505b90565b60008054806100e5576100e4610133565b5b60019003818190600052602060002001600090559055565b60008115159050919050565b610112816100fd565b82525050565b600060208201905061012d6000830184610109565b92915050565b7f4e487b7100000000000000000000000000000000000000000000000000000000600052603160045260246000fdfea26469706673582212203a07f96d0f9213a4134530cdbe8e6c4dce6bcb4bf0ffa00cff88c29901cc2cc064736f6c63430008120033",
					"opcodes": "PUSH1 0x80 PUSH1 0x40 MSTORE CALLVALUE DUP1 ISZERO PUSH2 0x10 JUMPI PUSH1 0x0 DUP1 REVERT JUMPDEST POP PUSH2 0x198 DUP1 PUSH2 0x20 PUSH1 0x0 CODECOPY PUSH1 0x0 RETURN INVALID PUSH1 0x80 PUSH1 0x40 MSTORE CALLVALUE DUP1 ISZERO PUSH2 0x10 JUMPI PUSH1 0x0 DUP1 REVERT JUMPDEST POP PUSH1 0x4 CALLDATASIZE LT PUSH2 0x36 JUMPI PUSH1 0x0 CALLDATALOAD PUSH1 0xE0 SHR DUP1 PUSH4 0xAC9FC382 EQ PUSH2 0x3B JUMPI DUP1 PUSH4 0xC01023A2 EQ PUSH2 0x59 JUMPI JUMPDEST PUSH1 0x0 DUP1 REVERT JUMPDEST PUSH2 0x43 PUSH2 0x63 JUMP JUMPDEST PUSH1 0x40 MLOAD PUSH2 0x50 SWAP2 SWAP1 PUSH2 0x118 JUMP JUMPDEST PUSH1 0x40 MLOAD DUP1 SWAP2 SUB SWAP1 RETURN JUMPDEST PUSH2 0x61 PUSH2 0xD3 JUMP JUMPDEST STOP JUMPDEST PUSH1 0x0 ADDRESS PUSH20 0xFFFFFFFFFFFFFFFFFFFFFFFFFFFFFFFFFFFFFFFF AND PUSH4 0xC01023A2 PUSH1 0x40 MLOAD DUP2 PUSH4 0xFFFFFFFF AND PUSH1 0xE0 SHL DUP2 MSTORE PUSH1 0x4 ADD PUSH1 0x0 PUSH1 0x40 MLOAD DUP1 DUP4 SUB DUP2 PUSH1 0x0 DUP8 DUP1 EXTCODESIZE ISZERO DUP1 ISZERO PUSH2 0xAD JUMPI PUSH1 0x0 DUP1 REVERT JUMPDEST POP GAS CALL SWAP3 POP POP POP DUP1 ISZERO PUSH2 0xBE JUMPI POP PUSH1 0x1 JUMPDEST PUSH2 0xCB JUMPI PUSH1 0x0 SWAP1 POP PUSH2 0xD0 JUMP JUMPDEST PUSH1 0x1 SWAP1 POP JUMPDEST SWAP1 JUMP JUMPDEST PUSH1 0x0 DUP1 SLOAD DUP1 PUSH2 0xE5 JUMPI PUSH2 0xE4 PUSH2 0x133 JUMP JUMPDEST JUMPDEST PUSH1 0x1 SWAP1 SUB DUP2 DUP2 SWAP1 PUSH1 0x0 MSTORE PUSH1 0x20 PUSH1 0x0 KECCAK256 ADD PUSH1 0x0 SWAP1 SSTORE SWAP1 SSTORE JUMP JUMPDEST PUSH1 0x0 DUP2 ISZERO ISZERO SWAP1 POP SWAP2 SWAP1 POP JUMP JUMPDEST PUSH2 0x112 DUP2 PUSH2 0xFD JUMP JUMPDEST DUP3 MSTORE POP POP JUMP JUMPDEST PUSH1 0x0 PUSH1 0x20 DUP3 ADD SWAP1 POP PUSH2 0x12D PUSH1 0x0 DUP4 ADD DUP5 PUSH2 0x109 JUMP JUMPDEST SWAP3 SWAP2 POP POP JUMP JUMPDEST PUSH32 0x4E487B7100000000000000000000000000000000000000000000000000000000 PUSH1 0x0 MSTORE PUSH1 0x31 PUSH1 0x4 MSTORE PUSH1 0x24 PUSH1 0x0 REVERT INVALID LOG2 PUSH5 0x6970667358 0x22 SLT KECCAK256 GASPRICE SMOD 0xF9 PUSH14 0xF9213A4134530CDBE8E6C4DCE6B 0xCB 0x4B CREATE SELFDESTRUCT LOG0 0xC SELFDESTRUCT DUP9 0xC2 SWAP10 ADD 0xCC 0x2C 0xC0 PUSH5 0x736F6C6343 STOP ADDMOD SLT STOP CALLER "
				},
				"gasEstimates": {
					"creation": {
						"codeDepositCost": "81600",
						"executionCost": "129",
						"totalCost": "81729"
					},
					"external": {
						"arrPop()": "29445",
						"arrPopWithTryCatch()": "infinite"
					}
				},
				"methodIdentifiers": {
					"arrPop()": "c01023a2",
					"arrPopWithTryCatch()": "ac9fc382"
				}
			},
			"storageLayout": {
				"storage": [
					{
						"astId": 4,
						"contract": "Textbook/Chapter7/quiz3.sol:quiz3",
						"label": "arr",
						"offset": 0,
						"slot": "0",
						"type": "t_array(t_uint256)dyn_storage"
					}
				],
				"types": {
					"t_array(t_uint256)dyn_storage": {
						"base": "t_uint256",
						"encoding": "dynamic_array",
						"label": "uint256[]",
						"numberOfBytes": "32"
					},
					"t_uint256": {
						"encoding": "inplace",
						"label": "uint256",
						"numberOfBytes": "32"
					}
				}
			},
			"userdoc": {
				"kind": "user",
				"methods": {},
				"version": 1
			}
		}
	}
}