{
	"data": {
		"bytecode": {
			"linkReferences": {},
			"object": "608060405234801561001057600080fd5b50600080819055506115e0806100276000396000f3fe608060405234801561001057600080fd5b506004361061009e5760003560e01c80636755d456116100665780636755d4561461015957806398fd383514610175578063a738e975146101a7578063d502db97146101c3578063d8f9d144146101f35761009e565b8063035e7709146100a3578063213b9eb8146100bf57806345de2ca0146100db5780634aaf4a121461010b578063524d81d31461013b575b600080fd5b6100bd60048036038101906100b89190610ce0565b61020f565b005b6100d960048036038101906100d49190610d87565b610409565b005b6100f560048036038101906100f09190610ce0565b61051e565b6040516101029190610e62565b60405180910390f35b61012560048036038101906101209190610ce0565b6105d1565b6040516101329190610e93565b60405180910390f35b61014361061c565b6040516101509190610ec7565b60405180910390f35b610173600480360381019061016e9190610ee2565b610622565b005b61018f600480360381019061018a9190610ce0565b610706565b60405161019e93929190610f5a565b60405180910390f35b6101c160048036038101906101bc9190610f98565b61080e565b005b6101dd60048036038101906101d89190610ce0565b6109c9565b6040516101ea9190610e93565b60405180910390f35b61020d60048036038101906102089190610d87565b610a14565b005b803373ffffffffffffffffffffffffffffffffffffffff16600182604051610237919061105f565b908152602001604051809103902060000160009054906101000a900473ffffffffffffffffffffffffffffffffffffffff1673ffffffffffffffffffffffffffffffffffffffff16146102bf576040517f08c379a00000000000000000000000000000000000000000000000000000000081526004016102b6906110e8565b60405180910390fd5b600073ffffffffffffffffffffffffffffffffffffffff166001836040516102e7919061105f565b908152602001604051809103902060010160009054906101000a900473ffffffffffffffffffffffffffffffffffffffff1673ffffffffffffffffffffffffffffffffffffffff160361036f576040517f08c379a00000000000000000000000000000000000000000000000000000000081526004016103669061117a565b60405180910390fd5b60018260405161037f919061105f565b9081526020016040518091039020600080820160006101000a81549073ffffffffffffffffffffffffffffffffffffffff02191690556001820160006101000a81549073ffffffffffffffffffffffffffffffffffffffff02191690556002820160006103ec9190610b29565b5050600080815480929190610400906111c9565b91905055505050565b813373ffffffffffffffffffffffffffffffffffffffff16600182604051610431919061105f565b908152602001604051809103902060000160009054906101000a900473ffffffffffffffffffffffffffffffffffffffff1673ffffffffffffffffffffffffffffffffffffffff16146104b9576040517f08c379a00000000000000000000000000000000000000000000000000000000081526004016104b0906110e8565b60405180910390fd5b816001846040516104ca919061105f565b908152602001604051809103902060010160006101000a81548173ffffffffffffffffffffffffffffffffffffffff021916908373ffffffffffffffffffffffffffffffffffffffff160217905550505050565b6060600182604051610530919061105f565b9081526020016040518091039020600201805461054c90611221565b80601f016020809104026020016040519081016040528092919081815260200182805461057890611221565b80156105c55780601f1061059a576101008083540402835291602001916105c5565b820191906000526020600020905b8154815290600101906020018083116105a857829003601f168201915b50505050509050919050565b60006001826040516105e3919061105f565b908152602001604051809103902060000160009054906101000a900473ffffffffffffffffffffffffffffffffffffffff169050919050565b60005481565b813373ffffffffffffffffffffffffffffffffffffffff1660018260405161064a919061105f565b908152602001604051809103902060000160009054906101000a900473ffffffffffffffffffffffffffffffffffffffff1673ffffffffffffffffffffffffffffffffffffffff16146106d2576040517f08c379a00000000000000000000000000000000000000000000000000000000081526004016106c9906110e8565b60405180910390fd5b816001846040516106e3919061105f565b9081526020016040518091039020600201908161070091906113fe565b50505050565b6001818051602081018201805184825260208301602085012081835280955050505050506000915090508060000160009054906101000a900473ffffffffffffffffffffffffffffffffffffffff16908060010160009054906101000a900473ffffffffffffffffffffffffffffffffffffffff169080600201805461078b90611221565b80601f01602080910402602001604051908101604052809291908181526020018280546107b790611221565b80156108045780601f106107d957610100808354040283529160200191610804565b820191906000526020600020905b8154815290600101906020018083116107e757829003601f168201915b5050505050905083565b600073ffffffffffffffffffffffffffffffffffffffff16600184604051610836919061105f565b908152602001604051809103902060010160009054906101000a900473ffffffffffffffffffffffffffffffffffffffff1673ffffffffffffffffffffffffffffffffffffffff16146108be576040517f08c379a00000000000000000000000000000000000000000000000000000000081526004016108b590611542565b60405180910390fd5b336001846040516108cf919061105f565b908152602001604051809103902060000160006101000a81548173ffffffffffffffffffffffffffffffffffffffff021916908373ffffffffffffffffffffffffffffffffffffffff1602179055508160018460405161092f919061105f565b908152602001604051809103902060010160006101000a81548173ffffffffffffffffffffffffffffffffffffffff021916908373ffffffffffffffffffffffffffffffffffffffff1602179055508060018460405161098f919061105f565b908152602001604051809103902060020190816109ac91906113fe565b506000808154809291906109bf90611562565b9190505550505050565b60006001826040516109db919061105f565b908152602001604051809103902060010160009054906101000a900473ffffffffffffffffffffffffffffffffffffffff169050919050565b813373ffffffffffffffffffffffffffffffffffffffff16600182604051610a3c919061105f565b908152602001604051809103902060000160009054906101000a900473ffffffffffffffffffffffffffffffffffffffff1673ffffffffffffffffffffffffffffffffffffffff1614610ac4576040517f08c379a0000000000000000000000000000000000000000000000000000000008152600401610abb906110e8565b60405180910390fd5b81600184604051610ad5919061105f565b908152602001604051809103902060000160006101000a81548173ffffffffffffffffffffffffffffffffffffffff021916908373ffffffffffffffffffffffffffffffffffffffff160217905550505050565b508054610b3590611221565b6000825580601f10610b475750610b66565b601f016020900490600052602060002090810190610b659190610b69565b5b50565b5b80821115610b82576000816000905550600101610b6a565b5090565b6000604051905090565b600080fd5b600080fd5b600080fd5b600080fd5b6000601f19601f8301169050919050565b7f4e487b7100000000000000000000000000000000000000000000000000000000600052604160045260246000fd5b610bed82610ba4565b810181811067ffffffffffffffff82111715610c0c57610c0b610bb5565b5b80604052505050565b6000610c1f610b86565b9050610c2b8282610be4565b919050565b600067ffffffffffffffff821115610c4b57610c4a610bb5565b5b610c5482610ba4565b9050602081019050919050565b82818337600083830152505050565b6000610c83610c7e84610c30565b610c15565b905082815260208101848484011115610c9f57610c9e610b9f565b5b610caa848285610c61565b509392505050565b600082601f830112610cc757610cc6610b9a565b5b8135610cd7848260208601610c70565b91505092915050565b600060208284031215610cf657610cf5610b90565b5b600082013567ffffffffffffffff811115610d1457610d13610b95565b5b610d2084828501610cb2565b91505092915050565b600073ffffffffffffffffffffffffffffffffffffffff82169050919050565b6000610d5482610d29565b9050919050565b610d6481610d49565b8114610d6f57600080fd5b50565b600081359050610d8181610d5b565b92915050565b60008060408385031215610d9e57610d9d610b90565b5b600083013567ffffffffffffffff811115610dbc57610dbb610b95565b5b610dc885828601610cb2565b9250506020610dd985828601610d72565b9150509250929050565b600081519050919050565b600082825260208201905092915050565b60005b83811015610e1d578082015181840152602081019050610e02565b60008484015250505050565b6000610e3482610de3565b610e3e8185610dee565b9350610e4e818560208601610dff565b610e5781610ba4565b840191505092915050565b60006020820190508181036000830152610e7c8184610e29565b905092915050565b610e8d81610d49565b82525050565b6000602082019050610ea86000830184610e84565b92915050565b6000819050919050565b610ec181610eae565b82525050565b6000602082019050610edc6000830184610eb8565b92915050565b60008060408385031215610ef957610ef8610b90565b5b600083013567ffffffffffffffff811115610f1757610f16610b95565b5b610f2385828601610cb2565b925050602083013567ffffffffffffffff811115610f4457610f43610b95565b5b610f5085828601610cb2565b9150509250929050565b6000606082019050610f6f6000830186610e84565b610f7c6020830185610e84565b8181036040830152610f8e8184610e29565b9050949350505050565b600080600060608486031215610fb157610fb0610b90565b5b600084013567ffffffffffffffff811115610fcf57610fce610b95565b5b610fdb86828701610cb2565b9350506020610fec86828701610d72565b925050604084013567ffffffffffffffff81111561100d5761100c610b95565b5b61101986828701610cb2565b9150509250925092565b600081905092915050565b600061103982610de3565b6110438185611023565b9350611053818560208601610dff565b80840191505092915050565b600061106b828461102e565b915081905092915050565b7f4572726f72203a204f6e6c7920436f6e7472616374206f776e65722063616e2060008201527f6368616e676520696e666f726d6174696f6e0000000000000000000000000000602082015250565b60006110d2603283610dee565b91506110dd82611076565b604082019050919050565b60006020820190508181036000830152611101816110c5565b9050919050565b7f4572726f72203a20596f75277665206e6f742072656769737465726564206f7560008201527f722073797374656d000000000000000000000000000000000000000000000000602082015250565b6000611164602883610dee565b915061116f82611108565b604082019050919050565b6000602082019050818103600083015261119381611157565b9050919050565b7f4e487b7100000000000000000000000000000000000000000000000000000000600052601160045260246000fd5b60006111d482610eae565b9150600082036111e7576111e661119a565b5b600182039050919050565b7f4e487b7100000000000000000000000000000000000000000000000000000000600052602260045260246000fd5b6000600282049050600182168061123957607f821691505b60208210810361124c5761124b6111f2565b5b50919050565b60008190508160005260206000209050919050565b60006020601f8301049050919050565b600082821b905092915050565b6000600883026112b47fffffffffffffffffffffffffffffffffffffffffffffffffffffffffffffffff82611277565b6112be8683611277565b95508019841693508086168417925050509392505050565b6000819050919050565b60006112fb6112f66112f184610eae565b6112d6565b610eae565b9050919050565b6000819050919050565b611315836112e0565b61132961132182611302565b848454611284565b825550505050565b600090565b61133e611331565b61134981848461130c565b505050565b5b8181101561136d57611362600082611336565b60018101905061134f565b5050565b601f8211156113b25761138381611252565b61138c84611267565b8101602085101561139b578190505b6113af6113a785611267565b83018261134e565b50505b505050565b600082821c905092915050565b60006113d5600019846008026113b7565b1980831691505092915050565b60006113ee83836113c4565b9150826002028217905092915050565b61140782610de3565b67ffffffffffffffff8111156114205761141f610bb5565b5b61142a8254611221565b611435828285611371565b600060209050601f8311600181146114685760008415611456578287015190505b61146085826113e2565b8655506114c8565b601f19841661147686611252565b60005b8281101561149e57848901518255600182019150602085019450602081019050611479565b868310156114bb57848901516114b7601f8916826113c4565b8355505b6001600288020188555050505b505050505050565b7f4572726f72203a20596f7520616c72656164792072656769737465726564206f60008201527f75722073797374656d0000000000000000000000000000000000000000000000602082015250565b600061152c602983610dee565b9150611537826114d0565b604082019050919050565b6000602082019050818103600083015261155b8161151f565b9050919050565b600061156d82610eae565b91507fffffffffffffffffffffffffffffffffffffffffffffffffffffffffffffffff820361159f5761159e61119a565b5b60018201905091905056fea2646970667358221220d72c5a7e6f54a92da6f88d468d36b64a122e6fc40a0c2c0b3a0fee750dee0eca64736f6c63430008120033",
			"opcodes": "PUSH1 0x80 PUSH1 0x40 MSTORE CALLVALUE DUP1 ISZERO PUSH2 0x10 JUMPI PUSH1 0x0 DUP1 REVERT JUMPDEST POP PUSH1 0x0 DUP1 DUP2 SWAP1 SSTORE POP PUSH2 0x15E0 DUP1 PUSH2 0x27 PUSH1 0x0 CODECOPY PUSH1 0x0 RETURN INVALID PUSH1 0x80 PUSH1 0x40 MSTORE CALLVALUE DUP1 ISZERO PUSH2 0x10 JUMPI PUSH1 0x0 DUP1 REVERT JUMPDEST POP PUSH1 0x4 CALLDATASIZE LT PUSH2 0x9E JUMPI PUSH1 0x0 CALLDATALOAD PUSH1 0xE0 SHR DUP1 PUSH4 0x6755D456 GT PUSH2 0x66 JUMPI DUP1 PUSH4 0x6755D456 EQ PUSH2 0x159 JUMPI DUP1 PUSH4 0x98FD3835 EQ PUSH2 0x175 JUMPI DUP1 PUSH4 0xA738E975 EQ PUSH2 0x1A7 JUMPI DUP1 PUSH4 0xD502DB97 EQ PUSH2 0x1C3 JUMPI DUP1 PUSH4 0xD8F9D144 EQ PUSH2 0x1F3 JUMPI PUSH2 0x9E JUMP JUMPDEST DUP1 PUSH4 0x35E7709 EQ PUSH2 0xA3 JUMPI DUP1 PUSH4 0x213B9EB8 EQ PUSH2 0xBF JUMPI DUP1 PUSH4 0x45DE2CA0 EQ PUSH2 0xDB JUMPI DUP1 PUSH4 0x4AAF4A12 EQ PUSH2 0x10B JUMPI DUP1 PUSH4 0x524D81D3 EQ PUSH2 0x13B JUMPI JUMPDEST PUSH1 0x0 DUP1 REVERT JUMPDEST PUSH2 0xBD PUSH1 0x4 DUP1 CALLDATASIZE SUB DUP2 ADD SWAP1 PUSH2 0xB8 SWAP2 SWAP1 PUSH2 0xCE0 JUMP JUMPDEST PUSH2 0x20F JUMP JUMPDEST STOP JUMPDEST PUSH2 0xD9 PUSH1 0x4 DUP1 CALLDATASIZE SUB DUP2 ADD SWAP1 PUSH2 0xD4 SWAP2 SWAP1 PUSH2 0xD87 JUMP JUMPDEST PUSH2 0x409 JUMP JUMPDEST STOP JUMPDEST PUSH2 0xF5 PUSH1 0x4 DUP1 CALLDATASIZE SUB DUP2 ADD SWAP1 PUSH2 0xF0 SWAP2 SWAP1 PUSH2 0xCE0 JUMP JUMPDEST PUSH2 0x51E JUMP JUMPDEST PUSH1 0x40 MLOAD PUSH2 0x102 SWAP2 SWAP1 PUSH2 0xE62 JUMP JUMPDEST PUSH1 0x40 MLOAD DUP1 SWAP2 SUB SWAP1 RETURN JUMPDEST PUSH2 0x125 PUSH1 0x4 DUP1 CALLDATASIZE SUB DUP2 ADD SWAP1 PUSH2 0x120 SWAP2 SWAP1 PUSH2 0xCE0 JUMP JUMPDEST PUSH2 0x5D1 JUMP JUMPDEST PUSH1 0x40 MLOAD PUSH2 0x132 SWAP2 SWAP1 PUSH2 0xE93 JUMP JUMPDEST PUSH1 0x40 MLOAD DUP1 SWAP2 SUB SWAP1 RETURN JUMPDEST PUSH2 0x143 PUSH2 0x61C JUMP JUMPDEST PUSH1 0x40 MLOAD PUSH2 0x150 SWAP2 SWAP1 PUSH2 0xEC7 JUMP JUMPDEST PUSH1 0x40 MLOAD DUP1 SWAP2 SUB SWAP1 RETURN JUMPDEST PUSH2 0x173 PUSH1 0x4 DUP1 CALLDATASIZE SUB DUP2 ADD SWAP1 PUSH2 0x16E SWAP2 SWAP1 PUSH2 0xEE2 JUMP JUMPDEST PUSH2 0x622 JUMP JUMPDEST STOP JUMPDEST PUSH2 0x18F PUSH1 0x4 DUP1 CALLDATASIZE SUB DUP2 ADD SWAP1 PUSH2 0x18A SWAP2 SWAP1 PUSH2 0xCE0 JUMP JUMPDEST PUSH2 0x706 JUMP JUMPDEST PUSH1 0x40 MLOAD PUSH2 0x19E SWAP4 SWAP3 SWAP2 SWAP1 PUSH2 0xF5A JUMP JUMPDEST PUSH1 0x40 MLOAD DUP1 SWAP2 SUB SWAP1 RETURN JUMPDEST PUSH2 0x1C1 PUSH1 0x4 DUP1 CALLDATASIZE SUB DUP2 ADD SWAP1 PUSH2 0x1BC SWAP2 SWAP1 PUSH2 0xF98 JUMP JUMPDEST PUSH2 0x80E JUMP JUMPDEST STOP JUMPDEST PUSH2 0x1DD PUSH1 0x4 DUP1 CALLDATASIZE SUB DUP2 ADD SWAP1 PUSH2 0x1D8 SWAP2 SWAP1 PUSH2 0xCE0 JUMP JUMPDEST PUSH2 0x9C9 JUMP JUMPDEST PUSH1 0x40 MLOAD PUSH2 0x1EA SWAP2 SWAP1 PUSH2 0xE93 JUMP JUMPDEST PUSH1 0x40 MLOAD DUP1 SWAP2 SUB SWAP1 RETURN JUMPDEST PUSH2 0x20D PUSH1 0x4 DUP1 CALLDATASIZE SUB DUP2 ADD SWAP1 PUSH2 0x208 SWAP2 SWAP1 PUSH2 0xD87 JUMP JUMPDEST PUSH2 0xA14 JUMP JUMPDEST STOP JUMPDEST DUP1 CALLER PUSH20 0xFFFFFFFFFFFFFFFFFFFFFFFFFFFFFFFFFFFFFFFF AND PUSH1 0x1 DUP3 PUSH1 0x40 MLOAD PUSH2 0x237 SWAP2 SWAP1 PUSH2 0x105F JUMP JUMPDEST SWAP1 DUP2 MSTORE PUSH1 0x20 ADD PUSH1 0x40 MLOAD DUP1 SWAP2 SUB SWAP1 KECCAK256 PUSH1 0x0 ADD PUSH1 0x0 SWAP1 SLOAD SWAP1 PUSH2 0x100 EXP SWAP1 DIV PUSH20 0xFFFFFFFFFFFFFFFFFFFFFFFFFFFFFFFFFFFFFFFF AND PUSH20 0xFFFFFFFFFFFFFFFFFFFFFFFFFFFFFFFFFFFFFFFF AND EQ PUSH2 0x2BF JUMPI PUSH1 0x40 MLOAD PUSH32 0x8C379A000000000000000000000000000000000000000000000000000000000 DUP2 MSTORE PUSH1 0x4 ADD PUSH2 0x2B6 SWAP1 PUSH2 0x10E8 JUMP JUMPDEST PUSH1 0x40 MLOAD DUP1 SWAP2 SUB SWAP1 REVERT JUMPDEST PUSH1 0x0 PUSH20 0xFFFFFFFFFFFFFFFFFFFFFFFFFFFFFFFFFFFFFFFF AND PUSH1 0x1 DUP4 PUSH1 0x40 MLOAD PUSH2 0x2E7 SWAP2 SWAP1 PUSH2 0x105F JUMP JUMPDEST SWAP1 DUP2 MSTORE PUSH1 0x20 ADD PUSH1 0x40 MLOAD DUP1 SWAP2 SUB SWAP1 KECCAK256 PUSH1 0x1 ADD PUSH1 0x0 SWAP1 SLOAD SWAP1 PUSH2 0x100 EXP SWAP1 DIV PUSH20 0xFFFFFFFFFFFFFFFFFFFFFFFFFFFFFFFFFFFFFFFF AND PUSH20 0xFFFFFFFFFFFFFFFFFFFFFFFFFFFFFFFFFFFFFFFF AND SUB PUSH2 0x36F JUMPI PUSH1 0x40 MLOAD PUSH32 0x8C379A000000000000000000000000000000000000000000000000000000000 DUP2 MSTORE PUSH1 0x4 ADD PUSH2 0x366 SWAP1 PUSH2 0x117A JUMP JUMPDEST PUSH1 0x40 MLOAD DUP1 SWAP2 SUB SWAP1 REVERT JUMPDEST PUSH1 0x1 DUP3 PUSH1 0x40 MLOAD PUSH2 0x37F SWAP2 SWAP1 PUSH2 0x105F JUMP JUMPDEST SWAP1 DUP2 MSTORE PUSH1 0x20 ADD PUSH1 0x40 MLOAD DUP1 SWAP2 SUB SWAP1 KECCAK256 PUSH1 0x0 DUP1 DUP3 ADD PUSH1 0x0 PUSH2 0x100 EXP DUP2 SLOAD SWAP1 PUSH20 0xFFFFFFFFFFFFFFFFFFFFFFFFFFFFFFFFFFFFFFFF MUL NOT AND SWAP1 SSTORE PUSH1 0x1 DUP3 ADD PUSH1 0x0 PUSH2 0x100 EXP DUP2 SLOAD SWAP1 PUSH20 0xFFFFFFFFFFFFFFFFFFFFFFFFFFFFFFFFFFFFFFFF MUL NOT AND SWAP1 SSTORE PUSH1 0x2 DUP3 ADD PUSH1 0x0 PUSH2 0x3EC SWAP2 SWAP1 PUSH2 0xB29 JUMP JUMPDEST POP POP PUSH1 0x0 DUP1 DUP2 SLOAD DUP1 SWAP3 SWAP2 SWAP1 PUSH2 0x400 SWAP1 PUSH2 0x11C9 JUMP JUMPDEST SWAP2 SWAP1 POP SSTORE POP POP POP JUMP JUMPDEST DUP2 CALLER PUSH20 0xFFFFFFFFFFFFFFFFFFFFFFFFFFFFFFFFFFFFFFFF AND PUSH1 0x1 DUP3 PUSH1 0x40 MLOAD PUSH2 0x431 SWAP2 SWAP1 PUSH2 0x105F JUMP JUMPDEST SWAP1 DUP2 MSTORE PUSH1 0x20 ADD PUSH1 0x40 MLOAD DUP1 SWAP2 SUB SWAP1 KECCAK256 PUSH1 0x0 ADD PUSH1 0x0 SWAP1 SLOAD SWAP1 PUSH2 0x100 EXP SWAP1 DIV PUSH20 0xFFFFFFFFFFFFFFFFFFFFFFFFFFFFFFFFFFFFFFFF AND PUSH20 0xFFFFFFFFFFFFFFFFFFFFFFFFFFFFFFFFFFFFFFFF AND EQ PUSH2 0x4B9 JUMPI PUSH1 0x40 MLOAD PUSH32 0x8C379A000000000000000000000000000000000000000000000000000000000 DUP2 MSTORE PUSH1 0x4 ADD PUSH2 0x4B0 SWAP1 PUSH2 0x10E8 JUMP JUMPDEST PUSH1 0x40 MLOAD DUP1 SWAP2 SUB SWAP1 REVERT JUMPDEST DUP2 PUSH1 0x1 DUP5 PUSH1 0x40 MLOAD PUSH2 0x4CA SWAP2 SWAP1 PUSH2 0x105F JUMP JUMPDEST SWAP1 DUP2 MSTORE PUSH1 0x20 ADD PUSH1 0x40 MLOAD DUP1 SWAP2 SUB SWAP1 KECCAK256 PUSH1 0x1 ADD PUSH1 0x0 PUSH2 0x100 EXP DUP2 SLOAD DUP2 PUSH20 0xFFFFFFFFFFFFFFFFFFFFFFFFFFFFFFFFFFFFFFFF MUL NOT AND SWAP1 DUP4 PUSH20 0xFFFFFFFFFFFFFFFFFFFFFFFFFFFFFFFFFFFFFFFF AND MUL OR SWAP1 SSTORE POP POP POP POP JUMP JUMPDEST PUSH1 0x60 PUSH1 0x1 DUP3 PUSH1 0x40 MLOAD PUSH2 0x530 SWAP2 SWAP1 PUSH2 0x105F JUMP JUMPDEST SWAP1 DUP2 MSTORE PUSH1 0x20 ADD PUSH1 0x40 MLOAD DUP1 SWAP2 SUB SWAP1 KECCAK256 PUSH1 0x2 ADD DUP1 SLOAD PUSH2 0x54C SWAP1 PUSH2 0x1221 JUMP JUMPDEST DUP1 PUSH1 0x1F ADD PUSH1 0x20 DUP1 SWAP2 DIV MUL PUSH1 0x20 ADD PUSH1 0x40 MLOAD SWAP1 DUP2 ADD PUSH1 0x40 MSTORE DUP1 SWAP3 SWAP2 SWAP1 DUP2 DUP2 MSTORE PUSH1 0x20 ADD DUP3 DUP1 SLOAD PUSH2 0x578 SWAP1 PUSH2 0x1221 JUMP JUMPDEST DUP1 ISZERO PUSH2 0x5C5 JUMPI DUP1 PUSH1 0x1F LT PUSH2 0x59A JUMPI PUSH2 0x100 DUP1 DUP4 SLOAD DIV MUL DUP4 MSTORE SWAP2 PUSH1 0x20 ADD SWAP2 PUSH2 0x5C5 JUMP JUMPDEST DUP3 ADD SWAP2 SWAP1 PUSH1 0x0 MSTORE PUSH1 0x20 PUSH1 0x0 KECCAK256 SWAP1 JUMPDEST DUP2 SLOAD DUP2 MSTORE SWAP1 PUSH1 0x1 ADD SWAP1 PUSH1 0x20 ADD DUP1 DUP4 GT PUSH2 0x5A8 JUMPI DUP3 SWAP1 SUB PUSH1 0x1F AND DUP3 ADD SWAP2 JUMPDEST POP POP POP POP POP SWAP1 POP SWAP2 SWAP1 POP JUMP JUMPDEST PUSH1 0x0 PUSH1 0x1 DUP3 PUSH1 0x40 MLOAD PUSH2 0x5E3 SWAP2 SWAP1 PUSH2 0x105F JUMP JUMPDEST SWAP1 DUP2 MSTORE PUSH1 0x20 ADD PUSH1 0x40 MLOAD DUP1 SWAP2 SUB SWAP1 KECCAK256 PUSH1 0x0 ADD PUSH1 0x0 SWAP1 SLOAD SWAP1 PUSH2 0x100 EXP SWAP1 DIV PUSH20 0xFFFFFFFFFFFFFFFFFFFFFFFFFFFFFFFFFFFFFFFF AND SWAP1 POP SWAP2 SWAP1 POP JUMP JUMPDEST PUSH1 0x0 SLOAD DUP2 JUMP JUMPDEST DUP2 CALLER PUSH20 0xFFFFFFFFFFFFFFFFFFFFFFFFFFFFFFFFFFFFFFFF AND PUSH1 0x1 DUP3 PUSH1 0x40 MLOAD PUSH2 0x64A SWAP2 SWAP1 PUSH2 0x105F JUMP JUMPDEST SWAP1 DUP2 MSTORE PUSH1 0x20 ADD PUSH1 0x40 MLOAD DUP1 SWAP2 SUB SWAP1 KECCAK256 PUSH1 0x0 ADD PUSH1 0x0 SWAP1 SLOAD SWAP1 PUSH2 0x100 EXP SWAP1 DIV PUSH20 0xFFFFFFFFFFFFFFFFFFFFFFFFFFFFFFFFFFFFFFFF AND PUSH20 0xFFFFFFFFFFFFFFFFFFFFFFFFFFFFFFFFFFFFFFFF AND EQ PUSH2 0x6D2 JUMPI PUSH1 0x40 MLOAD PUSH32 0x8C379A000000000000000000000000000000000000000000000000000000000 DUP2 MSTORE PUSH1 0x4 ADD PUSH2 0x6C9 SWAP1 PUSH2 0x10E8 JUMP JUMPDEST PUSH1 0x40 MLOAD DUP1 SWAP2 SUB SWAP1 REVERT JUMPDEST DUP2 PUSH1 0x1 DUP5 PUSH1 0x40 MLOAD PUSH2 0x6E3 SWAP2 SWAP1 PUSH2 0x105F JUMP JUMPDEST SWAP1 DUP2 MSTORE PUSH1 0x20 ADD PUSH1 0x40 MLOAD DUP1 SWAP2 SUB SWAP1 KECCAK256 PUSH1 0x2 ADD SWAP1 DUP2 PUSH2 0x700 SWAP2 SWAP1 PUSH2 0x13FE JUMP JUMPDEST POP POP POP POP JUMP JUMPDEST PUSH1 0x1 DUP2 DUP1 MLOAD PUSH1 0x20 DUP2 ADD DUP3 ADD DUP1 MLOAD DUP5 DUP3 MSTORE PUSH1 0x20 DUP4 ADD PUSH1 0x20 DUP6 ADD KECCAK256 DUP2 DUP4 MSTORE DUP1 SWAP6 POP POP POP POP POP POP PUSH1 0x0 SWAP2 POP SWAP1 POP DUP1 PUSH1 0x0 ADD PUSH1 0x0 SWAP1 SLOAD SWAP1 PUSH2 0x100 EXP SWAP1 DIV PUSH20 0xFFFFFFFFFFFFFFFFFFFFFFFFFFFFFFFFFFFFFFFF AND SWAP1 DUP1 PUSH1 0x1 ADD PUSH1 0x0 SWAP1 SLOAD SWAP1 PUSH2 0x100 EXP SWAP1 DIV PUSH20 0xFFFFFFFFFFFFFFFFFFFFFFFFFFFFFFFFFFFFFFFF AND SWAP1 DUP1 PUSH1 0x2 ADD DUP1 SLOAD PUSH2 0x78B SWAP1 PUSH2 0x1221 JUMP JUMPDEST DUP1 PUSH1 0x1F ADD PUSH1 0x20 DUP1 SWAP2 DIV MUL PUSH1 0x20 ADD PUSH1 0x40 MLOAD SWAP1 DUP2 ADD PUSH1 0x40 MSTORE DUP1 SWAP3 SWAP2 SWAP1 DUP2 DUP2 MSTORE PUSH1 0x20 ADD DUP3 DUP1 SLOAD PUSH2 0x7B7 SWAP1 PUSH2 0x1221 JUMP JUMPDEST DUP1 ISZERO PUSH2 0x804 JUMPI DUP1 PUSH1 0x1F LT PUSH2 0x7D9 JUMPI PUSH2 0x100 DUP1 DUP4 SLOAD DIV MUL DUP4 MSTORE SWAP2 PUSH1 0x20 ADD SWAP2 PUSH2 0x804 JUMP JUMPDEST DUP3 ADD SWAP2 SWAP1 PUSH1 0x0 MSTORE PUSH1 0x20 PUSH1 0x0 KECCAK256 SWAP1 JUMPDEST DUP2 SLOAD DUP2 MSTORE SWAP1 PUSH1 0x1 ADD SWAP1 PUSH1 0x20 ADD DUP1 DUP4 GT PUSH2 0x7E7 JUMPI DUP3 SWAP1 SUB PUSH1 0x1F AND DUP3 ADD SWAP2 JUMPDEST POP POP POP POP POP SWAP1 POP DUP4 JUMP JUMPDEST PUSH1 0x0 PUSH20 0xFFFFFFFFFFFFFFFFFFFFFFFFFFFFFFFFFFFFFFFF AND PUSH1 0x1 DUP5 PUSH1 0x40 MLOAD PUSH2 0x836 SWAP2 SWAP1 PUSH2 0x105F JUMP JUMPDEST SWAP1 DUP2 MSTORE PUSH1 0x20 ADD PUSH1 0x40 MLOAD DUP1 SWAP2 SUB SWAP1 KECCAK256 PUSH1 0x1 ADD PUSH1 0x0 SWAP1 SLOAD SWAP1 PUSH2 0x100 EXP SWAP1 DIV PUSH20 0xFFFFFFFFFFFFFFFFFFFFFFFFFFFFFFFFFFFFFFFF AND PUSH20 0xFFFFFFFFFFFFFFFFFFFFFFFFFFFFFFFFFFFFFFFF AND EQ PUSH2 0x8BE JUMPI PUSH1 0x40 MLOAD PUSH32 0x8C379A000000000000000000000000000000000000000000000000000000000 DUP2 MSTORE PUSH1 0x4 ADD PUSH2 0x8B5 SWAP1 PUSH2 0x1542 JUMP JUMPDEST PUSH1 0x40 MLOAD DUP1 SWAP2 SUB SWAP1 REVERT JUMPDEST CALLER PUSH1 0x1 DUP5 PUSH1 0x40 MLOAD PUSH2 0x8CF SWAP2 SWAP1 PUSH2 0x105F JUMP JUMPDEST SWAP1 DUP2 MSTORE PUSH1 0x20 ADD PUSH1 0x40 MLOAD DUP1 SWAP2 SUB SWAP1 KECCAK256 PUSH1 0x0 ADD PUSH1 0x0 PUSH2 0x100 EXP DUP2 SLOAD DUP2 PUSH20 0xFFFFFFFFFFFFFFFFFFFFFFFFFFFFFFFFFFFFFFFF MUL NOT AND SWAP1 DUP4 PUSH20 0xFFFFFFFFFFFFFFFFFFFFFFFFFFFFFFFFFFFFFFFF AND MUL OR SWAP1 SSTORE POP DUP2 PUSH1 0x1 DUP5 PUSH1 0x40 MLOAD PUSH2 0x92F SWAP2 SWAP1 PUSH2 0x105F JUMP JUMPDEST SWAP1 DUP2 MSTORE PUSH1 0x20 ADD PUSH1 0x40 MLOAD DUP1 SWAP2 SUB SWAP1 KECCAK256 PUSH1 0x1 ADD PUSH1 0x0 PUSH2 0x100 EXP DUP2 SLOAD DUP2 PUSH20 0xFFFFFFFFFFFFFFFFFFFFFFFFFFFFFFFFFFFFFFFF MUL NOT AND SWAP1 DUP4 PUSH20 0xFFFFFFFFFFFFFFFFFFFFFFFFFFFFFFFFFFFFFFFF AND MUL OR SWAP1 SSTORE POP DUP1 PUSH1 0x1 DUP5 PUSH1 0x40 MLOAD PUSH2 0x98F SWAP2 SWAP1 PUSH2 0x105F JUMP JUMPDEST SWAP1 DUP2 MSTORE PUSH1 0x20 ADD PUSH1 0x40 MLOAD DUP1 SWAP2 SUB SWAP1 KECCAK256 PUSH1 0x2 ADD SWAP1 DUP2 PUSH2 0x9AC SWAP2 SWAP1 PUSH2 0x13FE JUMP JUMPDEST POP PUSH1 0x0 DUP1 DUP2 SLOAD DUP1 SWAP3 SWAP2 SWAP1 PUSH2 0x9BF SWAP1 PUSH2 0x1562 JUMP JUMPDEST SWAP2 SWAP1 POP SSTORE POP POP POP POP JUMP JUMPDEST PUSH1 0x0 PUSH1 0x1 DUP3 PUSH1 0x40 MLOAD PUSH2 0x9DB SWAP2 SWAP1 PUSH2 0x105F JUMP JUMPDEST SWAP1 DUP2 MSTORE PUSH1 0x20 ADD PUSH1 0x40 MLOAD DUP1 SWAP2 SUB SWAP1 KECCAK256 PUSH1 0x1 ADD PUSH1 0x0 SWAP1 SLOAD SWAP1 PUSH2 0x100 EXP SWAP1 DIV PUSH20 0xFFFFFFFFFFFFFFFFFFFFFFFFFFFFFFFFFFFFFFFF AND SWAP1 POP SWAP2 SWAP1 POP JUMP JUMPDEST DUP2 CALLER PUSH20 0xFFFFFFFFFFFFFFFFFFFFFFFFFFFFFFFFFFFFFFFF AND PUSH1 0x1 DUP3 PUSH1 0x40 MLOAD PUSH2 0xA3C SWAP2 SWAP1 PUSH2 0x105F JUMP JUMPDEST SWAP1 DUP2 MSTORE PUSH1 0x20 ADD PUSH1 0x40 MLOAD DUP1 SWAP2 SUB SWAP1 KECCAK256 PUSH1 0x0 ADD PUSH1 0x0 SWAP1 SLOAD SWAP1 PUSH2 0x100 EXP SWAP1 DIV PUSH20 0xFFFFFFFFFFFFFFFFFFFFFFFFFFFFFFFFFFFFFFFF AND PUSH20 0xFFFFFFFFFFFFFFFFFFFFFFFFFFFFFFFFFFFFFFFF AND EQ PUSH2 0xAC4 JUMPI PUSH1 0x40 MLOAD PUSH32 0x8C379A000000000000000000000000000000000000000000000000000000000 DUP2 MSTORE PUSH1 0x4 ADD PUSH2 0xABB SWAP1 PUSH2 0x10E8 JUMP JUMPDEST PUSH1 0x40 MLOAD DUP1 SWAP2 SUB SWAP1 REVERT JUMPDEST DUP2 PUSH1 0x1 DUP5 PUSH1 0x40 MLOAD PUSH2 0xAD5 SWAP2 SWAP1 PUSH2 0x105F JUMP JUMPDEST SWAP1 DUP2 MSTORE PUSH1 0x20 ADD PUSH1 0x40 MLOAD DUP1 SWAP2 SUB SWAP1 KECCAK256 PUSH1 0x0 ADD PUSH1 0x0 PUSH2 0x100 EXP DUP2 SLOAD DUP2 PUSH20 0xFFFFFFFFFFFFFFFFFFFFFFFFFFFFFFFFFFFFFFFF MUL NOT AND SWAP1 DUP4 PUSH20 0xFFFFFFFFFFFFFFFFFFFFFFFFFFFFFFFFFFFFFFFF AND MUL OR SWAP1 SSTORE POP POP POP POP JUMP JUMPDEST POP DUP1 SLOAD PUSH2 0xB35 SWAP1 PUSH2 0x1221 JUMP JUMPDEST PUSH1 0x0 DUP3 SSTORE DUP1 PUSH1 0x1F LT PUSH2 0xB47 JUMPI POP PUSH2 0xB66 JUMP JUMPDEST PUSH1 0x1F ADD PUSH1 0x20 SWAP1 DIV SWAP1 PUSH1 0x0 MSTORE PUSH1 0x20 PUSH1 0x0 KECCAK256 SWAP1 DUP2 ADD SWAP1 PUSH2 0xB65 SWAP2 SWAP1 PUSH2 0xB69 JUMP JUMPDEST JUMPDEST POP JUMP JUMPDEST JUMPDEST DUP1 DUP3 GT ISZERO PUSH2 0xB82 JUMPI PUSH1 0x0 DUP2 PUSH1 0x0 SWAP1 SSTORE POP PUSH1 0x1 ADD PUSH2 0xB6A JUMP JUMPDEST POP SWAP1 JUMP JUMPDEST PUSH1 0x0 PUSH1 0x40 MLOAD SWAP1 POP SWAP1 JUMP JUMPDEST PUSH1 0x0 DUP1 REVERT JUMPDEST PUSH1 0x0 DUP1 REVERT JUMPDEST PUSH1 0x0 DUP1 REVERT JUMPDEST PUSH1 0x0 DUP1 REVERT JUMPDEST PUSH1 0x0 PUSH1 0x1F NOT PUSH1 0x1F DUP4 ADD AND SWAP1 POP SWAP2 SWAP1 POP JUMP JUMPDEST PUSH32 0x4E487B7100000000000000000000000000000000000000000000000000000000 PUSH1 0x0 MSTORE PUSH1 0x41 PUSH1 0x4 MSTORE PUSH1 0x24 PUSH1 0x0 REVERT JUMPDEST PUSH2 0xBED DUP3 PUSH2 0xBA4 JUMP JUMPDEST DUP2 ADD DUP2 DUP2 LT PUSH8 0xFFFFFFFFFFFFFFFF DUP3 GT OR ISZERO PUSH2 0xC0C JUMPI PUSH2 0xC0B PUSH2 0xBB5 JUMP JUMPDEST JUMPDEST DUP1 PUSH1 0x40 MSTORE POP POP POP JUMP JUMPDEST PUSH1 0x0 PUSH2 0xC1F PUSH2 0xB86 JUMP JUMPDEST SWAP1 POP PUSH2 0xC2B DUP3 DUP3 PUSH2 0xBE4 JUMP JUMPDEST SWAP2 SWAP1 POP JUMP JUMPDEST PUSH1 0x0 PUSH8 0xFFFFFFFFFFFFFFFF DUP3 GT ISZERO PUSH2 0xC4B JUMPI PUSH2 0xC4A PUSH2 0xBB5 JUMP JUMPDEST JUMPDEST PUSH2 0xC54 DUP3 PUSH2 0xBA4 JUMP JUMPDEST SWAP1 POP PUSH1 0x20 DUP2 ADD SWAP1 POP SWAP2 SWAP1 POP JUMP JUMPDEST DUP3 DUP2 DUP4 CALLDATACOPY PUSH1 0x0 DUP4 DUP4 ADD MSTORE POP POP POP JUMP JUMPDEST PUSH1 0x0 PUSH2 0xC83 PUSH2 0xC7E DUP5 PUSH2 0xC30 JUMP JUMPDEST PUSH2 0xC15 JUMP JUMPDEST SWAP1 POP DUP3 DUP2 MSTORE PUSH1 0x20 DUP2 ADD DUP5 DUP5 DUP5 ADD GT ISZERO PUSH2 0xC9F JUMPI PUSH2 0xC9E PUSH2 0xB9F JUMP JUMPDEST JUMPDEST PUSH2 0xCAA DUP5 DUP3 DUP6 PUSH2 0xC61 JUMP JUMPDEST POP SWAP4 SWAP3 POP POP POP JUMP JUMPDEST PUSH1 0x0 DUP3 PUSH1 0x1F DUP4 ADD SLT PUSH2 0xCC7 JUMPI PUSH2 0xCC6 PUSH2 0xB9A JUMP JUMPDEST JUMPDEST DUP2 CALLDATALOAD PUSH2 0xCD7 DUP5 DUP3 PUSH1 0x20 DUP7 ADD PUSH2 0xC70 JUMP JUMPDEST SWAP2 POP POP SWAP3 SWAP2 POP POP JUMP JUMPDEST PUSH1 0x0 PUSH1 0x20 DUP3 DUP5 SUB SLT ISZERO PUSH2 0xCF6 JUMPI PUSH2 0xCF5 PUSH2 0xB90 JUMP JUMPDEST JUMPDEST PUSH1 0x0 DUP3 ADD CALLDATALOAD PUSH8 0xFFFFFFFFFFFFFFFF DUP2 GT ISZERO PUSH2 0xD14 JUMPI PUSH2 0xD13 PUSH2 0xB95 JUMP JUMPDEST JUMPDEST PUSH2 0xD20 DUP5 DUP3 DUP6 ADD PUSH2 0xCB2 JUMP JUMPDEST SWAP2 POP POP SWAP3 SWAP2 POP POP JUMP JUMPDEST PUSH1 0x0 PUSH20 0xFFFFFFFFFFFFFFFFFFFFFFFFFFFFFFFFFFFFFFFF DUP3 AND SWAP1 POP SWAP2 SWAP1 POP JUMP JUMPDEST PUSH1 0x0 PUSH2 0xD54 DUP3 PUSH2 0xD29 JUMP JUMPDEST SWAP1 POP SWAP2 SWAP1 POP JUMP JUMPDEST PUSH2 0xD64 DUP2 PUSH2 0xD49 JUMP JUMPDEST DUP2 EQ PUSH2 0xD6F JUMPI PUSH1 0x0 DUP1 REVERT JUMPDEST POP JUMP JUMPDEST PUSH1 0x0 DUP2 CALLDATALOAD SWAP1 POP PUSH2 0xD81 DUP2 PUSH2 0xD5B JUMP JUMPDEST SWAP3 SWAP2 POP POP JUMP JUMPDEST PUSH1 0x0 DUP1 PUSH1 0x40 DUP4 DUP6 SUB SLT ISZERO PUSH2 0xD9E JUMPI PUSH2 0xD9D PUSH2 0xB90 JUMP JUMPDEST JUMPDEST PUSH1 0x0 DUP4 ADD CALLDATALOAD PUSH8 0xFFFFFFFFFFFFFFFF DUP2 GT ISZERO PUSH2 0xDBC JUMPI PUSH2 0xDBB PUSH2 0xB95 JUMP JUMPDEST JUMPDEST PUSH2 0xDC8 DUP6 DUP3 DUP7 ADD PUSH2 0xCB2 JUMP JUMPDEST SWAP3 POP POP PUSH1 0x20 PUSH2 0xDD9 DUP6 DUP3 DUP7 ADD PUSH2 0xD72 JUMP JUMPDEST SWAP2 POP POP SWAP3 POP SWAP3 SWAP1 POP JUMP JUMPDEST PUSH1 0x0 DUP2 MLOAD SWAP1 POP SWAP2 SWAP1 POP JUMP JUMPDEST PUSH1 0x0 DUP3 DUP3 MSTORE PUSH1 0x20 DUP3 ADD SWAP1 POP SWAP3 SWAP2 POP POP JUMP JUMPDEST PUSH1 0x0 JUMPDEST DUP4 DUP2 LT ISZERO PUSH2 0xE1D JUMPI DUP1 DUP3 ADD MLOAD DUP2 DUP5 ADD MSTORE PUSH1 0x20 DUP2 ADD SWAP1 POP PUSH2 0xE02 JUMP JUMPDEST PUSH1 0x0 DUP5 DUP5 ADD MSTORE POP POP POP POP JUMP JUMPDEST PUSH1 0x0 PUSH2 0xE34 DUP3 PUSH2 0xDE3 JUMP JUMPDEST PUSH2 0xE3E DUP2 DUP6 PUSH2 0xDEE JUMP JUMPDEST SWAP4 POP PUSH2 0xE4E DUP2 DUP6 PUSH1 0x20 DUP7 ADD PUSH2 0xDFF JUMP JUMPDEST PUSH2 0xE57 DUP2 PUSH2 0xBA4 JUMP JUMPDEST DUP5 ADD SWAP2 POP POP SWAP3 SWAP2 POP POP JUMP JUMPDEST PUSH1 0x0 PUSH1 0x20 DUP3 ADD SWAP1 POP DUP2 DUP2 SUB PUSH1 0x0 DUP4 ADD MSTORE PUSH2 0xE7C DUP2 DUP5 PUSH2 0xE29 JUMP JUMPDEST SWAP1 POP SWAP3 SWAP2 POP POP JUMP JUMPDEST PUSH2 0xE8D DUP2 PUSH2 0xD49 JUMP JUMPDEST DUP3 MSTORE POP POP JUMP JUMPDEST PUSH1 0x0 PUSH1 0x20 DUP3 ADD SWAP1 POP PUSH2 0xEA8 PUSH1 0x0 DUP4 ADD DUP5 PUSH2 0xE84 JUMP JUMPDEST SWAP3 SWAP2 POP POP JUMP JUMPDEST PUSH1 0x0 DUP2 SWAP1 POP SWAP2 SWAP1 POP JUMP JUMPDEST PUSH2 0xEC1 DUP2 PUSH2 0xEAE JUMP JUMPDEST DUP3 MSTORE POP POP JUMP JUMPDEST PUSH1 0x0 PUSH1 0x20 DUP3 ADD SWAP1 POP PUSH2 0xEDC PUSH1 0x0 DUP4 ADD DUP5 PUSH2 0xEB8 JUMP JUMPDEST SWAP3 SWAP2 POP POP JUMP JUMPDEST PUSH1 0x0 DUP1 PUSH1 0x40 DUP4 DUP6 SUB SLT ISZERO PUSH2 0xEF9 JUMPI PUSH2 0xEF8 PUSH2 0xB90 JUMP JUMPDEST JUMPDEST PUSH1 0x0 DUP4 ADD CALLDATALOAD PUSH8 0xFFFFFFFFFFFFFFFF DUP2 GT ISZERO PUSH2 0xF17 JUMPI PUSH2 0xF16 PUSH2 0xB95 JUMP JUMPDEST JUMPDEST PUSH2 0xF23 DUP6 DUP3 DUP7 ADD PUSH2 0xCB2 JUMP JUMPDEST SWAP3 POP POP PUSH1 0x20 DUP4 ADD CALLDATALOAD PUSH8 0xFFFFFFFFFFFFFFFF DUP2 GT ISZERO PUSH2 0xF44 JUMPI PUSH2 0xF43 PUSH2 0xB95 JUMP JUMPDEST JUMPDEST PUSH2 0xF50 DUP6 DUP3 DUP7 ADD PUSH2 0xCB2 JUMP JUMPDEST SWAP2 POP POP SWAP3 POP SWAP3 SWAP1 POP JUMP JUMPDEST PUSH1 0x0 PUSH1 0x60 DUP3 ADD SWAP1 POP PUSH2 0xF6F PUSH1 0x0 DUP4 ADD DUP7 PUSH2 0xE84 JUMP JUMPDEST PUSH2 0xF7C PUSH1 0x20 DUP4 ADD DUP6 PUSH2 0xE84 JUMP JUMPDEST DUP2 DUP2 SUB PUSH1 0x40 DUP4 ADD MSTORE PUSH2 0xF8E DUP2 DUP5 PUSH2 0xE29 JUMP JUMPDEST SWAP1 POP SWAP5 SWAP4 POP POP POP POP JUMP JUMPDEST PUSH1 0x0 DUP1 PUSH1 0x0 PUSH1 0x60 DUP5 DUP7 SUB SLT ISZERO PUSH2 0xFB1 JUMPI PUSH2 0xFB0 PUSH2 0xB90 JUMP JUMPDEST JUMPDEST PUSH1 0x0 DUP5 ADD CALLDATALOAD PUSH8 0xFFFFFFFFFFFFFFFF DUP2 GT ISZERO PUSH2 0xFCF JUMPI PUSH2 0xFCE PUSH2 0xB95 JUMP JUMPDEST JUMPDEST PUSH2 0xFDB DUP7 DUP3 DUP8 ADD PUSH2 0xCB2 JUMP JUMPDEST SWAP4 POP POP PUSH1 0x20 PUSH2 0xFEC DUP7 DUP3 DUP8 ADD PUSH2 0xD72 JUMP JUMPDEST SWAP3 POP POP PUSH1 0x40 DUP5 ADD CALLDATALOAD PUSH8 0xFFFFFFFFFFFFFFFF DUP2 GT ISZERO PUSH2 0x100D JUMPI PUSH2 0x100C PUSH2 0xB95 JUMP JUMPDEST JUMPDEST PUSH2 0x1019 DUP7 DUP3 DUP8 ADD PUSH2 0xCB2 JUMP JUMPDEST SWAP2 POP POP SWAP3 POP SWAP3 POP SWAP3 JUMP JUMPDEST PUSH1 0x0 DUP2 SWAP1 POP SWAP3 SWAP2 POP POP JUMP JUMPDEST PUSH1 0x0 PUSH2 0x1039 DUP3 PUSH2 0xDE3 JUMP JUMPDEST PUSH2 0x1043 DUP2 DUP6 PUSH2 0x1023 JUMP JUMPDEST SWAP4 POP PUSH2 0x1053 DUP2 DUP6 PUSH1 0x20 DUP7 ADD PUSH2 0xDFF JUMP JUMPDEST DUP1 DUP5 ADD SWAP2 POP POP SWAP3 SWAP2 POP POP JUMP JUMPDEST PUSH1 0x0 PUSH2 0x106B DUP3 DUP5 PUSH2 0x102E JUMP JUMPDEST SWAP2 POP DUP2 SWAP1 POP SWAP3 SWAP2 POP POP JUMP JUMPDEST PUSH32 0x4572726F72203A204F6E6C7920436F6E7472616374206F776E65722063616E20 PUSH1 0x0 DUP3 ADD MSTORE PUSH32 0x6368616E676520696E666F726D6174696F6E0000000000000000000000000000 PUSH1 0x20 DUP3 ADD MSTORE POP JUMP JUMPDEST PUSH1 0x0 PUSH2 0x10D2 PUSH1 0x32 DUP4 PUSH2 0xDEE JUMP JUMPDEST SWAP2 POP PUSH2 0x10DD DUP3 PUSH2 0x1076 JUMP JUMPDEST PUSH1 0x40 DUP3 ADD SWAP1 POP SWAP2 SWAP1 POP JUMP JUMPDEST PUSH1 0x0 PUSH1 0x20 DUP3 ADD SWAP1 POP DUP2 DUP2 SUB PUSH1 0x0 DUP4 ADD MSTORE PUSH2 0x1101 DUP2 PUSH2 0x10C5 JUMP JUMPDEST SWAP1 POP SWAP2 SWAP1 POP JUMP JUMPDEST PUSH32 0x4572726F72203A20596F75277665206E6F742072656769737465726564206F75 PUSH1 0x0 DUP3 ADD MSTORE PUSH32 0x722073797374656D000000000000000000000000000000000000000000000000 PUSH1 0x20 DUP3 ADD MSTORE POP JUMP JUMPDEST PUSH1 0x0 PUSH2 0x1164 PUSH1 0x28 DUP4 PUSH2 0xDEE JUMP JUMPDEST SWAP2 POP PUSH2 0x116F DUP3 PUSH2 0x1108 JUMP JUMPDEST PUSH1 0x40 DUP3 ADD SWAP1 POP SWAP2 SWAP1 POP JUMP JUMPDEST PUSH1 0x0 PUSH1 0x20 DUP3 ADD SWAP1 POP DUP2 DUP2 SUB PUSH1 0x0 DUP4 ADD MSTORE PUSH2 0x1193 DUP2 PUSH2 0x1157 JUMP JUMPDEST SWAP1 POP SWAP2 SWAP1 POP JUMP JUMPDEST PUSH32 0x4E487B7100000000000000000000000000000000000000000000000000000000 PUSH1 0x0 MSTORE PUSH1 0x11 PUSH1 0x4 MSTORE PUSH1 0x24 PUSH1 0x0 REVERT JUMPDEST PUSH1 0x0 PUSH2 0x11D4 DUP3 PUSH2 0xEAE JUMP JUMPDEST SWAP2 POP PUSH1 0x0 DUP3 SUB PUSH2 0x11E7 JUMPI PUSH2 0x11E6 PUSH2 0x119A JUMP JUMPDEST JUMPDEST PUSH1 0x1 DUP3 SUB SWAP1 POP SWAP2 SWAP1 POP JUMP JUMPDEST PUSH32 0x4E487B7100000000000000000000000000000000000000000000000000000000 PUSH1 0x0 MSTORE PUSH1 0x22 PUSH1 0x4 MSTORE PUSH1 0x24 PUSH1 0x0 REVERT JUMPDEST PUSH1 0x0 PUSH1 0x2 DUP3 DIV SWAP1 POP PUSH1 0x1 DUP3 AND DUP1 PUSH2 0x1239 JUMPI PUSH1 0x7F DUP3 AND SWAP2 POP JUMPDEST PUSH1 0x20 DUP3 LT DUP2 SUB PUSH2 0x124C JUMPI PUSH2 0x124B PUSH2 0x11F2 JUMP JUMPDEST JUMPDEST POP SWAP2 SWAP1 POP JUMP JUMPDEST PUSH1 0x0 DUP2 SWAP1 POP DUP2 PUSH1 0x0 MSTORE PUSH1 0x20 PUSH1 0x0 KECCAK256 SWAP1 POP SWAP2 SWAP1 POP JUMP JUMPDEST PUSH1 0x0 PUSH1 0x20 PUSH1 0x1F DUP4 ADD DIV SWAP1 POP SWAP2 SWAP1 POP JUMP JUMPDEST PUSH1 0x0 DUP3 DUP3 SHL SWAP1 POP SWAP3 SWAP2 POP POP JUMP JUMPDEST PUSH1 0x0 PUSH1 0x8 DUP4 MUL PUSH2 0x12B4 PUSH32 0xFFFFFFFFFFFFFFFFFFFFFFFFFFFFFFFFFFFFFFFFFFFFFFFFFFFFFFFFFFFFFFFF DUP3 PUSH2 0x1277 JUMP JUMPDEST PUSH2 0x12BE DUP7 DUP4 PUSH2 0x1277 JUMP JUMPDEST SWAP6 POP DUP1 NOT DUP5 AND SWAP4 POP DUP1 DUP7 AND DUP5 OR SWAP3 POP POP POP SWAP4 SWAP3 POP POP POP JUMP JUMPDEST PUSH1 0x0 DUP2 SWAP1 POP SWAP2 SWAP1 POP JUMP JUMPDEST PUSH1 0x0 PUSH2 0x12FB PUSH2 0x12F6 PUSH2 0x12F1 DUP5 PUSH2 0xEAE JUMP JUMPDEST PUSH2 0x12D6 JUMP JUMPDEST PUSH2 0xEAE JUMP JUMPDEST SWAP1 POP SWAP2 SWAP1 POP JUMP JUMPDEST PUSH1 0x0 DUP2 SWAP1 POP SWAP2 SWAP1 POP JUMP JUMPDEST PUSH2 0x1315 DUP4 PUSH2 0x12E0 JUMP JUMPDEST PUSH2 0x1329 PUSH2 0x1321 DUP3 PUSH2 0x1302 JUMP JUMPDEST DUP5 DUP5 SLOAD PUSH2 0x1284 JUMP JUMPDEST DUP3 SSTORE POP POP POP POP JUMP JUMPDEST PUSH1 0x0 SWAP1 JUMP JUMPDEST PUSH2 0x133E PUSH2 0x1331 JUMP JUMPDEST PUSH2 0x1349 DUP2 DUP5 DUP5 PUSH2 0x130C JUMP JUMPDEST POP POP POP JUMP JUMPDEST JUMPDEST DUP2 DUP2 LT ISZERO PUSH2 0x136D JUMPI PUSH2 0x1362 PUSH1 0x0 DUP3 PUSH2 0x1336 JUMP JUMPDEST PUSH1 0x1 DUP2 ADD SWAP1 POP PUSH2 0x134F JUMP JUMPDEST POP POP JUMP JUMPDEST PUSH1 0x1F DUP3 GT ISZERO PUSH2 0x13B2 JUMPI PUSH2 0x1383 DUP2 PUSH2 0x1252 JUMP JUMPDEST PUSH2 0x138C DUP5 PUSH2 0x1267 JUMP JUMPDEST DUP2 ADD PUSH1 0x20 DUP6 LT ISZERO PUSH2 0x139B JUMPI DUP2 SWAP1 POP JUMPDEST PUSH2 0x13AF PUSH2 0x13A7 DUP6 PUSH2 0x1267 JUMP JUMPDEST DUP4 ADD DUP3 PUSH2 0x134E JUMP JUMPDEST POP POP JUMPDEST POP POP POP JUMP JUMPDEST PUSH1 0x0 DUP3 DUP3 SHR SWAP1 POP SWAP3 SWAP2 POP POP JUMP JUMPDEST PUSH1 0x0 PUSH2 0x13D5 PUSH1 0x0 NOT DUP5 PUSH1 0x8 MUL PUSH2 0x13B7 JUMP JUMPDEST NOT DUP1 DUP4 AND SWAP2 POP POP SWAP3 SWAP2 POP POP JUMP JUMPDEST PUSH1 0x0 PUSH2 0x13EE DUP4 DUP4 PUSH2 0x13C4 JUMP JUMPDEST SWAP2 POP DUP3 PUSH1 0x2 MUL DUP3 OR SWAP1 POP SWAP3 SWAP2 POP POP JUMP JUMPDEST PUSH2 0x1407 DUP3 PUSH2 0xDE3 JUMP JUMPDEST PUSH8 0xFFFFFFFFFFFFFFFF DUP2 GT ISZERO PUSH2 0x1420 JUMPI PUSH2 0x141F PUSH2 0xBB5 JUMP JUMPDEST JUMPDEST PUSH2 0x142A DUP3 SLOAD PUSH2 0x1221 JUMP JUMPDEST PUSH2 0x1435 DUP3 DUP3 DUP6 PUSH2 0x1371 JUMP JUMPDEST PUSH1 0x0 PUSH1 0x20 SWAP1 POP PUSH1 0x1F DUP4 GT PUSH1 0x1 DUP2 EQ PUSH2 0x1468 JUMPI PUSH1 0x0 DUP5 ISZERO PUSH2 0x1456 JUMPI DUP3 DUP8 ADD MLOAD SWAP1 POP JUMPDEST PUSH2 0x1460 DUP6 DUP3 PUSH2 0x13E2 JUMP JUMPDEST DUP7 SSTORE POP PUSH2 0x14C8 JUMP JUMPDEST PUSH1 0x1F NOT DUP5 AND PUSH2 0x1476 DUP7 PUSH2 0x1252 JUMP JUMPDEST PUSH1 0x0 JUMPDEST DUP3 DUP2 LT ISZERO PUSH2 0x149E JUMPI DUP5 DUP10 ADD MLOAD DUP3 SSTORE PUSH1 0x1 DUP3 ADD SWAP2 POP PUSH1 0x20 DUP6 ADD SWAP5 POP PUSH1 0x20 DUP2 ADD SWAP1 POP PUSH2 0x1479 JUMP JUMPDEST DUP7 DUP4 LT ISZERO PUSH2 0x14BB JUMPI DUP5 DUP10 ADD MLOAD PUSH2 0x14B7 PUSH1 0x1F DUP10 AND DUP3 PUSH2 0x13C4 JUMP JUMPDEST DUP4 SSTORE POP JUMPDEST PUSH1 0x1 PUSH1 0x2 DUP9 MUL ADD DUP9 SSTORE POP POP POP JUMPDEST POP POP POP POP POP POP JUMP JUMPDEST PUSH32 0x4572726F72203A20596F7520616C72656164792072656769737465726564206F PUSH1 0x0 DUP3 ADD MSTORE PUSH32 0x75722073797374656D0000000000000000000000000000000000000000000000 PUSH1 0x20 DUP3 ADD MSTORE POP JUMP JUMPDEST PUSH1 0x0 PUSH2 0x152C PUSH1 0x29 DUP4 PUSH2 0xDEE JUMP JUMPDEST SWAP2 POP PUSH2 0x1537 DUP3 PUSH2 0x14D0 JUMP JUMPDEST PUSH1 0x40 DUP3 ADD SWAP1 POP SWAP2 SWAP1 POP JUMP JUMPDEST PUSH1 0x0 PUSH1 0x20 DUP3 ADD SWAP1 POP DUP2 DUP2 SUB PUSH1 0x0 DUP4 ADD MSTORE PUSH2 0x155B DUP2 PUSH2 0x151F JUMP JUMPDEST SWAP1 POP SWAP2 SWAP1 POP JUMP JUMPDEST PUSH1 0x0 PUSH2 0x156D DUP3 PUSH2 0xEAE JUMP JUMPDEST SWAP2 POP PUSH32 0xFFFFFFFFFFFFFFFFFFFFFFFFFFFFFFFFFFFFFFFFFFFFFFFFFFFFFFFFFFFFFFFF DUP3 SUB PUSH2 0x159F JUMPI PUSH2 0x159E PUSH2 0x119A JUMP JUMPDEST JUMPDEST PUSH1 0x1 DUP3 ADD SWAP1 POP SWAP2 SWAP1 POP JUMP INVALID LOG2 PUSH5 0x6970667358 0x22 SLT KECCAK256 0xD7 0x2C GAS PUSH31 0x6F54A92DA6F88D468D36B64A122E6FC40A0C2C0B3A0FEE750DEE0ECA64736F PUSH13 0x63430008120033000000000000 "
		},
		"gasEstimates": {
			"creation": {
				"codeDepositCost": "1120000",
				"executionCost": "6174",
				"totalCost": "1126174"
			},
			"external": {
				"changeOwner(string,address)": "infinite",
				"getAddr(string)": "infinite",
				"getDescription(string)": "infinite",
				"getOwner(string)": "infinite",
				"numContracts()": "2518",
				"registerContract(string,address,string)": "infinite",
				"registeredContracts(string)": "infinite",
				"setAddr(string,address)": "infinite",
				"setDescription(string,string)": "infinite",
				"unregisterContract(string)": "infinite"
			}
		},
		"methodIdentifiers": {
			"changeOwner(string,address)": "d8f9d144",
			"getAddr(string)": "d502db97",
			"getDescription(string)": "45de2ca0",
			"getOwner(string)": "4aaf4a12",
			"numContracts()": "524d81d3",
			"registerContract(string,address,string)": "a738e975",
			"registeredContracts(string)": "98fd3835",
			"setAddr(string,address)": "213b9eb8",
			"setDescription(string,string)": "6755d456",
			"unregisterContract(string)": "035e7709"
		}
	},
	"abi": [
		{
			"inputs": [],
			"stateMutability": "nonpayable",
			"type": "constructor"
		},
		{
			"inputs": [
				{
					"internalType": "string",
					"name": "_name",
					"type": "string"
				},
				{
					"internalType": "address",
					"name": "_newOwner",
					"type": "address"
				}
			],
			"name": "changeOwner",
			"outputs": [],
			"stateMutability": "nonpayable",
			"type": "function"
		},
		{
			"inputs": [
				{
					"internalType": "string",
					"name": "_name",
					"type": "string"
				}
			],
			"name": "getAddr",
			"outputs": [
				{
					"internalType": "address",
					"name": "",
					"type": "address"
				}
			],
			"stateMutability": "view",
			"type": "function"
		},
		{
			"inputs": [
				{
					"internalType": "string",
					"name": "_name",
					"type": "string"
				}
			],
			"name": "getDescription",
			"outputs": [
				{
					"internalType": "string",
					"name": "",
					"type": "string"
				}
			],
			"stateMutability": "view",
			"type": "function"
		},
		{
			"inputs": [
				{
					"internalType": "string",
					"name": "_name",
					"type": "string"
				}
			],
			"name": "getOwner",
			"outputs": [
				{
					"internalType": "address",
					"name": "",
					"type": "address"
				}
			],
			"stateMutability": "view",
			"type": "function"
		},
		{
			"inputs": [],
			"name": "numContracts",
			"outputs": [
				{
					"internalType": "uint256",
					"name": "",
					"type": "uint256"
				}
			],
			"stateMutability": "view",
			"type": "function"
		},
		{
			"inputs": [
				{
					"internalType": "string",
					"name": "_name",
					"type": "string"
				},
				{
					"internalType": "address",
					"name": "_contractAddress",
					"type": "address"
				},
				{
					"internalType": "string",
					"name": "_discription",
					"type": "string"
				}
			],
			"name": "registerContract",
			"outputs": [],
			"stateMutability": "nonpayable",
			"type": "function"
		},
		{
			"inputs": [
				{
					"internalType": "string",
					"name": "",
					"type": "string"
				}
			],
			"name": "registeredContracts",
			"outputs": [
				{
					"internalType": "address",
					"name": "contractOwner",
					"type": "address"
				},
				{
					"internalType": "address",
					"name": "contractAddress",
					"type": "address"
				},
				{
					"internalType": "string",
					"name": "description",
					"type": "string"
				}
			],
			"stateMutability": "view",
			"type": "function"
		},
		{
			"inputs": [
				{
					"internalType": "string",
					"name": "_name",
					"type": "string"
				},
				{
					"internalType": "address",
					"name": "_addr",
					"type": "address"
				}
			],
			"name": "setAddr",
			"outputs": [],
			"stateMutability": "nonpayable",
			"type": "function"
		},
		{
			"inputs": [
				{
					"internalType": "string",
					"name": "_name",
					"type": "string"
				},
				{
					"internalType": "string",
					"name": "_description",
					"type": "string"
				}
			],
			"name": "setDescription",
			"outputs": [],
			"stateMutability": "nonpayable",
			"type": "function"
		},
		{
			"inputs": [
				{
					"internalType": "string",
					"name": "_name",
					"type": "string"
				}
			],
			"name": "unregisterContract",
			"outputs": [],
			"stateMutability": "nonpayable",
			"type": "function"
		}
	]
}