{
	"Final Exam/Ballot.sol": {
		"Ballot": {
			"abi": [
				{
					"inputs": [
						{
							"internalType": "uint256",
							"name": "numProposals",
							"type": "uint256"
						}
					],
					"stateMutability": "nonpayable",
					"type": "constructor"
				},
				{
					"inputs": [
						{
							"internalType": "uint256",
							"name": "",
							"type": "uint256"
						}
					],
					"name": "proposals",
					"outputs": [
						{
							"internalType": "uint256",
							"name": "voteCount",
							"type": "uint256"
						}
					],
					"stateMutability": "view",
					"type": "function"
				},
				{
					"inputs": [
						{
							"internalType": "address",
							"name": "_addr",
							"type": "address"
						}
					],
					"name": "register",
					"outputs": [],
					"stateMutability": "nonpayable",
					"type": "function"
				},
				{
					"inputs": [],
					"name": "reqWinner",
					"outputs": [
						{
							"internalType": "uint8",
							"name": "",
							"type": "uint8"
						}
					],
					"stateMutability": "view",
					"type": "function"
				},
				{
					"inputs": [
						{
							"internalType": "uint8",
							"name": "_number",
							"type": "uint8"
						}
					],
					"name": "vote",
					"outputs": [],
					"stateMutability": "nonpayable",
					"type": "function"
				},
				{
					"inputs": [
						{
							"internalType": "address",
							"name": "",
							"type": "address"
						}
					],
					"name": "voters",
					"outputs": [
						{
							"internalType": "uint256",
							"name": "weight",
							"type": "uint256"
						},
						{
							"internalType": "bool",
							"name": "voted",
							"type": "bool"
						},
						{
							"internalType": "uint256",
							"name": "vote",
							"type": "uint256"
						}
					],
					"stateMutability": "view",
					"type": "function"
				}
			],
			"devdoc": {
				"kind": "dev",
				"methods": {},
				"version": 1
			},
			"evm": {
				"assembly": "    /* \"Final Exam/Ballot.sol\":57:2104  contract Ballot {... */\n  mstore(0x40, 0x80)\n    /* \"Final Exam/Ballot.sol\":738:950  constructor(uint numProposals) {... */\n  callvalue\n  dup1\n  iszero\n  tag_1\n  jumpi\n  0x00\n  dup1\n  revert\ntag_1:\n  pop\n  mload(0x40)\n  sub(codesize, bytecodeSize)\n  dup1\n  bytecodeSize\n  dup4\n  codecopy\n  dup2\n  dup2\n  add\n  0x40\n  mstore\n  dup2\n  add\n  swap1\n  tag_2\n  swap2\n  swap1\n  tag_3\n  jump\t// in\ntag_2:\n    /* \"Final Exam/Ballot.sol\":793:803  msg.sender */\n  caller\n    /* \"Final Exam/Ballot.sol\":779:790  chairPerson */\n  0x00\n  dup1\n    /* \"Final Exam/Ballot.sol\":779:803  chairPerson = msg.sender */\n  0x0100\n  exp\n  dup2\n  sload\n  dup2\n  0xffffffffffffffffffffffffffffffffffffffff\n  mul\n  not\n  and\n  swap1\n  dup4\n  0xffffffffffffffffffffffffffffffffffffffff\n  and\n  mul\n  or\n  swap1\n  sstore\n  pop\n    /* \"Final Exam/Ballot.sol\":835:842  uint8 i */\n  0x00\n    /* \"Final Exam/Ballot.sol\":830:944  for (uint8 i = 0; i < numProposals; i++) {... */\ntag_6:\n    /* \"Final Exam/Ballot.sol\":852:864  numProposals */\n  dup2\n    /* \"Final Exam/Ballot.sol\":848:849  i */\n  dup2\n    /* \"Final Exam/Ballot.sol\":848:864  i < numProposals */\n  0xff\n  and\n  lt\n    /* \"Final Exam/Ballot.sol\":830:944  for (uint8 i = 0; i < numProposals; i++) {... */\n  iszero\n  tag_7\n  jumpi\n    /* \"Final Exam/Ballot.sol\":885:894  proposals */\n  0x02\n    /* \"Final Exam/Ballot.sol\":900:911  Proposal(0) */\n  mload(0x40)\n  dup1\n  0x20\n  add\n  0x40\n  mstore\n  dup1\n    /* \"Final Exam/Ballot.sol\":909:910  0 */\n  0x00\n    /* \"Final Exam/Ballot.sol\":900:911  Proposal(0) */\n  dup2\n  mstore\n  pop\n    /* \"Final Exam/Ballot.sol\":885:912  proposals.push(Proposal(0)) */\n  swap1\n  dup1\n  0x01\n  dup2\n  sload\n  add\n  dup1\n  dup3\n  sstore\n  dup1\n  swap2\n  pop\n  pop\n  0x01\n  swap1\n  sub\n  swap1\n  0x00\n  mstore\n  keccak256(0x00, 0x20)\n  add\n  0x00\n  swap1\n  swap2\n  swap1\n  swap2\n  swap1\n  swap2\n  pop\n  0x00\n  dup3\n  add\n  mload\n  dup2\n  0x00\n  add\n  sstore\n  pop\n  pop\n    /* \"Final Exam/Ballot.sol\":866:869  i++ */\n  dup1\n  dup1\n  tag_10\n  swap1\n  tag_11\n  jump\t// in\ntag_10:\n  swap2\n  pop\n  pop\n    /* \"Final Exam/Ballot.sol\":830:944  for (uint8 i = 0; i < numProposals; i++) {... */\n  jump(tag_6)\ntag_7:\n  pop\n    /* \"Final Exam/Ballot.sol\":738:950  constructor(uint numProposals) {... */\n  pop\n    /* \"Final Exam/Ballot.sol\":57:2104  contract Ballot {... */\n  jump(tag_12)\n    /* \"#utility.yul\":88:205   */\ntag_14:\n    /* \"#utility.yul\":197:198   */\n  0x00\n    /* \"#utility.yul\":194:195   */\n  dup1\n    /* \"#utility.yul\":187:199   */\n  revert\n    /* \"#utility.yul\":334:411   */\ntag_16:\n    /* \"#utility.yul\":371:378   */\n  0x00\n    /* \"#utility.yul\":400:405   */\n  dup2\n    /* \"#utility.yul\":389:405   */\n  swap1\n  pop\n    /* \"#utility.yul\":334:411   */\n  swap2\n  swap1\n  pop\n  jump\t// out\n    /* \"#utility.yul\":417:539   */\ntag_17:\n    /* \"#utility.yul\":490:514   */\n  tag_27\n    /* \"#utility.yul\":508:513   */\n  dup2\n    /* \"#utility.yul\":490:514   */\n  tag_16\n  jump\t// in\ntag_27:\n    /* \"#utility.yul\":483:488   */\n  dup2\n    /* \"#utility.yul\":480:515   */\n  eq\n    /* \"#utility.yul\":470:533   */\n  tag_28\n  jumpi\n    /* \"#utility.yul\":529:530   */\n  0x00\n    /* \"#utility.yul\":526:527   */\n  dup1\n    /* \"#utility.yul\":519:531   */\n  revert\n    /* \"#utility.yul\":470:533   */\ntag_28:\n    /* \"#utility.yul\":417:539   */\n  pop\n  jump\t// out\n    /* \"#utility.yul\":545:688   */\ntag_18:\n    /* \"#utility.yul\":602:607   */\n  0x00\n    /* \"#utility.yul\":633:639   */\n  dup2\n    /* \"#utility.yul\":627:640   */\n  mload\n    /* \"#utility.yul\":618:640   */\n  swap1\n  pop\n    /* \"#utility.yul\":649:682   */\n  tag_30\n    /* \"#utility.yul\":676:681   */\n  dup2\n    /* \"#utility.yul\":649:682   */\n  tag_17\n  jump\t// in\ntag_30:\n    /* \"#utility.yul\":545:688   */\n  swap3\n  swap2\n  pop\n  pop\n  jump\t// out\n    /* \"#utility.yul\":694:1045   */\ntag_3:\n    /* \"#utility.yul\":764:770   */\n  0x00\n    /* \"#utility.yul\":813:815   */\n  0x20\n    /* \"#utility.yul\":801:810   */\n  dup3\n    /* \"#utility.yul\":792:799   */\n  dup5\n    /* \"#utility.yul\":788:811   */\n  sub\n    /* \"#utility.yul\":784:816   */\n  slt\n    /* \"#utility.yul\":781:900   */\n  iszero\n  tag_32\n  jumpi\n    /* \"#utility.yul\":819:898   */\n  tag_33\n  tag_14\n  jump\t// in\ntag_33:\n    /* \"#utility.yul\":781:900   */\ntag_32:\n    /* \"#utility.yul\":939:940   */\n  0x00\n    /* \"#utility.yul\":964:1028   */\n  tag_34\n    /* \"#utility.yul\":1020:1027   */\n  dup5\n    /* \"#utility.yul\":1011:1017   */\n  dup3\n    /* \"#utility.yul\":1000:1009   */\n  dup6\n    /* \"#utility.yul\":996:1018   */\n  add\n    /* \"#utility.yul\":964:1028   */\n  tag_18\n  jump\t// in\ntag_34:\n    /* \"#utility.yul\":954:1028   */\n  swap2\n  pop\n    /* \"#utility.yul\":910:1038   */\n  pop\n    /* \"#utility.yul\":694:1045   */\n  swap3\n  swap2\n  pop\n  pop\n  jump\t// out\n    /* \"#utility.yul\":1051:1231   */\ntag_19:\n    /* \"#utility.yul\":1099:1176   */\n  0x4e487b7100000000000000000000000000000000000000000000000000000000\n    /* \"#utility.yul\":1096:1097   */\n  0x00\n    /* \"#utility.yul\":1089:1177   */\n  mstore\n    /* \"#utility.yul\":1196:1200   */\n  0x11\n    /* \"#utility.yul\":1193:1194   */\n  0x04\n    /* \"#utility.yul\":1186:1201   */\n  mstore\n    /* \"#utility.yul\":1220:1224   */\n  0x24\n    /* \"#utility.yul\":1217:1218   */\n  0x00\n    /* \"#utility.yul\":1210:1225   */\n  revert\n    /* \"#utility.yul\":1237:1323   */\ntag_20:\n    /* \"#utility.yul\":1272:1279   */\n  0x00\n    /* \"#utility.yul\":1312:1316   */\n  0xff\n    /* \"#utility.yul\":1305:1310   */\n  dup3\n    /* \"#utility.yul\":1301:1317   */\n  and\n    /* \"#utility.yul\":1290:1317   */\n  swap1\n  pop\n    /* \"#utility.yul\":1237:1323   */\n  swap2\n  swap1\n  pop\n  jump\t// out\n    /* \"#utility.yul\":1329:1496   */\ntag_11:\n    /* \"#utility.yul\":1366:1369   */\n  0x00\n    /* \"#utility.yul\":1389:1411   */\n  tag_38\n    /* \"#utility.yul\":1405:1410   */\n  dup3\n    /* \"#utility.yul\":1389:1411   */\n  tag_20\n  jump\t// in\ntag_38:\n    /* \"#utility.yul\":1380:1411   */\n  swap2\n  pop\n    /* \"#utility.yul\":1433:1437   */\n  0xff\n    /* \"#utility.yul\":1426:1431   */\n  dup3\n    /* \"#utility.yul\":1423:1438   */\n  sub\n    /* \"#utility.yul\":1420:1461   */\n  tag_39\n  jumpi\n    /* \"#utility.yul\":1441:1459   */\n  tag_40\n  tag_19\n  jump\t// in\ntag_40:\n    /* \"#utility.yul\":1420:1461   */\ntag_39:\n    /* \"#utility.yul\":1488:1489   */\n  0x01\n    /* \"#utility.yul\":1481:1486   */\n  dup3\n    /* \"#utility.yul\":1477:1490   */\n  add\n    /* \"#utility.yul\":1470:1490   */\n  swap1\n  pop\n    /* \"#utility.yul\":1329:1496   */\n  swap2\n  swap1\n  pop\n  jump\t// out\n    /* \"Final Exam/Ballot.sol\":57:2104  contract Ballot {... */\ntag_12:\n  dataSize(sub_0)\n  dup1\n  dataOffset(sub_0)\n  0x00\n  codecopy\n  0x00\n  return\nstop\n\nsub_0: assembly {\n        /* \"Final Exam/Ballot.sol\":57:2104  contract Ballot {... */\n      mstore(0x40, 0x80)\n      callvalue\n      dup1\n      iszero\n      tag_1\n      jumpi\n      0x00\n      dup1\n      revert\n    tag_1:\n      pop\n      jumpi(tag_2, lt(calldatasize, 0x04))\n      shr(0xe0, calldataload(0x00))\n      dup1\n      0x013cf08b\n      eq\n      tag_3\n      jumpi\n      dup1\n      0x4420e486\n      eq\n      tag_4\n      jumpi\n      dup1\n      0x508b30c9\n      eq\n      tag_5\n      jumpi\n      dup1\n      0xa3ec138d\n      eq\n      tag_6\n      jumpi\n      dup1\n      0xb3f98adc\n      eq\n      tag_7\n      jumpi\n    tag_2:\n      0x00\n      dup1\n      revert\n        /* \"Final Exam/Ballot.sol\":387:415  Proposal [] public proposals */\n    tag_3:\n      tag_8\n      0x04\n      dup1\n      calldatasize\n      sub\n      dup2\n      add\n      swap1\n      tag_9\n      swap2\n      swap1\n      tag_10\n      jump\t// in\n    tag_9:\n      tag_11\n      jump\t// in\n    tag_8:\n      mload(0x40)\n      tag_12\n      swap2\n      swap1\n      tag_13\n      jump\t// in\n    tag_12:\n      mload(0x40)\n      dup1\n      swap2\n      sub\n      swap1\n      return\n        /* \"Final Exam/Ballot.sol\":956:1273  function register(address _addr) ... */\n    tag_4:\n      tag_14\n      0x04\n      dup1\n      calldatasize\n      sub\n      dup2\n      add\n      swap1\n      tag_15\n      swap2\n      swap1\n      tag_16\n      jump\t// in\n    tag_15:\n      tag_17\n      jump\t// in\n    tag_14:\n      stop\n        /* \"Final Exam/Ballot.sol\":1728:2102  function reqWinner()... */\n    tag_5:\n      tag_18\n      tag_19\n      jump\t// in\n    tag_18:\n      mload(0x40)\n      tag_20\n      swap2\n      swap1\n      tag_21\n      jump\t// in\n    tag_20:\n      mload(0x40)\n      dup1\n      swap2\n      sub\n      swap1\n      return\n        /* \"Final Exam/Ballot.sol\":322:361  mapping(address => Voter) public voters */\n    tag_6:\n      tag_22\n      0x04\n      dup1\n      calldatasize\n      sub\n      dup2\n      add\n      swap1\n      tag_23\n      swap2\n      swap1\n      tag_16\n      jump\t// in\n    tag_23:\n      tag_24\n      jump\t// in\n    tag_22:\n      mload(0x40)\n      tag_25\n      swap4\n      swap3\n      swap2\n      swap1\n      tag_26\n      jump\t// in\n    tag_25:\n      mload(0x40)\n      dup1\n      swap2\n      sub\n      swap1\n      return\n        /* \"Final Exam/Ballot.sol\":1283:1718  function vote(uint8 _number)... */\n    tag_7:\n      tag_27\n      0x04\n      dup1\n      calldatasize\n      sub\n      dup2\n      add\n      swap1\n      tag_28\n      swap2\n      swap1\n      tag_29\n      jump\t// in\n    tag_28:\n      tag_30\n      jump\t// in\n    tag_27:\n      stop\n        /* \"Final Exam/Ballot.sol\":387:415  Proposal [] public proposals */\n    tag_11:\n      0x02\n      dup2\n      dup2\n      sload\n      dup2\n      lt\n      tag_31\n      jumpi\n      0x00\n      dup1\n      revert\n    tag_31:\n      swap1\n      0x00\n      mstore\n      keccak256(0x00, 0x20)\n      add\n      0x00\n      swap2\n      pop\n      swap1\n      pop\n      dup1\n      0x00\n      add\n      sload\n      swap1\n      pop\n      dup2\n      jump\t// out\n        /* \"Final Exam/Ballot.sol\":956:1273  function register(address _addr) ... */\n    tag_17:\n        /* \"Final Exam/Ballot.sol\":505:516  chairPerson */\n      0x00\n      dup1\n      sload\n      swap1\n      0x0100\n      exp\n      swap1\n      div\n      0xffffffffffffffffffffffffffffffffffffffff\n      and\n        /* \"Final Exam/Ballot.sol\":491:516  msg.sender == chairPerson */\n      0xffffffffffffffffffffffffffffffffffffffff\n      and\n        /* \"Final Exam/Ballot.sol\":491:501  msg.sender */\n      caller\n        /* \"Final Exam/Ballot.sol\":491:516  msg.sender == chairPerson */\n      0xffffffffffffffffffffffffffffffffffffffff\n      and\n      eq\n        /* \"Final Exam/Ballot.sol\":483:569  require(msg.sender == chairPerson, \"Error : Only Chair Person can call this function\") */\n      tag_34\n      jumpi\n      mload(0x40)\n      0x08c379a000000000000000000000000000000000000000000000000000000000\n      dup2\n      mstore\n      0x04\n      add\n      tag_35\n      swap1\n      tag_36\n      jump\t// in\n    tag_35:\n      mload(0x40)\n      dup1\n      swap2\n      sub\n      swap1\n      revert\n    tag_34:\n        /* \"Final Exam/Ballot.sol\":1053:1064  chairPerson */\n      0x00\n      dup1\n      sload\n      swap1\n      0x0100\n      exp\n      swap1\n      div\n      0xffffffffffffffffffffffffffffffffffffffff\n      and\n        /* \"Final Exam/Ballot.sol\":1044:1064  _addr == chairPerson */\n      0xffffffffffffffffffffffffffffffffffffffff\n      and\n        /* \"Final Exam/Ballot.sol\":1044:1049  _addr */\n      dup2\n        /* \"Final Exam/Ballot.sol\":1044:1064  _addr == chairPerson */\n      0xffffffffffffffffffffffffffffffffffffffff\n      and\n      sub\n        /* \"Final Exam/Ballot.sol\":1040:1186  if (_addr == chairPerson) {... */\n      tag_38\n      jumpi\n        /* \"Final Exam/Ballot.sol\":1107:1108  2 */\n      0x02\n        /* \"Final Exam/Ballot.sol\":1084:1090  voters */\n      0x01\n        /* \"Final Exam/Ballot.sol\":1084:1097  voters[_addr] */\n      0x00\n        /* \"Final Exam/Ballot.sol\":1091:1096  _addr */\n      dup4\n        /* \"Final Exam/Ballot.sol\":1084:1097  voters[_addr] */\n      0xffffffffffffffffffffffffffffffffffffffff\n      and\n      0xffffffffffffffffffffffffffffffffffffffff\n      and\n      dup2\n      mstore\n      0x20\n      add\n      swap1\n      dup2\n      mstore\n      0x20\n      add\n      0x00\n      keccak256\n        /* \"Final Exam/Ballot.sol\":1084:1104  voters[_addr].weight */\n      0x00\n      add\n        /* \"Final Exam/Ballot.sol\":1084:1108  voters[_addr].weight = 2 */\n      dup2\n      swap1\n      sstore\n      pop\n        /* \"Final Exam/Ballot.sol\":1040:1186  if (_addr == chairPerson) {... */\n      jump(tag_39)\n    tag_38:\n        /* \"Final Exam/Ballot.sol\":1170:1171  1 */\n      0x01\n        /* \"Final Exam/Ballot.sol\":1147:1153  voters */\n      dup1\n        /* \"Final Exam/Ballot.sol\":1147:1160  voters[_addr] */\n      0x00\n        /* \"Final Exam/Ballot.sol\":1154:1159  _addr */\n      dup4\n        /* \"Final Exam/Ballot.sol\":1147:1160  voters[_addr] */\n      0xffffffffffffffffffffffffffffffffffffffff\n      and\n      0xffffffffffffffffffffffffffffffffffffffff\n      and\n      dup2\n      mstore\n      0x20\n      add\n      swap1\n      dup2\n      mstore\n      0x20\n      add\n      0x00\n      keccak256\n        /* \"Final Exam/Ballot.sol\":1147:1167  voters[_addr].weight */\n      0x00\n      add\n        /* \"Final Exam/Ballot.sol\":1147:1171  voters[_addr].weight = 1 */\n      dup2\n      swap1\n      sstore\n      pop\n        /* \"Final Exam/Ballot.sol\":1040:1186  if (_addr == chairPerson) {... */\n    tag_39:\n        /* \"Final Exam/Ballot.sol\":1221:1226  false */\n      0x00\n        /* \"Final Exam/Ballot.sol\":1199:1205  voters */\n      0x01\n        /* \"Final Exam/Ballot.sol\":1199:1212  voters[_addr] */\n      0x00\n        /* \"Final Exam/Ballot.sol\":1206:1211  _addr */\n      dup4\n        /* \"Final Exam/Ballot.sol\":1199:1212  voters[_addr] */\n      0xffffffffffffffffffffffffffffffffffffffff\n      and\n      0xffffffffffffffffffffffffffffffffffffffff\n      and\n      dup2\n      mstore\n      0x20\n      add\n      swap1\n      dup2\n      mstore\n      0x20\n      add\n      0x00\n      keccak256\n        /* \"Final Exam/Ballot.sol\":1199:1218  voters[_addr].voted */\n      0x01\n      add\n      0x00\n        /* \"Final Exam/Ballot.sol\":1199:1226  voters[_addr].voted = false */\n      0x0100\n      exp\n      dup2\n      sload\n      dup2\n      0xff\n      mul\n      not\n      and\n      swap1\n      dup4\n      iszero\n      iszero\n      mul\n      or\n      swap1\n      sstore\n      pop\n        /* \"Final Exam/Ballot.sol\":1261:1262  0 */\n      0x00\n        /* \"Final Exam/Ballot.sol\":1240:1246  voters */\n      0x01\n        /* \"Final Exam/Ballot.sol\":1240:1253  voters[_addr] */\n      0x00\n        /* \"Final Exam/Ballot.sol\":1247:1252  _addr */\n      dup4\n        /* \"Final Exam/Ballot.sol\":1240:1253  voters[_addr] */\n      0xffffffffffffffffffffffffffffffffffffffff\n      and\n      0xffffffffffffffffffffffffffffffffffffffff\n      and\n      dup2\n      mstore\n      0x20\n      add\n      swap1\n      dup2\n      mstore\n      0x20\n      add\n      0x00\n      keccak256\n        /* \"Final Exam/Ballot.sol\":1240:1258  voters[_addr].vote */\n      0x02\n      add\n        /* \"Final Exam/Ballot.sol\":1240:1262  voters[_addr].vote = 0 */\n      dup2\n      swap1\n      sstore\n      pop\n        /* \"Final Exam/Ballot.sol\":956:1273  function register(address _addr) ... */\n      pop\n      jump\t// out\n        /* \"Final Exam/Ballot.sol\":1728:2102  function reqWinner()... */\n    tag_19:\n        /* \"Final Exam/Ballot.sol\":1815:1820  uint8 */\n      0x00\n        /* \"Final Exam/Ballot.sol\":505:516  chairPerson */\n      dup1\n      0x00\n      swap1\n      sload\n      swap1\n      0x0100\n      exp\n      swap1\n      div\n      0xffffffffffffffffffffffffffffffffffffffff\n      and\n        /* \"Final Exam/Ballot.sol\":491:516  msg.sender == chairPerson */\n      0xffffffffffffffffffffffffffffffffffffffff\n      and\n        /* \"Final Exam/Ballot.sol\":491:501  msg.sender */\n      caller\n        /* \"Final Exam/Ballot.sol\":491:516  msg.sender == chairPerson */\n      0xffffffffffffffffffffffffffffffffffffffff\n      and\n      eq\n        /* \"Final Exam/Ballot.sol\":483:569  require(msg.sender == chairPerson, \"Error : Only Chair Person can call this function\") */\n      tag_41\n      jumpi\n      mload(0x40)\n      0x08c379a000000000000000000000000000000000000000000000000000000000\n      dup2\n      mstore\n      0x04\n      add\n      tag_42\n      swap1\n      tag_36\n      jump\t// in\n    tag_42:\n      mload(0x40)\n      dup1\n      swap2\n      sub\n      swap1\n      revert\n    tag_41:\n        /* \"Final Exam/Ballot.sol\":1836:1851  uint8 winnerIdx */\n      0x00\n        /* \"Final Exam/Ballot.sol\":1875:1882  uint8 i */\n      dup1\n        /* \"Final Exam/Ballot.sol\":1870:2062  for (uint8 i = 0; i < proposals.length; i++) {... */\n    tag_44:\n        /* \"Final Exam/Ballot.sol\":1892:1901  proposals */\n      0x02\n        /* \"Final Exam/Ballot.sol\":1892:1908  proposals.length */\n      dup1\n      sload\n      swap1\n      pop\n        /* \"Final Exam/Ballot.sol\":1888:1889  i */\n      dup2\n        /* \"Final Exam/Ballot.sol\":1888:1908  i < proposals.length */\n      0xff\n      and\n      lt\n        /* \"Final Exam/Ballot.sol\":1870:2062  for (uint8 i = 0; i < proposals.length; i++) {... */\n      iszero\n      tag_45\n      jumpi\n        /* \"Final Exam/Ballot.sol\":1970:1979  proposals */\n      0x02\n        /* \"Final Exam/Ballot.sol\":1980:1981  i */\n      dup2\n        /* \"Final Exam/Ballot.sol\":1970:1982  proposals[i] */\n      0xff\n      and\n      dup2\n      sload\n      dup2\n      lt\n      tag_47\n      jumpi\n      tag_48\n      tag_49\n      jump\t// in\n    tag_48:\n    tag_47:\n      swap1\n      0x00\n      mstore\n      keccak256(0x00, 0x20)\n      add\n        /* \"Final Exam/Ballot.sol\":1970:1992  proposals[i].voteCount */\n      0x00\n      add\n      sload\n        /* \"Final Exam/Ballot.sol\":1937:1946  proposals */\n      0x02\n        /* \"Final Exam/Ballot.sol\":1947:1956  winnerIdx */\n      dup4\n        /* \"Final Exam/Ballot.sol\":1937:1957  proposals[winnerIdx] */\n      0xff\n      and\n      dup2\n      sload\n      dup2\n      lt\n      tag_51\n      jumpi\n      tag_52\n      tag_49\n      jump\t// in\n    tag_52:\n    tag_51:\n      swap1\n      0x00\n      mstore\n      keccak256(0x00, 0x20)\n      add\n        /* \"Final Exam/Ballot.sol\":1937:1967  proposals[winnerIdx].voteCount */\n      0x00\n      add\n      sload\n        /* \"Final Exam/Ballot.sol\":1937:1992  proposals[winnerIdx].voteCount < proposals[i].voteCount */\n      lt\n        /* \"Final Exam/Ballot.sol\":1933:2048  if (proposals[winnerIdx].voteCount < proposals[i].voteCount) {... */\n      iszero\n      tag_54\n      jumpi\n        /* \"Final Exam/Ballot.sol\":2028:2029  i */\n      dup1\n        /* \"Final Exam/Ballot.sol\":2016:2029  winnerIdx = i */\n      swap2\n      pop\n        /* \"Final Exam/Ballot.sol\":1933:2048  if (proposals[winnerIdx].voteCount < proposals[i].voteCount) {... */\n    tag_54:\n        /* \"Final Exam/Ballot.sol\":1910:1913  i++ */\n      dup1\n      dup1\n      tag_55\n      swap1\n      tag_56\n      jump\t// in\n    tag_55:\n      swap2\n      pop\n      pop\n        /* \"Final Exam/Ballot.sol\":1870:2062  for (uint8 i = 0; i < proposals.length; i++) {... */\n      jump(tag_44)\n    tag_45:\n      pop\n        /* \"Final Exam/Ballot.sol\":2082:2091  winnerIdx */\n      dup1\n        /* \"Final Exam/Ballot.sol\":2075:2091  return winnerIdx */\n      swap2\n      pop\n      pop\n        /* \"Final Exam/Ballot.sol\":1728:2102  function reqWinner()... */\n      swap1\n      jump\t// out\n        /* \"Final Exam/Ballot.sol\":322:361  mapping(address => Voter) public voters */\n    tag_24:\n      mstore(0x20, 0x01)\n      dup1\n      0x00\n      mstore\n      keccak256(0x00, 0x40)\n      0x00\n      swap2\n      pop\n      swap1\n      pop\n      dup1\n      0x00\n      add\n      sload\n      swap1\n      dup1\n      0x01\n      add\n      0x00\n      swap1\n      sload\n      swap1\n      0x0100\n      exp\n      swap1\n      div\n      0xff\n      and\n      swap1\n      dup1\n      0x02\n      add\n      sload\n      swap1\n      pop\n      dup4\n      jump\t// out\n        /* \"Final Exam/Ballot.sol\":1283:1718  function vote(uint8 _number)... */\n    tag_30:\n        /* \"Final Exam/Ballot.sol\":661:662  0 */\n      0x00\n        /* \"Final Exam/Ballot.sol\":633:639  voters */\n      0x01\n        /* \"Final Exam/Ballot.sol\":633:651  voters[msg.sender] */\n      0x00\n        /* \"Final Exam/Ballot.sol\":640:650  msg.sender */\n      caller\n        /* \"Final Exam/Ballot.sol\":633:651  voters[msg.sender] */\n      0xffffffffffffffffffffffffffffffffffffffff\n      and\n      0xffffffffffffffffffffffffffffffffffffffff\n      and\n      dup2\n      mstore\n      0x20\n      add\n      swap1\n      dup2\n      mstore\n      0x20\n      add\n      0x00\n      keccak256\n        /* \"Final Exam/Ballot.sol\":633:658  voters[msg.sender].weight */\n      0x00\n      add\n      sload\n        /* \"Final Exam/Ballot.sol\":633:662  voters[msg.sender].weight > 0 */\n      gt\n        /* \"Final Exam/Ballot.sol\":625:714  require(voters[msg.sender].weight > 0, \"Error : Only valid voter can call this function\") */\n      tag_58\n      jumpi\n      mload(0x40)\n      0x08c379a000000000000000000000000000000000000000000000000000000000\n      dup2\n      mstore\n      0x04\n      add\n      tag_59\n      swap1\n      tag_60\n      jump\t// in\n    tag_59:\n      mload(0x40)\n      dup1\n      swap2\n      sub\n      swap1\n      revert\n    tag_58:\n        /* \"Final Exam/Ballot.sol\":1399:1404  false */\n      0x00\n        /* \"Final Exam/Ballot.sol\":1371:1404  voters[msg.sender].voted == false */\n      iszero\n      iszero\n        /* \"Final Exam/Ballot.sol\":1371:1377  voters */\n      0x01\n        /* \"Final Exam/Ballot.sol\":1371:1389  voters[msg.sender] */\n      0x00\n        /* \"Final Exam/Ballot.sol\":1378:1388  msg.sender */\n      caller\n        /* \"Final Exam/Ballot.sol\":1371:1389  voters[msg.sender] */\n      0xffffffffffffffffffffffffffffffffffffffff\n      and\n      0xffffffffffffffffffffffffffffffffffffffff\n      and\n      dup2\n      mstore\n      0x20\n      add\n      swap1\n      dup2\n      mstore\n      0x20\n      add\n      0x00\n      keccak256\n        /* \"Final Exam/Ballot.sol\":1371:1395  voters[msg.sender].voted */\n      0x01\n      add\n      0x00\n      swap1\n      sload\n      swap1\n      0x0100\n      exp\n      swap1\n      div\n      0xff\n      and\n        /* \"Final Exam/Ballot.sol\":1371:1404  voters[msg.sender].voted == false */\n      iszero\n      iszero\n      eq\n        /* \"Final Exam/Ballot.sol\":1363:1444  require(voters[msg.sender].voted == false, \"Error : You have been already voted\") */\n      tag_62\n      jumpi\n      mload(0x40)\n      0x08c379a000000000000000000000000000000000000000000000000000000000\n      dup2\n      mstore\n      0x04\n      add\n      tag_63\n      swap1\n      tag_64\n      jump\t// in\n    tag_63:\n      mload(0x40)\n      dup1\n      swap2\n      sub\n      swap1\n      revert\n    tag_62:\n        /* \"Final Exam/Ballot.sol\":1476:1485  proposals */\n      0x02\n        /* \"Final Exam/Ballot.sol\":1476:1492  proposals.length */\n      dup1\n      sload\n      swap1\n      pop\n        /* \"Final Exam/Ballot.sol\":1466:1473  _number */\n      dup2\n        /* \"Final Exam/Ballot.sol\":1466:1492  _number < proposals.length */\n      0xff\n      and\n      lt\n        /* \"Final Exam/Ballot.sol\":1458:1519  require(_number < proposals.length, \"Error : Invalid number\") */\n      tag_65\n      jumpi\n      mload(0x40)\n      0x08c379a000000000000000000000000000000000000000000000000000000000\n      dup2\n      mstore\n      0x04\n      add\n      tag_66\n      swap1\n      tag_67\n      jump\t// in\n    tag_66:\n      mload(0x40)\n      dup1\n      swap2\n      sub\n      swap1\n      revert\n    tag_65:\n        /* \"Final Exam/Ballot.sol\":1566:1572  voters */\n      0x01\n        /* \"Final Exam/Ballot.sol\":1566:1584  voters[msg.sender] */\n      0x00\n        /* \"Final Exam/Ballot.sol\":1573:1583  msg.sender */\n      caller\n        /* \"Final Exam/Ballot.sol\":1566:1584  voters[msg.sender] */\n      0xffffffffffffffffffffffffffffffffffffffff\n      and\n      0xffffffffffffffffffffffffffffffffffffffff\n      and\n      dup2\n      mstore\n      0x20\n      add\n      swap1\n      dup2\n      mstore\n      0x20\n      add\n      0x00\n      keccak256\n        /* \"Final Exam/Ballot.sol\":1566:1591  voters[msg.sender].weight */\n      0x00\n      add\n      sload\n        /* \"Final Exam/Ballot.sol\":1534:1543  proposals */\n      0x02\n        /* \"Final Exam/Ballot.sol\":1544:1551  _number */\n      dup3\n        /* \"Final Exam/Ballot.sol\":1534:1552  proposals[_number] */\n      0xff\n      and\n      dup2\n      sload\n      dup2\n      lt\n      tag_68\n      jumpi\n      tag_69\n      tag_49\n      jump\t// in\n    tag_69:\n    tag_68:\n      swap1\n      0x00\n      mstore\n      keccak256(0x00, 0x20)\n      add\n        /* \"Final Exam/Ballot.sol\":1534:1562  proposals[_number].voteCount */\n      0x00\n      add\n      0x00\n        /* \"Final Exam/Ballot.sol\":1534:1591  proposals[_number].voteCount += voters[msg.sender].weight */\n      dup3\n      dup3\n      sload\n      tag_71\n      swap2\n      swap1\n      tag_72\n      jump\t// in\n    tag_71:\n      swap3\n      pop\n      pop\n      dup2\n      swap1\n      sstore\n      pop\n        /* \"Final Exam/Ballot.sol\":1656:1660  true */\n      0x01\n        /* \"Final Exam/Ballot.sol\":1629:1635  voters */\n      dup1\n        /* \"Final Exam/Ballot.sol\":1629:1647  voters[msg.sender] */\n      0x00\n        /* \"Final Exam/Ballot.sol\":1636:1646  msg.sender */\n      caller\n        /* \"Final Exam/Ballot.sol\":1629:1647  voters[msg.sender] */\n      0xffffffffffffffffffffffffffffffffffffffff\n      and\n      0xffffffffffffffffffffffffffffffffffffffff\n      and\n      dup2\n      mstore\n      0x20\n      add\n      swap1\n      dup2\n      mstore\n      0x20\n      add\n      0x00\n      keccak256\n        /* \"Final Exam/Ballot.sol\":1629:1653  voters[msg.sender].voted */\n      0x01\n      add\n      0x00\n        /* \"Final Exam/Ballot.sol\":1629:1660  voters[msg.sender].voted = true */\n      0x0100\n      exp\n      dup2\n      sload\n      dup2\n      0xff\n      mul\n      not\n      and\n      swap1\n      dup4\n      iszero\n      iszero\n      mul\n      or\n      swap1\n      sstore\n      pop\n        /* \"Final Exam/Ballot.sol\":1700:1707  _number */\n      dup1\n        /* \"Final Exam/Ballot.sol\":1674:1707  voters[msg.sender].vote = _number */\n      0xff\n      and\n        /* \"Final Exam/Ballot.sol\":1674:1680  voters */\n      0x01\n        /* \"Final Exam/Ballot.sol\":1674:1692  voters[msg.sender] */\n      0x00\n        /* \"Final Exam/Ballot.sol\":1681:1691  msg.sender */\n      caller\n        /* \"Final Exam/Ballot.sol\":1674:1692  voters[msg.sender] */\n      0xffffffffffffffffffffffffffffffffffffffff\n      and\n      0xffffffffffffffffffffffffffffffffffffffff\n      and\n      dup2\n      mstore\n      0x20\n      add\n      swap1\n      dup2\n      mstore\n      0x20\n      add\n      0x00\n      keccak256\n        /* \"Final Exam/Ballot.sol\":1674:1697  voters[msg.sender].vote */\n      0x02\n      add\n        /* \"Final Exam/Ballot.sol\":1674:1707  voters[msg.sender].vote = _number */\n      dup2\n      swap1\n      sstore\n      pop\n        /* \"Final Exam/Ballot.sol\":1283:1718  function vote(uint8 _number)... */\n      pop\n      jump\t// out\n        /* \"#utility.yul\":88:205   */\n    tag_74:\n        /* \"#utility.yul\":197:198   */\n      0x00\n        /* \"#utility.yul\":194:195   */\n      dup1\n        /* \"#utility.yul\":187:199   */\n      revert\n        /* \"#utility.yul\":334:411   */\n    tag_76:\n        /* \"#utility.yul\":371:378   */\n      0x00\n        /* \"#utility.yul\":400:405   */\n      dup2\n        /* \"#utility.yul\":389:405   */\n      swap1\n      pop\n        /* \"#utility.yul\":334:411   */\n      swap2\n      swap1\n      pop\n      jump\t// out\n        /* \"#utility.yul\":417:539   */\n    tag_77:\n        /* \"#utility.yul\":490:514   */\n      tag_106\n        /* \"#utility.yul\":508:513   */\n      dup2\n        /* \"#utility.yul\":490:514   */\n      tag_76\n      jump\t// in\n    tag_106:\n        /* \"#utility.yul\":483:488   */\n      dup2\n        /* \"#utility.yul\":480:515   */\n      eq\n        /* \"#utility.yul\":470:533   */\n      tag_107\n      jumpi\n        /* \"#utility.yul\":529:530   */\n      0x00\n        /* \"#utility.yul\":526:527   */\n      dup1\n        /* \"#utility.yul\":519:531   */\n      revert\n        /* \"#utility.yul\":470:533   */\n    tag_107:\n        /* \"#utility.yul\":417:539   */\n      pop\n      jump\t// out\n        /* \"#utility.yul\":545:684   */\n    tag_78:\n        /* \"#utility.yul\":591:596   */\n      0x00\n        /* \"#utility.yul\":629:635   */\n      dup2\n        /* \"#utility.yul\":616:636   */\n      calldataload\n        /* \"#utility.yul\":607:636   */\n      swap1\n      pop\n        /* \"#utility.yul\":645:678   */\n      tag_109\n        /* \"#utility.yul\":672:677   */\n      dup2\n        /* \"#utility.yul\":645:678   */\n      tag_77\n      jump\t// in\n    tag_109:\n        /* \"#utility.yul\":545:684   */\n      swap3\n      swap2\n      pop\n      pop\n      jump\t// out\n        /* \"#utility.yul\":690:1019   */\n    tag_10:\n        /* \"#utility.yul\":749:755   */\n      0x00\n        /* \"#utility.yul\":798:800   */\n      0x20\n        /* \"#utility.yul\":786:795   */\n      dup3\n        /* \"#utility.yul\":777:784   */\n      dup5\n        /* \"#utility.yul\":773:796   */\n      sub\n        /* \"#utility.yul\":769:801   */\n      slt\n        /* \"#utility.yul\":766:885   */\n      iszero\n      tag_111\n      jumpi\n        /* \"#utility.yul\":804:883   */\n      tag_112\n      tag_74\n      jump\t// in\n    tag_112:\n        /* \"#utility.yul\":766:885   */\n    tag_111:\n        /* \"#utility.yul\":924:925   */\n      0x00\n        /* \"#utility.yul\":949:1002   */\n      tag_113\n        /* \"#utility.yul\":994:1001   */\n      dup5\n        /* \"#utility.yul\":985:991   */\n      dup3\n        /* \"#utility.yul\":974:983   */\n      dup6\n        /* \"#utility.yul\":970:992   */\n      add\n        /* \"#utility.yul\":949:1002   */\n      tag_78\n      jump\t// in\n    tag_113:\n        /* \"#utility.yul\":939:1002   */\n      swap2\n      pop\n        /* \"#utility.yul\":895:1012   */\n      pop\n        /* \"#utility.yul\":690:1019   */\n      swap3\n      swap2\n      pop\n      pop\n      jump\t// out\n        /* \"#utility.yul\":1025:1143   */\n    tag_79:\n        /* \"#utility.yul\":1112:1136   */\n      tag_115\n        /* \"#utility.yul\":1130:1135   */\n      dup2\n        /* \"#utility.yul\":1112:1136   */\n      tag_76\n      jump\t// in\n    tag_115:\n        /* \"#utility.yul\":1107:1110   */\n      dup3\n        /* \"#utility.yul\":1100:1137   */\n      mstore\n        /* \"#utility.yul\":1025:1143   */\n      pop\n      pop\n      jump\t// out\n        /* \"#utility.yul\":1149:1371   */\n    tag_13:\n        /* \"#utility.yul\":1242:1246   */\n      0x00\n        /* \"#utility.yul\":1280:1282   */\n      0x20\n        /* \"#utility.yul\":1269:1278   */\n      dup3\n        /* \"#utility.yul\":1265:1283   */\n      add\n        /* \"#utility.yul\":1257:1283   */\n      swap1\n      pop\n        /* \"#utility.yul\":1293:1364   */\n      tag_117\n        /* \"#utility.yul\":1361:1362   */\n      0x00\n        /* \"#utility.yul\":1350:1359   */\n      dup4\n        /* \"#utility.yul\":1346:1363   */\n      add\n        /* \"#utility.yul\":1337:1343   */\n      dup5\n        /* \"#utility.yul\":1293:1364   */\n      tag_79\n      jump\t// in\n    tag_117:\n        /* \"#utility.yul\":1149:1371   */\n      swap3\n      swap2\n      pop\n      pop\n      jump\t// out\n        /* \"#utility.yul\":1377:1503   */\n    tag_80:\n        /* \"#utility.yul\":1414:1421   */\n      0x00\n        /* \"#utility.yul\":1454:1496   */\n      0xffffffffffffffffffffffffffffffffffffffff\n        /* \"#utility.yul\":1447:1452   */\n      dup3\n        /* \"#utility.yul\":1443:1497   */\n      and\n        /* \"#utility.yul\":1432:1497   */\n      swap1\n      pop\n        /* \"#utility.yul\":1377:1503   */\n      swap2\n      swap1\n      pop\n      jump\t// out\n        /* \"#utility.yul\":1509:1605   */\n    tag_81:\n        /* \"#utility.yul\":1546:1553   */\n      0x00\n        /* \"#utility.yul\":1575:1599   */\n      tag_120\n        /* \"#utility.yul\":1593:1598   */\n      dup3\n        /* \"#utility.yul\":1575:1599   */\n      tag_80\n      jump\t// in\n    tag_120:\n        /* \"#utility.yul\":1564:1599   */\n      swap1\n      pop\n        /* \"#utility.yul\":1509:1605   */\n      swap2\n      swap1\n      pop\n      jump\t// out\n        /* \"#utility.yul\":1611:1733   */\n    tag_82:\n        /* \"#utility.yul\":1684:1708   */\n      tag_122\n        /* \"#utility.yul\":1702:1707   */\n      dup2\n        /* \"#utility.yul\":1684:1708   */\n      tag_81\n      jump\t// in\n    tag_122:\n        /* \"#utility.yul\":1677:1682   */\n      dup2\n        /* \"#utility.yul\":1674:1709   */\n      eq\n        /* \"#utility.yul\":1664:1727   */\n      tag_123\n      jumpi\n        /* \"#utility.yul\":1723:1724   */\n      0x00\n        /* \"#utility.yul\":1720:1721   */\n      dup1\n        /* \"#utility.yul\":1713:1725   */\n      revert\n        /* \"#utility.yul\":1664:1727   */\n    tag_123:\n        /* \"#utility.yul\":1611:1733   */\n      pop\n      jump\t// out\n        /* \"#utility.yul\":1739:1878   */\n    tag_83:\n        /* \"#utility.yul\":1785:1790   */\n      0x00\n        /* \"#utility.yul\":1823:1829   */\n      dup2\n        /* \"#utility.yul\":1810:1830   */\n      calldataload\n        /* \"#utility.yul\":1801:1830   */\n      swap1\n      pop\n        /* \"#utility.yul\":1839:1872   */\n      tag_125\n        /* \"#utility.yul\":1866:1871   */\n      dup2\n        /* \"#utility.yul\":1839:1872   */\n      tag_82\n      jump\t// in\n    tag_125:\n        /* \"#utility.yul\":1739:1878   */\n      swap3\n      swap2\n      pop\n      pop\n      jump\t// out\n        /* \"#utility.yul\":1884:2213   */\n    tag_16:\n        /* \"#utility.yul\":1943:1949   */\n      0x00\n        /* \"#utility.yul\":1992:1994   */\n      0x20\n        /* \"#utility.yul\":1980:1989   */\n      dup3\n        /* \"#utility.yul\":1971:1978   */\n      dup5\n        /* \"#utility.yul\":1967:1990   */\n      sub\n        /* \"#utility.yul\":1963:1995   */\n      slt\n        /* \"#utility.yul\":1960:2079   */\n      iszero\n      tag_127\n      jumpi\n        /* \"#utility.yul\":1998:2077   */\n      tag_128\n      tag_74\n      jump\t// in\n    tag_128:\n        /* \"#utility.yul\":1960:2079   */\n    tag_127:\n        /* \"#utility.yul\":2118:2119   */\n      0x00\n        /* \"#utility.yul\":2143:2196   */\n      tag_129\n        /* \"#utility.yul\":2188:2195   */\n      dup5\n        /* \"#utility.yul\":2179:2185   */\n      dup3\n        /* \"#utility.yul\":2168:2177   */\n      dup6\n        /* \"#utility.yul\":2164:2186   */\n      add\n        /* \"#utility.yul\":2143:2196   */\n      tag_83\n      jump\t// in\n    tag_129:\n        /* \"#utility.yul\":2133:2196   */\n      swap2\n      pop\n        /* \"#utility.yul\":2089:2206   */\n      pop\n        /* \"#utility.yul\":1884:2213   */\n      swap3\n      swap2\n      pop\n      pop\n      jump\t// out\n        /* \"#utility.yul\":2219:2305   */\n    tag_84:\n        /* \"#utility.yul\":2254:2261   */\n      0x00\n        /* \"#utility.yul\":2294:2298   */\n      0xff\n        /* \"#utility.yul\":2287:2292   */\n      dup3\n        /* \"#utility.yul\":2283:2299   */\n      and\n        /* \"#utility.yul\":2272:2299   */\n      swap1\n      pop\n        /* \"#utility.yul\":2219:2305   */\n      swap2\n      swap1\n      pop\n      jump\t// out\n        /* \"#utility.yul\":2311:2423   */\n    tag_85:\n        /* \"#utility.yul\":2394:2416   */\n      tag_132\n        /* \"#utility.yul\":2410:2415   */\n      dup2\n        /* \"#utility.yul\":2394:2416   */\n      tag_84\n      jump\t// in\n    tag_132:\n        /* \"#utility.yul\":2389:2392   */\n      dup3\n        /* \"#utility.yul\":2382:2417   */\n      mstore\n        /* \"#utility.yul\":2311:2423   */\n      pop\n      pop\n      jump\t// out\n        /* \"#utility.yul\":2429:2643   */\n    tag_21:\n        /* \"#utility.yul\":2518:2522   */\n      0x00\n        /* \"#utility.yul\":2556:2558   */\n      0x20\n        /* \"#utility.yul\":2545:2554   */\n      dup3\n        /* \"#utility.yul\":2541:2559   */\n      add\n        /* \"#utility.yul\":2533:2559   */\n      swap1\n      pop\n        /* \"#utility.yul\":2569:2636   */\n      tag_134\n        /* \"#utility.yul\":2633:2634   */\n      0x00\n        /* \"#utility.yul\":2622:2631   */\n      dup4\n        /* \"#utility.yul\":2618:2635   */\n      add\n        /* \"#utility.yul\":2609:2615   */\n      dup5\n        /* \"#utility.yul\":2569:2636   */\n      tag_85\n      jump\t// in\n    tag_134:\n        /* \"#utility.yul\":2429:2643   */\n      swap3\n      swap2\n      pop\n      pop\n      jump\t// out\n        /* \"#utility.yul\":2649:2739   */\n    tag_86:\n        /* \"#utility.yul\":2683:2690   */\n      0x00\n        /* \"#utility.yul\":2726:2731   */\n      dup2\n        /* \"#utility.yul\":2719:2732   */\n      iszero\n        /* \"#utility.yul\":2712:2733   */\n      iszero\n        /* \"#utility.yul\":2701:2733   */\n      swap1\n      pop\n        /* \"#utility.yul\":2649:2739   */\n      swap2\n      swap1\n      pop\n      jump\t// out\n        /* \"#utility.yul\":2745:2854   */\n    tag_87:\n        /* \"#utility.yul\":2826:2847   */\n      tag_137\n        /* \"#utility.yul\":2841:2846   */\n      dup2\n        /* \"#utility.yul\":2826:2847   */\n      tag_86\n      jump\t// in\n    tag_137:\n        /* \"#utility.yul\":2821:2824   */\n      dup3\n        /* \"#utility.yul\":2814:2848   */\n      mstore\n        /* \"#utility.yul\":2745:2854   */\n      pop\n      pop\n      jump\t// out\n        /* \"#utility.yul\":2860:3290   */\n    tag_26:\n        /* \"#utility.yul\":3003:3007   */\n      0x00\n        /* \"#utility.yul\":3041:3043   */\n      0x60\n        /* \"#utility.yul\":3030:3039   */\n      dup3\n        /* \"#utility.yul\":3026:3044   */\n      add\n        /* \"#utility.yul\":3018:3044   */\n      swap1\n      pop\n        /* \"#utility.yul\":3054:3125   */\n      tag_139\n        /* \"#utility.yul\":3122:3123   */\n      0x00\n        /* \"#utility.yul\":3111:3120   */\n      dup4\n        /* \"#utility.yul\":3107:3124   */\n      add\n        /* \"#utility.yul\":3098:3104   */\n      dup7\n        /* \"#utility.yul\":3054:3125   */\n      tag_79\n      jump\t// in\n    tag_139:\n        /* \"#utility.yul\":3135:3201   */\n      tag_140\n        /* \"#utility.yul\":3197:3199   */\n      0x20\n        /* \"#utility.yul\":3186:3195   */\n      dup4\n        /* \"#utility.yul\":3182:3200   */\n      add\n        /* \"#utility.yul\":3173:3179   */\n      dup6\n        /* \"#utility.yul\":3135:3201   */\n      tag_87\n      jump\t// in\n    tag_140:\n        /* \"#utility.yul\":3211:3283   */\n      tag_141\n        /* \"#utility.yul\":3279:3281   */\n      0x40\n        /* \"#utility.yul\":3268:3277   */\n      dup4\n        /* \"#utility.yul\":3264:3282   */\n      add\n        /* \"#utility.yul\":3255:3261   */\n      dup5\n        /* \"#utility.yul\":3211:3283   */\n      tag_79\n      jump\t// in\n    tag_141:\n        /* \"#utility.yul\":2860:3290   */\n      swap5\n      swap4\n      pop\n      pop\n      pop\n      pop\n      jump\t// out\n        /* \"#utility.yul\":3296:3414   */\n    tag_88:\n        /* \"#utility.yul\":3367:3389   */\n      tag_143\n        /* \"#utility.yul\":3383:3388   */\n      dup2\n        /* \"#utility.yul\":3367:3389   */\n      tag_84\n      jump\t// in\n    tag_143:\n        /* \"#utility.yul\":3360:3365   */\n      dup2\n        /* \"#utility.yul\":3357:3390   */\n      eq\n        /* \"#utility.yul\":3347:3408   */\n      tag_144\n      jumpi\n        /* \"#utility.yul\":3404:3405   */\n      0x00\n        /* \"#utility.yul\":3401:3402   */\n      dup1\n        /* \"#utility.yul\":3394:3406   */\n      revert\n        /* \"#utility.yul\":3347:3408   */\n    tag_144:\n        /* \"#utility.yul\":3296:3414   */\n      pop\n      jump\t// out\n        /* \"#utility.yul\":3420:3555   */\n    tag_89:\n        /* \"#utility.yul\":3464:3469   */\n      0x00\n        /* \"#utility.yul\":3502:3508   */\n      dup2\n        /* \"#utility.yul\":3489:3509   */\n      calldataload\n        /* \"#utility.yul\":3480:3509   */\n      swap1\n      pop\n        /* \"#utility.yul\":3518:3549   */\n      tag_146\n        /* \"#utility.yul\":3543:3548   */\n      dup2\n        /* \"#utility.yul\":3518:3549   */\n      tag_88\n      jump\t// in\n    tag_146:\n        /* \"#utility.yul\":3420:3555   */\n      swap3\n      swap2\n      pop\n      pop\n      jump\t// out\n        /* \"#utility.yul\":3561:3886   */\n    tag_29:\n        /* \"#utility.yul\":3618:3624   */\n      0x00\n        /* \"#utility.yul\":3667:3669   */\n      0x20\n        /* \"#utility.yul\":3655:3664   */\n      dup3\n        /* \"#utility.yul\":3646:3653   */\n      dup5\n        /* \"#utility.yul\":3642:3665   */\n      sub\n        /* \"#utility.yul\":3638:3670   */\n      slt\n        /* \"#utility.yul\":3635:3754   */\n      iszero\n      tag_148\n      jumpi\n        /* \"#utility.yul\":3673:3752   */\n      tag_149\n      tag_74\n      jump\t// in\n    tag_149:\n        /* \"#utility.yul\":3635:3754   */\n    tag_148:\n        /* \"#utility.yul\":3793:3794   */\n      0x00\n        /* \"#utility.yul\":3818:3869   */\n      tag_150\n        /* \"#utility.yul\":3861:3868   */\n      dup5\n        /* \"#utility.yul\":3852:3858   */\n      dup3\n        /* \"#utility.yul\":3841:3850   */\n      dup6\n        /* \"#utility.yul\":3837:3859   */\n      add\n        /* \"#utility.yul\":3818:3869   */\n      tag_89\n      jump\t// in\n    tag_150:\n        /* \"#utility.yul\":3808:3869   */\n      swap2\n      pop\n        /* \"#utility.yul\":3764:3879   */\n      pop\n        /* \"#utility.yul\":3561:3886   */\n      swap3\n      swap2\n      pop\n      pop\n      jump\t// out\n        /* \"#utility.yul\":3892:4061   */\n    tag_90:\n        /* \"#utility.yul\":3976:3987   */\n      0x00\n        /* \"#utility.yul\":4010:4016   */\n      dup3\n        /* \"#utility.yul\":4005:4008   */\n      dup3\n        /* \"#utility.yul\":3998:4017   */\n      mstore\n        /* \"#utility.yul\":4050:4054   */\n      0x20\n        /* \"#utility.yul\":4045:4048   */\n      dup3\n        /* \"#utility.yul\":4041:4055   */\n      add\n        /* \"#utility.yul\":4026:4055   */\n      swap1\n      pop\n        /* \"#utility.yul\":3892:4061   */\n      swap3\n      swap2\n      pop\n      pop\n      jump\t// out\n        /* \"#utility.yul\":4067:4302   */\n    tag_91:\n        /* \"#utility.yul\":4207:4241   */\n      0x4572726f72203a204f6e6c7920436861697220506572736f6e2063616e206361\n        /* \"#utility.yul\":4203:4204   */\n      0x00\n        /* \"#utility.yul\":4195:4201   */\n      dup3\n        /* \"#utility.yul\":4191:4205   */\n      add\n        /* \"#utility.yul\":4184:4242   */\n      mstore\n        /* \"#utility.yul\":4276:4294   */\n      0x6c6c20746869732066756e6374696f6e00000000000000000000000000000000\n        /* \"#utility.yul\":4271:4273   */\n      0x20\n        /* \"#utility.yul\":4263:4269   */\n      dup3\n        /* \"#utility.yul\":4259:4274   */\n      add\n        /* \"#utility.yul\":4252:4295   */\n      mstore\n        /* \"#utility.yul\":4067:4302   */\n      pop\n      jump\t// out\n        /* \"#utility.yul\":4308:4674   */\n    tag_92:\n        /* \"#utility.yul\":4450:4453   */\n      0x00\n        /* \"#utility.yul\":4471:4538   */\n      tag_154\n        /* \"#utility.yul\":4535:4537   */\n      0x30\n        /* \"#utility.yul\":4530:4533   */\n      dup4\n        /* \"#utility.yul\":4471:4538   */\n      tag_90\n      jump\t// in\n    tag_154:\n        /* \"#utility.yul\":4464:4538   */\n      swap2\n      pop\n        /* \"#utility.yul\":4547:4640   */\n      tag_155\n        /* \"#utility.yul\":4636:4639   */\n      dup3\n        /* \"#utility.yul\":4547:4640   */\n      tag_91\n      jump\t// in\n    tag_155:\n        /* \"#utility.yul\":4665:4667   */\n      0x40\n        /* \"#utility.yul\":4660:4663   */\n      dup3\n        /* \"#utility.yul\":4656:4668   */\n      add\n        /* \"#utility.yul\":4649:4668   */\n      swap1\n      pop\n        /* \"#utility.yul\":4308:4674   */\n      swap2\n      swap1\n      pop\n      jump\t// out\n        /* \"#utility.yul\":4680:5099   */\n    tag_36:\n        /* \"#utility.yul\":4846:4850   */\n      0x00\n        /* \"#utility.yul\":4884:4886   */\n      0x20\n        /* \"#utility.yul\":4873:4882   */\n      dup3\n        /* \"#utility.yul\":4869:4887   */\n      add\n        /* \"#utility.yul\":4861:4887   */\n      swap1\n      pop\n        /* \"#utility.yul\":4933:4942   */\n      dup2\n        /* \"#utility.yul\":4927:4931   */\n      dup2\n        /* \"#utility.yul\":4923:4943   */\n      sub\n        /* \"#utility.yul\":4919:4920   */\n      0x00\n        /* \"#utility.yul\":4908:4917   */\n      dup4\n        /* \"#utility.yul\":4904:4921   */\n      add\n        /* \"#utility.yul\":4897:4944   */\n      mstore\n        /* \"#utility.yul\":4961:5092   */\n      tag_157\n        /* \"#utility.yul\":5087:5091   */\n      dup2\n        /* \"#utility.yul\":4961:5092   */\n      tag_92\n      jump\t// in\n    tag_157:\n        /* \"#utility.yul\":4953:5092   */\n      swap1\n      pop\n        /* \"#utility.yul\":4680:5099   */\n      swap2\n      swap1\n      pop\n      jump\t// out\n        /* \"#utility.yul\":5105:5285   */\n    tag_49:\n        /* \"#utility.yul\":5153:5230   */\n      0x4e487b7100000000000000000000000000000000000000000000000000000000\n        /* \"#utility.yul\":5150:5151   */\n      0x00\n        /* \"#utility.yul\":5143:5231   */\n      mstore\n        /* \"#utility.yul\":5250:5254   */\n      0x32\n        /* \"#utility.yul\":5247:5248   */\n      0x04\n        /* \"#utility.yul\":5240:5255   */\n      mstore\n        /* \"#utility.yul\":5274:5278   */\n      0x24\n        /* \"#utility.yul\":5271:5272   */\n      0x00\n        /* \"#utility.yul\":5264:5279   */\n      revert\n        /* \"#utility.yul\":5291:5471   */\n    tag_93:\n        /* \"#utility.yul\":5339:5416   */\n      0x4e487b7100000000000000000000000000000000000000000000000000000000\n        /* \"#utility.yul\":5336:5337   */\n      0x00\n        /* \"#utility.yul\":5329:5417   */\n      mstore\n        /* \"#utility.yul\":5436:5440   */\n      0x11\n        /* \"#utility.yul\":5433:5434   */\n      0x04\n        /* \"#utility.yul\":5426:5441   */\n      mstore\n        /* \"#utility.yul\":5460:5464   */\n      0x24\n        /* \"#utility.yul\":5457:5458   */\n      0x00\n        /* \"#utility.yul\":5450:5465   */\n      revert\n        /* \"#utility.yul\":5477:5644   */\n    tag_56:\n        /* \"#utility.yul\":5514:5517   */\n      0x00\n        /* \"#utility.yul\":5537:5559   */\n      tag_161\n        /* \"#utility.yul\":5553:5558   */\n      dup3\n        /* \"#utility.yul\":5537:5559   */\n      tag_84\n      jump\t// in\n    tag_161:\n        /* \"#utility.yul\":5528:5559   */\n      swap2\n      pop\n        /* \"#utility.yul\":5581:5585   */\n      0xff\n        /* \"#utility.yul\":5574:5579   */\n      dup3\n        /* \"#utility.yul\":5571:5586   */\n      sub\n        /* \"#utility.yul\":5568:5609   */\n      tag_162\n      jumpi\n        /* \"#utility.yul\":5589:5607   */\n      tag_163\n      tag_93\n      jump\t// in\n    tag_163:\n        /* \"#utility.yul\":5568:5609   */\n    tag_162:\n        /* \"#utility.yul\":5636:5637   */\n      0x01\n        /* \"#utility.yul\":5629:5634   */\n      dup3\n        /* \"#utility.yul\":5625:5638   */\n      add\n        /* \"#utility.yul\":5618:5638   */\n      swap1\n      pop\n        /* \"#utility.yul\":5477:5644   */\n      swap2\n      swap1\n      pop\n      jump\t// out\n        /* \"#utility.yul\":5650:5884   */\n    tag_94:\n        /* \"#utility.yul\":5790:5824   */\n      0x4572726f72203a204f6e6c792076616c696420766f7465722063616e2063616c\n        /* \"#utility.yul\":5786:5787   */\n      0x00\n        /* \"#utility.yul\":5778:5784   */\n      dup3\n        /* \"#utility.yul\":5774:5788   */\n      add\n        /* \"#utility.yul\":5767:5825   */\n      mstore\n        /* \"#utility.yul\":5859:5876   */\n      0x6c20746869732066756e6374696f6e0000000000000000000000000000000000\n        /* \"#utility.yul\":5854:5856   */\n      0x20\n        /* \"#utility.yul\":5846:5852   */\n      dup3\n        /* \"#utility.yul\":5842:5857   */\n      add\n        /* \"#utility.yul\":5835:5877   */\n      mstore\n        /* \"#utility.yul\":5650:5884   */\n      pop\n      jump\t// out\n        /* \"#utility.yul\":5890:6256   */\n    tag_95:\n        /* \"#utility.yul\":6032:6035   */\n      0x00\n        /* \"#utility.yul\":6053:6120   */\n      tag_166\n        /* \"#utility.yul\":6117:6119   */\n      0x2f\n        /* \"#utility.yul\":6112:6115   */\n      dup4\n        /* \"#utility.yul\":6053:6120   */\n      tag_90\n      jump\t// in\n    tag_166:\n        /* \"#utility.yul\":6046:6120   */\n      swap2\n      pop\n        /* \"#utility.yul\":6129:6222   */\n      tag_167\n        /* \"#utility.yul\":6218:6221   */\n      dup3\n        /* \"#utility.yul\":6129:6222   */\n      tag_94\n      jump\t// in\n    tag_167:\n        /* \"#utility.yul\":6247:6249   */\n      0x40\n        /* \"#utility.yul\":6242:6245   */\n      dup3\n        /* \"#utility.yul\":6238:6250   */\n      add\n        /* \"#utility.yul\":6231:6250   */\n      swap1\n      pop\n        /* \"#utility.yul\":5890:6256   */\n      swap2\n      swap1\n      pop\n      jump\t// out\n        /* \"#utility.yul\":6262:6681   */\n    tag_60:\n        /* \"#utility.yul\":6428:6432   */\n      0x00\n        /* \"#utility.yul\":6466:6468   */\n      0x20\n        /* \"#utility.yul\":6455:6464   */\n      dup3\n        /* \"#utility.yul\":6451:6469   */\n      add\n        /* \"#utility.yul\":6443:6469   */\n      swap1\n      pop\n        /* \"#utility.yul\":6515:6524   */\n      dup2\n        /* \"#utility.yul\":6509:6513   */\n      dup2\n        /* \"#utility.yul\":6505:6525   */\n      sub\n        /* \"#utility.yul\":6501:6502   */\n      0x00\n        /* \"#utility.yul\":6490:6499   */\n      dup4\n        /* \"#utility.yul\":6486:6503   */\n      add\n        /* \"#utility.yul\":6479:6526   */\n      mstore\n        /* \"#utility.yul\":6543:6674   */\n      tag_169\n        /* \"#utility.yul\":6669:6673   */\n      dup2\n        /* \"#utility.yul\":6543:6674   */\n      tag_95\n      jump\t// in\n    tag_169:\n        /* \"#utility.yul\":6535:6674   */\n      swap1\n      pop\n        /* \"#utility.yul\":6262:6681   */\n      swap2\n      swap1\n      pop\n      jump\t// out\n        /* \"#utility.yul\":6687:6909   */\n    tag_96:\n        /* \"#utility.yul\":6827:6861   */\n      0x4572726f72203a20596f752068617665206265656e20616c726561647920766f\n        /* \"#utility.yul\":6823:6824   */\n      0x00\n        /* \"#utility.yul\":6815:6821   */\n      dup3\n        /* \"#utility.yul\":6811:6825   */\n      add\n        /* \"#utility.yul\":6804:6862   */\n      mstore\n        /* \"#utility.yul\":6896:6901   */\n      0x7465640000000000000000000000000000000000000000000000000000000000\n        /* \"#utility.yul\":6891:6893   */\n      0x20\n        /* \"#utility.yul\":6883:6889   */\n      dup3\n        /* \"#utility.yul\":6879:6894   */\n      add\n        /* \"#utility.yul\":6872:6902   */\n      mstore\n        /* \"#utility.yul\":6687:6909   */\n      pop\n      jump\t// out\n        /* \"#utility.yul\":6915:7281   */\n    tag_97:\n        /* \"#utility.yul\":7057:7060   */\n      0x00\n        /* \"#utility.yul\":7078:7145   */\n      tag_172\n        /* \"#utility.yul\":7142:7144   */\n      0x23\n        /* \"#utility.yul\":7137:7140   */\n      dup4\n        /* \"#utility.yul\":7078:7145   */\n      tag_90\n      jump\t// in\n    tag_172:\n        /* \"#utility.yul\":7071:7145   */\n      swap2\n      pop\n        /* \"#utility.yul\":7154:7247   */\n      tag_173\n        /* \"#utility.yul\":7243:7246   */\n      dup3\n        /* \"#utility.yul\":7154:7247   */\n      tag_96\n      jump\t// in\n    tag_173:\n        /* \"#utility.yul\":7272:7274   */\n      0x40\n        /* \"#utility.yul\":7267:7270   */\n      dup3\n        /* \"#utility.yul\":7263:7275   */\n      add\n        /* \"#utility.yul\":7256:7275   */\n      swap1\n      pop\n        /* \"#utility.yul\":6915:7281   */\n      swap2\n      swap1\n      pop\n      jump\t// out\n        /* \"#utility.yul\":7287:7706   */\n    tag_64:\n        /* \"#utility.yul\":7453:7457   */\n      0x00\n        /* \"#utility.yul\":7491:7493   */\n      0x20\n        /* \"#utility.yul\":7480:7489   */\n      dup3\n        /* \"#utility.yul\":7476:7494   */\n      add\n        /* \"#utility.yul\":7468:7494   */\n      swap1\n      pop\n        /* \"#utility.yul\":7540:7549   */\n      dup2\n        /* \"#utility.yul\":7534:7538   */\n      dup2\n        /* \"#utility.yul\":7530:7550   */\n      sub\n        /* \"#utility.yul\":7526:7527   */\n      0x00\n        /* \"#utility.yul\":7515:7524   */\n      dup4\n        /* \"#utility.yul\":7511:7528   */\n      add\n        /* \"#utility.yul\":7504:7551   */\n      mstore\n        /* \"#utility.yul\":7568:7699   */\n      tag_175\n        /* \"#utility.yul\":7694:7698   */\n      dup2\n        /* \"#utility.yul\":7568:7699   */\n      tag_97\n      jump\t// in\n    tag_175:\n        /* \"#utility.yul\":7560:7699   */\n      swap1\n      pop\n        /* \"#utility.yul\":7287:7706   */\n      swap2\n      swap1\n      pop\n      jump\t// out\n        /* \"#utility.yul\":7712:7884   */\n    tag_98:\n        /* \"#utility.yul\":7852:7876   */\n      0x4572726f72203a20496e76616c6964206e756d62657200000000000000000000\n        /* \"#utility.yul\":7848:7849   */\n      0x00\n        /* \"#utility.yul\":7840:7846   */\n      dup3\n        /* \"#utility.yul\":7836:7850   */\n      add\n        /* \"#utility.yul\":7829:7877   */\n      mstore\n        /* \"#utility.yul\":7712:7884   */\n      pop\n      jump\t// out\n        /* \"#utility.yul\":7890:8256   */\n    tag_99:\n        /* \"#utility.yul\":8032:8035   */\n      0x00\n        /* \"#utility.yul\":8053:8120   */\n      tag_178\n        /* \"#utility.yul\":8117:8119   */\n      0x16\n        /* \"#utility.yul\":8112:8115   */\n      dup4\n        /* \"#utility.yul\":8053:8120   */\n      tag_90\n      jump\t// in\n    tag_178:\n        /* \"#utility.yul\":8046:8120   */\n      swap2\n      pop\n        /* \"#utility.yul\":8129:8222   */\n      tag_179\n        /* \"#utility.yul\":8218:8221   */\n      dup3\n        /* \"#utility.yul\":8129:8222   */\n      tag_98\n      jump\t// in\n    tag_179:\n        /* \"#utility.yul\":8247:8249   */\n      0x20\n        /* \"#utility.yul\":8242:8245   */\n      dup3\n        /* \"#utility.yul\":8238:8250   */\n      add\n        /* \"#utility.yul\":8231:8250   */\n      swap1\n      pop\n        /* \"#utility.yul\":7890:8256   */\n      swap2\n      swap1\n      pop\n      jump\t// out\n        /* \"#utility.yul\":8262:8681   */\n    tag_67:\n        /* \"#utility.yul\":8428:8432   */\n      0x00\n        /* \"#utility.yul\":8466:8468   */\n      0x20\n        /* \"#utility.yul\":8455:8464   */\n      dup3\n        /* \"#utility.yul\":8451:8469   */\n      add\n        /* \"#utility.yul\":8443:8469   */\n      swap1\n      pop\n        /* \"#utility.yul\":8515:8524   */\n      dup2\n        /* \"#utility.yul\":8509:8513   */\n      dup2\n        /* \"#utility.yul\":8505:8525   */\n      sub\n        /* \"#utility.yul\":8501:8502   */\n      0x00\n        /* \"#utility.yul\":8490:8499   */\n      dup4\n        /* \"#utility.yul\":8486:8503   */\n      add\n        /* \"#utility.yul\":8479:8526   */\n      mstore\n        /* \"#utility.yul\":8543:8674   */\n      tag_181\n        /* \"#utility.yul\":8669:8673   */\n      dup2\n        /* \"#utility.yul\":8543:8674   */\n      tag_99\n      jump\t// in\n    tag_181:\n        /* \"#utility.yul\":8535:8674   */\n      swap1\n      pop\n        /* \"#utility.yul\":8262:8681   */\n      swap2\n      swap1\n      pop\n      jump\t// out\n        /* \"#utility.yul\":8687:8878   */\n    tag_72:\n        /* \"#utility.yul\":8727:8730   */\n      0x00\n        /* \"#utility.yul\":8746:8766   */\n      tag_183\n        /* \"#utility.yul\":8764:8765   */\n      dup3\n        /* \"#utility.yul\":8746:8766   */\n      tag_76\n      jump\t// in\n    tag_183:\n        /* \"#utility.yul\":8741:8766   */\n      swap2\n      pop\n        /* \"#utility.yul\":8780:8800   */\n      tag_184\n        /* \"#utility.yul\":8798:8799   */\n      dup4\n        /* \"#utility.yul\":8780:8800   */\n      tag_76\n      jump\t// in\n    tag_184:\n        /* \"#utility.yul\":8775:8800   */\n      swap3\n      pop\n        /* \"#utility.yul\":8823:8824   */\n      dup3\n        /* \"#utility.yul\":8820:8821   */\n      dup3\n        /* \"#utility.yul\":8816:8825   */\n      add\n        /* \"#utility.yul\":8809:8825   */\n      swap1\n      pop\n        /* \"#utility.yul\":8844:8847   */\n      dup1\n        /* \"#utility.yul\":8841:8842   */\n      dup3\n        /* \"#utility.yul\":8838:8848   */\n      gt\n        /* \"#utility.yul\":8835:8871   */\n      iszero\n      tag_185\n      jumpi\n        /* \"#utility.yul\":8851:8869   */\n      tag_186\n      tag_93\n      jump\t// in\n    tag_186:\n        /* \"#utility.yul\":8835:8871   */\n    tag_185:\n        /* \"#utility.yul\":8687:8878   */\n      swap3\n      swap2\n      pop\n      pop\n      jump\t// out\n\n    auxdata: 0xa26469706673582212209cf96e0978d6d39ab35657a8bdcc5e577de71f687d66aff9cd7404701ed77b7764736f6c63430008120033\n}\n",
				"bytecode": {
					"linkReferences": {},
					"object": "60806040523480156200001157600080fd5b5060405162000e2438038062000e24833981810160405281019062000037919062000127565b336000806101000a81548173ffffffffffffffffffffffffffffffffffffffff021916908373ffffffffffffffffffffffffffffffffffffffff16021790555060005b818160ff161015620000df57600260405180602001604052806000815250908060018154018082558091505060019003906000526020600020016000909190919091506000820151816000015550508080620000d69062000195565b9150506200007a565b5050620001c3565b600080fd5b6000819050919050565b6200010181620000ec565b81146200010d57600080fd5b50565b6000815190506200012181620000f6565b92915050565b60006020828403121562000140576200013f620000e7565b5b6000620001508482850162000110565b91505092915050565b7f4e487b7100000000000000000000000000000000000000000000000000000000600052601160045260246000fd5b600060ff82169050919050565b6000620001a28262000188565b915060ff8203620001b857620001b762000159565b5b600182019050919050565b610c5180620001d36000396000f3fe608060405234801561001057600080fd5b50600436106100575760003560e01c8063013cf08b1461005c5780634420e4861461008c578063508b30c9146100a8578063a3ec138d146100c6578063b3f98adc146100f8575b600080fd5b61007660048036038101906100719190610769565b610114565b60405161008391906107a5565b60405180910390f35b6100a660048036038101906100a1919061081e565b61013e565b005b6100b061035a565b6040516100bd9190610867565b60405180910390f35b6100e060048036038101906100db919061081e565b61046e565b6040516100ef9392919061089d565b60405180910390f35b610112600480360381019061010d9190610900565b6104a5565b005b6002818154811061012457600080fd5b906000526020600020016000915090508060000154905081565b60008054906101000a900473ffffffffffffffffffffffffffffffffffffffff1673ffffffffffffffffffffffffffffffffffffffff163373ffffffffffffffffffffffffffffffffffffffff16146101cc576040517f08c379a00000000000000000000000000000000000000000000000000000000081526004016101c3906109b0565b60405180910390fd5b60008054906101000a900473ffffffffffffffffffffffffffffffffffffffff1673ffffffffffffffffffffffffffffffffffffffff168173ffffffffffffffffffffffffffffffffffffffff160361026c576002600160008373ffffffffffffffffffffffffffffffffffffffff1673ffffffffffffffffffffffffffffffffffffffff168152602001908152602001600020600001819055506102b4565b60018060008373ffffffffffffffffffffffffffffffffffffffff1673ffffffffffffffffffffffffffffffffffffffff168152602001908152602001600020600001819055505b6000600160008373ffffffffffffffffffffffffffffffffffffffff1673ffffffffffffffffffffffffffffffffffffffff16815260200190815260200160002060010160006101000a81548160ff0219169083151502179055506000600160008373ffffffffffffffffffffffffffffffffffffffff1673ffffffffffffffffffffffffffffffffffffffff1681526020019081526020016000206002018190555050565b60008060009054906101000a900473ffffffffffffffffffffffffffffffffffffffff1673ffffffffffffffffffffffffffffffffffffffff163373ffffffffffffffffffffffffffffffffffffffff16146103eb576040517f08c379a00000000000000000000000000000000000000000000000000000000081526004016103e2906109b0565b60405180910390fd5b6000805b6002805490508160ff1610156104665760028160ff1681548110610416576104156109d0565b5b906000526020600020016000015460028360ff168154811061043b5761043a6109d0565b5b90600052602060002001600001541015610453578091505b808061045e90610a2e565b9150506103ef565b508091505090565b60016020528060005260406000206000915090508060000154908060010160009054906101000a900460ff16908060020154905083565b6000600160003373ffffffffffffffffffffffffffffffffffffffff1673ffffffffffffffffffffffffffffffffffffffff168152602001908152602001600020600001541161052a576040517f08c379a000000000000000000000000000000000000000000000000000000000815260040161052190610ac9565b60405180910390fd5b60001515600160003373ffffffffffffffffffffffffffffffffffffffff1673ffffffffffffffffffffffffffffffffffffffff16815260200190815260200160002060010160009054906101000a900460ff161515146105c0576040517f08c379a00000000000000000000000000000000000000000000000000000000081526004016105b790610b5b565b60405180910390fd5b6002805490508160ff161061060a576040517f08c379a000000000000000000000000000000000000000000000000000000000815260040161060190610bc7565b60405180910390fd5b600160003373ffffffffffffffffffffffffffffffffffffffff1673ffffffffffffffffffffffffffffffffffffffff1681526020019081526020016000206000015460028260ff1681548110610664576106636109d0565b5b9060005260206000200160000160008282546106809190610be7565b9250508190555060018060003373ffffffffffffffffffffffffffffffffffffffff1673ffffffffffffffffffffffffffffffffffffffff16815260200190815260200160002060010160006101000a81548160ff0219169083151502179055508060ff16600160003373ffffffffffffffffffffffffffffffffffffffff1673ffffffffffffffffffffffffffffffffffffffff1681526020019081526020016000206002018190555050565b600080fd5b6000819050919050565b61074681610733565b811461075157600080fd5b50565b6000813590506107638161073d565b92915050565b60006020828403121561077f5761077e61072e565b5b600061078d84828501610754565b91505092915050565b61079f81610733565b82525050565b60006020820190506107ba6000830184610796565b92915050565b600073ffffffffffffffffffffffffffffffffffffffff82169050919050565b60006107eb826107c0565b9050919050565b6107fb816107e0565b811461080657600080fd5b50565b600081359050610818816107f2565b92915050565b6000602082840312156108345761083361072e565b5b600061084284828501610809565b91505092915050565b600060ff82169050919050565b6108618161084b565b82525050565b600060208201905061087c6000830184610858565b92915050565b60008115159050919050565b61089781610882565b82525050565b60006060820190506108b26000830186610796565b6108bf602083018561088e565b6108cc6040830184610796565b949350505050565b6108dd8161084b565b81146108e857600080fd5b50565b6000813590506108fa816108d4565b92915050565b6000602082840312156109165761091561072e565b5b6000610924848285016108eb565b91505092915050565b600082825260208201905092915050565b7f4572726f72203a204f6e6c7920436861697220506572736f6e2063616e20636160008201527f6c6c20746869732066756e6374696f6e00000000000000000000000000000000602082015250565b600061099a60308361092d565b91506109a58261093e565b604082019050919050565b600060208201905081810360008301526109c98161098d565b9050919050565b7f4e487b7100000000000000000000000000000000000000000000000000000000600052603260045260246000fd5b7f4e487b7100000000000000000000000000000000000000000000000000000000600052601160045260246000fd5b6000610a398261084b565b915060ff8203610a4c57610a4b6109ff565b5b600182019050919050565b7f4572726f72203a204f6e6c792076616c696420766f7465722063616e2063616c60008201527f6c20746869732066756e6374696f6e0000000000000000000000000000000000602082015250565b6000610ab3602f8361092d565b9150610abe82610a57565b604082019050919050565b60006020820190508181036000830152610ae281610aa6565b9050919050565b7f4572726f72203a20596f752068617665206265656e20616c726561647920766f60008201527f7465640000000000000000000000000000000000000000000000000000000000602082015250565b6000610b4560238361092d565b9150610b5082610ae9565b604082019050919050565b60006020820190508181036000830152610b7481610b38565b9050919050565b7f4572726f72203a20496e76616c6964206e756d62657200000000000000000000600082015250565b6000610bb160168361092d565b9150610bbc82610b7b565b602082019050919050565b60006020820190508181036000830152610be081610ba4565b9050919050565b6000610bf282610733565b9150610bfd83610733565b9250828201905080821115610c1557610c146109ff565b5b9291505056fea26469706673582212209cf96e0978d6d39ab35657a8bdcc5e577de71f687d66aff9cd7404701ed77b7764736f6c63430008120033",
					"opcodes": "PUSH1 0x80 PUSH1 0x40 MSTORE CALLVALUE DUP1 ISZERO PUSH3 0x11 JUMPI PUSH1 0x0 DUP1 REVERT JUMPDEST POP PUSH1 0x40 MLOAD PUSH3 0xE24 CODESIZE SUB DUP1 PUSH3 0xE24 DUP4 CODECOPY DUP2 DUP2 ADD PUSH1 0x40 MSTORE DUP2 ADD SWAP1 PUSH3 0x37 SWAP2 SWAP1 PUSH3 0x127 JUMP JUMPDEST CALLER PUSH1 0x0 DUP1 PUSH2 0x100 EXP DUP2 SLOAD DUP2 PUSH20 0xFFFFFFFFFFFFFFFFFFFFFFFFFFFFFFFFFFFFFFFF MUL NOT AND SWAP1 DUP4 PUSH20 0xFFFFFFFFFFFFFFFFFFFFFFFFFFFFFFFFFFFFFFFF AND MUL OR SWAP1 SSTORE POP PUSH1 0x0 JUMPDEST DUP2 DUP2 PUSH1 0xFF AND LT ISZERO PUSH3 0xDF JUMPI PUSH1 0x2 PUSH1 0x40 MLOAD DUP1 PUSH1 0x20 ADD PUSH1 0x40 MSTORE DUP1 PUSH1 0x0 DUP2 MSTORE POP SWAP1 DUP1 PUSH1 0x1 DUP2 SLOAD ADD DUP1 DUP3 SSTORE DUP1 SWAP2 POP POP PUSH1 0x1 SWAP1 SUB SWAP1 PUSH1 0x0 MSTORE PUSH1 0x20 PUSH1 0x0 KECCAK256 ADD PUSH1 0x0 SWAP1 SWAP2 SWAP1 SWAP2 SWAP1 SWAP2 POP PUSH1 0x0 DUP3 ADD MLOAD DUP2 PUSH1 0x0 ADD SSTORE POP POP DUP1 DUP1 PUSH3 0xD6 SWAP1 PUSH3 0x195 JUMP JUMPDEST SWAP2 POP POP PUSH3 0x7A JUMP JUMPDEST POP POP PUSH3 0x1C3 JUMP JUMPDEST PUSH1 0x0 DUP1 REVERT JUMPDEST PUSH1 0x0 DUP2 SWAP1 POP SWAP2 SWAP1 POP JUMP JUMPDEST PUSH3 0x101 DUP2 PUSH3 0xEC JUMP JUMPDEST DUP2 EQ PUSH3 0x10D JUMPI PUSH1 0x0 DUP1 REVERT JUMPDEST POP JUMP JUMPDEST PUSH1 0x0 DUP2 MLOAD SWAP1 POP PUSH3 0x121 DUP2 PUSH3 0xF6 JUMP JUMPDEST SWAP3 SWAP2 POP POP JUMP JUMPDEST PUSH1 0x0 PUSH1 0x20 DUP3 DUP5 SUB SLT ISZERO PUSH3 0x140 JUMPI PUSH3 0x13F PUSH3 0xE7 JUMP JUMPDEST JUMPDEST PUSH1 0x0 PUSH3 0x150 DUP5 DUP3 DUP6 ADD PUSH3 0x110 JUMP JUMPDEST SWAP2 POP POP SWAP3 SWAP2 POP POP JUMP JUMPDEST PUSH32 0x4E487B7100000000000000000000000000000000000000000000000000000000 PUSH1 0x0 MSTORE PUSH1 0x11 PUSH1 0x4 MSTORE PUSH1 0x24 PUSH1 0x0 REVERT JUMPDEST PUSH1 0x0 PUSH1 0xFF DUP3 AND SWAP1 POP SWAP2 SWAP1 POP JUMP JUMPDEST PUSH1 0x0 PUSH3 0x1A2 DUP3 PUSH3 0x188 JUMP JUMPDEST SWAP2 POP PUSH1 0xFF DUP3 SUB PUSH3 0x1B8 JUMPI PUSH3 0x1B7 PUSH3 0x159 JUMP JUMPDEST JUMPDEST PUSH1 0x1 DUP3 ADD SWAP1 POP SWAP2 SWAP1 POP JUMP JUMPDEST PUSH2 0xC51 DUP1 PUSH3 0x1D3 PUSH1 0x0 CODECOPY PUSH1 0x0 RETURN INVALID PUSH1 0x80 PUSH1 0x40 MSTORE CALLVALUE DUP1 ISZERO PUSH2 0x10 JUMPI PUSH1 0x0 DUP1 REVERT JUMPDEST POP PUSH1 0x4 CALLDATASIZE LT PUSH2 0x57 JUMPI PUSH1 0x0 CALLDATALOAD PUSH1 0xE0 SHR DUP1 PUSH4 0x13CF08B EQ PUSH2 0x5C JUMPI DUP1 PUSH4 0x4420E486 EQ PUSH2 0x8C JUMPI DUP1 PUSH4 0x508B30C9 EQ PUSH2 0xA8 JUMPI DUP1 PUSH4 0xA3EC138D EQ PUSH2 0xC6 JUMPI DUP1 PUSH4 0xB3F98ADC EQ PUSH2 0xF8 JUMPI JUMPDEST PUSH1 0x0 DUP1 REVERT JUMPDEST PUSH2 0x76 PUSH1 0x4 DUP1 CALLDATASIZE SUB DUP2 ADD SWAP1 PUSH2 0x71 SWAP2 SWAP1 PUSH2 0x769 JUMP JUMPDEST PUSH2 0x114 JUMP JUMPDEST PUSH1 0x40 MLOAD PUSH2 0x83 SWAP2 SWAP1 PUSH2 0x7A5 JUMP JUMPDEST PUSH1 0x40 MLOAD DUP1 SWAP2 SUB SWAP1 RETURN JUMPDEST PUSH2 0xA6 PUSH1 0x4 DUP1 CALLDATASIZE SUB DUP2 ADD SWAP1 PUSH2 0xA1 SWAP2 SWAP1 PUSH2 0x81E JUMP JUMPDEST PUSH2 0x13E JUMP JUMPDEST STOP JUMPDEST PUSH2 0xB0 PUSH2 0x35A JUMP JUMPDEST PUSH1 0x40 MLOAD PUSH2 0xBD SWAP2 SWAP1 PUSH2 0x867 JUMP JUMPDEST PUSH1 0x40 MLOAD DUP1 SWAP2 SUB SWAP1 RETURN JUMPDEST PUSH2 0xE0 PUSH1 0x4 DUP1 CALLDATASIZE SUB DUP2 ADD SWAP1 PUSH2 0xDB SWAP2 SWAP1 PUSH2 0x81E JUMP JUMPDEST PUSH2 0x46E JUMP JUMPDEST PUSH1 0x40 MLOAD PUSH2 0xEF SWAP4 SWAP3 SWAP2 SWAP1 PUSH2 0x89D JUMP JUMPDEST PUSH1 0x40 MLOAD DUP1 SWAP2 SUB SWAP1 RETURN JUMPDEST PUSH2 0x112 PUSH1 0x4 DUP1 CALLDATASIZE SUB DUP2 ADD SWAP1 PUSH2 0x10D SWAP2 SWAP1 PUSH2 0x900 JUMP JUMPDEST PUSH2 0x4A5 JUMP JUMPDEST STOP JUMPDEST PUSH1 0x2 DUP2 DUP2 SLOAD DUP2 LT PUSH2 0x124 JUMPI PUSH1 0x0 DUP1 REVERT JUMPDEST SWAP1 PUSH1 0x0 MSTORE PUSH1 0x20 PUSH1 0x0 KECCAK256 ADD PUSH1 0x0 SWAP2 POP SWAP1 POP DUP1 PUSH1 0x0 ADD SLOAD SWAP1 POP DUP2 JUMP JUMPDEST PUSH1 0x0 DUP1 SLOAD SWAP1 PUSH2 0x100 EXP SWAP1 DIV PUSH20 0xFFFFFFFFFFFFFFFFFFFFFFFFFFFFFFFFFFFFFFFF AND PUSH20 0xFFFFFFFFFFFFFFFFFFFFFFFFFFFFFFFFFFFFFFFF AND CALLER PUSH20 0xFFFFFFFFFFFFFFFFFFFFFFFFFFFFFFFFFFFFFFFF AND EQ PUSH2 0x1CC JUMPI PUSH1 0x40 MLOAD PUSH32 0x8C379A000000000000000000000000000000000000000000000000000000000 DUP2 MSTORE PUSH1 0x4 ADD PUSH2 0x1C3 SWAP1 PUSH2 0x9B0 JUMP JUMPDEST PUSH1 0x40 MLOAD DUP1 SWAP2 SUB SWAP1 REVERT JUMPDEST PUSH1 0x0 DUP1 SLOAD SWAP1 PUSH2 0x100 EXP SWAP1 DIV PUSH20 0xFFFFFFFFFFFFFFFFFFFFFFFFFFFFFFFFFFFFFFFF AND PUSH20 0xFFFFFFFFFFFFFFFFFFFFFFFFFFFFFFFFFFFFFFFF AND DUP2 PUSH20 0xFFFFFFFFFFFFFFFFFFFFFFFFFFFFFFFFFFFFFFFF AND SUB PUSH2 0x26C JUMPI PUSH1 0x2 PUSH1 0x1 PUSH1 0x0 DUP4 PUSH20 0xFFFFFFFFFFFFFFFFFFFFFFFFFFFFFFFFFFFFFFFF AND PUSH20 0xFFFFFFFFFFFFFFFFFFFFFFFFFFFFFFFFFFFFFFFF AND DUP2 MSTORE PUSH1 0x20 ADD SWAP1 DUP2 MSTORE PUSH1 0x20 ADD PUSH1 0x0 KECCAK256 PUSH1 0x0 ADD DUP2 SWAP1 SSTORE POP PUSH2 0x2B4 JUMP JUMPDEST PUSH1 0x1 DUP1 PUSH1 0x0 DUP4 PUSH20 0xFFFFFFFFFFFFFFFFFFFFFFFFFFFFFFFFFFFFFFFF AND PUSH20 0xFFFFFFFFFFFFFFFFFFFFFFFFFFFFFFFFFFFFFFFF AND DUP2 MSTORE PUSH1 0x20 ADD SWAP1 DUP2 MSTORE PUSH1 0x20 ADD PUSH1 0x0 KECCAK256 PUSH1 0x0 ADD DUP2 SWAP1 SSTORE POP JUMPDEST PUSH1 0x0 PUSH1 0x1 PUSH1 0x0 DUP4 PUSH20 0xFFFFFFFFFFFFFFFFFFFFFFFFFFFFFFFFFFFFFFFF AND PUSH20 0xFFFFFFFFFFFFFFFFFFFFFFFFFFFFFFFFFFFFFFFF AND DUP2 MSTORE PUSH1 0x20 ADD SWAP1 DUP2 MSTORE PUSH1 0x20 ADD PUSH1 0x0 KECCAK256 PUSH1 0x1 ADD PUSH1 0x0 PUSH2 0x100 EXP DUP2 SLOAD DUP2 PUSH1 0xFF MUL NOT AND SWAP1 DUP4 ISZERO ISZERO MUL OR SWAP1 SSTORE POP PUSH1 0x0 PUSH1 0x1 PUSH1 0x0 DUP4 PUSH20 0xFFFFFFFFFFFFFFFFFFFFFFFFFFFFFFFFFFFFFFFF AND PUSH20 0xFFFFFFFFFFFFFFFFFFFFFFFFFFFFFFFFFFFFFFFF AND DUP2 MSTORE PUSH1 0x20 ADD SWAP1 DUP2 MSTORE PUSH1 0x20 ADD PUSH1 0x0 KECCAK256 PUSH1 0x2 ADD DUP2 SWAP1 SSTORE POP POP JUMP JUMPDEST PUSH1 0x0 DUP1 PUSH1 0x0 SWAP1 SLOAD SWAP1 PUSH2 0x100 EXP SWAP1 DIV PUSH20 0xFFFFFFFFFFFFFFFFFFFFFFFFFFFFFFFFFFFFFFFF AND PUSH20 0xFFFFFFFFFFFFFFFFFFFFFFFFFFFFFFFFFFFFFFFF AND CALLER PUSH20 0xFFFFFFFFFFFFFFFFFFFFFFFFFFFFFFFFFFFFFFFF AND EQ PUSH2 0x3EB JUMPI PUSH1 0x40 MLOAD PUSH32 0x8C379A000000000000000000000000000000000000000000000000000000000 DUP2 MSTORE PUSH1 0x4 ADD PUSH2 0x3E2 SWAP1 PUSH2 0x9B0 JUMP JUMPDEST PUSH1 0x40 MLOAD DUP1 SWAP2 SUB SWAP1 REVERT JUMPDEST PUSH1 0x0 DUP1 JUMPDEST PUSH1 0x2 DUP1 SLOAD SWAP1 POP DUP2 PUSH1 0xFF AND LT ISZERO PUSH2 0x466 JUMPI PUSH1 0x2 DUP2 PUSH1 0xFF AND DUP2 SLOAD DUP2 LT PUSH2 0x416 JUMPI PUSH2 0x415 PUSH2 0x9D0 JUMP JUMPDEST JUMPDEST SWAP1 PUSH1 0x0 MSTORE PUSH1 0x20 PUSH1 0x0 KECCAK256 ADD PUSH1 0x0 ADD SLOAD PUSH1 0x2 DUP4 PUSH1 0xFF AND DUP2 SLOAD DUP2 LT PUSH2 0x43B JUMPI PUSH2 0x43A PUSH2 0x9D0 JUMP JUMPDEST JUMPDEST SWAP1 PUSH1 0x0 MSTORE PUSH1 0x20 PUSH1 0x0 KECCAK256 ADD PUSH1 0x0 ADD SLOAD LT ISZERO PUSH2 0x453 JUMPI DUP1 SWAP2 POP JUMPDEST DUP1 DUP1 PUSH2 0x45E SWAP1 PUSH2 0xA2E JUMP JUMPDEST SWAP2 POP POP PUSH2 0x3EF JUMP JUMPDEST POP DUP1 SWAP2 POP POP SWAP1 JUMP JUMPDEST PUSH1 0x1 PUSH1 0x20 MSTORE DUP1 PUSH1 0x0 MSTORE PUSH1 0x40 PUSH1 0x0 KECCAK256 PUSH1 0x0 SWAP2 POP SWAP1 POP DUP1 PUSH1 0x0 ADD SLOAD SWAP1 DUP1 PUSH1 0x1 ADD PUSH1 0x0 SWAP1 SLOAD SWAP1 PUSH2 0x100 EXP SWAP1 DIV PUSH1 0xFF AND SWAP1 DUP1 PUSH1 0x2 ADD SLOAD SWAP1 POP DUP4 JUMP JUMPDEST PUSH1 0x0 PUSH1 0x1 PUSH1 0x0 CALLER PUSH20 0xFFFFFFFFFFFFFFFFFFFFFFFFFFFFFFFFFFFFFFFF AND PUSH20 0xFFFFFFFFFFFFFFFFFFFFFFFFFFFFFFFFFFFFFFFF AND DUP2 MSTORE PUSH1 0x20 ADD SWAP1 DUP2 MSTORE PUSH1 0x20 ADD PUSH1 0x0 KECCAK256 PUSH1 0x0 ADD SLOAD GT PUSH2 0x52A JUMPI PUSH1 0x40 MLOAD PUSH32 0x8C379A000000000000000000000000000000000000000000000000000000000 DUP2 MSTORE PUSH1 0x4 ADD PUSH2 0x521 SWAP1 PUSH2 0xAC9 JUMP JUMPDEST PUSH1 0x40 MLOAD DUP1 SWAP2 SUB SWAP1 REVERT JUMPDEST PUSH1 0x0 ISZERO ISZERO PUSH1 0x1 PUSH1 0x0 CALLER PUSH20 0xFFFFFFFFFFFFFFFFFFFFFFFFFFFFFFFFFFFFFFFF AND PUSH20 0xFFFFFFFFFFFFFFFFFFFFFFFFFFFFFFFFFFFFFFFF AND DUP2 MSTORE PUSH1 0x20 ADD SWAP1 DUP2 MSTORE PUSH1 0x20 ADD PUSH1 0x0 KECCAK256 PUSH1 0x1 ADD PUSH1 0x0 SWAP1 SLOAD SWAP1 PUSH2 0x100 EXP SWAP1 DIV PUSH1 0xFF AND ISZERO ISZERO EQ PUSH2 0x5C0 JUMPI PUSH1 0x40 MLOAD PUSH32 0x8C379A000000000000000000000000000000000000000000000000000000000 DUP2 MSTORE PUSH1 0x4 ADD PUSH2 0x5B7 SWAP1 PUSH2 0xB5B JUMP JUMPDEST PUSH1 0x40 MLOAD DUP1 SWAP2 SUB SWAP1 REVERT JUMPDEST PUSH1 0x2 DUP1 SLOAD SWAP1 POP DUP2 PUSH1 0xFF AND LT PUSH2 0x60A JUMPI PUSH1 0x40 MLOAD PUSH32 0x8C379A000000000000000000000000000000000000000000000000000000000 DUP2 MSTORE PUSH1 0x4 ADD PUSH2 0x601 SWAP1 PUSH2 0xBC7 JUMP JUMPDEST PUSH1 0x40 MLOAD DUP1 SWAP2 SUB SWAP1 REVERT JUMPDEST PUSH1 0x1 PUSH1 0x0 CALLER PUSH20 0xFFFFFFFFFFFFFFFFFFFFFFFFFFFFFFFFFFFFFFFF AND PUSH20 0xFFFFFFFFFFFFFFFFFFFFFFFFFFFFFFFFFFFFFFFF AND DUP2 MSTORE PUSH1 0x20 ADD SWAP1 DUP2 MSTORE PUSH1 0x20 ADD PUSH1 0x0 KECCAK256 PUSH1 0x0 ADD SLOAD PUSH1 0x2 DUP3 PUSH1 0xFF AND DUP2 SLOAD DUP2 LT PUSH2 0x664 JUMPI PUSH2 0x663 PUSH2 0x9D0 JUMP JUMPDEST JUMPDEST SWAP1 PUSH1 0x0 MSTORE PUSH1 0x20 PUSH1 0x0 KECCAK256 ADD PUSH1 0x0 ADD PUSH1 0x0 DUP3 DUP3 SLOAD PUSH2 0x680 SWAP2 SWAP1 PUSH2 0xBE7 JUMP JUMPDEST SWAP3 POP POP DUP2 SWAP1 SSTORE POP PUSH1 0x1 DUP1 PUSH1 0x0 CALLER PUSH20 0xFFFFFFFFFFFFFFFFFFFFFFFFFFFFFFFFFFFFFFFF AND PUSH20 0xFFFFFFFFFFFFFFFFFFFFFFFFFFFFFFFFFFFFFFFF AND DUP2 MSTORE PUSH1 0x20 ADD SWAP1 DUP2 MSTORE PUSH1 0x20 ADD PUSH1 0x0 KECCAK256 PUSH1 0x1 ADD PUSH1 0x0 PUSH2 0x100 EXP DUP2 SLOAD DUP2 PUSH1 0xFF MUL NOT AND SWAP1 DUP4 ISZERO ISZERO MUL OR SWAP1 SSTORE POP DUP1 PUSH1 0xFF AND PUSH1 0x1 PUSH1 0x0 CALLER PUSH20 0xFFFFFFFFFFFFFFFFFFFFFFFFFFFFFFFFFFFFFFFF AND PUSH20 0xFFFFFFFFFFFFFFFFFFFFFFFFFFFFFFFFFFFFFFFF AND DUP2 MSTORE PUSH1 0x20 ADD SWAP1 DUP2 MSTORE PUSH1 0x20 ADD PUSH1 0x0 KECCAK256 PUSH1 0x2 ADD DUP2 SWAP1 SSTORE POP POP JUMP JUMPDEST PUSH1 0x0 DUP1 REVERT JUMPDEST PUSH1 0x0 DUP2 SWAP1 POP SWAP2 SWAP1 POP JUMP JUMPDEST PUSH2 0x746 DUP2 PUSH2 0x733 JUMP JUMPDEST DUP2 EQ PUSH2 0x751 JUMPI PUSH1 0x0 DUP1 REVERT JUMPDEST POP JUMP JUMPDEST PUSH1 0x0 DUP2 CALLDATALOAD SWAP1 POP PUSH2 0x763 DUP2 PUSH2 0x73D JUMP JUMPDEST SWAP3 SWAP2 POP POP JUMP JUMPDEST PUSH1 0x0 PUSH1 0x20 DUP3 DUP5 SUB SLT ISZERO PUSH2 0x77F JUMPI PUSH2 0x77E PUSH2 0x72E JUMP JUMPDEST JUMPDEST PUSH1 0x0 PUSH2 0x78D DUP5 DUP3 DUP6 ADD PUSH2 0x754 JUMP JUMPDEST SWAP2 POP POP SWAP3 SWAP2 POP POP JUMP JUMPDEST PUSH2 0x79F DUP2 PUSH2 0x733 JUMP JUMPDEST DUP3 MSTORE POP POP JUMP JUMPDEST PUSH1 0x0 PUSH1 0x20 DUP3 ADD SWAP1 POP PUSH2 0x7BA PUSH1 0x0 DUP4 ADD DUP5 PUSH2 0x796 JUMP JUMPDEST SWAP3 SWAP2 POP POP JUMP JUMPDEST PUSH1 0x0 PUSH20 0xFFFFFFFFFFFFFFFFFFFFFFFFFFFFFFFFFFFFFFFF DUP3 AND SWAP1 POP SWAP2 SWAP1 POP JUMP JUMPDEST PUSH1 0x0 PUSH2 0x7EB DUP3 PUSH2 0x7C0 JUMP JUMPDEST SWAP1 POP SWAP2 SWAP1 POP JUMP JUMPDEST PUSH2 0x7FB DUP2 PUSH2 0x7E0 JUMP JUMPDEST DUP2 EQ PUSH2 0x806 JUMPI PUSH1 0x0 DUP1 REVERT JUMPDEST POP JUMP JUMPDEST PUSH1 0x0 DUP2 CALLDATALOAD SWAP1 POP PUSH2 0x818 DUP2 PUSH2 0x7F2 JUMP JUMPDEST SWAP3 SWAP2 POP POP JUMP JUMPDEST PUSH1 0x0 PUSH1 0x20 DUP3 DUP5 SUB SLT ISZERO PUSH2 0x834 JUMPI PUSH2 0x833 PUSH2 0x72E JUMP JUMPDEST JUMPDEST PUSH1 0x0 PUSH2 0x842 DUP5 DUP3 DUP6 ADD PUSH2 0x809 JUMP JUMPDEST SWAP2 POP POP SWAP3 SWAP2 POP POP JUMP JUMPDEST PUSH1 0x0 PUSH1 0xFF DUP3 AND SWAP1 POP SWAP2 SWAP1 POP JUMP JUMPDEST PUSH2 0x861 DUP2 PUSH2 0x84B JUMP JUMPDEST DUP3 MSTORE POP POP JUMP JUMPDEST PUSH1 0x0 PUSH1 0x20 DUP3 ADD SWAP1 POP PUSH2 0x87C PUSH1 0x0 DUP4 ADD DUP5 PUSH2 0x858 JUMP JUMPDEST SWAP3 SWAP2 POP POP JUMP JUMPDEST PUSH1 0x0 DUP2 ISZERO ISZERO SWAP1 POP SWAP2 SWAP1 POP JUMP JUMPDEST PUSH2 0x897 DUP2 PUSH2 0x882 JUMP JUMPDEST DUP3 MSTORE POP POP JUMP JUMPDEST PUSH1 0x0 PUSH1 0x60 DUP3 ADD SWAP1 POP PUSH2 0x8B2 PUSH1 0x0 DUP4 ADD DUP7 PUSH2 0x796 JUMP JUMPDEST PUSH2 0x8BF PUSH1 0x20 DUP4 ADD DUP6 PUSH2 0x88E JUMP JUMPDEST PUSH2 0x8CC PUSH1 0x40 DUP4 ADD DUP5 PUSH2 0x796 JUMP JUMPDEST SWAP5 SWAP4 POP POP POP POP JUMP JUMPDEST PUSH2 0x8DD DUP2 PUSH2 0x84B JUMP JUMPDEST DUP2 EQ PUSH2 0x8E8 JUMPI PUSH1 0x0 DUP1 REVERT JUMPDEST POP JUMP JUMPDEST PUSH1 0x0 DUP2 CALLDATALOAD SWAP1 POP PUSH2 0x8FA DUP2 PUSH2 0x8D4 JUMP JUMPDEST SWAP3 SWAP2 POP POP JUMP JUMPDEST PUSH1 0x0 PUSH1 0x20 DUP3 DUP5 SUB SLT ISZERO PUSH2 0x916 JUMPI PUSH2 0x915 PUSH2 0x72E JUMP JUMPDEST JUMPDEST PUSH1 0x0 PUSH2 0x924 DUP5 DUP3 DUP6 ADD PUSH2 0x8EB JUMP JUMPDEST SWAP2 POP POP SWAP3 SWAP2 POP POP JUMP JUMPDEST PUSH1 0x0 DUP3 DUP3 MSTORE PUSH1 0x20 DUP3 ADD SWAP1 POP SWAP3 SWAP2 POP POP JUMP JUMPDEST PUSH32 0x4572726F72203A204F6E6C7920436861697220506572736F6E2063616E206361 PUSH1 0x0 DUP3 ADD MSTORE PUSH32 0x6C6C20746869732066756E6374696F6E00000000000000000000000000000000 PUSH1 0x20 DUP3 ADD MSTORE POP JUMP JUMPDEST PUSH1 0x0 PUSH2 0x99A PUSH1 0x30 DUP4 PUSH2 0x92D JUMP JUMPDEST SWAP2 POP PUSH2 0x9A5 DUP3 PUSH2 0x93E JUMP JUMPDEST PUSH1 0x40 DUP3 ADD SWAP1 POP SWAP2 SWAP1 POP JUMP JUMPDEST PUSH1 0x0 PUSH1 0x20 DUP3 ADD SWAP1 POP DUP2 DUP2 SUB PUSH1 0x0 DUP4 ADD MSTORE PUSH2 0x9C9 DUP2 PUSH2 0x98D JUMP JUMPDEST SWAP1 POP SWAP2 SWAP1 POP JUMP JUMPDEST PUSH32 0x4E487B7100000000000000000000000000000000000000000000000000000000 PUSH1 0x0 MSTORE PUSH1 0x32 PUSH1 0x4 MSTORE PUSH1 0x24 PUSH1 0x0 REVERT JUMPDEST PUSH32 0x4E487B7100000000000000000000000000000000000000000000000000000000 PUSH1 0x0 MSTORE PUSH1 0x11 PUSH1 0x4 MSTORE PUSH1 0x24 PUSH1 0x0 REVERT JUMPDEST PUSH1 0x0 PUSH2 0xA39 DUP3 PUSH2 0x84B JUMP JUMPDEST SWAP2 POP PUSH1 0xFF DUP3 SUB PUSH2 0xA4C JUMPI PUSH2 0xA4B PUSH2 0x9FF JUMP JUMPDEST JUMPDEST PUSH1 0x1 DUP3 ADD SWAP1 POP SWAP2 SWAP1 POP JUMP JUMPDEST PUSH32 0x4572726F72203A204F6E6C792076616C696420766F7465722063616E2063616C PUSH1 0x0 DUP3 ADD MSTORE PUSH32 0x6C20746869732066756E6374696F6E0000000000000000000000000000000000 PUSH1 0x20 DUP3 ADD MSTORE POP JUMP JUMPDEST PUSH1 0x0 PUSH2 0xAB3 PUSH1 0x2F DUP4 PUSH2 0x92D JUMP JUMPDEST SWAP2 POP PUSH2 0xABE DUP3 PUSH2 0xA57 JUMP JUMPDEST PUSH1 0x40 DUP3 ADD SWAP1 POP SWAP2 SWAP1 POP JUMP JUMPDEST PUSH1 0x0 PUSH1 0x20 DUP3 ADD SWAP1 POP DUP2 DUP2 SUB PUSH1 0x0 DUP4 ADD MSTORE PUSH2 0xAE2 DUP2 PUSH2 0xAA6 JUMP JUMPDEST SWAP1 POP SWAP2 SWAP1 POP JUMP JUMPDEST PUSH32 0x4572726F72203A20596F752068617665206265656E20616C726561647920766F PUSH1 0x0 DUP3 ADD MSTORE PUSH32 0x7465640000000000000000000000000000000000000000000000000000000000 PUSH1 0x20 DUP3 ADD MSTORE POP JUMP JUMPDEST PUSH1 0x0 PUSH2 0xB45 PUSH1 0x23 DUP4 PUSH2 0x92D JUMP JUMPDEST SWAP2 POP PUSH2 0xB50 DUP3 PUSH2 0xAE9 JUMP JUMPDEST PUSH1 0x40 DUP3 ADD SWAP1 POP SWAP2 SWAP1 POP JUMP JUMPDEST PUSH1 0x0 PUSH1 0x20 DUP3 ADD SWAP1 POP DUP2 DUP2 SUB PUSH1 0x0 DUP4 ADD MSTORE PUSH2 0xB74 DUP2 PUSH2 0xB38 JUMP JUMPDEST SWAP1 POP SWAP2 SWAP1 POP JUMP JUMPDEST PUSH32 0x4572726F72203A20496E76616C6964206E756D62657200000000000000000000 PUSH1 0x0 DUP3 ADD MSTORE POP JUMP JUMPDEST PUSH1 0x0 PUSH2 0xBB1 PUSH1 0x16 DUP4 PUSH2 0x92D JUMP JUMPDEST SWAP2 POP PUSH2 0xBBC DUP3 PUSH2 0xB7B JUMP JUMPDEST PUSH1 0x20 DUP3 ADD SWAP1 POP SWAP2 SWAP1 POP JUMP JUMPDEST PUSH1 0x0 PUSH1 0x20 DUP3 ADD SWAP1 POP DUP2 DUP2 SUB PUSH1 0x0 DUP4 ADD MSTORE PUSH2 0xBE0 DUP2 PUSH2 0xBA4 JUMP JUMPDEST SWAP1 POP SWAP2 SWAP1 POP JUMP JUMPDEST PUSH1 0x0 PUSH2 0xBF2 DUP3 PUSH2 0x733 JUMP JUMPDEST SWAP2 POP PUSH2 0xBFD DUP4 PUSH2 0x733 JUMP JUMPDEST SWAP3 POP DUP3 DUP3 ADD SWAP1 POP DUP1 DUP3 GT ISZERO PUSH2 0xC15 JUMPI PUSH2 0xC14 PUSH2 0x9FF JUMP JUMPDEST JUMPDEST SWAP3 SWAP2 POP POP JUMP INVALID LOG2 PUSH5 0x6970667358 0x22 SLT KECCAK256 SWAP13 0xF9 PUSH15 0x978D6D39AB35657A8BDCC5E577DE7 0x1F PUSH9 0x7D66AFF9CD7404701E 0xD7 PUSH28 0x7764736F6C6343000812003300000000000000000000000000000000 "
				},
				"gasEstimates": {
					"creation": {
						"codeDepositCost": "630600",
						"executionCost": "infinite",
						"totalCost": "infinite"
					},
					"external": {
						"proposals(uint256)": "infinite",
						"register(address)": "56484",
						"reqWinner()": "infinite",
						"vote(uint8)": "infinite",
						"voters(address)": "infinite"
					}
				},
				"methodIdentifiers": {
					"proposals(uint256)": "013cf08b",
					"register(address)": "4420e486",
					"reqWinner()": "508b30c9",
					"vote(uint8)": "b3f98adc",
					"voters(address)": "a3ec138d"
				}
			},
			"storageLayout": {
				"storage": [
					{
						"astId": 13,
						"contract": "Final Exam/Ballot.sol:Ballot",
						"label": "chairPerson",
						"offset": 0,
						"slot": "0",
						"type": "t_address"
					},
					{
						"astId": 18,
						"contract": "Final Exam/Ballot.sol:Ballot",
						"label": "voters",
						"offset": 0,
						"slot": "1",
						"type": "t_mapping(t_address,t_struct(Voter)8_storage)"
					},
					{
						"astId": 22,
						"contract": "Final Exam/Ballot.sol:Ballot",
						"label": "proposals",
						"offset": 0,
						"slot": "2",
						"type": "t_array(t_struct(Proposal)11_storage)dyn_storage"
					}
				],
				"types": {
					"t_address": {
						"encoding": "inplace",
						"label": "address",
						"numberOfBytes": "20"
					},
					"t_array(t_struct(Proposal)11_storage)dyn_storage": {
						"base": "t_struct(Proposal)11_storage",
						"encoding": "dynamic_array",
						"label": "struct Ballot.Proposal[]",
						"numberOfBytes": "32"
					},
					"t_bool": {
						"encoding": "inplace",
						"label": "bool",
						"numberOfBytes": "1"
					},
					"t_mapping(t_address,t_struct(Voter)8_storage)": {
						"encoding": "mapping",
						"key": "t_address",
						"label": "mapping(address => struct Ballot.Voter)",
						"numberOfBytes": "32",
						"value": "t_struct(Voter)8_storage"
					},
					"t_struct(Proposal)11_storage": {
						"encoding": "inplace",
						"label": "struct Ballot.Proposal",
						"members": [
							{
								"astId": 10,
								"contract": "Final Exam/Ballot.sol:Ballot",
								"label": "voteCount",
								"offset": 0,
								"slot": "0",
								"type": "t_uint256"
							}
						],
						"numberOfBytes": "32"
					},
					"t_struct(Voter)8_storage": {
						"encoding": "inplace",
						"label": "struct Ballot.Voter",
						"members": [
							{
								"astId": 3,
								"contract": "Final Exam/Ballot.sol:Ballot",
								"label": "weight",
								"offset": 0,
								"slot": "0",
								"type": "t_uint256"
							},
							{
								"astId": 5,
								"contract": "Final Exam/Ballot.sol:Ballot",
								"label": "voted",
								"offset": 0,
								"slot": "1",
								"type": "t_bool"
							},
							{
								"astId": 7,
								"contract": "Final Exam/Ballot.sol:Ballot",
								"label": "vote",
								"offset": 0,
								"slot": "2",
								"type": "t_uint256"
							}
						],
						"numberOfBytes": "96"
					},
					"t_uint256": {
						"encoding": "inplace",
						"label": "uint256",
						"numberOfBytes": "32"
					}
				}
			},
			"userdoc": {
				"kind": "user",
				"methods": {},
				"version": 1
			}
		}
	}
}