{
	"Final Exam/HotelBooking.sol": {
		"HotelRoom": {
			"abi": [
				{
					"inputs": [],
					"stateMutability": "nonpayable",
					"type": "constructor"
				},
				{
					"anonymous": false,
					"inputs": [
						{
							"indexed": false,
							"internalType": "address",
							"name": "_occupant",
							"type": "address"
						},
						{
							"indexed": false,
							"internalType": "uint256",
							"name": "_value",
							"type": "uint256"
						}
					],
					"name": "Occupy",
					"type": "event"
				},
				{
					"inputs": [],
					"name": "book",
					"outputs": [],
					"stateMutability": "payable",
					"type": "function"
				},
				{
					"inputs": [],
					"name": "currentStatus",
					"outputs": [
						{
							"internalType": "enum HotelRoom.Status",
							"name": "",
							"type": "uint8"
						}
					],
					"stateMutability": "view",
					"type": "function"
				},
				{
					"inputs": [],
					"name": "reset",
					"outputs": [],
					"stateMutability": "nonpayable",
					"type": "function"
				}
			],
			"devdoc": {
				"kind": "dev",
				"methods": {},
				"version": 1
			},
			"evm": {
				"assembly": "    /* \"Final Exam/HotelBooking.sol\":69:1272  contract HotelRoom {... */\n  mstore(0x40, 0x80)\n    /* \"Final Exam/HotelBooking.sol\":302:310  10 ether */\n  0x8ac7230489e80000\n    /* \"Final Exam/HotelBooking.sol\":288:310  uint amount = 10 ether */\n  0x01\n  sstore\n    /* \"Final Exam/HotelBooking.sol\":317:414  constructor() {... */\n  callvalue\n  dup1\n  iszero\n  tag_1\n  jumpi\n  0x00\n  dup1\n  revert\ntag_1:\n  pop\n    /* \"Final Exam/HotelBooking.sol\":357:367  msg.sender */\n  caller\n    /* \"Final Exam/HotelBooking.sol\":341:346  owner */\n  0x00\n  dup1\n    /* \"Final Exam/HotelBooking.sol\":341:368  owner = payable(msg.sender) */\n  0x0100\n  exp\n  dup2\n  sload\n  dup2\n  0xffffffffffffffffffffffffffffffffffffffff\n  mul\n  not\n  and\n  swap1\n  dup4\n  0xffffffffffffffffffffffffffffffffffffffff\n  and\n  mul\n  or\n  swap1\n  sstore\n  pop\n    /* \"Final Exam/HotelBooking.sol\":394:407  Status.Vacant */\n  0x00\n    /* \"Final Exam/HotelBooking.sol\":378:391  currentStatus */\n  dup1\n  0x14\n    /* \"Final Exam/HotelBooking.sol\":378:407  currentStatus = Status.Vacant */\n  0x0100\n  exp\n  dup2\n  sload\n  dup2\n  0xff\n  mul\n  not\n  and\n  swap1\n  dup4\n  0x01\n  dup2\n  gt\n  iszero\n  tag_4\n  jumpi\n  tag_5\n  tag_6\n  jump\t// in\ntag_5:\ntag_4:\n  mul\n  or\n  swap1\n  sstore\n  pop\n    /* \"Final Exam/HotelBooking.sol\":69:1272  contract HotelRoom {... */\n  jump(tag_7)\n    /* \"#utility.yul\":7:187   */\ntag_6:\n    /* \"#utility.yul\":55:132   */\n  0x4e487b7100000000000000000000000000000000000000000000000000000000\n    /* \"#utility.yul\":52:53   */\n  0x00\n    /* \"#utility.yul\":45:133   */\n  mstore\n    /* \"#utility.yul\":152:156   */\n  0x21\n    /* \"#utility.yul\":149:150   */\n  0x04\n    /* \"#utility.yul\":142:157   */\n  mstore\n    /* \"#utility.yul\":176:180   */\n  0x24\n    /* \"#utility.yul\":173:174   */\n  0x00\n    /* \"#utility.yul\":166:181   */\n  revert\n    /* \"Final Exam/HotelBooking.sol\":69:1272  contract HotelRoom {... */\ntag_7:\n  dataSize(sub_0)\n  dup1\n  dataOffset(sub_0)\n  0x00\n  codecopy\n  0x00\n  return\nstop\n\nsub_0: assembly {\n        /* \"Final Exam/HotelBooking.sol\":69:1272  contract HotelRoom {... */\n      mstore(0x40, 0x80)\n      jumpi(tag_1, lt(calldatasize, 0x04))\n      shr(0xe0, calldataload(0x00))\n      dup1\n      0x05a8da72\n      eq\n      tag_2\n      jumpi\n      dup1\n      0xd826f88f\n      eq\n      tag_3\n      jumpi\n      dup1\n      0xef8a9235\n      eq\n      tag_4\n      jumpi\n    tag_1:\n      0x00\n      dup1\n      revert\n        /* \"Final Exam/HotelBooking.sol\":812:1153  function book()... */\n    tag_2:\n      tag_5\n      tag_6\n      jump\t// in\n    tag_5:\n      stop\n        /* \"Final Exam/HotelBooking.sol\":1163:1270  function reset()... */\n    tag_3:\n      callvalue\n      dup1\n      iszero\n      tag_7\n      jumpi\n      0x00\n      dup1\n      revert\n    tag_7:\n      pop\n      tag_8\n      tag_9\n      jump\t// in\n    tag_8:\n      stop\n        /* \"Final Exam/HotelBooking.sol\":254:281  Status public currentStatus */\n    tag_4:\n      callvalue\n      dup1\n      iszero\n      tag_10\n      jumpi\n      0x00\n      dup1\n      revert\n    tag_10:\n      pop\n      tag_11\n      tag_12\n      jump\t// in\n    tag_11:\n      mload(0x40)\n      tag_13\n      swap2\n      swap1\n      tag_14\n      jump\t// in\n    tag_13:\n      mload(0x40)\n      dup1\n      swap2\n      sub\n      swap1\n      return\n        /* \"Final Exam/HotelBooking.sol\":812:1153  function book()... */\n    tag_6:\n        /* \"Final Exam/HotelBooking.sol\":884:897  Status.Vacant */\n      0x00\n        /* \"Final Exam/HotelBooking.sol\":498:507  reqStatus */\n      dup1\n        /* \"Final Exam/HotelBooking.sol\":481:507  currentStatus == reqStatus */\n      0x01\n      dup2\n      gt\n      iszero\n      tag_16\n      jumpi\n      tag_17\n      tag_18\n      jump\t// in\n    tag_17:\n    tag_16:\n        /* \"Final Exam/HotelBooking.sol\":481:494  currentStatus */\n      0x00\n      0x14\n      swap1\n      sload\n      swap1\n      0x0100\n      exp\n      swap1\n      div\n      0xff\n      and\n        /* \"Final Exam/HotelBooking.sol\":481:507  currentStatus == reqStatus */\n      0x01\n      dup2\n      gt\n      iszero\n      tag_19\n      jumpi\n      tag_20\n      tag_18\n      jump\t// in\n    tag_20:\n    tag_19:\n      eq\n        /* \"Final Exam/HotelBooking.sol\":473:542  require(currentStatus == reqStatus, \"Error : The room is not vacant\") */\n      tag_21\n      jumpi\n      mload(0x40)\n      0x08c379a000000000000000000000000000000000000000000000000000000000\n      dup2\n      mstore\n      0x04\n      add\n      tag_22\n      swap1\n      tag_23\n      jump\t// in\n    tag_22:\n      mload(0x40)\n      dup1\n      swap2\n      sub\n      swap1\n      revert\n    tag_21:\n        /* \"Final Exam/HotelBooking.sol\":913:919  amount */\n      sload(0x01)\n        /* \"Final Exam/HotelBooking.sol\":625:632  _amount */\n      dup1\n        /* \"Final Exam/HotelBooking.sol\":613:622  msg.value */\n      callvalue\n        /* \"Final Exam/HotelBooking.sol\":613:632  msg.value > _amount */\n      gt\n        /* \"Final Exam/HotelBooking.sol\":605:670  require(msg.value > _amount, \"Error : Not enough ether provided\") */\n      tag_25\n      jumpi\n      mload(0x40)\n      0x08c379a000000000000000000000000000000000000000000000000000000000\n      dup2\n      mstore\n      0x04\n      add\n      tag_26\n      swap1\n      tag_27\n      jump\t// in\n    tag_26:\n      mload(0x40)\n      dup1\n      swap2\n      sub\n      swap1\n      revert\n    tag_25:\n        /* \"Final Exam/HotelBooking.sol\":951:966  Status.Occupied */\n      0x01\n        /* \"Final Exam/HotelBooking.sol\":935:948  currentStatus */\n      0x00\n      0x14\n        /* \"Final Exam/HotelBooking.sol\":935:966  currentStatus = Status.Occupied */\n      0x0100\n      exp\n      dup2\n      sload\n      dup2\n      0xff\n      mul\n      not\n      and\n      swap1\n      dup4\n      0x01\n      dup2\n      gt\n      iszero\n      tag_29\n      jumpi\n      tag_30\n      tag_18\n      jump\t// in\n    tag_30:\n    tag_29:\n      mul\n      or\n      swap1\n      sstore\n      pop\n        /* \"Final Exam/HotelBooking.sol\":981:993  bool success */\n      0x00\n        /* \"Final Exam/HotelBooking.sol\":999:1004  owner */\n      dup1\n      0x00\n      swap1\n      sload\n      swap1\n      0x0100\n      exp\n      swap1\n      div\n      0xffffffffffffffffffffffffffffffffffffffff\n      and\n        /* \"Final Exam/HotelBooking.sol\":999:1009  owner.call */\n      0xffffffffffffffffffffffffffffffffffffffff\n      and\n        /* \"Final Exam/HotelBooking.sol\":1018:1027  msg.value */\n      callvalue\n        /* \"Final Exam/HotelBooking.sol\":999:1032  owner.call{value : msg.value}(\"\") */\n      mload(0x40)\n      tag_31\n      swap1\n      tag_32\n      jump\t// in\n    tag_31:\n      0x00\n      mload(0x40)\n      dup1\n      dup4\n      sub\n      dup2\n      dup6\n      dup8\n      gas\n      call\n      swap3\n      pop\n      pop\n      pop\n      returndatasize\n      dup1\n      0x00\n      dup2\n      eq\n      tag_35\n      jumpi\n      mload(0x40)\n      swap2\n      pop\n      and(add(returndatasize, 0x3f), not(0x1f))\n      dup3\n      add\n      0x40\n      mstore\n      returndatasize\n      dup3\n      mstore\n      returndatasize\n      0x00\n      0x20\n      dup5\n      add\n      returndatacopy\n      jump(tag_34)\n    tag_35:\n      0x60\n      swap2\n      pop\n    tag_34:\n      pop\n        /* \"Final Exam/HotelBooking.sol\":980:1032  (bool success, ) = owner.call{value : msg.value}(\"\") */\n      pop\n      swap1\n      pop\n        /* \"Final Exam/HotelBooking.sol\":1054:1061  success */\n      dup1\n        /* \"Final Exam/HotelBooking.sol\":1046:1094  require(success, \"Error : Failed to send Ether\") */\n      tag_36\n      jumpi\n      mload(0x40)\n      0x08c379a000000000000000000000000000000000000000000000000000000000\n      dup2\n      mstore\n      0x04\n      add\n      tag_37\n      swap1\n      tag_38\n      jump\t// in\n    tag_37:\n      mload(0x40)\n      dup1\n      swap2\n      sub\n      swap1\n      revert\n    tag_36:\n        /* \"Final Exam/HotelBooking.sol\":1113:1142  Occupy(msg.sender, msg.value) */\n      0xba951166d42eb077151bdecb7cf6027562f04f0143b0c141b1bb0a33eef5d693\n        /* \"Final Exam/HotelBooking.sol\":1120:1130  msg.sender */\n      caller\n        /* \"Final Exam/HotelBooking.sol\":1132:1141  msg.value */\n      callvalue\n        /* \"Final Exam/HotelBooking.sol\":1113:1142  Occupy(msg.sender, msg.value) */\n      mload(0x40)\n      tag_39\n      swap3\n      swap2\n      swap1\n      tag_40\n      jump\t// in\n    tag_39:\n      mload(0x40)\n      dup1\n      swap2\n      sub\n      swap1\n      log1\n        /* \"Final Exam/HotelBooking.sol\":921:1153  {... */\n      pop\n        /* \"Final Exam/HotelBooking.sol\":552:553  _ */\n      pop\n        /* \"Final Exam/HotelBooking.sol\":812:1153  function book()... */\n      pop\n      jump\t// out\n        /* \"Final Exam/HotelBooking.sol\":1163:1270  function reset()... */\n    tag_9:\n        /* \"Final Exam/HotelBooking.sol\":747:752  owner */\n      0x00\n      dup1\n      sload\n      swap1\n      0x0100\n      exp\n      swap1\n      div\n      0xffffffffffffffffffffffffffffffffffffffff\n      and\n        /* \"Final Exam/HotelBooking.sol\":733:752  msg.sender == owner */\n      0xffffffffffffffffffffffffffffffffffffffff\n      and\n        /* \"Final Exam/HotelBooking.sol\":733:743  msg.sender */\n      caller\n        /* \"Final Exam/HotelBooking.sol\":733:752  msg.sender == owner */\n      0xffffffffffffffffffffffffffffffffffffffff\n      and\n      eq\n        /* \"Final Exam/HotelBooking.sol\":725:788  require(msg.sender == owner, \"Error : you are not hotel owner\") */\n      tag_42\n      jumpi\n      mload(0x40)\n      0x08c379a000000000000000000000000000000000000000000000000000000000\n      dup2\n      mstore\n      0x04\n      add\n      tag_43\n      swap1\n      tag_44\n      jump\t// in\n    tag_43:\n      mload(0x40)\n      dup1\n      swap2\n      sub\n      swap1\n      revert\n    tag_42:\n        /* \"Final Exam/HotelBooking.sol\":1246:1259  Status.Vacant */\n      0x00\n        /* \"Final Exam/HotelBooking.sol\":1230:1243  currentStatus */\n      dup1\n      0x14\n        /* \"Final Exam/HotelBooking.sol\":1230:1259  currentStatus = Status.Vacant */\n      0x0100\n      exp\n      dup2\n      sload\n      dup2\n      0xff\n      mul\n      not\n      and\n      swap1\n      dup4\n      0x01\n      dup2\n      gt\n      iszero\n      tag_46\n      jumpi\n      tag_47\n      tag_18\n      jump\t// in\n    tag_47:\n    tag_46:\n      mul\n      or\n      swap1\n      sstore\n      pop\n        /* \"Final Exam/HotelBooking.sol\":1163:1270  function reset()... */\n      jump\t// out\n        /* \"Final Exam/HotelBooking.sol\":254:281  Status public currentStatus */\n    tag_12:\n      0x00\n      0x14\n      swap1\n      sload\n      swap1\n      0x0100\n      exp\n      swap1\n      div\n      0xff\n      and\n      dup2\n      jump\t// out\n        /* \"#utility.yul\":7:187   */\n    tag_18:\n        /* \"#utility.yul\":55:132   */\n      0x4e487b7100000000000000000000000000000000000000000000000000000000\n        /* \"#utility.yul\":52:53   */\n      0x00\n        /* \"#utility.yul\":45:133   */\n      mstore\n        /* \"#utility.yul\":152:156   */\n      0x21\n        /* \"#utility.yul\":149:150   */\n      0x04\n        /* \"#utility.yul\":142:157   */\n      mstore\n        /* \"#utility.yul\":176:180   */\n      0x24\n        /* \"#utility.yul\":173:174   */\n      0x00\n        /* \"#utility.yul\":166:181   */\n      revert\n        /* \"#utility.yul\":193:306   */\n    tag_48:\n        /* \"#utility.yul\":274:275   */\n      0x02\n        /* \"#utility.yul\":267:272   */\n      dup2\n        /* \"#utility.yul\":264:276   */\n      lt\n        /* \"#utility.yul\":254:300   */\n      tag_72\n      jumpi\n        /* \"#utility.yul\":280:298   */\n      tag_73\n      tag_18\n      jump\t// in\n    tag_73:\n        /* \"#utility.yul\":254:300   */\n    tag_72:\n        /* \"#utility.yul\":193:306   */\n      pop\n      jump\t// out\n        /* \"#utility.yul\":312:439   */\n    tag_49:\n        /* \"#utility.yul\":357:364   */\n      0x00\n        /* \"#utility.yul\":386:391   */\n      dup2\n        /* \"#utility.yul\":375:391   */\n      swap1\n      pop\n        /* \"#utility.yul\":392:433   */\n      tag_75\n        /* \"#utility.yul\":427:432   */\n      dup3\n        /* \"#utility.yul\":392:433   */\n      tag_48\n      jump\t// in\n    tag_75:\n        /* \"#utility.yul\":312:439   */\n      swap2\n      swap1\n      pop\n      jump\t// out\n        /* \"#utility.yul\":445:572   */\n    tag_50:\n        /* \"#utility.yul\":501:510   */\n      0x00\n        /* \"#utility.yul\":534:566   */\n      tag_77\n        /* \"#utility.yul\":560:565   */\n      dup3\n        /* \"#utility.yul\":534:566   */\n      tag_49\n      jump\t// in\n    tag_77:\n        /* \"#utility.yul\":521:566   */\n      swap1\n      pop\n        /* \"#utility.yul\":445:572   */\n      swap2\n      swap1\n      pop\n      jump\t// out\n        /* \"#utility.yul\":578:721   */\n    tag_51:\n        /* \"#utility.yul\":671:714   */\n      tag_79\n        /* \"#utility.yul\":708:713   */\n      dup2\n        /* \"#utility.yul\":671:714   */\n      tag_50\n      jump\t// in\n    tag_79:\n        /* \"#utility.yul\":666:669   */\n      dup3\n        /* \"#utility.yul\":659:715   */\n      mstore\n        /* \"#utility.yul\":578:721   */\n      pop\n      pop\n      jump\t// out\n        /* \"#utility.yul\":727:961   */\n    tag_14:\n        /* \"#utility.yul\":826:830   */\n      0x00\n        /* \"#utility.yul\":864:866   */\n      0x20\n        /* \"#utility.yul\":853:862   */\n      dup3\n        /* \"#utility.yul\":849:867   */\n      add\n        /* \"#utility.yul\":841:867   */\n      swap1\n      pop\n        /* \"#utility.yul\":877:954   */\n      tag_81\n        /* \"#utility.yul\":951:952   */\n      0x00\n        /* \"#utility.yul\":940:949   */\n      dup4\n        /* \"#utility.yul\":936:953   */\n      add\n        /* \"#utility.yul\":927:933   */\n      dup5\n        /* \"#utility.yul\":877:954   */\n      tag_51\n      jump\t// in\n    tag_81:\n        /* \"#utility.yul\":727:961   */\n      swap3\n      swap2\n      pop\n      pop\n      jump\t// out\n        /* \"#utility.yul\":967:1136   */\n    tag_52:\n        /* \"#utility.yul\":1051:1062   */\n      0x00\n        /* \"#utility.yul\":1085:1091   */\n      dup3\n        /* \"#utility.yul\":1080:1083   */\n      dup3\n        /* \"#utility.yul\":1073:1092   */\n      mstore\n        /* \"#utility.yul\":1125:1129   */\n      0x20\n        /* \"#utility.yul\":1120:1123   */\n      dup3\n        /* \"#utility.yul\":1116:1130   */\n      add\n        /* \"#utility.yul\":1101:1130   */\n      swap1\n      pop\n        /* \"#utility.yul\":967:1136   */\n      swap3\n      swap2\n      pop\n      pop\n      jump\t// out\n        /* \"#utility.yul\":1142:1322   */\n    tag_53:\n        /* \"#utility.yul\":1282:1314   */\n      0x4572726f72203a2054686520726f6f6d206973206e6f7420766163616e740000\n        /* \"#utility.yul\":1278:1279   */\n      0x00\n        /* \"#utility.yul\":1270:1276   */\n      dup3\n        /* \"#utility.yul\":1266:1280   */\n      add\n        /* \"#utility.yul\":1259:1315   */\n      mstore\n        /* \"#utility.yul\":1142:1322   */\n      pop\n      jump\t// out\n        /* \"#utility.yul\":1328:1694   */\n    tag_54:\n        /* \"#utility.yul\":1470:1473   */\n      0x00\n        /* \"#utility.yul\":1491:1558   */\n      tag_85\n        /* \"#utility.yul\":1555:1557   */\n      0x1e\n        /* \"#utility.yul\":1550:1553   */\n      dup4\n        /* \"#utility.yul\":1491:1558   */\n      tag_52\n      jump\t// in\n    tag_85:\n        /* \"#utility.yul\":1484:1558   */\n      swap2\n      pop\n        /* \"#utility.yul\":1567:1660   */\n      tag_86\n        /* \"#utility.yul\":1656:1659   */\n      dup3\n        /* \"#utility.yul\":1567:1660   */\n      tag_53\n      jump\t// in\n    tag_86:\n        /* \"#utility.yul\":1685:1687   */\n      0x20\n        /* \"#utility.yul\":1680:1683   */\n      dup3\n        /* \"#utility.yul\":1676:1688   */\n      add\n        /* \"#utility.yul\":1669:1688   */\n      swap1\n      pop\n        /* \"#utility.yul\":1328:1694   */\n      swap2\n      swap1\n      pop\n      jump\t// out\n        /* \"#utility.yul\":1700:2119   */\n    tag_23:\n        /* \"#utility.yul\":1866:1870   */\n      0x00\n        /* \"#utility.yul\":1904:1906   */\n      0x20\n        /* \"#utility.yul\":1893:1902   */\n      dup3\n        /* \"#utility.yul\":1889:1907   */\n      add\n        /* \"#utility.yul\":1881:1907   */\n      swap1\n      pop\n        /* \"#utility.yul\":1953:1962   */\n      dup2\n        /* \"#utility.yul\":1947:1951   */\n      dup2\n        /* \"#utility.yul\":1943:1963   */\n      sub\n        /* \"#utility.yul\":1939:1940   */\n      0x00\n        /* \"#utility.yul\":1928:1937   */\n      dup4\n        /* \"#utility.yul\":1924:1941   */\n      add\n        /* \"#utility.yul\":1917:1964   */\n      mstore\n        /* \"#utility.yul\":1981:2112   */\n      tag_88\n        /* \"#utility.yul\":2107:2111   */\n      dup2\n        /* \"#utility.yul\":1981:2112   */\n      tag_54\n      jump\t// in\n    tag_88:\n        /* \"#utility.yul\":1973:2112   */\n      swap1\n      pop\n        /* \"#utility.yul\":1700:2119   */\n      swap2\n      swap1\n      pop\n      jump\t// out\n        /* \"#utility.yul\":2125:2345   */\n    tag_55:\n        /* \"#utility.yul\":2265:2299   */\n      0x4572726f72203a204e6f7420656e6f7567682065746865722070726f76696465\n        /* \"#utility.yul\":2261:2262   */\n      0x00\n        /* \"#utility.yul\":2253:2259   */\n      dup3\n        /* \"#utility.yul\":2249:2263   */\n      add\n        /* \"#utility.yul\":2242:2300   */\n      mstore\n        /* \"#utility.yul\":2334:2337   */\n      0x6400000000000000000000000000000000000000000000000000000000000000\n        /* \"#utility.yul\":2329:2331   */\n      0x20\n        /* \"#utility.yul\":2321:2327   */\n      dup3\n        /* \"#utility.yul\":2317:2332   */\n      add\n        /* \"#utility.yul\":2310:2338   */\n      mstore\n        /* \"#utility.yul\":2125:2345   */\n      pop\n      jump\t// out\n        /* \"#utility.yul\":2351:2717   */\n    tag_56:\n        /* \"#utility.yul\":2493:2496   */\n      0x00\n        /* \"#utility.yul\":2514:2581   */\n      tag_91\n        /* \"#utility.yul\":2578:2580   */\n      0x21\n        /* \"#utility.yul\":2573:2576   */\n      dup4\n        /* \"#utility.yul\":2514:2581   */\n      tag_52\n      jump\t// in\n    tag_91:\n        /* \"#utility.yul\":2507:2581   */\n      swap2\n      pop\n        /* \"#utility.yul\":2590:2683   */\n      tag_92\n        /* \"#utility.yul\":2679:2682   */\n      dup3\n        /* \"#utility.yul\":2590:2683   */\n      tag_55\n      jump\t// in\n    tag_92:\n        /* \"#utility.yul\":2708:2710   */\n      0x40\n        /* \"#utility.yul\":2703:2706   */\n      dup3\n        /* \"#utility.yul\":2699:2711   */\n      add\n        /* \"#utility.yul\":2692:2711   */\n      swap1\n      pop\n        /* \"#utility.yul\":2351:2717   */\n      swap2\n      swap1\n      pop\n      jump\t// out\n        /* \"#utility.yul\":2723:3142   */\n    tag_27:\n        /* \"#utility.yul\":2889:2893   */\n      0x00\n        /* \"#utility.yul\":2927:2929   */\n      0x20\n        /* \"#utility.yul\":2916:2925   */\n      dup3\n        /* \"#utility.yul\":2912:2930   */\n      add\n        /* \"#utility.yul\":2904:2930   */\n      swap1\n      pop\n        /* \"#utility.yul\":2976:2985   */\n      dup2\n        /* \"#utility.yul\":2970:2974   */\n      dup2\n        /* \"#utility.yul\":2966:2986   */\n      sub\n        /* \"#utility.yul\":2962:2963   */\n      0x00\n        /* \"#utility.yul\":2951:2960   */\n      dup4\n        /* \"#utility.yul\":2947:2964   */\n      add\n        /* \"#utility.yul\":2940:2987   */\n      mstore\n        /* \"#utility.yul\":3004:3135   */\n      tag_94\n        /* \"#utility.yul\":3130:3134   */\n      dup2\n        /* \"#utility.yul\":3004:3135   */\n      tag_56\n      jump\t// in\n    tag_94:\n        /* \"#utility.yul\":2996:3135   */\n      swap1\n      pop\n        /* \"#utility.yul\":2723:3142   */\n      swap2\n      swap1\n      pop\n      jump\t// out\n        /* \"#utility.yul\":3148:3295   */\n    tag_57:\n        /* \"#utility.yul\":3249:3260   */\n      0x00\n        /* \"#utility.yul\":3286:3289   */\n      dup2\n        /* \"#utility.yul\":3271:3289   */\n      swap1\n      pop\n        /* \"#utility.yul\":3148:3295   */\n      swap3\n      swap2\n      pop\n      pop\n      jump\t// out\n        /* \"#utility.yul\":3301:3415   */\n    tag_58:\n      pop\n      jump\t// out\n        /* \"#utility.yul\":3421:3819   */\n    tag_59:\n        /* \"#utility.yul\":3580:3583   */\n      0x00\n        /* \"#utility.yul\":3601:3684   */\n      tag_98\n        /* \"#utility.yul\":3682:3683   */\n      0x00\n        /* \"#utility.yul\":3677:3680   */\n      dup4\n        /* \"#utility.yul\":3601:3684   */\n      tag_57\n      jump\t// in\n    tag_98:\n        /* \"#utility.yul\":3594:3684   */\n      swap2\n      pop\n        /* \"#utility.yul\":3693:3786   */\n      tag_99\n        /* \"#utility.yul\":3782:3785   */\n      dup3\n        /* \"#utility.yul\":3693:3786   */\n      tag_58\n      jump\t// in\n    tag_99:\n        /* \"#utility.yul\":3811:3812   */\n      0x00\n        /* \"#utility.yul\":3806:3809   */\n      dup3\n        /* \"#utility.yul\":3802:3813   */\n      add\n        /* \"#utility.yul\":3795:3813   */\n      swap1\n      pop\n        /* \"#utility.yul\":3421:3819   */\n      swap2\n      swap1\n      pop\n      jump\t// out\n        /* \"#utility.yul\":3825:4204   */\n    tag_32:\n        /* \"#utility.yul\":4009:4012   */\n      0x00\n        /* \"#utility.yul\":4031:4178   */\n      tag_101\n        /* \"#utility.yul\":4174:4177   */\n      dup3\n        /* \"#utility.yul\":4031:4178   */\n      tag_59\n      jump\t// in\n    tag_101:\n        /* \"#utility.yul\":4024:4178   */\n      swap2\n      pop\n        /* \"#utility.yul\":4195:4198   */\n      dup2\n        /* \"#utility.yul\":4188:4198   */\n      swap1\n      pop\n        /* \"#utility.yul\":3825:4204   */\n      swap2\n      swap1\n      pop\n      jump\t// out\n        /* \"#utility.yul\":4210:4388   */\n    tag_60:\n        /* \"#utility.yul\":4350:4380   */\n      0x4572726f72203a204661696c656420746f2073656e6420457468657200000000\n        /* \"#utility.yul\":4346:4347   */\n      0x00\n        /* \"#utility.yul\":4338:4344   */\n      dup3\n        /* \"#utility.yul\":4334:4348   */\n      add\n        /* \"#utility.yul\":4327:4381   */\n      mstore\n        /* \"#utility.yul\":4210:4388   */\n      pop\n      jump\t// out\n        /* \"#utility.yul\":4394:4760   */\n    tag_61:\n        /* \"#utility.yul\":4536:4539   */\n      0x00\n        /* \"#utility.yul\":4557:4624   */\n      tag_104\n        /* \"#utility.yul\":4621:4623   */\n      0x1c\n        /* \"#utility.yul\":4616:4619   */\n      dup4\n        /* \"#utility.yul\":4557:4624   */\n      tag_52\n      jump\t// in\n    tag_104:\n        /* \"#utility.yul\":4550:4624   */\n      swap2\n      pop\n        /* \"#utility.yul\":4633:4726   */\n      tag_105\n        /* \"#utility.yul\":4722:4725   */\n      dup3\n        /* \"#utility.yul\":4633:4726   */\n      tag_60\n      jump\t// in\n    tag_105:\n        /* \"#utility.yul\":4751:4753   */\n      0x20\n        /* \"#utility.yul\":4746:4749   */\n      dup3\n        /* \"#utility.yul\":4742:4754   */\n      add\n        /* \"#utility.yul\":4735:4754   */\n      swap1\n      pop\n        /* \"#utility.yul\":4394:4760   */\n      swap2\n      swap1\n      pop\n      jump\t// out\n        /* \"#utility.yul\":4766:5185   */\n    tag_38:\n        /* \"#utility.yul\":4932:4936   */\n      0x00\n        /* \"#utility.yul\":4970:4972   */\n      0x20\n        /* \"#utility.yul\":4959:4968   */\n      dup3\n        /* \"#utility.yul\":4955:4973   */\n      add\n        /* \"#utility.yul\":4947:4973   */\n      swap1\n      pop\n        /* \"#utility.yul\":5019:5028   */\n      dup2\n        /* \"#utility.yul\":5013:5017   */\n      dup2\n        /* \"#utility.yul\":5009:5029   */\n      sub\n        /* \"#utility.yul\":5005:5006   */\n      0x00\n        /* \"#utility.yul\":4994:5003   */\n      dup4\n        /* \"#utility.yul\":4990:5007   */\n      add\n        /* \"#utility.yul\":4983:5030   */\n      mstore\n        /* \"#utility.yul\":5047:5178   */\n      tag_107\n        /* \"#utility.yul\":5173:5177   */\n      dup2\n        /* \"#utility.yul\":5047:5178   */\n      tag_61\n      jump\t// in\n    tag_107:\n        /* \"#utility.yul\":5039:5178   */\n      swap1\n      pop\n        /* \"#utility.yul\":4766:5185   */\n      swap2\n      swap1\n      pop\n      jump\t// out\n        /* \"#utility.yul\":5191:5317   */\n    tag_62:\n        /* \"#utility.yul\":5228:5235   */\n      0x00\n        /* \"#utility.yul\":5268:5310   */\n      0xffffffffffffffffffffffffffffffffffffffff\n        /* \"#utility.yul\":5261:5266   */\n      dup3\n        /* \"#utility.yul\":5257:5311   */\n      and\n        /* \"#utility.yul\":5246:5311   */\n      swap1\n      pop\n        /* \"#utility.yul\":5191:5317   */\n      swap2\n      swap1\n      pop\n      jump\t// out\n        /* \"#utility.yul\":5323:5419   */\n    tag_63:\n        /* \"#utility.yul\":5360:5367   */\n      0x00\n        /* \"#utility.yul\":5389:5413   */\n      tag_110\n        /* \"#utility.yul\":5407:5412   */\n      dup3\n        /* \"#utility.yul\":5389:5413   */\n      tag_62\n      jump\t// in\n    tag_110:\n        /* \"#utility.yul\":5378:5413   */\n      swap1\n      pop\n        /* \"#utility.yul\":5323:5419   */\n      swap2\n      swap1\n      pop\n      jump\t// out\n        /* \"#utility.yul\":5425:5543   */\n    tag_64:\n        /* \"#utility.yul\":5512:5536   */\n      tag_112\n        /* \"#utility.yul\":5530:5535   */\n      dup2\n        /* \"#utility.yul\":5512:5536   */\n      tag_63\n      jump\t// in\n    tag_112:\n        /* \"#utility.yul\":5507:5510   */\n      dup3\n        /* \"#utility.yul\":5500:5537   */\n      mstore\n        /* \"#utility.yul\":5425:5543   */\n      pop\n      pop\n      jump\t// out\n        /* \"#utility.yul\":5549:5626   */\n    tag_65:\n        /* \"#utility.yul\":5586:5593   */\n      0x00\n        /* \"#utility.yul\":5615:5620   */\n      dup2\n        /* \"#utility.yul\":5604:5620   */\n      swap1\n      pop\n        /* \"#utility.yul\":5549:5626   */\n      swap2\n      swap1\n      pop\n      jump\t// out\n        /* \"#utility.yul\":5632:5750   */\n    tag_66:\n        /* \"#utility.yul\":5719:5743   */\n      tag_115\n        /* \"#utility.yul\":5737:5742   */\n      dup2\n        /* \"#utility.yul\":5719:5743   */\n      tag_65\n      jump\t// in\n    tag_115:\n        /* \"#utility.yul\":5714:5717   */\n      dup3\n        /* \"#utility.yul\":5707:5744   */\n      mstore\n        /* \"#utility.yul\":5632:5750   */\n      pop\n      pop\n      jump\t// out\n        /* \"#utility.yul\":5756:6088   */\n    tag_40:\n        /* \"#utility.yul\":5877:5881   */\n      0x00\n        /* \"#utility.yul\":5915:5917   */\n      0x40\n        /* \"#utility.yul\":5904:5913   */\n      dup3\n        /* \"#utility.yul\":5900:5918   */\n      add\n        /* \"#utility.yul\":5892:5918   */\n      swap1\n      pop\n        /* \"#utility.yul\":5928:5999   */\n      tag_117\n        /* \"#utility.yul\":5996:5997   */\n      0x00\n        /* \"#utility.yul\":5985:5994   */\n      dup4\n        /* \"#utility.yul\":5981:5998   */\n      add\n        /* \"#utility.yul\":5972:5978   */\n      dup6\n        /* \"#utility.yul\":5928:5999   */\n      tag_64\n      jump\t// in\n    tag_117:\n        /* \"#utility.yul\":6009:6081   */\n      tag_118\n        /* \"#utility.yul\":6077:6079   */\n      0x20\n        /* \"#utility.yul\":6066:6075   */\n      dup4\n        /* \"#utility.yul\":6062:6080   */\n      add\n        /* \"#utility.yul\":6053:6059   */\n      dup5\n        /* \"#utility.yul\":6009:6081   */\n      tag_66\n      jump\t// in\n    tag_118:\n        /* \"#utility.yul\":5756:6088   */\n      swap4\n      swap3\n      pop\n      pop\n      pop\n      jump\t// out\n        /* \"#utility.yul\":6094:6275   */\n    tag_67:\n        /* \"#utility.yul\":6234:6267   */\n      0x4572726f72203a20796f7520617265206e6f7420686f74656c206f776e657200\n        /* \"#utility.yul\":6230:6231   */\n      0x00\n        /* \"#utility.yul\":6222:6228   */\n      dup3\n        /* \"#utility.yul\":6218:6232   */\n      add\n        /* \"#utility.yul\":6211:6268   */\n      mstore\n        /* \"#utility.yul\":6094:6275   */\n      pop\n      jump\t// out\n        /* \"#utility.yul\":6281:6647   */\n    tag_68:\n        /* \"#utility.yul\":6423:6426   */\n      0x00\n        /* \"#utility.yul\":6444:6511   */\n      tag_121\n        /* \"#utility.yul\":6508:6510   */\n      0x1f\n        /* \"#utility.yul\":6503:6506   */\n      dup4\n        /* \"#utility.yul\":6444:6511   */\n      tag_52\n      jump\t// in\n    tag_121:\n        /* \"#utility.yul\":6437:6511   */\n      swap2\n      pop\n        /* \"#utility.yul\":6520:6613   */\n      tag_122\n        /* \"#utility.yul\":6609:6612   */\n      dup3\n        /* \"#utility.yul\":6520:6613   */\n      tag_67\n      jump\t// in\n    tag_122:\n        /* \"#utility.yul\":6638:6640   */\n      0x20\n        /* \"#utility.yul\":6633:6636   */\n      dup3\n        /* \"#utility.yul\":6629:6641   */\n      add\n        /* \"#utility.yul\":6622:6641   */\n      swap1\n      pop\n        /* \"#utility.yul\":6281:6647   */\n      swap2\n      swap1\n      pop\n      jump\t// out\n        /* \"#utility.yul\":6653:7072   */\n    tag_44:\n        /* \"#utility.yul\":6819:6823   */\n      0x00\n        /* \"#utility.yul\":6857:6859   */\n      0x20\n        /* \"#utility.yul\":6846:6855   */\n      dup3\n        /* \"#utility.yul\":6842:6860   */\n      add\n        /* \"#utility.yul\":6834:6860   */\n      swap1\n      pop\n        /* \"#utility.yul\":6906:6915   */\n      dup2\n        /* \"#utility.yul\":6900:6904   */\n      dup2\n        /* \"#utility.yul\":6896:6916   */\n      sub\n        /* \"#utility.yul\":6892:6893   */\n      0x00\n        /* \"#utility.yul\":6881:6890   */\n      dup4\n        /* \"#utility.yul\":6877:6894   */\n      add\n        /* \"#utility.yul\":6870:6917   */\n      mstore\n        /* \"#utility.yul\":6934:7065   */\n      tag_124\n        /* \"#utility.yul\":7060:7064   */\n      dup2\n        /* \"#utility.yul\":6934:7065   */\n      tag_68\n      jump\t// in\n    tag_124:\n        /* \"#utility.yul\":6926:7065   */\n      swap1\n      pop\n        /* \"#utility.yul\":6653:7072   */\n      swap2\n      swap1\n      pop\n      jump\t// out\n\n    auxdata: 0xa26469706673582212201f0857d1f30ab7f2fc032fb56535fb078272bc38186f7e12f85a9be573d8974964736f6c63430008120033\n}\n",
				"bytecode": {
					"linkReferences": {},
					"object": "6080604052678ac7230489e8000060015534801561001c57600080fd5b50336000806101000a81548173ffffffffffffffffffffffffffffffffffffffff021916908373ffffffffffffffffffffffffffffffffffffffff16021790555060008060146101000a81548160ff021916908360018111156100825761008161008c565b5b02179055506100bb565b7f4e487b7100000000000000000000000000000000000000000000000000000000600052602160045260246000fd5b6106bc806100ca6000396000f3fe6080604052600436106100345760003560e01c806305a8da7214610039578063d826f88f14610043578063ef8a92351461005a575b600080fd5b610041610085565b005b34801561004f57600080fd5b50610058610277565b005b34801561006657600080fd5b5061006f610331565b60405161007c91906103bb565b60405180910390f35b600080600181111561009a57610099610344565b5b600060149054906101000a900460ff1660018111156100bc576100bb610344565b5b146100fc576040517f08c379a00000000000000000000000000000000000000000000000000000000081526004016100f390610433565b60405180910390fd5b600154803411610141576040517f08c379a0000000000000000000000000000000000000000000000000000000008152600401610138906104c5565b60405180910390fd5b6001600060146101000a81548160ff0219169083600181111561016757610166610344565b5b021790555060008060009054906101000a900473ffffffffffffffffffffffffffffffffffffffff1673ffffffffffffffffffffffffffffffffffffffff16346040516101b390610516565b60006040518083038185875af1925050503d80600081146101f0576040519150601f19603f3d011682016040523d82523d6000602084013e6101f5565b606091505b5050905080610239576040517f08c379a000000000000000000000000000000000000000000000000000000000815260040161023090610577565b60405180910390fd5b7fba951166d42eb077151bdecb7cf6027562f04f0143b0c141b1bb0a33eef5d693333460405161026a9291906105f1565b60405180910390a1505050565b60008054906101000a900473ffffffffffffffffffffffffffffffffffffffff1673ffffffffffffffffffffffffffffffffffffffff163373ffffffffffffffffffffffffffffffffffffffff1614610305576040517f08c379a00000000000000000000000000000000000000000000000000000000081526004016102fc90610666565b60405180910390fd5b60008060146101000a81548160ff0219169083600181111561032a57610329610344565b5b0217905550565b600060149054906101000a900460ff1681565b7f4e487b7100000000000000000000000000000000000000000000000000000000600052602160045260246000fd5b6002811061038457610383610344565b5b50565b600081905061039582610373565b919050565b60006103a582610387565b9050919050565b6103b58161039a565b82525050565b60006020820190506103d060008301846103ac565b92915050565b600082825260208201905092915050565b7f4572726f72203a2054686520726f6f6d206973206e6f7420766163616e740000600082015250565b600061041d601e836103d6565b9150610428826103e7565b602082019050919050565b6000602082019050818103600083015261044c81610410565b9050919050565b7f4572726f72203a204e6f7420656e6f7567682065746865722070726f7669646560008201527f6400000000000000000000000000000000000000000000000000000000000000602082015250565b60006104af6021836103d6565b91506104ba82610453565b604082019050919050565b600060208201905081810360008301526104de816104a2565b9050919050565b600081905092915050565b50565b60006105006000836104e5565b915061050b826104f0565b600082019050919050565b6000610521826104f3565b9150819050919050565b7f4572726f72203a204661696c656420746f2073656e6420457468657200000000600082015250565b6000610561601c836103d6565b915061056c8261052b565b602082019050919050565b6000602082019050818103600083015261059081610554565b9050919050565b600073ffffffffffffffffffffffffffffffffffffffff82169050919050565b60006105c282610597565b9050919050565b6105d2816105b7565b82525050565b6000819050919050565b6105eb816105d8565b82525050565b600060408201905061060660008301856105c9565b61061360208301846105e2565b9392505050565b7f4572726f72203a20796f7520617265206e6f7420686f74656c206f776e657200600082015250565b6000610650601f836103d6565b915061065b8261061a565b602082019050919050565b6000602082019050818103600083015261067f81610643565b905091905056fea26469706673582212201f0857d1f30ab7f2fc032fb56535fb078272bc38186f7e12f85a9be573d8974964736f6c63430008120033",
					"opcodes": "PUSH1 0x80 PUSH1 0x40 MSTORE PUSH8 0x8AC7230489E80000 PUSH1 0x1 SSTORE CALLVALUE DUP1 ISZERO PUSH2 0x1C JUMPI PUSH1 0x0 DUP1 REVERT JUMPDEST POP CALLER PUSH1 0x0 DUP1 PUSH2 0x100 EXP DUP2 SLOAD DUP2 PUSH20 0xFFFFFFFFFFFFFFFFFFFFFFFFFFFFFFFFFFFFFFFF MUL NOT AND SWAP1 DUP4 PUSH20 0xFFFFFFFFFFFFFFFFFFFFFFFFFFFFFFFFFFFFFFFF AND MUL OR SWAP1 SSTORE POP PUSH1 0x0 DUP1 PUSH1 0x14 PUSH2 0x100 EXP DUP2 SLOAD DUP2 PUSH1 0xFF MUL NOT AND SWAP1 DUP4 PUSH1 0x1 DUP2 GT ISZERO PUSH2 0x82 JUMPI PUSH2 0x81 PUSH2 0x8C JUMP JUMPDEST JUMPDEST MUL OR SWAP1 SSTORE POP PUSH2 0xBB JUMP JUMPDEST PUSH32 0x4E487B7100000000000000000000000000000000000000000000000000000000 PUSH1 0x0 MSTORE PUSH1 0x21 PUSH1 0x4 MSTORE PUSH1 0x24 PUSH1 0x0 REVERT JUMPDEST PUSH2 0x6BC DUP1 PUSH2 0xCA PUSH1 0x0 CODECOPY PUSH1 0x0 RETURN INVALID PUSH1 0x80 PUSH1 0x40 MSTORE PUSH1 0x4 CALLDATASIZE LT PUSH2 0x34 JUMPI PUSH1 0x0 CALLDATALOAD PUSH1 0xE0 SHR DUP1 PUSH4 0x5A8DA72 EQ PUSH2 0x39 JUMPI DUP1 PUSH4 0xD826F88F EQ PUSH2 0x43 JUMPI DUP1 PUSH4 0xEF8A9235 EQ PUSH2 0x5A JUMPI JUMPDEST PUSH1 0x0 DUP1 REVERT JUMPDEST PUSH2 0x41 PUSH2 0x85 JUMP JUMPDEST STOP JUMPDEST CALLVALUE DUP1 ISZERO PUSH2 0x4F JUMPI PUSH1 0x0 DUP1 REVERT JUMPDEST POP PUSH2 0x58 PUSH2 0x277 JUMP JUMPDEST STOP JUMPDEST CALLVALUE DUP1 ISZERO PUSH2 0x66 JUMPI PUSH1 0x0 DUP1 REVERT JUMPDEST POP PUSH2 0x6F PUSH2 0x331 JUMP JUMPDEST PUSH1 0x40 MLOAD PUSH2 0x7C SWAP2 SWAP1 PUSH2 0x3BB JUMP JUMPDEST PUSH1 0x40 MLOAD DUP1 SWAP2 SUB SWAP1 RETURN JUMPDEST PUSH1 0x0 DUP1 PUSH1 0x1 DUP2 GT ISZERO PUSH2 0x9A JUMPI PUSH2 0x99 PUSH2 0x344 JUMP JUMPDEST JUMPDEST PUSH1 0x0 PUSH1 0x14 SWAP1 SLOAD SWAP1 PUSH2 0x100 EXP SWAP1 DIV PUSH1 0xFF AND PUSH1 0x1 DUP2 GT ISZERO PUSH2 0xBC JUMPI PUSH2 0xBB PUSH2 0x344 JUMP JUMPDEST JUMPDEST EQ PUSH2 0xFC JUMPI PUSH1 0x40 MLOAD PUSH32 0x8C379A000000000000000000000000000000000000000000000000000000000 DUP2 MSTORE PUSH1 0x4 ADD PUSH2 0xF3 SWAP1 PUSH2 0x433 JUMP JUMPDEST PUSH1 0x40 MLOAD DUP1 SWAP2 SUB SWAP1 REVERT JUMPDEST PUSH1 0x1 SLOAD DUP1 CALLVALUE GT PUSH2 0x141 JUMPI PUSH1 0x40 MLOAD PUSH32 0x8C379A000000000000000000000000000000000000000000000000000000000 DUP2 MSTORE PUSH1 0x4 ADD PUSH2 0x138 SWAP1 PUSH2 0x4C5 JUMP JUMPDEST PUSH1 0x40 MLOAD DUP1 SWAP2 SUB SWAP1 REVERT JUMPDEST PUSH1 0x1 PUSH1 0x0 PUSH1 0x14 PUSH2 0x100 EXP DUP2 SLOAD DUP2 PUSH1 0xFF MUL NOT AND SWAP1 DUP4 PUSH1 0x1 DUP2 GT ISZERO PUSH2 0x167 JUMPI PUSH2 0x166 PUSH2 0x344 JUMP JUMPDEST JUMPDEST MUL OR SWAP1 SSTORE POP PUSH1 0x0 DUP1 PUSH1 0x0 SWAP1 SLOAD SWAP1 PUSH2 0x100 EXP SWAP1 DIV PUSH20 0xFFFFFFFFFFFFFFFFFFFFFFFFFFFFFFFFFFFFFFFF AND PUSH20 0xFFFFFFFFFFFFFFFFFFFFFFFFFFFFFFFFFFFFFFFF AND CALLVALUE PUSH1 0x40 MLOAD PUSH2 0x1B3 SWAP1 PUSH2 0x516 JUMP JUMPDEST PUSH1 0x0 PUSH1 0x40 MLOAD DUP1 DUP4 SUB DUP2 DUP6 DUP8 GAS CALL SWAP3 POP POP POP RETURNDATASIZE DUP1 PUSH1 0x0 DUP2 EQ PUSH2 0x1F0 JUMPI PUSH1 0x40 MLOAD SWAP2 POP PUSH1 0x1F NOT PUSH1 0x3F RETURNDATASIZE ADD AND DUP3 ADD PUSH1 0x40 MSTORE RETURNDATASIZE DUP3 MSTORE RETURNDATASIZE PUSH1 0x0 PUSH1 0x20 DUP5 ADD RETURNDATACOPY PUSH2 0x1F5 JUMP JUMPDEST PUSH1 0x60 SWAP2 POP JUMPDEST POP POP SWAP1 POP DUP1 PUSH2 0x239 JUMPI PUSH1 0x40 MLOAD PUSH32 0x8C379A000000000000000000000000000000000000000000000000000000000 DUP2 MSTORE PUSH1 0x4 ADD PUSH2 0x230 SWAP1 PUSH2 0x577 JUMP JUMPDEST PUSH1 0x40 MLOAD DUP1 SWAP2 SUB SWAP1 REVERT JUMPDEST PUSH32 0xBA951166D42EB077151BDECB7CF6027562F04F0143B0C141B1BB0A33EEF5D693 CALLER CALLVALUE PUSH1 0x40 MLOAD PUSH2 0x26A SWAP3 SWAP2 SWAP1 PUSH2 0x5F1 JUMP JUMPDEST PUSH1 0x40 MLOAD DUP1 SWAP2 SUB SWAP1 LOG1 POP POP POP JUMP JUMPDEST PUSH1 0x0 DUP1 SLOAD SWAP1 PUSH2 0x100 EXP SWAP1 DIV PUSH20 0xFFFFFFFFFFFFFFFFFFFFFFFFFFFFFFFFFFFFFFFF AND PUSH20 0xFFFFFFFFFFFFFFFFFFFFFFFFFFFFFFFFFFFFFFFF AND CALLER PUSH20 0xFFFFFFFFFFFFFFFFFFFFFFFFFFFFFFFFFFFFFFFF AND EQ PUSH2 0x305 JUMPI PUSH1 0x40 MLOAD PUSH32 0x8C379A000000000000000000000000000000000000000000000000000000000 DUP2 MSTORE PUSH1 0x4 ADD PUSH2 0x2FC SWAP1 PUSH2 0x666 JUMP JUMPDEST PUSH1 0x40 MLOAD DUP1 SWAP2 SUB SWAP1 REVERT JUMPDEST PUSH1 0x0 DUP1 PUSH1 0x14 PUSH2 0x100 EXP DUP2 SLOAD DUP2 PUSH1 0xFF MUL NOT AND SWAP1 DUP4 PUSH1 0x1 DUP2 GT ISZERO PUSH2 0x32A JUMPI PUSH2 0x329 PUSH2 0x344 JUMP JUMPDEST JUMPDEST MUL OR SWAP1 SSTORE POP JUMP JUMPDEST PUSH1 0x0 PUSH1 0x14 SWAP1 SLOAD SWAP1 PUSH2 0x100 EXP SWAP1 DIV PUSH1 0xFF AND DUP2 JUMP JUMPDEST PUSH32 0x4E487B7100000000000000000000000000000000000000000000000000000000 PUSH1 0x0 MSTORE PUSH1 0x21 PUSH1 0x4 MSTORE PUSH1 0x24 PUSH1 0x0 REVERT JUMPDEST PUSH1 0x2 DUP2 LT PUSH2 0x384 JUMPI PUSH2 0x383 PUSH2 0x344 JUMP JUMPDEST JUMPDEST POP JUMP JUMPDEST PUSH1 0x0 DUP2 SWAP1 POP PUSH2 0x395 DUP3 PUSH2 0x373 JUMP JUMPDEST SWAP2 SWAP1 POP JUMP JUMPDEST PUSH1 0x0 PUSH2 0x3A5 DUP3 PUSH2 0x387 JUMP JUMPDEST SWAP1 POP SWAP2 SWAP1 POP JUMP JUMPDEST PUSH2 0x3B5 DUP2 PUSH2 0x39A JUMP JUMPDEST DUP3 MSTORE POP POP JUMP JUMPDEST PUSH1 0x0 PUSH1 0x20 DUP3 ADD SWAP1 POP PUSH2 0x3D0 PUSH1 0x0 DUP4 ADD DUP5 PUSH2 0x3AC JUMP JUMPDEST SWAP3 SWAP2 POP POP JUMP JUMPDEST PUSH1 0x0 DUP3 DUP3 MSTORE PUSH1 0x20 DUP3 ADD SWAP1 POP SWAP3 SWAP2 POP POP JUMP JUMPDEST PUSH32 0x4572726F72203A2054686520726F6F6D206973206E6F7420766163616E740000 PUSH1 0x0 DUP3 ADD MSTORE POP JUMP JUMPDEST PUSH1 0x0 PUSH2 0x41D PUSH1 0x1E DUP4 PUSH2 0x3D6 JUMP JUMPDEST SWAP2 POP PUSH2 0x428 DUP3 PUSH2 0x3E7 JUMP JUMPDEST PUSH1 0x20 DUP3 ADD SWAP1 POP SWAP2 SWAP1 POP JUMP JUMPDEST PUSH1 0x0 PUSH1 0x20 DUP3 ADD SWAP1 POP DUP2 DUP2 SUB PUSH1 0x0 DUP4 ADD MSTORE PUSH2 0x44C DUP2 PUSH2 0x410 JUMP JUMPDEST SWAP1 POP SWAP2 SWAP1 POP JUMP JUMPDEST PUSH32 0x4572726F72203A204E6F7420656E6F7567682065746865722070726F76696465 PUSH1 0x0 DUP3 ADD MSTORE PUSH32 0x6400000000000000000000000000000000000000000000000000000000000000 PUSH1 0x20 DUP3 ADD MSTORE POP JUMP JUMPDEST PUSH1 0x0 PUSH2 0x4AF PUSH1 0x21 DUP4 PUSH2 0x3D6 JUMP JUMPDEST SWAP2 POP PUSH2 0x4BA DUP3 PUSH2 0x453 JUMP JUMPDEST PUSH1 0x40 DUP3 ADD SWAP1 POP SWAP2 SWAP1 POP JUMP JUMPDEST PUSH1 0x0 PUSH1 0x20 DUP3 ADD SWAP1 POP DUP2 DUP2 SUB PUSH1 0x0 DUP4 ADD MSTORE PUSH2 0x4DE DUP2 PUSH2 0x4A2 JUMP JUMPDEST SWAP1 POP SWAP2 SWAP1 POP JUMP JUMPDEST PUSH1 0x0 DUP2 SWAP1 POP SWAP3 SWAP2 POP POP JUMP JUMPDEST POP JUMP JUMPDEST PUSH1 0x0 PUSH2 0x500 PUSH1 0x0 DUP4 PUSH2 0x4E5 JUMP JUMPDEST SWAP2 POP PUSH2 0x50B DUP3 PUSH2 0x4F0 JUMP JUMPDEST PUSH1 0x0 DUP3 ADD SWAP1 POP SWAP2 SWAP1 POP JUMP JUMPDEST PUSH1 0x0 PUSH2 0x521 DUP3 PUSH2 0x4F3 JUMP JUMPDEST SWAP2 POP DUP2 SWAP1 POP SWAP2 SWAP1 POP JUMP JUMPDEST PUSH32 0x4572726F72203A204661696C656420746F2073656E6420457468657200000000 PUSH1 0x0 DUP3 ADD MSTORE POP JUMP JUMPDEST PUSH1 0x0 PUSH2 0x561 PUSH1 0x1C DUP4 PUSH2 0x3D6 JUMP JUMPDEST SWAP2 POP PUSH2 0x56C DUP3 PUSH2 0x52B JUMP JUMPDEST PUSH1 0x20 DUP3 ADD SWAP1 POP SWAP2 SWAP1 POP JUMP JUMPDEST PUSH1 0x0 PUSH1 0x20 DUP3 ADD SWAP1 POP DUP2 DUP2 SUB PUSH1 0x0 DUP4 ADD MSTORE PUSH2 0x590 DUP2 PUSH2 0x554 JUMP JUMPDEST SWAP1 POP SWAP2 SWAP1 POP JUMP JUMPDEST PUSH1 0x0 PUSH20 0xFFFFFFFFFFFFFFFFFFFFFFFFFFFFFFFFFFFFFFFF DUP3 AND SWAP1 POP SWAP2 SWAP1 POP JUMP JUMPDEST PUSH1 0x0 PUSH2 0x5C2 DUP3 PUSH2 0x597 JUMP JUMPDEST SWAP1 POP SWAP2 SWAP1 POP JUMP JUMPDEST PUSH2 0x5D2 DUP2 PUSH2 0x5B7 JUMP JUMPDEST DUP3 MSTORE POP POP JUMP JUMPDEST PUSH1 0x0 DUP2 SWAP1 POP SWAP2 SWAP1 POP JUMP JUMPDEST PUSH2 0x5EB DUP2 PUSH2 0x5D8 JUMP JUMPDEST DUP3 MSTORE POP POP JUMP JUMPDEST PUSH1 0x0 PUSH1 0x40 DUP3 ADD SWAP1 POP PUSH2 0x606 PUSH1 0x0 DUP4 ADD DUP6 PUSH2 0x5C9 JUMP JUMPDEST PUSH2 0x613 PUSH1 0x20 DUP4 ADD DUP5 PUSH2 0x5E2 JUMP JUMPDEST SWAP4 SWAP3 POP POP POP JUMP JUMPDEST PUSH32 0x4572726F72203A20796F7520617265206E6F7420686F74656C206F776E657200 PUSH1 0x0 DUP3 ADD MSTORE POP JUMP JUMPDEST PUSH1 0x0 PUSH2 0x650 PUSH1 0x1F DUP4 PUSH2 0x3D6 JUMP JUMPDEST SWAP2 POP PUSH2 0x65B DUP3 PUSH2 0x61A JUMP JUMPDEST PUSH1 0x20 DUP3 ADD SWAP1 POP SWAP2 SWAP1 POP JUMP JUMPDEST PUSH1 0x0 PUSH1 0x20 DUP3 ADD SWAP1 POP DUP2 DUP2 SUB PUSH1 0x0 DUP4 ADD MSTORE PUSH2 0x67F DUP2 PUSH2 0x643 JUMP JUMPDEST SWAP1 POP SWAP2 SWAP1 POP JUMP INVALID LOG2 PUSH5 0x6970667358 0x22 SLT KECCAK256 0x1F ADDMOD JUMPI 0xD1 RETURN EXP 0xB7 CALLCODE 0xFC SUB 0x2F 0xB5 PUSH6 0x35FB078272BC CODESIZE XOR PUSH16 0x7E12F85A9BE573D8974964736F6C6343 STOP ADDMOD SLT STOP CALLER "
				},
				"gasEstimates": {
					"creation": {
						"codeDepositCost": "344800",
						"executionCost": "71101",
						"totalCost": "415901"
					},
					"external": {
						"book()": "infinite",
						"currentStatus()": "2632",
						"reset()": "26648"
					}
				},
				"methodIdentifiers": {
					"book()": "05a8da72",
					"currentStatus()": "ef8a9235",
					"reset()": "d826f88f"
				}
			},
			"storageLayout": {
				"storage": [
					{
						"astId": 6,
						"contract": "Final Exam/HotelBooking.sol:HotelRoom",
						"label": "owner",
						"offset": 0,
						"slot": "0",
						"type": "t_address_payable"
					},
					{
						"astId": 15,
						"contract": "Final Exam/HotelBooking.sol:HotelRoom",
						"label": "currentStatus",
						"offset": 20,
						"slot": "0",
						"type": "t_enum(Status)4"
					},
					{
						"astId": 18,
						"contract": "Final Exam/HotelBooking.sol:HotelRoom",
						"label": "amount",
						"offset": 0,
						"slot": "1",
						"type": "t_uint256"
					}
				],
				"types": {
					"t_address_payable": {
						"encoding": "inplace",
						"label": "address payable",
						"numberOfBytes": "20"
					},
					"t_enum(Status)4": {
						"encoding": "inplace",
						"label": "enum HotelRoom.Status",
						"numberOfBytes": "1"
					},
					"t_uint256": {
						"encoding": "inplace",
						"label": "uint256",
						"numberOfBytes": "32"
					}
				}
			},
			"userdoc": {
				"kind": "user",
				"methods": {},
				"version": 1
			}
		}
	}
}