{
	"Final Exam/NameRegistry.sol": {
		"NameRegistry": {
			"abi": [
				{
					"inputs": [],
					"stateMutability": "nonpayable",
					"type": "constructor"
				},
				{
					"inputs": [
						{
							"internalType": "string",
							"name": "_name",
							"type": "string"
						},
						{
							"internalType": "address",
							"name": "_newOwner",
							"type": "address"
						}
					],
					"name": "changerOwner",
					"outputs": [],
					"stateMutability": "nonpayable",
					"type": "function"
				},
				{
					"inputs": [
						{
							"internalType": "string",
							"name": "_name",
							"type": "string"
						}
					],
					"name": "getAddress",
					"outputs": [
						{
							"internalType": "address",
							"name": "",
							"type": "address"
						}
					],
					"stateMutability": "view",
					"type": "function"
				},
				{
					"inputs": [
						{
							"internalType": "string",
							"name": "_name",
							"type": "string"
						}
					],
					"name": "getDescription",
					"outputs": [
						{
							"internalType": "string",
							"name": "",
							"type": "string"
						}
					],
					"stateMutability": "view",
					"type": "function"
				},
				{
					"inputs": [
						{
							"internalType": "string",
							"name": "_name",
							"type": "string"
						}
					],
					"name": "getOwner",
					"outputs": [
						{
							"internalType": "address",
							"name": "",
							"type": "address"
						}
					],
					"stateMutability": "view",
					"type": "function"
				},
				{
					"inputs": [],
					"name": "numContracts",
					"outputs": [
						{
							"internalType": "uint256",
							"name": "",
							"type": "uint256"
						}
					],
					"stateMutability": "view",
					"type": "function"
				},
				{
					"inputs": [
						{
							"internalType": "string",
							"name": "_name",
							"type": "string"
						},
						{
							"internalType": "address",
							"name": "_contractAddress",
							"type": "address"
						},
						{
							"internalType": "string",
							"name": "_description",
							"type": "string"
						}
					],
					"name": "registerContract",
					"outputs": [],
					"stateMutability": "nonpayable",
					"type": "function"
				},
				{
					"inputs": [
						{
							"internalType": "string",
							"name": "",
							"type": "string"
						}
					],
					"name": "registeredContracts",
					"outputs": [
						{
							"internalType": "address",
							"name": "contractOwner",
							"type": "address"
						},
						{
							"internalType": "address",
							"name": "contractAddress",
							"type": "address"
						},
						{
							"internalType": "string",
							"name": "description",
							"type": "string"
						}
					],
					"stateMutability": "view",
					"type": "function"
				},
				{
					"inputs": [
						{
							"internalType": "string",
							"name": "_name",
							"type": "string"
						},
						{
							"internalType": "address",
							"name": "_addr",
							"type": "address"
						}
					],
					"name": "setAddress",
					"outputs": [],
					"stateMutability": "nonpayable",
					"type": "function"
				},
				{
					"inputs": [
						{
							"internalType": "string",
							"name": "_name",
							"type": "string"
						},
						{
							"internalType": "string",
							"name": "_description",
							"type": "string"
						}
					],
					"name": "setDescription",
					"outputs": [],
					"stateMutability": "nonpayable",
					"type": "function"
				},
				{
					"inputs": [
						{
							"internalType": "string",
							"name": "_name",
							"type": "string"
						}
					],
					"name": "unregisterContract",
					"outputs": [],
					"stateMutability": "nonpayable",
					"type": "function"
				}
			],
			"devdoc": {
				"kind": "dev",
				"methods": {},
				"version": 1
			},
			"evm": {
				"assembly": "    /* \"Final Exam/NameRegistry.sol\":57:2501  contract NameRegistry {... */\n  mstore(0x40, 0x80)\n    /* \"Final Exam/NameRegistry.sol\":471:518  constructor() {... */\n  callvalue\n  dup1\n  iszero\n  tag_1\n  jumpi\n  0x00\n  dup1\n  revert\ntag_1:\n  pop\n    /* \"Final Exam/NameRegistry.sol\":510:511  0 */\n  0x00\n    /* \"Final Exam/NameRegistry.sol\":495:507  numContracts */\n  dup1\n    /* \"Final Exam/NameRegistry.sol\":495:511  numContracts = 0 */\n  dup2\n  swap1\n  sstore\n  pop\n    /* \"Final Exam/NameRegistry.sol\":57:2501  contract NameRegistry {... */\n  dataSize(sub_0)\n  dup1\n  dataOffset(sub_0)\n  0x00\n  codecopy\n  0x00\n  return\nstop\n\nsub_0: assembly {\n        /* \"Final Exam/NameRegistry.sol\":57:2501  contract NameRegistry {... */\n      mstore(0x40, 0x80)\n      callvalue\n      dup1\n      iszero\n      tag_1\n      jumpi\n      0x00\n      dup1\n      revert\n    tag_1:\n      pop\n      jumpi(tag_2, lt(calldatasize, 0x04))\n      shr(0xe0, calldataload(0x00))\n      dup1\n      0x95e712f1\n      gt\n      tag_13\n      jumpi\n      dup1\n      0x95e712f1\n      eq\n      tag_8\n      jumpi\n      dup1\n      0x98fd3835\n      eq\n      tag_9\n      jumpi\n      dup1\n      0x9b2ea4bd\n      eq\n      tag_10\n      jumpi\n      dup1\n      0xa738e975\n      eq\n      tag_11\n      jumpi\n      dup1\n      0xbf40fac1\n      eq\n      tag_12\n      jumpi\n      jump(tag_2)\n    tag_13:\n      dup1\n      0x035e7709\n      eq\n      tag_3\n      jumpi\n      dup1\n      0x45de2ca0\n      eq\n      tag_4\n      jumpi\n      dup1\n      0x4aaf4a12\n      eq\n      tag_5\n      jumpi\n      dup1\n      0x524d81d3\n      eq\n      tag_6\n      jumpi\n      dup1\n      0x6755d456\n      eq\n      tag_7\n      jumpi\n    tag_2:\n      0x00\n      dup1\n      revert\n        /* \"Final Exam/NameRegistry.sol\":1010:1315  function unregisterContract(... */\n    tag_3:\n      tag_14\n      0x04\n      dup1\n      calldatasize\n      sub\n      dup2\n      add\n      swap1\n      tag_15\n      swap2\n      swap1\n      tag_16\n      jump\t// in\n    tag_15:\n      tag_17\n      jump\t// in\n    tag_14:\n      stop\n        /* \"Final Exam/NameRegistry.sol\":2315:2499  function getDescription(... */\n    tag_4:\n      tag_18\n      0x04\n      dup1\n      calldatasize\n      sub\n      dup2\n      add\n      swap1\n      tag_19\n      swap2\n      swap1\n      tag_16\n      jump\t// in\n    tag_19:\n      tag_20\n      jump\t// in\n    tag_18:\n      mload(0x40)\n      tag_21\n      swap2\n      swap1\n      tag_22\n      jump\t// in\n    tag_21:\n      mload(0x40)\n      dup1\n      swap2\n      sub\n      swap1\n      return\n        /* \"Final Exam/NameRegistry.sol\":1531:1705  function getOwner(... */\n    tag_5:\n      tag_23\n      0x04\n      dup1\n      calldatasize\n      sub\n      dup2\n      add\n      swap1\n      tag_24\n      swap2\n      swap1\n      tag_16\n      jump\t// in\n    tag_24:\n      tag_25\n      jump\t// in\n    tag_23:\n      mload(0x40)\n      tag_26\n      swap2\n      swap1\n      tag_27\n      jump\t// in\n    tag_26:\n      mload(0x40)\n      dup1\n      swap2\n      sub\n      swap1\n      return\n        /* \"Final Exam/NameRegistry.sol\":210:234  uint public numContracts */\n    tag_6:\n      tag_28\n      tag_29\n      jump\t// in\n    tag_28:\n      mload(0x40)\n      tag_30\n      swap2\n      swap1\n      tag_31\n      jump\t// in\n    tag_30:\n      mload(0x40)\n      dup1\n      swap2\n      sub\n      swap1\n      return\n        /* \"Final Exam/NameRegistry.sol\":2097:2305  function setDescription(... */\n    tag_7:\n      tag_32\n      0x04\n      dup1\n      calldatasize\n      sub\n      dup2\n      add\n      swap1\n      tag_33\n      swap2\n      swap1\n      tag_34\n      jump\t// in\n    tag_33:\n      tag_35\n      jump\t// in\n    tag_32:\n      stop\n        /* \"Final Exam/NameRegistry.sol\":1325:1521  function changerOwner(... */\n    tag_8:\n      tag_36\n      0x04\n      dup1\n      calldatasize\n      sub\n      dup2\n      add\n      swap1\n      tag_37\n      swap2\n      swap1\n      tag_38\n      jump\t// in\n    tag_37:\n      tag_39\n      jump\t// in\n    tag_36:\n      stop\n        /* \"Final Exam/NameRegistry.sol\":240:298  mapping(string => ContractInfo) public registeredContracts */\n    tag_9:\n      tag_40\n      0x04\n      dup1\n      calldatasize\n      sub\n      dup2\n      add\n      swap1\n      tag_41\n      swap2\n      swap1\n      tag_16\n      jump\t// in\n    tag_41:\n      tag_42\n      jump\t// in\n    tag_40:\n      mload(0x40)\n      tag_43\n      swap4\n      swap3\n      swap2\n      swap1\n      tag_44\n      jump\t// in\n    tag_43:\n      mload(0x40)\n      dup1\n      swap2\n      sub\n      swap1\n      return\n        /* \"Final Exam/NameRegistry.sol\":1711:1899  function setAddress(... */\n    tag_10:\n      tag_45\n      0x04\n      dup1\n      calldatasize\n      sub\n      dup2\n      add\n      swap1\n      tag_46\n      swap2\n      swap1\n      tag_38\n      jump\t// in\n    tag_46:\n      tag_47\n      jump\t// in\n    tag_45:\n      stop\n        /* \"Final Exam/NameRegistry.sol\":524:1004  function registerContract(... */\n    tag_11:\n      tag_48\n      0x04\n      dup1\n      calldatasize\n      sub\n      dup2\n      add\n      swap1\n      tag_49\n      swap2\n      swap1\n      tag_50\n      jump\t// in\n    tag_49:\n      tag_51\n      jump\t// in\n    tag_48:\n      stop\n        /* \"Final Exam/NameRegistry.sol\":1909:2087  function getAddress(... */\n    tag_12:\n      tag_52\n      0x04\n      dup1\n      calldatasize\n      sub\n      dup2\n      add\n      swap1\n      tag_53\n      swap2\n      swap1\n      tag_16\n      jump\t// in\n    tag_53:\n      tag_54\n      jump\t// in\n    tag_52:\n      mload(0x40)\n      tag_55\n      swap2\n      swap1\n      tag_27\n      jump\t// in\n    tag_55:\n      mload(0x40)\n      dup1\n      swap2\n      sub\n      swap1\n      return\n        /* \"Final Exam/NameRegistry.sol\":1010:1315  function unregisterContract(... */\n    tag_17:\n        /* \"Final Exam/NameRegistry.sol\":1101:1106  _name */\n      dup1\n        /* \"Final Exam/NameRegistry.sol\":407:417  msg.sender */\n      caller\n        /* \"Final Exam/NameRegistry.sol\":363:417  registeredContracts[_name].contractOwner == msg.sender */\n      0xffffffffffffffffffffffffffffffffffffffff\n      and\n        /* \"Final Exam/NameRegistry.sol\":363:382  registeredContracts */\n      0x01\n        /* \"Final Exam/NameRegistry.sol\":383:388  _name */\n      dup3\n        /* \"Final Exam/NameRegistry.sol\":363:389  registeredContracts[_name] */\n      mload(0x40)\n      tag_57\n      swap2\n      swap1\n      tag_58\n      jump\t// in\n    tag_57:\n      swap1\n      dup2\n      mstore\n      0x20\n      add\n      mload(0x40)\n      dup1\n      swap2\n      sub\n      swap1\n      keccak256\n        /* \"Final Exam/NameRegistry.sol\":363:403  registeredContracts[_name].contractOwner */\n      0x00\n      add\n      0x00\n      swap1\n      sload\n      swap1\n      0x0100\n      exp\n      swap1\n      div\n      0xffffffffffffffffffffffffffffffffffffffff\n      and\n        /* \"Final Exam/NameRegistry.sol\":363:417  registeredContracts[_name].contractOwner == msg.sender */\n      0xffffffffffffffffffffffffffffffffffffffff\n      and\n      eq\n        /* \"Final Exam/NameRegistry.sol\":355:447  require(registeredContracts[_name].contractOwner == msg.sender, \"Error : you are not owner\") */\n      tag_59\n      jumpi\n      mload(0x40)\n      0x08c379a000000000000000000000000000000000000000000000000000000000\n      dup2\n      mstore\n      0x04\n      add\n      tag_60\n      swap1\n      tag_61\n      jump\t// in\n    tag_60:\n      mload(0x40)\n      dup1\n      swap2\n      sub\n      swap1\n      revert\n    tag_59:\n        /* \"Final Exam/NameRegistry.sol\":1182:1183  0 */\n      0x00\n        /* \"Final Exam/NameRegistry.sol\":1130:1184  registeredContracts[_name].contractOwner != address(0) */\n      0xffffffffffffffffffffffffffffffffffffffff\n      and\n        /* \"Final Exam/NameRegistry.sol\":1130:1149  registeredContracts */\n      0x01\n        /* \"Final Exam/NameRegistry.sol\":1150:1155  _name */\n      dup4\n        /* \"Final Exam/NameRegistry.sol\":1130:1156  registeredContracts[_name] */\n      mload(0x40)\n      tag_63\n      swap2\n      swap1\n      tag_58\n      jump\t// in\n    tag_63:\n      swap1\n      dup2\n      mstore\n      0x20\n      add\n      mload(0x40)\n      dup1\n      swap2\n      sub\n      swap1\n      keccak256\n        /* \"Final Exam/NameRegistry.sol\":1130:1170  registeredContracts[_name].contractOwner */\n      0x00\n      add\n      0x00\n      swap1\n      sload\n      swap1\n      0x0100\n      exp\n      swap1\n      div\n      0xffffffffffffffffffffffffffffffffffffffff\n      and\n        /* \"Final Exam/NameRegistry.sol\":1130:1184  registeredContracts[_name].contractOwner != address(0) */\n      0xffffffffffffffffffffffffffffffffffffffff\n      and\n      sub\n        /* \"Final Exam/NameRegistry.sol\":1122:1229  require(registeredContracts[_name].contractOwner != address(0), \"Error : you are not registed our system!\") */\n      tag_64\n      jumpi\n      mload(0x40)\n      0x08c379a000000000000000000000000000000000000000000000000000000000\n      dup2\n      mstore\n      0x04\n      add\n      tag_65\n      swap1\n      tag_66\n      jump\t// in\n    tag_65:\n      mload(0x40)\n      dup1\n      swap2\n      sub\n      swap1\n      revert\n    tag_64:\n        /* \"Final Exam/NameRegistry.sol\":1250:1269  registeredContracts */\n      0x01\n        /* \"Final Exam/NameRegistry.sol\":1270:1275  _name */\n      dup3\n        /* \"Final Exam/NameRegistry.sol\":1250:1276  registeredContracts[_name] */\n      mload(0x40)\n      tag_67\n      swap2\n      swap1\n      tag_58\n      jump\t// in\n    tag_67:\n      swap1\n      dup2\n      mstore\n      0x20\n      add\n      mload(0x40)\n      dup1\n      swap2\n      sub\n      swap1\n      keccak256\n      0x00\n        /* \"Final Exam/NameRegistry.sol\":1243:1276  delete registeredContracts[_name] */\n      dup1\n      dup3\n      add\n      exp(0x0100, 0x00)\n      dup2\n      sload\n      swap1\n      0xffffffffffffffffffffffffffffffffffffffff\n      mul\n      not\n      and\n      swap1\n      sstore\n      0x01\n      dup3\n      add\n      exp(0x0100, 0x00)\n      dup2\n      sload\n      swap1\n      0xffffffffffffffffffffffffffffffffffffffff\n      mul\n      not\n      and\n      swap1\n      sstore\n      0x02\n      dup3\n      add\n      0x00\n      tag_68\n      swap2\n      swap1\n      tag_69\n      jump\t// in\n    tag_68:\n      pop\n      pop\n        /* \"Final Exam/NameRegistry.sol\":1290:1302  numContracts */\n      0x00\n      dup1\n        /* \"Final Exam/NameRegistry.sol\":1290:1304  numContracts-- */\n      dup2\n      sload\n      dup1\n      swap3\n      swap2\n      swap1\n      tag_70\n      swap1\n      tag_71\n      jump\t// in\n    tag_70:\n      swap2\n      swap1\n      pop\n      sstore\n      pop\n        /* \"Final Exam/NameRegistry.sol\":1010:1315  function unregisterContract(... */\n      pop\n      pop\n      jump\t// out\n        /* \"Final Exam/NameRegistry.sol\":2315:2499  function getDescription(... */\n    tag_20:\n        /* \"Final Exam/NameRegistry.sol\":2414:2427  string memory */\n      0x60\n        /* \"Final Exam/NameRegistry.sol\":2450:2469  registeredContracts */\n      0x01\n        /* \"Final Exam/NameRegistry.sol\":2470:2475  _name */\n      dup3\n        /* \"Final Exam/NameRegistry.sol\":2450:2476  registeredContracts[_name] */\n      mload(0x40)\n      tag_73\n      swap2\n      swap1\n      tag_58\n      jump\t// in\n    tag_73:\n      swap1\n      dup2\n      mstore\n      0x20\n      add\n      mload(0x40)\n      dup1\n      swap2\n      sub\n      swap1\n      keccak256\n        /* \"Final Exam/NameRegistry.sol\":2450:2488  registeredContracts[_name].description */\n      0x02\n      add\n        /* \"Final Exam/NameRegistry.sol\":2443:2488  return registeredContracts[_name].description */\n      dup1\n      sload\n      tag_74\n      swap1\n      tag_75\n      jump\t// in\n    tag_74:\n      dup1\n      0x1f\n      add\n      0x20\n      dup1\n      swap2\n      div\n      mul\n      0x20\n      add\n      mload(0x40)\n      swap1\n      dup2\n      add\n      0x40\n      mstore\n      dup1\n      swap3\n      swap2\n      swap1\n      dup2\n      dup2\n      mstore\n      0x20\n      add\n      dup3\n      dup1\n      sload\n      tag_76\n      swap1\n      tag_75\n      jump\t// in\n    tag_76:\n      dup1\n      iszero\n      tag_77\n      jumpi\n      dup1\n      0x1f\n      lt\n      tag_78\n      jumpi\n      0x0100\n      dup1\n      dup4\n      sload\n      div\n      mul\n      dup4\n      mstore\n      swap2\n      0x20\n      add\n      swap2\n      jump(tag_77)\n    tag_78:\n      dup3\n      add\n      swap2\n      swap1\n      0x00\n      mstore\n      keccak256(0x00, 0x20)\n      swap1\n    tag_79:\n      dup2\n      sload\n      dup2\n      mstore\n      swap1\n      0x01\n      add\n      swap1\n      0x20\n      add\n      dup1\n      dup4\n      gt\n      tag_79\n      jumpi\n      dup3\n      swap1\n      sub\n      0x1f\n      and\n      dup3\n      add\n      swap2\n    tag_77:\n      pop\n      pop\n      pop\n      pop\n      pop\n      swap1\n      pop\n        /* \"Final Exam/NameRegistry.sol\":2315:2499  function getDescription(... */\n      swap2\n      swap1\n      pop\n      jump\t// out\n        /* \"Final Exam/NameRegistry.sol\":1531:1705  function getOwner(... */\n    tag_25:\n        /* \"Final Exam/NameRegistry.sol\":1624:1631  address */\n      0x00\n        /* \"Final Exam/NameRegistry.sol\":1654:1673  registeredContracts */\n      0x01\n        /* \"Final Exam/NameRegistry.sol\":1674:1679  _name */\n      dup3\n        /* \"Final Exam/NameRegistry.sol\":1654:1680  registeredContracts[_name] */\n      mload(0x40)\n      tag_81\n      swap2\n      swap1\n      tag_58\n      jump\t// in\n    tag_81:\n      swap1\n      dup2\n      mstore\n      0x20\n      add\n      mload(0x40)\n      dup1\n      swap2\n      sub\n      swap1\n      keccak256\n        /* \"Final Exam/NameRegistry.sol\":1654:1694  registeredContracts[_name].contractOwner */\n      0x00\n      add\n      0x00\n      swap1\n      sload\n      swap1\n      0x0100\n      exp\n      swap1\n      div\n      0xffffffffffffffffffffffffffffffffffffffff\n      and\n        /* \"Final Exam/NameRegistry.sol\":1647:1694  return registeredContracts[_name].contractOwner */\n      swap1\n      pop\n        /* \"Final Exam/NameRegistry.sol\":1531:1705  function getOwner(... */\n      swap2\n      swap1\n      pop\n      jump\t// out\n        /* \"Final Exam/NameRegistry.sol\":210:234  uint public numContracts */\n    tag_29:\n      sload(0x00)\n      dup2\n      jump\t// out\n        /* \"Final Exam/NameRegistry.sol\":2097:2305  function setDescription(... */\n    tag_35:\n        /* \"Final Exam/NameRegistry.sol\":2220:2225  _name */\n      dup2\n        /* \"Final Exam/NameRegistry.sol\":407:417  msg.sender */\n      caller\n        /* \"Final Exam/NameRegistry.sol\":363:417  registeredContracts[_name].contractOwner == msg.sender */\n      0xffffffffffffffffffffffffffffffffffffffff\n      and\n        /* \"Final Exam/NameRegistry.sol\":363:382  registeredContracts */\n      0x01\n        /* \"Final Exam/NameRegistry.sol\":383:388  _name */\n      dup3\n        /* \"Final Exam/NameRegistry.sol\":363:389  registeredContracts[_name] */\n      mload(0x40)\n      tag_83\n      swap2\n      swap1\n      tag_58\n      jump\t// in\n    tag_83:\n      swap1\n      dup2\n      mstore\n      0x20\n      add\n      mload(0x40)\n      dup1\n      swap2\n      sub\n      swap1\n      keccak256\n        /* \"Final Exam/NameRegistry.sol\":363:403  registeredContracts[_name].contractOwner */\n      0x00\n      add\n      0x00\n      swap1\n      sload\n      swap1\n      0x0100\n      exp\n      swap1\n      div\n      0xffffffffffffffffffffffffffffffffffffffff\n      and\n        /* \"Final Exam/NameRegistry.sol\":363:417  registeredContracts[_name].contractOwner == msg.sender */\n      0xffffffffffffffffffffffffffffffffffffffff\n      and\n      eq\n        /* \"Final Exam/NameRegistry.sol\":355:447  require(registeredContracts[_name].contractOwner == msg.sender, \"Error : you are not owner\") */\n      tag_84\n      jumpi\n      mload(0x40)\n      0x08c379a000000000000000000000000000000000000000000000000000000000\n      dup2\n      mstore\n      0x04\n      add\n      tag_85\n      swap1\n      tag_61\n      jump\t// in\n    tag_85:\n      mload(0x40)\n      dup1\n      swap2\n      sub\n      swap1\n      revert\n    tag_84:\n        /* \"Final Exam/NameRegistry.sol\":2282:2294  _description */\n      dup2\n        /* \"Final Exam/NameRegistry.sol\":2241:2260  registeredContracts */\n      0x01\n        /* \"Final Exam/NameRegistry.sol\":2261:2266  _name */\n      dup5\n        /* \"Final Exam/NameRegistry.sol\":2241:2267  registeredContracts[_name] */\n      mload(0x40)\n      tag_87\n      swap2\n      swap1\n      tag_58\n      jump\t// in\n    tag_87:\n      swap1\n      dup2\n      mstore\n      0x20\n      add\n      mload(0x40)\n      dup1\n      swap2\n      sub\n      swap1\n      keccak256\n        /* \"Final Exam/NameRegistry.sol\":2241:2279  registeredContracts[_name].description */\n      0x02\n      add\n        /* \"Final Exam/NameRegistry.sol\":2241:2294  registeredContracts[_name].description = _description */\n      swap1\n      dup2\n      tag_88\n      swap2\n      swap1\n      tag_89\n      jump\t// in\n    tag_88:\n      pop\n        /* \"Final Exam/NameRegistry.sol\":2097:2305  function setDescription(... */\n      pop\n      pop\n      pop\n      jump\t// out\n        /* \"Final Exam/NameRegistry.sol\":1325:1521  function changerOwner(... */\n    tag_39:\n        /* \"Final Exam/NameRegistry.sol\":1437:1442  _name */\n      dup2\n        /* \"Final Exam/NameRegistry.sol\":407:417  msg.sender */\n      caller\n        /* \"Final Exam/NameRegistry.sol\":363:417  registeredContracts[_name].contractOwner == msg.sender */\n      0xffffffffffffffffffffffffffffffffffffffff\n      and\n        /* \"Final Exam/NameRegistry.sol\":363:382  registeredContracts */\n      0x01\n        /* \"Final Exam/NameRegistry.sol\":383:388  _name */\n      dup3\n        /* \"Final Exam/NameRegistry.sol\":363:389  registeredContracts[_name] */\n      mload(0x40)\n      tag_91\n      swap2\n      swap1\n      tag_58\n      jump\t// in\n    tag_91:\n      swap1\n      dup2\n      mstore\n      0x20\n      add\n      mload(0x40)\n      dup1\n      swap2\n      sub\n      swap1\n      keccak256\n        /* \"Final Exam/NameRegistry.sol\":363:403  registeredContracts[_name].contractOwner */\n      0x00\n      add\n      0x00\n      swap1\n      sload\n      swap1\n      0x0100\n      exp\n      swap1\n      div\n      0xffffffffffffffffffffffffffffffffffffffff\n      and\n        /* \"Final Exam/NameRegistry.sol\":363:417  registeredContracts[_name].contractOwner == msg.sender */\n      0xffffffffffffffffffffffffffffffffffffffff\n      and\n      eq\n        /* \"Final Exam/NameRegistry.sol\":355:447  require(registeredContracts[_name].contractOwner == msg.sender, \"Error : you are not owner\") */\n      tag_92\n      jumpi\n      mload(0x40)\n      0x08c379a000000000000000000000000000000000000000000000000000000000\n      dup2\n      mstore\n      0x04\n      add\n      tag_93\n      swap1\n      tag_61\n      jump\t// in\n    tag_93:\n      mload(0x40)\n      dup1\n      swap2\n      sub\n      swap1\n      revert\n    tag_92:\n        /* \"Final Exam/NameRegistry.sol\":1501:1510  _newOwner */\n      dup2\n        /* \"Final Exam/NameRegistry.sol\":1458:1477  registeredContracts */\n      0x01\n        /* \"Final Exam/NameRegistry.sol\":1478:1483  _name */\n      dup5\n        /* \"Final Exam/NameRegistry.sol\":1458:1484  registeredContracts[_name] */\n      mload(0x40)\n      tag_95\n      swap2\n      swap1\n      tag_58\n      jump\t// in\n    tag_95:\n      swap1\n      dup2\n      mstore\n      0x20\n      add\n      mload(0x40)\n      dup1\n      swap2\n      sub\n      swap1\n      keccak256\n        /* \"Final Exam/NameRegistry.sol\":1458:1498  registeredContracts[_name].contractOwner */\n      0x00\n      add\n      0x00\n        /* \"Final Exam/NameRegistry.sol\":1458:1510  registeredContracts[_name].contractOwner = _newOwner */\n      0x0100\n      exp\n      dup2\n      sload\n      dup2\n      0xffffffffffffffffffffffffffffffffffffffff\n      mul\n      not\n      and\n      swap1\n      dup4\n      0xffffffffffffffffffffffffffffffffffffffff\n      and\n      mul\n      or\n      swap1\n      sstore\n      pop\n        /* \"Final Exam/NameRegistry.sol\":1325:1521  function changerOwner(... */\n      pop\n      pop\n      pop\n      jump\t// out\n        /* \"Final Exam/NameRegistry.sol\":240:298  mapping(string => ContractInfo) public registeredContracts */\n    tag_42:\n      0x01\n      dup2\n      dup1\n      mload\n      0x20\n      dup2\n      add\n      dup3\n      add\n      dup1\n      mload\n      dup5\n      dup3\n      mstore\n      0x20\n      dup4\n      add\n      0x20\n      dup6\n      add\n      keccak256\n      dup2\n      dup4\n      mstore\n      dup1\n      swap6\n      pop\n      pop\n      pop\n      pop\n      pop\n      pop\n      0x00\n      swap2\n      pop\n      swap1\n      pop\n      dup1\n      0x00\n      add\n      0x00\n      swap1\n      sload\n      swap1\n      0x0100\n      exp\n      swap1\n      div\n      0xffffffffffffffffffffffffffffffffffffffff\n      and\n      swap1\n      dup1\n      0x01\n      add\n      0x00\n      swap1\n      sload\n      swap1\n      0x0100\n      exp\n      swap1\n      div\n      0xffffffffffffffffffffffffffffffffffffffff\n      and\n      swap1\n      dup1\n      0x02\n      add\n      dup1\n      sload\n      tag_96\n      swap1\n      tag_75\n      jump\t// in\n    tag_96:\n      dup1\n      0x1f\n      add\n      0x20\n      dup1\n      swap2\n      div\n      mul\n      0x20\n      add\n      mload(0x40)\n      swap1\n      dup2\n      add\n      0x40\n      mstore\n      dup1\n      swap3\n      swap2\n      swap1\n      dup2\n      dup2\n      mstore\n      0x20\n      add\n      dup3\n      dup1\n      sload\n      tag_97\n      swap1\n      tag_75\n      jump\t// in\n    tag_97:\n      dup1\n      iszero\n      tag_98\n      jumpi\n      dup1\n      0x1f\n      lt\n      tag_99\n      jumpi\n      0x0100\n      dup1\n      dup4\n      sload\n      div\n      mul\n      dup4\n      mstore\n      swap2\n      0x20\n      add\n      swap2\n      jump(tag_98)\n    tag_99:\n      dup3\n      add\n      swap2\n      swap1\n      0x00\n      mstore\n      keccak256(0x00, 0x20)\n      swap1\n    tag_100:\n      dup2\n      sload\n      dup2\n      mstore\n      swap1\n      0x01\n      add\n      swap1\n      0x20\n      add\n      dup1\n      dup4\n      gt\n      tag_100\n      jumpi\n      dup3\n      swap1\n      sub\n      0x1f\n      and\n      dup3\n      add\n      swap2\n    tag_98:\n      pop\n      pop\n      pop\n      pop\n      pop\n      swap1\n      pop\n      dup4\n      jump\t// out\n        /* \"Final Exam/NameRegistry.sol\":1711:1899  function setAddress(... */\n    tag_47:\n        /* \"Final Exam/NameRegistry.sol\":1817:1822  _name */\n      dup2\n        /* \"Final Exam/NameRegistry.sol\":407:417  msg.sender */\n      caller\n        /* \"Final Exam/NameRegistry.sol\":363:417  registeredContracts[_name].contractOwner == msg.sender */\n      0xffffffffffffffffffffffffffffffffffffffff\n      and\n        /* \"Final Exam/NameRegistry.sol\":363:382  registeredContracts */\n      0x01\n        /* \"Final Exam/NameRegistry.sol\":383:388  _name */\n      dup3\n        /* \"Final Exam/NameRegistry.sol\":363:389  registeredContracts[_name] */\n      mload(0x40)\n      tag_102\n      swap2\n      swap1\n      tag_58\n      jump\t// in\n    tag_102:\n      swap1\n      dup2\n      mstore\n      0x20\n      add\n      mload(0x40)\n      dup1\n      swap2\n      sub\n      swap1\n      keccak256\n        /* \"Final Exam/NameRegistry.sol\":363:403  registeredContracts[_name].contractOwner */\n      0x00\n      add\n      0x00\n      swap1\n      sload\n      swap1\n      0x0100\n      exp\n      swap1\n      div\n      0xffffffffffffffffffffffffffffffffffffffff\n      and\n        /* \"Final Exam/NameRegistry.sol\":363:417  registeredContracts[_name].contractOwner == msg.sender */\n      0xffffffffffffffffffffffffffffffffffffffff\n      and\n      eq\n        /* \"Final Exam/NameRegistry.sol\":355:447  require(registeredContracts[_name].contractOwner == msg.sender, \"Error : you are not owner\") */\n      tag_103\n      jumpi\n      mload(0x40)\n      0x08c379a000000000000000000000000000000000000000000000000000000000\n      dup2\n      mstore\n      0x04\n      add\n      tag_104\n      swap1\n      tag_61\n      jump\t// in\n    tag_104:\n      mload(0x40)\n      dup1\n      swap2\n      sub\n      swap1\n      revert\n    tag_103:\n        /* \"Final Exam/NameRegistry.sol\":1883:1888  _addr */\n      dup2\n        /* \"Final Exam/NameRegistry.sol\":1838:1857  registeredContracts */\n      0x01\n        /* \"Final Exam/NameRegistry.sol\":1858:1863  _name */\n      dup5\n        /* \"Final Exam/NameRegistry.sol\":1838:1864  registeredContracts[_name] */\n      mload(0x40)\n      tag_106\n      swap2\n      swap1\n      tag_58\n      jump\t// in\n    tag_106:\n      swap1\n      dup2\n      mstore\n      0x20\n      add\n      mload(0x40)\n      dup1\n      swap2\n      sub\n      swap1\n      keccak256\n        /* \"Final Exam/NameRegistry.sol\":1838:1880  registeredContracts[_name].contractAddress */\n      0x01\n      add\n      0x00\n        /* \"Final Exam/NameRegistry.sol\":1838:1888  registeredContracts[_name].contractAddress = _addr */\n      0x0100\n      exp\n      dup2\n      sload\n      dup2\n      0xffffffffffffffffffffffffffffffffffffffff\n      mul\n      not\n      and\n      swap1\n      dup4\n      0xffffffffffffffffffffffffffffffffffffffff\n      and\n      mul\n      or\n      swap1\n      sstore\n      pop\n        /* \"Final Exam/NameRegistry.sol\":1711:1899  function setAddress(... */\n      pop\n      pop\n      pop\n      jump\t// out\n        /* \"Final Exam/NameRegistry.sol\":524:1004  function registerContract(... */\n    tag_51:\n        /* \"Final Exam/NameRegistry.sol\":734:735  0 */\n      0x00\n        /* \"Final Exam/NameRegistry.sol\":682:736  registeredContracts[_name].contractOwner == address(0) */\n      0xffffffffffffffffffffffffffffffffffffffff\n      and\n        /* \"Final Exam/NameRegistry.sol\":682:701  registeredContracts */\n      0x01\n        /* \"Final Exam/NameRegistry.sol\":702:707  _name */\n      dup5\n        /* \"Final Exam/NameRegistry.sol\":682:708  registeredContracts[_name] */\n      mload(0x40)\n      tag_108\n      swap2\n      swap1\n      tag_58\n      jump\t// in\n    tag_108:\n      swap1\n      dup2\n      mstore\n      0x20\n      add\n      mload(0x40)\n      dup1\n      swap2\n      sub\n      swap1\n      keccak256\n        /* \"Final Exam/NameRegistry.sol\":682:722  registeredContracts[_name].contractOwner */\n      0x00\n      add\n      0x00\n      swap1\n      sload\n      swap1\n      0x0100\n      exp\n      swap1\n      div\n      0xffffffffffffffffffffffffffffffffffffffff\n      and\n        /* \"Final Exam/NameRegistry.sol\":682:736  registeredContracts[_name].contractOwner == address(0) */\n      0xffffffffffffffffffffffffffffffffffffffff\n      and\n      eq\n        /* \"Final Exam/NameRegistry.sol\":674:776  require(registeredContracts[_name].contractOwner == address(0), \"Error : you are already registered!\") */\n      tag_109\n      jumpi\n      mload(0x40)\n      0x08c379a000000000000000000000000000000000000000000000000000000000\n      dup2\n      mstore\n      0x04\n      add\n      tag_110\n      swap1\n      tag_111\n      jump\t// in\n    tag_110:\n      mload(0x40)\n      dup1\n      swap2\n      sub\n      swap1\n      revert\n    tag_109:\n        /* \"Final Exam/NameRegistry.sol\":829:839  msg.sender */\n      caller\n        /* \"Final Exam/NameRegistry.sol\":786:805  registeredContracts */\n      0x01\n        /* \"Final Exam/NameRegistry.sol\":806:811  _name */\n      dup5\n        /* \"Final Exam/NameRegistry.sol\":786:812  registeredContracts[_name] */\n      mload(0x40)\n      tag_112\n      swap2\n      swap1\n      tag_58\n      jump\t// in\n    tag_112:\n      swap1\n      dup2\n      mstore\n      0x20\n      add\n      mload(0x40)\n      dup1\n      swap2\n      sub\n      swap1\n      keccak256\n        /* \"Final Exam/NameRegistry.sol\":786:826  registeredContracts[_name].contractOwner */\n      0x00\n      add\n      0x00\n        /* \"Final Exam/NameRegistry.sol\":786:839  registeredContracts[_name].contractOwner = msg.sender */\n      0x0100\n      exp\n      dup2\n      sload\n      dup2\n      0xffffffffffffffffffffffffffffffffffffffff\n      mul\n      not\n      and\n      swap1\n      dup4\n      0xffffffffffffffffffffffffffffffffffffffff\n      and\n      mul\n      or\n      swap1\n      sstore\n      pop\n        /* \"Final Exam/NameRegistry.sol\":894:910  _contractAddress */\n      dup2\n        /* \"Final Exam/NameRegistry.sol\":849:868  registeredContracts */\n      0x01\n        /* \"Final Exam/NameRegistry.sol\":869:874  _name */\n      dup5\n        /* \"Final Exam/NameRegistry.sol\":849:875  registeredContracts[_name] */\n      mload(0x40)\n      tag_113\n      swap2\n      swap1\n      tag_58\n      jump\t// in\n    tag_113:\n      swap1\n      dup2\n      mstore\n      0x20\n      add\n      mload(0x40)\n      dup1\n      swap2\n      sub\n      swap1\n      keccak256\n        /* \"Final Exam/NameRegistry.sol\":849:891  registeredContracts[_name].contractAddress */\n      0x01\n      add\n      0x00\n        /* \"Final Exam/NameRegistry.sol\":849:910  registeredContracts[_name].contractAddress = _contractAddress */\n      0x0100\n      exp\n      dup2\n      sload\n      dup2\n      0xffffffffffffffffffffffffffffffffffffffff\n      mul\n      not\n      and\n      swap1\n      dup4\n      0xffffffffffffffffffffffffffffffffffffffff\n      and\n      mul\n      or\n      swap1\n      sstore\n      pop\n        /* \"Final Exam/NameRegistry.sol\":961:973  _description */\n      dup1\n        /* \"Final Exam/NameRegistry.sol\":920:939  registeredContracts */\n      0x01\n        /* \"Final Exam/NameRegistry.sol\":940:945  _name */\n      dup5\n        /* \"Final Exam/NameRegistry.sol\":920:946  registeredContracts[_name] */\n      mload(0x40)\n      tag_114\n      swap2\n      swap1\n      tag_58\n      jump\t// in\n    tag_114:\n      swap1\n      dup2\n      mstore\n      0x20\n      add\n      mload(0x40)\n      dup1\n      swap2\n      sub\n      swap1\n      keccak256\n        /* \"Final Exam/NameRegistry.sol\":920:958  registeredContracts[_name].description */\n      0x02\n      add\n        /* \"Final Exam/NameRegistry.sol\":920:973  registeredContracts[_name].description = _description */\n      swap1\n      dup2\n      tag_115\n      swap2\n      swap1\n      tag_89\n      jump\t// in\n    tag_115:\n      pop\n        /* \"Final Exam/NameRegistry.sol\":983:995  numContracts */\n      0x00\n      dup1\n        /* \"Final Exam/NameRegistry.sol\":983:997  numContracts++ */\n      dup2\n      sload\n      dup1\n      swap3\n      swap2\n      swap1\n      tag_116\n      swap1\n      tag_117\n      jump\t// in\n    tag_116:\n      swap2\n      swap1\n      pop\n      sstore\n      pop\n        /* \"Final Exam/NameRegistry.sol\":524:1004  function registerContract(... */\n      pop\n      pop\n      pop\n      jump\t// out\n        /* \"Final Exam/NameRegistry.sol\":1909:2087  function getAddress(... */\n    tag_54:\n        /* \"Final Exam/NameRegistry.sol\":2004:2011  address */\n      0x00\n        /* \"Final Exam/NameRegistry.sol\":2034:2053  registeredContracts */\n      0x01\n        /* \"Final Exam/NameRegistry.sol\":2054:2059  _name */\n      dup3\n        /* \"Final Exam/NameRegistry.sol\":2034:2060  registeredContracts[_name] */\n      mload(0x40)\n      tag_119\n      swap2\n      swap1\n      tag_58\n      jump\t// in\n    tag_119:\n      swap1\n      dup2\n      mstore\n      0x20\n      add\n      mload(0x40)\n      dup1\n      swap2\n      sub\n      swap1\n      keccak256\n        /* \"Final Exam/NameRegistry.sol\":2034:2076  registeredContracts[_name].contractAddress */\n      0x01\n      add\n      0x00\n      swap1\n      sload\n      swap1\n      0x0100\n      exp\n      swap1\n      div\n      0xffffffffffffffffffffffffffffffffffffffff\n      and\n        /* \"Final Exam/NameRegistry.sol\":2027:2076  return registeredContracts[_name].contractAddress */\n      swap1\n      pop\n        /* \"Final Exam/NameRegistry.sol\":1909:2087  function getAddress(... */\n      swap2\n      swap1\n      pop\n      jump\t// out\n    tag_69:\n      pop\n      dup1\n      sload\n      tag_120\n      swap1\n      tag_75\n      jump\t// in\n    tag_120:\n      0x00\n      dup3\n      sstore\n      dup1\n      0x1f\n      lt\n      tag_122\n      jumpi\n      pop\n      jump(tag_121)\n    tag_122:\n      0x1f\n      add\n      0x20\n      swap1\n      div\n      swap1\n      0x00\n      mstore\n      keccak256(0x00, 0x20)\n      swap1\n      dup2\n      add\n      swap1\n      tag_123\n      swap2\n      swap1\n      tag_124\n      jump\t// in\n    tag_123:\n    tag_121:\n      pop\n      jump\t// out\n    tag_124:\n    tag_125:\n      dup1\n      dup3\n      gt\n      iszero\n      tag_126\n      jumpi\n      0x00\n      dup2\n      0x00\n      swap1\n      sstore\n      pop\n      0x01\n      add\n      jump(tag_125)\n    tag_126:\n      pop\n      swap1\n      jump\t// out\n        /* \"#utility.yul\":7:82   */\n    tag_127:\n        /* \"#utility.yul\":40:46   */\n      0x00\n        /* \"#utility.yul\":73:75   */\n      0x40\n        /* \"#utility.yul\":67:76   */\n      mload\n        /* \"#utility.yul\":57:76   */\n      swap1\n      pop\n        /* \"#utility.yul\":7:82   */\n      swap1\n      jump\t// out\n        /* \"#utility.yul\":88:205   */\n    tag_128:\n        /* \"#utility.yul\":197:198   */\n      0x00\n        /* \"#utility.yul\":194:195   */\n      dup1\n        /* \"#utility.yul\":187:199   */\n      revert\n        /* \"#utility.yul\":211:328   */\n    tag_129:\n        /* \"#utility.yul\":320:321   */\n      0x00\n        /* \"#utility.yul\":317:318   */\n      dup1\n        /* \"#utility.yul\":310:322   */\n      revert\n        /* \"#utility.yul\":334:451   */\n    tag_130:\n        /* \"#utility.yul\":443:444   */\n      0x00\n        /* \"#utility.yul\":440:441   */\n      dup1\n        /* \"#utility.yul\":433:445   */\n      revert\n        /* \"#utility.yul\":457:574   */\n    tag_131:\n        /* \"#utility.yul\":566:567   */\n      0x00\n        /* \"#utility.yul\":563:564   */\n      dup1\n        /* \"#utility.yul\":556:568   */\n      revert\n        /* \"#utility.yul\":580:682   */\n    tag_132:\n        /* \"#utility.yul\":621:627   */\n      0x00\n        /* \"#utility.yul\":672:674   */\n      0x1f\n        /* \"#utility.yul\":668:675   */\n      not\n        /* \"#utility.yul\":663:665   */\n      0x1f\n        /* \"#utility.yul\":656:661   */\n      dup4\n        /* \"#utility.yul\":652:666   */\n      add\n        /* \"#utility.yul\":648:676   */\n      and\n        /* \"#utility.yul\":638:676   */\n      swap1\n      pop\n        /* \"#utility.yul\":580:682   */\n      swap2\n      swap1\n      pop\n      jump\t// out\n        /* \"#utility.yul\":688:868   */\n    tag_133:\n        /* \"#utility.yul\":736:813   */\n      0x4e487b7100000000000000000000000000000000000000000000000000000000\n        /* \"#utility.yul\":733:734   */\n      0x00\n        /* \"#utility.yul\":726:814   */\n      mstore\n        /* \"#utility.yul\":833:837   */\n      0x41\n        /* \"#utility.yul\":830:831   */\n      0x04\n        /* \"#utility.yul\":823:838   */\n      mstore\n        /* \"#utility.yul\":857:861   */\n      0x24\n        /* \"#utility.yul\":854:855   */\n      0x00\n        /* \"#utility.yul\":847:862   */\n      revert\n        /* \"#utility.yul\":874:1155   */\n    tag_134:\n        /* \"#utility.yul\":957:984   */\n      tag_185\n        /* \"#utility.yul\":979:983   */\n      dup3\n        /* \"#utility.yul\":957:984   */\n      tag_132\n      jump\t// in\n    tag_185:\n        /* \"#utility.yul\":949:955   */\n      dup2\n        /* \"#utility.yul\":945:985   */\n      add\n        /* \"#utility.yul\":1087:1093   */\n      dup2\n        /* \"#utility.yul\":1075:1085   */\n      dup2\n        /* \"#utility.yul\":1072:1094   */\n      lt\n        /* \"#utility.yul\":1051:1069   */\n      0xffffffffffffffff\n        /* \"#utility.yul\":1039:1049   */\n      dup3\n        /* \"#utility.yul\":1036:1070   */\n      gt\n        /* \"#utility.yul\":1033:1095   */\n      or\n        /* \"#utility.yul\":1030:1118   */\n      iszero\n      tag_186\n      jumpi\n        /* \"#utility.yul\":1098:1116   */\n      tag_187\n      tag_133\n      jump\t// in\n    tag_187:\n        /* \"#utility.yul\":1030:1118   */\n    tag_186:\n        /* \"#utility.yul\":1138:1148   */\n      dup1\n        /* \"#utility.yul\":1134:1136   */\n      0x40\n        /* \"#utility.yul\":1127:1149   */\n      mstore\n        /* \"#utility.yul\":917:1155   */\n      pop\n        /* \"#utility.yul\":874:1155   */\n      pop\n      pop\n      jump\t// out\n        /* \"#utility.yul\":1161:1290   */\n    tag_135:\n        /* \"#utility.yul\":1195:1201   */\n      0x00\n        /* \"#utility.yul\":1222:1242   */\n      tag_189\n      tag_127\n      jump\t// in\n    tag_189:\n        /* \"#utility.yul\":1212:1242   */\n      swap1\n      pop\n        /* \"#utility.yul\":1251:1284   */\n      tag_190\n        /* \"#utility.yul\":1279:1283   */\n      dup3\n        /* \"#utility.yul\":1271:1277   */\n      dup3\n        /* \"#utility.yul\":1251:1284   */\n      tag_134\n      jump\t// in\n    tag_190:\n        /* \"#utility.yul\":1161:1290   */\n      swap2\n      swap1\n      pop\n      jump\t// out\n        /* \"#utility.yul\":1296:1604   */\n    tag_136:\n        /* \"#utility.yul\":1358:1362   */\n      0x00\n        /* \"#utility.yul\":1448:1466   */\n      0xffffffffffffffff\n        /* \"#utility.yul\":1440:1446   */\n      dup3\n        /* \"#utility.yul\":1437:1467   */\n      gt\n        /* \"#utility.yul\":1434:1490   */\n      iszero\n      tag_192\n      jumpi\n        /* \"#utility.yul\":1470:1488   */\n      tag_193\n      tag_133\n      jump\t// in\n    tag_193:\n        /* \"#utility.yul\":1434:1490   */\n    tag_192:\n        /* \"#utility.yul\":1508:1537   */\n      tag_194\n        /* \"#utility.yul\":1530:1536   */\n      dup3\n        /* \"#utility.yul\":1508:1537   */\n      tag_132\n      jump\t// in\n    tag_194:\n        /* \"#utility.yul\":1500:1537   */\n      swap1\n      pop\n        /* \"#utility.yul\":1592:1596   */\n      0x20\n        /* \"#utility.yul\":1586:1590   */\n      dup2\n        /* \"#utility.yul\":1582:1597   */\n      add\n        /* \"#utility.yul\":1574:1597   */\n      swap1\n      pop\n        /* \"#utility.yul\":1296:1604   */\n      swap2\n      swap1\n      pop\n      jump\t// out\n        /* \"#utility.yul\":1610:1756   */\n    tag_137:\n        /* \"#utility.yul\":1707:1713   */\n      dup3\n        /* \"#utility.yul\":1702:1705   */\n      dup2\n        /* \"#utility.yul\":1697:1700   */\n      dup4\n        /* \"#utility.yul\":1684:1714   */\n      calldatacopy\n        /* \"#utility.yul\":1748:1749   */\n      0x00\n        /* \"#utility.yul\":1739:1745   */\n      dup4\n        /* \"#utility.yul\":1734:1737   */\n      dup4\n        /* \"#utility.yul\":1730:1746   */\n      add\n        /* \"#utility.yul\":1723:1750   */\n      mstore\n        /* \"#utility.yul\":1610:1756   */\n      pop\n      pop\n      pop\n      jump\t// out\n        /* \"#utility.yul\":1762:2187   */\n    tag_138:\n        /* \"#utility.yul\":1840:1845   */\n      0x00\n        /* \"#utility.yul\":1865:1931   */\n      tag_197\n        /* \"#utility.yul\":1881:1930   */\n      tag_198\n        /* \"#utility.yul\":1923:1929   */\n      dup5\n        /* \"#utility.yul\":1881:1930   */\n      tag_136\n      jump\t// in\n    tag_198:\n        /* \"#utility.yul\":1865:1931   */\n      tag_135\n      jump\t// in\n    tag_197:\n        /* \"#utility.yul\":1856:1931   */\n      swap1\n      pop\n        /* \"#utility.yul\":1954:1960   */\n      dup3\n        /* \"#utility.yul\":1947:1952   */\n      dup2\n        /* \"#utility.yul\":1940:1961   */\n      mstore\n        /* \"#utility.yul\":1992:1996   */\n      0x20\n        /* \"#utility.yul\":1985:1990   */\n      dup2\n        /* \"#utility.yul\":1981:1997   */\n      add\n        /* \"#utility.yul\":2030:2033   */\n      dup5\n        /* \"#utility.yul\":2021:2027   */\n      dup5\n        /* \"#utility.yul\":2016:2019   */\n      dup5\n        /* \"#utility.yul\":2012:2028   */\n      add\n        /* \"#utility.yul\":2009:2034   */\n      gt\n        /* \"#utility.yul\":2006:2118   */\n      iszero\n      tag_199\n      jumpi\n        /* \"#utility.yul\":2037:2116   */\n      tag_200\n      tag_131\n      jump\t// in\n    tag_200:\n        /* \"#utility.yul\":2006:2118   */\n    tag_199:\n        /* \"#utility.yul\":2127:2181   */\n      tag_201\n        /* \"#utility.yul\":2174:2180   */\n      dup5\n        /* \"#utility.yul\":2169:2172   */\n      dup3\n        /* \"#utility.yul\":2164:2167   */\n      dup6\n        /* \"#utility.yul\":2127:2181   */\n      tag_137\n      jump\t// in\n    tag_201:\n        /* \"#utility.yul\":1846:2187   */\n      pop\n        /* \"#utility.yul\":1762:2187   */\n      swap4\n      swap3\n      pop\n      pop\n      pop\n      jump\t// out\n        /* \"#utility.yul\":2207:2547   */\n    tag_139:\n        /* \"#utility.yul\":2263:2268   */\n      0x00\n        /* \"#utility.yul\":2312:2315   */\n      dup3\n        /* \"#utility.yul\":2305:2309   */\n      0x1f\n        /* \"#utility.yul\":2297:2303   */\n      dup4\n        /* \"#utility.yul\":2293:2310   */\n      add\n        /* \"#utility.yul\":2289:2316   */\n      slt\n        /* \"#utility.yul\":2279:2401   */\n      tag_203\n      jumpi\n        /* \"#utility.yul\":2320:2399   */\n      tag_204\n      tag_130\n      jump\t// in\n    tag_204:\n        /* \"#utility.yul\":2279:2401   */\n    tag_203:\n        /* \"#utility.yul\":2437:2443   */\n      dup2\n        /* \"#utility.yul\":2424:2444   */\n      calldataload\n        /* \"#utility.yul\":2462:2541   */\n      tag_205\n        /* \"#utility.yul\":2537:2540   */\n      dup5\n        /* \"#utility.yul\":2529:2535   */\n      dup3\n        /* \"#utility.yul\":2522:2526   */\n      0x20\n        /* \"#utility.yul\":2514:2520   */\n      dup7\n        /* \"#utility.yul\":2510:2527   */\n      add\n        /* \"#utility.yul\":2462:2541   */\n      tag_138\n      jump\t// in\n    tag_205:\n        /* \"#utility.yul\":2453:2541   */\n      swap2\n      pop\n        /* \"#utility.yul\":2269:2547   */\n      pop\n        /* \"#utility.yul\":2207:2547   */\n      swap3\n      swap2\n      pop\n      pop\n      jump\t// out\n        /* \"#utility.yul\":2553:3062   */\n    tag_16:\n        /* \"#utility.yul\":2622:2628   */\n      0x00\n        /* \"#utility.yul\":2671:2673   */\n      0x20\n        /* \"#utility.yul\":2659:2668   */\n      dup3\n        /* \"#utility.yul\":2650:2657   */\n      dup5\n        /* \"#utility.yul\":2646:2669   */\n      sub\n        /* \"#utility.yul\":2642:2674   */\n      slt\n        /* \"#utility.yul\":2639:2758   */\n      iszero\n      tag_207\n      jumpi\n        /* \"#utility.yul\":2677:2756   */\n      tag_208\n      tag_128\n      jump\t// in\n    tag_208:\n        /* \"#utility.yul\":2639:2758   */\n    tag_207:\n        /* \"#utility.yul\":2825:2826   */\n      0x00\n        /* \"#utility.yul\":2814:2823   */\n      dup3\n        /* \"#utility.yul\":2810:2827   */\n      add\n        /* \"#utility.yul\":2797:2828   */\n      calldataload\n        /* \"#utility.yul\":2855:2873   */\n      0xffffffffffffffff\n        /* \"#utility.yul\":2847:2853   */\n      dup2\n        /* \"#utility.yul\":2844:2874   */\n      gt\n        /* \"#utility.yul\":2841:2958   */\n      iszero\n      tag_209\n      jumpi\n        /* \"#utility.yul\":2877:2956   */\n      tag_210\n      tag_129\n      jump\t// in\n    tag_210:\n        /* \"#utility.yul\":2841:2958   */\n    tag_209:\n        /* \"#utility.yul\":2982:3045   */\n      tag_211\n        /* \"#utility.yul\":3037:3044   */\n      dup5\n        /* \"#utility.yul\":3028:3034   */\n      dup3\n        /* \"#utility.yul\":3017:3026   */\n      dup6\n        /* \"#utility.yul\":3013:3035   */\n      add\n        /* \"#utility.yul\":2982:3045   */\n      tag_139\n      jump\t// in\n    tag_211:\n        /* \"#utility.yul\":2972:3045   */\n      swap2\n      pop\n        /* \"#utility.yul\":2768:3055   */\n      pop\n        /* \"#utility.yul\":2553:3062   */\n      swap3\n      swap2\n      pop\n      pop\n      jump\t// out\n        /* \"#utility.yul\":3068:3167   */\n    tag_140:\n        /* \"#utility.yul\":3120:3126   */\n      0x00\n        /* \"#utility.yul\":3154:3159   */\n      dup2\n        /* \"#utility.yul\":3148:3160   */\n      mload\n        /* \"#utility.yul\":3138:3160   */\n      swap1\n      pop\n        /* \"#utility.yul\":3068:3167   */\n      swap2\n      swap1\n      pop\n      jump\t// out\n        /* \"#utility.yul\":3173:3342   */\n    tag_141:\n        /* \"#utility.yul\":3257:3268   */\n      0x00\n        /* \"#utility.yul\":3291:3297   */\n      dup3\n        /* \"#utility.yul\":3286:3289   */\n      dup3\n        /* \"#utility.yul\":3279:3298   */\n      mstore\n        /* \"#utility.yul\":3331:3335   */\n      0x20\n        /* \"#utility.yul\":3326:3329   */\n      dup3\n        /* \"#utility.yul\":3322:3336   */\n      add\n        /* \"#utility.yul\":3307:3336   */\n      swap1\n      pop\n        /* \"#utility.yul\":3173:3342   */\n      swap3\n      swap2\n      pop\n      pop\n      jump\t// out\n        /* \"#utility.yul\":3348:3594   */\n    tag_142:\n        /* \"#utility.yul\":3429:3430   */\n      0x00\n        /* \"#utility.yul\":3439:3552   */\n    tag_215:\n        /* \"#utility.yul\":3453:3459   */\n      dup4\n        /* \"#utility.yul\":3450:3451   */\n      dup2\n        /* \"#utility.yul\":3447:3460   */\n      lt\n        /* \"#utility.yul\":3439:3552   */\n      iszero\n      tag_217\n      jumpi\n        /* \"#utility.yul\":3538:3539   */\n      dup1\n        /* \"#utility.yul\":3533:3536   */\n      dup3\n        /* \"#utility.yul\":3529:3540   */\n      add\n        /* \"#utility.yul\":3523:3541   */\n      mload\n        /* \"#utility.yul\":3519:3520   */\n      dup2\n        /* \"#utility.yul\":3514:3517   */\n      dup5\n        /* \"#utility.yul\":3510:3521   */\n      add\n        /* \"#utility.yul\":3503:3542   */\n      mstore\n        /* \"#utility.yul\":3475:3477   */\n      0x20\n        /* \"#utility.yul\":3472:3473   */\n      dup2\n        /* \"#utility.yul\":3468:3478   */\n      add\n        /* \"#utility.yul\":3463:3478   */\n      swap1\n      pop\n        /* \"#utility.yul\":3439:3552   */\n      jump(tag_215)\n    tag_217:\n        /* \"#utility.yul\":3586:3587   */\n      0x00\n        /* \"#utility.yul\":3577:3583   */\n      dup5\n        /* \"#utility.yul\":3572:3575   */\n      dup5\n        /* \"#utility.yul\":3568:3584   */\n      add\n        /* \"#utility.yul\":3561:3588   */\n      mstore\n        /* \"#utility.yul\":3410:3594   */\n      pop\n        /* \"#utility.yul\":3348:3594   */\n      pop\n      pop\n      pop\n      jump\t// out\n        /* \"#utility.yul\":3600:3977   */\n    tag_143:\n        /* \"#utility.yul\":3688:3691   */\n      0x00\n        /* \"#utility.yul\":3716:3755   */\n      tag_219\n        /* \"#utility.yul\":3749:3754   */\n      dup3\n        /* \"#utility.yul\":3716:3755   */\n      tag_140\n      jump\t// in\n    tag_219:\n        /* \"#utility.yul\":3771:3842   */\n      tag_220\n        /* \"#utility.yul\":3835:3841   */\n      dup2\n        /* \"#utility.yul\":3830:3833   */\n      dup6\n        /* \"#utility.yul\":3771:3842   */\n      tag_141\n      jump\t// in\n    tag_220:\n        /* \"#utility.yul\":3764:3842   */\n      swap4\n      pop\n        /* \"#utility.yul\":3851:3916   */\n      tag_221\n        /* \"#utility.yul\":3909:3915   */\n      dup2\n        /* \"#utility.yul\":3904:3907   */\n      dup6\n        /* \"#utility.yul\":3897:3901   */\n      0x20\n        /* \"#utility.yul\":3890:3895   */\n      dup7\n        /* \"#utility.yul\":3886:3902   */\n      add\n        /* \"#utility.yul\":3851:3916   */\n      tag_142\n      jump\t// in\n    tag_221:\n        /* \"#utility.yul\":3941:3970   */\n      tag_222\n        /* \"#utility.yul\":3963:3969   */\n      dup2\n        /* \"#utility.yul\":3941:3970   */\n      tag_132\n      jump\t// in\n    tag_222:\n        /* \"#utility.yul\":3936:3939   */\n      dup5\n        /* \"#utility.yul\":3932:3971   */\n      add\n        /* \"#utility.yul\":3925:3971   */\n      swap2\n      pop\n        /* \"#utility.yul\":3692:3977   */\n      pop\n        /* \"#utility.yul\":3600:3977   */\n      swap3\n      swap2\n      pop\n      pop\n      jump\t// out\n        /* \"#utility.yul\":3983:4296   */\n    tag_22:\n        /* \"#utility.yul\":4096:4100   */\n      0x00\n        /* \"#utility.yul\":4134:4136   */\n      0x20\n        /* \"#utility.yul\":4123:4132   */\n      dup3\n        /* \"#utility.yul\":4119:4137   */\n      add\n        /* \"#utility.yul\":4111:4137   */\n      swap1\n      pop\n        /* \"#utility.yul\":4183:4192   */\n      dup2\n        /* \"#utility.yul\":4177:4181   */\n      dup2\n        /* \"#utility.yul\":4173:4193   */\n      sub\n        /* \"#utility.yul\":4169:4170   */\n      0x00\n        /* \"#utility.yul\":4158:4167   */\n      dup4\n        /* \"#utility.yul\":4154:4171   */\n      add\n        /* \"#utility.yul\":4147:4194   */\n      mstore\n        /* \"#utility.yul\":4211:4289   */\n      tag_224\n        /* \"#utility.yul\":4284:4288   */\n      dup2\n        /* \"#utility.yul\":4275:4281   */\n      dup5\n        /* \"#utility.yul\":4211:4289   */\n      tag_143\n      jump\t// in\n    tag_224:\n        /* \"#utility.yul\":4203:4289   */\n      swap1\n      pop\n        /* \"#utility.yul\":3983:4296   */\n      swap3\n      swap2\n      pop\n      pop\n      jump\t// out\n        /* \"#utility.yul\":4302:4428   */\n    tag_144:\n        /* \"#utility.yul\":4339:4346   */\n      0x00\n        /* \"#utility.yul\":4379:4421   */\n      0xffffffffffffffffffffffffffffffffffffffff\n        /* \"#utility.yul\":4372:4377   */\n      dup3\n        /* \"#utility.yul\":4368:4422   */\n      and\n        /* \"#utility.yul\":4357:4422   */\n      swap1\n      pop\n        /* \"#utility.yul\":4302:4428   */\n      swap2\n      swap1\n      pop\n      jump\t// out\n        /* \"#utility.yul\":4434:4530   */\n    tag_145:\n        /* \"#utility.yul\":4471:4478   */\n      0x00\n        /* \"#utility.yul\":4500:4524   */\n      tag_227\n        /* \"#utility.yul\":4518:4523   */\n      dup3\n        /* \"#utility.yul\":4500:4524   */\n      tag_144\n      jump\t// in\n    tag_227:\n        /* \"#utility.yul\":4489:4524   */\n      swap1\n      pop\n        /* \"#utility.yul\":4434:4530   */\n      swap2\n      swap1\n      pop\n      jump\t// out\n        /* \"#utility.yul\":4536:4654   */\n    tag_146:\n        /* \"#utility.yul\":4623:4647   */\n      tag_229\n        /* \"#utility.yul\":4641:4646   */\n      dup2\n        /* \"#utility.yul\":4623:4647   */\n      tag_145\n      jump\t// in\n    tag_229:\n        /* \"#utility.yul\":4618:4621   */\n      dup3\n        /* \"#utility.yul\":4611:4648   */\n      mstore\n        /* \"#utility.yul\":4536:4654   */\n      pop\n      pop\n      jump\t// out\n        /* \"#utility.yul\":4660:4882   */\n    tag_27:\n        /* \"#utility.yul\":4753:4757   */\n      0x00\n        /* \"#utility.yul\":4791:4793   */\n      0x20\n        /* \"#utility.yul\":4780:4789   */\n      dup3\n        /* \"#utility.yul\":4776:4794   */\n      add\n        /* \"#utility.yul\":4768:4794   */\n      swap1\n      pop\n        /* \"#utility.yul\":4804:4875   */\n      tag_231\n        /* \"#utility.yul\":4872:4873   */\n      0x00\n        /* \"#utility.yul\":4861:4870   */\n      dup4\n        /* \"#utility.yul\":4857:4874   */\n      add\n        /* \"#utility.yul\":4848:4854   */\n      dup5\n        /* \"#utility.yul\":4804:4875   */\n      tag_146\n      jump\t// in\n    tag_231:\n        /* \"#utility.yul\":4660:4882   */\n      swap3\n      swap2\n      pop\n      pop\n      jump\t// out\n        /* \"#utility.yul\":4888:4965   */\n    tag_147:\n        /* \"#utility.yul\":4925:4932   */\n      0x00\n        /* \"#utility.yul\":4954:4959   */\n      dup2\n        /* \"#utility.yul\":4943:4959   */\n      swap1\n      pop\n        /* \"#utility.yul\":4888:4965   */\n      swap2\n      swap1\n      pop\n      jump\t// out\n        /* \"#utility.yul\":4971:5089   */\n    tag_148:\n        /* \"#utility.yul\":5058:5082   */\n      tag_234\n        /* \"#utility.yul\":5076:5081   */\n      dup2\n        /* \"#utility.yul\":5058:5082   */\n      tag_147\n      jump\t// in\n    tag_234:\n        /* \"#utility.yul\":5053:5056   */\n      dup3\n        /* \"#utility.yul\":5046:5083   */\n      mstore\n        /* \"#utility.yul\":4971:5089   */\n      pop\n      pop\n      jump\t// out\n        /* \"#utility.yul\":5095:5317   */\n    tag_31:\n        /* \"#utility.yul\":5188:5192   */\n      0x00\n        /* \"#utility.yul\":5226:5228   */\n      0x20\n        /* \"#utility.yul\":5215:5224   */\n      dup3\n        /* \"#utility.yul\":5211:5229   */\n      add\n        /* \"#utility.yul\":5203:5229   */\n      swap1\n      pop\n        /* \"#utility.yul\":5239:5310   */\n      tag_236\n        /* \"#utility.yul\":5307:5308   */\n      0x00\n        /* \"#utility.yul\":5296:5305   */\n      dup4\n        /* \"#utility.yul\":5292:5309   */\n      add\n        /* \"#utility.yul\":5283:5289   */\n      dup5\n        /* \"#utility.yul\":5239:5310   */\n      tag_148\n      jump\t// in\n    tag_236:\n        /* \"#utility.yul\":5095:5317   */\n      swap3\n      swap2\n      pop\n      pop\n      jump\t// out\n        /* \"#utility.yul\":5323:6157   */\n    tag_34:\n        /* \"#utility.yul\":5411:5417   */\n      0x00\n        /* \"#utility.yul\":5419:5425   */\n      dup1\n        /* \"#utility.yul\":5468:5470   */\n      0x40\n        /* \"#utility.yul\":5456:5465   */\n      dup4\n        /* \"#utility.yul\":5447:5454   */\n      dup6\n        /* \"#utility.yul\":5443:5466   */\n      sub\n        /* \"#utility.yul\":5439:5471   */\n      slt\n        /* \"#utility.yul\":5436:5555   */\n      iszero\n      tag_238\n      jumpi\n        /* \"#utility.yul\":5474:5553   */\n      tag_239\n      tag_128\n      jump\t// in\n    tag_239:\n        /* \"#utility.yul\":5436:5555   */\n    tag_238:\n        /* \"#utility.yul\":5622:5623   */\n      0x00\n        /* \"#utility.yul\":5611:5620   */\n      dup4\n        /* \"#utility.yul\":5607:5624   */\n      add\n        /* \"#utility.yul\":5594:5625   */\n      calldataload\n        /* \"#utility.yul\":5652:5670   */\n      0xffffffffffffffff\n        /* \"#utility.yul\":5644:5650   */\n      dup2\n        /* \"#utility.yul\":5641:5671   */\n      gt\n        /* \"#utility.yul\":5638:5755   */\n      iszero\n      tag_240\n      jumpi\n        /* \"#utility.yul\":5674:5753   */\n      tag_241\n      tag_129\n      jump\t// in\n    tag_241:\n        /* \"#utility.yul\":5638:5755   */\n    tag_240:\n        /* \"#utility.yul\":5779:5842   */\n      tag_242\n        /* \"#utility.yul\":5834:5841   */\n      dup6\n        /* \"#utility.yul\":5825:5831   */\n      dup3\n        /* \"#utility.yul\":5814:5823   */\n      dup7\n        /* \"#utility.yul\":5810:5832   */\n      add\n        /* \"#utility.yul\":5779:5842   */\n      tag_139\n      jump\t// in\n    tag_242:\n        /* \"#utility.yul\":5769:5842   */\n      swap3\n      pop\n        /* \"#utility.yul\":5565:5852   */\n      pop\n        /* \"#utility.yul\":5919:5921   */\n      0x20\n        /* \"#utility.yul\":5908:5917   */\n      dup4\n        /* \"#utility.yul\":5904:5922   */\n      add\n        /* \"#utility.yul\":5891:5923   */\n      calldataload\n        /* \"#utility.yul\":5950:5968   */\n      0xffffffffffffffff\n        /* \"#utility.yul\":5942:5948   */\n      dup2\n        /* \"#utility.yul\":5939:5969   */\n      gt\n        /* \"#utility.yul\":5936:6053   */\n      iszero\n      tag_243\n      jumpi\n        /* \"#utility.yul\":5972:6051   */\n      tag_244\n      tag_129\n      jump\t// in\n    tag_244:\n        /* \"#utility.yul\":5936:6053   */\n    tag_243:\n        /* \"#utility.yul\":6077:6140   */\n      tag_245\n        /* \"#utility.yul\":6132:6139   */\n      dup6\n        /* \"#utility.yul\":6123:6129   */\n      dup3\n        /* \"#utility.yul\":6112:6121   */\n      dup7\n        /* \"#utility.yul\":6108:6130   */\n      add\n        /* \"#utility.yul\":6077:6140   */\n      tag_139\n      jump\t// in\n    tag_245:\n        /* \"#utility.yul\":6067:6140   */\n      swap2\n      pop\n        /* \"#utility.yul\":5862:6150   */\n      pop\n        /* \"#utility.yul\":5323:6157   */\n      swap3\n      pop\n      swap3\n      swap1\n      pop\n      jump\t// out\n        /* \"#utility.yul\":6163:6285   */\n    tag_149:\n        /* \"#utility.yul\":6236:6260   */\n      tag_247\n        /* \"#utility.yul\":6254:6259   */\n      dup2\n        /* \"#utility.yul\":6236:6260   */\n      tag_145\n      jump\t// in\n    tag_247:\n        /* \"#utility.yul\":6229:6234   */\n      dup2\n        /* \"#utility.yul\":6226:6261   */\n      eq\n        /* \"#utility.yul\":6216:6279   */\n      tag_248\n      jumpi\n        /* \"#utility.yul\":6275:6276   */\n      0x00\n        /* \"#utility.yul\":6272:6273   */\n      dup1\n        /* \"#utility.yul\":6265:6277   */\n      revert\n        /* \"#utility.yul\":6216:6279   */\n    tag_248:\n        /* \"#utility.yul\":6163:6285   */\n      pop\n      jump\t// out\n        /* \"#utility.yul\":6291:6430   */\n    tag_150:\n        /* \"#utility.yul\":6337:6342   */\n      0x00\n        /* \"#utility.yul\":6375:6381   */\n      dup2\n        /* \"#utility.yul\":6362:6382   */\n      calldataload\n        /* \"#utility.yul\":6353:6382   */\n      swap1\n      pop\n        /* \"#utility.yul\":6391:6424   */\n      tag_250\n        /* \"#utility.yul\":6418:6423   */\n      dup2\n        /* \"#utility.yul\":6391:6424   */\n      tag_149\n      jump\t// in\n    tag_250:\n        /* \"#utility.yul\":6291:6430   */\n      swap3\n      swap2\n      pop\n      pop\n      jump\t// out\n        /* \"#utility.yul\":6436:7090   */\n    tag_38:\n        /* \"#utility.yul\":6514:6520   */\n      0x00\n        /* \"#utility.yul\":6522:6528   */\n      dup1\n        /* \"#utility.yul\":6571:6573   */\n      0x40\n        /* \"#utility.yul\":6559:6568   */\n      dup4\n        /* \"#utility.yul\":6550:6557   */\n      dup6\n        /* \"#utility.yul\":6546:6569   */\n      sub\n        /* \"#utility.yul\":6542:6574   */\n      slt\n        /* \"#utility.yul\":6539:6658   */\n      iszero\n      tag_252\n      jumpi\n        /* \"#utility.yul\":6577:6656   */\n      tag_253\n      tag_128\n      jump\t// in\n    tag_253:\n        /* \"#utility.yul\":6539:6658   */\n    tag_252:\n        /* \"#utility.yul\":6725:6726   */\n      0x00\n        /* \"#utility.yul\":6714:6723   */\n      dup4\n        /* \"#utility.yul\":6710:6727   */\n      add\n        /* \"#utility.yul\":6697:6728   */\n      calldataload\n        /* \"#utility.yul\":6755:6773   */\n      0xffffffffffffffff\n        /* \"#utility.yul\":6747:6753   */\n      dup2\n        /* \"#utility.yul\":6744:6774   */\n      gt\n        /* \"#utility.yul\":6741:6858   */\n      iszero\n      tag_254\n      jumpi\n        /* \"#utility.yul\":6777:6856   */\n      tag_255\n      tag_129\n      jump\t// in\n    tag_255:\n        /* \"#utility.yul\":6741:6858   */\n    tag_254:\n        /* \"#utility.yul\":6882:6945   */\n      tag_256\n        /* \"#utility.yul\":6937:6944   */\n      dup6\n        /* \"#utility.yul\":6928:6934   */\n      dup3\n        /* \"#utility.yul\":6917:6926   */\n      dup7\n        /* \"#utility.yul\":6913:6935   */\n      add\n        /* \"#utility.yul\":6882:6945   */\n      tag_139\n      jump\t// in\n    tag_256:\n        /* \"#utility.yul\":6872:6945   */\n      swap3\n      pop\n        /* \"#utility.yul\":6668:6955   */\n      pop\n        /* \"#utility.yul\":6994:6996   */\n      0x20\n        /* \"#utility.yul\":7020:7073   */\n      tag_257\n        /* \"#utility.yul\":7065:7072   */\n      dup6\n        /* \"#utility.yul\":7056:7062   */\n      dup3\n        /* \"#utility.yul\":7045:7054   */\n      dup7\n        /* \"#utility.yul\":7041:7063   */\n      add\n        /* \"#utility.yul\":7020:7073   */\n      tag_150\n      jump\t// in\n    tag_257:\n        /* \"#utility.yul\":7010:7073   */\n      swap2\n      pop\n        /* \"#utility.yul\":6965:7083   */\n      pop\n        /* \"#utility.yul\":6436:7090   */\n      swap3\n      pop\n      swap3\n      swap1\n      pop\n      jump\t// out\n        /* \"#utility.yul\":7096:7629   */\n    tag_44:\n        /* \"#utility.yul\":7265:7269   */\n      0x00\n        /* \"#utility.yul\":7303:7305   */\n      0x60\n        /* \"#utility.yul\":7292:7301   */\n      dup3\n        /* \"#utility.yul\":7288:7306   */\n      add\n        /* \"#utility.yul\":7280:7306   */\n      swap1\n      pop\n        /* \"#utility.yul\":7316:7387   */\n      tag_259\n        /* \"#utility.yul\":7384:7385   */\n      0x00\n        /* \"#utility.yul\":7373:7382   */\n      dup4\n        /* \"#utility.yul\":7369:7386   */\n      add\n        /* \"#utility.yul\":7360:7366   */\n      dup7\n        /* \"#utility.yul\":7316:7387   */\n      tag_146\n      jump\t// in\n    tag_259:\n        /* \"#utility.yul\":7397:7469   */\n      tag_260\n        /* \"#utility.yul\":7465:7467   */\n      0x20\n        /* \"#utility.yul\":7454:7463   */\n      dup4\n        /* \"#utility.yul\":7450:7468   */\n      add\n        /* \"#utility.yul\":7441:7447   */\n      dup6\n        /* \"#utility.yul\":7397:7469   */\n      tag_146\n      jump\t// in\n    tag_260:\n        /* \"#utility.yul\":7516:7525   */\n      dup2\n        /* \"#utility.yul\":7510:7514   */\n      dup2\n        /* \"#utility.yul\":7506:7526   */\n      sub\n        /* \"#utility.yul\":7501:7503   */\n      0x40\n        /* \"#utility.yul\":7490:7499   */\n      dup4\n        /* \"#utility.yul\":7486:7504   */\n      add\n        /* \"#utility.yul\":7479:7527   */\n      mstore\n        /* \"#utility.yul\":7544:7622   */\n      tag_261\n        /* \"#utility.yul\":7617:7621   */\n      dup2\n        /* \"#utility.yul\":7608:7614   */\n      dup5\n        /* \"#utility.yul\":7544:7622   */\n      tag_143\n      jump\t// in\n    tag_261:\n        /* \"#utility.yul\":7536:7622   */\n      swap1\n      pop\n        /* \"#utility.yul\":7096:7629   */\n      swap5\n      swap4\n      pop\n      pop\n      pop\n      pop\n      jump\t// out\n        /* \"#utility.yul\":7635:8614   */\n    tag_50:\n        /* \"#utility.yul\":7732:7738   */\n      0x00\n        /* \"#utility.yul\":7740:7746   */\n      dup1\n        /* \"#utility.yul\":7748:7754   */\n      0x00\n        /* \"#utility.yul\":7797:7799   */\n      0x60\n        /* \"#utility.yul\":7785:7794   */\n      dup5\n        /* \"#utility.yul\":7776:7783   */\n      dup7\n        /* \"#utility.yul\":7772:7795   */\n      sub\n        /* \"#utility.yul\":7768:7800   */\n      slt\n        /* \"#utility.yul\":7765:7884   */\n      iszero\n      tag_263\n      jumpi\n        /* \"#utility.yul\":7803:7882   */\n      tag_264\n      tag_128\n      jump\t// in\n    tag_264:\n        /* \"#utility.yul\":7765:7884   */\n    tag_263:\n        /* \"#utility.yul\":7951:7952   */\n      0x00\n        /* \"#utility.yul\":7940:7949   */\n      dup5\n        /* \"#utility.yul\":7936:7953   */\n      add\n        /* \"#utility.yul\":7923:7954   */\n      calldataload\n        /* \"#utility.yul\":7981:7999   */\n      0xffffffffffffffff\n        /* \"#utility.yul\":7973:7979   */\n      dup2\n        /* \"#utility.yul\":7970:8000   */\n      gt\n        /* \"#utility.yul\":7967:8084   */\n      iszero\n      tag_265\n      jumpi\n        /* \"#utility.yul\":8003:8082   */\n      tag_266\n      tag_129\n      jump\t// in\n    tag_266:\n        /* \"#utility.yul\":7967:8084   */\n    tag_265:\n        /* \"#utility.yul\":8108:8171   */\n      tag_267\n        /* \"#utility.yul\":8163:8170   */\n      dup7\n        /* \"#utility.yul\":8154:8160   */\n      dup3\n        /* \"#utility.yul\":8143:8152   */\n      dup8\n        /* \"#utility.yul\":8139:8161   */\n      add\n        /* \"#utility.yul\":8108:8171   */\n      tag_139\n      jump\t// in\n    tag_267:\n        /* \"#utility.yul\":8098:8171   */\n      swap4\n      pop\n        /* \"#utility.yul\":7894:8181   */\n      pop\n        /* \"#utility.yul\":8220:8222   */\n      0x20\n        /* \"#utility.yul\":8246:8299   */\n      tag_268\n        /* \"#utility.yul\":8291:8298   */\n      dup7\n        /* \"#utility.yul\":8282:8288   */\n      dup3\n        /* \"#utility.yul\":8271:8280   */\n      dup8\n        /* \"#utility.yul\":8267:8289   */\n      add\n        /* \"#utility.yul\":8246:8299   */\n      tag_150\n      jump\t// in\n    tag_268:\n        /* \"#utility.yul\":8236:8299   */\n      swap3\n      pop\n        /* \"#utility.yul\":8191:8309   */\n      pop\n        /* \"#utility.yul\":8376:8378   */\n      0x40\n        /* \"#utility.yul\":8365:8374   */\n      dup5\n        /* \"#utility.yul\":8361:8379   */\n      add\n        /* \"#utility.yul\":8348:8380   */\n      calldataload\n        /* \"#utility.yul\":8407:8425   */\n      0xffffffffffffffff\n        /* \"#utility.yul\":8399:8405   */\n      dup2\n        /* \"#utility.yul\":8396:8426   */\n      gt\n        /* \"#utility.yul\":8393:8510   */\n      iszero\n      tag_269\n      jumpi\n        /* \"#utility.yul\":8429:8508   */\n      tag_270\n      tag_129\n      jump\t// in\n    tag_270:\n        /* \"#utility.yul\":8393:8510   */\n    tag_269:\n        /* \"#utility.yul\":8534:8597   */\n      tag_271\n        /* \"#utility.yul\":8589:8596   */\n      dup7\n        /* \"#utility.yul\":8580:8586   */\n      dup3\n        /* \"#utility.yul\":8569:8578   */\n      dup8\n        /* \"#utility.yul\":8565:8587   */\n      add\n        /* \"#utility.yul\":8534:8597   */\n      tag_139\n      jump\t// in\n    tag_271:\n        /* \"#utility.yul\":8524:8597   */\n      swap2\n      pop\n        /* \"#utility.yul\":8319:8607   */\n      pop\n        /* \"#utility.yul\":7635:8614   */\n      swap3\n      pop\n      swap3\n      pop\n      swap3\n      jump\t// out\n        /* \"#utility.yul\":8620:8768   */\n    tag_151:\n        /* \"#utility.yul\":8722:8733   */\n      0x00\n        /* \"#utility.yul\":8759:8762   */\n      dup2\n        /* \"#utility.yul\":8744:8762   */\n      swap1\n      pop\n        /* \"#utility.yul\":8620:8768   */\n      swap3\n      swap2\n      pop\n      pop\n      jump\t// out\n        /* \"#utility.yul\":8774:9164   */\n    tag_152:\n        /* \"#utility.yul\":8880:8883   */\n      0x00\n        /* \"#utility.yul\":8908:8947   */\n      tag_274\n        /* \"#utility.yul\":8941:8946   */\n      dup3\n        /* \"#utility.yul\":8908:8947   */\n      tag_140\n      jump\t// in\n    tag_274:\n        /* \"#utility.yul\":8963:9052   */\n      tag_275\n        /* \"#utility.yul\":9045:9051   */\n      dup2\n        /* \"#utility.yul\":9040:9043   */\n      dup6\n        /* \"#utility.yul\":8963:9052   */\n      tag_151\n      jump\t// in\n    tag_275:\n        /* \"#utility.yul\":8956:9052   */\n      swap4\n      pop\n        /* \"#utility.yul\":9061:9126   */\n      tag_276\n        /* \"#utility.yul\":9119:9125   */\n      dup2\n        /* \"#utility.yul\":9114:9117   */\n      dup6\n        /* \"#utility.yul\":9107:9111   */\n      0x20\n        /* \"#utility.yul\":9100:9105   */\n      dup7\n        /* \"#utility.yul\":9096:9112   */\n      add\n        /* \"#utility.yul\":9061:9126   */\n      tag_142\n      jump\t// in\n    tag_276:\n        /* \"#utility.yul\":9151:9157   */\n      dup1\n        /* \"#utility.yul\":9146:9149   */\n      dup5\n        /* \"#utility.yul\":9142:9158   */\n      add\n        /* \"#utility.yul\":9135:9158   */\n      swap2\n      pop\n        /* \"#utility.yul\":8884:9164   */\n      pop\n        /* \"#utility.yul\":8774:9164   */\n      swap3\n      swap2\n      pop\n      pop\n      jump\t// out\n        /* \"#utility.yul\":9170:9445   */\n    tag_58:\n        /* \"#utility.yul\":9302:9305   */\n      0x00\n        /* \"#utility.yul\":9324:9419   */\n      tag_278\n        /* \"#utility.yul\":9415:9418   */\n      dup3\n        /* \"#utility.yul\":9406:9412   */\n      dup5\n        /* \"#utility.yul\":9324:9419   */\n      tag_152\n      jump\t// in\n    tag_278:\n        /* \"#utility.yul\":9317:9419   */\n      swap2\n      pop\n        /* \"#utility.yul\":9436:9439   */\n      dup2\n        /* \"#utility.yul\":9429:9439   */\n      swap1\n      pop\n        /* \"#utility.yul\":9170:9445   */\n      swap3\n      swap2\n      pop\n      pop\n      jump\t// out\n        /* \"#utility.yul\":9451:9626   */\n    tag_153:\n        /* \"#utility.yul\":9591:9618   */\n      0x4572726f72203a20796f7520617265206e6f74206f776e657200000000000000\n        /* \"#utility.yul\":9587:9588   */\n      0x00\n        /* \"#utility.yul\":9579:9585   */\n      dup3\n        /* \"#utility.yul\":9575:9589   */\n      add\n        /* \"#utility.yul\":9568:9619   */\n      mstore\n        /* \"#utility.yul\":9451:9626   */\n      pop\n      jump\t// out\n        /* \"#utility.yul\":9632:9998   */\n    tag_154:\n        /* \"#utility.yul\":9774:9777   */\n      0x00\n        /* \"#utility.yul\":9795:9862   */\n      tag_281\n        /* \"#utility.yul\":9859:9861   */\n      0x19\n        /* \"#utility.yul\":9854:9857   */\n      dup4\n        /* \"#utility.yul\":9795:9862   */\n      tag_141\n      jump\t// in\n    tag_281:\n        /* \"#utility.yul\":9788:9862   */\n      swap2\n      pop\n        /* \"#utility.yul\":9871:9964   */\n      tag_282\n        /* \"#utility.yul\":9960:9963   */\n      dup3\n        /* \"#utility.yul\":9871:9964   */\n      tag_153\n      jump\t// in\n    tag_282:\n        /* \"#utility.yul\":9989:9991   */\n      0x20\n        /* \"#utility.yul\":9984:9987   */\n      dup3\n        /* \"#utility.yul\":9980:9992   */\n      add\n        /* \"#utility.yul\":9973:9992   */\n      swap1\n      pop\n        /* \"#utility.yul\":9632:9998   */\n      swap2\n      swap1\n      pop\n      jump\t// out\n        /* \"#utility.yul\":10004:10423   */\n    tag_61:\n        /* \"#utility.yul\":10170:10174   */\n      0x00\n        /* \"#utility.yul\":10208:10210   */\n      0x20\n        /* \"#utility.yul\":10197:10206   */\n      dup3\n        /* \"#utility.yul\":10193:10211   */\n      add\n        /* \"#utility.yul\":10185:10211   */\n      swap1\n      pop\n        /* \"#utility.yul\":10257:10266   */\n      dup2\n        /* \"#utility.yul\":10251:10255   */\n      dup2\n        /* \"#utility.yul\":10247:10267   */\n      sub\n        /* \"#utility.yul\":10243:10244   */\n      0x00\n        /* \"#utility.yul\":10232:10241   */\n      dup4\n        /* \"#utility.yul\":10228:10245   */\n      add\n        /* \"#utility.yul\":10221:10268   */\n      mstore\n        /* \"#utility.yul\":10285:10416   */\n      tag_284\n        /* \"#utility.yul\":10411:10415   */\n      dup2\n        /* \"#utility.yul\":10285:10416   */\n      tag_154\n      jump\t// in\n    tag_284:\n        /* \"#utility.yul\":10277:10416   */\n      swap1\n      pop\n        /* \"#utility.yul\":10004:10423   */\n      swap2\n      swap1\n      pop\n      jump\t// out\n        /* \"#utility.yul\":10429:10656   */\n    tag_155:\n        /* \"#utility.yul\":10569:10603   */\n      0x4572726f72203a20796f7520617265206e6f74207265676973746564206f7572\n        /* \"#utility.yul\":10565:10566   */\n      0x00\n        /* \"#utility.yul\":10557:10563   */\n      dup3\n        /* \"#utility.yul\":10553:10567   */\n      add\n        /* \"#utility.yul\":10546:10604   */\n      mstore\n        /* \"#utility.yul\":10638:10648   */\n      0x2073797374656d21000000000000000000000000000000000000000000000000\n        /* \"#utility.yul\":10633:10635   */\n      0x20\n        /* \"#utility.yul\":10625:10631   */\n      dup3\n        /* \"#utility.yul\":10621:10636   */\n      add\n        /* \"#utility.yul\":10614:10649   */\n      mstore\n        /* \"#utility.yul\":10429:10656   */\n      pop\n      jump\t// out\n        /* \"#utility.yul\":10662:11028   */\n    tag_156:\n        /* \"#utility.yul\":10804:10807   */\n      0x00\n        /* \"#utility.yul\":10825:10892   */\n      tag_287\n        /* \"#utility.yul\":10889:10891   */\n      0x28\n        /* \"#utility.yul\":10884:10887   */\n      dup4\n        /* \"#utility.yul\":10825:10892   */\n      tag_141\n      jump\t// in\n    tag_287:\n        /* \"#utility.yul\":10818:10892   */\n      swap2\n      pop\n        /* \"#utility.yul\":10901:10994   */\n      tag_288\n        /* \"#utility.yul\":10990:10993   */\n      dup3\n        /* \"#utility.yul\":10901:10994   */\n      tag_155\n      jump\t// in\n    tag_288:\n        /* \"#utility.yul\":11019:11021   */\n      0x40\n        /* \"#utility.yul\":11014:11017   */\n      dup3\n        /* \"#utility.yul\":11010:11022   */\n      add\n        /* \"#utility.yul\":11003:11022   */\n      swap1\n      pop\n        /* \"#utility.yul\":10662:11028   */\n      swap2\n      swap1\n      pop\n      jump\t// out\n        /* \"#utility.yul\":11034:11453   */\n    tag_66:\n        /* \"#utility.yul\":11200:11204   */\n      0x00\n        /* \"#utility.yul\":11238:11240   */\n      0x20\n        /* \"#utility.yul\":11227:11236   */\n      dup3\n        /* \"#utility.yul\":11223:11241   */\n      add\n        /* \"#utility.yul\":11215:11241   */\n      swap1\n      pop\n        /* \"#utility.yul\":11287:11296   */\n      dup2\n        /* \"#utility.yul\":11281:11285   */\n      dup2\n        /* \"#utility.yul\":11277:11297   */\n      sub\n        /* \"#utility.yul\":11273:11274   */\n      0x00\n        /* \"#utility.yul\":11262:11271   */\n      dup4\n        /* \"#utility.yul\":11258:11275   */\n      add\n        /* \"#utility.yul\":11251:11298   */\n      mstore\n        /* \"#utility.yul\":11315:11446   */\n      tag_290\n        /* \"#utility.yul\":11441:11445   */\n      dup2\n        /* \"#utility.yul\":11315:11446   */\n      tag_156\n      jump\t// in\n    tag_290:\n        /* \"#utility.yul\":11307:11446   */\n      swap1\n      pop\n        /* \"#utility.yul\":11034:11453   */\n      swap2\n      swap1\n      pop\n      jump\t// out\n        /* \"#utility.yul\":11459:11639   */\n    tag_157:\n        /* \"#utility.yul\":11507:11584   */\n      0x4e487b7100000000000000000000000000000000000000000000000000000000\n        /* \"#utility.yul\":11504:11505   */\n      0x00\n        /* \"#utility.yul\":11497:11585   */\n      mstore\n        /* \"#utility.yul\":11604:11608   */\n      0x11\n        /* \"#utility.yul\":11601:11602   */\n      0x04\n        /* \"#utility.yul\":11594:11609   */\n      mstore\n        /* \"#utility.yul\":11628:11632   */\n      0x24\n        /* \"#utility.yul\":11625:11626   */\n      0x00\n        /* \"#utility.yul\":11618:11633   */\n      revert\n        /* \"#utility.yul\":11645:11816   */\n    tag_71:\n        /* \"#utility.yul\":11684:11687   */\n      0x00\n        /* \"#utility.yul\":11707:11731   */\n      tag_293\n        /* \"#utility.yul\":11725:11730   */\n      dup3\n        /* \"#utility.yul\":11707:11731   */\n      tag_147\n      jump\t// in\n    tag_293:\n        /* \"#utility.yul\":11698:11731   */\n      swap2\n      pop\n        /* \"#utility.yul\":11753:11757   */\n      0x00\n        /* \"#utility.yul\":11746:11751   */\n      dup3\n        /* \"#utility.yul\":11743:11758   */\n      sub\n        /* \"#utility.yul\":11740:11781   */\n      tag_294\n      jumpi\n        /* \"#utility.yul\":11761:11779   */\n      tag_295\n      tag_157\n      jump\t// in\n    tag_295:\n        /* \"#utility.yul\":11740:11781   */\n    tag_294:\n        /* \"#utility.yul\":11808:11809   */\n      0x01\n        /* \"#utility.yul\":11801:11806   */\n      dup3\n        /* \"#utility.yul\":11797:11810   */\n      sub\n        /* \"#utility.yul\":11790:11810   */\n      swap1\n      pop\n        /* \"#utility.yul\":11645:11816   */\n      swap2\n      swap1\n      pop\n      jump\t// out\n        /* \"#utility.yul\":11822:12002   */\n    tag_158:\n        /* \"#utility.yul\":11870:11947   */\n      0x4e487b7100000000000000000000000000000000000000000000000000000000\n        /* \"#utility.yul\":11867:11868   */\n      0x00\n        /* \"#utility.yul\":11860:11948   */\n      mstore\n        /* \"#utility.yul\":11967:11971   */\n      0x22\n        /* \"#utility.yul\":11964:11965   */\n      0x04\n        /* \"#utility.yul\":11957:11972   */\n      mstore\n        /* \"#utility.yul\":11991:11995   */\n      0x24\n        /* \"#utility.yul\":11988:11989   */\n      0x00\n        /* \"#utility.yul\":11981:11996   */\n      revert\n        /* \"#utility.yul\":12008:12328   */\n    tag_75:\n        /* \"#utility.yul\":12052:12058   */\n      0x00\n        /* \"#utility.yul\":12089:12090   */\n      0x02\n        /* \"#utility.yul\":12083:12087   */\n      dup3\n        /* \"#utility.yul\":12079:12091   */\n      div\n        /* \"#utility.yul\":12069:12091   */\n      swap1\n      pop\n        /* \"#utility.yul\":12136:12137   */\n      0x01\n        /* \"#utility.yul\":12130:12134   */\n      dup3\n        /* \"#utility.yul\":12126:12138   */\n      and\n        /* \"#utility.yul\":12157:12175   */\n      dup1\n        /* \"#utility.yul\":12147:12228   */\n      tag_298\n      jumpi\n        /* \"#utility.yul\":12213:12217   */\n      0x7f\n        /* \"#utility.yul\":12205:12211   */\n      dup3\n        /* \"#utility.yul\":12201:12218   */\n      and\n        /* \"#utility.yul\":12191:12218   */\n      swap2\n      pop\n        /* \"#utility.yul\":12147:12228   */\n    tag_298:\n        /* \"#utility.yul\":12275:12277   */\n      0x20\n        /* \"#utility.yul\":12267:12273   */\n      dup3\n        /* \"#utility.yul\":12264:12278   */\n      lt\n        /* \"#utility.yul\":12244:12262   */\n      dup2\n        /* \"#utility.yul\":12241:12279   */\n      sub\n        /* \"#utility.yul\":12238:12322   */\n      tag_299\n      jumpi\n        /* \"#utility.yul\":12294:12312   */\n      tag_300\n      tag_158\n      jump\t// in\n    tag_300:\n        /* \"#utility.yul\":12238:12322   */\n    tag_299:\n        /* \"#utility.yul\":12059:12328   */\n      pop\n        /* \"#utility.yul\":12008:12328   */\n      swap2\n      swap1\n      pop\n      jump\t// out\n        /* \"#utility.yul\":12334:12475   */\n    tag_159:\n        /* \"#utility.yul\":12383:12387   */\n      0x00\n        /* \"#utility.yul\":12406:12409   */\n      dup2\n        /* \"#utility.yul\":12398:12409   */\n      swap1\n      pop\n        /* \"#utility.yul\":12429:12432   */\n      dup2\n        /* \"#utility.yul\":12426:12427   */\n      0x00\n        /* \"#utility.yul\":12419:12433   */\n      mstore\n        /* \"#utility.yul\":12463:12467   */\n      0x20\n        /* \"#utility.yul\":12460:12461   */\n      0x00\n        /* \"#utility.yul\":12450:12468   */\n      keccak256\n        /* \"#utility.yul\":12442:12468   */\n      swap1\n      pop\n        /* \"#utility.yul\":12334:12475   */\n      swap2\n      swap1\n      pop\n      jump\t// out\n        /* \"#utility.yul\":12481:12574   */\n    tag_160:\n        /* \"#utility.yul\":12518:12524   */\n      0x00\n        /* \"#utility.yul\":12565:12567   */\n      0x20\n        /* \"#utility.yul\":12560:12562   */\n      0x1f\n        /* \"#utility.yul\":12553:12558   */\n      dup4\n        /* \"#utility.yul\":12549:12563   */\n      add\n        /* \"#utility.yul\":12545:12568   */\n      div\n        /* \"#utility.yul\":12535:12568   */\n      swap1\n      pop\n        /* \"#utility.yul\":12481:12574   */\n      swap2\n      swap1\n      pop\n      jump\t// out\n        /* \"#utility.yul\":12580:12687   */\n    tag_161:\n        /* \"#utility.yul\":12624:12632   */\n      0x00\n        /* \"#utility.yul\":12674:12679   */\n      dup3\n        /* \"#utility.yul\":12668:12672   */\n      dup3\n        /* \"#utility.yul\":12664:12680   */\n      shl\n        /* \"#utility.yul\":12643:12680   */\n      swap1\n      pop\n        /* \"#utility.yul\":12580:12687   */\n      swap3\n      swap2\n      pop\n      pop\n      jump\t// out\n        /* \"#utility.yul\":12693:13086   */\n    tag_162:\n        /* \"#utility.yul\":12762:12768   */\n      0x00\n        /* \"#utility.yul\":12812:12813   */\n      0x08\n        /* \"#utility.yul\":12800:12810   */\n      dup4\n        /* \"#utility.yul\":12796:12814   */\n      mul\n        /* \"#utility.yul\":12835:12932   */\n      tag_305\n        /* \"#utility.yul\":12865:12931   */\n      0xffffffffffffffffffffffffffffffffffffffffffffffffffffffffffffffff\n        /* \"#utility.yul\":12854:12863   */\n      dup3\n        /* \"#utility.yul\":12835:12932   */\n      tag_161\n      jump\t// in\n    tag_305:\n        /* \"#utility.yul\":12953:12992   */\n      tag_306\n        /* \"#utility.yul\":12983:12991   */\n      dup7\n        /* \"#utility.yul\":12972:12981   */\n      dup4\n        /* \"#utility.yul\":12953:12992   */\n      tag_161\n      jump\t// in\n    tag_306:\n        /* \"#utility.yul\":12941:12992   */\n      swap6\n      pop\n        /* \"#utility.yul\":13025:13029   */\n      dup1\n        /* \"#utility.yul\":13021:13030   */\n      not\n        /* \"#utility.yul\":13014:13019   */\n      dup5\n        /* \"#utility.yul\":13010:13031   */\n      and\n        /* \"#utility.yul\":13001:13031   */\n      swap4\n      pop\n        /* \"#utility.yul\":13074:13078   */\n      dup1\n        /* \"#utility.yul\":13064:13072   */\n      dup7\n        /* \"#utility.yul\":13060:13079   */\n      and\n        /* \"#utility.yul\":13053:13058   */\n      dup5\n        /* \"#utility.yul\":13050:13080   */\n      or\n        /* \"#utility.yul\":13040:13080   */\n      swap3\n      pop\n        /* \"#utility.yul\":12769:13086   */\n      pop\n      pop\n        /* \"#utility.yul\":12693:13086   */\n      swap4\n      swap3\n      pop\n      pop\n      pop\n      jump\t// out\n        /* \"#utility.yul\":13092:13152   */\n    tag_163:\n        /* \"#utility.yul\":13120:13123   */\n      0x00\n        /* \"#utility.yul\":13141:13146   */\n      dup2\n        /* \"#utility.yul\":13134:13146   */\n      swap1\n      pop\n        /* \"#utility.yul\":13092:13152   */\n      swap2\n      swap1\n      pop\n      jump\t// out\n        /* \"#utility.yul\":13158:13300   */\n    tag_164:\n        /* \"#utility.yul\":13208:13217   */\n      0x00\n        /* \"#utility.yul\":13241:13294   */\n      tag_309\n        /* \"#utility.yul\":13259:13293   */\n      tag_310\n        /* \"#utility.yul\":13268:13292   */\n      tag_311\n        /* \"#utility.yul\":13286:13291   */\n      dup5\n        /* \"#utility.yul\":13268:13292   */\n      tag_147\n      jump\t// in\n    tag_311:\n        /* \"#utility.yul\":13259:13293   */\n      tag_163\n      jump\t// in\n    tag_310:\n        /* \"#utility.yul\":13241:13294   */\n      tag_147\n      jump\t// in\n    tag_309:\n        /* \"#utility.yul\":13228:13294   */\n      swap1\n      pop\n        /* \"#utility.yul\":13158:13300   */\n      swap2\n      swap1\n      pop\n      jump\t// out\n        /* \"#utility.yul\":13306:13381   */\n    tag_165:\n        /* \"#utility.yul\":13349:13352   */\n      0x00\n        /* \"#utility.yul\":13370:13375   */\n      dup2\n        /* \"#utility.yul\":13363:13375   */\n      swap1\n      pop\n        /* \"#utility.yul\":13306:13381   */\n      swap2\n      swap1\n      pop\n      jump\t// out\n        /* \"#utility.yul\":13387:13656   */\n    tag_166:\n        /* \"#utility.yul\":13497:13536   */\n      tag_314\n        /* \"#utility.yul\":13528:13535   */\n      dup4\n        /* \"#utility.yul\":13497:13536   */\n      tag_164\n      jump\t// in\n    tag_314:\n        /* \"#utility.yul\":13558:13649   */\n      tag_315\n        /* \"#utility.yul\":13607:13648   */\n      tag_316\n        /* \"#utility.yul\":13631:13647   */\n      dup3\n        /* \"#utility.yul\":13607:13648   */\n      tag_165\n      jump\t// in\n    tag_316:\n        /* \"#utility.yul\":13599:13605   */\n      dup5\n        /* \"#utility.yul\":13592:13596   */\n      dup5\n        /* \"#utility.yul\":13586:13597   */\n      sload\n        /* \"#utility.yul\":13558:13649   */\n      tag_162\n      jump\t// in\n    tag_315:\n        /* \"#utility.yul\":13552:13556   */\n      dup3\n        /* \"#utility.yul\":13545:13650   */\n      sstore\n        /* \"#utility.yul\":13463:13656   */\n      pop\n        /* \"#utility.yul\":13387:13656   */\n      pop\n      pop\n      pop\n      jump\t// out\n        /* \"#utility.yul\":13662:13735   */\n    tag_167:\n        /* \"#utility.yul\":13707:13710   */\n      0x00\n        /* \"#utility.yul\":13662:13735   */\n      swap1\n      jump\t// out\n        /* \"#utility.yul\":13741:13930   */\n    tag_168:\n        /* \"#utility.yul\":13818:13850   */\n      tag_319\n      tag_167\n      jump\t// in\n    tag_319:\n        /* \"#utility.yul\":13859:13924   */\n      tag_320\n        /* \"#utility.yul\":13917:13923   */\n      dup2\n        /* \"#utility.yul\":13909:13915   */\n      dup5\n        /* \"#utility.yul\":13903:13907   */\n      dup5\n        /* \"#utility.yul\":13859:13924   */\n      tag_166\n      jump\t// in\n    tag_320:\n        /* \"#utility.yul\":13794:13930   */\n      pop\n        /* \"#utility.yul\":13741:13930   */\n      pop\n      pop\n      jump\t// out\n        /* \"#utility.yul\":13936:14122   */\n    tag_169:\n        /* \"#utility.yul\":13996:14116   */\n    tag_322:\n        /* \"#utility.yul\":14013:14016   */\n      dup2\n        /* \"#utility.yul\":14006:14011   */\n      dup2\n        /* \"#utility.yul\":14003:14017   */\n      lt\n        /* \"#utility.yul\":13996:14116   */\n      iszero\n      tag_324\n      jumpi\n        /* \"#utility.yul\":14067:14106   */\n      tag_325\n        /* \"#utility.yul\":14104:14105   */\n      0x00\n        /* \"#utility.yul\":14097:14102   */\n      dup3\n        /* \"#utility.yul\":14067:14106   */\n      tag_168\n      jump\t// in\n    tag_325:\n        /* \"#utility.yul\":14040:14041   */\n      0x01\n        /* \"#utility.yul\":14033:14038   */\n      dup2\n        /* \"#utility.yul\":14029:14042   */\n      add\n        /* \"#utility.yul\":14020:14042   */\n      swap1\n      pop\n        /* \"#utility.yul\":13996:14116   */\n      jump(tag_322)\n    tag_324:\n        /* \"#utility.yul\":13936:14122   */\n      pop\n      pop\n      jump\t// out\n        /* \"#utility.yul\":14128:14671   */\n    tag_170:\n        /* \"#utility.yul\":14229:14231   */\n      0x1f\n        /* \"#utility.yul\":14224:14227   */\n      dup3\n        /* \"#utility.yul\":14221:14232   */\n      gt\n        /* \"#utility.yul\":14218:14664   */\n      iszero\n      tag_327\n      jumpi\n        /* \"#utility.yul\":14263:14301   */\n      tag_328\n        /* \"#utility.yul\":14295:14300   */\n      dup2\n        /* \"#utility.yul\":14263:14301   */\n      tag_159\n      jump\t// in\n    tag_328:\n        /* \"#utility.yul\":14347:14376   */\n      tag_329\n        /* \"#utility.yul\":14365:14375   */\n      dup5\n        /* \"#utility.yul\":14347:14376   */\n      tag_160\n      jump\t// in\n    tag_329:\n        /* \"#utility.yul\":14337:14345   */\n      dup2\n        /* \"#utility.yul\":14333:14377   */\n      add\n        /* \"#utility.yul\":14530:14532   */\n      0x20\n        /* \"#utility.yul\":14518:14528   */\n      dup6\n        /* \"#utility.yul\":14515:14533   */\n      lt\n        /* \"#utility.yul\":14512:14561   */\n      iszero\n      tag_330\n      jumpi\n        /* \"#utility.yul\":14551:14559   */\n      dup2\n        /* \"#utility.yul\":14536:14559   */\n      swap1\n      pop\n        /* \"#utility.yul\":14512:14561   */\n    tag_330:\n        /* \"#utility.yul\":14574:14654   */\n      tag_331\n        /* \"#utility.yul\":14630:14652   */\n      tag_332\n        /* \"#utility.yul\":14648:14651   */\n      dup6\n        /* \"#utility.yul\":14630:14652   */\n      tag_160\n      jump\t// in\n    tag_332:\n        /* \"#utility.yul\":14620:14628   */\n      dup4\n        /* \"#utility.yul\":14616:14653   */\n      add\n        /* \"#utility.yul\":14603:14614   */\n      dup3\n        /* \"#utility.yul\":14574:14654   */\n      tag_169\n      jump\t// in\n    tag_331:\n        /* \"#utility.yul\":14233:14664   */\n      pop\n      pop\n        /* \"#utility.yul\":14218:14664   */\n    tag_327:\n        /* \"#utility.yul\":14128:14671   */\n      pop\n      pop\n      pop\n      jump\t// out\n        /* \"#utility.yul\":14677:14794   */\n    tag_171:\n        /* \"#utility.yul\":14731:14739   */\n      0x00\n        /* \"#utility.yul\":14781:14786   */\n      dup3\n        /* \"#utility.yul\":14775:14779   */\n      dup3\n        /* \"#utility.yul\":14771:14787   */\n      shr\n        /* \"#utility.yul\":14750:14787   */\n      swap1\n      pop\n        /* \"#utility.yul\":14677:14794   */\n      swap3\n      swap2\n      pop\n      pop\n      jump\t// out\n        /* \"#utility.yul\":14800:14969   */\n    tag_172:\n        /* \"#utility.yul\":14844:14850   */\n      0x00\n        /* \"#utility.yul\":14877:14928   */\n      tag_335\n        /* \"#utility.yul\":14925:14926   */\n      0x00\n        /* \"#utility.yul\":14921:14927   */\n      not\n        /* \"#utility.yul\":14913:14918   */\n      dup5\n        /* \"#utility.yul\":14910:14911   */\n      0x08\n        /* \"#utility.yul\":14906:14919   */\n      mul\n        /* \"#utility.yul\":14877:14928   */\n      tag_171\n      jump\t// in\n    tag_335:\n        /* \"#utility.yul\":14873:14929   */\n      not\n        /* \"#utility.yul\":14958:14962   */\n      dup1\n        /* \"#utility.yul\":14952:14956   */\n      dup4\n        /* \"#utility.yul\":14948:14963   */\n      and\n        /* \"#utility.yul\":14938:14963   */\n      swap2\n      pop\n        /* \"#utility.yul\":14851:14969   */\n      pop\n        /* \"#utility.yul\":14800:14969   */\n      swap3\n      swap2\n      pop\n      pop\n      jump\t// out\n        /* \"#utility.yul\":14974:15269   */\n    tag_173:\n        /* \"#utility.yul\":15050:15054   */\n      0x00\n        /* \"#utility.yul\":15196:15225   */\n      tag_337\n        /* \"#utility.yul\":15221:15224   */\n      dup4\n        /* \"#utility.yul\":15215:15219   */\n      dup4\n        /* \"#utility.yul\":15196:15225   */\n      tag_172\n      jump\t// in\n    tag_337:\n        /* \"#utility.yul\":15188:15225   */\n      swap2\n      pop\n        /* \"#utility.yul\":15258:15261   */\n      dup3\n        /* \"#utility.yul\":15255:15256   */\n      0x02\n        /* \"#utility.yul\":15251:15262   */\n      mul\n        /* \"#utility.yul\":15245:15249   */\n      dup3\n        /* \"#utility.yul\":15242:15263   */\n      or\n        /* \"#utility.yul\":15234:15263   */\n      swap1\n      pop\n        /* \"#utility.yul\":14974:15269   */\n      swap3\n      swap2\n      pop\n      pop\n      jump\t// out\n        /* \"#utility.yul\":15274:16669   */\n    tag_89:\n        /* \"#utility.yul\":15391:15428   */\n      tag_339\n        /* \"#utility.yul\":15424:15427   */\n      dup3\n        /* \"#utility.yul\":15391:15428   */\n      tag_140\n      jump\t// in\n    tag_339:\n        /* \"#utility.yul\":15493:15511   */\n      0xffffffffffffffff\n        /* \"#utility.yul\":15485:15491   */\n      dup2\n        /* \"#utility.yul\":15482:15512   */\n      gt\n        /* \"#utility.yul\":15479:15535   */\n      iszero\n      tag_340\n      jumpi\n        /* \"#utility.yul\":15515:15533   */\n      tag_341\n      tag_133\n      jump\t// in\n    tag_341:\n        /* \"#utility.yul\":15479:15535   */\n    tag_340:\n        /* \"#utility.yul\":15559:15597   */\n      tag_342\n        /* \"#utility.yul\":15591:15595   */\n      dup3\n        /* \"#utility.yul\":15585:15596   */\n      sload\n        /* \"#utility.yul\":15559:15597   */\n      tag_75\n      jump\t// in\n    tag_342:\n        /* \"#utility.yul\":15644:15711   */\n      tag_343\n        /* \"#utility.yul\":15704:15710   */\n      dup3\n        /* \"#utility.yul\":15696:15702   */\n      dup3\n        /* \"#utility.yul\":15690:15694   */\n      dup6\n        /* \"#utility.yul\":15644:15711   */\n      tag_170\n      jump\t// in\n    tag_343:\n        /* \"#utility.yul\":15738:15739   */\n      0x00\n        /* \"#utility.yul\":15762:15766   */\n      0x20\n        /* \"#utility.yul\":15749:15766   */\n      swap1\n      pop\n        /* \"#utility.yul\":15794:15796   */\n      0x1f\n        /* \"#utility.yul\":15786:15792   */\n      dup4\n        /* \"#utility.yul\":15783:15797   */\n      gt\n        /* \"#utility.yul\":15811:15812   */\n      0x01\n        /* \"#utility.yul\":15806:16424   */\n      dup2\n      eq\n      tag_345\n      jumpi\n        /* \"#utility.yul\":16468:16469   */\n      0x00\n        /* \"#utility.yul\":16485:16491   */\n      dup5\n        /* \"#utility.yul\":16482:16559   */\n      iszero\n      tag_346\n      jumpi\n        /* \"#utility.yul\":16534:16543   */\n      dup3\n        /* \"#utility.yul\":16529:16532   */\n      dup8\n        /* \"#utility.yul\":16525:16544   */\n      add\n        /* \"#utility.yul\":16519:16545   */\n      mload\n        /* \"#utility.yul\":16510:16545   */\n      swap1\n      pop\n        /* \"#utility.yul\":16482:16559   */\n    tag_346:\n        /* \"#utility.yul\":16585:16652   */\n      tag_347\n        /* \"#utility.yul\":16645:16651   */\n      dup6\n        /* \"#utility.yul\":16638:16643   */\n      dup3\n        /* \"#utility.yul\":16585:16652   */\n      tag_173\n      jump\t// in\n    tag_347:\n        /* \"#utility.yul\":16579:16583   */\n      dup7\n        /* \"#utility.yul\":16572:16653   */\n      sstore\n        /* \"#utility.yul\":16441:16663   */\n      pop\n        /* \"#utility.yul\":15776:16663   */\n      jump(tag_344)\n        /* \"#utility.yul\":15806:16424   */\n    tag_345:\n        /* \"#utility.yul\":15858:15862   */\n      0x1f\n        /* \"#utility.yul\":15854:15863   */\n      not\n        /* \"#utility.yul\":15846:15852   */\n      dup5\n        /* \"#utility.yul\":15842:15864   */\n      and\n        /* \"#utility.yul\":15892:15929   */\n      tag_348\n        /* \"#utility.yul\":15924:15928   */\n      dup7\n        /* \"#utility.yul\":15892:15929   */\n      tag_159\n      jump\t// in\n    tag_348:\n        /* \"#utility.yul\":15951:15952   */\n      0x00\n        /* \"#utility.yul\":15965:16173   */\n    tag_349:\n        /* \"#utility.yul\":15979:15986   */\n      dup3\n        /* \"#utility.yul\":15976:15977   */\n      dup2\n        /* \"#utility.yul\":15973:15987   */\n      lt\n        /* \"#utility.yul\":15965:16173   */\n      iszero\n      tag_351\n      jumpi\n        /* \"#utility.yul\":16058:16067   */\n      dup5\n        /* \"#utility.yul\":16053:16056   */\n      dup10\n        /* \"#utility.yul\":16049:16068   */\n      add\n        /* \"#utility.yul\":16043:16069   */\n      mload\n        /* \"#utility.yul\":16035:16041   */\n      dup3\n        /* \"#utility.yul\":16028:16070   */\n      sstore\n        /* \"#utility.yul\":16109:16110   */\n      0x01\n        /* \"#utility.yul\":16101:16107   */\n      dup3\n        /* \"#utility.yul\":16097:16111   */\n      add\n        /* \"#utility.yul\":16087:16111   */\n      swap2\n      pop\n        /* \"#utility.yul\":16156:16158   */\n      0x20\n        /* \"#utility.yul\":16145:16154   */\n      dup6\n        /* \"#utility.yul\":16141:16159   */\n      add\n        /* \"#utility.yul\":16128:16159   */\n      swap5\n      pop\n        /* \"#utility.yul\":16002:16006   */\n      0x20\n        /* \"#utility.yul\":15999:16000   */\n      dup2\n        /* \"#utility.yul\":15995:16007   */\n      add\n        /* \"#utility.yul\":15990:16007   */\n      swap1\n      pop\n        /* \"#utility.yul\":15965:16173   */\n      jump(tag_349)\n    tag_351:\n        /* \"#utility.yul\":16201:16207   */\n      dup7\n        /* \"#utility.yul\":16192:16199   */\n      dup4\n        /* \"#utility.yul\":16189:16208   */\n      lt\n        /* \"#utility.yul\":16186:16365   */\n      iszero\n      tag_352\n      jumpi\n        /* \"#utility.yul\":16259:16268   */\n      dup5\n        /* \"#utility.yul\":16254:16257   */\n      dup10\n        /* \"#utility.yul\":16250:16269   */\n      add\n        /* \"#utility.yul\":16244:16270   */\n      mload\n        /* \"#utility.yul\":16302:16350   */\n      tag_353\n        /* \"#utility.yul\":16344:16348   */\n      0x1f\n        /* \"#utility.yul\":16336:16342   */\n      dup10\n        /* \"#utility.yul\":16332:16349   */\n      and\n        /* \"#utility.yul\":16321:16330   */\n      dup3\n        /* \"#utility.yul\":16302:16350   */\n      tag_172\n      jump\t// in\n    tag_353:\n        /* \"#utility.yul\":16294:16300   */\n      dup4\n        /* \"#utility.yul\":16287:16351   */\n      sstore\n        /* \"#utility.yul\":16209:16365   */\n      pop\n        /* \"#utility.yul\":16186:16365   */\n    tag_352:\n        /* \"#utility.yul\":16411:16412   */\n      0x01\n        /* \"#utility.yul\":16407:16408   */\n      0x02\n        /* \"#utility.yul\":16399:16405   */\n      dup9\n        /* \"#utility.yul\":16395:16409   */\n      mul\n        /* \"#utility.yul\":16391:16413   */\n      add\n        /* \"#utility.yul\":16385:16389   */\n      dup9\n        /* \"#utility.yul\":16378:16414   */\n      sstore\n        /* \"#utility.yul\":15813:16424   */\n      pop\n      pop\n      pop\n        /* \"#utility.yul\":15776:16663   */\n    tag_344:\n      pop\n        /* \"#utility.yul\":15366:16669   */\n      pop\n      pop\n      pop\n        /* \"#utility.yul\":15274:16669   */\n      pop\n      pop\n      jump\t// out\n        /* \"#utility.yul\":16675:16897   */\n    tag_174:\n        /* \"#utility.yul\":16815:16849   */\n      0x4572726f72203a20796f752061726520616c7265616479207265676973746572\n        /* \"#utility.yul\":16811:16812   */\n      0x00\n        /* \"#utility.yul\":16803:16809   */\n      dup3\n        /* \"#utility.yul\":16799:16813   */\n      add\n        /* \"#utility.yul\":16792:16850   */\n      mstore\n        /* \"#utility.yul\":16884:16889   */\n      0x6564210000000000000000000000000000000000000000000000000000000000\n        /* \"#utility.yul\":16879:16881   */\n      0x20\n        /* \"#utility.yul\":16871:16877   */\n      dup3\n        /* \"#utility.yul\":16867:16882   */\n      add\n        /* \"#utility.yul\":16860:16890   */\n      mstore\n        /* \"#utility.yul\":16675:16897   */\n      pop\n      jump\t// out\n        /* \"#utility.yul\":16903:17269   */\n    tag_175:\n        /* \"#utility.yul\":17045:17048   */\n      0x00\n        /* \"#utility.yul\":17066:17133   */\n      tag_356\n        /* \"#utility.yul\":17130:17132   */\n      0x23\n        /* \"#utility.yul\":17125:17128   */\n      dup4\n        /* \"#utility.yul\":17066:17133   */\n      tag_141\n      jump\t// in\n    tag_356:\n        /* \"#utility.yul\":17059:17133   */\n      swap2\n      pop\n        /* \"#utility.yul\":17142:17235   */\n      tag_357\n        /* \"#utility.yul\":17231:17234   */\n      dup3\n        /* \"#utility.yul\":17142:17235   */\n      tag_174\n      jump\t// in\n    tag_357:\n        /* \"#utility.yul\":17260:17262   */\n      0x40\n        /* \"#utility.yul\":17255:17258   */\n      dup3\n        /* \"#utility.yul\":17251:17263   */\n      add\n        /* \"#utility.yul\":17244:17263   */\n      swap1\n      pop\n        /* \"#utility.yul\":16903:17269   */\n      swap2\n      swap1\n      pop\n      jump\t// out\n        /* \"#utility.yul\":17275:17694   */\n    tag_111:\n        /* \"#utility.yul\":17441:17445   */\n      0x00\n        /* \"#utility.yul\":17479:17481   */\n      0x20\n        /* \"#utility.yul\":17468:17477   */\n      dup3\n        /* \"#utility.yul\":17464:17482   */\n      add\n        /* \"#utility.yul\":17456:17482   */\n      swap1\n      pop\n        /* \"#utility.yul\":17528:17537   */\n      dup2\n        /* \"#utility.yul\":17522:17526   */\n      dup2\n        /* \"#utility.yul\":17518:17538   */\n      sub\n        /* \"#utility.yul\":17514:17515   */\n      0x00\n        /* \"#utility.yul\":17503:17512   */\n      dup4\n        /* \"#utility.yul\":17499:17516   */\n      add\n        /* \"#utility.yul\":17492:17539   */\n      mstore\n        /* \"#utility.yul\":17556:17687   */\n      tag_359\n        /* \"#utility.yul\":17682:17686   */\n      dup2\n        /* \"#utility.yul\":17556:17687   */\n      tag_175\n      jump\t// in\n    tag_359:\n        /* \"#utility.yul\":17548:17687   */\n      swap1\n      pop\n        /* \"#utility.yul\":17275:17694   */\n      swap2\n      swap1\n      pop\n      jump\t// out\n        /* \"#utility.yul\":17700:17933   */\n    tag_117:\n        /* \"#utility.yul\":17739:17742   */\n      0x00\n        /* \"#utility.yul\":17762:17786   */\n      tag_361\n        /* \"#utility.yul\":17780:17785   */\n      dup3\n        /* \"#utility.yul\":17762:17786   */\n      tag_147\n      jump\t// in\n    tag_361:\n        /* \"#utility.yul\":17753:17786   */\n      swap2\n      pop\n        /* \"#utility.yul\":17808:17874   */\n      0xffffffffffffffffffffffffffffffffffffffffffffffffffffffffffffffff\n        /* \"#utility.yul\":17801:17806   */\n      dup3\n        /* \"#utility.yul\":17798:17875   */\n      sub\n        /* \"#utility.yul\":17795:17898   */\n      tag_362\n      jumpi\n        /* \"#utility.yul\":17878:17896   */\n      tag_363\n      tag_157\n      jump\t// in\n    tag_363:\n        /* \"#utility.yul\":17795:17898   */\n    tag_362:\n        /* \"#utility.yul\":17925:17926   */\n      0x01\n        /* \"#utility.yul\":17918:17923   */\n      dup3\n        /* \"#utility.yul\":17914:17927   */\n      add\n        /* \"#utility.yul\":17907:17927   */\n      swap1\n      pop\n        /* \"#utility.yul\":17700:17933   */\n      swap2\n      swap1\n      pop\n      jump\t// out\n\n    auxdata: 0xa2646970667358221220465634f3237ed842ea01845246defe894789a05557f1e15fcbe0eab58ebaf82464736f6c63430008120033\n}\n",
				"bytecode": {
					"linkReferences": {},
					"object": "608060405234801561001057600080fd5b50600080819055506115ba806100276000396000f3fe608060405234801561001057600080fd5b506004361061009e5760003560e01c806395e712f11161006657806395e712f11461015957806398fd3835146101755780639b2ea4bd146101a7578063a738e975146101c3578063bf40fac1146101df5761009e565b8063035e7709146100a357806345de2ca0146100bf5780634aaf4a12146100ef578063524d81d31461011f5780636755d4561461013d575b600080fd5b6100bd60048036038101906100b89190610ce0565b61020f565b005b6100d960048036038101906100d49190610ce0565b610409565b6040516100e69190610da8565b60405180910390f35b61010960048036038101906101049190610ce0565b6104bc565b6040516101169190610e0b565b60405180910390f35b610127610507565b6040516101349190610e3f565b60405180910390f35b61015760048036038101906101529190610e5a565b61050d565b005b610173600480360381019061016e9190610efe565b6105f1565b005b61018f600480360381019061018a9190610ce0565b610706565b60405161019e93929190610f5a565b60405180910390f35b6101c160048036038101906101bc9190610efe565b61080e565b005b6101dd60048036038101906101d89190610f98565b610923565b005b6101f960048036038101906101f49190610ce0565b610ade565b6040516102069190610e0b565b60405180910390f35b803373ffffffffffffffffffffffffffffffffffffffff16600182604051610237919061105f565b908152602001604051809103902060000160009054906101000a900473ffffffffffffffffffffffffffffffffffffffff1673ffffffffffffffffffffffffffffffffffffffff16146102bf576040517f08c379a00000000000000000000000000000000000000000000000000000000081526004016102b6906110c2565b60405180910390fd5b600073ffffffffffffffffffffffffffffffffffffffff166001836040516102e7919061105f565b908152602001604051809103902060000160009054906101000a900473ffffffffffffffffffffffffffffffffffffffff1673ffffffffffffffffffffffffffffffffffffffff160361036f576040517f08c379a000000000000000000000000000000000000000000000000000000000815260040161036690611154565b60405180910390fd5b60018260405161037f919061105f565b9081526020016040518091039020600080820160006101000a81549073ffffffffffffffffffffffffffffffffffffffff02191690556001820160006101000a81549073ffffffffffffffffffffffffffffffffffffffff02191690556002820160006103ec9190610b29565b5050600080815480929190610400906111a3565b91905055505050565b606060018260405161041b919061105f565b90815260200160405180910390206002018054610437906111fb565b80601f0160208091040260200160405190810160405280929190818152602001828054610463906111fb565b80156104b05780601f10610485576101008083540402835291602001916104b0565b820191906000526020600020905b81548152906001019060200180831161049357829003601f168201915b50505050509050919050565b60006001826040516104ce919061105f565b908152602001604051809103902060000160009054906101000a900473ffffffffffffffffffffffffffffffffffffffff169050919050565b60005481565b813373ffffffffffffffffffffffffffffffffffffffff16600182604051610535919061105f565b908152602001604051809103902060000160009054906101000a900473ffffffffffffffffffffffffffffffffffffffff1673ffffffffffffffffffffffffffffffffffffffff16146105bd576040517f08c379a00000000000000000000000000000000000000000000000000000000081526004016105b4906110c2565b60405180910390fd5b816001846040516105ce919061105f565b908152602001604051809103902060020190816105eb91906113d8565b50505050565b813373ffffffffffffffffffffffffffffffffffffffff16600182604051610619919061105f565b908152602001604051809103902060000160009054906101000a900473ffffffffffffffffffffffffffffffffffffffff1673ffffffffffffffffffffffffffffffffffffffff16146106a1576040517f08c379a0000000000000000000000000000000000000000000000000000000008152600401610698906110c2565b60405180910390fd5b816001846040516106b2919061105f565b908152602001604051809103902060000160006101000a81548173ffffffffffffffffffffffffffffffffffffffff021916908373ffffffffffffffffffffffffffffffffffffffff160217905550505050565b6001818051602081018201805184825260208301602085012081835280955050505050506000915090508060000160009054906101000a900473ffffffffffffffffffffffffffffffffffffffff16908060010160009054906101000a900473ffffffffffffffffffffffffffffffffffffffff169080600201805461078b906111fb565b80601f01602080910402602001604051908101604052809291908181526020018280546107b7906111fb565b80156108045780601f106107d957610100808354040283529160200191610804565b820191906000526020600020905b8154815290600101906020018083116107e757829003601f168201915b5050505050905083565b813373ffffffffffffffffffffffffffffffffffffffff16600182604051610836919061105f565b908152602001604051809103902060000160009054906101000a900473ffffffffffffffffffffffffffffffffffffffff1673ffffffffffffffffffffffffffffffffffffffff16146108be576040517f08c379a00000000000000000000000000000000000000000000000000000000081526004016108b5906110c2565b60405180910390fd5b816001846040516108cf919061105f565b908152602001604051809103902060010160006101000a81548173ffffffffffffffffffffffffffffffffffffffff021916908373ffffffffffffffffffffffffffffffffffffffff160217905550505050565b600073ffffffffffffffffffffffffffffffffffffffff1660018460405161094b919061105f565b908152602001604051809103902060000160009054906101000a900473ffffffffffffffffffffffffffffffffffffffff1673ffffffffffffffffffffffffffffffffffffffff16146109d3576040517f08c379a00000000000000000000000000000000000000000000000000000000081526004016109ca9061151c565b60405180910390fd5b336001846040516109e4919061105f565b908152602001604051809103902060000160006101000a81548173ffffffffffffffffffffffffffffffffffffffff021916908373ffffffffffffffffffffffffffffffffffffffff16021790555081600184604051610a44919061105f565b908152602001604051809103902060010160006101000a81548173ffffffffffffffffffffffffffffffffffffffff021916908373ffffffffffffffffffffffffffffffffffffffff16021790555080600184604051610aa4919061105f565b90815260200160405180910390206002019081610ac191906113d8565b50600080815480929190610ad49061153c565b9190505550505050565b6000600182604051610af0919061105f565b908152602001604051809103902060010160009054906101000a900473ffffffffffffffffffffffffffffffffffffffff169050919050565b508054610b35906111fb565b6000825580601f10610b475750610b66565b601f016020900490600052602060002090810190610b659190610b69565b5b50565b5b80821115610b82576000816000905550600101610b6a565b5090565b6000604051905090565b600080fd5b600080fd5b600080fd5b600080fd5b6000601f19601f8301169050919050565b7f4e487b7100000000000000000000000000000000000000000000000000000000600052604160045260246000fd5b610bed82610ba4565b810181811067ffffffffffffffff82111715610c0c57610c0b610bb5565b5b80604052505050565b6000610c1f610b86565b9050610c2b8282610be4565b919050565b600067ffffffffffffffff821115610c4b57610c4a610bb5565b5b610c5482610ba4565b9050602081019050919050565b82818337600083830152505050565b6000610c83610c7e84610c30565b610c15565b905082815260208101848484011115610c9f57610c9e610b9f565b5b610caa848285610c61565b509392505050565b600082601f830112610cc757610cc6610b9a565b5b8135610cd7848260208601610c70565b91505092915050565b600060208284031215610cf657610cf5610b90565b5b600082013567ffffffffffffffff811115610d1457610d13610b95565b5b610d2084828501610cb2565b91505092915050565b600081519050919050565b600082825260208201905092915050565b60005b83811015610d63578082015181840152602081019050610d48565b60008484015250505050565b6000610d7a82610d29565b610d848185610d34565b9350610d94818560208601610d45565b610d9d81610ba4565b840191505092915050565b60006020820190508181036000830152610dc28184610d6f565b905092915050565b600073ffffffffffffffffffffffffffffffffffffffff82169050919050565b6000610df582610dca565b9050919050565b610e0581610dea565b82525050565b6000602082019050610e206000830184610dfc565b92915050565b6000819050919050565b610e3981610e26565b82525050565b6000602082019050610e546000830184610e30565b92915050565b60008060408385031215610e7157610e70610b90565b5b600083013567ffffffffffffffff811115610e8f57610e8e610b95565b5b610e9b85828601610cb2565b925050602083013567ffffffffffffffff811115610ebc57610ebb610b95565b5b610ec885828601610cb2565b9150509250929050565b610edb81610dea565b8114610ee657600080fd5b50565b600081359050610ef881610ed2565b92915050565b60008060408385031215610f1557610f14610b90565b5b600083013567ffffffffffffffff811115610f3357610f32610b95565b5b610f3f85828601610cb2565b9250506020610f5085828601610ee9565b9150509250929050565b6000606082019050610f6f6000830186610dfc565b610f7c6020830185610dfc565b8181036040830152610f8e8184610d6f565b9050949350505050565b600080600060608486031215610fb157610fb0610b90565b5b600084013567ffffffffffffffff811115610fcf57610fce610b95565b5b610fdb86828701610cb2565b9350506020610fec86828701610ee9565b925050604084013567ffffffffffffffff81111561100d5761100c610b95565b5b61101986828701610cb2565b9150509250925092565b600081905092915050565b600061103982610d29565b6110438185611023565b9350611053818560208601610d45565b80840191505092915050565b600061106b828461102e565b915081905092915050565b7f4572726f72203a20796f7520617265206e6f74206f776e657200000000000000600082015250565b60006110ac601983610d34565b91506110b782611076565b602082019050919050565b600060208201905081810360008301526110db8161109f565b9050919050565b7f4572726f72203a20796f7520617265206e6f74207265676973746564206f757260008201527f2073797374656d21000000000000000000000000000000000000000000000000602082015250565b600061113e602883610d34565b9150611149826110e2565b604082019050919050565b6000602082019050818103600083015261116d81611131565b9050919050565b7f4e487b7100000000000000000000000000000000000000000000000000000000600052601160045260246000fd5b60006111ae82610e26565b9150600082036111c1576111c0611174565b5b600182039050919050565b7f4e487b7100000000000000000000000000000000000000000000000000000000600052602260045260246000fd5b6000600282049050600182168061121357607f821691505b602082108103611226576112256111cc565b5b50919050565b60008190508160005260206000209050919050565b60006020601f8301049050919050565b600082821b905092915050565b60006008830261128e7fffffffffffffffffffffffffffffffffffffffffffffffffffffffffffffffff82611251565b6112988683611251565b95508019841693508086168417925050509392505050565b6000819050919050565b60006112d56112d06112cb84610e26565b6112b0565b610e26565b9050919050565b6000819050919050565b6112ef836112ba565b6113036112fb826112dc565b84845461125e565b825550505050565b600090565b61131861130b565b6113238184846112e6565b505050565b5b818110156113475761133c600082611310565b600181019050611329565b5050565b601f82111561138c5761135d8161122c565b61136684611241565b81016020851015611375578190505b61138961138185611241565b830182611328565b50505b505050565b600082821c905092915050565b60006113af60001984600802611391565b1980831691505092915050565b60006113c8838361139e565b9150826002028217905092915050565b6113e182610d29565b67ffffffffffffffff8111156113fa576113f9610bb5565b5b61140482546111fb565b61140f82828561134b565b600060209050601f8311600181146114425760008415611430578287015190505b61143a85826113bc565b8655506114a2565b601f1984166114508661122c565b60005b8281101561147857848901518255600182019150602085019450602081019050611453565b868310156114955784890151611491601f89168261139e565b8355505b6001600288020188555050505b505050505050565b7f4572726f72203a20796f752061726520616c726561647920726567697374657260008201527f6564210000000000000000000000000000000000000000000000000000000000602082015250565b6000611506602383610d34565b9150611511826114aa565b604082019050919050565b60006020820190508181036000830152611535816114f9565b9050919050565b600061154782610e26565b91507fffffffffffffffffffffffffffffffffffffffffffffffffffffffffffffffff820361157957611578611174565b5b60018201905091905056fea2646970667358221220465634f3237ed842ea01845246defe894789a05557f1e15fcbe0eab58ebaf82464736f6c63430008120033",
					"opcodes": "PUSH1 0x80 PUSH1 0x40 MSTORE CALLVALUE DUP1 ISZERO PUSH2 0x10 JUMPI PUSH1 0x0 DUP1 REVERT JUMPDEST POP PUSH1 0x0 DUP1 DUP2 SWAP1 SSTORE POP PUSH2 0x15BA DUP1 PUSH2 0x27 PUSH1 0x0 CODECOPY PUSH1 0x0 RETURN INVALID PUSH1 0x80 PUSH1 0x40 MSTORE CALLVALUE DUP1 ISZERO PUSH2 0x10 JUMPI PUSH1 0x0 DUP1 REVERT JUMPDEST POP PUSH1 0x4 CALLDATASIZE LT PUSH2 0x9E JUMPI PUSH1 0x0 CALLDATALOAD PUSH1 0xE0 SHR DUP1 PUSH4 0x95E712F1 GT PUSH2 0x66 JUMPI DUP1 PUSH4 0x95E712F1 EQ PUSH2 0x159 JUMPI DUP1 PUSH4 0x98FD3835 EQ PUSH2 0x175 JUMPI DUP1 PUSH4 0x9B2EA4BD EQ PUSH2 0x1A7 JUMPI DUP1 PUSH4 0xA738E975 EQ PUSH2 0x1C3 JUMPI DUP1 PUSH4 0xBF40FAC1 EQ PUSH2 0x1DF JUMPI PUSH2 0x9E JUMP JUMPDEST DUP1 PUSH4 0x35E7709 EQ PUSH2 0xA3 JUMPI DUP1 PUSH4 0x45DE2CA0 EQ PUSH2 0xBF JUMPI DUP1 PUSH4 0x4AAF4A12 EQ PUSH2 0xEF JUMPI DUP1 PUSH4 0x524D81D3 EQ PUSH2 0x11F JUMPI DUP1 PUSH4 0x6755D456 EQ PUSH2 0x13D JUMPI JUMPDEST PUSH1 0x0 DUP1 REVERT JUMPDEST PUSH2 0xBD PUSH1 0x4 DUP1 CALLDATASIZE SUB DUP2 ADD SWAP1 PUSH2 0xB8 SWAP2 SWAP1 PUSH2 0xCE0 JUMP JUMPDEST PUSH2 0x20F JUMP JUMPDEST STOP JUMPDEST PUSH2 0xD9 PUSH1 0x4 DUP1 CALLDATASIZE SUB DUP2 ADD SWAP1 PUSH2 0xD4 SWAP2 SWAP1 PUSH2 0xCE0 JUMP JUMPDEST PUSH2 0x409 JUMP JUMPDEST PUSH1 0x40 MLOAD PUSH2 0xE6 SWAP2 SWAP1 PUSH2 0xDA8 JUMP JUMPDEST PUSH1 0x40 MLOAD DUP1 SWAP2 SUB SWAP1 RETURN JUMPDEST PUSH2 0x109 PUSH1 0x4 DUP1 CALLDATASIZE SUB DUP2 ADD SWAP1 PUSH2 0x104 SWAP2 SWAP1 PUSH2 0xCE0 JUMP JUMPDEST PUSH2 0x4BC JUMP JUMPDEST PUSH1 0x40 MLOAD PUSH2 0x116 SWAP2 SWAP1 PUSH2 0xE0B JUMP JUMPDEST PUSH1 0x40 MLOAD DUP1 SWAP2 SUB SWAP1 RETURN JUMPDEST PUSH2 0x127 PUSH2 0x507 JUMP JUMPDEST PUSH1 0x40 MLOAD PUSH2 0x134 SWAP2 SWAP1 PUSH2 0xE3F JUMP JUMPDEST PUSH1 0x40 MLOAD DUP1 SWAP2 SUB SWAP1 RETURN JUMPDEST PUSH2 0x157 PUSH1 0x4 DUP1 CALLDATASIZE SUB DUP2 ADD SWAP1 PUSH2 0x152 SWAP2 SWAP1 PUSH2 0xE5A JUMP JUMPDEST PUSH2 0x50D JUMP JUMPDEST STOP JUMPDEST PUSH2 0x173 PUSH1 0x4 DUP1 CALLDATASIZE SUB DUP2 ADD SWAP1 PUSH2 0x16E SWAP2 SWAP1 PUSH2 0xEFE JUMP JUMPDEST PUSH2 0x5F1 JUMP JUMPDEST STOP JUMPDEST PUSH2 0x18F PUSH1 0x4 DUP1 CALLDATASIZE SUB DUP2 ADD SWAP1 PUSH2 0x18A SWAP2 SWAP1 PUSH2 0xCE0 JUMP JUMPDEST PUSH2 0x706 JUMP JUMPDEST PUSH1 0x40 MLOAD PUSH2 0x19E SWAP4 SWAP3 SWAP2 SWAP1 PUSH2 0xF5A JUMP JUMPDEST PUSH1 0x40 MLOAD DUP1 SWAP2 SUB SWAP1 RETURN JUMPDEST PUSH2 0x1C1 PUSH1 0x4 DUP1 CALLDATASIZE SUB DUP2 ADD SWAP1 PUSH2 0x1BC SWAP2 SWAP1 PUSH2 0xEFE JUMP JUMPDEST PUSH2 0x80E JUMP JUMPDEST STOP JUMPDEST PUSH2 0x1DD PUSH1 0x4 DUP1 CALLDATASIZE SUB DUP2 ADD SWAP1 PUSH2 0x1D8 SWAP2 SWAP1 PUSH2 0xF98 JUMP JUMPDEST PUSH2 0x923 JUMP JUMPDEST STOP JUMPDEST PUSH2 0x1F9 PUSH1 0x4 DUP1 CALLDATASIZE SUB DUP2 ADD SWAP1 PUSH2 0x1F4 SWAP2 SWAP1 PUSH2 0xCE0 JUMP JUMPDEST PUSH2 0xADE JUMP JUMPDEST PUSH1 0x40 MLOAD PUSH2 0x206 SWAP2 SWAP1 PUSH2 0xE0B JUMP JUMPDEST PUSH1 0x40 MLOAD DUP1 SWAP2 SUB SWAP1 RETURN JUMPDEST DUP1 CALLER PUSH20 0xFFFFFFFFFFFFFFFFFFFFFFFFFFFFFFFFFFFFFFFF AND PUSH1 0x1 DUP3 PUSH1 0x40 MLOAD PUSH2 0x237 SWAP2 SWAP1 PUSH2 0x105F JUMP JUMPDEST SWAP1 DUP2 MSTORE PUSH1 0x20 ADD PUSH1 0x40 MLOAD DUP1 SWAP2 SUB SWAP1 KECCAK256 PUSH1 0x0 ADD PUSH1 0x0 SWAP1 SLOAD SWAP1 PUSH2 0x100 EXP SWAP1 DIV PUSH20 0xFFFFFFFFFFFFFFFFFFFFFFFFFFFFFFFFFFFFFFFF AND PUSH20 0xFFFFFFFFFFFFFFFFFFFFFFFFFFFFFFFFFFFFFFFF AND EQ PUSH2 0x2BF JUMPI PUSH1 0x40 MLOAD PUSH32 0x8C379A000000000000000000000000000000000000000000000000000000000 DUP2 MSTORE PUSH1 0x4 ADD PUSH2 0x2B6 SWAP1 PUSH2 0x10C2 JUMP JUMPDEST PUSH1 0x40 MLOAD DUP1 SWAP2 SUB SWAP1 REVERT JUMPDEST PUSH1 0x0 PUSH20 0xFFFFFFFFFFFFFFFFFFFFFFFFFFFFFFFFFFFFFFFF AND PUSH1 0x1 DUP4 PUSH1 0x40 MLOAD PUSH2 0x2E7 SWAP2 SWAP1 PUSH2 0x105F JUMP JUMPDEST SWAP1 DUP2 MSTORE PUSH1 0x20 ADD PUSH1 0x40 MLOAD DUP1 SWAP2 SUB SWAP1 KECCAK256 PUSH1 0x0 ADD PUSH1 0x0 SWAP1 SLOAD SWAP1 PUSH2 0x100 EXP SWAP1 DIV PUSH20 0xFFFFFFFFFFFFFFFFFFFFFFFFFFFFFFFFFFFFFFFF AND PUSH20 0xFFFFFFFFFFFFFFFFFFFFFFFFFFFFFFFFFFFFFFFF AND SUB PUSH2 0x36F JUMPI PUSH1 0x40 MLOAD PUSH32 0x8C379A000000000000000000000000000000000000000000000000000000000 DUP2 MSTORE PUSH1 0x4 ADD PUSH2 0x366 SWAP1 PUSH2 0x1154 JUMP JUMPDEST PUSH1 0x40 MLOAD DUP1 SWAP2 SUB SWAP1 REVERT JUMPDEST PUSH1 0x1 DUP3 PUSH1 0x40 MLOAD PUSH2 0x37F SWAP2 SWAP1 PUSH2 0x105F JUMP JUMPDEST SWAP1 DUP2 MSTORE PUSH1 0x20 ADD PUSH1 0x40 MLOAD DUP1 SWAP2 SUB SWAP1 KECCAK256 PUSH1 0x0 DUP1 DUP3 ADD PUSH1 0x0 PUSH2 0x100 EXP DUP2 SLOAD SWAP1 PUSH20 0xFFFFFFFFFFFFFFFFFFFFFFFFFFFFFFFFFFFFFFFF MUL NOT AND SWAP1 SSTORE PUSH1 0x1 DUP3 ADD PUSH1 0x0 PUSH2 0x100 EXP DUP2 SLOAD SWAP1 PUSH20 0xFFFFFFFFFFFFFFFFFFFFFFFFFFFFFFFFFFFFFFFF MUL NOT AND SWAP1 SSTORE PUSH1 0x2 DUP3 ADD PUSH1 0x0 PUSH2 0x3EC SWAP2 SWAP1 PUSH2 0xB29 JUMP JUMPDEST POP POP PUSH1 0x0 DUP1 DUP2 SLOAD DUP1 SWAP3 SWAP2 SWAP1 PUSH2 0x400 SWAP1 PUSH2 0x11A3 JUMP JUMPDEST SWAP2 SWAP1 POP SSTORE POP POP POP JUMP JUMPDEST PUSH1 0x60 PUSH1 0x1 DUP3 PUSH1 0x40 MLOAD PUSH2 0x41B SWAP2 SWAP1 PUSH2 0x105F JUMP JUMPDEST SWAP1 DUP2 MSTORE PUSH1 0x20 ADD PUSH1 0x40 MLOAD DUP1 SWAP2 SUB SWAP1 KECCAK256 PUSH1 0x2 ADD DUP1 SLOAD PUSH2 0x437 SWAP1 PUSH2 0x11FB JUMP JUMPDEST DUP1 PUSH1 0x1F ADD PUSH1 0x20 DUP1 SWAP2 DIV MUL PUSH1 0x20 ADD PUSH1 0x40 MLOAD SWAP1 DUP2 ADD PUSH1 0x40 MSTORE DUP1 SWAP3 SWAP2 SWAP1 DUP2 DUP2 MSTORE PUSH1 0x20 ADD DUP3 DUP1 SLOAD PUSH2 0x463 SWAP1 PUSH2 0x11FB JUMP JUMPDEST DUP1 ISZERO PUSH2 0x4B0 JUMPI DUP1 PUSH1 0x1F LT PUSH2 0x485 JUMPI PUSH2 0x100 DUP1 DUP4 SLOAD DIV MUL DUP4 MSTORE SWAP2 PUSH1 0x20 ADD SWAP2 PUSH2 0x4B0 JUMP JUMPDEST DUP3 ADD SWAP2 SWAP1 PUSH1 0x0 MSTORE PUSH1 0x20 PUSH1 0x0 KECCAK256 SWAP1 JUMPDEST DUP2 SLOAD DUP2 MSTORE SWAP1 PUSH1 0x1 ADD SWAP1 PUSH1 0x20 ADD DUP1 DUP4 GT PUSH2 0x493 JUMPI DUP3 SWAP1 SUB PUSH1 0x1F AND DUP3 ADD SWAP2 JUMPDEST POP POP POP POP POP SWAP1 POP SWAP2 SWAP1 POP JUMP JUMPDEST PUSH1 0x0 PUSH1 0x1 DUP3 PUSH1 0x40 MLOAD PUSH2 0x4CE SWAP2 SWAP1 PUSH2 0x105F JUMP JUMPDEST SWAP1 DUP2 MSTORE PUSH1 0x20 ADD PUSH1 0x40 MLOAD DUP1 SWAP2 SUB SWAP1 KECCAK256 PUSH1 0x0 ADD PUSH1 0x0 SWAP1 SLOAD SWAP1 PUSH2 0x100 EXP SWAP1 DIV PUSH20 0xFFFFFFFFFFFFFFFFFFFFFFFFFFFFFFFFFFFFFFFF AND SWAP1 POP SWAP2 SWAP1 POP JUMP JUMPDEST PUSH1 0x0 SLOAD DUP2 JUMP JUMPDEST DUP2 CALLER PUSH20 0xFFFFFFFFFFFFFFFFFFFFFFFFFFFFFFFFFFFFFFFF AND PUSH1 0x1 DUP3 PUSH1 0x40 MLOAD PUSH2 0x535 SWAP2 SWAP1 PUSH2 0x105F JUMP JUMPDEST SWAP1 DUP2 MSTORE PUSH1 0x20 ADD PUSH1 0x40 MLOAD DUP1 SWAP2 SUB SWAP1 KECCAK256 PUSH1 0x0 ADD PUSH1 0x0 SWAP1 SLOAD SWAP1 PUSH2 0x100 EXP SWAP1 DIV PUSH20 0xFFFFFFFFFFFFFFFFFFFFFFFFFFFFFFFFFFFFFFFF AND PUSH20 0xFFFFFFFFFFFFFFFFFFFFFFFFFFFFFFFFFFFFFFFF AND EQ PUSH2 0x5BD JUMPI PUSH1 0x40 MLOAD PUSH32 0x8C379A000000000000000000000000000000000000000000000000000000000 DUP2 MSTORE PUSH1 0x4 ADD PUSH2 0x5B4 SWAP1 PUSH2 0x10C2 JUMP JUMPDEST PUSH1 0x40 MLOAD DUP1 SWAP2 SUB SWAP1 REVERT JUMPDEST DUP2 PUSH1 0x1 DUP5 PUSH1 0x40 MLOAD PUSH2 0x5CE SWAP2 SWAP1 PUSH2 0x105F JUMP JUMPDEST SWAP1 DUP2 MSTORE PUSH1 0x20 ADD PUSH1 0x40 MLOAD DUP1 SWAP2 SUB SWAP1 KECCAK256 PUSH1 0x2 ADD SWAP1 DUP2 PUSH2 0x5EB SWAP2 SWAP1 PUSH2 0x13D8 JUMP JUMPDEST POP POP POP POP JUMP JUMPDEST DUP2 CALLER PUSH20 0xFFFFFFFFFFFFFFFFFFFFFFFFFFFFFFFFFFFFFFFF AND PUSH1 0x1 DUP3 PUSH1 0x40 MLOAD PUSH2 0x619 SWAP2 SWAP1 PUSH2 0x105F JUMP JUMPDEST SWAP1 DUP2 MSTORE PUSH1 0x20 ADD PUSH1 0x40 MLOAD DUP1 SWAP2 SUB SWAP1 KECCAK256 PUSH1 0x0 ADD PUSH1 0x0 SWAP1 SLOAD SWAP1 PUSH2 0x100 EXP SWAP1 DIV PUSH20 0xFFFFFFFFFFFFFFFFFFFFFFFFFFFFFFFFFFFFFFFF AND PUSH20 0xFFFFFFFFFFFFFFFFFFFFFFFFFFFFFFFFFFFFFFFF AND EQ PUSH2 0x6A1 JUMPI PUSH1 0x40 MLOAD PUSH32 0x8C379A000000000000000000000000000000000000000000000000000000000 DUP2 MSTORE PUSH1 0x4 ADD PUSH2 0x698 SWAP1 PUSH2 0x10C2 JUMP JUMPDEST PUSH1 0x40 MLOAD DUP1 SWAP2 SUB SWAP1 REVERT JUMPDEST DUP2 PUSH1 0x1 DUP5 PUSH1 0x40 MLOAD PUSH2 0x6B2 SWAP2 SWAP1 PUSH2 0x105F JUMP JUMPDEST SWAP1 DUP2 MSTORE PUSH1 0x20 ADD PUSH1 0x40 MLOAD DUP1 SWAP2 SUB SWAP1 KECCAK256 PUSH1 0x0 ADD PUSH1 0x0 PUSH2 0x100 EXP DUP2 SLOAD DUP2 PUSH20 0xFFFFFFFFFFFFFFFFFFFFFFFFFFFFFFFFFFFFFFFF MUL NOT AND SWAP1 DUP4 PUSH20 0xFFFFFFFFFFFFFFFFFFFFFFFFFFFFFFFFFFFFFFFF AND MUL OR SWAP1 SSTORE POP POP POP POP JUMP JUMPDEST PUSH1 0x1 DUP2 DUP1 MLOAD PUSH1 0x20 DUP2 ADD DUP3 ADD DUP1 MLOAD DUP5 DUP3 MSTORE PUSH1 0x20 DUP4 ADD PUSH1 0x20 DUP6 ADD KECCAK256 DUP2 DUP4 MSTORE DUP1 SWAP6 POP POP POP POP POP POP PUSH1 0x0 SWAP2 POP SWAP1 POP DUP1 PUSH1 0x0 ADD PUSH1 0x0 SWAP1 SLOAD SWAP1 PUSH2 0x100 EXP SWAP1 DIV PUSH20 0xFFFFFFFFFFFFFFFFFFFFFFFFFFFFFFFFFFFFFFFF AND SWAP1 DUP1 PUSH1 0x1 ADD PUSH1 0x0 SWAP1 SLOAD SWAP1 PUSH2 0x100 EXP SWAP1 DIV PUSH20 0xFFFFFFFFFFFFFFFFFFFFFFFFFFFFFFFFFFFFFFFF AND SWAP1 DUP1 PUSH1 0x2 ADD DUP1 SLOAD PUSH2 0x78B SWAP1 PUSH2 0x11FB JUMP JUMPDEST DUP1 PUSH1 0x1F ADD PUSH1 0x20 DUP1 SWAP2 DIV MUL PUSH1 0x20 ADD PUSH1 0x40 MLOAD SWAP1 DUP2 ADD PUSH1 0x40 MSTORE DUP1 SWAP3 SWAP2 SWAP1 DUP2 DUP2 MSTORE PUSH1 0x20 ADD DUP3 DUP1 SLOAD PUSH2 0x7B7 SWAP1 PUSH2 0x11FB JUMP JUMPDEST DUP1 ISZERO PUSH2 0x804 JUMPI DUP1 PUSH1 0x1F LT PUSH2 0x7D9 JUMPI PUSH2 0x100 DUP1 DUP4 SLOAD DIV MUL DUP4 MSTORE SWAP2 PUSH1 0x20 ADD SWAP2 PUSH2 0x804 JUMP JUMPDEST DUP3 ADD SWAP2 SWAP1 PUSH1 0x0 MSTORE PUSH1 0x20 PUSH1 0x0 KECCAK256 SWAP1 JUMPDEST DUP2 SLOAD DUP2 MSTORE SWAP1 PUSH1 0x1 ADD SWAP1 PUSH1 0x20 ADD DUP1 DUP4 GT PUSH2 0x7E7 JUMPI DUP3 SWAP1 SUB PUSH1 0x1F AND DUP3 ADD SWAP2 JUMPDEST POP POP POP POP POP SWAP1 POP DUP4 JUMP JUMPDEST DUP2 CALLER PUSH20 0xFFFFFFFFFFFFFFFFFFFFFFFFFFFFFFFFFFFFFFFF AND PUSH1 0x1 DUP3 PUSH1 0x40 MLOAD PUSH2 0x836 SWAP2 SWAP1 PUSH2 0x105F JUMP JUMPDEST SWAP1 DUP2 MSTORE PUSH1 0x20 ADD PUSH1 0x40 MLOAD DUP1 SWAP2 SUB SWAP1 KECCAK256 PUSH1 0x0 ADD PUSH1 0x0 SWAP1 SLOAD SWAP1 PUSH2 0x100 EXP SWAP1 DIV PUSH20 0xFFFFFFFFFFFFFFFFFFFFFFFFFFFFFFFFFFFFFFFF AND PUSH20 0xFFFFFFFFFFFFFFFFFFFFFFFFFFFFFFFFFFFFFFFF AND EQ PUSH2 0x8BE JUMPI PUSH1 0x40 MLOAD PUSH32 0x8C379A000000000000000000000000000000000000000000000000000000000 DUP2 MSTORE PUSH1 0x4 ADD PUSH2 0x8B5 SWAP1 PUSH2 0x10C2 JUMP JUMPDEST PUSH1 0x40 MLOAD DUP1 SWAP2 SUB SWAP1 REVERT JUMPDEST DUP2 PUSH1 0x1 DUP5 PUSH1 0x40 MLOAD PUSH2 0x8CF SWAP2 SWAP1 PUSH2 0x105F JUMP JUMPDEST SWAP1 DUP2 MSTORE PUSH1 0x20 ADD PUSH1 0x40 MLOAD DUP1 SWAP2 SUB SWAP1 KECCAK256 PUSH1 0x1 ADD PUSH1 0x0 PUSH2 0x100 EXP DUP2 SLOAD DUP2 PUSH20 0xFFFFFFFFFFFFFFFFFFFFFFFFFFFFFFFFFFFFFFFF MUL NOT AND SWAP1 DUP4 PUSH20 0xFFFFFFFFFFFFFFFFFFFFFFFFFFFFFFFFFFFFFFFF AND MUL OR SWAP1 SSTORE POP POP POP POP JUMP JUMPDEST PUSH1 0x0 PUSH20 0xFFFFFFFFFFFFFFFFFFFFFFFFFFFFFFFFFFFFFFFF AND PUSH1 0x1 DUP5 PUSH1 0x40 MLOAD PUSH2 0x94B SWAP2 SWAP1 PUSH2 0x105F JUMP JUMPDEST SWAP1 DUP2 MSTORE PUSH1 0x20 ADD PUSH1 0x40 MLOAD DUP1 SWAP2 SUB SWAP1 KECCAK256 PUSH1 0x0 ADD PUSH1 0x0 SWAP1 SLOAD SWAP1 PUSH2 0x100 EXP SWAP1 DIV PUSH20 0xFFFFFFFFFFFFFFFFFFFFFFFFFFFFFFFFFFFFFFFF AND PUSH20 0xFFFFFFFFFFFFFFFFFFFFFFFFFFFFFFFFFFFFFFFF AND EQ PUSH2 0x9D3 JUMPI PUSH1 0x40 MLOAD PUSH32 0x8C379A000000000000000000000000000000000000000000000000000000000 DUP2 MSTORE PUSH1 0x4 ADD PUSH2 0x9CA SWAP1 PUSH2 0x151C JUMP JUMPDEST PUSH1 0x40 MLOAD DUP1 SWAP2 SUB SWAP1 REVERT JUMPDEST CALLER PUSH1 0x1 DUP5 PUSH1 0x40 MLOAD PUSH2 0x9E4 SWAP2 SWAP1 PUSH2 0x105F JUMP JUMPDEST SWAP1 DUP2 MSTORE PUSH1 0x20 ADD PUSH1 0x40 MLOAD DUP1 SWAP2 SUB SWAP1 KECCAK256 PUSH1 0x0 ADD PUSH1 0x0 PUSH2 0x100 EXP DUP2 SLOAD DUP2 PUSH20 0xFFFFFFFFFFFFFFFFFFFFFFFFFFFFFFFFFFFFFFFF MUL NOT AND SWAP1 DUP4 PUSH20 0xFFFFFFFFFFFFFFFFFFFFFFFFFFFFFFFFFFFFFFFF AND MUL OR SWAP1 SSTORE POP DUP2 PUSH1 0x1 DUP5 PUSH1 0x40 MLOAD PUSH2 0xA44 SWAP2 SWAP1 PUSH2 0x105F JUMP JUMPDEST SWAP1 DUP2 MSTORE PUSH1 0x20 ADD PUSH1 0x40 MLOAD DUP1 SWAP2 SUB SWAP1 KECCAK256 PUSH1 0x1 ADD PUSH1 0x0 PUSH2 0x100 EXP DUP2 SLOAD DUP2 PUSH20 0xFFFFFFFFFFFFFFFFFFFFFFFFFFFFFFFFFFFFFFFF MUL NOT AND SWAP1 DUP4 PUSH20 0xFFFFFFFFFFFFFFFFFFFFFFFFFFFFFFFFFFFFFFFF AND MUL OR SWAP1 SSTORE POP DUP1 PUSH1 0x1 DUP5 PUSH1 0x40 MLOAD PUSH2 0xAA4 SWAP2 SWAP1 PUSH2 0x105F JUMP JUMPDEST SWAP1 DUP2 MSTORE PUSH1 0x20 ADD PUSH1 0x40 MLOAD DUP1 SWAP2 SUB SWAP1 KECCAK256 PUSH1 0x2 ADD SWAP1 DUP2 PUSH2 0xAC1 SWAP2 SWAP1 PUSH2 0x13D8 JUMP JUMPDEST POP PUSH1 0x0 DUP1 DUP2 SLOAD DUP1 SWAP3 SWAP2 SWAP1 PUSH2 0xAD4 SWAP1 PUSH2 0x153C JUMP JUMPDEST SWAP2 SWAP1 POP SSTORE POP POP POP POP JUMP JUMPDEST PUSH1 0x0 PUSH1 0x1 DUP3 PUSH1 0x40 MLOAD PUSH2 0xAF0 SWAP2 SWAP1 PUSH2 0x105F JUMP JUMPDEST SWAP1 DUP2 MSTORE PUSH1 0x20 ADD PUSH1 0x40 MLOAD DUP1 SWAP2 SUB SWAP1 KECCAK256 PUSH1 0x1 ADD PUSH1 0x0 SWAP1 SLOAD SWAP1 PUSH2 0x100 EXP SWAP1 DIV PUSH20 0xFFFFFFFFFFFFFFFFFFFFFFFFFFFFFFFFFFFFFFFF AND SWAP1 POP SWAP2 SWAP1 POP JUMP JUMPDEST POP DUP1 SLOAD PUSH2 0xB35 SWAP1 PUSH2 0x11FB JUMP JUMPDEST PUSH1 0x0 DUP3 SSTORE DUP1 PUSH1 0x1F LT PUSH2 0xB47 JUMPI POP PUSH2 0xB66 JUMP JUMPDEST PUSH1 0x1F ADD PUSH1 0x20 SWAP1 DIV SWAP1 PUSH1 0x0 MSTORE PUSH1 0x20 PUSH1 0x0 KECCAK256 SWAP1 DUP2 ADD SWAP1 PUSH2 0xB65 SWAP2 SWAP1 PUSH2 0xB69 JUMP JUMPDEST JUMPDEST POP JUMP JUMPDEST JUMPDEST DUP1 DUP3 GT ISZERO PUSH2 0xB82 JUMPI PUSH1 0x0 DUP2 PUSH1 0x0 SWAP1 SSTORE POP PUSH1 0x1 ADD PUSH2 0xB6A JUMP JUMPDEST POP SWAP1 JUMP JUMPDEST PUSH1 0x0 PUSH1 0x40 MLOAD SWAP1 POP SWAP1 JUMP JUMPDEST PUSH1 0x0 DUP1 REVERT JUMPDEST PUSH1 0x0 DUP1 REVERT JUMPDEST PUSH1 0x0 DUP1 REVERT JUMPDEST PUSH1 0x0 DUP1 REVERT JUMPDEST PUSH1 0x0 PUSH1 0x1F NOT PUSH1 0x1F DUP4 ADD AND SWAP1 POP SWAP2 SWAP1 POP JUMP JUMPDEST PUSH32 0x4E487B7100000000000000000000000000000000000000000000000000000000 PUSH1 0x0 MSTORE PUSH1 0x41 PUSH1 0x4 MSTORE PUSH1 0x24 PUSH1 0x0 REVERT JUMPDEST PUSH2 0xBED DUP3 PUSH2 0xBA4 JUMP JUMPDEST DUP2 ADD DUP2 DUP2 LT PUSH8 0xFFFFFFFFFFFFFFFF DUP3 GT OR ISZERO PUSH2 0xC0C JUMPI PUSH2 0xC0B PUSH2 0xBB5 JUMP JUMPDEST JUMPDEST DUP1 PUSH1 0x40 MSTORE POP POP POP JUMP JUMPDEST PUSH1 0x0 PUSH2 0xC1F PUSH2 0xB86 JUMP JUMPDEST SWAP1 POP PUSH2 0xC2B DUP3 DUP3 PUSH2 0xBE4 JUMP JUMPDEST SWAP2 SWAP1 POP JUMP JUMPDEST PUSH1 0x0 PUSH8 0xFFFFFFFFFFFFFFFF DUP3 GT ISZERO PUSH2 0xC4B JUMPI PUSH2 0xC4A PUSH2 0xBB5 JUMP JUMPDEST JUMPDEST PUSH2 0xC54 DUP3 PUSH2 0xBA4 JUMP JUMPDEST SWAP1 POP PUSH1 0x20 DUP2 ADD SWAP1 POP SWAP2 SWAP1 POP JUMP JUMPDEST DUP3 DUP2 DUP4 CALLDATACOPY PUSH1 0x0 DUP4 DUP4 ADD MSTORE POP POP POP JUMP JUMPDEST PUSH1 0x0 PUSH2 0xC83 PUSH2 0xC7E DUP5 PUSH2 0xC30 JUMP JUMPDEST PUSH2 0xC15 JUMP JUMPDEST SWAP1 POP DUP3 DUP2 MSTORE PUSH1 0x20 DUP2 ADD DUP5 DUP5 DUP5 ADD GT ISZERO PUSH2 0xC9F JUMPI PUSH2 0xC9E PUSH2 0xB9F JUMP JUMPDEST JUMPDEST PUSH2 0xCAA DUP5 DUP3 DUP6 PUSH2 0xC61 JUMP JUMPDEST POP SWAP4 SWAP3 POP POP POP JUMP JUMPDEST PUSH1 0x0 DUP3 PUSH1 0x1F DUP4 ADD SLT PUSH2 0xCC7 JUMPI PUSH2 0xCC6 PUSH2 0xB9A JUMP JUMPDEST JUMPDEST DUP2 CALLDATALOAD PUSH2 0xCD7 DUP5 DUP3 PUSH1 0x20 DUP7 ADD PUSH2 0xC70 JUMP JUMPDEST SWAP2 POP POP SWAP3 SWAP2 POP POP JUMP JUMPDEST PUSH1 0x0 PUSH1 0x20 DUP3 DUP5 SUB SLT ISZERO PUSH2 0xCF6 JUMPI PUSH2 0xCF5 PUSH2 0xB90 JUMP JUMPDEST JUMPDEST PUSH1 0x0 DUP3 ADD CALLDATALOAD PUSH8 0xFFFFFFFFFFFFFFFF DUP2 GT ISZERO PUSH2 0xD14 JUMPI PUSH2 0xD13 PUSH2 0xB95 JUMP JUMPDEST JUMPDEST PUSH2 0xD20 DUP5 DUP3 DUP6 ADD PUSH2 0xCB2 JUMP JUMPDEST SWAP2 POP POP SWAP3 SWAP2 POP POP JUMP JUMPDEST PUSH1 0x0 DUP2 MLOAD SWAP1 POP SWAP2 SWAP1 POP JUMP JUMPDEST PUSH1 0x0 DUP3 DUP3 MSTORE PUSH1 0x20 DUP3 ADD SWAP1 POP SWAP3 SWAP2 POP POP JUMP JUMPDEST PUSH1 0x0 JUMPDEST DUP4 DUP2 LT ISZERO PUSH2 0xD63 JUMPI DUP1 DUP3 ADD MLOAD DUP2 DUP5 ADD MSTORE PUSH1 0x20 DUP2 ADD SWAP1 POP PUSH2 0xD48 JUMP JUMPDEST PUSH1 0x0 DUP5 DUP5 ADD MSTORE POP POP POP POP JUMP JUMPDEST PUSH1 0x0 PUSH2 0xD7A DUP3 PUSH2 0xD29 JUMP JUMPDEST PUSH2 0xD84 DUP2 DUP6 PUSH2 0xD34 JUMP JUMPDEST SWAP4 POP PUSH2 0xD94 DUP2 DUP6 PUSH1 0x20 DUP7 ADD PUSH2 0xD45 JUMP JUMPDEST PUSH2 0xD9D DUP2 PUSH2 0xBA4 JUMP JUMPDEST DUP5 ADD SWAP2 POP POP SWAP3 SWAP2 POP POP JUMP JUMPDEST PUSH1 0x0 PUSH1 0x20 DUP3 ADD SWAP1 POP DUP2 DUP2 SUB PUSH1 0x0 DUP4 ADD MSTORE PUSH2 0xDC2 DUP2 DUP5 PUSH2 0xD6F JUMP JUMPDEST SWAP1 POP SWAP3 SWAP2 POP POP JUMP JUMPDEST PUSH1 0x0 PUSH20 0xFFFFFFFFFFFFFFFFFFFFFFFFFFFFFFFFFFFFFFFF DUP3 AND SWAP1 POP SWAP2 SWAP1 POP JUMP JUMPDEST PUSH1 0x0 PUSH2 0xDF5 DUP3 PUSH2 0xDCA JUMP JUMPDEST SWAP1 POP SWAP2 SWAP1 POP JUMP JUMPDEST PUSH2 0xE05 DUP2 PUSH2 0xDEA JUMP JUMPDEST DUP3 MSTORE POP POP JUMP JUMPDEST PUSH1 0x0 PUSH1 0x20 DUP3 ADD SWAP1 POP PUSH2 0xE20 PUSH1 0x0 DUP4 ADD DUP5 PUSH2 0xDFC JUMP JUMPDEST SWAP3 SWAP2 POP POP JUMP JUMPDEST PUSH1 0x0 DUP2 SWAP1 POP SWAP2 SWAP1 POP JUMP JUMPDEST PUSH2 0xE39 DUP2 PUSH2 0xE26 JUMP JUMPDEST DUP3 MSTORE POP POP JUMP JUMPDEST PUSH1 0x0 PUSH1 0x20 DUP3 ADD SWAP1 POP PUSH2 0xE54 PUSH1 0x0 DUP4 ADD DUP5 PUSH2 0xE30 JUMP JUMPDEST SWAP3 SWAP2 POP POP JUMP JUMPDEST PUSH1 0x0 DUP1 PUSH1 0x40 DUP4 DUP6 SUB SLT ISZERO PUSH2 0xE71 JUMPI PUSH2 0xE70 PUSH2 0xB90 JUMP JUMPDEST JUMPDEST PUSH1 0x0 DUP4 ADD CALLDATALOAD PUSH8 0xFFFFFFFFFFFFFFFF DUP2 GT ISZERO PUSH2 0xE8F JUMPI PUSH2 0xE8E PUSH2 0xB95 JUMP JUMPDEST JUMPDEST PUSH2 0xE9B DUP6 DUP3 DUP7 ADD PUSH2 0xCB2 JUMP JUMPDEST SWAP3 POP POP PUSH1 0x20 DUP4 ADD CALLDATALOAD PUSH8 0xFFFFFFFFFFFFFFFF DUP2 GT ISZERO PUSH2 0xEBC JUMPI PUSH2 0xEBB PUSH2 0xB95 JUMP JUMPDEST JUMPDEST PUSH2 0xEC8 DUP6 DUP3 DUP7 ADD PUSH2 0xCB2 JUMP JUMPDEST SWAP2 POP POP SWAP3 POP SWAP3 SWAP1 POP JUMP JUMPDEST PUSH2 0xEDB DUP2 PUSH2 0xDEA JUMP JUMPDEST DUP2 EQ PUSH2 0xEE6 JUMPI PUSH1 0x0 DUP1 REVERT JUMPDEST POP JUMP JUMPDEST PUSH1 0x0 DUP2 CALLDATALOAD SWAP1 POP PUSH2 0xEF8 DUP2 PUSH2 0xED2 JUMP JUMPDEST SWAP3 SWAP2 POP POP JUMP JUMPDEST PUSH1 0x0 DUP1 PUSH1 0x40 DUP4 DUP6 SUB SLT ISZERO PUSH2 0xF15 JUMPI PUSH2 0xF14 PUSH2 0xB90 JUMP JUMPDEST JUMPDEST PUSH1 0x0 DUP4 ADD CALLDATALOAD PUSH8 0xFFFFFFFFFFFFFFFF DUP2 GT ISZERO PUSH2 0xF33 JUMPI PUSH2 0xF32 PUSH2 0xB95 JUMP JUMPDEST JUMPDEST PUSH2 0xF3F DUP6 DUP3 DUP7 ADD PUSH2 0xCB2 JUMP JUMPDEST SWAP3 POP POP PUSH1 0x20 PUSH2 0xF50 DUP6 DUP3 DUP7 ADD PUSH2 0xEE9 JUMP JUMPDEST SWAP2 POP POP SWAP3 POP SWAP3 SWAP1 POP JUMP JUMPDEST PUSH1 0x0 PUSH1 0x60 DUP3 ADD SWAP1 POP PUSH2 0xF6F PUSH1 0x0 DUP4 ADD DUP7 PUSH2 0xDFC JUMP JUMPDEST PUSH2 0xF7C PUSH1 0x20 DUP4 ADD DUP6 PUSH2 0xDFC JUMP JUMPDEST DUP2 DUP2 SUB PUSH1 0x40 DUP4 ADD MSTORE PUSH2 0xF8E DUP2 DUP5 PUSH2 0xD6F JUMP JUMPDEST SWAP1 POP SWAP5 SWAP4 POP POP POP POP JUMP JUMPDEST PUSH1 0x0 DUP1 PUSH1 0x0 PUSH1 0x60 DUP5 DUP7 SUB SLT ISZERO PUSH2 0xFB1 JUMPI PUSH2 0xFB0 PUSH2 0xB90 JUMP JUMPDEST JUMPDEST PUSH1 0x0 DUP5 ADD CALLDATALOAD PUSH8 0xFFFFFFFFFFFFFFFF DUP2 GT ISZERO PUSH2 0xFCF JUMPI PUSH2 0xFCE PUSH2 0xB95 JUMP JUMPDEST JUMPDEST PUSH2 0xFDB DUP7 DUP3 DUP8 ADD PUSH2 0xCB2 JUMP JUMPDEST SWAP4 POP POP PUSH1 0x20 PUSH2 0xFEC DUP7 DUP3 DUP8 ADD PUSH2 0xEE9 JUMP JUMPDEST SWAP3 POP POP PUSH1 0x40 DUP5 ADD CALLDATALOAD PUSH8 0xFFFFFFFFFFFFFFFF DUP2 GT ISZERO PUSH2 0x100D JUMPI PUSH2 0x100C PUSH2 0xB95 JUMP JUMPDEST JUMPDEST PUSH2 0x1019 DUP7 DUP3 DUP8 ADD PUSH2 0xCB2 JUMP JUMPDEST SWAP2 POP POP SWAP3 POP SWAP3 POP SWAP3 JUMP JUMPDEST PUSH1 0x0 DUP2 SWAP1 POP SWAP3 SWAP2 POP POP JUMP JUMPDEST PUSH1 0x0 PUSH2 0x1039 DUP3 PUSH2 0xD29 JUMP JUMPDEST PUSH2 0x1043 DUP2 DUP6 PUSH2 0x1023 JUMP JUMPDEST SWAP4 POP PUSH2 0x1053 DUP2 DUP6 PUSH1 0x20 DUP7 ADD PUSH2 0xD45 JUMP JUMPDEST DUP1 DUP5 ADD SWAP2 POP POP SWAP3 SWAP2 POP POP JUMP JUMPDEST PUSH1 0x0 PUSH2 0x106B DUP3 DUP5 PUSH2 0x102E JUMP JUMPDEST SWAP2 POP DUP2 SWAP1 POP SWAP3 SWAP2 POP POP JUMP JUMPDEST PUSH32 0x4572726F72203A20796F7520617265206E6F74206F776E657200000000000000 PUSH1 0x0 DUP3 ADD MSTORE POP JUMP JUMPDEST PUSH1 0x0 PUSH2 0x10AC PUSH1 0x19 DUP4 PUSH2 0xD34 JUMP JUMPDEST SWAP2 POP PUSH2 0x10B7 DUP3 PUSH2 0x1076 JUMP JUMPDEST PUSH1 0x20 DUP3 ADD SWAP1 POP SWAP2 SWAP1 POP JUMP JUMPDEST PUSH1 0x0 PUSH1 0x20 DUP3 ADD SWAP1 POP DUP2 DUP2 SUB PUSH1 0x0 DUP4 ADD MSTORE PUSH2 0x10DB DUP2 PUSH2 0x109F JUMP JUMPDEST SWAP1 POP SWAP2 SWAP1 POP JUMP JUMPDEST PUSH32 0x4572726F72203A20796F7520617265206E6F74207265676973746564206F7572 PUSH1 0x0 DUP3 ADD MSTORE PUSH32 0x2073797374656D21000000000000000000000000000000000000000000000000 PUSH1 0x20 DUP3 ADD MSTORE POP JUMP JUMPDEST PUSH1 0x0 PUSH2 0x113E PUSH1 0x28 DUP4 PUSH2 0xD34 JUMP JUMPDEST SWAP2 POP PUSH2 0x1149 DUP3 PUSH2 0x10E2 JUMP JUMPDEST PUSH1 0x40 DUP3 ADD SWAP1 POP SWAP2 SWAP1 POP JUMP JUMPDEST PUSH1 0x0 PUSH1 0x20 DUP3 ADD SWAP1 POP DUP2 DUP2 SUB PUSH1 0x0 DUP4 ADD MSTORE PUSH2 0x116D DUP2 PUSH2 0x1131 JUMP JUMPDEST SWAP1 POP SWAP2 SWAP1 POP JUMP JUMPDEST PUSH32 0x4E487B7100000000000000000000000000000000000000000000000000000000 PUSH1 0x0 MSTORE PUSH1 0x11 PUSH1 0x4 MSTORE PUSH1 0x24 PUSH1 0x0 REVERT JUMPDEST PUSH1 0x0 PUSH2 0x11AE DUP3 PUSH2 0xE26 JUMP JUMPDEST SWAP2 POP PUSH1 0x0 DUP3 SUB PUSH2 0x11C1 JUMPI PUSH2 0x11C0 PUSH2 0x1174 JUMP JUMPDEST JUMPDEST PUSH1 0x1 DUP3 SUB SWAP1 POP SWAP2 SWAP1 POP JUMP JUMPDEST PUSH32 0x4E487B7100000000000000000000000000000000000000000000000000000000 PUSH1 0x0 MSTORE PUSH1 0x22 PUSH1 0x4 MSTORE PUSH1 0x24 PUSH1 0x0 REVERT JUMPDEST PUSH1 0x0 PUSH1 0x2 DUP3 DIV SWAP1 POP PUSH1 0x1 DUP3 AND DUP1 PUSH2 0x1213 JUMPI PUSH1 0x7F DUP3 AND SWAP2 POP JUMPDEST PUSH1 0x20 DUP3 LT DUP2 SUB PUSH2 0x1226 JUMPI PUSH2 0x1225 PUSH2 0x11CC JUMP JUMPDEST JUMPDEST POP SWAP2 SWAP1 POP JUMP JUMPDEST PUSH1 0x0 DUP2 SWAP1 POP DUP2 PUSH1 0x0 MSTORE PUSH1 0x20 PUSH1 0x0 KECCAK256 SWAP1 POP SWAP2 SWAP1 POP JUMP JUMPDEST PUSH1 0x0 PUSH1 0x20 PUSH1 0x1F DUP4 ADD DIV SWAP1 POP SWAP2 SWAP1 POP JUMP JUMPDEST PUSH1 0x0 DUP3 DUP3 SHL SWAP1 POP SWAP3 SWAP2 POP POP JUMP JUMPDEST PUSH1 0x0 PUSH1 0x8 DUP4 MUL PUSH2 0x128E PUSH32 0xFFFFFFFFFFFFFFFFFFFFFFFFFFFFFFFFFFFFFFFFFFFFFFFFFFFFFFFFFFFFFFFF DUP3 PUSH2 0x1251 JUMP JUMPDEST PUSH2 0x1298 DUP7 DUP4 PUSH2 0x1251 JUMP JUMPDEST SWAP6 POP DUP1 NOT DUP5 AND SWAP4 POP DUP1 DUP7 AND DUP5 OR SWAP3 POP POP POP SWAP4 SWAP3 POP POP POP JUMP JUMPDEST PUSH1 0x0 DUP2 SWAP1 POP SWAP2 SWAP1 POP JUMP JUMPDEST PUSH1 0x0 PUSH2 0x12D5 PUSH2 0x12D0 PUSH2 0x12CB DUP5 PUSH2 0xE26 JUMP JUMPDEST PUSH2 0x12B0 JUMP JUMPDEST PUSH2 0xE26 JUMP JUMPDEST SWAP1 POP SWAP2 SWAP1 POP JUMP JUMPDEST PUSH1 0x0 DUP2 SWAP1 POP SWAP2 SWAP1 POP JUMP JUMPDEST PUSH2 0x12EF DUP4 PUSH2 0x12BA JUMP JUMPDEST PUSH2 0x1303 PUSH2 0x12FB DUP3 PUSH2 0x12DC JUMP JUMPDEST DUP5 DUP5 SLOAD PUSH2 0x125E JUMP JUMPDEST DUP3 SSTORE POP POP POP POP JUMP JUMPDEST PUSH1 0x0 SWAP1 JUMP JUMPDEST PUSH2 0x1318 PUSH2 0x130B JUMP JUMPDEST PUSH2 0x1323 DUP2 DUP5 DUP5 PUSH2 0x12E6 JUMP JUMPDEST POP POP POP JUMP JUMPDEST JUMPDEST DUP2 DUP2 LT ISZERO PUSH2 0x1347 JUMPI PUSH2 0x133C PUSH1 0x0 DUP3 PUSH2 0x1310 JUMP JUMPDEST PUSH1 0x1 DUP2 ADD SWAP1 POP PUSH2 0x1329 JUMP JUMPDEST POP POP JUMP JUMPDEST PUSH1 0x1F DUP3 GT ISZERO PUSH2 0x138C JUMPI PUSH2 0x135D DUP2 PUSH2 0x122C JUMP JUMPDEST PUSH2 0x1366 DUP5 PUSH2 0x1241 JUMP JUMPDEST DUP2 ADD PUSH1 0x20 DUP6 LT ISZERO PUSH2 0x1375 JUMPI DUP2 SWAP1 POP JUMPDEST PUSH2 0x1389 PUSH2 0x1381 DUP6 PUSH2 0x1241 JUMP JUMPDEST DUP4 ADD DUP3 PUSH2 0x1328 JUMP JUMPDEST POP POP JUMPDEST POP POP POP JUMP JUMPDEST PUSH1 0x0 DUP3 DUP3 SHR SWAP1 POP SWAP3 SWAP2 POP POP JUMP JUMPDEST PUSH1 0x0 PUSH2 0x13AF PUSH1 0x0 NOT DUP5 PUSH1 0x8 MUL PUSH2 0x1391 JUMP JUMPDEST NOT DUP1 DUP4 AND SWAP2 POP POP SWAP3 SWAP2 POP POP JUMP JUMPDEST PUSH1 0x0 PUSH2 0x13C8 DUP4 DUP4 PUSH2 0x139E JUMP JUMPDEST SWAP2 POP DUP3 PUSH1 0x2 MUL DUP3 OR SWAP1 POP SWAP3 SWAP2 POP POP JUMP JUMPDEST PUSH2 0x13E1 DUP3 PUSH2 0xD29 JUMP JUMPDEST PUSH8 0xFFFFFFFFFFFFFFFF DUP2 GT ISZERO PUSH2 0x13FA JUMPI PUSH2 0x13F9 PUSH2 0xBB5 JUMP JUMPDEST JUMPDEST PUSH2 0x1404 DUP3 SLOAD PUSH2 0x11FB JUMP JUMPDEST PUSH2 0x140F DUP3 DUP3 DUP6 PUSH2 0x134B JUMP JUMPDEST PUSH1 0x0 PUSH1 0x20 SWAP1 POP PUSH1 0x1F DUP4 GT PUSH1 0x1 DUP2 EQ PUSH2 0x1442 JUMPI PUSH1 0x0 DUP5 ISZERO PUSH2 0x1430 JUMPI DUP3 DUP8 ADD MLOAD SWAP1 POP JUMPDEST PUSH2 0x143A DUP6 DUP3 PUSH2 0x13BC JUMP JUMPDEST DUP7 SSTORE POP PUSH2 0x14A2 JUMP JUMPDEST PUSH1 0x1F NOT DUP5 AND PUSH2 0x1450 DUP7 PUSH2 0x122C JUMP JUMPDEST PUSH1 0x0 JUMPDEST DUP3 DUP2 LT ISZERO PUSH2 0x1478 JUMPI DUP5 DUP10 ADD MLOAD DUP3 SSTORE PUSH1 0x1 DUP3 ADD SWAP2 POP PUSH1 0x20 DUP6 ADD SWAP5 POP PUSH1 0x20 DUP2 ADD SWAP1 POP PUSH2 0x1453 JUMP JUMPDEST DUP7 DUP4 LT ISZERO PUSH2 0x1495 JUMPI DUP5 DUP10 ADD MLOAD PUSH2 0x1491 PUSH1 0x1F DUP10 AND DUP3 PUSH2 0x139E JUMP JUMPDEST DUP4 SSTORE POP JUMPDEST PUSH1 0x1 PUSH1 0x2 DUP9 MUL ADD DUP9 SSTORE POP POP POP JUMPDEST POP POP POP POP POP POP JUMP JUMPDEST PUSH32 0x4572726F72203A20796F752061726520616C7265616479207265676973746572 PUSH1 0x0 DUP3 ADD MSTORE PUSH32 0x6564210000000000000000000000000000000000000000000000000000000000 PUSH1 0x20 DUP3 ADD MSTORE POP JUMP JUMPDEST PUSH1 0x0 PUSH2 0x1506 PUSH1 0x23 DUP4 PUSH2 0xD34 JUMP JUMPDEST SWAP2 POP PUSH2 0x1511 DUP3 PUSH2 0x14AA JUMP JUMPDEST PUSH1 0x40 DUP3 ADD SWAP1 POP SWAP2 SWAP1 POP JUMP JUMPDEST PUSH1 0x0 PUSH1 0x20 DUP3 ADD SWAP1 POP DUP2 DUP2 SUB PUSH1 0x0 DUP4 ADD MSTORE PUSH2 0x1535 DUP2 PUSH2 0x14F9 JUMP JUMPDEST SWAP1 POP SWAP2 SWAP1 POP JUMP JUMPDEST PUSH1 0x0 PUSH2 0x1547 DUP3 PUSH2 0xE26 JUMP JUMPDEST SWAP2 POP PUSH32 0xFFFFFFFFFFFFFFFFFFFFFFFFFFFFFFFFFFFFFFFFFFFFFFFFFFFFFFFFFFFFFFFF DUP3 SUB PUSH2 0x1579 JUMPI PUSH2 0x1578 PUSH2 0x1174 JUMP JUMPDEST JUMPDEST PUSH1 0x1 DUP3 ADD SWAP1 POP SWAP2 SWAP1 POP JUMP INVALID LOG2 PUSH5 0x6970667358 0x22 SLT KECCAK256 CHAINID JUMP CALLVALUE RETURN 0x23 PUSH31 0xD842EA01845246DEFE894789A05557F1E15FCBE0EAB58EBAF82464736F6C63 NUMBER STOP ADDMOD SLT STOP CALLER "
				},
				"gasEstimates": {
					"creation": {
						"codeDepositCost": "1112400",
						"executionCost": "6168",
						"totalCost": "1118568"
					},
					"external": {
						"changerOwner(string,address)": "infinite",
						"getAddress(string)": "infinite",
						"getDescription(string)": "infinite",
						"getOwner(string)": "infinite",
						"numContracts()": "2496",
						"registerContract(string,address,string)": "infinite",
						"registeredContracts(string)": "infinite",
						"setAddress(string,address)": "infinite",
						"setDescription(string,string)": "infinite",
						"unregisterContract(string)": "infinite"
					}
				},
				"methodIdentifiers": {
					"changerOwner(string,address)": "95e712f1",
					"getAddress(string)": "bf40fac1",
					"getDescription(string)": "45de2ca0",
					"getOwner(string)": "4aaf4a12",
					"numContracts()": "524d81d3",
					"registerContract(string,address,string)": "a738e975",
					"registeredContracts(string)": "98fd3835",
					"setAddress(string,address)": "9b2ea4bd",
					"setDescription(string,string)": "6755d456",
					"unregisterContract(string)": "035e7709"
				}
			},
			"storageLayout": {
				"storage": [
					{
						"astId": 10,
						"contract": "Final Exam/NameRegistry.sol:NameRegistry",
						"label": "numContracts",
						"offset": 0,
						"slot": "0",
						"type": "t_uint256"
					},
					{
						"astId": 15,
						"contract": "Final Exam/NameRegistry.sol:NameRegistry",
						"label": "registeredContracts",
						"offset": 0,
						"slot": "1",
						"type": "t_mapping(t_string_memory_ptr,t_struct(ContractInfo)8_storage)"
					}
				],
				"types": {
					"t_address": {
						"encoding": "inplace",
						"label": "address",
						"numberOfBytes": "20"
					},
					"t_mapping(t_string_memory_ptr,t_struct(ContractInfo)8_storage)": {
						"encoding": "mapping",
						"key": "t_string_memory_ptr",
						"label": "mapping(string => struct NameRegistry.ContractInfo)",
						"numberOfBytes": "32",
						"value": "t_struct(ContractInfo)8_storage"
					},
					"t_string_memory_ptr": {
						"encoding": "bytes",
						"label": "string",
						"numberOfBytes": "32"
					},
					"t_string_storage": {
						"encoding": "bytes",
						"label": "string",
						"numberOfBytes": "32"
					},
					"t_struct(ContractInfo)8_storage": {
						"encoding": "inplace",
						"label": "struct NameRegistry.ContractInfo",
						"members": [
							{
								"astId": 3,
								"contract": "Final Exam/NameRegistry.sol:NameRegistry",
								"label": "contractOwner",
								"offset": 0,
								"slot": "0",
								"type": "t_address"
							},
							{
								"astId": 5,
								"contract": "Final Exam/NameRegistry.sol:NameRegistry",
								"label": "contractAddress",
								"offset": 0,
								"slot": "1",
								"type": "t_address"
							},
							{
								"astId": 7,
								"contract": "Final Exam/NameRegistry.sol:NameRegistry",
								"label": "description",
								"offset": 0,
								"slot": "2",
								"type": "t_string_storage"
							}
						],
						"numberOfBytes": "96"
					},
					"t_uint256": {
						"encoding": "inplace",
						"label": "uint256",
						"numberOfBytes": "32"
					}
				}
			},
			"userdoc": {
				"kind": "user",
				"methods": {},
				"version": 1
			}
		}
	}
}