{
	"Final Exam/Ballot2.sol": {
		"Ballot": {
			"abi": [
				{
					"inputs": [
						{
							"internalType": "uint256",
							"name": "numProposals",
							"type": "uint256"
						}
					],
					"stateMutability": "nonpayable",
					"type": "constructor"
				},
				{
					"inputs": [],
					"name": "advancePhase",
					"outputs": [],
					"stateMutability": "nonpayable",
					"type": "function"
				},
				{
					"inputs": [],
					"name": "currentPhase",
					"outputs": [
						{
							"internalType": "enum Ballot.Phase",
							"name": "",
							"type": "uint8"
						}
					],
					"stateMutability": "view",
					"type": "function"
				},
				{
					"inputs": [
						{
							"internalType": "uint256",
							"name": "",
							"type": "uint256"
						}
					],
					"name": "proposals",
					"outputs": [
						{
							"internalType": "uint256",
							"name": "voteCount",
							"type": "uint256"
						}
					],
					"stateMutability": "view",
					"type": "function"
				},
				{
					"inputs": [
						{
							"internalType": "address",
							"name": "_voter",
							"type": "address"
						}
					],
					"name": "register",
					"outputs": [],
					"stateMutability": "nonpayable",
					"type": "function"
				},
				{
					"inputs": [],
					"name": "reqWinner",
					"outputs": [
						{
							"internalType": "uint8",
							"name": "winningProposal",
							"type": "uint8"
						}
					],
					"stateMutability": "view",
					"type": "function"
				},
				{
					"inputs": [
						{
							"internalType": "uint256",
							"name": "toProposal",
							"type": "uint256"
						}
					],
					"name": "vote",
					"outputs": [],
					"stateMutability": "nonpayable",
					"type": "function"
				},
				{
					"inputs": [
						{
							"internalType": "address",
							"name": "",
							"type": "address"
						}
					],
					"name": "voters",
					"outputs": [
						{
							"internalType": "uint256",
							"name": "weight",
							"type": "uint256"
						},
						{
							"internalType": "bool",
							"name": "voted",
							"type": "bool"
						},
						{
							"internalType": "uint256",
							"name": "vote",
							"type": "uint256"
						}
					],
					"stateMutability": "view",
					"type": "function"
				}
			],
			"devdoc": {
				"kind": "dev",
				"methods": {},
				"version": 1
			},
			"evm": {
				"assembly": "    /* \"Final Exam/Ballot2.sol\":69:2853  contract Ballot {... */\n  mstore(0x40, 0x80)\n    /* \"Final Exam/Ballot2.sol\":452:468  Phase.Initialize */\n  0x00\n    /* \"Final Exam/Ballot2.sol\":424:468  Phase public currentPhase = Phase.Initialize */\n  0x03\n  exp(0x0100, 0x00)\n  dup2\n  sload\n  dup2\n  0xff\n  mul\n  not\n  and\n  swap1\n  dup4\n  0x03\n  dup2\n  gt\n  iszero\n  tag_1\n  jumpi\n  tag_2\n  tag_3\n  jump\t// in\ntag_2:\ntag_1:\n  mul\n  or\n  swap1\n  sstore\n  pop\n    /* \"Final Exam/Ballot2.sol\":908:1120  constructor(uint numProposals) {... */\n  callvalue\n  dup1\n  iszero\n  tag_4\n  jumpi\n  0x00\n  dup1\n  revert\ntag_4:\n  pop\n  mload(0x40)\n  sub(codesize, bytecodeSize)\n  dup1\n  bytecodeSize\n  dup4\n  codecopy\n  dup2\n  dup2\n  add\n  0x40\n  mstore\n  dup2\n  add\n  swap1\n  tag_5\n  swap2\n  swap1\n  tag_6\n  jump\t// in\ntag_5:\n    /* \"Final Exam/Ballot2.sol\":963:973  msg.sender */\n  caller\n    /* \"Final Exam/Ballot2.sol\":949:960  chairperson */\n  0x00\n  dup1\n    /* \"Final Exam/Ballot2.sol\":949:973  chairperson = msg.sender */\n  0x0100\n  exp\n  dup2\n  sload\n  dup2\n  0xffffffffffffffffffffffffffffffffffffffff\n  mul\n  not\n  and\n  swap1\n  dup4\n  0xffffffffffffffffffffffffffffffffffffffff\n  and\n  mul\n  or\n  swap1\n  sstore\n  pop\n    /* \"Final Exam/Ballot2.sol\":1005:1012  uint8 i */\n  0x00\n    /* \"Final Exam/Ballot2.sol\":1000:1114  for (uint8 i = 0; i < numProposals; i++) {... */\ntag_9:\n    /* \"Final Exam/Ballot2.sol\":1022:1034  numProposals */\n  dup2\n    /* \"Final Exam/Ballot2.sol\":1018:1019  i */\n  dup2\n    /* \"Final Exam/Ballot2.sol\":1018:1034  i < numProposals */\n  0xff\n  and\n  lt\n    /* \"Final Exam/Ballot2.sol\":1000:1114  for (uint8 i = 0; i < numProposals; i++) {... */\n  iszero\n  tag_10\n  jumpi\n    /* \"Final Exam/Ballot2.sol\":1055:1064  proposals */\n  0x02\n    /* \"Final Exam/Ballot2.sol\":1070:1081  Proposal(0) */\n  mload(0x40)\n  dup1\n  0x20\n  add\n  0x40\n  mstore\n  dup1\n    /* \"Final Exam/Ballot2.sol\":1079:1080  0 */\n  0x00\n    /* \"Final Exam/Ballot2.sol\":1070:1081  Proposal(0) */\n  dup2\n  mstore\n  pop\n    /* \"Final Exam/Ballot2.sol\":1055:1082  proposals.push(Proposal(0)) */\n  swap1\n  dup1\n  0x01\n  dup2\n  sload\n  add\n  dup1\n  dup3\n  sstore\n  dup1\n  swap2\n  pop\n  pop\n  0x01\n  swap1\n  sub\n  swap1\n  0x00\n  mstore\n  keccak256(0x00, 0x20)\n  add\n  0x00\n  swap1\n  swap2\n  swap1\n  swap2\n  swap1\n  swap2\n  pop\n  0x00\n  dup3\n  add\n  mload\n  dup2\n  0x00\n  add\n  sstore\n  pop\n  pop\n    /* \"Final Exam/Ballot2.sol\":1036:1039  i++ */\n  dup1\n  dup1\n  tag_13\n  swap1\n  tag_14\n  jump\t// in\ntag_13:\n  swap2\n  pop\n  pop\n    /* \"Final Exam/Ballot2.sol\":1000:1114  for (uint8 i = 0; i < numProposals; i++) {... */\n  jump(tag_9)\ntag_10:\n  pop\n    /* \"Final Exam/Ballot2.sol\":908:1120  constructor(uint numProposals) {... */\n  pop\n    /* \"Final Exam/Ballot2.sol\":69:2853  contract Ballot {... */\n  jump(tag_15)\n    /* \"#utility.yul\":7:187   */\ntag_3:\n    /* \"#utility.yul\":55:132   */\n  0x4e487b7100000000000000000000000000000000000000000000000000000000\n    /* \"#utility.yul\":52:53   */\n  0x00\n    /* \"#utility.yul\":45:133   */\n  mstore\n    /* \"#utility.yul\":152:156   */\n  0x21\n    /* \"#utility.yul\":149:150   */\n  0x04\n    /* \"#utility.yul\":142:157   */\n  mstore\n    /* \"#utility.yul\":176:180   */\n  0x24\n    /* \"#utility.yul\":173:174   */\n  0x00\n    /* \"#utility.yul\":166:181   */\n  revert\n    /* \"#utility.yul\":274:391   */\ntag_17:\n    /* \"#utility.yul\":383:384   */\n  0x00\n    /* \"#utility.yul\":380:381   */\n  dup1\n    /* \"#utility.yul\":373:385   */\n  revert\n    /* \"#utility.yul\":520:597   */\ntag_19:\n    /* \"#utility.yul\":557:564   */\n  0x00\n    /* \"#utility.yul\":586:591   */\n  dup2\n    /* \"#utility.yul\":575:591   */\n  swap1\n  pop\n    /* \"#utility.yul\":520:597   */\n  swap2\n  swap1\n  pop\n  jump\t// out\n    /* \"#utility.yul\":603:725   */\ntag_20:\n    /* \"#utility.yul\":676:700   */\n  tag_31\n    /* \"#utility.yul\":694:699   */\n  dup2\n    /* \"#utility.yul\":676:700   */\n  tag_19\n  jump\t// in\ntag_31:\n    /* \"#utility.yul\":669:674   */\n  dup2\n    /* \"#utility.yul\":666:701   */\n  eq\n    /* \"#utility.yul\":656:719   */\n  tag_32\n  jumpi\n    /* \"#utility.yul\":715:716   */\n  0x00\n    /* \"#utility.yul\":712:713   */\n  dup1\n    /* \"#utility.yul\":705:717   */\n  revert\n    /* \"#utility.yul\":656:719   */\ntag_32:\n    /* \"#utility.yul\":603:725   */\n  pop\n  jump\t// out\n    /* \"#utility.yul\":731:874   */\ntag_21:\n    /* \"#utility.yul\":788:793   */\n  0x00\n    /* \"#utility.yul\":819:825   */\n  dup2\n    /* \"#utility.yul\":813:826   */\n  mload\n    /* \"#utility.yul\":804:826   */\n  swap1\n  pop\n    /* \"#utility.yul\":835:868   */\n  tag_34\n    /* \"#utility.yul\":862:867   */\n  dup2\n    /* \"#utility.yul\":835:868   */\n  tag_20\n  jump\t// in\ntag_34:\n    /* \"#utility.yul\":731:874   */\n  swap3\n  swap2\n  pop\n  pop\n  jump\t// out\n    /* \"#utility.yul\":880:1231   */\ntag_6:\n    /* \"#utility.yul\":950:956   */\n  0x00\n    /* \"#utility.yul\":999:1001   */\n  0x20\n    /* \"#utility.yul\":987:996   */\n  dup3\n    /* \"#utility.yul\":978:985   */\n  dup5\n    /* \"#utility.yul\":974:997   */\n  sub\n    /* \"#utility.yul\":970:1002   */\n  slt\n    /* \"#utility.yul\":967:1086   */\n  iszero\n  tag_36\n  jumpi\n    /* \"#utility.yul\":1005:1084   */\n  tag_37\n  tag_17\n  jump\t// in\ntag_37:\n    /* \"#utility.yul\":967:1086   */\ntag_36:\n    /* \"#utility.yul\":1125:1126   */\n  0x00\n    /* \"#utility.yul\":1150:1214   */\n  tag_38\n    /* \"#utility.yul\":1206:1213   */\n  dup5\n    /* \"#utility.yul\":1197:1203   */\n  dup3\n    /* \"#utility.yul\":1186:1195   */\n  dup6\n    /* \"#utility.yul\":1182:1204   */\n  add\n    /* \"#utility.yul\":1150:1214   */\n  tag_21\n  jump\t// in\ntag_38:\n    /* \"#utility.yul\":1140:1214   */\n  swap2\n  pop\n    /* \"#utility.yul\":1096:1224   */\n  pop\n    /* \"#utility.yul\":880:1231   */\n  swap3\n  swap2\n  pop\n  pop\n  jump\t// out\n    /* \"#utility.yul\":1237:1417   */\ntag_22:\n    /* \"#utility.yul\":1285:1362   */\n  0x4e487b7100000000000000000000000000000000000000000000000000000000\n    /* \"#utility.yul\":1282:1283   */\n  0x00\n    /* \"#utility.yul\":1275:1363   */\n  mstore\n    /* \"#utility.yul\":1382:1386   */\n  0x11\n    /* \"#utility.yul\":1379:1380   */\n  0x04\n    /* \"#utility.yul\":1372:1387   */\n  mstore\n    /* \"#utility.yul\":1406:1410   */\n  0x24\n    /* \"#utility.yul\":1403:1404   */\n  0x00\n    /* \"#utility.yul\":1396:1411   */\n  revert\n    /* \"#utility.yul\":1423:1509   */\ntag_23:\n    /* \"#utility.yul\":1458:1465   */\n  0x00\n    /* \"#utility.yul\":1498:1502   */\n  0xff\n    /* \"#utility.yul\":1491:1496   */\n  dup3\n    /* \"#utility.yul\":1487:1503   */\n  and\n    /* \"#utility.yul\":1476:1503   */\n  swap1\n  pop\n    /* \"#utility.yul\":1423:1509   */\n  swap2\n  swap1\n  pop\n  jump\t// out\n    /* \"#utility.yul\":1515:1682   */\ntag_14:\n    /* \"#utility.yul\":1552:1555   */\n  0x00\n    /* \"#utility.yul\":1575:1597   */\n  tag_42\n    /* \"#utility.yul\":1591:1596   */\n  dup3\n    /* \"#utility.yul\":1575:1597   */\n  tag_23\n  jump\t// in\ntag_42:\n    /* \"#utility.yul\":1566:1597   */\n  swap2\n  pop\n    /* \"#utility.yul\":1619:1623   */\n  0xff\n    /* \"#utility.yul\":1612:1617   */\n  dup3\n    /* \"#utility.yul\":1609:1624   */\n  sub\n    /* \"#utility.yul\":1606:1647   */\n  tag_43\n  jumpi\n    /* \"#utility.yul\":1627:1645   */\n  tag_44\n  tag_22\n  jump\t// in\ntag_44:\n    /* \"#utility.yul\":1606:1647   */\ntag_43:\n    /* \"#utility.yul\":1674:1675   */\n  0x01\n    /* \"#utility.yul\":1667:1672   */\n  dup3\n    /* \"#utility.yul\":1663:1676   */\n  add\n    /* \"#utility.yul\":1656:1676   */\n  swap1\n  pop\n    /* \"#utility.yul\":1515:1682   */\n  swap2\n  swap1\n  pop\n  jump\t// out\n    /* \"Final Exam/Ballot2.sol\":69:2853  contract Ballot {... */\ntag_15:\n  dataSize(sub_0)\n  dup1\n  dataOffset(sub_0)\n  0x00\n  codecopy\n  0x00\n  return\nstop\n\nsub_0: assembly {\n        /* \"Final Exam/Ballot2.sol\":69:2853  contract Ballot {... */\n      mstore(0x40, 0x80)\n      callvalue\n      dup1\n      iszero\n      tag_1\n      jumpi\n      0x00\n      dup1\n      revert\n    tag_1:\n      pop\n      jumpi(tag_2, lt(calldatasize, 0x04))\n      shr(0xe0, calldataload(0x00))\n      dup1\n      0x4420e486\n      gt\n      tag_10\n      jumpi\n      dup1\n      0x4420e486\n      eq\n      tag_6\n      jumpi\n      dup1\n      0x508b30c9\n      eq\n      tag_7\n      jumpi\n      dup1\n      0xa3ec138d\n      eq\n      tag_8\n      jumpi\n      dup1\n      0xbe25a718\n      eq\n      tag_9\n      jumpi\n      jump(tag_2)\n    tag_10:\n      dup1\n      0x0121b93f\n      eq\n      tag_3\n      jumpi\n      dup1\n      0x013cf08b\n      eq\n      tag_4\n      jumpi\n      dup1\n      0x055ad42e\n      eq\n      tag_5\n      jumpi\n    tag_2:\n      0x00\n      dup1\n      revert\n        /* \"Final Exam/Ballot2.sol\":1951:2404  function vote(uint toProposal)... */\n    tag_3:\n      tag_11\n      0x04\n      dup1\n      calldatasize\n      sub\n      dup2\n      add\n      swap1\n      tag_12\n      swap2\n      swap1\n      tag_13\n      jump\t// in\n    tag_12:\n      tag_14\n      jump\t// in\n    tag_11:\n      stop\n        /* \"Final Exam/Ballot2.sol\":300:328  Proposal [] public proposals */\n    tag_4:\n      tag_15\n      0x04\n      dup1\n      calldatasize\n      sub\n      dup2\n      add\n      swap1\n      tag_16\n      swap2\n      swap1\n      tag_13\n      jump\t// in\n    tag_16:\n      tag_17\n      jump\t// in\n    tag_15:\n      mload(0x40)\n      tag_18\n      swap2\n      swap1\n      tag_19\n      jump\t// in\n    tag_18:\n      mload(0x40)\n      dup1\n      swap2\n      sub\n      swap1\n      return\n        /* \"Final Exam/Ballot2.sol\":424:468  Phase public currentPhase = Phase.Initialize */\n    tag_5:\n      tag_20\n      tag_21\n      jump\t// in\n    tag_20:\n      mload(0x40)\n      tag_22\n      swap2\n      swap1\n      tag_23\n      jump\t// in\n    tag_22:\n      mload(0x40)\n      dup1\n      swap2\n      sub\n      swap1\n      return\n        /* \"Final Exam/Ballot2.sol\":1587:1945  function register(address _voter) ... */\n    tag_6:\n      tag_24\n      0x04\n      dup1\n      calldatasize\n      sub\n      dup2\n      add\n      swap1\n      tag_25\n      swap2\n      swap1\n      tag_26\n      jump\t// in\n    tag_25:\n      tag_27\n      jump\t// in\n    tag_24:\n      stop\n        /* \"Final Exam/Ballot2.sol\":2414:2851  function reqWinner()... */\n    tag_7:\n      tag_28\n      tag_29\n      jump\t// in\n    tag_28:\n      mload(0x40)\n      tag_30\n      swap2\n      swap1\n      tag_31\n      jump\t// in\n    tag_30:\n      mload(0x40)\n      dup1\n      swap2\n      sub\n      swap1\n      return\n        /* \"Final Exam/Ballot2.sol\":255:294  mapping(address => Voter) public voters */\n    tag_8:\n      tag_32\n      0x04\n      dup1\n      calldatasize\n      sub\n      dup2\n      add\n      swap1\n      tag_33\n      swap2\n      swap1\n      tag_26\n      jump\t// in\n    tag_33:\n      tag_34\n      jump\t// in\n    tag_32:\n      mload(0x40)\n      tag_35\n      swap4\n      swap3\n      swap2\n      swap1\n      tag_36\n      jump\t// in\n    tag_35:\n      mload(0x40)\n      dup1\n      swap2\n      sub\n      swap1\n      return\n        /* \"Final Exam/Ballot2.sol\":1126:1577  function advancePhase() ... */\n    tag_9:\n      tag_37\n      tag_38\n      jump\t// in\n    tag_37:\n      stop\n        /* \"Final Exam/Ballot2.sol\":1951:2404  function vote(uint toProposal)... */\n    tag_14:\n        /* \"Final Exam/Ballot2.sol\":684:685  0 */\n      0x00\n        /* \"Final Exam/Ballot2.sol\":656:662  voters */\n      0x01\n        /* \"Final Exam/Ballot2.sol\":656:674  voters[msg.sender] */\n      0x00\n        /* \"Final Exam/Ballot2.sol\":663:673  msg.sender */\n      caller\n        /* \"Final Exam/Ballot2.sol\":656:674  voters[msg.sender] */\n      0xffffffffffffffffffffffffffffffffffffffff\n      and\n      0xffffffffffffffffffffffffffffffffffffffff\n      and\n      dup2\n      mstore\n      0x20\n      add\n      swap1\n      dup2\n      mstore\n      0x20\n      add\n      0x00\n      keccak256\n        /* \"Final Exam/Ballot2.sol\":656:681  voters[msg.sender].weight */\n      0x00\n      add\n      sload\n        /* \"Final Exam/Ballot2.sol\":656:685  voters[msg.sender].weight > 0 */\n      gt\n        /* \"Final Exam/Ballot2.sol\":648:737  require(voters[msg.sender].weight > 0, \"Error : Only valid voter can call this function\") */\n      tag_40\n      jumpi\n      mload(0x40)\n      0x08c379a000000000000000000000000000000000000000000000000000000000\n      dup2\n      mstore\n      0x04\n      add\n      tag_41\n      swap1\n      tag_42\n      jump\t// in\n    tag_41:\n      mload(0x40)\n      dup1\n      swap2\n      sub\n      swap1\n      revert\n    tag_40:\n        /* \"Final Exam/Ballot2.sol\":2038:2048  Phase.Vote */\n      0x02\n        /* \"Final Exam/Ballot2.sol\":831:839  reqPhase */\n      dup1\n        /* \"Final Exam/Ballot2.sol\":815:839  currentPhase == reqPhase */\n      0x03\n      dup2\n      gt\n      iszero\n      tag_44\n      jumpi\n      tag_45\n      tag_46\n      jump\t// in\n    tag_45:\n    tag_44:\n        /* \"Final Exam/Ballot2.sol\":815:827  currentPhase */\n      0x03\n      0x00\n      swap1\n      sload\n      swap1\n      0x0100\n      exp\n      swap1\n      div\n      0xff\n      and\n        /* \"Final Exam/Ballot2.sol\":815:839  currentPhase == reqPhase */\n      0x03\n      dup2\n      gt\n      iszero\n      tag_47\n      jumpi\n      tag_48\n      tag_46\n      jump\t// in\n    tag_48:\n    tag_47:\n      eq\n        /* \"Final Exam/Ballot2.sol\":807:884  require(currentPhase == reqPhase, \"Error : Invalid Phase. Chack Phase again\") */\n      tag_49\n      jumpi\n      mload(0x40)\n      0x08c379a000000000000000000000000000000000000000000000000000000000\n      dup2\n      mstore\n      0x04\n      add\n      tag_50\n      swap1\n      tag_51\n      jump\t// in\n    tag_50:\n      mload(0x40)\n      dup1\n      swap2\n      sub\n      swap1\n      revert\n    tag_49:\n        /* \"Final Exam/Ballot2.sol\":2085:2094  proposals */\n      0x02\n        /* \"Final Exam/Ballot2.sol\":2085:2101  proposals.length */\n      dup1\n      sload\n      swap1\n      pop\n        /* \"Final Exam/Ballot2.sol\":2072:2082  toProposal */\n      dup3\n        /* \"Final Exam/Ballot2.sol\":2072:2101  toProposal < proposals.length */\n      lt\n        /* \"Final Exam/Ballot2.sol\":2064:2127  require(toProposal < proposals.length, \"Error : invalid votes\") */\n      tag_53\n      jumpi\n      mload(0x40)\n      0x08c379a000000000000000000000000000000000000000000000000000000000\n      dup2\n      mstore\n      0x04\n      add\n      tag_54\n      swap1\n      tag_55\n      jump\t// in\n    tag_54:\n      mload(0x40)\n      dup1\n      swap2\n      sub\n      swap1\n      revert\n    tag_53:\n        /* \"Final Exam/Ballot2.sol\":2177:2182  false */\n      0x00\n        /* \"Final Exam/Ballot2.sol\":2149:2182  voters[msg.sender].voted == false */\n      iszero\n      iszero\n        /* \"Final Exam/Ballot2.sol\":2149:2155  voters */\n      0x01\n        /* \"Final Exam/Ballot2.sol\":2149:2167  voters[msg.sender] */\n      0x00\n        /* \"Final Exam/Ballot2.sol\":2156:2166  msg.sender */\n      caller\n        /* \"Final Exam/Ballot2.sol\":2149:2167  voters[msg.sender] */\n      0xffffffffffffffffffffffffffffffffffffffff\n      and\n      0xffffffffffffffffffffffffffffffffffffffff\n      and\n      dup2\n      mstore\n      0x20\n      add\n      swap1\n      dup2\n      mstore\n      0x20\n      add\n      0x00\n      keccak256\n        /* \"Final Exam/Ballot2.sol\":2149:2173  voters[msg.sender].voted */\n      0x01\n      add\n      0x00\n      swap1\n      sload\n      swap1\n      0x0100\n      exp\n      swap1\n      div\n      0xff\n      and\n        /* \"Final Exam/Ballot2.sol\":2149:2182  voters[msg.sender].voted == false */\n      iszero\n      iszero\n      eq\n        /* \"Final Exam/Ballot2.sol\":2141:2222  require(voters[msg.sender].voted == false, \"Error : You have been already voted\") */\n      tag_56\n      jumpi\n      mload(0x40)\n      0x08c379a000000000000000000000000000000000000000000000000000000000\n      dup2\n      mstore\n      0x04\n      add\n      tag_57\n      swap1\n      tag_58\n      jump\t// in\n    tag_57:\n      mload(0x40)\n      dup1\n      swap2\n      sub\n      swap1\n      revert\n    tag_56:\n        /* \"Final Exam/Ballot2.sol\":2272:2278  voters */\n      0x01\n        /* \"Final Exam/Ballot2.sol\":2272:2290  voters[msg.sender] */\n      0x00\n        /* \"Final Exam/Ballot2.sol\":2279:2289  msg.sender */\n      caller\n        /* \"Final Exam/Ballot2.sol\":2272:2290  voters[msg.sender] */\n      0xffffffffffffffffffffffffffffffffffffffff\n      and\n      0xffffffffffffffffffffffffffffffffffffffff\n      and\n      dup2\n      mstore\n      0x20\n      add\n      swap1\n      dup2\n      mstore\n      0x20\n      add\n      0x00\n      keccak256\n        /* \"Final Exam/Ballot2.sol\":2272:2297  voters[msg.sender].weight */\n      0x00\n      add\n      sload\n        /* \"Final Exam/Ballot2.sol\":2237:2246  proposals */\n      0x02\n        /* \"Final Exam/Ballot2.sol\":2247:2257  toProposal */\n      dup4\n        /* \"Final Exam/Ballot2.sol\":2237:2258  proposals[toProposal] */\n      dup2\n      sload\n      dup2\n      lt\n      tag_59\n      jumpi\n      tag_60\n      tag_61\n      jump\t// in\n    tag_60:\n    tag_59:\n      swap1\n      0x00\n      mstore\n      keccak256(0x00, 0x20)\n      add\n        /* \"Final Exam/Ballot2.sol\":2237:2268  proposals[toProposal].voteCount */\n      0x00\n      add\n      0x00\n        /* \"Final Exam/Ballot2.sol\":2237:2297  proposals[toProposal].voteCount += voters[msg.sender].weight */\n      dup3\n      dup3\n      sload\n      tag_63\n      swap2\n      swap1\n      tag_64\n      jump\t// in\n    tag_63:\n      swap3\n      pop\n      pop\n      dup2\n      swap1\n      sstore\n      pop\n        /* \"Final Exam/Ballot2.sol\":2339:2343  true */\n      0x01\n        /* \"Final Exam/Ballot2.sol\":2312:2318  voters */\n      dup1\n        /* \"Final Exam/Ballot2.sol\":2312:2330  voters[msg.sender] */\n      0x00\n        /* \"Final Exam/Ballot2.sol\":2319:2329  msg.sender */\n      caller\n        /* \"Final Exam/Ballot2.sol\":2312:2330  voters[msg.sender] */\n      0xffffffffffffffffffffffffffffffffffffffff\n      and\n      0xffffffffffffffffffffffffffffffffffffffff\n      and\n      dup2\n      mstore\n      0x20\n      add\n      swap1\n      dup2\n      mstore\n      0x20\n      add\n      0x00\n      keccak256\n        /* \"Final Exam/Ballot2.sol\":2312:2336  voters[msg.sender].voted */\n      0x01\n      add\n      0x00\n        /* \"Final Exam/Ballot2.sol\":2312:2343  voters[msg.sender].voted = true */\n      0x0100\n      exp\n      dup2\n      sload\n      dup2\n      0xff\n      mul\n      not\n      and\n      swap1\n      dup4\n      iszero\n      iszero\n      mul\n      or\n      swap1\n      sstore\n      pop\n        /* \"Final Exam/Ballot2.sol\":2383:2393  toProposal */\n      dup2\n        /* \"Final Exam/Ballot2.sol\":2357:2363  voters */\n      0x01\n        /* \"Final Exam/Ballot2.sol\":2357:2375  voters[msg.sender] */\n      0x00\n        /* \"Final Exam/Ballot2.sol\":2364:2374  msg.sender */\n      caller\n        /* \"Final Exam/Ballot2.sol\":2357:2375  voters[msg.sender] */\n      0xffffffffffffffffffffffffffffffffffffffff\n      and\n      0xffffffffffffffffffffffffffffffffffffffff\n      and\n      dup2\n      mstore\n      0x20\n      add\n      swap1\n      dup2\n      mstore\n      0x20\n      add\n      0x00\n      keccak256\n        /* \"Final Exam/Ballot2.sol\":2357:2380  voters[msg.sender].vote */\n      0x02\n      add\n        /* \"Final Exam/Ballot2.sol\":2357:2393  voters[msg.sender].vote = toProposal */\n      dup2\n      swap1\n      sstore\n      pop\n        /* \"Final Exam/Ballot2.sol\":747:748  _ */\n      pop\n        /* \"Final Exam/Ballot2.sol\":1951:2404  function vote(uint toProposal)... */\n      pop\n      jump\t// out\n        /* \"Final Exam/Ballot2.sol\":300:328  Proposal [] public proposals */\n    tag_17:\n      0x02\n      dup2\n      dup2\n      sload\n      dup2\n      lt\n      tag_65\n      jumpi\n      0x00\n      dup1\n      revert\n    tag_65:\n      swap1\n      0x00\n      mstore\n      keccak256(0x00, 0x20)\n      add\n      0x00\n      swap2\n      pop\n      swap1\n      pop\n      dup1\n      0x00\n      add\n      sload\n      swap1\n      pop\n      dup2\n      jump\t// out\n        /* \"Final Exam/Ballot2.sol\":424:468  Phase public currentPhase = Phase.Initialize */\n    tag_21:\n      0x03\n      0x00\n      swap1\n      sload\n      swap1\n      0x0100\n      exp\n      swap1\n      div\n      0xff\n      and\n      dup2\n      jump\t// out\n        /* \"Final Exam/Ballot2.sol\":1587:1945  function register(address _voter) ... */\n    tag_27:\n        /* \"Final Exam/Ballot2.sol\":528:539  chairperson */\n      0x00\n      dup1\n      sload\n      swap1\n      0x0100\n      exp\n      swap1\n      div\n      0xffffffffffffffffffffffffffffffffffffffff\n      and\n        /* \"Final Exam/Ballot2.sol\":514:539  msg.sender == chairperson */\n      0xffffffffffffffffffffffffffffffffffffffff\n      and\n        /* \"Final Exam/Ballot2.sol\":514:524  msg.sender */\n      caller\n        /* \"Final Exam/Ballot2.sol\":514:539  msg.sender == chairperson */\n      0xffffffffffffffffffffffffffffffffffffffff\n      and\n      eq\n        /* \"Final Exam/Ballot2.sol\":506:592  require(msg.sender == chairperson, \"Error : Only Chair Person can call this function\") */\n      tag_68\n      jumpi\n      mload(0x40)\n      0x08c379a000000000000000000000000000000000000000000000000000000000\n      dup2\n      mstore\n      0x04\n      add\n      tag_69\n      swap1\n      tag_70\n      jump\t// in\n    tag_69:\n      mload(0x40)\n      dup1\n      swap2\n      sub\n      swap1\n      revert\n    tag_68:\n        /* \"Final Exam/Ballot2.sol\":1678:1692  Phase.Register */\n      0x01\n        /* \"Final Exam/Ballot2.sol\":831:839  reqPhase */\n      dup1\n        /* \"Final Exam/Ballot2.sol\":815:839  currentPhase == reqPhase */\n      0x03\n      dup2\n      gt\n      iszero\n      tag_72\n      jumpi\n      tag_73\n      tag_46\n      jump\t// in\n    tag_73:\n    tag_72:\n        /* \"Final Exam/Ballot2.sol\":815:827  currentPhase */\n      0x03\n      0x00\n      swap1\n      sload\n      swap1\n      0x0100\n      exp\n      swap1\n      div\n      0xff\n      and\n        /* \"Final Exam/Ballot2.sol\":815:839  currentPhase == reqPhase */\n      0x03\n      dup2\n      gt\n      iszero\n      tag_74\n      jumpi\n      tag_75\n      tag_46\n      jump\t// in\n    tag_75:\n    tag_74:\n      eq\n        /* \"Final Exam/Ballot2.sol\":807:884  require(currentPhase == reqPhase, \"Error : Invalid Phase. Chack Phase again\") */\n      tag_76\n      jumpi\n      mload(0x40)\n      0x08c379a000000000000000000000000000000000000000000000000000000000\n      dup2\n      mstore\n      0x04\n      add\n      tag_77\n      swap1\n      tag_51\n      jump\t// in\n    tag_77:\n      mload(0x40)\n      dup1\n      swap2\n      sub\n      swap1\n      revert\n    tag_76:\n        /* \"Final Exam/Ballot2.sol\":1721:1732  chairperson */\n      0x00\n      dup1\n      sload\n      swap1\n      0x0100\n      exp\n      swap1\n      div\n      0xffffffffffffffffffffffffffffffffffffffff\n      and\n        /* \"Final Exam/Ballot2.sol\":1711:1732  _voter == chairperson */\n      0xffffffffffffffffffffffffffffffffffffffff\n      and\n        /* \"Final Exam/Ballot2.sol\":1711:1717  _voter */\n      dup3\n        /* \"Final Exam/Ballot2.sol\":1711:1732  _voter == chairperson */\n      0xffffffffffffffffffffffffffffffffffffffff\n      and\n      sub\n        /* \"Final Exam/Ballot2.sol\":1707:1856  if (_voter == chairperson) {... */\n      tag_79\n      jumpi\n        /* \"Final Exam/Ballot2.sol\":1776:1777  2 */\n      0x02\n        /* \"Final Exam/Ballot2.sol\":1752:1758  voters */\n      0x01\n        /* \"Final Exam/Ballot2.sol\":1752:1766  voters[_voter] */\n      0x00\n        /* \"Final Exam/Ballot2.sol\":1759:1765  _voter */\n      dup5\n        /* \"Final Exam/Ballot2.sol\":1752:1766  voters[_voter] */\n      0xffffffffffffffffffffffffffffffffffffffff\n      and\n      0xffffffffffffffffffffffffffffffffffffffff\n      and\n      dup2\n      mstore\n      0x20\n      add\n      swap1\n      dup2\n      mstore\n      0x20\n      add\n      0x00\n      keccak256\n        /* \"Final Exam/Ballot2.sol\":1752:1773  voters[_voter].weight */\n      0x00\n      add\n        /* \"Final Exam/Ballot2.sol\":1752:1777  voters[_voter].weight = 2 */\n      dup2\n      swap1\n      sstore\n      pop\n        /* \"Final Exam/Ballot2.sol\":1707:1856  if (_voter == chairperson) {... */\n      jump(tag_80)\n    tag_79:\n        /* \"Final Exam/Ballot2.sol\":1840:1841  1 */\n      0x01\n        /* \"Final Exam/Ballot2.sol\":1816:1822  voters */\n      dup1\n        /* \"Final Exam/Ballot2.sol\":1816:1830  voters[_voter] */\n      0x00\n        /* \"Final Exam/Ballot2.sol\":1823:1829  _voter */\n      dup5\n        /* \"Final Exam/Ballot2.sol\":1816:1830  voters[_voter] */\n      0xffffffffffffffffffffffffffffffffffffffff\n      and\n      0xffffffffffffffffffffffffffffffffffffffff\n      and\n      dup2\n      mstore\n      0x20\n      add\n      swap1\n      dup2\n      mstore\n      0x20\n      add\n      0x00\n      keccak256\n        /* \"Final Exam/Ballot2.sol\":1816:1837  voters[_voter].weight */\n      0x00\n      add\n        /* \"Final Exam/Ballot2.sol\":1816:1841  voters[_voter].weight = 1 */\n      dup2\n      swap1\n      sstore\n      pop\n        /* \"Final Exam/Ballot2.sol\":1707:1856  if (_voter == chairperson) {... */\n    tag_80:\n        /* \"Final Exam/Ballot2.sol\":1892:1897  false */\n      0x00\n        /* \"Final Exam/Ballot2.sol\":1869:1875  voters */\n      0x01\n        /* \"Final Exam/Ballot2.sol\":1869:1883  voters[_voter] */\n      0x00\n        /* \"Final Exam/Ballot2.sol\":1876:1882  _voter */\n      dup5\n        /* \"Final Exam/Ballot2.sol\":1869:1883  voters[_voter] */\n      0xffffffffffffffffffffffffffffffffffffffff\n      and\n      0xffffffffffffffffffffffffffffffffffffffff\n      and\n      dup2\n      mstore\n      0x20\n      add\n      swap1\n      dup2\n      mstore\n      0x20\n      add\n      0x00\n      keccak256\n        /* \"Final Exam/Ballot2.sol\":1869:1889  voters[_voter].voted */\n      0x01\n      add\n      0x00\n        /* \"Final Exam/Ballot2.sol\":1869:1897  voters[_voter].voted = false */\n      0x0100\n      exp\n      dup2\n      sload\n      dup2\n      0xff\n      mul\n      not\n      and\n      swap1\n      dup4\n      iszero\n      iszero\n      mul\n      or\n      swap1\n      sstore\n      pop\n        /* \"Final Exam/Ballot2.sol\":1933:1934  0 */\n      0x00\n        /* \"Final Exam/Ballot2.sol\":1911:1917  voters */\n      0x01\n        /* \"Final Exam/Ballot2.sol\":1911:1925  voters[_voter] */\n      0x00\n        /* \"Final Exam/Ballot2.sol\":1918:1924  _voter */\n      dup5\n        /* \"Final Exam/Ballot2.sol\":1911:1925  voters[_voter] */\n      0xffffffffffffffffffffffffffffffffffffffff\n      and\n      0xffffffffffffffffffffffffffffffffffffffff\n      and\n      dup2\n      mstore\n      0x20\n      add\n      swap1\n      dup2\n      mstore\n      0x20\n      add\n      0x00\n      keccak256\n        /* \"Final Exam/Ballot2.sol\":1911:1930  voters[_voter].vote */\n      0x02\n      add\n        /* \"Final Exam/Ballot2.sol\":1911:1934  voters[_voter].vote = 0 */\n      dup2\n      swap1\n      sstore\n      pop\n        /* \"Final Exam/Ballot2.sol\":602:603  _ */\n      pop\n        /* \"Final Exam/Ballot2.sol\":1587:1945  function register(address _voter) ... */\n      pop\n      jump\t// out\n        /* \"Final Exam/Ballot2.sol\":2414:2851  function reqWinner()... */\n    tag_29:\n        /* \"Final Exam/Ballot2.sol\":2531:2552  uint8 winningProposal */\n      0x00\n        /* \"Final Exam/Ballot2.sol\":2483:2493  Phase.Done */\n      0x03\n        /* \"Final Exam/Ballot2.sol\":831:839  reqPhase */\n      dup1\n        /* \"Final Exam/Ballot2.sol\":815:839  currentPhase == reqPhase */\n      0x03\n      dup2\n      gt\n      iszero\n      tag_82\n      jumpi\n      tag_83\n      tag_46\n      jump\t// in\n    tag_83:\n    tag_82:\n        /* \"Final Exam/Ballot2.sol\":815:827  currentPhase */\n      0x03\n      0x00\n      swap1\n      sload\n      swap1\n      0x0100\n      exp\n      swap1\n      div\n      0xff\n      and\n        /* \"Final Exam/Ballot2.sol\":815:839  currentPhase == reqPhase */\n      0x03\n      dup2\n      gt\n      iszero\n      tag_84\n      jumpi\n      tag_85\n      tag_46\n      jump\t// in\n    tag_85:\n    tag_84:\n      eq\n        /* \"Final Exam/Ballot2.sol\":807:884  require(currentPhase == reqPhase, \"Error : Invalid Phase. Chack Phase again\") */\n      tag_86\n      jumpi\n      mload(0x40)\n      0x08c379a000000000000000000000000000000000000000000000000000000000\n      dup2\n      mstore\n      0x04\n      add\n      tag_87\n      swap1\n      tag_51\n      jump\t// in\n    tag_87:\n      mload(0x40)\n      dup1\n      swap2\n      sub\n      swap1\n      revert\n    tag_86:\n        /* \"Final Exam/Ballot2.sol\":528:539  chairperson */\n      0x00\n      dup1\n      sload\n      swap1\n      0x0100\n      exp\n      swap1\n      div\n      0xffffffffffffffffffffffffffffffffffffffff\n      and\n        /* \"Final Exam/Ballot2.sol\":514:539  msg.sender == chairperson */\n      0xffffffffffffffffffffffffffffffffffffffff\n      and\n        /* \"Final Exam/Ballot2.sol\":514:524  msg.sender */\n      caller\n        /* \"Final Exam/Ballot2.sol\":514:539  msg.sender == chairperson */\n      0xffffffffffffffffffffffffffffffffffffffff\n      and\n      eq\n        /* \"Final Exam/Ballot2.sol\":506:592  require(msg.sender == chairperson, \"Error : Only Chair Person can call this function\") */\n      tag_89\n      jumpi\n      mload(0x40)\n      0x08c379a000000000000000000000000000000000000000000000000000000000\n      dup2\n      mstore\n      0x04\n      add\n      tag_90\n      swap1\n      tag_70\n      jump\t// in\n    tag_90:\n      mload(0x40)\n      dup1\n      swap2\n      sub\n      swap1\n      revert\n    tag_89:\n        /* \"Final Exam/Ballot2.sol\":2586:2587  0 */\n      0x00\n        /* \"Final Exam/Ballot2.sol\":2568:2587  winningProposal = 0 */\n      swap2\n      pop\n        /* \"Final Exam/Ballot2.sol\":2606:2613  uint8 i */\n      0x00\n        /* \"Final Exam/Ballot2.sol\":2601:2805  for (uint8 i = 0; i < proposals.length; i++) {... */\n    tag_92:\n        /* \"Final Exam/Ballot2.sol\":2623:2632  proposals */\n      0x02\n        /* \"Final Exam/Ballot2.sol\":2623:2639  proposals.length */\n      dup1\n      sload\n      swap1\n      pop\n        /* \"Final Exam/Ballot2.sol\":2619:2620  i */\n      dup2\n        /* \"Final Exam/Ballot2.sol\":2619:2639  i < proposals.length */\n      0xff\n      and\n      lt\n        /* \"Final Exam/Ballot2.sol\":2601:2805  for (uint8 i = 0; i < proposals.length; i++) {... */\n      iszero\n      tag_93\n      jumpi\n        /* \"Final Exam/Ballot2.sol\":2693:2702  proposals */\n      0x02\n        /* \"Final Exam/Ballot2.sol\":2703:2718  winningProposal */\n      dup4\n        /* \"Final Exam/Ballot2.sol\":2693:2719  proposals[winningProposal] */\n      0xff\n      and\n      dup2\n      sload\n      dup2\n      lt\n      tag_95\n      jumpi\n      tag_96\n      tag_61\n      jump\t// in\n    tag_96:\n    tag_95:\n      swap1\n      0x00\n      mstore\n      keccak256(0x00, 0x20)\n      add\n        /* \"Final Exam/Ballot2.sol\":2693:2729  proposals[winningProposal].voteCount */\n      0x00\n      add\n      sload\n        /* \"Final Exam/Ballot2.sol\":2668:2677  proposals */\n      0x02\n        /* \"Final Exam/Ballot2.sol\":2678:2679  i */\n      dup3\n        /* \"Final Exam/Ballot2.sol\":2668:2680  proposals[i] */\n      0xff\n      and\n      dup2\n      sload\n      dup2\n      lt\n      tag_98\n      jumpi\n      tag_99\n      tag_61\n      jump\t// in\n    tag_99:\n    tag_98:\n      swap1\n      0x00\n      mstore\n      keccak256(0x00, 0x20)\n      add\n        /* \"Final Exam/Ballot2.sol\":2668:2690  proposals[i].voteCount */\n      0x00\n      add\n      sload\n        /* \"Final Exam/Ballot2.sol\":2668:2729  proposals[i].voteCount > proposals[winningProposal].voteCount */\n      gt\n        /* \"Final Exam/Ballot2.sol\":2664:2791  if (proposals[i].voteCount > proposals[winningProposal].voteCount) {... */\n      iszero\n      tag_101\n      jumpi\n        /* \"Final Exam/Ballot2.sol\":2771:2772  i */\n      dup1\n        /* \"Final Exam/Ballot2.sol\":2753:2772  winningProposal = i */\n      swap3\n      pop\n        /* \"Final Exam/Ballot2.sol\":2664:2791  if (proposals[i].voteCount > proposals[winningProposal].voteCount) {... */\n    tag_101:\n        /* \"Final Exam/Ballot2.sol\":2641:2644  i++ */\n      dup1\n      dup1\n      tag_102\n      swap1\n      tag_103\n      jump\t// in\n    tag_102:\n      swap2\n      pop\n      pop\n        /* \"Final Exam/Ballot2.sol\":2601:2805  for (uint8 i = 0; i < proposals.length; i++) {... */\n      jump(tag_92)\n    tag_93:\n      pop\n        /* \"Final Exam/Ballot2.sol\":2414:2851  function reqWinner()... */\n      pop\n      swap1\n      jump\t// out\n        /* \"Final Exam/Ballot2.sol\":255:294  mapping(address => Voter) public voters */\n    tag_34:\n      mstore(0x20, 0x01)\n      dup1\n      0x00\n      mstore\n      keccak256(0x00, 0x40)\n      0x00\n      swap2\n      pop\n      swap1\n      pop\n      dup1\n      0x00\n      add\n      sload\n      swap1\n      dup1\n      0x01\n      add\n      0x00\n      swap1\n      sload\n      swap1\n      0x0100\n      exp\n      swap1\n      div\n      0xff\n      and\n      swap1\n      dup1\n      0x02\n      add\n      sload\n      swap1\n      pop\n      dup4\n      jump\t// out\n        /* \"Final Exam/Ballot2.sol\":1126:1577  function advancePhase() ... */\n    tag_38:\n        /* \"Final Exam/Ballot2.sol\":528:539  chairperson */\n      0x00\n      dup1\n      sload\n      swap1\n      0x0100\n      exp\n      swap1\n      div\n      0xffffffffffffffffffffffffffffffffffffffff\n      and\n        /* \"Final Exam/Ballot2.sol\":514:539  msg.sender == chairperson */\n      0xffffffffffffffffffffffffffffffffffffffff\n      and\n        /* \"Final Exam/Ballot2.sol\":514:524  msg.sender */\n      caller\n        /* \"Final Exam/Ballot2.sol\":514:539  msg.sender == chairperson */\n      0xffffffffffffffffffffffffffffffffffffffff\n      and\n      eq\n        /* \"Final Exam/Ballot2.sol\":506:592  require(msg.sender == chairperson, \"Error : Only Chair Person can call this function\") */\n      tag_105\n      jumpi\n      mload(0x40)\n      0x08c379a000000000000000000000000000000000000000000000000000000000\n      dup2\n      mstore\n      0x04\n      add\n      tag_106\n      swap1\n      tag_70\n      jump\t// in\n    tag_106:\n      mload(0x40)\n      dup1\n      swap2\n      sub\n      swap1\n      revert\n    tag_105:\n        /* \"Final Exam/Ballot2.sol\":1221:1237  Phase.Initialize */\n      0x00\n        /* \"Final Exam/Ballot2.sol\":1205:1237  currentPhase == Phase.Initialize */\n      0x03\n      dup2\n      gt\n      iszero\n      tag_108\n      jumpi\n      tag_109\n      tag_46\n      jump\t// in\n    tag_109:\n    tag_108:\n        /* \"Final Exam/Ballot2.sol\":1205:1217  currentPhase */\n      0x03\n      0x00\n      swap1\n      sload\n      swap1\n      0x0100\n      exp\n      swap1\n      div\n      0xff\n      and\n        /* \"Final Exam/Ballot2.sol\":1205:1237  currentPhase == Phase.Initialize */\n      0x03\n      dup2\n      gt\n      iszero\n      tag_110\n      jumpi\n      tag_111\n      tag_46\n      jump\t// in\n    tag_111:\n    tag_110:\n      sub\n        /* \"Final Exam/Ballot2.sol\":1201:1567  if (currentPhase == Phase.Initialize) {... */\n      tag_112\n      jumpi\n        /* \"Final Exam/Ballot2.sol\":1272:1286  Phase.Register */\n      0x01\n        /* \"Final Exam/Ballot2.sol\":1257:1269  currentPhase */\n      0x03\n      0x00\n        /* \"Final Exam/Ballot2.sol\":1257:1286  currentPhase = Phase.Register */\n      0x0100\n      exp\n      dup2\n      sload\n      dup2\n      0xff\n      mul\n      not\n      and\n      swap1\n      dup4\n      0x03\n      dup2\n      gt\n      iszero\n      tag_113\n      jumpi\n      tag_114\n      tag_46\n      jump\t// in\n    tag_114:\n    tag_113:\n      mul\n      or\n      swap1\n      sstore\n      pop\n        /* \"Final Exam/Ballot2.sol\":1201:1567  if (currentPhase == Phase.Initialize) {... */\n      jump(tag_115)\n    tag_112:\n        /* \"Final Exam/Ballot2.sol\":1327:1341  Phase.Register */\n      0x01\n        /* \"Final Exam/Ballot2.sol\":1311:1341  currentPhase == Phase.Register */\n      0x03\n      dup2\n      gt\n      iszero\n      tag_116\n      jumpi\n      tag_117\n      tag_46\n      jump\t// in\n    tag_117:\n    tag_116:\n        /* \"Final Exam/Ballot2.sol\":1311:1323  currentPhase */\n      0x03\n      0x00\n      swap1\n      sload\n      swap1\n      0x0100\n      exp\n      swap1\n      div\n      0xff\n      and\n        /* \"Final Exam/Ballot2.sol\":1311:1341  currentPhase == Phase.Register */\n      0x03\n      dup2\n      gt\n      iszero\n      tag_118\n      jumpi\n      tag_119\n      tag_46\n      jump\t// in\n    tag_119:\n    tag_118:\n      sub\n        /* \"Final Exam/Ballot2.sol\":1307:1567  if (currentPhase == Phase.Register) {... */\n      tag_120\n      jumpi\n        /* \"Final Exam/Ballot2.sol\":1376:1386  Phase.Vote */\n      0x02\n        /* \"Final Exam/Ballot2.sol\":1361:1373  currentPhase */\n      0x03\n      0x00\n        /* \"Final Exam/Ballot2.sol\":1361:1386  currentPhase = Phase.Vote */\n      0x0100\n      exp\n      dup2\n      sload\n      dup2\n      0xff\n      mul\n      not\n      and\n      swap1\n      dup4\n      0x03\n      dup2\n      gt\n      iszero\n      tag_121\n      jumpi\n      tag_122\n      tag_46\n      jump\t// in\n    tag_122:\n    tag_121:\n      mul\n      or\n      swap1\n      sstore\n      pop\n        /* \"Final Exam/Ballot2.sol\":1307:1567  if (currentPhase == Phase.Register) {... */\n      jump(tag_123)\n    tag_120:\n        /* \"Final Exam/Ballot2.sol\":1427:1437  Phase.Vote */\n      0x02\n        /* \"Final Exam/Ballot2.sol\":1411:1437  currentPhase == Phase.Vote */\n      0x03\n      dup2\n      gt\n      iszero\n      tag_124\n      jumpi\n      tag_125\n      tag_46\n      jump\t// in\n    tag_125:\n    tag_124:\n        /* \"Final Exam/Ballot2.sol\":1411:1423  currentPhase */\n      0x03\n      0x00\n      swap1\n      sload\n      swap1\n      0x0100\n      exp\n      swap1\n      div\n      0xff\n      and\n        /* \"Final Exam/Ballot2.sol\":1411:1437  currentPhase == Phase.Vote */\n      0x03\n      dup2\n      gt\n      iszero\n      tag_126\n      jumpi\n      tag_127\n      tag_46\n      jump\t// in\n    tag_127:\n    tag_126:\n      sub\n        /* \"Final Exam/Ballot2.sol\":1407:1567  if (currentPhase == Phase.Vote) {... */\n      tag_128\n      jumpi\n        /* \"Final Exam/Ballot2.sol\":1472:1482  Phase.Done */\n      0x03\n        /* \"Final Exam/Ballot2.sol\":1457:1469  currentPhase */\n      dup1\n      0x00\n        /* \"Final Exam/Ballot2.sol\":1457:1482  currentPhase = Phase.Done */\n      0x0100\n      exp\n      dup2\n      sload\n      dup2\n      0xff\n      mul\n      not\n      and\n      swap1\n      dup4\n      0x03\n      dup2\n      gt\n      iszero\n      tag_129\n      jumpi\n      tag_130\n      tag_46\n      jump\t// in\n    tag_130:\n    tag_129:\n      mul\n      or\n      swap1\n      sstore\n      pop\n        /* \"Final Exam/Ballot2.sol\":1407:1567  if (currentPhase == Phase.Vote) {... */\n      jump(tag_131)\n    tag_128:\n        /* \"Final Exam/Ballot2.sol\":1536:1552  Phase.Initialize */\n      0x00\n        /* \"Final Exam/Ballot2.sol\":1521:1533  currentPhase */\n      0x03\n      0x00\n        /* \"Final Exam/Ballot2.sol\":1521:1552  currentPhase = Phase.Initialize */\n      0x0100\n      exp\n      dup2\n      sload\n      dup2\n      0xff\n      mul\n      not\n      and\n      swap1\n      dup4\n      0x03\n      dup2\n      gt\n      iszero\n      tag_132\n      jumpi\n      tag_133\n      tag_46\n      jump\t// in\n    tag_133:\n    tag_132:\n      mul\n      or\n      swap1\n      sstore\n      pop\n        /* \"Final Exam/Ballot2.sol\":1407:1567  if (currentPhase == Phase.Vote) {... */\n    tag_131:\n        /* \"Final Exam/Ballot2.sol\":1307:1567  if (currentPhase == Phase.Register) {... */\n    tag_123:\n        /* \"Final Exam/Ballot2.sol\":1201:1567  if (currentPhase == Phase.Initialize) {... */\n    tag_115:\n        /* \"Final Exam/Ballot2.sol\":1126:1577  function advancePhase() ... */\n      jump\t// out\n        /* \"#utility.yul\":88:205   */\n    tag_135:\n        /* \"#utility.yul\":197:198   */\n      0x00\n        /* \"#utility.yul\":194:195   */\n      dup1\n        /* \"#utility.yul\":187:199   */\n      revert\n        /* \"#utility.yul\":334:411   */\n    tag_137:\n        /* \"#utility.yul\":371:378   */\n      0x00\n        /* \"#utility.yul\":400:405   */\n      dup2\n        /* \"#utility.yul\":389:405   */\n      swap1\n      pop\n        /* \"#utility.yul\":334:411   */\n      swap2\n      swap1\n      pop\n      jump\t// out\n        /* \"#utility.yul\":417:539   */\n    tag_138:\n        /* \"#utility.yul\":490:514   */\n      tag_171\n        /* \"#utility.yul\":508:513   */\n      dup2\n        /* \"#utility.yul\":490:514   */\n      tag_137\n      jump\t// in\n    tag_171:\n        /* \"#utility.yul\":483:488   */\n      dup2\n        /* \"#utility.yul\":480:515   */\n      eq\n        /* \"#utility.yul\":470:533   */\n      tag_172\n      jumpi\n        /* \"#utility.yul\":529:530   */\n      0x00\n        /* \"#utility.yul\":526:527   */\n      dup1\n        /* \"#utility.yul\":519:531   */\n      revert\n        /* \"#utility.yul\":470:533   */\n    tag_172:\n        /* \"#utility.yul\":417:539   */\n      pop\n      jump\t// out\n        /* \"#utility.yul\":545:684   */\n    tag_139:\n        /* \"#utility.yul\":591:596   */\n      0x00\n        /* \"#utility.yul\":629:635   */\n      dup2\n        /* \"#utility.yul\":616:636   */\n      calldataload\n        /* \"#utility.yul\":607:636   */\n      swap1\n      pop\n        /* \"#utility.yul\":645:678   */\n      tag_174\n        /* \"#utility.yul\":672:677   */\n      dup2\n        /* \"#utility.yul\":645:678   */\n      tag_138\n      jump\t// in\n    tag_174:\n        /* \"#utility.yul\":545:684   */\n      swap3\n      swap2\n      pop\n      pop\n      jump\t// out\n        /* \"#utility.yul\":690:1019   */\n    tag_13:\n        /* \"#utility.yul\":749:755   */\n      0x00\n        /* \"#utility.yul\":798:800   */\n      0x20\n        /* \"#utility.yul\":786:795   */\n      dup3\n        /* \"#utility.yul\":777:784   */\n      dup5\n        /* \"#utility.yul\":773:796   */\n      sub\n        /* \"#utility.yul\":769:801   */\n      slt\n        /* \"#utility.yul\":766:885   */\n      iszero\n      tag_176\n      jumpi\n        /* \"#utility.yul\":804:883   */\n      tag_177\n      tag_135\n      jump\t// in\n    tag_177:\n        /* \"#utility.yul\":766:885   */\n    tag_176:\n        /* \"#utility.yul\":924:925   */\n      0x00\n        /* \"#utility.yul\":949:1002   */\n      tag_178\n        /* \"#utility.yul\":994:1001   */\n      dup5\n        /* \"#utility.yul\":985:991   */\n      dup3\n        /* \"#utility.yul\":974:983   */\n      dup6\n        /* \"#utility.yul\":970:992   */\n      add\n        /* \"#utility.yul\":949:1002   */\n      tag_139\n      jump\t// in\n    tag_178:\n        /* \"#utility.yul\":939:1002   */\n      swap2\n      pop\n        /* \"#utility.yul\":895:1012   */\n      pop\n        /* \"#utility.yul\":690:1019   */\n      swap3\n      swap2\n      pop\n      pop\n      jump\t// out\n        /* \"#utility.yul\":1025:1143   */\n    tag_140:\n        /* \"#utility.yul\":1112:1136   */\n      tag_180\n        /* \"#utility.yul\":1130:1135   */\n      dup2\n        /* \"#utility.yul\":1112:1136   */\n      tag_137\n      jump\t// in\n    tag_180:\n        /* \"#utility.yul\":1107:1110   */\n      dup3\n        /* \"#utility.yul\":1100:1137   */\n      mstore\n        /* \"#utility.yul\":1025:1143   */\n      pop\n      pop\n      jump\t// out\n        /* \"#utility.yul\":1149:1371   */\n    tag_19:\n        /* \"#utility.yul\":1242:1246   */\n      0x00\n        /* \"#utility.yul\":1280:1282   */\n      0x20\n        /* \"#utility.yul\":1269:1278   */\n      dup3\n        /* \"#utility.yul\":1265:1283   */\n      add\n        /* \"#utility.yul\":1257:1283   */\n      swap1\n      pop\n        /* \"#utility.yul\":1293:1364   */\n      tag_182\n        /* \"#utility.yul\":1361:1362   */\n      0x00\n        /* \"#utility.yul\":1350:1359   */\n      dup4\n        /* \"#utility.yul\":1346:1363   */\n      add\n        /* \"#utility.yul\":1337:1343   */\n      dup5\n        /* \"#utility.yul\":1293:1364   */\n      tag_140\n      jump\t// in\n    tag_182:\n        /* \"#utility.yul\":1149:1371   */\n      swap3\n      swap2\n      pop\n      pop\n      jump\t// out\n        /* \"#utility.yul\":1377:1557   */\n    tag_46:\n        /* \"#utility.yul\":1425:1502   */\n      0x4e487b7100000000000000000000000000000000000000000000000000000000\n        /* \"#utility.yul\":1422:1423   */\n      0x00\n        /* \"#utility.yul\":1415:1503   */\n      mstore\n        /* \"#utility.yul\":1522:1526   */\n      0x21\n        /* \"#utility.yul\":1519:1520   */\n      0x04\n        /* \"#utility.yul\":1512:1527   */\n      mstore\n        /* \"#utility.yul\":1546:1550   */\n      0x24\n        /* \"#utility.yul\":1543:1544   */\n      0x00\n        /* \"#utility.yul\":1536:1551   */\n      revert\n        /* \"#utility.yul\":1563:1676   */\n    tag_141:\n        /* \"#utility.yul\":1644:1645   */\n      0x04\n        /* \"#utility.yul\":1637:1642   */\n      dup2\n        /* \"#utility.yul\":1634:1646   */\n      lt\n        /* \"#utility.yul\":1624:1670   */\n      tag_185\n      jumpi\n        /* \"#utility.yul\":1650:1668   */\n      tag_186\n      tag_46\n      jump\t// in\n    tag_186:\n        /* \"#utility.yul\":1624:1670   */\n    tag_185:\n        /* \"#utility.yul\":1563:1676   */\n      pop\n      jump\t// out\n        /* \"#utility.yul\":1682:1809   */\n    tag_142:\n        /* \"#utility.yul\":1727:1734   */\n      0x00\n        /* \"#utility.yul\":1756:1761   */\n      dup2\n        /* \"#utility.yul\":1745:1761   */\n      swap1\n      pop\n        /* \"#utility.yul\":1762:1803   */\n      tag_188\n        /* \"#utility.yul\":1797:1802   */\n      dup3\n        /* \"#utility.yul\":1762:1803   */\n      tag_141\n      jump\t// in\n    tag_188:\n        /* \"#utility.yul\":1682:1809   */\n      swap2\n      swap1\n      pop\n      jump\t// out\n        /* \"#utility.yul\":1815:1942   */\n    tag_143:\n        /* \"#utility.yul\":1871:1880   */\n      0x00\n        /* \"#utility.yul\":1904:1936   */\n      tag_190\n        /* \"#utility.yul\":1930:1935   */\n      dup3\n        /* \"#utility.yul\":1904:1936   */\n      tag_142\n      jump\t// in\n    tag_190:\n        /* \"#utility.yul\":1891:1936   */\n      swap1\n      pop\n        /* \"#utility.yul\":1815:1942   */\n      swap2\n      swap1\n      pop\n      jump\t// out\n        /* \"#utility.yul\":1948:2091   */\n    tag_144:\n        /* \"#utility.yul\":2041:2084   */\n      tag_192\n        /* \"#utility.yul\":2078:2083   */\n      dup2\n        /* \"#utility.yul\":2041:2084   */\n      tag_143\n      jump\t// in\n    tag_192:\n        /* \"#utility.yul\":2036:2039   */\n      dup3\n        /* \"#utility.yul\":2029:2085   */\n      mstore\n        /* \"#utility.yul\":1948:2091   */\n      pop\n      pop\n      jump\t// out\n        /* \"#utility.yul\":2097:2331   */\n    tag_23:\n        /* \"#utility.yul\":2196:2200   */\n      0x00\n        /* \"#utility.yul\":2234:2236   */\n      0x20\n        /* \"#utility.yul\":2223:2232   */\n      dup3\n        /* \"#utility.yul\":2219:2237   */\n      add\n        /* \"#utility.yul\":2211:2237   */\n      swap1\n      pop\n        /* \"#utility.yul\":2247:2324   */\n      tag_194\n        /* \"#utility.yul\":2321:2322   */\n      0x00\n        /* \"#utility.yul\":2310:2319   */\n      dup4\n        /* \"#utility.yul\":2306:2323   */\n      add\n        /* \"#utility.yul\":2297:2303   */\n      dup5\n        /* \"#utility.yul\":2247:2324   */\n      tag_144\n      jump\t// in\n    tag_194:\n        /* \"#utility.yul\":2097:2331   */\n      swap3\n      swap2\n      pop\n      pop\n      jump\t// out\n        /* \"#utility.yul\":2337:2463   */\n    tag_145:\n        /* \"#utility.yul\":2374:2381   */\n      0x00\n        /* \"#utility.yul\":2414:2456   */\n      0xffffffffffffffffffffffffffffffffffffffff\n        /* \"#utility.yul\":2407:2412   */\n      dup3\n        /* \"#utility.yul\":2403:2457   */\n      and\n        /* \"#utility.yul\":2392:2457   */\n      swap1\n      pop\n        /* \"#utility.yul\":2337:2463   */\n      swap2\n      swap1\n      pop\n      jump\t// out\n        /* \"#utility.yul\":2469:2565   */\n    tag_146:\n        /* \"#utility.yul\":2506:2513   */\n      0x00\n        /* \"#utility.yul\":2535:2559   */\n      tag_197\n        /* \"#utility.yul\":2553:2558   */\n      dup3\n        /* \"#utility.yul\":2535:2559   */\n      tag_145\n      jump\t// in\n    tag_197:\n        /* \"#utility.yul\":2524:2559   */\n      swap1\n      pop\n        /* \"#utility.yul\":2469:2565   */\n      swap2\n      swap1\n      pop\n      jump\t// out\n        /* \"#utility.yul\":2571:2693   */\n    tag_147:\n        /* \"#utility.yul\":2644:2668   */\n      tag_199\n        /* \"#utility.yul\":2662:2667   */\n      dup2\n        /* \"#utility.yul\":2644:2668   */\n      tag_146\n      jump\t// in\n    tag_199:\n        /* \"#utility.yul\":2637:2642   */\n      dup2\n        /* \"#utility.yul\":2634:2669   */\n      eq\n        /* \"#utility.yul\":2624:2687   */\n      tag_200\n      jumpi\n        /* \"#utility.yul\":2683:2684   */\n      0x00\n        /* \"#utility.yul\":2680:2681   */\n      dup1\n        /* \"#utility.yul\":2673:2685   */\n      revert\n        /* \"#utility.yul\":2624:2687   */\n    tag_200:\n        /* \"#utility.yul\":2571:2693   */\n      pop\n      jump\t// out\n        /* \"#utility.yul\":2699:2838   */\n    tag_148:\n        /* \"#utility.yul\":2745:2750   */\n      0x00\n        /* \"#utility.yul\":2783:2789   */\n      dup2\n        /* \"#utility.yul\":2770:2790   */\n      calldataload\n        /* \"#utility.yul\":2761:2790   */\n      swap1\n      pop\n        /* \"#utility.yul\":2799:2832   */\n      tag_202\n        /* \"#utility.yul\":2826:2831   */\n      dup2\n        /* \"#utility.yul\":2799:2832   */\n      tag_147\n      jump\t// in\n    tag_202:\n        /* \"#utility.yul\":2699:2838   */\n      swap3\n      swap2\n      pop\n      pop\n      jump\t// out\n        /* \"#utility.yul\":2844:3173   */\n    tag_26:\n        /* \"#utility.yul\":2903:2909   */\n      0x00\n        /* \"#utility.yul\":2952:2954   */\n      0x20\n        /* \"#utility.yul\":2940:2949   */\n      dup3\n        /* \"#utility.yul\":2931:2938   */\n      dup5\n        /* \"#utility.yul\":2927:2950   */\n      sub\n        /* \"#utility.yul\":2923:2955   */\n      slt\n        /* \"#utility.yul\":2920:3039   */\n      iszero\n      tag_204\n      jumpi\n        /* \"#utility.yul\":2958:3037   */\n      tag_205\n      tag_135\n      jump\t// in\n    tag_205:\n        /* \"#utility.yul\":2920:3039   */\n    tag_204:\n        /* \"#utility.yul\":3078:3079   */\n      0x00\n        /* \"#utility.yul\":3103:3156   */\n      tag_206\n        /* \"#utility.yul\":3148:3155   */\n      dup5\n        /* \"#utility.yul\":3139:3145   */\n      dup3\n        /* \"#utility.yul\":3128:3137   */\n      dup6\n        /* \"#utility.yul\":3124:3146   */\n      add\n        /* \"#utility.yul\":3103:3156   */\n      tag_148\n      jump\t// in\n    tag_206:\n        /* \"#utility.yul\":3093:3156   */\n      swap2\n      pop\n        /* \"#utility.yul\":3049:3166   */\n      pop\n        /* \"#utility.yul\":2844:3173   */\n      swap3\n      swap2\n      pop\n      pop\n      jump\t// out\n        /* \"#utility.yul\":3179:3265   */\n    tag_149:\n        /* \"#utility.yul\":3214:3221   */\n      0x00\n        /* \"#utility.yul\":3254:3258   */\n      0xff\n        /* \"#utility.yul\":3247:3252   */\n      dup3\n        /* \"#utility.yul\":3243:3259   */\n      and\n        /* \"#utility.yul\":3232:3259   */\n      swap1\n      pop\n        /* \"#utility.yul\":3179:3265   */\n      swap2\n      swap1\n      pop\n      jump\t// out\n        /* \"#utility.yul\":3271:3383   */\n    tag_150:\n        /* \"#utility.yul\":3354:3376   */\n      tag_209\n        /* \"#utility.yul\":3370:3375   */\n      dup2\n        /* \"#utility.yul\":3354:3376   */\n      tag_149\n      jump\t// in\n    tag_209:\n        /* \"#utility.yul\":3349:3352   */\n      dup3\n        /* \"#utility.yul\":3342:3377   */\n      mstore\n        /* \"#utility.yul\":3271:3383   */\n      pop\n      pop\n      jump\t// out\n        /* \"#utility.yul\":3389:3603   */\n    tag_31:\n        /* \"#utility.yul\":3478:3482   */\n      0x00\n        /* \"#utility.yul\":3516:3518   */\n      0x20\n        /* \"#utility.yul\":3505:3514   */\n      dup3\n        /* \"#utility.yul\":3501:3519   */\n      add\n        /* \"#utility.yul\":3493:3519   */\n      swap1\n      pop\n        /* \"#utility.yul\":3529:3596   */\n      tag_211\n        /* \"#utility.yul\":3593:3594   */\n      0x00\n        /* \"#utility.yul\":3582:3591   */\n      dup4\n        /* \"#utility.yul\":3578:3595   */\n      add\n        /* \"#utility.yul\":3569:3575   */\n      dup5\n        /* \"#utility.yul\":3529:3596   */\n      tag_150\n      jump\t// in\n    tag_211:\n        /* \"#utility.yul\":3389:3603   */\n      swap3\n      swap2\n      pop\n      pop\n      jump\t// out\n        /* \"#utility.yul\":3609:3699   */\n    tag_151:\n        /* \"#utility.yul\":3643:3650   */\n      0x00\n        /* \"#utility.yul\":3686:3691   */\n      dup2\n        /* \"#utility.yul\":3679:3692   */\n      iszero\n        /* \"#utility.yul\":3672:3693   */\n      iszero\n        /* \"#utility.yul\":3661:3693   */\n      swap1\n      pop\n        /* \"#utility.yul\":3609:3699   */\n      swap2\n      swap1\n      pop\n      jump\t// out\n        /* \"#utility.yul\":3705:3814   */\n    tag_152:\n        /* \"#utility.yul\":3786:3807   */\n      tag_214\n        /* \"#utility.yul\":3801:3806   */\n      dup2\n        /* \"#utility.yul\":3786:3807   */\n      tag_151\n      jump\t// in\n    tag_214:\n        /* \"#utility.yul\":3781:3784   */\n      dup3\n        /* \"#utility.yul\":3774:3808   */\n      mstore\n        /* \"#utility.yul\":3705:3814   */\n      pop\n      pop\n      jump\t// out\n        /* \"#utility.yul\":3820:4250   */\n    tag_36:\n        /* \"#utility.yul\":3963:3967   */\n      0x00\n        /* \"#utility.yul\":4001:4003   */\n      0x60\n        /* \"#utility.yul\":3990:3999   */\n      dup3\n        /* \"#utility.yul\":3986:4004   */\n      add\n        /* \"#utility.yul\":3978:4004   */\n      swap1\n      pop\n        /* \"#utility.yul\":4014:4085   */\n      tag_216\n        /* \"#utility.yul\":4082:4083   */\n      0x00\n        /* \"#utility.yul\":4071:4080   */\n      dup4\n        /* \"#utility.yul\":4067:4084   */\n      add\n        /* \"#utility.yul\":4058:4064   */\n      dup7\n        /* \"#utility.yul\":4014:4085   */\n      tag_140\n      jump\t// in\n    tag_216:\n        /* \"#utility.yul\":4095:4161   */\n      tag_217\n        /* \"#utility.yul\":4157:4159   */\n      0x20\n        /* \"#utility.yul\":4146:4155   */\n      dup4\n        /* \"#utility.yul\":4142:4160   */\n      add\n        /* \"#utility.yul\":4133:4139   */\n      dup6\n        /* \"#utility.yul\":4095:4161   */\n      tag_152\n      jump\t// in\n    tag_217:\n        /* \"#utility.yul\":4171:4243   */\n      tag_218\n        /* \"#utility.yul\":4239:4241   */\n      0x40\n        /* \"#utility.yul\":4228:4237   */\n      dup4\n        /* \"#utility.yul\":4224:4242   */\n      add\n        /* \"#utility.yul\":4215:4221   */\n      dup5\n        /* \"#utility.yul\":4171:4243   */\n      tag_140\n      jump\t// in\n    tag_218:\n        /* \"#utility.yul\":3820:4250   */\n      swap5\n      swap4\n      pop\n      pop\n      pop\n      pop\n      jump\t// out\n        /* \"#utility.yul\":4256:4425   */\n    tag_153:\n        /* \"#utility.yul\":4340:4351   */\n      0x00\n        /* \"#utility.yul\":4374:4380   */\n      dup3\n        /* \"#utility.yul\":4369:4372   */\n      dup3\n        /* \"#utility.yul\":4362:4381   */\n      mstore\n        /* \"#utility.yul\":4414:4418   */\n      0x20\n        /* \"#utility.yul\":4409:4412   */\n      dup3\n        /* \"#utility.yul\":4405:4419   */\n      add\n        /* \"#utility.yul\":4390:4419   */\n      swap1\n      pop\n        /* \"#utility.yul\":4256:4425   */\n      swap3\n      swap2\n      pop\n      pop\n      jump\t// out\n        /* \"#utility.yul\":4431:4665   */\n    tag_154:\n        /* \"#utility.yul\":4571:4605   */\n      0x4572726f72203a204f6e6c792076616c696420766f7465722063616e2063616c\n        /* \"#utility.yul\":4567:4568   */\n      0x00\n        /* \"#utility.yul\":4559:4565   */\n      dup3\n        /* \"#utility.yul\":4555:4569   */\n      add\n        /* \"#utility.yul\":4548:4606   */\n      mstore\n        /* \"#utility.yul\":4640:4657   */\n      0x6c20746869732066756e6374696f6e0000000000000000000000000000000000\n        /* \"#utility.yul\":4635:4637   */\n      0x20\n        /* \"#utility.yul\":4627:4633   */\n      dup3\n        /* \"#utility.yul\":4623:4638   */\n      add\n        /* \"#utility.yul\":4616:4658   */\n      mstore\n        /* \"#utility.yul\":4431:4665   */\n      pop\n      jump\t// out\n        /* \"#utility.yul\":4671:5037   */\n    tag_155:\n        /* \"#utility.yul\":4813:4816   */\n      0x00\n        /* \"#utility.yul\":4834:4901   */\n      tag_222\n        /* \"#utility.yul\":4898:4900   */\n      0x2f\n        /* \"#utility.yul\":4893:4896   */\n      dup4\n        /* \"#utility.yul\":4834:4901   */\n      tag_153\n      jump\t// in\n    tag_222:\n        /* \"#utility.yul\":4827:4901   */\n      swap2\n      pop\n        /* \"#utility.yul\":4910:5003   */\n      tag_223\n        /* \"#utility.yul\":4999:5002   */\n      dup3\n        /* \"#utility.yul\":4910:5003   */\n      tag_154\n      jump\t// in\n    tag_223:\n        /* \"#utility.yul\":5028:5030   */\n      0x40\n        /* \"#utility.yul\":5023:5026   */\n      dup3\n        /* \"#utility.yul\":5019:5031   */\n      add\n        /* \"#utility.yul\":5012:5031   */\n      swap1\n      pop\n        /* \"#utility.yul\":4671:5037   */\n      swap2\n      swap1\n      pop\n      jump\t// out\n        /* \"#utility.yul\":5043:5462   */\n    tag_42:\n        /* \"#utility.yul\":5209:5213   */\n      0x00\n        /* \"#utility.yul\":5247:5249   */\n      0x20\n        /* \"#utility.yul\":5236:5245   */\n      dup3\n        /* \"#utility.yul\":5232:5250   */\n      add\n        /* \"#utility.yul\":5224:5250   */\n      swap1\n      pop\n        /* \"#utility.yul\":5296:5305   */\n      dup2\n        /* \"#utility.yul\":5290:5294   */\n      dup2\n        /* \"#utility.yul\":5286:5306   */\n      sub\n        /* \"#utility.yul\":5282:5283   */\n      0x00\n        /* \"#utility.yul\":5271:5280   */\n      dup4\n        /* \"#utility.yul\":5267:5284   */\n      add\n        /* \"#utility.yul\":5260:5307   */\n      mstore\n        /* \"#utility.yul\":5324:5455   */\n      tag_225\n        /* \"#utility.yul\":5450:5454   */\n      dup2\n        /* \"#utility.yul\":5324:5455   */\n      tag_155\n      jump\t// in\n    tag_225:\n        /* \"#utility.yul\":5316:5455   */\n      swap1\n      pop\n        /* \"#utility.yul\":5043:5462   */\n      swap2\n      swap1\n      pop\n      jump\t// out\n        /* \"#utility.yul\":5468:5695   */\n    tag_156:\n        /* \"#utility.yul\":5608:5642   */\n      0x4572726f72203a20496e76616c69642050686173652e20436861636b20506861\n        /* \"#utility.yul\":5604:5605   */\n      0x00\n        /* \"#utility.yul\":5596:5602   */\n      dup3\n        /* \"#utility.yul\":5592:5606   */\n      add\n        /* \"#utility.yul\":5585:5643   */\n      mstore\n        /* \"#utility.yul\":5677:5687   */\n      0x736520616761696e000000000000000000000000000000000000000000000000\n        /* \"#utility.yul\":5672:5674   */\n      0x20\n        /* \"#utility.yul\":5664:5670   */\n      dup3\n        /* \"#utility.yul\":5660:5675   */\n      add\n        /* \"#utility.yul\":5653:5688   */\n      mstore\n        /* \"#utility.yul\":5468:5695   */\n      pop\n      jump\t// out\n        /* \"#utility.yul\":5701:6067   */\n    tag_157:\n        /* \"#utility.yul\":5843:5846   */\n      0x00\n        /* \"#utility.yul\":5864:5931   */\n      tag_228\n        /* \"#utility.yul\":5928:5930   */\n      0x28\n        /* \"#utility.yul\":5923:5926   */\n      dup4\n        /* \"#utility.yul\":5864:5931   */\n      tag_153\n      jump\t// in\n    tag_228:\n        /* \"#utility.yul\":5857:5931   */\n      swap2\n      pop\n        /* \"#utility.yul\":5940:6033   */\n      tag_229\n        /* \"#utility.yul\":6029:6032   */\n      dup3\n        /* \"#utility.yul\":5940:6033   */\n      tag_156\n      jump\t// in\n    tag_229:\n        /* \"#utility.yul\":6058:6060   */\n      0x40\n        /* \"#utility.yul\":6053:6056   */\n      dup3\n        /* \"#utility.yul\":6049:6061   */\n      add\n        /* \"#utility.yul\":6042:6061   */\n      swap1\n      pop\n        /* \"#utility.yul\":5701:6067   */\n      swap2\n      swap1\n      pop\n      jump\t// out\n        /* \"#utility.yul\":6073:6492   */\n    tag_51:\n        /* \"#utility.yul\":6239:6243   */\n      0x00\n        /* \"#utility.yul\":6277:6279   */\n      0x20\n        /* \"#utility.yul\":6266:6275   */\n      dup3\n        /* \"#utility.yul\":6262:6280   */\n      add\n        /* \"#utility.yul\":6254:6280   */\n      swap1\n      pop\n        /* \"#utility.yul\":6326:6335   */\n      dup2\n        /* \"#utility.yul\":6320:6324   */\n      dup2\n        /* \"#utility.yul\":6316:6336   */\n      sub\n        /* \"#utility.yul\":6312:6313   */\n      0x00\n        /* \"#utility.yul\":6301:6310   */\n      dup4\n        /* \"#utility.yul\":6297:6314   */\n      add\n        /* \"#utility.yul\":6290:6337   */\n      mstore\n        /* \"#utility.yul\":6354:6485   */\n      tag_231\n        /* \"#utility.yul\":6480:6484   */\n      dup2\n        /* \"#utility.yul\":6354:6485   */\n      tag_157\n      jump\t// in\n    tag_231:\n        /* \"#utility.yul\":6346:6485   */\n      swap1\n      pop\n        /* \"#utility.yul\":6073:6492   */\n      swap2\n      swap1\n      pop\n      jump\t// out\n        /* \"#utility.yul\":6498:6669   */\n    tag_158:\n        /* \"#utility.yul\":6638:6661   */\n      0x4572726f72203a20696e76616c696420766f7465730000000000000000000000\n        /* \"#utility.yul\":6634:6635   */\n      0x00\n        /* \"#utility.yul\":6626:6632   */\n      dup3\n        /* \"#utility.yul\":6622:6636   */\n      add\n        /* \"#utility.yul\":6615:6662   */\n      mstore\n        /* \"#utility.yul\":6498:6669   */\n      pop\n      jump\t// out\n        /* \"#utility.yul\":6675:7041   */\n    tag_159:\n        /* \"#utility.yul\":6817:6820   */\n      0x00\n        /* \"#utility.yul\":6838:6905   */\n      tag_234\n        /* \"#utility.yul\":6902:6904   */\n      0x15\n        /* \"#utility.yul\":6897:6900   */\n      dup4\n        /* \"#utility.yul\":6838:6905   */\n      tag_153\n      jump\t// in\n    tag_234:\n        /* \"#utility.yul\":6831:6905   */\n      swap2\n      pop\n        /* \"#utility.yul\":6914:7007   */\n      tag_235\n        /* \"#utility.yul\":7003:7006   */\n      dup3\n        /* \"#utility.yul\":6914:7007   */\n      tag_158\n      jump\t// in\n    tag_235:\n        /* \"#utility.yul\":7032:7034   */\n      0x20\n        /* \"#utility.yul\":7027:7030   */\n      dup3\n        /* \"#utility.yul\":7023:7035   */\n      add\n        /* \"#utility.yul\":7016:7035   */\n      swap1\n      pop\n        /* \"#utility.yul\":6675:7041   */\n      swap2\n      swap1\n      pop\n      jump\t// out\n        /* \"#utility.yul\":7047:7466   */\n    tag_55:\n        /* \"#utility.yul\":7213:7217   */\n      0x00\n        /* \"#utility.yul\":7251:7253   */\n      0x20\n        /* \"#utility.yul\":7240:7249   */\n      dup3\n        /* \"#utility.yul\":7236:7254   */\n      add\n        /* \"#utility.yul\":7228:7254   */\n      swap1\n      pop\n        /* \"#utility.yul\":7300:7309   */\n      dup2\n        /* \"#utility.yul\":7294:7298   */\n      dup2\n        /* \"#utility.yul\":7290:7310   */\n      sub\n        /* \"#utility.yul\":7286:7287   */\n      0x00\n        /* \"#utility.yul\":7275:7284   */\n      dup4\n        /* \"#utility.yul\":7271:7288   */\n      add\n        /* \"#utility.yul\":7264:7311   */\n      mstore\n        /* \"#utility.yul\":7328:7459   */\n      tag_237\n        /* \"#utility.yul\":7454:7458   */\n      dup2\n        /* \"#utility.yul\":7328:7459   */\n      tag_159\n      jump\t// in\n    tag_237:\n        /* \"#utility.yul\":7320:7459   */\n      swap1\n      pop\n        /* \"#utility.yul\":7047:7466   */\n      swap2\n      swap1\n      pop\n      jump\t// out\n        /* \"#utility.yul\":7472:7694   */\n    tag_160:\n        /* \"#utility.yul\":7612:7646   */\n      0x4572726f72203a20596f752068617665206265656e20616c726561647920766f\n        /* \"#utility.yul\":7608:7609   */\n      0x00\n        /* \"#utility.yul\":7600:7606   */\n      dup3\n        /* \"#utility.yul\":7596:7610   */\n      add\n        /* \"#utility.yul\":7589:7647   */\n      mstore\n        /* \"#utility.yul\":7681:7686   */\n      0x7465640000000000000000000000000000000000000000000000000000000000\n        /* \"#utility.yul\":7676:7678   */\n      0x20\n        /* \"#utility.yul\":7668:7674   */\n      dup3\n        /* \"#utility.yul\":7664:7679   */\n      add\n        /* \"#utility.yul\":7657:7687   */\n      mstore\n        /* \"#utility.yul\":7472:7694   */\n      pop\n      jump\t// out\n        /* \"#utility.yul\":7700:8066   */\n    tag_161:\n        /* \"#utility.yul\":7842:7845   */\n      0x00\n        /* \"#utility.yul\":7863:7930   */\n      tag_240\n        /* \"#utility.yul\":7927:7929   */\n      0x23\n        /* \"#utility.yul\":7922:7925   */\n      dup4\n        /* \"#utility.yul\":7863:7930   */\n      tag_153\n      jump\t// in\n    tag_240:\n        /* \"#utility.yul\":7856:7930   */\n      swap2\n      pop\n        /* \"#utility.yul\":7939:8032   */\n      tag_241\n        /* \"#utility.yul\":8028:8031   */\n      dup3\n        /* \"#utility.yul\":7939:8032   */\n      tag_160\n      jump\t// in\n    tag_241:\n        /* \"#utility.yul\":8057:8059   */\n      0x40\n        /* \"#utility.yul\":8052:8055   */\n      dup3\n        /* \"#utility.yul\":8048:8060   */\n      add\n        /* \"#utility.yul\":8041:8060   */\n      swap1\n      pop\n        /* \"#utility.yul\":7700:8066   */\n      swap2\n      swap1\n      pop\n      jump\t// out\n        /* \"#utility.yul\":8072:8491   */\n    tag_58:\n        /* \"#utility.yul\":8238:8242   */\n      0x00\n        /* \"#utility.yul\":8276:8278   */\n      0x20\n        /* \"#utility.yul\":8265:8274   */\n      dup3\n        /* \"#utility.yul\":8261:8279   */\n      add\n        /* \"#utility.yul\":8253:8279   */\n      swap1\n      pop\n        /* \"#utility.yul\":8325:8334   */\n      dup2\n        /* \"#utility.yul\":8319:8323   */\n      dup2\n        /* \"#utility.yul\":8315:8335   */\n      sub\n        /* \"#utility.yul\":8311:8312   */\n      0x00\n        /* \"#utility.yul\":8300:8309   */\n      dup4\n        /* \"#utility.yul\":8296:8313   */\n      add\n        /* \"#utility.yul\":8289:8336   */\n      mstore\n        /* \"#utility.yul\":8353:8484   */\n      tag_243\n        /* \"#utility.yul\":8479:8483   */\n      dup2\n        /* \"#utility.yul\":8353:8484   */\n      tag_161\n      jump\t// in\n    tag_243:\n        /* \"#utility.yul\":8345:8484   */\n      swap1\n      pop\n        /* \"#utility.yul\":8072:8491   */\n      swap2\n      swap1\n      pop\n      jump\t// out\n        /* \"#utility.yul\":8497:8677   */\n    tag_61:\n        /* \"#utility.yul\":8545:8622   */\n      0x4e487b7100000000000000000000000000000000000000000000000000000000\n        /* \"#utility.yul\":8542:8543   */\n      0x00\n        /* \"#utility.yul\":8535:8623   */\n      mstore\n        /* \"#utility.yul\":8642:8646   */\n      0x32\n        /* \"#utility.yul\":8639:8640   */\n      0x04\n        /* \"#utility.yul\":8632:8647   */\n      mstore\n        /* \"#utility.yul\":8666:8670   */\n      0x24\n        /* \"#utility.yul\":8663:8664   */\n      0x00\n        /* \"#utility.yul\":8656:8671   */\n      revert\n        /* \"#utility.yul\":8683:8863   */\n    tag_162:\n        /* \"#utility.yul\":8731:8808   */\n      0x4e487b7100000000000000000000000000000000000000000000000000000000\n        /* \"#utility.yul\":8728:8729   */\n      0x00\n        /* \"#utility.yul\":8721:8809   */\n      mstore\n        /* \"#utility.yul\":8828:8832   */\n      0x11\n        /* \"#utility.yul\":8825:8826   */\n      0x04\n        /* \"#utility.yul\":8818:8833   */\n      mstore\n        /* \"#utility.yul\":8852:8856   */\n      0x24\n        /* \"#utility.yul\":8849:8850   */\n      0x00\n        /* \"#utility.yul\":8842:8857   */\n      revert\n        /* \"#utility.yul\":8869:9060   */\n    tag_64:\n        /* \"#utility.yul\":8909:8912   */\n      0x00\n        /* \"#utility.yul\":8928:8948   */\n      tag_247\n        /* \"#utility.yul\":8946:8947   */\n      dup3\n        /* \"#utility.yul\":8928:8948   */\n      tag_137\n      jump\t// in\n    tag_247:\n        /* \"#utility.yul\":8923:8948   */\n      swap2\n      pop\n        /* \"#utility.yul\":8962:8982   */\n      tag_248\n        /* \"#utility.yul\":8980:8981   */\n      dup4\n        /* \"#utility.yul\":8962:8982   */\n      tag_137\n      jump\t// in\n    tag_248:\n        /* \"#utility.yul\":8957:8982   */\n      swap3\n      pop\n        /* \"#utility.yul\":9005:9006   */\n      dup3\n        /* \"#utility.yul\":9002:9003   */\n      dup3\n        /* \"#utility.yul\":8998:9007   */\n      add\n        /* \"#utility.yul\":8991:9007   */\n      swap1\n      pop\n        /* \"#utility.yul\":9026:9029   */\n      dup1\n        /* \"#utility.yul\":9023:9024   */\n      dup3\n        /* \"#utility.yul\":9020:9030   */\n      gt\n        /* \"#utility.yul\":9017:9053   */\n      iszero\n      tag_249\n      jumpi\n        /* \"#utility.yul\":9033:9051   */\n      tag_250\n      tag_162\n      jump\t// in\n    tag_250:\n        /* \"#utility.yul\":9017:9053   */\n    tag_249:\n        /* \"#utility.yul\":8869:9060   */\n      swap3\n      swap2\n      pop\n      pop\n      jump\t// out\n        /* \"#utility.yul\":9066:9301   */\n    tag_163:\n        /* \"#utility.yul\":9206:9240   */\n      0x4572726f72203a204f6e6c7920436861697220506572736f6e2063616e206361\n        /* \"#utility.yul\":9202:9203   */\n      0x00\n        /* \"#utility.yul\":9194:9200   */\n      dup3\n        /* \"#utility.yul\":9190:9204   */\n      add\n        /* \"#utility.yul\":9183:9241   */\n      mstore\n        /* \"#utility.yul\":9275:9293   */\n      0x6c6c20746869732066756e6374696f6e00000000000000000000000000000000\n        /* \"#utility.yul\":9270:9272   */\n      0x20\n        /* \"#utility.yul\":9262:9268   */\n      dup3\n        /* \"#utility.yul\":9258:9273   */\n      add\n        /* \"#utility.yul\":9251:9294   */\n      mstore\n        /* \"#utility.yul\":9066:9301   */\n      pop\n      jump\t// out\n        /* \"#utility.yul\":9307:9673   */\n    tag_164:\n        /* \"#utility.yul\":9449:9452   */\n      0x00\n        /* \"#utility.yul\":9470:9537   */\n      tag_253\n        /* \"#utility.yul\":9534:9536   */\n      0x30\n        /* \"#utility.yul\":9529:9532   */\n      dup4\n        /* \"#utility.yul\":9470:9537   */\n      tag_153\n      jump\t// in\n    tag_253:\n        /* \"#utility.yul\":9463:9537   */\n      swap2\n      pop\n        /* \"#utility.yul\":9546:9639   */\n      tag_254\n        /* \"#utility.yul\":9635:9638   */\n      dup3\n        /* \"#utility.yul\":9546:9639   */\n      tag_163\n      jump\t// in\n    tag_254:\n        /* \"#utility.yul\":9664:9666   */\n      0x40\n        /* \"#utility.yul\":9659:9662   */\n      dup3\n        /* \"#utility.yul\":9655:9667   */\n      add\n        /* \"#utility.yul\":9648:9667   */\n      swap1\n      pop\n        /* \"#utility.yul\":9307:9673   */\n      swap2\n      swap1\n      pop\n      jump\t// out\n        /* \"#utility.yul\":9679:10098   */\n    tag_70:\n        /* \"#utility.yul\":9845:9849   */\n      0x00\n        /* \"#utility.yul\":9883:9885   */\n      0x20\n        /* \"#utility.yul\":9872:9881   */\n      dup3\n        /* \"#utility.yul\":9868:9886   */\n      add\n        /* \"#utility.yul\":9860:9886   */\n      swap1\n      pop\n        /* \"#utility.yul\":9932:9941   */\n      dup2\n        /* \"#utility.yul\":9926:9930   */\n      dup2\n        /* \"#utility.yul\":9922:9942   */\n      sub\n        /* \"#utility.yul\":9918:9919   */\n      0x00\n        /* \"#utility.yul\":9907:9916   */\n      dup4\n        /* \"#utility.yul\":9903:9920   */\n      add\n        /* \"#utility.yul\":9896:9943   */\n      mstore\n        /* \"#utility.yul\":9960:10091   */\n      tag_256\n        /* \"#utility.yul\":10086:10090   */\n      dup2\n        /* \"#utility.yul\":9960:10091   */\n      tag_164\n      jump\t// in\n    tag_256:\n        /* \"#utility.yul\":9952:10091   */\n      swap1\n      pop\n        /* \"#utility.yul\":9679:10098   */\n      swap2\n      swap1\n      pop\n      jump\t// out\n        /* \"#utility.yul\":10104:10271   */\n    tag_103:\n        /* \"#utility.yul\":10141:10144   */\n      0x00\n        /* \"#utility.yul\":10164:10186   */\n      tag_258\n        /* \"#utility.yul\":10180:10185   */\n      dup3\n        /* \"#utility.yul\":10164:10186   */\n      tag_149\n      jump\t// in\n    tag_258:\n        /* \"#utility.yul\":10155:10186   */\n      swap2\n      pop\n        /* \"#utility.yul\":10208:10212   */\n      0xff\n        /* \"#utility.yul\":10201:10206   */\n      dup3\n        /* \"#utility.yul\":10198:10213   */\n      sub\n        /* \"#utility.yul\":10195:10236   */\n      tag_259\n      jumpi\n        /* \"#utility.yul\":10216:10234   */\n      tag_260\n      tag_162\n      jump\t// in\n    tag_260:\n        /* \"#utility.yul\":10195:10236   */\n    tag_259:\n        /* \"#utility.yul\":10263:10264   */\n      0x01\n        /* \"#utility.yul\":10256:10261   */\n      dup3\n        /* \"#utility.yul\":10252:10265   */\n      add\n        /* \"#utility.yul\":10245:10265   */\n      swap1\n      pop\n        /* \"#utility.yul\":10104:10271   */\n      swap2\n      swap1\n      pop\n      jump\t// out\n\n    auxdata: 0xa26469706673582212200f54bf8b402c52f37109bc340c121ee808fab109e8946565578ffc064d0df40b64736f6c63430008120033\n}\n",
				"bytecode": {
					"linkReferences": {},
					"object": "60806040526000600360006101000a81548160ff021916908360038111156200002d576200002c62000115565b5b02179055503480156200003f57600080fd5b506040516200130838038062001308833981810160405281019062000065919062000184565b336000806101000a81548173ffffffffffffffffffffffffffffffffffffffff021916908373ffffffffffffffffffffffffffffffffffffffff16021790555060005b818160ff1610156200010d576002604051806020016040528060008152509080600181540180825580915050600190039060005260206000200160009091909190915060008201518160000155505080806200010490620001f2565b915050620000a8565b505062000220565b7f4e487b7100000000000000000000000000000000000000000000000000000000600052602160045260246000fd5b600080fd5b6000819050919050565b6200015e8162000149565b81146200016a57600080fd5b50565b6000815190506200017e8162000153565b92915050565b6000602082840312156200019d576200019c62000144565b5b6000620001ad848285016200016d565b91505092915050565b7f4e487b7100000000000000000000000000000000000000000000000000000000600052601160045260246000fd5b600060ff82169050919050565b6000620001ff82620001e5565b915060ff8203620002155762000214620001b6565b5b600182019050919050565b6110d880620002306000396000f3fe608060405234801561001057600080fd5b506004361061007d5760003560e01c80634420e4861161005b5780634420e486146100ec578063508b30c914610108578063a3ec138d14610126578063be25a718146101585761007d565b80630121b93f14610082578063013cf08b1461009e578063055ad42e146100ce575b600080fd5b61009c60048036038101906100979190610b25565b610162565b005b6100b860048036038101906100b39190610b25565b61045a565b6040516100c59190610b61565b60405180910390f35b6100d6610484565b6040516100e39190610bf3565b60405180910390f35b61010660048036038101906101019190610c6c565b610497565b005b61011061072b565b60405161011d9190610cb5565b60405180910390f35b610140600480360381019061013b9190610c6c565b6108b5565b60405161014f93929190610ceb565b60405180910390f35b6101606108ec565b005b6000600160003373ffffffffffffffffffffffffffffffffffffffff1673ffffffffffffffffffffffffffffffffffffffff16815260200190815260200160002060000154116101e7576040517f08c379a00000000000000000000000000000000000000000000000000000000081526004016101de90610da5565b60405180910390fd5b60028060038111156101fc576101fb610b7c565b5b600360009054906101000a900460ff16600381111561021e5761021d610b7c565b5b1461025e576040517f08c379a000000000000000000000000000000000000000000000000000000000815260040161025590610e37565b60405180910390fd5b60028054905082106102a5576040517f08c379a000000000000000000000000000000000000000000000000000000000815260040161029c90610ea3565b60405180910390fd5b60001515600160003373ffffffffffffffffffffffffffffffffffffffff1673ffffffffffffffffffffffffffffffffffffffff16815260200190815260200160002060010160009054906101000a900460ff1615151461033b576040517f08c379a000000000000000000000000000000000000000000000000000000000815260040161033290610f35565b60405180910390fd5b600160003373ffffffffffffffffffffffffffffffffffffffff1673ffffffffffffffffffffffffffffffffffffffff168152602001908152602001600020600001546002838154811061039257610391610f55565b5b9060005260206000200160000160008282546103ae9190610fb3565b9250508190555060018060003373ffffffffffffffffffffffffffffffffffffffff1673ffffffffffffffffffffffffffffffffffffffff16815260200190815260200160002060010160006101000a81548160ff02191690831515021790555081600160003373ffffffffffffffffffffffffffffffffffffffff1673ffffffffffffffffffffffffffffffffffffffff168152602001908152602001600020600201819055505050565b6002818154811061046a57600080fd5b906000526020600020016000915090508060000154905081565b600360009054906101000a900460ff1681565b60008054906101000a900473ffffffffffffffffffffffffffffffffffffffff1673ffffffffffffffffffffffffffffffffffffffff163373ffffffffffffffffffffffffffffffffffffffff1614610525576040517f08c379a000000000000000000000000000000000000000000000000000000000815260040161051c90611059565b60405180910390fd5b600180600381111561053a57610539610b7c565b5b600360009054906101000a900460ff16600381111561055c5761055b610b7c565b5b1461059c576040517f08c379a000000000000000000000000000000000000000000000000000000000815260040161059390610e37565b60405180910390fd5b60008054906101000a900473ffffffffffffffffffffffffffffffffffffffff1673ffffffffffffffffffffffffffffffffffffffff168273ffffffffffffffffffffffffffffffffffffffff160361063c576002600160008473ffffffffffffffffffffffffffffffffffffffff1673ffffffffffffffffffffffffffffffffffffffff16815260200190815260200160002060000181905550610684565b60018060008473ffffffffffffffffffffffffffffffffffffffff1673ffffffffffffffffffffffffffffffffffffffff168152602001908152602001600020600001819055505b6000600160008473ffffffffffffffffffffffffffffffffffffffff1673ffffffffffffffffffffffffffffffffffffffff16815260200190815260200160002060010160006101000a81548160ff0219169083151502179055506000600160008473ffffffffffffffffffffffffffffffffffffffff1673ffffffffffffffffffffffffffffffffffffffff168152602001908152602001600020600201819055505050565b6000600380600381111561074257610741610b7c565b5b600360009054906101000a900460ff16600381111561076457610763610b7c565b5b146107a4576040517f08c379a000000000000000000000000000000000000000000000000000000000815260040161079b90610e37565b60405180910390fd5b60008054906101000a900473ffffffffffffffffffffffffffffffffffffffff1673ffffffffffffffffffffffffffffffffffffffff163373ffffffffffffffffffffffffffffffffffffffff1614610832576040517f08c379a000000000000000000000000000000000000000000000000000000000815260040161082990611059565b60405180910390fd5b6000915060005b6002805490508160ff1610156108b05760028360ff16815481106108605761085f610f55565b5b906000526020600020016000015460028260ff168154811061088557610884610f55565b5b9060005260206000200160000154111561089d578092505b80806108a890611079565b915050610839565b505090565b60016020528060005260406000206000915090508060000154908060010160009054906101000a900460ff16908060020154905083565b60008054906101000a900473ffffffffffffffffffffffffffffffffffffffff1673ffffffffffffffffffffffffffffffffffffffff163373ffffffffffffffffffffffffffffffffffffffff161461097a576040517f08c379a000000000000000000000000000000000000000000000000000000000815260040161097190611059565b60405180910390fd5b6000600381111561098e5761098d610b7c565b5b600360009054906101000a900460ff1660038111156109b0576109af610b7c565b5b036109e5576001600360006101000a81548160ff021916908360038111156109db576109da610b7c565b5b0217905550610ae8565b600160038111156109f9576109f8610b7c565b5b600360009054906101000a900460ff166003811115610a1b57610a1a610b7c565b5b03610a50576002600360006101000a81548160ff02191690836003811115610a4657610a45610b7c565b5b0217905550610ae7565b60026003811115610a6457610a63610b7c565b5b600360009054906101000a900460ff166003811115610a8657610a85610b7c565b5b03610aba5760038060006101000a81548160ff02191690836003811115610ab057610aaf610b7c565b5b0217905550610ae6565b6000600360006101000a81548160ff02191690836003811115610ae057610adf610b7c565b5b02179055505b5b5b565b600080fd5b6000819050919050565b610b0281610aef565b8114610b0d57600080fd5b50565b600081359050610b1f81610af9565b92915050565b600060208284031215610b3b57610b3a610aea565b5b6000610b4984828501610b10565b91505092915050565b610b5b81610aef565b82525050565b6000602082019050610b766000830184610b52565b92915050565b7f4e487b7100000000000000000000000000000000000000000000000000000000600052602160045260246000fd5b60048110610bbc57610bbb610b7c565b5b50565b6000819050610bcd82610bab565b919050565b6000610bdd82610bbf565b9050919050565b610bed81610bd2565b82525050565b6000602082019050610c086000830184610be4565b92915050565b600073ffffffffffffffffffffffffffffffffffffffff82169050919050565b6000610c3982610c0e565b9050919050565b610c4981610c2e565b8114610c5457600080fd5b50565b600081359050610c6681610c40565b92915050565b600060208284031215610c8257610c81610aea565b5b6000610c9084828501610c57565b91505092915050565b600060ff82169050919050565b610caf81610c99565b82525050565b6000602082019050610cca6000830184610ca6565b92915050565b60008115159050919050565b610ce581610cd0565b82525050565b6000606082019050610d006000830186610b52565b610d0d6020830185610cdc565b610d1a6040830184610b52565b949350505050565b600082825260208201905092915050565b7f4572726f72203a204f6e6c792076616c696420766f7465722063616e2063616c60008201527f6c20746869732066756e6374696f6e0000000000000000000000000000000000602082015250565b6000610d8f602f83610d22565b9150610d9a82610d33565b604082019050919050565b60006020820190508181036000830152610dbe81610d82565b9050919050565b7f4572726f72203a20496e76616c69642050686173652e20436861636b2050686160008201527f736520616761696e000000000000000000000000000000000000000000000000602082015250565b6000610e21602883610d22565b9150610e2c82610dc5565b604082019050919050565b60006020820190508181036000830152610e5081610e14565b9050919050565b7f4572726f72203a20696e76616c696420766f7465730000000000000000000000600082015250565b6000610e8d601583610d22565b9150610e9882610e57565b602082019050919050565b60006020820190508181036000830152610ebc81610e80565b9050919050565b7f4572726f72203a20596f752068617665206265656e20616c726561647920766f60008201527f7465640000000000000000000000000000000000000000000000000000000000602082015250565b6000610f1f602383610d22565b9150610f2a82610ec3565b604082019050919050565b60006020820190508181036000830152610f4e81610f12565b9050919050565b7f4e487b7100000000000000000000000000000000000000000000000000000000600052603260045260246000fd5b7f4e487b7100000000000000000000000000000000000000000000000000000000600052601160045260246000fd5b6000610fbe82610aef565b9150610fc983610aef565b9250828201905080821115610fe157610fe0610f84565b5b92915050565b7f4572726f72203a204f6e6c7920436861697220506572736f6e2063616e20636160008201527f6c6c20746869732066756e6374696f6e00000000000000000000000000000000602082015250565b6000611043603083610d22565b915061104e82610fe7565b604082019050919050565b6000602082019050818103600083015261107281611036565b9050919050565b600061108482610c99565b915060ff820361109757611096610f84565b5b60018201905091905056fea26469706673582212200f54bf8b402c52f37109bc340c121ee808fab109e8946565578ffc064d0df40b64736f6c63430008120033",
					"opcodes": "PUSH1 0x80 PUSH1 0x40 MSTORE PUSH1 0x0 PUSH1 0x3 PUSH1 0x0 PUSH2 0x100 EXP DUP2 SLOAD DUP2 PUSH1 0xFF MUL NOT AND SWAP1 DUP4 PUSH1 0x3 DUP2 GT ISZERO PUSH3 0x2D JUMPI PUSH3 0x2C PUSH3 0x115 JUMP JUMPDEST JUMPDEST MUL OR SWAP1 SSTORE POP CALLVALUE DUP1 ISZERO PUSH3 0x3F JUMPI PUSH1 0x0 DUP1 REVERT JUMPDEST POP PUSH1 0x40 MLOAD PUSH3 0x1308 CODESIZE SUB DUP1 PUSH3 0x1308 DUP4 CODECOPY DUP2 DUP2 ADD PUSH1 0x40 MSTORE DUP2 ADD SWAP1 PUSH3 0x65 SWAP2 SWAP1 PUSH3 0x184 JUMP JUMPDEST CALLER PUSH1 0x0 DUP1 PUSH2 0x100 EXP DUP2 SLOAD DUP2 PUSH20 0xFFFFFFFFFFFFFFFFFFFFFFFFFFFFFFFFFFFFFFFF MUL NOT AND SWAP1 DUP4 PUSH20 0xFFFFFFFFFFFFFFFFFFFFFFFFFFFFFFFFFFFFFFFF AND MUL OR SWAP1 SSTORE POP PUSH1 0x0 JUMPDEST DUP2 DUP2 PUSH1 0xFF AND LT ISZERO PUSH3 0x10D JUMPI PUSH1 0x2 PUSH1 0x40 MLOAD DUP1 PUSH1 0x20 ADD PUSH1 0x40 MSTORE DUP1 PUSH1 0x0 DUP2 MSTORE POP SWAP1 DUP1 PUSH1 0x1 DUP2 SLOAD ADD DUP1 DUP3 SSTORE DUP1 SWAP2 POP POP PUSH1 0x1 SWAP1 SUB SWAP1 PUSH1 0x0 MSTORE PUSH1 0x20 PUSH1 0x0 KECCAK256 ADD PUSH1 0x0 SWAP1 SWAP2 SWAP1 SWAP2 SWAP1 SWAP2 POP PUSH1 0x0 DUP3 ADD MLOAD DUP2 PUSH1 0x0 ADD SSTORE POP POP DUP1 DUP1 PUSH3 0x104 SWAP1 PUSH3 0x1F2 JUMP JUMPDEST SWAP2 POP POP PUSH3 0xA8 JUMP JUMPDEST POP POP PUSH3 0x220 JUMP JUMPDEST PUSH32 0x4E487B7100000000000000000000000000000000000000000000000000000000 PUSH1 0x0 MSTORE PUSH1 0x21 PUSH1 0x4 MSTORE PUSH1 0x24 PUSH1 0x0 REVERT JUMPDEST PUSH1 0x0 DUP1 REVERT JUMPDEST PUSH1 0x0 DUP2 SWAP1 POP SWAP2 SWAP1 POP JUMP JUMPDEST PUSH3 0x15E DUP2 PUSH3 0x149 JUMP JUMPDEST DUP2 EQ PUSH3 0x16A JUMPI PUSH1 0x0 DUP1 REVERT JUMPDEST POP JUMP JUMPDEST PUSH1 0x0 DUP2 MLOAD SWAP1 POP PUSH3 0x17E DUP2 PUSH3 0x153 JUMP JUMPDEST SWAP3 SWAP2 POP POP JUMP JUMPDEST PUSH1 0x0 PUSH1 0x20 DUP3 DUP5 SUB SLT ISZERO PUSH3 0x19D JUMPI PUSH3 0x19C PUSH3 0x144 JUMP JUMPDEST JUMPDEST PUSH1 0x0 PUSH3 0x1AD DUP5 DUP3 DUP6 ADD PUSH3 0x16D JUMP JUMPDEST SWAP2 POP POP SWAP3 SWAP2 POP POP JUMP JUMPDEST PUSH32 0x4E487B7100000000000000000000000000000000000000000000000000000000 PUSH1 0x0 MSTORE PUSH1 0x11 PUSH1 0x4 MSTORE PUSH1 0x24 PUSH1 0x0 REVERT JUMPDEST PUSH1 0x0 PUSH1 0xFF DUP3 AND SWAP1 POP SWAP2 SWAP1 POP JUMP JUMPDEST PUSH1 0x0 PUSH3 0x1FF DUP3 PUSH3 0x1E5 JUMP JUMPDEST SWAP2 POP PUSH1 0xFF DUP3 SUB PUSH3 0x215 JUMPI PUSH3 0x214 PUSH3 0x1B6 JUMP JUMPDEST JUMPDEST PUSH1 0x1 DUP3 ADD SWAP1 POP SWAP2 SWAP1 POP JUMP JUMPDEST PUSH2 0x10D8 DUP1 PUSH3 0x230 PUSH1 0x0 CODECOPY PUSH1 0x0 RETURN INVALID PUSH1 0x80 PUSH1 0x40 MSTORE CALLVALUE DUP1 ISZERO PUSH2 0x10 JUMPI PUSH1 0x0 DUP1 REVERT JUMPDEST POP PUSH1 0x4 CALLDATASIZE LT PUSH2 0x7D JUMPI PUSH1 0x0 CALLDATALOAD PUSH1 0xE0 SHR DUP1 PUSH4 0x4420E486 GT PUSH2 0x5B JUMPI DUP1 PUSH4 0x4420E486 EQ PUSH2 0xEC JUMPI DUP1 PUSH4 0x508B30C9 EQ PUSH2 0x108 JUMPI DUP1 PUSH4 0xA3EC138D EQ PUSH2 0x126 JUMPI DUP1 PUSH4 0xBE25A718 EQ PUSH2 0x158 JUMPI PUSH2 0x7D JUMP JUMPDEST DUP1 PUSH4 0x121B93F EQ PUSH2 0x82 JUMPI DUP1 PUSH4 0x13CF08B EQ PUSH2 0x9E JUMPI DUP1 PUSH4 0x55AD42E EQ PUSH2 0xCE JUMPI JUMPDEST PUSH1 0x0 DUP1 REVERT JUMPDEST PUSH2 0x9C PUSH1 0x4 DUP1 CALLDATASIZE SUB DUP2 ADD SWAP1 PUSH2 0x97 SWAP2 SWAP1 PUSH2 0xB25 JUMP JUMPDEST PUSH2 0x162 JUMP JUMPDEST STOP JUMPDEST PUSH2 0xB8 PUSH1 0x4 DUP1 CALLDATASIZE SUB DUP2 ADD SWAP1 PUSH2 0xB3 SWAP2 SWAP1 PUSH2 0xB25 JUMP JUMPDEST PUSH2 0x45A JUMP JUMPDEST PUSH1 0x40 MLOAD PUSH2 0xC5 SWAP2 SWAP1 PUSH2 0xB61 JUMP JUMPDEST PUSH1 0x40 MLOAD DUP1 SWAP2 SUB SWAP1 RETURN JUMPDEST PUSH2 0xD6 PUSH2 0x484 JUMP JUMPDEST PUSH1 0x40 MLOAD PUSH2 0xE3 SWAP2 SWAP1 PUSH2 0xBF3 JUMP JUMPDEST PUSH1 0x40 MLOAD DUP1 SWAP2 SUB SWAP1 RETURN JUMPDEST PUSH2 0x106 PUSH1 0x4 DUP1 CALLDATASIZE SUB DUP2 ADD SWAP1 PUSH2 0x101 SWAP2 SWAP1 PUSH2 0xC6C JUMP JUMPDEST PUSH2 0x497 JUMP JUMPDEST STOP JUMPDEST PUSH2 0x110 PUSH2 0x72B JUMP JUMPDEST PUSH1 0x40 MLOAD PUSH2 0x11D SWAP2 SWAP1 PUSH2 0xCB5 JUMP JUMPDEST PUSH1 0x40 MLOAD DUP1 SWAP2 SUB SWAP1 RETURN JUMPDEST PUSH2 0x140 PUSH1 0x4 DUP1 CALLDATASIZE SUB DUP2 ADD SWAP1 PUSH2 0x13B SWAP2 SWAP1 PUSH2 0xC6C JUMP JUMPDEST PUSH2 0x8B5 JUMP JUMPDEST PUSH1 0x40 MLOAD PUSH2 0x14F SWAP4 SWAP3 SWAP2 SWAP1 PUSH2 0xCEB JUMP JUMPDEST PUSH1 0x40 MLOAD DUP1 SWAP2 SUB SWAP1 RETURN JUMPDEST PUSH2 0x160 PUSH2 0x8EC JUMP JUMPDEST STOP JUMPDEST PUSH1 0x0 PUSH1 0x1 PUSH1 0x0 CALLER PUSH20 0xFFFFFFFFFFFFFFFFFFFFFFFFFFFFFFFFFFFFFFFF AND PUSH20 0xFFFFFFFFFFFFFFFFFFFFFFFFFFFFFFFFFFFFFFFF AND DUP2 MSTORE PUSH1 0x20 ADD SWAP1 DUP2 MSTORE PUSH1 0x20 ADD PUSH1 0x0 KECCAK256 PUSH1 0x0 ADD SLOAD GT PUSH2 0x1E7 JUMPI PUSH1 0x40 MLOAD PUSH32 0x8C379A000000000000000000000000000000000000000000000000000000000 DUP2 MSTORE PUSH1 0x4 ADD PUSH2 0x1DE SWAP1 PUSH2 0xDA5 JUMP JUMPDEST PUSH1 0x40 MLOAD DUP1 SWAP2 SUB SWAP1 REVERT JUMPDEST PUSH1 0x2 DUP1 PUSH1 0x3 DUP2 GT ISZERO PUSH2 0x1FC JUMPI PUSH2 0x1FB PUSH2 0xB7C JUMP JUMPDEST JUMPDEST PUSH1 0x3 PUSH1 0x0 SWAP1 SLOAD SWAP1 PUSH2 0x100 EXP SWAP1 DIV PUSH1 0xFF AND PUSH1 0x3 DUP2 GT ISZERO PUSH2 0x21E JUMPI PUSH2 0x21D PUSH2 0xB7C JUMP JUMPDEST JUMPDEST EQ PUSH2 0x25E JUMPI PUSH1 0x40 MLOAD PUSH32 0x8C379A000000000000000000000000000000000000000000000000000000000 DUP2 MSTORE PUSH1 0x4 ADD PUSH2 0x255 SWAP1 PUSH2 0xE37 JUMP JUMPDEST PUSH1 0x40 MLOAD DUP1 SWAP2 SUB SWAP1 REVERT JUMPDEST PUSH1 0x2 DUP1 SLOAD SWAP1 POP DUP3 LT PUSH2 0x2A5 JUMPI PUSH1 0x40 MLOAD PUSH32 0x8C379A000000000000000000000000000000000000000000000000000000000 DUP2 MSTORE PUSH1 0x4 ADD PUSH2 0x29C SWAP1 PUSH2 0xEA3 JUMP JUMPDEST PUSH1 0x40 MLOAD DUP1 SWAP2 SUB SWAP1 REVERT JUMPDEST PUSH1 0x0 ISZERO ISZERO PUSH1 0x1 PUSH1 0x0 CALLER PUSH20 0xFFFFFFFFFFFFFFFFFFFFFFFFFFFFFFFFFFFFFFFF AND PUSH20 0xFFFFFFFFFFFFFFFFFFFFFFFFFFFFFFFFFFFFFFFF AND DUP2 MSTORE PUSH1 0x20 ADD SWAP1 DUP2 MSTORE PUSH1 0x20 ADD PUSH1 0x0 KECCAK256 PUSH1 0x1 ADD PUSH1 0x0 SWAP1 SLOAD SWAP1 PUSH2 0x100 EXP SWAP1 DIV PUSH1 0xFF AND ISZERO ISZERO EQ PUSH2 0x33B JUMPI PUSH1 0x40 MLOAD PUSH32 0x8C379A000000000000000000000000000000000000000000000000000000000 DUP2 MSTORE PUSH1 0x4 ADD PUSH2 0x332 SWAP1 PUSH2 0xF35 JUMP JUMPDEST PUSH1 0x40 MLOAD DUP1 SWAP2 SUB SWAP1 REVERT JUMPDEST PUSH1 0x1 PUSH1 0x0 CALLER PUSH20 0xFFFFFFFFFFFFFFFFFFFFFFFFFFFFFFFFFFFFFFFF AND PUSH20 0xFFFFFFFFFFFFFFFFFFFFFFFFFFFFFFFFFFFFFFFF AND DUP2 MSTORE PUSH1 0x20 ADD SWAP1 DUP2 MSTORE PUSH1 0x20 ADD PUSH1 0x0 KECCAK256 PUSH1 0x0 ADD SLOAD PUSH1 0x2 DUP4 DUP2 SLOAD DUP2 LT PUSH2 0x392 JUMPI PUSH2 0x391 PUSH2 0xF55 JUMP JUMPDEST JUMPDEST SWAP1 PUSH1 0x0 MSTORE PUSH1 0x20 PUSH1 0x0 KECCAK256 ADD PUSH1 0x0 ADD PUSH1 0x0 DUP3 DUP3 SLOAD PUSH2 0x3AE SWAP2 SWAP1 PUSH2 0xFB3 JUMP JUMPDEST SWAP3 POP POP DUP2 SWAP1 SSTORE POP PUSH1 0x1 DUP1 PUSH1 0x0 CALLER PUSH20 0xFFFFFFFFFFFFFFFFFFFFFFFFFFFFFFFFFFFFFFFF AND PUSH20 0xFFFFFFFFFFFFFFFFFFFFFFFFFFFFFFFFFFFFFFFF AND DUP2 MSTORE PUSH1 0x20 ADD SWAP1 DUP2 MSTORE PUSH1 0x20 ADD PUSH1 0x0 KECCAK256 PUSH1 0x1 ADD PUSH1 0x0 PUSH2 0x100 EXP DUP2 SLOAD DUP2 PUSH1 0xFF MUL NOT AND SWAP1 DUP4 ISZERO ISZERO MUL OR SWAP1 SSTORE POP DUP2 PUSH1 0x1 PUSH1 0x0 CALLER PUSH20 0xFFFFFFFFFFFFFFFFFFFFFFFFFFFFFFFFFFFFFFFF AND PUSH20 0xFFFFFFFFFFFFFFFFFFFFFFFFFFFFFFFFFFFFFFFF AND DUP2 MSTORE PUSH1 0x20 ADD SWAP1 DUP2 MSTORE PUSH1 0x20 ADD PUSH1 0x0 KECCAK256 PUSH1 0x2 ADD DUP2 SWAP1 SSTORE POP POP POP JUMP JUMPDEST PUSH1 0x2 DUP2 DUP2 SLOAD DUP2 LT PUSH2 0x46A JUMPI PUSH1 0x0 DUP1 REVERT JUMPDEST SWAP1 PUSH1 0x0 MSTORE PUSH1 0x20 PUSH1 0x0 KECCAK256 ADD PUSH1 0x0 SWAP2 POP SWAP1 POP DUP1 PUSH1 0x0 ADD SLOAD SWAP1 POP DUP2 JUMP JUMPDEST PUSH1 0x3 PUSH1 0x0 SWAP1 SLOAD SWAP1 PUSH2 0x100 EXP SWAP1 DIV PUSH1 0xFF AND DUP2 JUMP JUMPDEST PUSH1 0x0 DUP1 SLOAD SWAP1 PUSH2 0x100 EXP SWAP1 DIV PUSH20 0xFFFFFFFFFFFFFFFFFFFFFFFFFFFFFFFFFFFFFFFF AND PUSH20 0xFFFFFFFFFFFFFFFFFFFFFFFFFFFFFFFFFFFFFFFF AND CALLER PUSH20 0xFFFFFFFFFFFFFFFFFFFFFFFFFFFFFFFFFFFFFFFF AND EQ PUSH2 0x525 JUMPI PUSH1 0x40 MLOAD PUSH32 0x8C379A000000000000000000000000000000000000000000000000000000000 DUP2 MSTORE PUSH1 0x4 ADD PUSH2 0x51C SWAP1 PUSH2 0x1059 JUMP JUMPDEST PUSH1 0x40 MLOAD DUP1 SWAP2 SUB SWAP1 REVERT JUMPDEST PUSH1 0x1 DUP1 PUSH1 0x3 DUP2 GT ISZERO PUSH2 0x53A JUMPI PUSH2 0x539 PUSH2 0xB7C JUMP JUMPDEST JUMPDEST PUSH1 0x3 PUSH1 0x0 SWAP1 SLOAD SWAP1 PUSH2 0x100 EXP SWAP1 DIV PUSH1 0xFF AND PUSH1 0x3 DUP2 GT ISZERO PUSH2 0x55C JUMPI PUSH2 0x55B PUSH2 0xB7C JUMP JUMPDEST JUMPDEST EQ PUSH2 0x59C JUMPI PUSH1 0x40 MLOAD PUSH32 0x8C379A000000000000000000000000000000000000000000000000000000000 DUP2 MSTORE PUSH1 0x4 ADD PUSH2 0x593 SWAP1 PUSH2 0xE37 JUMP JUMPDEST PUSH1 0x40 MLOAD DUP1 SWAP2 SUB SWAP1 REVERT JUMPDEST PUSH1 0x0 DUP1 SLOAD SWAP1 PUSH2 0x100 EXP SWAP1 DIV PUSH20 0xFFFFFFFFFFFFFFFFFFFFFFFFFFFFFFFFFFFFFFFF AND PUSH20 0xFFFFFFFFFFFFFFFFFFFFFFFFFFFFFFFFFFFFFFFF AND DUP3 PUSH20 0xFFFFFFFFFFFFFFFFFFFFFFFFFFFFFFFFFFFFFFFF AND SUB PUSH2 0x63C JUMPI PUSH1 0x2 PUSH1 0x1 PUSH1 0x0 DUP5 PUSH20 0xFFFFFFFFFFFFFFFFFFFFFFFFFFFFFFFFFFFFFFFF AND PUSH20 0xFFFFFFFFFFFFFFFFFFFFFFFFFFFFFFFFFFFFFFFF AND DUP2 MSTORE PUSH1 0x20 ADD SWAP1 DUP2 MSTORE PUSH1 0x20 ADD PUSH1 0x0 KECCAK256 PUSH1 0x0 ADD DUP2 SWAP1 SSTORE POP PUSH2 0x684 JUMP JUMPDEST PUSH1 0x1 DUP1 PUSH1 0x0 DUP5 PUSH20 0xFFFFFFFFFFFFFFFFFFFFFFFFFFFFFFFFFFFFFFFF AND PUSH20 0xFFFFFFFFFFFFFFFFFFFFFFFFFFFFFFFFFFFFFFFF AND DUP2 MSTORE PUSH1 0x20 ADD SWAP1 DUP2 MSTORE PUSH1 0x20 ADD PUSH1 0x0 KECCAK256 PUSH1 0x0 ADD DUP2 SWAP1 SSTORE POP JUMPDEST PUSH1 0x0 PUSH1 0x1 PUSH1 0x0 DUP5 PUSH20 0xFFFFFFFFFFFFFFFFFFFFFFFFFFFFFFFFFFFFFFFF AND PUSH20 0xFFFFFFFFFFFFFFFFFFFFFFFFFFFFFFFFFFFFFFFF AND DUP2 MSTORE PUSH1 0x20 ADD SWAP1 DUP2 MSTORE PUSH1 0x20 ADD PUSH1 0x0 KECCAK256 PUSH1 0x1 ADD PUSH1 0x0 PUSH2 0x100 EXP DUP2 SLOAD DUP2 PUSH1 0xFF MUL NOT AND SWAP1 DUP4 ISZERO ISZERO MUL OR SWAP1 SSTORE POP PUSH1 0x0 PUSH1 0x1 PUSH1 0x0 DUP5 PUSH20 0xFFFFFFFFFFFFFFFFFFFFFFFFFFFFFFFFFFFFFFFF AND PUSH20 0xFFFFFFFFFFFFFFFFFFFFFFFFFFFFFFFFFFFFFFFF AND DUP2 MSTORE PUSH1 0x20 ADD SWAP1 DUP2 MSTORE PUSH1 0x20 ADD PUSH1 0x0 KECCAK256 PUSH1 0x2 ADD DUP2 SWAP1 SSTORE POP POP POP JUMP JUMPDEST PUSH1 0x0 PUSH1 0x3 DUP1 PUSH1 0x3 DUP2 GT ISZERO PUSH2 0x742 JUMPI PUSH2 0x741 PUSH2 0xB7C JUMP JUMPDEST JUMPDEST PUSH1 0x3 PUSH1 0x0 SWAP1 SLOAD SWAP1 PUSH2 0x100 EXP SWAP1 DIV PUSH1 0xFF AND PUSH1 0x3 DUP2 GT ISZERO PUSH2 0x764 JUMPI PUSH2 0x763 PUSH2 0xB7C JUMP JUMPDEST JUMPDEST EQ PUSH2 0x7A4 JUMPI PUSH1 0x40 MLOAD PUSH32 0x8C379A000000000000000000000000000000000000000000000000000000000 DUP2 MSTORE PUSH1 0x4 ADD PUSH2 0x79B SWAP1 PUSH2 0xE37 JUMP JUMPDEST PUSH1 0x40 MLOAD DUP1 SWAP2 SUB SWAP1 REVERT JUMPDEST PUSH1 0x0 DUP1 SLOAD SWAP1 PUSH2 0x100 EXP SWAP1 DIV PUSH20 0xFFFFFFFFFFFFFFFFFFFFFFFFFFFFFFFFFFFFFFFF AND PUSH20 0xFFFFFFFFFFFFFFFFFFFFFFFFFFFFFFFFFFFFFFFF AND CALLER PUSH20 0xFFFFFFFFFFFFFFFFFFFFFFFFFFFFFFFFFFFFFFFF AND EQ PUSH2 0x832 JUMPI PUSH1 0x40 MLOAD PUSH32 0x8C379A000000000000000000000000000000000000000000000000000000000 DUP2 MSTORE PUSH1 0x4 ADD PUSH2 0x829 SWAP1 PUSH2 0x1059 JUMP JUMPDEST PUSH1 0x40 MLOAD DUP1 SWAP2 SUB SWAP1 REVERT JUMPDEST PUSH1 0x0 SWAP2 POP PUSH1 0x0 JUMPDEST PUSH1 0x2 DUP1 SLOAD SWAP1 POP DUP2 PUSH1 0xFF AND LT ISZERO PUSH2 0x8B0 JUMPI PUSH1 0x2 DUP4 PUSH1 0xFF AND DUP2 SLOAD DUP2 LT PUSH2 0x860 JUMPI PUSH2 0x85F PUSH2 0xF55 JUMP JUMPDEST JUMPDEST SWAP1 PUSH1 0x0 MSTORE PUSH1 0x20 PUSH1 0x0 KECCAK256 ADD PUSH1 0x0 ADD SLOAD PUSH1 0x2 DUP3 PUSH1 0xFF AND DUP2 SLOAD DUP2 LT PUSH2 0x885 JUMPI PUSH2 0x884 PUSH2 0xF55 JUMP JUMPDEST JUMPDEST SWAP1 PUSH1 0x0 MSTORE PUSH1 0x20 PUSH1 0x0 KECCAK256 ADD PUSH1 0x0 ADD SLOAD GT ISZERO PUSH2 0x89D JUMPI DUP1 SWAP3 POP JUMPDEST DUP1 DUP1 PUSH2 0x8A8 SWAP1 PUSH2 0x1079 JUMP JUMPDEST SWAP2 POP POP PUSH2 0x839 JUMP JUMPDEST POP POP SWAP1 JUMP JUMPDEST PUSH1 0x1 PUSH1 0x20 MSTORE DUP1 PUSH1 0x0 MSTORE PUSH1 0x40 PUSH1 0x0 KECCAK256 PUSH1 0x0 SWAP2 POP SWAP1 POP DUP1 PUSH1 0x0 ADD SLOAD SWAP1 DUP1 PUSH1 0x1 ADD PUSH1 0x0 SWAP1 SLOAD SWAP1 PUSH2 0x100 EXP SWAP1 DIV PUSH1 0xFF AND SWAP1 DUP1 PUSH1 0x2 ADD SLOAD SWAP1 POP DUP4 JUMP JUMPDEST PUSH1 0x0 DUP1 SLOAD SWAP1 PUSH2 0x100 EXP SWAP1 DIV PUSH20 0xFFFFFFFFFFFFFFFFFFFFFFFFFFFFFFFFFFFFFFFF AND PUSH20 0xFFFFFFFFFFFFFFFFFFFFFFFFFFFFFFFFFFFFFFFF AND CALLER PUSH20 0xFFFFFFFFFFFFFFFFFFFFFFFFFFFFFFFFFFFFFFFF AND EQ PUSH2 0x97A JUMPI PUSH1 0x40 MLOAD PUSH32 0x8C379A000000000000000000000000000000000000000000000000000000000 DUP2 MSTORE PUSH1 0x4 ADD PUSH2 0x971 SWAP1 PUSH2 0x1059 JUMP JUMPDEST PUSH1 0x40 MLOAD DUP1 SWAP2 SUB SWAP1 REVERT JUMPDEST PUSH1 0x0 PUSH1 0x3 DUP2 GT ISZERO PUSH2 0x98E JUMPI PUSH2 0x98D PUSH2 0xB7C JUMP JUMPDEST JUMPDEST PUSH1 0x3 PUSH1 0x0 SWAP1 SLOAD SWAP1 PUSH2 0x100 EXP SWAP1 DIV PUSH1 0xFF AND PUSH1 0x3 DUP2 GT ISZERO PUSH2 0x9B0 JUMPI PUSH2 0x9AF PUSH2 0xB7C JUMP JUMPDEST JUMPDEST SUB PUSH2 0x9E5 JUMPI PUSH1 0x1 PUSH1 0x3 PUSH1 0x0 PUSH2 0x100 EXP DUP2 SLOAD DUP2 PUSH1 0xFF MUL NOT AND SWAP1 DUP4 PUSH1 0x3 DUP2 GT ISZERO PUSH2 0x9DB JUMPI PUSH2 0x9DA PUSH2 0xB7C JUMP JUMPDEST JUMPDEST MUL OR SWAP1 SSTORE POP PUSH2 0xAE8 JUMP JUMPDEST PUSH1 0x1 PUSH1 0x3 DUP2 GT ISZERO PUSH2 0x9F9 JUMPI PUSH2 0x9F8 PUSH2 0xB7C JUMP JUMPDEST JUMPDEST PUSH1 0x3 PUSH1 0x0 SWAP1 SLOAD SWAP1 PUSH2 0x100 EXP SWAP1 DIV PUSH1 0xFF AND PUSH1 0x3 DUP2 GT ISZERO PUSH2 0xA1B JUMPI PUSH2 0xA1A PUSH2 0xB7C JUMP JUMPDEST JUMPDEST SUB PUSH2 0xA50 JUMPI PUSH1 0x2 PUSH1 0x3 PUSH1 0x0 PUSH2 0x100 EXP DUP2 SLOAD DUP2 PUSH1 0xFF MUL NOT AND SWAP1 DUP4 PUSH1 0x3 DUP2 GT ISZERO PUSH2 0xA46 JUMPI PUSH2 0xA45 PUSH2 0xB7C JUMP JUMPDEST JUMPDEST MUL OR SWAP1 SSTORE POP PUSH2 0xAE7 JUMP JUMPDEST PUSH1 0x2 PUSH1 0x3 DUP2 GT ISZERO PUSH2 0xA64 JUMPI PUSH2 0xA63 PUSH2 0xB7C JUMP JUMPDEST JUMPDEST PUSH1 0x3 PUSH1 0x0 SWAP1 SLOAD SWAP1 PUSH2 0x100 EXP SWAP1 DIV PUSH1 0xFF AND PUSH1 0x3 DUP2 GT ISZERO PUSH2 0xA86 JUMPI PUSH2 0xA85 PUSH2 0xB7C JUMP JUMPDEST JUMPDEST SUB PUSH2 0xABA JUMPI PUSH1 0x3 DUP1 PUSH1 0x0 PUSH2 0x100 EXP DUP2 SLOAD DUP2 PUSH1 0xFF MUL NOT AND SWAP1 DUP4 PUSH1 0x3 DUP2 GT ISZERO PUSH2 0xAB0 JUMPI PUSH2 0xAAF PUSH2 0xB7C JUMP JUMPDEST JUMPDEST MUL OR SWAP1 SSTORE POP PUSH2 0xAE6 JUMP JUMPDEST PUSH1 0x0 PUSH1 0x3 PUSH1 0x0 PUSH2 0x100 EXP DUP2 SLOAD DUP2 PUSH1 0xFF MUL NOT AND SWAP1 DUP4 PUSH1 0x3 DUP2 GT ISZERO PUSH2 0xAE0 JUMPI PUSH2 0xADF PUSH2 0xB7C JUMP JUMPDEST JUMPDEST MUL OR SWAP1 SSTORE POP JUMPDEST JUMPDEST JUMPDEST JUMP JUMPDEST PUSH1 0x0 DUP1 REVERT JUMPDEST PUSH1 0x0 DUP2 SWAP1 POP SWAP2 SWAP1 POP JUMP JUMPDEST PUSH2 0xB02 DUP2 PUSH2 0xAEF JUMP JUMPDEST DUP2 EQ PUSH2 0xB0D JUMPI PUSH1 0x0 DUP1 REVERT JUMPDEST POP JUMP JUMPDEST PUSH1 0x0 DUP2 CALLDATALOAD SWAP1 POP PUSH2 0xB1F DUP2 PUSH2 0xAF9 JUMP JUMPDEST SWAP3 SWAP2 POP POP JUMP JUMPDEST PUSH1 0x0 PUSH1 0x20 DUP3 DUP5 SUB SLT ISZERO PUSH2 0xB3B JUMPI PUSH2 0xB3A PUSH2 0xAEA JUMP JUMPDEST JUMPDEST PUSH1 0x0 PUSH2 0xB49 DUP5 DUP3 DUP6 ADD PUSH2 0xB10 JUMP JUMPDEST SWAP2 POP POP SWAP3 SWAP2 POP POP JUMP JUMPDEST PUSH2 0xB5B DUP2 PUSH2 0xAEF JUMP JUMPDEST DUP3 MSTORE POP POP JUMP JUMPDEST PUSH1 0x0 PUSH1 0x20 DUP3 ADD SWAP1 POP PUSH2 0xB76 PUSH1 0x0 DUP4 ADD DUP5 PUSH2 0xB52 JUMP JUMPDEST SWAP3 SWAP2 POP POP JUMP JUMPDEST PUSH32 0x4E487B7100000000000000000000000000000000000000000000000000000000 PUSH1 0x0 MSTORE PUSH1 0x21 PUSH1 0x4 MSTORE PUSH1 0x24 PUSH1 0x0 REVERT JUMPDEST PUSH1 0x4 DUP2 LT PUSH2 0xBBC JUMPI PUSH2 0xBBB PUSH2 0xB7C JUMP JUMPDEST JUMPDEST POP JUMP JUMPDEST PUSH1 0x0 DUP2 SWAP1 POP PUSH2 0xBCD DUP3 PUSH2 0xBAB JUMP JUMPDEST SWAP2 SWAP1 POP JUMP JUMPDEST PUSH1 0x0 PUSH2 0xBDD DUP3 PUSH2 0xBBF JUMP JUMPDEST SWAP1 POP SWAP2 SWAP1 POP JUMP JUMPDEST PUSH2 0xBED DUP2 PUSH2 0xBD2 JUMP JUMPDEST DUP3 MSTORE POP POP JUMP JUMPDEST PUSH1 0x0 PUSH1 0x20 DUP3 ADD SWAP1 POP PUSH2 0xC08 PUSH1 0x0 DUP4 ADD DUP5 PUSH2 0xBE4 JUMP JUMPDEST SWAP3 SWAP2 POP POP JUMP JUMPDEST PUSH1 0x0 PUSH20 0xFFFFFFFFFFFFFFFFFFFFFFFFFFFFFFFFFFFFFFFF DUP3 AND SWAP1 POP SWAP2 SWAP1 POP JUMP JUMPDEST PUSH1 0x0 PUSH2 0xC39 DUP3 PUSH2 0xC0E JUMP JUMPDEST SWAP1 POP SWAP2 SWAP1 POP JUMP JUMPDEST PUSH2 0xC49 DUP2 PUSH2 0xC2E JUMP JUMPDEST DUP2 EQ PUSH2 0xC54 JUMPI PUSH1 0x0 DUP1 REVERT JUMPDEST POP JUMP JUMPDEST PUSH1 0x0 DUP2 CALLDATALOAD SWAP1 POP PUSH2 0xC66 DUP2 PUSH2 0xC40 JUMP JUMPDEST SWAP3 SWAP2 POP POP JUMP JUMPDEST PUSH1 0x0 PUSH1 0x20 DUP3 DUP5 SUB SLT ISZERO PUSH2 0xC82 JUMPI PUSH2 0xC81 PUSH2 0xAEA JUMP JUMPDEST JUMPDEST PUSH1 0x0 PUSH2 0xC90 DUP5 DUP3 DUP6 ADD PUSH2 0xC57 JUMP JUMPDEST SWAP2 POP POP SWAP3 SWAP2 POP POP JUMP JUMPDEST PUSH1 0x0 PUSH1 0xFF DUP3 AND SWAP1 POP SWAP2 SWAP1 POP JUMP JUMPDEST PUSH2 0xCAF DUP2 PUSH2 0xC99 JUMP JUMPDEST DUP3 MSTORE POP POP JUMP JUMPDEST PUSH1 0x0 PUSH1 0x20 DUP3 ADD SWAP1 POP PUSH2 0xCCA PUSH1 0x0 DUP4 ADD DUP5 PUSH2 0xCA6 JUMP JUMPDEST SWAP3 SWAP2 POP POP JUMP JUMPDEST PUSH1 0x0 DUP2 ISZERO ISZERO SWAP1 POP SWAP2 SWAP1 POP JUMP JUMPDEST PUSH2 0xCE5 DUP2 PUSH2 0xCD0 JUMP JUMPDEST DUP3 MSTORE POP POP JUMP JUMPDEST PUSH1 0x0 PUSH1 0x60 DUP3 ADD SWAP1 POP PUSH2 0xD00 PUSH1 0x0 DUP4 ADD DUP7 PUSH2 0xB52 JUMP JUMPDEST PUSH2 0xD0D PUSH1 0x20 DUP4 ADD DUP6 PUSH2 0xCDC JUMP JUMPDEST PUSH2 0xD1A PUSH1 0x40 DUP4 ADD DUP5 PUSH2 0xB52 JUMP JUMPDEST SWAP5 SWAP4 POP POP POP POP JUMP JUMPDEST PUSH1 0x0 DUP3 DUP3 MSTORE PUSH1 0x20 DUP3 ADD SWAP1 POP SWAP3 SWAP2 POP POP JUMP JUMPDEST PUSH32 0x4572726F72203A204F6E6C792076616C696420766F7465722063616E2063616C PUSH1 0x0 DUP3 ADD MSTORE PUSH32 0x6C20746869732066756E6374696F6E0000000000000000000000000000000000 PUSH1 0x20 DUP3 ADD MSTORE POP JUMP JUMPDEST PUSH1 0x0 PUSH2 0xD8F PUSH1 0x2F DUP4 PUSH2 0xD22 JUMP JUMPDEST SWAP2 POP PUSH2 0xD9A DUP3 PUSH2 0xD33 JUMP JUMPDEST PUSH1 0x40 DUP3 ADD SWAP1 POP SWAP2 SWAP1 POP JUMP JUMPDEST PUSH1 0x0 PUSH1 0x20 DUP3 ADD SWAP1 POP DUP2 DUP2 SUB PUSH1 0x0 DUP4 ADD MSTORE PUSH2 0xDBE DUP2 PUSH2 0xD82 JUMP JUMPDEST SWAP1 POP SWAP2 SWAP1 POP JUMP JUMPDEST PUSH32 0x4572726F72203A20496E76616C69642050686173652E20436861636B20506861 PUSH1 0x0 DUP3 ADD MSTORE PUSH32 0x736520616761696E000000000000000000000000000000000000000000000000 PUSH1 0x20 DUP3 ADD MSTORE POP JUMP JUMPDEST PUSH1 0x0 PUSH2 0xE21 PUSH1 0x28 DUP4 PUSH2 0xD22 JUMP JUMPDEST SWAP2 POP PUSH2 0xE2C DUP3 PUSH2 0xDC5 JUMP JUMPDEST PUSH1 0x40 DUP3 ADD SWAP1 POP SWAP2 SWAP1 POP JUMP JUMPDEST PUSH1 0x0 PUSH1 0x20 DUP3 ADD SWAP1 POP DUP2 DUP2 SUB PUSH1 0x0 DUP4 ADD MSTORE PUSH2 0xE50 DUP2 PUSH2 0xE14 JUMP JUMPDEST SWAP1 POP SWAP2 SWAP1 POP JUMP JUMPDEST PUSH32 0x4572726F72203A20696E76616C696420766F7465730000000000000000000000 PUSH1 0x0 DUP3 ADD MSTORE POP JUMP JUMPDEST PUSH1 0x0 PUSH2 0xE8D PUSH1 0x15 DUP4 PUSH2 0xD22 JUMP JUMPDEST SWAP2 POP PUSH2 0xE98 DUP3 PUSH2 0xE57 JUMP JUMPDEST PUSH1 0x20 DUP3 ADD SWAP1 POP SWAP2 SWAP1 POP JUMP JUMPDEST PUSH1 0x0 PUSH1 0x20 DUP3 ADD SWAP1 POP DUP2 DUP2 SUB PUSH1 0x0 DUP4 ADD MSTORE PUSH2 0xEBC DUP2 PUSH2 0xE80 JUMP JUMPDEST SWAP1 POP SWAP2 SWAP1 POP JUMP JUMPDEST PUSH32 0x4572726F72203A20596F752068617665206265656E20616C726561647920766F PUSH1 0x0 DUP3 ADD MSTORE PUSH32 0x7465640000000000000000000000000000000000000000000000000000000000 PUSH1 0x20 DUP3 ADD MSTORE POP JUMP JUMPDEST PUSH1 0x0 PUSH2 0xF1F PUSH1 0x23 DUP4 PUSH2 0xD22 JUMP JUMPDEST SWAP2 POP PUSH2 0xF2A DUP3 PUSH2 0xEC3 JUMP JUMPDEST PUSH1 0x40 DUP3 ADD SWAP1 POP SWAP2 SWAP1 POP JUMP JUMPDEST PUSH1 0x0 PUSH1 0x20 DUP3 ADD SWAP1 POP DUP2 DUP2 SUB PUSH1 0x0 DUP4 ADD MSTORE PUSH2 0xF4E DUP2 PUSH2 0xF12 JUMP JUMPDEST SWAP1 POP SWAP2 SWAP1 POP JUMP JUMPDEST PUSH32 0x4E487B7100000000000000000000000000000000000000000000000000000000 PUSH1 0x0 MSTORE PUSH1 0x32 PUSH1 0x4 MSTORE PUSH1 0x24 PUSH1 0x0 REVERT JUMPDEST PUSH32 0x4E487B7100000000000000000000000000000000000000000000000000000000 PUSH1 0x0 MSTORE PUSH1 0x11 PUSH1 0x4 MSTORE PUSH1 0x24 PUSH1 0x0 REVERT JUMPDEST PUSH1 0x0 PUSH2 0xFBE DUP3 PUSH2 0xAEF JUMP JUMPDEST SWAP2 POP PUSH2 0xFC9 DUP4 PUSH2 0xAEF JUMP JUMPDEST SWAP3 POP DUP3 DUP3 ADD SWAP1 POP DUP1 DUP3 GT ISZERO PUSH2 0xFE1 JUMPI PUSH2 0xFE0 PUSH2 0xF84 JUMP JUMPDEST JUMPDEST SWAP3 SWAP2 POP POP JUMP JUMPDEST PUSH32 0x4572726F72203A204F6E6C7920436861697220506572736F6E2063616E206361 PUSH1 0x0 DUP3 ADD MSTORE PUSH32 0x6C6C20746869732066756E6374696F6E00000000000000000000000000000000 PUSH1 0x20 DUP3 ADD MSTORE POP JUMP JUMPDEST PUSH1 0x0 PUSH2 0x1043 PUSH1 0x30 DUP4 PUSH2 0xD22 JUMP JUMPDEST SWAP2 POP PUSH2 0x104E DUP3 PUSH2 0xFE7 JUMP JUMPDEST PUSH1 0x40 DUP3 ADD SWAP1 POP SWAP2 SWAP1 POP JUMP JUMPDEST PUSH1 0x0 PUSH1 0x20 DUP3 ADD SWAP1 POP DUP2 DUP2 SUB PUSH1 0x0 DUP4 ADD MSTORE PUSH2 0x1072 DUP2 PUSH2 0x1036 JUMP JUMPDEST SWAP1 POP SWAP2 SWAP1 POP JUMP JUMPDEST PUSH1 0x0 PUSH2 0x1084 DUP3 PUSH2 0xC99 JUMP JUMPDEST SWAP2 POP PUSH1 0xFF DUP3 SUB PUSH2 0x1097 JUMPI PUSH2 0x1096 PUSH2 0xF84 JUMP JUMPDEST JUMPDEST PUSH1 0x1 DUP3 ADD SWAP1 POP SWAP2 SWAP1 POP JUMP INVALID LOG2 PUSH5 0x6970667358 0x22 SLT KECCAK256 0xF SLOAD 0xBF DUP12 BLOCKHASH 0x2C MSTORE RETURN PUSH18 0x9BC340C121EE808FAB109E8946565578FFC MOD 0x4D 0xD DELEGATECALL SIGNEXTEND PUSH5 0x736F6C6343 STOP ADDMOD SLT STOP CALLER "
				},
				"gasEstimates": {
					"creation": {
						"codeDepositCost": "862400",
						"executionCost": "infinite",
						"totalCost": "infinite"
					},
					"external": {
						"advancePhase()": "33310",
						"currentPhase()": "2605",
						"proposals(uint256)": "infinite",
						"register(address)": "58700",
						"reqWinner()": "infinite",
						"vote(uint256)": "infinite",
						"voters(address)": "infinite"
					}
				},
				"methodIdentifiers": {
					"advancePhase()": "be25a718",
					"currentPhase()": "055ad42e",
					"proposals(uint256)": "013cf08b",
					"register(address)": "4420e486",
					"reqWinner()": "508b30c9",
					"vote(uint256)": "0121b93f",
					"voters(address)": "a3ec138d"
				}
			},
			"storageLayout": {
				"storage": [
					{
						"astId": 13,
						"contract": "Final Exam/Ballot2.sol:Ballot",
						"label": "chairperson",
						"offset": 0,
						"slot": "0",
						"type": "t_address"
					},
					{
						"astId": 18,
						"contract": "Final Exam/Ballot2.sol:Ballot",
						"label": "voters",
						"offset": 0,
						"slot": "1",
						"type": "t_mapping(t_address,t_struct(Voter)8_storage)"
					},
					{
						"astId": 22,
						"contract": "Final Exam/Ballot2.sol:Ballot",
						"label": "proposals",
						"offset": 0,
						"slot": "2",
						"type": "t_array(t_struct(Proposal)11_storage)dyn_storage"
					},
					{
						"astId": 32,
						"contract": "Final Exam/Ballot2.sol:Ballot",
						"label": "currentPhase",
						"offset": 0,
						"slot": "3",
						"type": "t_enum(Phase)27"
					}
				],
				"types": {
					"t_address": {
						"encoding": "inplace",
						"label": "address",
						"numberOfBytes": "20"
					},
					"t_array(t_struct(Proposal)11_storage)dyn_storage": {
						"base": "t_struct(Proposal)11_storage",
						"encoding": "dynamic_array",
						"label": "struct Ballot.Proposal[]",
						"numberOfBytes": "32"
					},
					"t_bool": {
						"encoding": "inplace",
						"label": "bool",
						"numberOfBytes": "1"
					},
					"t_enum(Phase)27": {
						"encoding": "inplace",
						"label": "enum Ballot.Phase",
						"numberOfBytes": "1"
					},
					"t_mapping(t_address,t_struct(Voter)8_storage)": {
						"encoding": "mapping",
						"key": "t_address",
						"label": "mapping(address => struct Ballot.Voter)",
						"numberOfBytes": "32",
						"value": "t_struct(Voter)8_storage"
					},
					"t_struct(Proposal)11_storage": {
						"encoding": "inplace",
						"label": "struct Ballot.Proposal",
						"members": [
							{
								"astId": 10,
								"contract": "Final Exam/Ballot2.sol:Ballot",
								"label": "voteCount",
								"offset": 0,
								"slot": "0",
								"type": "t_uint256"
							}
						],
						"numberOfBytes": "32"
					},
					"t_struct(Voter)8_storage": {
						"encoding": "inplace",
						"label": "struct Ballot.Voter",
						"members": [
							{
								"astId": 3,
								"contract": "Final Exam/Ballot2.sol:Ballot",
								"label": "weight",
								"offset": 0,
								"slot": "0",
								"type": "t_uint256"
							},
							{
								"astId": 5,
								"contract": "Final Exam/Ballot2.sol:Ballot",
								"label": "voted",
								"offset": 0,
								"slot": "1",
								"type": "t_bool"
							},
							{
								"astId": 7,
								"contract": "Final Exam/Ballot2.sol:Ballot",
								"label": "vote",
								"offset": 0,
								"slot": "2",
								"type": "t_uint256"
							}
						],
						"numberOfBytes": "96"
					},
					"t_uint256": {
						"encoding": "inplace",
						"label": "uint256",
						"numberOfBytes": "32"
					}
				}
			},
			"userdoc": {
				"kind": "user",
				"methods": {},
				"version": 1
			}
		}
	}
}