{
	"Lecture Note/week04/func_params.sol": {
		"Ex4_2": {
			"abi": [
				{
					"inputs": [],
					"name": "a",
					"outputs": [
						{
							"internalType": "uint256",
							"name": "",
							"type": "uint256"
						}
					],
					"stateMutability": "view",
					"type": "function"
				},
				{
					"inputs": [
						{
							"internalType": "uint256",
							"name": "b",
							"type": "uint256"
						},
						{
							"internalType": "uint256",
							"name": "c",
							"type": "uint256"
						},
						{
							"internalType": "uint256",
							"name": "d",
							"type": "uint256"
						}
					],
					"name": "myFun",
					"outputs": [],
					"stateMutability": "nonpayable",
					"type": "function"
				}
			],
			"devdoc": {
				"kind": "dev",
				"methods": {},
				"version": 1
			},
			"evm": {
				"assembly": "    /* \"Lecture Note/week04/func_params.sol\":57:201  contract Ex4_2 {... */\n  mstore(0x40, 0x80)\n    /* \"Lecture Note/week04/func_params.sol\":94:95  3 */\n  0x03\n    /* \"Lecture Note/week04/func_params.sol\":78:95  uint public a = 3 */\n  0x00\n  sstore\n    /* \"Lecture Note/week04/func_params.sol\":57:201  contract Ex4_2 {... */\n  callvalue\n  dup1\n  iszero\n  tag_1\n  jumpi\n  0x00\n  dup1\n  revert\ntag_1:\n  pop\n  dataSize(sub_0)\n  dup1\n  dataOffset(sub_0)\n  0x00\n  codecopy\n  0x00\n  return\nstop\n\nsub_0: assembly {\n        /* \"Lecture Note/week04/func_params.sol\":57:201  contract Ex4_2 {... */\n      mstore(0x40, 0x80)\n      callvalue\n      dup1\n      iszero\n      tag_1\n      jumpi\n      0x00\n      dup1\n      revert\n    tag_1:\n      pop\n      jumpi(tag_2, lt(calldatasize, 0x04))\n      shr(0xe0, calldataload(0x00))\n      dup1\n      0x0dbe671f\n      eq\n      tag_3\n      jumpi\n      dup1\n      0x95a81f27\n      eq\n      tag_4\n      jumpi\n    tag_2:\n      0x00\n      dup1\n      revert\n        /* \"Lecture Note/week04/func_params.sol\":78:95  uint public a = 3 */\n    tag_3:\n      tag_5\n      tag_6\n      jump\t// in\n    tag_5:\n      mload(0x40)\n      tag_7\n      swap2\n      swap1\n      tag_8\n      jump\t// in\n    tag_7:\n      mload(0x40)\n      dup1\n      swap2\n      sub\n      swap1\n      return\n        /* \"Lecture Note/week04/func_params.sol\":101:199  function myFun(uint b, uint c, uint d) public {... */\n    tag_4:\n      tag_9\n      0x04\n      dup1\n      calldatasize\n      sub\n      dup2\n      add\n      swap1\n      tag_10\n      swap2\n      swap1\n      tag_11\n      jump\t// in\n    tag_10:\n      tag_12\n      jump\t// in\n    tag_9:\n      stop\n        /* \"Lecture Note/week04/func_params.sol\":78:95  uint public a = 3 */\n    tag_6:\n      sload(0x00)\n      dup2\n      jump\t// out\n        /* \"Lecture Note/week04/func_params.sol\":101:199  function myFun(uint b, uint c, uint d) public {... */\n    tag_12:\n        /* \"Lecture Note/week04/func_params.sol\":161:162  b */\n      dup3\n        /* \"Lecture Note/week04/func_params.sol\":157:158  a */\n      0x00\n        /* \"Lecture Note/week04/func_params.sol\":157:162  a = b */\n      dup2\n      swap1\n      sstore\n      pop\n        /* \"Lecture Note/week04/func_params.sol\":176:177  c */\n      dup2\n        /* \"Lecture Note/week04/func_params.sol\":172:173  a */\n      0x00\n        /* \"Lecture Note/week04/func_params.sol\":172:177  a = c */\n      dup2\n      swap1\n      sstore\n      pop\n        /* \"Lecture Note/week04/func_params.sol\":191:192  d */\n      dup1\n        /* \"Lecture Note/week04/func_params.sol\":187:188  a */\n      0x00\n        /* \"Lecture Note/week04/func_params.sol\":187:192  a = d */\n      dup2\n      swap1\n      sstore\n      pop\n        /* \"Lecture Note/week04/func_params.sol\":101:199  function myFun(uint b, uint c, uint d) public {... */\n      pop\n      pop\n      pop\n      jump\t// out\n        /* \"#utility.yul\":7:146   */\n    tag_15:\n      0x00\n        /* \"#utility.yul\":91:97   */\n      dup2\n        /* \"#utility.yul\":78:98   */\n      calldataload\n        /* \"#utility.yul\":69:98   */\n      swap1\n      pop\n        /* \"#utility.yul\":107:140   */\n      tag_17\n        /* \"#utility.yul\":134:139   */\n      dup2\n        /* \"#utility.yul\":107:140   */\n      tag_18\n      jump\t// in\n    tag_17:\n        /* \"#utility.yul\":59:146   */\n      swap3\n      swap2\n      pop\n      pop\n      jump\t// out\n        /* \"#utility.yul\":152:704   */\n    tag_11:\n      0x00\n      dup1\n      0x00\n        /* \"#utility.yul\":294:296   */\n      0x60\n        /* \"#utility.yul\":282:291   */\n      dup5\n        /* \"#utility.yul\":273:280   */\n      dup7\n        /* \"#utility.yul\":269:292   */\n      sub\n        /* \"#utility.yul\":265:297   */\n      slt\n        /* \"#utility.yul\":262:264   */\n      iszero\n      tag_20\n      jumpi\n        /* \"#utility.yul\":310:311   */\n      0x00\n        /* \"#utility.yul\":307:308   */\n      dup1\n        /* \"#utility.yul\":300:312   */\n      revert\n        /* \"#utility.yul\":262:264   */\n    tag_20:\n        /* \"#utility.yul\":353:354   */\n      0x00\n        /* \"#utility.yul\":378:431   */\n      tag_21\n        /* \"#utility.yul\":423:430   */\n      dup7\n        /* \"#utility.yul\":414:420   */\n      dup3\n        /* \"#utility.yul\":403:412   */\n      dup8\n        /* \"#utility.yul\":399:421   */\n      add\n        /* \"#utility.yul\":378:431   */\n      tag_15\n      jump\t// in\n    tag_21:\n        /* \"#utility.yul\":368:431   */\n      swap4\n      pop\n        /* \"#utility.yul\":324:441   */\n      pop\n        /* \"#utility.yul\":480:482   */\n      0x20\n        /* \"#utility.yul\":506:559   */\n      tag_22\n        /* \"#utility.yul\":551:558   */\n      dup7\n        /* \"#utility.yul\":542:548   */\n      dup3\n        /* \"#utility.yul\":531:540   */\n      dup8\n        /* \"#utility.yul\":527:549   */\n      add\n        /* \"#utility.yul\":506:559   */\n      tag_15\n      jump\t// in\n    tag_22:\n        /* \"#utility.yul\":496:559   */\n      swap3\n      pop\n        /* \"#utility.yul\":451:569   */\n      pop\n        /* \"#utility.yul\":608:610   */\n      0x40\n        /* \"#utility.yul\":634:687   */\n      tag_23\n        /* \"#utility.yul\":679:686   */\n      dup7\n        /* \"#utility.yul\":670:676   */\n      dup3\n        /* \"#utility.yul\":659:668   */\n      dup8\n        /* \"#utility.yul\":655:677   */\n      add\n        /* \"#utility.yul\":634:687   */\n      tag_15\n      jump\t// in\n    tag_23:\n        /* \"#utility.yul\":624:687   */\n      swap2\n      pop\n        /* \"#utility.yul\":579:697   */\n      pop\n        /* \"#utility.yul\":252:704   */\n      swap3\n      pop\n      swap3\n      pop\n      swap3\n      jump\t// out\n        /* \"#utility.yul\":710:828   */\n    tag_24:\n        /* \"#utility.yul\":797:821   */\n      tag_26\n        /* \"#utility.yul\":815:820   */\n      dup2\n        /* \"#utility.yul\":797:821   */\n      tag_27\n      jump\t// in\n    tag_26:\n        /* \"#utility.yul\":792:795   */\n      dup3\n        /* \"#utility.yul\":785:822   */\n      mstore\n        /* \"#utility.yul\":775:828   */\n      pop\n      pop\n      jump\t// out\n        /* \"#utility.yul\":834:1056   */\n    tag_8:\n      0x00\n        /* \"#utility.yul\":965:967   */\n      0x20\n        /* \"#utility.yul\":954:963   */\n      dup3\n        /* \"#utility.yul\":950:968   */\n      add\n        /* \"#utility.yul\":942:968   */\n      swap1\n      pop\n        /* \"#utility.yul\":978:1049   */\n      tag_29\n        /* \"#utility.yul\":1046:1047   */\n      0x00\n        /* \"#utility.yul\":1035:1044   */\n      dup4\n        /* \"#utility.yul\":1031:1048   */\n      add\n        /* \"#utility.yul\":1022:1028   */\n      dup5\n        /* \"#utility.yul\":978:1049   */\n      tag_24\n      jump\t// in\n    tag_29:\n        /* \"#utility.yul\":932:1056   */\n      swap3\n      swap2\n      pop\n      pop\n      jump\t// out\n        /* \"#utility.yul\":1062:1139   */\n    tag_27:\n      0x00\n        /* \"#utility.yul\":1128:1133   */\n      dup2\n        /* \"#utility.yul\":1117:1133   */\n      swap1\n      pop\n        /* \"#utility.yul\":1107:1139   */\n      swap2\n      swap1\n      pop\n      jump\t// out\n        /* \"#utility.yul\":1145:1267   */\n    tag_18:\n        /* \"#utility.yul\":1218:1242   */\n      tag_32\n        /* \"#utility.yul\":1236:1241   */\n      dup2\n        /* \"#utility.yul\":1218:1242   */\n      tag_27\n      jump\t// in\n    tag_32:\n        /* \"#utility.yul\":1211:1216   */\n      dup2\n        /* \"#utility.yul\":1208:1243   */\n      eq\n        /* \"#utility.yul\":1198:1200   */\n      tag_33\n      jumpi\n        /* \"#utility.yul\":1257:1258   */\n      0x00\n        /* \"#utility.yul\":1254:1255   */\n      dup1\n        /* \"#utility.yul\":1247:1259   */\n      revert\n        /* \"#utility.yul\":1198:1200   */\n    tag_33:\n        /* \"#utility.yul\":1188:1267   */\n      pop\n      jump\t// out\n\n    auxdata: 0xa2646970667358221220c83a16f887beb1375a6942a3db1bf04ded12572932d70866a9bd843ffb1a1c6664736f6c63430008000033\n}\n",
				"bytecode": {
					"linkReferences": {},
					"object": "6080604052600360005534801561001557600080fd5b5061017a806100256000396000f3fe608060405234801561001057600080fd5b50600436106100365760003560e01c80630dbe671f1461003b57806395a81f2714610059575b600080fd5b610043610075565b6040516100509190610108565b60405180910390f35b610073600480360381019061006e91906100aa565b61007b565b005b60005481565b826000819055508160008190555080600081905550505050565b6000813590506100a48161012d565b92915050565b6000806000606084860312156100bf57600080fd5b60006100cd86828701610095565b93505060206100de86828701610095565b92505060406100ef86828701610095565b9150509250925092565b61010281610123565b82525050565b600060208201905061011d60008301846100f9565b92915050565b6000819050919050565b61013681610123565b811461014157600080fd5b5056fea2646970667358221220c83a16f887beb1375a6942a3db1bf04ded12572932d70866a9bd843ffb1a1c6664736f6c63430008000033",
					"opcodes": "PUSH1 0x80 PUSH1 0x40 MSTORE PUSH1 0x3 PUSH1 0x0 SSTORE CALLVALUE DUP1 ISZERO PUSH2 0x15 JUMPI PUSH1 0x0 DUP1 REVERT JUMPDEST POP PUSH2 0x17A DUP1 PUSH2 0x25 PUSH1 0x0 CODECOPY PUSH1 0x0 RETURN INVALID PUSH1 0x80 PUSH1 0x40 MSTORE CALLVALUE DUP1 ISZERO PUSH2 0x10 JUMPI PUSH1 0x0 DUP1 REVERT JUMPDEST POP PUSH1 0x4 CALLDATASIZE LT PUSH2 0x36 JUMPI PUSH1 0x0 CALLDATALOAD PUSH1 0xE0 SHR DUP1 PUSH4 0xDBE671F EQ PUSH2 0x3B JUMPI DUP1 PUSH4 0x95A81F27 EQ PUSH2 0x59 JUMPI JUMPDEST PUSH1 0x0 DUP1 REVERT JUMPDEST PUSH2 0x43 PUSH2 0x75 JUMP JUMPDEST PUSH1 0x40 MLOAD PUSH2 0x50 SWAP2 SWAP1 PUSH2 0x108 JUMP JUMPDEST PUSH1 0x40 MLOAD DUP1 SWAP2 SUB SWAP1 RETURN JUMPDEST PUSH2 0x73 PUSH1 0x4 DUP1 CALLDATASIZE SUB DUP2 ADD SWAP1 PUSH2 0x6E SWAP2 SWAP1 PUSH2 0xAA JUMP JUMPDEST PUSH2 0x7B JUMP JUMPDEST STOP JUMPDEST PUSH1 0x0 SLOAD DUP2 JUMP JUMPDEST DUP3 PUSH1 0x0 DUP2 SWAP1 SSTORE POP DUP2 PUSH1 0x0 DUP2 SWAP1 SSTORE POP DUP1 PUSH1 0x0 DUP2 SWAP1 SSTORE POP POP POP POP JUMP JUMPDEST PUSH1 0x0 DUP2 CALLDATALOAD SWAP1 POP PUSH2 0xA4 DUP2 PUSH2 0x12D JUMP JUMPDEST SWAP3 SWAP2 POP POP JUMP JUMPDEST PUSH1 0x0 DUP1 PUSH1 0x0 PUSH1 0x60 DUP5 DUP7 SUB SLT ISZERO PUSH2 0xBF JUMPI PUSH1 0x0 DUP1 REVERT JUMPDEST PUSH1 0x0 PUSH2 0xCD DUP7 DUP3 DUP8 ADD PUSH2 0x95 JUMP JUMPDEST SWAP4 POP POP PUSH1 0x20 PUSH2 0xDE DUP7 DUP3 DUP8 ADD PUSH2 0x95 JUMP JUMPDEST SWAP3 POP POP PUSH1 0x40 PUSH2 0xEF DUP7 DUP3 DUP8 ADD PUSH2 0x95 JUMP JUMPDEST SWAP2 POP POP SWAP3 POP SWAP3 POP SWAP3 JUMP JUMPDEST PUSH2 0x102 DUP2 PUSH2 0x123 JUMP JUMPDEST DUP3 MSTORE POP POP JUMP JUMPDEST PUSH1 0x0 PUSH1 0x20 DUP3 ADD SWAP1 POP PUSH2 0x11D PUSH1 0x0 DUP4 ADD DUP5 PUSH2 0xF9 JUMP JUMPDEST SWAP3 SWAP2 POP POP JUMP JUMPDEST PUSH1 0x0 DUP2 SWAP1 POP SWAP2 SWAP1 POP JUMP JUMPDEST PUSH2 0x136 DUP2 PUSH2 0x123 JUMP JUMPDEST DUP2 EQ PUSH2 0x141 JUMPI PUSH1 0x0 DUP1 REVERT JUMPDEST POP JUMP INVALID LOG2 PUSH5 0x6970667358 0x22 SLT KECCAK256 0xC8 GASPRICE AND 0xF8 DUP8 0xBE 0xB1 CALLDATACOPY GAS PUSH10 0x42A3DB1BF04DED125729 ORIGIN 0xD7 ADDMOD PUSH7 0xA9BD843FFB1A1C PUSH7 0x64736F6C634300 ADDMOD STOP STOP CALLER "
				},
				"gasEstimates": {
					"creation": {
						"codeDepositCost": "75600",
						"executionCost": "20129",
						"totalCost": "95729"
					},
					"external": {
						"a()": "1107",
						"myFun(uint256,uint256,uint256)": "infinite"
					}
				},
				"methodIdentifiers": {
					"a()": "0dbe671f",
					"myFun(uint256,uint256,uint256)": "95a81f27"
				}
			},
			"storageLayout": {
				"storage": [
					{
						"astId": 4,
						"contract": "Lecture Note/week04/func_params.sol:Ex4_2",
						"label": "a",
						"offset": 0,
						"slot": "0",
						"type": "t_uint256"
					}
				],
				"types": {
					"t_uint256": {
						"encoding": "inplace",
						"label": "uint256",
						"numberOfBytes": "32"
					}
				}
			},
			"userdoc": {
				"kind": "user",
				"methods": {},
				"version": 1
			}
		}
	}
}