{
	"data": {
		"bytecode": {
			"linkReferences": {},
			"object": "608060405234801561001057600080fd5b50610953806100206000396000f3fe608060405234801561001057600080fd5b506004361061004c5760003560e01c806301984892146100515780632eba1c40146100815780635fd4b08a1461009d578063d0aab3fd146100cd575b600080fd5b61006b600480360381019061006691906103c5565b6100e9565b6040516100789190610482565b60405180910390f35b61009b600480360381019061009691906103c5565b610189565b005b6100b760048036038101906100b291906103c5565b6101d6565b6040516100c49190610482565b60405180910390f35b6100e760048036038101906100e291906105d9565b6102a6565b005b6000602052806000526040600020600091509050805461010890610664565b80601f016020809104026020016040519081016040528092919081815260200182805461013490610664565b80156101815780601f1061015657610100808354040283529160200191610181565b820191906000526020600020905b81548152906001019060200180831161016457829003601f168201915b505050505081565b6000808273ffffffffffffffffffffffffffffffffffffffff1673ffffffffffffffffffffffffffffffffffffffff16815260200190815260200160002060006101d391906102f6565b50565b60606000808373ffffffffffffffffffffffffffffffffffffffff1673ffffffffffffffffffffffffffffffffffffffff168152602001908152602001600020805461022190610664565b80601f016020809104026020016040519081016040528092919081815260200182805461024d90610664565b801561029a5780601f1061026f5761010080835404028352916020019161029a565b820191906000526020600020905b81548152906001019060200180831161027d57829003601f168201915b50505050509050919050565b806000808473ffffffffffffffffffffffffffffffffffffffff1673ffffffffffffffffffffffffffffffffffffffff16815260200190815260200160002090816102f1919061084b565b505050565b50805461030290610664565b6000825580601f106103145750610333565b601f0160209004906000526020600020908101906103329190610336565b5b50565b5b8082111561034f576000816000905550600101610337565b5090565b6000604051905090565b600080fd5b600080fd5b600073ffffffffffffffffffffffffffffffffffffffff82169050919050565b600061039282610367565b9050919050565b6103a281610387565b81146103ad57600080fd5b50565b6000813590506103bf81610399565b92915050565b6000602082840312156103db576103da61035d565b5b60006103e9848285016103b0565b91505092915050565b600081519050919050565b600082825260208201905092915050565b60005b8381101561042c578082015181840152602081019050610411565b60008484015250505050565b6000601f19601f8301169050919050565b6000610454826103f2565b61045e81856103fd565b935061046e81856020860161040e565b61047781610438565b840191505092915050565b6000602082019050818103600083015261049c8184610449565b905092915050565b600080fd5b600080fd5b7f4e487b7100000000000000000000000000000000000000000000000000000000600052604160045260246000fd5b6104e682610438565b810181811067ffffffffffffffff82111715610505576105046104ae565b5b80604052505050565b6000610518610353565b905061052482826104dd565b919050565b600067ffffffffffffffff821115610544576105436104ae565b5b61054d82610438565b9050602081019050919050565b82818337600083830152505050565b600061057c61057784610529565b61050e565b905082815260208101848484011115610598576105976104a9565b5b6105a384828561055a565b509392505050565b600082601f8301126105c0576105bf6104a4565b5b81356105d0848260208601610569565b91505092915050565b600080604083850312156105f0576105ef61035d565b5b60006105fe858286016103b0565b925050602083013567ffffffffffffffff81111561061f5761061e610362565b5b61062b858286016105ab565b9150509250929050565b7f4e487b7100000000000000000000000000000000000000000000000000000000600052602260045260246000fd5b6000600282049050600182168061067c57607f821691505b60208210810361068f5761068e610635565b5b50919050565b60008190508160005260206000209050919050565b60006020601f8301049050919050565b600082821b905092915050565b6000600883026106f77fffffffffffffffffffffffffffffffffffffffffffffffffffffffffffffffff826106ba565b61070186836106ba565b95508019841693508086168417925050509392505050565b6000819050919050565b6000819050919050565b600061074861074361073e84610719565b610723565b610719565b9050919050565b6000819050919050565b6107628361072d565b61077661076e8261074f565b8484546106c7565b825550505050565b600090565b61078b61077e565b610796818484610759565b505050565b5b818110156107ba576107af600082610783565b60018101905061079c565b5050565b601f8211156107ff576107d081610695565b6107d9846106aa565b810160208510156107e8578190505b6107fc6107f4856106aa565b83018261079b565b50505b505050565b600082821c905092915050565b600061082260001984600802610804565b1980831691505092915050565b600061083b8383610811565b9150826002028217905092915050565b610854826103f2565b67ffffffffffffffff81111561086d5761086c6104ae565b5b6108778254610664565b6108828282856107be565b600060209050601f8311600181146108b557600084156108a3578287015190505b6108ad858261082f565b865550610915565b601f1984166108c386610695565b60005b828110156108eb578489015182556001820191506020850194506020810190506108c6565b868310156109085784890151610904601f891682610811565b8355505b6001600288020188555050505b50505050505056fea264697066735822122064c2dcda626ce38e8f67d5460187a1289e73d9b973798426313077092b532f7364736f6c63430008120033",
			"opcodes": "PUSH1 0x80 PUSH1 0x40 MSTORE CALLVALUE DUP1 ISZERO PUSH2 0x10 JUMPI PUSH1 0x0 DUP1 REVERT JUMPDEST POP PUSH2 0x953 DUP1 PUSH2 0x20 PUSH1 0x0 CODECOPY PUSH1 0x0 RETURN INVALID PUSH1 0x80 PUSH1 0x40 MSTORE CALLVALUE DUP1 ISZERO PUSH2 0x10 JUMPI PUSH1 0x0 DUP1 REVERT JUMPDEST POP PUSH1 0x4 CALLDATASIZE LT PUSH2 0x4C JUMPI PUSH1 0x0 CALLDATALOAD PUSH1 0xE0 SHR DUP1 PUSH4 0x1984892 EQ PUSH2 0x51 JUMPI DUP1 PUSH4 0x2EBA1C40 EQ PUSH2 0x81 JUMPI DUP1 PUSH4 0x5FD4B08A EQ PUSH2 0x9D JUMPI DUP1 PUSH4 0xD0AAB3FD EQ PUSH2 0xCD JUMPI JUMPDEST PUSH1 0x0 DUP1 REVERT JUMPDEST PUSH2 0x6B PUSH1 0x4 DUP1 CALLDATASIZE SUB DUP2 ADD SWAP1 PUSH2 0x66 SWAP2 SWAP1 PUSH2 0x3C5 JUMP JUMPDEST PUSH2 0xE9 JUMP JUMPDEST PUSH1 0x40 MLOAD PUSH2 0x78 SWAP2 SWAP1 PUSH2 0x482 JUMP JUMPDEST PUSH1 0x40 MLOAD DUP1 SWAP2 SUB SWAP1 RETURN JUMPDEST PUSH2 0x9B PUSH1 0x4 DUP1 CALLDATASIZE SUB DUP2 ADD SWAP1 PUSH2 0x96 SWAP2 SWAP1 PUSH2 0x3C5 JUMP JUMPDEST PUSH2 0x189 JUMP JUMPDEST STOP JUMPDEST PUSH2 0xB7 PUSH1 0x4 DUP1 CALLDATASIZE SUB DUP2 ADD SWAP1 PUSH2 0xB2 SWAP2 SWAP1 PUSH2 0x3C5 JUMP JUMPDEST PUSH2 0x1D6 JUMP JUMPDEST PUSH1 0x40 MLOAD PUSH2 0xC4 SWAP2 SWAP1 PUSH2 0x482 JUMP JUMPDEST PUSH1 0x40 MLOAD DUP1 SWAP2 SUB SWAP1 RETURN JUMPDEST PUSH2 0xE7 PUSH1 0x4 DUP1 CALLDATASIZE SUB DUP2 ADD SWAP1 PUSH2 0xE2 SWAP2 SWAP1 PUSH2 0x5D9 JUMP JUMPDEST PUSH2 0x2A6 JUMP JUMPDEST STOP JUMPDEST PUSH1 0x0 PUSH1 0x20 MSTORE DUP1 PUSH1 0x0 MSTORE PUSH1 0x40 PUSH1 0x0 KECCAK256 PUSH1 0x0 SWAP2 POP SWAP1 POP DUP1 SLOAD PUSH2 0x108 SWAP1 PUSH2 0x664 JUMP JUMPDEST DUP1 PUSH1 0x1F ADD PUSH1 0x20 DUP1 SWAP2 DIV MUL PUSH1 0x20 ADD PUSH1 0x40 MLOAD SWAP1 DUP2 ADD PUSH1 0x40 MSTORE DUP1 SWAP3 SWAP2 SWAP1 DUP2 DUP2 MSTORE PUSH1 0x20 ADD DUP3 DUP1 SLOAD PUSH2 0x134 SWAP1 PUSH2 0x664 JUMP JUMPDEST DUP1 ISZERO PUSH2 0x181 JUMPI DUP1 PUSH1 0x1F LT PUSH2 0x156 JUMPI PUSH2 0x100 DUP1 DUP4 SLOAD DIV MUL DUP4 MSTORE SWAP2 PUSH1 0x20 ADD SWAP2 PUSH2 0x181 JUMP JUMPDEST DUP3 ADD SWAP2 SWAP1 PUSH1 0x0 MSTORE PUSH1 0x20 PUSH1 0x0 KECCAK256 SWAP1 JUMPDEST DUP2 SLOAD DUP2 MSTORE SWAP1 PUSH1 0x1 ADD SWAP1 PUSH1 0x20 ADD DUP1 DUP4 GT PUSH2 0x164 JUMPI DUP3 SWAP1 SUB PUSH1 0x1F AND DUP3 ADD SWAP2 JUMPDEST POP POP POP POP POP DUP2 JUMP JUMPDEST PUSH1 0x0 DUP1 DUP3 PUSH20 0xFFFFFFFFFFFFFFFFFFFFFFFFFFFFFFFFFFFFFFFF AND PUSH20 0xFFFFFFFFFFFFFFFFFFFFFFFFFFFFFFFFFFFFFFFF AND DUP2 MSTORE PUSH1 0x20 ADD SWAP1 DUP2 MSTORE PUSH1 0x20 ADD PUSH1 0x0 KECCAK256 PUSH1 0x0 PUSH2 0x1D3 SWAP2 SWAP1 PUSH2 0x2F6 JUMP JUMPDEST POP JUMP JUMPDEST PUSH1 0x60 PUSH1 0x0 DUP1 DUP4 PUSH20 0xFFFFFFFFFFFFFFFFFFFFFFFFFFFFFFFFFFFFFFFF AND PUSH20 0xFFFFFFFFFFFFFFFFFFFFFFFFFFFFFFFFFFFFFFFF AND DUP2 MSTORE PUSH1 0x20 ADD SWAP1 DUP2 MSTORE PUSH1 0x20 ADD PUSH1 0x0 KECCAK256 DUP1 SLOAD PUSH2 0x221 SWAP1 PUSH2 0x664 JUMP JUMPDEST DUP1 PUSH1 0x1F ADD PUSH1 0x20 DUP1 SWAP2 DIV MUL PUSH1 0x20 ADD PUSH1 0x40 MLOAD SWAP1 DUP2 ADD PUSH1 0x40 MSTORE DUP1 SWAP3 SWAP2 SWAP1 DUP2 DUP2 MSTORE PUSH1 0x20 ADD DUP3 DUP1 SLOAD PUSH2 0x24D SWAP1 PUSH2 0x664 JUMP JUMPDEST DUP1 ISZERO PUSH2 0x29A JUMPI DUP1 PUSH1 0x1F LT PUSH2 0x26F JUMPI PUSH2 0x100 DUP1 DUP4 SLOAD DIV MUL DUP4 MSTORE SWAP2 PUSH1 0x20 ADD SWAP2 PUSH2 0x29A JUMP JUMPDEST DUP3 ADD SWAP2 SWAP1 PUSH1 0x0 MSTORE PUSH1 0x20 PUSH1 0x0 KECCAK256 SWAP1 JUMPDEST DUP2 SLOAD DUP2 MSTORE SWAP1 PUSH1 0x1 ADD SWAP1 PUSH1 0x20 ADD DUP1 DUP4 GT PUSH2 0x27D JUMPI DUP3 SWAP1 SUB PUSH1 0x1F AND DUP3 ADD SWAP2 JUMPDEST POP POP POP POP POP SWAP1 POP SWAP2 SWAP1 POP JUMP JUMPDEST DUP1 PUSH1 0x0 DUP1 DUP5 PUSH20 0xFFFFFFFFFFFFFFFFFFFFFFFFFFFFFFFFFFFFFFFF AND PUSH20 0xFFFFFFFFFFFFFFFFFFFFFFFFFFFFFFFFFFFFFFFF AND DUP2 MSTORE PUSH1 0x20 ADD SWAP1 DUP2 MSTORE PUSH1 0x20 ADD PUSH1 0x0 KECCAK256 SWAP1 DUP2 PUSH2 0x2F1 SWAP2 SWAP1 PUSH2 0x84B JUMP JUMPDEST POP POP POP JUMP JUMPDEST POP DUP1 SLOAD PUSH2 0x302 SWAP1 PUSH2 0x664 JUMP JUMPDEST PUSH1 0x0 DUP3 SSTORE DUP1 PUSH1 0x1F LT PUSH2 0x314 JUMPI POP PUSH2 0x333 JUMP JUMPDEST PUSH1 0x1F ADD PUSH1 0x20 SWAP1 DIV SWAP1 PUSH1 0x0 MSTORE PUSH1 0x20 PUSH1 0x0 KECCAK256 SWAP1 DUP2 ADD SWAP1 PUSH2 0x332 SWAP2 SWAP1 PUSH2 0x336 JUMP JUMPDEST JUMPDEST POP JUMP JUMPDEST JUMPDEST DUP1 DUP3 GT ISZERO PUSH2 0x34F JUMPI PUSH1 0x0 DUP2 PUSH1 0x0 SWAP1 SSTORE POP PUSH1 0x1 ADD PUSH2 0x337 JUMP JUMPDEST POP SWAP1 JUMP JUMPDEST PUSH1 0x0 PUSH1 0x40 MLOAD SWAP1 POP SWAP1 JUMP JUMPDEST PUSH1 0x0 DUP1 REVERT JUMPDEST PUSH1 0x0 DUP1 REVERT JUMPDEST PUSH1 0x0 PUSH20 0xFFFFFFFFFFFFFFFFFFFFFFFFFFFFFFFFFFFFFFFF DUP3 AND SWAP1 POP SWAP2 SWAP1 POP JUMP JUMPDEST PUSH1 0x0 PUSH2 0x392 DUP3 PUSH2 0x367 JUMP JUMPDEST SWAP1 POP SWAP2 SWAP1 POP JUMP JUMPDEST PUSH2 0x3A2 DUP2 PUSH2 0x387 JUMP JUMPDEST DUP2 EQ PUSH2 0x3AD JUMPI PUSH1 0x0 DUP1 REVERT JUMPDEST POP JUMP JUMPDEST PUSH1 0x0 DUP2 CALLDATALOAD SWAP1 POP PUSH2 0x3BF DUP2 PUSH2 0x399 JUMP JUMPDEST SWAP3 SWAP2 POP POP JUMP JUMPDEST PUSH1 0x0 PUSH1 0x20 DUP3 DUP5 SUB SLT ISZERO PUSH2 0x3DB JUMPI PUSH2 0x3DA PUSH2 0x35D JUMP JUMPDEST JUMPDEST PUSH1 0x0 PUSH2 0x3E9 DUP5 DUP3 DUP6 ADD PUSH2 0x3B0 JUMP JUMPDEST SWAP2 POP POP SWAP3 SWAP2 POP POP JUMP JUMPDEST PUSH1 0x0 DUP2 MLOAD SWAP1 POP SWAP2 SWAP1 POP JUMP JUMPDEST PUSH1 0x0 DUP3 DUP3 MSTORE PUSH1 0x20 DUP3 ADD SWAP1 POP SWAP3 SWAP2 POP POP JUMP JUMPDEST PUSH1 0x0 JUMPDEST DUP4 DUP2 LT ISZERO PUSH2 0x42C JUMPI DUP1 DUP3 ADD MLOAD DUP2 DUP5 ADD MSTORE PUSH1 0x20 DUP2 ADD SWAP1 POP PUSH2 0x411 JUMP JUMPDEST PUSH1 0x0 DUP5 DUP5 ADD MSTORE POP POP POP POP JUMP JUMPDEST PUSH1 0x0 PUSH1 0x1F NOT PUSH1 0x1F DUP4 ADD AND SWAP1 POP SWAP2 SWAP1 POP JUMP JUMPDEST PUSH1 0x0 PUSH2 0x454 DUP3 PUSH2 0x3F2 JUMP JUMPDEST PUSH2 0x45E DUP2 DUP6 PUSH2 0x3FD JUMP JUMPDEST SWAP4 POP PUSH2 0x46E DUP2 DUP6 PUSH1 0x20 DUP7 ADD PUSH2 0x40E JUMP JUMPDEST PUSH2 0x477 DUP2 PUSH2 0x438 JUMP JUMPDEST DUP5 ADD SWAP2 POP POP SWAP3 SWAP2 POP POP JUMP JUMPDEST PUSH1 0x0 PUSH1 0x20 DUP3 ADD SWAP1 POP DUP2 DUP2 SUB PUSH1 0x0 DUP4 ADD MSTORE PUSH2 0x49C DUP2 DUP5 PUSH2 0x449 JUMP JUMPDEST SWAP1 POP SWAP3 SWAP2 POP POP JUMP JUMPDEST PUSH1 0x0 DUP1 REVERT JUMPDEST PUSH1 0x0 DUP1 REVERT JUMPDEST PUSH32 0x4E487B7100000000000000000000000000000000000000000000000000000000 PUSH1 0x0 MSTORE PUSH1 0x41 PUSH1 0x4 MSTORE PUSH1 0x24 PUSH1 0x0 REVERT JUMPDEST PUSH2 0x4E6 DUP3 PUSH2 0x438 JUMP JUMPDEST DUP2 ADD DUP2 DUP2 LT PUSH8 0xFFFFFFFFFFFFFFFF DUP3 GT OR ISZERO PUSH2 0x505 JUMPI PUSH2 0x504 PUSH2 0x4AE JUMP JUMPDEST JUMPDEST DUP1 PUSH1 0x40 MSTORE POP POP POP JUMP JUMPDEST PUSH1 0x0 PUSH2 0x518 PUSH2 0x353 JUMP JUMPDEST SWAP1 POP PUSH2 0x524 DUP3 DUP3 PUSH2 0x4DD JUMP JUMPDEST SWAP2 SWAP1 POP JUMP JUMPDEST PUSH1 0x0 PUSH8 0xFFFFFFFFFFFFFFFF DUP3 GT ISZERO PUSH2 0x544 JUMPI PUSH2 0x543 PUSH2 0x4AE JUMP JUMPDEST JUMPDEST PUSH2 0x54D DUP3 PUSH2 0x438 JUMP JUMPDEST SWAP1 POP PUSH1 0x20 DUP2 ADD SWAP1 POP SWAP2 SWAP1 POP JUMP JUMPDEST DUP3 DUP2 DUP4 CALLDATACOPY PUSH1 0x0 DUP4 DUP4 ADD MSTORE POP POP POP JUMP JUMPDEST PUSH1 0x0 PUSH2 0x57C PUSH2 0x577 DUP5 PUSH2 0x529 JUMP JUMPDEST PUSH2 0x50E JUMP JUMPDEST SWAP1 POP DUP3 DUP2 MSTORE PUSH1 0x20 DUP2 ADD DUP5 DUP5 DUP5 ADD GT ISZERO PUSH2 0x598 JUMPI PUSH2 0x597 PUSH2 0x4A9 JUMP JUMPDEST JUMPDEST PUSH2 0x5A3 DUP5 DUP3 DUP6 PUSH2 0x55A JUMP JUMPDEST POP SWAP4 SWAP3 POP POP POP JUMP JUMPDEST PUSH1 0x0 DUP3 PUSH1 0x1F DUP4 ADD SLT PUSH2 0x5C0 JUMPI PUSH2 0x5BF PUSH2 0x4A4 JUMP JUMPDEST JUMPDEST DUP2 CALLDATALOAD PUSH2 0x5D0 DUP5 DUP3 PUSH1 0x20 DUP7 ADD PUSH2 0x569 JUMP JUMPDEST SWAP2 POP POP SWAP3 SWAP2 POP POP JUMP JUMPDEST PUSH1 0x0 DUP1 PUSH1 0x40 DUP4 DUP6 SUB SLT ISZERO PUSH2 0x5F0 JUMPI PUSH2 0x5EF PUSH2 0x35D JUMP JUMPDEST JUMPDEST PUSH1 0x0 PUSH2 0x5FE DUP6 DUP3 DUP7 ADD PUSH2 0x3B0 JUMP JUMPDEST SWAP3 POP POP PUSH1 0x20 DUP4 ADD CALLDATALOAD PUSH8 0xFFFFFFFFFFFFFFFF DUP2 GT ISZERO PUSH2 0x61F JUMPI PUSH2 0x61E PUSH2 0x362 JUMP JUMPDEST JUMPDEST PUSH2 0x62B DUP6 DUP3 DUP7 ADD PUSH2 0x5AB JUMP JUMPDEST SWAP2 POP POP SWAP3 POP SWAP3 SWAP1 POP JUMP JUMPDEST PUSH32 0x4E487B7100000000000000000000000000000000000000000000000000000000 PUSH1 0x0 MSTORE PUSH1 0x22 PUSH1 0x4 MSTORE PUSH1 0x24 PUSH1 0x0 REVERT JUMPDEST PUSH1 0x0 PUSH1 0x2 DUP3 DIV SWAP1 POP PUSH1 0x1 DUP3 AND DUP1 PUSH2 0x67C JUMPI PUSH1 0x7F DUP3 AND SWAP2 POP JUMPDEST PUSH1 0x20 DUP3 LT DUP2 SUB PUSH2 0x68F JUMPI PUSH2 0x68E PUSH2 0x635 JUMP JUMPDEST JUMPDEST POP SWAP2 SWAP1 POP JUMP JUMPDEST PUSH1 0x0 DUP2 SWAP1 POP DUP2 PUSH1 0x0 MSTORE PUSH1 0x20 PUSH1 0x0 KECCAK256 SWAP1 POP SWAP2 SWAP1 POP JUMP JUMPDEST PUSH1 0x0 PUSH1 0x20 PUSH1 0x1F DUP4 ADD DIV SWAP1 POP SWAP2 SWAP1 POP JUMP JUMPDEST PUSH1 0x0 DUP3 DUP3 SHL SWAP1 POP SWAP3 SWAP2 POP POP JUMP JUMPDEST PUSH1 0x0 PUSH1 0x8 DUP4 MUL PUSH2 0x6F7 PUSH32 0xFFFFFFFFFFFFFFFFFFFFFFFFFFFFFFFFFFFFFFFFFFFFFFFFFFFFFFFFFFFFFFFF DUP3 PUSH2 0x6BA JUMP JUMPDEST PUSH2 0x701 DUP7 DUP4 PUSH2 0x6BA JUMP JUMPDEST SWAP6 POP DUP1 NOT DUP5 AND SWAP4 POP DUP1 DUP7 AND DUP5 OR SWAP3 POP POP POP SWAP4 SWAP3 POP POP POP JUMP JUMPDEST PUSH1 0x0 DUP2 SWAP1 POP SWAP2 SWAP1 POP JUMP JUMPDEST PUSH1 0x0 DUP2 SWAP1 POP SWAP2 SWAP1 POP JUMP JUMPDEST PUSH1 0x0 PUSH2 0x748 PUSH2 0x743 PUSH2 0x73E DUP5 PUSH2 0x719 JUMP JUMPDEST PUSH2 0x723 JUMP JUMPDEST PUSH2 0x719 JUMP JUMPDEST SWAP1 POP SWAP2 SWAP1 POP JUMP JUMPDEST PUSH1 0x0 DUP2 SWAP1 POP SWAP2 SWAP1 POP JUMP JUMPDEST PUSH2 0x762 DUP4 PUSH2 0x72D JUMP JUMPDEST PUSH2 0x776 PUSH2 0x76E DUP3 PUSH2 0x74F JUMP JUMPDEST DUP5 DUP5 SLOAD PUSH2 0x6C7 JUMP JUMPDEST DUP3 SSTORE POP POP POP POP JUMP JUMPDEST PUSH1 0x0 SWAP1 JUMP JUMPDEST PUSH2 0x78B PUSH2 0x77E JUMP JUMPDEST PUSH2 0x796 DUP2 DUP5 DUP5 PUSH2 0x759 JUMP JUMPDEST POP POP POP JUMP JUMPDEST JUMPDEST DUP2 DUP2 LT ISZERO PUSH2 0x7BA JUMPI PUSH2 0x7AF PUSH1 0x0 DUP3 PUSH2 0x783 JUMP JUMPDEST PUSH1 0x1 DUP2 ADD SWAP1 POP PUSH2 0x79C JUMP JUMPDEST POP POP JUMP JUMPDEST PUSH1 0x1F DUP3 GT ISZERO PUSH2 0x7FF JUMPI PUSH2 0x7D0 DUP2 PUSH2 0x695 JUMP JUMPDEST PUSH2 0x7D9 DUP5 PUSH2 0x6AA JUMP JUMPDEST DUP2 ADD PUSH1 0x20 DUP6 LT ISZERO PUSH2 0x7E8 JUMPI DUP2 SWAP1 POP JUMPDEST PUSH2 0x7FC PUSH2 0x7F4 DUP6 PUSH2 0x6AA JUMP JUMPDEST DUP4 ADD DUP3 PUSH2 0x79B JUMP JUMPDEST POP POP JUMPDEST POP POP POP JUMP JUMPDEST PUSH1 0x0 DUP3 DUP3 SHR SWAP1 POP SWAP3 SWAP2 POP POP JUMP JUMPDEST PUSH1 0x0 PUSH2 0x822 PUSH1 0x0 NOT DUP5 PUSH1 0x8 MUL PUSH2 0x804 JUMP JUMPDEST NOT DUP1 DUP4 AND SWAP2 POP POP SWAP3 SWAP2 POP POP JUMP JUMPDEST PUSH1 0x0 PUSH2 0x83B DUP4 DUP4 PUSH2 0x811 JUMP JUMPDEST SWAP2 POP DUP3 PUSH1 0x2 MUL DUP3 OR SWAP1 POP SWAP3 SWAP2 POP POP JUMP JUMPDEST PUSH2 0x854 DUP3 PUSH2 0x3F2 JUMP JUMPDEST PUSH8 0xFFFFFFFFFFFFFFFF DUP2 GT ISZERO PUSH2 0x86D JUMPI PUSH2 0x86C PUSH2 0x4AE JUMP JUMPDEST JUMPDEST PUSH2 0x877 DUP3 SLOAD PUSH2 0x664 JUMP JUMPDEST PUSH2 0x882 DUP3 DUP3 DUP6 PUSH2 0x7BE JUMP JUMPDEST PUSH1 0x0 PUSH1 0x20 SWAP1 POP PUSH1 0x1F DUP4 GT PUSH1 0x1 DUP2 EQ PUSH2 0x8B5 JUMPI PUSH1 0x0 DUP5 ISZERO PUSH2 0x8A3 JUMPI DUP3 DUP8 ADD MLOAD SWAP1 POP JUMPDEST PUSH2 0x8AD DUP6 DUP3 PUSH2 0x82F JUMP JUMPDEST DUP7 SSTORE POP PUSH2 0x915 JUMP JUMPDEST PUSH1 0x1F NOT DUP5 AND PUSH2 0x8C3 DUP7 PUSH2 0x695 JUMP JUMPDEST PUSH1 0x0 JUMPDEST DUP3 DUP2 LT ISZERO PUSH2 0x8EB JUMPI DUP5 DUP10 ADD MLOAD DUP3 SSTORE PUSH1 0x1 DUP3 ADD SWAP2 POP PUSH1 0x20 DUP6 ADD SWAP5 POP PUSH1 0x20 DUP2 ADD SWAP1 POP PUSH2 0x8C6 JUMP JUMPDEST DUP7 DUP4 LT ISZERO PUSH2 0x908 JUMPI DUP5 DUP10 ADD MLOAD PUSH2 0x904 PUSH1 0x1F DUP10 AND DUP3 PUSH2 0x811 JUMP JUMPDEST DUP4 SSTORE POP JUMPDEST PUSH1 0x1 PUSH1 0x2 DUP9 MUL ADD DUP9 SSTORE POP POP POP JUMPDEST POP POP POP POP POP POP JUMP INVALID LOG2 PUSH5 0x6970667358 0x22 SLT KECCAK256 PUSH5 0xC2DCDA626C 0xE3 DUP15 DUP16 PUSH8 0xD5460187A1289E73 0xD9 0xB9 PUSH20 0x798426313077092B532F7364736F6C6343000812 STOP CALLER "
		},
		"gasEstimates": {
			"creation": {
				"codeDepositCost": "477400",
				"executionCost": "511",
				"totalCost": "477911"
			},
			"external": {
				"addName(address,string)": "infinite",
				"deleteName(address)": "infinite",
				"getName(address)": "infinite",
				"name(address)": "infinite"
			}
		},
		"methodIdentifiers": {
			"addName(address,string)": "d0aab3fd",
			"deleteName(address)": "2eba1c40",
			"getName(address)": "5fd4b08a",
			"name(address)": "01984892"
		}
	},
	"abi": [
		{
			"inputs": [
				{
					"internalType": "address",
					"name": "key",
					"type": "address"
				},
				{
					"internalType": "string",
					"name": "_name",
					"type": "string"
				}
			],
			"name": "addName",
			"outputs": [],
			"stateMutability": "nonpayable",
			"type": "function"
		},
		{
			"inputs": [
				{
					"internalType": "address",
					"name": "key",
					"type": "address"
				}
			],
			"name": "deleteName",
			"outputs": [],
			"stateMutability": "nonpayable",
			"type": "function"
		},
		{
			"inputs": [
				{
					"internalType": "address",
					"name": "key",
					"type": "address"
				}
			],
			"name": "getName",
			"outputs": [
				{
					"internalType": "string",
					"name": "",
					"type": "string"
				}
			],
			"stateMutability": "view",
			"type": "function"
		},
		{
			"inputs": [
				{
					"internalType": "address",
					"name": "",
					"type": "address"
				}
			],
			"name": "name",
			"outputs": [
				{
					"internalType": "string",
					"name": "",
					"type": "string"
				}
			],
			"stateMutability": "view",
			"type": "function"
		}
	]
}