{
	"Projects/BlindAuction-Dapp/blindauction-contract/contracts/BlindAuction.sol": {
		"BlindAuction": {
			"abi": [
				{
					"inputs": [],
					"stateMutability": "nonpayable",
					"type": "constructor"
				},
				{
					"anonymous": false,
					"inputs": [
						{
							"indexed": false,
							"internalType": "address",
							"name": "winner",
							"type": "address"
						},
						{
							"indexed": false,
							"internalType": "uint256",
							"name": "highestBid",
							"type": "uint256"
						}
					],
					"name": "AuctionEnded",
					"type": "event"
				},
				{
					"anonymous": false,
					"inputs": [],
					"name": "AuctionInit",
					"type": "event"
				},
				{
					"anonymous": false,
					"inputs": [],
					"name": "BiddingStarted",
					"type": "event"
				},
				{
					"anonymous": false,
					"inputs": [],
					"name": "RevealStarted",
					"type": "event"
				},
				{
					"inputs": [],
					"name": "advancePhase",
					"outputs": [],
					"stateMutability": "nonpayable",
					"type": "function"
				},
				{
					"inputs": [],
					"name": "auctionEnd",
					"outputs": [],
					"stateMutability": "nonpayable",
					"type": "function"
				},
				{
					"inputs": [],
					"name": "beneficiary",
					"outputs": [
						{
							"internalType": "address payable",
							"name": "",
							"type": "address"
						}
					],
					"stateMutability": "view",
					"type": "function"
				},
				{
					"inputs": [
						{
							"internalType": "bytes32",
							"name": "_blindedBid",
							"type": "bytes32"
						}
					],
					"name": "bid",
					"outputs": [],
					"stateMutability": "payable",
					"type": "function"
				},
				{
					"inputs": [
						{
							"internalType": "address",
							"name": "",
							"type": "address"
						}
					],
					"name": "bids",
					"outputs": [
						{
							"internalType": "bytes32",
							"name": "blindedBid",
							"type": "bytes32"
						},
						{
							"internalType": "uint256",
							"name": "deposit",
							"type": "uint256"
						}
					],
					"stateMutability": "view",
					"type": "function"
				},
				{
					"inputs": [],
					"name": "checkRefund",
					"outputs": [
						{
							"internalType": "uint256",
							"name": "",
							"type": "uint256"
						}
					],
					"stateMutability": "view",
					"type": "function"
				},
				{
					"inputs": [],
					"name": "currentPhase",
					"outputs": [
						{
							"internalType": "enum BlindAuction.Phase",
							"name": "",
							"type": "uint8"
						}
					],
					"stateMutability": "view",
					"type": "function"
				},
				{
					"inputs": [],
					"name": "highestBid",
					"outputs": [
						{
							"internalType": "uint256",
							"name": "",
							"type": "uint256"
						}
					],
					"stateMutability": "view",
					"type": "function"
				},
				{
					"inputs": [],
					"name": "highestBidder",
					"outputs": [
						{
							"internalType": "address",
							"name": "",
							"type": "address"
						}
					],
					"stateMutability": "view",
					"type": "function"
				},
				{
					"inputs": [
						{
							"internalType": "uint256",
							"name": "_value",
							"type": "uint256"
						},
						{
							"internalType": "bytes32",
							"name": "_secret",
							"type": "bytes32"
						}
					],
					"name": "reveal",
					"outputs": [],
					"stateMutability": "nonpayable",
					"type": "function"
				},
				{
					"inputs": [],
					"name": "withdraw",
					"outputs": [],
					"stateMutability": "nonpayable",
					"type": "function"
				}
			],
			"devdoc": {
				"kind": "dev",
				"methods": {},
				"version": 1
			},
			"evm": {
				"assembly": "    /* \"Projects/BlindAuction-Dapp/blindauction-contract/contracts/BlindAuction.sol\":72:3575  contract BlindAuction {... */\n  mstore(0x40, 0x80)\n    /* \"Projects/BlindAuction-Dapp/blindauction-contract/contracts/BlindAuction.sol\":360:370  Phase.Init */\n  0x00\n    /* \"Projects/BlindAuction-Dapp/blindauction-contract/contracts/BlindAuction.sol\":332:370  Phase public currentPhase = Phase.Init */\n  dup1\n  exp(0x0100, 0x14)\n  dup2\n  sload\n  dup2\n  0xff\n  mul\n  not\n  and\n  swap1\n  dup4\n  0x03\n  dup2\n  gt\n  iszero\n  tag_1\n  jumpi\n  tag_2\n  tag_3\n  jump\t// in\ntag_2:\ntag_1:\n  mul\n  or\n  swap1\n  sstore\n  pop\n    /* \"Projects/BlindAuction-Dapp/blindauction-contract/contracts/BlindAuction.sol\":950:1016  constructor() {... */\n  callvalue\n  dup1\n  iszero\n  tag_4\n  jumpi\n  0x00\n  dup1\n  revert\ntag_4:\n  pop\n    /* \"Projects/BlindAuction-Dapp/blindauction-contract/contracts/BlindAuction.sol\":997:1007  msg.sender */\n  caller\n    /* \"Projects/BlindAuction-Dapp/blindauction-contract/contracts/BlindAuction.sol\":975:986  beneficiary */\n  0x00\n  dup1\n    /* \"Projects/BlindAuction-Dapp/blindauction-contract/contracts/BlindAuction.sol\":975:1008  beneficiary = payable(msg.sender) */\n  0x0100\n  exp\n  dup2\n  sload\n  dup2\n  0xffffffffffffffffffffffffffffffffffffffff\n  mul\n  not\n  and\n  swap1\n  dup4\n  0xffffffffffffffffffffffffffffffffffffffff\n  and\n  mul\n  or\n  swap1\n  sstore\n  pop\n    /* \"Projects/BlindAuction-Dapp/blindauction-contract/contracts/BlindAuction.sol\":72:3575  contract BlindAuction {... */\n  jump(tag_7)\n    /* \"#utility.yul\":7:187   */\ntag_3:\n    /* \"#utility.yul\":55:132   */\n  0x4e487b7100000000000000000000000000000000000000000000000000000000\n    /* \"#utility.yul\":52:53   */\n  0x00\n    /* \"#utility.yul\":45:133   */\n  mstore\n    /* \"#utility.yul\":152:156   */\n  0x21\n    /* \"#utility.yul\":149:150   */\n  0x04\n    /* \"#utility.yul\":142:157   */\n  mstore\n    /* \"#utility.yul\":176:180   */\n  0x24\n    /* \"#utility.yul\":173:174   */\n  0x00\n    /* \"#utility.yul\":166:181   */\n  revert\n    /* \"Projects/BlindAuction-Dapp/blindauction-contract/contracts/BlindAuction.sol\":72:3575  contract BlindAuction {... */\ntag_7:\n  dataSize(sub_0)\n  dup1\n  dataOffset(sub_0)\n  0x00\n  codecopy\n  0x00\n  return\nstop\n\nsub_0: assembly {\n        /* \"Projects/BlindAuction-Dapp/blindauction-contract/contracts/BlindAuction.sol\":72:3575  contract BlindAuction {... */\n      mstore(0x40, 0x80)\n      jumpi(tag_1, lt(calldatasize, 0x04))\n      shr(0xe0, calldataload(0x00))\n      dup1\n      0x62ea82db\n      gt\n      tag_13\n      jumpi\n      dup1\n      0x62ea82db\n      eq\n      tag_7\n      jumpi\n      dup1\n      0x91f90157\n      eq\n      tag_8\n      jumpi\n      dup1\n      0x94c246d5\n      eq\n      tag_9\n      jumpi\n      dup1\n      0x957bb1e0\n      eq\n      tag_10\n      jumpi\n      dup1\n      0xbe25a718\n      eq\n      tag_11\n      jumpi\n      dup1\n      0xd57bde79\n      eq\n      tag_12\n      jumpi\n      jump(tag_1)\n    tag_13:\n      dup1\n      0x055ad42e\n      eq\n      tag_2\n      jumpi\n      dup1\n      0x2a24f46c\n      eq\n      tag_3\n      jumpi\n      dup1\n      0x38af3eed\n      eq\n      tag_4\n      jumpi\n      dup1\n      0x3ccfd60b\n      eq\n      tag_5\n      jumpi\n      dup1\n      0x4036778f\n      eq\n      tag_6\n      jumpi\n    tag_1:\n      0x00\n      dup1\n      revert\n        /* \"Projects/BlindAuction-Dapp/blindauction-contract/contracts/BlindAuction.sol\":332:370  Phase public currentPhase = Phase.Init */\n    tag_2:\n      callvalue\n      dup1\n      iszero\n      tag_14\n      jumpi\n      0x00\n      dup1\n      revert\n    tag_14:\n      pop\n      tag_15\n      tag_16\n      jump\t// in\n    tag_15:\n      mload(0x40)\n      tag_17\n      swap2\n      swap1\n      tag_18\n      jump\t// in\n    tag_17:\n      mload(0x40)\n      dup1\n      swap2\n      sub\n      swap1\n      return\n        /* \"Projects/BlindAuction-Dapp/blindauction-contract/contracts/BlindAuction.sol\":3342:3572  function auctionEnd() public onlyBeneficiary inPhase(Phase.Done) {... */\n    tag_3:\n      callvalue\n      dup1\n      iszero\n      tag_19\n      jumpi\n      0x00\n      dup1\n      revert\n    tag_19:\n      pop\n      tag_20\n      tag_21\n      jump\t// in\n    tag_20:\n      stop\n        /* \"Projects/BlindAuction-Dapp/blindauction-contract/contracts/BlindAuction.sol\":291:325  address payable public beneficiary */\n    tag_4:\n      callvalue\n      dup1\n      iszero\n      tag_22\n      jumpi\n      0x00\n      dup1\n      revert\n    tag_22:\n      pop\n      tag_23\n      tag_24\n      jump\t// in\n    tag_23:\n      mload(0x40)\n      tag_25\n      swap2\n      swap1\n      tag_26\n      jump\t// in\n    tag_25:\n      mload(0x40)\n      dup1\n      swap2\n      sub\n      swap1\n      return\n        /* \"Projects/BlindAuction-Dapp/blindauction-contract/contracts/BlindAuction.sol\":2969:3189  function withdraw() public {... */\n    tag_5:\n      callvalue\n      dup1\n      iszero\n      tag_27\n      jumpi\n      0x00\n      dup1\n      revert\n    tag_27:\n      pop\n      tag_28\n      tag_29\n      jump\t// in\n    tag_28:\n      stop\n        /* \"Projects/BlindAuction-Dapp/blindauction-contract/contracts/BlindAuction.sol\":1806:2961  function reveal(uint _value, bytes32 _secret) public inPhase(Phase.Reveal) {... */\n    tag_6:\n      callvalue\n      dup1\n      iszero\n      tag_30\n      jumpi\n      0x00\n      dup1\n      revert\n    tag_30:\n      pop\n      tag_31\n      0x04\n      dup1\n      calldatasize\n      sub\n      dup2\n      add\n      swap1\n      tag_32\n      swap2\n      swap1\n      tag_33\n      jump\t// in\n    tag_32:\n      tag_34\n      jump\t// in\n    tag_31:\n      stop\n        /* \"Projects/BlindAuction-Dapp/blindauction-contract/contracts/BlindAuction.sol\":379:414  mapping(address => Bid) public bids */\n    tag_7:\n      callvalue\n      dup1\n      iszero\n      tag_35\n      jumpi\n      0x00\n      dup1\n      revert\n    tag_35:\n      pop\n      tag_36\n      0x04\n      dup1\n      calldatasize\n      sub\n      dup2\n      add\n      swap1\n      tag_37\n      swap2\n      swap1\n      tag_38\n      jump\t// in\n    tag_37:\n      tag_39\n      jump\t// in\n    tag_36:\n      mload(0x40)\n      tag_40\n      swap3\n      swap2\n      swap1\n      tag_41\n      jump\t// in\n    tag_40:\n      mload(0x40)\n      dup1\n      swap2\n      sub\n      swap1\n      return\n        /* \"Projects/BlindAuction-Dapp/blindauction-contract/contracts/BlindAuction.sol\":489:517  address public highestBidder */\n    tag_8:\n      callvalue\n      dup1\n      iszero\n      tag_42\n      jumpi\n      0x00\n      dup1\n      revert\n    tag_42:\n      pop\n      tag_43\n      tag_44\n      jump\t// in\n    tag_43:\n      mload(0x40)\n      tag_45\n      swap2\n      swap1\n      tag_46\n      jump\t// in\n    tag_45:\n      mload(0x40)\n      dup1\n      swap2\n      sub\n      swap1\n      return\n        /* \"Projects/BlindAuction-Dapp/blindauction-contract/contracts/BlindAuction.sol\":3197:3334  function checkRefund()... */\n    tag_9:\n      callvalue\n      dup1\n      iszero\n      tag_47\n      jumpi\n      0x00\n      dup1\n      revert\n    tag_47:\n      pop\n      tag_48\n      tag_49\n      jump\t// in\n    tag_48:\n      mload(0x40)\n      tag_50\n      swap2\n      swap1\n      tag_51\n      jump\t// in\n    tag_50:\n      mload(0x40)\n      dup1\n      swap2\n      sub\n      swap1\n      return\n        /* \"Projects/BlindAuction-Dapp/blindauction-contract/contracts/BlindAuction.sol\":1601:1798  function bid(bytes32 _blindedBid) public payable inPhase(Phase.Bidding) {... */\n    tag_10:\n      tag_52\n      0x04\n      dup1\n      calldatasize\n      sub\n      dup2\n      add\n      swap1\n      tag_53\n      swap2\n      swap1\n      tag_54\n      jump\t// in\n    tag_53:\n      tag_55\n      jump\t// in\n    tag_52:\n      stop\n        /* \"Projects/BlindAuction-Dapp/blindauction-contract/contracts/BlindAuction.sol\":1024:1593  function advancePhase() public onlyBeneficiary {... */\n    tag_11:\n      callvalue\n      dup1\n      iszero\n      tag_56\n      jumpi\n      0x00\n      dup1\n      revert\n    tag_56:\n      pop\n      tag_57\n      tag_58\n      jump\t// in\n    tag_57:\n      stop\n        /* \"Projects/BlindAuction-Dapp/blindauction-contract/contracts/BlindAuction.sol\":524:546  uint public highestBid */\n    tag_12:\n      callvalue\n      dup1\n      iszero\n      tag_59\n      jumpi\n      0x00\n      dup1\n      revert\n    tag_59:\n      pop\n      tag_60\n      tag_61\n      jump\t// in\n    tag_60:\n      mload(0x40)\n      tag_62\n      swap2\n      swap1\n      tag_51\n      jump\t// in\n    tag_62:\n      mload(0x40)\n      dup1\n      swap2\n      sub\n      swap1\n      return\n        /* \"Projects/BlindAuction-Dapp/blindauction-contract/contracts/BlindAuction.sol\":332:370  Phase public currentPhase = Phase.Init */\n    tag_16:\n      0x00\n      0x14\n      swap1\n      sload\n      swap1\n      0x0100\n      exp\n      swap1\n      div\n      0xff\n      and\n      dup2\n      jump\t// out\n        /* \"Projects/BlindAuction-Dapp/blindauction-contract/contracts/BlindAuction.sol\":3342:3572  function auctionEnd() public onlyBeneficiary inPhase(Phase.Done) {... */\n    tag_21:\n        /* \"Projects/BlindAuction-Dapp/blindauction-contract/contracts/BlindAuction.sol\":758:769  beneficiary */\n      0x00\n      dup1\n      sload\n      swap1\n      0x0100\n      exp\n      swap1\n      div\n      0xffffffffffffffffffffffffffffffffffffffff\n      and\n        /* \"Projects/BlindAuction-Dapp/blindauction-contract/contracts/BlindAuction.sol\":744:769  msg.sender == beneficiary */\n      0xffffffffffffffffffffffffffffffffffffffff\n      and\n        /* \"Projects/BlindAuction-Dapp/blindauction-contract/contracts/BlindAuction.sol\":744:754  msg.sender */\n      caller\n        /* \"Projects/BlindAuction-Dapp/blindauction-contract/contracts/BlindAuction.sol\":744:769  msg.sender == beneficiary */\n      0xffffffffffffffffffffffffffffffffffffffff\n      and\n      eq\n        /* \"Projects/BlindAuction-Dapp/blindauction-contract/contracts/BlindAuction.sol\":736:804  require(msg.sender == beneficiary, \"Only beneficiary can call this\") */\n      tag_64\n      jumpi\n      mload(0x40)\n      0x08c379a000000000000000000000000000000000000000000000000000000000\n      dup2\n      mstore\n      0x04\n      add\n      tag_65\n      swap1\n      tag_66\n      jump\t// in\n    tag_65:\n      mload(0x40)\n      dup1\n      swap2\n      sub\n      swap1\n      revert\n    tag_64:\n        /* \"Projects/BlindAuction-Dapp/blindauction-contract/contracts/BlindAuction.sol\":3395:3405  Phase.Done */\n      0x03\n        /* \"Projects/BlindAuction-Dapp/blindauction-contract/contracts/BlindAuction.sol\":898:904  _phase */\n      dup1\n        /* \"Projects/BlindAuction-Dapp/blindauction-contract/contracts/BlindAuction.sol\":882:904  currentPhase == _phase */\n      0x03\n      dup2\n      gt\n      iszero\n      tag_68\n      jumpi\n      tag_69\n      tag_70\n      jump\t// in\n    tag_69:\n    tag_68:\n        /* \"Projects/BlindAuction-Dapp/blindauction-contract/contracts/BlindAuction.sol\":882:894  currentPhase */\n      0x00\n      0x14\n      swap1\n      sload\n      swap1\n      0x0100\n      exp\n      swap1\n      div\n      0xff\n      and\n        /* \"Projects/BlindAuction-Dapp/blindauction-contract/contracts/BlindAuction.sol\":882:904  currentPhase == _phase */\n      0x03\n      dup2\n      gt\n      iszero\n      tag_71\n      jumpi\n      tag_72\n      tag_70\n      jump\t// in\n    tag_72:\n    tag_71:\n      eq\n        /* \"Projects/BlindAuction-Dapp/blindauction-contract/contracts/BlindAuction.sol\":874:922  require(currentPhase == _phase, \"Invalid phase\") */\n      tag_73\n      jumpi\n      mload(0x40)\n      0x08c379a000000000000000000000000000000000000000000000000000000000\n      dup2\n      mstore\n      0x04\n      add\n      tag_74\n      swap1\n      tag_75\n      jump\t// in\n    tag_74:\n      mload(0x40)\n      dup1\n      swap2\n      sub\n      swap1\n      revert\n    tag_73:\n        /* \"Projects/BlindAuction-Dapp/blindauction-contract/contracts/BlindAuction.sol\":3447:3448  0 */\n      0x00\n        /* \"Projects/BlindAuction-Dapp/blindauction-contract/contracts/BlindAuction.sol\":3422:3449  highestBidder != address(0) */\n      0xffffffffffffffffffffffffffffffffffffffff\n      and\n        /* \"Projects/BlindAuction-Dapp/blindauction-contract/contracts/BlindAuction.sol\":3422:3435  highestBidder */\n      0x03\n      0x00\n      swap1\n      sload\n      swap1\n      0x0100\n      exp\n      swap1\n      div\n      0xffffffffffffffffffffffffffffffffffffffff\n      and\n        /* \"Projects/BlindAuction-Dapp/blindauction-contract/contracts/BlindAuction.sol\":3422:3449  highestBidder != address(0) */\n      0xffffffffffffffffffffffffffffffffffffffff\n      and\n      eq\n        /* \"Projects/BlindAuction-Dapp/blindauction-contract/contracts/BlindAuction.sol\":3418:3510  if (highestBidder != address(0)) {... */\n      tag_77\n      jumpi\n        /* \"Projects/BlindAuction-Dapp/blindauction-contract/contracts/BlindAuction.sol\":3466:3477  beneficiary */\n      0x00\n      dup1\n      sload\n      swap1\n      0x0100\n      exp\n      swap1\n      div\n      0xffffffffffffffffffffffffffffffffffffffff\n      and\n        /* \"Projects/BlindAuction-Dapp/blindauction-contract/contracts/BlindAuction.sol\":3466:3486  beneficiary.transfer */\n      0xffffffffffffffffffffffffffffffffffffffff\n      and\n        /* \"Projects/BlindAuction-Dapp/blindauction-contract/contracts/BlindAuction.sol\":3466:3498  beneficiary.transfer(highestBid) */\n      0x08fc\n        /* \"Projects/BlindAuction-Dapp/blindauction-contract/contracts/BlindAuction.sol\":3487:3497  highestBid */\n      sload(0x04)\n        /* \"Projects/BlindAuction-Dapp/blindauction-contract/contracts/BlindAuction.sol\":3466:3498  beneficiary.transfer(highestBid) */\n      swap1\n      dup2\n      iszero\n      mul\n      swap1\n      mload(0x40)\n      0x00\n      mload(0x40)\n      dup1\n      dup4\n      sub\n      dup2\n      dup6\n      dup9\n      dup9\n      call\n      swap4\n      pop\n      pop\n      pop\n      pop\n      iszero\n      dup1\n      iszero\n      tag_79\n      jumpi\n      returndatasize\n      0x00\n      dup1\n      returndatacopy\n      revert(0x00, returndatasize)\n    tag_79:\n      pop\n        /* \"Projects/BlindAuction-Dapp/blindauction-contract/contracts/BlindAuction.sol\":3418:3510  if (highestBidder != address(0)) {... */\n    tag_77:\n        /* \"Projects/BlindAuction-Dapp/blindauction-contract/contracts/BlindAuction.sol\":3525:3564  AuctionEnded(highestBidder, highestBid) */\n      0xdaec4582d5d9595688c8c98545fdd1c696d41c6aeaeb636737e84ed2f5c00eda\n        /* \"Projects/BlindAuction-Dapp/blindauction-contract/contracts/BlindAuction.sol\":3538:3551  highestBidder */\n      0x03\n      0x00\n      swap1\n      sload\n      swap1\n      0x0100\n      exp\n      swap1\n      div\n      0xffffffffffffffffffffffffffffffffffffffff\n      and\n        /* \"Projects/BlindAuction-Dapp/blindauction-contract/contracts/BlindAuction.sol\":3553:3563  highestBid */\n      sload(0x04)\n        /* \"Projects/BlindAuction-Dapp/blindauction-contract/contracts/BlindAuction.sol\":3525:3564  AuctionEnded(highestBidder, highestBid) */\n      mload(0x40)\n      tag_80\n      swap3\n      swap2\n      swap1\n      tag_81\n      jump\t// in\n    tag_80:\n      mload(0x40)\n      dup1\n      swap2\n      sub\n      swap1\n      log1\n        /* \"Projects/BlindAuction-Dapp/blindauction-contract/contracts/BlindAuction.sol\":815:816  _ */\n      pop\n        /* \"Projects/BlindAuction-Dapp/blindauction-contract/contracts/BlindAuction.sol\":3342:3572  function auctionEnd() public onlyBeneficiary inPhase(Phase.Done) {... */\n      jump\t// out\n        /* \"Projects/BlindAuction-Dapp/blindauction-contract/contracts/BlindAuction.sol\":291:325  address payable public beneficiary */\n    tag_24:\n      0x00\n      dup1\n      sload\n      swap1\n      0x0100\n      exp\n      swap1\n      div\n      0xffffffffffffffffffffffffffffffffffffffff\n      and\n      dup2\n      jump\t// out\n        /* \"Projects/BlindAuction-Dapp/blindauction-contract/contracts/BlindAuction.sol\":2969:3189  function withdraw() public {... */\n    tag_29:\n        /* \"Projects/BlindAuction-Dapp/blindauction-contract/contracts/BlindAuction.sol\":3007:3018  uint amount */\n      0x00\n        /* \"Projects/BlindAuction-Dapp/blindauction-contract/contracts/BlindAuction.sol\":3021:3035  pendingReturns */\n      0x02\n        /* \"Projects/BlindAuction-Dapp/blindauction-contract/contracts/BlindAuction.sol\":3021:3047  pendingReturns[msg.sender] */\n      0x00\n        /* \"Projects/BlindAuction-Dapp/blindauction-contract/contracts/BlindAuction.sol\":3036:3046  msg.sender */\n      caller\n        /* \"Projects/BlindAuction-Dapp/blindauction-contract/contracts/BlindAuction.sol\":3021:3047  pendingReturns[msg.sender] */\n      0xffffffffffffffffffffffffffffffffffffffff\n      and\n      0xffffffffffffffffffffffffffffffffffffffff\n      and\n      dup2\n      mstore\n      0x20\n      add\n      swap1\n      dup2\n      mstore\n      0x20\n      add\n      0x00\n      keccak256\n      sload\n        /* \"Projects/BlindAuction-Dapp/blindauction-contract/contracts/BlindAuction.sol\":3007:3047  uint amount = pendingReturns[msg.sender] */\n      swap1\n      pop\n        /* \"Projects/BlindAuction-Dapp/blindauction-contract/contracts/BlindAuction.sol\":3071:3072  0 */\n      0x00\n        /* \"Projects/BlindAuction-Dapp/blindauction-contract/contracts/BlindAuction.sol\":3062:3068  amount */\n      dup2\n        /* \"Projects/BlindAuction-Dapp/blindauction-contract/contracts/BlindAuction.sol\":3062:3072  amount > 0 */\n      gt\n        /* \"Projects/BlindAuction-Dapp/blindauction-contract/contracts/BlindAuction.sol\":3058:3182  if (amount > 0) {... */\n      iszero\n      tag_83\n      jumpi\n        /* \"Projects/BlindAuction-Dapp/blindauction-contract/contracts/BlindAuction.sol\":3118:3119  0 */\n      0x00\n        /* \"Projects/BlindAuction-Dapp/blindauction-contract/contracts/BlindAuction.sol\":3089:3103  pendingReturns */\n      0x02\n        /* \"Projects/BlindAuction-Dapp/blindauction-contract/contracts/BlindAuction.sol\":3089:3115  pendingReturns[msg.sender] */\n      0x00\n        /* \"Projects/BlindAuction-Dapp/blindauction-contract/contracts/BlindAuction.sol\":3104:3114  msg.sender */\n      caller\n        /* \"Projects/BlindAuction-Dapp/blindauction-contract/contracts/BlindAuction.sol\":3089:3115  pendingReturns[msg.sender] */\n      0xffffffffffffffffffffffffffffffffffffffff\n      and\n      0xffffffffffffffffffffffffffffffffffffffff\n      and\n      dup2\n      mstore\n      0x20\n      add\n      swap1\n      dup2\n      mstore\n      0x20\n      add\n      0x00\n      keccak256\n        /* \"Projects/BlindAuction-Dapp/blindauction-contract/contracts/BlindAuction.sol\":3089:3119  pendingReturns[msg.sender] = 0 */\n      dup2\n      swap1\n      sstore\n      pop\n        /* \"Projects/BlindAuction-Dapp/blindauction-contract/contracts/BlindAuction.sol\":3142:3152  msg.sender */\n      caller\n        /* \"Projects/BlindAuction-Dapp/blindauction-contract/contracts/BlindAuction.sol\":3134:3162  payable(msg.sender).transfer */\n      0xffffffffffffffffffffffffffffffffffffffff\n      and\n        /* \"Projects/BlindAuction-Dapp/blindauction-contract/contracts/BlindAuction.sol\":3134:3170  payable(msg.sender).transfer(amount) */\n      0x08fc\n        /* \"Projects/BlindAuction-Dapp/blindauction-contract/contracts/BlindAuction.sol\":3163:3169  amount */\n      dup3\n        /* \"Projects/BlindAuction-Dapp/blindauction-contract/contracts/BlindAuction.sol\":3134:3170  payable(msg.sender).transfer(amount) */\n      swap1\n      dup2\n      iszero\n      mul\n      swap1\n      mload(0x40)\n      0x00\n      mload(0x40)\n      dup1\n      dup4\n      sub\n      dup2\n      dup6\n      dup9\n      dup9\n      call\n      swap4\n      pop\n      pop\n      pop\n      pop\n      iszero\n      dup1\n      iszero\n      tag_85\n      jumpi\n      returndatasize\n      0x00\n      dup1\n      returndatacopy\n      revert(0x00, returndatasize)\n    tag_85:\n      pop\n        /* \"Projects/BlindAuction-Dapp/blindauction-contract/contracts/BlindAuction.sol\":3058:3182  if (amount > 0) {... */\n    tag_83:\n        /* \"Projects/BlindAuction-Dapp/blindauction-contract/contracts/BlindAuction.sol\":2996:3189  {... */\n      pop\n        /* \"Projects/BlindAuction-Dapp/blindauction-contract/contracts/BlindAuction.sol\":2969:3189  function withdraw() public {... */\n      jump\t// out\n        /* \"Projects/BlindAuction-Dapp/blindauction-contract/contracts/BlindAuction.sol\":1806:2961  function reveal(uint _value, bytes32 _secret) public inPhase(Phase.Reveal) {... */\n    tag_34:\n        /* \"Projects/BlindAuction-Dapp/blindauction-contract/contracts/BlindAuction.sol\":1867:1879  Phase.Reveal */\n      0x02\n        /* \"Projects/BlindAuction-Dapp/blindauction-contract/contracts/BlindAuction.sol\":898:904  _phase */\n      dup1\n        /* \"Projects/BlindAuction-Dapp/blindauction-contract/contracts/BlindAuction.sol\":882:904  currentPhase == _phase */\n      0x03\n      dup2\n      gt\n      iszero\n      tag_87\n      jumpi\n      tag_88\n      tag_70\n      jump\t// in\n    tag_88:\n    tag_87:\n        /* \"Projects/BlindAuction-Dapp/blindauction-contract/contracts/BlindAuction.sol\":882:894  currentPhase */\n      0x00\n      0x14\n      swap1\n      sload\n      swap1\n      0x0100\n      exp\n      swap1\n      div\n      0xff\n      and\n        /* \"Projects/BlindAuction-Dapp/blindauction-contract/contracts/BlindAuction.sol\":882:904  currentPhase == _phase */\n      0x03\n      dup2\n      gt\n      iszero\n      tag_89\n      jumpi\n      tag_90\n      tag_70\n      jump\t// in\n    tag_90:\n    tag_89:\n      eq\n        /* \"Projects/BlindAuction-Dapp/blindauction-contract/contracts/BlindAuction.sol\":874:922  require(currentPhase == _phase, \"Invalid phase\") */\n      tag_91\n      jumpi\n      mload(0x40)\n      0x08c379a000000000000000000000000000000000000000000000000000000000\n      dup2\n      mstore\n      0x04\n      add\n      tag_92\n      swap1\n      tag_75\n      jump\t// in\n    tag_92:\n      mload(0x40)\n      dup1\n      swap2\n      sub\n      swap1\n      revert\n    tag_91:\n        /* \"Projects/BlindAuction-Dapp/blindauction-contract/contracts/BlindAuction.sol\":1892:1914  Bid storage bidToCheck */\n      0x00\n        /* \"Projects/BlindAuction-Dapp/blindauction-contract/contracts/BlindAuction.sol\":1917:1921  bids */\n      0x01\n        /* \"Projects/BlindAuction-Dapp/blindauction-contract/contracts/BlindAuction.sol\":1917:1933  bids[msg.sender] */\n      0x00\n        /* \"Projects/BlindAuction-Dapp/blindauction-contract/contracts/BlindAuction.sol\":1922:1932  msg.sender */\n      caller\n        /* \"Projects/BlindAuction-Dapp/blindauction-contract/contracts/BlindAuction.sol\":1917:1933  bids[msg.sender] */\n      0xffffffffffffffffffffffffffffffffffffffff\n      and\n      0xffffffffffffffffffffffffffffffffffffffff\n      and\n      dup2\n      mstore\n      0x20\n      add\n      swap1\n      dup2\n      mstore\n      0x20\n      add\n      0x00\n      keccak256\n        /* \"Projects/BlindAuction-Dapp/blindauction-contract/contracts/BlindAuction.sol\":1892:1933  Bid storage bidToCheck = bids[msg.sender] */\n      swap1\n      pop\n        /* \"Projects/BlindAuction-Dapp/blindauction-contract/contracts/BlindAuction.sol\":2000:2006  _value */\n      dup4\n        /* \"Projects/BlindAuction-Dapp/blindauction-contract/contracts/BlindAuction.sol\":2008:2015  _secret */\n      dup4\n        /* \"Projects/BlindAuction-Dapp/blindauction-contract/contracts/BlindAuction.sol\":1983:2016  abi.encodePacked(_value, _secret) */\n      add(0x20, mload(0x40))\n      tag_94\n      swap3\n      swap2\n      swap1\n      tag_95\n      jump\t// in\n    tag_94:\n      mload(0x40)\n      0x20\n      dup2\n      dup4\n      sub\n      sub\n      dup2\n      mstore\n      swap1\n      0x40\n      mstore\n        /* \"Projects/BlindAuction-Dapp/blindauction-contract/contracts/BlindAuction.sol\":1973:2017  keccak256(abi.encodePacked(_value, _secret)) */\n      dup1\n      mload\n      swap1\n      0x20\n      add\n      keccak256\n        /* \"Projects/BlindAuction-Dapp/blindauction-contract/contracts/BlindAuction.sol\":1948:1958  bidToCheck */\n      dup2\n        /* \"Projects/BlindAuction-Dapp/blindauction-contract/contracts/BlindAuction.sol\":1948:1969  bidToCheck.blindedBid */\n      0x00\n      add\n      sload\n        /* \"Projects/BlindAuction-Dapp/blindauction-contract/contracts/BlindAuction.sol\":1948:2017  bidToCheck.blindedBid == keccak256(abi.encodePacked(_value, _secret)) */\n      sub\n        /* \"Projects/BlindAuction-Dapp/blindauction-contract/contracts/BlindAuction.sol\":1944:2909  if (bidToCheck.blindedBid == keccak256(abi.encodePacked(_value, _secret))) {... */\n      tag_96\n      jumpi\n        /* \"Projects/BlindAuction-Dapp/blindauction-contract/contracts/BlindAuction.sol\":2034:2045  uint refund */\n      0x00\n        /* \"Projects/BlindAuction-Dapp/blindauction-contract/contracts/BlindAuction.sol\":2048:2058  bidToCheck */\n      dup2\n        /* \"Projects/BlindAuction-Dapp/blindauction-contract/contracts/BlindAuction.sol\":2048:2066  bidToCheck.deposit */\n      0x01\n      add\n      sload\n        /* \"Projects/BlindAuction-Dapp/blindauction-contract/contracts/BlindAuction.sol\":2034:2066  uint refund = bidToCheck.deposit */\n      swap1\n      pop\n        /* \"Projects/BlindAuction-Dapp/blindauction-contract/contracts/BlindAuction.sol\":2104:2114  highestBid */\n      sload(0x04)\n        /* \"Projects/BlindAuction-Dapp/blindauction-contract/contracts/BlindAuction.sol\":2094:2101  1 ether */\n      0x0de0b6b3a7640000\n        /* \"Projects/BlindAuction-Dapp/blindauction-contract/contracts/BlindAuction.sol\":2085:2091  _value */\n      dup7\n        /* \"Projects/BlindAuction-Dapp/blindauction-contract/contracts/BlindAuction.sol\":2085:2101  _value * 1 ether */\n      tag_97\n      swap2\n      swap1\n      tag_98\n      jump\t// in\n    tag_97:\n        /* \"Projects/BlindAuction-Dapp/blindauction-contract/contracts/BlindAuction.sol\":2085:2114  _value * 1 ether > highestBid */\n      gt\n        /* \"Projects/BlindAuction-Dapp/blindauction-contract/contracts/BlindAuction.sol\":2081:2577  if (_value * 1 ether > highestBid) {... */\n      iszero\n      tag_99\n      jumpi\n        /* \"Projects/BlindAuction-Dapp/blindauction-contract/contracts/BlindAuction.sol\":2164:2165  0 */\n      0x00\n        /* \"Projects/BlindAuction-Dapp/blindauction-contract/contracts/BlindAuction.sol\":2139:2166  highestBidder != address(0) */\n      0xffffffffffffffffffffffffffffffffffffffff\n      and\n        /* \"Projects/BlindAuction-Dapp/blindauction-contract/contracts/BlindAuction.sol\":2139:2152  highestBidder */\n      0x03\n      0x00\n      swap1\n      sload\n      swap1\n      0x0100\n      exp\n      swap1\n      div\n      0xffffffffffffffffffffffffffffffffffffffff\n      and\n        /* \"Projects/BlindAuction-Dapp/blindauction-contract/contracts/BlindAuction.sol\":2139:2166  highestBidder != address(0) */\n      0xffffffffffffffffffffffffffffffffffffffff\n      and\n      eq\n        /* \"Projects/BlindAuction-Dapp/blindauction-contract/contracts/BlindAuction.sol\":2135:2329  if (highestBidder != address(0)) {... */\n      tag_100\n      jumpi\n        /* \"Projects/BlindAuction-Dapp/blindauction-contract/contracts/BlindAuction.sol\":2299:2309  highestBid */\n      sload(0x04)\n        /* \"Projects/BlindAuction-Dapp/blindauction-contract/contracts/BlindAuction.sol\":2266:2280  pendingReturns */\n      0x02\n        /* \"Projects/BlindAuction-Dapp/blindauction-contract/contracts/BlindAuction.sol\":2266:2295  pendingReturns[highestBidder] */\n      0x00\n        /* \"Projects/BlindAuction-Dapp/blindauction-contract/contracts/BlindAuction.sol\":2281:2294  highestBidder */\n      0x03\n      0x00\n      swap1\n      sload\n      swap1\n      0x0100\n      exp\n      swap1\n      div\n      0xffffffffffffffffffffffffffffffffffffffff\n      and\n        /* \"Projects/BlindAuction-Dapp/blindauction-contract/contracts/BlindAuction.sol\":2266:2295  pendingReturns[highestBidder] */\n      0xffffffffffffffffffffffffffffffffffffffff\n      and\n      0xffffffffffffffffffffffffffffffffffffffff\n      and\n      dup2\n      mstore\n      0x20\n      add\n      swap1\n      dup2\n      mstore\n      0x20\n      add\n      0x00\n      keccak256\n      0x00\n        /* \"Projects/BlindAuction-Dapp/blindauction-contract/contracts/BlindAuction.sol\":2266:2309  pendingReturns[highestBidder] += highestBid */\n      dup3\n      dup3\n      sload\n      tag_101\n      swap2\n      swap1\n      tag_102\n      jump\t// in\n    tag_101:\n      swap3\n      pop\n      pop\n      dup2\n      swap1\n      sstore\n      pop\n        /* \"Projects/BlindAuction-Dapp/blindauction-contract/contracts/BlindAuction.sol\":2135:2329  if (highestBidder != address(0)) {... */\n    tag_100:\n        /* \"Projects/BlindAuction-Dapp/blindauction-contract/contracts/BlindAuction.sol\":2423:2430  1 ether */\n      0x0de0b6b3a7640000\n        /* \"Projects/BlindAuction-Dapp/blindauction-contract/contracts/BlindAuction.sol\":2414:2420  _value */\n      dup6\n        /* \"Projects/BlindAuction-Dapp/blindauction-contract/contracts/BlindAuction.sol\":2414:2430  _value * 1 ether */\n      tag_103\n      swap2\n      swap1\n      tag_98\n      jump\t// in\n    tag_103:\n        /* \"Projects/BlindAuction-Dapp/blindauction-contract/contracts/BlindAuction.sol\":2401:2411  highestBid */\n      0x04\n        /* \"Projects/BlindAuction-Dapp/blindauction-contract/contracts/BlindAuction.sol\":2401:2430  highestBid = _value * 1 ether */\n      dup2\n      swap1\n      sstore\n      pop\n        /* \"Projects/BlindAuction-Dapp/blindauction-contract/contracts/BlindAuction.sol\":2465:2475  msg.sender */\n      caller\n        /* \"Projects/BlindAuction-Dapp/blindauction-contract/contracts/BlindAuction.sol\":2449:2462  highestBidder */\n      0x03\n      0x00\n        /* \"Projects/BlindAuction-Dapp/blindauction-contract/contracts/BlindAuction.sol\":2449:2475  highestBidder = msg.sender */\n      0x0100\n      exp\n      dup2\n      sload\n      dup2\n      0xffffffffffffffffffffffffffffffffffffffff\n      mul\n      not\n      and\n      swap1\n      dup4\n      0xffffffffffffffffffffffffffffffffffffffff\n      and\n      mul\n      or\n      swap1\n      sstore\n      pop\n        /* \"Projects/BlindAuction-Dapp/blindauction-contract/contracts/BlindAuction.sol\":2513:2520  1 ether */\n      0x0de0b6b3a7640000\n        /* \"Projects/BlindAuction-Dapp/blindauction-contract/contracts/BlindAuction.sol\":2504:2510  _value */\n      dup6\n        /* \"Projects/BlindAuction-Dapp/blindauction-contract/contracts/BlindAuction.sol\":2504:2520  _value * 1 ether */\n      tag_104\n      swap2\n      swap1\n      tag_98\n      jump\t// in\n    tag_104:\n        /* \"Projects/BlindAuction-Dapp/blindauction-contract/contracts/BlindAuction.sol\":2494:2520  refund -= _value * 1 ether */\n      dup2\n      tag_105\n      swap2\n      swap1\n      tag_106\n      jump\t// in\n    tag_105:\n      swap1\n      pop\n        /* \"Projects/BlindAuction-Dapp/blindauction-contract/contracts/BlindAuction.sol\":2081:2577  if (_value * 1 ether > highestBid) {... */\n    tag_99:\n        /* \"Projects/BlindAuction-Dapp/blindauction-contract/contracts/BlindAuction.sol\":2662:2663  0 */\n      0x00\n        /* \"Projects/BlindAuction-Dapp/blindauction-contract/contracts/BlindAuction.sol\":2653:2659  refund */\n      dup2\n        /* \"Projects/BlindAuction-Dapp/blindauction-contract/contracts/BlindAuction.sol\":2653:2663  refund > 0 */\n      gt\n        /* \"Projects/BlindAuction-Dapp/blindauction-contract/contracts/BlindAuction.sol\":2649:2736  if (refund > 0) {... */\n      iszero\n      tag_107\n      jumpi\n        /* \"Projects/BlindAuction-Dapp/blindauction-contract/contracts/BlindAuction.sol\":2714:2720  refund */\n      dup1\n        /* \"Projects/BlindAuction-Dapp/blindauction-contract/contracts/BlindAuction.sol\":2684:2698  pendingReturns */\n      0x02\n        /* \"Projects/BlindAuction-Dapp/blindauction-contract/contracts/BlindAuction.sol\":2684:2710  pendingReturns[msg.sender] */\n      0x00\n        /* \"Projects/BlindAuction-Dapp/blindauction-contract/contracts/BlindAuction.sol\":2699:2709  msg.sender */\n      caller\n        /* \"Projects/BlindAuction-Dapp/blindauction-contract/contracts/BlindAuction.sol\":2684:2710  pendingReturns[msg.sender] */\n      0xffffffffffffffffffffffffffffffffffffffff\n      and\n      0xffffffffffffffffffffffffffffffffffffffff\n      and\n      dup2\n      mstore\n      0x20\n      add\n      swap1\n      dup2\n      mstore\n      0x20\n      add\n      0x00\n      keccak256\n      0x00\n        /* \"Projects/BlindAuction-Dapp/blindauction-contract/contracts/BlindAuction.sol\":2684:2720  pendingReturns[msg.sender] += refund */\n      dup3\n      dup3\n      sload\n      tag_108\n      swap2\n      swap1\n      tag_102\n      jump\t// in\n    tag_108:\n      swap3\n      pop\n      pop\n      dup2\n      swap1\n      sstore\n      pop\n        /* \"Projects/BlindAuction-Dapp/blindauction-contract/contracts/BlindAuction.sol\":2649:2736  if (refund > 0) {... */\n    tag_107:\n        /* \"Projects/BlindAuction-Dapp/blindauction-contract/contracts/BlindAuction.sol\":2019:2747  {... */\n      pop\n        /* \"Projects/BlindAuction-Dapp/blindauction-contract/contracts/BlindAuction.sol\":1944:2909  if (bidToCheck.blindedBid == keccak256(abi.encodePacked(_value, _secret))) {... */\n      jump(tag_109)\n    tag_96:\n        /* \"Projects/BlindAuction-Dapp/blindauction-contract/contracts/BlindAuction.sol\":2879:2889  bidToCheck */\n      dup1\n        /* \"Projects/BlindAuction-Dapp/blindauction-contract/contracts/BlindAuction.sol\":2879:2897  bidToCheck.deposit */\n      0x01\n      add\n      sload\n        /* \"Projects/BlindAuction-Dapp/blindauction-contract/contracts/BlindAuction.sol\":2849:2863  pendingReturns */\n      0x02\n        /* \"Projects/BlindAuction-Dapp/blindauction-contract/contracts/BlindAuction.sol\":2849:2875  pendingReturns[msg.sender] */\n      0x00\n        /* \"Projects/BlindAuction-Dapp/blindauction-contract/contracts/BlindAuction.sol\":2864:2874  msg.sender */\n      caller\n        /* \"Projects/BlindAuction-Dapp/blindauction-contract/contracts/BlindAuction.sol\":2849:2875  pendingReturns[msg.sender] */\n      0xffffffffffffffffffffffffffffffffffffffff\n      and\n      0xffffffffffffffffffffffffffffffffffffffff\n      and\n      dup2\n      mstore\n      0x20\n      add\n      swap1\n      dup2\n      mstore\n      0x20\n      add\n      0x00\n      keccak256\n      0x00\n        /* \"Projects/BlindAuction-Dapp/blindauction-contract/contracts/BlindAuction.sol\":2849:2897  pendingReturns[msg.sender] += bidToCheck.deposit */\n      dup3\n      dup3\n      sload\n      tag_110\n      swap2\n      swap1\n      tag_102\n      jump\t// in\n    tag_110:\n      swap3\n      pop\n      pop\n      dup2\n      swap1\n      sstore\n      pop\n        /* \"Projects/BlindAuction-Dapp/blindauction-contract/contracts/BlindAuction.sol\":1944:2909  if (bidToCheck.blindedBid == keccak256(abi.encodePacked(_value, _secret))) {... */\n    tag_109:\n        /* \"Projects/BlindAuction-Dapp/blindauction-contract/contracts/BlindAuction.sol\":2951:2952  0 */\n      0x00\n        /* \"Projects/BlindAuction-Dapp/blindauction-contract/contracts/BlindAuction.sol\":2943:2953  bytes32(0) */\n      dup1\n      shl\n        /* \"Projects/BlindAuction-Dapp/blindauction-contract/contracts/BlindAuction.sol\":2919:2929  bidToCheck */\n      dup2\n        /* \"Projects/BlindAuction-Dapp/blindauction-contract/contracts/BlindAuction.sol\":2919:2940  bidToCheck.blindedBid */\n      0x00\n      add\n        /* \"Projects/BlindAuction-Dapp/blindauction-contract/contracts/BlindAuction.sol\":2919:2953  bidToCheck.blindedBid = bytes32(0) */\n      dup2\n      swap1\n      sstore\n      pop\n        /* \"Projects/BlindAuction-Dapp/blindauction-contract/contracts/BlindAuction.sol\":1881:2961  {... */\n      pop\n        /* \"Projects/BlindAuction-Dapp/blindauction-contract/contracts/BlindAuction.sol\":1806:2961  function reveal(uint _value, bytes32 _secret) public inPhase(Phase.Reveal) {... */\n      pop\n      pop\n      pop\n      jump\t// out\n        /* \"Projects/BlindAuction-Dapp/blindauction-contract/contracts/BlindAuction.sol\":379:414  mapping(address => Bid) public bids */\n    tag_39:\n      mstore(0x20, 0x01)\n      dup1\n      0x00\n      mstore\n      keccak256(0x00, 0x40)\n      0x00\n      swap2\n      pop\n      swap1\n      pop\n      dup1\n      0x00\n      add\n      sload\n      swap1\n      dup1\n      0x01\n      add\n      sload\n      swap1\n      pop\n      dup3\n      jump\t// out\n        /* \"Projects/BlindAuction-Dapp/blindauction-contract/contracts/BlindAuction.sol\":489:517  address public highestBidder */\n    tag_44:\n      0x03\n      0x00\n      swap1\n      sload\n      swap1\n      0x0100\n      exp\n      swap1\n      div\n      0xffffffffffffffffffffffffffffffffffffffff\n      and\n      dup2\n      jump\t// out\n        /* \"Projects/BlindAuction-Dapp/blindauction-contract/contracts/BlindAuction.sol\":3197:3334  function checkRefund()... */\n    tag_49:\n        /* \"Projects/BlindAuction-Dapp/blindauction-contract/contracts/BlindAuction.sol\":3268:3272  uint */\n      0x00\n        /* \"Projects/BlindAuction-Dapp/blindauction-contract/contracts/BlindAuction.sol\":3296:3310  pendingReturns */\n      0x02\n        /* \"Projects/BlindAuction-Dapp/blindauction-contract/contracts/BlindAuction.sol\":3296:3322  pendingReturns[msg.sender] */\n      0x00\n        /* \"Projects/BlindAuction-Dapp/blindauction-contract/contracts/BlindAuction.sol\":3311:3321  msg.sender */\n      caller\n        /* \"Projects/BlindAuction-Dapp/blindauction-contract/contracts/BlindAuction.sol\":3296:3322  pendingReturns[msg.sender] */\n      0xffffffffffffffffffffffffffffffffffffffff\n      and\n      0xffffffffffffffffffffffffffffffffffffffff\n      and\n      dup2\n      mstore\n      0x20\n      add\n      swap1\n      dup2\n      mstore\n      0x20\n      add\n      0x00\n      keccak256\n      sload\n        /* \"Projects/BlindAuction-Dapp/blindauction-contract/contracts/BlindAuction.sol\":3289:3322  return pendingReturns[msg.sender] */\n      swap1\n      pop\n        /* \"Projects/BlindAuction-Dapp/blindauction-contract/contracts/BlindAuction.sol\":3197:3334  function checkRefund()... */\n      swap1\n      jump\t// out\n        /* \"Projects/BlindAuction-Dapp/blindauction-contract/contracts/BlindAuction.sol\":1601:1798  function bid(bytes32 _blindedBid) public payable inPhase(Phase.Bidding) {... */\n    tag_55:\n        /* \"Projects/BlindAuction-Dapp/blindauction-contract/contracts/BlindAuction.sol\":1658:1671  Phase.Bidding */\n      0x01\n        /* \"Projects/BlindAuction-Dapp/blindauction-contract/contracts/BlindAuction.sol\":898:904  _phase */\n      dup1\n        /* \"Projects/BlindAuction-Dapp/blindauction-contract/contracts/BlindAuction.sol\":882:904  currentPhase == _phase */\n      0x03\n      dup2\n      gt\n      iszero\n      tag_113\n      jumpi\n      tag_114\n      tag_70\n      jump\t// in\n    tag_114:\n    tag_113:\n        /* \"Projects/BlindAuction-Dapp/blindauction-contract/contracts/BlindAuction.sol\":882:894  currentPhase */\n      0x00\n      0x14\n      swap1\n      sload\n      swap1\n      0x0100\n      exp\n      swap1\n      div\n      0xff\n      and\n        /* \"Projects/BlindAuction-Dapp/blindauction-contract/contracts/BlindAuction.sol\":882:904  currentPhase == _phase */\n      0x03\n      dup2\n      gt\n      iszero\n      tag_115\n      jumpi\n      tag_116\n      tag_70\n      jump\t// in\n    tag_116:\n    tag_115:\n      eq\n        /* \"Projects/BlindAuction-Dapp/blindauction-contract/contracts/BlindAuction.sol\":874:922  require(currentPhase == _phase, \"Invalid phase\") */\n      tag_117\n      jumpi\n      mload(0x40)\n      0x08c379a000000000000000000000000000000000000000000000000000000000\n      dup2\n      mstore\n      0x04\n      add\n      tag_118\n      swap1\n      tag_75\n      jump\t// in\n    tag_118:\n      mload(0x40)\n      dup1\n      swap2\n      sub\n      swap1\n      revert\n    tag_117:\n        /* \"Projects/BlindAuction-Dapp/blindauction-contract/contracts/BlindAuction.sol\":1703:1790  Bid({... */\n      mload(0x40)\n      dup1\n      0x40\n      add\n      0x40\n      mstore\n      dup1\n        /* \"Projects/BlindAuction-Dapp/blindauction-contract/contracts/BlindAuction.sol\":1734:1745  _blindedBid */\n      dup4\n        /* \"Projects/BlindAuction-Dapp/blindauction-contract/contracts/BlindAuction.sol\":1703:1790  Bid({... */\n      dup2\n      mstore\n      0x20\n      add\n        /* \"Projects/BlindAuction-Dapp/blindauction-contract/contracts/BlindAuction.sol\":1769:1778  msg.value */\n      callvalue\n        /* \"Projects/BlindAuction-Dapp/blindauction-contract/contracts/BlindAuction.sol\":1703:1790  Bid({... */\n      dup2\n      mstore\n      pop\n        /* \"Projects/BlindAuction-Dapp/blindauction-contract/contracts/BlindAuction.sol\":1684:1688  bids */\n      0x01\n        /* \"Projects/BlindAuction-Dapp/blindauction-contract/contracts/BlindAuction.sol\":1684:1700  bids[msg.sender] */\n      0x00\n        /* \"Projects/BlindAuction-Dapp/blindauction-contract/contracts/BlindAuction.sol\":1689:1699  msg.sender */\n      caller\n        /* \"Projects/BlindAuction-Dapp/blindauction-contract/contracts/BlindAuction.sol\":1684:1700  bids[msg.sender] */\n      0xffffffffffffffffffffffffffffffffffffffff\n      and\n      0xffffffffffffffffffffffffffffffffffffffff\n      and\n      dup2\n      mstore\n      0x20\n      add\n      swap1\n      dup2\n      mstore\n      0x20\n      add\n      0x00\n      keccak256\n        /* \"Projects/BlindAuction-Dapp/blindauction-contract/contracts/BlindAuction.sol\":1684:1790  bids[msg.sender] = Bid({... */\n      0x00\n      dup3\n      add\n      mload\n      dup2\n      0x00\n      add\n      sstore\n      0x20\n      dup3\n      add\n      mload\n      dup2\n      0x01\n      add\n      sstore\n      swap1\n      pop\n      pop\n        /* \"Projects/BlindAuction-Dapp/blindauction-contract/contracts/BlindAuction.sol\":1601:1798  function bid(bytes32 _blindedBid) public payable inPhase(Phase.Bidding) {... */\n      pop\n      pop\n      jump\t// out\n        /* \"Projects/BlindAuction-Dapp/blindauction-contract/contracts/BlindAuction.sol\":1024:1593  function advancePhase() public onlyBeneficiary {... */\n    tag_58:\n        /* \"Projects/BlindAuction-Dapp/blindauction-contract/contracts/BlindAuction.sol\":758:769  beneficiary */\n      0x00\n      dup1\n      sload\n      swap1\n      0x0100\n      exp\n      swap1\n      div\n      0xffffffffffffffffffffffffffffffffffffffff\n      and\n        /* \"Projects/BlindAuction-Dapp/blindauction-contract/contracts/BlindAuction.sol\":744:769  msg.sender == beneficiary */\n      0xffffffffffffffffffffffffffffffffffffffff\n      and\n        /* \"Projects/BlindAuction-Dapp/blindauction-contract/contracts/BlindAuction.sol\":744:754  msg.sender */\n      caller\n        /* \"Projects/BlindAuction-Dapp/blindauction-contract/contracts/BlindAuction.sol\":744:769  msg.sender == beneficiary */\n      0xffffffffffffffffffffffffffffffffffffffff\n      and\n      eq\n        /* \"Projects/BlindAuction-Dapp/blindauction-contract/contracts/BlindAuction.sol\":736:804  require(msg.sender == beneficiary, \"Only beneficiary can call this\") */\n      tag_121\n      jumpi\n      mload(0x40)\n      0x08c379a000000000000000000000000000000000000000000000000000000000\n      dup2\n      mstore\n      0x04\n      add\n      tag_122\n      swap1\n      tag_66\n      jump\t// in\n    tag_122:\n      mload(0x40)\n      dup1\n      swap2\n      sub\n      swap1\n      revert\n    tag_121:\n        /* \"Projects/BlindAuction-Dapp/blindauction-contract/contracts/BlindAuction.sol\":1102:1112  Phase.Done */\n      0x03\n        /* \"Projects/BlindAuction-Dapp/blindauction-contract/contracts/BlindAuction.sol\":1086:1112  currentPhase == Phase.Done */\n      dup1\n      dup2\n      gt\n      iszero\n      tag_124\n      jumpi\n      tag_125\n      tag_70\n      jump\t// in\n    tag_125:\n    tag_124:\n        /* \"Projects/BlindAuction-Dapp/blindauction-contract/contracts/BlindAuction.sol\":1086:1098  currentPhase */\n      0x00\n      0x14\n      swap1\n      sload\n      swap1\n      0x0100\n      exp\n      swap1\n      div\n      0xff\n      and\n        /* \"Projects/BlindAuction-Dapp/blindauction-contract/contracts/BlindAuction.sol\":1086:1112  currentPhase == Phase.Done */\n      0x03\n      dup2\n      gt\n      iszero\n      tag_126\n      jumpi\n      tag_127\n      tag_70\n      jump\t// in\n    tag_127:\n    tag_126:\n      sub\n        /* \"Projects/BlindAuction-Dapp/blindauction-contract/contracts/BlindAuction.sol\":1082:1172  if (currentPhase == Phase.Done) {... */\n      tag_128\n      jumpi\n        /* \"Projects/BlindAuction-Dapp/blindauction-contract/contracts/BlindAuction.sol\":1129:1160  revert(\"Auction already ended\") */\n      mload(0x40)\n      0x08c379a000000000000000000000000000000000000000000000000000000000\n      dup2\n      mstore\n      0x04\n      add\n      tag_129\n      swap1\n      tag_130\n      jump\t// in\n    tag_129:\n      mload(0x40)\n      dup1\n      swap2\n      sub\n      swap1\n      revert\n        /* \"Projects/BlindAuction-Dapp/blindauction-contract/contracts/BlindAuction.sol\":1082:1172  if (currentPhase == Phase.Done) {... */\n    tag_128:\n        /* \"Projects/BlindAuction-Dapp/blindauction-contract/contracts/BlindAuction.sol\":1202:1212  Phase.Init */\n      0x00\n        /* \"Projects/BlindAuction-Dapp/blindauction-contract/contracts/BlindAuction.sol\":1186:1212  currentPhase == Phase.Init */\n      0x03\n      dup2\n      gt\n      iszero\n      tag_131\n      jumpi\n      tag_132\n      tag_70\n      jump\t// in\n    tag_132:\n    tag_131:\n        /* \"Projects/BlindAuction-Dapp/blindauction-contract/contracts/BlindAuction.sol\":1186:1198  currentPhase */\n      0x00\n      0x14\n      swap1\n      sload\n      swap1\n      0x0100\n      exp\n      swap1\n      div\n      0xff\n      and\n        /* \"Projects/BlindAuction-Dapp/blindauction-contract/contracts/BlindAuction.sol\":1186:1212  currentPhase == Phase.Init */\n      0x03\n      dup2\n      gt\n      iszero\n      tag_133\n      jumpi\n      tag_134\n      tag_70\n      jump\t// in\n    tag_134:\n    tag_133:\n      sub\n        /* \"Projects/BlindAuction-Dapp/blindauction-contract/contracts/BlindAuction.sol\":1182:1586  if (currentPhase == Phase.Init) {... */\n      tag_135\n      jumpi\n        /* \"Projects/BlindAuction-Dapp/blindauction-contract/contracts/BlindAuction.sol\":1244:1257  Phase.Bidding */\n      0x01\n        /* \"Projects/BlindAuction-Dapp/blindauction-contract/contracts/BlindAuction.sol\":1229:1241  currentPhase */\n      0x00\n      0x14\n        /* \"Projects/BlindAuction-Dapp/blindauction-contract/contracts/BlindAuction.sol\":1229:1257  currentPhase = Phase.Bidding */\n      0x0100\n      exp\n      dup2\n      sload\n      dup2\n      0xff\n      mul\n      not\n      and\n      swap1\n      dup4\n      0x03\n      dup2\n      gt\n      iszero\n      tag_136\n      jumpi\n      tag_137\n      tag_70\n      jump\t// in\n    tag_137:\n    tag_136:\n      mul\n      or\n      swap1\n      sstore\n      pop\n        /* \"Projects/BlindAuction-Dapp/blindauction-contract/contracts/BlindAuction.sol\":1277:1293  BiddingStarted() */\n      0x02c124e22ee7da1c9905bbb317cf67658c1cc3ea1c0953b1633f85d0b5c281d9\n      mload(0x40)\n      mload(0x40)\n      dup1\n      swap2\n      sub\n      swap1\n      log1\n        /* \"Projects/BlindAuction-Dapp/blindauction-contract/contracts/BlindAuction.sol\":1182:1586  if (currentPhase == Phase.Init) {... */\n      jump(tag_138)\n    tag_135:\n        /* \"Projects/BlindAuction-Dapp/blindauction-contract/contracts/BlindAuction.sol\":1331:1344  Phase.Bidding */\n      0x01\n        /* \"Projects/BlindAuction-Dapp/blindauction-contract/contracts/BlindAuction.sol\":1315:1344  currentPhase == Phase.Bidding */\n      0x03\n      dup2\n      gt\n      iszero\n      tag_139\n      jumpi\n      tag_140\n      tag_70\n      jump\t// in\n    tag_140:\n    tag_139:\n        /* \"Projects/BlindAuction-Dapp/blindauction-contract/contracts/BlindAuction.sol\":1315:1327  currentPhase */\n      0x00\n      0x14\n      swap1\n      sload\n      swap1\n      0x0100\n      exp\n      swap1\n      div\n      0xff\n      and\n        /* \"Projects/BlindAuction-Dapp/blindauction-contract/contracts/BlindAuction.sol\":1315:1344  currentPhase == Phase.Bidding */\n      0x03\n      dup2\n      gt\n      iszero\n      tag_141\n      jumpi\n      tag_142\n      tag_70\n      jump\t// in\n    tag_142:\n    tag_141:\n      sub\n        /* \"Projects/BlindAuction-Dapp/blindauction-contract/contracts/BlindAuction.sol\":1311:1586  if (currentPhase == Phase.Bidding) {... */\n      tag_143\n      jumpi\n        /* \"Projects/BlindAuction-Dapp/blindauction-contract/contracts/BlindAuction.sol\":1376:1388  Phase.Reveal */\n      0x02\n        /* \"Projects/BlindAuction-Dapp/blindauction-contract/contracts/BlindAuction.sol\":1361:1373  currentPhase */\n      0x00\n      0x14\n        /* \"Projects/BlindAuction-Dapp/blindauction-contract/contracts/BlindAuction.sol\":1361:1388  currentPhase = Phase.Reveal */\n      0x0100\n      exp\n      dup2\n      sload\n      dup2\n      0xff\n      mul\n      not\n      and\n      swap1\n      dup4\n      0x03\n      dup2\n      gt\n      iszero\n      tag_144\n      jumpi\n      tag_145\n      tag_70\n      jump\t// in\n    tag_145:\n    tag_144:\n      mul\n      or\n      swap1\n      sstore\n      pop\n        /* \"Projects/BlindAuction-Dapp/blindauction-contract/contracts/BlindAuction.sol\":1408:1423  RevealStarted() */\n      0x3bcc93d35219aa0512d7c0d1ca10b0231f473e3d5f9396877d1b7215ee0ab3d5\n      mload(0x40)\n      mload(0x40)\n      dup1\n      swap2\n      sub\n      swap1\n      log1\n        /* \"Projects/BlindAuction-Dapp/blindauction-contract/contracts/BlindAuction.sol\":1311:1586  if (currentPhase == Phase.Bidding) {... */\n      jump(tag_146)\n    tag_143:\n        /* \"Projects/BlindAuction-Dapp/blindauction-contract/contracts/BlindAuction.sol\":1461:1473  Phase.Reveal */\n      0x02\n        /* \"Projects/BlindAuction-Dapp/blindauction-contract/contracts/BlindAuction.sol\":1445:1473  currentPhase == Phase.Reveal */\n      0x03\n      dup2\n      gt\n      iszero\n      tag_147\n      jumpi\n      tag_148\n      tag_70\n      jump\t// in\n    tag_148:\n    tag_147:\n        /* \"Projects/BlindAuction-Dapp/blindauction-contract/contracts/BlindAuction.sol\":1445:1457  currentPhase */\n      0x00\n      0x14\n      swap1\n      sload\n      swap1\n      0x0100\n      exp\n      swap1\n      div\n      0xff\n      and\n        /* \"Projects/BlindAuction-Dapp/blindauction-contract/contracts/BlindAuction.sol\":1445:1473  currentPhase == Phase.Reveal */\n      0x03\n      dup2\n      gt\n      iszero\n      tag_149\n      jumpi\n      tag_150\n      tag_70\n      jump\t// in\n    tag_150:\n    tag_149:\n      sub\n        /* \"Projects/BlindAuction-Dapp/blindauction-contract/contracts/BlindAuction.sol\":1441:1586  if (currentPhase == Phase.Reveal) {... */\n      tag_151\n      jumpi\n        /* \"Projects/BlindAuction-Dapp/blindauction-contract/contracts/BlindAuction.sol\":1505:1515  Phase.Done */\n      0x03\n        /* \"Projects/BlindAuction-Dapp/blindauction-contract/contracts/BlindAuction.sol\":1490:1502  currentPhase */\n      0x00\n      0x14\n        /* \"Projects/BlindAuction-Dapp/blindauction-contract/contracts/BlindAuction.sol\":1490:1515  currentPhase = Phase.Done */\n      0x0100\n      exp\n      dup2\n      sload\n      dup2\n      0xff\n      mul\n      not\n      and\n      swap1\n      dup4\n      0x03\n      dup2\n      gt\n      iszero\n      tag_152\n      jumpi\n      tag_153\n      tag_70\n      jump\t// in\n    tag_153:\n    tag_152:\n      mul\n      or\n      swap1\n      sstore\n      pop\n        /* \"Projects/BlindAuction-Dapp/blindauction-contract/contracts/BlindAuction.sol\":1535:1574  AuctionEnded(highestBidder, highestBid) */\n      0xdaec4582d5d9595688c8c98545fdd1c696d41c6aeaeb636737e84ed2f5c00eda\n        /* \"Projects/BlindAuction-Dapp/blindauction-contract/contracts/BlindAuction.sol\":1548:1561  highestBidder */\n      0x03\n      0x00\n      swap1\n      sload\n      swap1\n      0x0100\n      exp\n      swap1\n      div\n      0xffffffffffffffffffffffffffffffffffffffff\n      and\n        /* \"Projects/BlindAuction-Dapp/blindauction-contract/contracts/BlindAuction.sol\":1563:1573  highestBid */\n      sload(0x04)\n        /* \"Projects/BlindAuction-Dapp/blindauction-contract/contracts/BlindAuction.sol\":1535:1574  AuctionEnded(highestBidder, highestBid) */\n      mload(0x40)\n      tag_154\n      swap3\n      swap2\n      swap1\n      tag_81\n      jump\t// in\n    tag_154:\n      mload(0x40)\n      dup1\n      swap2\n      sub\n      swap1\n      log1\n        /* \"Projects/BlindAuction-Dapp/blindauction-contract/contracts/BlindAuction.sol\":1441:1586  if (currentPhase == Phase.Reveal) {... */\n    tag_151:\n        /* \"Projects/BlindAuction-Dapp/blindauction-contract/contracts/BlindAuction.sol\":1311:1586  if (currentPhase == Phase.Bidding) {... */\n    tag_146:\n        /* \"Projects/BlindAuction-Dapp/blindauction-contract/contracts/BlindAuction.sol\":1182:1586  if (currentPhase == Phase.Init) {... */\n    tag_138:\n        /* \"Projects/BlindAuction-Dapp/blindauction-contract/contracts/BlindAuction.sol\":1024:1593  function advancePhase() public onlyBeneficiary {... */\n      jump\t// out\n        /* \"Projects/BlindAuction-Dapp/blindauction-contract/contracts/BlindAuction.sol\":524:546  uint public highestBid */\n    tag_61:\n      sload(0x04)\n      dup2\n      jump\t// out\n        /* \"#utility.yul\":7:187   */\n    tag_70:\n        /* \"#utility.yul\":55:132   */\n      0x4e487b7100000000000000000000000000000000000000000000000000000000\n        /* \"#utility.yul\":52:53   */\n      0x00\n        /* \"#utility.yul\":45:133   */\n      mstore\n        /* \"#utility.yul\":152:156   */\n      0x21\n        /* \"#utility.yul\":149:150   */\n      0x04\n        /* \"#utility.yul\":142:157   */\n      mstore\n        /* \"#utility.yul\":176:180   */\n      0x24\n        /* \"#utility.yul\":173:174   */\n      0x00\n        /* \"#utility.yul\":166:181   */\n      revert\n        /* \"#utility.yul\":193:306   */\n    tag_155:\n        /* \"#utility.yul\":274:275   */\n      0x04\n        /* \"#utility.yul\":267:272   */\n      dup2\n        /* \"#utility.yul\":264:276   */\n      lt\n        /* \"#utility.yul\":254:300   */\n      tag_192\n      jumpi\n        /* \"#utility.yul\":280:298   */\n      tag_193\n      tag_70\n      jump\t// in\n    tag_193:\n        /* \"#utility.yul\":254:300   */\n    tag_192:\n        /* \"#utility.yul\":193:306   */\n      pop\n      jump\t// out\n        /* \"#utility.yul\":312:439   */\n    tag_156:\n        /* \"#utility.yul\":357:364   */\n      0x00\n        /* \"#utility.yul\":386:391   */\n      dup2\n        /* \"#utility.yul\":375:391   */\n      swap1\n      pop\n        /* \"#utility.yul\":392:433   */\n      tag_195\n        /* \"#utility.yul\":427:432   */\n      dup3\n        /* \"#utility.yul\":392:433   */\n      tag_155\n      jump\t// in\n    tag_195:\n        /* \"#utility.yul\":312:439   */\n      swap2\n      swap1\n      pop\n      jump\t// out\n        /* \"#utility.yul\":445:572   */\n    tag_157:\n        /* \"#utility.yul\":501:510   */\n      0x00\n        /* \"#utility.yul\":534:566   */\n      tag_197\n        /* \"#utility.yul\":560:565   */\n      dup3\n        /* \"#utility.yul\":534:566   */\n      tag_156\n      jump\t// in\n    tag_197:\n        /* \"#utility.yul\":521:566   */\n      swap1\n      pop\n        /* \"#utility.yul\":445:572   */\n      swap2\n      swap1\n      pop\n      jump\t// out\n        /* \"#utility.yul\":578:721   */\n    tag_158:\n        /* \"#utility.yul\":671:714   */\n      tag_199\n        /* \"#utility.yul\":708:713   */\n      dup2\n        /* \"#utility.yul\":671:714   */\n      tag_157\n      jump\t// in\n    tag_199:\n        /* \"#utility.yul\":666:669   */\n      dup3\n        /* \"#utility.yul\":659:715   */\n      mstore\n        /* \"#utility.yul\":578:721   */\n      pop\n      pop\n      jump\t// out\n        /* \"#utility.yul\":727:961   */\n    tag_18:\n        /* \"#utility.yul\":826:830   */\n      0x00\n        /* \"#utility.yul\":864:866   */\n      0x20\n        /* \"#utility.yul\":853:862   */\n      dup3\n        /* \"#utility.yul\":849:867   */\n      add\n        /* \"#utility.yul\":841:867   */\n      swap1\n      pop\n        /* \"#utility.yul\":877:954   */\n      tag_201\n        /* \"#utility.yul\":951:952   */\n      0x00\n        /* \"#utility.yul\":940:949   */\n      dup4\n        /* \"#utility.yul\":936:953   */\n      add\n        /* \"#utility.yul\":927:933   */\n      dup5\n        /* \"#utility.yul\":877:954   */\n      tag_158\n      jump\t// in\n    tag_201:\n        /* \"#utility.yul\":727:961   */\n      swap3\n      swap2\n      pop\n      pop\n      jump\t// out\n        /* \"#utility.yul\":967:1093   */\n    tag_159:\n        /* \"#utility.yul\":1004:1011   */\n      0x00\n        /* \"#utility.yul\":1044:1086   */\n      0xffffffffffffffffffffffffffffffffffffffff\n        /* \"#utility.yul\":1037:1042   */\n      dup3\n        /* \"#utility.yul\":1033:1087   */\n      and\n        /* \"#utility.yul\":1022:1087   */\n      swap1\n      pop\n        /* \"#utility.yul\":967:1093   */\n      swap2\n      swap1\n      pop\n      jump\t// out\n        /* \"#utility.yul\":1099:1203   */\n    tag_160:\n        /* \"#utility.yul\":1144:1151   */\n      0x00\n        /* \"#utility.yul\":1173:1197   */\n      tag_204\n        /* \"#utility.yul\":1191:1196   */\n      dup3\n        /* \"#utility.yul\":1173:1197   */\n      tag_159\n      jump\t// in\n    tag_204:\n        /* \"#utility.yul\":1162:1197   */\n      swap1\n      pop\n        /* \"#utility.yul\":1099:1203   */\n      swap2\n      swap1\n      pop\n      jump\t// out\n        /* \"#utility.yul\":1209:1351   */\n    tag_161:\n        /* \"#utility.yul\":1312:1344   */\n      tag_206\n        /* \"#utility.yul\":1338:1343   */\n      dup2\n        /* \"#utility.yul\":1312:1344   */\n      tag_160\n      jump\t// in\n    tag_206:\n        /* \"#utility.yul\":1307:1310   */\n      dup3\n        /* \"#utility.yul\":1300:1345   */\n      mstore\n        /* \"#utility.yul\":1209:1351   */\n      pop\n      pop\n      jump\t// out\n        /* \"#utility.yul\":1357:1611   */\n    tag_26:\n        /* \"#utility.yul\":1466:1470   */\n      0x00\n        /* \"#utility.yul\":1504:1506   */\n      0x20\n        /* \"#utility.yul\":1493:1502   */\n      dup3\n        /* \"#utility.yul\":1489:1507   */\n      add\n        /* \"#utility.yul\":1481:1507   */\n      swap1\n      pop\n        /* \"#utility.yul\":1517:1604   */\n      tag_208\n        /* \"#utility.yul\":1601:1602   */\n      0x00\n        /* \"#utility.yul\":1590:1599   */\n      dup4\n        /* \"#utility.yul\":1586:1603   */\n      add\n        /* \"#utility.yul\":1577:1583   */\n      dup5\n        /* \"#utility.yul\":1517:1604   */\n      tag_161\n      jump\t// in\n    tag_208:\n        /* \"#utility.yul\":1357:1611   */\n      swap3\n      swap2\n      pop\n      pop\n      jump\t// out\n        /* \"#utility.yul\":1698:1815   */\n    tag_163:\n        /* \"#utility.yul\":1807:1808   */\n      0x00\n        /* \"#utility.yul\":1804:1805   */\n      dup1\n        /* \"#utility.yul\":1797:1809   */\n      revert\n        /* \"#utility.yul\":1944:2021   */\n    tag_165:\n        /* \"#utility.yul\":1981:1988   */\n      0x00\n        /* \"#utility.yul\":2010:2015   */\n      dup2\n        /* \"#utility.yul\":1999:2015   */\n      swap1\n      pop\n        /* \"#utility.yul\":1944:2021   */\n      swap2\n      swap1\n      pop\n      jump\t// out\n        /* \"#utility.yul\":2027:2149   */\n    tag_166:\n        /* \"#utility.yul\":2100:2124   */\n      tag_214\n        /* \"#utility.yul\":2118:2123   */\n      dup2\n        /* \"#utility.yul\":2100:2124   */\n      tag_165\n      jump\t// in\n    tag_214:\n        /* \"#utility.yul\":2093:2098   */\n      dup2\n        /* \"#utility.yul\":2090:2125   */\n      eq\n        /* \"#utility.yul\":2080:2143   */\n      tag_215\n      jumpi\n        /* \"#utility.yul\":2139:2140   */\n      0x00\n        /* \"#utility.yul\":2136:2137   */\n      dup1\n        /* \"#utility.yul\":2129:2141   */\n      revert\n        /* \"#utility.yul\":2080:2143   */\n    tag_215:\n        /* \"#utility.yul\":2027:2149   */\n      pop\n      jump\t// out\n        /* \"#utility.yul\":2155:2294   */\n    tag_167:\n        /* \"#utility.yul\":2201:2206   */\n      0x00\n        /* \"#utility.yul\":2239:2245   */\n      dup2\n        /* \"#utility.yul\":2226:2246   */\n      calldataload\n        /* \"#utility.yul\":2217:2246   */\n      swap1\n      pop\n        /* \"#utility.yul\":2255:2288   */\n      tag_217\n        /* \"#utility.yul\":2282:2287   */\n      dup2\n        /* \"#utility.yul\":2255:2288   */\n      tag_166\n      jump\t// in\n    tag_217:\n        /* \"#utility.yul\":2155:2294   */\n      swap3\n      swap2\n      pop\n      pop\n      jump\t// out\n        /* \"#utility.yul\":2300:2377   */\n    tag_168:\n        /* \"#utility.yul\":2337:2344   */\n      0x00\n        /* \"#utility.yul\":2366:2371   */\n      dup2\n        /* \"#utility.yul\":2355:2371   */\n      swap1\n      pop\n        /* \"#utility.yul\":2300:2377   */\n      swap2\n      swap1\n      pop\n      jump\t// out\n        /* \"#utility.yul\":2383:2505   */\n    tag_169:\n        /* \"#utility.yul\":2456:2480   */\n      tag_220\n        /* \"#utility.yul\":2474:2479   */\n      dup2\n        /* \"#utility.yul\":2456:2480   */\n      tag_168\n      jump\t// in\n    tag_220:\n        /* \"#utility.yul\":2449:2454   */\n      dup2\n        /* \"#utility.yul\":2446:2481   */\n      eq\n        /* \"#utility.yul\":2436:2499   */\n      tag_221\n      jumpi\n        /* \"#utility.yul\":2495:2496   */\n      0x00\n        /* \"#utility.yul\":2492:2493   */\n      dup1\n        /* \"#utility.yul\":2485:2497   */\n      revert\n        /* \"#utility.yul\":2436:2499   */\n    tag_221:\n        /* \"#utility.yul\":2383:2505   */\n      pop\n      jump\t// out\n        /* \"#utility.yul\":2511:2650   */\n    tag_170:\n        /* \"#utility.yul\":2557:2562   */\n      0x00\n        /* \"#utility.yul\":2595:2601   */\n      dup2\n        /* \"#utility.yul\":2582:2602   */\n      calldataload\n        /* \"#utility.yul\":2573:2602   */\n      swap1\n      pop\n        /* \"#utility.yul\":2611:2644   */\n      tag_223\n        /* \"#utility.yul\":2638:2643   */\n      dup2\n        /* \"#utility.yul\":2611:2644   */\n      tag_169\n      jump\t// in\n    tag_223:\n        /* \"#utility.yul\":2511:2650   */\n      swap3\n      swap2\n      pop\n      pop\n      jump\t// out\n        /* \"#utility.yul\":2656:3130   */\n    tag_33:\n        /* \"#utility.yul\":2724:2730   */\n      0x00\n        /* \"#utility.yul\":2732:2738   */\n      dup1\n        /* \"#utility.yul\":2781:2783   */\n      0x40\n        /* \"#utility.yul\":2769:2778   */\n      dup4\n        /* \"#utility.yul\":2760:2767   */\n      dup6\n        /* \"#utility.yul\":2756:2779   */\n      sub\n        /* \"#utility.yul\":2752:2784   */\n      slt\n        /* \"#utility.yul\":2749:2868   */\n      iszero\n      tag_225\n      jumpi\n        /* \"#utility.yul\":2787:2866   */\n      tag_226\n      tag_163\n      jump\t// in\n    tag_226:\n        /* \"#utility.yul\":2749:2868   */\n    tag_225:\n        /* \"#utility.yul\":2907:2908   */\n      0x00\n        /* \"#utility.yul\":2932:2985   */\n      tag_227\n        /* \"#utility.yul\":2977:2984   */\n      dup6\n        /* \"#utility.yul\":2968:2974   */\n      dup3\n        /* \"#utility.yul\":2957:2966   */\n      dup7\n        /* \"#utility.yul\":2953:2975   */\n      add\n        /* \"#utility.yul\":2932:2985   */\n      tag_167\n      jump\t// in\n    tag_227:\n        /* \"#utility.yul\":2922:2985   */\n      swap3\n      pop\n        /* \"#utility.yul\":2878:2995   */\n      pop\n        /* \"#utility.yul\":3034:3036   */\n      0x20\n        /* \"#utility.yul\":3060:3113   */\n      tag_228\n        /* \"#utility.yul\":3105:3112   */\n      dup6\n        /* \"#utility.yul\":3096:3102   */\n      dup3\n        /* \"#utility.yul\":3085:3094   */\n      dup7\n        /* \"#utility.yul\":3081:3103   */\n      add\n        /* \"#utility.yul\":3060:3113   */\n      tag_170\n      jump\t// in\n    tag_228:\n        /* \"#utility.yul\":3050:3113   */\n      swap2\n      pop\n        /* \"#utility.yul\":3005:3123   */\n      pop\n        /* \"#utility.yul\":2656:3130   */\n      swap3\n      pop\n      swap3\n      swap1\n      pop\n      jump\t// out\n        /* \"#utility.yul\":3136:3232   */\n    tag_171:\n        /* \"#utility.yul\":3173:3180   */\n      0x00\n        /* \"#utility.yul\":3202:3226   */\n      tag_230\n        /* \"#utility.yul\":3220:3225   */\n      dup3\n        /* \"#utility.yul\":3202:3226   */\n      tag_159\n      jump\t// in\n    tag_230:\n        /* \"#utility.yul\":3191:3226   */\n      swap1\n      pop\n        /* \"#utility.yul\":3136:3232   */\n      swap2\n      swap1\n      pop\n      jump\t// out\n        /* \"#utility.yul\":3238:3360   */\n    tag_172:\n        /* \"#utility.yul\":3311:3335   */\n      tag_232\n        /* \"#utility.yul\":3329:3334   */\n      dup2\n        /* \"#utility.yul\":3311:3335   */\n      tag_171\n      jump\t// in\n    tag_232:\n        /* \"#utility.yul\":3304:3309   */\n      dup2\n        /* \"#utility.yul\":3301:3336   */\n      eq\n        /* \"#utility.yul\":3291:3354   */\n      tag_233\n      jumpi\n        /* \"#utility.yul\":3350:3351   */\n      0x00\n        /* \"#utility.yul\":3347:3348   */\n      dup1\n        /* \"#utility.yul\":3340:3352   */\n      revert\n        /* \"#utility.yul\":3291:3354   */\n    tag_233:\n        /* \"#utility.yul\":3238:3360   */\n      pop\n      jump\t// out\n        /* \"#utility.yul\":3366:3505   */\n    tag_173:\n        /* \"#utility.yul\":3412:3417   */\n      0x00\n        /* \"#utility.yul\":3450:3456   */\n      dup2\n        /* \"#utility.yul\":3437:3457   */\n      calldataload\n        /* \"#utility.yul\":3428:3457   */\n      swap1\n      pop\n        /* \"#utility.yul\":3466:3499   */\n      tag_235\n        /* \"#utility.yul\":3493:3498   */\n      dup2\n        /* \"#utility.yul\":3466:3499   */\n      tag_172\n      jump\t// in\n    tag_235:\n        /* \"#utility.yul\":3366:3505   */\n      swap3\n      swap2\n      pop\n      pop\n      jump\t// out\n        /* \"#utility.yul\":3511:3840   */\n    tag_38:\n        /* \"#utility.yul\":3570:3576   */\n      0x00\n        /* \"#utility.yul\":3619:3621   */\n      0x20\n        /* \"#utility.yul\":3607:3616   */\n      dup3\n        /* \"#utility.yul\":3598:3605   */\n      dup5\n        /* \"#utility.yul\":3594:3617   */\n      sub\n        /* \"#utility.yul\":3590:3622   */\n      slt\n        /* \"#utility.yul\":3587:3706   */\n      iszero\n      tag_237\n      jumpi\n        /* \"#utility.yul\":3625:3704   */\n      tag_238\n      tag_163\n      jump\t// in\n    tag_238:\n        /* \"#utility.yul\":3587:3706   */\n    tag_237:\n        /* \"#utility.yul\":3745:3746   */\n      0x00\n        /* \"#utility.yul\":3770:3823   */\n      tag_239\n        /* \"#utility.yul\":3815:3822   */\n      dup5\n        /* \"#utility.yul\":3806:3812   */\n      dup3\n        /* \"#utility.yul\":3795:3804   */\n      dup6\n        /* \"#utility.yul\":3791:3813   */\n      add\n        /* \"#utility.yul\":3770:3823   */\n      tag_173\n      jump\t// in\n    tag_239:\n        /* \"#utility.yul\":3760:3823   */\n      swap2\n      pop\n        /* \"#utility.yul\":3716:3833   */\n      pop\n        /* \"#utility.yul\":3511:3840   */\n      swap3\n      swap2\n      pop\n      pop\n      jump\t// out\n        /* \"#utility.yul\":3846:3964   */\n    tag_174:\n        /* \"#utility.yul\":3933:3957   */\n      tag_241\n        /* \"#utility.yul\":3951:3956   */\n      dup2\n        /* \"#utility.yul\":3933:3957   */\n      tag_168\n      jump\t// in\n    tag_241:\n        /* \"#utility.yul\":3928:3931   */\n      dup3\n        /* \"#utility.yul\":3921:3958   */\n      mstore\n        /* \"#utility.yul\":3846:3964   */\n      pop\n      pop\n      jump\t// out\n        /* \"#utility.yul\":3970:4088   */\n    tag_175:\n        /* \"#utility.yul\":4057:4081   */\n      tag_243\n        /* \"#utility.yul\":4075:4080   */\n      dup2\n        /* \"#utility.yul\":4057:4081   */\n      tag_165\n      jump\t// in\n    tag_243:\n        /* \"#utility.yul\":4052:4055   */\n      dup3\n        /* \"#utility.yul\":4045:4082   */\n      mstore\n        /* \"#utility.yul\":3970:4088   */\n      pop\n      pop\n      jump\t// out\n        /* \"#utility.yul\":4094:4426   */\n    tag_41:\n        /* \"#utility.yul\":4215:4219   */\n      0x00\n        /* \"#utility.yul\":4253:4255   */\n      0x40\n        /* \"#utility.yul\":4242:4251   */\n      dup3\n        /* \"#utility.yul\":4238:4256   */\n      add\n        /* \"#utility.yul\":4230:4256   */\n      swap1\n      pop\n        /* \"#utility.yul\":4266:4337   */\n      tag_245\n        /* \"#utility.yul\":4334:4335   */\n      0x00\n        /* \"#utility.yul\":4323:4332   */\n      dup4\n        /* \"#utility.yul\":4319:4336   */\n      add\n        /* \"#utility.yul\":4310:4316   */\n      dup6\n        /* \"#utility.yul\":4266:4337   */\n      tag_174\n      jump\t// in\n    tag_245:\n        /* \"#utility.yul\":4347:4419   */\n      tag_246\n        /* \"#utility.yul\":4415:4417   */\n      0x20\n        /* \"#utility.yul\":4404:4413   */\n      dup4\n        /* \"#utility.yul\":4400:4418   */\n      add\n        /* \"#utility.yul\":4391:4397   */\n      dup5\n        /* \"#utility.yul\":4347:4419   */\n      tag_175\n      jump\t// in\n    tag_246:\n        /* \"#utility.yul\":4094:4426   */\n      swap4\n      swap3\n      pop\n      pop\n      pop\n      jump\t// out\n        /* \"#utility.yul\":4432:4550   */\n    tag_176:\n        /* \"#utility.yul\":4519:4543   */\n      tag_248\n        /* \"#utility.yul\":4537:4542   */\n      dup2\n        /* \"#utility.yul\":4519:4543   */\n      tag_171\n      jump\t// in\n    tag_248:\n        /* \"#utility.yul\":4514:4517   */\n      dup3\n        /* \"#utility.yul\":4507:4544   */\n      mstore\n        /* \"#utility.yul\":4432:4550   */\n      pop\n      pop\n      jump\t// out\n        /* \"#utility.yul\":4556:4778   */\n    tag_46:\n        /* \"#utility.yul\":4649:4653   */\n      0x00\n        /* \"#utility.yul\":4687:4689   */\n      0x20\n        /* \"#utility.yul\":4676:4685   */\n      dup3\n        /* \"#utility.yul\":4672:4690   */\n      add\n        /* \"#utility.yul\":4664:4690   */\n      swap1\n      pop\n        /* \"#utility.yul\":4700:4771   */\n      tag_250\n        /* \"#utility.yul\":4768:4769   */\n      0x00\n        /* \"#utility.yul\":4757:4766   */\n      dup4\n        /* \"#utility.yul\":4753:4770   */\n      add\n        /* \"#utility.yul\":4744:4750   */\n      dup5\n        /* \"#utility.yul\":4700:4771   */\n      tag_176\n      jump\t// in\n    tag_250:\n        /* \"#utility.yul\":4556:4778   */\n      swap3\n      swap2\n      pop\n      pop\n      jump\t// out\n        /* \"#utility.yul\":4784:5006   */\n    tag_51:\n        /* \"#utility.yul\":4877:4881   */\n      0x00\n        /* \"#utility.yul\":4915:4917   */\n      0x20\n        /* \"#utility.yul\":4904:4913   */\n      dup3\n        /* \"#utility.yul\":4900:4918   */\n      add\n        /* \"#utility.yul\":4892:4918   */\n      swap1\n      pop\n        /* \"#utility.yul\":4928:4999   */\n      tag_252\n        /* \"#utility.yul\":4996:4997   */\n      0x00\n        /* \"#utility.yul\":4985:4994   */\n      dup4\n        /* \"#utility.yul\":4981:4998   */\n      add\n        /* \"#utility.yul\":4972:4978   */\n      dup5\n        /* \"#utility.yul\":4928:4999   */\n      tag_175\n      jump\t// in\n    tag_252:\n        /* \"#utility.yul\":4784:5006   */\n      swap3\n      swap2\n      pop\n      pop\n      jump\t// out\n        /* \"#utility.yul\":5012:5341   */\n    tag_54:\n        /* \"#utility.yul\":5071:5077   */\n      0x00\n        /* \"#utility.yul\":5120:5122   */\n      0x20\n        /* \"#utility.yul\":5108:5117   */\n      dup3\n        /* \"#utility.yul\":5099:5106   */\n      dup5\n        /* \"#utility.yul\":5095:5118   */\n      sub\n        /* \"#utility.yul\":5091:5123   */\n      slt\n        /* \"#utility.yul\":5088:5207   */\n      iszero\n      tag_254\n      jumpi\n        /* \"#utility.yul\":5126:5205   */\n      tag_255\n      tag_163\n      jump\t// in\n    tag_255:\n        /* \"#utility.yul\":5088:5207   */\n    tag_254:\n        /* \"#utility.yul\":5246:5247   */\n      0x00\n        /* \"#utility.yul\":5271:5324   */\n      tag_256\n        /* \"#utility.yul\":5316:5323   */\n      dup5\n        /* \"#utility.yul\":5307:5313   */\n      dup3\n        /* \"#utility.yul\":5296:5305   */\n      dup6\n        /* \"#utility.yul\":5292:5314   */\n      add\n        /* \"#utility.yul\":5271:5324   */\n      tag_170\n      jump\t// in\n    tag_256:\n        /* \"#utility.yul\":5261:5324   */\n      swap2\n      pop\n        /* \"#utility.yul\":5217:5334   */\n      pop\n        /* \"#utility.yul\":5012:5341   */\n      swap3\n      swap2\n      pop\n      pop\n      jump\t// out\n        /* \"#utility.yul\":5347:5516   */\n    tag_177:\n        /* \"#utility.yul\":5431:5442   */\n      0x00\n        /* \"#utility.yul\":5465:5471   */\n      dup3\n        /* \"#utility.yul\":5460:5463   */\n      dup3\n        /* \"#utility.yul\":5453:5472   */\n      mstore\n        /* \"#utility.yul\":5505:5509   */\n      0x20\n        /* \"#utility.yul\":5500:5503   */\n      dup3\n        /* \"#utility.yul\":5496:5510   */\n      add\n        /* \"#utility.yul\":5481:5510   */\n      swap1\n      pop\n        /* \"#utility.yul\":5347:5516   */\n      swap3\n      swap2\n      pop\n      pop\n      jump\t// out\n        /* \"#utility.yul\":5522:5702   */\n    tag_178:\n        /* \"#utility.yul\":5662:5694   */\n      0x4f6e6c792062656e65666963696172792063616e2063616c6c20746869730000\n        /* \"#utility.yul\":5658:5659   */\n      0x00\n        /* \"#utility.yul\":5650:5656   */\n      dup3\n        /* \"#utility.yul\":5646:5660   */\n      add\n        /* \"#utility.yul\":5639:5695   */\n      mstore\n        /* \"#utility.yul\":5522:5702   */\n      pop\n      jump\t// out\n        /* \"#utility.yul\":5708:6074   */\n    tag_179:\n        /* \"#utility.yul\":5850:5853   */\n      0x00\n        /* \"#utility.yul\":5871:5938   */\n      tag_260\n        /* \"#utility.yul\":5935:5937   */\n      0x1e\n        /* \"#utility.yul\":5930:5933   */\n      dup4\n        /* \"#utility.yul\":5871:5938   */\n      tag_177\n      jump\t// in\n    tag_260:\n        /* \"#utility.yul\":5864:5938   */\n      swap2\n      pop\n        /* \"#utility.yul\":5947:6040   */\n      tag_261\n        /* \"#utility.yul\":6036:6039   */\n      dup3\n        /* \"#utility.yul\":5947:6040   */\n      tag_178\n      jump\t// in\n    tag_261:\n        /* \"#utility.yul\":6065:6067   */\n      0x20\n        /* \"#utility.yul\":6060:6063   */\n      dup3\n        /* \"#utility.yul\":6056:6068   */\n      add\n        /* \"#utility.yul\":6049:6068   */\n      swap1\n      pop\n        /* \"#utility.yul\":5708:6074   */\n      swap2\n      swap1\n      pop\n      jump\t// out\n        /* \"#utility.yul\":6080:6499   */\n    tag_66:\n        /* \"#utility.yul\":6246:6250   */\n      0x00\n        /* \"#utility.yul\":6284:6286   */\n      0x20\n        /* \"#utility.yul\":6273:6282   */\n      dup3\n        /* \"#utility.yul\":6269:6287   */\n      add\n        /* \"#utility.yul\":6261:6287   */\n      swap1\n      pop\n        /* \"#utility.yul\":6333:6342   */\n      dup2\n        /* \"#utility.yul\":6327:6331   */\n      dup2\n        /* \"#utility.yul\":6323:6343   */\n      sub\n        /* \"#utility.yul\":6319:6320   */\n      0x00\n        /* \"#utility.yul\":6308:6317   */\n      dup4\n        /* \"#utility.yul\":6304:6321   */\n      add\n        /* \"#utility.yul\":6297:6344   */\n      mstore\n        /* \"#utility.yul\":6361:6492   */\n      tag_263\n        /* \"#utility.yul\":6487:6491   */\n      dup2\n        /* \"#utility.yul\":6361:6492   */\n      tag_179\n      jump\t// in\n    tag_263:\n        /* \"#utility.yul\":6353:6492   */\n      swap1\n      pop\n        /* \"#utility.yul\":6080:6499   */\n      swap2\n      swap1\n      pop\n      jump\t// out\n        /* \"#utility.yul\":6505:6668   */\n    tag_180:\n        /* \"#utility.yul\":6645:6660   */\n      0x496e76616c696420706861736500000000000000000000000000000000000000\n        /* \"#utility.yul\":6641:6642   */\n      0x00\n        /* \"#utility.yul\":6633:6639   */\n      dup3\n        /* \"#utility.yul\":6629:6643   */\n      add\n        /* \"#utility.yul\":6622:6661   */\n      mstore\n        /* \"#utility.yul\":6505:6668   */\n      pop\n      jump\t// out\n        /* \"#utility.yul\":6674:7040   */\n    tag_181:\n        /* \"#utility.yul\":6816:6819   */\n      0x00\n        /* \"#utility.yul\":6837:6904   */\n      tag_266\n        /* \"#utility.yul\":6901:6903   */\n      0x0d\n        /* \"#utility.yul\":6896:6899   */\n      dup4\n        /* \"#utility.yul\":6837:6904   */\n      tag_177\n      jump\t// in\n    tag_266:\n        /* \"#utility.yul\":6830:6904   */\n      swap2\n      pop\n        /* \"#utility.yul\":6913:7006   */\n      tag_267\n        /* \"#utility.yul\":7002:7005   */\n      dup3\n        /* \"#utility.yul\":6913:7006   */\n      tag_180\n      jump\t// in\n    tag_267:\n        /* \"#utility.yul\":7031:7033   */\n      0x20\n        /* \"#utility.yul\":7026:7029   */\n      dup3\n        /* \"#utility.yul\":7022:7034   */\n      add\n        /* \"#utility.yul\":7015:7034   */\n      swap1\n      pop\n        /* \"#utility.yul\":6674:7040   */\n      swap2\n      swap1\n      pop\n      jump\t// out\n        /* \"#utility.yul\":7046:7465   */\n    tag_75:\n        /* \"#utility.yul\":7212:7216   */\n      0x00\n        /* \"#utility.yul\":7250:7252   */\n      0x20\n        /* \"#utility.yul\":7239:7248   */\n      dup3\n        /* \"#utility.yul\":7235:7253   */\n      add\n        /* \"#utility.yul\":7227:7253   */\n      swap1\n      pop\n        /* \"#utility.yul\":7299:7308   */\n      dup2\n        /* \"#utility.yul\":7293:7297   */\n      dup2\n        /* \"#utility.yul\":7289:7309   */\n      sub\n        /* \"#utility.yul\":7285:7286   */\n      0x00\n        /* \"#utility.yul\":7274:7283   */\n      dup4\n        /* \"#utility.yul\":7270:7287   */\n      add\n        /* \"#utility.yul\":7263:7310   */\n      mstore\n        /* \"#utility.yul\":7327:7458   */\n      tag_269\n        /* \"#utility.yul\":7453:7457   */\n      dup2\n        /* \"#utility.yul\":7327:7458   */\n      tag_181\n      jump\t// in\n    tag_269:\n        /* \"#utility.yul\":7319:7458   */\n      swap1\n      pop\n        /* \"#utility.yul\":7046:7465   */\n      swap2\n      swap1\n      pop\n      jump\t// out\n        /* \"#utility.yul\":7471:7803   */\n    tag_81:\n        /* \"#utility.yul\":7592:7596   */\n      0x00\n        /* \"#utility.yul\":7630:7632   */\n      0x40\n        /* \"#utility.yul\":7619:7628   */\n      dup3\n        /* \"#utility.yul\":7615:7633   */\n      add\n        /* \"#utility.yul\":7607:7633   */\n      swap1\n      pop\n        /* \"#utility.yul\":7643:7714   */\n      tag_271\n        /* \"#utility.yul\":7711:7712   */\n      0x00\n        /* \"#utility.yul\":7700:7709   */\n      dup4\n        /* \"#utility.yul\":7696:7713   */\n      add\n        /* \"#utility.yul\":7687:7693   */\n      dup6\n        /* \"#utility.yul\":7643:7714   */\n      tag_176\n      jump\t// in\n    tag_271:\n        /* \"#utility.yul\":7724:7796   */\n      tag_272\n        /* \"#utility.yul\":7792:7794   */\n      0x20\n        /* \"#utility.yul\":7781:7790   */\n      dup4\n        /* \"#utility.yul\":7777:7795   */\n      add\n        /* \"#utility.yul\":7768:7774   */\n      dup5\n        /* \"#utility.yul\":7724:7796   */\n      tag_175\n      jump\t// in\n    tag_272:\n        /* \"#utility.yul\":7471:7803   */\n      swap4\n      swap3\n      pop\n      pop\n      pop\n      jump\t// out\n        /* \"#utility.yul\":7809:7888   */\n    tag_182:\n        /* \"#utility.yul\":7848:7855   */\n      0x00\n        /* \"#utility.yul\":7877:7882   */\n      dup2\n        /* \"#utility.yul\":7866:7882   */\n      swap1\n      pop\n        /* \"#utility.yul\":7809:7888   */\n      swap2\n      swap1\n      pop\n      jump\t// out\n        /* \"#utility.yul\":7894:8051   */\n    tag_183:\n        /* \"#utility.yul\":7999:8044   */\n      tag_275\n        /* \"#utility.yul\":8019:8043   */\n      tag_276\n        /* \"#utility.yul\":8037:8042   */\n      dup3\n        /* \"#utility.yul\":8019:8043   */\n      tag_165\n      jump\t// in\n    tag_276:\n        /* \"#utility.yul\":7999:8044   */\n      tag_182\n      jump\t// in\n    tag_275:\n        /* \"#utility.yul\":7994:7997   */\n      dup3\n        /* \"#utility.yul\":7987:8045   */\n      mstore\n        /* \"#utility.yul\":7894:8051   */\n      pop\n      pop\n      jump\t// out\n        /* \"#utility.yul\":8057:8136   */\n    tag_184:\n        /* \"#utility.yul\":8096:8103   */\n      0x00\n        /* \"#utility.yul\":8125:8130   */\n      dup2\n        /* \"#utility.yul\":8114:8130   */\n      swap1\n      pop\n        /* \"#utility.yul\":8057:8136   */\n      swap2\n      swap1\n      pop\n      jump\t// out\n        /* \"#utility.yul\":8142:8299   */\n    tag_185:\n        /* \"#utility.yul\":8247:8292   */\n      tag_279\n        /* \"#utility.yul\":8267:8291   */\n      tag_280\n        /* \"#utility.yul\":8285:8290   */\n      dup3\n        /* \"#utility.yul\":8267:8291   */\n      tag_168\n      jump\t// in\n    tag_280:\n        /* \"#utility.yul\":8247:8292   */\n      tag_184\n      jump\t// in\n    tag_279:\n        /* \"#utility.yul\":8242:8245   */\n      dup3\n        /* \"#utility.yul\":8235:8293   */\n      mstore\n        /* \"#utility.yul\":8142:8299   */\n      pop\n      pop\n      jump\t// out\n        /* \"#utility.yul\":8305:8702   */\n    tag_95:\n        /* \"#utility.yul\":8445:8448   */\n      0x00\n        /* \"#utility.yul\":8460:8535   */\n      tag_282\n        /* \"#utility.yul\":8531:8534   */\n      dup3\n        /* \"#utility.yul\":8522:8528   */\n      dup6\n        /* \"#utility.yul\":8460:8535   */\n      tag_183\n      jump\t// in\n    tag_282:\n        /* \"#utility.yul\":8560:8562   */\n      0x20\n        /* \"#utility.yul\":8555:8558   */\n      dup3\n        /* \"#utility.yul\":8551:8563   */\n      add\n        /* \"#utility.yul\":8544:8563   */\n      swap2\n      pop\n        /* \"#utility.yul\":8573:8648   */\n      tag_283\n        /* \"#utility.yul\":8644:8647   */\n      dup3\n        /* \"#utility.yul\":8635:8641   */\n      dup5\n        /* \"#utility.yul\":8573:8648   */\n      tag_185\n      jump\t// in\n    tag_283:\n        /* \"#utility.yul\":8673:8675   */\n      0x20\n        /* \"#utility.yul\":8668:8671   */\n      dup3\n        /* \"#utility.yul\":8664:8676   */\n      add\n        /* \"#utility.yul\":8657:8676   */\n      swap2\n      pop\n        /* \"#utility.yul\":8693:8696   */\n      dup2\n        /* \"#utility.yul\":8686:8696   */\n      swap1\n      pop\n        /* \"#utility.yul\":8305:8702   */\n      swap4\n      swap3\n      pop\n      pop\n      pop\n      jump\t// out\n        /* \"#utility.yul\":8708:8888   */\n    tag_186:\n        /* \"#utility.yul\":8756:8833   */\n      0x4e487b7100000000000000000000000000000000000000000000000000000000\n        /* \"#utility.yul\":8753:8754   */\n      0x00\n        /* \"#utility.yul\":8746:8834   */\n      mstore\n        /* \"#utility.yul\":8853:8857   */\n      0x11\n        /* \"#utility.yul\":8850:8851   */\n      0x04\n        /* \"#utility.yul\":8843:8858   */\n      mstore\n        /* \"#utility.yul\":8877:8881   */\n      0x24\n        /* \"#utility.yul\":8874:8875   */\n      0x00\n        /* \"#utility.yul\":8867:8882   */\n      revert\n        /* \"#utility.yul\":8894:9304   */\n    tag_98:\n        /* \"#utility.yul\":8934:8941   */\n      0x00\n        /* \"#utility.yul\":8957:8977   */\n      tag_286\n        /* \"#utility.yul\":8975:8976   */\n      dup3\n        /* \"#utility.yul\":8957:8977   */\n      tag_165\n      jump\t// in\n    tag_286:\n        /* \"#utility.yul\":8952:8977   */\n      swap2\n      pop\n        /* \"#utility.yul\":8991:9011   */\n      tag_287\n        /* \"#utility.yul\":9009:9010   */\n      dup4\n        /* \"#utility.yul\":8991:9011   */\n      tag_165\n      jump\t// in\n    tag_287:\n        /* \"#utility.yul\":8986:9011   */\n      swap3\n      pop\n        /* \"#utility.yul\":9046:9047   */\n      dup3\n        /* \"#utility.yul\":9043:9044   */\n      dup3\n        /* \"#utility.yul\":9039:9048   */\n      mul\n        /* \"#utility.yul\":9068:9098   */\n      tag_288\n        /* \"#utility.yul\":9086:9097   */\n      dup2\n        /* \"#utility.yul\":9068:9098   */\n      tag_165\n      jump\t// in\n    tag_288:\n        /* \"#utility.yul\":9057:9098   */\n      swap2\n      pop\n        /* \"#utility.yul\":9247:9248   */\n      dup3\n        /* \"#utility.yul\":9238:9245   */\n      dup3\n        /* \"#utility.yul\":9234:9249   */\n      div\n        /* \"#utility.yul\":9231:9232   */\n      dup5\n        /* \"#utility.yul\":9228:9250   */\n      eq\n        /* \"#utility.yul\":9208:9209   */\n      dup4\n        /* \"#utility.yul\":9201:9210   */\n      iszero\n        /* \"#utility.yul\":9181:9264   */\n      or\n        /* \"#utility.yul\":9158:9297   */\n      tag_289\n      jumpi\n        /* \"#utility.yul\":9277:9295   */\n      tag_290\n      tag_186\n      jump\t// in\n    tag_290:\n        /* \"#utility.yul\":9158:9297   */\n    tag_289:\n        /* \"#utility.yul\":8942:9304   */\n      pop\n        /* \"#utility.yul\":8894:9304   */\n      swap3\n      swap2\n      pop\n      pop\n      jump\t// out\n        /* \"#utility.yul\":9310:9501   */\n    tag_102:\n        /* \"#utility.yul\":9350:9353   */\n      0x00\n        /* \"#utility.yul\":9369:9389   */\n      tag_292\n        /* \"#utility.yul\":9387:9388   */\n      dup3\n        /* \"#utility.yul\":9369:9389   */\n      tag_165\n      jump\t// in\n    tag_292:\n        /* \"#utility.yul\":9364:9389   */\n      swap2\n      pop\n        /* \"#utility.yul\":9403:9423   */\n      tag_293\n        /* \"#utility.yul\":9421:9422   */\n      dup4\n        /* \"#utility.yul\":9403:9423   */\n      tag_165\n      jump\t// in\n    tag_293:\n        /* \"#utility.yul\":9398:9423   */\n      swap3\n      pop\n        /* \"#utility.yul\":9446:9447   */\n      dup3\n        /* \"#utility.yul\":9443:9444   */\n      dup3\n        /* \"#utility.yul\":9439:9448   */\n      add\n        /* \"#utility.yul\":9432:9448   */\n      swap1\n      pop\n        /* \"#utility.yul\":9467:9470   */\n      dup1\n        /* \"#utility.yul\":9464:9465   */\n      dup3\n        /* \"#utility.yul\":9461:9471   */\n      gt\n        /* \"#utility.yul\":9458:9494   */\n      iszero\n      tag_294\n      jumpi\n        /* \"#utility.yul\":9474:9492   */\n      tag_295\n      tag_186\n      jump\t// in\n    tag_295:\n        /* \"#utility.yul\":9458:9494   */\n    tag_294:\n        /* \"#utility.yul\":9310:9501   */\n      swap3\n      swap2\n      pop\n      pop\n      jump\t// out\n        /* \"#utility.yul\":9507:9701   */\n    tag_106:\n        /* \"#utility.yul\":9547:9551   */\n      0x00\n        /* \"#utility.yul\":9567:9587   */\n      tag_297\n        /* \"#utility.yul\":9585:9586   */\n      dup3\n        /* \"#utility.yul\":9567:9587   */\n      tag_165\n      jump\t// in\n    tag_297:\n        /* \"#utility.yul\":9562:9587   */\n      swap2\n      pop\n        /* \"#utility.yul\":9601:9621   */\n      tag_298\n        /* \"#utility.yul\":9619:9620   */\n      dup4\n        /* \"#utility.yul\":9601:9621   */\n      tag_165\n      jump\t// in\n    tag_298:\n        /* \"#utility.yul\":9596:9621   */\n      swap3\n      pop\n        /* \"#utility.yul\":9645:9646   */\n      dup3\n        /* \"#utility.yul\":9642:9643   */\n      dup3\n        /* \"#utility.yul\":9638:9647   */\n      sub\n        /* \"#utility.yul\":9630:9647   */\n      swap1\n      pop\n        /* \"#utility.yul\":9669:9670   */\n      dup2\n        /* \"#utility.yul\":9663:9667   */\n      dup2\n        /* \"#utility.yul\":9660:9671   */\n      gt\n        /* \"#utility.yul\":9657:9694   */\n      iszero\n      tag_299\n      jumpi\n        /* \"#utility.yul\":9674:9692   */\n      tag_300\n      tag_186\n      jump\t// in\n    tag_300:\n        /* \"#utility.yul\":9657:9694   */\n    tag_299:\n        /* \"#utility.yul\":9507:9701   */\n      swap3\n      swap2\n      pop\n      pop\n      jump\t// out\n        /* \"#utility.yul\":9707:9878   */\n    tag_187:\n        /* \"#utility.yul\":9847:9870   */\n      0x41756374696f6e20616c726561647920656e6465640000000000000000000000\n        /* \"#utility.yul\":9843:9844   */\n      0x00\n        /* \"#utility.yul\":9835:9841   */\n      dup3\n        /* \"#utility.yul\":9831:9845   */\n      add\n        /* \"#utility.yul\":9824:9871   */\n      mstore\n        /* \"#utility.yul\":9707:9878   */\n      pop\n      jump\t// out\n        /* \"#utility.yul\":9884:10250   */\n    tag_188:\n        /* \"#utility.yul\":10026:10029   */\n      0x00\n        /* \"#utility.yul\":10047:10114   */\n      tag_303\n        /* \"#utility.yul\":10111:10113   */\n      0x15\n        /* \"#utility.yul\":10106:10109   */\n      dup4\n        /* \"#utility.yul\":10047:10114   */\n      tag_177\n      jump\t// in\n    tag_303:\n        /* \"#utility.yul\":10040:10114   */\n      swap2\n      pop\n        /* \"#utility.yul\":10123:10216   */\n      tag_304\n        /* \"#utility.yul\":10212:10215   */\n      dup3\n        /* \"#utility.yul\":10123:10216   */\n      tag_187\n      jump\t// in\n    tag_304:\n        /* \"#utility.yul\":10241:10243   */\n      0x20\n        /* \"#utility.yul\":10236:10239   */\n      dup3\n        /* \"#utility.yul\":10232:10244   */\n      add\n        /* \"#utility.yul\":10225:10244   */\n      swap1\n      pop\n        /* \"#utility.yul\":9884:10250   */\n      swap2\n      swap1\n      pop\n      jump\t// out\n        /* \"#utility.yul\":10256:10675   */\n    tag_130:\n        /* \"#utility.yul\":10422:10426   */\n      0x00\n        /* \"#utility.yul\":10460:10462   */\n      0x20\n        /* \"#utility.yul\":10449:10458   */\n      dup3\n        /* \"#utility.yul\":10445:10463   */\n      add\n        /* \"#utility.yul\":10437:10463   */\n      swap1\n      pop\n        /* \"#utility.yul\":10509:10518   */\n      dup2\n        /* \"#utility.yul\":10503:10507   */\n      dup2\n        /* \"#utility.yul\":10499:10519   */\n      sub\n        /* \"#utility.yul\":10495:10496   */\n      0x00\n        /* \"#utility.yul\":10484:10493   */\n      dup4\n        /* \"#utility.yul\":10480:10497   */\n      add\n        /* \"#utility.yul\":10473:10520   */\n      mstore\n        /* \"#utility.yul\":10537:10668   */\n      tag_306\n        /* \"#utility.yul\":10663:10667   */\n      dup2\n        /* \"#utility.yul\":10537:10668   */\n      tag_188\n      jump\t// in\n    tag_306:\n        /* \"#utility.yul\":10529:10668   */\n      swap1\n      pop\n        /* \"#utility.yul\":10256:10675   */\n      swap2\n      swap1\n      pop\n      jump\t// out\n\n    auxdata: 0xa2646970667358221220cd26018871f1e9c6c8d95c92265efc3cb42fe140451be627f2a7bc70c3b8fb6364736f6c63430008120033\n}\n",
				"bytecode": {
					"linkReferences": {},
					"object": "608060405260008060146101000a81548160ff0219169083600381111561002957610028610080565b5b021790555034801561003a57600080fd5b50336000806101000a81548173ffffffffffffffffffffffffffffffffffffffff021916908373ffffffffffffffffffffffffffffffffffffffff1602179055506100af565b7f4e487b7100000000000000000000000000000000000000000000000000000000600052602160045260246000fd5b6112e1806100be6000396000f3fe60806040526004361061009c5760003560e01c806362ea82db1161006457806362ea82db1461014e57806391f901571461018c57806394c246d5146101b7578063957bb1e0146101e2578063be25a718146101fe578063d57bde79146102155761009c565b8063055ad42e146100a15780632a24f46c146100cc57806338af3eed146100e35780633ccfd60b1461010e5780634036778f14610125575b600080fd5b3480156100ad57600080fd5b506100b6610240565b6040516100c39190610d9a565b60405180910390f35b3480156100d857600080fd5b506100e1610253565b005b3480156100ef57600080fd5b506100f8610478565b6040516101059190610df6565b60405180910390f35b34801561011a57600080fd5b5061012361049c565b005b34801561013157600080fd5b5061014c60048036038101906101479190610e82565b610579565b005b34801561015a57600080fd5b5061017560048036038101906101709190610f00565b6108ad565b604051610183929190610f4b565b60405180910390f35b34801561019857600080fd5b506101a16108d1565b6040516101ae9190610f83565b60405180910390f35b3480156101c357600080fd5b506101cc6108f7565b6040516101d99190610f9e565b60405180910390f35b6101fc60048036038101906101f79190610fb9565b61093e565b005b34801561020a57600080fd5b50610213610a24565b005b34801561022157600080fd5b5061022a610d1d565b6040516102379190610f9e565b60405180910390f35b600060149054906101000a900460ff1681565b60008054906101000a900473ffffffffffffffffffffffffffffffffffffffff1673ffffffffffffffffffffffffffffffffffffffff163373ffffffffffffffffffffffffffffffffffffffff16146102e1576040517f08c379a00000000000000000000000000000000000000000000000000000000081526004016102d890611043565b60405180910390fd5b60038060038111156102f6576102f5610d23565b5b600060149054906101000a900460ff16600381111561031857610317610d23565b5b14610358576040517f08c379a000000000000000000000000000000000000000000000000000000000815260040161034f906110af565b60405180910390fd5b600073ffffffffffffffffffffffffffffffffffffffff16600360009054906101000a900473ffffffffffffffffffffffffffffffffffffffff1673ffffffffffffffffffffffffffffffffffffffff16146104185760008054906101000a900473ffffffffffffffffffffffffffffffffffffffff1673ffffffffffffffffffffffffffffffffffffffff166108fc6004549081150290604051600060405180830381858888f19350505050158015610416573d6000803e3d6000fd5b505b7fdaec4582d5d9595688c8c98545fdd1c696d41c6aeaeb636737e84ed2f5c00eda600360009054906101000a900473ffffffffffffffffffffffffffffffffffffffff1660045460405161046d9291906110cf565b60405180910390a150565b60008054906101000a900473ffffffffffffffffffffffffffffffffffffffff1681565b6000600260003373ffffffffffffffffffffffffffffffffffffffff1673ffffffffffffffffffffffffffffffffffffffff1681526020019081526020016000205490506000811115610576576000600260003373ffffffffffffffffffffffffffffffffffffffff1673ffffffffffffffffffffffffffffffffffffffff168152602001908152602001600020819055503373ffffffffffffffffffffffffffffffffffffffff166108fc829081150290604051600060405180830381858888f19350505050158015610574573d6000803e3d6000fd5b505b50565b600280600381111561058e5761058d610d23565b5b600060149054906101000a900460ff1660038111156105b0576105af610d23565b5b146105f0576040517f08c379a00000000000000000000000000000000000000000000000000000000081526004016105e7906110af565b60405180910390fd5b6000600160003373ffffffffffffffffffffffffffffffffffffffff1673ffffffffffffffffffffffffffffffffffffffff1681526020019081526020016000209050838360405160200161064692919061113a565b6040516020818303038152906040528051906020012081600001540361084057600081600101549050600454670de0b6b3a7640000866106869190611195565b11156107da57600073ffffffffffffffffffffffffffffffffffffffff16600360009054906101000a900473ffffffffffffffffffffffffffffffffffffffff1673ffffffffffffffffffffffffffffffffffffffff161461075d5760045460026000600360009054906101000a900473ffffffffffffffffffffffffffffffffffffffff1673ffffffffffffffffffffffffffffffffffffffff1673ffffffffffffffffffffffffffffffffffffffff168152602001908152602001600020600082825461075591906111d7565b925050819055505b670de0b6b3a7640000856107719190611195565b60048190555033600360006101000a81548173ffffffffffffffffffffffffffffffffffffffff021916908373ffffffffffffffffffffffffffffffffffffffff160217905550670de0b6b3a7640000856107cc9190611195565b816107d7919061120b565b90505b600081111561083a5780600260003373ffffffffffffffffffffffffffffffffffffffff1673ffffffffffffffffffffffffffffffffffffffff168152602001908152602001600020600082825461083291906111d7565b925050819055505b5061089b565b8060010154600260003373ffffffffffffffffffffffffffffffffffffffff1673ffffffffffffffffffffffffffffffffffffffff168152602001908152602001600020600082825461089391906111d7565b925050819055505b6000801b816000018190555050505050565b60016020528060005260406000206000915090508060000154908060010154905082565b600360009054906101000a900473ffffffffffffffffffffffffffffffffffffffff1681565b6000600260003373ffffffffffffffffffffffffffffffffffffffff1673ffffffffffffffffffffffffffffffffffffffff16815260200190815260200160002054905090565b600180600381111561095357610952610d23565b5b600060149054906101000a900460ff16600381111561097557610974610d23565b5b146109b5576040517f08c379a00000000000000000000000000000000000000000000000000000000081526004016109ac906110af565b60405180910390fd5b604051806040016040528083815260200134815250600160003373ffffffffffffffffffffffffffffffffffffffff1673ffffffffffffffffffffffffffffffffffffffff16815260200190815260200160002060008201518160000155602082015181600101559050505050565b60008054906101000a900473ffffffffffffffffffffffffffffffffffffffff1673ffffffffffffffffffffffffffffffffffffffff163373ffffffffffffffffffffffffffffffffffffffff1614610ab2576040517f08c379a0000000000000000000000000000000000000000000000000000000008152600401610aa990611043565b60405180910390fd5b600380811115610ac557610ac4610d23565b5b600060149054906101000a900460ff166003811115610ae757610ae6610d23565b5b03610b27576040517f08c379a0000000000000000000000000000000000000000000000000000000008152600401610b1e9061128b565b60405180910390fd5b60006003811115610b3b57610b3a610d23565b5b600060149054906101000a900460ff166003811115610b5d57610b5c610d23565b5b03610bbe576001600060146101000a81548160ff02191690836003811115610b8857610b87610d23565b5b02179055507f02c124e22ee7da1c9905bbb317cf67658c1cc3ea1c0953b1633f85d0b5c281d960405160405180910390a1610d1b565b60016003811115610bd257610bd1610d23565b5b600060149054906101000a900460ff166003811115610bf457610bf3610d23565b5b03610c55576002600060146101000a81548160ff02191690836003811115610c1f57610c1e610d23565b5b02179055507f3bcc93d35219aa0512d7c0d1ca10b0231f473e3d5f9396877d1b7215ee0ab3d560405160405180910390a1610d1a565b60026003811115610c6957610c68610d23565b5b600060149054906101000a900460ff166003811115610c8b57610c8a610d23565b5b03610d19576003600060146101000a81548160ff02191690836003811115610cb657610cb5610d23565b5b02179055507fdaec4582d5d9595688c8c98545fdd1c696d41c6aeaeb636737e84ed2f5c00eda600360009054906101000a900473ffffffffffffffffffffffffffffffffffffffff16600454604051610d109291906110cf565b60405180910390a15b5b5b565b60045481565b7f4e487b7100000000000000000000000000000000000000000000000000000000600052602160045260246000fd5b60048110610d6357610d62610d23565b5b50565b6000819050610d7482610d52565b919050565b6000610d8482610d66565b9050919050565b610d9481610d79565b82525050565b6000602082019050610daf6000830184610d8b565b92915050565b600073ffffffffffffffffffffffffffffffffffffffff82169050919050565b6000610de082610db5565b9050919050565b610df081610dd5565b82525050565b6000602082019050610e0b6000830184610de7565b92915050565b600080fd5b6000819050919050565b610e2981610e16565b8114610e3457600080fd5b50565b600081359050610e4681610e20565b92915050565b6000819050919050565b610e5f81610e4c565b8114610e6a57600080fd5b50565b600081359050610e7c81610e56565b92915050565b60008060408385031215610e9957610e98610e11565b5b6000610ea785828601610e37565b9250506020610eb885828601610e6d565b9150509250929050565b6000610ecd82610db5565b9050919050565b610edd81610ec2565b8114610ee857600080fd5b50565b600081359050610efa81610ed4565b92915050565b600060208284031215610f1657610f15610e11565b5b6000610f2484828501610eeb565b91505092915050565b610f3681610e4c565b82525050565b610f4581610e16565b82525050565b6000604082019050610f606000830185610f2d565b610f6d6020830184610f3c565b9392505050565b610f7d81610ec2565b82525050565b6000602082019050610f986000830184610f74565b92915050565b6000602082019050610fb36000830184610f3c565b92915050565b600060208284031215610fcf57610fce610e11565b5b6000610fdd84828501610e6d565b91505092915050565b600082825260208201905092915050565b7f4f6e6c792062656e65666963696172792063616e2063616c6c20746869730000600082015250565b600061102d601e83610fe6565b915061103882610ff7565b602082019050919050565b6000602082019050818103600083015261105c81611020565b9050919050565b7f496e76616c696420706861736500000000000000000000000000000000000000600082015250565b6000611099600d83610fe6565b91506110a482611063565b602082019050919050565b600060208201905081810360008301526110c88161108c565b9050919050565b60006040820190506110e46000830185610f74565b6110f16020830184610f3c565b9392505050565b6000819050919050565b61111361110e82610e16565b6110f8565b82525050565b6000819050919050565b61113461112f82610e4c565b611119565b82525050565b60006111468285611102565b6020820191506111568284611123565b6020820191508190509392505050565b7f4e487b7100000000000000000000000000000000000000000000000000000000600052601160045260246000fd5b60006111a082610e16565b91506111ab83610e16565b92508282026111b981610e16565b915082820484148315176111d0576111cf611166565b5b5092915050565b60006111e282610e16565b91506111ed83610e16565b925082820190508082111561120557611204611166565b5b92915050565b600061121682610e16565b915061122183610e16565b925082820390508181111561123957611238611166565b5b92915050565b7f41756374696f6e20616c726561647920656e6465640000000000000000000000600082015250565b6000611275601583610fe6565b91506112808261123f565b602082019050919050565b600060208201905081810360008301526112a481611268565b905091905056fea2646970667358221220cd26018871f1e9c6c8d95c92265efc3cb42fe140451be627f2a7bc70c3b8fb6364736f6c63430008120033",
					"opcodes": "PUSH1 0x80 PUSH1 0x40 MSTORE PUSH1 0x0 DUP1 PUSH1 0x14 PUSH2 0x100 EXP DUP2 SLOAD DUP2 PUSH1 0xFF MUL NOT AND SWAP1 DUP4 PUSH1 0x3 DUP2 GT ISZERO PUSH2 0x29 JUMPI PUSH2 0x28 PUSH2 0x80 JUMP JUMPDEST JUMPDEST MUL OR SWAP1 SSTORE POP CALLVALUE DUP1 ISZERO PUSH2 0x3A JUMPI PUSH1 0x0 DUP1 REVERT JUMPDEST POP CALLER PUSH1 0x0 DUP1 PUSH2 0x100 EXP DUP2 SLOAD DUP2 PUSH20 0xFFFFFFFFFFFFFFFFFFFFFFFFFFFFFFFFFFFFFFFF MUL NOT AND SWAP1 DUP4 PUSH20 0xFFFFFFFFFFFFFFFFFFFFFFFFFFFFFFFFFFFFFFFF AND MUL OR SWAP1 SSTORE POP PUSH2 0xAF JUMP JUMPDEST PUSH32 0x4E487B7100000000000000000000000000000000000000000000000000000000 PUSH1 0x0 MSTORE PUSH1 0x21 PUSH1 0x4 MSTORE PUSH1 0x24 PUSH1 0x0 REVERT JUMPDEST PUSH2 0x12E1 DUP1 PUSH2 0xBE PUSH1 0x0 CODECOPY PUSH1 0x0 RETURN INVALID PUSH1 0x80 PUSH1 0x40 MSTORE PUSH1 0x4 CALLDATASIZE LT PUSH2 0x9C JUMPI PUSH1 0x0 CALLDATALOAD PUSH1 0xE0 SHR DUP1 PUSH4 0x62EA82DB GT PUSH2 0x64 JUMPI DUP1 PUSH4 0x62EA82DB EQ PUSH2 0x14E JUMPI DUP1 PUSH4 0x91F90157 EQ PUSH2 0x18C JUMPI DUP1 PUSH4 0x94C246D5 EQ PUSH2 0x1B7 JUMPI DUP1 PUSH4 0x957BB1E0 EQ PUSH2 0x1E2 JUMPI DUP1 PUSH4 0xBE25A718 EQ PUSH2 0x1FE JUMPI DUP1 PUSH4 0xD57BDE79 EQ PUSH2 0x215 JUMPI PUSH2 0x9C JUMP JUMPDEST DUP1 PUSH4 0x55AD42E EQ PUSH2 0xA1 JUMPI DUP1 PUSH4 0x2A24F46C EQ PUSH2 0xCC JUMPI DUP1 PUSH4 0x38AF3EED EQ PUSH2 0xE3 JUMPI DUP1 PUSH4 0x3CCFD60B EQ PUSH2 0x10E JUMPI DUP1 PUSH4 0x4036778F EQ PUSH2 0x125 JUMPI JUMPDEST PUSH1 0x0 DUP1 REVERT JUMPDEST CALLVALUE DUP1 ISZERO PUSH2 0xAD JUMPI PUSH1 0x0 DUP1 REVERT JUMPDEST POP PUSH2 0xB6 PUSH2 0x240 JUMP JUMPDEST PUSH1 0x40 MLOAD PUSH2 0xC3 SWAP2 SWAP1 PUSH2 0xD9A JUMP JUMPDEST PUSH1 0x40 MLOAD DUP1 SWAP2 SUB SWAP1 RETURN JUMPDEST CALLVALUE DUP1 ISZERO PUSH2 0xD8 JUMPI PUSH1 0x0 DUP1 REVERT JUMPDEST POP PUSH2 0xE1 PUSH2 0x253 JUMP JUMPDEST STOP JUMPDEST CALLVALUE DUP1 ISZERO PUSH2 0xEF JUMPI PUSH1 0x0 DUP1 REVERT JUMPDEST POP PUSH2 0xF8 PUSH2 0x478 JUMP JUMPDEST PUSH1 0x40 MLOAD PUSH2 0x105 SWAP2 SWAP1 PUSH2 0xDF6 JUMP JUMPDEST PUSH1 0x40 MLOAD DUP1 SWAP2 SUB SWAP1 RETURN JUMPDEST CALLVALUE DUP1 ISZERO PUSH2 0x11A JUMPI PUSH1 0x0 DUP1 REVERT JUMPDEST POP PUSH2 0x123 PUSH2 0x49C JUMP JUMPDEST STOP JUMPDEST CALLVALUE DUP1 ISZERO PUSH2 0x131 JUMPI PUSH1 0x0 DUP1 REVERT JUMPDEST POP PUSH2 0x14C PUSH1 0x4 DUP1 CALLDATASIZE SUB DUP2 ADD SWAP1 PUSH2 0x147 SWAP2 SWAP1 PUSH2 0xE82 JUMP JUMPDEST PUSH2 0x579 JUMP JUMPDEST STOP JUMPDEST CALLVALUE DUP1 ISZERO PUSH2 0x15A JUMPI PUSH1 0x0 DUP1 REVERT JUMPDEST POP PUSH2 0x175 PUSH1 0x4 DUP1 CALLDATASIZE SUB DUP2 ADD SWAP1 PUSH2 0x170 SWAP2 SWAP1 PUSH2 0xF00 JUMP JUMPDEST PUSH2 0x8AD JUMP JUMPDEST PUSH1 0x40 MLOAD PUSH2 0x183 SWAP3 SWAP2 SWAP1 PUSH2 0xF4B JUMP JUMPDEST PUSH1 0x40 MLOAD DUP1 SWAP2 SUB SWAP1 RETURN JUMPDEST CALLVALUE DUP1 ISZERO PUSH2 0x198 JUMPI PUSH1 0x0 DUP1 REVERT JUMPDEST POP PUSH2 0x1A1 PUSH2 0x8D1 JUMP JUMPDEST PUSH1 0x40 MLOAD PUSH2 0x1AE SWAP2 SWAP1 PUSH2 0xF83 JUMP JUMPDEST PUSH1 0x40 MLOAD DUP1 SWAP2 SUB SWAP1 RETURN JUMPDEST CALLVALUE DUP1 ISZERO PUSH2 0x1C3 JUMPI PUSH1 0x0 DUP1 REVERT JUMPDEST POP PUSH2 0x1CC PUSH2 0x8F7 JUMP JUMPDEST PUSH1 0x40 MLOAD PUSH2 0x1D9 SWAP2 SWAP1 PUSH2 0xF9E JUMP JUMPDEST PUSH1 0x40 MLOAD DUP1 SWAP2 SUB SWAP1 RETURN JUMPDEST PUSH2 0x1FC PUSH1 0x4 DUP1 CALLDATASIZE SUB DUP2 ADD SWAP1 PUSH2 0x1F7 SWAP2 SWAP1 PUSH2 0xFB9 JUMP JUMPDEST PUSH2 0x93E JUMP JUMPDEST STOP JUMPDEST CALLVALUE DUP1 ISZERO PUSH2 0x20A JUMPI PUSH1 0x0 DUP1 REVERT JUMPDEST POP PUSH2 0x213 PUSH2 0xA24 JUMP JUMPDEST STOP JUMPDEST CALLVALUE DUP1 ISZERO PUSH2 0x221 JUMPI PUSH1 0x0 DUP1 REVERT JUMPDEST POP PUSH2 0x22A PUSH2 0xD1D JUMP JUMPDEST PUSH1 0x40 MLOAD PUSH2 0x237 SWAP2 SWAP1 PUSH2 0xF9E JUMP JUMPDEST PUSH1 0x40 MLOAD DUP1 SWAP2 SUB SWAP1 RETURN JUMPDEST PUSH1 0x0 PUSH1 0x14 SWAP1 SLOAD SWAP1 PUSH2 0x100 EXP SWAP1 DIV PUSH1 0xFF AND DUP2 JUMP JUMPDEST PUSH1 0x0 DUP1 SLOAD SWAP1 PUSH2 0x100 EXP SWAP1 DIV PUSH20 0xFFFFFFFFFFFFFFFFFFFFFFFFFFFFFFFFFFFFFFFF AND PUSH20 0xFFFFFFFFFFFFFFFFFFFFFFFFFFFFFFFFFFFFFFFF AND CALLER PUSH20 0xFFFFFFFFFFFFFFFFFFFFFFFFFFFFFFFFFFFFFFFF AND EQ PUSH2 0x2E1 JUMPI PUSH1 0x40 MLOAD PUSH32 0x8C379A000000000000000000000000000000000000000000000000000000000 DUP2 MSTORE PUSH1 0x4 ADD PUSH2 0x2D8 SWAP1 PUSH2 0x1043 JUMP JUMPDEST PUSH1 0x40 MLOAD DUP1 SWAP2 SUB SWAP1 REVERT JUMPDEST PUSH1 0x3 DUP1 PUSH1 0x3 DUP2 GT ISZERO PUSH2 0x2F6 JUMPI PUSH2 0x2F5 PUSH2 0xD23 JUMP JUMPDEST JUMPDEST PUSH1 0x0 PUSH1 0x14 SWAP1 SLOAD SWAP1 PUSH2 0x100 EXP SWAP1 DIV PUSH1 0xFF AND PUSH1 0x3 DUP2 GT ISZERO PUSH2 0x318 JUMPI PUSH2 0x317 PUSH2 0xD23 JUMP JUMPDEST JUMPDEST EQ PUSH2 0x358 JUMPI PUSH1 0x40 MLOAD PUSH32 0x8C379A000000000000000000000000000000000000000000000000000000000 DUP2 MSTORE PUSH1 0x4 ADD PUSH2 0x34F SWAP1 PUSH2 0x10AF JUMP JUMPDEST PUSH1 0x40 MLOAD DUP1 SWAP2 SUB SWAP1 REVERT JUMPDEST PUSH1 0x0 PUSH20 0xFFFFFFFFFFFFFFFFFFFFFFFFFFFFFFFFFFFFFFFF AND PUSH1 0x3 PUSH1 0x0 SWAP1 SLOAD SWAP1 PUSH2 0x100 EXP SWAP1 DIV PUSH20 0xFFFFFFFFFFFFFFFFFFFFFFFFFFFFFFFFFFFFFFFF AND PUSH20 0xFFFFFFFFFFFFFFFFFFFFFFFFFFFFFFFFFFFFFFFF AND EQ PUSH2 0x418 JUMPI PUSH1 0x0 DUP1 SLOAD SWAP1 PUSH2 0x100 EXP SWAP1 DIV PUSH20 0xFFFFFFFFFFFFFFFFFFFFFFFFFFFFFFFFFFFFFFFF AND PUSH20 0xFFFFFFFFFFFFFFFFFFFFFFFFFFFFFFFFFFFFFFFF AND PUSH2 0x8FC PUSH1 0x4 SLOAD SWAP1 DUP2 ISZERO MUL SWAP1 PUSH1 0x40 MLOAD PUSH1 0x0 PUSH1 0x40 MLOAD DUP1 DUP4 SUB DUP2 DUP6 DUP9 DUP9 CALL SWAP4 POP POP POP POP ISZERO DUP1 ISZERO PUSH2 0x416 JUMPI RETURNDATASIZE PUSH1 0x0 DUP1 RETURNDATACOPY RETURNDATASIZE PUSH1 0x0 REVERT JUMPDEST POP JUMPDEST PUSH32 0xDAEC4582D5D9595688C8C98545FDD1C696D41C6AEAEB636737E84ED2F5C00EDA PUSH1 0x3 PUSH1 0x0 SWAP1 SLOAD SWAP1 PUSH2 0x100 EXP SWAP1 DIV PUSH20 0xFFFFFFFFFFFFFFFFFFFFFFFFFFFFFFFFFFFFFFFF AND PUSH1 0x4 SLOAD PUSH1 0x40 MLOAD PUSH2 0x46D SWAP3 SWAP2 SWAP1 PUSH2 0x10CF JUMP JUMPDEST PUSH1 0x40 MLOAD DUP1 SWAP2 SUB SWAP1 LOG1 POP JUMP JUMPDEST PUSH1 0x0 DUP1 SLOAD SWAP1 PUSH2 0x100 EXP SWAP1 DIV PUSH20 0xFFFFFFFFFFFFFFFFFFFFFFFFFFFFFFFFFFFFFFFF AND DUP2 JUMP JUMPDEST PUSH1 0x0 PUSH1 0x2 PUSH1 0x0 CALLER PUSH20 0xFFFFFFFFFFFFFFFFFFFFFFFFFFFFFFFFFFFFFFFF AND PUSH20 0xFFFFFFFFFFFFFFFFFFFFFFFFFFFFFFFFFFFFFFFF AND DUP2 MSTORE PUSH1 0x20 ADD SWAP1 DUP2 MSTORE PUSH1 0x20 ADD PUSH1 0x0 KECCAK256 SLOAD SWAP1 POP PUSH1 0x0 DUP2 GT ISZERO PUSH2 0x576 JUMPI PUSH1 0x0 PUSH1 0x2 PUSH1 0x0 CALLER PUSH20 0xFFFFFFFFFFFFFFFFFFFFFFFFFFFFFFFFFFFFFFFF AND PUSH20 0xFFFFFFFFFFFFFFFFFFFFFFFFFFFFFFFFFFFFFFFF AND DUP2 MSTORE PUSH1 0x20 ADD SWAP1 DUP2 MSTORE PUSH1 0x20 ADD PUSH1 0x0 KECCAK256 DUP2 SWAP1 SSTORE POP CALLER PUSH20 0xFFFFFFFFFFFFFFFFFFFFFFFFFFFFFFFFFFFFFFFF AND PUSH2 0x8FC DUP3 SWAP1 DUP2 ISZERO MUL SWAP1 PUSH1 0x40 MLOAD PUSH1 0x0 PUSH1 0x40 MLOAD DUP1 DUP4 SUB DUP2 DUP6 DUP9 DUP9 CALL SWAP4 POP POP POP POP ISZERO DUP1 ISZERO PUSH2 0x574 JUMPI RETURNDATASIZE PUSH1 0x0 DUP1 RETURNDATACOPY RETURNDATASIZE PUSH1 0x0 REVERT JUMPDEST POP JUMPDEST POP JUMP JUMPDEST PUSH1 0x2 DUP1 PUSH1 0x3 DUP2 GT ISZERO PUSH2 0x58E JUMPI PUSH2 0x58D PUSH2 0xD23 JUMP JUMPDEST JUMPDEST PUSH1 0x0 PUSH1 0x14 SWAP1 SLOAD SWAP1 PUSH2 0x100 EXP SWAP1 DIV PUSH1 0xFF AND PUSH1 0x3 DUP2 GT ISZERO PUSH2 0x5B0 JUMPI PUSH2 0x5AF PUSH2 0xD23 JUMP JUMPDEST JUMPDEST EQ PUSH2 0x5F0 JUMPI PUSH1 0x40 MLOAD PUSH32 0x8C379A000000000000000000000000000000000000000000000000000000000 DUP2 MSTORE PUSH1 0x4 ADD PUSH2 0x5E7 SWAP1 PUSH2 0x10AF JUMP JUMPDEST PUSH1 0x40 MLOAD DUP1 SWAP2 SUB SWAP1 REVERT JUMPDEST PUSH1 0x0 PUSH1 0x1 PUSH1 0x0 CALLER PUSH20 0xFFFFFFFFFFFFFFFFFFFFFFFFFFFFFFFFFFFFFFFF AND PUSH20 0xFFFFFFFFFFFFFFFFFFFFFFFFFFFFFFFFFFFFFFFF AND DUP2 MSTORE PUSH1 0x20 ADD SWAP1 DUP2 MSTORE PUSH1 0x20 ADD PUSH1 0x0 KECCAK256 SWAP1 POP DUP4 DUP4 PUSH1 0x40 MLOAD PUSH1 0x20 ADD PUSH2 0x646 SWAP3 SWAP2 SWAP1 PUSH2 0x113A JUMP JUMPDEST PUSH1 0x40 MLOAD PUSH1 0x20 DUP2 DUP4 SUB SUB DUP2 MSTORE SWAP1 PUSH1 0x40 MSTORE DUP1 MLOAD SWAP1 PUSH1 0x20 ADD KECCAK256 DUP2 PUSH1 0x0 ADD SLOAD SUB PUSH2 0x840 JUMPI PUSH1 0x0 DUP2 PUSH1 0x1 ADD SLOAD SWAP1 POP PUSH1 0x4 SLOAD PUSH8 0xDE0B6B3A7640000 DUP7 PUSH2 0x686 SWAP2 SWAP1 PUSH2 0x1195 JUMP JUMPDEST GT ISZERO PUSH2 0x7DA JUMPI PUSH1 0x0 PUSH20 0xFFFFFFFFFFFFFFFFFFFFFFFFFFFFFFFFFFFFFFFF AND PUSH1 0x3 PUSH1 0x0 SWAP1 SLOAD SWAP1 PUSH2 0x100 EXP SWAP1 DIV PUSH20 0xFFFFFFFFFFFFFFFFFFFFFFFFFFFFFFFFFFFFFFFF AND PUSH20 0xFFFFFFFFFFFFFFFFFFFFFFFFFFFFFFFFFFFFFFFF AND EQ PUSH2 0x75D JUMPI PUSH1 0x4 SLOAD PUSH1 0x2 PUSH1 0x0 PUSH1 0x3 PUSH1 0x0 SWAP1 SLOAD SWAP1 PUSH2 0x100 EXP SWAP1 DIV PUSH20 0xFFFFFFFFFFFFFFFFFFFFFFFFFFFFFFFFFFFFFFFF AND PUSH20 0xFFFFFFFFFFFFFFFFFFFFFFFFFFFFFFFFFFFFFFFF AND PUSH20 0xFFFFFFFFFFFFFFFFFFFFFFFFFFFFFFFFFFFFFFFF AND DUP2 MSTORE PUSH1 0x20 ADD SWAP1 DUP2 MSTORE PUSH1 0x20 ADD PUSH1 0x0 KECCAK256 PUSH1 0x0 DUP3 DUP3 SLOAD PUSH2 0x755 SWAP2 SWAP1 PUSH2 0x11D7 JUMP JUMPDEST SWAP3 POP POP DUP2 SWAP1 SSTORE POP JUMPDEST PUSH8 0xDE0B6B3A7640000 DUP6 PUSH2 0x771 SWAP2 SWAP1 PUSH2 0x1195 JUMP JUMPDEST PUSH1 0x4 DUP2 SWAP1 SSTORE POP CALLER PUSH1 0x3 PUSH1 0x0 PUSH2 0x100 EXP DUP2 SLOAD DUP2 PUSH20 0xFFFFFFFFFFFFFFFFFFFFFFFFFFFFFFFFFFFFFFFF MUL NOT AND SWAP1 DUP4 PUSH20 0xFFFFFFFFFFFFFFFFFFFFFFFFFFFFFFFFFFFFFFFF AND MUL OR SWAP1 SSTORE POP PUSH8 0xDE0B6B3A7640000 DUP6 PUSH2 0x7CC SWAP2 SWAP1 PUSH2 0x1195 JUMP JUMPDEST DUP2 PUSH2 0x7D7 SWAP2 SWAP1 PUSH2 0x120B JUMP JUMPDEST SWAP1 POP JUMPDEST PUSH1 0x0 DUP2 GT ISZERO PUSH2 0x83A JUMPI DUP1 PUSH1 0x2 PUSH1 0x0 CALLER PUSH20 0xFFFFFFFFFFFFFFFFFFFFFFFFFFFFFFFFFFFFFFFF AND PUSH20 0xFFFFFFFFFFFFFFFFFFFFFFFFFFFFFFFFFFFFFFFF AND DUP2 MSTORE PUSH1 0x20 ADD SWAP1 DUP2 MSTORE PUSH1 0x20 ADD PUSH1 0x0 KECCAK256 PUSH1 0x0 DUP3 DUP3 SLOAD PUSH2 0x832 SWAP2 SWAP1 PUSH2 0x11D7 JUMP JUMPDEST SWAP3 POP POP DUP2 SWAP1 SSTORE POP JUMPDEST POP PUSH2 0x89B JUMP JUMPDEST DUP1 PUSH1 0x1 ADD SLOAD PUSH1 0x2 PUSH1 0x0 CALLER PUSH20 0xFFFFFFFFFFFFFFFFFFFFFFFFFFFFFFFFFFFFFFFF AND PUSH20 0xFFFFFFFFFFFFFFFFFFFFFFFFFFFFFFFFFFFFFFFF AND DUP2 MSTORE PUSH1 0x20 ADD SWAP1 DUP2 MSTORE PUSH1 0x20 ADD PUSH1 0x0 KECCAK256 PUSH1 0x0 DUP3 DUP3 SLOAD PUSH2 0x893 SWAP2 SWAP1 PUSH2 0x11D7 JUMP JUMPDEST SWAP3 POP POP DUP2 SWAP1 SSTORE POP JUMPDEST PUSH1 0x0 DUP1 SHL DUP2 PUSH1 0x0 ADD DUP2 SWAP1 SSTORE POP POP POP POP POP JUMP JUMPDEST PUSH1 0x1 PUSH1 0x20 MSTORE DUP1 PUSH1 0x0 MSTORE PUSH1 0x40 PUSH1 0x0 KECCAK256 PUSH1 0x0 SWAP2 POP SWAP1 POP DUP1 PUSH1 0x0 ADD SLOAD SWAP1 DUP1 PUSH1 0x1 ADD SLOAD SWAP1 POP DUP3 JUMP JUMPDEST PUSH1 0x3 PUSH1 0x0 SWAP1 SLOAD SWAP1 PUSH2 0x100 EXP SWAP1 DIV PUSH20 0xFFFFFFFFFFFFFFFFFFFFFFFFFFFFFFFFFFFFFFFF AND DUP2 JUMP JUMPDEST PUSH1 0x0 PUSH1 0x2 PUSH1 0x0 CALLER PUSH20 0xFFFFFFFFFFFFFFFFFFFFFFFFFFFFFFFFFFFFFFFF AND PUSH20 0xFFFFFFFFFFFFFFFFFFFFFFFFFFFFFFFFFFFFFFFF AND DUP2 MSTORE PUSH1 0x20 ADD SWAP1 DUP2 MSTORE PUSH1 0x20 ADD PUSH1 0x0 KECCAK256 SLOAD SWAP1 POP SWAP1 JUMP JUMPDEST PUSH1 0x1 DUP1 PUSH1 0x3 DUP2 GT ISZERO PUSH2 0x953 JUMPI PUSH2 0x952 PUSH2 0xD23 JUMP JUMPDEST JUMPDEST PUSH1 0x0 PUSH1 0x14 SWAP1 SLOAD SWAP1 PUSH2 0x100 EXP SWAP1 DIV PUSH1 0xFF AND PUSH1 0x3 DUP2 GT ISZERO PUSH2 0x975 JUMPI PUSH2 0x974 PUSH2 0xD23 JUMP JUMPDEST JUMPDEST EQ PUSH2 0x9B5 JUMPI PUSH1 0x40 MLOAD PUSH32 0x8C379A000000000000000000000000000000000000000000000000000000000 DUP2 MSTORE PUSH1 0x4 ADD PUSH2 0x9AC SWAP1 PUSH2 0x10AF JUMP JUMPDEST PUSH1 0x40 MLOAD DUP1 SWAP2 SUB SWAP1 REVERT JUMPDEST PUSH1 0x40 MLOAD DUP1 PUSH1 0x40 ADD PUSH1 0x40 MSTORE DUP1 DUP4 DUP2 MSTORE PUSH1 0x20 ADD CALLVALUE DUP2 MSTORE POP PUSH1 0x1 PUSH1 0x0 CALLER PUSH20 0xFFFFFFFFFFFFFFFFFFFFFFFFFFFFFFFFFFFFFFFF AND PUSH20 0xFFFFFFFFFFFFFFFFFFFFFFFFFFFFFFFFFFFFFFFF AND DUP2 MSTORE PUSH1 0x20 ADD SWAP1 DUP2 MSTORE PUSH1 0x20 ADD PUSH1 0x0 KECCAK256 PUSH1 0x0 DUP3 ADD MLOAD DUP2 PUSH1 0x0 ADD SSTORE PUSH1 0x20 DUP3 ADD MLOAD DUP2 PUSH1 0x1 ADD SSTORE SWAP1 POP POP POP POP JUMP JUMPDEST PUSH1 0x0 DUP1 SLOAD SWAP1 PUSH2 0x100 EXP SWAP1 DIV PUSH20 0xFFFFFFFFFFFFFFFFFFFFFFFFFFFFFFFFFFFFFFFF AND PUSH20 0xFFFFFFFFFFFFFFFFFFFFFFFFFFFFFFFFFFFFFFFF AND CALLER PUSH20 0xFFFFFFFFFFFFFFFFFFFFFFFFFFFFFFFFFFFFFFFF AND EQ PUSH2 0xAB2 JUMPI PUSH1 0x40 MLOAD PUSH32 0x8C379A000000000000000000000000000000000000000000000000000000000 DUP2 MSTORE PUSH1 0x4 ADD PUSH2 0xAA9 SWAP1 PUSH2 0x1043 JUMP JUMPDEST PUSH1 0x40 MLOAD DUP1 SWAP2 SUB SWAP1 REVERT JUMPDEST PUSH1 0x3 DUP1 DUP2 GT ISZERO PUSH2 0xAC5 JUMPI PUSH2 0xAC4 PUSH2 0xD23 JUMP JUMPDEST JUMPDEST PUSH1 0x0 PUSH1 0x14 SWAP1 SLOAD SWAP1 PUSH2 0x100 EXP SWAP1 DIV PUSH1 0xFF AND PUSH1 0x3 DUP2 GT ISZERO PUSH2 0xAE7 JUMPI PUSH2 0xAE6 PUSH2 0xD23 JUMP JUMPDEST JUMPDEST SUB PUSH2 0xB27 JUMPI PUSH1 0x40 MLOAD PUSH32 0x8C379A000000000000000000000000000000000000000000000000000000000 DUP2 MSTORE PUSH1 0x4 ADD PUSH2 0xB1E SWAP1 PUSH2 0x128B JUMP JUMPDEST PUSH1 0x40 MLOAD DUP1 SWAP2 SUB SWAP1 REVERT JUMPDEST PUSH1 0x0 PUSH1 0x3 DUP2 GT ISZERO PUSH2 0xB3B JUMPI PUSH2 0xB3A PUSH2 0xD23 JUMP JUMPDEST JUMPDEST PUSH1 0x0 PUSH1 0x14 SWAP1 SLOAD SWAP1 PUSH2 0x100 EXP SWAP1 DIV PUSH1 0xFF AND PUSH1 0x3 DUP2 GT ISZERO PUSH2 0xB5D JUMPI PUSH2 0xB5C PUSH2 0xD23 JUMP JUMPDEST JUMPDEST SUB PUSH2 0xBBE JUMPI PUSH1 0x1 PUSH1 0x0 PUSH1 0x14 PUSH2 0x100 EXP DUP2 SLOAD DUP2 PUSH1 0xFF MUL NOT AND SWAP1 DUP4 PUSH1 0x3 DUP2 GT ISZERO PUSH2 0xB88 JUMPI PUSH2 0xB87 PUSH2 0xD23 JUMP JUMPDEST JUMPDEST MUL OR SWAP1 SSTORE POP PUSH32 0x2C124E22EE7DA1C9905BBB317CF67658C1CC3EA1C0953B1633F85D0B5C281D9 PUSH1 0x40 MLOAD PUSH1 0x40 MLOAD DUP1 SWAP2 SUB SWAP1 LOG1 PUSH2 0xD1B JUMP JUMPDEST PUSH1 0x1 PUSH1 0x3 DUP2 GT ISZERO PUSH2 0xBD2 JUMPI PUSH2 0xBD1 PUSH2 0xD23 JUMP JUMPDEST JUMPDEST PUSH1 0x0 PUSH1 0x14 SWAP1 SLOAD SWAP1 PUSH2 0x100 EXP SWAP1 DIV PUSH1 0xFF AND PUSH1 0x3 DUP2 GT ISZERO PUSH2 0xBF4 JUMPI PUSH2 0xBF3 PUSH2 0xD23 JUMP JUMPDEST JUMPDEST SUB PUSH2 0xC55 JUMPI PUSH1 0x2 PUSH1 0x0 PUSH1 0x14 PUSH2 0x100 EXP DUP2 SLOAD DUP2 PUSH1 0xFF MUL NOT AND SWAP1 DUP4 PUSH1 0x3 DUP2 GT ISZERO PUSH2 0xC1F JUMPI PUSH2 0xC1E PUSH2 0xD23 JUMP JUMPDEST JUMPDEST MUL OR SWAP1 SSTORE POP PUSH32 0x3BCC93D35219AA0512D7C0D1CA10B0231F473E3D5F9396877D1B7215EE0AB3D5 PUSH1 0x40 MLOAD PUSH1 0x40 MLOAD DUP1 SWAP2 SUB SWAP1 LOG1 PUSH2 0xD1A JUMP JUMPDEST PUSH1 0x2 PUSH1 0x3 DUP2 GT ISZERO PUSH2 0xC69 JUMPI PUSH2 0xC68 PUSH2 0xD23 JUMP JUMPDEST JUMPDEST PUSH1 0x0 PUSH1 0x14 SWAP1 SLOAD SWAP1 PUSH2 0x100 EXP SWAP1 DIV PUSH1 0xFF AND PUSH1 0x3 DUP2 GT ISZERO PUSH2 0xC8B JUMPI PUSH2 0xC8A PUSH2 0xD23 JUMP JUMPDEST JUMPDEST SUB PUSH2 0xD19 JUMPI PUSH1 0x3 PUSH1 0x0 PUSH1 0x14 PUSH2 0x100 EXP DUP2 SLOAD DUP2 PUSH1 0xFF MUL NOT AND SWAP1 DUP4 PUSH1 0x3 DUP2 GT ISZERO PUSH2 0xCB6 JUMPI PUSH2 0xCB5 PUSH2 0xD23 JUMP JUMPDEST JUMPDEST MUL OR SWAP1 SSTORE POP PUSH32 0xDAEC4582D5D9595688C8C98545FDD1C696D41C6AEAEB636737E84ED2F5C00EDA PUSH1 0x3 PUSH1 0x0 SWAP1 SLOAD SWAP1 PUSH2 0x100 EXP SWAP1 DIV PUSH20 0xFFFFFFFFFFFFFFFFFFFFFFFFFFFFFFFFFFFFFFFF AND PUSH1 0x4 SLOAD PUSH1 0x40 MLOAD PUSH2 0xD10 SWAP3 SWAP2 SWAP1 PUSH2 0x10CF JUMP JUMPDEST PUSH1 0x40 MLOAD DUP1 SWAP2 SUB SWAP1 LOG1 JUMPDEST JUMPDEST JUMPDEST JUMP JUMPDEST PUSH1 0x4 SLOAD DUP2 JUMP JUMPDEST PUSH32 0x4E487B7100000000000000000000000000000000000000000000000000000000 PUSH1 0x0 MSTORE PUSH1 0x21 PUSH1 0x4 MSTORE PUSH1 0x24 PUSH1 0x0 REVERT JUMPDEST PUSH1 0x4 DUP2 LT PUSH2 0xD63 JUMPI PUSH2 0xD62 PUSH2 0xD23 JUMP JUMPDEST JUMPDEST POP JUMP JUMPDEST PUSH1 0x0 DUP2 SWAP1 POP PUSH2 0xD74 DUP3 PUSH2 0xD52 JUMP JUMPDEST SWAP2 SWAP1 POP JUMP JUMPDEST PUSH1 0x0 PUSH2 0xD84 DUP3 PUSH2 0xD66 JUMP JUMPDEST SWAP1 POP SWAP2 SWAP1 POP JUMP JUMPDEST PUSH2 0xD94 DUP2 PUSH2 0xD79 JUMP JUMPDEST DUP3 MSTORE POP POP JUMP JUMPDEST PUSH1 0x0 PUSH1 0x20 DUP3 ADD SWAP1 POP PUSH2 0xDAF PUSH1 0x0 DUP4 ADD DUP5 PUSH2 0xD8B JUMP JUMPDEST SWAP3 SWAP2 POP POP JUMP JUMPDEST PUSH1 0x0 PUSH20 0xFFFFFFFFFFFFFFFFFFFFFFFFFFFFFFFFFFFFFFFF DUP3 AND SWAP1 POP SWAP2 SWAP1 POP JUMP JUMPDEST PUSH1 0x0 PUSH2 0xDE0 DUP3 PUSH2 0xDB5 JUMP JUMPDEST SWAP1 POP SWAP2 SWAP1 POP JUMP JUMPDEST PUSH2 0xDF0 DUP2 PUSH2 0xDD5 JUMP JUMPDEST DUP3 MSTORE POP POP JUMP JUMPDEST PUSH1 0x0 PUSH1 0x20 DUP3 ADD SWAP1 POP PUSH2 0xE0B PUSH1 0x0 DUP4 ADD DUP5 PUSH2 0xDE7 JUMP JUMPDEST SWAP3 SWAP2 POP POP JUMP JUMPDEST PUSH1 0x0 DUP1 REVERT JUMPDEST PUSH1 0x0 DUP2 SWAP1 POP SWAP2 SWAP1 POP JUMP JUMPDEST PUSH2 0xE29 DUP2 PUSH2 0xE16 JUMP JUMPDEST DUP2 EQ PUSH2 0xE34 JUMPI PUSH1 0x0 DUP1 REVERT JUMPDEST POP JUMP JUMPDEST PUSH1 0x0 DUP2 CALLDATALOAD SWAP1 POP PUSH2 0xE46 DUP2 PUSH2 0xE20 JUMP JUMPDEST SWAP3 SWAP2 POP POP JUMP JUMPDEST PUSH1 0x0 DUP2 SWAP1 POP SWAP2 SWAP1 POP JUMP JUMPDEST PUSH2 0xE5F DUP2 PUSH2 0xE4C JUMP JUMPDEST DUP2 EQ PUSH2 0xE6A JUMPI PUSH1 0x0 DUP1 REVERT JUMPDEST POP JUMP JUMPDEST PUSH1 0x0 DUP2 CALLDATALOAD SWAP1 POP PUSH2 0xE7C DUP2 PUSH2 0xE56 JUMP JUMPDEST SWAP3 SWAP2 POP POP JUMP JUMPDEST PUSH1 0x0 DUP1 PUSH1 0x40 DUP4 DUP6 SUB SLT ISZERO PUSH2 0xE99 JUMPI PUSH2 0xE98 PUSH2 0xE11 JUMP JUMPDEST JUMPDEST PUSH1 0x0 PUSH2 0xEA7 DUP6 DUP3 DUP7 ADD PUSH2 0xE37 JUMP JUMPDEST SWAP3 POP POP PUSH1 0x20 PUSH2 0xEB8 DUP6 DUP3 DUP7 ADD PUSH2 0xE6D JUMP JUMPDEST SWAP2 POP POP SWAP3 POP SWAP3 SWAP1 POP JUMP JUMPDEST PUSH1 0x0 PUSH2 0xECD DUP3 PUSH2 0xDB5 JUMP JUMPDEST SWAP1 POP SWAP2 SWAP1 POP JUMP JUMPDEST PUSH2 0xEDD DUP2 PUSH2 0xEC2 JUMP JUMPDEST DUP2 EQ PUSH2 0xEE8 JUMPI PUSH1 0x0 DUP1 REVERT JUMPDEST POP JUMP JUMPDEST PUSH1 0x0 DUP2 CALLDATALOAD SWAP1 POP PUSH2 0xEFA DUP2 PUSH2 0xED4 JUMP JUMPDEST SWAP3 SWAP2 POP POP JUMP JUMPDEST PUSH1 0x0 PUSH1 0x20 DUP3 DUP5 SUB SLT ISZERO PUSH2 0xF16 JUMPI PUSH2 0xF15 PUSH2 0xE11 JUMP JUMPDEST JUMPDEST PUSH1 0x0 PUSH2 0xF24 DUP5 DUP3 DUP6 ADD PUSH2 0xEEB JUMP JUMPDEST SWAP2 POP POP SWAP3 SWAP2 POP POP JUMP JUMPDEST PUSH2 0xF36 DUP2 PUSH2 0xE4C JUMP JUMPDEST DUP3 MSTORE POP POP JUMP JUMPDEST PUSH2 0xF45 DUP2 PUSH2 0xE16 JUMP JUMPDEST DUP3 MSTORE POP POP JUMP JUMPDEST PUSH1 0x0 PUSH1 0x40 DUP3 ADD SWAP1 POP PUSH2 0xF60 PUSH1 0x0 DUP4 ADD DUP6 PUSH2 0xF2D JUMP JUMPDEST PUSH2 0xF6D PUSH1 0x20 DUP4 ADD DUP5 PUSH2 0xF3C JUMP JUMPDEST SWAP4 SWAP3 POP POP POP JUMP JUMPDEST PUSH2 0xF7D DUP2 PUSH2 0xEC2 JUMP JUMPDEST DUP3 MSTORE POP POP JUMP JUMPDEST PUSH1 0x0 PUSH1 0x20 DUP3 ADD SWAP1 POP PUSH2 0xF98 PUSH1 0x0 DUP4 ADD DUP5 PUSH2 0xF74 JUMP JUMPDEST SWAP3 SWAP2 POP POP JUMP JUMPDEST PUSH1 0x0 PUSH1 0x20 DUP3 ADD SWAP1 POP PUSH2 0xFB3 PUSH1 0x0 DUP4 ADD DUP5 PUSH2 0xF3C JUMP JUMPDEST SWAP3 SWAP2 POP POP JUMP JUMPDEST PUSH1 0x0 PUSH1 0x20 DUP3 DUP5 SUB SLT ISZERO PUSH2 0xFCF JUMPI PUSH2 0xFCE PUSH2 0xE11 JUMP JUMPDEST JUMPDEST PUSH1 0x0 PUSH2 0xFDD DUP5 DUP3 DUP6 ADD PUSH2 0xE6D JUMP JUMPDEST SWAP2 POP POP SWAP3 SWAP2 POP POP JUMP JUMPDEST PUSH1 0x0 DUP3 DUP3 MSTORE PUSH1 0x20 DUP3 ADD SWAP1 POP SWAP3 SWAP2 POP POP JUMP JUMPDEST PUSH32 0x4F6E6C792062656E65666963696172792063616E2063616C6C20746869730000 PUSH1 0x0 DUP3 ADD MSTORE POP JUMP JUMPDEST PUSH1 0x0 PUSH2 0x102D PUSH1 0x1E DUP4 PUSH2 0xFE6 JUMP JUMPDEST SWAP2 POP PUSH2 0x1038 DUP3 PUSH2 0xFF7 JUMP JUMPDEST PUSH1 0x20 DUP3 ADD SWAP1 POP SWAP2 SWAP1 POP JUMP JUMPDEST PUSH1 0x0 PUSH1 0x20 DUP3 ADD SWAP1 POP DUP2 DUP2 SUB PUSH1 0x0 DUP4 ADD MSTORE PUSH2 0x105C DUP2 PUSH2 0x1020 JUMP JUMPDEST SWAP1 POP SWAP2 SWAP1 POP JUMP JUMPDEST PUSH32 0x496E76616C696420706861736500000000000000000000000000000000000000 PUSH1 0x0 DUP3 ADD MSTORE POP JUMP JUMPDEST PUSH1 0x0 PUSH2 0x1099 PUSH1 0xD DUP4 PUSH2 0xFE6 JUMP JUMPDEST SWAP2 POP PUSH2 0x10A4 DUP3 PUSH2 0x1063 JUMP JUMPDEST PUSH1 0x20 DUP3 ADD SWAP1 POP SWAP2 SWAP1 POP JUMP JUMPDEST PUSH1 0x0 PUSH1 0x20 DUP3 ADD SWAP1 POP DUP2 DUP2 SUB PUSH1 0x0 DUP4 ADD MSTORE PUSH2 0x10C8 DUP2 PUSH2 0x108C JUMP JUMPDEST SWAP1 POP SWAP2 SWAP1 POP JUMP JUMPDEST PUSH1 0x0 PUSH1 0x40 DUP3 ADD SWAP1 POP PUSH2 0x10E4 PUSH1 0x0 DUP4 ADD DUP6 PUSH2 0xF74 JUMP JUMPDEST PUSH2 0x10F1 PUSH1 0x20 DUP4 ADD DUP5 PUSH2 0xF3C JUMP JUMPDEST SWAP4 SWAP3 POP POP POP JUMP JUMPDEST PUSH1 0x0 DUP2 SWAP1 POP SWAP2 SWAP1 POP JUMP JUMPDEST PUSH2 0x1113 PUSH2 0x110E DUP3 PUSH2 0xE16 JUMP JUMPDEST PUSH2 0x10F8 JUMP JUMPDEST DUP3 MSTORE POP POP JUMP JUMPDEST PUSH1 0x0 DUP2 SWAP1 POP SWAP2 SWAP1 POP JUMP JUMPDEST PUSH2 0x1134 PUSH2 0x112F DUP3 PUSH2 0xE4C JUMP JUMPDEST PUSH2 0x1119 JUMP JUMPDEST DUP3 MSTORE POP POP JUMP JUMPDEST PUSH1 0x0 PUSH2 0x1146 DUP3 DUP6 PUSH2 0x1102 JUMP JUMPDEST PUSH1 0x20 DUP3 ADD SWAP2 POP PUSH2 0x1156 DUP3 DUP5 PUSH2 0x1123 JUMP JUMPDEST PUSH1 0x20 DUP3 ADD SWAP2 POP DUP2 SWAP1 POP SWAP4 SWAP3 POP POP POP JUMP JUMPDEST PUSH32 0x4E487B7100000000000000000000000000000000000000000000000000000000 PUSH1 0x0 MSTORE PUSH1 0x11 PUSH1 0x4 MSTORE PUSH1 0x24 PUSH1 0x0 REVERT JUMPDEST PUSH1 0x0 PUSH2 0x11A0 DUP3 PUSH2 0xE16 JUMP JUMPDEST SWAP2 POP PUSH2 0x11AB DUP4 PUSH2 0xE16 JUMP JUMPDEST SWAP3 POP DUP3 DUP3 MUL PUSH2 0x11B9 DUP2 PUSH2 0xE16 JUMP JUMPDEST SWAP2 POP DUP3 DUP3 DIV DUP5 EQ DUP4 ISZERO OR PUSH2 0x11D0 JUMPI PUSH2 0x11CF PUSH2 0x1166 JUMP JUMPDEST JUMPDEST POP SWAP3 SWAP2 POP POP JUMP JUMPDEST PUSH1 0x0 PUSH2 0x11E2 DUP3 PUSH2 0xE16 JUMP JUMPDEST SWAP2 POP PUSH2 0x11ED DUP4 PUSH2 0xE16 JUMP JUMPDEST SWAP3 POP DUP3 DUP3 ADD SWAP1 POP DUP1 DUP3 GT ISZERO PUSH2 0x1205 JUMPI PUSH2 0x1204 PUSH2 0x1166 JUMP JUMPDEST JUMPDEST SWAP3 SWAP2 POP POP JUMP JUMPDEST PUSH1 0x0 PUSH2 0x1216 DUP3 PUSH2 0xE16 JUMP JUMPDEST SWAP2 POP PUSH2 0x1221 DUP4 PUSH2 0xE16 JUMP JUMPDEST SWAP3 POP DUP3 DUP3 SUB SWAP1 POP DUP2 DUP2 GT ISZERO PUSH2 0x1239 JUMPI PUSH2 0x1238 PUSH2 0x1166 JUMP JUMPDEST JUMPDEST SWAP3 SWAP2 POP POP JUMP JUMPDEST PUSH32 0x41756374696F6E20616C726561647920656E6465640000000000000000000000 PUSH1 0x0 DUP3 ADD MSTORE POP JUMP JUMPDEST PUSH1 0x0 PUSH2 0x1275 PUSH1 0x15 DUP4 PUSH2 0xFE6 JUMP JUMPDEST SWAP2 POP PUSH2 0x1280 DUP3 PUSH2 0x123F JUMP JUMPDEST PUSH1 0x20 DUP3 ADD SWAP1 POP SWAP2 SWAP1 POP JUMP JUMPDEST PUSH1 0x0 PUSH1 0x20 DUP3 ADD SWAP1 POP DUP2 DUP2 SUB PUSH1 0x0 DUP4 ADD MSTORE PUSH2 0x12A4 DUP2 PUSH2 0x1268 JUMP JUMPDEST SWAP1 POP SWAP2 SWAP1 POP JUMP INVALID LOG2 PUSH5 0x6970667358 0x22 SLT KECCAK256 0xCD 0x26 ADD DUP9 PUSH18 0xF1E9C6C8D95C92265EFC3CB42FE140451BE6 0x27 CALLCODE 0xA7 0xBC PUSH17 0xC3B8FB6364736F6C634300081200330000 "
				},
				"gasEstimates": {
					"creation": {
						"codeDepositCost": "966600",
						"executionCost": "49623",
						"totalCost": "1016223"
					},
					"external": {
						"advancePhase()": "41617",
						"auctionEnd()": "infinite",
						"beneficiary()": "2556",
						"bid(bytes32)": "47113",
						"bids(address)": "5040",
						"checkRefund()": "2570",
						"currentPhase()": "2611",
						"highestBid()": "2539",
						"highestBidder()": "2536",
						"reveal(uint256,bytes32)": "infinite",
						"withdraw()": "infinite"
					}
				},
				"methodIdentifiers": {
					"advancePhase()": "be25a718",
					"auctionEnd()": "2a24f46c",
					"beneficiary()": "38af3eed",
					"bid(bytes32)": "957bb1e0",
					"bids(address)": "62ea82db",
					"checkRefund()": "94c246d5",
					"currentPhase()": "055ad42e",
					"highestBid()": "d57bde79",
					"highestBidder()": "91f90157",
					"reveal(uint256,bytes32)": "4036778f",
					"withdraw()": "3ccfd60b"
				}
			},
			"storageLayout": {
				"storage": [
					{
						"astId": 13,
						"contract": "Projects/BlindAuction-Dapp/blindauction-contract/contracts/BlindAuction.sol:BlindAuction",
						"label": "beneficiary",
						"offset": 0,
						"slot": "0",
						"type": "t_address_payable"
					},
					{
						"astId": 18,
						"contract": "Projects/BlindAuction-Dapp/blindauction-contract/contracts/BlindAuction.sol:BlindAuction",
						"label": "currentPhase",
						"offset": 20,
						"slot": "0",
						"type": "t_enum(Phase)11"
					},
					{
						"astId": 23,
						"contract": "Projects/BlindAuction-Dapp/blindauction-contract/contracts/BlindAuction.sol:BlindAuction",
						"label": "bids",
						"offset": 0,
						"slot": "1",
						"type": "t_mapping(t_address,t_struct(Bid)6_storage)"
					},
					{
						"astId": 27,
						"contract": "Projects/BlindAuction-Dapp/blindauction-contract/contracts/BlindAuction.sol:BlindAuction",
						"label": "pendingReturns",
						"offset": 0,
						"slot": "2",
						"type": "t_mapping(t_address,t_uint256)"
					},
					{
						"astId": 29,
						"contract": "Projects/BlindAuction-Dapp/blindauction-contract/contracts/BlindAuction.sol:BlindAuction",
						"label": "highestBidder",
						"offset": 0,
						"slot": "3",
						"type": "t_address"
					},
					{
						"astId": 31,
						"contract": "Projects/BlindAuction-Dapp/blindauction-contract/contracts/BlindAuction.sol:BlindAuction",
						"label": "highestBid",
						"offset": 0,
						"slot": "4",
						"type": "t_uint256"
					}
				],
				"types": {
					"t_address": {
						"encoding": "inplace",
						"label": "address",
						"numberOfBytes": "20"
					},
					"t_address_payable": {
						"encoding": "inplace",
						"label": "address payable",
						"numberOfBytes": "20"
					},
					"t_bytes32": {
						"encoding": "inplace",
						"label": "bytes32",
						"numberOfBytes": "32"
					},
					"t_enum(Phase)11": {
						"encoding": "inplace",
						"label": "enum BlindAuction.Phase",
						"numberOfBytes": "1"
					},
					"t_mapping(t_address,t_struct(Bid)6_storage)": {
						"encoding": "mapping",
						"key": "t_address",
						"label": "mapping(address => struct BlindAuction.Bid)",
						"numberOfBytes": "32",
						"value": "t_struct(Bid)6_storage"
					},
					"t_mapping(t_address,t_uint256)": {
						"encoding": "mapping",
						"key": "t_address",
						"label": "mapping(address => uint256)",
						"numberOfBytes": "32",
						"value": "t_uint256"
					},
					"t_struct(Bid)6_storage": {
						"encoding": "inplace",
						"label": "struct BlindAuction.Bid",
						"members": [
							{
								"astId": 3,
								"contract": "Projects/BlindAuction-Dapp/blindauction-contract/contracts/BlindAuction.sol:BlindAuction",
								"label": "blindedBid",
								"offset": 0,
								"slot": "0",
								"type": "t_bytes32"
							},
							{
								"astId": 5,
								"contract": "Projects/BlindAuction-Dapp/blindauction-contract/contracts/BlindAuction.sol:BlindAuction",
								"label": "deposit",
								"offset": 0,
								"slot": "1",
								"type": "t_uint256"
							}
						],
						"numberOfBytes": "64"
					},
					"t_uint256": {
						"encoding": "inplace",
						"label": "uint256",
						"numberOfBytes": "32"
					}
				}
			},
			"userdoc": {
				"kind": "user",
				"methods": {},
				"version": 1
			}
		}
	}
}