{
	"Projects/BlindAuction-Dapp/blindauction-contract/contracts/BlindAuction.sol": {
		"BlindAuction": {
			"abi": [
				{
					"inputs": [],
					"stateMutability": "nonpayable",
					"type": "constructor"
				},
				{
					"anonymous": false,
					"inputs": [
						{
							"indexed": false,
							"internalType": "address",
							"name": "winner",
							"type": "address"
						},
						{
							"indexed": false,
							"internalType": "uint256",
							"name": "highestBid",
							"type": "uint256"
						}
					],
					"name": "AuctionEnded",
					"type": "event"
				},
				{
					"anonymous": false,
					"inputs": [],
					"name": "AuctionInit",
					"type": "event"
				},
				{
					"anonymous": false,
					"inputs": [
						{
							"indexed": false,
							"internalType": "address",
							"name": "bidder",
							"type": "address"
						},
						{
							"indexed": false,
							"internalType": "uint256",
							"name": "refundAmount",
							"type": "uint256"
						}
					],
					"name": "BidCancelled",
					"type": "event"
				},
				{
					"anonymous": false,
					"inputs": [],
					"name": "BiddingStarted",
					"type": "event"
				},
				{
					"anonymous": false,
					"inputs": [],
					"name": "RevealStarted",
					"type": "event"
				},
				{
					"inputs": [],
					"name": "advancePhase",
					"outputs": [],
					"stateMutability": "nonpayable",
					"type": "function"
				},
				{
					"inputs": [],
					"name": "auctionEnd",
					"outputs": [],
					"stateMutability": "nonpayable",
					"type": "function"
				},
				{
					"inputs": [],
					"name": "beneficiary",
					"outputs": [
						{
							"internalType": "address payable",
							"name": "",
							"type": "address"
						}
					],
					"stateMutability": "view",
					"type": "function"
				},
				{
					"inputs": [
						{
							"internalType": "bytes32",
							"name": "_blindedBid",
							"type": "bytes32"
						}
					],
					"name": "bid",
					"outputs": [],
					"stateMutability": "payable",
					"type": "function"
				},
				{
					"inputs": [
						{
							"internalType": "address",
							"name": "",
							"type": "address"
						}
					],
					"name": "bids",
					"outputs": [
						{
							"internalType": "bytes32",
							"name": "blindedBid",
							"type": "bytes32"
						},
						{
							"internalType": "uint256",
							"name": "deposit",
							"type": "uint256"
						}
					],
					"stateMutability": "view",
					"type": "function"
				},
				{
					"inputs": [],
					"name": "cancelBid",
					"outputs": [],
					"stateMutability": "nonpayable",
					"type": "function"
				},
				{
					"inputs": [],
					"name": "checkRefund",
					"outputs": [
						{
							"internalType": "uint256",
							"name": "",
							"type": "uint256"
						}
					],
					"stateMutability": "view",
					"type": "function"
				},
				{
					"inputs": [],
					"name": "currentPhase",
					"outputs": [
						{
							"internalType": "enum BlindAuction.Phase",
							"name": "",
							"type": "uint8"
						}
					],
					"stateMutability": "view",
					"type": "function"
				},
				{
					"inputs": [],
					"name": "highestBid",
					"outputs": [
						{
							"internalType": "uint256",
							"name": "",
							"type": "uint256"
						}
					],
					"stateMutability": "view",
					"type": "function"
				},
				{
					"inputs": [],
					"name": "highestBidder",
					"outputs": [
						{
							"internalType": "address",
							"name": "",
							"type": "address"
						}
					],
					"stateMutability": "view",
					"type": "function"
				},
				{
					"inputs": [],
					"name": "khashContract",
					"outputs": [
						{
							"internalType": "contract Khash",
							"name": "",
							"type": "address"
						}
					],
					"stateMutability": "view",
					"type": "function"
				},
				{
					"inputs": [
						{
							"internalType": "uint256",
							"name": "_value",
							"type": "uint256"
						},
						{
							"internalType": "bytes32",
							"name": "_password",
							"type": "bytes32"
						}
					],
					"name": "reveal",
					"outputs": [],
					"stateMutability": "nonpayable",
					"type": "function"
				},
				{
					"inputs": [],
					"name": "withdraw",
					"outputs": [],
					"stateMutability": "nonpayable",
					"type": "function"
				}
			],
			"devdoc": {
				"kind": "dev",
				"methods": {},
				"version": 1
			},
			"evm": {
				"assembly": "    /* \"Projects/BlindAuction-Dapp/blindauction-contract/contracts/BlindAuction.sol\":281:4462  contract BlindAuction {... */\n  mstore(0x40, 0x80)\n    /* \"Projects/BlindAuction-Dapp/blindauction-contract/contracts/BlindAuction.sol\":604:614  Phase.Init */\n  0x00\n    /* \"Projects/BlindAuction-Dapp/blindauction-contract/contracts/BlindAuction.sol\":576:614  Phase public currentPhase = Phase.Init */\n  0x01\n  exp(0x0100, 0x14)\n  dup2\n  sload\n  dup2\n  0xff\n  mul\n  not\n  and\n  swap1\n  dup4\n  0x03\n  dup2\n  gt\n  iszero\n  tag_1\n  jumpi\n  tag_2\n  tag_3\n  jump\t// in\ntag_2:\ntag_1:\n  mul\n  or\n  swap1\n  sstore\n  pop\n    /* \"Projects/BlindAuction-Dapp/blindauction-contract/contracts/BlindAuction.sol\":1219:1352  constructor() {... */\n  callvalue\n  dup1\n  iszero\n  tag_4\n  jumpi\n  0x00\n  dup1\n  revert\ntag_4:\n  pop\n    /* \"Projects/BlindAuction-Dapp/blindauction-contract/contracts/BlindAuction.sol\":1266:1276  msg.sender */\n  caller\n    /* \"Projects/BlindAuction-Dapp/blindauction-contract/contracts/BlindAuction.sol\":1244:1255  beneficiary */\n  0x01\n  0x00\n    /* \"Projects/BlindAuction-Dapp/blindauction-contract/contracts/BlindAuction.sol\":1244:1277  beneficiary = payable(msg.sender) */\n  0x0100\n  exp\n  dup2\n  sload\n  dup2\n  0xffffffffffffffffffffffffffffffffffffffff\n  mul\n  not\n  and\n  swap1\n  dup4\n  0xffffffffffffffffffffffffffffffffffffffff\n  and\n  mul\n  or\n  swap1\n  sstore\n  pop\n    /* \"Projects/BlindAuction-Dapp/blindauction-contract/contracts/BlindAuction.sol\":1304:1315  new Khash() */\n  mload(0x40)\n  tag_7\n  swap1\n  tag_8\n  jump\t// in\ntag_7:\n  mload(0x40)\n  dup1\n  swap2\n  sub\n  swap1\n  0x00\n  create\n  dup1\n  iszero\n  dup1\n  iszero\n  tag_9\n  jumpi\n  returndatasize\n  0x00\n  dup1\n  returndatacopy\n  revert(0x00, returndatasize)\ntag_9:\n  pop\n    /* \"Projects/BlindAuction-Dapp/blindauction-contract/contracts/BlindAuction.sol\":1288:1301  khashContract */\n  0x00\n  dup1\n    /* \"Projects/BlindAuction-Dapp/blindauction-contract/contracts/BlindAuction.sol\":1288:1315  khashContract = new Khash() */\n  0x0100\n  exp\n  dup2\n  sload\n  dup2\n  0xffffffffffffffffffffffffffffffffffffffff\n  mul\n  not\n  and\n  swap1\n  dup4\n  0xffffffffffffffffffffffffffffffffffffffff\n  and\n  mul\n  or\n  swap1\n  sstore\n  pop\n    /* \"Projects/BlindAuction-Dapp/blindauction-contract/contracts/BlindAuction.sol\":281:4462  contract BlindAuction {... */\n  jump(tag_10)\ntag_8:\n  dataSize(sub_1)\n  dup1\n  dataOffset(sub_1)\n  dup4\n  codecopy\n  add\n  swap1\n  jump\t// out\n    /* \"#utility.yul\":7:187   */\ntag_3:\n    /* \"#utility.yul\":55:132   */\n  0x4e487b7100000000000000000000000000000000000000000000000000000000\n    /* \"#utility.yul\":52:53   */\n  0x00\n    /* \"#utility.yul\":45:133   */\n  mstore\n    /* \"#utility.yul\":152:156   */\n  0x21\n    /* \"#utility.yul\":149:150   */\n  0x04\n    /* \"#utility.yul\":142:157   */\n  mstore\n    /* \"#utility.yul\":176:180   */\n  0x24\n    /* \"#utility.yul\":173:174   */\n  0x00\n    /* \"#utility.yul\":166:181   */\n  revert\n    /* \"Projects/BlindAuction-Dapp/blindauction-contract/contracts/BlindAuction.sol\":281:4462  contract BlindAuction {... */\ntag_10:\n  dataSize(sub_0)\n  dup1\n  dataOffset(sub_0)\n  0x00\n  codecopy\n  0x00\n  return\nstop\n\nsub_0: assembly {\n        /* \"Projects/BlindAuction-Dapp/blindauction-contract/contracts/BlindAuction.sol\":281:4462  contract BlindAuction {... */\n      mstore(0x40, 0x80)\n      jumpi(tag_1, lt(calldatasize, 0x04))\n      shr(0xe0, calldataload(0x00))\n      dup1\n      0x63142015\n      gt\n      tag_15\n      jumpi\n      dup1\n      0x94c246d5\n      gt\n      tag_16\n      jumpi\n      dup1\n      0x94c246d5\n      eq\n      tag_11\n      jumpi\n      dup1\n      0x957bb1e0\n      eq\n      tag_12\n      jumpi\n      dup1\n      0xbe25a718\n      eq\n      tag_13\n      jumpi\n      dup1\n      0xd57bde79\n      eq\n      tag_14\n      jumpi\n      jump(tag_1)\n    tag_16:\n      dup1\n      0x63142015\n      eq\n      tag_8\n      jumpi\n      dup1\n      0x91f90157\n      eq\n      tag_9\n      jumpi\n      dup1\n      0x9435c887\n      eq\n      tag_10\n      jumpi\n      jump(tag_1)\n    tag_15:\n      dup1\n      0x055ad42e\n      eq\n      tag_2\n      jumpi\n      dup1\n      0x2a24f46c\n      eq\n      tag_3\n      jumpi\n      dup1\n      0x38af3eed\n      eq\n      tag_4\n      jumpi\n      dup1\n      0x3ccfd60b\n      eq\n      tag_5\n      jumpi\n      dup1\n      0x4036778f\n      eq\n      tag_6\n      jumpi\n      dup1\n      0x62ea82db\n      eq\n      tag_7\n      jumpi\n    tag_1:\n      0x00\n      dup1\n      revert\n        /* \"Projects/BlindAuction-Dapp/blindauction-contract/contracts/BlindAuction.sol\":576:614  Phase public currentPhase = Phase.Init */\n    tag_2:\n      callvalue\n      dup1\n      iszero\n      tag_17\n      jumpi\n      0x00\n      dup1\n      revert\n    tag_17:\n      pop\n      tag_18\n      tag_19\n      jump\t// in\n    tag_18:\n      mload(0x40)\n      tag_20\n      swap2\n      swap1\n      tag_21\n      jump\t// in\n    tag_20:\n      mload(0x40)\n      dup1\n      swap2\n      sub\n      swap1\n      return\n        /* \"Projects/BlindAuction-Dapp/blindauction-contract/contracts/BlindAuction.sol\":4177:4459  function auctionEnd() ... */\n    tag_3:\n      callvalue\n      dup1\n      iszero\n      tag_22\n      jumpi\n      0x00\n      dup1\n      revert\n    tag_22:\n      pop\n      tag_23\n      tag_24\n      jump\t// in\n    tag_23:\n      stop\n        /* \"Projects/BlindAuction-Dapp/blindauction-contract/contracts/BlindAuction.sol\":535:569  address payable public beneficiary */\n    tag_4:\n      callvalue\n      dup1\n      iszero\n      tag_25\n      jumpi\n      0x00\n      dup1\n      revert\n    tag_25:\n      pop\n      tag_26\n      tag_27\n      jump\t// in\n    tag_26:\n      mload(0x40)\n      tag_28\n      swap2\n      swap1\n      tag_29\n      jump\t// in\n    tag_28:\n      mload(0x40)\n      dup1\n      swap2\n      sub\n      swap1\n      return\n        /* \"Projects/BlindAuction-Dapp/blindauction-contract/contracts/BlindAuction.sol\":3774:4024  function withdraw() ... */\n    tag_5:\n      callvalue\n      dup1\n      iszero\n      tag_30\n      jumpi\n      0x00\n      dup1\n      revert\n    tag_30:\n      pop\n      tag_31\n      tag_32\n      jump\t// in\n    tag_31:\n      stop\n        /* \"Projects/BlindAuction-Dapp/blindauction-contract/contracts/BlindAuction.sol\":2769:3762  function reveal(uint _value, bytes32 _password) ... */\n    tag_6:\n      callvalue\n      dup1\n      iszero\n      tag_33\n      jumpi\n      0x00\n      dup1\n      revert\n    tag_33:\n      pop\n      tag_34\n      0x04\n      dup1\n      calldatasize\n      sub\n      dup2\n      add\n      swap1\n      tag_35\n      swap2\n      swap1\n      tag_36\n      jump\t// in\n    tag_35:\n      tag_37\n      jump\t// in\n    tag_34:\n      stop\n        /* \"Projects/BlindAuction-Dapp/blindauction-contract/contracts/BlindAuction.sol\":623:658  mapping(address => Bid) public bids */\n    tag_7:\n      callvalue\n      dup1\n      iszero\n      tag_38\n      jumpi\n      0x00\n      dup1\n      revert\n    tag_38:\n      pop\n      tag_39\n      0x04\n      dup1\n      calldatasize\n      sub\n      dup2\n      add\n      swap1\n      tag_40\n      swap2\n      swap1\n      tag_41\n      jump\t// in\n    tag_40:\n      tag_42\n      jump\t// in\n    tag_39:\n      mload(0x40)\n      tag_43\n      swap3\n      swap2\n      swap1\n      tag_44\n      jump\t// in\n    tag_43:\n      mload(0x40)\n      dup1\n      swap2\n      sub\n      swap1\n      return\n        /* \"Projects/BlindAuction-Dapp/blindauction-contract/contracts/BlindAuction.sol\":310:336  Khash public khashContract */\n    tag_8:\n      callvalue\n      dup1\n      iszero\n      tag_45\n      jumpi\n      0x00\n      dup1\n      revert\n    tag_45:\n      pop\n      tag_46\n      tag_47\n      jump\t// in\n    tag_46:\n      mload(0x40)\n      tag_48\n      swap2\n      swap1\n      tag_49\n      jump\t// in\n    tag_48:\n      mload(0x40)\n      dup1\n      swap2\n      sub\n      swap1\n      return\n        /* \"Projects/BlindAuction-Dapp/blindauction-contract/contracts/BlindAuction.sol\":733:761  address public highestBidder */\n    tag_9:\n      callvalue\n      dup1\n      iszero\n      tag_50\n      jumpi\n      0x00\n      dup1\n      revert\n    tag_50:\n      pop\n      tag_51\n      tag_52\n      jump\t// in\n    tag_51:\n      mload(0x40)\n      tag_53\n      swap2\n      swap1\n      tag_54\n      jump\t// in\n    tag_53:\n      mload(0x40)\n      dup1\n      swap2\n      sub\n      swap1\n      return\n        /* \"Projects/BlindAuction-Dapp/blindauction-contract/contracts/BlindAuction.sol\":2266:2701  function cancelBid() ... */\n    tag_10:\n      callvalue\n      dup1\n      iszero\n      tag_55\n      jumpi\n      0x00\n      dup1\n      revert\n    tag_55:\n      pop\n      tag_56\n      tag_57\n      jump\t// in\n    tag_56:\n      stop\n        /* \"Projects/BlindAuction-Dapp/blindauction-contract/contracts/BlindAuction.sol\":4032:4169  function checkRefund()... */\n    tag_11:\n      callvalue\n      dup1\n      iszero\n      tag_58\n      jumpi\n      0x00\n      dup1\n      revert\n    tag_58:\n      pop\n      tag_59\n      tag_60\n      jump\t// in\n    tag_59:\n      mload(0x40)\n      tag_61\n      swap2\n      swap1\n      tag_62\n      jump\t// in\n    tag_61:\n      mload(0x40)\n      dup1\n      swap2\n      sub\n      swap1\n      return\n        /* \"Projects/BlindAuction-Dapp/blindauction-contract/contracts/BlindAuction.sol\":2015:2258  function bid(bytes32 _blindedBid) ... */\n    tag_12:\n      tag_63\n      0x04\n      dup1\n      calldatasize\n      sub\n      dup2\n      add\n      swap1\n      tag_64\n      swap2\n      swap1\n      tag_65\n      jump\t// in\n    tag_64:\n      tag_66\n      jump\t// in\n    tag_63:\n      stop\n        /* \"Projects/BlindAuction-Dapp/blindauction-contract/contracts/BlindAuction.sol\":1360:2007  function advancePhase() ... */\n    tag_13:\n      callvalue\n      dup1\n      iszero\n      tag_67\n      jumpi\n      0x00\n      dup1\n      revert\n    tag_67:\n      pop\n      tag_68\n      tag_69\n      jump\t// in\n    tag_68:\n      stop\n        /* \"Projects/BlindAuction-Dapp/blindauction-contract/contracts/BlindAuction.sol\":768:790  uint public highestBid */\n    tag_14:\n      callvalue\n      dup1\n      iszero\n      tag_70\n      jumpi\n      0x00\n      dup1\n      revert\n    tag_70:\n      pop\n      tag_71\n      tag_72\n      jump\t// in\n    tag_71:\n      mload(0x40)\n      tag_73\n      swap2\n      swap1\n      tag_62\n      jump\t// in\n    tag_73:\n      mload(0x40)\n      dup1\n      swap2\n      sub\n      swap1\n      return\n        /* \"Projects/BlindAuction-Dapp/blindauction-contract/contracts/BlindAuction.sol\":576:614  Phase public currentPhase = Phase.Init */\n    tag_19:\n      0x01\n      0x14\n      swap1\n      sload\n      swap1\n      0x0100\n      exp\n      swap1\n      div\n      0xff\n      and\n      dup2\n      jump\t// out\n        /* \"Projects/BlindAuction-Dapp/blindauction-contract/contracts/BlindAuction.sol\":4177:4459  function auctionEnd() ... */\n    tag_24:\n        /* \"Projects/BlindAuction-Dapp/blindauction-contract/contracts/BlindAuction.sol\":1027:1038  beneficiary */\n      0x01\n      0x00\n      swap1\n      sload\n      swap1\n      0x0100\n      exp\n      swap1\n      div\n      0xffffffffffffffffffffffffffffffffffffffff\n      and\n        /* \"Projects/BlindAuction-Dapp/blindauction-contract/contracts/BlindAuction.sol\":1013:1038  msg.sender == beneficiary */\n      0xffffffffffffffffffffffffffffffffffffffff\n      and\n        /* \"Projects/BlindAuction-Dapp/blindauction-contract/contracts/BlindAuction.sol\":1013:1023  msg.sender */\n      caller\n        /* \"Projects/BlindAuction-Dapp/blindauction-contract/contracts/BlindAuction.sol\":1013:1038  msg.sender == beneficiary */\n      0xffffffffffffffffffffffffffffffffffffffff\n      and\n      eq\n        /* \"Projects/BlindAuction-Dapp/blindauction-contract/contracts/BlindAuction.sol\":1005:1073  require(msg.sender == beneficiary, \"Only beneficiary can call this\") */\n      tag_75\n      jumpi\n      mload(0x40)\n      0x08c379a000000000000000000000000000000000000000000000000000000000\n      dup2\n      mstore\n      0x04\n      add\n      tag_76\n      swap1\n      tag_77\n      jump\t// in\n    tag_76:\n      mload(0x40)\n      dup1\n      swap2\n      sub\n      swap1\n      revert\n    tag_75:\n        /* \"Projects/BlindAuction-Dapp/blindauction-contract/contracts/BlindAuction.sol\":4262:4272  Phase.Done */\n      0x03\n        /* \"Projects/BlindAuction-Dapp/blindauction-contract/contracts/BlindAuction.sol\":1167:1173  _phase */\n      dup1\n        /* \"Projects/BlindAuction-Dapp/blindauction-contract/contracts/BlindAuction.sol\":1151:1173  currentPhase == _phase */\n      0x03\n      dup2\n      gt\n      iszero\n      tag_79\n      jumpi\n      tag_80\n      tag_81\n      jump\t// in\n    tag_80:\n    tag_79:\n        /* \"Projects/BlindAuction-Dapp/blindauction-contract/contracts/BlindAuction.sol\":1151:1163  currentPhase */\n      0x01\n      0x14\n      swap1\n      sload\n      swap1\n      0x0100\n      exp\n      swap1\n      div\n      0xff\n      and\n        /* \"Projects/BlindAuction-Dapp/blindauction-contract/contracts/BlindAuction.sol\":1151:1173  currentPhase == _phase */\n      0x03\n      dup2\n      gt\n      iszero\n      tag_82\n      jumpi\n      tag_83\n      tag_81\n      jump\t// in\n    tag_83:\n    tag_82:\n      eq\n        /* \"Projects/BlindAuction-Dapp/blindauction-contract/contracts/BlindAuction.sol\":1143:1191  require(currentPhase == _phase, \"Invalid phase\") */\n      tag_84\n      jumpi\n      mload(0x40)\n      0x08c379a000000000000000000000000000000000000000000000000000000000\n      dup2\n      mstore\n      0x04\n      add\n      tag_85\n      swap1\n      tag_86\n      jump\t// in\n    tag_85:\n      mload(0x40)\n      dup1\n      swap2\n      sub\n      swap1\n      revert\n    tag_84:\n        /* \"Projects/BlindAuction-Dapp/blindauction-contract/contracts/BlindAuction.sol\":4318:4319  0 */\n      0x00\n        /* \"Projects/BlindAuction-Dapp/blindauction-contract/contracts/BlindAuction.sol\":4293:4320  highestBidder != address(0) */\n      0xffffffffffffffffffffffffffffffffffffffff\n      and\n        /* \"Projects/BlindAuction-Dapp/blindauction-contract/contracts/BlindAuction.sol\":4293:4306  highestBidder */\n      0x04\n      0x00\n      swap1\n      sload\n      swap1\n      0x0100\n      exp\n      swap1\n      div\n      0xffffffffffffffffffffffffffffffffffffffff\n      and\n        /* \"Projects/BlindAuction-Dapp/blindauction-contract/contracts/BlindAuction.sol\":4293:4320  highestBidder != address(0) */\n      0xffffffffffffffffffffffffffffffffffffffff\n      and\n      eq\n        /* \"Projects/BlindAuction-Dapp/blindauction-contract/contracts/BlindAuction.sol\":4289:4389  if (highestBidder != address(0)) {... */\n      tag_88\n      jumpi\n        /* \"Projects/BlindAuction-Dapp/blindauction-contract/contracts/BlindAuction.sol\":4341:4352  beneficiary */\n      0x01\n      0x00\n      swap1\n      sload\n      swap1\n      0x0100\n      exp\n      swap1\n      div\n      0xffffffffffffffffffffffffffffffffffffffff\n      and\n        /* \"Projects/BlindAuction-Dapp/blindauction-contract/contracts/BlindAuction.sol\":4341:4361  beneficiary.transfer */\n      0xffffffffffffffffffffffffffffffffffffffff\n      and\n        /* \"Projects/BlindAuction-Dapp/blindauction-contract/contracts/BlindAuction.sol\":4341:4373  beneficiary.transfer(highestBid) */\n      0x08fc\n        /* \"Projects/BlindAuction-Dapp/blindauction-contract/contracts/BlindAuction.sol\":4362:4372  highestBid */\n      sload(0x05)\n        /* \"Projects/BlindAuction-Dapp/blindauction-contract/contracts/BlindAuction.sol\":4341:4373  beneficiary.transfer(highestBid) */\n      swap1\n      dup2\n      iszero\n      mul\n      swap1\n      mload(0x40)\n      0x00\n      mload(0x40)\n      dup1\n      dup4\n      sub\n      dup2\n      dup6\n      dup9\n      dup9\n      call\n      swap4\n      pop\n      pop\n      pop\n      pop\n      iszero\n      dup1\n      iszero\n      tag_90\n      jumpi\n      returndatasize\n      0x00\n      dup1\n      returndatacopy\n      revert(0x00, returndatasize)\n    tag_90:\n      pop\n        /* \"Projects/BlindAuction-Dapp/blindauction-contract/contracts/BlindAuction.sol\":4289:4389  if (highestBidder != address(0)) {... */\n    tag_88:\n        /* \"Projects/BlindAuction-Dapp/blindauction-contract/contracts/BlindAuction.sol\":4408:4447  AuctionEnded(highestBidder, highestBid) */\n      0xdaec4582d5d9595688c8c98545fdd1c696d41c6aeaeb636737e84ed2f5c00eda\n        /* \"Projects/BlindAuction-Dapp/blindauction-contract/contracts/BlindAuction.sol\":4421:4434  highestBidder */\n      0x04\n      0x00\n      swap1\n      sload\n      swap1\n      0x0100\n      exp\n      swap1\n      div\n      0xffffffffffffffffffffffffffffffffffffffff\n      and\n        /* \"Projects/BlindAuction-Dapp/blindauction-contract/contracts/BlindAuction.sol\":4436:4446  highestBid */\n      sload(0x05)\n        /* \"Projects/BlindAuction-Dapp/blindauction-contract/contracts/BlindAuction.sol\":4408:4447  AuctionEnded(highestBidder, highestBid) */\n      mload(0x40)\n      tag_91\n      swap3\n      swap2\n      swap1\n      tag_92\n      jump\t// in\n    tag_91:\n      mload(0x40)\n      dup1\n      swap2\n      sub\n      swap1\n      log1\n        /* \"Projects/BlindAuction-Dapp/blindauction-contract/contracts/BlindAuction.sol\":1084:1085  _ */\n      pop\n        /* \"Projects/BlindAuction-Dapp/blindauction-contract/contracts/BlindAuction.sol\":4177:4459  function auctionEnd() ... */\n      jump\t// out\n        /* \"Projects/BlindAuction-Dapp/blindauction-contract/contracts/BlindAuction.sol\":535:569  address payable public beneficiary */\n    tag_27:\n      0x01\n      0x00\n      swap1\n      sload\n      swap1\n      0x0100\n      exp\n      swap1\n      div\n      0xffffffffffffffffffffffffffffffffffffffff\n      and\n      dup2\n      jump\t// out\n        /* \"Projects/BlindAuction-Dapp/blindauction-contract/contracts/BlindAuction.sol\":3774:4024  function withdraw() ... */\n    tag_32:\n        /* \"Projects/BlindAuction-Dapp/blindauction-contract/contracts/BlindAuction.sol\":3826:3837  uint amount */\n      0x00\n        /* \"Projects/BlindAuction-Dapp/blindauction-contract/contracts/BlindAuction.sol\":3840:3854  pendingReturns */\n      0x03\n        /* \"Projects/BlindAuction-Dapp/blindauction-contract/contracts/BlindAuction.sol\":3840:3866  pendingReturns[msg.sender] */\n      0x00\n        /* \"Projects/BlindAuction-Dapp/blindauction-contract/contracts/BlindAuction.sol\":3855:3865  msg.sender */\n      caller\n        /* \"Projects/BlindAuction-Dapp/blindauction-contract/contracts/BlindAuction.sol\":3840:3866  pendingReturns[msg.sender] */\n      0xffffffffffffffffffffffffffffffffffffffff\n      and\n      0xffffffffffffffffffffffffffffffffffffffff\n      and\n      dup2\n      mstore\n      0x20\n      add\n      swap1\n      dup2\n      mstore\n      0x20\n      add\n      0x00\n      keccak256\n      sload\n        /* \"Projects/BlindAuction-Dapp/blindauction-contract/contracts/BlindAuction.sol\":3826:3866  uint amount = pendingReturns[msg.sender] */\n      swap1\n      pop\n        /* \"Projects/BlindAuction-Dapp/blindauction-contract/contracts/BlindAuction.sol\":3894:3895  0 */\n      0x00\n        /* \"Projects/BlindAuction-Dapp/blindauction-contract/contracts/BlindAuction.sol\":3885:3891  amount */\n      dup2\n        /* \"Projects/BlindAuction-Dapp/blindauction-contract/contracts/BlindAuction.sol\":3885:3895  amount > 0 */\n      gt\n        /* \"Projects/BlindAuction-Dapp/blindauction-contract/contracts/BlindAuction.sol\":3881:4017  if (amount > 0) {... */\n      iszero\n      tag_94\n      jumpi\n        /* \"Projects/BlindAuction-Dapp/blindauction-contract/contracts/BlindAuction.sol\":3945:3946  0 */\n      0x00\n        /* \"Projects/BlindAuction-Dapp/blindauction-contract/contracts/BlindAuction.sol\":3916:3930  pendingReturns */\n      0x03\n        /* \"Projects/BlindAuction-Dapp/blindauction-contract/contracts/BlindAuction.sol\":3916:3942  pendingReturns[msg.sender] */\n      0x00\n        /* \"Projects/BlindAuction-Dapp/blindauction-contract/contracts/BlindAuction.sol\":3931:3941  msg.sender */\n      caller\n        /* \"Projects/BlindAuction-Dapp/blindauction-contract/contracts/BlindAuction.sol\":3916:3942  pendingReturns[msg.sender] */\n      0xffffffffffffffffffffffffffffffffffffffff\n      and\n      0xffffffffffffffffffffffffffffffffffffffff\n      and\n      dup2\n      mstore\n      0x20\n      add\n      swap1\n      dup2\n      mstore\n      0x20\n      add\n      0x00\n      keccak256\n        /* \"Projects/BlindAuction-Dapp/blindauction-contract/contracts/BlindAuction.sol\":3916:3946  pendingReturns[msg.sender] = 0 */\n      dup2\n      swap1\n      sstore\n      pop\n        /* \"Projects/BlindAuction-Dapp/blindauction-contract/contracts/BlindAuction.sol\":3973:3983  msg.sender */\n      caller\n        /* \"Projects/BlindAuction-Dapp/blindauction-contract/contracts/BlindAuction.sol\":3965:3993  payable(msg.sender).transfer */\n      0xffffffffffffffffffffffffffffffffffffffff\n      and\n        /* \"Projects/BlindAuction-Dapp/blindauction-contract/contracts/BlindAuction.sol\":3965:4001  payable(msg.sender).transfer(amount) */\n      0x08fc\n        /* \"Projects/BlindAuction-Dapp/blindauction-contract/contracts/BlindAuction.sol\":3994:4000  amount */\n      dup3\n        /* \"Projects/BlindAuction-Dapp/blindauction-contract/contracts/BlindAuction.sol\":3965:4001  payable(msg.sender).transfer(amount) */\n      swap1\n      dup2\n      iszero\n      mul\n      swap1\n      mload(0x40)\n      0x00\n      mload(0x40)\n      dup1\n      dup4\n      sub\n      dup2\n      dup6\n      dup9\n      dup9\n      call\n      swap4\n      pop\n      pop\n      pop\n      pop\n      iszero\n      dup1\n      iszero\n      tag_96\n      jumpi\n      returndatasize\n      0x00\n      dup1\n      returndatacopy\n      revert(0x00, returndatasize)\n    tag_96:\n      pop\n        /* \"Projects/BlindAuction-Dapp/blindauction-contract/contracts/BlindAuction.sol\":3881:4017  if (amount > 0) {... */\n    tag_94:\n        /* \"Projects/BlindAuction-Dapp/blindauction-contract/contracts/BlindAuction.sol\":3811:4024  {... */\n      pop\n        /* \"Projects/BlindAuction-Dapp/blindauction-contract/contracts/BlindAuction.sol\":3774:4024  function withdraw() ... */\n      jump\t// out\n        /* \"Projects/BlindAuction-Dapp/blindauction-contract/contracts/BlindAuction.sol\":2769:3762  function reveal(uint _value, bytes32 _password) ... */\n    tag_37:\n        /* \"Projects/BlindAuction-Dapp/blindauction-contract/contracts/BlindAuction.sol\":2852:2864  Phase.Reveal */\n      0x02\n        /* \"Projects/BlindAuction-Dapp/blindauction-contract/contracts/BlindAuction.sol\":1167:1173  _phase */\n      dup1\n        /* \"Projects/BlindAuction-Dapp/blindauction-contract/contracts/BlindAuction.sol\":1151:1173  currentPhase == _phase */\n      0x03\n      dup2\n      gt\n      iszero\n      tag_98\n      jumpi\n      tag_99\n      tag_81\n      jump\t// in\n    tag_99:\n    tag_98:\n        /* \"Projects/BlindAuction-Dapp/blindauction-contract/contracts/BlindAuction.sol\":1151:1163  currentPhase */\n      0x01\n      0x14\n      swap1\n      sload\n      swap1\n      0x0100\n      exp\n      swap1\n      div\n      0xff\n      and\n        /* \"Projects/BlindAuction-Dapp/blindauction-contract/contracts/BlindAuction.sol\":1151:1173  currentPhase == _phase */\n      0x03\n      dup2\n      gt\n      iszero\n      tag_100\n      jumpi\n      tag_101\n      tag_81\n      jump\t// in\n    tag_101:\n    tag_100:\n      eq\n        /* \"Projects/BlindAuction-Dapp/blindauction-contract/contracts/BlindAuction.sol\":1143:1191  require(currentPhase == _phase, \"Invalid phase\") */\n      tag_102\n      jumpi\n      mload(0x40)\n      0x08c379a000000000000000000000000000000000000000000000000000000000\n      dup2\n      mstore\n      0x04\n      add\n      tag_103\n      swap1\n      tag_86\n      jump\t// in\n    tag_103:\n      mload(0x40)\n      dup1\n      swap2\n      sub\n      swap1\n      revert\n    tag_102:\n        /* \"Projects/BlindAuction-Dapp/blindauction-contract/contracts/BlindAuction.sol\":2881:2903  Bid storage bidToCheck */\n      0x00\n        /* \"Projects/BlindAuction-Dapp/blindauction-contract/contracts/BlindAuction.sol\":2906:2910  bids */\n      0x02\n        /* \"Projects/BlindAuction-Dapp/blindauction-contract/contracts/BlindAuction.sol\":2906:2922  bids[msg.sender] */\n      0x00\n        /* \"Projects/BlindAuction-Dapp/blindauction-contract/contracts/BlindAuction.sol\":2911:2921  msg.sender */\n      caller\n        /* \"Projects/BlindAuction-Dapp/blindauction-contract/contracts/BlindAuction.sol\":2906:2922  bids[msg.sender] */\n      0xffffffffffffffffffffffffffffffffffffffff\n      and\n      0xffffffffffffffffffffffffffffffffffffffff\n      and\n      dup2\n      mstore\n      0x20\n      add\n      swap1\n      dup2\n      mstore\n      0x20\n      add\n      0x00\n      keccak256\n        /* \"Projects/BlindAuction-Dapp/blindauction-contract/contracts/BlindAuction.sol\":2881:2922  Bid storage bidToCheck = bids[msg.sender] */\n      swap1\n      pop\n        /* \"Projects/BlindAuction-Dapp/blindauction-contract/contracts/BlindAuction.sol\":2951:2968  bytes32 hashedBid */\n      0x00\n        /* \"Projects/BlindAuction-Dapp/blindauction-contract/contracts/BlindAuction.sol\":2971:2984  khashContract */\n      dup1\n      0x00\n      swap1\n      sload\n      swap1\n      0x0100\n      exp\n      swap1\n      div\n      0xffffffffffffffffffffffffffffffffffffffff\n      and\n        /* \"Projects/BlindAuction-Dapp/blindauction-contract/contracts/BlindAuction.sol\":2971:2991  khashContract.hashMe */\n      0xffffffffffffffffffffffffffffffffffffffff\n      and\n      0xb3ec48dd\n        /* \"Projects/BlindAuction-Dapp/blindauction-contract/contracts/BlindAuction.sol\":2992:2998  _value */\n      dup7\n        /* \"Projects/BlindAuction-Dapp/blindauction-contract/contracts/BlindAuction.sol\":3000:3009  _password */\n      dup7\n        /* \"Projects/BlindAuction-Dapp/blindauction-contract/contracts/BlindAuction.sol\":2971:3010  khashContract.hashMe(_value, _password) */\n      mload(0x40)\n      dup4\n      0xffffffff\n      and\n      0xe0\n      shl\n      dup2\n      mstore\n      0x04\n      add\n      tag_105\n      swap3\n      swap2\n      swap1\n      tag_106\n      jump\t// in\n    tag_105:\n      0x20\n      mload(0x40)\n      dup1\n      dup4\n      sub\n      dup2\n      dup7\n      gas\n      staticcall\n      iszero\n      dup1\n      iszero\n      tag_108\n      jumpi\n      returndatasize\n      0x00\n      dup1\n      returndatacopy\n      revert(0x00, returndatasize)\n    tag_108:\n      pop\n      pop\n      pop\n      pop\n      mload(0x40)\n      returndatasize\n      not(0x1f)\n      0x1f\n      dup3\n      add\n      and\n      dup3\n      add\n      dup1\n      0x40\n      mstore\n      pop\n      dup2\n      add\n      swap1\n      tag_109\n      swap2\n      swap1\n      tag_110\n      jump\t// in\n    tag_109:\n        /* \"Projects/BlindAuction-Dapp/blindauction-contract/contracts/BlindAuction.sol\":2951:3010  bytes32 hashedBid = khashContract.hashMe(_value, _password) */\n      swap1\n      pop\n        /* \"Projects/BlindAuction-Dapp/blindauction-contract/contracts/BlindAuction.sol\":3056:3065  hashedBid */\n      dup1\n        /* \"Projects/BlindAuction-Dapp/blindauction-contract/contracts/BlindAuction.sol\":3031:3041  bidToCheck */\n      dup3\n        /* \"Projects/BlindAuction-Dapp/blindauction-contract/contracts/BlindAuction.sol\":3031:3052  bidToCheck.blindedBid */\n      0x00\n      add\n      sload\n        /* \"Projects/BlindAuction-Dapp/blindauction-contract/contracts/BlindAuction.sol\":3031:3065  bidToCheck.blindedBid == hashedBid */\n      sub\n        /* \"Projects/BlindAuction-Dapp/blindauction-contract/contracts/BlindAuction.sol\":3027:3706  if (bidToCheck.blindedBid == hashedBid) {... */\n      tag_111\n      jumpi\n        /* \"Projects/BlindAuction-Dapp/blindauction-contract/contracts/BlindAuction.sol\":3086:3097  uint refund */\n      0x00\n        /* \"Projects/BlindAuction-Dapp/blindauction-contract/contracts/BlindAuction.sol\":3100:3110  bidToCheck */\n      dup3\n        /* \"Projects/BlindAuction-Dapp/blindauction-contract/contracts/BlindAuction.sol\":3100:3118  bidToCheck.deposit */\n      0x01\n      add\n      sload\n        /* \"Projects/BlindAuction-Dapp/blindauction-contract/contracts/BlindAuction.sol\":3086:3118  uint refund = bidToCheck.deposit */\n      swap1\n      pop\n        /* \"Projects/BlindAuction-Dapp/blindauction-contract/contracts/BlindAuction.sol\":3160:3170  highestBid */\n      sload(0x05)\n        /* \"Projects/BlindAuction-Dapp/blindauction-contract/contracts/BlindAuction.sol\":3150:3157  1 ether */\n      0x0de0b6b3a7640000\n        /* \"Projects/BlindAuction-Dapp/blindauction-contract/contracts/BlindAuction.sol\":3141:3147  _value */\n      dup8\n        /* \"Projects/BlindAuction-Dapp/blindauction-contract/contracts/BlindAuction.sol\":3141:3157  _value * 1 ether */\n      tag_112\n      swap2\n      swap1\n      tag_113\n      jump\t// in\n    tag_112:\n        /* \"Projects/BlindAuction-Dapp/blindauction-contract/contracts/BlindAuction.sol\":3141:3170  _value * 1 ether > highestBid */\n      gt\n        /* \"Projects/BlindAuction-Dapp/blindauction-contract/contracts/BlindAuction.sol\":3137:3491  if (_value * 1 ether > highestBid) {... */\n      iszero\n      tag_114\n      jumpi\n        /* \"Projects/BlindAuction-Dapp/blindauction-contract/contracts/BlindAuction.sol\":3224:3225  0 */\n      0x00\n        /* \"Projects/BlindAuction-Dapp/blindauction-contract/contracts/BlindAuction.sol\":3199:3226  highestBidder != address(0) */\n      0xffffffffffffffffffffffffffffffffffffffff\n      and\n        /* \"Projects/BlindAuction-Dapp/blindauction-contract/contracts/BlindAuction.sol\":3199:3212  highestBidder */\n      0x04\n      0x00\n      swap1\n      sload\n      swap1\n      0x0100\n      exp\n      swap1\n      div\n      0xffffffffffffffffffffffffffffffffffffffff\n      and\n        /* \"Projects/BlindAuction-Dapp/blindauction-contract/contracts/BlindAuction.sol\":3199:3226  highestBidder != address(0) */\n      0xffffffffffffffffffffffffffffffffffffffff\n      and\n      eq\n        /* \"Projects/BlindAuction-Dapp/blindauction-contract/contracts/BlindAuction.sol\":3195:3322  if (highestBidder != address(0)) {... */\n      tag_115\n      jumpi\n        /* \"Projects/BlindAuction-Dapp/blindauction-contract/contracts/BlindAuction.sol\":3288:3298  highestBid */\n      sload(0x05)\n        /* \"Projects/BlindAuction-Dapp/blindauction-contract/contracts/BlindAuction.sol\":3255:3269  pendingReturns */\n      0x03\n        /* \"Projects/BlindAuction-Dapp/blindauction-contract/contracts/BlindAuction.sol\":3255:3284  pendingReturns[highestBidder] */\n      0x00\n        /* \"Projects/BlindAuction-Dapp/blindauction-contract/contracts/BlindAuction.sol\":3270:3283  highestBidder */\n      0x04\n      0x00\n      swap1\n      sload\n      swap1\n      0x0100\n      exp\n      swap1\n      div\n      0xffffffffffffffffffffffffffffffffffffffff\n      and\n        /* \"Projects/BlindAuction-Dapp/blindauction-contract/contracts/BlindAuction.sol\":3255:3284  pendingReturns[highestBidder] */\n      0xffffffffffffffffffffffffffffffffffffffff\n      and\n      0xffffffffffffffffffffffffffffffffffffffff\n      and\n      dup2\n      mstore\n      0x20\n      add\n      swap1\n      dup2\n      mstore\n      0x20\n      add\n      0x00\n      keccak256\n      0x00\n        /* \"Projects/BlindAuction-Dapp/blindauction-contract/contracts/BlindAuction.sol\":3255:3298  pendingReturns[highestBidder] += highestBid */\n      dup3\n      dup3\n      sload\n      tag_116\n      swap2\n      swap1\n      tag_117\n      jump\t// in\n    tag_116:\n      swap3\n      pop\n      pop\n      dup2\n      swap1\n      sstore\n      pop\n        /* \"Projects/BlindAuction-Dapp/blindauction-contract/contracts/BlindAuction.sol\":3195:3322  if (highestBidder != address(0)) {... */\n    tag_115:\n        /* \"Projects/BlindAuction-Dapp/blindauction-contract/contracts/BlindAuction.sol\":3360:3370  msg.sender */\n      caller\n        /* \"Projects/BlindAuction-Dapp/blindauction-contract/contracts/BlindAuction.sol\":3344:3357  highestBidder */\n      0x04\n      0x00\n        /* \"Projects/BlindAuction-Dapp/blindauction-contract/contracts/BlindAuction.sol\":3344:3370  highestBidder = msg.sender */\n      0x0100\n      exp\n      dup2\n      sload\n      dup2\n      0xffffffffffffffffffffffffffffffffffffffff\n      mul\n      not\n      and\n      swap1\n      dup4\n      0xffffffffffffffffffffffffffffffffffffffff\n      and\n      mul\n      or\n      swap1\n      sstore\n      pop\n        /* \"Projects/BlindAuction-Dapp/blindauction-contract/contracts/BlindAuction.sol\":3415:3422  1 ether */\n      0x0de0b6b3a7640000\n        /* \"Projects/BlindAuction-Dapp/blindauction-contract/contracts/BlindAuction.sol\":3406:3412  _value */\n      dup7\n        /* \"Projects/BlindAuction-Dapp/blindauction-contract/contracts/BlindAuction.sol\":3406:3422  _value * 1 ether */\n      tag_118\n      swap2\n      swap1\n      tag_113\n      jump\t// in\n    tag_118:\n        /* \"Projects/BlindAuction-Dapp/blindauction-contract/contracts/BlindAuction.sol\":3393:3403  highestBid */\n      0x05\n        /* \"Projects/BlindAuction-Dapp/blindauction-contract/contracts/BlindAuction.sol\":3393:3422  highestBid = _value * 1 ether */\n      dup2\n      swap1\n      sstore\n      pop\n        /* \"Projects/BlindAuction-Dapp/blindauction-contract/contracts/BlindAuction.sol\":3464:3471  1 ether */\n      0x0de0b6b3a7640000\n        /* \"Projects/BlindAuction-Dapp/blindauction-contract/contracts/BlindAuction.sol\":3455:3461  _value */\n      dup7\n        /* \"Projects/BlindAuction-Dapp/blindauction-contract/contracts/BlindAuction.sol\":3455:3471  _value * 1 ether */\n      tag_119\n      swap2\n      swap1\n      tag_113\n      jump\t// in\n    tag_119:\n        /* \"Projects/BlindAuction-Dapp/blindauction-contract/contracts/BlindAuction.sol\":3445:3471  refund -= _value * 1 ether */\n      dup2\n      tag_120\n      swap2\n      swap1\n      tag_121\n      jump\t// in\n    tag_120:\n      swap1\n      pop\n        /* \"Projects/BlindAuction-Dapp/blindauction-contract/contracts/BlindAuction.sol\":3137:3491  if (_value * 1 ether > highestBid) {... */\n    tag_114:\n        /* \"Projects/BlindAuction-Dapp/blindauction-contract/contracts/BlindAuction.sol\":3522:3523  0 */\n      0x00\n        /* \"Projects/BlindAuction-Dapp/blindauction-contract/contracts/BlindAuction.sol\":3513:3519  refund */\n      dup2\n        /* \"Projects/BlindAuction-Dapp/blindauction-contract/contracts/BlindAuction.sol\":3513:3523  refund > 0 */\n      gt\n        /* \"Projects/BlindAuction-Dapp/blindauction-contract/contracts/BlindAuction.sol\":3509:3603  if (refund > 0) {... */\n      iszero\n      tag_122\n      jumpi\n        /* \"Projects/BlindAuction-Dapp/blindauction-contract/contracts/BlindAuction.sol\":3577:3583  refund */\n      dup1\n        /* \"Projects/BlindAuction-Dapp/blindauction-contract/contracts/BlindAuction.sol\":3548:3562  pendingReturns */\n      0x03\n        /* \"Projects/BlindAuction-Dapp/blindauction-contract/contracts/BlindAuction.sol\":3548:3574  pendingReturns[msg.sender] */\n      0x00\n        /* \"Projects/BlindAuction-Dapp/blindauction-contract/contracts/BlindAuction.sol\":3563:3573  msg.sender */\n      caller\n        /* \"Projects/BlindAuction-Dapp/blindauction-contract/contracts/BlindAuction.sol\":3548:3574  pendingReturns[msg.sender] */\n      0xffffffffffffffffffffffffffffffffffffffff\n      and\n      0xffffffffffffffffffffffffffffffffffffffff\n      and\n      dup2\n      mstore\n      0x20\n      add\n      swap1\n      dup2\n      mstore\n      0x20\n      add\n      0x00\n      keccak256\n        /* \"Projects/BlindAuction-Dapp/blindauction-contract/contracts/BlindAuction.sol\":3548:3583  pendingReturns[msg.sender] = refund */\n      dup2\n      swap1\n      sstore\n      pop\n        /* \"Projects/BlindAuction-Dapp/blindauction-contract/contracts/BlindAuction.sol\":3509:3603  if (refund > 0) {... */\n    tag_122:\n        /* \"Projects/BlindAuction-Dapp/blindauction-contract/contracts/BlindAuction.sol\":3067:3618  {... */\n      pop\n        /* \"Projects/BlindAuction-Dapp/blindauction-contract/contracts/BlindAuction.sol\":3027:3706  if (bidToCheck.blindedBid == hashedBid) {... */\n      jump(tag_123)\n    tag_111:\n        /* \"Projects/BlindAuction-Dapp/blindauction-contract/contracts/BlindAuction.sol\":3672:3682  bidToCheck */\n      dup2\n        /* \"Projects/BlindAuction-Dapp/blindauction-contract/contracts/BlindAuction.sol\":3672:3690  bidToCheck.deposit */\n      0x01\n      add\n      sload\n        /* \"Projects/BlindAuction-Dapp/blindauction-contract/contracts/BlindAuction.sol\":3643:3657  pendingReturns */\n      0x03\n        /* \"Projects/BlindAuction-Dapp/blindauction-contract/contracts/BlindAuction.sol\":3643:3669  pendingReturns[msg.sender] */\n      0x00\n        /* \"Projects/BlindAuction-Dapp/blindauction-contract/contracts/BlindAuction.sol\":3658:3668  msg.sender */\n      caller\n        /* \"Projects/BlindAuction-Dapp/blindauction-contract/contracts/BlindAuction.sol\":3643:3669  pendingReturns[msg.sender] */\n      0xffffffffffffffffffffffffffffffffffffffff\n      and\n      0xffffffffffffffffffffffffffffffffffffffff\n      and\n      dup2\n      mstore\n      0x20\n      add\n      swap1\n      dup2\n      mstore\n      0x20\n      add\n      0x00\n      keccak256\n        /* \"Projects/BlindAuction-Dapp/blindauction-contract/contracts/BlindAuction.sol\":3643:3690  pendingReturns[msg.sender] = bidToCheck.deposit */\n      dup2\n      swap1\n      sstore\n      pop\n        /* \"Projects/BlindAuction-Dapp/blindauction-contract/contracts/BlindAuction.sol\":3027:3706  if (bidToCheck.blindedBid == hashedBid) {... */\n    tag_123:\n        /* \"Projects/BlindAuction-Dapp/blindauction-contract/contracts/BlindAuction.sol\":3752:3753  0 */\n      0x00\n        /* \"Projects/BlindAuction-Dapp/blindauction-contract/contracts/BlindAuction.sol\":3744:3754  bytes32(0) */\n      dup1\n      shl\n        /* \"Projects/BlindAuction-Dapp/blindauction-contract/contracts/BlindAuction.sol\":3720:3730  bidToCheck */\n      dup3\n        /* \"Projects/BlindAuction-Dapp/blindauction-contract/contracts/BlindAuction.sol\":3720:3741  bidToCheck.blindedBid */\n      0x00\n      add\n        /* \"Projects/BlindAuction-Dapp/blindauction-contract/contracts/BlindAuction.sol\":3720:3754  bidToCheck.blindedBid = bytes32(0) */\n      dup2\n      swap1\n      sstore\n      pop\n        /* \"Projects/BlindAuction-Dapp/blindauction-contract/contracts/BlindAuction.sol\":2866:3762  {... */\n      pop\n      pop\n        /* \"Projects/BlindAuction-Dapp/blindauction-contract/contracts/BlindAuction.sol\":2769:3762  function reveal(uint _value, bytes32 _password) ... */\n      pop\n      pop\n      pop\n      jump\t// out\n        /* \"Projects/BlindAuction-Dapp/blindauction-contract/contracts/BlindAuction.sol\":623:658  mapping(address => Bid) public bids */\n    tag_42:\n      mstore(0x20, 0x02)\n      dup1\n      0x00\n      mstore\n      keccak256(0x00, 0x40)\n      0x00\n      swap2\n      pop\n      swap1\n      pop\n      dup1\n      0x00\n      add\n      sload\n      swap1\n      dup1\n      0x01\n      add\n      sload\n      swap1\n      pop\n      dup3\n      jump\t// out\n        /* \"Projects/BlindAuction-Dapp/blindauction-contract/contracts/BlindAuction.sol\":310:336  Khash public khashContract */\n    tag_47:\n      0x00\n      dup1\n      sload\n      swap1\n      0x0100\n      exp\n      swap1\n      div\n      0xffffffffffffffffffffffffffffffffffffffff\n      and\n      dup2\n      jump\t// out\n        /* \"Projects/BlindAuction-Dapp/blindauction-contract/contracts/BlindAuction.sol\":733:761  address public highestBidder */\n    tag_52:\n      0x04\n      0x00\n      swap1\n      sload\n      swap1\n      0x0100\n      exp\n      swap1\n      div\n      0xffffffffffffffffffffffffffffffffffffffff\n      and\n      dup2\n      jump\t// out\n        /* \"Projects/BlindAuction-Dapp/blindauction-contract/contracts/BlindAuction.sol\":2266:2701  function cancelBid() ... */\n    tag_57:\n        /* \"Projects/BlindAuction-Dapp/blindauction-contract/contracts/BlindAuction.sol\":2322:2335  Phase.Bidding */\n      0x01\n        /* \"Projects/BlindAuction-Dapp/blindauction-contract/contracts/BlindAuction.sol\":1167:1173  _phase */\n      dup1\n        /* \"Projects/BlindAuction-Dapp/blindauction-contract/contracts/BlindAuction.sol\":1151:1173  currentPhase == _phase */\n      0x03\n      dup2\n      gt\n      iszero\n      tag_125\n      jumpi\n      tag_126\n      tag_81\n      jump\t// in\n    tag_126:\n    tag_125:\n        /* \"Projects/BlindAuction-Dapp/blindauction-contract/contracts/BlindAuction.sol\":1151:1163  currentPhase */\n      0x01\n      0x14\n      swap1\n      sload\n      swap1\n      0x0100\n      exp\n      swap1\n      div\n      0xff\n      and\n        /* \"Projects/BlindAuction-Dapp/blindauction-contract/contracts/BlindAuction.sol\":1151:1173  currentPhase == _phase */\n      0x03\n      dup2\n      gt\n      iszero\n      tag_127\n      jumpi\n      tag_128\n      tag_81\n      jump\t// in\n    tag_128:\n    tag_127:\n      eq\n        /* \"Projects/BlindAuction-Dapp/blindauction-contract/contracts/BlindAuction.sol\":1143:1191  require(currentPhase == _phase, \"Invalid phase\") */\n      tag_129\n      jumpi\n      mload(0x40)\n      0x08c379a000000000000000000000000000000000000000000000000000000000\n      dup2\n      mstore\n      0x04\n      add\n      tag_130\n      swap1\n      tag_86\n      jump\t// in\n    tag_130:\n      mload(0x40)\n      dup1\n      swap2\n      sub\n      swap1\n      revert\n    tag_129:\n        /* \"Projects/BlindAuction-Dapp/blindauction-contract/contracts/BlindAuction.sol\":2352:2369  Bid storage myBid */\n      0x00\n        /* \"Projects/BlindAuction-Dapp/blindauction-contract/contracts/BlindAuction.sol\":2372:2376  bids */\n      0x02\n        /* \"Projects/BlindAuction-Dapp/blindauction-contract/contracts/BlindAuction.sol\":2372:2388  bids[msg.sender] */\n      0x00\n        /* \"Projects/BlindAuction-Dapp/blindauction-contract/contracts/BlindAuction.sol\":2377:2387  msg.sender */\n      caller\n        /* \"Projects/BlindAuction-Dapp/blindauction-contract/contracts/BlindAuction.sol\":2372:2388  bids[msg.sender] */\n      0xffffffffffffffffffffffffffffffffffffffff\n      and\n      0xffffffffffffffffffffffffffffffffffffffff\n      and\n      dup2\n      mstore\n      0x20\n      add\n      swap1\n      dup2\n      mstore\n      0x20\n      add\n      0x00\n      keccak256\n        /* \"Projects/BlindAuction-Dapp/blindauction-contract/contracts/BlindAuction.sol\":2352:2388  Bid storage myBid = bids[msg.sender] */\n      swap1\n      pop\n        /* \"Projects/BlindAuction-Dapp/blindauction-contract/contracts/BlindAuction.sol\":2427:2428  0 */\n      0x00\n        /* \"Projects/BlindAuction-Dapp/blindauction-contract/contracts/BlindAuction.sol\":2411:2416  myBid */\n      dup2\n        /* \"Projects/BlindAuction-Dapp/blindauction-contract/contracts/BlindAuction.sol\":2411:2424  myBid.deposit */\n      0x01\n      add\n      sload\n        /* \"Projects/BlindAuction-Dapp/blindauction-contract/contracts/BlindAuction.sol\":2411:2428  myBid.deposit > 0 */\n      gt\n        /* \"Projects/BlindAuction-Dapp/blindauction-contract/contracts/BlindAuction.sol\":2403:2449  require(myBid.deposit > 0, \"No bid to cancel\") */\n      tag_132\n      jumpi\n      mload(0x40)\n      0x08c379a000000000000000000000000000000000000000000000000000000000\n      dup2\n      mstore\n      0x04\n      add\n      tag_133\n      swap1\n      tag_134\n      jump\t// in\n    tag_133:\n      mload(0x40)\n      dup1\n      swap2\n      sub\n      swap1\n      revert\n    tag_132:\n        /* \"Projects/BlindAuction-Dapp/blindauction-contract/contracts/BlindAuction.sol\":2466:2483  uint refundAmount */\n      0x00\n        /* \"Projects/BlindAuction-Dapp/blindauction-contract/contracts/BlindAuction.sol\":2486:2491  myBid */\n      dup2\n        /* \"Projects/BlindAuction-Dapp/blindauction-contract/contracts/BlindAuction.sol\":2486:2499  myBid.deposit */\n      0x01\n      add\n      sload\n        /* \"Projects/BlindAuction-Dapp/blindauction-contract/contracts/BlindAuction.sol\":2466:2499  uint refundAmount = myBid.deposit */\n      swap1\n      pop\n        /* \"Projects/BlindAuction-Dapp/blindauction-contract/contracts/BlindAuction.sol\":2530:2531  0 */\n      0x00\n        /* \"Projects/BlindAuction-Dapp/blindauction-contract/contracts/BlindAuction.sol\":2514:2519  myBid */\n      dup3\n        /* \"Projects/BlindAuction-Dapp/blindauction-contract/contracts/BlindAuction.sol\":2514:2527  myBid.deposit */\n      0x01\n      add\n        /* \"Projects/BlindAuction-Dapp/blindauction-contract/contracts/BlindAuction.sol\":2514:2531  myBid.deposit = 0 */\n      dup2\n      swap1\n      sstore\n      pop\n        /* \"Projects/BlindAuction-Dapp/blindauction-contract/contracts/BlindAuction.sol\":2573:2574  0 */\n      0x00\n        /* \"Projects/BlindAuction-Dapp/blindauction-contract/contracts/BlindAuction.sol\":2565:2575  bytes32(0) */\n      dup1\n      shl\n        /* \"Projects/BlindAuction-Dapp/blindauction-contract/contracts/BlindAuction.sol\":2546:2551  myBid */\n      dup3\n        /* \"Projects/BlindAuction-Dapp/blindauction-contract/contracts/BlindAuction.sol\":2546:2562  myBid.blindedBid */\n      0x00\n      add\n        /* \"Projects/BlindAuction-Dapp/blindauction-contract/contracts/BlindAuction.sol\":2546:2575  myBid.blindedBid = bytes32(0) */\n      dup2\n      swap1\n      sstore\n      pop\n        /* \"Projects/BlindAuction-Dapp/blindauction-contract/contracts/BlindAuction.sol\":2621:2633  refundAmount */\n      dup1\n        /* \"Projects/BlindAuction-Dapp/blindauction-contract/contracts/BlindAuction.sol\":2592:2606  pendingReturns */\n      0x03\n        /* \"Projects/BlindAuction-Dapp/blindauction-contract/contracts/BlindAuction.sol\":2592:2618  pendingReturns[msg.sender] */\n      0x00\n        /* \"Projects/BlindAuction-Dapp/blindauction-contract/contracts/BlindAuction.sol\":2607:2617  msg.sender */\n      caller\n        /* \"Projects/BlindAuction-Dapp/blindauction-contract/contracts/BlindAuction.sol\":2592:2618  pendingReturns[msg.sender] */\n      0xffffffffffffffffffffffffffffffffffffffff\n      and\n      0xffffffffffffffffffffffffffffffffffffffff\n      and\n      dup2\n      mstore\n      0x20\n      add\n      swap1\n      dup2\n      mstore\n      0x20\n      add\n      0x00\n      keccak256\n        /* \"Projects/BlindAuction-Dapp/blindauction-contract/contracts/BlindAuction.sol\":2592:2633  pendingReturns[msg.sender] = refundAmount */\n      dup2\n      swap1\n      sstore\n      pop\n        /* \"Projects/BlindAuction-Dapp/blindauction-contract/contracts/BlindAuction.sol\":2655:2693  BidCancelled(msg.sender, refundAmount) */\n      0x8d38c62ee74cd9e3dbcc09feaa7d1f5568aeaa35cbf8a0f167f513c07e2fd0b8\n        /* \"Projects/BlindAuction-Dapp/blindauction-contract/contracts/BlindAuction.sol\":2668:2678  msg.sender */\n      caller\n        /* \"Projects/BlindAuction-Dapp/blindauction-contract/contracts/BlindAuction.sol\":2680:2692  refundAmount */\n      dup3\n        /* \"Projects/BlindAuction-Dapp/blindauction-contract/contracts/BlindAuction.sol\":2655:2693  BidCancelled(msg.sender, refundAmount) */\n      mload(0x40)\n      tag_135\n      swap3\n      swap2\n      swap1\n      tag_92\n      jump\t// in\n    tag_135:\n      mload(0x40)\n      dup1\n      swap2\n      sub\n      swap1\n      log1\n        /* \"Projects/BlindAuction-Dapp/blindauction-contract/contracts/BlindAuction.sol\":2337:2701  {... */\n      pop\n      pop\n        /* \"Projects/BlindAuction-Dapp/blindauction-contract/contracts/BlindAuction.sol\":2266:2701  function cancelBid() ... */\n      pop\n      jump\t// out\n        /* \"Projects/BlindAuction-Dapp/blindauction-contract/contracts/BlindAuction.sol\":4032:4169  function checkRefund()... */\n    tag_60:\n        /* \"Projects/BlindAuction-Dapp/blindauction-contract/contracts/BlindAuction.sol\":4103:4107  uint */\n      0x00\n        /* \"Projects/BlindAuction-Dapp/blindauction-contract/contracts/BlindAuction.sol\":4131:4145  pendingReturns */\n      0x03\n        /* \"Projects/BlindAuction-Dapp/blindauction-contract/contracts/BlindAuction.sol\":4131:4157  pendingReturns[msg.sender] */\n      0x00\n        /* \"Projects/BlindAuction-Dapp/blindauction-contract/contracts/BlindAuction.sol\":4146:4156  msg.sender */\n      caller\n        /* \"Projects/BlindAuction-Dapp/blindauction-contract/contracts/BlindAuction.sol\":4131:4157  pendingReturns[msg.sender] */\n      0xffffffffffffffffffffffffffffffffffffffff\n      and\n      0xffffffffffffffffffffffffffffffffffffffff\n      and\n      dup2\n      mstore\n      0x20\n      add\n      swap1\n      dup2\n      mstore\n      0x20\n      add\n      0x00\n      keccak256\n      sload\n        /* \"Projects/BlindAuction-Dapp/blindauction-contract/contracts/BlindAuction.sol\":4124:4157  return pendingReturns[msg.sender] */\n      swap1\n      pop\n        /* \"Projects/BlindAuction-Dapp/blindauction-contract/contracts/BlindAuction.sol\":4032:4169  function checkRefund()... */\n      swap1\n      jump\t// out\n        /* \"Projects/BlindAuction-Dapp/blindauction-contract/contracts/BlindAuction.sol\":2015:2258  function bid(bytes32 _blindedBid) ... */\n    tag_66:\n        /* \"Projects/BlindAuction-Dapp/blindauction-contract/contracts/BlindAuction.sol\":2102:2115  Phase.Bidding */\n      0x01\n        /* \"Projects/BlindAuction-Dapp/blindauction-contract/contracts/BlindAuction.sol\":1167:1173  _phase */\n      dup1\n        /* \"Projects/BlindAuction-Dapp/blindauction-contract/contracts/BlindAuction.sol\":1151:1173  currentPhase == _phase */\n      0x03\n      dup2\n      gt\n      iszero\n      tag_138\n      jumpi\n      tag_139\n      tag_81\n      jump\t// in\n    tag_139:\n    tag_138:\n        /* \"Projects/BlindAuction-Dapp/blindauction-contract/contracts/BlindAuction.sol\":1151:1163  currentPhase */\n      0x01\n      0x14\n      swap1\n      sload\n      swap1\n      0x0100\n      exp\n      swap1\n      div\n      0xff\n      and\n        /* \"Projects/BlindAuction-Dapp/blindauction-contract/contracts/BlindAuction.sol\":1151:1173  currentPhase == _phase */\n      0x03\n      dup2\n      gt\n      iszero\n      tag_140\n      jumpi\n      tag_141\n      tag_81\n      jump\t// in\n    tag_141:\n    tag_140:\n      eq\n        /* \"Projects/BlindAuction-Dapp/blindauction-contract/contracts/BlindAuction.sol\":1143:1191  require(currentPhase == _phase, \"Invalid phase\") */\n      tag_142\n      jumpi\n      mload(0x40)\n      0x08c379a000000000000000000000000000000000000000000000000000000000\n      dup2\n      mstore\n      0x04\n      add\n      tag_143\n      swap1\n      tag_86\n      jump\t// in\n    tag_143:\n      mload(0x40)\n      dup1\n      swap2\n      sub\n      swap1\n      revert\n    tag_142:\n        /* \"Projects/BlindAuction-Dapp/blindauction-contract/contracts/BlindAuction.sol\":2151:2250  Bid({... */\n      mload(0x40)\n      dup1\n      0x40\n      add\n      0x40\n      mstore\n      dup1\n        /* \"Projects/BlindAuction-Dapp/blindauction-contract/contracts/BlindAuction.sol\":2186:2197  _blindedBid */\n      dup4\n        /* \"Projects/BlindAuction-Dapp/blindauction-contract/contracts/BlindAuction.sol\":2151:2250  Bid({... */\n      dup2\n      mstore\n      0x20\n      add\n        /* \"Projects/BlindAuction-Dapp/blindauction-contract/contracts/BlindAuction.sol\":2225:2234  msg.value */\n      callvalue\n        /* \"Projects/BlindAuction-Dapp/blindauction-contract/contracts/BlindAuction.sol\":2151:2250  Bid({... */\n      dup2\n      mstore\n      pop\n        /* \"Projects/BlindAuction-Dapp/blindauction-contract/contracts/BlindAuction.sol\":2132:2136  bids */\n      0x02\n        /* \"Projects/BlindAuction-Dapp/blindauction-contract/contracts/BlindAuction.sol\":2132:2148  bids[msg.sender] */\n      0x00\n        /* \"Projects/BlindAuction-Dapp/blindauction-contract/contracts/BlindAuction.sol\":2137:2147  msg.sender */\n      caller\n        /* \"Projects/BlindAuction-Dapp/blindauction-contract/contracts/BlindAuction.sol\":2132:2148  bids[msg.sender] */\n      0xffffffffffffffffffffffffffffffffffffffff\n      and\n      0xffffffffffffffffffffffffffffffffffffffff\n      and\n      dup2\n      mstore\n      0x20\n      add\n      swap1\n      dup2\n      mstore\n      0x20\n      add\n      0x00\n      keccak256\n        /* \"Projects/BlindAuction-Dapp/blindauction-contract/contracts/BlindAuction.sol\":2132:2250  bids[msg.sender] = Bid({... */\n      0x00\n      dup3\n      add\n      mload\n      dup2\n      0x00\n      add\n      sstore\n      0x20\n      dup3\n      add\n      mload\n      dup2\n      0x01\n      add\n      sstore\n      swap1\n      pop\n      pop\n        /* \"Projects/BlindAuction-Dapp/blindauction-contract/contracts/BlindAuction.sol\":2015:2258  function bid(bytes32 _blindedBid) ... */\n      pop\n      pop\n      jump\t// out\n        /* \"Projects/BlindAuction-Dapp/blindauction-contract/contracts/BlindAuction.sol\":1360:2007  function advancePhase() ... */\n    tag_69:\n        /* \"Projects/BlindAuction-Dapp/blindauction-contract/contracts/BlindAuction.sol\":1027:1038  beneficiary */\n      0x01\n      0x00\n      swap1\n      sload\n      swap1\n      0x0100\n      exp\n      swap1\n      div\n      0xffffffffffffffffffffffffffffffffffffffff\n      and\n        /* \"Projects/BlindAuction-Dapp/blindauction-contract/contracts/BlindAuction.sol\":1013:1038  msg.sender == beneficiary */\n      0xffffffffffffffffffffffffffffffffffffffff\n      and\n        /* \"Projects/BlindAuction-Dapp/blindauction-contract/contracts/BlindAuction.sol\":1013:1023  msg.sender */\n      caller\n        /* \"Projects/BlindAuction-Dapp/blindauction-contract/contracts/BlindAuction.sol\":1013:1038  msg.sender == beneficiary */\n      0xffffffffffffffffffffffffffffffffffffffff\n      and\n      eq\n        /* \"Projects/BlindAuction-Dapp/blindauction-contract/contracts/BlindAuction.sol\":1005:1073  require(msg.sender == beneficiary, \"Only beneficiary can call this\") */\n      tag_146\n      jumpi\n      mload(0x40)\n      0x08c379a000000000000000000000000000000000000000000000000000000000\n      dup2\n      mstore\n      0x04\n      add\n      tag_147\n      swap1\n      tag_77\n      jump\t// in\n    tag_147:\n      mload(0x40)\n      dup1\n      swap2\n      sub\n      swap1\n      revert\n    tag_146:\n        /* \"Projects/BlindAuction-Dapp/blindauction-contract/contracts/BlindAuction.sol\":1464:1474  Phase.Done */\n      0x03\n        /* \"Projects/BlindAuction-Dapp/blindauction-contract/contracts/BlindAuction.sol\":1448:1474  currentPhase == Phase.Done */\n      dup1\n      dup2\n      gt\n      iszero\n      tag_149\n      jumpi\n      tag_150\n      tag_81\n      jump\t// in\n    tag_150:\n    tag_149:\n        /* \"Projects/BlindAuction-Dapp/blindauction-contract/contracts/BlindAuction.sol\":1448:1460  currentPhase */\n      0x01\n      0x14\n      swap1\n      sload\n      swap1\n      0x0100\n      exp\n      swap1\n      div\n      0xff\n      and\n        /* \"Projects/BlindAuction-Dapp/blindauction-contract/contracts/BlindAuction.sol\":1448:1474  currentPhase == Phase.Done */\n      0x03\n      dup2\n      gt\n      iszero\n      tag_151\n      jumpi\n      tag_152\n      tag_81\n      jump\t// in\n    tag_152:\n    tag_151:\n      sub\n        /* \"Projects/BlindAuction-Dapp/blindauction-contract/contracts/BlindAuction.sol\":1444:1542  if (currentPhase == Phase.Done) {... */\n      tag_153\n      jumpi\n        /* \"Projects/BlindAuction-Dapp/blindauction-contract/contracts/BlindAuction.sol\":1495:1526  revert(\"Auction already ended\") */\n      mload(0x40)\n      0x08c379a000000000000000000000000000000000000000000000000000000000\n      dup2\n      mstore\n      0x04\n      add\n      tag_154\n      swap1\n      tag_155\n      jump\t// in\n    tag_154:\n      mload(0x40)\n      dup1\n      swap2\n      sub\n      swap1\n      revert\n        /* \"Projects/BlindAuction-Dapp/blindauction-contract/contracts/BlindAuction.sol\":1444:1542  if (currentPhase == Phase.Done) {... */\n    tag_153:\n        /* \"Projects/BlindAuction-Dapp/blindauction-contract/contracts/BlindAuction.sol\":1576:1586  Phase.Init */\n      0x00\n        /* \"Projects/BlindAuction-Dapp/blindauction-contract/contracts/BlindAuction.sol\":1560:1586  currentPhase == Phase.Init */\n      0x03\n      dup2\n      gt\n      iszero\n      tag_156\n      jumpi\n      tag_157\n      tag_81\n      jump\t// in\n    tag_157:\n    tag_156:\n        /* \"Projects/BlindAuction-Dapp/blindauction-contract/contracts/BlindAuction.sol\":1560:1572  currentPhase */\n      0x01\n      0x14\n      swap1\n      sload\n      swap1\n      0x0100\n      exp\n      swap1\n      div\n      0xff\n      and\n        /* \"Projects/BlindAuction-Dapp/blindauction-contract/contracts/BlindAuction.sol\":1560:1586  currentPhase == Phase.Init */\n      0x03\n      dup2\n      gt\n      iszero\n      tag_158\n      jumpi\n      tag_159\n      tag_81\n      jump\t// in\n    tag_159:\n    tag_158:\n      sub\n        /* \"Projects/BlindAuction-Dapp/blindauction-contract/contracts/BlindAuction.sol\":1556:1996  if (currentPhase == Phase.Init) {... */\n      tag_160\n      jumpi\n        /* \"Projects/BlindAuction-Dapp/blindauction-contract/contracts/BlindAuction.sol\":1622:1635  Phase.Bidding */\n      0x01\n        /* \"Projects/BlindAuction-Dapp/blindauction-contract/contracts/BlindAuction.sol\":1607:1619  currentPhase */\n      dup1\n      0x14\n        /* \"Projects/BlindAuction-Dapp/blindauction-contract/contracts/BlindAuction.sol\":1607:1635  currentPhase = Phase.Bidding */\n      0x0100\n      exp\n      dup2\n      sload\n      dup2\n      0xff\n      mul\n      not\n      and\n      swap1\n      dup4\n      0x03\n      dup2\n      gt\n      iszero\n      tag_161\n      jumpi\n      tag_162\n      tag_81\n      jump\t// in\n    tag_162:\n    tag_161:\n      mul\n      or\n      swap1\n      sstore\n      pop\n        /* \"Projects/BlindAuction-Dapp/blindauction-contract/contracts/BlindAuction.sol\":1659:1675  BiddingStarted() */\n      0x02c124e22ee7da1c9905bbb317cf67658c1cc3ea1c0953b1633f85d0b5c281d9\n      mload(0x40)\n      mload(0x40)\n      dup1\n      swap2\n      sub\n      swap1\n      log1\n        /* \"Projects/BlindAuction-Dapp/blindauction-contract/contracts/BlindAuction.sol\":1556:1996  if (currentPhase == Phase.Init) {... */\n      jump(tag_163)\n    tag_160:\n        /* \"Projects/BlindAuction-Dapp/blindauction-contract/contracts/BlindAuction.sol\":1717:1730  Phase.Bidding */\n      0x01\n        /* \"Projects/BlindAuction-Dapp/blindauction-contract/contracts/BlindAuction.sol\":1701:1730  currentPhase == Phase.Bidding */\n      0x03\n      dup2\n      gt\n      iszero\n      tag_164\n      jumpi\n      tag_165\n      tag_81\n      jump\t// in\n    tag_165:\n    tag_164:\n        /* \"Projects/BlindAuction-Dapp/blindauction-contract/contracts/BlindAuction.sol\":1701:1713  currentPhase */\n      0x01\n      0x14\n      swap1\n      sload\n      swap1\n      0x0100\n      exp\n      swap1\n      div\n      0xff\n      and\n        /* \"Projects/BlindAuction-Dapp/blindauction-contract/contracts/BlindAuction.sol\":1701:1730  currentPhase == Phase.Bidding */\n      0x03\n      dup2\n      gt\n      iszero\n      tag_166\n      jumpi\n      tag_167\n      tag_81\n      jump\t// in\n    tag_167:\n    tag_166:\n      sub\n        /* \"Projects/BlindAuction-Dapp/blindauction-contract/contracts/BlindAuction.sol\":1697:1996  if (currentPhase == Phase.Bidding) {... */\n      tag_168\n      jumpi\n        /* \"Projects/BlindAuction-Dapp/blindauction-contract/contracts/BlindAuction.sol\":1766:1778  Phase.Reveal */\n      0x02\n        /* \"Projects/BlindAuction-Dapp/blindauction-contract/contracts/BlindAuction.sol\":1751:1763  currentPhase */\n      0x01\n      0x14\n        /* \"Projects/BlindAuction-Dapp/blindauction-contract/contracts/BlindAuction.sol\":1751:1778  currentPhase = Phase.Reveal */\n      0x0100\n      exp\n      dup2\n      sload\n      dup2\n      0xff\n      mul\n      not\n      and\n      swap1\n      dup4\n      0x03\n      dup2\n      gt\n      iszero\n      tag_169\n      jumpi\n      tag_170\n      tag_81\n      jump\t// in\n    tag_170:\n    tag_169:\n      mul\n      or\n      swap1\n      sstore\n      pop\n        /* \"Projects/BlindAuction-Dapp/blindauction-contract/contracts/BlindAuction.sol\":1802:1817  RevealStarted() */\n      0x3bcc93d35219aa0512d7c0d1ca10b0231f473e3d5f9396877d1b7215ee0ab3d5\n      mload(0x40)\n      mload(0x40)\n      dup1\n      swap2\n      sub\n      swap1\n      log1\n        /* \"Projects/BlindAuction-Dapp/blindauction-contract/contracts/BlindAuction.sol\":1697:1996  if (currentPhase == Phase.Bidding) {... */\n      jump(tag_171)\n    tag_168:\n        /* \"Projects/BlindAuction-Dapp/blindauction-contract/contracts/BlindAuction.sol\":1859:1871  Phase.Reveal */\n      0x02\n        /* \"Projects/BlindAuction-Dapp/blindauction-contract/contracts/BlindAuction.sol\":1843:1871  currentPhase == Phase.Reveal */\n      0x03\n      dup2\n      gt\n      iszero\n      tag_172\n      jumpi\n      tag_173\n      tag_81\n      jump\t// in\n    tag_173:\n    tag_172:\n        /* \"Projects/BlindAuction-Dapp/blindauction-contract/contracts/BlindAuction.sol\":1843:1855  currentPhase */\n      0x01\n      0x14\n      swap1\n      sload\n      swap1\n      0x0100\n      exp\n      swap1\n      div\n      0xff\n      and\n        /* \"Projects/BlindAuction-Dapp/blindauction-contract/contracts/BlindAuction.sol\":1843:1871  currentPhase == Phase.Reveal */\n      0x03\n      dup2\n      gt\n      iszero\n      tag_174\n      jumpi\n      tag_175\n      tag_81\n      jump\t// in\n    tag_175:\n    tag_174:\n      sub\n        /* \"Projects/BlindAuction-Dapp/blindauction-contract/contracts/BlindAuction.sol\":1839:1996  if (currentPhase == Phase.Reveal) {... */\n      tag_176\n      jumpi\n        /* \"Projects/BlindAuction-Dapp/blindauction-contract/contracts/BlindAuction.sol\":1907:1917  Phase.Done */\n      0x03\n        /* \"Projects/BlindAuction-Dapp/blindauction-contract/contracts/BlindAuction.sol\":1892:1904  currentPhase */\n      0x01\n      0x14\n        /* \"Projects/BlindAuction-Dapp/blindauction-contract/contracts/BlindAuction.sol\":1892:1917  currentPhase = Phase.Done */\n      0x0100\n      exp\n      dup2\n      sload\n      dup2\n      0xff\n      mul\n      not\n      and\n      swap1\n      dup4\n      0x03\n      dup2\n      gt\n      iszero\n      tag_177\n      jumpi\n      tag_178\n      tag_81\n      jump\t// in\n    tag_178:\n    tag_177:\n      mul\n      or\n      swap1\n      sstore\n      pop\n        /* \"Projects/BlindAuction-Dapp/blindauction-contract/contracts/BlindAuction.sol\":1941:1980  AuctionEnded(highestBidder, highestBid) */\n      0xdaec4582d5d9595688c8c98545fdd1c696d41c6aeaeb636737e84ed2f5c00eda\n        /* \"Projects/BlindAuction-Dapp/blindauction-contract/contracts/BlindAuction.sol\":1954:1967  highestBidder */\n      0x04\n      0x00\n      swap1\n      sload\n      swap1\n      0x0100\n      exp\n      swap1\n      div\n      0xffffffffffffffffffffffffffffffffffffffff\n      and\n        /* \"Projects/BlindAuction-Dapp/blindauction-contract/contracts/BlindAuction.sol\":1969:1979  highestBid */\n      sload(0x05)\n        /* \"Projects/BlindAuction-Dapp/blindauction-contract/contracts/BlindAuction.sol\":1941:1980  AuctionEnded(highestBidder, highestBid) */\n      mload(0x40)\n      tag_179\n      swap3\n      swap2\n      swap1\n      tag_92\n      jump\t// in\n    tag_179:\n      mload(0x40)\n      dup1\n      swap2\n      sub\n      swap1\n      log1\n        /* \"Projects/BlindAuction-Dapp/blindauction-contract/contracts/BlindAuction.sol\":1839:1996  if (currentPhase == Phase.Reveal) {... */\n    tag_176:\n        /* \"Projects/BlindAuction-Dapp/blindauction-contract/contracts/BlindAuction.sol\":1697:1996  if (currentPhase == Phase.Bidding) {... */\n    tag_171:\n        /* \"Projects/BlindAuction-Dapp/blindauction-contract/contracts/BlindAuction.sol\":1556:1996  if (currentPhase == Phase.Init) {... */\n    tag_163:\n        /* \"Projects/BlindAuction-Dapp/blindauction-contract/contracts/BlindAuction.sol\":1360:2007  function advancePhase() ... */\n      jump\t// out\n        /* \"Projects/BlindAuction-Dapp/blindauction-contract/contracts/BlindAuction.sol\":768:790  uint public highestBid */\n    tag_72:\n      sload(0x05)\n      dup2\n      jump\t// out\n        /* \"#utility.yul\":7:187   */\n    tag_81:\n        /* \"#utility.yul\":55:132   */\n      0x4e487b7100000000000000000000000000000000000000000000000000000000\n        /* \"#utility.yul\":52:53   */\n      0x00\n        /* \"#utility.yul\":45:133   */\n      mstore\n        /* \"#utility.yul\":152:156   */\n      0x21\n        /* \"#utility.yul\":149:150   */\n      0x04\n        /* \"#utility.yul\":142:157   */\n      mstore\n        /* \"#utility.yul\":176:180   */\n      0x24\n        /* \"#utility.yul\":173:174   */\n      0x00\n        /* \"#utility.yul\":166:181   */\n      revert\n        /* \"#utility.yul\":193:306   */\n    tag_180:\n        /* \"#utility.yul\":274:275   */\n      0x04\n        /* \"#utility.yul\":267:272   */\n      dup2\n        /* \"#utility.yul\":264:276   */\n      lt\n        /* \"#utility.yul\":254:300   */\n      tag_221\n      jumpi\n        /* \"#utility.yul\":280:298   */\n      tag_222\n      tag_81\n      jump\t// in\n    tag_222:\n        /* \"#utility.yul\":254:300   */\n    tag_221:\n        /* \"#utility.yul\":193:306   */\n      pop\n      jump\t// out\n        /* \"#utility.yul\":312:439   */\n    tag_181:\n        /* \"#utility.yul\":357:364   */\n      0x00\n        /* \"#utility.yul\":386:391   */\n      dup2\n        /* \"#utility.yul\":375:391   */\n      swap1\n      pop\n        /* \"#utility.yul\":392:433   */\n      tag_224\n        /* \"#utility.yul\":427:432   */\n      dup3\n        /* \"#utility.yul\":392:433   */\n      tag_180\n      jump\t// in\n    tag_224:\n        /* \"#utility.yul\":312:439   */\n      swap2\n      swap1\n      pop\n      jump\t// out\n        /* \"#utility.yul\":445:572   */\n    tag_182:\n        /* \"#utility.yul\":501:510   */\n      0x00\n        /* \"#utility.yul\":534:566   */\n      tag_226\n        /* \"#utility.yul\":560:565   */\n      dup3\n        /* \"#utility.yul\":534:566   */\n      tag_181\n      jump\t// in\n    tag_226:\n        /* \"#utility.yul\":521:566   */\n      swap1\n      pop\n        /* \"#utility.yul\":445:572   */\n      swap2\n      swap1\n      pop\n      jump\t// out\n        /* \"#utility.yul\":578:721   */\n    tag_183:\n        /* \"#utility.yul\":671:714   */\n      tag_228\n        /* \"#utility.yul\":708:713   */\n      dup2\n        /* \"#utility.yul\":671:714   */\n      tag_182\n      jump\t// in\n    tag_228:\n        /* \"#utility.yul\":666:669   */\n      dup3\n        /* \"#utility.yul\":659:715   */\n      mstore\n        /* \"#utility.yul\":578:721   */\n      pop\n      pop\n      jump\t// out\n        /* \"#utility.yul\":727:961   */\n    tag_21:\n        /* \"#utility.yul\":826:830   */\n      0x00\n        /* \"#utility.yul\":864:866   */\n      0x20\n        /* \"#utility.yul\":853:862   */\n      dup3\n        /* \"#utility.yul\":849:867   */\n      add\n        /* \"#utility.yul\":841:867   */\n      swap1\n      pop\n        /* \"#utility.yul\":877:954   */\n      tag_230\n        /* \"#utility.yul\":951:952   */\n      0x00\n        /* \"#utility.yul\":940:949   */\n      dup4\n        /* \"#utility.yul\":936:953   */\n      add\n        /* \"#utility.yul\":927:933   */\n      dup5\n        /* \"#utility.yul\":877:954   */\n      tag_183\n      jump\t// in\n    tag_230:\n        /* \"#utility.yul\":727:961   */\n      swap3\n      swap2\n      pop\n      pop\n      jump\t// out\n        /* \"#utility.yul\":967:1093   */\n    tag_184:\n        /* \"#utility.yul\":1004:1011   */\n      0x00\n        /* \"#utility.yul\":1044:1086   */\n      0xffffffffffffffffffffffffffffffffffffffff\n        /* \"#utility.yul\":1037:1042   */\n      dup3\n        /* \"#utility.yul\":1033:1087   */\n      and\n        /* \"#utility.yul\":1022:1087   */\n      swap1\n      pop\n        /* \"#utility.yul\":967:1093   */\n      swap2\n      swap1\n      pop\n      jump\t// out\n        /* \"#utility.yul\":1099:1203   */\n    tag_185:\n        /* \"#utility.yul\":1144:1151   */\n      0x00\n        /* \"#utility.yul\":1173:1197   */\n      tag_233\n        /* \"#utility.yul\":1191:1196   */\n      dup3\n        /* \"#utility.yul\":1173:1197   */\n      tag_184\n      jump\t// in\n    tag_233:\n        /* \"#utility.yul\":1162:1197   */\n      swap1\n      pop\n        /* \"#utility.yul\":1099:1203   */\n      swap2\n      swap1\n      pop\n      jump\t// out\n        /* \"#utility.yul\":1209:1351   */\n    tag_186:\n        /* \"#utility.yul\":1312:1344   */\n      tag_235\n        /* \"#utility.yul\":1338:1343   */\n      dup2\n        /* \"#utility.yul\":1312:1344   */\n      tag_185\n      jump\t// in\n    tag_235:\n        /* \"#utility.yul\":1307:1310   */\n      dup3\n        /* \"#utility.yul\":1300:1345   */\n      mstore\n        /* \"#utility.yul\":1209:1351   */\n      pop\n      pop\n      jump\t// out\n        /* \"#utility.yul\":1357:1611   */\n    tag_29:\n        /* \"#utility.yul\":1466:1470   */\n      0x00\n        /* \"#utility.yul\":1504:1506   */\n      0x20\n        /* \"#utility.yul\":1493:1502   */\n      dup3\n        /* \"#utility.yul\":1489:1507   */\n      add\n        /* \"#utility.yul\":1481:1507   */\n      swap1\n      pop\n        /* \"#utility.yul\":1517:1604   */\n      tag_237\n        /* \"#utility.yul\":1601:1602   */\n      0x00\n        /* \"#utility.yul\":1590:1599   */\n      dup4\n        /* \"#utility.yul\":1586:1603   */\n      add\n        /* \"#utility.yul\":1577:1583   */\n      dup5\n        /* \"#utility.yul\":1517:1604   */\n      tag_186\n      jump\t// in\n    tag_237:\n        /* \"#utility.yul\":1357:1611   */\n      swap3\n      swap2\n      pop\n      pop\n      jump\t// out\n        /* \"#utility.yul\":1698:1815   */\n    tag_188:\n        /* \"#utility.yul\":1807:1808   */\n      0x00\n        /* \"#utility.yul\":1804:1805   */\n      dup1\n        /* \"#utility.yul\":1797:1809   */\n      revert\n        /* \"#utility.yul\":1944:2021   */\n    tag_190:\n        /* \"#utility.yul\":1981:1988   */\n      0x00\n        /* \"#utility.yul\":2010:2015   */\n      dup2\n        /* \"#utility.yul\":1999:2015   */\n      swap1\n      pop\n        /* \"#utility.yul\":1944:2021   */\n      swap2\n      swap1\n      pop\n      jump\t// out\n        /* \"#utility.yul\":2027:2149   */\n    tag_191:\n        /* \"#utility.yul\":2100:2124   */\n      tag_243\n        /* \"#utility.yul\":2118:2123   */\n      dup2\n        /* \"#utility.yul\":2100:2124   */\n      tag_190\n      jump\t// in\n    tag_243:\n        /* \"#utility.yul\":2093:2098   */\n      dup2\n        /* \"#utility.yul\":2090:2125   */\n      eq\n        /* \"#utility.yul\":2080:2143   */\n      tag_244\n      jumpi\n        /* \"#utility.yul\":2139:2140   */\n      0x00\n        /* \"#utility.yul\":2136:2137   */\n      dup1\n        /* \"#utility.yul\":2129:2141   */\n      revert\n        /* \"#utility.yul\":2080:2143   */\n    tag_244:\n        /* \"#utility.yul\":2027:2149   */\n      pop\n      jump\t// out\n        /* \"#utility.yul\":2155:2294   */\n    tag_192:\n        /* \"#utility.yul\":2201:2206   */\n      0x00\n        /* \"#utility.yul\":2239:2245   */\n      dup2\n        /* \"#utility.yul\":2226:2246   */\n      calldataload\n        /* \"#utility.yul\":2217:2246   */\n      swap1\n      pop\n        /* \"#utility.yul\":2255:2288   */\n      tag_246\n        /* \"#utility.yul\":2282:2287   */\n      dup2\n        /* \"#utility.yul\":2255:2288   */\n      tag_191\n      jump\t// in\n    tag_246:\n        /* \"#utility.yul\":2155:2294   */\n      swap3\n      swap2\n      pop\n      pop\n      jump\t// out\n        /* \"#utility.yul\":2300:2377   */\n    tag_193:\n        /* \"#utility.yul\":2337:2344   */\n      0x00\n        /* \"#utility.yul\":2366:2371   */\n      dup2\n        /* \"#utility.yul\":2355:2371   */\n      swap1\n      pop\n        /* \"#utility.yul\":2300:2377   */\n      swap2\n      swap1\n      pop\n      jump\t// out\n        /* \"#utility.yul\":2383:2505   */\n    tag_194:\n        /* \"#utility.yul\":2456:2480   */\n      tag_249\n        /* \"#utility.yul\":2474:2479   */\n      dup2\n        /* \"#utility.yul\":2456:2480   */\n      tag_193\n      jump\t// in\n    tag_249:\n        /* \"#utility.yul\":2449:2454   */\n      dup2\n        /* \"#utility.yul\":2446:2481   */\n      eq\n        /* \"#utility.yul\":2436:2499   */\n      tag_250\n      jumpi\n        /* \"#utility.yul\":2495:2496   */\n      0x00\n        /* \"#utility.yul\":2492:2493   */\n      dup1\n        /* \"#utility.yul\":2485:2497   */\n      revert\n        /* \"#utility.yul\":2436:2499   */\n    tag_250:\n        /* \"#utility.yul\":2383:2505   */\n      pop\n      jump\t// out\n        /* \"#utility.yul\":2511:2650   */\n    tag_195:\n        /* \"#utility.yul\":2557:2562   */\n      0x00\n        /* \"#utility.yul\":2595:2601   */\n      dup2\n        /* \"#utility.yul\":2582:2602   */\n      calldataload\n        /* \"#utility.yul\":2573:2602   */\n      swap1\n      pop\n        /* \"#utility.yul\":2611:2644   */\n      tag_252\n        /* \"#utility.yul\":2638:2643   */\n      dup2\n        /* \"#utility.yul\":2611:2644   */\n      tag_194\n      jump\t// in\n    tag_252:\n        /* \"#utility.yul\":2511:2650   */\n      swap3\n      swap2\n      pop\n      pop\n      jump\t// out\n        /* \"#utility.yul\":2656:3130   */\n    tag_36:\n        /* \"#utility.yul\":2724:2730   */\n      0x00\n        /* \"#utility.yul\":2732:2738   */\n      dup1\n        /* \"#utility.yul\":2781:2783   */\n      0x40\n        /* \"#utility.yul\":2769:2778   */\n      dup4\n        /* \"#utility.yul\":2760:2767   */\n      dup6\n        /* \"#utility.yul\":2756:2779   */\n      sub\n        /* \"#utility.yul\":2752:2784   */\n      slt\n        /* \"#utility.yul\":2749:2868   */\n      iszero\n      tag_254\n      jumpi\n        /* \"#utility.yul\":2787:2866   */\n      tag_255\n      tag_188\n      jump\t// in\n    tag_255:\n        /* \"#utility.yul\":2749:2868   */\n    tag_254:\n        /* \"#utility.yul\":2907:2908   */\n      0x00\n        /* \"#utility.yul\":2932:2985   */\n      tag_256\n        /* \"#utility.yul\":2977:2984   */\n      dup6\n        /* \"#utility.yul\":2968:2974   */\n      dup3\n        /* \"#utility.yul\":2957:2966   */\n      dup7\n        /* \"#utility.yul\":2953:2975   */\n      add\n        /* \"#utility.yul\":2932:2985   */\n      tag_192\n      jump\t// in\n    tag_256:\n        /* \"#utility.yul\":2922:2985   */\n      swap3\n      pop\n        /* \"#utility.yul\":2878:2995   */\n      pop\n        /* \"#utility.yul\":3034:3036   */\n      0x20\n        /* \"#utility.yul\":3060:3113   */\n      tag_257\n        /* \"#utility.yul\":3105:3112   */\n      dup6\n        /* \"#utility.yul\":3096:3102   */\n      dup3\n        /* \"#utility.yul\":3085:3094   */\n      dup7\n        /* \"#utility.yul\":3081:3103   */\n      add\n        /* \"#utility.yul\":3060:3113   */\n      tag_195\n      jump\t// in\n    tag_257:\n        /* \"#utility.yul\":3050:3113   */\n      swap2\n      pop\n        /* \"#utility.yul\":3005:3123   */\n      pop\n        /* \"#utility.yul\":2656:3130   */\n      swap3\n      pop\n      swap3\n      swap1\n      pop\n      jump\t// out\n        /* \"#utility.yul\":3136:3232   */\n    tag_196:\n        /* \"#utility.yul\":3173:3180   */\n      0x00\n        /* \"#utility.yul\":3202:3226   */\n      tag_259\n        /* \"#utility.yul\":3220:3225   */\n      dup3\n        /* \"#utility.yul\":3202:3226   */\n      tag_184\n      jump\t// in\n    tag_259:\n        /* \"#utility.yul\":3191:3226   */\n      swap1\n      pop\n        /* \"#utility.yul\":3136:3232   */\n      swap2\n      swap1\n      pop\n      jump\t// out\n        /* \"#utility.yul\":3238:3360   */\n    tag_197:\n        /* \"#utility.yul\":3311:3335   */\n      tag_261\n        /* \"#utility.yul\":3329:3334   */\n      dup2\n        /* \"#utility.yul\":3311:3335   */\n      tag_196\n      jump\t// in\n    tag_261:\n        /* \"#utility.yul\":3304:3309   */\n      dup2\n        /* \"#utility.yul\":3301:3336   */\n      eq\n        /* \"#utility.yul\":3291:3354   */\n      tag_262\n      jumpi\n        /* \"#utility.yul\":3350:3351   */\n      0x00\n        /* \"#utility.yul\":3347:3348   */\n      dup1\n        /* \"#utility.yul\":3340:3352   */\n      revert\n        /* \"#utility.yul\":3291:3354   */\n    tag_262:\n        /* \"#utility.yul\":3238:3360   */\n      pop\n      jump\t// out\n        /* \"#utility.yul\":3366:3505   */\n    tag_198:\n        /* \"#utility.yul\":3412:3417   */\n      0x00\n        /* \"#utility.yul\":3450:3456   */\n      dup2\n        /* \"#utility.yul\":3437:3457   */\n      calldataload\n        /* \"#utility.yul\":3428:3457   */\n      swap1\n      pop\n        /* \"#utility.yul\":3466:3499   */\n      tag_264\n        /* \"#utility.yul\":3493:3498   */\n      dup2\n        /* \"#utility.yul\":3466:3499   */\n      tag_197\n      jump\t// in\n    tag_264:\n        /* \"#utility.yul\":3366:3505   */\n      swap3\n      swap2\n      pop\n      pop\n      jump\t// out\n        /* \"#utility.yul\":3511:3840   */\n    tag_41:\n        /* \"#utility.yul\":3570:3576   */\n      0x00\n        /* \"#utility.yul\":3619:3621   */\n      0x20\n        /* \"#utility.yul\":3607:3616   */\n      dup3\n        /* \"#utility.yul\":3598:3605   */\n      dup5\n        /* \"#utility.yul\":3594:3617   */\n      sub\n        /* \"#utility.yul\":3590:3622   */\n      slt\n        /* \"#utility.yul\":3587:3706   */\n      iszero\n      tag_266\n      jumpi\n        /* \"#utility.yul\":3625:3704   */\n      tag_267\n      tag_188\n      jump\t// in\n    tag_267:\n        /* \"#utility.yul\":3587:3706   */\n    tag_266:\n        /* \"#utility.yul\":3745:3746   */\n      0x00\n        /* \"#utility.yul\":3770:3823   */\n      tag_268\n        /* \"#utility.yul\":3815:3822   */\n      dup5\n        /* \"#utility.yul\":3806:3812   */\n      dup3\n        /* \"#utility.yul\":3795:3804   */\n      dup6\n        /* \"#utility.yul\":3791:3813   */\n      add\n        /* \"#utility.yul\":3770:3823   */\n      tag_198\n      jump\t// in\n    tag_268:\n        /* \"#utility.yul\":3760:3823   */\n      swap2\n      pop\n        /* \"#utility.yul\":3716:3833   */\n      pop\n        /* \"#utility.yul\":3511:3840   */\n      swap3\n      swap2\n      pop\n      pop\n      jump\t// out\n        /* \"#utility.yul\":3846:3964   */\n    tag_199:\n        /* \"#utility.yul\":3933:3957   */\n      tag_270\n        /* \"#utility.yul\":3951:3956   */\n      dup2\n        /* \"#utility.yul\":3933:3957   */\n      tag_193\n      jump\t// in\n    tag_270:\n        /* \"#utility.yul\":3928:3931   */\n      dup3\n        /* \"#utility.yul\":3921:3958   */\n      mstore\n        /* \"#utility.yul\":3846:3964   */\n      pop\n      pop\n      jump\t// out\n        /* \"#utility.yul\":3970:4088   */\n    tag_200:\n        /* \"#utility.yul\":4057:4081   */\n      tag_272\n        /* \"#utility.yul\":4075:4080   */\n      dup2\n        /* \"#utility.yul\":4057:4081   */\n      tag_190\n      jump\t// in\n    tag_272:\n        /* \"#utility.yul\":4052:4055   */\n      dup3\n        /* \"#utility.yul\":4045:4082   */\n      mstore\n        /* \"#utility.yul\":3970:4088   */\n      pop\n      pop\n      jump\t// out\n        /* \"#utility.yul\":4094:4426   */\n    tag_44:\n        /* \"#utility.yul\":4215:4219   */\n      0x00\n        /* \"#utility.yul\":4253:4255   */\n      0x40\n        /* \"#utility.yul\":4242:4251   */\n      dup3\n        /* \"#utility.yul\":4238:4256   */\n      add\n        /* \"#utility.yul\":4230:4256   */\n      swap1\n      pop\n        /* \"#utility.yul\":4266:4337   */\n      tag_274\n        /* \"#utility.yul\":4334:4335   */\n      0x00\n        /* \"#utility.yul\":4323:4332   */\n      dup4\n        /* \"#utility.yul\":4319:4336   */\n      add\n        /* \"#utility.yul\":4310:4316   */\n      dup6\n        /* \"#utility.yul\":4266:4337   */\n      tag_199\n      jump\t// in\n    tag_274:\n        /* \"#utility.yul\":4347:4419   */\n      tag_275\n        /* \"#utility.yul\":4415:4417   */\n      0x20\n        /* \"#utility.yul\":4404:4413   */\n      dup4\n        /* \"#utility.yul\":4400:4418   */\n      add\n        /* \"#utility.yul\":4391:4397   */\n      dup5\n        /* \"#utility.yul\":4347:4419   */\n      tag_200\n      jump\t// in\n    tag_275:\n        /* \"#utility.yul\":4094:4426   */\n      swap4\n      swap3\n      pop\n      pop\n      pop\n      jump\t// out\n        /* \"#utility.yul\":4432:4492   */\n    tag_201:\n        /* \"#utility.yul\":4460:4463   */\n      0x00\n        /* \"#utility.yul\":4481:4486   */\n      dup2\n        /* \"#utility.yul\":4474:4486   */\n      swap1\n      pop\n        /* \"#utility.yul\":4432:4492   */\n      swap2\n      swap1\n      pop\n      jump\t// out\n        /* \"#utility.yul\":4498:4640   */\n    tag_202:\n        /* \"#utility.yul\":4548:4557   */\n      0x00\n        /* \"#utility.yul\":4581:4634   */\n      tag_278\n        /* \"#utility.yul\":4599:4633   */\n      tag_279\n        /* \"#utility.yul\":4608:4632   */\n      tag_280\n        /* \"#utility.yul\":4626:4631   */\n      dup5\n        /* \"#utility.yul\":4608:4632   */\n      tag_184\n      jump\t// in\n    tag_280:\n        /* \"#utility.yul\":4599:4633   */\n      tag_201\n      jump\t// in\n    tag_279:\n        /* \"#utility.yul\":4581:4634   */\n      tag_184\n      jump\t// in\n    tag_278:\n        /* \"#utility.yul\":4568:4634   */\n      swap1\n      pop\n        /* \"#utility.yul\":4498:4640   */\n      swap2\n      swap1\n      pop\n      jump\t// out\n        /* \"#utility.yul\":4646:4772   */\n    tag_203:\n        /* \"#utility.yul\":4696:4705   */\n      0x00\n        /* \"#utility.yul\":4729:4766   */\n      tag_282\n        /* \"#utility.yul\":4760:4765   */\n      dup3\n        /* \"#utility.yul\":4729:4766   */\n      tag_202\n      jump\t// in\n    tag_282:\n        /* \"#utility.yul\":4716:4766   */\n      swap1\n      pop\n        /* \"#utility.yul\":4646:4772   */\n      swap2\n      swap1\n      pop\n      jump\t// out\n        /* \"#utility.yul\":4778:4916   */\n    tag_204:\n        /* \"#utility.yul\":4840:4849   */\n      0x00\n        /* \"#utility.yul\":4873:4910   */\n      tag_284\n        /* \"#utility.yul\":4904:4909   */\n      dup3\n        /* \"#utility.yul\":4873:4910   */\n      tag_203\n      jump\t// in\n    tag_284:\n        /* \"#utility.yul\":4860:4910   */\n      swap1\n      pop\n        /* \"#utility.yul\":4778:4916   */\n      swap2\n      swap1\n      pop\n      jump\t// out\n        /* \"#utility.yul\":4922:5077   */\n    tag_205:\n        /* \"#utility.yul\":5021:5070   */\n      tag_286\n        /* \"#utility.yul\":5064:5069   */\n      dup2\n        /* \"#utility.yul\":5021:5070   */\n      tag_204\n      jump\t// in\n    tag_286:\n        /* \"#utility.yul\":5016:5019   */\n      dup3\n        /* \"#utility.yul\":5009:5071   */\n      mstore\n        /* \"#utility.yul\":4922:5077   */\n      pop\n      pop\n      jump\t// out\n        /* \"#utility.yul\":5083:5329   */\n    tag_49:\n        /* \"#utility.yul\":5188:5192   */\n      0x00\n        /* \"#utility.yul\":5226:5228   */\n      0x20\n        /* \"#utility.yul\":5215:5224   */\n      dup3\n        /* \"#utility.yul\":5211:5229   */\n      add\n        /* \"#utility.yul\":5203:5229   */\n      swap1\n      pop\n        /* \"#utility.yul\":5239:5322   */\n      tag_288\n        /* \"#utility.yul\":5319:5320   */\n      0x00\n        /* \"#utility.yul\":5308:5317   */\n      dup4\n        /* \"#utility.yul\":5304:5321   */\n      add\n        /* \"#utility.yul\":5295:5301   */\n      dup5\n        /* \"#utility.yul\":5239:5322   */\n      tag_205\n      jump\t// in\n    tag_288:\n        /* \"#utility.yul\":5083:5329   */\n      swap3\n      swap2\n      pop\n      pop\n      jump\t// out\n        /* \"#utility.yul\":5335:5453   */\n    tag_206:\n        /* \"#utility.yul\":5422:5446   */\n      tag_290\n        /* \"#utility.yul\":5440:5445   */\n      dup2\n        /* \"#utility.yul\":5422:5446   */\n      tag_196\n      jump\t// in\n    tag_290:\n        /* \"#utility.yul\":5417:5420   */\n      dup3\n        /* \"#utility.yul\":5410:5447   */\n      mstore\n        /* \"#utility.yul\":5335:5453   */\n      pop\n      pop\n      jump\t// out\n        /* \"#utility.yul\":5459:5681   */\n    tag_54:\n        /* \"#utility.yul\":5552:5556   */\n      0x00\n        /* \"#utility.yul\":5590:5592   */\n      0x20\n        /* \"#utility.yul\":5579:5588   */\n      dup3\n        /* \"#utility.yul\":5575:5593   */\n      add\n        /* \"#utility.yul\":5567:5593   */\n      swap1\n      pop\n        /* \"#utility.yul\":5603:5674   */\n      tag_292\n        /* \"#utility.yul\":5671:5672   */\n      0x00\n        /* \"#utility.yul\":5660:5669   */\n      dup4\n        /* \"#utility.yul\":5656:5673   */\n      add\n        /* \"#utility.yul\":5647:5653   */\n      dup5\n        /* \"#utility.yul\":5603:5674   */\n      tag_206\n      jump\t// in\n    tag_292:\n        /* \"#utility.yul\":5459:5681   */\n      swap3\n      swap2\n      pop\n      pop\n      jump\t// out\n        /* \"#utility.yul\":5687:5909   */\n    tag_62:\n        /* \"#utility.yul\":5780:5784   */\n      0x00\n        /* \"#utility.yul\":5818:5820   */\n      0x20\n        /* \"#utility.yul\":5807:5816   */\n      dup3\n        /* \"#utility.yul\":5803:5821   */\n      add\n        /* \"#utility.yul\":5795:5821   */\n      swap1\n      pop\n        /* \"#utility.yul\":5831:5902   */\n      tag_294\n        /* \"#utility.yul\":5899:5900   */\n      0x00\n        /* \"#utility.yul\":5888:5897   */\n      dup4\n        /* \"#utility.yul\":5884:5901   */\n      add\n        /* \"#utility.yul\":5875:5881   */\n      dup5\n        /* \"#utility.yul\":5831:5902   */\n      tag_200\n      jump\t// in\n    tag_294:\n        /* \"#utility.yul\":5687:5909   */\n      swap3\n      swap2\n      pop\n      pop\n      jump\t// out\n        /* \"#utility.yul\":5915:6244   */\n    tag_65:\n        /* \"#utility.yul\":5974:5980   */\n      0x00\n        /* \"#utility.yul\":6023:6025   */\n      0x20\n        /* \"#utility.yul\":6011:6020   */\n      dup3\n        /* \"#utility.yul\":6002:6009   */\n      dup5\n        /* \"#utility.yul\":5998:6021   */\n      sub\n        /* \"#utility.yul\":5994:6026   */\n      slt\n        /* \"#utility.yul\":5991:6110   */\n      iszero\n      tag_296\n      jumpi\n        /* \"#utility.yul\":6029:6108   */\n      tag_297\n      tag_188\n      jump\t// in\n    tag_297:\n        /* \"#utility.yul\":5991:6110   */\n    tag_296:\n        /* \"#utility.yul\":6149:6150   */\n      0x00\n        /* \"#utility.yul\":6174:6227   */\n      tag_298\n        /* \"#utility.yul\":6219:6226   */\n      dup5\n        /* \"#utility.yul\":6210:6216   */\n      dup3\n        /* \"#utility.yul\":6199:6208   */\n      dup6\n        /* \"#utility.yul\":6195:6217   */\n      add\n        /* \"#utility.yul\":6174:6227   */\n      tag_195\n      jump\t// in\n    tag_298:\n        /* \"#utility.yul\":6164:6227   */\n      swap2\n      pop\n        /* \"#utility.yul\":6120:6237   */\n      pop\n        /* \"#utility.yul\":5915:6244   */\n      swap3\n      swap2\n      pop\n      pop\n      jump\t// out\n        /* \"#utility.yul\":6250:6419   */\n    tag_207:\n        /* \"#utility.yul\":6334:6345   */\n      0x00\n        /* \"#utility.yul\":6368:6374   */\n      dup3\n        /* \"#utility.yul\":6363:6366   */\n      dup3\n        /* \"#utility.yul\":6356:6375   */\n      mstore\n        /* \"#utility.yul\":6408:6412   */\n      0x20\n        /* \"#utility.yul\":6403:6406   */\n      dup3\n        /* \"#utility.yul\":6399:6413   */\n      add\n        /* \"#utility.yul\":6384:6413   */\n      swap1\n      pop\n        /* \"#utility.yul\":6250:6419   */\n      swap3\n      swap2\n      pop\n      pop\n      jump\t// out\n        /* \"#utility.yul\":6425:6605   */\n    tag_208:\n        /* \"#utility.yul\":6565:6597   */\n      0x4f6e6c792062656e65666963696172792063616e2063616c6c20746869730000\n        /* \"#utility.yul\":6561:6562   */\n      0x00\n        /* \"#utility.yul\":6553:6559   */\n      dup3\n        /* \"#utility.yul\":6549:6563   */\n      add\n        /* \"#utility.yul\":6542:6598   */\n      mstore\n        /* \"#utility.yul\":6425:6605   */\n      pop\n      jump\t// out\n        /* \"#utility.yul\":6611:6977   */\n    tag_209:\n        /* \"#utility.yul\":6753:6756   */\n      0x00\n        /* \"#utility.yul\":6774:6841   */\n      tag_302\n        /* \"#utility.yul\":6838:6840   */\n      0x1e\n        /* \"#utility.yul\":6833:6836   */\n      dup4\n        /* \"#utility.yul\":6774:6841   */\n      tag_207\n      jump\t// in\n    tag_302:\n        /* \"#utility.yul\":6767:6841   */\n      swap2\n      pop\n        /* \"#utility.yul\":6850:6943   */\n      tag_303\n        /* \"#utility.yul\":6939:6942   */\n      dup3\n        /* \"#utility.yul\":6850:6943   */\n      tag_208\n      jump\t// in\n    tag_303:\n        /* \"#utility.yul\":6968:6970   */\n      0x20\n        /* \"#utility.yul\":6963:6966   */\n      dup3\n        /* \"#utility.yul\":6959:6971   */\n      add\n        /* \"#utility.yul\":6952:6971   */\n      swap1\n      pop\n        /* \"#utility.yul\":6611:6977   */\n      swap2\n      swap1\n      pop\n      jump\t// out\n        /* \"#utility.yul\":6983:7402   */\n    tag_77:\n        /* \"#utility.yul\":7149:7153   */\n      0x00\n        /* \"#utility.yul\":7187:7189   */\n      0x20\n        /* \"#utility.yul\":7176:7185   */\n      dup3\n        /* \"#utility.yul\":7172:7190   */\n      add\n        /* \"#utility.yul\":7164:7190   */\n      swap1\n      pop\n        /* \"#utility.yul\":7236:7245   */\n      dup2\n        /* \"#utility.yul\":7230:7234   */\n      dup2\n        /* \"#utility.yul\":7226:7246   */\n      sub\n        /* \"#utility.yul\":7222:7223   */\n      0x00\n        /* \"#utility.yul\":7211:7220   */\n      dup4\n        /* \"#utility.yul\":7207:7224   */\n      add\n        /* \"#utility.yul\":7200:7247   */\n      mstore\n        /* \"#utility.yul\":7264:7395   */\n      tag_305\n        /* \"#utility.yul\":7390:7394   */\n      dup2\n        /* \"#utility.yul\":7264:7395   */\n      tag_209\n      jump\t// in\n    tag_305:\n        /* \"#utility.yul\":7256:7395   */\n      swap1\n      pop\n        /* \"#utility.yul\":6983:7402   */\n      swap2\n      swap1\n      pop\n      jump\t// out\n        /* \"#utility.yul\":7408:7571   */\n    tag_210:\n        /* \"#utility.yul\":7548:7563   */\n      0x496e76616c696420706861736500000000000000000000000000000000000000\n        /* \"#utility.yul\":7544:7545   */\n      0x00\n        /* \"#utility.yul\":7536:7542   */\n      dup3\n        /* \"#utility.yul\":7532:7546   */\n      add\n        /* \"#utility.yul\":7525:7564   */\n      mstore\n        /* \"#utility.yul\":7408:7571   */\n      pop\n      jump\t// out\n        /* \"#utility.yul\":7577:7943   */\n    tag_211:\n        /* \"#utility.yul\":7719:7722   */\n      0x00\n        /* \"#utility.yul\":7740:7807   */\n      tag_308\n        /* \"#utility.yul\":7804:7806   */\n      0x0d\n        /* \"#utility.yul\":7799:7802   */\n      dup4\n        /* \"#utility.yul\":7740:7807   */\n      tag_207\n      jump\t// in\n    tag_308:\n        /* \"#utility.yul\":7733:7807   */\n      swap2\n      pop\n        /* \"#utility.yul\":7816:7909   */\n      tag_309\n        /* \"#utility.yul\":7905:7908   */\n      dup3\n        /* \"#utility.yul\":7816:7909   */\n      tag_210\n      jump\t// in\n    tag_309:\n        /* \"#utility.yul\":7934:7936   */\n      0x20\n        /* \"#utility.yul\":7929:7932   */\n      dup3\n        /* \"#utility.yul\":7925:7937   */\n      add\n        /* \"#utility.yul\":7918:7937   */\n      swap1\n      pop\n        /* \"#utility.yul\":7577:7943   */\n      swap2\n      swap1\n      pop\n      jump\t// out\n        /* \"#utility.yul\":7949:8368   */\n    tag_86:\n        /* \"#utility.yul\":8115:8119   */\n      0x00\n        /* \"#utility.yul\":8153:8155   */\n      0x20\n        /* \"#utility.yul\":8142:8151   */\n      dup3\n        /* \"#utility.yul\":8138:8156   */\n      add\n        /* \"#utility.yul\":8130:8156   */\n      swap1\n      pop\n        /* \"#utility.yul\":8202:8211   */\n      dup2\n        /* \"#utility.yul\":8196:8200   */\n      dup2\n        /* \"#utility.yul\":8192:8212   */\n      sub\n        /* \"#utility.yul\":8188:8189   */\n      0x00\n        /* \"#utility.yul\":8177:8186   */\n      dup4\n        /* \"#utility.yul\":8173:8190   */\n      add\n        /* \"#utility.yul\":8166:8213   */\n      mstore\n        /* \"#utility.yul\":8230:8361   */\n      tag_311\n        /* \"#utility.yul\":8356:8360   */\n      dup2\n        /* \"#utility.yul\":8230:8361   */\n      tag_211\n      jump\t// in\n    tag_311:\n        /* \"#utility.yul\":8222:8361   */\n      swap1\n      pop\n        /* \"#utility.yul\":7949:8368   */\n      swap2\n      swap1\n      pop\n      jump\t// out\n        /* \"#utility.yul\":8374:8706   */\n    tag_92:\n        /* \"#utility.yul\":8495:8499   */\n      0x00\n        /* \"#utility.yul\":8533:8535   */\n      0x40\n        /* \"#utility.yul\":8522:8531   */\n      dup3\n        /* \"#utility.yul\":8518:8536   */\n      add\n        /* \"#utility.yul\":8510:8536   */\n      swap1\n      pop\n        /* \"#utility.yul\":8546:8617   */\n      tag_313\n        /* \"#utility.yul\":8614:8615   */\n      0x00\n        /* \"#utility.yul\":8603:8612   */\n      dup4\n        /* \"#utility.yul\":8599:8616   */\n      add\n        /* \"#utility.yul\":8590:8596   */\n      dup6\n        /* \"#utility.yul\":8546:8617   */\n      tag_206\n      jump\t// in\n    tag_313:\n        /* \"#utility.yul\":8627:8699   */\n      tag_314\n        /* \"#utility.yul\":8695:8697   */\n      0x20\n        /* \"#utility.yul\":8684:8693   */\n      dup4\n        /* \"#utility.yul\":8680:8698   */\n      add\n        /* \"#utility.yul\":8671:8677   */\n      dup5\n        /* \"#utility.yul\":8627:8699   */\n      tag_200\n      jump\t// in\n    tag_314:\n        /* \"#utility.yul\":8374:8706   */\n      swap4\n      swap3\n      pop\n      pop\n      pop\n      jump\t// out\n        /* \"#utility.yul\":8712:9044   */\n    tag_106:\n        /* \"#utility.yul\":8833:8837   */\n      0x00\n        /* \"#utility.yul\":8871:8873   */\n      0x40\n        /* \"#utility.yul\":8860:8869   */\n      dup3\n        /* \"#utility.yul\":8856:8874   */\n      add\n        /* \"#utility.yul\":8848:8874   */\n      swap1\n      pop\n        /* \"#utility.yul\":8884:8955   */\n      tag_316\n        /* \"#utility.yul\":8952:8953   */\n      0x00\n        /* \"#utility.yul\":8941:8950   */\n      dup4\n        /* \"#utility.yul\":8937:8954   */\n      add\n        /* \"#utility.yul\":8928:8934   */\n      dup6\n        /* \"#utility.yul\":8884:8955   */\n      tag_200\n      jump\t// in\n    tag_316:\n        /* \"#utility.yul\":8965:9037   */\n      tag_317\n        /* \"#utility.yul\":9033:9035   */\n      0x20\n        /* \"#utility.yul\":9022:9031   */\n      dup4\n        /* \"#utility.yul\":9018:9036   */\n      add\n        /* \"#utility.yul\":9009:9015   */\n      dup5\n        /* \"#utility.yul\":8965:9037   */\n      tag_199\n      jump\t// in\n    tag_317:\n        /* \"#utility.yul\":8712:9044   */\n      swap4\n      swap3\n      pop\n      pop\n      pop\n      jump\t// out\n        /* \"#utility.yul\":9050:9193   */\n    tag_212:\n        /* \"#utility.yul\":9107:9112   */\n      0x00\n        /* \"#utility.yul\":9138:9144   */\n      dup2\n        /* \"#utility.yul\":9132:9145   */\n      mload\n        /* \"#utility.yul\":9123:9145   */\n      swap1\n      pop\n        /* \"#utility.yul\":9154:9187   */\n      tag_319\n        /* \"#utility.yul\":9181:9186   */\n      dup2\n        /* \"#utility.yul\":9154:9187   */\n      tag_194\n      jump\t// in\n    tag_319:\n        /* \"#utility.yul\":9050:9193   */\n      swap3\n      swap2\n      pop\n      pop\n      jump\t// out\n        /* \"#utility.yul\":9199:9550   */\n    tag_110:\n        /* \"#utility.yul\":9269:9275   */\n      0x00\n        /* \"#utility.yul\":9318:9320   */\n      0x20\n        /* \"#utility.yul\":9306:9315   */\n      dup3\n        /* \"#utility.yul\":9297:9304   */\n      dup5\n        /* \"#utility.yul\":9293:9316   */\n      sub\n        /* \"#utility.yul\":9289:9321   */\n      slt\n        /* \"#utility.yul\":9286:9405   */\n      iszero\n      tag_321\n      jumpi\n        /* \"#utility.yul\":9324:9403   */\n      tag_322\n      tag_188\n      jump\t// in\n    tag_322:\n        /* \"#utility.yul\":9286:9405   */\n    tag_321:\n        /* \"#utility.yul\":9444:9445   */\n      0x00\n        /* \"#utility.yul\":9469:9533   */\n      tag_323\n        /* \"#utility.yul\":9525:9532   */\n      dup5\n        /* \"#utility.yul\":9516:9522   */\n      dup3\n        /* \"#utility.yul\":9505:9514   */\n      dup6\n        /* \"#utility.yul\":9501:9523   */\n      add\n        /* \"#utility.yul\":9469:9533   */\n      tag_212\n      jump\t// in\n    tag_323:\n        /* \"#utility.yul\":9459:9533   */\n      swap2\n      pop\n        /* \"#utility.yul\":9415:9543   */\n      pop\n        /* \"#utility.yul\":9199:9550   */\n      swap3\n      swap2\n      pop\n      pop\n      jump\t// out\n        /* \"#utility.yul\":9556:9736   */\n    tag_213:\n        /* \"#utility.yul\":9604:9681   */\n      0x4e487b7100000000000000000000000000000000000000000000000000000000\n        /* \"#utility.yul\":9601:9602   */\n      0x00\n        /* \"#utility.yul\":9594:9682   */\n      mstore\n        /* \"#utility.yul\":9701:9705   */\n      0x11\n        /* \"#utility.yul\":9698:9699   */\n      0x04\n        /* \"#utility.yul\":9691:9706   */\n      mstore\n        /* \"#utility.yul\":9725:9729   */\n      0x24\n        /* \"#utility.yul\":9722:9723   */\n      0x00\n        /* \"#utility.yul\":9715:9730   */\n      revert\n        /* \"#utility.yul\":9742:10152   */\n    tag_113:\n        /* \"#utility.yul\":9782:9789   */\n      0x00\n        /* \"#utility.yul\":9805:9825   */\n      tag_326\n        /* \"#utility.yul\":9823:9824   */\n      dup3\n        /* \"#utility.yul\":9805:9825   */\n      tag_190\n      jump\t// in\n    tag_326:\n        /* \"#utility.yul\":9800:9825   */\n      swap2\n      pop\n        /* \"#utility.yul\":9839:9859   */\n      tag_327\n        /* \"#utility.yul\":9857:9858   */\n      dup4\n        /* \"#utility.yul\":9839:9859   */\n      tag_190\n      jump\t// in\n    tag_327:\n        /* \"#utility.yul\":9834:9859   */\n      swap3\n      pop\n        /* \"#utility.yul\":9894:9895   */\n      dup3\n        /* \"#utility.yul\":9891:9892   */\n      dup3\n        /* \"#utility.yul\":9887:9896   */\n      mul\n        /* \"#utility.yul\":9916:9946   */\n      tag_328\n        /* \"#utility.yul\":9934:9945   */\n      dup2\n        /* \"#utility.yul\":9916:9946   */\n      tag_190\n      jump\t// in\n    tag_328:\n        /* \"#utility.yul\":9905:9946   */\n      swap2\n      pop\n        /* \"#utility.yul\":10095:10096   */\n      dup3\n        /* \"#utility.yul\":10086:10093   */\n      dup3\n        /* \"#utility.yul\":10082:10097   */\n      div\n        /* \"#utility.yul\":10079:10080   */\n      dup5\n        /* \"#utility.yul\":10076:10098   */\n      eq\n        /* \"#utility.yul\":10056:10057   */\n      dup4\n        /* \"#utility.yul\":10049:10058   */\n      iszero\n        /* \"#utility.yul\":10029:10112   */\n      or\n        /* \"#utility.yul\":10006:10145   */\n      tag_329\n      jumpi\n        /* \"#utility.yul\":10125:10143   */\n      tag_330\n      tag_213\n      jump\t// in\n    tag_330:\n        /* \"#utility.yul\":10006:10145   */\n    tag_329:\n        /* \"#utility.yul\":9790:10152   */\n      pop\n        /* \"#utility.yul\":9742:10152   */\n      swap3\n      swap2\n      pop\n      pop\n      jump\t// out\n        /* \"#utility.yul\":10158:10349   */\n    tag_117:\n        /* \"#utility.yul\":10198:10201   */\n      0x00\n        /* \"#utility.yul\":10217:10237   */\n      tag_332\n        /* \"#utility.yul\":10235:10236   */\n      dup3\n        /* \"#utility.yul\":10217:10237   */\n      tag_190\n      jump\t// in\n    tag_332:\n        /* \"#utility.yul\":10212:10237   */\n      swap2\n      pop\n        /* \"#utility.yul\":10251:10271   */\n      tag_333\n        /* \"#utility.yul\":10269:10270   */\n      dup4\n        /* \"#utility.yul\":10251:10271   */\n      tag_190\n      jump\t// in\n    tag_333:\n        /* \"#utility.yul\":10246:10271   */\n      swap3\n      pop\n        /* \"#utility.yul\":10294:10295   */\n      dup3\n        /* \"#utility.yul\":10291:10292   */\n      dup3\n        /* \"#utility.yul\":10287:10296   */\n      add\n        /* \"#utility.yul\":10280:10296   */\n      swap1\n      pop\n        /* \"#utility.yul\":10315:10318   */\n      dup1\n        /* \"#utility.yul\":10312:10313   */\n      dup3\n        /* \"#utility.yul\":10309:10319   */\n      gt\n        /* \"#utility.yul\":10306:10342   */\n      iszero\n      tag_334\n      jumpi\n        /* \"#utility.yul\":10322:10340   */\n      tag_335\n      tag_213\n      jump\t// in\n    tag_335:\n        /* \"#utility.yul\":10306:10342   */\n    tag_334:\n        /* \"#utility.yul\":10158:10349   */\n      swap3\n      swap2\n      pop\n      pop\n      jump\t// out\n        /* \"#utility.yul\":10355:10549   */\n    tag_121:\n        /* \"#utility.yul\":10395:10399   */\n      0x00\n        /* \"#utility.yul\":10415:10435   */\n      tag_337\n        /* \"#utility.yul\":10433:10434   */\n      dup3\n        /* \"#utility.yul\":10415:10435   */\n      tag_190\n      jump\t// in\n    tag_337:\n        /* \"#utility.yul\":10410:10435   */\n      swap2\n      pop\n        /* \"#utility.yul\":10449:10469   */\n      tag_338\n        /* \"#utility.yul\":10467:10468   */\n      dup4\n        /* \"#utility.yul\":10449:10469   */\n      tag_190\n      jump\t// in\n    tag_338:\n        /* \"#utility.yul\":10444:10469   */\n      swap3\n      pop\n        /* \"#utility.yul\":10493:10494   */\n      dup3\n        /* \"#utility.yul\":10490:10491   */\n      dup3\n        /* \"#utility.yul\":10486:10495   */\n      sub\n        /* \"#utility.yul\":10478:10495   */\n      swap1\n      pop\n        /* \"#utility.yul\":10517:10518   */\n      dup2\n        /* \"#utility.yul\":10511:10515   */\n      dup2\n        /* \"#utility.yul\":10508:10519   */\n      gt\n        /* \"#utility.yul\":10505:10542   */\n      iszero\n      tag_339\n      jumpi\n        /* \"#utility.yul\":10522:10540   */\n      tag_340\n      tag_213\n      jump\t// in\n    tag_340:\n        /* \"#utility.yul\":10505:10542   */\n    tag_339:\n        /* \"#utility.yul\":10355:10549   */\n      swap3\n      swap2\n      pop\n      pop\n      jump\t// out\n        /* \"#utility.yul\":10555:10721   */\n    tag_214:\n        /* \"#utility.yul\":10695:10713   */\n      0x4e6f2062696420746f2063616e63656c00000000000000000000000000000000\n        /* \"#utility.yul\":10691:10692   */\n      0x00\n        /* \"#utility.yul\":10683:10689   */\n      dup3\n        /* \"#utility.yul\":10679:10693   */\n      add\n        /* \"#utility.yul\":10672:10714   */\n      mstore\n        /* \"#utility.yul\":10555:10721   */\n      pop\n      jump\t// out\n        /* \"#utility.yul\":10727:11093   */\n    tag_215:\n        /* \"#utility.yul\":10869:10872   */\n      0x00\n        /* \"#utility.yul\":10890:10957   */\n      tag_343\n        /* \"#utility.yul\":10954:10956   */\n      0x10\n        /* \"#utility.yul\":10949:10952   */\n      dup4\n        /* \"#utility.yul\":10890:10957   */\n      tag_207\n      jump\t// in\n    tag_343:\n        /* \"#utility.yul\":10883:10957   */\n      swap2\n      pop\n        /* \"#utility.yul\":10966:11059   */\n      tag_344\n        /* \"#utility.yul\":11055:11058   */\n      dup3\n        /* \"#utility.yul\":10966:11059   */\n      tag_214\n      jump\t// in\n    tag_344:\n        /* \"#utility.yul\":11084:11086   */\n      0x20\n        /* \"#utility.yul\":11079:11082   */\n      dup3\n        /* \"#utility.yul\":11075:11087   */\n      add\n        /* \"#utility.yul\":11068:11087   */\n      swap1\n      pop\n        /* \"#utility.yul\":10727:11093   */\n      swap2\n      swap1\n      pop\n      jump\t// out\n        /* \"#utility.yul\":11099:11518   */\n    tag_134:\n        /* \"#utility.yul\":11265:11269   */\n      0x00\n        /* \"#utility.yul\":11303:11305   */\n      0x20\n        /* \"#utility.yul\":11292:11301   */\n      dup3\n        /* \"#utility.yul\":11288:11306   */\n      add\n        /* \"#utility.yul\":11280:11306   */\n      swap1\n      pop\n        /* \"#utility.yul\":11352:11361   */\n      dup2\n        /* \"#utility.yul\":11346:11350   */\n      dup2\n        /* \"#utility.yul\":11342:11362   */\n      sub\n        /* \"#utility.yul\":11338:11339   */\n      0x00\n        /* \"#utility.yul\":11327:11336   */\n      dup4\n        /* \"#utility.yul\":11323:11340   */\n      add\n        /* \"#utility.yul\":11316:11363   */\n      mstore\n        /* \"#utility.yul\":11380:11511   */\n      tag_346\n        /* \"#utility.yul\":11506:11510   */\n      dup2\n        /* \"#utility.yul\":11380:11511   */\n      tag_215\n      jump\t// in\n    tag_346:\n        /* \"#utility.yul\":11372:11511   */\n      swap1\n      pop\n        /* \"#utility.yul\":11099:11518   */\n      swap2\n      swap1\n      pop\n      jump\t// out\n        /* \"#utility.yul\":11524:11695   */\n    tag_216:\n        /* \"#utility.yul\":11664:11687   */\n      0x41756374696f6e20616c726561647920656e6465640000000000000000000000\n        /* \"#utility.yul\":11660:11661   */\n      0x00\n        /* \"#utility.yul\":11652:11658   */\n      dup3\n        /* \"#utility.yul\":11648:11662   */\n      add\n        /* \"#utility.yul\":11641:11688   */\n      mstore\n        /* \"#utility.yul\":11524:11695   */\n      pop\n      jump\t// out\n        /* \"#utility.yul\":11701:12067   */\n    tag_217:\n        /* \"#utility.yul\":11843:11846   */\n      0x00\n        /* \"#utility.yul\":11864:11931   */\n      tag_349\n        /* \"#utility.yul\":11928:11930   */\n      0x15\n        /* \"#utility.yul\":11923:11926   */\n      dup4\n        /* \"#utility.yul\":11864:11931   */\n      tag_207\n      jump\t// in\n    tag_349:\n        /* \"#utility.yul\":11857:11931   */\n      swap2\n      pop\n        /* \"#utility.yul\":11940:12033   */\n      tag_350\n        /* \"#utility.yul\":12029:12032   */\n      dup3\n        /* \"#utility.yul\":11940:12033   */\n      tag_216\n      jump\t// in\n    tag_350:\n        /* \"#utility.yul\":12058:12060   */\n      0x20\n        /* \"#utility.yul\":12053:12056   */\n      dup3\n        /* \"#utility.yul\":12049:12061   */\n      add\n        /* \"#utility.yul\":12042:12061   */\n      swap1\n      pop\n        /* \"#utility.yul\":11701:12067   */\n      swap2\n      swap1\n      pop\n      jump\t// out\n        /* \"#utility.yul\":12073:12492   */\n    tag_155:\n        /* \"#utility.yul\":12239:12243   */\n      0x00\n        /* \"#utility.yul\":12277:12279   */\n      0x20\n        /* \"#utility.yul\":12266:12275   */\n      dup3\n        /* \"#utility.yul\":12262:12280   */\n      add\n        /* \"#utility.yul\":12254:12280   */\n      swap1\n      pop\n        /* \"#utility.yul\":12326:12335   */\n      dup2\n        /* \"#utility.yul\":12320:12324   */\n      dup2\n        /* \"#utility.yul\":12316:12336   */\n      sub\n        /* \"#utility.yul\":12312:12313   */\n      0x00\n        /* \"#utility.yul\":12301:12310   */\n      dup4\n        /* \"#utility.yul\":12297:12314   */\n      add\n        /* \"#utility.yul\":12290:12337   */\n      mstore\n        /* \"#utility.yul\":12354:12485   */\n      tag_352\n        /* \"#utility.yul\":12480:12484   */\n      dup2\n        /* \"#utility.yul\":12354:12485   */\n      tag_217\n      jump\t// in\n    tag_352:\n        /* \"#utility.yul\":12346:12485   */\n      swap1\n      pop\n        /* \"#utility.yul\":12073:12492   */\n      swap2\n      swap1\n      pop\n      jump\t// out\n\n    auxdata: 0xa26469706673582212208247cafdf7485110c4729d7a096b8f6007a63747551a4c7469f33c73b70306ea64736f6c63430008120033\n}\n\nsub_1: assembly {\n        /* \"Projects/BlindAuction-Dapp/blindauction-contract/contracts/BlindAuction.sol\":72:277  contract Khash {... */\n      mstore(0x40, 0x80)\n      callvalue\n      dup1\n      iszero\n      tag_1\n      jumpi\n      0x00\n      dup1\n      revert\n    tag_1:\n      pop\n      dataSize(sub_0)\n      dup1\n      dataOffset(sub_0)\n      0x00\n      codecopy\n      0x00\n      return\n    stop\n\n    sub_0: assembly {\n            /* \"Projects/BlindAuction-Dapp/blindauction-contract/contracts/BlindAuction.sol\":72:277  contract Khash {... */\n          mstore(0x40, 0x80)\n          callvalue\n          dup1\n          iszero\n          tag_1\n          jumpi\n          0x00\n          dup1\n          revert\n        tag_1:\n          pop\n          jumpi(tag_2, lt(calldatasize, 0x04))\n          shr(0xe0, calldataload(0x00))\n          dup1\n          0xb3ec48dd\n          eq\n          tag_3\n          jumpi\n        tag_2:\n          0x00\n          dup1\n          revert\n            /* \"Projects/BlindAuction-Dapp/blindauction-contract/contracts/BlindAuction.sol\":94:274  function hashMe(uint value, bytes32 password) ... */\n        tag_3:\n          tag_4\n          0x04\n          dup1\n          calldatasize\n          sub\n          dup2\n          add\n          swap1\n          tag_5\n          swap2\n          swap1\n          tag_6\n          jump\t// in\n        tag_5:\n          tag_7\n          jump\t// in\n        tag_4:\n          mload(0x40)\n          tag_8\n          swap2\n          swap1\n          tag_9\n          jump\t// in\n        tag_8:\n          mload(0x40)\n          dup1\n          swap2\n          sub\n          swap1\n          return\n        tag_7:\n            /* \"Projects/BlindAuction-Dapp/blindauction-contract/contracts/BlindAuction.sol\":191:198  bytes32 */\n          0x00\n            /* \"Projects/BlindAuction-Dapp/blindauction-contract/contracts/BlindAuction.sol\":249:254  value */\n          dup3\n            /* \"Projects/BlindAuction-Dapp/blindauction-contract/contracts/BlindAuction.sol\":256:264  password */\n          dup3\n            /* \"Projects/BlindAuction-Dapp/blindauction-contract/contracts/BlindAuction.sol\":232:265  abi.encodePacked(value, password) */\n          add(0x20, mload(0x40))\n          tag_11\n          swap3\n          swap2\n          swap1\n          tag_12\n          jump\t// in\n        tag_11:\n          mload(0x40)\n          0x20\n          dup2\n          dup4\n          sub\n          sub\n          dup2\n          mstore\n          swap1\n          0x40\n          mstore\n            /* \"Projects/BlindAuction-Dapp/blindauction-contract/contracts/BlindAuction.sol\":222:266  keccak256(abi.encodePacked(value, password)) */\n          dup1\n          mload\n          swap1\n          0x20\n          add\n          keccak256\n            /* \"Projects/BlindAuction-Dapp/blindauction-contract/contracts/BlindAuction.sol\":215:266  return keccak256(abi.encodePacked(value, password)) */\n          swap1\n          pop\n            /* \"Projects/BlindAuction-Dapp/blindauction-contract/contracts/BlindAuction.sol\":94:274  function hashMe(uint value, bytes32 password) ... */\n          swap3\n          swap2\n          pop\n          pop\n          jump\t// out\n            /* \"#utility.yul\":88:205   */\n        tag_14:\n            /* \"#utility.yul\":197:198   */\n          0x00\n            /* \"#utility.yul\":194:195   */\n          dup1\n            /* \"#utility.yul\":187:199   */\n          revert\n            /* \"#utility.yul\":334:411   */\n        tag_16:\n            /* \"#utility.yul\":371:378   */\n          0x00\n            /* \"#utility.yul\":400:405   */\n          dup2\n            /* \"#utility.yul\":389:405   */\n          swap1\n          pop\n            /* \"#utility.yul\":334:411   */\n          swap2\n          swap1\n          pop\n          jump\t// out\n            /* \"#utility.yul\":417:539   */\n        tag_17:\n            /* \"#utility.yul\":490:514   */\n          tag_33\n            /* \"#utility.yul\":508:513   */\n          dup2\n            /* \"#utility.yul\":490:514   */\n          tag_16\n          jump\t// in\n        tag_33:\n            /* \"#utility.yul\":483:488   */\n          dup2\n            /* \"#utility.yul\":480:515   */\n          eq\n            /* \"#utility.yul\":470:533   */\n          tag_34\n          jumpi\n            /* \"#utility.yul\":529:530   */\n          0x00\n            /* \"#utility.yul\":526:527   */\n          dup1\n            /* \"#utility.yul\":519:531   */\n          revert\n            /* \"#utility.yul\":470:533   */\n        tag_34:\n            /* \"#utility.yul\":417:539   */\n          pop\n          jump\t// out\n            /* \"#utility.yul\":545:684   */\n        tag_18:\n            /* \"#utility.yul\":591:596   */\n          0x00\n            /* \"#utility.yul\":629:635   */\n          dup2\n            /* \"#utility.yul\":616:636   */\n          calldataload\n            /* \"#utility.yul\":607:636   */\n          swap1\n          pop\n            /* \"#utility.yul\":645:678   */\n          tag_36\n            /* \"#utility.yul\":672:677   */\n          dup2\n            /* \"#utility.yul\":645:678   */\n          tag_17\n          jump\t// in\n        tag_36:\n            /* \"#utility.yul\":545:684   */\n          swap3\n          swap2\n          pop\n          pop\n          jump\t// out\n            /* \"#utility.yul\":690:767   */\n        tag_19:\n            /* \"#utility.yul\":727:734   */\n          0x00\n            /* \"#utility.yul\":756:761   */\n          dup2\n            /* \"#utility.yul\":745:761   */\n          swap1\n          pop\n            /* \"#utility.yul\":690:767   */\n          swap2\n          swap1\n          pop\n          jump\t// out\n            /* \"#utility.yul\":773:895   */\n        tag_20:\n            /* \"#utility.yul\":846:870   */\n          tag_39\n            /* \"#utility.yul\":864:869   */\n          dup2\n            /* \"#utility.yul\":846:870   */\n          tag_19\n          jump\t// in\n        tag_39:\n            /* \"#utility.yul\":839:844   */\n          dup2\n            /* \"#utility.yul\":836:871   */\n          eq\n            /* \"#utility.yul\":826:889   */\n          tag_40\n          jumpi\n            /* \"#utility.yul\":885:886   */\n          0x00\n            /* \"#utility.yul\":882:883   */\n          dup1\n            /* \"#utility.yul\":875:887   */\n          revert\n            /* \"#utility.yul\":826:889   */\n        tag_40:\n            /* \"#utility.yul\":773:895   */\n          pop\n          jump\t// out\n            /* \"#utility.yul\":901:1040   */\n        tag_21:\n            /* \"#utility.yul\":947:952   */\n          0x00\n            /* \"#utility.yul\":985:991   */\n          dup2\n            /* \"#utility.yul\":972:992   */\n          calldataload\n            /* \"#utility.yul\":963:992   */\n          swap1\n          pop\n            /* \"#utility.yul\":1001:1034   */\n          tag_42\n            /* \"#utility.yul\":1028:1033   */\n          dup2\n            /* \"#utility.yul\":1001:1034   */\n          tag_20\n          jump\t// in\n        tag_42:\n            /* \"#utility.yul\":901:1040   */\n          swap3\n          swap2\n          pop\n          pop\n          jump\t// out\n            /* \"#utility.yul\":1046:1520   */\n        tag_6:\n            /* \"#utility.yul\":1114:1120   */\n          0x00\n            /* \"#utility.yul\":1122:1128   */\n          dup1\n            /* \"#utility.yul\":1171:1173   */\n          0x40\n            /* \"#utility.yul\":1159:1168   */\n          dup4\n            /* \"#utility.yul\":1150:1157   */\n          dup6\n            /* \"#utility.yul\":1146:1169   */\n          sub\n            /* \"#utility.yul\":1142:1174   */\n          slt\n            /* \"#utility.yul\":1139:1258   */\n          iszero\n          tag_44\n          jumpi\n            /* \"#utility.yul\":1177:1256   */\n          tag_45\n          tag_14\n          jump\t// in\n        tag_45:\n            /* \"#utility.yul\":1139:1258   */\n        tag_44:\n            /* \"#utility.yul\":1297:1298   */\n          0x00\n            /* \"#utility.yul\":1322:1375   */\n          tag_46\n            /* \"#utility.yul\":1367:1374   */\n          dup6\n            /* \"#utility.yul\":1358:1364   */\n          dup3\n            /* \"#utility.yul\":1347:1356   */\n          dup7\n            /* \"#utility.yul\":1343:1365   */\n          add\n            /* \"#utility.yul\":1322:1375   */\n          tag_18\n          jump\t// in\n        tag_46:\n            /* \"#utility.yul\":1312:1375   */\n          swap3\n          pop\n            /* \"#utility.yul\":1268:1385   */\n          pop\n            /* \"#utility.yul\":1424:1426   */\n          0x20\n            /* \"#utility.yul\":1450:1503   */\n          tag_47\n            /* \"#utility.yul\":1495:1502   */\n          dup6\n            /* \"#utility.yul\":1486:1492   */\n          dup3\n            /* \"#utility.yul\":1475:1484   */\n          dup7\n            /* \"#utility.yul\":1471:1493   */\n          add\n            /* \"#utility.yul\":1450:1503   */\n          tag_21\n          jump\t// in\n        tag_47:\n            /* \"#utility.yul\":1440:1503   */\n          swap2\n          pop\n            /* \"#utility.yul\":1395:1513   */\n          pop\n            /* \"#utility.yul\":1046:1520   */\n          swap3\n          pop\n          swap3\n          swap1\n          pop\n          jump\t// out\n            /* \"#utility.yul\":1526:1644   */\n        tag_22:\n            /* \"#utility.yul\":1613:1637   */\n          tag_49\n            /* \"#utility.yul\":1631:1636   */\n          dup2\n            /* \"#utility.yul\":1613:1637   */\n          tag_19\n          jump\t// in\n        tag_49:\n            /* \"#utility.yul\":1608:1611   */\n          dup3\n            /* \"#utility.yul\":1601:1638   */\n          mstore\n            /* \"#utility.yul\":1526:1644   */\n          pop\n          pop\n          jump\t// out\n            /* \"#utility.yul\":1650:1872   */\n        tag_9:\n            /* \"#utility.yul\":1743:1747   */\n          0x00\n            /* \"#utility.yul\":1781:1783   */\n          0x20\n            /* \"#utility.yul\":1770:1779   */\n          dup3\n            /* \"#utility.yul\":1766:1784   */\n          add\n            /* \"#utility.yul\":1758:1784   */\n          swap1\n          pop\n            /* \"#utility.yul\":1794:1865   */\n          tag_51\n            /* \"#utility.yul\":1862:1863   */\n          0x00\n            /* \"#utility.yul\":1851:1860   */\n          dup4\n            /* \"#utility.yul\":1847:1864   */\n          add\n            /* \"#utility.yul\":1838:1844   */\n          dup5\n            /* \"#utility.yul\":1794:1865   */\n          tag_22\n          jump\t// in\n        tag_51:\n            /* \"#utility.yul\":1650:1872   */\n          swap3\n          swap2\n          pop\n          pop\n          jump\t// out\n            /* \"#utility.yul\":1878:1957   */\n        tag_23:\n            /* \"#utility.yul\":1917:1924   */\n          0x00\n            /* \"#utility.yul\":1946:1951   */\n          dup2\n            /* \"#utility.yul\":1935:1951   */\n          swap1\n          pop\n            /* \"#utility.yul\":1878:1957   */\n          swap2\n          swap1\n          pop\n          jump\t// out\n            /* \"#utility.yul\":1963:2120   */\n        tag_24:\n            /* \"#utility.yul\":2068:2113   */\n          tag_54\n            /* \"#utility.yul\":2088:2112   */\n          tag_55\n            /* \"#utility.yul\":2106:2111   */\n          dup3\n            /* \"#utility.yul\":2088:2112   */\n          tag_16\n          jump\t// in\n        tag_55:\n            /* \"#utility.yul\":2068:2113   */\n          tag_23\n          jump\t// in\n        tag_54:\n            /* \"#utility.yul\":2063:2066   */\n          dup3\n            /* \"#utility.yul\":2056:2114   */\n          mstore\n            /* \"#utility.yul\":1963:2120   */\n          pop\n          pop\n          jump\t// out\n            /* \"#utility.yul\":2126:2205   */\n        tag_25:\n            /* \"#utility.yul\":2165:2172   */\n          0x00\n            /* \"#utility.yul\":2194:2199   */\n          dup2\n            /* \"#utility.yul\":2183:2199   */\n          swap1\n          pop\n            /* \"#utility.yul\":2126:2205   */\n          swap2\n          swap1\n          pop\n          jump\t// out\n            /* \"#utility.yul\":2211:2368   */\n        tag_26:\n            /* \"#utility.yul\":2316:2361   */\n          tag_58\n            /* \"#utility.yul\":2336:2360   */\n          tag_59\n            /* \"#utility.yul\":2354:2359   */\n          dup3\n            /* \"#utility.yul\":2336:2360   */\n          tag_19\n          jump\t// in\n        tag_59:\n            /* \"#utility.yul\":2316:2361   */\n          tag_25\n          jump\t// in\n        tag_58:\n            /* \"#utility.yul\":2311:2314   */\n          dup3\n            /* \"#utility.yul\":2304:2362   */\n          mstore\n            /* \"#utility.yul\":2211:2368   */\n          pop\n          pop\n          jump\t// out\n            /* \"#utility.yul\":2374:2771   */\n        tag_12:\n            /* \"#utility.yul\":2514:2517   */\n          0x00\n            /* \"#utility.yul\":2529:2604   */\n          tag_61\n            /* \"#utility.yul\":2600:2603   */\n          dup3\n            /* \"#utility.yul\":2591:2597   */\n          dup6\n            /* \"#utility.yul\":2529:2604   */\n          tag_24\n          jump\t// in\n        tag_61:\n            /* \"#utility.yul\":2629:2631   */\n          0x20\n            /* \"#utility.yul\":2624:2627   */\n          dup3\n            /* \"#utility.yul\":2620:2632   */\n          add\n            /* \"#utility.yul\":2613:2632   */\n          swap2\n          pop\n            /* \"#utility.yul\":2642:2717   */\n          tag_62\n            /* \"#utility.yul\":2713:2716   */\n          dup3\n            /* \"#utility.yul\":2704:2710   */\n          dup5\n            /* \"#utility.yul\":2642:2717   */\n          tag_26\n          jump\t// in\n        tag_62:\n            /* \"#utility.yul\":2742:2744   */\n          0x20\n            /* \"#utility.yul\":2737:2740   */\n          dup3\n            /* \"#utility.yul\":2733:2745   */\n          add\n            /* \"#utility.yul\":2726:2745   */\n          swap2\n          pop\n            /* \"#utility.yul\":2762:2765   */\n          dup2\n            /* \"#utility.yul\":2755:2765   */\n          swap1\n          pop\n            /* \"#utility.yul\":2374:2771   */\n          swap4\n          swap3\n          pop\n          pop\n          pop\n          jump\t// out\n\n        auxdata: 0xa26469706673582212203ac54c01ed74774d34638dd033e94a74398851c5b465b695b84c15b1ae10806e64736f6c63430008120033\n    }\n}\n",
				"bytecode": {
					"linkReferences": {},
					"object": "60806040526000600160146101000a81548160ff0219169083600381111561002a576100296100f7565b5b021790555034801561003b57600080fd5b5033600160006101000a81548173ffffffffffffffffffffffffffffffffffffffff021916908373ffffffffffffffffffffffffffffffffffffffff160217905550604051610089906100ea565b604051809103906000f0801580156100a5573d6000803e3d6000fd5b506000806101000a81548173ffffffffffffffffffffffffffffffffffffffff021916908373ffffffffffffffffffffffffffffffffffffffff160217905550610126565b6102328061178483390190565b7f4e487b7100000000000000000000000000000000000000000000000000000000600052602160045260246000fd5b61164f806101356000396000f3fe6080604052600436106100c25760003560e01c8063631420151161007f57806394c246d51161005957806394c246d51461021f578063957bb1e01461024a578063be25a71814610266578063d57bde791461027d576100c2565b806363142015146101b257806391f90157146101dd5780639435c88714610208576100c2565b8063055ad42e146100c75780632a24f46c146100f257806338af3eed146101095780633ccfd60b146101345780634036778f1461014b57806362ea82db14610174575b600080fd5b3480156100d357600080fd5b506100dc6102a8565b6040516100e99190611025565b60405180910390f35b3480156100fe57600080fd5b506101076102bb565b005b34801561011557600080fd5b5061011e6104e4565b60405161012b9190611081565b60405180910390f35b34801561014057600080fd5b5061014961050a565b005b34801561015757600080fd5b50610172600480360381019061016d919061110d565b6105e7565b005b34801561018057600080fd5b5061019b6004803603810190610196919061118b565b610971565b6040516101a99291906111d6565b60405180910390f35b3480156101be57600080fd5b506101c7610995565b6040516101d4919061125e565b60405180910390f35b3480156101e957600080fd5b506101f26109b9565b6040516101ff9190611288565b60405180910390f35b34801561021457600080fd5b5061021d6109df565b005b34801561022b57600080fd5b50610234610b81565b60405161024191906112a3565b60405180910390f35b610264600480360381019061025f91906112be565b610bc8565b005b34801561027257600080fd5b5061027b610cae565b005b34801561028957600080fd5b50610292610fa8565b60405161029f91906112a3565b60405180910390f35b600160149054906101000a900460ff1681565b600160009054906101000a900473ffffffffffffffffffffffffffffffffffffffff1673ffffffffffffffffffffffffffffffffffffffff163373ffffffffffffffffffffffffffffffffffffffff161461034b576040517f08c379a000000000000000000000000000000000000000000000000000000000815260040161034290611348565b60405180910390fd5b60038060038111156103605761035f610fae565b5b600160149054906101000a900460ff16600381111561038257610381610fae565b5b146103c2576040517f08c379a00000000000000000000000000000000000000000000000000000000081526004016103b9906113b4565b60405180910390fd5b600073ffffffffffffffffffffffffffffffffffffffff16600460009054906101000a900473ffffffffffffffffffffffffffffffffffffffff1673ffffffffffffffffffffffffffffffffffffffff161461048457600160009054906101000a900473ffffffffffffffffffffffffffffffffffffffff1673ffffffffffffffffffffffffffffffffffffffff166108fc6005549081150290604051600060405180830381858888f19350505050158015610482573d6000803e3d6000fd5b505b7fdaec4582d5d9595688c8c98545fdd1c696d41c6aeaeb636737e84ed2f5c00eda600460009054906101000a900473ffffffffffffffffffffffffffffffffffffffff166005546040516104d99291906113d4565b60405180910390a150565b600160009054906101000a900473ffffffffffffffffffffffffffffffffffffffff1681565b6000600360003373ffffffffffffffffffffffffffffffffffffffff1673ffffffffffffffffffffffffffffffffffffffff16815260200190815260200160002054905060008111156105e4576000600360003373ffffffffffffffffffffffffffffffffffffffff1673ffffffffffffffffffffffffffffffffffffffff168152602001908152602001600020819055503373ffffffffffffffffffffffffffffffffffffffff166108fc829081150290604051600060405180830381858888f193505050501580156105e2573d6000803e3d6000fd5b505b50565b60028060038111156105fc576105fb610fae565b5b600160149054906101000a900460ff16600381111561061e5761061d610fae565b5b1461065e576040517f08c379a0000000000000000000000000000000000000000000000000000000008152600401610655906113b4565b60405180910390fd5b6000600260003373ffffffffffffffffffffffffffffffffffffffff1673ffffffffffffffffffffffffffffffffffffffff168152602001908152602001600020905060008060009054906101000a900473ffffffffffffffffffffffffffffffffffffffff1673ffffffffffffffffffffffffffffffffffffffff1663b3ec48dd86866040518363ffffffff1660e01b81526004016106ff9291906113fd565b602060405180830381865afa15801561071c573d6000803e3d6000fd5b505050506040513d601f19601f82011682018060405250810190610740919061143b565b90508082600001540361091557600082600101549050600554670de0b6b3a76400008761076d9190611497565b11156108c157600073ffffffffffffffffffffffffffffffffffffffff16600460009054906101000a900473ffffffffffffffffffffffffffffffffffffffff1673ffffffffffffffffffffffffffffffffffffffff16146108445760055460036000600460009054906101000a900473ffffffffffffffffffffffffffffffffffffffff1673ffffffffffffffffffffffffffffffffffffffff1673ffffffffffffffffffffffffffffffffffffffff168152602001908152602001600020600082825461083c91906114d9565b925050819055505b33600460006101000a81548173ffffffffffffffffffffffffffffffffffffffff021916908373ffffffffffffffffffffffffffffffffffffffff160217905550670de0b6b3a7640000866108999190611497565b600581905550670de0b6b3a7640000866108b39190611497565b816108be919061150d565b90505b600081111561090f5780600360003373ffffffffffffffffffffffffffffffffffffffff1673ffffffffffffffffffffffffffffffffffffffff168152602001908152602001600020819055505b5061095e565b8160010154600360003373ffffffffffffffffffffffffffffffffffffffff1673ffffffffffffffffffffffffffffffffffffffff168152602001908152602001600020819055505b6000801b82600001819055505050505050565b60026020528060005260406000206000915090508060000154908060010154905082565b60008054906101000a900473ffffffffffffffffffffffffffffffffffffffff1681565b600460009054906101000a900473ffffffffffffffffffffffffffffffffffffffff1681565b60018060038111156109f4576109f3610fae565b5b600160149054906101000a900460ff166003811115610a1657610a15610fae565b5b14610a56576040517f08c379a0000000000000000000000000000000000000000000000000000000008152600401610a4d906113b4565b60405180910390fd5b6000600260003373ffffffffffffffffffffffffffffffffffffffff1673ffffffffffffffffffffffffffffffffffffffff16815260200190815260200160002090506000816001015411610ae0576040517f08c379a0000000000000000000000000000000000000000000000000000000008152600401610ad79061158d565b60405180910390fd5b600081600101549050600082600101819055506000801b826000018190555080600360003373ffffffffffffffffffffffffffffffffffffffff1673ffffffffffffffffffffffffffffffffffffffff168152602001908152602001600020819055507f8d38c62ee74cd9e3dbcc09feaa7d1f5568aeaa35cbf8a0f167f513c07e2fd0b83382604051610b749291906113d4565b60405180910390a1505050565b6000600360003373ffffffffffffffffffffffffffffffffffffffff1673ffffffffffffffffffffffffffffffffffffffff16815260200190815260200160002054905090565b6001806003811115610bdd57610bdc610fae565b5b600160149054906101000a900460ff166003811115610bff57610bfe610fae565b5b14610c3f576040517f08c379a0000000000000000000000000000000000000000000000000000000008152600401610c36906113b4565b60405180910390fd5b604051806040016040528083815260200134815250600260003373ffffffffffffffffffffffffffffffffffffffff1673ffffffffffffffffffffffffffffffffffffffff16815260200190815260200160002060008201518160000155602082015181600101559050505050565b600160009054906101000a900473ffffffffffffffffffffffffffffffffffffffff1673ffffffffffffffffffffffffffffffffffffffff163373ffffffffffffffffffffffffffffffffffffffff1614610d3e576040517f08c379a0000000000000000000000000000000000000000000000000000000008152600401610d3590611348565b60405180910390fd5b600380811115610d5157610d50610fae565b5b600160149054906101000a900460ff166003811115610d7357610d72610fae565b5b03610db3576040517f08c379a0000000000000000000000000000000000000000000000000000000008152600401610daa906115f9565b60405180910390fd5b60006003811115610dc757610dc6610fae565b5b600160149054906101000a900460ff166003811115610de957610de8610fae565b5b03610e495760018060146101000a81548160ff02191690836003811115610e1357610e12610fae565b5b02179055507f02c124e22ee7da1c9905bbb317cf67658c1cc3ea1c0953b1633f85d0b5c281d960405160405180910390a1610fa6565b60016003811115610e5d57610e5c610fae565b5b600160149054906101000a900460ff166003811115610e7f57610e7e610fae565b5b03610ee0576002600160146101000a81548160ff02191690836003811115610eaa57610ea9610fae565b5b02179055507f3bcc93d35219aa0512d7c0d1ca10b0231f473e3d5f9396877d1b7215ee0ab3d560405160405180910390a1610fa5565b60026003811115610ef457610ef3610fae565b5b600160149054906101000a900460ff166003811115610f1657610f15610fae565b5b03610fa4576003600160146101000a81548160ff02191690836003811115610f4157610f40610fae565b5b02179055507fdaec4582d5d9595688c8c98545fdd1c696d41c6aeaeb636737e84ed2f5c00eda600460009054906101000a900473ffffffffffffffffffffffffffffffffffffffff16600554604051610f9b9291906113d4565b60405180910390a15b5b5b565b60055481565b7f4e487b7100000000000000000000000000000000000000000000000000000000600052602160045260246000fd5b60048110610fee57610fed610fae565b5b50565b6000819050610fff82610fdd565b919050565b600061100f82610ff1565b9050919050565b61101f81611004565b82525050565b600060208201905061103a6000830184611016565b92915050565b600073ffffffffffffffffffffffffffffffffffffffff82169050919050565b600061106b82611040565b9050919050565b61107b81611060565b82525050565b60006020820190506110966000830184611072565b92915050565b600080fd5b6000819050919050565b6110b4816110a1565b81146110bf57600080fd5b50565b6000813590506110d1816110ab565b92915050565b6000819050919050565b6110ea816110d7565b81146110f557600080fd5b50565b600081359050611107816110e1565b92915050565b600080604083850312156111245761112361109c565b5b6000611132858286016110c2565b9250506020611143858286016110f8565b9150509250929050565b600061115882611040565b9050919050565b6111688161114d565b811461117357600080fd5b50565b6000813590506111858161115f565b92915050565b6000602082840312156111a1576111a061109c565b5b60006111af84828501611176565b91505092915050565b6111c1816110d7565b82525050565b6111d0816110a1565b82525050565b60006040820190506111eb60008301856111b8565b6111f860208301846111c7565b9392505050565b6000819050919050565b600061122461121f61121a84611040565b6111ff565b611040565b9050919050565b600061123682611209565b9050919050565b60006112488261122b565b9050919050565b6112588161123d565b82525050565b6000602082019050611273600083018461124f565b92915050565b6112828161114d565b82525050565b600060208201905061129d6000830184611279565b92915050565b60006020820190506112b860008301846111c7565b92915050565b6000602082840312156112d4576112d361109c565b5b60006112e2848285016110f8565b91505092915050565b600082825260208201905092915050565b7f4f6e6c792062656e65666963696172792063616e2063616c6c20746869730000600082015250565b6000611332601e836112eb565b915061133d826112fc565b602082019050919050565b6000602082019050818103600083015261136181611325565b9050919050565b7f496e76616c696420706861736500000000000000000000000000000000000000600082015250565b600061139e600d836112eb565b91506113a982611368565b602082019050919050565b600060208201905081810360008301526113cd81611391565b9050919050565b60006040820190506113e96000830185611279565b6113f660208301846111c7565b9392505050565b600060408201905061141260008301856111c7565b61141f60208301846111b8565b9392505050565b600081519050611435816110e1565b92915050565b6000602082840312156114515761145061109c565b5b600061145f84828501611426565b91505092915050565b7f4e487b7100000000000000000000000000000000000000000000000000000000600052601160045260246000fd5b60006114a2826110a1565b91506114ad836110a1565b92508282026114bb816110a1565b915082820484148315176114d2576114d1611468565b5b5092915050565b60006114e4826110a1565b91506114ef836110a1565b925082820190508082111561150757611506611468565b5b92915050565b6000611518826110a1565b9150611523836110a1565b925082820390508181111561153b5761153a611468565b5b92915050565b7f4e6f2062696420746f2063616e63656c00000000000000000000000000000000600082015250565b60006115776010836112eb565b915061158282611541565b602082019050919050565b600060208201905081810360008301526115a68161156a565b9050919050565b7f41756374696f6e20616c726561647920656e6465640000000000000000000000600082015250565b60006115e36015836112eb565b91506115ee826115ad565b602082019050919050565b60006020820190508181036000830152611612816115d6565b905091905056fea26469706673582212208247cafdf7485110c4729d7a096b8f6007a63747551a4c7469f33c73b70306ea64736f6c63430008120033608060405234801561001057600080fd5b50610212806100206000396000f3fe608060405234801561001057600080fd5b506004361061002b5760003560e01c8063b3ec48dd14610030575b600080fd5b61004a60048036038101906100459190610104565b610060565b6040516100579190610153565b60405180910390f35b600082826040516020016100759291906101b0565b60405160208183030381529060405280519060200120905092915050565b600080fd5b6000819050919050565b6100ab81610098565b81146100b657600080fd5b50565b6000813590506100c8816100a2565b92915050565b6000819050919050565b6100e1816100ce565b81146100ec57600080fd5b50565b6000813590506100fe816100d8565b92915050565b6000806040838503121561011b5761011a610093565b5b6000610129858286016100b9565b925050602061013a858286016100ef565b9150509250929050565b61014d816100ce565b82525050565b60006020820190506101686000830184610144565b92915050565b6000819050919050565b61018961018482610098565b61016e565b82525050565b6000819050919050565b6101aa6101a5826100ce565b61018f565b82525050565b60006101bc8285610178565b6020820191506101cc8284610199565b602082019150819050939250505056fea26469706673582212203ac54c01ed74774d34638dd033e94a74398851c5b465b695b84c15b1ae10806e64736f6c63430008120033",
					"opcodes": "PUSH1 0x80 PUSH1 0x40 MSTORE PUSH1 0x0 PUSH1 0x1 PUSH1 0x14 PUSH2 0x100 EXP DUP2 SLOAD DUP2 PUSH1 0xFF MUL NOT AND SWAP1 DUP4 PUSH1 0x3 DUP2 GT ISZERO PUSH2 0x2A JUMPI PUSH2 0x29 PUSH2 0xF7 JUMP JUMPDEST JUMPDEST MUL OR SWAP1 SSTORE POP CALLVALUE DUP1 ISZERO PUSH2 0x3B JUMPI PUSH1 0x0 DUP1 REVERT JUMPDEST POP CALLER PUSH1 0x1 PUSH1 0x0 PUSH2 0x100 EXP DUP2 SLOAD DUP2 PUSH20 0xFFFFFFFFFFFFFFFFFFFFFFFFFFFFFFFFFFFFFFFF MUL NOT AND SWAP1 DUP4 PUSH20 0xFFFFFFFFFFFFFFFFFFFFFFFFFFFFFFFFFFFFFFFF AND MUL OR SWAP1 SSTORE POP PUSH1 0x40 MLOAD PUSH2 0x89 SWAP1 PUSH2 0xEA JUMP JUMPDEST PUSH1 0x40 MLOAD DUP1 SWAP2 SUB SWAP1 PUSH1 0x0 CREATE DUP1 ISZERO DUP1 ISZERO PUSH2 0xA5 JUMPI RETURNDATASIZE PUSH1 0x0 DUP1 RETURNDATACOPY RETURNDATASIZE PUSH1 0x0 REVERT JUMPDEST POP PUSH1 0x0 DUP1 PUSH2 0x100 EXP DUP2 SLOAD DUP2 PUSH20 0xFFFFFFFFFFFFFFFFFFFFFFFFFFFFFFFFFFFFFFFF MUL NOT AND SWAP1 DUP4 PUSH20 0xFFFFFFFFFFFFFFFFFFFFFFFFFFFFFFFFFFFFFFFF AND MUL OR SWAP1 SSTORE POP PUSH2 0x126 JUMP JUMPDEST PUSH2 0x232 DUP1 PUSH2 0x1784 DUP4 CODECOPY ADD SWAP1 JUMP JUMPDEST PUSH32 0x4E487B7100000000000000000000000000000000000000000000000000000000 PUSH1 0x0 MSTORE PUSH1 0x21 PUSH1 0x4 MSTORE PUSH1 0x24 PUSH1 0x0 REVERT JUMPDEST PUSH2 0x164F DUP1 PUSH2 0x135 PUSH1 0x0 CODECOPY PUSH1 0x0 RETURN INVALID PUSH1 0x80 PUSH1 0x40 MSTORE PUSH1 0x4 CALLDATASIZE LT PUSH2 0xC2 JUMPI PUSH1 0x0 CALLDATALOAD PUSH1 0xE0 SHR DUP1 PUSH4 0x63142015 GT PUSH2 0x7F JUMPI DUP1 PUSH4 0x94C246D5 GT PUSH2 0x59 JUMPI DUP1 PUSH4 0x94C246D5 EQ PUSH2 0x21F JUMPI DUP1 PUSH4 0x957BB1E0 EQ PUSH2 0x24A JUMPI DUP1 PUSH4 0xBE25A718 EQ PUSH2 0x266 JUMPI DUP1 PUSH4 0xD57BDE79 EQ PUSH2 0x27D JUMPI PUSH2 0xC2 JUMP JUMPDEST DUP1 PUSH4 0x63142015 EQ PUSH2 0x1B2 JUMPI DUP1 PUSH4 0x91F90157 EQ PUSH2 0x1DD JUMPI DUP1 PUSH4 0x9435C887 EQ PUSH2 0x208 JUMPI PUSH2 0xC2 JUMP JUMPDEST DUP1 PUSH4 0x55AD42E EQ PUSH2 0xC7 JUMPI DUP1 PUSH4 0x2A24F46C EQ PUSH2 0xF2 JUMPI DUP1 PUSH4 0x38AF3EED EQ PUSH2 0x109 JUMPI DUP1 PUSH4 0x3CCFD60B EQ PUSH2 0x134 JUMPI DUP1 PUSH4 0x4036778F EQ PUSH2 0x14B JUMPI DUP1 PUSH4 0x62EA82DB EQ PUSH2 0x174 JUMPI JUMPDEST PUSH1 0x0 DUP1 REVERT JUMPDEST CALLVALUE DUP1 ISZERO PUSH2 0xD3 JUMPI PUSH1 0x0 DUP1 REVERT JUMPDEST POP PUSH2 0xDC PUSH2 0x2A8 JUMP JUMPDEST PUSH1 0x40 MLOAD PUSH2 0xE9 SWAP2 SWAP1 PUSH2 0x1025 JUMP JUMPDEST PUSH1 0x40 MLOAD DUP1 SWAP2 SUB SWAP1 RETURN JUMPDEST CALLVALUE DUP1 ISZERO PUSH2 0xFE JUMPI PUSH1 0x0 DUP1 REVERT JUMPDEST POP PUSH2 0x107 PUSH2 0x2BB JUMP JUMPDEST STOP JUMPDEST CALLVALUE DUP1 ISZERO PUSH2 0x115 JUMPI PUSH1 0x0 DUP1 REVERT JUMPDEST POP PUSH2 0x11E PUSH2 0x4E4 JUMP JUMPDEST PUSH1 0x40 MLOAD PUSH2 0x12B SWAP2 SWAP1 PUSH2 0x1081 JUMP JUMPDEST PUSH1 0x40 MLOAD DUP1 SWAP2 SUB SWAP1 RETURN JUMPDEST CALLVALUE DUP1 ISZERO PUSH2 0x140 JUMPI PUSH1 0x0 DUP1 REVERT JUMPDEST POP PUSH2 0x149 PUSH2 0x50A JUMP JUMPDEST STOP JUMPDEST CALLVALUE DUP1 ISZERO PUSH2 0x157 JUMPI PUSH1 0x0 DUP1 REVERT JUMPDEST POP PUSH2 0x172 PUSH1 0x4 DUP1 CALLDATASIZE SUB DUP2 ADD SWAP1 PUSH2 0x16D SWAP2 SWAP1 PUSH2 0x110D JUMP JUMPDEST PUSH2 0x5E7 JUMP JUMPDEST STOP JUMPDEST CALLVALUE DUP1 ISZERO PUSH2 0x180 JUMPI PUSH1 0x0 DUP1 REVERT JUMPDEST POP PUSH2 0x19B PUSH1 0x4 DUP1 CALLDATASIZE SUB DUP2 ADD SWAP1 PUSH2 0x196 SWAP2 SWAP1 PUSH2 0x118B JUMP JUMPDEST PUSH2 0x971 JUMP JUMPDEST PUSH1 0x40 MLOAD PUSH2 0x1A9 SWAP3 SWAP2 SWAP1 PUSH2 0x11D6 JUMP JUMPDEST PUSH1 0x40 MLOAD DUP1 SWAP2 SUB SWAP1 RETURN JUMPDEST CALLVALUE DUP1 ISZERO PUSH2 0x1BE JUMPI PUSH1 0x0 DUP1 REVERT JUMPDEST POP PUSH2 0x1C7 PUSH2 0x995 JUMP JUMPDEST PUSH1 0x40 MLOAD PUSH2 0x1D4 SWAP2 SWAP1 PUSH2 0x125E JUMP JUMPDEST PUSH1 0x40 MLOAD DUP1 SWAP2 SUB SWAP1 RETURN JUMPDEST CALLVALUE DUP1 ISZERO PUSH2 0x1E9 JUMPI PUSH1 0x0 DUP1 REVERT JUMPDEST POP PUSH2 0x1F2 PUSH2 0x9B9 JUMP JUMPDEST PUSH1 0x40 MLOAD PUSH2 0x1FF SWAP2 SWAP1 PUSH2 0x1288 JUMP JUMPDEST PUSH1 0x40 MLOAD DUP1 SWAP2 SUB SWAP1 RETURN JUMPDEST CALLVALUE DUP1 ISZERO PUSH2 0x214 JUMPI PUSH1 0x0 DUP1 REVERT JUMPDEST POP PUSH2 0x21D PUSH2 0x9DF JUMP JUMPDEST STOP JUMPDEST CALLVALUE DUP1 ISZERO PUSH2 0x22B JUMPI PUSH1 0x0 DUP1 REVERT JUMPDEST POP PUSH2 0x234 PUSH2 0xB81 JUMP JUMPDEST PUSH1 0x40 MLOAD PUSH2 0x241 SWAP2 SWAP1 PUSH2 0x12A3 JUMP JUMPDEST PUSH1 0x40 MLOAD DUP1 SWAP2 SUB SWAP1 RETURN JUMPDEST PUSH2 0x264 PUSH1 0x4 DUP1 CALLDATASIZE SUB DUP2 ADD SWAP1 PUSH2 0x25F SWAP2 SWAP1 PUSH2 0x12BE JUMP JUMPDEST PUSH2 0xBC8 JUMP JUMPDEST STOP JUMPDEST CALLVALUE DUP1 ISZERO PUSH2 0x272 JUMPI PUSH1 0x0 DUP1 REVERT JUMPDEST POP PUSH2 0x27B PUSH2 0xCAE JUMP JUMPDEST STOP JUMPDEST CALLVALUE DUP1 ISZERO PUSH2 0x289 JUMPI PUSH1 0x0 DUP1 REVERT JUMPDEST POP PUSH2 0x292 PUSH2 0xFA8 JUMP JUMPDEST PUSH1 0x40 MLOAD PUSH2 0x29F SWAP2 SWAP1 PUSH2 0x12A3 JUMP JUMPDEST PUSH1 0x40 MLOAD DUP1 SWAP2 SUB SWAP1 RETURN JUMPDEST PUSH1 0x1 PUSH1 0x14 SWAP1 SLOAD SWAP1 PUSH2 0x100 EXP SWAP1 DIV PUSH1 0xFF AND DUP2 JUMP JUMPDEST PUSH1 0x1 PUSH1 0x0 SWAP1 SLOAD SWAP1 PUSH2 0x100 EXP SWAP1 DIV PUSH20 0xFFFFFFFFFFFFFFFFFFFFFFFFFFFFFFFFFFFFFFFF AND PUSH20 0xFFFFFFFFFFFFFFFFFFFFFFFFFFFFFFFFFFFFFFFF AND CALLER PUSH20 0xFFFFFFFFFFFFFFFFFFFFFFFFFFFFFFFFFFFFFFFF AND EQ PUSH2 0x34B JUMPI PUSH1 0x40 MLOAD PUSH32 0x8C379A000000000000000000000000000000000000000000000000000000000 DUP2 MSTORE PUSH1 0x4 ADD PUSH2 0x342 SWAP1 PUSH2 0x1348 JUMP JUMPDEST PUSH1 0x40 MLOAD DUP1 SWAP2 SUB SWAP1 REVERT JUMPDEST PUSH1 0x3 DUP1 PUSH1 0x3 DUP2 GT ISZERO PUSH2 0x360 JUMPI PUSH2 0x35F PUSH2 0xFAE JUMP JUMPDEST JUMPDEST PUSH1 0x1 PUSH1 0x14 SWAP1 SLOAD SWAP1 PUSH2 0x100 EXP SWAP1 DIV PUSH1 0xFF AND PUSH1 0x3 DUP2 GT ISZERO PUSH2 0x382 JUMPI PUSH2 0x381 PUSH2 0xFAE JUMP JUMPDEST JUMPDEST EQ PUSH2 0x3C2 JUMPI PUSH1 0x40 MLOAD PUSH32 0x8C379A000000000000000000000000000000000000000000000000000000000 DUP2 MSTORE PUSH1 0x4 ADD PUSH2 0x3B9 SWAP1 PUSH2 0x13B4 JUMP JUMPDEST PUSH1 0x40 MLOAD DUP1 SWAP2 SUB SWAP1 REVERT JUMPDEST PUSH1 0x0 PUSH20 0xFFFFFFFFFFFFFFFFFFFFFFFFFFFFFFFFFFFFFFFF AND PUSH1 0x4 PUSH1 0x0 SWAP1 SLOAD SWAP1 PUSH2 0x100 EXP SWAP1 DIV PUSH20 0xFFFFFFFFFFFFFFFFFFFFFFFFFFFFFFFFFFFFFFFF AND PUSH20 0xFFFFFFFFFFFFFFFFFFFFFFFFFFFFFFFFFFFFFFFF AND EQ PUSH2 0x484 JUMPI PUSH1 0x1 PUSH1 0x0 SWAP1 SLOAD SWAP1 PUSH2 0x100 EXP SWAP1 DIV PUSH20 0xFFFFFFFFFFFFFFFFFFFFFFFFFFFFFFFFFFFFFFFF AND PUSH20 0xFFFFFFFFFFFFFFFFFFFFFFFFFFFFFFFFFFFFFFFF AND PUSH2 0x8FC PUSH1 0x5 SLOAD SWAP1 DUP2 ISZERO MUL SWAP1 PUSH1 0x40 MLOAD PUSH1 0x0 PUSH1 0x40 MLOAD DUP1 DUP4 SUB DUP2 DUP6 DUP9 DUP9 CALL SWAP4 POP POP POP POP ISZERO DUP1 ISZERO PUSH2 0x482 JUMPI RETURNDATASIZE PUSH1 0x0 DUP1 RETURNDATACOPY RETURNDATASIZE PUSH1 0x0 REVERT JUMPDEST POP JUMPDEST PUSH32 0xDAEC4582D5D9595688C8C98545FDD1C696D41C6AEAEB636737E84ED2F5C00EDA PUSH1 0x4 PUSH1 0x0 SWAP1 SLOAD SWAP1 PUSH2 0x100 EXP SWAP1 DIV PUSH20 0xFFFFFFFFFFFFFFFFFFFFFFFFFFFFFFFFFFFFFFFF AND PUSH1 0x5 SLOAD PUSH1 0x40 MLOAD PUSH2 0x4D9 SWAP3 SWAP2 SWAP1 PUSH2 0x13D4 JUMP JUMPDEST PUSH1 0x40 MLOAD DUP1 SWAP2 SUB SWAP1 LOG1 POP JUMP JUMPDEST PUSH1 0x1 PUSH1 0x0 SWAP1 SLOAD SWAP1 PUSH2 0x100 EXP SWAP1 DIV PUSH20 0xFFFFFFFFFFFFFFFFFFFFFFFFFFFFFFFFFFFFFFFF AND DUP2 JUMP JUMPDEST PUSH1 0x0 PUSH1 0x3 PUSH1 0x0 CALLER PUSH20 0xFFFFFFFFFFFFFFFFFFFFFFFFFFFFFFFFFFFFFFFF AND PUSH20 0xFFFFFFFFFFFFFFFFFFFFFFFFFFFFFFFFFFFFFFFF AND DUP2 MSTORE PUSH1 0x20 ADD SWAP1 DUP2 MSTORE PUSH1 0x20 ADD PUSH1 0x0 KECCAK256 SLOAD SWAP1 POP PUSH1 0x0 DUP2 GT ISZERO PUSH2 0x5E4 JUMPI PUSH1 0x0 PUSH1 0x3 PUSH1 0x0 CALLER PUSH20 0xFFFFFFFFFFFFFFFFFFFFFFFFFFFFFFFFFFFFFFFF AND PUSH20 0xFFFFFFFFFFFFFFFFFFFFFFFFFFFFFFFFFFFFFFFF AND DUP2 MSTORE PUSH1 0x20 ADD SWAP1 DUP2 MSTORE PUSH1 0x20 ADD PUSH1 0x0 KECCAK256 DUP2 SWAP1 SSTORE POP CALLER PUSH20 0xFFFFFFFFFFFFFFFFFFFFFFFFFFFFFFFFFFFFFFFF AND PUSH2 0x8FC DUP3 SWAP1 DUP2 ISZERO MUL SWAP1 PUSH1 0x40 MLOAD PUSH1 0x0 PUSH1 0x40 MLOAD DUP1 DUP4 SUB DUP2 DUP6 DUP9 DUP9 CALL SWAP4 POP POP POP POP ISZERO DUP1 ISZERO PUSH2 0x5E2 JUMPI RETURNDATASIZE PUSH1 0x0 DUP1 RETURNDATACOPY RETURNDATASIZE PUSH1 0x0 REVERT JUMPDEST POP JUMPDEST POP JUMP JUMPDEST PUSH1 0x2 DUP1 PUSH1 0x3 DUP2 GT ISZERO PUSH2 0x5FC JUMPI PUSH2 0x5FB PUSH2 0xFAE JUMP JUMPDEST JUMPDEST PUSH1 0x1 PUSH1 0x14 SWAP1 SLOAD SWAP1 PUSH2 0x100 EXP SWAP1 DIV PUSH1 0xFF AND PUSH1 0x3 DUP2 GT ISZERO PUSH2 0x61E JUMPI PUSH2 0x61D PUSH2 0xFAE JUMP JUMPDEST JUMPDEST EQ PUSH2 0x65E JUMPI PUSH1 0x40 MLOAD PUSH32 0x8C379A000000000000000000000000000000000000000000000000000000000 DUP2 MSTORE PUSH1 0x4 ADD PUSH2 0x655 SWAP1 PUSH2 0x13B4 JUMP JUMPDEST PUSH1 0x40 MLOAD DUP1 SWAP2 SUB SWAP1 REVERT JUMPDEST PUSH1 0x0 PUSH1 0x2 PUSH1 0x0 CALLER PUSH20 0xFFFFFFFFFFFFFFFFFFFFFFFFFFFFFFFFFFFFFFFF AND PUSH20 0xFFFFFFFFFFFFFFFFFFFFFFFFFFFFFFFFFFFFFFFF AND DUP2 MSTORE PUSH1 0x20 ADD SWAP1 DUP2 MSTORE PUSH1 0x20 ADD PUSH1 0x0 KECCAK256 SWAP1 POP PUSH1 0x0 DUP1 PUSH1 0x0 SWAP1 SLOAD SWAP1 PUSH2 0x100 EXP SWAP1 DIV PUSH20 0xFFFFFFFFFFFFFFFFFFFFFFFFFFFFFFFFFFFFFFFF AND PUSH20 0xFFFFFFFFFFFFFFFFFFFFFFFFFFFFFFFFFFFFFFFF AND PUSH4 0xB3EC48DD DUP7 DUP7 PUSH1 0x40 MLOAD DUP4 PUSH4 0xFFFFFFFF AND PUSH1 0xE0 SHL DUP2 MSTORE PUSH1 0x4 ADD PUSH2 0x6FF SWAP3 SWAP2 SWAP1 PUSH2 0x13FD JUMP JUMPDEST PUSH1 0x20 PUSH1 0x40 MLOAD DUP1 DUP4 SUB DUP2 DUP7 GAS STATICCALL ISZERO DUP1 ISZERO PUSH2 0x71C JUMPI RETURNDATASIZE PUSH1 0x0 DUP1 RETURNDATACOPY RETURNDATASIZE PUSH1 0x0 REVERT JUMPDEST POP POP POP POP PUSH1 0x40 MLOAD RETURNDATASIZE PUSH1 0x1F NOT PUSH1 0x1F DUP3 ADD AND DUP3 ADD DUP1 PUSH1 0x40 MSTORE POP DUP2 ADD SWAP1 PUSH2 0x740 SWAP2 SWAP1 PUSH2 0x143B JUMP JUMPDEST SWAP1 POP DUP1 DUP3 PUSH1 0x0 ADD SLOAD SUB PUSH2 0x915 JUMPI PUSH1 0x0 DUP3 PUSH1 0x1 ADD SLOAD SWAP1 POP PUSH1 0x5 SLOAD PUSH8 0xDE0B6B3A7640000 DUP8 PUSH2 0x76D SWAP2 SWAP1 PUSH2 0x1497 JUMP JUMPDEST GT ISZERO PUSH2 0x8C1 JUMPI PUSH1 0x0 PUSH20 0xFFFFFFFFFFFFFFFFFFFFFFFFFFFFFFFFFFFFFFFF AND PUSH1 0x4 PUSH1 0x0 SWAP1 SLOAD SWAP1 PUSH2 0x100 EXP SWAP1 DIV PUSH20 0xFFFFFFFFFFFFFFFFFFFFFFFFFFFFFFFFFFFFFFFF AND PUSH20 0xFFFFFFFFFFFFFFFFFFFFFFFFFFFFFFFFFFFFFFFF AND EQ PUSH2 0x844 JUMPI PUSH1 0x5 SLOAD PUSH1 0x3 PUSH1 0x0 PUSH1 0x4 PUSH1 0x0 SWAP1 SLOAD SWAP1 PUSH2 0x100 EXP SWAP1 DIV PUSH20 0xFFFFFFFFFFFFFFFFFFFFFFFFFFFFFFFFFFFFFFFF AND PUSH20 0xFFFFFFFFFFFFFFFFFFFFFFFFFFFFFFFFFFFFFFFF AND PUSH20 0xFFFFFFFFFFFFFFFFFFFFFFFFFFFFFFFFFFFFFFFF AND DUP2 MSTORE PUSH1 0x20 ADD SWAP1 DUP2 MSTORE PUSH1 0x20 ADD PUSH1 0x0 KECCAK256 PUSH1 0x0 DUP3 DUP3 SLOAD PUSH2 0x83C SWAP2 SWAP1 PUSH2 0x14D9 JUMP JUMPDEST SWAP3 POP POP DUP2 SWAP1 SSTORE POP JUMPDEST CALLER PUSH1 0x4 PUSH1 0x0 PUSH2 0x100 EXP DUP2 SLOAD DUP2 PUSH20 0xFFFFFFFFFFFFFFFFFFFFFFFFFFFFFFFFFFFFFFFF MUL NOT AND SWAP1 DUP4 PUSH20 0xFFFFFFFFFFFFFFFFFFFFFFFFFFFFFFFFFFFFFFFF AND MUL OR SWAP1 SSTORE POP PUSH8 0xDE0B6B3A7640000 DUP7 PUSH2 0x899 SWAP2 SWAP1 PUSH2 0x1497 JUMP JUMPDEST PUSH1 0x5 DUP2 SWAP1 SSTORE POP PUSH8 0xDE0B6B3A7640000 DUP7 PUSH2 0x8B3 SWAP2 SWAP1 PUSH2 0x1497 JUMP JUMPDEST DUP2 PUSH2 0x8BE SWAP2 SWAP1 PUSH2 0x150D JUMP JUMPDEST SWAP1 POP JUMPDEST PUSH1 0x0 DUP2 GT ISZERO PUSH2 0x90F JUMPI DUP1 PUSH1 0x3 PUSH1 0x0 CALLER PUSH20 0xFFFFFFFFFFFFFFFFFFFFFFFFFFFFFFFFFFFFFFFF AND PUSH20 0xFFFFFFFFFFFFFFFFFFFFFFFFFFFFFFFFFFFFFFFF AND DUP2 MSTORE PUSH1 0x20 ADD SWAP1 DUP2 MSTORE PUSH1 0x20 ADD PUSH1 0x0 KECCAK256 DUP2 SWAP1 SSTORE POP JUMPDEST POP PUSH2 0x95E JUMP JUMPDEST DUP2 PUSH1 0x1 ADD SLOAD PUSH1 0x3 PUSH1 0x0 CALLER PUSH20 0xFFFFFFFFFFFFFFFFFFFFFFFFFFFFFFFFFFFFFFFF AND PUSH20 0xFFFFFFFFFFFFFFFFFFFFFFFFFFFFFFFFFFFFFFFF AND DUP2 MSTORE PUSH1 0x20 ADD SWAP1 DUP2 MSTORE PUSH1 0x20 ADD PUSH1 0x0 KECCAK256 DUP2 SWAP1 SSTORE POP JUMPDEST PUSH1 0x0 DUP1 SHL DUP3 PUSH1 0x0 ADD DUP2 SWAP1 SSTORE POP POP POP POP POP POP JUMP JUMPDEST PUSH1 0x2 PUSH1 0x20 MSTORE DUP1 PUSH1 0x0 MSTORE PUSH1 0x40 PUSH1 0x0 KECCAK256 PUSH1 0x0 SWAP2 POP SWAP1 POP DUP1 PUSH1 0x0 ADD SLOAD SWAP1 DUP1 PUSH1 0x1 ADD SLOAD SWAP1 POP DUP3 JUMP JUMPDEST PUSH1 0x0 DUP1 SLOAD SWAP1 PUSH2 0x100 EXP SWAP1 DIV PUSH20 0xFFFFFFFFFFFFFFFFFFFFFFFFFFFFFFFFFFFFFFFF AND DUP2 JUMP JUMPDEST PUSH1 0x4 PUSH1 0x0 SWAP1 SLOAD SWAP1 PUSH2 0x100 EXP SWAP1 DIV PUSH20 0xFFFFFFFFFFFFFFFFFFFFFFFFFFFFFFFFFFFFFFFF AND DUP2 JUMP JUMPDEST PUSH1 0x1 DUP1 PUSH1 0x3 DUP2 GT ISZERO PUSH2 0x9F4 JUMPI PUSH2 0x9F3 PUSH2 0xFAE JUMP JUMPDEST JUMPDEST PUSH1 0x1 PUSH1 0x14 SWAP1 SLOAD SWAP1 PUSH2 0x100 EXP SWAP1 DIV PUSH1 0xFF AND PUSH1 0x3 DUP2 GT ISZERO PUSH2 0xA16 JUMPI PUSH2 0xA15 PUSH2 0xFAE JUMP JUMPDEST JUMPDEST EQ PUSH2 0xA56 JUMPI PUSH1 0x40 MLOAD PUSH32 0x8C379A000000000000000000000000000000000000000000000000000000000 DUP2 MSTORE PUSH1 0x4 ADD PUSH2 0xA4D SWAP1 PUSH2 0x13B4 JUMP JUMPDEST PUSH1 0x40 MLOAD DUP1 SWAP2 SUB SWAP1 REVERT JUMPDEST PUSH1 0x0 PUSH1 0x2 PUSH1 0x0 CALLER PUSH20 0xFFFFFFFFFFFFFFFFFFFFFFFFFFFFFFFFFFFFFFFF AND PUSH20 0xFFFFFFFFFFFFFFFFFFFFFFFFFFFFFFFFFFFFFFFF AND DUP2 MSTORE PUSH1 0x20 ADD SWAP1 DUP2 MSTORE PUSH1 0x20 ADD PUSH1 0x0 KECCAK256 SWAP1 POP PUSH1 0x0 DUP2 PUSH1 0x1 ADD SLOAD GT PUSH2 0xAE0 JUMPI PUSH1 0x40 MLOAD PUSH32 0x8C379A000000000000000000000000000000000000000000000000000000000 DUP2 MSTORE PUSH1 0x4 ADD PUSH2 0xAD7 SWAP1 PUSH2 0x158D JUMP JUMPDEST PUSH1 0x40 MLOAD DUP1 SWAP2 SUB SWAP1 REVERT JUMPDEST PUSH1 0x0 DUP2 PUSH1 0x1 ADD SLOAD SWAP1 POP PUSH1 0x0 DUP3 PUSH1 0x1 ADD DUP2 SWAP1 SSTORE POP PUSH1 0x0 DUP1 SHL DUP3 PUSH1 0x0 ADD DUP2 SWAP1 SSTORE POP DUP1 PUSH1 0x3 PUSH1 0x0 CALLER PUSH20 0xFFFFFFFFFFFFFFFFFFFFFFFFFFFFFFFFFFFFFFFF AND PUSH20 0xFFFFFFFFFFFFFFFFFFFFFFFFFFFFFFFFFFFFFFFF AND DUP2 MSTORE PUSH1 0x20 ADD SWAP1 DUP2 MSTORE PUSH1 0x20 ADD PUSH1 0x0 KECCAK256 DUP2 SWAP1 SSTORE POP PUSH32 0x8D38C62EE74CD9E3DBCC09FEAA7D1F5568AEAA35CBF8A0F167F513C07E2FD0B8 CALLER DUP3 PUSH1 0x40 MLOAD PUSH2 0xB74 SWAP3 SWAP2 SWAP1 PUSH2 0x13D4 JUMP JUMPDEST PUSH1 0x40 MLOAD DUP1 SWAP2 SUB SWAP1 LOG1 POP POP POP JUMP JUMPDEST PUSH1 0x0 PUSH1 0x3 PUSH1 0x0 CALLER PUSH20 0xFFFFFFFFFFFFFFFFFFFFFFFFFFFFFFFFFFFFFFFF AND PUSH20 0xFFFFFFFFFFFFFFFFFFFFFFFFFFFFFFFFFFFFFFFF AND DUP2 MSTORE PUSH1 0x20 ADD SWAP1 DUP2 MSTORE PUSH1 0x20 ADD PUSH1 0x0 KECCAK256 SLOAD SWAP1 POP SWAP1 JUMP JUMPDEST PUSH1 0x1 DUP1 PUSH1 0x3 DUP2 GT ISZERO PUSH2 0xBDD JUMPI PUSH2 0xBDC PUSH2 0xFAE JUMP JUMPDEST JUMPDEST PUSH1 0x1 PUSH1 0x14 SWAP1 SLOAD SWAP1 PUSH2 0x100 EXP SWAP1 DIV PUSH1 0xFF AND PUSH1 0x3 DUP2 GT ISZERO PUSH2 0xBFF JUMPI PUSH2 0xBFE PUSH2 0xFAE JUMP JUMPDEST JUMPDEST EQ PUSH2 0xC3F JUMPI PUSH1 0x40 MLOAD PUSH32 0x8C379A000000000000000000000000000000000000000000000000000000000 DUP2 MSTORE PUSH1 0x4 ADD PUSH2 0xC36 SWAP1 PUSH2 0x13B4 JUMP JUMPDEST PUSH1 0x40 MLOAD DUP1 SWAP2 SUB SWAP1 REVERT JUMPDEST PUSH1 0x40 MLOAD DUP1 PUSH1 0x40 ADD PUSH1 0x40 MSTORE DUP1 DUP4 DUP2 MSTORE PUSH1 0x20 ADD CALLVALUE DUP2 MSTORE POP PUSH1 0x2 PUSH1 0x0 CALLER PUSH20 0xFFFFFFFFFFFFFFFFFFFFFFFFFFFFFFFFFFFFFFFF AND PUSH20 0xFFFFFFFFFFFFFFFFFFFFFFFFFFFFFFFFFFFFFFFF AND DUP2 MSTORE PUSH1 0x20 ADD SWAP1 DUP2 MSTORE PUSH1 0x20 ADD PUSH1 0x0 KECCAK256 PUSH1 0x0 DUP3 ADD MLOAD DUP2 PUSH1 0x0 ADD SSTORE PUSH1 0x20 DUP3 ADD MLOAD DUP2 PUSH1 0x1 ADD SSTORE SWAP1 POP POP POP POP JUMP JUMPDEST PUSH1 0x1 PUSH1 0x0 SWAP1 SLOAD SWAP1 PUSH2 0x100 EXP SWAP1 DIV PUSH20 0xFFFFFFFFFFFFFFFFFFFFFFFFFFFFFFFFFFFFFFFF AND PUSH20 0xFFFFFFFFFFFFFFFFFFFFFFFFFFFFFFFFFFFFFFFF AND CALLER PUSH20 0xFFFFFFFFFFFFFFFFFFFFFFFFFFFFFFFFFFFFFFFF AND EQ PUSH2 0xD3E JUMPI PUSH1 0x40 MLOAD PUSH32 0x8C379A000000000000000000000000000000000000000000000000000000000 DUP2 MSTORE PUSH1 0x4 ADD PUSH2 0xD35 SWAP1 PUSH2 0x1348 JUMP JUMPDEST PUSH1 0x40 MLOAD DUP1 SWAP2 SUB SWAP1 REVERT JUMPDEST PUSH1 0x3 DUP1 DUP2 GT ISZERO PUSH2 0xD51 JUMPI PUSH2 0xD50 PUSH2 0xFAE JUMP JUMPDEST JUMPDEST PUSH1 0x1 PUSH1 0x14 SWAP1 SLOAD SWAP1 PUSH2 0x100 EXP SWAP1 DIV PUSH1 0xFF AND PUSH1 0x3 DUP2 GT ISZERO PUSH2 0xD73 JUMPI PUSH2 0xD72 PUSH2 0xFAE JUMP JUMPDEST JUMPDEST SUB PUSH2 0xDB3 JUMPI PUSH1 0x40 MLOAD PUSH32 0x8C379A000000000000000000000000000000000000000000000000000000000 DUP2 MSTORE PUSH1 0x4 ADD PUSH2 0xDAA SWAP1 PUSH2 0x15F9 JUMP JUMPDEST PUSH1 0x40 MLOAD DUP1 SWAP2 SUB SWAP1 REVERT JUMPDEST PUSH1 0x0 PUSH1 0x3 DUP2 GT ISZERO PUSH2 0xDC7 JUMPI PUSH2 0xDC6 PUSH2 0xFAE JUMP JUMPDEST JUMPDEST PUSH1 0x1 PUSH1 0x14 SWAP1 SLOAD SWAP1 PUSH2 0x100 EXP SWAP1 DIV PUSH1 0xFF AND PUSH1 0x3 DUP2 GT ISZERO PUSH2 0xDE9 JUMPI PUSH2 0xDE8 PUSH2 0xFAE JUMP JUMPDEST JUMPDEST SUB PUSH2 0xE49 JUMPI PUSH1 0x1 DUP1 PUSH1 0x14 PUSH2 0x100 EXP DUP2 SLOAD DUP2 PUSH1 0xFF MUL NOT AND SWAP1 DUP4 PUSH1 0x3 DUP2 GT ISZERO PUSH2 0xE13 JUMPI PUSH2 0xE12 PUSH2 0xFAE JUMP JUMPDEST JUMPDEST MUL OR SWAP1 SSTORE POP PUSH32 0x2C124E22EE7DA1C9905BBB317CF67658C1CC3EA1C0953B1633F85D0B5C281D9 PUSH1 0x40 MLOAD PUSH1 0x40 MLOAD DUP1 SWAP2 SUB SWAP1 LOG1 PUSH2 0xFA6 JUMP JUMPDEST PUSH1 0x1 PUSH1 0x3 DUP2 GT ISZERO PUSH2 0xE5D JUMPI PUSH2 0xE5C PUSH2 0xFAE JUMP JUMPDEST JUMPDEST PUSH1 0x1 PUSH1 0x14 SWAP1 SLOAD SWAP1 PUSH2 0x100 EXP SWAP1 DIV PUSH1 0xFF AND PUSH1 0x3 DUP2 GT ISZERO PUSH2 0xE7F JUMPI PUSH2 0xE7E PUSH2 0xFAE JUMP JUMPDEST JUMPDEST SUB PUSH2 0xEE0 JUMPI PUSH1 0x2 PUSH1 0x1 PUSH1 0x14 PUSH2 0x100 EXP DUP2 SLOAD DUP2 PUSH1 0xFF MUL NOT AND SWAP1 DUP4 PUSH1 0x3 DUP2 GT ISZERO PUSH2 0xEAA JUMPI PUSH2 0xEA9 PUSH2 0xFAE JUMP JUMPDEST JUMPDEST MUL OR SWAP1 SSTORE POP PUSH32 0x3BCC93D35219AA0512D7C0D1CA10B0231F473E3D5F9396877D1B7215EE0AB3D5 PUSH1 0x40 MLOAD PUSH1 0x40 MLOAD DUP1 SWAP2 SUB SWAP1 LOG1 PUSH2 0xFA5 JUMP JUMPDEST PUSH1 0x2 PUSH1 0x3 DUP2 GT ISZERO PUSH2 0xEF4 JUMPI PUSH2 0xEF3 PUSH2 0xFAE JUMP JUMPDEST JUMPDEST PUSH1 0x1 PUSH1 0x14 SWAP1 SLOAD SWAP1 PUSH2 0x100 EXP SWAP1 DIV PUSH1 0xFF AND PUSH1 0x3 DUP2 GT ISZERO PUSH2 0xF16 JUMPI PUSH2 0xF15 PUSH2 0xFAE JUMP JUMPDEST JUMPDEST SUB PUSH2 0xFA4 JUMPI PUSH1 0x3 PUSH1 0x1 PUSH1 0x14 PUSH2 0x100 EXP DUP2 SLOAD DUP2 PUSH1 0xFF MUL NOT AND SWAP1 DUP4 PUSH1 0x3 DUP2 GT ISZERO PUSH2 0xF41 JUMPI PUSH2 0xF40 PUSH2 0xFAE JUMP JUMPDEST JUMPDEST MUL OR SWAP1 SSTORE POP PUSH32 0xDAEC4582D5D9595688C8C98545FDD1C696D41C6AEAEB636737E84ED2F5C00EDA PUSH1 0x4 PUSH1 0x0 SWAP1 SLOAD SWAP1 PUSH2 0x100 EXP SWAP1 DIV PUSH20 0xFFFFFFFFFFFFFFFFFFFFFFFFFFFFFFFFFFFFFFFF AND PUSH1 0x5 SLOAD PUSH1 0x40 MLOAD PUSH2 0xF9B SWAP3 SWAP2 SWAP1 PUSH2 0x13D4 JUMP JUMPDEST PUSH1 0x40 MLOAD DUP1 SWAP2 SUB SWAP1 LOG1 JUMPDEST JUMPDEST JUMPDEST JUMP JUMPDEST PUSH1 0x5 SLOAD DUP2 JUMP JUMPDEST PUSH32 0x4E487B7100000000000000000000000000000000000000000000000000000000 PUSH1 0x0 MSTORE PUSH1 0x21 PUSH1 0x4 MSTORE PUSH1 0x24 PUSH1 0x0 REVERT JUMPDEST PUSH1 0x4 DUP2 LT PUSH2 0xFEE JUMPI PUSH2 0xFED PUSH2 0xFAE JUMP JUMPDEST JUMPDEST POP JUMP JUMPDEST PUSH1 0x0 DUP2 SWAP1 POP PUSH2 0xFFF DUP3 PUSH2 0xFDD JUMP JUMPDEST SWAP2 SWAP1 POP JUMP JUMPDEST PUSH1 0x0 PUSH2 0x100F DUP3 PUSH2 0xFF1 JUMP JUMPDEST SWAP1 POP SWAP2 SWAP1 POP JUMP JUMPDEST PUSH2 0x101F DUP2 PUSH2 0x1004 JUMP JUMPDEST DUP3 MSTORE POP POP JUMP JUMPDEST PUSH1 0x0 PUSH1 0x20 DUP3 ADD SWAP1 POP PUSH2 0x103A PUSH1 0x0 DUP4 ADD DUP5 PUSH2 0x1016 JUMP JUMPDEST SWAP3 SWAP2 POP POP JUMP JUMPDEST PUSH1 0x0 PUSH20 0xFFFFFFFFFFFFFFFFFFFFFFFFFFFFFFFFFFFFFFFF DUP3 AND SWAP1 POP SWAP2 SWAP1 POP JUMP JUMPDEST PUSH1 0x0 PUSH2 0x106B DUP3 PUSH2 0x1040 JUMP JUMPDEST SWAP1 POP SWAP2 SWAP1 POP JUMP JUMPDEST PUSH2 0x107B DUP2 PUSH2 0x1060 JUMP JUMPDEST DUP3 MSTORE POP POP JUMP JUMPDEST PUSH1 0x0 PUSH1 0x20 DUP3 ADD SWAP1 POP PUSH2 0x1096 PUSH1 0x0 DUP4 ADD DUP5 PUSH2 0x1072 JUMP JUMPDEST SWAP3 SWAP2 POP POP JUMP JUMPDEST PUSH1 0x0 DUP1 REVERT JUMPDEST PUSH1 0x0 DUP2 SWAP1 POP SWAP2 SWAP1 POP JUMP JUMPDEST PUSH2 0x10B4 DUP2 PUSH2 0x10A1 JUMP JUMPDEST DUP2 EQ PUSH2 0x10BF JUMPI PUSH1 0x0 DUP1 REVERT JUMPDEST POP JUMP JUMPDEST PUSH1 0x0 DUP2 CALLDATALOAD SWAP1 POP PUSH2 0x10D1 DUP2 PUSH2 0x10AB JUMP JUMPDEST SWAP3 SWAP2 POP POP JUMP JUMPDEST PUSH1 0x0 DUP2 SWAP1 POP SWAP2 SWAP1 POP JUMP JUMPDEST PUSH2 0x10EA DUP2 PUSH2 0x10D7 JUMP JUMPDEST DUP2 EQ PUSH2 0x10F5 JUMPI PUSH1 0x0 DUP1 REVERT JUMPDEST POP JUMP JUMPDEST PUSH1 0x0 DUP2 CALLDATALOAD SWAP1 POP PUSH2 0x1107 DUP2 PUSH2 0x10E1 JUMP JUMPDEST SWAP3 SWAP2 POP POP JUMP JUMPDEST PUSH1 0x0 DUP1 PUSH1 0x40 DUP4 DUP6 SUB SLT ISZERO PUSH2 0x1124 JUMPI PUSH2 0x1123 PUSH2 0x109C JUMP JUMPDEST JUMPDEST PUSH1 0x0 PUSH2 0x1132 DUP6 DUP3 DUP7 ADD PUSH2 0x10C2 JUMP JUMPDEST SWAP3 POP POP PUSH1 0x20 PUSH2 0x1143 DUP6 DUP3 DUP7 ADD PUSH2 0x10F8 JUMP JUMPDEST SWAP2 POP POP SWAP3 POP SWAP3 SWAP1 POP JUMP JUMPDEST PUSH1 0x0 PUSH2 0x1158 DUP3 PUSH2 0x1040 JUMP JUMPDEST SWAP1 POP SWAP2 SWAP1 POP JUMP JUMPDEST PUSH2 0x1168 DUP2 PUSH2 0x114D JUMP JUMPDEST DUP2 EQ PUSH2 0x1173 JUMPI PUSH1 0x0 DUP1 REVERT JUMPDEST POP JUMP JUMPDEST PUSH1 0x0 DUP2 CALLDATALOAD SWAP1 POP PUSH2 0x1185 DUP2 PUSH2 0x115F JUMP JUMPDEST SWAP3 SWAP2 POP POP JUMP JUMPDEST PUSH1 0x0 PUSH1 0x20 DUP3 DUP5 SUB SLT ISZERO PUSH2 0x11A1 JUMPI PUSH2 0x11A0 PUSH2 0x109C JUMP JUMPDEST JUMPDEST PUSH1 0x0 PUSH2 0x11AF DUP5 DUP3 DUP6 ADD PUSH2 0x1176 JUMP JUMPDEST SWAP2 POP POP SWAP3 SWAP2 POP POP JUMP JUMPDEST PUSH2 0x11C1 DUP2 PUSH2 0x10D7 JUMP JUMPDEST DUP3 MSTORE POP POP JUMP JUMPDEST PUSH2 0x11D0 DUP2 PUSH2 0x10A1 JUMP JUMPDEST DUP3 MSTORE POP POP JUMP JUMPDEST PUSH1 0x0 PUSH1 0x40 DUP3 ADD SWAP1 POP PUSH2 0x11EB PUSH1 0x0 DUP4 ADD DUP6 PUSH2 0x11B8 JUMP JUMPDEST PUSH2 0x11F8 PUSH1 0x20 DUP4 ADD DUP5 PUSH2 0x11C7 JUMP JUMPDEST SWAP4 SWAP3 POP POP POP JUMP JUMPDEST PUSH1 0x0 DUP2 SWAP1 POP SWAP2 SWAP1 POP JUMP JUMPDEST PUSH1 0x0 PUSH2 0x1224 PUSH2 0x121F PUSH2 0x121A DUP5 PUSH2 0x1040 JUMP JUMPDEST PUSH2 0x11FF JUMP JUMPDEST PUSH2 0x1040 JUMP JUMPDEST SWAP1 POP SWAP2 SWAP1 POP JUMP JUMPDEST PUSH1 0x0 PUSH2 0x1236 DUP3 PUSH2 0x1209 JUMP JUMPDEST SWAP1 POP SWAP2 SWAP1 POP JUMP JUMPDEST PUSH1 0x0 PUSH2 0x1248 DUP3 PUSH2 0x122B JUMP JUMPDEST SWAP1 POP SWAP2 SWAP1 POP JUMP JUMPDEST PUSH2 0x1258 DUP2 PUSH2 0x123D JUMP JUMPDEST DUP3 MSTORE POP POP JUMP JUMPDEST PUSH1 0x0 PUSH1 0x20 DUP3 ADD SWAP1 POP PUSH2 0x1273 PUSH1 0x0 DUP4 ADD DUP5 PUSH2 0x124F JUMP JUMPDEST SWAP3 SWAP2 POP POP JUMP JUMPDEST PUSH2 0x1282 DUP2 PUSH2 0x114D JUMP JUMPDEST DUP3 MSTORE POP POP JUMP JUMPDEST PUSH1 0x0 PUSH1 0x20 DUP3 ADD SWAP1 POP PUSH2 0x129D PUSH1 0x0 DUP4 ADD DUP5 PUSH2 0x1279 JUMP JUMPDEST SWAP3 SWAP2 POP POP JUMP JUMPDEST PUSH1 0x0 PUSH1 0x20 DUP3 ADD SWAP1 POP PUSH2 0x12B8 PUSH1 0x0 DUP4 ADD DUP5 PUSH2 0x11C7 JUMP JUMPDEST SWAP3 SWAP2 POP POP JUMP JUMPDEST PUSH1 0x0 PUSH1 0x20 DUP3 DUP5 SUB SLT ISZERO PUSH2 0x12D4 JUMPI PUSH2 0x12D3 PUSH2 0x109C JUMP JUMPDEST JUMPDEST PUSH1 0x0 PUSH2 0x12E2 DUP5 DUP3 DUP6 ADD PUSH2 0x10F8 JUMP JUMPDEST SWAP2 POP POP SWAP3 SWAP2 POP POP JUMP JUMPDEST PUSH1 0x0 DUP3 DUP3 MSTORE PUSH1 0x20 DUP3 ADD SWAP1 POP SWAP3 SWAP2 POP POP JUMP JUMPDEST PUSH32 0x4F6E6C792062656E65666963696172792063616E2063616C6C20746869730000 PUSH1 0x0 DUP3 ADD MSTORE POP JUMP JUMPDEST PUSH1 0x0 PUSH2 0x1332 PUSH1 0x1E DUP4 PUSH2 0x12EB JUMP JUMPDEST SWAP2 POP PUSH2 0x133D DUP3 PUSH2 0x12FC JUMP JUMPDEST PUSH1 0x20 DUP3 ADD SWAP1 POP SWAP2 SWAP1 POP JUMP JUMPDEST PUSH1 0x0 PUSH1 0x20 DUP3 ADD SWAP1 POP DUP2 DUP2 SUB PUSH1 0x0 DUP4 ADD MSTORE PUSH2 0x1361 DUP2 PUSH2 0x1325 JUMP JUMPDEST SWAP1 POP SWAP2 SWAP1 POP JUMP JUMPDEST PUSH32 0x496E76616C696420706861736500000000000000000000000000000000000000 PUSH1 0x0 DUP3 ADD MSTORE POP JUMP JUMPDEST PUSH1 0x0 PUSH2 0x139E PUSH1 0xD DUP4 PUSH2 0x12EB JUMP JUMPDEST SWAP2 POP PUSH2 0x13A9 DUP3 PUSH2 0x1368 JUMP JUMPDEST PUSH1 0x20 DUP3 ADD SWAP1 POP SWAP2 SWAP1 POP JUMP JUMPDEST PUSH1 0x0 PUSH1 0x20 DUP3 ADD SWAP1 POP DUP2 DUP2 SUB PUSH1 0x0 DUP4 ADD MSTORE PUSH2 0x13CD DUP2 PUSH2 0x1391 JUMP JUMPDEST SWAP1 POP SWAP2 SWAP1 POP JUMP JUMPDEST PUSH1 0x0 PUSH1 0x40 DUP3 ADD SWAP1 POP PUSH2 0x13E9 PUSH1 0x0 DUP4 ADD DUP6 PUSH2 0x1279 JUMP JUMPDEST PUSH2 0x13F6 PUSH1 0x20 DUP4 ADD DUP5 PUSH2 0x11C7 JUMP JUMPDEST SWAP4 SWAP3 POP POP POP JUMP JUMPDEST PUSH1 0x0 PUSH1 0x40 DUP3 ADD SWAP1 POP PUSH2 0x1412 PUSH1 0x0 DUP4 ADD DUP6 PUSH2 0x11C7 JUMP JUMPDEST PUSH2 0x141F PUSH1 0x20 DUP4 ADD DUP5 PUSH2 0x11B8 JUMP JUMPDEST SWAP4 SWAP3 POP POP POP JUMP JUMPDEST PUSH1 0x0 DUP2 MLOAD SWAP1 POP PUSH2 0x1435 DUP2 PUSH2 0x10E1 JUMP JUMPDEST SWAP3 SWAP2 POP POP JUMP JUMPDEST PUSH1 0x0 PUSH1 0x20 DUP3 DUP5 SUB SLT ISZERO PUSH2 0x1451 JUMPI PUSH2 0x1450 PUSH2 0x109C JUMP JUMPDEST JUMPDEST PUSH1 0x0 PUSH2 0x145F DUP5 DUP3 DUP6 ADD PUSH2 0x1426 JUMP JUMPDEST SWAP2 POP POP SWAP3 SWAP2 POP POP JUMP JUMPDEST PUSH32 0x4E487B7100000000000000000000000000000000000000000000000000000000 PUSH1 0x0 MSTORE PUSH1 0x11 PUSH1 0x4 MSTORE PUSH1 0x24 PUSH1 0x0 REVERT JUMPDEST PUSH1 0x0 PUSH2 0x14A2 DUP3 PUSH2 0x10A1 JUMP JUMPDEST SWAP2 POP PUSH2 0x14AD DUP4 PUSH2 0x10A1 JUMP JUMPDEST SWAP3 POP DUP3 DUP3 MUL PUSH2 0x14BB DUP2 PUSH2 0x10A1 JUMP JUMPDEST SWAP2 POP DUP3 DUP3 DIV DUP5 EQ DUP4 ISZERO OR PUSH2 0x14D2 JUMPI PUSH2 0x14D1 PUSH2 0x1468 JUMP JUMPDEST JUMPDEST POP SWAP3 SWAP2 POP POP JUMP JUMPDEST PUSH1 0x0 PUSH2 0x14E4 DUP3 PUSH2 0x10A1 JUMP JUMPDEST SWAP2 POP PUSH2 0x14EF DUP4 PUSH2 0x10A1 JUMP JUMPDEST SWAP3 POP DUP3 DUP3 ADD SWAP1 POP DUP1 DUP3 GT ISZERO PUSH2 0x1507 JUMPI PUSH2 0x1506 PUSH2 0x1468 JUMP JUMPDEST JUMPDEST SWAP3 SWAP2 POP POP JUMP JUMPDEST PUSH1 0x0 PUSH2 0x1518 DUP3 PUSH2 0x10A1 JUMP JUMPDEST SWAP2 POP PUSH2 0x1523 DUP4 PUSH2 0x10A1 JUMP JUMPDEST SWAP3 POP DUP3 DUP3 SUB SWAP1 POP DUP2 DUP2 GT ISZERO PUSH2 0x153B JUMPI PUSH2 0x153A PUSH2 0x1468 JUMP JUMPDEST JUMPDEST SWAP3 SWAP2 POP POP JUMP JUMPDEST PUSH32 0x4E6F2062696420746F2063616E63656C00000000000000000000000000000000 PUSH1 0x0 DUP3 ADD MSTORE POP JUMP JUMPDEST PUSH1 0x0 PUSH2 0x1577 PUSH1 0x10 DUP4 PUSH2 0x12EB JUMP JUMPDEST SWAP2 POP PUSH2 0x1582 DUP3 PUSH2 0x1541 JUMP JUMPDEST PUSH1 0x20 DUP3 ADD SWAP1 POP SWAP2 SWAP1 POP JUMP JUMPDEST PUSH1 0x0 PUSH1 0x20 DUP3 ADD SWAP1 POP DUP2 DUP2 SUB PUSH1 0x0 DUP4 ADD MSTORE PUSH2 0x15A6 DUP2 PUSH2 0x156A JUMP JUMPDEST SWAP1 POP SWAP2 SWAP1 POP JUMP JUMPDEST PUSH32 0x41756374696F6E20616C726561647920656E6465640000000000000000000000 PUSH1 0x0 DUP3 ADD MSTORE POP JUMP JUMPDEST PUSH1 0x0 PUSH2 0x15E3 PUSH1 0x15 DUP4 PUSH2 0x12EB JUMP JUMPDEST SWAP2 POP PUSH2 0x15EE DUP3 PUSH2 0x15AD JUMP JUMPDEST PUSH1 0x20 DUP3 ADD SWAP1 POP SWAP2 SWAP1 POP JUMP JUMPDEST PUSH1 0x0 PUSH1 0x20 DUP3 ADD SWAP1 POP DUP2 DUP2 SUB PUSH1 0x0 DUP4 ADD MSTORE PUSH2 0x1612 DUP2 PUSH2 0x15D6 JUMP JUMPDEST SWAP1 POP SWAP2 SWAP1 POP JUMP INVALID LOG2 PUSH5 0x6970667358 0x22 SLT KECCAK256 DUP3 SELFBALANCE 0xCA REVERT 0xF7 BASEFEE MLOAD LT 0xC4 PUSH19 0x9D7A096B8F6007A63747551A4C7469F33C73B7 SUB MOD 0xEA PUSH5 0x736F6C6343 STOP ADDMOD SLT STOP CALLER PUSH1 0x80 PUSH1 0x40 MSTORE CALLVALUE DUP1 ISZERO PUSH2 0x10 JUMPI PUSH1 0x0 DUP1 REVERT JUMPDEST POP PUSH2 0x212 DUP1 PUSH2 0x20 PUSH1 0x0 CODECOPY PUSH1 0x0 RETURN INVALID PUSH1 0x80 PUSH1 0x40 MSTORE CALLVALUE DUP1 ISZERO PUSH2 0x10 JUMPI PUSH1 0x0 DUP1 REVERT JUMPDEST POP PUSH1 0x4 CALLDATASIZE LT PUSH2 0x2B JUMPI PUSH1 0x0 CALLDATALOAD PUSH1 0xE0 SHR DUP1 PUSH4 0xB3EC48DD EQ PUSH2 0x30 JUMPI JUMPDEST PUSH1 0x0 DUP1 REVERT JUMPDEST PUSH2 0x4A PUSH1 0x4 DUP1 CALLDATASIZE SUB DUP2 ADD SWAP1 PUSH2 0x45 SWAP2 SWAP1 PUSH2 0x104 JUMP JUMPDEST PUSH2 0x60 JUMP JUMPDEST PUSH1 0x40 MLOAD PUSH2 0x57 SWAP2 SWAP1 PUSH2 0x153 JUMP JUMPDEST PUSH1 0x40 MLOAD DUP1 SWAP2 SUB SWAP1 RETURN JUMPDEST PUSH1 0x0 DUP3 DUP3 PUSH1 0x40 MLOAD PUSH1 0x20 ADD PUSH2 0x75 SWAP3 SWAP2 SWAP1 PUSH2 0x1B0 JUMP JUMPDEST PUSH1 0x40 MLOAD PUSH1 0x20 DUP2 DUP4 SUB SUB DUP2 MSTORE SWAP1 PUSH1 0x40 MSTORE DUP1 MLOAD SWAP1 PUSH1 0x20 ADD KECCAK256 SWAP1 POP SWAP3 SWAP2 POP POP JUMP JUMPDEST PUSH1 0x0 DUP1 REVERT JUMPDEST PUSH1 0x0 DUP2 SWAP1 POP SWAP2 SWAP1 POP JUMP JUMPDEST PUSH2 0xAB DUP2 PUSH2 0x98 JUMP JUMPDEST DUP2 EQ PUSH2 0xB6 JUMPI PUSH1 0x0 DUP1 REVERT JUMPDEST POP JUMP JUMPDEST PUSH1 0x0 DUP2 CALLDATALOAD SWAP1 POP PUSH2 0xC8 DUP2 PUSH2 0xA2 JUMP JUMPDEST SWAP3 SWAP2 POP POP JUMP JUMPDEST PUSH1 0x0 DUP2 SWAP1 POP SWAP2 SWAP1 POP JUMP JUMPDEST PUSH2 0xE1 DUP2 PUSH2 0xCE JUMP JUMPDEST DUP2 EQ PUSH2 0xEC JUMPI PUSH1 0x0 DUP1 REVERT JUMPDEST POP JUMP JUMPDEST PUSH1 0x0 DUP2 CALLDATALOAD SWAP1 POP PUSH2 0xFE DUP2 PUSH2 0xD8 JUMP JUMPDEST SWAP3 SWAP2 POP POP JUMP JUMPDEST PUSH1 0x0 DUP1 PUSH1 0x40 DUP4 DUP6 SUB SLT ISZERO PUSH2 0x11B JUMPI PUSH2 0x11A PUSH2 0x93 JUMP JUMPDEST JUMPDEST PUSH1 0x0 PUSH2 0x129 DUP6 DUP3 DUP7 ADD PUSH2 0xB9 JUMP JUMPDEST SWAP3 POP POP PUSH1 0x20 PUSH2 0x13A DUP6 DUP3 DUP7 ADD PUSH2 0xEF JUMP JUMPDEST SWAP2 POP POP SWAP3 POP SWAP3 SWAP1 POP JUMP JUMPDEST PUSH2 0x14D DUP2 PUSH2 0xCE JUMP JUMPDEST DUP3 MSTORE POP POP JUMP JUMPDEST PUSH1 0x0 PUSH1 0x20 DUP3 ADD SWAP1 POP PUSH2 0x168 PUSH1 0x0 DUP4 ADD DUP5 PUSH2 0x144 JUMP JUMPDEST SWAP3 SWAP2 POP POP JUMP JUMPDEST PUSH1 0x0 DUP2 SWAP1 POP SWAP2 SWAP1 POP JUMP JUMPDEST PUSH2 0x189 PUSH2 0x184 DUP3 PUSH2 0x98 JUMP JUMPDEST PUSH2 0x16E JUMP JUMPDEST DUP3 MSTORE POP POP JUMP JUMPDEST PUSH1 0x0 DUP2 SWAP1 POP SWAP2 SWAP1 POP JUMP JUMPDEST PUSH2 0x1AA PUSH2 0x1A5 DUP3 PUSH2 0xCE JUMP JUMPDEST PUSH2 0x18F JUMP JUMPDEST DUP3 MSTORE POP POP JUMP JUMPDEST PUSH1 0x0 PUSH2 0x1BC DUP3 DUP6 PUSH2 0x178 JUMP JUMPDEST PUSH1 0x20 DUP3 ADD SWAP2 POP PUSH2 0x1CC DUP3 DUP5 PUSH2 0x199 JUMP JUMPDEST PUSH1 0x20 DUP3 ADD SWAP2 POP DUP2 SWAP1 POP SWAP4 SWAP3 POP POP POP JUMP INVALID LOG2 PUSH5 0x6970667358 0x22 SLT KECCAK256 GASPRICE 0xC5 0x4C ADD 0xED PUSH21 0x774D34638DD033E94A74398851C5B465B695B84C15 0xB1 0xAE LT DUP1 PUSH15 0x64736F6C6343000812003300000000 "
				},
				"gasEstimates": {
					"creation": {
						"codeDepositCost": "1142200",
						"executionCost": "infinite",
						"totalCost": "infinite"
					},
					"external": {
						"advancePhase()": "41598",
						"auctionEnd()": "infinite",
						"beneficiary()": "2559",
						"bid(bytes32)": "47091",
						"bids(address)": "5151",
						"cancelBid()": "40674",
						"checkRefund()": "2548",
						"currentPhase()": "2611",
						"highestBid()": "2517",
						"highestBidder()": "2559",
						"khashContract()": "infinite",
						"reveal(uint256,bytes32)": "infinite",
						"withdraw()": "infinite"
					}
				},
				"methodIdentifiers": {
					"advancePhase()": "be25a718",
					"auctionEnd()": "2a24f46c",
					"beneficiary()": "38af3eed",
					"bid(bytes32)": "957bb1e0",
					"bids(address)": "62ea82db",
					"cancelBid()": "9435c887",
					"checkRefund()": "94c246d5",
					"currentPhase()": "055ad42e",
					"highestBid()": "d57bde79",
					"highestBidder()": "91f90157",
					"khashContract()": "63142015",
					"reveal(uint256,bytes32)": "4036778f",
					"withdraw()": "3ccfd60b"
				}
			},
			"storageLayout": {
				"storage": [
					{
						"astId": 23,
						"contract": "Projects/BlindAuction-Dapp/blindauction-contract/contracts/BlindAuction.sol:BlindAuction",
						"label": "khashContract",
						"offset": 0,
						"slot": "0",
						"type": "t_contract(Khash)20"
					},
					{
						"astId": 35,
						"contract": "Projects/BlindAuction-Dapp/blindauction-contract/contracts/BlindAuction.sol:BlindAuction",
						"label": "beneficiary",
						"offset": 0,
						"slot": "1",
						"type": "t_address_payable"
					},
					{
						"astId": 40,
						"contract": "Projects/BlindAuction-Dapp/blindauction-contract/contracts/BlindAuction.sol:BlindAuction",
						"label": "currentPhase",
						"offset": 20,
						"slot": "1",
						"type": "t_enum(Phase)33"
					},
					{
						"astId": 45,
						"contract": "Projects/BlindAuction-Dapp/blindauction-contract/contracts/BlindAuction.sol:BlindAuction",
						"label": "bids",
						"offset": 0,
						"slot": "2",
						"type": "t_mapping(t_address,t_struct(Bid)28_storage)"
					},
					{
						"astId": 49,
						"contract": "Projects/BlindAuction-Dapp/blindauction-contract/contracts/BlindAuction.sol:BlindAuction",
						"label": "pendingReturns",
						"offset": 0,
						"slot": "3",
						"type": "t_mapping(t_address,t_uint256)"
					},
					{
						"astId": 51,
						"contract": "Projects/BlindAuction-Dapp/blindauction-contract/contracts/BlindAuction.sol:BlindAuction",
						"label": "highestBidder",
						"offset": 0,
						"slot": "4",
						"type": "t_address"
					},
					{
						"astId": 53,
						"contract": "Projects/BlindAuction-Dapp/blindauction-contract/contracts/BlindAuction.sol:BlindAuction",
						"label": "highestBid",
						"offset": 0,
						"slot": "5",
						"type": "t_uint256"
					}
				],
				"types": {
					"t_address": {
						"encoding": "inplace",
						"label": "address",
						"numberOfBytes": "20"
					},
					"t_address_payable": {
						"encoding": "inplace",
						"label": "address payable",
						"numberOfBytes": "20"
					},
					"t_bytes32": {
						"encoding": "inplace",
						"label": "bytes32",
						"numberOfBytes": "32"
					},
					"t_contract(Khash)20": {
						"encoding": "inplace",
						"label": "contract Khash",
						"numberOfBytes": "20"
					},
					"t_enum(Phase)33": {
						"encoding": "inplace",
						"label": "enum BlindAuction.Phase",
						"numberOfBytes": "1"
					},
					"t_mapping(t_address,t_struct(Bid)28_storage)": {
						"encoding": "mapping",
						"key": "t_address",
						"label": "mapping(address => struct BlindAuction.Bid)",
						"numberOfBytes": "32",
						"value": "t_struct(Bid)28_storage"
					},
					"t_mapping(t_address,t_uint256)": {
						"encoding": "mapping",
						"key": "t_address",
						"label": "mapping(address => uint256)",
						"numberOfBytes": "32",
						"value": "t_uint256"
					},
					"t_struct(Bid)28_storage": {
						"encoding": "inplace",
						"label": "struct BlindAuction.Bid",
						"members": [
							{
								"astId": 25,
								"contract": "Projects/BlindAuction-Dapp/blindauction-contract/contracts/BlindAuction.sol:BlindAuction",
								"label": "blindedBid",
								"offset": 0,
								"slot": "0",
								"type": "t_bytes32"
							},
							{
								"astId": 27,
								"contract": "Projects/BlindAuction-Dapp/blindauction-contract/contracts/BlindAuction.sol:BlindAuction",
								"label": "deposit",
								"offset": 0,
								"slot": "1",
								"type": "t_uint256"
							}
						],
						"numberOfBytes": "64"
					},
					"t_uint256": {
						"encoding": "inplace",
						"label": "uint256",
						"numberOfBytes": "32"
					}
				}
			},
			"userdoc": {
				"kind": "user",
				"methods": {},
				"version": 1
			}
		}
	}
}