{
	"Projects/BlindAuction-Dapp/blindauction-contract/contracts/BlindAuction.sol": {
		"BlindAuction": {
			"abi": [
				{
					"inputs": [],
					"stateMutability": "nonpayable",
					"type": "constructor"
				},
				{
					"anonymous": false,
					"inputs": [
						{
							"indexed": false,
							"internalType": "address",
							"name": "winner",
							"type": "address"
						},
						{
							"indexed": false,
							"internalType": "uint256",
							"name": "highestBid",
							"type": "uint256"
						}
					],
					"name": "AuctionEnded",
					"type": "event"
				},
				{
					"anonymous": false,
					"inputs": [],
					"name": "AuctionInit",
					"type": "event"
				},
				{
					"anonymous": false,
					"inputs": [],
					"name": "BiddingStarted",
					"type": "event"
				},
				{
					"anonymous": false,
					"inputs": [],
					"name": "RevealStarted",
					"type": "event"
				},
				{
					"inputs": [],
					"name": "advancePhase",
					"outputs": [],
					"stateMutability": "nonpayable",
					"type": "function"
				},
				{
					"inputs": [],
					"name": "auctionEnd",
					"outputs": [],
					"stateMutability": "nonpayable",
					"type": "function"
				},
				{
					"inputs": [],
					"name": "beneficiary",
					"outputs": [
						{
							"internalType": "address payable",
							"name": "",
							"type": "address"
						}
					],
					"stateMutability": "view",
					"type": "function"
				},
				{
					"inputs": [
						{
							"internalType": "bytes32",
							"name": "_blindedBid",
							"type": "bytes32"
						}
					],
					"name": "bid",
					"outputs": [],
					"stateMutability": "payable",
					"type": "function"
				},
				{
					"inputs": [
						{
							"internalType": "address",
							"name": "",
							"type": "address"
						}
					],
					"name": "bids",
					"outputs": [
						{
							"internalType": "bytes32",
							"name": "blindedBid",
							"type": "bytes32"
						},
						{
							"internalType": "uint256",
							"name": "deposit",
							"type": "uint256"
						}
					],
					"stateMutability": "view",
					"type": "function"
				},
				{
					"inputs": [],
					"name": "currentPhase",
					"outputs": [
						{
							"internalType": "enum BlindAuction.Phase",
							"name": "",
							"type": "uint8"
						}
					],
					"stateMutability": "view",
					"type": "function"
				},
				{
					"inputs": [],
					"name": "highestBid",
					"outputs": [
						{
							"internalType": "uint256",
							"name": "",
							"type": "uint256"
						}
					],
					"stateMutability": "view",
					"type": "function"
				},
				{
					"inputs": [],
					"name": "highestBidder",
					"outputs": [
						{
							"internalType": "address",
							"name": "",
							"type": "address"
						}
					],
					"stateMutability": "view",
					"type": "function"
				},
				{
					"inputs": [
						{
							"internalType": "uint256",
							"name": "_value",
							"type": "uint256"
						},
						{
							"internalType": "bytes32",
							"name": "_password",
							"type": "bytes32"
						}
					],
					"name": "reveal",
					"outputs": [],
					"stateMutability": "nonpayable",
					"type": "function"
				},
				{
					"inputs": [],
					"name": "withdraw",
					"outputs": [],
					"stateMutability": "nonpayable",
					"type": "function"
				}
			],
			"devdoc": {
				"kind": "dev",
				"methods": {},
				"version": 1
			},
			"evm": {
				"assembly": "    /* \"Projects/BlindAuction-Dapp/blindauction-contract/contracts/BlindAuction.sol\":72:2954  contract BlindAuction {... */\n  mstore(0x40, 0x80)\n    /* \"Projects/BlindAuction-Dapp/blindauction-contract/contracts/BlindAuction.sol\":501:511  Phase.Init */\n  0x00\n    /* \"Projects/BlindAuction-Dapp/blindauction-contract/contracts/BlindAuction.sol\":473:511  Phase public currentPhase = Phase.Init */\n  0x05\n  exp(0x0100, 0x00)\n  dup2\n  sload\n  dup2\n  0xff\n  mul\n  not\n  and\n  swap1\n  dup4\n  0x03\n  dup2\n  gt\n  iszero\n  tag_1\n  jumpi\n  tag_2\n  tag_3\n  jump\t// in\ntag_2:\ntag_1:\n  mul\n  or\n  swap1\n  sstore\n  pop\n    /* \"Projects/BlindAuction-Dapp/blindauction-contract/contracts/BlindAuction.sol\":940:1006  constructor() {... */\n  callvalue\n  dup1\n  iszero\n  tag_4\n  jumpi\n  0x00\n  dup1\n  revert\ntag_4:\n  pop\n    /* \"Projects/BlindAuction-Dapp/blindauction-contract/contracts/BlindAuction.sol\":987:997  msg.sender */\n  caller\n    /* \"Projects/BlindAuction-Dapp/blindauction-contract/contracts/BlindAuction.sol\":965:976  beneficiary */\n  0x00\n  dup1\n    /* \"Projects/BlindAuction-Dapp/blindauction-contract/contracts/BlindAuction.sol\":965:998  beneficiary = payable(msg.sender) */\n  0x0100\n  exp\n  dup2\n  sload\n  dup2\n  0xffffffffffffffffffffffffffffffffffffffff\n  mul\n  not\n  and\n  swap1\n  dup4\n  0xffffffffffffffffffffffffffffffffffffffff\n  and\n  mul\n  or\n  swap1\n  sstore\n  pop\n    /* \"Projects/BlindAuction-Dapp/blindauction-contract/contracts/BlindAuction.sol\":72:2954  contract BlindAuction {... */\n  jump(tag_7)\n    /* \"#utility.yul\":7:187   */\ntag_3:\n    /* \"#utility.yul\":55:132   */\n  0x4e487b7100000000000000000000000000000000000000000000000000000000\n    /* \"#utility.yul\":52:53   */\n  0x00\n    /* \"#utility.yul\":45:133   */\n  mstore\n    /* \"#utility.yul\":152:156   */\n  0x21\n    /* \"#utility.yul\":149:150   */\n  0x04\n    /* \"#utility.yul\":142:157   */\n  mstore\n    /* \"#utility.yul\":176:180   */\n  0x24\n    /* \"#utility.yul\":173:174   */\n  0x00\n    /* \"#utility.yul\":166:181   */\n  revert\n    /* \"Projects/BlindAuction-Dapp/blindauction-contract/contracts/BlindAuction.sol\":72:2954  contract BlindAuction {... */\ntag_7:\n  dataSize(sub_0)\n  dup1\n  dataOffset(sub_0)\n  0x00\n  codecopy\n  0x00\n  return\nstop\n\nsub_0: assembly {\n        /* \"Projects/BlindAuction-Dapp/blindauction-contract/contracts/BlindAuction.sol\":72:2954  contract BlindAuction {... */\n      mstore(0x40, 0x80)\n      jumpi(tag_1, lt(calldatasize, 0x04))\n      shr(0xe0, calldataload(0x00))\n      dup1\n      0x62ea82db\n      gt\n      tag_12\n      jumpi\n      dup1\n      0x62ea82db\n      eq\n      tag_7\n      jumpi\n      dup1\n      0x91f90157\n      eq\n      tag_8\n      jumpi\n      dup1\n      0x957bb1e0\n      eq\n      tag_9\n      jumpi\n      dup1\n      0xbe25a718\n      eq\n      tag_10\n      jumpi\n      dup1\n      0xd57bde79\n      eq\n      tag_11\n      jumpi\n      jump(tag_1)\n    tag_12:\n      dup1\n      0x055ad42e\n      eq\n      tag_2\n      jumpi\n      dup1\n      0x2a24f46c\n      eq\n      tag_3\n      jumpi\n      dup1\n      0x38af3eed\n      eq\n      tag_4\n      jumpi\n      dup1\n      0x3ccfd60b\n      eq\n      tag_5\n      jumpi\n      dup1\n      0x4036778f\n      eq\n      tag_6\n      jumpi\n    tag_1:\n      0x00\n      dup1\n      revert\n        /* \"Projects/BlindAuction-Dapp/blindauction-contract/contracts/BlindAuction.sol\":473:511  Phase public currentPhase = Phase.Init */\n    tag_2:\n      callvalue\n      dup1\n      iszero\n      tag_13\n      jumpi\n      0x00\n      dup1\n      revert\n    tag_13:\n      pop\n      tag_14\n      tag_15\n      jump\t// in\n    tag_14:\n      mload(0x40)\n      tag_16\n      swap2\n      swap1\n      tag_17\n      jump\t// in\n    tag_16:\n      mload(0x40)\n      dup1\n      swap2\n      sub\n      swap1\n      return\n        /* \"Projects/BlindAuction-Dapp/blindauction-contract/contracts/BlindAuction.sol\":2803:2951  function auctionEnd() ... */\n    tag_3:\n      callvalue\n      dup1\n      iszero\n      tag_18\n      jumpi\n      0x00\n      dup1\n      revert\n    tag_18:\n      pop\n      tag_19\n      tag_20\n      jump\t// in\n    tag_19:\n      stop\n        /* \"Projects/BlindAuction-Dapp/blindauction-contract/contracts/BlindAuction.sol\":276:310  address payable public beneficiary */\n    tag_4:\n      callvalue\n      dup1\n      iszero\n      tag_21\n      jumpi\n      0x00\n      dup1\n      revert\n    tag_21:\n      pop\n      tag_22\n      tag_23\n      jump\t// in\n    tag_22:\n      mload(0x40)\n      tag_24\n      swap2\n      swap1\n      tag_25\n      jump\t// in\n    tag_24:\n      mload(0x40)\n      dup1\n      swap2\n      sub\n      swap1\n      return\n        /* \"Projects/BlindAuction-Dapp/blindauction-contract/contracts/BlindAuction.sol\":2563:2795  function withdraw() ... */\n    tag_5:\n      callvalue\n      dup1\n      iszero\n      tag_26\n      jumpi\n      0x00\n      dup1\n      revert\n    tag_26:\n      pop\n      tag_27\n      tag_28\n      jump\t// in\n    tag_27:\n      stop\n        /* \"Projects/BlindAuction-Dapp/blindauction-contract/contracts/BlindAuction.sol\":1878:2555  function reveal(uint _value, ... */\n    tag_6:\n      callvalue\n      dup1\n      iszero\n      tag_29\n      jumpi\n      0x00\n      dup1\n      revert\n    tag_29:\n      pop\n      tag_30\n      0x04\n      dup1\n      calldatasize\n      sub\n      dup2\n      add\n      swap1\n      tag_31\n      swap2\n      swap1\n      tag_32\n      jump\t// in\n    tag_31:\n      tag_33\n      jump\t// in\n    tag_30:\n      stop\n        /* \"Projects/BlindAuction-Dapp/blindauction-contract/contracts/BlindAuction.sol\":383:418  mapping(address => Bid) public bids */\n    tag_7:\n      callvalue\n      dup1\n      iszero\n      tag_34\n      jumpi\n      0x00\n      dup1\n      revert\n    tag_34:\n      pop\n      tag_35\n      0x04\n      dup1\n      calldatasize\n      sub\n      dup2\n      add\n      swap1\n      tag_36\n      swap2\n      swap1\n      tag_37\n      jump\t// in\n    tag_36:\n      tag_38\n      jump\t// in\n    tag_35:\n      mload(0x40)\n      tag_39\n      swap3\n      swap2\n      swap1\n      tag_40\n      jump\t// in\n    tag_39:\n      mload(0x40)\n      dup1\n      swap2\n      sub\n      swap1\n      return\n        /* \"Projects/BlindAuction-Dapp/blindauction-contract/contracts/BlindAuction.sol\":317:345  address public highestBidder */\n    tag_8:\n      callvalue\n      dup1\n      iszero\n      tag_41\n      jumpi\n      0x00\n      dup1\n      revert\n    tag_41:\n      pop\n      tag_42\n      tag_43\n      jump\t// in\n    tag_42:\n      mload(0x40)\n      tag_44\n      swap2\n      swap1\n      tag_45\n      jump\t// in\n    tag_44:\n      mload(0x40)\n      dup1\n      swap2\n      sub\n      swap1\n      return\n        /* \"Projects/BlindAuction-Dapp/blindauction-contract/contracts/BlindAuction.sol\":1613:1870  function bid(bytes32 _blindedBid) ... */\n    tag_9:\n      tag_46\n      0x04\n      dup1\n      calldatasize\n      sub\n      dup2\n      add\n      swap1\n      tag_47\n      swap2\n      swap1\n      tag_48\n      jump\t// in\n    tag_47:\n      tag_49\n      jump\t// in\n    tag_46:\n      stop\n        /* \"Projects/BlindAuction-Dapp/blindauction-contract/contracts/BlindAuction.sol\":1014:1605  function advancePhase() ... */\n    tag_10:\n      callvalue\n      dup1\n      iszero\n      tag_50\n      jumpi\n      0x00\n      dup1\n      revert\n    tag_50:\n      pop\n      tag_51\n      tag_52\n      jump\t// in\n    tag_51:\n      stop\n        /* \"Projects/BlindAuction-Dapp/blindauction-contract/contracts/BlindAuction.sol\":352:374  uint public highestBid */\n    tag_11:\n      callvalue\n      dup1\n      iszero\n      tag_53\n      jumpi\n      0x00\n      dup1\n      revert\n    tag_53:\n      pop\n      tag_54\n      tag_55\n      jump\t// in\n    tag_54:\n      mload(0x40)\n      tag_56\n      swap2\n      swap1\n      tag_57\n      jump\t// in\n    tag_56:\n      mload(0x40)\n      dup1\n      swap2\n      sub\n      swap1\n      return\n        /* \"Projects/BlindAuction-Dapp/blindauction-contract/contracts/BlindAuction.sol\":473:511  Phase public currentPhase = Phase.Init */\n    tag_15:\n      0x05\n      0x00\n      swap1\n      sload\n      swap1\n      0x0100\n      exp\n      swap1\n      div\n      0xff\n      and\n      dup2\n      jump\t// out\n        /* \"Projects/BlindAuction-Dapp/blindauction-contract/contracts/BlindAuction.sol\":2803:2951  function auctionEnd() ... */\n    tag_20:\n        /* \"Projects/BlindAuction-Dapp/blindauction-contract/contracts/BlindAuction.sol\":748:759  beneficiary */\n      0x00\n      dup1\n      sload\n      swap1\n      0x0100\n      exp\n      swap1\n      div\n      0xffffffffffffffffffffffffffffffffffffffff\n      and\n        /* \"Projects/BlindAuction-Dapp/blindauction-contract/contracts/BlindAuction.sol\":734:759  msg.sender == beneficiary */\n      0xffffffffffffffffffffffffffffffffffffffff\n      and\n        /* \"Projects/BlindAuction-Dapp/blindauction-contract/contracts/BlindAuction.sol\":734:744  msg.sender */\n      caller\n        /* \"Projects/BlindAuction-Dapp/blindauction-contract/contracts/BlindAuction.sol\":734:759  msg.sender == beneficiary */\n      0xffffffffffffffffffffffffffffffffffffffff\n      and\n      eq\n        /* \"Projects/BlindAuction-Dapp/blindauction-contract/contracts/BlindAuction.sol\":726:794  require(msg.sender == beneficiary, \"Only beneficiary can call this\") */\n      tag_59\n      jumpi\n      mload(0x40)\n      0x08c379a000000000000000000000000000000000000000000000000000000000\n      dup2\n      mstore\n      0x04\n      add\n      tag_60\n      swap1\n      tag_61\n      jump\t// in\n    tag_60:\n      mload(0x40)\n      dup1\n      swap2\n      sub\n      swap1\n      revert\n    tag_59:\n        /* \"Projects/BlindAuction-Dapp/blindauction-contract/contracts/BlindAuction.sol\":2888:2898  Phase.Done */\n      0x03\n        /* \"Projects/BlindAuction-Dapp/blindauction-contract/contracts/BlindAuction.sol\":888:894  _phase */\n      dup1\n        /* \"Projects/BlindAuction-Dapp/blindauction-contract/contracts/BlindAuction.sol\":872:894  currentPhase == _phase */\n      0x03\n      dup2\n      gt\n      iszero\n      tag_63\n      jumpi\n      tag_64\n      tag_65\n      jump\t// in\n    tag_64:\n    tag_63:\n        /* \"Projects/BlindAuction-Dapp/blindauction-contract/contracts/BlindAuction.sol\":872:884  currentPhase */\n      0x05\n      0x00\n      swap1\n      sload\n      swap1\n      0x0100\n      exp\n      swap1\n      div\n      0xff\n      and\n        /* \"Projects/BlindAuction-Dapp/blindauction-contract/contracts/BlindAuction.sol\":872:894  currentPhase == _phase */\n      0x03\n      dup2\n      gt\n      iszero\n      tag_66\n      jumpi\n      tag_67\n      tag_65\n      jump\t// in\n    tag_67:\n    tag_66:\n      eq\n        /* \"Projects/BlindAuction-Dapp/blindauction-contract/contracts/BlindAuction.sol\":864:912  require(currentPhase == _phase, \"Invalid phase\") */\n      tag_68\n      jumpi\n      mload(0x40)\n      0x08c379a000000000000000000000000000000000000000000000000000000000\n      dup2\n      mstore\n      0x04\n      add\n      tag_69\n      swap1\n      tag_70\n      jump\t// in\n    tag_69:\n      mload(0x40)\n      dup1\n      swap2\n      sub\n      swap1\n      revert\n    tag_68:\n        /* \"Projects/BlindAuction-Dapp/blindauction-contract/contracts/BlindAuction.sol\":2911:2922  beneficiary */\n      0x00\n      dup1\n      sload\n      swap1\n      0x0100\n      exp\n      swap1\n      div\n      0xffffffffffffffffffffffffffffffffffffffff\n      and\n        /* \"Projects/BlindAuction-Dapp/blindauction-contract/contracts/BlindAuction.sol\":2911:2931  beneficiary.transfer */\n      0xffffffffffffffffffffffffffffffffffffffff\n      and\n        /* \"Projects/BlindAuction-Dapp/blindauction-contract/contracts/BlindAuction.sol\":2911:2943  beneficiary.transfer(highestBid) */\n      0x08fc\n        /* \"Projects/BlindAuction-Dapp/blindauction-contract/contracts/BlindAuction.sol\":2932:2942  highestBid */\n      sload(0x02)\n        /* \"Projects/BlindAuction-Dapp/blindauction-contract/contracts/BlindAuction.sol\":2911:2943  beneficiary.transfer(highestBid) */\n      swap1\n      dup2\n      iszero\n      mul\n      swap1\n      mload(0x40)\n      0x00\n      mload(0x40)\n      dup1\n      dup4\n      sub\n      dup2\n      dup6\n      dup9\n      dup9\n      call\n      swap4\n      pop\n      pop\n      pop\n      pop\n      iszero\n      dup1\n      iszero\n      tag_73\n      jumpi\n      returndatasize\n      0x00\n      dup1\n      returndatacopy\n      revert(0x00, returndatasize)\n    tag_73:\n      pop\n        /* \"Projects/BlindAuction-Dapp/blindauction-contract/contracts/BlindAuction.sol\":805:806  _ */\n      pop\n        /* \"Projects/BlindAuction-Dapp/blindauction-contract/contracts/BlindAuction.sol\":2803:2951  function auctionEnd() ... */\n      jump\t// out\n        /* \"Projects/BlindAuction-Dapp/blindauction-contract/contracts/BlindAuction.sol\":276:310  address payable public beneficiary */\n    tag_23:\n      0x00\n      dup1\n      sload\n      swap1\n      0x0100\n      exp\n      swap1\n      div\n      0xffffffffffffffffffffffffffffffffffffffff\n      and\n      dup2\n      jump\t// out\n        /* \"Projects/BlindAuction-Dapp/blindauction-contract/contracts/BlindAuction.sol\":2563:2795  function withdraw() ... */\n    tag_28:\n        /* \"Projects/BlindAuction-Dapp/blindauction-contract/contracts/BlindAuction.sol\":2611:2622  uint amount */\n      0x00\n        /* \"Projects/BlindAuction-Dapp/blindauction-contract/contracts/BlindAuction.sol\":2625:2639  pendingReturns */\n      0x04\n        /* \"Projects/BlindAuction-Dapp/blindauction-contract/contracts/BlindAuction.sol\":2625:2651  pendingReturns[msg.sender] */\n      0x00\n        /* \"Projects/BlindAuction-Dapp/blindauction-contract/contracts/BlindAuction.sol\":2640:2650  msg.sender */\n      caller\n        /* \"Projects/BlindAuction-Dapp/blindauction-contract/contracts/BlindAuction.sol\":2625:2651  pendingReturns[msg.sender] */\n      0xffffffffffffffffffffffffffffffffffffffff\n      and\n      0xffffffffffffffffffffffffffffffffffffffff\n      and\n      dup2\n      mstore\n      0x20\n      add\n      swap1\n      dup2\n      mstore\n      0x20\n      add\n      0x00\n      keccak256\n      sload\n        /* \"Projects/BlindAuction-Dapp/blindauction-contract/contracts/BlindAuction.sol\":2611:2651  uint amount = pendingReturns[msg.sender] */\n      swap1\n      pop\n        /* \"Projects/BlindAuction-Dapp/blindauction-contract/contracts/BlindAuction.sol\":2675:2676  0 */\n      0x00\n        /* \"Projects/BlindAuction-Dapp/blindauction-contract/contracts/BlindAuction.sol\":2666:2672  amount */\n      dup2\n        /* \"Projects/BlindAuction-Dapp/blindauction-contract/contracts/BlindAuction.sol\":2666:2676  amount > 0 */\n      gt\n        /* \"Projects/BlindAuction-Dapp/blindauction-contract/contracts/BlindAuction.sol\":2662:2788  if (amount > 0) {... */\n      iszero\n      tag_75\n      jumpi\n        /* \"Projects/BlindAuction-Dapp/blindauction-contract/contracts/BlindAuction.sol\":2722:2723  0 */\n      0x00\n        /* \"Projects/BlindAuction-Dapp/blindauction-contract/contracts/BlindAuction.sol\":2693:2707  pendingReturns */\n      0x04\n        /* \"Projects/BlindAuction-Dapp/blindauction-contract/contracts/BlindAuction.sol\":2693:2719  pendingReturns[msg.sender] */\n      0x00\n        /* \"Projects/BlindAuction-Dapp/blindauction-contract/contracts/BlindAuction.sol\":2708:2718  msg.sender */\n      caller\n        /* \"Projects/BlindAuction-Dapp/blindauction-contract/contracts/BlindAuction.sol\":2693:2719  pendingReturns[msg.sender] */\n      0xffffffffffffffffffffffffffffffffffffffff\n      and\n      0xffffffffffffffffffffffffffffffffffffffff\n      and\n      dup2\n      mstore\n      0x20\n      add\n      swap1\n      dup2\n      mstore\n      0x20\n      add\n      0x00\n      keccak256\n        /* \"Projects/BlindAuction-Dapp/blindauction-contract/contracts/BlindAuction.sol\":2693:2723  pendingReturns[msg.sender] = 0 */\n      dup2\n      swap1\n      sstore\n      pop\n        /* \"Projects/BlindAuction-Dapp/blindauction-contract/contracts/BlindAuction.sol\":2748:2758  msg.sender */\n      caller\n        /* \"Projects/BlindAuction-Dapp/blindauction-contract/contracts/BlindAuction.sol\":2740:2768  payable(msg.sender).transfer */\n      0xffffffffffffffffffffffffffffffffffffffff\n      and\n        /* \"Projects/BlindAuction-Dapp/blindauction-contract/contracts/BlindAuction.sol\":2740:2776  payable(msg.sender).transfer(amount) */\n      0x08fc\n        /* \"Projects/BlindAuction-Dapp/blindauction-contract/contracts/BlindAuction.sol\":2769:2775  amount */\n      dup3\n        /* \"Projects/BlindAuction-Dapp/blindauction-contract/contracts/BlindAuction.sol\":2740:2776  payable(msg.sender).transfer(amount) */\n      swap1\n      dup2\n      iszero\n      mul\n      swap1\n      mload(0x40)\n      0x00\n      mload(0x40)\n      dup1\n      dup4\n      sub\n      dup2\n      dup6\n      dup9\n      dup9\n      call\n      swap4\n      pop\n      pop\n      pop\n      pop\n      iszero\n      dup1\n      iszero\n      tag_77\n      jumpi\n      returndatasize\n      0x00\n      dup1\n      returndatacopy\n      revert(0x00, returndatasize)\n    tag_77:\n      pop\n        /* \"Projects/BlindAuction-Dapp/blindauction-contract/contracts/BlindAuction.sol\":2662:2788  if (amount > 0) {... */\n    tag_75:\n        /* \"Projects/BlindAuction-Dapp/blindauction-contract/contracts/BlindAuction.sol\":2600:2795  {... */\n      pop\n        /* \"Projects/BlindAuction-Dapp/blindauction-contract/contracts/BlindAuction.sol\":2563:2795  function withdraw() ... */\n      jump\t// out\n        /* \"Projects/BlindAuction-Dapp/blindauction-contract/contracts/BlindAuction.sol\":1878:2555  function reveal(uint _value, ... */\n    tag_33:\n        /* \"Projects/BlindAuction-Dapp/blindauction-contract/contracts/BlindAuction.sol\":1983:1995  Phase.Reveal */\n      0x02\n        /* \"Projects/BlindAuction-Dapp/blindauction-contract/contracts/BlindAuction.sol\":888:894  _phase */\n      dup1\n        /* \"Projects/BlindAuction-Dapp/blindauction-contract/contracts/BlindAuction.sol\":872:894  currentPhase == _phase */\n      0x03\n      dup2\n      gt\n      iszero\n      tag_79\n      jumpi\n      tag_80\n      tag_65\n      jump\t// in\n    tag_80:\n    tag_79:\n        /* \"Projects/BlindAuction-Dapp/blindauction-contract/contracts/BlindAuction.sol\":872:884  currentPhase */\n      0x05\n      0x00\n      swap1\n      sload\n      swap1\n      0x0100\n      exp\n      swap1\n      div\n      0xff\n      and\n        /* \"Projects/BlindAuction-Dapp/blindauction-contract/contracts/BlindAuction.sol\":872:894  currentPhase == _phase */\n      0x03\n      dup2\n      gt\n      iszero\n      tag_81\n      jumpi\n      tag_82\n      tag_65\n      jump\t// in\n    tag_82:\n    tag_81:\n      eq\n        /* \"Projects/BlindAuction-Dapp/blindauction-contract/contracts/BlindAuction.sol\":864:912  require(currentPhase == _phase, \"Invalid phase\") */\n      tag_83\n      jumpi\n      mload(0x40)\n      0x08c379a000000000000000000000000000000000000000000000000000000000\n      dup2\n      mstore\n      0x04\n      add\n      tag_84\n      swap1\n      tag_70\n      jump\t// in\n    tag_84:\n      mload(0x40)\n      dup1\n      swap2\n      sub\n      swap1\n      revert\n    tag_83:\n        /* \"Projects/BlindAuction-Dapp/blindauction-contract/contracts/BlindAuction.sol\":2008:2019  uint refund */\n      0x00\n        /* \"Projects/BlindAuction-Dapp/blindauction-contract/contracts/BlindAuction.sol\":2030:2052  Bid storage bidToCheck */\n      dup1\n        /* \"Projects/BlindAuction-Dapp/blindauction-contract/contracts/BlindAuction.sol\":2055:2059  bids */\n      0x03\n        /* \"Projects/BlindAuction-Dapp/blindauction-contract/contracts/BlindAuction.sol\":2055:2071  bids[msg.sender] */\n      0x00\n        /* \"Projects/BlindAuction-Dapp/blindauction-contract/contracts/BlindAuction.sol\":2060:2070  msg.sender */\n      caller\n        /* \"Projects/BlindAuction-Dapp/blindauction-contract/contracts/BlindAuction.sol\":2055:2071  bids[msg.sender] */\n      0xffffffffffffffffffffffffffffffffffffffff\n      and\n      0xffffffffffffffffffffffffffffffffffffffff\n      and\n      dup2\n      mstore\n      0x20\n      add\n      swap1\n      dup2\n      mstore\n      0x20\n      add\n      0x00\n      keccak256\n        /* \"Projects/BlindAuction-Dapp/blindauction-contract/contracts/BlindAuction.sol\":2030:2071  Bid storage bidToCheck = bids[msg.sender] */\n      swap1\n      pop\n        /* \"Projects/BlindAuction-Dapp/blindauction-contract/contracts/BlindAuction.sol\":2140:2146  _value */\n      dup5\n        /* \"Projects/BlindAuction-Dapp/blindauction-contract/contracts/BlindAuction.sol\":2148:2157  _password */\n      dup5\n        /* \"Projects/BlindAuction-Dapp/blindauction-contract/contracts/BlindAuction.sol\":2123:2158  abi.encodePacked(_value, _password) */\n      add(0x20, mload(0x40))\n      tag_86\n      swap3\n      swap2\n      swap1\n      tag_87\n      jump\t// in\n    tag_86:\n      mload(0x40)\n      0x20\n      dup2\n      dup4\n      sub\n      sub\n      dup2\n      mstore\n      swap1\n      0x40\n      mstore\n        /* \"Projects/BlindAuction-Dapp/blindauction-contract/contracts/BlindAuction.sol\":2113:2159  keccak256(abi.encodePacked(_value, _password)) */\n      dup1\n      mload\n      swap1\n      0x20\n      add\n      keccak256\n        /* \"Projects/BlindAuction-Dapp/blindauction-contract/contracts/BlindAuction.sol\":2088:2098  bidToCheck */\n      dup2\n        /* \"Projects/BlindAuction-Dapp/blindauction-contract/contracts/BlindAuction.sol\":2088:2109  bidToCheck.blindedBid */\n      0x00\n      add\n      sload\n        /* \"Projects/BlindAuction-Dapp/blindauction-contract/contracts/BlindAuction.sol\":2088:2159  bidToCheck.blindedBid == keccak256(abi.encodePacked(_value, _password)) */\n      eq\n        /* \"Projects/BlindAuction-Dapp/blindauction-contract/contracts/BlindAuction.sol\":2088:2191  bidToCheck.blindedBid == keccak256(abi.encodePacked(_value, _password)) && bidToCheck.deposit >= _value */\n      dup1\n      iszero\n      tag_88\n      jumpi\n      pop\n        /* \"Projects/BlindAuction-Dapp/blindauction-contract/contracts/BlindAuction.sol\":2185:2191  _value */\n      dup5\n        /* \"Projects/BlindAuction-Dapp/blindauction-contract/contracts/BlindAuction.sol\":2163:2173  bidToCheck */\n      dup2\n        /* \"Projects/BlindAuction-Dapp/blindauction-contract/contracts/BlindAuction.sol\":2163:2181  bidToCheck.deposit */\n      0x01\n      add\n      sload\n        /* \"Projects/BlindAuction-Dapp/blindauction-contract/contracts/BlindAuction.sol\":2163:2191  bidToCheck.deposit >= _value */\n      lt\n      iszero\n        /* \"Projects/BlindAuction-Dapp/blindauction-contract/contracts/BlindAuction.sol\":2088:2191  bidToCheck.blindedBid == keccak256(abi.encodePacked(_value, _password)) && bidToCheck.deposit >= _value */\n    tag_88:\n        /* \"Projects/BlindAuction-Dapp/blindauction-contract/contracts/BlindAuction.sol\":2084:2454  if (bidToCheck.blindedBid == keccak256(abi.encodePacked(_value, _password)) && bidToCheck.deposit >= _value) {... */\n      iszero\n      tag_89\n      jumpi\n        /* \"Projects/BlindAuction-Dapp/blindauction-contract/contracts/BlindAuction.sol\":2221:2231  highestBid */\n      sload(0x02)\n        /* \"Projects/BlindAuction-Dapp/blindauction-contract/contracts/BlindAuction.sol\":2212:2218  _value */\n      dup6\n        /* \"Projects/BlindAuction-Dapp/blindauction-contract/contracts/BlindAuction.sol\":2212:2231  _value > highestBid */\n      gt\n        /* \"Projects/BlindAuction-Dapp/blindauction-contract/contracts/BlindAuction.sol\":2208:2332  if (_value > highestBid) {... */\n      iszero\n      tag_90\n      jumpi\n        /* \"Projects/BlindAuction-Dapp/blindauction-contract/contracts/BlindAuction.sol\":2265:2271  _value */\n      dup5\n        /* \"Projects/BlindAuction-Dapp/blindauction-contract/contracts/BlindAuction.sol\":2252:2262  highestBid */\n      0x02\n        /* \"Projects/BlindAuction-Dapp/blindauction-contract/contracts/BlindAuction.sol\":2252:2271  highestBid = _value */\n      dup2\n      swap1\n      sstore\n      pop\n        /* \"Projects/BlindAuction-Dapp/blindauction-contract/contracts/BlindAuction.sol\":2306:2316  msg.sender */\n      caller\n        /* \"Projects/BlindAuction-Dapp/blindauction-contract/contracts/BlindAuction.sol\":2290:2303  highestBidder */\n      0x01\n      0x00\n        /* \"Projects/BlindAuction-Dapp/blindauction-contract/contracts/BlindAuction.sol\":2290:2316  highestBidder = msg.sender */\n      0x0100\n      exp\n      dup2\n      sload\n      dup2\n      0xffffffffffffffffffffffffffffffffffffffff\n      mul\n      not\n      and\n      swap1\n      dup4\n      0xffffffffffffffffffffffffffffffffffffffff\n      and\n      mul\n      or\n      swap1\n      sstore\n      pop\n        /* \"Projects/BlindAuction-Dapp/blindauction-contract/contracts/BlindAuction.sol\":2208:2332  if (_value > highestBid) {... */\n    tag_90:\n        /* \"Projects/BlindAuction-Dapp/blindauction-contract/contracts/BlindAuction.sol\":2376:2382  _value */\n      dup5\n        /* \"Projects/BlindAuction-Dapp/blindauction-contract/contracts/BlindAuction.sol\":2355:2365  bidToCheck */\n      dup2\n        /* \"Projects/BlindAuction-Dapp/blindauction-contract/contracts/BlindAuction.sol\":2355:2373  bidToCheck.deposit */\n      0x01\n      add\n      sload\n        /* \"Projects/BlindAuction-Dapp/blindauction-contract/contracts/BlindAuction.sol\":2355:2382  bidToCheck.deposit - _value */\n      tag_91\n      swap2\n      swap1\n      tag_92\n      jump\t// in\n    tag_91:\n        /* \"Projects/BlindAuction-Dapp/blindauction-contract/contracts/BlindAuction.sol\":2346:2382  refund = bidToCheck.deposit - _value */\n      swap2\n      pop\n        /* \"Projects/BlindAuction-Dapp/blindauction-contract/contracts/BlindAuction.sol\":2084:2454  if (bidToCheck.blindedBid == keccak256(abi.encodePacked(_value, _password)) && bidToCheck.deposit >= _value) {... */\n      jump(tag_93)\n    tag_89:\n        /* \"Projects/BlindAuction-Dapp/blindauction-contract/contracts/BlindAuction.sol\":2424:2434  bidToCheck */\n      dup1\n        /* \"Projects/BlindAuction-Dapp/blindauction-contract/contracts/BlindAuction.sol\":2424:2442  bidToCheck.deposit */\n      0x01\n      add\n      sload\n        /* \"Projects/BlindAuction-Dapp/blindauction-contract/contracts/BlindAuction.sol\":2415:2442  refund = bidToCheck.deposit */\n      swap2\n      pop\n        /* \"Projects/BlindAuction-Dapp/blindauction-contract/contracts/BlindAuction.sol\":2084:2454  if (bidToCheck.blindedBid == keccak256(abi.encodePacked(_value, _password)) && bidToCheck.deposit >= _value) {... */\n    tag_93:\n        /* \"Projects/BlindAuction-Dapp/blindauction-contract/contracts/BlindAuction.sol\":2498:2499  0 */\n      0x00\n        /* \"Projects/BlindAuction-Dapp/blindauction-contract/contracts/BlindAuction.sol\":2490:2500  bytes32(0) */\n      dup1\n      shl\n        /* \"Projects/BlindAuction-Dapp/blindauction-contract/contracts/BlindAuction.sol\":2466:2476  bidToCheck */\n      dup2\n        /* \"Projects/BlindAuction-Dapp/blindauction-contract/contracts/BlindAuction.sol\":2466:2487  bidToCheck.blindedBid */\n      0x00\n      add\n        /* \"Projects/BlindAuction-Dapp/blindauction-contract/contracts/BlindAuction.sol\":2466:2500  bidToCheck.blindedBid = bytes32(0) */\n      dup2\n      swap1\n      sstore\n      pop\n        /* \"Projects/BlindAuction-Dapp/blindauction-contract/contracts/BlindAuction.sol\":2541:2547  refund */\n      dup2\n        /* \"Projects/BlindAuction-Dapp/blindauction-contract/contracts/BlindAuction.sol\":2511:2525  pendingReturns */\n      0x04\n        /* \"Projects/BlindAuction-Dapp/blindauction-contract/contracts/BlindAuction.sol\":2511:2537  pendingReturns[msg.sender] */\n      0x00\n        /* \"Projects/BlindAuction-Dapp/blindauction-contract/contracts/BlindAuction.sol\":2526:2536  msg.sender */\n      caller\n        /* \"Projects/BlindAuction-Dapp/blindauction-contract/contracts/BlindAuction.sol\":2511:2537  pendingReturns[msg.sender] */\n      0xffffffffffffffffffffffffffffffffffffffff\n      and\n      0xffffffffffffffffffffffffffffffffffffffff\n      and\n      dup2\n      mstore\n      0x20\n      add\n      swap1\n      dup2\n      mstore\n      0x20\n      add\n      0x00\n      keccak256\n      0x00\n        /* \"Projects/BlindAuction-Dapp/blindauction-contract/contracts/BlindAuction.sol\":2511:2547  pendingReturns[msg.sender] += refund */\n      dup3\n      dup3\n      sload\n      tag_94\n      swap2\n      swap1\n      tag_95\n      jump\t// in\n    tag_94:\n      swap3\n      pop\n      pop\n      dup2\n      swap1\n      sstore\n      pop\n        /* \"Projects/BlindAuction-Dapp/blindauction-contract/contracts/BlindAuction.sol\":1997:2555  {... */\n      pop\n      pop\n        /* \"Projects/BlindAuction-Dapp/blindauction-contract/contracts/BlindAuction.sol\":1878:2555  function reveal(uint _value, ... */\n      pop\n      pop\n      pop\n      jump\t// out\n        /* \"Projects/BlindAuction-Dapp/blindauction-contract/contracts/BlindAuction.sol\":383:418  mapping(address => Bid) public bids */\n    tag_38:\n      mstore(0x20, 0x03)\n      dup1\n      0x00\n      mstore\n      keccak256(0x00, 0x40)\n      0x00\n      swap2\n      pop\n      swap1\n      pop\n      dup1\n      0x00\n      add\n      sload\n      swap1\n      dup1\n      0x01\n      add\n      sload\n      swap1\n      pop\n      dup3\n      jump\t// out\n        /* \"Projects/BlindAuction-Dapp/blindauction-contract/contracts/BlindAuction.sol\":317:345  address public highestBidder */\n    tag_43:\n      0x01\n      0x00\n      swap1\n      sload\n      swap1\n      0x0100\n      exp\n      swap1\n      div\n      0xffffffffffffffffffffffffffffffffffffffff\n      and\n      dup2\n      jump\t// out\n        /* \"Projects/BlindAuction-Dapp/blindauction-contract/contracts/BlindAuction.sol\":1613:1870  function bid(bytes32 _blindedBid) ... */\n    tag_49:\n        /* \"Projects/BlindAuction-Dapp/blindauction-contract/contracts/BlindAuction.sol\":1700:1713  Phase.Bidding */\n      0x01\n        /* \"Projects/BlindAuction-Dapp/blindauction-contract/contracts/BlindAuction.sol\":888:894  _phase */\n      dup1\n        /* \"Projects/BlindAuction-Dapp/blindauction-contract/contracts/BlindAuction.sol\":872:894  currentPhase == _phase */\n      0x03\n      dup2\n      gt\n      iszero\n      tag_97\n      jumpi\n      tag_98\n      tag_65\n      jump\t// in\n    tag_98:\n    tag_97:\n        /* \"Projects/BlindAuction-Dapp/blindauction-contract/contracts/BlindAuction.sol\":872:884  currentPhase */\n      0x05\n      0x00\n      swap1\n      sload\n      swap1\n      0x0100\n      exp\n      swap1\n      div\n      0xff\n      and\n        /* \"Projects/BlindAuction-Dapp/blindauction-contract/contracts/BlindAuction.sol\":872:894  currentPhase == _phase */\n      0x03\n      dup2\n      gt\n      iszero\n      tag_99\n      jumpi\n      tag_100\n      tag_65\n      jump\t// in\n    tag_100:\n    tag_99:\n      eq\n        /* \"Projects/BlindAuction-Dapp/blindauction-contract/contracts/BlindAuction.sol\":864:912  require(currentPhase == _phase, \"Invalid phase\") */\n      tag_101\n      jumpi\n      mload(0x40)\n      0x08c379a000000000000000000000000000000000000000000000000000000000\n      dup2\n      mstore\n      0x04\n      add\n      tag_102\n      swap1\n      tag_70\n      jump\t// in\n    tag_102:\n      mload(0x40)\n      dup1\n      swap2\n      sub\n      swap1\n      revert\n    tag_101:\n        /* \"Projects/BlindAuction-Dapp/blindauction-contract/contracts/BlindAuction.sol\":1745:1862  Bid(... */\n      mload(0x40)\n      dup1\n      0x40\n      add\n      0x40\n      mstore\n      dup1\n        /* \"Projects/BlindAuction-Dapp/blindauction-contract/contracts/BlindAuction.sol\":1791:1802  _blindedBid */\n      dup4\n        /* \"Projects/BlindAuction-Dapp/blindauction-contract/contracts/BlindAuction.sol\":1745:1862  Bid(... */\n      dup2\n      mstore\n      0x20\n      add\n        /* \"Projects/BlindAuction-Dapp/blindauction-contract/contracts/BlindAuction.sol\":1827:1836  msg.value */\n      callvalue\n        /* \"Projects/BlindAuction-Dapp/blindauction-contract/contracts/BlindAuction.sol\":1745:1862  Bid(... */\n      dup2\n      mstore\n      pop\n        /* \"Projects/BlindAuction-Dapp/blindauction-contract/contracts/BlindAuction.sol\":1726:1730  bids */\n      0x03\n        /* \"Projects/BlindAuction-Dapp/blindauction-contract/contracts/BlindAuction.sol\":1726:1742  bids[msg.sender] */\n      0x00\n        /* \"Projects/BlindAuction-Dapp/blindauction-contract/contracts/BlindAuction.sol\":1731:1741  msg.sender */\n      caller\n        /* \"Projects/BlindAuction-Dapp/blindauction-contract/contracts/BlindAuction.sol\":1726:1742  bids[msg.sender] */\n      0xffffffffffffffffffffffffffffffffffffffff\n      and\n      0xffffffffffffffffffffffffffffffffffffffff\n      and\n      dup2\n      mstore\n      0x20\n      add\n      swap1\n      dup2\n      mstore\n      0x20\n      add\n      0x00\n      keccak256\n        /* \"Projects/BlindAuction-Dapp/blindauction-contract/contracts/BlindAuction.sol\":1726:1862  bids[msg.sender] = Bid(... */\n      0x00\n      dup3\n      add\n      mload\n      dup2\n      0x00\n      add\n      sstore\n      0x20\n      dup3\n      add\n      mload\n      dup2\n      0x01\n      add\n      sstore\n      swap1\n      pop\n      pop\n        /* \"Projects/BlindAuction-Dapp/blindauction-contract/contracts/BlindAuction.sol\":1613:1870  function bid(bytes32 _blindedBid) ... */\n      pop\n      pop\n      jump\t// out\n        /* \"Projects/BlindAuction-Dapp/blindauction-contract/contracts/BlindAuction.sol\":1014:1605  function advancePhase() ... */\n    tag_52:\n        /* \"Projects/BlindAuction-Dapp/blindauction-contract/contracts/BlindAuction.sol\":748:759  beneficiary */\n      0x00\n      dup1\n      sload\n      swap1\n      0x0100\n      exp\n      swap1\n      div\n      0xffffffffffffffffffffffffffffffffffffffff\n      and\n        /* \"Projects/BlindAuction-Dapp/blindauction-contract/contracts/BlindAuction.sol\":734:759  msg.sender == beneficiary */\n      0xffffffffffffffffffffffffffffffffffffffff\n      and\n        /* \"Projects/BlindAuction-Dapp/blindauction-contract/contracts/BlindAuction.sol\":734:744  msg.sender */\n      caller\n        /* \"Projects/BlindAuction-Dapp/blindauction-contract/contracts/BlindAuction.sol\":734:759  msg.sender == beneficiary */\n      0xffffffffffffffffffffffffffffffffffffffff\n      and\n      eq\n        /* \"Projects/BlindAuction-Dapp/blindauction-contract/contracts/BlindAuction.sol\":726:794  require(msg.sender == beneficiary, \"Only beneficiary can call this\") */\n      tag_105\n      jumpi\n      mload(0x40)\n      0x08c379a000000000000000000000000000000000000000000000000000000000\n      dup2\n      mstore\n      0x04\n      add\n      tag_106\n      swap1\n      tag_61\n      jump\t// in\n    tag_106:\n      mload(0x40)\n      dup1\n      swap2\n      sub\n      swap1\n      revert\n    tag_105:\n        /* \"Projects/BlindAuction-Dapp/blindauction-contract/contracts/BlindAuction.sol\":1114:1124  Phase.Done */\n      0x03\n        /* \"Projects/BlindAuction-Dapp/blindauction-contract/contracts/BlindAuction.sol\":1098:1124  currentPhase == Phase.Done */\n      dup1\n      dup2\n      gt\n      iszero\n      tag_108\n      jumpi\n      tag_109\n      tag_65\n      jump\t// in\n    tag_109:\n    tag_108:\n        /* \"Projects/BlindAuction-Dapp/blindauction-contract/contracts/BlindAuction.sol\":1098:1110  currentPhase */\n      0x05\n      0x00\n      swap1\n      sload\n      swap1\n      0x0100\n      exp\n      swap1\n      div\n      0xff\n      and\n        /* \"Projects/BlindAuction-Dapp/blindauction-contract/contracts/BlindAuction.sol\":1098:1124  currentPhase == Phase.Done */\n      0x03\n      dup2\n      gt\n      iszero\n      tag_110\n      jumpi\n      tag_111\n      tag_65\n      jump\t// in\n    tag_111:\n    tag_110:\n      sub\n        /* \"Projects/BlindAuction-Dapp/blindauction-contract/contracts/BlindAuction.sol\":1094:1184  if (currentPhase == Phase.Done) {... */\n      tag_112\n      jumpi\n        /* \"Projects/BlindAuction-Dapp/blindauction-contract/contracts/BlindAuction.sol\":1141:1172  revert(\"Auction already ended\") */\n      mload(0x40)\n      0x08c379a000000000000000000000000000000000000000000000000000000000\n      dup2\n      mstore\n      0x04\n      add\n      tag_113\n      swap1\n      tag_114\n      jump\t// in\n    tag_113:\n      mload(0x40)\n      dup1\n      swap2\n      sub\n      swap1\n      revert\n        /* \"Projects/BlindAuction-Dapp/blindauction-contract/contracts/BlindAuction.sol\":1094:1184  if (currentPhase == Phase.Done) {... */\n    tag_112:\n        /* \"Projects/BlindAuction-Dapp/blindauction-contract/contracts/BlindAuction.sol\":1214:1224  Phase.Init */\n      0x00\n        /* \"Projects/BlindAuction-Dapp/blindauction-contract/contracts/BlindAuction.sol\":1198:1224  currentPhase == Phase.Init */\n      0x03\n      dup2\n      gt\n      iszero\n      tag_115\n      jumpi\n      tag_116\n      tag_65\n      jump\t// in\n    tag_116:\n    tag_115:\n        /* \"Projects/BlindAuction-Dapp/blindauction-contract/contracts/BlindAuction.sol\":1198:1210  currentPhase */\n      0x05\n      0x00\n      swap1\n      sload\n      swap1\n      0x0100\n      exp\n      swap1\n      div\n      0xff\n      and\n        /* \"Projects/BlindAuction-Dapp/blindauction-contract/contracts/BlindAuction.sol\":1198:1224  currentPhase == Phase.Init */\n      0x03\n      dup2\n      gt\n      iszero\n      tag_117\n      jumpi\n      tag_118\n      tag_65\n      jump\t// in\n    tag_118:\n    tag_117:\n      sub\n        /* \"Projects/BlindAuction-Dapp/blindauction-contract/contracts/BlindAuction.sol\":1194:1598  if (currentPhase == Phase.Init) {... */\n      tag_119\n      jumpi\n        /* \"Projects/BlindAuction-Dapp/blindauction-contract/contracts/BlindAuction.sol\":1256:1269  Phase.Bidding */\n      0x01\n        /* \"Projects/BlindAuction-Dapp/blindauction-contract/contracts/BlindAuction.sol\":1241:1253  currentPhase */\n      0x05\n      0x00\n        /* \"Projects/BlindAuction-Dapp/blindauction-contract/contracts/BlindAuction.sol\":1241:1269  currentPhase = Phase.Bidding */\n      0x0100\n      exp\n      dup2\n      sload\n      dup2\n      0xff\n      mul\n      not\n      and\n      swap1\n      dup4\n      0x03\n      dup2\n      gt\n      iszero\n      tag_120\n      jumpi\n      tag_121\n      tag_65\n      jump\t// in\n    tag_121:\n    tag_120:\n      mul\n      or\n      swap1\n      sstore\n      pop\n        /* \"Projects/BlindAuction-Dapp/blindauction-contract/contracts/BlindAuction.sol\":1289:1305  BiddingStarted() */\n      0x02c124e22ee7da1c9905bbb317cf67658c1cc3ea1c0953b1633f85d0b5c281d9\n      mload(0x40)\n      mload(0x40)\n      dup1\n      swap2\n      sub\n      swap1\n      log1\n        /* \"Projects/BlindAuction-Dapp/blindauction-contract/contracts/BlindAuction.sol\":1194:1598  if (currentPhase == Phase.Init) {... */\n      jump(tag_122)\n    tag_119:\n        /* \"Projects/BlindAuction-Dapp/blindauction-contract/contracts/BlindAuction.sol\":1343:1356  Phase.Bidding */\n      0x01\n        /* \"Projects/BlindAuction-Dapp/blindauction-contract/contracts/BlindAuction.sol\":1327:1356  currentPhase == Phase.Bidding */\n      0x03\n      dup2\n      gt\n      iszero\n      tag_123\n      jumpi\n      tag_124\n      tag_65\n      jump\t// in\n    tag_124:\n    tag_123:\n        /* \"Projects/BlindAuction-Dapp/blindauction-contract/contracts/BlindAuction.sol\":1327:1339  currentPhase */\n      0x05\n      0x00\n      swap1\n      sload\n      swap1\n      0x0100\n      exp\n      swap1\n      div\n      0xff\n      and\n        /* \"Projects/BlindAuction-Dapp/blindauction-contract/contracts/BlindAuction.sol\":1327:1356  currentPhase == Phase.Bidding */\n      0x03\n      dup2\n      gt\n      iszero\n      tag_125\n      jumpi\n      tag_126\n      tag_65\n      jump\t// in\n    tag_126:\n    tag_125:\n      sub\n        /* \"Projects/BlindAuction-Dapp/blindauction-contract/contracts/BlindAuction.sol\":1323:1598  if (currentPhase == Phase.Bidding) {... */\n      tag_127\n      jumpi\n        /* \"Projects/BlindAuction-Dapp/blindauction-contract/contracts/BlindAuction.sol\":1388:1400  Phase.Reveal */\n      0x02\n        /* \"Projects/BlindAuction-Dapp/blindauction-contract/contracts/BlindAuction.sol\":1373:1385  currentPhase */\n      0x05\n      0x00\n        /* \"Projects/BlindAuction-Dapp/blindauction-contract/contracts/BlindAuction.sol\":1373:1400  currentPhase = Phase.Reveal */\n      0x0100\n      exp\n      dup2\n      sload\n      dup2\n      0xff\n      mul\n      not\n      and\n      swap1\n      dup4\n      0x03\n      dup2\n      gt\n      iszero\n      tag_128\n      jumpi\n      tag_129\n      tag_65\n      jump\t// in\n    tag_129:\n    tag_128:\n      mul\n      or\n      swap1\n      sstore\n      pop\n        /* \"Projects/BlindAuction-Dapp/blindauction-contract/contracts/BlindAuction.sol\":1420:1435  RevealStarted() */\n      0x3bcc93d35219aa0512d7c0d1ca10b0231f473e3d5f9396877d1b7215ee0ab3d5\n      mload(0x40)\n      mload(0x40)\n      dup1\n      swap2\n      sub\n      swap1\n      log1\n        /* \"Projects/BlindAuction-Dapp/blindauction-contract/contracts/BlindAuction.sol\":1323:1598  if (currentPhase == Phase.Bidding) {... */\n      jump(tag_130)\n    tag_127:\n        /* \"Projects/BlindAuction-Dapp/blindauction-contract/contracts/BlindAuction.sol\":1473:1485  Phase.Reveal */\n      0x02\n        /* \"Projects/BlindAuction-Dapp/blindauction-contract/contracts/BlindAuction.sol\":1457:1485  currentPhase == Phase.Reveal */\n      0x03\n      dup2\n      gt\n      iszero\n      tag_131\n      jumpi\n      tag_132\n      tag_65\n      jump\t// in\n    tag_132:\n    tag_131:\n        /* \"Projects/BlindAuction-Dapp/blindauction-contract/contracts/BlindAuction.sol\":1457:1469  currentPhase */\n      0x05\n      0x00\n      swap1\n      sload\n      swap1\n      0x0100\n      exp\n      swap1\n      div\n      0xff\n      and\n        /* \"Projects/BlindAuction-Dapp/blindauction-contract/contracts/BlindAuction.sol\":1457:1485  currentPhase == Phase.Reveal */\n      0x03\n      dup2\n      gt\n      iszero\n      tag_133\n      jumpi\n      tag_134\n      tag_65\n      jump\t// in\n    tag_134:\n    tag_133:\n      sub\n        /* \"Projects/BlindAuction-Dapp/blindauction-contract/contracts/BlindAuction.sol\":1453:1598  if (currentPhase == Phase.Reveal) {... */\n      tag_135\n      jumpi\n        /* \"Projects/BlindAuction-Dapp/blindauction-contract/contracts/BlindAuction.sol\":1517:1527  Phase.Done */\n      0x03\n        /* \"Projects/BlindAuction-Dapp/blindauction-contract/contracts/BlindAuction.sol\":1502:1514  currentPhase */\n      0x05\n      0x00\n        /* \"Projects/BlindAuction-Dapp/blindauction-contract/contracts/BlindAuction.sol\":1502:1527  currentPhase = Phase.Done */\n      0x0100\n      exp\n      dup2\n      sload\n      dup2\n      0xff\n      mul\n      not\n      and\n      swap1\n      dup4\n      0x03\n      dup2\n      gt\n      iszero\n      tag_136\n      jumpi\n      tag_137\n      tag_65\n      jump\t// in\n    tag_137:\n    tag_136:\n      mul\n      or\n      swap1\n      sstore\n      pop\n        /* \"Projects/BlindAuction-Dapp/blindauction-contract/contracts/BlindAuction.sol\":1547:1586  AuctionEnded(highestBidder, highestBid) */\n      0xdaec4582d5d9595688c8c98545fdd1c696d41c6aeaeb636737e84ed2f5c00eda\n        /* \"Projects/BlindAuction-Dapp/blindauction-contract/contracts/BlindAuction.sol\":1560:1573  highestBidder */\n      0x01\n      0x00\n      swap1\n      sload\n      swap1\n      0x0100\n      exp\n      swap1\n      div\n      0xffffffffffffffffffffffffffffffffffffffff\n      and\n        /* \"Projects/BlindAuction-Dapp/blindauction-contract/contracts/BlindAuction.sol\":1575:1585  highestBid */\n      sload(0x02)\n        /* \"Projects/BlindAuction-Dapp/blindauction-contract/contracts/BlindAuction.sol\":1547:1586  AuctionEnded(highestBidder, highestBid) */\n      mload(0x40)\n      tag_138\n      swap3\n      swap2\n      swap1\n      tag_139\n      jump\t// in\n    tag_138:\n      mload(0x40)\n      dup1\n      swap2\n      sub\n      swap1\n      log1\n        /* \"Projects/BlindAuction-Dapp/blindauction-contract/contracts/BlindAuction.sol\":1453:1598  if (currentPhase == Phase.Reveal) {... */\n    tag_135:\n        /* \"Projects/BlindAuction-Dapp/blindauction-contract/contracts/BlindAuction.sol\":1323:1598  if (currentPhase == Phase.Bidding) {... */\n    tag_130:\n        /* \"Projects/BlindAuction-Dapp/blindauction-contract/contracts/BlindAuction.sol\":1194:1598  if (currentPhase == Phase.Init) {... */\n    tag_122:\n        /* \"Projects/BlindAuction-Dapp/blindauction-contract/contracts/BlindAuction.sol\":1014:1605  function advancePhase() ... */\n      jump\t// out\n        /* \"Projects/BlindAuction-Dapp/blindauction-contract/contracts/BlindAuction.sol\":352:374  uint public highestBid */\n    tag_55:\n      sload(0x02)\n      dup2\n      jump\t// out\n        /* \"#utility.yul\":7:187   */\n    tag_65:\n        /* \"#utility.yul\":55:132   */\n      0x4e487b7100000000000000000000000000000000000000000000000000000000\n        /* \"#utility.yul\":52:53   */\n      0x00\n        /* \"#utility.yul\":45:133   */\n      mstore\n        /* \"#utility.yul\":152:156   */\n      0x21\n        /* \"#utility.yul\":149:150   */\n      0x04\n        /* \"#utility.yul\":142:157   */\n      mstore\n        /* \"#utility.yul\":176:180   */\n      0x24\n        /* \"#utility.yul\":173:174   */\n      0x00\n        /* \"#utility.yul\":166:181   */\n      revert\n        /* \"#utility.yul\":193:306   */\n    tag_140:\n        /* \"#utility.yul\":274:275   */\n      0x04\n        /* \"#utility.yul\":267:272   */\n      dup2\n        /* \"#utility.yul\":264:276   */\n      lt\n        /* \"#utility.yul\":254:300   */\n      tag_177\n      jumpi\n        /* \"#utility.yul\":280:298   */\n      tag_178\n      tag_65\n      jump\t// in\n    tag_178:\n        /* \"#utility.yul\":254:300   */\n    tag_177:\n        /* \"#utility.yul\":193:306   */\n      pop\n      jump\t// out\n        /* \"#utility.yul\":312:439   */\n    tag_141:\n        /* \"#utility.yul\":357:364   */\n      0x00\n        /* \"#utility.yul\":386:391   */\n      dup2\n        /* \"#utility.yul\":375:391   */\n      swap1\n      pop\n        /* \"#utility.yul\":392:433   */\n      tag_180\n        /* \"#utility.yul\":427:432   */\n      dup3\n        /* \"#utility.yul\":392:433   */\n      tag_140\n      jump\t// in\n    tag_180:\n        /* \"#utility.yul\":312:439   */\n      swap2\n      swap1\n      pop\n      jump\t// out\n        /* \"#utility.yul\":445:572   */\n    tag_142:\n        /* \"#utility.yul\":501:510   */\n      0x00\n        /* \"#utility.yul\":534:566   */\n      tag_182\n        /* \"#utility.yul\":560:565   */\n      dup3\n        /* \"#utility.yul\":534:566   */\n      tag_141\n      jump\t// in\n    tag_182:\n        /* \"#utility.yul\":521:566   */\n      swap1\n      pop\n        /* \"#utility.yul\":445:572   */\n      swap2\n      swap1\n      pop\n      jump\t// out\n        /* \"#utility.yul\":578:721   */\n    tag_143:\n        /* \"#utility.yul\":671:714   */\n      tag_184\n        /* \"#utility.yul\":708:713   */\n      dup2\n        /* \"#utility.yul\":671:714   */\n      tag_142\n      jump\t// in\n    tag_184:\n        /* \"#utility.yul\":666:669   */\n      dup3\n        /* \"#utility.yul\":659:715   */\n      mstore\n        /* \"#utility.yul\":578:721   */\n      pop\n      pop\n      jump\t// out\n        /* \"#utility.yul\":727:961   */\n    tag_17:\n        /* \"#utility.yul\":826:830   */\n      0x00\n        /* \"#utility.yul\":864:866   */\n      0x20\n        /* \"#utility.yul\":853:862   */\n      dup3\n        /* \"#utility.yul\":849:867   */\n      add\n        /* \"#utility.yul\":841:867   */\n      swap1\n      pop\n        /* \"#utility.yul\":877:954   */\n      tag_186\n        /* \"#utility.yul\":951:952   */\n      0x00\n        /* \"#utility.yul\":940:949   */\n      dup4\n        /* \"#utility.yul\":936:953   */\n      add\n        /* \"#utility.yul\":927:933   */\n      dup5\n        /* \"#utility.yul\":877:954   */\n      tag_143\n      jump\t// in\n    tag_186:\n        /* \"#utility.yul\":727:961   */\n      swap3\n      swap2\n      pop\n      pop\n      jump\t// out\n        /* \"#utility.yul\":967:1093   */\n    tag_144:\n        /* \"#utility.yul\":1004:1011   */\n      0x00\n        /* \"#utility.yul\":1044:1086   */\n      0xffffffffffffffffffffffffffffffffffffffff\n        /* \"#utility.yul\":1037:1042   */\n      dup3\n        /* \"#utility.yul\":1033:1087   */\n      and\n        /* \"#utility.yul\":1022:1087   */\n      swap1\n      pop\n        /* \"#utility.yul\":967:1093   */\n      swap2\n      swap1\n      pop\n      jump\t// out\n        /* \"#utility.yul\":1099:1203   */\n    tag_145:\n        /* \"#utility.yul\":1144:1151   */\n      0x00\n        /* \"#utility.yul\":1173:1197   */\n      tag_189\n        /* \"#utility.yul\":1191:1196   */\n      dup3\n        /* \"#utility.yul\":1173:1197   */\n      tag_144\n      jump\t// in\n    tag_189:\n        /* \"#utility.yul\":1162:1197   */\n      swap1\n      pop\n        /* \"#utility.yul\":1099:1203   */\n      swap2\n      swap1\n      pop\n      jump\t// out\n        /* \"#utility.yul\":1209:1351   */\n    tag_146:\n        /* \"#utility.yul\":1312:1344   */\n      tag_191\n        /* \"#utility.yul\":1338:1343   */\n      dup2\n        /* \"#utility.yul\":1312:1344   */\n      tag_145\n      jump\t// in\n    tag_191:\n        /* \"#utility.yul\":1307:1310   */\n      dup3\n        /* \"#utility.yul\":1300:1345   */\n      mstore\n        /* \"#utility.yul\":1209:1351   */\n      pop\n      pop\n      jump\t// out\n        /* \"#utility.yul\":1357:1611   */\n    tag_25:\n        /* \"#utility.yul\":1466:1470   */\n      0x00\n        /* \"#utility.yul\":1504:1506   */\n      0x20\n        /* \"#utility.yul\":1493:1502   */\n      dup3\n        /* \"#utility.yul\":1489:1507   */\n      add\n        /* \"#utility.yul\":1481:1507   */\n      swap1\n      pop\n        /* \"#utility.yul\":1517:1604   */\n      tag_193\n        /* \"#utility.yul\":1601:1602   */\n      0x00\n        /* \"#utility.yul\":1590:1599   */\n      dup4\n        /* \"#utility.yul\":1586:1603   */\n      add\n        /* \"#utility.yul\":1577:1583   */\n      dup5\n        /* \"#utility.yul\":1517:1604   */\n      tag_146\n      jump\t// in\n    tag_193:\n        /* \"#utility.yul\":1357:1611   */\n      swap3\n      swap2\n      pop\n      pop\n      jump\t// out\n        /* \"#utility.yul\":1698:1815   */\n    tag_148:\n        /* \"#utility.yul\":1807:1808   */\n      0x00\n        /* \"#utility.yul\":1804:1805   */\n      dup1\n        /* \"#utility.yul\":1797:1809   */\n      revert\n        /* \"#utility.yul\":1944:2021   */\n    tag_150:\n        /* \"#utility.yul\":1981:1988   */\n      0x00\n        /* \"#utility.yul\":2010:2015   */\n      dup2\n        /* \"#utility.yul\":1999:2015   */\n      swap1\n      pop\n        /* \"#utility.yul\":1944:2021   */\n      swap2\n      swap1\n      pop\n      jump\t// out\n        /* \"#utility.yul\":2027:2149   */\n    tag_151:\n        /* \"#utility.yul\":2100:2124   */\n      tag_199\n        /* \"#utility.yul\":2118:2123   */\n      dup2\n        /* \"#utility.yul\":2100:2124   */\n      tag_150\n      jump\t// in\n    tag_199:\n        /* \"#utility.yul\":2093:2098   */\n      dup2\n        /* \"#utility.yul\":2090:2125   */\n      eq\n        /* \"#utility.yul\":2080:2143   */\n      tag_200\n      jumpi\n        /* \"#utility.yul\":2139:2140   */\n      0x00\n        /* \"#utility.yul\":2136:2137   */\n      dup1\n        /* \"#utility.yul\":2129:2141   */\n      revert\n        /* \"#utility.yul\":2080:2143   */\n    tag_200:\n        /* \"#utility.yul\":2027:2149   */\n      pop\n      jump\t// out\n        /* \"#utility.yul\":2155:2294   */\n    tag_152:\n        /* \"#utility.yul\":2201:2206   */\n      0x00\n        /* \"#utility.yul\":2239:2245   */\n      dup2\n        /* \"#utility.yul\":2226:2246   */\n      calldataload\n        /* \"#utility.yul\":2217:2246   */\n      swap1\n      pop\n        /* \"#utility.yul\":2255:2288   */\n      tag_202\n        /* \"#utility.yul\":2282:2287   */\n      dup2\n        /* \"#utility.yul\":2255:2288   */\n      tag_151\n      jump\t// in\n    tag_202:\n        /* \"#utility.yul\":2155:2294   */\n      swap3\n      swap2\n      pop\n      pop\n      jump\t// out\n        /* \"#utility.yul\":2300:2377   */\n    tag_153:\n        /* \"#utility.yul\":2337:2344   */\n      0x00\n        /* \"#utility.yul\":2366:2371   */\n      dup2\n        /* \"#utility.yul\":2355:2371   */\n      swap1\n      pop\n        /* \"#utility.yul\":2300:2377   */\n      swap2\n      swap1\n      pop\n      jump\t// out\n        /* \"#utility.yul\":2383:2505   */\n    tag_154:\n        /* \"#utility.yul\":2456:2480   */\n      tag_205\n        /* \"#utility.yul\":2474:2479   */\n      dup2\n        /* \"#utility.yul\":2456:2480   */\n      tag_153\n      jump\t// in\n    tag_205:\n        /* \"#utility.yul\":2449:2454   */\n      dup2\n        /* \"#utility.yul\":2446:2481   */\n      eq\n        /* \"#utility.yul\":2436:2499   */\n      tag_206\n      jumpi\n        /* \"#utility.yul\":2495:2496   */\n      0x00\n        /* \"#utility.yul\":2492:2493   */\n      dup1\n        /* \"#utility.yul\":2485:2497   */\n      revert\n        /* \"#utility.yul\":2436:2499   */\n    tag_206:\n        /* \"#utility.yul\":2383:2505   */\n      pop\n      jump\t// out\n        /* \"#utility.yul\":2511:2650   */\n    tag_155:\n        /* \"#utility.yul\":2557:2562   */\n      0x00\n        /* \"#utility.yul\":2595:2601   */\n      dup2\n        /* \"#utility.yul\":2582:2602   */\n      calldataload\n        /* \"#utility.yul\":2573:2602   */\n      swap1\n      pop\n        /* \"#utility.yul\":2611:2644   */\n      tag_208\n        /* \"#utility.yul\":2638:2643   */\n      dup2\n        /* \"#utility.yul\":2611:2644   */\n      tag_154\n      jump\t// in\n    tag_208:\n        /* \"#utility.yul\":2511:2650   */\n      swap3\n      swap2\n      pop\n      pop\n      jump\t// out\n        /* \"#utility.yul\":2656:3130   */\n    tag_32:\n        /* \"#utility.yul\":2724:2730   */\n      0x00\n        /* \"#utility.yul\":2732:2738   */\n      dup1\n        /* \"#utility.yul\":2781:2783   */\n      0x40\n        /* \"#utility.yul\":2769:2778   */\n      dup4\n        /* \"#utility.yul\":2760:2767   */\n      dup6\n        /* \"#utility.yul\":2756:2779   */\n      sub\n        /* \"#utility.yul\":2752:2784   */\n      slt\n        /* \"#utility.yul\":2749:2868   */\n      iszero\n      tag_210\n      jumpi\n        /* \"#utility.yul\":2787:2866   */\n      tag_211\n      tag_148\n      jump\t// in\n    tag_211:\n        /* \"#utility.yul\":2749:2868   */\n    tag_210:\n        /* \"#utility.yul\":2907:2908   */\n      0x00\n        /* \"#utility.yul\":2932:2985   */\n      tag_212\n        /* \"#utility.yul\":2977:2984   */\n      dup6\n        /* \"#utility.yul\":2968:2974   */\n      dup3\n        /* \"#utility.yul\":2957:2966   */\n      dup7\n        /* \"#utility.yul\":2953:2975   */\n      add\n        /* \"#utility.yul\":2932:2985   */\n      tag_152\n      jump\t// in\n    tag_212:\n        /* \"#utility.yul\":2922:2985   */\n      swap3\n      pop\n        /* \"#utility.yul\":2878:2995   */\n      pop\n        /* \"#utility.yul\":3034:3036   */\n      0x20\n        /* \"#utility.yul\":3060:3113   */\n      tag_213\n        /* \"#utility.yul\":3105:3112   */\n      dup6\n        /* \"#utility.yul\":3096:3102   */\n      dup3\n        /* \"#utility.yul\":3085:3094   */\n      dup7\n        /* \"#utility.yul\":3081:3103   */\n      add\n        /* \"#utility.yul\":3060:3113   */\n      tag_155\n      jump\t// in\n    tag_213:\n        /* \"#utility.yul\":3050:3113   */\n      swap2\n      pop\n        /* \"#utility.yul\":3005:3123   */\n      pop\n        /* \"#utility.yul\":2656:3130   */\n      swap3\n      pop\n      swap3\n      swap1\n      pop\n      jump\t// out\n        /* \"#utility.yul\":3136:3232   */\n    tag_156:\n        /* \"#utility.yul\":3173:3180   */\n      0x00\n        /* \"#utility.yul\":3202:3226   */\n      tag_215\n        /* \"#utility.yul\":3220:3225   */\n      dup3\n        /* \"#utility.yul\":3202:3226   */\n      tag_144\n      jump\t// in\n    tag_215:\n        /* \"#utility.yul\":3191:3226   */\n      swap1\n      pop\n        /* \"#utility.yul\":3136:3232   */\n      swap2\n      swap1\n      pop\n      jump\t// out\n        /* \"#utility.yul\":3238:3360   */\n    tag_157:\n        /* \"#utility.yul\":3311:3335   */\n      tag_217\n        /* \"#utility.yul\":3329:3334   */\n      dup2\n        /* \"#utility.yul\":3311:3335   */\n      tag_156\n      jump\t// in\n    tag_217:\n        /* \"#utility.yul\":3304:3309   */\n      dup2\n        /* \"#utility.yul\":3301:3336   */\n      eq\n        /* \"#utility.yul\":3291:3354   */\n      tag_218\n      jumpi\n        /* \"#utility.yul\":3350:3351   */\n      0x00\n        /* \"#utility.yul\":3347:3348   */\n      dup1\n        /* \"#utility.yul\":3340:3352   */\n      revert\n        /* \"#utility.yul\":3291:3354   */\n    tag_218:\n        /* \"#utility.yul\":3238:3360   */\n      pop\n      jump\t// out\n        /* \"#utility.yul\":3366:3505   */\n    tag_158:\n        /* \"#utility.yul\":3412:3417   */\n      0x00\n        /* \"#utility.yul\":3450:3456   */\n      dup2\n        /* \"#utility.yul\":3437:3457   */\n      calldataload\n        /* \"#utility.yul\":3428:3457   */\n      swap1\n      pop\n        /* \"#utility.yul\":3466:3499   */\n      tag_220\n        /* \"#utility.yul\":3493:3498   */\n      dup2\n        /* \"#utility.yul\":3466:3499   */\n      tag_157\n      jump\t// in\n    tag_220:\n        /* \"#utility.yul\":3366:3505   */\n      swap3\n      swap2\n      pop\n      pop\n      jump\t// out\n        /* \"#utility.yul\":3511:3840   */\n    tag_37:\n        /* \"#utility.yul\":3570:3576   */\n      0x00\n        /* \"#utility.yul\":3619:3621   */\n      0x20\n        /* \"#utility.yul\":3607:3616   */\n      dup3\n        /* \"#utility.yul\":3598:3605   */\n      dup5\n        /* \"#utility.yul\":3594:3617   */\n      sub\n        /* \"#utility.yul\":3590:3622   */\n      slt\n        /* \"#utility.yul\":3587:3706   */\n      iszero\n      tag_222\n      jumpi\n        /* \"#utility.yul\":3625:3704   */\n      tag_223\n      tag_148\n      jump\t// in\n    tag_223:\n        /* \"#utility.yul\":3587:3706   */\n    tag_222:\n        /* \"#utility.yul\":3745:3746   */\n      0x00\n        /* \"#utility.yul\":3770:3823   */\n      tag_224\n        /* \"#utility.yul\":3815:3822   */\n      dup5\n        /* \"#utility.yul\":3806:3812   */\n      dup3\n        /* \"#utility.yul\":3795:3804   */\n      dup6\n        /* \"#utility.yul\":3791:3813   */\n      add\n        /* \"#utility.yul\":3770:3823   */\n      tag_158\n      jump\t// in\n    tag_224:\n        /* \"#utility.yul\":3760:3823   */\n      swap2\n      pop\n        /* \"#utility.yul\":3716:3833   */\n      pop\n        /* \"#utility.yul\":3511:3840   */\n      swap3\n      swap2\n      pop\n      pop\n      jump\t// out\n        /* \"#utility.yul\":3846:3964   */\n    tag_159:\n        /* \"#utility.yul\":3933:3957   */\n      tag_226\n        /* \"#utility.yul\":3951:3956   */\n      dup2\n        /* \"#utility.yul\":3933:3957   */\n      tag_153\n      jump\t// in\n    tag_226:\n        /* \"#utility.yul\":3928:3931   */\n      dup3\n        /* \"#utility.yul\":3921:3958   */\n      mstore\n        /* \"#utility.yul\":3846:3964   */\n      pop\n      pop\n      jump\t// out\n        /* \"#utility.yul\":3970:4088   */\n    tag_160:\n        /* \"#utility.yul\":4057:4081   */\n      tag_228\n        /* \"#utility.yul\":4075:4080   */\n      dup2\n        /* \"#utility.yul\":4057:4081   */\n      tag_150\n      jump\t// in\n    tag_228:\n        /* \"#utility.yul\":4052:4055   */\n      dup3\n        /* \"#utility.yul\":4045:4082   */\n      mstore\n        /* \"#utility.yul\":3970:4088   */\n      pop\n      pop\n      jump\t// out\n        /* \"#utility.yul\":4094:4426   */\n    tag_40:\n        /* \"#utility.yul\":4215:4219   */\n      0x00\n        /* \"#utility.yul\":4253:4255   */\n      0x40\n        /* \"#utility.yul\":4242:4251   */\n      dup3\n        /* \"#utility.yul\":4238:4256   */\n      add\n        /* \"#utility.yul\":4230:4256   */\n      swap1\n      pop\n        /* \"#utility.yul\":4266:4337   */\n      tag_230\n        /* \"#utility.yul\":4334:4335   */\n      0x00\n        /* \"#utility.yul\":4323:4332   */\n      dup4\n        /* \"#utility.yul\":4319:4336   */\n      add\n        /* \"#utility.yul\":4310:4316   */\n      dup6\n        /* \"#utility.yul\":4266:4337   */\n      tag_159\n      jump\t// in\n    tag_230:\n        /* \"#utility.yul\":4347:4419   */\n      tag_231\n        /* \"#utility.yul\":4415:4417   */\n      0x20\n        /* \"#utility.yul\":4404:4413   */\n      dup4\n        /* \"#utility.yul\":4400:4418   */\n      add\n        /* \"#utility.yul\":4391:4397   */\n      dup5\n        /* \"#utility.yul\":4347:4419   */\n      tag_160\n      jump\t// in\n    tag_231:\n        /* \"#utility.yul\":4094:4426   */\n      swap4\n      swap3\n      pop\n      pop\n      pop\n      jump\t// out\n        /* \"#utility.yul\":4432:4550   */\n    tag_161:\n        /* \"#utility.yul\":4519:4543   */\n      tag_233\n        /* \"#utility.yul\":4537:4542   */\n      dup2\n        /* \"#utility.yul\":4519:4543   */\n      tag_156\n      jump\t// in\n    tag_233:\n        /* \"#utility.yul\":4514:4517   */\n      dup3\n        /* \"#utility.yul\":4507:4544   */\n      mstore\n        /* \"#utility.yul\":4432:4550   */\n      pop\n      pop\n      jump\t// out\n        /* \"#utility.yul\":4556:4778   */\n    tag_45:\n        /* \"#utility.yul\":4649:4653   */\n      0x00\n        /* \"#utility.yul\":4687:4689   */\n      0x20\n        /* \"#utility.yul\":4676:4685   */\n      dup3\n        /* \"#utility.yul\":4672:4690   */\n      add\n        /* \"#utility.yul\":4664:4690   */\n      swap1\n      pop\n        /* \"#utility.yul\":4700:4771   */\n      tag_235\n        /* \"#utility.yul\":4768:4769   */\n      0x00\n        /* \"#utility.yul\":4757:4766   */\n      dup4\n        /* \"#utility.yul\":4753:4770   */\n      add\n        /* \"#utility.yul\":4744:4750   */\n      dup5\n        /* \"#utility.yul\":4700:4771   */\n      tag_161\n      jump\t// in\n    tag_235:\n        /* \"#utility.yul\":4556:4778   */\n      swap3\n      swap2\n      pop\n      pop\n      jump\t// out\n        /* \"#utility.yul\":4784:5113   */\n    tag_48:\n        /* \"#utility.yul\":4843:4849   */\n      0x00\n        /* \"#utility.yul\":4892:4894   */\n      0x20\n        /* \"#utility.yul\":4880:4889   */\n      dup3\n        /* \"#utility.yul\":4871:4878   */\n      dup5\n        /* \"#utility.yul\":4867:4890   */\n      sub\n        /* \"#utility.yul\":4863:4895   */\n      slt\n        /* \"#utility.yul\":4860:4979   */\n      iszero\n      tag_237\n      jumpi\n        /* \"#utility.yul\":4898:4977   */\n      tag_238\n      tag_148\n      jump\t// in\n    tag_238:\n        /* \"#utility.yul\":4860:4979   */\n    tag_237:\n        /* \"#utility.yul\":5018:5019   */\n      0x00\n        /* \"#utility.yul\":5043:5096   */\n      tag_239\n        /* \"#utility.yul\":5088:5095   */\n      dup5\n        /* \"#utility.yul\":5079:5085   */\n      dup3\n        /* \"#utility.yul\":5068:5077   */\n      dup6\n        /* \"#utility.yul\":5064:5086   */\n      add\n        /* \"#utility.yul\":5043:5096   */\n      tag_155\n      jump\t// in\n    tag_239:\n        /* \"#utility.yul\":5033:5096   */\n      swap2\n      pop\n        /* \"#utility.yul\":4989:5106   */\n      pop\n        /* \"#utility.yul\":4784:5113   */\n      swap3\n      swap2\n      pop\n      pop\n      jump\t// out\n        /* \"#utility.yul\":5119:5341   */\n    tag_57:\n        /* \"#utility.yul\":5212:5216   */\n      0x00\n        /* \"#utility.yul\":5250:5252   */\n      0x20\n        /* \"#utility.yul\":5239:5248   */\n      dup3\n        /* \"#utility.yul\":5235:5253   */\n      add\n        /* \"#utility.yul\":5227:5253   */\n      swap1\n      pop\n        /* \"#utility.yul\":5263:5334   */\n      tag_241\n        /* \"#utility.yul\":5331:5332   */\n      0x00\n        /* \"#utility.yul\":5320:5329   */\n      dup4\n        /* \"#utility.yul\":5316:5333   */\n      add\n        /* \"#utility.yul\":5307:5313   */\n      dup5\n        /* \"#utility.yul\":5263:5334   */\n      tag_160\n      jump\t// in\n    tag_241:\n        /* \"#utility.yul\":5119:5341   */\n      swap3\n      swap2\n      pop\n      pop\n      jump\t// out\n        /* \"#utility.yul\":5347:5516   */\n    tag_162:\n        /* \"#utility.yul\":5431:5442   */\n      0x00\n        /* \"#utility.yul\":5465:5471   */\n      dup3\n        /* \"#utility.yul\":5460:5463   */\n      dup3\n        /* \"#utility.yul\":5453:5472   */\n      mstore\n        /* \"#utility.yul\":5505:5509   */\n      0x20\n        /* \"#utility.yul\":5500:5503   */\n      dup3\n        /* \"#utility.yul\":5496:5510   */\n      add\n        /* \"#utility.yul\":5481:5510   */\n      swap1\n      pop\n        /* \"#utility.yul\":5347:5516   */\n      swap3\n      swap2\n      pop\n      pop\n      jump\t// out\n        /* \"#utility.yul\":5522:5702   */\n    tag_163:\n        /* \"#utility.yul\":5662:5694   */\n      0x4f6e6c792062656e65666963696172792063616e2063616c6c20746869730000\n        /* \"#utility.yul\":5658:5659   */\n      0x00\n        /* \"#utility.yul\":5650:5656   */\n      dup3\n        /* \"#utility.yul\":5646:5660   */\n      add\n        /* \"#utility.yul\":5639:5695   */\n      mstore\n        /* \"#utility.yul\":5522:5702   */\n      pop\n      jump\t// out\n        /* \"#utility.yul\":5708:6074   */\n    tag_164:\n        /* \"#utility.yul\":5850:5853   */\n      0x00\n        /* \"#utility.yul\":5871:5938   */\n      tag_245\n        /* \"#utility.yul\":5935:5937   */\n      0x1e\n        /* \"#utility.yul\":5930:5933   */\n      dup4\n        /* \"#utility.yul\":5871:5938   */\n      tag_162\n      jump\t// in\n    tag_245:\n        /* \"#utility.yul\":5864:5938   */\n      swap2\n      pop\n        /* \"#utility.yul\":5947:6040   */\n      tag_246\n        /* \"#utility.yul\":6036:6039   */\n      dup3\n        /* \"#utility.yul\":5947:6040   */\n      tag_163\n      jump\t// in\n    tag_246:\n        /* \"#utility.yul\":6065:6067   */\n      0x20\n        /* \"#utility.yul\":6060:6063   */\n      dup3\n        /* \"#utility.yul\":6056:6068   */\n      add\n        /* \"#utility.yul\":6049:6068   */\n      swap1\n      pop\n        /* \"#utility.yul\":5708:6074   */\n      swap2\n      swap1\n      pop\n      jump\t// out\n        /* \"#utility.yul\":6080:6499   */\n    tag_61:\n        /* \"#utility.yul\":6246:6250   */\n      0x00\n        /* \"#utility.yul\":6284:6286   */\n      0x20\n        /* \"#utility.yul\":6273:6282   */\n      dup3\n        /* \"#utility.yul\":6269:6287   */\n      add\n        /* \"#utility.yul\":6261:6287   */\n      swap1\n      pop\n        /* \"#utility.yul\":6333:6342   */\n      dup2\n        /* \"#utility.yul\":6327:6331   */\n      dup2\n        /* \"#utility.yul\":6323:6343   */\n      sub\n        /* \"#utility.yul\":6319:6320   */\n      0x00\n        /* \"#utility.yul\":6308:6317   */\n      dup4\n        /* \"#utility.yul\":6304:6321   */\n      add\n        /* \"#utility.yul\":6297:6344   */\n      mstore\n        /* \"#utility.yul\":6361:6492   */\n      tag_248\n        /* \"#utility.yul\":6487:6491   */\n      dup2\n        /* \"#utility.yul\":6361:6492   */\n      tag_164\n      jump\t// in\n    tag_248:\n        /* \"#utility.yul\":6353:6492   */\n      swap1\n      pop\n        /* \"#utility.yul\":6080:6499   */\n      swap2\n      swap1\n      pop\n      jump\t// out\n        /* \"#utility.yul\":6505:6668   */\n    tag_165:\n        /* \"#utility.yul\":6645:6660   */\n      0x496e76616c696420706861736500000000000000000000000000000000000000\n        /* \"#utility.yul\":6641:6642   */\n      0x00\n        /* \"#utility.yul\":6633:6639   */\n      dup3\n        /* \"#utility.yul\":6629:6643   */\n      add\n        /* \"#utility.yul\":6622:6661   */\n      mstore\n        /* \"#utility.yul\":6505:6668   */\n      pop\n      jump\t// out\n        /* \"#utility.yul\":6674:7040   */\n    tag_166:\n        /* \"#utility.yul\":6816:6819   */\n      0x00\n        /* \"#utility.yul\":6837:6904   */\n      tag_251\n        /* \"#utility.yul\":6901:6903   */\n      0x0d\n        /* \"#utility.yul\":6896:6899   */\n      dup4\n        /* \"#utility.yul\":6837:6904   */\n      tag_162\n      jump\t// in\n    tag_251:\n        /* \"#utility.yul\":6830:6904   */\n      swap2\n      pop\n        /* \"#utility.yul\":6913:7006   */\n      tag_252\n        /* \"#utility.yul\":7002:7005   */\n      dup3\n        /* \"#utility.yul\":6913:7006   */\n      tag_165\n      jump\t// in\n    tag_252:\n        /* \"#utility.yul\":7031:7033   */\n      0x20\n        /* \"#utility.yul\":7026:7029   */\n      dup3\n        /* \"#utility.yul\":7022:7034   */\n      add\n        /* \"#utility.yul\":7015:7034   */\n      swap1\n      pop\n        /* \"#utility.yul\":6674:7040   */\n      swap2\n      swap1\n      pop\n      jump\t// out\n        /* \"#utility.yul\":7046:7465   */\n    tag_70:\n        /* \"#utility.yul\":7212:7216   */\n      0x00\n        /* \"#utility.yul\":7250:7252   */\n      0x20\n        /* \"#utility.yul\":7239:7248   */\n      dup3\n        /* \"#utility.yul\":7235:7253   */\n      add\n        /* \"#utility.yul\":7227:7253   */\n      swap1\n      pop\n        /* \"#utility.yul\":7299:7308   */\n      dup2\n        /* \"#utility.yul\":7293:7297   */\n      dup2\n        /* \"#utility.yul\":7289:7309   */\n      sub\n        /* \"#utility.yul\":7285:7286   */\n      0x00\n        /* \"#utility.yul\":7274:7283   */\n      dup4\n        /* \"#utility.yul\":7270:7287   */\n      add\n        /* \"#utility.yul\":7263:7310   */\n      mstore\n        /* \"#utility.yul\":7327:7458   */\n      tag_254\n        /* \"#utility.yul\":7453:7457   */\n      dup2\n        /* \"#utility.yul\":7327:7458   */\n      tag_166\n      jump\t// in\n    tag_254:\n        /* \"#utility.yul\":7319:7458   */\n      swap1\n      pop\n        /* \"#utility.yul\":7046:7465   */\n      swap2\n      swap1\n      pop\n      jump\t// out\n        /* \"#utility.yul\":7471:7550   */\n    tag_167:\n        /* \"#utility.yul\":7510:7517   */\n      0x00\n        /* \"#utility.yul\":7539:7544   */\n      dup2\n        /* \"#utility.yul\":7528:7544   */\n      swap1\n      pop\n        /* \"#utility.yul\":7471:7550   */\n      swap2\n      swap1\n      pop\n      jump\t// out\n        /* \"#utility.yul\":7556:7713   */\n    tag_168:\n        /* \"#utility.yul\":7661:7706   */\n      tag_257\n        /* \"#utility.yul\":7681:7705   */\n      tag_258\n        /* \"#utility.yul\":7699:7704   */\n      dup3\n        /* \"#utility.yul\":7681:7705   */\n      tag_150\n      jump\t// in\n    tag_258:\n        /* \"#utility.yul\":7661:7706   */\n      tag_167\n      jump\t// in\n    tag_257:\n        /* \"#utility.yul\":7656:7659   */\n      dup3\n        /* \"#utility.yul\":7649:7707   */\n      mstore\n        /* \"#utility.yul\":7556:7713   */\n      pop\n      pop\n      jump\t// out\n        /* \"#utility.yul\":7719:7798   */\n    tag_169:\n        /* \"#utility.yul\":7758:7765   */\n      0x00\n        /* \"#utility.yul\":7787:7792   */\n      dup2\n        /* \"#utility.yul\":7776:7792   */\n      swap1\n      pop\n        /* \"#utility.yul\":7719:7798   */\n      swap2\n      swap1\n      pop\n      jump\t// out\n        /* \"#utility.yul\":7804:7961   */\n    tag_170:\n        /* \"#utility.yul\":7909:7954   */\n      tag_261\n        /* \"#utility.yul\":7929:7953   */\n      tag_262\n        /* \"#utility.yul\":7947:7952   */\n      dup3\n        /* \"#utility.yul\":7929:7953   */\n      tag_153\n      jump\t// in\n    tag_262:\n        /* \"#utility.yul\":7909:7954   */\n      tag_169\n      jump\t// in\n    tag_261:\n        /* \"#utility.yul\":7904:7907   */\n      dup3\n        /* \"#utility.yul\":7897:7955   */\n      mstore\n        /* \"#utility.yul\":7804:7961   */\n      pop\n      pop\n      jump\t// out\n        /* \"#utility.yul\":7967:8364   */\n    tag_87:\n        /* \"#utility.yul\":8107:8110   */\n      0x00\n        /* \"#utility.yul\":8122:8197   */\n      tag_264\n        /* \"#utility.yul\":8193:8196   */\n      dup3\n        /* \"#utility.yul\":8184:8190   */\n      dup6\n        /* \"#utility.yul\":8122:8197   */\n      tag_168\n      jump\t// in\n    tag_264:\n        /* \"#utility.yul\":8222:8224   */\n      0x20\n        /* \"#utility.yul\":8217:8220   */\n      dup3\n        /* \"#utility.yul\":8213:8225   */\n      add\n        /* \"#utility.yul\":8206:8225   */\n      swap2\n      pop\n        /* \"#utility.yul\":8235:8310   */\n      tag_265\n        /* \"#utility.yul\":8306:8309   */\n      dup3\n        /* \"#utility.yul\":8297:8303   */\n      dup5\n        /* \"#utility.yul\":8235:8310   */\n      tag_170\n      jump\t// in\n    tag_265:\n        /* \"#utility.yul\":8335:8337   */\n      0x20\n        /* \"#utility.yul\":8330:8333   */\n      dup3\n        /* \"#utility.yul\":8326:8338   */\n      add\n        /* \"#utility.yul\":8319:8338   */\n      swap2\n      pop\n        /* \"#utility.yul\":8355:8358   */\n      dup2\n        /* \"#utility.yul\":8348:8358   */\n      swap1\n      pop\n        /* \"#utility.yul\":7967:8364   */\n      swap4\n      swap3\n      pop\n      pop\n      pop\n      jump\t// out\n        /* \"#utility.yul\":8370:8550   */\n    tag_171:\n        /* \"#utility.yul\":8418:8495   */\n      0x4e487b7100000000000000000000000000000000000000000000000000000000\n        /* \"#utility.yul\":8415:8416   */\n      0x00\n        /* \"#utility.yul\":8408:8496   */\n      mstore\n        /* \"#utility.yul\":8515:8519   */\n      0x11\n        /* \"#utility.yul\":8512:8513   */\n      0x04\n        /* \"#utility.yul\":8505:8520   */\n      mstore\n        /* \"#utility.yul\":8539:8543   */\n      0x24\n        /* \"#utility.yul\":8536:8537   */\n      0x00\n        /* \"#utility.yul\":8529:8544   */\n      revert\n        /* \"#utility.yul\":8556:8750   */\n    tag_92:\n        /* \"#utility.yul\":8596:8600   */\n      0x00\n        /* \"#utility.yul\":8616:8636   */\n      tag_268\n        /* \"#utility.yul\":8634:8635   */\n      dup3\n        /* \"#utility.yul\":8616:8636   */\n      tag_150\n      jump\t// in\n    tag_268:\n        /* \"#utility.yul\":8611:8636   */\n      swap2\n      pop\n        /* \"#utility.yul\":8650:8670   */\n      tag_269\n        /* \"#utility.yul\":8668:8669   */\n      dup4\n        /* \"#utility.yul\":8650:8670   */\n      tag_150\n      jump\t// in\n    tag_269:\n        /* \"#utility.yul\":8645:8670   */\n      swap3\n      pop\n        /* \"#utility.yul\":8694:8695   */\n      dup3\n        /* \"#utility.yul\":8691:8692   */\n      dup3\n        /* \"#utility.yul\":8687:8696   */\n      sub\n        /* \"#utility.yul\":8679:8696   */\n      swap1\n      pop\n        /* \"#utility.yul\":8718:8719   */\n      dup2\n        /* \"#utility.yul\":8712:8716   */\n      dup2\n        /* \"#utility.yul\":8709:8720   */\n      gt\n        /* \"#utility.yul\":8706:8743   */\n      iszero\n      tag_270\n      jumpi\n        /* \"#utility.yul\":8723:8741   */\n      tag_271\n      tag_171\n      jump\t// in\n    tag_271:\n        /* \"#utility.yul\":8706:8743   */\n    tag_270:\n        /* \"#utility.yul\":8556:8750   */\n      swap3\n      swap2\n      pop\n      pop\n      jump\t// out\n        /* \"#utility.yul\":8756:8947   */\n    tag_95:\n        /* \"#utility.yul\":8796:8799   */\n      0x00\n        /* \"#utility.yul\":8815:8835   */\n      tag_273\n        /* \"#utility.yul\":8833:8834   */\n      dup3\n        /* \"#utility.yul\":8815:8835   */\n      tag_150\n      jump\t// in\n    tag_273:\n        /* \"#utility.yul\":8810:8835   */\n      swap2\n      pop\n        /* \"#utility.yul\":8849:8869   */\n      tag_274\n        /* \"#utility.yul\":8867:8868   */\n      dup4\n        /* \"#utility.yul\":8849:8869   */\n      tag_150\n      jump\t// in\n    tag_274:\n        /* \"#utility.yul\":8844:8869   */\n      swap3\n      pop\n        /* \"#utility.yul\":8892:8893   */\n      dup3\n        /* \"#utility.yul\":8889:8890   */\n      dup3\n        /* \"#utility.yul\":8885:8894   */\n      add\n        /* \"#utility.yul\":8878:8894   */\n      swap1\n      pop\n        /* \"#utility.yul\":8913:8916   */\n      dup1\n        /* \"#utility.yul\":8910:8911   */\n      dup3\n        /* \"#utility.yul\":8907:8917   */\n      gt\n        /* \"#utility.yul\":8904:8940   */\n      iszero\n      tag_275\n      jumpi\n        /* \"#utility.yul\":8920:8938   */\n      tag_276\n      tag_171\n      jump\t// in\n    tag_276:\n        /* \"#utility.yul\":8904:8940   */\n    tag_275:\n        /* \"#utility.yul\":8756:8947   */\n      swap3\n      swap2\n      pop\n      pop\n      jump\t// out\n        /* \"#utility.yul\":8953:9124   */\n    tag_172:\n        /* \"#utility.yul\":9093:9116   */\n      0x41756374696f6e20616c726561647920656e6465640000000000000000000000\n        /* \"#utility.yul\":9089:9090   */\n      0x00\n        /* \"#utility.yul\":9081:9087   */\n      dup3\n        /* \"#utility.yul\":9077:9091   */\n      add\n        /* \"#utility.yul\":9070:9117   */\n      mstore\n        /* \"#utility.yul\":8953:9124   */\n      pop\n      jump\t// out\n        /* \"#utility.yul\":9130:9496   */\n    tag_173:\n        /* \"#utility.yul\":9272:9275   */\n      0x00\n        /* \"#utility.yul\":9293:9360   */\n      tag_279\n        /* \"#utility.yul\":9357:9359   */\n      0x15\n        /* \"#utility.yul\":9352:9355   */\n      dup4\n        /* \"#utility.yul\":9293:9360   */\n      tag_162\n      jump\t// in\n    tag_279:\n        /* \"#utility.yul\":9286:9360   */\n      swap2\n      pop\n        /* \"#utility.yul\":9369:9462   */\n      tag_280\n        /* \"#utility.yul\":9458:9461   */\n      dup3\n        /* \"#utility.yul\":9369:9462   */\n      tag_172\n      jump\t// in\n    tag_280:\n        /* \"#utility.yul\":9487:9489   */\n      0x20\n        /* \"#utility.yul\":9482:9485   */\n      dup3\n        /* \"#utility.yul\":9478:9490   */\n      add\n        /* \"#utility.yul\":9471:9490   */\n      swap1\n      pop\n        /* \"#utility.yul\":9130:9496   */\n      swap2\n      swap1\n      pop\n      jump\t// out\n        /* \"#utility.yul\":9502:9921   */\n    tag_114:\n        /* \"#utility.yul\":9668:9672   */\n      0x00\n        /* \"#utility.yul\":9706:9708   */\n      0x20\n        /* \"#utility.yul\":9695:9704   */\n      dup3\n        /* \"#utility.yul\":9691:9709   */\n      add\n        /* \"#utility.yul\":9683:9709   */\n      swap1\n      pop\n        /* \"#utility.yul\":9755:9764   */\n      dup2\n        /* \"#utility.yul\":9749:9753   */\n      dup2\n        /* \"#utility.yul\":9745:9765   */\n      sub\n        /* \"#utility.yul\":9741:9742   */\n      0x00\n        /* \"#utility.yul\":9730:9739   */\n      dup4\n        /* \"#utility.yul\":9726:9743   */\n      add\n        /* \"#utility.yul\":9719:9766   */\n      mstore\n        /* \"#utility.yul\":9783:9914   */\n      tag_282\n        /* \"#utility.yul\":9909:9913   */\n      dup2\n        /* \"#utility.yul\":9783:9914   */\n      tag_173\n      jump\t// in\n    tag_282:\n        /* \"#utility.yul\":9775:9914   */\n      swap1\n      pop\n        /* \"#utility.yul\":9502:9921   */\n      swap2\n      swap1\n      pop\n      jump\t// out\n        /* \"#utility.yul\":9927:10259   */\n    tag_139:\n        /* \"#utility.yul\":10048:10052   */\n      0x00\n        /* \"#utility.yul\":10086:10088   */\n      0x40\n        /* \"#utility.yul\":10075:10084   */\n      dup3\n        /* \"#utility.yul\":10071:10089   */\n      add\n        /* \"#utility.yul\":10063:10089   */\n      swap1\n      pop\n        /* \"#utility.yul\":10099:10170   */\n      tag_284\n        /* \"#utility.yul\":10167:10168   */\n      0x00\n        /* \"#utility.yul\":10156:10165   */\n      dup4\n        /* \"#utility.yul\":10152:10169   */\n      add\n        /* \"#utility.yul\":10143:10149   */\n      dup6\n        /* \"#utility.yul\":10099:10170   */\n      tag_161\n      jump\t// in\n    tag_284:\n        /* \"#utility.yul\":10180:10252   */\n      tag_285\n        /* \"#utility.yul\":10248:10250   */\n      0x20\n        /* \"#utility.yul\":10237:10246   */\n      dup4\n        /* \"#utility.yul\":10233:10251   */\n      add\n        /* \"#utility.yul\":10224:10230   */\n      dup5\n        /* \"#utility.yul\":10180:10252   */\n      tag_160\n      jump\t// in\n    tag_285:\n        /* \"#utility.yul\":9927:10259   */\n      swap4\n      swap3\n      pop\n      pop\n      pop\n      jump\t// out\n\n    auxdata: 0xa26469706673582212205bc7316e31fd3c046977e83c2da1277c34198163b82de817913166b325dbc00964736f6c63430008120033\n}\n",
				"bytecode": {
					"linkReferences": {},
					"object": "60806040526000600560006101000a81548160ff0219169083600381111561002a57610029610081565b5b021790555034801561003b57600080fd5b50336000806101000a81548173ffffffffffffffffffffffffffffffffffffffff021916908373ffffffffffffffffffffffffffffffffffffffff1602179055506100b0565b7f4e487b7100000000000000000000000000000000000000000000000000000000600052602160045260246000fd5b611014806100bf6000396000f3fe6080604052600436106100915760003560e01c806362ea82db1161005957806362ea82db1461014357806391f9015714610181578063957bb1e0146101ac578063be25a718146101c8578063d57bde79146101df57610091565b8063055ad42e146100965780632a24f46c146100c157806338af3eed146100d85780633ccfd60b146101035780634036778f1461011a575b600080fd5b3480156100a257600080fd5b506100ab61020a565b6040516100b89190610b0f565b60405180910390f35b3480156100cd57600080fd5b506100d661021d565b005b3480156100e457600080fd5b506100ed61038e565b6040516100fa9190610b6b565b60405180910390f35b34801561010f57600080fd5b506101186103b2565b005b34801561012657600080fd5b50610141600480360381019061013c9190610bf7565b61048f565b005b34801561014f57600080fd5b5061016a60048036038101906101659190610c75565b610669565b604051610178929190610cc0565b60405180910390f35b34801561018d57600080fd5b5061019661068d565b6040516101a39190610cf8565b60405180910390f35b6101c660048036038101906101c19190610d13565b6106b3565b005b3480156101d457600080fd5b506101dd610799565b005b3480156101eb57600080fd5b506101f4610a92565b6040516102019190610d40565b60405180910390f35b600560009054906101000a900460ff1681565b60008054906101000a900473ffffffffffffffffffffffffffffffffffffffff1673ffffffffffffffffffffffffffffffffffffffff163373ffffffffffffffffffffffffffffffffffffffff16146102ab576040517f08c379a00000000000000000000000000000000000000000000000000000000081526004016102a290610db8565b60405180910390fd5b60038060038111156102c0576102bf610a98565b5b600560009054906101000a900460ff1660038111156102e2576102e1610a98565b5b14610322576040517f08c379a000000000000000000000000000000000000000000000000000000000815260040161031990610e24565b60405180910390fd5b60008054906101000a900473ffffffffffffffffffffffffffffffffffffffff1673ffffffffffffffffffffffffffffffffffffffff166108fc6002549081150290604051600060405180830381858888f1935050505015801561038a573d6000803e3d6000fd5b5050565b60008054906101000a900473ffffffffffffffffffffffffffffffffffffffff1681565b6000600460003373ffffffffffffffffffffffffffffffffffffffff1673ffffffffffffffffffffffffffffffffffffffff168152602001908152602001600020549050600081111561048c576000600460003373ffffffffffffffffffffffffffffffffffffffff1673ffffffffffffffffffffffffffffffffffffffff168152602001908152602001600020819055503373ffffffffffffffffffffffffffffffffffffffff166108fc829081150290604051600060405180830381858888f1935050505015801561048a573d6000803e3d6000fd5b505b50565b60028060038111156104a4576104a3610a98565b5b600560009054906101000a900460ff1660038111156104c6576104c5610a98565b5b14610506576040517f08c379a00000000000000000000000000000000000000000000000000000000081526004016104fd90610e24565b60405180910390fd5b600080600360003373ffffffffffffffffffffffffffffffffffffffff1673ffffffffffffffffffffffffffffffffffffffff1681526020019081526020016000209050848460405160200161055d929190610e86565b604051602081830303815290604052805190602001208160000154148015610589575084816001015410155b156105f8576002548511156105e1578460028190555033600160006101000a81548173ffffffffffffffffffffffffffffffffffffffff021916908373ffffffffffffffffffffffffffffffffffffffff1602179055505b8481600101546105f19190610ee1565b9150610600565b806001015491505b6000801b816000018190555081600460003373ffffffffffffffffffffffffffffffffffffffff1673ffffffffffffffffffffffffffffffffffffffff168152602001908152602001600020600082825461065b9190610f15565b925050819055505050505050565b60036020528060005260406000206000915090508060000154908060010154905082565b600160009054906101000a900473ffffffffffffffffffffffffffffffffffffffff1681565b60018060038111156106c8576106c7610a98565b5b600560009054906101000a900460ff1660038111156106ea576106e9610a98565b5b1461072a576040517f08c379a000000000000000000000000000000000000000000000000000000000815260040161072190610e24565b60405180910390fd5b604051806040016040528083815260200134815250600360003373ffffffffffffffffffffffffffffffffffffffff1673ffffffffffffffffffffffffffffffffffffffff16815260200190815260200160002060008201518160000155602082015181600101559050505050565b60008054906101000a900473ffffffffffffffffffffffffffffffffffffffff1673ffffffffffffffffffffffffffffffffffffffff163373ffffffffffffffffffffffffffffffffffffffff1614610827576040517f08c379a000000000000000000000000000000000000000000000000000000000815260040161081e90610db8565b60405180910390fd5b60038081111561083a57610839610a98565b5b600560009054906101000a900460ff16600381111561085c5761085b610a98565b5b0361089c576040517f08c379a000000000000000000000000000000000000000000000000000000000815260040161089390610f95565b60405180910390fd5b600060038111156108b0576108af610a98565b5b600560009054906101000a900460ff1660038111156108d2576108d1610a98565b5b03610933576001600560006101000a81548160ff021916908360038111156108fd576108fc610a98565b5b02179055507f02c124e22ee7da1c9905bbb317cf67658c1cc3ea1c0953b1633f85d0b5c281d960405160405180910390a1610a90565b6001600381111561094757610946610a98565b5b600560009054906101000a900460ff16600381111561096957610968610a98565b5b036109ca576002600560006101000a81548160ff0219169083600381111561099457610993610a98565b5b02179055507f3bcc93d35219aa0512d7c0d1ca10b0231f473e3d5f9396877d1b7215ee0ab3d560405160405180910390a1610a8f565b600260038111156109de576109dd610a98565b5b600560009054906101000a900460ff166003811115610a00576109ff610a98565b5b03610a8e576003600560006101000a81548160ff02191690836003811115610a2b57610a2a610a98565b5b02179055507fdaec4582d5d9595688c8c98545fdd1c696d41c6aeaeb636737e84ed2f5c00eda600160009054906101000a900473ffffffffffffffffffffffffffffffffffffffff16600254604051610a85929190610fb5565b60405180910390a15b5b5b565b60025481565b7f4e487b7100000000000000000000000000000000000000000000000000000000600052602160045260246000fd5b60048110610ad857610ad7610a98565b5b50565b6000819050610ae982610ac7565b919050565b6000610af982610adb565b9050919050565b610b0981610aee565b82525050565b6000602082019050610b246000830184610b00565b92915050565b600073ffffffffffffffffffffffffffffffffffffffff82169050919050565b6000610b5582610b2a565b9050919050565b610b6581610b4a565b82525050565b6000602082019050610b806000830184610b5c565b92915050565b600080fd5b6000819050919050565b610b9e81610b8b565b8114610ba957600080fd5b50565b600081359050610bbb81610b95565b92915050565b6000819050919050565b610bd481610bc1565b8114610bdf57600080fd5b50565b600081359050610bf181610bcb565b92915050565b60008060408385031215610c0e57610c0d610b86565b5b6000610c1c85828601610bac565b9250506020610c2d85828601610be2565b9150509250929050565b6000610c4282610b2a565b9050919050565b610c5281610c37565b8114610c5d57600080fd5b50565b600081359050610c6f81610c49565b92915050565b600060208284031215610c8b57610c8a610b86565b5b6000610c9984828501610c60565b91505092915050565b610cab81610bc1565b82525050565b610cba81610b8b565b82525050565b6000604082019050610cd56000830185610ca2565b610ce26020830184610cb1565b9392505050565b610cf281610c37565b82525050565b6000602082019050610d0d6000830184610ce9565b92915050565b600060208284031215610d2957610d28610b86565b5b6000610d3784828501610be2565b91505092915050565b6000602082019050610d556000830184610cb1565b92915050565b600082825260208201905092915050565b7f4f6e6c792062656e65666963696172792063616e2063616c6c20746869730000600082015250565b6000610da2601e83610d5b565b9150610dad82610d6c565b602082019050919050565b60006020820190508181036000830152610dd181610d95565b9050919050565b7f496e76616c696420706861736500000000000000000000000000000000000000600082015250565b6000610e0e600d83610d5b565b9150610e1982610dd8565b602082019050919050565b60006020820190508181036000830152610e3d81610e01565b9050919050565b6000819050919050565b610e5f610e5a82610b8b565b610e44565b82525050565b6000819050919050565b610e80610e7b82610bc1565b610e65565b82525050565b6000610e928285610e4e565b602082019150610ea28284610e6f565b6020820191508190509392505050565b7f4e487b7100000000000000000000000000000000000000000000000000000000600052601160045260246000fd5b6000610eec82610b8b565b9150610ef783610b8b565b9250828203905081811115610f0f57610f0e610eb2565b5b92915050565b6000610f2082610b8b565b9150610f2b83610b8b565b9250828201905080821115610f4357610f42610eb2565b5b92915050565b7f41756374696f6e20616c726561647920656e6465640000000000000000000000600082015250565b6000610f7f601583610d5b565b9150610f8a82610f49565b602082019050919050565b60006020820190508181036000830152610fae81610f72565b9050919050565b6000604082019050610fca6000830185610ce9565b610fd76020830184610cb1565b939250505056fea26469706673582212205bc7316e31fd3c046977e83c2da1277c34198163b82de817913166b325dbc00964736f6c63430008120033",
					"opcodes": "PUSH1 0x80 PUSH1 0x40 MSTORE PUSH1 0x0 PUSH1 0x5 PUSH1 0x0 PUSH2 0x100 EXP DUP2 SLOAD DUP2 PUSH1 0xFF MUL NOT AND SWAP1 DUP4 PUSH1 0x3 DUP2 GT ISZERO PUSH2 0x2A JUMPI PUSH2 0x29 PUSH2 0x81 JUMP JUMPDEST JUMPDEST MUL OR SWAP1 SSTORE POP CALLVALUE DUP1 ISZERO PUSH2 0x3B JUMPI PUSH1 0x0 DUP1 REVERT JUMPDEST POP CALLER PUSH1 0x0 DUP1 PUSH2 0x100 EXP DUP2 SLOAD DUP2 PUSH20 0xFFFFFFFFFFFFFFFFFFFFFFFFFFFFFFFFFFFFFFFF MUL NOT AND SWAP1 DUP4 PUSH20 0xFFFFFFFFFFFFFFFFFFFFFFFFFFFFFFFFFFFFFFFF AND MUL OR SWAP1 SSTORE POP PUSH2 0xB0 JUMP JUMPDEST PUSH32 0x4E487B7100000000000000000000000000000000000000000000000000000000 PUSH1 0x0 MSTORE PUSH1 0x21 PUSH1 0x4 MSTORE PUSH1 0x24 PUSH1 0x0 REVERT JUMPDEST PUSH2 0x1014 DUP1 PUSH2 0xBF PUSH1 0x0 CODECOPY PUSH1 0x0 RETURN INVALID PUSH1 0x80 PUSH1 0x40 MSTORE PUSH1 0x4 CALLDATASIZE LT PUSH2 0x91 JUMPI PUSH1 0x0 CALLDATALOAD PUSH1 0xE0 SHR DUP1 PUSH4 0x62EA82DB GT PUSH2 0x59 JUMPI DUP1 PUSH4 0x62EA82DB EQ PUSH2 0x143 JUMPI DUP1 PUSH4 0x91F90157 EQ PUSH2 0x181 JUMPI DUP1 PUSH4 0x957BB1E0 EQ PUSH2 0x1AC JUMPI DUP1 PUSH4 0xBE25A718 EQ PUSH2 0x1C8 JUMPI DUP1 PUSH4 0xD57BDE79 EQ PUSH2 0x1DF JUMPI PUSH2 0x91 JUMP JUMPDEST DUP1 PUSH4 0x55AD42E EQ PUSH2 0x96 JUMPI DUP1 PUSH4 0x2A24F46C EQ PUSH2 0xC1 JUMPI DUP1 PUSH4 0x38AF3EED EQ PUSH2 0xD8 JUMPI DUP1 PUSH4 0x3CCFD60B EQ PUSH2 0x103 JUMPI DUP1 PUSH4 0x4036778F EQ PUSH2 0x11A JUMPI JUMPDEST PUSH1 0x0 DUP1 REVERT JUMPDEST CALLVALUE DUP1 ISZERO PUSH2 0xA2 JUMPI PUSH1 0x0 DUP1 REVERT JUMPDEST POP PUSH2 0xAB PUSH2 0x20A JUMP JUMPDEST PUSH1 0x40 MLOAD PUSH2 0xB8 SWAP2 SWAP1 PUSH2 0xB0F JUMP JUMPDEST PUSH1 0x40 MLOAD DUP1 SWAP2 SUB SWAP1 RETURN JUMPDEST CALLVALUE DUP1 ISZERO PUSH2 0xCD JUMPI PUSH1 0x0 DUP1 REVERT JUMPDEST POP PUSH2 0xD6 PUSH2 0x21D JUMP JUMPDEST STOP JUMPDEST CALLVALUE DUP1 ISZERO PUSH2 0xE4 JUMPI PUSH1 0x0 DUP1 REVERT JUMPDEST POP PUSH2 0xED PUSH2 0x38E JUMP JUMPDEST PUSH1 0x40 MLOAD PUSH2 0xFA SWAP2 SWAP1 PUSH2 0xB6B JUMP JUMPDEST PUSH1 0x40 MLOAD DUP1 SWAP2 SUB SWAP1 RETURN JUMPDEST CALLVALUE DUP1 ISZERO PUSH2 0x10F JUMPI PUSH1 0x0 DUP1 REVERT JUMPDEST POP PUSH2 0x118 PUSH2 0x3B2 JUMP JUMPDEST STOP JUMPDEST CALLVALUE DUP1 ISZERO PUSH2 0x126 JUMPI PUSH1 0x0 DUP1 REVERT JUMPDEST POP PUSH2 0x141 PUSH1 0x4 DUP1 CALLDATASIZE SUB DUP2 ADD SWAP1 PUSH2 0x13C SWAP2 SWAP1 PUSH2 0xBF7 JUMP JUMPDEST PUSH2 0x48F JUMP JUMPDEST STOP JUMPDEST CALLVALUE DUP1 ISZERO PUSH2 0x14F JUMPI PUSH1 0x0 DUP1 REVERT JUMPDEST POP PUSH2 0x16A PUSH1 0x4 DUP1 CALLDATASIZE SUB DUP2 ADD SWAP1 PUSH2 0x165 SWAP2 SWAP1 PUSH2 0xC75 JUMP JUMPDEST PUSH2 0x669 JUMP JUMPDEST PUSH1 0x40 MLOAD PUSH2 0x178 SWAP3 SWAP2 SWAP1 PUSH2 0xCC0 JUMP JUMPDEST PUSH1 0x40 MLOAD DUP1 SWAP2 SUB SWAP1 RETURN JUMPDEST CALLVALUE DUP1 ISZERO PUSH2 0x18D JUMPI PUSH1 0x0 DUP1 REVERT JUMPDEST POP PUSH2 0x196 PUSH2 0x68D JUMP JUMPDEST PUSH1 0x40 MLOAD PUSH2 0x1A3 SWAP2 SWAP1 PUSH2 0xCF8 JUMP JUMPDEST PUSH1 0x40 MLOAD DUP1 SWAP2 SUB SWAP1 RETURN JUMPDEST PUSH2 0x1C6 PUSH1 0x4 DUP1 CALLDATASIZE SUB DUP2 ADD SWAP1 PUSH2 0x1C1 SWAP2 SWAP1 PUSH2 0xD13 JUMP JUMPDEST PUSH2 0x6B3 JUMP JUMPDEST STOP JUMPDEST CALLVALUE DUP1 ISZERO PUSH2 0x1D4 JUMPI PUSH1 0x0 DUP1 REVERT JUMPDEST POP PUSH2 0x1DD PUSH2 0x799 JUMP JUMPDEST STOP JUMPDEST CALLVALUE DUP1 ISZERO PUSH2 0x1EB JUMPI PUSH1 0x0 DUP1 REVERT JUMPDEST POP PUSH2 0x1F4 PUSH2 0xA92 JUMP JUMPDEST PUSH1 0x40 MLOAD PUSH2 0x201 SWAP2 SWAP1 PUSH2 0xD40 JUMP JUMPDEST PUSH1 0x40 MLOAD DUP1 SWAP2 SUB SWAP1 RETURN JUMPDEST PUSH1 0x5 PUSH1 0x0 SWAP1 SLOAD SWAP1 PUSH2 0x100 EXP SWAP1 DIV PUSH1 0xFF AND DUP2 JUMP JUMPDEST PUSH1 0x0 DUP1 SLOAD SWAP1 PUSH2 0x100 EXP SWAP1 DIV PUSH20 0xFFFFFFFFFFFFFFFFFFFFFFFFFFFFFFFFFFFFFFFF AND PUSH20 0xFFFFFFFFFFFFFFFFFFFFFFFFFFFFFFFFFFFFFFFF AND CALLER PUSH20 0xFFFFFFFFFFFFFFFFFFFFFFFFFFFFFFFFFFFFFFFF AND EQ PUSH2 0x2AB JUMPI PUSH1 0x40 MLOAD PUSH32 0x8C379A000000000000000000000000000000000000000000000000000000000 DUP2 MSTORE PUSH1 0x4 ADD PUSH2 0x2A2 SWAP1 PUSH2 0xDB8 JUMP JUMPDEST PUSH1 0x40 MLOAD DUP1 SWAP2 SUB SWAP1 REVERT JUMPDEST PUSH1 0x3 DUP1 PUSH1 0x3 DUP2 GT ISZERO PUSH2 0x2C0 JUMPI PUSH2 0x2BF PUSH2 0xA98 JUMP JUMPDEST JUMPDEST PUSH1 0x5 PUSH1 0x0 SWAP1 SLOAD SWAP1 PUSH2 0x100 EXP SWAP1 DIV PUSH1 0xFF AND PUSH1 0x3 DUP2 GT ISZERO PUSH2 0x2E2 JUMPI PUSH2 0x2E1 PUSH2 0xA98 JUMP JUMPDEST JUMPDEST EQ PUSH2 0x322 JUMPI PUSH1 0x40 MLOAD PUSH32 0x8C379A000000000000000000000000000000000000000000000000000000000 DUP2 MSTORE PUSH1 0x4 ADD PUSH2 0x319 SWAP1 PUSH2 0xE24 JUMP JUMPDEST PUSH1 0x40 MLOAD DUP1 SWAP2 SUB SWAP1 REVERT JUMPDEST PUSH1 0x0 DUP1 SLOAD SWAP1 PUSH2 0x100 EXP SWAP1 DIV PUSH20 0xFFFFFFFFFFFFFFFFFFFFFFFFFFFFFFFFFFFFFFFF AND PUSH20 0xFFFFFFFFFFFFFFFFFFFFFFFFFFFFFFFFFFFFFFFF AND PUSH2 0x8FC PUSH1 0x2 SLOAD SWAP1 DUP2 ISZERO MUL SWAP1 PUSH1 0x40 MLOAD PUSH1 0x0 PUSH1 0x40 MLOAD DUP1 DUP4 SUB DUP2 DUP6 DUP9 DUP9 CALL SWAP4 POP POP POP POP ISZERO DUP1 ISZERO PUSH2 0x38A JUMPI RETURNDATASIZE PUSH1 0x0 DUP1 RETURNDATACOPY RETURNDATASIZE PUSH1 0x0 REVERT JUMPDEST POP POP JUMP JUMPDEST PUSH1 0x0 DUP1 SLOAD SWAP1 PUSH2 0x100 EXP SWAP1 DIV PUSH20 0xFFFFFFFFFFFFFFFFFFFFFFFFFFFFFFFFFFFFFFFF AND DUP2 JUMP JUMPDEST PUSH1 0x0 PUSH1 0x4 PUSH1 0x0 CALLER PUSH20 0xFFFFFFFFFFFFFFFFFFFFFFFFFFFFFFFFFFFFFFFF AND PUSH20 0xFFFFFFFFFFFFFFFFFFFFFFFFFFFFFFFFFFFFFFFF AND DUP2 MSTORE PUSH1 0x20 ADD SWAP1 DUP2 MSTORE PUSH1 0x20 ADD PUSH1 0x0 KECCAK256 SLOAD SWAP1 POP PUSH1 0x0 DUP2 GT ISZERO PUSH2 0x48C JUMPI PUSH1 0x0 PUSH1 0x4 PUSH1 0x0 CALLER PUSH20 0xFFFFFFFFFFFFFFFFFFFFFFFFFFFFFFFFFFFFFFFF AND PUSH20 0xFFFFFFFFFFFFFFFFFFFFFFFFFFFFFFFFFFFFFFFF AND DUP2 MSTORE PUSH1 0x20 ADD SWAP1 DUP2 MSTORE PUSH1 0x20 ADD PUSH1 0x0 KECCAK256 DUP2 SWAP1 SSTORE POP CALLER PUSH20 0xFFFFFFFFFFFFFFFFFFFFFFFFFFFFFFFFFFFFFFFF AND PUSH2 0x8FC DUP3 SWAP1 DUP2 ISZERO MUL SWAP1 PUSH1 0x40 MLOAD PUSH1 0x0 PUSH1 0x40 MLOAD DUP1 DUP4 SUB DUP2 DUP6 DUP9 DUP9 CALL SWAP4 POP POP POP POP ISZERO DUP1 ISZERO PUSH2 0x48A JUMPI RETURNDATASIZE PUSH1 0x0 DUP1 RETURNDATACOPY RETURNDATASIZE PUSH1 0x0 REVERT JUMPDEST POP JUMPDEST POP JUMP JUMPDEST PUSH1 0x2 DUP1 PUSH1 0x3 DUP2 GT ISZERO PUSH2 0x4A4 JUMPI PUSH2 0x4A3 PUSH2 0xA98 JUMP JUMPDEST JUMPDEST PUSH1 0x5 PUSH1 0x0 SWAP1 SLOAD SWAP1 PUSH2 0x100 EXP SWAP1 DIV PUSH1 0xFF AND PUSH1 0x3 DUP2 GT ISZERO PUSH2 0x4C6 JUMPI PUSH2 0x4C5 PUSH2 0xA98 JUMP JUMPDEST JUMPDEST EQ PUSH2 0x506 JUMPI PUSH1 0x40 MLOAD PUSH32 0x8C379A000000000000000000000000000000000000000000000000000000000 DUP2 MSTORE PUSH1 0x4 ADD PUSH2 0x4FD SWAP1 PUSH2 0xE24 JUMP JUMPDEST PUSH1 0x40 MLOAD DUP1 SWAP2 SUB SWAP1 REVERT JUMPDEST PUSH1 0x0 DUP1 PUSH1 0x3 PUSH1 0x0 CALLER PUSH20 0xFFFFFFFFFFFFFFFFFFFFFFFFFFFFFFFFFFFFFFFF AND PUSH20 0xFFFFFFFFFFFFFFFFFFFFFFFFFFFFFFFFFFFFFFFF AND DUP2 MSTORE PUSH1 0x20 ADD SWAP1 DUP2 MSTORE PUSH1 0x20 ADD PUSH1 0x0 KECCAK256 SWAP1 POP DUP5 DUP5 PUSH1 0x40 MLOAD PUSH1 0x20 ADD PUSH2 0x55D SWAP3 SWAP2 SWAP1 PUSH2 0xE86 JUMP JUMPDEST PUSH1 0x40 MLOAD PUSH1 0x20 DUP2 DUP4 SUB SUB DUP2 MSTORE SWAP1 PUSH1 0x40 MSTORE DUP1 MLOAD SWAP1 PUSH1 0x20 ADD KECCAK256 DUP2 PUSH1 0x0 ADD SLOAD EQ DUP1 ISZERO PUSH2 0x589 JUMPI POP DUP5 DUP2 PUSH1 0x1 ADD SLOAD LT ISZERO JUMPDEST ISZERO PUSH2 0x5F8 JUMPI PUSH1 0x2 SLOAD DUP6 GT ISZERO PUSH2 0x5E1 JUMPI DUP5 PUSH1 0x2 DUP2 SWAP1 SSTORE POP CALLER PUSH1 0x1 PUSH1 0x0 PUSH2 0x100 EXP DUP2 SLOAD DUP2 PUSH20 0xFFFFFFFFFFFFFFFFFFFFFFFFFFFFFFFFFFFFFFFF MUL NOT AND SWAP1 DUP4 PUSH20 0xFFFFFFFFFFFFFFFFFFFFFFFFFFFFFFFFFFFFFFFF AND MUL OR SWAP1 SSTORE POP JUMPDEST DUP5 DUP2 PUSH1 0x1 ADD SLOAD PUSH2 0x5F1 SWAP2 SWAP1 PUSH2 0xEE1 JUMP JUMPDEST SWAP2 POP PUSH2 0x600 JUMP JUMPDEST DUP1 PUSH1 0x1 ADD SLOAD SWAP2 POP JUMPDEST PUSH1 0x0 DUP1 SHL DUP2 PUSH1 0x0 ADD DUP2 SWAP1 SSTORE POP DUP2 PUSH1 0x4 PUSH1 0x0 CALLER PUSH20 0xFFFFFFFFFFFFFFFFFFFFFFFFFFFFFFFFFFFFFFFF AND PUSH20 0xFFFFFFFFFFFFFFFFFFFFFFFFFFFFFFFFFFFFFFFF AND DUP2 MSTORE PUSH1 0x20 ADD SWAP1 DUP2 MSTORE PUSH1 0x20 ADD PUSH1 0x0 KECCAK256 PUSH1 0x0 DUP3 DUP3 SLOAD PUSH2 0x65B SWAP2 SWAP1 PUSH2 0xF15 JUMP JUMPDEST SWAP3 POP POP DUP2 SWAP1 SSTORE POP POP POP POP POP POP JUMP JUMPDEST PUSH1 0x3 PUSH1 0x20 MSTORE DUP1 PUSH1 0x0 MSTORE PUSH1 0x40 PUSH1 0x0 KECCAK256 PUSH1 0x0 SWAP2 POP SWAP1 POP DUP1 PUSH1 0x0 ADD SLOAD SWAP1 DUP1 PUSH1 0x1 ADD SLOAD SWAP1 POP DUP3 JUMP JUMPDEST PUSH1 0x1 PUSH1 0x0 SWAP1 SLOAD SWAP1 PUSH2 0x100 EXP SWAP1 DIV PUSH20 0xFFFFFFFFFFFFFFFFFFFFFFFFFFFFFFFFFFFFFFFF AND DUP2 JUMP JUMPDEST PUSH1 0x1 DUP1 PUSH1 0x3 DUP2 GT ISZERO PUSH2 0x6C8 JUMPI PUSH2 0x6C7 PUSH2 0xA98 JUMP JUMPDEST JUMPDEST PUSH1 0x5 PUSH1 0x0 SWAP1 SLOAD SWAP1 PUSH2 0x100 EXP SWAP1 DIV PUSH1 0xFF AND PUSH1 0x3 DUP2 GT ISZERO PUSH2 0x6EA JUMPI PUSH2 0x6E9 PUSH2 0xA98 JUMP JUMPDEST JUMPDEST EQ PUSH2 0x72A JUMPI PUSH1 0x40 MLOAD PUSH32 0x8C379A000000000000000000000000000000000000000000000000000000000 DUP2 MSTORE PUSH1 0x4 ADD PUSH2 0x721 SWAP1 PUSH2 0xE24 JUMP JUMPDEST PUSH1 0x40 MLOAD DUP1 SWAP2 SUB SWAP1 REVERT JUMPDEST PUSH1 0x40 MLOAD DUP1 PUSH1 0x40 ADD PUSH1 0x40 MSTORE DUP1 DUP4 DUP2 MSTORE PUSH1 0x20 ADD CALLVALUE DUP2 MSTORE POP PUSH1 0x3 PUSH1 0x0 CALLER PUSH20 0xFFFFFFFFFFFFFFFFFFFFFFFFFFFFFFFFFFFFFFFF AND PUSH20 0xFFFFFFFFFFFFFFFFFFFFFFFFFFFFFFFFFFFFFFFF AND DUP2 MSTORE PUSH1 0x20 ADD SWAP1 DUP2 MSTORE PUSH1 0x20 ADD PUSH1 0x0 KECCAK256 PUSH1 0x0 DUP3 ADD MLOAD DUP2 PUSH1 0x0 ADD SSTORE PUSH1 0x20 DUP3 ADD MLOAD DUP2 PUSH1 0x1 ADD SSTORE SWAP1 POP POP POP POP JUMP JUMPDEST PUSH1 0x0 DUP1 SLOAD SWAP1 PUSH2 0x100 EXP SWAP1 DIV PUSH20 0xFFFFFFFFFFFFFFFFFFFFFFFFFFFFFFFFFFFFFFFF AND PUSH20 0xFFFFFFFFFFFFFFFFFFFFFFFFFFFFFFFFFFFFFFFF AND CALLER PUSH20 0xFFFFFFFFFFFFFFFFFFFFFFFFFFFFFFFFFFFFFFFF AND EQ PUSH2 0x827 JUMPI PUSH1 0x40 MLOAD PUSH32 0x8C379A000000000000000000000000000000000000000000000000000000000 DUP2 MSTORE PUSH1 0x4 ADD PUSH2 0x81E SWAP1 PUSH2 0xDB8 JUMP JUMPDEST PUSH1 0x40 MLOAD DUP1 SWAP2 SUB SWAP1 REVERT JUMPDEST PUSH1 0x3 DUP1 DUP2 GT ISZERO PUSH2 0x83A JUMPI PUSH2 0x839 PUSH2 0xA98 JUMP JUMPDEST JUMPDEST PUSH1 0x5 PUSH1 0x0 SWAP1 SLOAD SWAP1 PUSH2 0x100 EXP SWAP1 DIV PUSH1 0xFF AND PUSH1 0x3 DUP2 GT ISZERO PUSH2 0x85C JUMPI PUSH2 0x85B PUSH2 0xA98 JUMP JUMPDEST JUMPDEST SUB PUSH2 0x89C JUMPI PUSH1 0x40 MLOAD PUSH32 0x8C379A000000000000000000000000000000000000000000000000000000000 DUP2 MSTORE PUSH1 0x4 ADD PUSH2 0x893 SWAP1 PUSH2 0xF95 JUMP JUMPDEST PUSH1 0x40 MLOAD DUP1 SWAP2 SUB SWAP1 REVERT JUMPDEST PUSH1 0x0 PUSH1 0x3 DUP2 GT ISZERO PUSH2 0x8B0 JUMPI PUSH2 0x8AF PUSH2 0xA98 JUMP JUMPDEST JUMPDEST PUSH1 0x5 PUSH1 0x0 SWAP1 SLOAD SWAP1 PUSH2 0x100 EXP SWAP1 DIV PUSH1 0xFF AND PUSH1 0x3 DUP2 GT ISZERO PUSH2 0x8D2 JUMPI PUSH2 0x8D1 PUSH2 0xA98 JUMP JUMPDEST JUMPDEST SUB PUSH2 0x933 JUMPI PUSH1 0x1 PUSH1 0x5 PUSH1 0x0 PUSH2 0x100 EXP DUP2 SLOAD DUP2 PUSH1 0xFF MUL NOT AND SWAP1 DUP4 PUSH1 0x3 DUP2 GT ISZERO PUSH2 0x8FD JUMPI PUSH2 0x8FC PUSH2 0xA98 JUMP JUMPDEST JUMPDEST MUL OR SWAP1 SSTORE POP PUSH32 0x2C124E22EE7DA1C9905BBB317CF67658C1CC3EA1C0953B1633F85D0B5C281D9 PUSH1 0x40 MLOAD PUSH1 0x40 MLOAD DUP1 SWAP2 SUB SWAP1 LOG1 PUSH2 0xA90 JUMP JUMPDEST PUSH1 0x1 PUSH1 0x3 DUP2 GT ISZERO PUSH2 0x947 JUMPI PUSH2 0x946 PUSH2 0xA98 JUMP JUMPDEST JUMPDEST PUSH1 0x5 PUSH1 0x0 SWAP1 SLOAD SWAP1 PUSH2 0x100 EXP SWAP1 DIV PUSH1 0xFF AND PUSH1 0x3 DUP2 GT ISZERO PUSH2 0x969 JUMPI PUSH2 0x968 PUSH2 0xA98 JUMP JUMPDEST JUMPDEST SUB PUSH2 0x9CA JUMPI PUSH1 0x2 PUSH1 0x5 PUSH1 0x0 PUSH2 0x100 EXP DUP2 SLOAD DUP2 PUSH1 0xFF MUL NOT AND SWAP1 DUP4 PUSH1 0x3 DUP2 GT ISZERO PUSH2 0x994 JUMPI PUSH2 0x993 PUSH2 0xA98 JUMP JUMPDEST JUMPDEST MUL OR SWAP1 SSTORE POP PUSH32 0x3BCC93D35219AA0512D7C0D1CA10B0231F473E3D5F9396877D1B7215EE0AB3D5 PUSH1 0x40 MLOAD PUSH1 0x40 MLOAD DUP1 SWAP2 SUB SWAP1 LOG1 PUSH2 0xA8F JUMP JUMPDEST PUSH1 0x2 PUSH1 0x3 DUP2 GT ISZERO PUSH2 0x9DE JUMPI PUSH2 0x9DD PUSH2 0xA98 JUMP JUMPDEST JUMPDEST PUSH1 0x5 PUSH1 0x0 SWAP1 SLOAD SWAP1 PUSH2 0x100 EXP SWAP1 DIV PUSH1 0xFF AND PUSH1 0x3 DUP2 GT ISZERO PUSH2 0xA00 JUMPI PUSH2 0x9FF PUSH2 0xA98 JUMP JUMPDEST JUMPDEST SUB PUSH2 0xA8E JUMPI PUSH1 0x3 PUSH1 0x5 PUSH1 0x0 PUSH2 0x100 EXP DUP2 SLOAD DUP2 PUSH1 0xFF MUL NOT AND SWAP1 DUP4 PUSH1 0x3 DUP2 GT ISZERO PUSH2 0xA2B JUMPI PUSH2 0xA2A PUSH2 0xA98 JUMP JUMPDEST JUMPDEST MUL OR SWAP1 SSTORE POP PUSH32 0xDAEC4582D5D9595688C8C98545FDD1C696D41C6AEAEB636737E84ED2F5C00EDA PUSH1 0x1 PUSH1 0x0 SWAP1 SLOAD SWAP1 PUSH2 0x100 EXP SWAP1 DIV PUSH20 0xFFFFFFFFFFFFFFFFFFFFFFFFFFFFFFFFFFFFFFFF AND PUSH1 0x2 SLOAD PUSH1 0x40 MLOAD PUSH2 0xA85 SWAP3 SWAP2 SWAP1 PUSH2 0xFB5 JUMP JUMPDEST PUSH1 0x40 MLOAD DUP1 SWAP2 SUB SWAP1 LOG1 JUMPDEST JUMPDEST JUMPDEST JUMP JUMPDEST PUSH1 0x2 SLOAD DUP2 JUMP JUMPDEST PUSH32 0x4E487B7100000000000000000000000000000000000000000000000000000000 PUSH1 0x0 MSTORE PUSH1 0x21 PUSH1 0x4 MSTORE PUSH1 0x24 PUSH1 0x0 REVERT JUMPDEST PUSH1 0x4 DUP2 LT PUSH2 0xAD8 JUMPI PUSH2 0xAD7 PUSH2 0xA98 JUMP JUMPDEST JUMPDEST POP JUMP JUMPDEST PUSH1 0x0 DUP2 SWAP1 POP PUSH2 0xAE9 DUP3 PUSH2 0xAC7 JUMP JUMPDEST SWAP2 SWAP1 POP JUMP JUMPDEST PUSH1 0x0 PUSH2 0xAF9 DUP3 PUSH2 0xADB JUMP JUMPDEST SWAP1 POP SWAP2 SWAP1 POP JUMP JUMPDEST PUSH2 0xB09 DUP2 PUSH2 0xAEE JUMP JUMPDEST DUP3 MSTORE POP POP JUMP JUMPDEST PUSH1 0x0 PUSH1 0x20 DUP3 ADD SWAP1 POP PUSH2 0xB24 PUSH1 0x0 DUP4 ADD DUP5 PUSH2 0xB00 JUMP JUMPDEST SWAP3 SWAP2 POP POP JUMP JUMPDEST PUSH1 0x0 PUSH20 0xFFFFFFFFFFFFFFFFFFFFFFFFFFFFFFFFFFFFFFFF DUP3 AND SWAP1 POP SWAP2 SWAP1 POP JUMP JUMPDEST PUSH1 0x0 PUSH2 0xB55 DUP3 PUSH2 0xB2A JUMP JUMPDEST SWAP1 POP SWAP2 SWAP1 POP JUMP JUMPDEST PUSH2 0xB65 DUP2 PUSH2 0xB4A JUMP JUMPDEST DUP3 MSTORE POP POP JUMP JUMPDEST PUSH1 0x0 PUSH1 0x20 DUP3 ADD SWAP1 POP PUSH2 0xB80 PUSH1 0x0 DUP4 ADD DUP5 PUSH2 0xB5C JUMP JUMPDEST SWAP3 SWAP2 POP POP JUMP JUMPDEST PUSH1 0x0 DUP1 REVERT JUMPDEST PUSH1 0x0 DUP2 SWAP1 POP SWAP2 SWAP1 POP JUMP JUMPDEST PUSH2 0xB9E DUP2 PUSH2 0xB8B JUMP JUMPDEST DUP2 EQ PUSH2 0xBA9 JUMPI PUSH1 0x0 DUP1 REVERT JUMPDEST POP JUMP JUMPDEST PUSH1 0x0 DUP2 CALLDATALOAD SWAP1 POP PUSH2 0xBBB DUP2 PUSH2 0xB95 JUMP JUMPDEST SWAP3 SWAP2 POP POP JUMP JUMPDEST PUSH1 0x0 DUP2 SWAP1 POP SWAP2 SWAP1 POP JUMP JUMPDEST PUSH2 0xBD4 DUP2 PUSH2 0xBC1 JUMP JUMPDEST DUP2 EQ PUSH2 0xBDF JUMPI PUSH1 0x0 DUP1 REVERT JUMPDEST POP JUMP JUMPDEST PUSH1 0x0 DUP2 CALLDATALOAD SWAP1 POP PUSH2 0xBF1 DUP2 PUSH2 0xBCB JUMP JUMPDEST SWAP3 SWAP2 POP POP JUMP JUMPDEST PUSH1 0x0 DUP1 PUSH1 0x40 DUP4 DUP6 SUB SLT ISZERO PUSH2 0xC0E JUMPI PUSH2 0xC0D PUSH2 0xB86 JUMP JUMPDEST JUMPDEST PUSH1 0x0 PUSH2 0xC1C DUP6 DUP3 DUP7 ADD PUSH2 0xBAC JUMP JUMPDEST SWAP3 POP POP PUSH1 0x20 PUSH2 0xC2D DUP6 DUP3 DUP7 ADD PUSH2 0xBE2 JUMP JUMPDEST SWAP2 POP POP SWAP3 POP SWAP3 SWAP1 POP JUMP JUMPDEST PUSH1 0x0 PUSH2 0xC42 DUP3 PUSH2 0xB2A JUMP JUMPDEST SWAP1 POP SWAP2 SWAP1 POP JUMP JUMPDEST PUSH2 0xC52 DUP2 PUSH2 0xC37 JUMP JUMPDEST DUP2 EQ PUSH2 0xC5D JUMPI PUSH1 0x0 DUP1 REVERT JUMPDEST POP JUMP JUMPDEST PUSH1 0x0 DUP2 CALLDATALOAD SWAP1 POP PUSH2 0xC6F DUP2 PUSH2 0xC49 JUMP JUMPDEST SWAP3 SWAP2 POP POP JUMP JUMPDEST PUSH1 0x0 PUSH1 0x20 DUP3 DUP5 SUB SLT ISZERO PUSH2 0xC8B JUMPI PUSH2 0xC8A PUSH2 0xB86 JUMP JUMPDEST JUMPDEST PUSH1 0x0 PUSH2 0xC99 DUP5 DUP3 DUP6 ADD PUSH2 0xC60 JUMP JUMPDEST SWAP2 POP POP SWAP3 SWAP2 POP POP JUMP JUMPDEST PUSH2 0xCAB DUP2 PUSH2 0xBC1 JUMP JUMPDEST DUP3 MSTORE POP POP JUMP JUMPDEST PUSH2 0xCBA DUP2 PUSH2 0xB8B JUMP JUMPDEST DUP3 MSTORE POP POP JUMP JUMPDEST PUSH1 0x0 PUSH1 0x40 DUP3 ADD SWAP1 POP PUSH2 0xCD5 PUSH1 0x0 DUP4 ADD DUP6 PUSH2 0xCA2 JUMP JUMPDEST PUSH2 0xCE2 PUSH1 0x20 DUP4 ADD DUP5 PUSH2 0xCB1 JUMP JUMPDEST SWAP4 SWAP3 POP POP POP JUMP JUMPDEST PUSH2 0xCF2 DUP2 PUSH2 0xC37 JUMP JUMPDEST DUP3 MSTORE POP POP JUMP JUMPDEST PUSH1 0x0 PUSH1 0x20 DUP3 ADD SWAP1 POP PUSH2 0xD0D PUSH1 0x0 DUP4 ADD DUP5 PUSH2 0xCE9 JUMP JUMPDEST SWAP3 SWAP2 POP POP JUMP JUMPDEST PUSH1 0x0 PUSH1 0x20 DUP3 DUP5 SUB SLT ISZERO PUSH2 0xD29 JUMPI PUSH2 0xD28 PUSH2 0xB86 JUMP JUMPDEST JUMPDEST PUSH1 0x0 PUSH2 0xD37 DUP5 DUP3 DUP6 ADD PUSH2 0xBE2 JUMP JUMPDEST SWAP2 POP POP SWAP3 SWAP2 POP POP JUMP JUMPDEST PUSH1 0x0 PUSH1 0x20 DUP3 ADD SWAP1 POP PUSH2 0xD55 PUSH1 0x0 DUP4 ADD DUP5 PUSH2 0xCB1 JUMP JUMPDEST SWAP3 SWAP2 POP POP JUMP JUMPDEST PUSH1 0x0 DUP3 DUP3 MSTORE PUSH1 0x20 DUP3 ADD SWAP1 POP SWAP3 SWAP2 POP POP JUMP JUMPDEST PUSH32 0x4F6E6C792062656E65666963696172792063616E2063616C6C20746869730000 PUSH1 0x0 DUP3 ADD MSTORE POP JUMP JUMPDEST PUSH1 0x0 PUSH2 0xDA2 PUSH1 0x1E DUP4 PUSH2 0xD5B JUMP JUMPDEST SWAP2 POP PUSH2 0xDAD DUP3 PUSH2 0xD6C JUMP JUMPDEST PUSH1 0x20 DUP3 ADD SWAP1 POP SWAP2 SWAP1 POP JUMP JUMPDEST PUSH1 0x0 PUSH1 0x20 DUP3 ADD SWAP1 POP DUP2 DUP2 SUB PUSH1 0x0 DUP4 ADD MSTORE PUSH2 0xDD1 DUP2 PUSH2 0xD95 JUMP JUMPDEST SWAP1 POP SWAP2 SWAP1 POP JUMP JUMPDEST PUSH32 0x496E76616C696420706861736500000000000000000000000000000000000000 PUSH1 0x0 DUP3 ADD MSTORE POP JUMP JUMPDEST PUSH1 0x0 PUSH2 0xE0E PUSH1 0xD DUP4 PUSH2 0xD5B JUMP JUMPDEST SWAP2 POP PUSH2 0xE19 DUP3 PUSH2 0xDD8 JUMP JUMPDEST PUSH1 0x20 DUP3 ADD SWAP1 POP SWAP2 SWAP1 POP JUMP JUMPDEST PUSH1 0x0 PUSH1 0x20 DUP3 ADD SWAP1 POP DUP2 DUP2 SUB PUSH1 0x0 DUP4 ADD MSTORE PUSH2 0xE3D DUP2 PUSH2 0xE01 JUMP JUMPDEST SWAP1 POP SWAP2 SWAP1 POP JUMP JUMPDEST PUSH1 0x0 DUP2 SWAP1 POP SWAP2 SWAP1 POP JUMP JUMPDEST PUSH2 0xE5F PUSH2 0xE5A DUP3 PUSH2 0xB8B JUMP JUMPDEST PUSH2 0xE44 JUMP JUMPDEST DUP3 MSTORE POP POP JUMP JUMPDEST PUSH1 0x0 DUP2 SWAP1 POP SWAP2 SWAP1 POP JUMP JUMPDEST PUSH2 0xE80 PUSH2 0xE7B DUP3 PUSH2 0xBC1 JUMP JUMPDEST PUSH2 0xE65 JUMP JUMPDEST DUP3 MSTORE POP POP JUMP JUMPDEST PUSH1 0x0 PUSH2 0xE92 DUP3 DUP6 PUSH2 0xE4E JUMP JUMPDEST PUSH1 0x20 DUP3 ADD SWAP2 POP PUSH2 0xEA2 DUP3 DUP5 PUSH2 0xE6F JUMP JUMPDEST PUSH1 0x20 DUP3 ADD SWAP2 POP DUP2 SWAP1 POP SWAP4 SWAP3 POP POP POP JUMP JUMPDEST PUSH32 0x4E487B7100000000000000000000000000000000000000000000000000000000 PUSH1 0x0 MSTORE PUSH1 0x11 PUSH1 0x4 MSTORE PUSH1 0x24 PUSH1 0x0 REVERT JUMPDEST PUSH1 0x0 PUSH2 0xEEC DUP3 PUSH2 0xB8B JUMP JUMPDEST SWAP2 POP PUSH2 0xEF7 DUP4 PUSH2 0xB8B JUMP JUMPDEST SWAP3 POP DUP3 DUP3 SUB SWAP1 POP DUP2 DUP2 GT ISZERO PUSH2 0xF0F JUMPI PUSH2 0xF0E PUSH2 0xEB2 JUMP JUMPDEST JUMPDEST SWAP3 SWAP2 POP POP JUMP JUMPDEST PUSH1 0x0 PUSH2 0xF20 DUP3 PUSH2 0xB8B JUMP JUMPDEST SWAP2 POP PUSH2 0xF2B DUP4 PUSH2 0xB8B JUMP JUMPDEST SWAP3 POP DUP3 DUP3 ADD SWAP1 POP DUP1 DUP3 GT ISZERO PUSH2 0xF43 JUMPI PUSH2 0xF42 PUSH2 0xEB2 JUMP JUMPDEST JUMPDEST SWAP3 SWAP2 POP POP JUMP JUMPDEST PUSH32 0x41756374696F6E20616C726561647920656E6465640000000000000000000000 PUSH1 0x0 DUP3 ADD MSTORE POP JUMP JUMPDEST PUSH1 0x0 PUSH2 0xF7F PUSH1 0x15 DUP4 PUSH2 0xD5B JUMP JUMPDEST SWAP2 POP PUSH2 0xF8A DUP3 PUSH2 0xF49 JUMP JUMPDEST PUSH1 0x20 DUP3 ADD SWAP1 POP SWAP2 SWAP1 POP JUMP JUMPDEST PUSH1 0x0 PUSH1 0x20 DUP3 ADD SWAP1 POP DUP2 DUP2 SUB PUSH1 0x0 DUP4 ADD MSTORE PUSH2 0xFAE DUP2 PUSH2 0xF72 JUMP JUMPDEST SWAP1 POP SWAP2 SWAP1 POP JUMP JUMPDEST PUSH1 0x0 PUSH1 0x40 DUP3 ADD SWAP1 POP PUSH2 0xFCA PUSH1 0x0 DUP4 ADD DUP6 PUSH2 0xCE9 JUMP JUMPDEST PUSH2 0xFD7 PUSH1 0x20 DUP4 ADD DUP5 PUSH2 0xCB1 JUMP JUMPDEST SWAP4 SWAP3 POP POP POP JUMP INVALID LOG2 PUSH5 0x6970667358 0x22 SLT KECCAK256 JUMPDEST 0xC7 BALANCE PUSH15 0x31FD3C046977E83C2DA1277C341981 PUSH4 0xB82DE817 SWAP2 BALANCE PUSH7 0xB325DBC0096473 PUSH16 0x6C634300081200330000000000000000 "
				},
				"gasEstimates": {
					"creation": {
						"codeDepositCost": "823200",
						"executionCost": "49422",
						"totalCost": "872622"
					},
					"external": {
						"advancePhase()": "41345",
						"auctionEnd()": "infinite",
						"beneficiary()": "2556",
						"bid(bytes32)": "47041",
						"bids(address)": "5040",
						"currentPhase()": "2561",
						"highestBid()": "2517",
						"highestBidder()": "2536",
						"reveal(uint256,bytes32)": "infinite",
						"withdraw()": "infinite"
					}
				},
				"methodIdentifiers": {
					"advancePhase()": "be25a718",
					"auctionEnd()": "2a24f46c",
					"beneficiary()": "38af3eed",
					"bid(bytes32)": "957bb1e0",
					"bids(address)": "62ea82db",
					"currentPhase()": "055ad42e",
					"highestBid()": "d57bde79",
					"highestBidder()": "91f90157",
					"reveal(uint256,bytes32)": "4036778f",
					"withdraw()": "3ccfd60b"
				}
			},
			"storageLayout": {
				"storage": [
					{
						"astId": 13,
						"contract": "Projects/BlindAuction-Dapp/blindauction-contract/contracts/BlindAuction.sol:BlindAuction",
						"label": "beneficiary",
						"offset": 0,
						"slot": "0",
						"type": "t_address_payable"
					},
					{
						"astId": 15,
						"contract": "Projects/BlindAuction-Dapp/blindauction-contract/contracts/BlindAuction.sol:BlindAuction",
						"label": "highestBidder",
						"offset": 0,
						"slot": "1",
						"type": "t_address"
					},
					{
						"astId": 17,
						"contract": "Projects/BlindAuction-Dapp/blindauction-contract/contracts/BlindAuction.sol:BlindAuction",
						"label": "highestBid",
						"offset": 0,
						"slot": "2",
						"type": "t_uint256"
					},
					{
						"astId": 22,
						"contract": "Projects/BlindAuction-Dapp/blindauction-contract/contracts/BlindAuction.sol:BlindAuction",
						"label": "bids",
						"offset": 0,
						"slot": "3",
						"type": "t_mapping(t_address,t_struct(Bid)6_storage)"
					},
					{
						"astId": 26,
						"contract": "Projects/BlindAuction-Dapp/blindauction-contract/contracts/BlindAuction.sol:BlindAuction",
						"label": "pendingReturns",
						"offset": 0,
						"slot": "4",
						"type": "t_mapping(t_address,t_uint256)"
					},
					{
						"astId": 31,
						"contract": "Projects/BlindAuction-Dapp/blindauction-contract/contracts/BlindAuction.sol:BlindAuction",
						"label": "currentPhase",
						"offset": 0,
						"slot": "5",
						"type": "t_enum(Phase)11"
					}
				],
				"types": {
					"t_address": {
						"encoding": "inplace",
						"label": "address",
						"numberOfBytes": "20"
					},
					"t_address_payable": {
						"encoding": "inplace",
						"label": "address payable",
						"numberOfBytes": "20"
					},
					"t_bytes32": {
						"encoding": "inplace",
						"label": "bytes32",
						"numberOfBytes": "32"
					},
					"t_enum(Phase)11": {
						"encoding": "inplace",
						"label": "enum BlindAuction.Phase",
						"numberOfBytes": "1"
					},
					"t_mapping(t_address,t_struct(Bid)6_storage)": {
						"encoding": "mapping",
						"key": "t_address",
						"label": "mapping(address => struct BlindAuction.Bid)",
						"numberOfBytes": "32",
						"value": "t_struct(Bid)6_storage"
					},
					"t_mapping(t_address,t_uint256)": {
						"encoding": "mapping",
						"key": "t_address",
						"label": "mapping(address => uint256)",
						"numberOfBytes": "32",
						"value": "t_uint256"
					},
					"t_struct(Bid)6_storage": {
						"encoding": "inplace",
						"label": "struct BlindAuction.Bid",
						"members": [
							{
								"astId": 3,
								"contract": "Projects/BlindAuction-Dapp/blindauction-contract/contracts/BlindAuction.sol:BlindAuction",
								"label": "blindedBid",
								"offset": 0,
								"slot": "0",
								"type": "t_bytes32"
							},
							{
								"astId": 5,
								"contract": "Projects/BlindAuction-Dapp/blindauction-contract/contracts/BlindAuction.sol:BlindAuction",
								"label": "deposit",
								"offset": 0,
								"slot": "1",
								"type": "t_uint256"
							}
						],
						"numberOfBytes": "64"
					},
					"t_uint256": {
						"encoding": "inplace",
						"label": "uint256",
						"numberOfBytes": "32"
					}
				}
			},
			"userdoc": {
				"kind": "user",
				"methods": {},
				"version": 1
			}
		}
	}
}