{
	"Projects/BlindAuction-Dapp/blindauction-contract/contracts/BlindAuction.sol": {
		"BlindAuction": {
			"abi": [
				{
					"inputs": [],
					"stateMutability": "nonpayable",
					"type": "constructor"
				},
				{
					"anonymous": false,
					"inputs": [
						{
							"indexed": false,
							"internalType": "address",
							"name": "winner",
							"type": "address"
						},
						{
							"indexed": false,
							"internalType": "uint256",
							"name": "highestBid",
							"type": "uint256"
						}
					],
					"name": "AuctionEnded",
					"type": "event"
				},
				{
					"anonymous": false,
					"inputs": [],
					"name": "AuctionInit",
					"type": "event"
				},
				{
					"anonymous": false,
					"inputs": [],
					"name": "BiddingStarted",
					"type": "event"
				},
				{
					"anonymous": false,
					"inputs": [],
					"name": "RevealStarted",
					"type": "event"
				},
				{
					"inputs": [],
					"name": "advancePhase",
					"outputs": [],
					"stateMutability": "nonpayable",
					"type": "function"
				},
				{
					"inputs": [],
					"name": "auctionEnd",
					"outputs": [],
					"stateMutability": "nonpayable",
					"type": "function"
				},
				{
					"inputs": [],
					"name": "beneficiary",
					"outputs": [
						{
							"internalType": "address payable",
							"name": "",
							"type": "address"
						}
					],
					"stateMutability": "view",
					"type": "function"
				},
				{
					"inputs": [
						{
							"internalType": "bytes32",
							"name": "_blindedBid",
							"type": "bytes32"
						}
					],
					"name": "bid",
					"outputs": [],
					"stateMutability": "payable",
					"type": "function"
				},
				{
					"inputs": [
						{
							"internalType": "address",
							"name": "",
							"type": "address"
						}
					],
					"name": "bids",
					"outputs": [
						{
							"internalType": "bytes32",
							"name": "blindedBid",
							"type": "bytes32"
						},
						{
							"internalType": "uint256",
							"name": "deposit",
							"type": "uint256"
						}
					],
					"stateMutability": "view",
					"type": "function"
				},
				{
					"inputs": [],
					"name": "checkRefund",
					"outputs": [
						{
							"internalType": "uint256",
							"name": "",
							"type": "uint256"
						}
					],
					"stateMutability": "view",
					"type": "function"
				},
				{
					"inputs": [],
					"name": "currentPhase",
					"outputs": [
						{
							"internalType": "enum BlindAuction.Phase",
							"name": "",
							"type": "uint8"
						}
					],
					"stateMutability": "view",
					"type": "function"
				},
				{
					"inputs": [],
					"name": "highestBid",
					"outputs": [
						{
							"internalType": "uint256",
							"name": "",
							"type": "uint256"
						}
					],
					"stateMutability": "view",
					"type": "function"
				},
				{
					"inputs": [],
					"name": "highestBidder",
					"outputs": [
						{
							"internalType": "address",
							"name": "",
							"type": "address"
						}
					],
					"stateMutability": "view",
					"type": "function"
				},
				{
					"inputs": [],
					"name": "khashContract",
					"outputs": [
						{
							"internalType": "contract Khash",
							"name": "",
							"type": "address"
						}
					],
					"stateMutability": "view",
					"type": "function"
				},
				{
					"inputs": [
						{
							"internalType": "uint256",
							"name": "_value",
							"type": "uint256"
						},
						{
							"internalType": "bytes32",
							"name": "_password",
							"type": "bytes32"
						}
					],
					"name": "reveal",
					"outputs": [],
					"stateMutability": "nonpayable",
					"type": "function"
				},
				{
					"inputs": [],
					"name": "withdraw",
					"outputs": [],
					"stateMutability": "nonpayable",
					"type": "function"
				}
			],
			"devdoc": {
				"kind": "dev",
				"methods": {},
				"version": 1
			},
			"evm": {
				"assembly": "    /* \"Projects/BlindAuction-Dapp/blindauction-contract/contracts/BlindAuction.sol\":281:3945  contract BlindAuction {... */\n  mstore(0x40, 0x80)\n    /* \"Projects/BlindAuction-Dapp/blindauction-contract/contracts/BlindAuction.sol\":604:614  Phase.Init */\n  0x00\n    /* \"Projects/BlindAuction-Dapp/blindauction-contract/contracts/BlindAuction.sol\":576:614  Phase public currentPhase = Phase.Init */\n  0x01\n  exp(0x0100, 0x14)\n  dup2\n  sload\n  dup2\n  0xff\n  mul\n  not\n  and\n  swap1\n  dup4\n  0x03\n  dup2\n  gt\n  iszero\n  tag_1\n  jumpi\n  tag_2\n  tag_3\n  jump\t// in\ntag_2:\ntag_1:\n  mul\n  or\n  swap1\n  sstore\n  pop\n    /* \"Projects/BlindAuction-Dapp/blindauction-contract/contracts/BlindAuction.sol\":1219:1352  constructor() {... */\n  callvalue\n  dup1\n  iszero\n  tag_4\n  jumpi\n  0x00\n  dup1\n  revert\ntag_4:\n  pop\n    /* \"Projects/BlindAuction-Dapp/blindauction-contract/contracts/BlindAuction.sol\":1266:1276  msg.sender */\n  caller\n    /* \"Projects/BlindAuction-Dapp/blindauction-contract/contracts/BlindAuction.sol\":1244:1255  beneficiary */\n  0x01\n  0x00\n    /* \"Projects/BlindAuction-Dapp/blindauction-contract/contracts/BlindAuction.sol\":1244:1277  beneficiary = payable(msg.sender) */\n  0x0100\n  exp\n  dup2\n  sload\n  dup2\n  0xffffffffffffffffffffffffffffffffffffffff\n  mul\n  not\n  and\n  swap1\n  dup4\n  0xffffffffffffffffffffffffffffffffffffffff\n  and\n  mul\n  or\n  swap1\n  sstore\n  pop\n    /* \"Projects/BlindAuction-Dapp/blindauction-contract/contracts/BlindAuction.sol\":1304:1315  new Khash() */\n  mload(0x40)\n  tag_7\n  swap1\n  tag_8\n  jump\t// in\ntag_7:\n  mload(0x40)\n  dup1\n  swap2\n  sub\n  swap1\n  0x00\n  create\n  dup1\n  iszero\n  dup1\n  iszero\n  tag_9\n  jumpi\n  returndatasize\n  0x00\n  dup1\n  returndatacopy\n  revert(0x00, returndatasize)\ntag_9:\n  pop\n    /* \"Projects/BlindAuction-Dapp/blindauction-contract/contracts/BlindAuction.sol\":1288:1301  khashContract */\n  0x00\n  dup1\n    /* \"Projects/BlindAuction-Dapp/blindauction-contract/contracts/BlindAuction.sol\":1288:1315  khashContract = new Khash() */\n  0x0100\n  exp\n  dup2\n  sload\n  dup2\n  0xffffffffffffffffffffffffffffffffffffffff\n  mul\n  not\n  and\n  swap1\n  dup4\n  0xffffffffffffffffffffffffffffffffffffffff\n  and\n  mul\n  or\n  swap1\n  sstore\n  pop\n    /* \"Projects/BlindAuction-Dapp/blindauction-contract/contracts/BlindAuction.sol\":281:3945  contract BlindAuction {... */\n  jump(tag_10)\ntag_8:\n  dataSize(sub_1)\n  dup1\n  dataOffset(sub_1)\n  dup4\n  codecopy\n  add\n  swap1\n  jump\t// out\n    /* \"#utility.yul\":7:187   */\ntag_3:\n    /* \"#utility.yul\":55:132   */\n  0x4e487b7100000000000000000000000000000000000000000000000000000000\n    /* \"#utility.yul\":52:53   */\n  0x00\n    /* \"#utility.yul\":45:133   */\n  mstore\n    /* \"#utility.yul\":152:156   */\n  0x21\n    /* \"#utility.yul\":149:150   */\n  0x04\n    /* \"#utility.yul\":142:157   */\n  mstore\n    /* \"#utility.yul\":176:180   */\n  0x24\n    /* \"#utility.yul\":173:174   */\n  0x00\n    /* \"#utility.yul\":166:181   */\n  revert\n    /* \"Projects/BlindAuction-Dapp/blindauction-contract/contracts/BlindAuction.sol\":281:3945  contract BlindAuction {... */\ntag_10:\n  dataSize(sub_0)\n  dup1\n  dataOffset(sub_0)\n  0x00\n  codecopy\n  0x00\n  return\nstop\n\nsub_0: assembly {\n        /* \"Projects/BlindAuction-Dapp/blindauction-contract/contracts/BlindAuction.sol\":281:3945  contract BlindAuction {... */\n      mstore(0x40, 0x80)\n      jumpi(tag_1, lt(calldatasize, 0x04))\n      shr(0xe0, calldataload(0x00))\n      dup1\n      0x63142015\n      gt\n      tag_14\n      jumpi\n      dup1\n      0x63142015\n      eq\n      tag_8\n      jumpi\n      dup1\n      0x91f90157\n      eq\n      tag_9\n      jumpi\n      dup1\n      0x94c246d5\n      eq\n      tag_10\n      jumpi\n      dup1\n      0x957bb1e0\n      eq\n      tag_11\n      jumpi\n      dup1\n      0xbe25a718\n      eq\n      tag_12\n      jumpi\n      dup1\n      0xd57bde79\n      eq\n      tag_13\n      jumpi\n      jump(tag_1)\n    tag_14:\n      dup1\n      0x055ad42e\n      eq\n      tag_2\n      jumpi\n      dup1\n      0x2a24f46c\n      eq\n      tag_3\n      jumpi\n      dup1\n      0x38af3eed\n      eq\n      tag_4\n      jumpi\n      dup1\n      0x3ccfd60b\n      eq\n      tag_5\n      jumpi\n      dup1\n      0x4036778f\n      eq\n      tag_6\n      jumpi\n      dup1\n      0x62ea82db\n      eq\n      tag_7\n      jumpi\n    tag_1:\n      0x00\n      dup1\n      revert\n        /* \"Projects/BlindAuction-Dapp/blindauction-contract/contracts/BlindAuction.sol\":576:614  Phase public currentPhase = Phase.Init */\n    tag_2:\n      callvalue\n      dup1\n      iszero\n      tag_15\n      jumpi\n      0x00\n      dup1\n      revert\n    tag_15:\n      pop\n      tag_16\n      tag_17\n      jump\t// in\n    tag_16:\n      mload(0x40)\n      tag_18\n      swap2\n      swap1\n      tag_19\n      jump\t// in\n    tag_18:\n      mload(0x40)\n      dup1\n      swap2\n      sub\n      swap1\n      return\n        /* \"Projects/BlindAuction-Dapp/blindauction-contract/contracts/BlindAuction.sol\":3660:3942  function auctionEnd() ... */\n    tag_3:\n      callvalue\n      dup1\n      iszero\n      tag_20\n      jumpi\n      0x00\n      dup1\n      revert\n    tag_20:\n      pop\n      tag_21\n      tag_22\n      jump\t// in\n    tag_21:\n      stop\n        /* \"Projects/BlindAuction-Dapp/blindauction-contract/contracts/BlindAuction.sol\":535:569  address payable public beneficiary */\n    tag_4:\n      callvalue\n      dup1\n      iszero\n      tag_23\n      jumpi\n      0x00\n      dup1\n      revert\n    tag_23:\n      pop\n      tag_24\n      tag_25\n      jump\t// in\n    tag_24:\n      mload(0x40)\n      tag_26\n      swap2\n      swap1\n      tag_27\n      jump\t// in\n    tag_26:\n      mload(0x40)\n      dup1\n      swap2\n      sub\n      swap1\n      return\n        /* \"Projects/BlindAuction-Dapp/blindauction-contract/contracts/BlindAuction.sol\":3257:3507  function withdraw() ... */\n    tag_5:\n      callvalue\n      dup1\n      iszero\n      tag_28\n      jumpi\n      0x00\n      dup1\n      revert\n    tag_28:\n      pop\n      tag_29\n      tag_30\n      jump\t// in\n    tag_29:\n      stop\n        /* \"Projects/BlindAuction-Dapp/blindauction-contract/contracts/BlindAuction.sol\":2266:3245  function reveal(uint _value, bytes32 _password) ... */\n    tag_6:\n      callvalue\n      dup1\n      iszero\n      tag_31\n      jumpi\n      0x00\n      dup1\n      revert\n    tag_31:\n      pop\n      tag_32\n      0x04\n      dup1\n      calldatasize\n      sub\n      dup2\n      add\n      swap1\n      tag_33\n      swap2\n      swap1\n      tag_34\n      jump\t// in\n    tag_33:\n      tag_35\n      jump\t// in\n    tag_32:\n      stop\n        /* \"Projects/BlindAuction-Dapp/blindauction-contract/contracts/BlindAuction.sol\":623:658  mapping(address => Bid) public bids */\n    tag_7:\n      callvalue\n      dup1\n      iszero\n      tag_36\n      jumpi\n      0x00\n      dup1\n      revert\n    tag_36:\n      pop\n      tag_37\n      0x04\n      dup1\n      calldatasize\n      sub\n      dup2\n      add\n      swap1\n      tag_38\n      swap2\n      swap1\n      tag_39\n      jump\t// in\n    tag_38:\n      tag_40\n      jump\t// in\n    tag_37:\n      mload(0x40)\n      tag_41\n      swap3\n      swap2\n      swap1\n      tag_42\n      jump\t// in\n    tag_41:\n      mload(0x40)\n      dup1\n      swap2\n      sub\n      swap1\n      return\n        /* \"Projects/BlindAuction-Dapp/blindauction-contract/contracts/BlindAuction.sol\":310:336  Khash public khashContract */\n    tag_8:\n      callvalue\n      dup1\n      iszero\n      tag_43\n      jumpi\n      0x00\n      dup1\n      revert\n    tag_43:\n      pop\n      tag_44\n      tag_45\n      jump\t// in\n    tag_44:\n      mload(0x40)\n      tag_46\n      swap2\n      swap1\n      tag_47\n      jump\t// in\n    tag_46:\n      mload(0x40)\n      dup1\n      swap2\n      sub\n      swap1\n      return\n        /* \"Projects/BlindAuction-Dapp/blindauction-contract/contracts/BlindAuction.sol\":733:761  address public highestBidder */\n    tag_9:\n      callvalue\n      dup1\n      iszero\n      tag_48\n      jumpi\n      0x00\n      dup1\n      revert\n    tag_48:\n      pop\n      tag_49\n      tag_50\n      jump\t// in\n    tag_49:\n      mload(0x40)\n      tag_51\n      swap2\n      swap1\n      tag_52\n      jump\t// in\n    tag_51:\n      mload(0x40)\n      dup1\n      swap2\n      sub\n      swap1\n      return\n        /* \"Projects/BlindAuction-Dapp/blindauction-contract/contracts/BlindAuction.sol\":3515:3652  function checkRefund()... */\n    tag_10:\n      callvalue\n      dup1\n      iszero\n      tag_53\n      jumpi\n      0x00\n      dup1\n      revert\n    tag_53:\n      pop\n      tag_54\n      tag_55\n      jump\t// in\n    tag_54:\n      mload(0x40)\n      tag_56\n      swap2\n      swap1\n      tag_57\n      jump\t// in\n    tag_56:\n      mload(0x40)\n      dup1\n      swap2\n      sub\n      swap1\n      return\n        /* \"Projects/BlindAuction-Dapp/blindauction-contract/contracts/BlindAuction.sol\":2015:2258  function bid(bytes32 _blindedBid) ... */\n    tag_11:\n      tag_58\n      0x04\n      dup1\n      calldatasize\n      sub\n      dup2\n      add\n      swap1\n      tag_59\n      swap2\n      swap1\n      tag_60\n      jump\t// in\n    tag_59:\n      tag_61\n      jump\t// in\n    tag_58:\n      stop\n        /* \"Projects/BlindAuction-Dapp/blindauction-contract/contracts/BlindAuction.sol\":1360:2007  function advancePhase() ... */\n    tag_12:\n      callvalue\n      dup1\n      iszero\n      tag_62\n      jumpi\n      0x00\n      dup1\n      revert\n    tag_62:\n      pop\n      tag_63\n      tag_64\n      jump\t// in\n    tag_63:\n      stop\n        /* \"Projects/BlindAuction-Dapp/blindauction-contract/contracts/BlindAuction.sol\":768:790  uint public highestBid */\n    tag_13:\n      callvalue\n      dup1\n      iszero\n      tag_65\n      jumpi\n      0x00\n      dup1\n      revert\n    tag_65:\n      pop\n      tag_66\n      tag_67\n      jump\t// in\n    tag_66:\n      mload(0x40)\n      tag_68\n      swap2\n      swap1\n      tag_57\n      jump\t// in\n    tag_68:\n      mload(0x40)\n      dup1\n      swap2\n      sub\n      swap1\n      return\n        /* \"Projects/BlindAuction-Dapp/blindauction-contract/contracts/BlindAuction.sol\":576:614  Phase public currentPhase = Phase.Init */\n    tag_17:\n      0x01\n      0x14\n      swap1\n      sload\n      swap1\n      0x0100\n      exp\n      swap1\n      div\n      0xff\n      and\n      dup2\n      jump\t// out\n        /* \"Projects/BlindAuction-Dapp/blindauction-contract/contracts/BlindAuction.sol\":3660:3942  function auctionEnd() ... */\n    tag_22:\n        /* \"Projects/BlindAuction-Dapp/blindauction-contract/contracts/BlindAuction.sol\":1027:1038  beneficiary */\n      0x01\n      0x00\n      swap1\n      sload\n      swap1\n      0x0100\n      exp\n      swap1\n      div\n      0xffffffffffffffffffffffffffffffffffffffff\n      and\n        /* \"Projects/BlindAuction-Dapp/blindauction-contract/contracts/BlindAuction.sol\":1013:1038  msg.sender == beneficiary */\n      0xffffffffffffffffffffffffffffffffffffffff\n      and\n        /* \"Projects/BlindAuction-Dapp/blindauction-contract/contracts/BlindAuction.sol\":1013:1023  msg.sender */\n      caller\n        /* \"Projects/BlindAuction-Dapp/blindauction-contract/contracts/BlindAuction.sol\":1013:1038  msg.sender == beneficiary */\n      0xffffffffffffffffffffffffffffffffffffffff\n      and\n      eq\n        /* \"Projects/BlindAuction-Dapp/blindauction-contract/contracts/BlindAuction.sol\":1005:1073  require(msg.sender == beneficiary, \"Only beneficiary can call this\") */\n      tag_70\n      jumpi\n      mload(0x40)\n      0x08c379a000000000000000000000000000000000000000000000000000000000\n      dup2\n      mstore\n      0x04\n      add\n      tag_71\n      swap1\n      tag_72\n      jump\t// in\n    tag_71:\n      mload(0x40)\n      dup1\n      swap2\n      sub\n      swap1\n      revert\n    tag_70:\n        /* \"Projects/BlindAuction-Dapp/blindauction-contract/contracts/BlindAuction.sol\":3745:3755  Phase.Done */\n      0x03\n        /* \"Projects/BlindAuction-Dapp/blindauction-contract/contracts/BlindAuction.sol\":1167:1173  _phase */\n      dup1\n        /* \"Projects/BlindAuction-Dapp/blindauction-contract/contracts/BlindAuction.sol\":1151:1173  currentPhase == _phase */\n      0x03\n      dup2\n      gt\n      iszero\n      tag_74\n      jumpi\n      tag_75\n      tag_76\n      jump\t// in\n    tag_75:\n    tag_74:\n        /* \"Projects/BlindAuction-Dapp/blindauction-contract/contracts/BlindAuction.sol\":1151:1163  currentPhase */\n      0x01\n      0x14\n      swap1\n      sload\n      swap1\n      0x0100\n      exp\n      swap1\n      div\n      0xff\n      and\n        /* \"Projects/BlindAuction-Dapp/blindauction-contract/contracts/BlindAuction.sol\":1151:1173  currentPhase == _phase */\n      0x03\n      dup2\n      gt\n      iszero\n      tag_77\n      jumpi\n      tag_78\n      tag_76\n      jump\t// in\n    tag_78:\n    tag_77:\n      eq\n        /* \"Projects/BlindAuction-Dapp/blindauction-contract/contracts/BlindAuction.sol\":1143:1191  require(currentPhase == _phase, \"Invalid phase\") */\n      tag_79\n      jumpi\n      mload(0x40)\n      0x08c379a000000000000000000000000000000000000000000000000000000000\n      dup2\n      mstore\n      0x04\n      add\n      tag_80\n      swap1\n      tag_81\n      jump\t// in\n    tag_80:\n      mload(0x40)\n      dup1\n      swap2\n      sub\n      swap1\n      revert\n    tag_79:\n        /* \"Projects/BlindAuction-Dapp/blindauction-contract/contracts/BlindAuction.sol\":3801:3802  0 */\n      0x00\n        /* \"Projects/BlindAuction-Dapp/blindauction-contract/contracts/BlindAuction.sol\":3776:3803  highestBidder != address(0) */\n      0xffffffffffffffffffffffffffffffffffffffff\n      and\n        /* \"Projects/BlindAuction-Dapp/blindauction-contract/contracts/BlindAuction.sol\":3776:3789  highestBidder */\n      0x04\n      0x00\n      swap1\n      sload\n      swap1\n      0x0100\n      exp\n      swap1\n      div\n      0xffffffffffffffffffffffffffffffffffffffff\n      and\n        /* \"Projects/BlindAuction-Dapp/blindauction-contract/contracts/BlindAuction.sol\":3776:3803  highestBidder != address(0) */\n      0xffffffffffffffffffffffffffffffffffffffff\n      and\n      eq\n        /* \"Projects/BlindAuction-Dapp/blindauction-contract/contracts/BlindAuction.sol\":3772:3872  if (highestBidder != address(0)) {... */\n      tag_83\n      jumpi\n        /* \"Projects/BlindAuction-Dapp/blindauction-contract/contracts/BlindAuction.sol\":3824:3835  beneficiary */\n      0x01\n      0x00\n      swap1\n      sload\n      swap1\n      0x0100\n      exp\n      swap1\n      div\n      0xffffffffffffffffffffffffffffffffffffffff\n      and\n        /* \"Projects/BlindAuction-Dapp/blindauction-contract/contracts/BlindAuction.sol\":3824:3844  beneficiary.transfer */\n      0xffffffffffffffffffffffffffffffffffffffff\n      and\n        /* \"Projects/BlindAuction-Dapp/blindauction-contract/contracts/BlindAuction.sol\":3824:3856  beneficiary.transfer(highestBid) */\n      0x08fc\n        /* \"Projects/BlindAuction-Dapp/blindauction-contract/contracts/BlindAuction.sol\":3845:3855  highestBid */\n      sload(0x05)\n        /* \"Projects/BlindAuction-Dapp/blindauction-contract/contracts/BlindAuction.sol\":3824:3856  beneficiary.transfer(highestBid) */\n      swap1\n      dup2\n      iszero\n      mul\n      swap1\n      mload(0x40)\n      0x00\n      mload(0x40)\n      dup1\n      dup4\n      sub\n      dup2\n      dup6\n      dup9\n      dup9\n      call\n      swap4\n      pop\n      pop\n      pop\n      pop\n      iszero\n      dup1\n      iszero\n      tag_85\n      jumpi\n      returndatasize\n      0x00\n      dup1\n      returndatacopy\n      revert(0x00, returndatasize)\n    tag_85:\n      pop\n        /* \"Projects/BlindAuction-Dapp/blindauction-contract/contracts/BlindAuction.sol\":3772:3872  if (highestBidder != address(0)) {... */\n    tag_83:\n        /* \"Projects/BlindAuction-Dapp/blindauction-contract/contracts/BlindAuction.sol\":3891:3930  AuctionEnded(highestBidder, highestBid) */\n      0xdaec4582d5d9595688c8c98545fdd1c696d41c6aeaeb636737e84ed2f5c00eda\n        /* \"Projects/BlindAuction-Dapp/blindauction-contract/contracts/BlindAuction.sol\":3904:3917  highestBidder */\n      0x04\n      0x00\n      swap1\n      sload\n      swap1\n      0x0100\n      exp\n      swap1\n      div\n      0xffffffffffffffffffffffffffffffffffffffff\n      and\n        /* \"Projects/BlindAuction-Dapp/blindauction-contract/contracts/BlindAuction.sol\":3919:3929  highestBid */\n      sload(0x05)\n        /* \"Projects/BlindAuction-Dapp/blindauction-contract/contracts/BlindAuction.sol\":3891:3930  AuctionEnded(highestBidder, highestBid) */\n      mload(0x40)\n      tag_86\n      swap3\n      swap2\n      swap1\n      tag_87\n      jump\t// in\n    tag_86:\n      mload(0x40)\n      dup1\n      swap2\n      sub\n      swap1\n      log1\n        /* \"Projects/BlindAuction-Dapp/blindauction-contract/contracts/BlindAuction.sol\":1084:1085  _ */\n      pop\n        /* \"Projects/BlindAuction-Dapp/blindauction-contract/contracts/BlindAuction.sol\":3660:3942  function auctionEnd() ... */\n      jump\t// out\n        /* \"Projects/BlindAuction-Dapp/blindauction-contract/contracts/BlindAuction.sol\":535:569  address payable public beneficiary */\n    tag_25:\n      0x01\n      0x00\n      swap1\n      sload\n      swap1\n      0x0100\n      exp\n      swap1\n      div\n      0xffffffffffffffffffffffffffffffffffffffff\n      and\n      dup2\n      jump\t// out\n        /* \"Projects/BlindAuction-Dapp/blindauction-contract/contracts/BlindAuction.sol\":3257:3507  function withdraw() ... */\n    tag_30:\n        /* \"Projects/BlindAuction-Dapp/blindauction-contract/contracts/BlindAuction.sol\":3309:3320  uint amount */\n      0x00\n        /* \"Projects/BlindAuction-Dapp/blindauction-contract/contracts/BlindAuction.sol\":3323:3337  pendingReturns */\n      0x03\n        /* \"Projects/BlindAuction-Dapp/blindauction-contract/contracts/BlindAuction.sol\":3323:3349  pendingReturns[msg.sender] */\n      0x00\n        /* \"Projects/BlindAuction-Dapp/blindauction-contract/contracts/BlindAuction.sol\":3338:3348  msg.sender */\n      caller\n        /* \"Projects/BlindAuction-Dapp/blindauction-contract/contracts/BlindAuction.sol\":3323:3349  pendingReturns[msg.sender] */\n      0xffffffffffffffffffffffffffffffffffffffff\n      and\n      0xffffffffffffffffffffffffffffffffffffffff\n      and\n      dup2\n      mstore\n      0x20\n      add\n      swap1\n      dup2\n      mstore\n      0x20\n      add\n      0x00\n      keccak256\n      sload\n        /* \"Projects/BlindAuction-Dapp/blindauction-contract/contracts/BlindAuction.sol\":3309:3349  uint amount = pendingReturns[msg.sender] */\n      swap1\n      pop\n        /* \"Projects/BlindAuction-Dapp/blindauction-contract/contracts/BlindAuction.sol\":3377:3378  0 */\n      0x00\n        /* \"Projects/BlindAuction-Dapp/blindauction-contract/contracts/BlindAuction.sol\":3368:3374  amount */\n      dup2\n        /* \"Projects/BlindAuction-Dapp/blindauction-contract/contracts/BlindAuction.sol\":3368:3378  amount > 0 */\n      gt\n        /* \"Projects/BlindAuction-Dapp/blindauction-contract/contracts/BlindAuction.sol\":3364:3500  if (amount > 0) {... */\n      iszero\n      tag_89\n      jumpi\n        /* \"Projects/BlindAuction-Dapp/blindauction-contract/contracts/BlindAuction.sol\":3428:3429  0 */\n      0x00\n        /* \"Projects/BlindAuction-Dapp/blindauction-contract/contracts/BlindAuction.sol\":3399:3413  pendingReturns */\n      0x03\n        /* \"Projects/BlindAuction-Dapp/blindauction-contract/contracts/BlindAuction.sol\":3399:3425  pendingReturns[msg.sender] */\n      0x00\n        /* \"Projects/BlindAuction-Dapp/blindauction-contract/contracts/BlindAuction.sol\":3414:3424  msg.sender */\n      caller\n        /* \"Projects/BlindAuction-Dapp/blindauction-contract/contracts/BlindAuction.sol\":3399:3425  pendingReturns[msg.sender] */\n      0xffffffffffffffffffffffffffffffffffffffff\n      and\n      0xffffffffffffffffffffffffffffffffffffffff\n      and\n      dup2\n      mstore\n      0x20\n      add\n      swap1\n      dup2\n      mstore\n      0x20\n      add\n      0x00\n      keccak256\n        /* \"Projects/BlindAuction-Dapp/blindauction-contract/contracts/BlindAuction.sol\":3399:3429  pendingReturns[msg.sender] = 0 */\n      dup2\n      swap1\n      sstore\n      pop\n        /* \"Projects/BlindAuction-Dapp/blindauction-contract/contracts/BlindAuction.sol\":3456:3466  msg.sender */\n      caller\n        /* \"Projects/BlindAuction-Dapp/blindauction-contract/contracts/BlindAuction.sol\":3448:3476  payable(msg.sender).transfer */\n      0xffffffffffffffffffffffffffffffffffffffff\n      and\n        /* \"Projects/BlindAuction-Dapp/blindauction-contract/contracts/BlindAuction.sol\":3448:3484  payable(msg.sender).transfer(amount) */\n      0x08fc\n        /* \"Projects/BlindAuction-Dapp/blindauction-contract/contracts/BlindAuction.sol\":3477:3483  amount */\n      dup3\n        /* \"Projects/BlindAuction-Dapp/blindauction-contract/contracts/BlindAuction.sol\":3448:3484  payable(msg.sender).transfer(amount) */\n      swap1\n      dup2\n      iszero\n      mul\n      swap1\n      mload(0x40)\n      0x00\n      mload(0x40)\n      dup1\n      dup4\n      sub\n      dup2\n      dup6\n      dup9\n      dup9\n      call\n      swap4\n      pop\n      pop\n      pop\n      pop\n      iszero\n      dup1\n      iszero\n      tag_91\n      jumpi\n      returndatasize\n      0x00\n      dup1\n      returndatacopy\n      revert(0x00, returndatasize)\n    tag_91:\n      pop\n        /* \"Projects/BlindAuction-Dapp/blindauction-contract/contracts/BlindAuction.sol\":3364:3500  if (amount > 0) {... */\n    tag_89:\n        /* \"Projects/BlindAuction-Dapp/blindauction-contract/contracts/BlindAuction.sol\":3294:3507  {... */\n      pop\n        /* \"Projects/BlindAuction-Dapp/blindauction-contract/contracts/BlindAuction.sol\":3257:3507  function withdraw() ... */\n      jump\t// out\n        /* \"Projects/BlindAuction-Dapp/blindauction-contract/contracts/BlindAuction.sol\":2266:3245  function reveal(uint _value, bytes32 _password) ... */\n    tag_35:\n        /* \"Projects/BlindAuction-Dapp/blindauction-contract/contracts/BlindAuction.sol\":2349:2361  Phase.Reveal */\n      0x02\n        /* \"Projects/BlindAuction-Dapp/blindauction-contract/contracts/BlindAuction.sol\":1167:1173  _phase */\n      dup1\n        /* \"Projects/BlindAuction-Dapp/blindauction-contract/contracts/BlindAuction.sol\":1151:1173  currentPhase == _phase */\n      0x03\n      dup2\n      gt\n      iszero\n      tag_93\n      jumpi\n      tag_94\n      tag_76\n      jump\t// in\n    tag_94:\n    tag_93:\n        /* \"Projects/BlindAuction-Dapp/blindauction-contract/contracts/BlindAuction.sol\":1151:1163  currentPhase */\n      0x01\n      0x14\n      swap1\n      sload\n      swap1\n      0x0100\n      exp\n      swap1\n      div\n      0xff\n      and\n        /* \"Projects/BlindAuction-Dapp/blindauction-contract/contracts/BlindAuction.sol\":1151:1173  currentPhase == _phase */\n      0x03\n      dup2\n      gt\n      iszero\n      tag_95\n      jumpi\n      tag_96\n      tag_76\n      jump\t// in\n    tag_96:\n    tag_95:\n      eq\n        /* \"Projects/BlindAuction-Dapp/blindauction-contract/contracts/BlindAuction.sol\":1143:1191  require(currentPhase == _phase, \"Invalid phase\") */\n      tag_97\n      jumpi\n      mload(0x40)\n      0x08c379a000000000000000000000000000000000000000000000000000000000\n      dup2\n      mstore\n      0x04\n      add\n      tag_98\n      swap1\n      tag_81\n      jump\t// in\n    tag_98:\n      mload(0x40)\n      dup1\n      swap2\n      sub\n      swap1\n      revert\n    tag_97:\n        /* \"Projects/BlindAuction-Dapp/blindauction-contract/contracts/BlindAuction.sol\":2378:2400  Bid storage bidToCheck */\n      0x00\n        /* \"Projects/BlindAuction-Dapp/blindauction-contract/contracts/BlindAuction.sol\":2403:2407  bids */\n      0x02\n        /* \"Projects/BlindAuction-Dapp/blindauction-contract/contracts/BlindAuction.sol\":2403:2419  bids[msg.sender] */\n      0x00\n        /* \"Projects/BlindAuction-Dapp/blindauction-contract/contracts/BlindAuction.sol\":2408:2418  msg.sender */\n      caller\n        /* \"Projects/BlindAuction-Dapp/blindauction-contract/contracts/BlindAuction.sol\":2403:2419  bids[msg.sender] */\n      0xffffffffffffffffffffffffffffffffffffffff\n      and\n      0xffffffffffffffffffffffffffffffffffffffff\n      and\n      dup2\n      mstore\n      0x20\n      add\n      swap1\n      dup2\n      mstore\n      0x20\n      add\n      0x00\n      keccak256\n        /* \"Projects/BlindAuction-Dapp/blindauction-contract/contracts/BlindAuction.sol\":2378:2419  Bid storage bidToCheck = bids[msg.sender] */\n      swap1\n      pop\n        /* \"Projects/BlindAuction-Dapp/blindauction-contract/contracts/BlindAuction.sol\":2434:2451  bytes32 hashedBid */\n      0x00\n        /* \"Projects/BlindAuction-Dapp/blindauction-contract/contracts/BlindAuction.sol\":2454:2467  khashContract */\n      dup1\n      0x00\n      swap1\n      sload\n      swap1\n      0x0100\n      exp\n      swap1\n      div\n      0xffffffffffffffffffffffffffffffffffffffff\n      and\n        /* \"Projects/BlindAuction-Dapp/blindauction-contract/contracts/BlindAuction.sol\":2454:2474  khashContract.hashMe */\n      0xffffffffffffffffffffffffffffffffffffffff\n      and\n      0xb3ec48dd\n        /* \"Projects/BlindAuction-Dapp/blindauction-contract/contracts/BlindAuction.sol\":2475:2481  _value */\n      dup7\n        /* \"Projects/BlindAuction-Dapp/blindauction-contract/contracts/BlindAuction.sol\":2483:2492  _password */\n      dup7\n        /* \"Projects/BlindAuction-Dapp/blindauction-contract/contracts/BlindAuction.sol\":2454:2493  khashContract.hashMe(_value, _password) */\n      mload(0x40)\n      dup4\n      0xffffffff\n      and\n      0xe0\n      shl\n      dup2\n      mstore\n      0x04\n      add\n      tag_100\n      swap3\n      swap2\n      swap1\n      tag_101\n      jump\t// in\n    tag_100:\n      0x20\n      mload(0x40)\n      dup1\n      dup4\n      sub\n      dup2\n      dup7\n      gas\n      staticcall\n      iszero\n      dup1\n      iszero\n      tag_103\n      jumpi\n      returndatasize\n      0x00\n      dup1\n      returndatacopy\n      revert(0x00, returndatasize)\n    tag_103:\n      pop\n      pop\n      pop\n      pop\n      mload(0x40)\n      returndatasize\n      not(0x1f)\n      0x1f\n      dup3\n      add\n      and\n      dup3\n      add\n      dup1\n      0x40\n      mstore\n      pop\n      dup2\n      add\n      swap1\n      tag_104\n      swap2\n      swap1\n      tag_105\n      jump\t// in\n    tag_104:\n        /* \"Projects/BlindAuction-Dapp/blindauction-contract/contracts/BlindAuction.sol\":2434:2493  bytes32 hashedBid = khashContract.hashMe(_value, _password) */\n      swap1\n      pop\n        /* \"Projects/BlindAuction-Dapp/blindauction-contract/contracts/BlindAuction.sol\":2539:2548  hashedBid */\n      dup1\n        /* \"Projects/BlindAuction-Dapp/blindauction-contract/contracts/BlindAuction.sol\":2514:2524  bidToCheck */\n      dup3\n        /* \"Projects/BlindAuction-Dapp/blindauction-contract/contracts/BlindAuction.sol\":2514:2535  bidToCheck.blindedBid */\n      0x00\n      add\n      sload\n        /* \"Projects/BlindAuction-Dapp/blindauction-contract/contracts/BlindAuction.sol\":2514:2548  bidToCheck.blindedBid == hashedBid */\n      sub\n        /* \"Projects/BlindAuction-Dapp/blindauction-contract/contracts/BlindAuction.sol\":2510:3189  if (bidToCheck.blindedBid == hashedBid) {... */\n      tag_106\n      jumpi\n        /* \"Projects/BlindAuction-Dapp/blindauction-contract/contracts/BlindAuction.sol\":2569:2580  uint refund */\n      0x00\n        /* \"Projects/BlindAuction-Dapp/blindauction-contract/contracts/BlindAuction.sol\":2583:2593  bidToCheck */\n      dup3\n        /* \"Projects/BlindAuction-Dapp/blindauction-contract/contracts/BlindAuction.sol\":2583:2601  bidToCheck.deposit */\n      0x01\n      add\n      sload\n        /* \"Projects/BlindAuction-Dapp/blindauction-contract/contracts/BlindAuction.sol\":2569:2601  uint refund = bidToCheck.deposit */\n      swap1\n      pop\n        /* \"Projects/BlindAuction-Dapp/blindauction-contract/contracts/BlindAuction.sol\":2643:2653  highestBid */\n      sload(0x05)\n        /* \"Projects/BlindAuction-Dapp/blindauction-contract/contracts/BlindAuction.sol\":2633:2640  1 ether */\n      0x0de0b6b3a7640000\n        /* \"Projects/BlindAuction-Dapp/blindauction-contract/contracts/BlindAuction.sol\":2624:2630  _value */\n      dup8\n        /* \"Projects/BlindAuction-Dapp/blindauction-contract/contracts/BlindAuction.sol\":2624:2640  _value * 1 ether */\n      tag_107\n      swap2\n      swap1\n      tag_108\n      jump\t// in\n    tag_107:\n        /* \"Projects/BlindAuction-Dapp/blindauction-contract/contracts/BlindAuction.sol\":2624:2653  _value * 1 ether > highestBid */\n      gt\n        /* \"Projects/BlindAuction-Dapp/blindauction-contract/contracts/BlindAuction.sol\":2620:2974  if (_value * 1 ether > highestBid) {... */\n      iszero\n      tag_109\n      jumpi\n        /* \"Projects/BlindAuction-Dapp/blindauction-contract/contracts/BlindAuction.sol\":2707:2708  0 */\n      0x00\n        /* \"Projects/BlindAuction-Dapp/blindauction-contract/contracts/BlindAuction.sol\":2682:2709  highestBidder != address(0) */\n      0xffffffffffffffffffffffffffffffffffffffff\n      and\n        /* \"Projects/BlindAuction-Dapp/blindauction-contract/contracts/BlindAuction.sol\":2682:2695  highestBidder */\n      0x04\n      0x00\n      swap1\n      sload\n      swap1\n      0x0100\n      exp\n      swap1\n      div\n      0xffffffffffffffffffffffffffffffffffffffff\n      and\n        /* \"Projects/BlindAuction-Dapp/blindauction-contract/contracts/BlindAuction.sol\":2682:2709  highestBidder != address(0) */\n      0xffffffffffffffffffffffffffffffffffffffff\n      and\n      eq\n        /* \"Projects/BlindAuction-Dapp/blindauction-contract/contracts/BlindAuction.sol\":2678:2805  if (highestBidder != address(0)) {... */\n      tag_110\n      jumpi\n        /* \"Projects/BlindAuction-Dapp/blindauction-contract/contracts/BlindAuction.sol\":2771:2781  highestBid */\n      sload(0x05)\n        /* \"Projects/BlindAuction-Dapp/blindauction-contract/contracts/BlindAuction.sol\":2738:2752  pendingReturns */\n      0x03\n        /* \"Projects/BlindAuction-Dapp/blindauction-contract/contracts/BlindAuction.sol\":2738:2767  pendingReturns[highestBidder] */\n      0x00\n        /* \"Projects/BlindAuction-Dapp/blindauction-contract/contracts/BlindAuction.sol\":2753:2766  highestBidder */\n      0x04\n      0x00\n      swap1\n      sload\n      swap1\n      0x0100\n      exp\n      swap1\n      div\n      0xffffffffffffffffffffffffffffffffffffffff\n      and\n        /* \"Projects/BlindAuction-Dapp/blindauction-contract/contracts/BlindAuction.sol\":2738:2767  pendingReturns[highestBidder] */\n      0xffffffffffffffffffffffffffffffffffffffff\n      and\n      0xffffffffffffffffffffffffffffffffffffffff\n      and\n      dup2\n      mstore\n      0x20\n      add\n      swap1\n      dup2\n      mstore\n      0x20\n      add\n      0x00\n      keccak256\n      0x00\n        /* \"Projects/BlindAuction-Dapp/blindauction-contract/contracts/BlindAuction.sol\":2738:2781  pendingReturns[highestBidder] += highestBid */\n      dup3\n      dup3\n      sload\n      tag_111\n      swap2\n      swap1\n      tag_112\n      jump\t// in\n    tag_111:\n      swap3\n      pop\n      pop\n      dup2\n      swap1\n      sstore\n      pop\n        /* \"Projects/BlindAuction-Dapp/blindauction-contract/contracts/BlindAuction.sol\":2678:2805  if (highestBidder != address(0)) {... */\n    tag_110:\n        /* \"Projects/BlindAuction-Dapp/blindauction-contract/contracts/BlindAuction.sol\":2843:2853  msg.sender */\n      caller\n        /* \"Projects/BlindAuction-Dapp/blindauction-contract/contracts/BlindAuction.sol\":2827:2840  highestBidder */\n      0x04\n      0x00\n        /* \"Projects/BlindAuction-Dapp/blindauction-contract/contracts/BlindAuction.sol\":2827:2853  highestBidder = msg.sender */\n      0x0100\n      exp\n      dup2\n      sload\n      dup2\n      0xffffffffffffffffffffffffffffffffffffffff\n      mul\n      not\n      and\n      swap1\n      dup4\n      0xffffffffffffffffffffffffffffffffffffffff\n      and\n      mul\n      or\n      swap1\n      sstore\n      pop\n        /* \"Projects/BlindAuction-Dapp/blindauction-contract/contracts/BlindAuction.sol\":2898:2905  1 ether */\n      0x0de0b6b3a7640000\n        /* \"Projects/BlindAuction-Dapp/blindauction-contract/contracts/BlindAuction.sol\":2889:2895  _value */\n      dup7\n        /* \"Projects/BlindAuction-Dapp/blindauction-contract/contracts/BlindAuction.sol\":2889:2905  _value * 1 ether */\n      tag_113\n      swap2\n      swap1\n      tag_108\n      jump\t// in\n    tag_113:\n        /* \"Projects/BlindAuction-Dapp/blindauction-contract/contracts/BlindAuction.sol\":2876:2886  highestBid */\n      0x05\n        /* \"Projects/BlindAuction-Dapp/blindauction-contract/contracts/BlindAuction.sol\":2876:2905  highestBid = _value * 1 ether */\n      dup2\n      swap1\n      sstore\n      pop\n        /* \"Projects/BlindAuction-Dapp/blindauction-contract/contracts/BlindAuction.sol\":2947:2954  1 ether */\n      0x0de0b6b3a7640000\n        /* \"Projects/BlindAuction-Dapp/blindauction-contract/contracts/BlindAuction.sol\":2938:2944  _value */\n      dup7\n        /* \"Projects/BlindAuction-Dapp/blindauction-contract/contracts/BlindAuction.sol\":2938:2954  _value * 1 ether */\n      tag_114\n      swap2\n      swap1\n      tag_108\n      jump\t// in\n    tag_114:\n        /* \"Projects/BlindAuction-Dapp/blindauction-contract/contracts/BlindAuction.sol\":2928:2954  refund -= _value * 1 ether */\n      dup2\n      tag_115\n      swap2\n      swap1\n      tag_116\n      jump\t// in\n    tag_115:\n      swap1\n      pop\n        /* \"Projects/BlindAuction-Dapp/blindauction-contract/contracts/BlindAuction.sol\":2620:2974  if (_value * 1 ether > highestBid) {... */\n    tag_109:\n        /* \"Projects/BlindAuction-Dapp/blindauction-contract/contracts/BlindAuction.sol\":3005:3006  0 */\n      0x00\n        /* \"Projects/BlindAuction-Dapp/blindauction-contract/contracts/BlindAuction.sol\":2996:3002  refund */\n      dup2\n        /* \"Projects/BlindAuction-Dapp/blindauction-contract/contracts/BlindAuction.sol\":2996:3006  refund > 0 */\n      gt\n        /* \"Projects/BlindAuction-Dapp/blindauction-contract/contracts/BlindAuction.sol\":2992:3086  if (refund > 0) {... */\n      iszero\n      tag_117\n      jumpi\n        /* \"Projects/BlindAuction-Dapp/blindauction-contract/contracts/BlindAuction.sol\":3060:3066  refund */\n      dup1\n        /* \"Projects/BlindAuction-Dapp/blindauction-contract/contracts/BlindAuction.sol\":3031:3045  pendingReturns */\n      0x03\n        /* \"Projects/BlindAuction-Dapp/blindauction-contract/contracts/BlindAuction.sol\":3031:3057  pendingReturns[msg.sender] */\n      0x00\n        /* \"Projects/BlindAuction-Dapp/blindauction-contract/contracts/BlindAuction.sol\":3046:3056  msg.sender */\n      caller\n        /* \"Projects/BlindAuction-Dapp/blindauction-contract/contracts/BlindAuction.sol\":3031:3057  pendingReturns[msg.sender] */\n      0xffffffffffffffffffffffffffffffffffffffff\n      and\n      0xffffffffffffffffffffffffffffffffffffffff\n      and\n      dup2\n      mstore\n      0x20\n      add\n      swap1\n      dup2\n      mstore\n      0x20\n      add\n      0x00\n      keccak256\n        /* \"Projects/BlindAuction-Dapp/blindauction-contract/contracts/BlindAuction.sol\":3031:3066  pendingReturns[msg.sender] = refund */\n      dup2\n      swap1\n      sstore\n      pop\n        /* \"Projects/BlindAuction-Dapp/blindauction-contract/contracts/BlindAuction.sol\":2992:3086  if (refund > 0) {... */\n    tag_117:\n        /* \"Projects/BlindAuction-Dapp/blindauction-contract/contracts/BlindAuction.sol\":2550:3101  {... */\n      pop\n        /* \"Projects/BlindAuction-Dapp/blindauction-contract/contracts/BlindAuction.sol\":2510:3189  if (bidToCheck.blindedBid == hashedBid) {... */\n      jump(tag_118)\n    tag_106:\n        /* \"Projects/BlindAuction-Dapp/blindauction-contract/contracts/BlindAuction.sol\":3155:3165  bidToCheck */\n      dup2\n        /* \"Projects/BlindAuction-Dapp/blindauction-contract/contracts/BlindAuction.sol\":3155:3173  bidToCheck.deposit */\n      0x01\n      add\n      sload\n        /* \"Projects/BlindAuction-Dapp/blindauction-contract/contracts/BlindAuction.sol\":3126:3140  pendingReturns */\n      0x03\n        /* \"Projects/BlindAuction-Dapp/blindauction-contract/contracts/BlindAuction.sol\":3126:3152  pendingReturns[msg.sender] */\n      0x00\n        /* \"Projects/BlindAuction-Dapp/blindauction-contract/contracts/BlindAuction.sol\":3141:3151  msg.sender */\n      caller\n        /* \"Projects/BlindAuction-Dapp/blindauction-contract/contracts/BlindAuction.sol\":3126:3152  pendingReturns[msg.sender] */\n      0xffffffffffffffffffffffffffffffffffffffff\n      and\n      0xffffffffffffffffffffffffffffffffffffffff\n      and\n      dup2\n      mstore\n      0x20\n      add\n      swap1\n      dup2\n      mstore\n      0x20\n      add\n      0x00\n      keccak256\n        /* \"Projects/BlindAuction-Dapp/blindauction-contract/contracts/BlindAuction.sol\":3126:3173  pendingReturns[msg.sender] = bidToCheck.deposit */\n      dup2\n      swap1\n      sstore\n      pop\n        /* \"Projects/BlindAuction-Dapp/blindauction-contract/contracts/BlindAuction.sol\":2510:3189  if (bidToCheck.blindedBid == hashedBid) {... */\n    tag_118:\n        /* \"Projects/BlindAuction-Dapp/blindauction-contract/contracts/BlindAuction.sol\":3235:3236  0 */\n      0x00\n        /* \"Projects/BlindAuction-Dapp/blindauction-contract/contracts/BlindAuction.sol\":3227:3237  bytes32(0) */\n      dup1\n      shl\n        /* \"Projects/BlindAuction-Dapp/blindauction-contract/contracts/BlindAuction.sol\":3203:3213  bidToCheck */\n      dup3\n        /* \"Projects/BlindAuction-Dapp/blindauction-contract/contracts/BlindAuction.sol\":3203:3224  bidToCheck.blindedBid */\n      0x00\n      add\n        /* \"Projects/BlindAuction-Dapp/blindauction-contract/contracts/BlindAuction.sol\":3203:3237  bidToCheck.blindedBid = bytes32(0) */\n      dup2\n      swap1\n      sstore\n      pop\n        /* \"Projects/BlindAuction-Dapp/blindauction-contract/contracts/BlindAuction.sol\":2363:3245  {... */\n      pop\n      pop\n        /* \"Projects/BlindAuction-Dapp/blindauction-contract/contracts/BlindAuction.sol\":2266:3245  function reveal(uint _value, bytes32 _password) ... */\n      pop\n      pop\n      pop\n      jump\t// out\n        /* \"Projects/BlindAuction-Dapp/blindauction-contract/contracts/BlindAuction.sol\":623:658  mapping(address => Bid) public bids */\n    tag_40:\n      mstore(0x20, 0x02)\n      dup1\n      0x00\n      mstore\n      keccak256(0x00, 0x40)\n      0x00\n      swap2\n      pop\n      swap1\n      pop\n      dup1\n      0x00\n      add\n      sload\n      swap1\n      dup1\n      0x01\n      add\n      sload\n      swap1\n      pop\n      dup3\n      jump\t// out\n        /* \"Projects/BlindAuction-Dapp/blindauction-contract/contracts/BlindAuction.sol\":310:336  Khash public khashContract */\n    tag_45:\n      0x00\n      dup1\n      sload\n      swap1\n      0x0100\n      exp\n      swap1\n      div\n      0xffffffffffffffffffffffffffffffffffffffff\n      and\n      dup2\n      jump\t// out\n        /* \"Projects/BlindAuction-Dapp/blindauction-contract/contracts/BlindAuction.sol\":733:761  address public highestBidder */\n    tag_50:\n      0x04\n      0x00\n      swap1\n      sload\n      swap1\n      0x0100\n      exp\n      swap1\n      div\n      0xffffffffffffffffffffffffffffffffffffffff\n      and\n      dup2\n      jump\t// out\n        /* \"Projects/BlindAuction-Dapp/blindauction-contract/contracts/BlindAuction.sol\":3515:3652  function checkRefund()... */\n    tag_55:\n        /* \"Projects/BlindAuction-Dapp/blindauction-contract/contracts/BlindAuction.sol\":3586:3590  uint */\n      0x00\n        /* \"Projects/BlindAuction-Dapp/blindauction-contract/contracts/BlindAuction.sol\":3614:3628  pendingReturns */\n      0x03\n        /* \"Projects/BlindAuction-Dapp/blindauction-contract/contracts/BlindAuction.sol\":3614:3640  pendingReturns[msg.sender] */\n      0x00\n        /* \"Projects/BlindAuction-Dapp/blindauction-contract/contracts/BlindAuction.sol\":3629:3639  msg.sender */\n      caller\n        /* \"Projects/BlindAuction-Dapp/blindauction-contract/contracts/BlindAuction.sol\":3614:3640  pendingReturns[msg.sender] */\n      0xffffffffffffffffffffffffffffffffffffffff\n      and\n      0xffffffffffffffffffffffffffffffffffffffff\n      and\n      dup2\n      mstore\n      0x20\n      add\n      swap1\n      dup2\n      mstore\n      0x20\n      add\n      0x00\n      keccak256\n      sload\n        /* \"Projects/BlindAuction-Dapp/blindauction-contract/contracts/BlindAuction.sol\":3607:3640  return pendingReturns[msg.sender] */\n      swap1\n      pop\n        /* \"Projects/BlindAuction-Dapp/blindauction-contract/contracts/BlindAuction.sol\":3515:3652  function checkRefund()... */\n      swap1\n      jump\t// out\n        /* \"Projects/BlindAuction-Dapp/blindauction-contract/contracts/BlindAuction.sol\":2015:2258  function bid(bytes32 _blindedBid) ... */\n    tag_61:\n        /* \"Projects/BlindAuction-Dapp/blindauction-contract/contracts/BlindAuction.sol\":2102:2115  Phase.Bidding */\n      0x01\n        /* \"Projects/BlindAuction-Dapp/blindauction-contract/contracts/BlindAuction.sol\":1167:1173  _phase */\n      dup1\n        /* \"Projects/BlindAuction-Dapp/blindauction-contract/contracts/BlindAuction.sol\":1151:1173  currentPhase == _phase */\n      0x03\n      dup2\n      gt\n      iszero\n      tag_121\n      jumpi\n      tag_122\n      tag_76\n      jump\t// in\n    tag_122:\n    tag_121:\n        /* \"Projects/BlindAuction-Dapp/blindauction-contract/contracts/BlindAuction.sol\":1151:1163  currentPhase */\n      0x01\n      0x14\n      swap1\n      sload\n      swap1\n      0x0100\n      exp\n      swap1\n      div\n      0xff\n      and\n        /* \"Projects/BlindAuction-Dapp/blindauction-contract/contracts/BlindAuction.sol\":1151:1173  currentPhase == _phase */\n      0x03\n      dup2\n      gt\n      iszero\n      tag_123\n      jumpi\n      tag_124\n      tag_76\n      jump\t// in\n    tag_124:\n    tag_123:\n      eq\n        /* \"Projects/BlindAuction-Dapp/blindauction-contract/contracts/BlindAuction.sol\":1143:1191  require(currentPhase == _phase, \"Invalid phase\") */\n      tag_125\n      jumpi\n      mload(0x40)\n      0x08c379a000000000000000000000000000000000000000000000000000000000\n      dup2\n      mstore\n      0x04\n      add\n      tag_126\n      swap1\n      tag_81\n      jump\t// in\n    tag_126:\n      mload(0x40)\n      dup1\n      swap2\n      sub\n      swap1\n      revert\n    tag_125:\n        /* \"Projects/BlindAuction-Dapp/blindauction-contract/contracts/BlindAuction.sol\":2151:2250  Bid({... */\n      mload(0x40)\n      dup1\n      0x40\n      add\n      0x40\n      mstore\n      dup1\n        /* \"Projects/BlindAuction-Dapp/blindauction-contract/contracts/BlindAuction.sol\":2186:2197  _blindedBid */\n      dup4\n        /* \"Projects/BlindAuction-Dapp/blindauction-contract/contracts/BlindAuction.sol\":2151:2250  Bid({... */\n      dup2\n      mstore\n      0x20\n      add\n        /* \"Projects/BlindAuction-Dapp/blindauction-contract/contracts/BlindAuction.sol\":2225:2234  msg.value */\n      callvalue\n        /* \"Projects/BlindAuction-Dapp/blindauction-contract/contracts/BlindAuction.sol\":2151:2250  Bid({... */\n      dup2\n      mstore\n      pop\n        /* \"Projects/BlindAuction-Dapp/blindauction-contract/contracts/BlindAuction.sol\":2132:2136  bids */\n      0x02\n        /* \"Projects/BlindAuction-Dapp/blindauction-contract/contracts/BlindAuction.sol\":2132:2148  bids[msg.sender] */\n      0x00\n        /* \"Projects/BlindAuction-Dapp/blindauction-contract/contracts/BlindAuction.sol\":2137:2147  msg.sender */\n      caller\n        /* \"Projects/BlindAuction-Dapp/blindauction-contract/contracts/BlindAuction.sol\":2132:2148  bids[msg.sender] */\n      0xffffffffffffffffffffffffffffffffffffffff\n      and\n      0xffffffffffffffffffffffffffffffffffffffff\n      and\n      dup2\n      mstore\n      0x20\n      add\n      swap1\n      dup2\n      mstore\n      0x20\n      add\n      0x00\n      keccak256\n        /* \"Projects/BlindAuction-Dapp/blindauction-contract/contracts/BlindAuction.sol\":2132:2250  bids[msg.sender] = Bid({... */\n      0x00\n      dup3\n      add\n      mload\n      dup2\n      0x00\n      add\n      sstore\n      0x20\n      dup3\n      add\n      mload\n      dup2\n      0x01\n      add\n      sstore\n      swap1\n      pop\n      pop\n        /* \"Projects/BlindAuction-Dapp/blindauction-contract/contracts/BlindAuction.sol\":2015:2258  function bid(bytes32 _blindedBid) ... */\n      pop\n      pop\n      jump\t// out\n        /* \"Projects/BlindAuction-Dapp/blindauction-contract/contracts/BlindAuction.sol\":1360:2007  function advancePhase() ... */\n    tag_64:\n        /* \"Projects/BlindAuction-Dapp/blindauction-contract/contracts/BlindAuction.sol\":1027:1038  beneficiary */\n      0x01\n      0x00\n      swap1\n      sload\n      swap1\n      0x0100\n      exp\n      swap1\n      div\n      0xffffffffffffffffffffffffffffffffffffffff\n      and\n        /* \"Projects/BlindAuction-Dapp/blindauction-contract/contracts/BlindAuction.sol\":1013:1038  msg.sender == beneficiary */\n      0xffffffffffffffffffffffffffffffffffffffff\n      and\n        /* \"Projects/BlindAuction-Dapp/blindauction-contract/contracts/BlindAuction.sol\":1013:1023  msg.sender */\n      caller\n        /* \"Projects/BlindAuction-Dapp/blindauction-contract/contracts/BlindAuction.sol\":1013:1038  msg.sender == beneficiary */\n      0xffffffffffffffffffffffffffffffffffffffff\n      and\n      eq\n        /* \"Projects/BlindAuction-Dapp/blindauction-contract/contracts/BlindAuction.sol\":1005:1073  require(msg.sender == beneficiary, \"Only beneficiary can call this\") */\n      tag_129\n      jumpi\n      mload(0x40)\n      0x08c379a000000000000000000000000000000000000000000000000000000000\n      dup2\n      mstore\n      0x04\n      add\n      tag_130\n      swap1\n      tag_72\n      jump\t// in\n    tag_130:\n      mload(0x40)\n      dup1\n      swap2\n      sub\n      swap1\n      revert\n    tag_129:\n        /* \"Projects/BlindAuction-Dapp/blindauction-contract/contracts/BlindAuction.sol\":1464:1474  Phase.Done */\n      0x03\n        /* \"Projects/BlindAuction-Dapp/blindauction-contract/contracts/BlindAuction.sol\":1448:1474  currentPhase == Phase.Done */\n      dup1\n      dup2\n      gt\n      iszero\n      tag_132\n      jumpi\n      tag_133\n      tag_76\n      jump\t// in\n    tag_133:\n    tag_132:\n        /* \"Projects/BlindAuction-Dapp/blindauction-contract/contracts/BlindAuction.sol\":1448:1460  currentPhase */\n      0x01\n      0x14\n      swap1\n      sload\n      swap1\n      0x0100\n      exp\n      swap1\n      div\n      0xff\n      and\n        /* \"Projects/BlindAuction-Dapp/blindauction-contract/contracts/BlindAuction.sol\":1448:1474  currentPhase == Phase.Done */\n      0x03\n      dup2\n      gt\n      iszero\n      tag_134\n      jumpi\n      tag_135\n      tag_76\n      jump\t// in\n    tag_135:\n    tag_134:\n      sub\n        /* \"Projects/BlindAuction-Dapp/blindauction-contract/contracts/BlindAuction.sol\":1444:1542  if (currentPhase == Phase.Done) {... */\n      tag_136\n      jumpi\n        /* \"Projects/BlindAuction-Dapp/blindauction-contract/contracts/BlindAuction.sol\":1495:1526  revert(\"Auction already ended\") */\n      mload(0x40)\n      0x08c379a000000000000000000000000000000000000000000000000000000000\n      dup2\n      mstore\n      0x04\n      add\n      tag_137\n      swap1\n      tag_138\n      jump\t// in\n    tag_137:\n      mload(0x40)\n      dup1\n      swap2\n      sub\n      swap1\n      revert\n        /* \"Projects/BlindAuction-Dapp/blindauction-contract/contracts/BlindAuction.sol\":1444:1542  if (currentPhase == Phase.Done) {... */\n    tag_136:\n        /* \"Projects/BlindAuction-Dapp/blindauction-contract/contracts/BlindAuction.sol\":1576:1586  Phase.Init */\n      0x00\n        /* \"Projects/BlindAuction-Dapp/blindauction-contract/contracts/BlindAuction.sol\":1560:1586  currentPhase == Phase.Init */\n      0x03\n      dup2\n      gt\n      iszero\n      tag_139\n      jumpi\n      tag_140\n      tag_76\n      jump\t// in\n    tag_140:\n    tag_139:\n        /* \"Projects/BlindAuction-Dapp/blindauction-contract/contracts/BlindAuction.sol\":1560:1572  currentPhase */\n      0x01\n      0x14\n      swap1\n      sload\n      swap1\n      0x0100\n      exp\n      swap1\n      div\n      0xff\n      and\n        /* \"Projects/BlindAuction-Dapp/blindauction-contract/contracts/BlindAuction.sol\":1560:1586  currentPhase == Phase.Init */\n      0x03\n      dup2\n      gt\n      iszero\n      tag_141\n      jumpi\n      tag_142\n      tag_76\n      jump\t// in\n    tag_142:\n    tag_141:\n      sub\n        /* \"Projects/BlindAuction-Dapp/blindauction-contract/contracts/BlindAuction.sol\":1556:1996  if (currentPhase == Phase.Init) {... */\n      tag_143\n      jumpi\n        /* \"Projects/BlindAuction-Dapp/blindauction-contract/contracts/BlindAuction.sol\":1622:1635  Phase.Bidding */\n      0x01\n        /* \"Projects/BlindAuction-Dapp/blindauction-contract/contracts/BlindAuction.sol\":1607:1619  currentPhase */\n      dup1\n      0x14\n        /* \"Projects/BlindAuction-Dapp/blindauction-contract/contracts/BlindAuction.sol\":1607:1635  currentPhase = Phase.Bidding */\n      0x0100\n      exp\n      dup2\n      sload\n      dup2\n      0xff\n      mul\n      not\n      and\n      swap1\n      dup4\n      0x03\n      dup2\n      gt\n      iszero\n      tag_144\n      jumpi\n      tag_145\n      tag_76\n      jump\t// in\n    tag_145:\n    tag_144:\n      mul\n      or\n      swap1\n      sstore\n      pop\n        /* \"Projects/BlindAuction-Dapp/blindauction-contract/contracts/BlindAuction.sol\":1659:1675  BiddingStarted() */\n      0x02c124e22ee7da1c9905bbb317cf67658c1cc3ea1c0953b1633f85d0b5c281d9\n      mload(0x40)\n      mload(0x40)\n      dup1\n      swap2\n      sub\n      swap1\n      log1\n        /* \"Projects/BlindAuction-Dapp/blindauction-contract/contracts/BlindAuction.sol\":1556:1996  if (currentPhase == Phase.Init) {... */\n      jump(tag_146)\n    tag_143:\n        /* \"Projects/BlindAuction-Dapp/blindauction-contract/contracts/BlindAuction.sol\":1717:1730  Phase.Bidding */\n      0x01\n        /* \"Projects/BlindAuction-Dapp/blindauction-contract/contracts/BlindAuction.sol\":1701:1730  currentPhase == Phase.Bidding */\n      0x03\n      dup2\n      gt\n      iszero\n      tag_147\n      jumpi\n      tag_148\n      tag_76\n      jump\t// in\n    tag_148:\n    tag_147:\n        /* \"Projects/BlindAuction-Dapp/blindauction-contract/contracts/BlindAuction.sol\":1701:1713  currentPhase */\n      0x01\n      0x14\n      swap1\n      sload\n      swap1\n      0x0100\n      exp\n      swap1\n      div\n      0xff\n      and\n        /* \"Projects/BlindAuction-Dapp/blindauction-contract/contracts/BlindAuction.sol\":1701:1730  currentPhase == Phase.Bidding */\n      0x03\n      dup2\n      gt\n      iszero\n      tag_149\n      jumpi\n      tag_150\n      tag_76\n      jump\t// in\n    tag_150:\n    tag_149:\n      sub\n        /* \"Projects/BlindAuction-Dapp/blindauction-contract/contracts/BlindAuction.sol\":1697:1996  if (currentPhase == Phase.Bidding) {... */\n      tag_151\n      jumpi\n        /* \"Projects/BlindAuction-Dapp/blindauction-contract/contracts/BlindAuction.sol\":1766:1778  Phase.Reveal */\n      0x02\n        /* \"Projects/BlindAuction-Dapp/blindauction-contract/contracts/BlindAuction.sol\":1751:1763  currentPhase */\n      0x01\n      0x14\n        /* \"Projects/BlindAuction-Dapp/blindauction-contract/contracts/BlindAuction.sol\":1751:1778  currentPhase = Phase.Reveal */\n      0x0100\n      exp\n      dup2\n      sload\n      dup2\n      0xff\n      mul\n      not\n      and\n      swap1\n      dup4\n      0x03\n      dup2\n      gt\n      iszero\n      tag_152\n      jumpi\n      tag_153\n      tag_76\n      jump\t// in\n    tag_153:\n    tag_152:\n      mul\n      or\n      swap1\n      sstore\n      pop\n        /* \"Projects/BlindAuction-Dapp/blindauction-contract/contracts/BlindAuction.sol\":1802:1817  RevealStarted() */\n      0x3bcc93d35219aa0512d7c0d1ca10b0231f473e3d5f9396877d1b7215ee0ab3d5\n      mload(0x40)\n      mload(0x40)\n      dup1\n      swap2\n      sub\n      swap1\n      log1\n        /* \"Projects/BlindAuction-Dapp/blindauction-contract/contracts/BlindAuction.sol\":1697:1996  if (currentPhase == Phase.Bidding) {... */\n      jump(tag_154)\n    tag_151:\n        /* \"Projects/BlindAuction-Dapp/blindauction-contract/contracts/BlindAuction.sol\":1859:1871  Phase.Reveal */\n      0x02\n        /* \"Projects/BlindAuction-Dapp/blindauction-contract/contracts/BlindAuction.sol\":1843:1871  currentPhase == Phase.Reveal */\n      0x03\n      dup2\n      gt\n      iszero\n      tag_155\n      jumpi\n      tag_156\n      tag_76\n      jump\t// in\n    tag_156:\n    tag_155:\n        /* \"Projects/BlindAuction-Dapp/blindauction-contract/contracts/BlindAuction.sol\":1843:1855  currentPhase */\n      0x01\n      0x14\n      swap1\n      sload\n      swap1\n      0x0100\n      exp\n      swap1\n      div\n      0xff\n      and\n        /* \"Projects/BlindAuction-Dapp/blindauction-contract/contracts/BlindAuction.sol\":1843:1871  currentPhase == Phase.Reveal */\n      0x03\n      dup2\n      gt\n      iszero\n      tag_157\n      jumpi\n      tag_158\n      tag_76\n      jump\t// in\n    tag_158:\n    tag_157:\n      sub\n        /* \"Projects/BlindAuction-Dapp/blindauction-contract/contracts/BlindAuction.sol\":1839:1996  if (currentPhase == Phase.Reveal) {... */\n      tag_159\n      jumpi\n        /* \"Projects/BlindAuction-Dapp/blindauction-contract/contracts/BlindAuction.sol\":1907:1917  Phase.Done */\n      0x03\n        /* \"Projects/BlindAuction-Dapp/blindauction-contract/contracts/BlindAuction.sol\":1892:1904  currentPhase */\n      0x01\n      0x14\n        /* \"Projects/BlindAuction-Dapp/blindauction-contract/contracts/BlindAuction.sol\":1892:1917  currentPhase = Phase.Done */\n      0x0100\n      exp\n      dup2\n      sload\n      dup2\n      0xff\n      mul\n      not\n      and\n      swap1\n      dup4\n      0x03\n      dup2\n      gt\n      iszero\n      tag_160\n      jumpi\n      tag_161\n      tag_76\n      jump\t// in\n    tag_161:\n    tag_160:\n      mul\n      or\n      swap1\n      sstore\n      pop\n        /* \"Projects/BlindAuction-Dapp/blindauction-contract/contracts/BlindAuction.sol\":1941:1980  AuctionEnded(highestBidder, highestBid) */\n      0xdaec4582d5d9595688c8c98545fdd1c696d41c6aeaeb636737e84ed2f5c00eda\n        /* \"Projects/BlindAuction-Dapp/blindauction-contract/contracts/BlindAuction.sol\":1954:1967  highestBidder */\n      0x04\n      0x00\n      swap1\n      sload\n      swap1\n      0x0100\n      exp\n      swap1\n      div\n      0xffffffffffffffffffffffffffffffffffffffff\n      and\n        /* \"Projects/BlindAuction-Dapp/blindauction-contract/contracts/BlindAuction.sol\":1969:1979  highestBid */\n      sload(0x05)\n        /* \"Projects/BlindAuction-Dapp/blindauction-contract/contracts/BlindAuction.sol\":1941:1980  AuctionEnded(highestBidder, highestBid) */\n      mload(0x40)\n      tag_162\n      swap3\n      swap2\n      swap1\n      tag_87\n      jump\t// in\n    tag_162:\n      mload(0x40)\n      dup1\n      swap2\n      sub\n      swap1\n      log1\n        /* \"Projects/BlindAuction-Dapp/blindauction-contract/contracts/BlindAuction.sol\":1839:1996  if (currentPhase == Phase.Reveal) {... */\n    tag_159:\n        /* \"Projects/BlindAuction-Dapp/blindauction-contract/contracts/BlindAuction.sol\":1697:1996  if (currentPhase == Phase.Bidding) {... */\n    tag_154:\n        /* \"Projects/BlindAuction-Dapp/blindauction-contract/contracts/BlindAuction.sol\":1556:1996  if (currentPhase == Phase.Init) {... */\n    tag_146:\n        /* \"Projects/BlindAuction-Dapp/blindauction-contract/contracts/BlindAuction.sol\":1360:2007  function advancePhase() ... */\n      jump\t// out\n        /* \"Projects/BlindAuction-Dapp/blindauction-contract/contracts/BlindAuction.sol\":768:790  uint public highestBid */\n    tag_67:\n      sload(0x05)\n      dup2\n      jump\t// out\n        /* \"#utility.yul\":7:187   */\n    tag_76:\n        /* \"#utility.yul\":55:132   */\n      0x4e487b7100000000000000000000000000000000000000000000000000000000\n        /* \"#utility.yul\":52:53   */\n      0x00\n        /* \"#utility.yul\":45:133   */\n      mstore\n        /* \"#utility.yul\":152:156   */\n      0x21\n        /* \"#utility.yul\":149:150   */\n      0x04\n        /* \"#utility.yul\":142:157   */\n      mstore\n        /* \"#utility.yul\":176:180   */\n      0x24\n        /* \"#utility.yul\":173:174   */\n      0x00\n        /* \"#utility.yul\":166:181   */\n      revert\n        /* \"#utility.yul\":193:306   */\n    tag_163:\n        /* \"#utility.yul\":274:275   */\n      0x04\n        /* \"#utility.yul\":267:272   */\n      dup2\n        /* \"#utility.yul\":264:276   */\n      lt\n        /* \"#utility.yul\":254:300   */\n      tag_202\n      jumpi\n        /* \"#utility.yul\":280:298   */\n      tag_203\n      tag_76\n      jump\t// in\n    tag_203:\n        /* \"#utility.yul\":254:300   */\n    tag_202:\n        /* \"#utility.yul\":193:306   */\n      pop\n      jump\t// out\n        /* \"#utility.yul\":312:439   */\n    tag_164:\n        /* \"#utility.yul\":357:364   */\n      0x00\n        /* \"#utility.yul\":386:391   */\n      dup2\n        /* \"#utility.yul\":375:391   */\n      swap1\n      pop\n        /* \"#utility.yul\":392:433   */\n      tag_205\n        /* \"#utility.yul\":427:432   */\n      dup3\n        /* \"#utility.yul\":392:433   */\n      tag_163\n      jump\t// in\n    tag_205:\n        /* \"#utility.yul\":312:439   */\n      swap2\n      swap1\n      pop\n      jump\t// out\n        /* \"#utility.yul\":445:572   */\n    tag_165:\n        /* \"#utility.yul\":501:510   */\n      0x00\n        /* \"#utility.yul\":534:566   */\n      tag_207\n        /* \"#utility.yul\":560:565   */\n      dup3\n        /* \"#utility.yul\":534:566   */\n      tag_164\n      jump\t// in\n    tag_207:\n        /* \"#utility.yul\":521:566   */\n      swap1\n      pop\n        /* \"#utility.yul\":445:572   */\n      swap2\n      swap1\n      pop\n      jump\t// out\n        /* \"#utility.yul\":578:721   */\n    tag_166:\n        /* \"#utility.yul\":671:714   */\n      tag_209\n        /* \"#utility.yul\":708:713   */\n      dup2\n        /* \"#utility.yul\":671:714   */\n      tag_165\n      jump\t// in\n    tag_209:\n        /* \"#utility.yul\":666:669   */\n      dup3\n        /* \"#utility.yul\":659:715   */\n      mstore\n        /* \"#utility.yul\":578:721   */\n      pop\n      pop\n      jump\t// out\n        /* \"#utility.yul\":727:961   */\n    tag_19:\n        /* \"#utility.yul\":826:830   */\n      0x00\n        /* \"#utility.yul\":864:866   */\n      0x20\n        /* \"#utility.yul\":853:862   */\n      dup3\n        /* \"#utility.yul\":849:867   */\n      add\n        /* \"#utility.yul\":841:867   */\n      swap1\n      pop\n        /* \"#utility.yul\":877:954   */\n      tag_211\n        /* \"#utility.yul\":951:952   */\n      0x00\n        /* \"#utility.yul\":940:949   */\n      dup4\n        /* \"#utility.yul\":936:953   */\n      add\n        /* \"#utility.yul\":927:933   */\n      dup5\n        /* \"#utility.yul\":877:954   */\n      tag_166\n      jump\t// in\n    tag_211:\n        /* \"#utility.yul\":727:961   */\n      swap3\n      swap2\n      pop\n      pop\n      jump\t// out\n        /* \"#utility.yul\":967:1093   */\n    tag_167:\n        /* \"#utility.yul\":1004:1011   */\n      0x00\n        /* \"#utility.yul\":1044:1086   */\n      0xffffffffffffffffffffffffffffffffffffffff\n        /* \"#utility.yul\":1037:1042   */\n      dup3\n        /* \"#utility.yul\":1033:1087   */\n      and\n        /* \"#utility.yul\":1022:1087   */\n      swap1\n      pop\n        /* \"#utility.yul\":967:1093   */\n      swap2\n      swap1\n      pop\n      jump\t// out\n        /* \"#utility.yul\":1099:1203   */\n    tag_168:\n        /* \"#utility.yul\":1144:1151   */\n      0x00\n        /* \"#utility.yul\":1173:1197   */\n      tag_214\n        /* \"#utility.yul\":1191:1196   */\n      dup3\n        /* \"#utility.yul\":1173:1197   */\n      tag_167\n      jump\t// in\n    tag_214:\n        /* \"#utility.yul\":1162:1197   */\n      swap1\n      pop\n        /* \"#utility.yul\":1099:1203   */\n      swap2\n      swap1\n      pop\n      jump\t// out\n        /* \"#utility.yul\":1209:1351   */\n    tag_169:\n        /* \"#utility.yul\":1312:1344   */\n      tag_216\n        /* \"#utility.yul\":1338:1343   */\n      dup2\n        /* \"#utility.yul\":1312:1344   */\n      tag_168\n      jump\t// in\n    tag_216:\n        /* \"#utility.yul\":1307:1310   */\n      dup3\n        /* \"#utility.yul\":1300:1345   */\n      mstore\n        /* \"#utility.yul\":1209:1351   */\n      pop\n      pop\n      jump\t// out\n        /* \"#utility.yul\":1357:1611   */\n    tag_27:\n        /* \"#utility.yul\":1466:1470   */\n      0x00\n        /* \"#utility.yul\":1504:1506   */\n      0x20\n        /* \"#utility.yul\":1493:1502   */\n      dup3\n        /* \"#utility.yul\":1489:1507   */\n      add\n        /* \"#utility.yul\":1481:1507   */\n      swap1\n      pop\n        /* \"#utility.yul\":1517:1604   */\n      tag_218\n        /* \"#utility.yul\":1601:1602   */\n      0x00\n        /* \"#utility.yul\":1590:1599   */\n      dup4\n        /* \"#utility.yul\":1586:1603   */\n      add\n        /* \"#utility.yul\":1577:1583   */\n      dup5\n        /* \"#utility.yul\":1517:1604   */\n      tag_169\n      jump\t// in\n    tag_218:\n        /* \"#utility.yul\":1357:1611   */\n      swap3\n      swap2\n      pop\n      pop\n      jump\t// out\n        /* \"#utility.yul\":1698:1815   */\n    tag_171:\n        /* \"#utility.yul\":1807:1808   */\n      0x00\n        /* \"#utility.yul\":1804:1805   */\n      dup1\n        /* \"#utility.yul\":1797:1809   */\n      revert\n        /* \"#utility.yul\":1944:2021   */\n    tag_173:\n        /* \"#utility.yul\":1981:1988   */\n      0x00\n        /* \"#utility.yul\":2010:2015   */\n      dup2\n        /* \"#utility.yul\":1999:2015   */\n      swap1\n      pop\n        /* \"#utility.yul\":1944:2021   */\n      swap2\n      swap1\n      pop\n      jump\t// out\n        /* \"#utility.yul\":2027:2149   */\n    tag_174:\n        /* \"#utility.yul\":2100:2124   */\n      tag_224\n        /* \"#utility.yul\":2118:2123   */\n      dup2\n        /* \"#utility.yul\":2100:2124   */\n      tag_173\n      jump\t// in\n    tag_224:\n        /* \"#utility.yul\":2093:2098   */\n      dup2\n        /* \"#utility.yul\":2090:2125   */\n      eq\n        /* \"#utility.yul\":2080:2143   */\n      tag_225\n      jumpi\n        /* \"#utility.yul\":2139:2140   */\n      0x00\n        /* \"#utility.yul\":2136:2137   */\n      dup1\n        /* \"#utility.yul\":2129:2141   */\n      revert\n        /* \"#utility.yul\":2080:2143   */\n    tag_225:\n        /* \"#utility.yul\":2027:2149   */\n      pop\n      jump\t// out\n        /* \"#utility.yul\":2155:2294   */\n    tag_175:\n        /* \"#utility.yul\":2201:2206   */\n      0x00\n        /* \"#utility.yul\":2239:2245   */\n      dup2\n        /* \"#utility.yul\":2226:2246   */\n      calldataload\n        /* \"#utility.yul\":2217:2246   */\n      swap1\n      pop\n        /* \"#utility.yul\":2255:2288   */\n      tag_227\n        /* \"#utility.yul\":2282:2287   */\n      dup2\n        /* \"#utility.yul\":2255:2288   */\n      tag_174\n      jump\t// in\n    tag_227:\n        /* \"#utility.yul\":2155:2294   */\n      swap3\n      swap2\n      pop\n      pop\n      jump\t// out\n        /* \"#utility.yul\":2300:2377   */\n    tag_176:\n        /* \"#utility.yul\":2337:2344   */\n      0x00\n        /* \"#utility.yul\":2366:2371   */\n      dup2\n        /* \"#utility.yul\":2355:2371   */\n      swap1\n      pop\n        /* \"#utility.yul\":2300:2377   */\n      swap2\n      swap1\n      pop\n      jump\t// out\n        /* \"#utility.yul\":2383:2505   */\n    tag_177:\n        /* \"#utility.yul\":2456:2480   */\n      tag_230\n        /* \"#utility.yul\":2474:2479   */\n      dup2\n        /* \"#utility.yul\":2456:2480   */\n      tag_176\n      jump\t// in\n    tag_230:\n        /* \"#utility.yul\":2449:2454   */\n      dup2\n        /* \"#utility.yul\":2446:2481   */\n      eq\n        /* \"#utility.yul\":2436:2499   */\n      tag_231\n      jumpi\n        /* \"#utility.yul\":2495:2496   */\n      0x00\n        /* \"#utility.yul\":2492:2493   */\n      dup1\n        /* \"#utility.yul\":2485:2497   */\n      revert\n        /* \"#utility.yul\":2436:2499   */\n    tag_231:\n        /* \"#utility.yul\":2383:2505   */\n      pop\n      jump\t// out\n        /* \"#utility.yul\":2511:2650   */\n    tag_178:\n        /* \"#utility.yul\":2557:2562   */\n      0x00\n        /* \"#utility.yul\":2595:2601   */\n      dup2\n        /* \"#utility.yul\":2582:2602   */\n      calldataload\n        /* \"#utility.yul\":2573:2602   */\n      swap1\n      pop\n        /* \"#utility.yul\":2611:2644   */\n      tag_233\n        /* \"#utility.yul\":2638:2643   */\n      dup2\n        /* \"#utility.yul\":2611:2644   */\n      tag_177\n      jump\t// in\n    tag_233:\n        /* \"#utility.yul\":2511:2650   */\n      swap3\n      swap2\n      pop\n      pop\n      jump\t// out\n        /* \"#utility.yul\":2656:3130   */\n    tag_34:\n        /* \"#utility.yul\":2724:2730   */\n      0x00\n        /* \"#utility.yul\":2732:2738   */\n      dup1\n        /* \"#utility.yul\":2781:2783   */\n      0x40\n        /* \"#utility.yul\":2769:2778   */\n      dup4\n        /* \"#utility.yul\":2760:2767   */\n      dup6\n        /* \"#utility.yul\":2756:2779   */\n      sub\n        /* \"#utility.yul\":2752:2784   */\n      slt\n        /* \"#utility.yul\":2749:2868   */\n      iszero\n      tag_235\n      jumpi\n        /* \"#utility.yul\":2787:2866   */\n      tag_236\n      tag_171\n      jump\t// in\n    tag_236:\n        /* \"#utility.yul\":2749:2868   */\n    tag_235:\n        /* \"#utility.yul\":2907:2908   */\n      0x00\n        /* \"#utility.yul\":2932:2985   */\n      tag_237\n        /* \"#utility.yul\":2977:2984   */\n      dup6\n        /* \"#utility.yul\":2968:2974   */\n      dup3\n        /* \"#utility.yul\":2957:2966   */\n      dup7\n        /* \"#utility.yul\":2953:2975   */\n      add\n        /* \"#utility.yul\":2932:2985   */\n      tag_175\n      jump\t// in\n    tag_237:\n        /* \"#utility.yul\":2922:2985   */\n      swap3\n      pop\n        /* \"#utility.yul\":2878:2995   */\n      pop\n        /* \"#utility.yul\":3034:3036   */\n      0x20\n        /* \"#utility.yul\":3060:3113   */\n      tag_238\n        /* \"#utility.yul\":3105:3112   */\n      dup6\n        /* \"#utility.yul\":3096:3102   */\n      dup3\n        /* \"#utility.yul\":3085:3094   */\n      dup7\n        /* \"#utility.yul\":3081:3103   */\n      add\n        /* \"#utility.yul\":3060:3113   */\n      tag_178\n      jump\t// in\n    tag_238:\n        /* \"#utility.yul\":3050:3113   */\n      swap2\n      pop\n        /* \"#utility.yul\":3005:3123   */\n      pop\n        /* \"#utility.yul\":2656:3130   */\n      swap3\n      pop\n      swap3\n      swap1\n      pop\n      jump\t// out\n        /* \"#utility.yul\":3136:3232   */\n    tag_179:\n        /* \"#utility.yul\":3173:3180   */\n      0x00\n        /* \"#utility.yul\":3202:3226   */\n      tag_240\n        /* \"#utility.yul\":3220:3225   */\n      dup3\n        /* \"#utility.yul\":3202:3226   */\n      tag_167\n      jump\t// in\n    tag_240:\n        /* \"#utility.yul\":3191:3226   */\n      swap1\n      pop\n        /* \"#utility.yul\":3136:3232   */\n      swap2\n      swap1\n      pop\n      jump\t// out\n        /* \"#utility.yul\":3238:3360   */\n    tag_180:\n        /* \"#utility.yul\":3311:3335   */\n      tag_242\n        /* \"#utility.yul\":3329:3334   */\n      dup2\n        /* \"#utility.yul\":3311:3335   */\n      tag_179\n      jump\t// in\n    tag_242:\n        /* \"#utility.yul\":3304:3309   */\n      dup2\n        /* \"#utility.yul\":3301:3336   */\n      eq\n        /* \"#utility.yul\":3291:3354   */\n      tag_243\n      jumpi\n        /* \"#utility.yul\":3350:3351   */\n      0x00\n        /* \"#utility.yul\":3347:3348   */\n      dup1\n        /* \"#utility.yul\":3340:3352   */\n      revert\n        /* \"#utility.yul\":3291:3354   */\n    tag_243:\n        /* \"#utility.yul\":3238:3360   */\n      pop\n      jump\t// out\n        /* \"#utility.yul\":3366:3505   */\n    tag_181:\n        /* \"#utility.yul\":3412:3417   */\n      0x00\n        /* \"#utility.yul\":3450:3456   */\n      dup2\n        /* \"#utility.yul\":3437:3457   */\n      calldataload\n        /* \"#utility.yul\":3428:3457   */\n      swap1\n      pop\n        /* \"#utility.yul\":3466:3499   */\n      tag_245\n        /* \"#utility.yul\":3493:3498   */\n      dup2\n        /* \"#utility.yul\":3466:3499   */\n      tag_180\n      jump\t// in\n    tag_245:\n        /* \"#utility.yul\":3366:3505   */\n      swap3\n      swap2\n      pop\n      pop\n      jump\t// out\n        /* \"#utility.yul\":3511:3840   */\n    tag_39:\n        /* \"#utility.yul\":3570:3576   */\n      0x00\n        /* \"#utility.yul\":3619:3621   */\n      0x20\n        /* \"#utility.yul\":3607:3616   */\n      dup3\n        /* \"#utility.yul\":3598:3605   */\n      dup5\n        /* \"#utility.yul\":3594:3617   */\n      sub\n        /* \"#utility.yul\":3590:3622   */\n      slt\n        /* \"#utility.yul\":3587:3706   */\n      iszero\n      tag_247\n      jumpi\n        /* \"#utility.yul\":3625:3704   */\n      tag_248\n      tag_171\n      jump\t// in\n    tag_248:\n        /* \"#utility.yul\":3587:3706   */\n    tag_247:\n        /* \"#utility.yul\":3745:3746   */\n      0x00\n        /* \"#utility.yul\":3770:3823   */\n      tag_249\n        /* \"#utility.yul\":3815:3822   */\n      dup5\n        /* \"#utility.yul\":3806:3812   */\n      dup3\n        /* \"#utility.yul\":3795:3804   */\n      dup6\n        /* \"#utility.yul\":3791:3813   */\n      add\n        /* \"#utility.yul\":3770:3823   */\n      tag_181\n      jump\t// in\n    tag_249:\n        /* \"#utility.yul\":3760:3823   */\n      swap2\n      pop\n        /* \"#utility.yul\":3716:3833   */\n      pop\n        /* \"#utility.yul\":3511:3840   */\n      swap3\n      swap2\n      pop\n      pop\n      jump\t// out\n        /* \"#utility.yul\":3846:3964   */\n    tag_182:\n        /* \"#utility.yul\":3933:3957   */\n      tag_251\n        /* \"#utility.yul\":3951:3956   */\n      dup2\n        /* \"#utility.yul\":3933:3957   */\n      tag_176\n      jump\t// in\n    tag_251:\n        /* \"#utility.yul\":3928:3931   */\n      dup3\n        /* \"#utility.yul\":3921:3958   */\n      mstore\n        /* \"#utility.yul\":3846:3964   */\n      pop\n      pop\n      jump\t// out\n        /* \"#utility.yul\":3970:4088   */\n    tag_183:\n        /* \"#utility.yul\":4057:4081   */\n      tag_253\n        /* \"#utility.yul\":4075:4080   */\n      dup2\n        /* \"#utility.yul\":4057:4081   */\n      tag_173\n      jump\t// in\n    tag_253:\n        /* \"#utility.yul\":4052:4055   */\n      dup3\n        /* \"#utility.yul\":4045:4082   */\n      mstore\n        /* \"#utility.yul\":3970:4088   */\n      pop\n      pop\n      jump\t// out\n        /* \"#utility.yul\":4094:4426   */\n    tag_42:\n        /* \"#utility.yul\":4215:4219   */\n      0x00\n        /* \"#utility.yul\":4253:4255   */\n      0x40\n        /* \"#utility.yul\":4242:4251   */\n      dup3\n        /* \"#utility.yul\":4238:4256   */\n      add\n        /* \"#utility.yul\":4230:4256   */\n      swap1\n      pop\n        /* \"#utility.yul\":4266:4337   */\n      tag_255\n        /* \"#utility.yul\":4334:4335   */\n      0x00\n        /* \"#utility.yul\":4323:4332   */\n      dup4\n        /* \"#utility.yul\":4319:4336   */\n      add\n        /* \"#utility.yul\":4310:4316   */\n      dup6\n        /* \"#utility.yul\":4266:4337   */\n      tag_182\n      jump\t// in\n    tag_255:\n        /* \"#utility.yul\":4347:4419   */\n      tag_256\n        /* \"#utility.yul\":4415:4417   */\n      0x20\n        /* \"#utility.yul\":4404:4413   */\n      dup4\n        /* \"#utility.yul\":4400:4418   */\n      add\n        /* \"#utility.yul\":4391:4397   */\n      dup5\n        /* \"#utility.yul\":4347:4419   */\n      tag_183\n      jump\t// in\n    tag_256:\n        /* \"#utility.yul\":4094:4426   */\n      swap4\n      swap3\n      pop\n      pop\n      pop\n      jump\t// out\n        /* \"#utility.yul\":4432:4492   */\n    tag_184:\n        /* \"#utility.yul\":4460:4463   */\n      0x00\n        /* \"#utility.yul\":4481:4486   */\n      dup2\n        /* \"#utility.yul\":4474:4486   */\n      swap1\n      pop\n        /* \"#utility.yul\":4432:4492   */\n      swap2\n      swap1\n      pop\n      jump\t// out\n        /* \"#utility.yul\":4498:4640   */\n    tag_185:\n        /* \"#utility.yul\":4548:4557   */\n      0x00\n        /* \"#utility.yul\":4581:4634   */\n      tag_259\n        /* \"#utility.yul\":4599:4633   */\n      tag_260\n        /* \"#utility.yul\":4608:4632   */\n      tag_261\n        /* \"#utility.yul\":4626:4631   */\n      dup5\n        /* \"#utility.yul\":4608:4632   */\n      tag_167\n      jump\t// in\n    tag_261:\n        /* \"#utility.yul\":4599:4633   */\n      tag_184\n      jump\t// in\n    tag_260:\n        /* \"#utility.yul\":4581:4634   */\n      tag_167\n      jump\t// in\n    tag_259:\n        /* \"#utility.yul\":4568:4634   */\n      swap1\n      pop\n        /* \"#utility.yul\":4498:4640   */\n      swap2\n      swap1\n      pop\n      jump\t// out\n        /* \"#utility.yul\":4646:4772   */\n    tag_186:\n        /* \"#utility.yul\":4696:4705   */\n      0x00\n        /* \"#utility.yul\":4729:4766   */\n      tag_263\n        /* \"#utility.yul\":4760:4765   */\n      dup3\n        /* \"#utility.yul\":4729:4766   */\n      tag_185\n      jump\t// in\n    tag_263:\n        /* \"#utility.yul\":4716:4766   */\n      swap1\n      pop\n        /* \"#utility.yul\":4646:4772   */\n      swap2\n      swap1\n      pop\n      jump\t// out\n        /* \"#utility.yul\":4778:4916   */\n    tag_187:\n        /* \"#utility.yul\":4840:4849   */\n      0x00\n        /* \"#utility.yul\":4873:4910   */\n      tag_265\n        /* \"#utility.yul\":4904:4909   */\n      dup3\n        /* \"#utility.yul\":4873:4910   */\n      tag_186\n      jump\t// in\n    tag_265:\n        /* \"#utility.yul\":4860:4910   */\n      swap1\n      pop\n        /* \"#utility.yul\":4778:4916   */\n      swap2\n      swap1\n      pop\n      jump\t// out\n        /* \"#utility.yul\":4922:5077   */\n    tag_188:\n        /* \"#utility.yul\":5021:5070   */\n      tag_267\n        /* \"#utility.yul\":5064:5069   */\n      dup2\n        /* \"#utility.yul\":5021:5070   */\n      tag_187\n      jump\t// in\n    tag_267:\n        /* \"#utility.yul\":5016:5019   */\n      dup3\n        /* \"#utility.yul\":5009:5071   */\n      mstore\n        /* \"#utility.yul\":4922:5077   */\n      pop\n      pop\n      jump\t// out\n        /* \"#utility.yul\":5083:5329   */\n    tag_47:\n        /* \"#utility.yul\":5188:5192   */\n      0x00\n        /* \"#utility.yul\":5226:5228   */\n      0x20\n        /* \"#utility.yul\":5215:5224   */\n      dup3\n        /* \"#utility.yul\":5211:5229   */\n      add\n        /* \"#utility.yul\":5203:5229   */\n      swap1\n      pop\n        /* \"#utility.yul\":5239:5322   */\n      tag_269\n        /* \"#utility.yul\":5319:5320   */\n      0x00\n        /* \"#utility.yul\":5308:5317   */\n      dup4\n        /* \"#utility.yul\":5304:5321   */\n      add\n        /* \"#utility.yul\":5295:5301   */\n      dup5\n        /* \"#utility.yul\":5239:5322   */\n      tag_188\n      jump\t// in\n    tag_269:\n        /* \"#utility.yul\":5083:5329   */\n      swap3\n      swap2\n      pop\n      pop\n      jump\t// out\n        /* \"#utility.yul\":5335:5453   */\n    tag_189:\n        /* \"#utility.yul\":5422:5446   */\n      tag_271\n        /* \"#utility.yul\":5440:5445   */\n      dup2\n        /* \"#utility.yul\":5422:5446   */\n      tag_179\n      jump\t// in\n    tag_271:\n        /* \"#utility.yul\":5417:5420   */\n      dup3\n        /* \"#utility.yul\":5410:5447   */\n      mstore\n        /* \"#utility.yul\":5335:5453   */\n      pop\n      pop\n      jump\t// out\n        /* \"#utility.yul\":5459:5681   */\n    tag_52:\n        /* \"#utility.yul\":5552:5556   */\n      0x00\n        /* \"#utility.yul\":5590:5592   */\n      0x20\n        /* \"#utility.yul\":5579:5588   */\n      dup3\n        /* \"#utility.yul\":5575:5593   */\n      add\n        /* \"#utility.yul\":5567:5593   */\n      swap1\n      pop\n        /* \"#utility.yul\":5603:5674   */\n      tag_273\n        /* \"#utility.yul\":5671:5672   */\n      0x00\n        /* \"#utility.yul\":5660:5669   */\n      dup4\n        /* \"#utility.yul\":5656:5673   */\n      add\n        /* \"#utility.yul\":5647:5653   */\n      dup5\n        /* \"#utility.yul\":5603:5674   */\n      tag_189\n      jump\t// in\n    tag_273:\n        /* \"#utility.yul\":5459:5681   */\n      swap3\n      swap2\n      pop\n      pop\n      jump\t// out\n        /* \"#utility.yul\":5687:5909   */\n    tag_57:\n        /* \"#utility.yul\":5780:5784   */\n      0x00\n        /* \"#utility.yul\":5818:5820   */\n      0x20\n        /* \"#utility.yul\":5807:5816   */\n      dup3\n        /* \"#utility.yul\":5803:5821   */\n      add\n        /* \"#utility.yul\":5795:5821   */\n      swap1\n      pop\n        /* \"#utility.yul\":5831:5902   */\n      tag_275\n        /* \"#utility.yul\":5899:5900   */\n      0x00\n        /* \"#utility.yul\":5888:5897   */\n      dup4\n        /* \"#utility.yul\":5884:5901   */\n      add\n        /* \"#utility.yul\":5875:5881   */\n      dup5\n        /* \"#utility.yul\":5831:5902   */\n      tag_183\n      jump\t// in\n    tag_275:\n        /* \"#utility.yul\":5687:5909   */\n      swap3\n      swap2\n      pop\n      pop\n      jump\t// out\n        /* \"#utility.yul\":5915:6244   */\n    tag_60:\n        /* \"#utility.yul\":5974:5980   */\n      0x00\n        /* \"#utility.yul\":6023:6025   */\n      0x20\n        /* \"#utility.yul\":6011:6020   */\n      dup3\n        /* \"#utility.yul\":6002:6009   */\n      dup5\n        /* \"#utility.yul\":5998:6021   */\n      sub\n        /* \"#utility.yul\":5994:6026   */\n      slt\n        /* \"#utility.yul\":5991:6110   */\n      iszero\n      tag_277\n      jumpi\n        /* \"#utility.yul\":6029:6108   */\n      tag_278\n      tag_171\n      jump\t// in\n    tag_278:\n        /* \"#utility.yul\":5991:6110   */\n    tag_277:\n        /* \"#utility.yul\":6149:6150   */\n      0x00\n        /* \"#utility.yul\":6174:6227   */\n      tag_279\n        /* \"#utility.yul\":6219:6226   */\n      dup5\n        /* \"#utility.yul\":6210:6216   */\n      dup3\n        /* \"#utility.yul\":6199:6208   */\n      dup6\n        /* \"#utility.yul\":6195:6217   */\n      add\n        /* \"#utility.yul\":6174:6227   */\n      tag_178\n      jump\t// in\n    tag_279:\n        /* \"#utility.yul\":6164:6227   */\n      swap2\n      pop\n        /* \"#utility.yul\":6120:6237   */\n      pop\n        /* \"#utility.yul\":5915:6244   */\n      swap3\n      swap2\n      pop\n      pop\n      jump\t// out\n        /* \"#utility.yul\":6250:6419   */\n    tag_190:\n        /* \"#utility.yul\":6334:6345   */\n      0x00\n        /* \"#utility.yul\":6368:6374   */\n      dup3\n        /* \"#utility.yul\":6363:6366   */\n      dup3\n        /* \"#utility.yul\":6356:6375   */\n      mstore\n        /* \"#utility.yul\":6408:6412   */\n      0x20\n        /* \"#utility.yul\":6403:6406   */\n      dup3\n        /* \"#utility.yul\":6399:6413   */\n      add\n        /* \"#utility.yul\":6384:6413   */\n      swap1\n      pop\n        /* \"#utility.yul\":6250:6419   */\n      swap3\n      swap2\n      pop\n      pop\n      jump\t// out\n        /* \"#utility.yul\":6425:6605   */\n    tag_191:\n        /* \"#utility.yul\":6565:6597   */\n      0x4f6e6c792062656e65666963696172792063616e2063616c6c20746869730000\n        /* \"#utility.yul\":6561:6562   */\n      0x00\n        /* \"#utility.yul\":6553:6559   */\n      dup3\n        /* \"#utility.yul\":6549:6563   */\n      add\n        /* \"#utility.yul\":6542:6598   */\n      mstore\n        /* \"#utility.yul\":6425:6605   */\n      pop\n      jump\t// out\n        /* \"#utility.yul\":6611:6977   */\n    tag_192:\n        /* \"#utility.yul\":6753:6756   */\n      0x00\n        /* \"#utility.yul\":6774:6841   */\n      tag_283\n        /* \"#utility.yul\":6838:6840   */\n      0x1e\n        /* \"#utility.yul\":6833:6836   */\n      dup4\n        /* \"#utility.yul\":6774:6841   */\n      tag_190\n      jump\t// in\n    tag_283:\n        /* \"#utility.yul\":6767:6841   */\n      swap2\n      pop\n        /* \"#utility.yul\":6850:6943   */\n      tag_284\n        /* \"#utility.yul\":6939:6942   */\n      dup3\n        /* \"#utility.yul\":6850:6943   */\n      tag_191\n      jump\t// in\n    tag_284:\n        /* \"#utility.yul\":6968:6970   */\n      0x20\n        /* \"#utility.yul\":6963:6966   */\n      dup3\n        /* \"#utility.yul\":6959:6971   */\n      add\n        /* \"#utility.yul\":6952:6971   */\n      swap1\n      pop\n        /* \"#utility.yul\":6611:6977   */\n      swap2\n      swap1\n      pop\n      jump\t// out\n        /* \"#utility.yul\":6983:7402   */\n    tag_72:\n        /* \"#utility.yul\":7149:7153   */\n      0x00\n        /* \"#utility.yul\":7187:7189   */\n      0x20\n        /* \"#utility.yul\":7176:7185   */\n      dup3\n        /* \"#utility.yul\":7172:7190   */\n      add\n        /* \"#utility.yul\":7164:7190   */\n      swap1\n      pop\n        /* \"#utility.yul\":7236:7245   */\n      dup2\n        /* \"#utility.yul\":7230:7234   */\n      dup2\n        /* \"#utility.yul\":7226:7246   */\n      sub\n        /* \"#utility.yul\":7222:7223   */\n      0x00\n        /* \"#utility.yul\":7211:7220   */\n      dup4\n        /* \"#utility.yul\":7207:7224   */\n      add\n        /* \"#utility.yul\":7200:7247   */\n      mstore\n        /* \"#utility.yul\":7264:7395   */\n      tag_286\n        /* \"#utility.yul\":7390:7394   */\n      dup2\n        /* \"#utility.yul\":7264:7395   */\n      tag_192\n      jump\t// in\n    tag_286:\n        /* \"#utility.yul\":7256:7395   */\n      swap1\n      pop\n        /* \"#utility.yul\":6983:7402   */\n      swap2\n      swap1\n      pop\n      jump\t// out\n        /* \"#utility.yul\":7408:7571   */\n    tag_193:\n        /* \"#utility.yul\":7548:7563   */\n      0x496e76616c696420706861736500000000000000000000000000000000000000\n        /* \"#utility.yul\":7544:7545   */\n      0x00\n        /* \"#utility.yul\":7536:7542   */\n      dup3\n        /* \"#utility.yul\":7532:7546   */\n      add\n        /* \"#utility.yul\":7525:7564   */\n      mstore\n        /* \"#utility.yul\":7408:7571   */\n      pop\n      jump\t// out\n        /* \"#utility.yul\":7577:7943   */\n    tag_194:\n        /* \"#utility.yul\":7719:7722   */\n      0x00\n        /* \"#utility.yul\":7740:7807   */\n      tag_289\n        /* \"#utility.yul\":7804:7806   */\n      0x0d\n        /* \"#utility.yul\":7799:7802   */\n      dup4\n        /* \"#utility.yul\":7740:7807   */\n      tag_190\n      jump\t// in\n    tag_289:\n        /* \"#utility.yul\":7733:7807   */\n      swap2\n      pop\n        /* \"#utility.yul\":7816:7909   */\n      tag_290\n        /* \"#utility.yul\":7905:7908   */\n      dup3\n        /* \"#utility.yul\":7816:7909   */\n      tag_193\n      jump\t// in\n    tag_290:\n        /* \"#utility.yul\":7934:7936   */\n      0x20\n        /* \"#utility.yul\":7929:7932   */\n      dup3\n        /* \"#utility.yul\":7925:7937   */\n      add\n        /* \"#utility.yul\":7918:7937   */\n      swap1\n      pop\n        /* \"#utility.yul\":7577:7943   */\n      swap2\n      swap1\n      pop\n      jump\t// out\n        /* \"#utility.yul\":7949:8368   */\n    tag_81:\n        /* \"#utility.yul\":8115:8119   */\n      0x00\n        /* \"#utility.yul\":8153:8155   */\n      0x20\n        /* \"#utility.yul\":8142:8151   */\n      dup3\n        /* \"#utility.yul\":8138:8156   */\n      add\n        /* \"#utility.yul\":8130:8156   */\n      swap1\n      pop\n        /* \"#utility.yul\":8202:8211   */\n      dup2\n        /* \"#utility.yul\":8196:8200   */\n      dup2\n        /* \"#utility.yul\":8192:8212   */\n      sub\n        /* \"#utility.yul\":8188:8189   */\n      0x00\n        /* \"#utility.yul\":8177:8186   */\n      dup4\n        /* \"#utility.yul\":8173:8190   */\n      add\n        /* \"#utility.yul\":8166:8213   */\n      mstore\n        /* \"#utility.yul\":8230:8361   */\n      tag_292\n        /* \"#utility.yul\":8356:8360   */\n      dup2\n        /* \"#utility.yul\":8230:8361   */\n      tag_194\n      jump\t// in\n    tag_292:\n        /* \"#utility.yul\":8222:8361   */\n      swap1\n      pop\n        /* \"#utility.yul\":7949:8368   */\n      swap2\n      swap1\n      pop\n      jump\t// out\n        /* \"#utility.yul\":8374:8706   */\n    tag_87:\n        /* \"#utility.yul\":8495:8499   */\n      0x00\n        /* \"#utility.yul\":8533:8535   */\n      0x40\n        /* \"#utility.yul\":8522:8531   */\n      dup3\n        /* \"#utility.yul\":8518:8536   */\n      add\n        /* \"#utility.yul\":8510:8536   */\n      swap1\n      pop\n        /* \"#utility.yul\":8546:8617   */\n      tag_294\n        /* \"#utility.yul\":8614:8615   */\n      0x00\n        /* \"#utility.yul\":8603:8612   */\n      dup4\n        /* \"#utility.yul\":8599:8616   */\n      add\n        /* \"#utility.yul\":8590:8596   */\n      dup6\n        /* \"#utility.yul\":8546:8617   */\n      tag_189\n      jump\t// in\n    tag_294:\n        /* \"#utility.yul\":8627:8699   */\n      tag_295\n        /* \"#utility.yul\":8695:8697   */\n      0x20\n        /* \"#utility.yul\":8684:8693   */\n      dup4\n        /* \"#utility.yul\":8680:8698   */\n      add\n        /* \"#utility.yul\":8671:8677   */\n      dup5\n        /* \"#utility.yul\":8627:8699   */\n      tag_183\n      jump\t// in\n    tag_295:\n        /* \"#utility.yul\":8374:8706   */\n      swap4\n      swap3\n      pop\n      pop\n      pop\n      jump\t// out\n        /* \"#utility.yul\":8712:9044   */\n    tag_101:\n        /* \"#utility.yul\":8833:8837   */\n      0x00\n        /* \"#utility.yul\":8871:8873   */\n      0x40\n        /* \"#utility.yul\":8860:8869   */\n      dup3\n        /* \"#utility.yul\":8856:8874   */\n      add\n        /* \"#utility.yul\":8848:8874   */\n      swap1\n      pop\n        /* \"#utility.yul\":8884:8955   */\n      tag_297\n        /* \"#utility.yul\":8952:8953   */\n      0x00\n        /* \"#utility.yul\":8941:8950   */\n      dup4\n        /* \"#utility.yul\":8937:8954   */\n      add\n        /* \"#utility.yul\":8928:8934   */\n      dup6\n        /* \"#utility.yul\":8884:8955   */\n      tag_183\n      jump\t// in\n    tag_297:\n        /* \"#utility.yul\":8965:9037   */\n      tag_298\n        /* \"#utility.yul\":9033:9035   */\n      0x20\n        /* \"#utility.yul\":9022:9031   */\n      dup4\n        /* \"#utility.yul\":9018:9036   */\n      add\n        /* \"#utility.yul\":9009:9015   */\n      dup5\n        /* \"#utility.yul\":8965:9037   */\n      tag_182\n      jump\t// in\n    tag_298:\n        /* \"#utility.yul\":8712:9044   */\n      swap4\n      swap3\n      pop\n      pop\n      pop\n      jump\t// out\n        /* \"#utility.yul\":9050:9193   */\n    tag_195:\n        /* \"#utility.yul\":9107:9112   */\n      0x00\n        /* \"#utility.yul\":9138:9144   */\n      dup2\n        /* \"#utility.yul\":9132:9145   */\n      mload\n        /* \"#utility.yul\":9123:9145   */\n      swap1\n      pop\n        /* \"#utility.yul\":9154:9187   */\n      tag_300\n        /* \"#utility.yul\":9181:9186   */\n      dup2\n        /* \"#utility.yul\":9154:9187   */\n      tag_177\n      jump\t// in\n    tag_300:\n        /* \"#utility.yul\":9050:9193   */\n      swap3\n      swap2\n      pop\n      pop\n      jump\t// out\n        /* \"#utility.yul\":9199:9550   */\n    tag_105:\n        /* \"#utility.yul\":9269:9275   */\n      0x00\n        /* \"#utility.yul\":9318:9320   */\n      0x20\n        /* \"#utility.yul\":9306:9315   */\n      dup3\n        /* \"#utility.yul\":9297:9304   */\n      dup5\n        /* \"#utility.yul\":9293:9316   */\n      sub\n        /* \"#utility.yul\":9289:9321   */\n      slt\n        /* \"#utility.yul\":9286:9405   */\n      iszero\n      tag_302\n      jumpi\n        /* \"#utility.yul\":9324:9403   */\n      tag_303\n      tag_171\n      jump\t// in\n    tag_303:\n        /* \"#utility.yul\":9286:9405   */\n    tag_302:\n        /* \"#utility.yul\":9444:9445   */\n      0x00\n        /* \"#utility.yul\":9469:9533   */\n      tag_304\n        /* \"#utility.yul\":9525:9532   */\n      dup5\n        /* \"#utility.yul\":9516:9522   */\n      dup3\n        /* \"#utility.yul\":9505:9514   */\n      dup6\n        /* \"#utility.yul\":9501:9523   */\n      add\n        /* \"#utility.yul\":9469:9533   */\n      tag_195\n      jump\t// in\n    tag_304:\n        /* \"#utility.yul\":9459:9533   */\n      swap2\n      pop\n        /* \"#utility.yul\":9415:9543   */\n      pop\n        /* \"#utility.yul\":9199:9550   */\n      swap3\n      swap2\n      pop\n      pop\n      jump\t// out\n        /* \"#utility.yul\":9556:9736   */\n    tag_196:\n        /* \"#utility.yul\":9604:9681   */\n      0x4e487b7100000000000000000000000000000000000000000000000000000000\n        /* \"#utility.yul\":9601:9602   */\n      0x00\n        /* \"#utility.yul\":9594:9682   */\n      mstore\n        /* \"#utility.yul\":9701:9705   */\n      0x11\n        /* \"#utility.yul\":9698:9699   */\n      0x04\n        /* \"#utility.yul\":9691:9706   */\n      mstore\n        /* \"#utility.yul\":9725:9729   */\n      0x24\n        /* \"#utility.yul\":9722:9723   */\n      0x00\n        /* \"#utility.yul\":9715:9730   */\n      revert\n        /* \"#utility.yul\":9742:10152   */\n    tag_108:\n        /* \"#utility.yul\":9782:9789   */\n      0x00\n        /* \"#utility.yul\":9805:9825   */\n      tag_307\n        /* \"#utility.yul\":9823:9824   */\n      dup3\n        /* \"#utility.yul\":9805:9825   */\n      tag_173\n      jump\t// in\n    tag_307:\n        /* \"#utility.yul\":9800:9825   */\n      swap2\n      pop\n        /* \"#utility.yul\":9839:9859   */\n      tag_308\n        /* \"#utility.yul\":9857:9858   */\n      dup4\n        /* \"#utility.yul\":9839:9859   */\n      tag_173\n      jump\t// in\n    tag_308:\n        /* \"#utility.yul\":9834:9859   */\n      swap3\n      pop\n        /* \"#utility.yul\":9894:9895   */\n      dup3\n        /* \"#utility.yul\":9891:9892   */\n      dup3\n        /* \"#utility.yul\":9887:9896   */\n      mul\n        /* \"#utility.yul\":9916:9946   */\n      tag_309\n        /* \"#utility.yul\":9934:9945   */\n      dup2\n        /* \"#utility.yul\":9916:9946   */\n      tag_173\n      jump\t// in\n    tag_309:\n        /* \"#utility.yul\":9905:9946   */\n      swap2\n      pop\n        /* \"#utility.yul\":10095:10096   */\n      dup3\n        /* \"#utility.yul\":10086:10093   */\n      dup3\n        /* \"#utility.yul\":10082:10097   */\n      div\n        /* \"#utility.yul\":10079:10080   */\n      dup5\n        /* \"#utility.yul\":10076:10098   */\n      eq\n        /* \"#utility.yul\":10056:10057   */\n      dup4\n        /* \"#utility.yul\":10049:10058   */\n      iszero\n        /* \"#utility.yul\":10029:10112   */\n      or\n        /* \"#utility.yul\":10006:10145   */\n      tag_310\n      jumpi\n        /* \"#utility.yul\":10125:10143   */\n      tag_311\n      tag_196\n      jump\t// in\n    tag_311:\n        /* \"#utility.yul\":10006:10145   */\n    tag_310:\n        /* \"#utility.yul\":9790:10152   */\n      pop\n        /* \"#utility.yul\":9742:10152   */\n      swap3\n      swap2\n      pop\n      pop\n      jump\t// out\n        /* \"#utility.yul\":10158:10349   */\n    tag_112:\n        /* \"#utility.yul\":10198:10201   */\n      0x00\n        /* \"#utility.yul\":10217:10237   */\n      tag_313\n        /* \"#utility.yul\":10235:10236   */\n      dup3\n        /* \"#utility.yul\":10217:10237   */\n      tag_173\n      jump\t// in\n    tag_313:\n        /* \"#utility.yul\":10212:10237   */\n      swap2\n      pop\n        /* \"#utility.yul\":10251:10271   */\n      tag_314\n        /* \"#utility.yul\":10269:10270   */\n      dup4\n        /* \"#utility.yul\":10251:10271   */\n      tag_173\n      jump\t// in\n    tag_314:\n        /* \"#utility.yul\":10246:10271   */\n      swap3\n      pop\n        /* \"#utility.yul\":10294:10295   */\n      dup3\n        /* \"#utility.yul\":10291:10292   */\n      dup3\n        /* \"#utility.yul\":10287:10296   */\n      add\n        /* \"#utility.yul\":10280:10296   */\n      swap1\n      pop\n        /* \"#utility.yul\":10315:10318   */\n      dup1\n        /* \"#utility.yul\":10312:10313   */\n      dup3\n        /* \"#utility.yul\":10309:10319   */\n      gt\n        /* \"#utility.yul\":10306:10342   */\n      iszero\n      tag_315\n      jumpi\n        /* \"#utility.yul\":10322:10340   */\n      tag_316\n      tag_196\n      jump\t// in\n    tag_316:\n        /* \"#utility.yul\":10306:10342   */\n    tag_315:\n        /* \"#utility.yul\":10158:10349   */\n      swap3\n      swap2\n      pop\n      pop\n      jump\t// out\n        /* \"#utility.yul\":10355:10549   */\n    tag_116:\n        /* \"#utility.yul\":10395:10399   */\n      0x00\n        /* \"#utility.yul\":10415:10435   */\n      tag_318\n        /* \"#utility.yul\":10433:10434   */\n      dup3\n        /* \"#utility.yul\":10415:10435   */\n      tag_173\n      jump\t// in\n    tag_318:\n        /* \"#utility.yul\":10410:10435   */\n      swap2\n      pop\n        /* \"#utility.yul\":10449:10469   */\n      tag_319\n        /* \"#utility.yul\":10467:10468   */\n      dup4\n        /* \"#utility.yul\":10449:10469   */\n      tag_173\n      jump\t// in\n    tag_319:\n        /* \"#utility.yul\":10444:10469   */\n      swap3\n      pop\n        /* \"#utility.yul\":10493:10494   */\n      dup3\n        /* \"#utility.yul\":10490:10491   */\n      dup3\n        /* \"#utility.yul\":10486:10495   */\n      sub\n        /* \"#utility.yul\":10478:10495   */\n      swap1\n      pop\n        /* \"#utility.yul\":10517:10518   */\n      dup2\n        /* \"#utility.yul\":10511:10515   */\n      dup2\n        /* \"#utility.yul\":10508:10519   */\n      gt\n        /* \"#utility.yul\":10505:10542   */\n      iszero\n      tag_320\n      jumpi\n        /* \"#utility.yul\":10522:10540   */\n      tag_321\n      tag_196\n      jump\t// in\n    tag_321:\n        /* \"#utility.yul\":10505:10542   */\n    tag_320:\n        /* \"#utility.yul\":10355:10549   */\n      swap3\n      swap2\n      pop\n      pop\n      jump\t// out\n        /* \"#utility.yul\":10555:10726   */\n    tag_197:\n        /* \"#utility.yul\":10695:10718   */\n      0x41756374696f6e20616c726561647920656e6465640000000000000000000000\n        /* \"#utility.yul\":10691:10692   */\n      0x00\n        /* \"#utility.yul\":10683:10689   */\n      dup3\n        /* \"#utility.yul\":10679:10693   */\n      add\n        /* \"#utility.yul\":10672:10719   */\n      mstore\n        /* \"#utility.yul\":10555:10726   */\n      pop\n      jump\t// out\n        /* \"#utility.yul\":10732:11098   */\n    tag_198:\n        /* \"#utility.yul\":10874:10877   */\n      0x00\n        /* \"#utility.yul\":10895:10962   */\n      tag_324\n        /* \"#utility.yul\":10959:10961   */\n      0x15\n        /* \"#utility.yul\":10954:10957   */\n      dup4\n        /* \"#utility.yul\":10895:10962   */\n      tag_190\n      jump\t// in\n    tag_324:\n        /* \"#utility.yul\":10888:10962   */\n      swap2\n      pop\n        /* \"#utility.yul\":10971:11064   */\n      tag_325\n        /* \"#utility.yul\":11060:11063   */\n      dup3\n        /* \"#utility.yul\":10971:11064   */\n      tag_197\n      jump\t// in\n    tag_325:\n        /* \"#utility.yul\":11089:11091   */\n      0x20\n        /* \"#utility.yul\":11084:11087   */\n      dup3\n        /* \"#utility.yul\":11080:11092   */\n      add\n        /* \"#utility.yul\":11073:11092   */\n      swap1\n      pop\n        /* \"#utility.yul\":10732:11098   */\n      swap2\n      swap1\n      pop\n      jump\t// out\n        /* \"#utility.yul\":11104:11523   */\n    tag_138:\n        /* \"#utility.yul\":11270:11274   */\n      0x00\n        /* \"#utility.yul\":11308:11310   */\n      0x20\n        /* \"#utility.yul\":11297:11306   */\n      dup3\n        /* \"#utility.yul\":11293:11311   */\n      add\n        /* \"#utility.yul\":11285:11311   */\n      swap1\n      pop\n        /* \"#utility.yul\":11357:11366   */\n      dup2\n        /* \"#utility.yul\":11351:11355   */\n      dup2\n        /* \"#utility.yul\":11347:11367   */\n      sub\n        /* \"#utility.yul\":11343:11344   */\n      0x00\n        /* \"#utility.yul\":11332:11341   */\n      dup4\n        /* \"#utility.yul\":11328:11345   */\n      add\n        /* \"#utility.yul\":11321:11368   */\n      mstore\n        /* \"#utility.yul\":11385:11516   */\n      tag_327\n        /* \"#utility.yul\":11511:11515   */\n      dup2\n        /* \"#utility.yul\":11385:11516   */\n      tag_198\n      jump\t// in\n    tag_327:\n        /* \"#utility.yul\":11377:11516   */\n      swap1\n      pop\n        /* \"#utility.yul\":11104:11523   */\n      swap2\n      swap1\n      pop\n      jump\t// out\n\n    auxdata: 0xa2646970667358221220c6301418259b8e66f3b8ef6cd38e5bdce9725df35a5db035bb3bc0cd41c8bf5364736f6c63430008120033\n}\n\nsub_1: assembly {\n        /* \"Projects/BlindAuction-Dapp/blindauction-contract/contracts/BlindAuction.sol\":72:277  contract Khash {... */\n      mstore(0x40, 0x80)\n      callvalue\n      dup1\n      iszero\n      tag_1\n      jumpi\n      0x00\n      dup1\n      revert\n    tag_1:\n      pop\n      dataSize(sub_0)\n      dup1\n      dataOffset(sub_0)\n      0x00\n      codecopy\n      0x00\n      return\n    stop\n\n    sub_0: assembly {\n            /* \"Projects/BlindAuction-Dapp/blindauction-contract/contracts/BlindAuction.sol\":72:277  contract Khash {... */\n          mstore(0x40, 0x80)\n          callvalue\n          dup1\n          iszero\n          tag_1\n          jumpi\n          0x00\n          dup1\n          revert\n        tag_1:\n          pop\n          jumpi(tag_2, lt(calldatasize, 0x04))\n          shr(0xe0, calldataload(0x00))\n          dup1\n          0xb3ec48dd\n          eq\n          tag_3\n          jumpi\n        tag_2:\n          0x00\n          dup1\n          revert\n            /* \"Projects/BlindAuction-Dapp/blindauction-contract/contracts/BlindAuction.sol\":94:274  function hashMe(uint value, bytes32 password) ... */\n        tag_3:\n          tag_4\n          0x04\n          dup1\n          calldatasize\n          sub\n          dup2\n          add\n          swap1\n          tag_5\n          swap2\n          swap1\n          tag_6\n          jump\t// in\n        tag_5:\n          tag_7\n          jump\t// in\n        tag_4:\n          mload(0x40)\n          tag_8\n          swap2\n          swap1\n          tag_9\n          jump\t// in\n        tag_8:\n          mload(0x40)\n          dup1\n          swap2\n          sub\n          swap1\n          return\n        tag_7:\n            /* \"Projects/BlindAuction-Dapp/blindauction-contract/contracts/BlindAuction.sol\":191:198  bytes32 */\n          0x00\n            /* \"Projects/BlindAuction-Dapp/blindauction-contract/contracts/BlindAuction.sol\":249:254  value */\n          dup3\n            /* \"Projects/BlindAuction-Dapp/blindauction-contract/contracts/BlindAuction.sol\":256:264  password */\n          dup3\n            /* \"Projects/BlindAuction-Dapp/blindauction-contract/contracts/BlindAuction.sol\":232:265  abi.encodePacked(value, password) */\n          add(0x20, mload(0x40))\n          tag_11\n          swap3\n          swap2\n          swap1\n          tag_12\n          jump\t// in\n        tag_11:\n          mload(0x40)\n          0x20\n          dup2\n          dup4\n          sub\n          sub\n          dup2\n          mstore\n          swap1\n          0x40\n          mstore\n            /* \"Projects/BlindAuction-Dapp/blindauction-contract/contracts/BlindAuction.sol\":222:266  keccak256(abi.encodePacked(value, password)) */\n          dup1\n          mload\n          swap1\n          0x20\n          add\n          keccak256\n            /* \"Projects/BlindAuction-Dapp/blindauction-contract/contracts/BlindAuction.sol\":215:266  return keccak256(abi.encodePacked(value, password)) */\n          swap1\n          pop\n            /* \"Projects/BlindAuction-Dapp/blindauction-contract/contracts/BlindAuction.sol\":94:274  function hashMe(uint value, bytes32 password) ... */\n          swap3\n          swap2\n          pop\n          pop\n          jump\t// out\n            /* \"#utility.yul\":88:205   */\n        tag_14:\n            /* \"#utility.yul\":197:198   */\n          0x00\n            /* \"#utility.yul\":194:195   */\n          dup1\n            /* \"#utility.yul\":187:199   */\n          revert\n            /* \"#utility.yul\":334:411   */\n        tag_16:\n            /* \"#utility.yul\":371:378   */\n          0x00\n            /* \"#utility.yul\":400:405   */\n          dup2\n            /* \"#utility.yul\":389:405   */\n          swap1\n          pop\n            /* \"#utility.yul\":334:411   */\n          swap2\n          swap1\n          pop\n          jump\t// out\n            /* \"#utility.yul\":417:539   */\n        tag_17:\n            /* \"#utility.yul\":490:514   */\n          tag_33\n            /* \"#utility.yul\":508:513   */\n          dup2\n            /* \"#utility.yul\":490:514   */\n          tag_16\n          jump\t// in\n        tag_33:\n            /* \"#utility.yul\":483:488   */\n          dup2\n            /* \"#utility.yul\":480:515   */\n          eq\n            /* \"#utility.yul\":470:533   */\n          tag_34\n          jumpi\n            /* \"#utility.yul\":529:530   */\n          0x00\n            /* \"#utility.yul\":526:527   */\n          dup1\n            /* \"#utility.yul\":519:531   */\n          revert\n            /* \"#utility.yul\":470:533   */\n        tag_34:\n            /* \"#utility.yul\":417:539   */\n          pop\n          jump\t// out\n            /* \"#utility.yul\":545:684   */\n        tag_18:\n            /* \"#utility.yul\":591:596   */\n          0x00\n            /* \"#utility.yul\":629:635   */\n          dup2\n            /* \"#utility.yul\":616:636   */\n          calldataload\n            /* \"#utility.yul\":607:636   */\n          swap1\n          pop\n            /* \"#utility.yul\":645:678   */\n          tag_36\n            /* \"#utility.yul\":672:677   */\n          dup2\n            /* \"#utility.yul\":645:678   */\n          tag_17\n          jump\t// in\n        tag_36:\n            /* \"#utility.yul\":545:684   */\n          swap3\n          swap2\n          pop\n          pop\n          jump\t// out\n            /* \"#utility.yul\":690:767   */\n        tag_19:\n            /* \"#utility.yul\":727:734   */\n          0x00\n            /* \"#utility.yul\":756:761   */\n          dup2\n            /* \"#utility.yul\":745:761   */\n          swap1\n          pop\n            /* \"#utility.yul\":690:767   */\n          swap2\n          swap1\n          pop\n          jump\t// out\n            /* \"#utility.yul\":773:895   */\n        tag_20:\n            /* \"#utility.yul\":846:870   */\n          tag_39\n            /* \"#utility.yul\":864:869   */\n          dup2\n            /* \"#utility.yul\":846:870   */\n          tag_19\n          jump\t// in\n        tag_39:\n            /* \"#utility.yul\":839:844   */\n          dup2\n            /* \"#utility.yul\":836:871   */\n          eq\n            /* \"#utility.yul\":826:889   */\n          tag_40\n          jumpi\n            /* \"#utility.yul\":885:886   */\n          0x00\n            /* \"#utility.yul\":882:883   */\n          dup1\n            /* \"#utility.yul\":875:887   */\n          revert\n            /* \"#utility.yul\":826:889   */\n        tag_40:\n            /* \"#utility.yul\":773:895   */\n          pop\n          jump\t// out\n            /* \"#utility.yul\":901:1040   */\n        tag_21:\n            /* \"#utility.yul\":947:952   */\n          0x00\n            /* \"#utility.yul\":985:991   */\n          dup2\n            /* \"#utility.yul\":972:992   */\n          calldataload\n            /* \"#utility.yul\":963:992   */\n          swap1\n          pop\n            /* \"#utility.yul\":1001:1034   */\n          tag_42\n            /* \"#utility.yul\":1028:1033   */\n          dup2\n            /* \"#utility.yul\":1001:1034   */\n          tag_20\n          jump\t// in\n        tag_42:\n            /* \"#utility.yul\":901:1040   */\n          swap3\n          swap2\n          pop\n          pop\n          jump\t// out\n            /* \"#utility.yul\":1046:1520   */\n        tag_6:\n            /* \"#utility.yul\":1114:1120   */\n          0x00\n            /* \"#utility.yul\":1122:1128   */\n          dup1\n            /* \"#utility.yul\":1171:1173   */\n          0x40\n            /* \"#utility.yul\":1159:1168   */\n          dup4\n            /* \"#utility.yul\":1150:1157   */\n          dup6\n            /* \"#utility.yul\":1146:1169   */\n          sub\n            /* \"#utility.yul\":1142:1174   */\n          slt\n            /* \"#utility.yul\":1139:1258   */\n          iszero\n          tag_44\n          jumpi\n            /* \"#utility.yul\":1177:1256   */\n          tag_45\n          tag_14\n          jump\t// in\n        tag_45:\n            /* \"#utility.yul\":1139:1258   */\n        tag_44:\n            /* \"#utility.yul\":1297:1298   */\n          0x00\n            /* \"#utility.yul\":1322:1375   */\n          tag_46\n            /* \"#utility.yul\":1367:1374   */\n          dup6\n            /* \"#utility.yul\":1358:1364   */\n          dup3\n            /* \"#utility.yul\":1347:1356   */\n          dup7\n            /* \"#utility.yul\":1343:1365   */\n          add\n            /* \"#utility.yul\":1322:1375   */\n          tag_18\n          jump\t// in\n        tag_46:\n            /* \"#utility.yul\":1312:1375   */\n          swap3\n          pop\n            /* \"#utility.yul\":1268:1385   */\n          pop\n            /* \"#utility.yul\":1424:1426   */\n          0x20\n            /* \"#utility.yul\":1450:1503   */\n          tag_47\n            /* \"#utility.yul\":1495:1502   */\n          dup6\n            /* \"#utility.yul\":1486:1492   */\n          dup3\n            /* \"#utility.yul\":1475:1484   */\n          dup7\n            /* \"#utility.yul\":1471:1493   */\n          add\n            /* \"#utility.yul\":1450:1503   */\n          tag_21\n          jump\t// in\n        tag_47:\n            /* \"#utility.yul\":1440:1503   */\n          swap2\n          pop\n            /* \"#utility.yul\":1395:1513   */\n          pop\n            /* \"#utility.yul\":1046:1520   */\n          swap3\n          pop\n          swap3\n          swap1\n          pop\n          jump\t// out\n            /* \"#utility.yul\":1526:1644   */\n        tag_22:\n            /* \"#utility.yul\":1613:1637   */\n          tag_49\n            /* \"#utility.yul\":1631:1636   */\n          dup2\n            /* \"#utility.yul\":1613:1637   */\n          tag_19\n          jump\t// in\n        tag_49:\n            /* \"#utility.yul\":1608:1611   */\n          dup3\n            /* \"#utility.yul\":1601:1638   */\n          mstore\n            /* \"#utility.yul\":1526:1644   */\n          pop\n          pop\n          jump\t// out\n            /* \"#utility.yul\":1650:1872   */\n        tag_9:\n            /* \"#utility.yul\":1743:1747   */\n          0x00\n            /* \"#utility.yul\":1781:1783   */\n          0x20\n            /* \"#utility.yul\":1770:1779   */\n          dup3\n            /* \"#utility.yul\":1766:1784   */\n          add\n            /* \"#utility.yul\":1758:1784   */\n          swap1\n          pop\n            /* \"#utility.yul\":1794:1865   */\n          tag_51\n            /* \"#utility.yul\":1862:1863   */\n          0x00\n            /* \"#utility.yul\":1851:1860   */\n          dup4\n            /* \"#utility.yul\":1847:1864   */\n          add\n            /* \"#utility.yul\":1838:1844   */\n          dup5\n            /* \"#utility.yul\":1794:1865   */\n          tag_22\n          jump\t// in\n        tag_51:\n            /* \"#utility.yul\":1650:1872   */\n          swap3\n          swap2\n          pop\n          pop\n          jump\t// out\n            /* \"#utility.yul\":1878:1957   */\n        tag_23:\n            /* \"#utility.yul\":1917:1924   */\n          0x00\n            /* \"#utility.yul\":1946:1951   */\n          dup2\n            /* \"#utility.yul\":1935:1951   */\n          swap1\n          pop\n            /* \"#utility.yul\":1878:1957   */\n          swap2\n          swap1\n          pop\n          jump\t// out\n            /* \"#utility.yul\":1963:2120   */\n        tag_24:\n            /* \"#utility.yul\":2068:2113   */\n          tag_54\n            /* \"#utility.yul\":2088:2112   */\n          tag_55\n            /* \"#utility.yul\":2106:2111   */\n          dup3\n            /* \"#utility.yul\":2088:2112   */\n          tag_16\n          jump\t// in\n        tag_55:\n            /* \"#utility.yul\":2068:2113   */\n          tag_23\n          jump\t// in\n        tag_54:\n            /* \"#utility.yul\":2063:2066   */\n          dup3\n            /* \"#utility.yul\":2056:2114   */\n          mstore\n            /* \"#utility.yul\":1963:2120   */\n          pop\n          pop\n          jump\t// out\n            /* \"#utility.yul\":2126:2205   */\n        tag_25:\n            /* \"#utility.yul\":2165:2172   */\n          0x00\n            /* \"#utility.yul\":2194:2199   */\n          dup2\n            /* \"#utility.yul\":2183:2199   */\n          swap1\n          pop\n            /* \"#utility.yul\":2126:2205   */\n          swap2\n          swap1\n          pop\n          jump\t// out\n            /* \"#utility.yul\":2211:2368   */\n        tag_26:\n            /* \"#utility.yul\":2316:2361   */\n          tag_58\n            /* \"#utility.yul\":2336:2360   */\n          tag_59\n            /* \"#utility.yul\":2354:2359   */\n          dup3\n            /* \"#utility.yul\":2336:2360   */\n          tag_19\n          jump\t// in\n        tag_59:\n            /* \"#utility.yul\":2316:2361   */\n          tag_25\n          jump\t// in\n        tag_58:\n            /* \"#utility.yul\":2311:2314   */\n          dup3\n            /* \"#utility.yul\":2304:2362   */\n          mstore\n            /* \"#utility.yul\":2211:2368   */\n          pop\n          pop\n          jump\t// out\n            /* \"#utility.yul\":2374:2771   */\n        tag_12:\n            /* \"#utility.yul\":2514:2517   */\n          0x00\n            /* \"#utility.yul\":2529:2604   */\n          tag_61\n            /* \"#utility.yul\":2600:2603   */\n          dup3\n            /* \"#utility.yul\":2591:2597   */\n          dup6\n            /* \"#utility.yul\":2529:2604   */\n          tag_24\n          jump\t// in\n        tag_61:\n            /* \"#utility.yul\":2629:2631   */\n          0x20\n            /* \"#utility.yul\":2624:2627   */\n          dup3\n            /* \"#utility.yul\":2620:2632   */\n          add\n            /* \"#utility.yul\":2613:2632   */\n          swap2\n          pop\n            /* \"#utility.yul\":2642:2717   */\n          tag_62\n            /* \"#utility.yul\":2713:2716   */\n          dup3\n            /* \"#utility.yul\":2704:2710   */\n          dup5\n            /* \"#utility.yul\":2642:2717   */\n          tag_26\n          jump\t// in\n        tag_62:\n            /* \"#utility.yul\":2742:2744   */\n          0x20\n            /* \"#utility.yul\":2737:2740   */\n          dup3\n            /* \"#utility.yul\":2733:2745   */\n          add\n            /* \"#utility.yul\":2726:2745   */\n          swap2\n          pop\n            /* \"#utility.yul\":2762:2765   */\n          dup2\n            /* \"#utility.yul\":2755:2765   */\n          swap1\n          pop\n            /* \"#utility.yul\":2374:2771   */\n          swap4\n          swap3\n          pop\n          pop\n          pop\n          jump\t// out\n\n        auxdata: 0xa2646970667358221220bb5211e8db2171759ea4b3c2384d89a0d5948459e991b7918aaabb62be4a967864736f6c63430008120033\n    }\n}\n",
				"bytecode": {
					"linkReferences": {},
					"object": "60806040526000600160146101000a81548160ff0219169083600381111561002a576100296100f7565b5b021790555034801561003b57600080fd5b5033600160006101000a81548173ffffffffffffffffffffffffffffffffffffffff021916908373ffffffffffffffffffffffffffffffffffffffff160217905550604051610089906100ea565b604051809103906000f0801580156100a5573d6000803e3d6000fd5b506000806101000a81548173ffffffffffffffffffffffffffffffffffffffff021916908373ffffffffffffffffffffffffffffffffffffffff160217905550610126565b6102328061154483390190565b7f4e487b7100000000000000000000000000000000000000000000000000000000600052602160045260246000fd5b61140f806101356000396000f3fe6080604052600436106100a75760003560e01c80636314201511610064578063631420151461019757806391f90157146101c257806394c246d5146101ed578063957bb1e014610218578063be25a71814610234578063d57bde791461024b576100a7565b8063055ad42e146100ac5780632a24f46c146100d757806338af3eed146100ee5780633ccfd60b146101195780634036778f1461013057806362ea82db14610159575b600080fd5b3480156100b857600080fd5b506100c1610276565b6040516100ce9190610e51565b60405180910390f35b3480156100e357600080fd5b506100ec610289565b005b3480156100fa57600080fd5b506101036104b2565b6040516101109190610ead565b60405180910390f35b34801561012557600080fd5b5061012e6104d8565b005b34801561013c57600080fd5b5061015760048036038101906101529190610f39565b6105b5565b005b34801561016557600080fd5b50610180600480360381019061017b9190610fb7565b61093f565b60405161018e929190611002565b60405180910390f35b3480156101a357600080fd5b506101ac610963565b6040516101b9919061108a565b60405180910390f35b3480156101ce57600080fd5b506101d7610987565b6040516101e491906110b4565b60405180910390f35b3480156101f957600080fd5b506102026109ad565b60405161020f91906110cf565b60405180910390f35b610232600480360381019061022d91906110ea565b6109f4565b005b34801561024057600080fd5b50610249610ada565b005b34801561025757600080fd5b50610260610dd4565b60405161026d91906110cf565b60405180910390f35b600160149054906101000a900460ff1681565b600160009054906101000a900473ffffffffffffffffffffffffffffffffffffffff1673ffffffffffffffffffffffffffffffffffffffff163373ffffffffffffffffffffffffffffffffffffffff1614610319576040517f08c379a000000000000000000000000000000000000000000000000000000000815260040161031090611174565b60405180910390fd5b600380600381111561032e5761032d610dda565b5b600160149054906101000a900460ff1660038111156103505761034f610dda565b5b14610390576040517f08c379a0000000000000000000000000000000000000000000000000000000008152600401610387906111e0565b60405180910390fd5b600073ffffffffffffffffffffffffffffffffffffffff16600460009054906101000a900473ffffffffffffffffffffffffffffffffffffffff1673ffffffffffffffffffffffffffffffffffffffff161461045257600160009054906101000a900473ffffffffffffffffffffffffffffffffffffffff1673ffffffffffffffffffffffffffffffffffffffff166108fc6005549081150290604051600060405180830381858888f19350505050158015610450573d6000803e3d6000fd5b505b7fdaec4582d5d9595688c8c98545fdd1c696d41c6aeaeb636737e84ed2f5c00eda600460009054906101000a900473ffffffffffffffffffffffffffffffffffffffff166005546040516104a7929190611200565b60405180910390a150565b600160009054906101000a900473ffffffffffffffffffffffffffffffffffffffff1681565b6000600360003373ffffffffffffffffffffffffffffffffffffffff1673ffffffffffffffffffffffffffffffffffffffff16815260200190815260200160002054905060008111156105b2576000600360003373ffffffffffffffffffffffffffffffffffffffff1673ffffffffffffffffffffffffffffffffffffffff168152602001908152602001600020819055503373ffffffffffffffffffffffffffffffffffffffff166108fc829081150290604051600060405180830381858888f193505050501580156105b0573d6000803e3d6000fd5b505b50565b60028060038111156105ca576105c9610dda565b5b600160149054906101000a900460ff1660038111156105ec576105eb610dda565b5b1461062c576040517f08c379a0000000000000000000000000000000000000000000000000000000008152600401610623906111e0565b60405180910390fd5b6000600260003373ffffffffffffffffffffffffffffffffffffffff1673ffffffffffffffffffffffffffffffffffffffff168152602001908152602001600020905060008060009054906101000a900473ffffffffffffffffffffffffffffffffffffffff1673ffffffffffffffffffffffffffffffffffffffff1663b3ec48dd86866040518363ffffffff1660e01b81526004016106cd929190611229565b602060405180830381865afa1580156106ea573d6000803e3d6000fd5b505050506040513d601f19601f8201168201806040525081019061070e9190611267565b9050808260000154036108e357600082600101549050600554670de0b6b3a76400008761073b91906112c3565b111561088f57600073ffffffffffffffffffffffffffffffffffffffff16600460009054906101000a900473ffffffffffffffffffffffffffffffffffffffff1673ffffffffffffffffffffffffffffffffffffffff16146108125760055460036000600460009054906101000a900473ffffffffffffffffffffffffffffffffffffffff1673ffffffffffffffffffffffffffffffffffffffff1673ffffffffffffffffffffffffffffffffffffffff168152602001908152602001600020600082825461080a9190611305565b925050819055505b33600460006101000a81548173ffffffffffffffffffffffffffffffffffffffff021916908373ffffffffffffffffffffffffffffffffffffffff160217905550670de0b6b3a76400008661086791906112c3565b600581905550670de0b6b3a76400008661088191906112c3565b8161088c9190611339565b90505b60008111156108dd5780600360003373ffffffffffffffffffffffffffffffffffffffff1673ffffffffffffffffffffffffffffffffffffffff168152602001908152602001600020819055505b5061092c565b8160010154600360003373ffffffffffffffffffffffffffffffffffffffff1673ffffffffffffffffffffffffffffffffffffffff168152602001908152602001600020819055505b6000801b82600001819055505050505050565b60026020528060005260406000206000915090508060000154908060010154905082565b60008054906101000a900473ffffffffffffffffffffffffffffffffffffffff1681565b600460009054906101000a900473ffffffffffffffffffffffffffffffffffffffff1681565b6000600360003373ffffffffffffffffffffffffffffffffffffffff1673ffffffffffffffffffffffffffffffffffffffff16815260200190815260200160002054905090565b6001806003811115610a0957610a08610dda565b5b600160149054906101000a900460ff166003811115610a2b57610a2a610dda565b5b14610a6b576040517f08c379a0000000000000000000000000000000000000000000000000000000008152600401610a62906111e0565b60405180910390fd5b604051806040016040528083815260200134815250600260003373ffffffffffffffffffffffffffffffffffffffff1673ffffffffffffffffffffffffffffffffffffffff16815260200190815260200160002060008201518160000155602082015181600101559050505050565b600160009054906101000a900473ffffffffffffffffffffffffffffffffffffffff1673ffffffffffffffffffffffffffffffffffffffff163373ffffffffffffffffffffffffffffffffffffffff1614610b6a576040517f08c379a0000000000000000000000000000000000000000000000000000000008152600401610b6190611174565b60405180910390fd5b600380811115610b7d57610b7c610dda565b5b600160149054906101000a900460ff166003811115610b9f57610b9e610dda565b5b03610bdf576040517f08c379a0000000000000000000000000000000000000000000000000000000008152600401610bd6906113b9565b60405180910390fd5b60006003811115610bf357610bf2610dda565b5b600160149054906101000a900460ff166003811115610c1557610c14610dda565b5b03610c755760018060146101000a81548160ff02191690836003811115610c3f57610c3e610dda565b5b02179055507f02c124e22ee7da1c9905bbb317cf67658c1cc3ea1c0953b1633f85d0b5c281d960405160405180910390a1610dd2565b60016003811115610c8957610c88610dda565b5b600160149054906101000a900460ff166003811115610cab57610caa610dda565b5b03610d0c576002600160146101000a81548160ff02191690836003811115610cd657610cd5610dda565b5b02179055507f3bcc93d35219aa0512d7c0d1ca10b0231f473e3d5f9396877d1b7215ee0ab3d560405160405180910390a1610dd1565b60026003811115610d2057610d1f610dda565b5b600160149054906101000a900460ff166003811115610d4257610d41610dda565b5b03610dd0576003600160146101000a81548160ff02191690836003811115610d6d57610d6c610dda565b5b02179055507fdaec4582d5d9595688c8c98545fdd1c696d41c6aeaeb636737e84ed2f5c00eda600460009054906101000a900473ffffffffffffffffffffffffffffffffffffffff16600554604051610dc7929190611200565b60405180910390a15b5b5b565b60055481565b7f4e487b7100000000000000000000000000000000000000000000000000000000600052602160045260246000fd5b60048110610e1a57610e19610dda565b5b50565b6000819050610e2b82610e09565b919050565b6000610e3b82610e1d565b9050919050565b610e4b81610e30565b82525050565b6000602082019050610e666000830184610e42565b92915050565b600073ffffffffffffffffffffffffffffffffffffffff82169050919050565b6000610e9782610e6c565b9050919050565b610ea781610e8c565b82525050565b6000602082019050610ec26000830184610e9e565b92915050565b600080fd5b6000819050919050565b610ee081610ecd565b8114610eeb57600080fd5b50565b600081359050610efd81610ed7565b92915050565b6000819050919050565b610f1681610f03565b8114610f2157600080fd5b50565b600081359050610f3381610f0d565b92915050565b60008060408385031215610f5057610f4f610ec8565b5b6000610f5e85828601610eee565b9250506020610f6f85828601610f24565b9150509250929050565b6000610f8482610e6c565b9050919050565b610f9481610f79565b8114610f9f57600080fd5b50565b600081359050610fb181610f8b565b92915050565b600060208284031215610fcd57610fcc610ec8565b5b6000610fdb84828501610fa2565b91505092915050565b610fed81610f03565b82525050565b610ffc81610ecd565b82525050565b60006040820190506110176000830185610fe4565b6110246020830184610ff3565b9392505050565b6000819050919050565b600061105061104b61104684610e6c565b61102b565b610e6c565b9050919050565b600061106282611035565b9050919050565b600061107482611057565b9050919050565b61108481611069565b82525050565b600060208201905061109f600083018461107b565b92915050565b6110ae81610f79565b82525050565b60006020820190506110c960008301846110a5565b92915050565b60006020820190506110e46000830184610ff3565b92915050565b600060208284031215611100576110ff610ec8565b5b600061110e84828501610f24565b91505092915050565b600082825260208201905092915050565b7f4f6e6c792062656e65666963696172792063616e2063616c6c20746869730000600082015250565b600061115e601e83611117565b915061116982611128565b602082019050919050565b6000602082019050818103600083015261118d81611151565b9050919050565b7f496e76616c696420706861736500000000000000000000000000000000000000600082015250565b60006111ca600d83611117565b91506111d582611194565b602082019050919050565b600060208201905081810360008301526111f9816111bd565b9050919050565b600060408201905061121560008301856110a5565b6112226020830184610ff3565b9392505050565b600060408201905061123e6000830185610ff3565b61124b6020830184610fe4565b9392505050565b60008151905061126181610f0d565b92915050565b60006020828403121561127d5761127c610ec8565b5b600061128b84828501611252565b91505092915050565b7f4e487b7100000000000000000000000000000000000000000000000000000000600052601160045260246000fd5b60006112ce82610ecd565b91506112d983610ecd565b92508282026112e781610ecd565b915082820484148315176112fe576112fd611294565b5b5092915050565b600061131082610ecd565b915061131b83610ecd565b925082820190508082111561133357611332611294565b5b92915050565b600061134482610ecd565b915061134f83610ecd565b925082820390508181111561136757611366611294565b5b92915050565b7f41756374696f6e20616c726561647920656e6465640000000000000000000000600082015250565b60006113a3601583611117565b91506113ae8261136d565b602082019050919050565b600060208201905081810360008301526113d281611396565b905091905056fea2646970667358221220c6301418259b8e66f3b8ef6cd38e5bdce9725df35a5db035bb3bc0cd41c8bf5364736f6c63430008120033608060405234801561001057600080fd5b50610212806100206000396000f3fe608060405234801561001057600080fd5b506004361061002b5760003560e01c8063b3ec48dd14610030575b600080fd5b61004a60048036038101906100459190610104565b610060565b6040516100579190610153565b60405180910390f35b600082826040516020016100759291906101b0565b60405160208183030381529060405280519060200120905092915050565b600080fd5b6000819050919050565b6100ab81610098565b81146100b657600080fd5b50565b6000813590506100c8816100a2565b92915050565b6000819050919050565b6100e1816100ce565b81146100ec57600080fd5b50565b6000813590506100fe816100d8565b92915050565b6000806040838503121561011b5761011a610093565b5b6000610129858286016100b9565b925050602061013a858286016100ef565b9150509250929050565b61014d816100ce565b82525050565b60006020820190506101686000830184610144565b92915050565b6000819050919050565b61018961018482610098565b61016e565b82525050565b6000819050919050565b6101aa6101a5826100ce565b61018f565b82525050565b60006101bc8285610178565b6020820191506101cc8284610199565b602082019150819050939250505056fea2646970667358221220bb5211e8db2171759ea4b3c2384d89a0d5948459e991b7918aaabb62be4a967864736f6c63430008120033",
					"opcodes": "PUSH1 0x80 PUSH1 0x40 MSTORE PUSH1 0x0 PUSH1 0x1 PUSH1 0x14 PUSH2 0x100 EXP DUP2 SLOAD DUP2 PUSH1 0xFF MUL NOT AND SWAP1 DUP4 PUSH1 0x3 DUP2 GT ISZERO PUSH2 0x2A JUMPI PUSH2 0x29 PUSH2 0xF7 JUMP JUMPDEST JUMPDEST MUL OR SWAP1 SSTORE POP CALLVALUE DUP1 ISZERO PUSH2 0x3B JUMPI PUSH1 0x0 DUP1 REVERT JUMPDEST POP CALLER PUSH1 0x1 PUSH1 0x0 PUSH2 0x100 EXP DUP2 SLOAD DUP2 PUSH20 0xFFFFFFFFFFFFFFFFFFFFFFFFFFFFFFFFFFFFFFFF MUL NOT AND SWAP1 DUP4 PUSH20 0xFFFFFFFFFFFFFFFFFFFFFFFFFFFFFFFFFFFFFFFF AND MUL OR SWAP1 SSTORE POP PUSH1 0x40 MLOAD PUSH2 0x89 SWAP1 PUSH2 0xEA JUMP JUMPDEST PUSH1 0x40 MLOAD DUP1 SWAP2 SUB SWAP1 PUSH1 0x0 CREATE DUP1 ISZERO DUP1 ISZERO PUSH2 0xA5 JUMPI RETURNDATASIZE PUSH1 0x0 DUP1 RETURNDATACOPY RETURNDATASIZE PUSH1 0x0 REVERT JUMPDEST POP PUSH1 0x0 DUP1 PUSH2 0x100 EXP DUP2 SLOAD DUP2 PUSH20 0xFFFFFFFFFFFFFFFFFFFFFFFFFFFFFFFFFFFFFFFF MUL NOT AND SWAP1 DUP4 PUSH20 0xFFFFFFFFFFFFFFFFFFFFFFFFFFFFFFFFFFFFFFFF AND MUL OR SWAP1 SSTORE POP PUSH2 0x126 JUMP JUMPDEST PUSH2 0x232 DUP1 PUSH2 0x1544 DUP4 CODECOPY ADD SWAP1 JUMP JUMPDEST PUSH32 0x4E487B7100000000000000000000000000000000000000000000000000000000 PUSH1 0x0 MSTORE PUSH1 0x21 PUSH1 0x4 MSTORE PUSH1 0x24 PUSH1 0x0 REVERT JUMPDEST PUSH2 0x140F DUP1 PUSH2 0x135 PUSH1 0x0 CODECOPY PUSH1 0x0 RETURN INVALID PUSH1 0x80 PUSH1 0x40 MSTORE PUSH1 0x4 CALLDATASIZE LT PUSH2 0xA7 JUMPI PUSH1 0x0 CALLDATALOAD PUSH1 0xE0 SHR DUP1 PUSH4 0x63142015 GT PUSH2 0x64 JUMPI DUP1 PUSH4 0x63142015 EQ PUSH2 0x197 JUMPI DUP1 PUSH4 0x91F90157 EQ PUSH2 0x1C2 JUMPI DUP1 PUSH4 0x94C246D5 EQ PUSH2 0x1ED JUMPI DUP1 PUSH4 0x957BB1E0 EQ PUSH2 0x218 JUMPI DUP1 PUSH4 0xBE25A718 EQ PUSH2 0x234 JUMPI DUP1 PUSH4 0xD57BDE79 EQ PUSH2 0x24B JUMPI PUSH2 0xA7 JUMP JUMPDEST DUP1 PUSH4 0x55AD42E EQ PUSH2 0xAC JUMPI DUP1 PUSH4 0x2A24F46C EQ PUSH2 0xD7 JUMPI DUP1 PUSH4 0x38AF3EED EQ PUSH2 0xEE JUMPI DUP1 PUSH4 0x3CCFD60B EQ PUSH2 0x119 JUMPI DUP1 PUSH4 0x4036778F EQ PUSH2 0x130 JUMPI DUP1 PUSH4 0x62EA82DB EQ PUSH2 0x159 JUMPI JUMPDEST PUSH1 0x0 DUP1 REVERT JUMPDEST CALLVALUE DUP1 ISZERO PUSH2 0xB8 JUMPI PUSH1 0x0 DUP1 REVERT JUMPDEST POP PUSH2 0xC1 PUSH2 0x276 JUMP JUMPDEST PUSH1 0x40 MLOAD PUSH2 0xCE SWAP2 SWAP1 PUSH2 0xE51 JUMP JUMPDEST PUSH1 0x40 MLOAD DUP1 SWAP2 SUB SWAP1 RETURN JUMPDEST CALLVALUE DUP1 ISZERO PUSH2 0xE3 JUMPI PUSH1 0x0 DUP1 REVERT JUMPDEST POP PUSH2 0xEC PUSH2 0x289 JUMP JUMPDEST STOP JUMPDEST CALLVALUE DUP1 ISZERO PUSH2 0xFA JUMPI PUSH1 0x0 DUP1 REVERT JUMPDEST POP PUSH2 0x103 PUSH2 0x4B2 JUMP JUMPDEST PUSH1 0x40 MLOAD PUSH2 0x110 SWAP2 SWAP1 PUSH2 0xEAD JUMP JUMPDEST PUSH1 0x40 MLOAD DUP1 SWAP2 SUB SWAP1 RETURN JUMPDEST CALLVALUE DUP1 ISZERO PUSH2 0x125 JUMPI PUSH1 0x0 DUP1 REVERT JUMPDEST POP PUSH2 0x12E PUSH2 0x4D8 JUMP JUMPDEST STOP JUMPDEST CALLVALUE DUP1 ISZERO PUSH2 0x13C JUMPI PUSH1 0x0 DUP1 REVERT JUMPDEST POP PUSH2 0x157 PUSH1 0x4 DUP1 CALLDATASIZE SUB DUP2 ADD SWAP1 PUSH2 0x152 SWAP2 SWAP1 PUSH2 0xF39 JUMP JUMPDEST PUSH2 0x5B5 JUMP JUMPDEST STOP JUMPDEST CALLVALUE DUP1 ISZERO PUSH2 0x165 JUMPI PUSH1 0x0 DUP1 REVERT JUMPDEST POP PUSH2 0x180 PUSH1 0x4 DUP1 CALLDATASIZE SUB DUP2 ADD SWAP1 PUSH2 0x17B SWAP2 SWAP1 PUSH2 0xFB7 JUMP JUMPDEST PUSH2 0x93F JUMP JUMPDEST PUSH1 0x40 MLOAD PUSH2 0x18E SWAP3 SWAP2 SWAP1 PUSH2 0x1002 JUMP JUMPDEST PUSH1 0x40 MLOAD DUP1 SWAP2 SUB SWAP1 RETURN JUMPDEST CALLVALUE DUP1 ISZERO PUSH2 0x1A3 JUMPI PUSH1 0x0 DUP1 REVERT JUMPDEST POP PUSH2 0x1AC PUSH2 0x963 JUMP JUMPDEST PUSH1 0x40 MLOAD PUSH2 0x1B9 SWAP2 SWAP1 PUSH2 0x108A JUMP JUMPDEST PUSH1 0x40 MLOAD DUP1 SWAP2 SUB SWAP1 RETURN JUMPDEST CALLVALUE DUP1 ISZERO PUSH2 0x1CE JUMPI PUSH1 0x0 DUP1 REVERT JUMPDEST POP PUSH2 0x1D7 PUSH2 0x987 JUMP JUMPDEST PUSH1 0x40 MLOAD PUSH2 0x1E4 SWAP2 SWAP1 PUSH2 0x10B4 JUMP JUMPDEST PUSH1 0x40 MLOAD DUP1 SWAP2 SUB SWAP1 RETURN JUMPDEST CALLVALUE DUP1 ISZERO PUSH2 0x1F9 JUMPI PUSH1 0x0 DUP1 REVERT JUMPDEST POP PUSH2 0x202 PUSH2 0x9AD JUMP JUMPDEST PUSH1 0x40 MLOAD PUSH2 0x20F SWAP2 SWAP1 PUSH2 0x10CF JUMP JUMPDEST PUSH1 0x40 MLOAD DUP1 SWAP2 SUB SWAP1 RETURN JUMPDEST PUSH2 0x232 PUSH1 0x4 DUP1 CALLDATASIZE SUB DUP2 ADD SWAP1 PUSH2 0x22D SWAP2 SWAP1 PUSH2 0x10EA JUMP JUMPDEST PUSH2 0x9F4 JUMP JUMPDEST STOP JUMPDEST CALLVALUE DUP1 ISZERO PUSH2 0x240 JUMPI PUSH1 0x0 DUP1 REVERT JUMPDEST POP PUSH2 0x249 PUSH2 0xADA JUMP JUMPDEST STOP JUMPDEST CALLVALUE DUP1 ISZERO PUSH2 0x257 JUMPI PUSH1 0x0 DUP1 REVERT JUMPDEST POP PUSH2 0x260 PUSH2 0xDD4 JUMP JUMPDEST PUSH1 0x40 MLOAD PUSH2 0x26D SWAP2 SWAP1 PUSH2 0x10CF JUMP JUMPDEST PUSH1 0x40 MLOAD DUP1 SWAP2 SUB SWAP1 RETURN JUMPDEST PUSH1 0x1 PUSH1 0x14 SWAP1 SLOAD SWAP1 PUSH2 0x100 EXP SWAP1 DIV PUSH1 0xFF AND DUP2 JUMP JUMPDEST PUSH1 0x1 PUSH1 0x0 SWAP1 SLOAD SWAP1 PUSH2 0x100 EXP SWAP1 DIV PUSH20 0xFFFFFFFFFFFFFFFFFFFFFFFFFFFFFFFFFFFFFFFF AND PUSH20 0xFFFFFFFFFFFFFFFFFFFFFFFFFFFFFFFFFFFFFFFF AND CALLER PUSH20 0xFFFFFFFFFFFFFFFFFFFFFFFFFFFFFFFFFFFFFFFF AND EQ PUSH2 0x319 JUMPI PUSH1 0x40 MLOAD PUSH32 0x8C379A000000000000000000000000000000000000000000000000000000000 DUP2 MSTORE PUSH1 0x4 ADD PUSH2 0x310 SWAP1 PUSH2 0x1174 JUMP JUMPDEST PUSH1 0x40 MLOAD DUP1 SWAP2 SUB SWAP1 REVERT JUMPDEST PUSH1 0x3 DUP1 PUSH1 0x3 DUP2 GT ISZERO PUSH2 0x32E JUMPI PUSH2 0x32D PUSH2 0xDDA JUMP JUMPDEST JUMPDEST PUSH1 0x1 PUSH1 0x14 SWAP1 SLOAD SWAP1 PUSH2 0x100 EXP SWAP1 DIV PUSH1 0xFF AND PUSH1 0x3 DUP2 GT ISZERO PUSH2 0x350 JUMPI PUSH2 0x34F PUSH2 0xDDA JUMP JUMPDEST JUMPDEST EQ PUSH2 0x390 JUMPI PUSH1 0x40 MLOAD PUSH32 0x8C379A000000000000000000000000000000000000000000000000000000000 DUP2 MSTORE PUSH1 0x4 ADD PUSH2 0x387 SWAP1 PUSH2 0x11E0 JUMP JUMPDEST PUSH1 0x40 MLOAD DUP1 SWAP2 SUB SWAP1 REVERT JUMPDEST PUSH1 0x0 PUSH20 0xFFFFFFFFFFFFFFFFFFFFFFFFFFFFFFFFFFFFFFFF AND PUSH1 0x4 PUSH1 0x0 SWAP1 SLOAD SWAP1 PUSH2 0x100 EXP SWAP1 DIV PUSH20 0xFFFFFFFFFFFFFFFFFFFFFFFFFFFFFFFFFFFFFFFF AND PUSH20 0xFFFFFFFFFFFFFFFFFFFFFFFFFFFFFFFFFFFFFFFF AND EQ PUSH2 0x452 JUMPI PUSH1 0x1 PUSH1 0x0 SWAP1 SLOAD SWAP1 PUSH2 0x100 EXP SWAP1 DIV PUSH20 0xFFFFFFFFFFFFFFFFFFFFFFFFFFFFFFFFFFFFFFFF AND PUSH20 0xFFFFFFFFFFFFFFFFFFFFFFFFFFFFFFFFFFFFFFFF AND PUSH2 0x8FC PUSH1 0x5 SLOAD SWAP1 DUP2 ISZERO MUL SWAP1 PUSH1 0x40 MLOAD PUSH1 0x0 PUSH1 0x40 MLOAD DUP1 DUP4 SUB DUP2 DUP6 DUP9 DUP9 CALL SWAP4 POP POP POP POP ISZERO DUP1 ISZERO PUSH2 0x450 JUMPI RETURNDATASIZE PUSH1 0x0 DUP1 RETURNDATACOPY RETURNDATASIZE PUSH1 0x0 REVERT JUMPDEST POP JUMPDEST PUSH32 0xDAEC4582D5D9595688C8C98545FDD1C696D41C6AEAEB636737E84ED2F5C00EDA PUSH1 0x4 PUSH1 0x0 SWAP1 SLOAD SWAP1 PUSH2 0x100 EXP SWAP1 DIV PUSH20 0xFFFFFFFFFFFFFFFFFFFFFFFFFFFFFFFFFFFFFFFF AND PUSH1 0x5 SLOAD PUSH1 0x40 MLOAD PUSH2 0x4A7 SWAP3 SWAP2 SWAP1 PUSH2 0x1200 JUMP JUMPDEST PUSH1 0x40 MLOAD DUP1 SWAP2 SUB SWAP1 LOG1 POP JUMP JUMPDEST PUSH1 0x1 PUSH1 0x0 SWAP1 SLOAD SWAP1 PUSH2 0x100 EXP SWAP1 DIV PUSH20 0xFFFFFFFFFFFFFFFFFFFFFFFFFFFFFFFFFFFFFFFF AND DUP2 JUMP JUMPDEST PUSH1 0x0 PUSH1 0x3 PUSH1 0x0 CALLER PUSH20 0xFFFFFFFFFFFFFFFFFFFFFFFFFFFFFFFFFFFFFFFF AND PUSH20 0xFFFFFFFFFFFFFFFFFFFFFFFFFFFFFFFFFFFFFFFF AND DUP2 MSTORE PUSH1 0x20 ADD SWAP1 DUP2 MSTORE PUSH1 0x20 ADD PUSH1 0x0 KECCAK256 SLOAD SWAP1 POP PUSH1 0x0 DUP2 GT ISZERO PUSH2 0x5B2 JUMPI PUSH1 0x0 PUSH1 0x3 PUSH1 0x0 CALLER PUSH20 0xFFFFFFFFFFFFFFFFFFFFFFFFFFFFFFFFFFFFFFFF AND PUSH20 0xFFFFFFFFFFFFFFFFFFFFFFFFFFFFFFFFFFFFFFFF AND DUP2 MSTORE PUSH1 0x20 ADD SWAP1 DUP2 MSTORE PUSH1 0x20 ADD PUSH1 0x0 KECCAK256 DUP2 SWAP1 SSTORE POP CALLER PUSH20 0xFFFFFFFFFFFFFFFFFFFFFFFFFFFFFFFFFFFFFFFF AND PUSH2 0x8FC DUP3 SWAP1 DUP2 ISZERO MUL SWAP1 PUSH1 0x40 MLOAD PUSH1 0x0 PUSH1 0x40 MLOAD DUP1 DUP4 SUB DUP2 DUP6 DUP9 DUP9 CALL SWAP4 POP POP POP POP ISZERO DUP1 ISZERO PUSH2 0x5B0 JUMPI RETURNDATASIZE PUSH1 0x0 DUP1 RETURNDATACOPY RETURNDATASIZE PUSH1 0x0 REVERT JUMPDEST POP JUMPDEST POP JUMP JUMPDEST PUSH1 0x2 DUP1 PUSH1 0x3 DUP2 GT ISZERO PUSH2 0x5CA JUMPI PUSH2 0x5C9 PUSH2 0xDDA JUMP JUMPDEST JUMPDEST PUSH1 0x1 PUSH1 0x14 SWAP1 SLOAD SWAP1 PUSH2 0x100 EXP SWAP1 DIV PUSH1 0xFF AND PUSH1 0x3 DUP2 GT ISZERO PUSH2 0x5EC JUMPI PUSH2 0x5EB PUSH2 0xDDA JUMP JUMPDEST JUMPDEST EQ PUSH2 0x62C JUMPI PUSH1 0x40 MLOAD PUSH32 0x8C379A000000000000000000000000000000000000000000000000000000000 DUP2 MSTORE PUSH1 0x4 ADD PUSH2 0x623 SWAP1 PUSH2 0x11E0 JUMP JUMPDEST PUSH1 0x40 MLOAD DUP1 SWAP2 SUB SWAP1 REVERT JUMPDEST PUSH1 0x0 PUSH1 0x2 PUSH1 0x0 CALLER PUSH20 0xFFFFFFFFFFFFFFFFFFFFFFFFFFFFFFFFFFFFFFFF AND PUSH20 0xFFFFFFFFFFFFFFFFFFFFFFFFFFFFFFFFFFFFFFFF AND DUP2 MSTORE PUSH1 0x20 ADD SWAP1 DUP2 MSTORE PUSH1 0x20 ADD PUSH1 0x0 KECCAK256 SWAP1 POP PUSH1 0x0 DUP1 PUSH1 0x0 SWAP1 SLOAD SWAP1 PUSH2 0x100 EXP SWAP1 DIV PUSH20 0xFFFFFFFFFFFFFFFFFFFFFFFFFFFFFFFFFFFFFFFF AND PUSH20 0xFFFFFFFFFFFFFFFFFFFFFFFFFFFFFFFFFFFFFFFF AND PUSH4 0xB3EC48DD DUP7 DUP7 PUSH1 0x40 MLOAD DUP4 PUSH4 0xFFFFFFFF AND PUSH1 0xE0 SHL DUP2 MSTORE PUSH1 0x4 ADD PUSH2 0x6CD SWAP3 SWAP2 SWAP1 PUSH2 0x1229 JUMP JUMPDEST PUSH1 0x20 PUSH1 0x40 MLOAD DUP1 DUP4 SUB DUP2 DUP7 GAS STATICCALL ISZERO DUP1 ISZERO PUSH2 0x6EA JUMPI RETURNDATASIZE PUSH1 0x0 DUP1 RETURNDATACOPY RETURNDATASIZE PUSH1 0x0 REVERT JUMPDEST POP POP POP POP PUSH1 0x40 MLOAD RETURNDATASIZE PUSH1 0x1F NOT PUSH1 0x1F DUP3 ADD AND DUP3 ADD DUP1 PUSH1 0x40 MSTORE POP DUP2 ADD SWAP1 PUSH2 0x70E SWAP2 SWAP1 PUSH2 0x1267 JUMP JUMPDEST SWAP1 POP DUP1 DUP3 PUSH1 0x0 ADD SLOAD SUB PUSH2 0x8E3 JUMPI PUSH1 0x0 DUP3 PUSH1 0x1 ADD SLOAD SWAP1 POP PUSH1 0x5 SLOAD PUSH8 0xDE0B6B3A7640000 DUP8 PUSH2 0x73B SWAP2 SWAP1 PUSH2 0x12C3 JUMP JUMPDEST GT ISZERO PUSH2 0x88F JUMPI PUSH1 0x0 PUSH20 0xFFFFFFFFFFFFFFFFFFFFFFFFFFFFFFFFFFFFFFFF AND PUSH1 0x4 PUSH1 0x0 SWAP1 SLOAD SWAP1 PUSH2 0x100 EXP SWAP1 DIV PUSH20 0xFFFFFFFFFFFFFFFFFFFFFFFFFFFFFFFFFFFFFFFF AND PUSH20 0xFFFFFFFFFFFFFFFFFFFFFFFFFFFFFFFFFFFFFFFF AND EQ PUSH2 0x812 JUMPI PUSH1 0x5 SLOAD PUSH1 0x3 PUSH1 0x0 PUSH1 0x4 PUSH1 0x0 SWAP1 SLOAD SWAP1 PUSH2 0x100 EXP SWAP1 DIV PUSH20 0xFFFFFFFFFFFFFFFFFFFFFFFFFFFFFFFFFFFFFFFF AND PUSH20 0xFFFFFFFFFFFFFFFFFFFFFFFFFFFFFFFFFFFFFFFF AND PUSH20 0xFFFFFFFFFFFFFFFFFFFFFFFFFFFFFFFFFFFFFFFF AND DUP2 MSTORE PUSH1 0x20 ADD SWAP1 DUP2 MSTORE PUSH1 0x20 ADD PUSH1 0x0 KECCAK256 PUSH1 0x0 DUP3 DUP3 SLOAD PUSH2 0x80A SWAP2 SWAP1 PUSH2 0x1305 JUMP JUMPDEST SWAP3 POP POP DUP2 SWAP1 SSTORE POP JUMPDEST CALLER PUSH1 0x4 PUSH1 0x0 PUSH2 0x100 EXP DUP2 SLOAD DUP2 PUSH20 0xFFFFFFFFFFFFFFFFFFFFFFFFFFFFFFFFFFFFFFFF MUL NOT AND SWAP1 DUP4 PUSH20 0xFFFFFFFFFFFFFFFFFFFFFFFFFFFFFFFFFFFFFFFF AND MUL OR SWAP1 SSTORE POP PUSH8 0xDE0B6B3A7640000 DUP7 PUSH2 0x867 SWAP2 SWAP1 PUSH2 0x12C3 JUMP JUMPDEST PUSH1 0x5 DUP2 SWAP1 SSTORE POP PUSH8 0xDE0B6B3A7640000 DUP7 PUSH2 0x881 SWAP2 SWAP1 PUSH2 0x12C3 JUMP JUMPDEST DUP2 PUSH2 0x88C SWAP2 SWAP1 PUSH2 0x1339 JUMP JUMPDEST SWAP1 POP JUMPDEST PUSH1 0x0 DUP2 GT ISZERO PUSH2 0x8DD JUMPI DUP1 PUSH1 0x3 PUSH1 0x0 CALLER PUSH20 0xFFFFFFFFFFFFFFFFFFFFFFFFFFFFFFFFFFFFFFFF AND PUSH20 0xFFFFFFFFFFFFFFFFFFFFFFFFFFFFFFFFFFFFFFFF AND DUP2 MSTORE PUSH1 0x20 ADD SWAP1 DUP2 MSTORE PUSH1 0x20 ADD PUSH1 0x0 KECCAK256 DUP2 SWAP1 SSTORE POP JUMPDEST POP PUSH2 0x92C JUMP JUMPDEST DUP2 PUSH1 0x1 ADD SLOAD PUSH1 0x3 PUSH1 0x0 CALLER PUSH20 0xFFFFFFFFFFFFFFFFFFFFFFFFFFFFFFFFFFFFFFFF AND PUSH20 0xFFFFFFFFFFFFFFFFFFFFFFFFFFFFFFFFFFFFFFFF AND DUP2 MSTORE PUSH1 0x20 ADD SWAP1 DUP2 MSTORE PUSH1 0x20 ADD PUSH1 0x0 KECCAK256 DUP2 SWAP1 SSTORE POP JUMPDEST PUSH1 0x0 DUP1 SHL DUP3 PUSH1 0x0 ADD DUP2 SWAP1 SSTORE POP POP POP POP POP POP JUMP JUMPDEST PUSH1 0x2 PUSH1 0x20 MSTORE DUP1 PUSH1 0x0 MSTORE PUSH1 0x40 PUSH1 0x0 KECCAK256 PUSH1 0x0 SWAP2 POP SWAP1 POP DUP1 PUSH1 0x0 ADD SLOAD SWAP1 DUP1 PUSH1 0x1 ADD SLOAD SWAP1 POP DUP3 JUMP JUMPDEST PUSH1 0x0 DUP1 SLOAD SWAP1 PUSH2 0x100 EXP SWAP1 DIV PUSH20 0xFFFFFFFFFFFFFFFFFFFFFFFFFFFFFFFFFFFFFFFF AND DUP2 JUMP JUMPDEST PUSH1 0x4 PUSH1 0x0 SWAP1 SLOAD SWAP1 PUSH2 0x100 EXP SWAP1 DIV PUSH20 0xFFFFFFFFFFFFFFFFFFFFFFFFFFFFFFFFFFFFFFFF AND DUP2 JUMP JUMPDEST PUSH1 0x0 PUSH1 0x3 PUSH1 0x0 CALLER PUSH20 0xFFFFFFFFFFFFFFFFFFFFFFFFFFFFFFFFFFFFFFFF AND PUSH20 0xFFFFFFFFFFFFFFFFFFFFFFFFFFFFFFFFFFFFFFFF AND DUP2 MSTORE PUSH1 0x20 ADD SWAP1 DUP2 MSTORE PUSH1 0x20 ADD PUSH1 0x0 KECCAK256 SLOAD SWAP1 POP SWAP1 JUMP JUMPDEST PUSH1 0x1 DUP1 PUSH1 0x3 DUP2 GT ISZERO PUSH2 0xA09 JUMPI PUSH2 0xA08 PUSH2 0xDDA JUMP JUMPDEST JUMPDEST PUSH1 0x1 PUSH1 0x14 SWAP1 SLOAD SWAP1 PUSH2 0x100 EXP SWAP1 DIV PUSH1 0xFF AND PUSH1 0x3 DUP2 GT ISZERO PUSH2 0xA2B JUMPI PUSH2 0xA2A PUSH2 0xDDA JUMP JUMPDEST JUMPDEST EQ PUSH2 0xA6B JUMPI PUSH1 0x40 MLOAD PUSH32 0x8C379A000000000000000000000000000000000000000000000000000000000 DUP2 MSTORE PUSH1 0x4 ADD PUSH2 0xA62 SWAP1 PUSH2 0x11E0 JUMP JUMPDEST PUSH1 0x40 MLOAD DUP1 SWAP2 SUB SWAP1 REVERT JUMPDEST PUSH1 0x40 MLOAD DUP1 PUSH1 0x40 ADD PUSH1 0x40 MSTORE DUP1 DUP4 DUP2 MSTORE PUSH1 0x20 ADD CALLVALUE DUP2 MSTORE POP PUSH1 0x2 PUSH1 0x0 CALLER PUSH20 0xFFFFFFFFFFFFFFFFFFFFFFFFFFFFFFFFFFFFFFFF AND PUSH20 0xFFFFFFFFFFFFFFFFFFFFFFFFFFFFFFFFFFFFFFFF AND DUP2 MSTORE PUSH1 0x20 ADD SWAP1 DUP2 MSTORE PUSH1 0x20 ADD PUSH1 0x0 KECCAK256 PUSH1 0x0 DUP3 ADD MLOAD DUP2 PUSH1 0x0 ADD SSTORE PUSH1 0x20 DUP3 ADD MLOAD DUP2 PUSH1 0x1 ADD SSTORE SWAP1 POP POP POP POP JUMP JUMPDEST PUSH1 0x1 PUSH1 0x0 SWAP1 SLOAD SWAP1 PUSH2 0x100 EXP SWAP1 DIV PUSH20 0xFFFFFFFFFFFFFFFFFFFFFFFFFFFFFFFFFFFFFFFF AND PUSH20 0xFFFFFFFFFFFFFFFFFFFFFFFFFFFFFFFFFFFFFFFF AND CALLER PUSH20 0xFFFFFFFFFFFFFFFFFFFFFFFFFFFFFFFFFFFFFFFF AND EQ PUSH2 0xB6A JUMPI PUSH1 0x40 MLOAD PUSH32 0x8C379A000000000000000000000000000000000000000000000000000000000 DUP2 MSTORE PUSH1 0x4 ADD PUSH2 0xB61 SWAP1 PUSH2 0x1174 JUMP JUMPDEST PUSH1 0x40 MLOAD DUP1 SWAP2 SUB SWAP1 REVERT JUMPDEST PUSH1 0x3 DUP1 DUP2 GT ISZERO PUSH2 0xB7D JUMPI PUSH2 0xB7C PUSH2 0xDDA JUMP JUMPDEST JUMPDEST PUSH1 0x1 PUSH1 0x14 SWAP1 SLOAD SWAP1 PUSH2 0x100 EXP SWAP1 DIV PUSH1 0xFF AND PUSH1 0x3 DUP2 GT ISZERO PUSH2 0xB9F JUMPI PUSH2 0xB9E PUSH2 0xDDA JUMP JUMPDEST JUMPDEST SUB PUSH2 0xBDF JUMPI PUSH1 0x40 MLOAD PUSH32 0x8C379A000000000000000000000000000000000000000000000000000000000 DUP2 MSTORE PUSH1 0x4 ADD PUSH2 0xBD6 SWAP1 PUSH2 0x13B9 JUMP JUMPDEST PUSH1 0x40 MLOAD DUP1 SWAP2 SUB SWAP1 REVERT JUMPDEST PUSH1 0x0 PUSH1 0x3 DUP2 GT ISZERO PUSH2 0xBF3 JUMPI PUSH2 0xBF2 PUSH2 0xDDA JUMP JUMPDEST JUMPDEST PUSH1 0x1 PUSH1 0x14 SWAP1 SLOAD SWAP1 PUSH2 0x100 EXP SWAP1 DIV PUSH1 0xFF AND PUSH1 0x3 DUP2 GT ISZERO PUSH2 0xC15 JUMPI PUSH2 0xC14 PUSH2 0xDDA JUMP JUMPDEST JUMPDEST SUB PUSH2 0xC75 JUMPI PUSH1 0x1 DUP1 PUSH1 0x14 PUSH2 0x100 EXP DUP2 SLOAD DUP2 PUSH1 0xFF MUL NOT AND SWAP1 DUP4 PUSH1 0x3 DUP2 GT ISZERO PUSH2 0xC3F JUMPI PUSH2 0xC3E PUSH2 0xDDA JUMP JUMPDEST JUMPDEST MUL OR SWAP1 SSTORE POP PUSH32 0x2C124E22EE7DA1C9905BBB317CF67658C1CC3EA1C0953B1633F85D0B5C281D9 PUSH1 0x40 MLOAD PUSH1 0x40 MLOAD DUP1 SWAP2 SUB SWAP1 LOG1 PUSH2 0xDD2 JUMP JUMPDEST PUSH1 0x1 PUSH1 0x3 DUP2 GT ISZERO PUSH2 0xC89 JUMPI PUSH2 0xC88 PUSH2 0xDDA JUMP JUMPDEST JUMPDEST PUSH1 0x1 PUSH1 0x14 SWAP1 SLOAD SWAP1 PUSH2 0x100 EXP SWAP1 DIV PUSH1 0xFF AND PUSH1 0x3 DUP2 GT ISZERO PUSH2 0xCAB JUMPI PUSH2 0xCAA PUSH2 0xDDA JUMP JUMPDEST JUMPDEST SUB PUSH2 0xD0C JUMPI PUSH1 0x2 PUSH1 0x1 PUSH1 0x14 PUSH2 0x100 EXP DUP2 SLOAD DUP2 PUSH1 0xFF MUL NOT AND SWAP1 DUP4 PUSH1 0x3 DUP2 GT ISZERO PUSH2 0xCD6 JUMPI PUSH2 0xCD5 PUSH2 0xDDA JUMP JUMPDEST JUMPDEST MUL OR SWAP1 SSTORE POP PUSH32 0x3BCC93D35219AA0512D7C0D1CA10B0231F473E3D5F9396877D1B7215EE0AB3D5 PUSH1 0x40 MLOAD PUSH1 0x40 MLOAD DUP1 SWAP2 SUB SWAP1 LOG1 PUSH2 0xDD1 JUMP JUMPDEST PUSH1 0x2 PUSH1 0x3 DUP2 GT ISZERO PUSH2 0xD20 JUMPI PUSH2 0xD1F PUSH2 0xDDA JUMP JUMPDEST JUMPDEST PUSH1 0x1 PUSH1 0x14 SWAP1 SLOAD SWAP1 PUSH2 0x100 EXP SWAP1 DIV PUSH1 0xFF AND PUSH1 0x3 DUP2 GT ISZERO PUSH2 0xD42 JUMPI PUSH2 0xD41 PUSH2 0xDDA JUMP JUMPDEST JUMPDEST SUB PUSH2 0xDD0 JUMPI PUSH1 0x3 PUSH1 0x1 PUSH1 0x14 PUSH2 0x100 EXP DUP2 SLOAD DUP2 PUSH1 0xFF MUL NOT AND SWAP1 DUP4 PUSH1 0x3 DUP2 GT ISZERO PUSH2 0xD6D JUMPI PUSH2 0xD6C PUSH2 0xDDA JUMP JUMPDEST JUMPDEST MUL OR SWAP1 SSTORE POP PUSH32 0xDAEC4582D5D9595688C8C98545FDD1C696D41C6AEAEB636737E84ED2F5C00EDA PUSH1 0x4 PUSH1 0x0 SWAP1 SLOAD SWAP1 PUSH2 0x100 EXP SWAP1 DIV PUSH20 0xFFFFFFFFFFFFFFFFFFFFFFFFFFFFFFFFFFFFFFFF AND PUSH1 0x5 SLOAD PUSH1 0x40 MLOAD PUSH2 0xDC7 SWAP3 SWAP2 SWAP1 PUSH2 0x1200 JUMP JUMPDEST PUSH1 0x40 MLOAD DUP1 SWAP2 SUB SWAP1 LOG1 JUMPDEST JUMPDEST JUMPDEST JUMP JUMPDEST PUSH1 0x5 SLOAD DUP2 JUMP JUMPDEST PUSH32 0x4E487B7100000000000000000000000000000000000000000000000000000000 PUSH1 0x0 MSTORE PUSH1 0x21 PUSH1 0x4 MSTORE PUSH1 0x24 PUSH1 0x0 REVERT JUMPDEST PUSH1 0x4 DUP2 LT PUSH2 0xE1A JUMPI PUSH2 0xE19 PUSH2 0xDDA JUMP JUMPDEST JUMPDEST POP JUMP JUMPDEST PUSH1 0x0 DUP2 SWAP1 POP PUSH2 0xE2B DUP3 PUSH2 0xE09 JUMP JUMPDEST SWAP2 SWAP1 POP JUMP JUMPDEST PUSH1 0x0 PUSH2 0xE3B DUP3 PUSH2 0xE1D JUMP JUMPDEST SWAP1 POP SWAP2 SWAP1 POP JUMP JUMPDEST PUSH2 0xE4B DUP2 PUSH2 0xE30 JUMP JUMPDEST DUP3 MSTORE POP POP JUMP JUMPDEST PUSH1 0x0 PUSH1 0x20 DUP3 ADD SWAP1 POP PUSH2 0xE66 PUSH1 0x0 DUP4 ADD DUP5 PUSH2 0xE42 JUMP JUMPDEST SWAP3 SWAP2 POP POP JUMP JUMPDEST PUSH1 0x0 PUSH20 0xFFFFFFFFFFFFFFFFFFFFFFFFFFFFFFFFFFFFFFFF DUP3 AND SWAP1 POP SWAP2 SWAP1 POP JUMP JUMPDEST PUSH1 0x0 PUSH2 0xE97 DUP3 PUSH2 0xE6C JUMP JUMPDEST SWAP1 POP SWAP2 SWAP1 POP JUMP JUMPDEST PUSH2 0xEA7 DUP2 PUSH2 0xE8C JUMP JUMPDEST DUP3 MSTORE POP POP JUMP JUMPDEST PUSH1 0x0 PUSH1 0x20 DUP3 ADD SWAP1 POP PUSH2 0xEC2 PUSH1 0x0 DUP4 ADD DUP5 PUSH2 0xE9E JUMP JUMPDEST SWAP3 SWAP2 POP POP JUMP JUMPDEST PUSH1 0x0 DUP1 REVERT JUMPDEST PUSH1 0x0 DUP2 SWAP1 POP SWAP2 SWAP1 POP JUMP JUMPDEST PUSH2 0xEE0 DUP2 PUSH2 0xECD JUMP JUMPDEST DUP2 EQ PUSH2 0xEEB JUMPI PUSH1 0x0 DUP1 REVERT JUMPDEST POP JUMP JUMPDEST PUSH1 0x0 DUP2 CALLDATALOAD SWAP1 POP PUSH2 0xEFD DUP2 PUSH2 0xED7 JUMP JUMPDEST SWAP3 SWAP2 POP POP JUMP JUMPDEST PUSH1 0x0 DUP2 SWAP1 POP SWAP2 SWAP1 POP JUMP JUMPDEST PUSH2 0xF16 DUP2 PUSH2 0xF03 JUMP JUMPDEST DUP2 EQ PUSH2 0xF21 JUMPI PUSH1 0x0 DUP1 REVERT JUMPDEST POP JUMP JUMPDEST PUSH1 0x0 DUP2 CALLDATALOAD SWAP1 POP PUSH2 0xF33 DUP2 PUSH2 0xF0D JUMP JUMPDEST SWAP3 SWAP2 POP POP JUMP JUMPDEST PUSH1 0x0 DUP1 PUSH1 0x40 DUP4 DUP6 SUB SLT ISZERO PUSH2 0xF50 JUMPI PUSH2 0xF4F PUSH2 0xEC8 JUMP JUMPDEST JUMPDEST PUSH1 0x0 PUSH2 0xF5E DUP6 DUP3 DUP7 ADD PUSH2 0xEEE JUMP JUMPDEST SWAP3 POP POP PUSH1 0x20 PUSH2 0xF6F DUP6 DUP3 DUP7 ADD PUSH2 0xF24 JUMP JUMPDEST SWAP2 POP POP SWAP3 POP SWAP3 SWAP1 POP JUMP JUMPDEST PUSH1 0x0 PUSH2 0xF84 DUP3 PUSH2 0xE6C JUMP JUMPDEST SWAP1 POP SWAP2 SWAP1 POP JUMP JUMPDEST PUSH2 0xF94 DUP2 PUSH2 0xF79 JUMP JUMPDEST DUP2 EQ PUSH2 0xF9F JUMPI PUSH1 0x0 DUP1 REVERT JUMPDEST POP JUMP JUMPDEST PUSH1 0x0 DUP2 CALLDATALOAD SWAP1 POP PUSH2 0xFB1 DUP2 PUSH2 0xF8B JUMP JUMPDEST SWAP3 SWAP2 POP POP JUMP JUMPDEST PUSH1 0x0 PUSH1 0x20 DUP3 DUP5 SUB SLT ISZERO PUSH2 0xFCD JUMPI PUSH2 0xFCC PUSH2 0xEC8 JUMP JUMPDEST JUMPDEST PUSH1 0x0 PUSH2 0xFDB DUP5 DUP3 DUP6 ADD PUSH2 0xFA2 JUMP JUMPDEST SWAP2 POP POP SWAP3 SWAP2 POP POP JUMP JUMPDEST PUSH2 0xFED DUP2 PUSH2 0xF03 JUMP JUMPDEST DUP3 MSTORE POP POP JUMP JUMPDEST PUSH2 0xFFC DUP2 PUSH2 0xECD JUMP JUMPDEST DUP3 MSTORE POP POP JUMP JUMPDEST PUSH1 0x0 PUSH1 0x40 DUP3 ADD SWAP1 POP PUSH2 0x1017 PUSH1 0x0 DUP4 ADD DUP6 PUSH2 0xFE4 JUMP JUMPDEST PUSH2 0x1024 PUSH1 0x20 DUP4 ADD DUP5 PUSH2 0xFF3 JUMP JUMPDEST SWAP4 SWAP3 POP POP POP JUMP JUMPDEST PUSH1 0x0 DUP2 SWAP1 POP SWAP2 SWAP1 POP JUMP JUMPDEST PUSH1 0x0 PUSH2 0x1050 PUSH2 0x104B PUSH2 0x1046 DUP5 PUSH2 0xE6C JUMP JUMPDEST PUSH2 0x102B JUMP JUMPDEST PUSH2 0xE6C JUMP JUMPDEST SWAP1 POP SWAP2 SWAP1 POP JUMP JUMPDEST PUSH1 0x0 PUSH2 0x1062 DUP3 PUSH2 0x1035 JUMP JUMPDEST SWAP1 POP SWAP2 SWAP1 POP JUMP JUMPDEST PUSH1 0x0 PUSH2 0x1074 DUP3 PUSH2 0x1057 JUMP JUMPDEST SWAP1 POP SWAP2 SWAP1 POP JUMP JUMPDEST PUSH2 0x1084 DUP2 PUSH2 0x1069 JUMP JUMPDEST DUP3 MSTORE POP POP JUMP JUMPDEST PUSH1 0x0 PUSH1 0x20 DUP3 ADD SWAP1 POP PUSH2 0x109F PUSH1 0x0 DUP4 ADD DUP5 PUSH2 0x107B JUMP JUMPDEST SWAP3 SWAP2 POP POP JUMP JUMPDEST PUSH2 0x10AE DUP2 PUSH2 0xF79 JUMP JUMPDEST DUP3 MSTORE POP POP JUMP JUMPDEST PUSH1 0x0 PUSH1 0x20 DUP3 ADD SWAP1 POP PUSH2 0x10C9 PUSH1 0x0 DUP4 ADD DUP5 PUSH2 0x10A5 JUMP JUMPDEST SWAP3 SWAP2 POP POP JUMP JUMPDEST PUSH1 0x0 PUSH1 0x20 DUP3 ADD SWAP1 POP PUSH2 0x10E4 PUSH1 0x0 DUP4 ADD DUP5 PUSH2 0xFF3 JUMP JUMPDEST SWAP3 SWAP2 POP POP JUMP JUMPDEST PUSH1 0x0 PUSH1 0x20 DUP3 DUP5 SUB SLT ISZERO PUSH2 0x1100 JUMPI PUSH2 0x10FF PUSH2 0xEC8 JUMP JUMPDEST JUMPDEST PUSH1 0x0 PUSH2 0x110E DUP5 DUP3 DUP6 ADD PUSH2 0xF24 JUMP JUMPDEST SWAP2 POP POP SWAP3 SWAP2 POP POP JUMP JUMPDEST PUSH1 0x0 DUP3 DUP3 MSTORE PUSH1 0x20 DUP3 ADD SWAP1 POP SWAP3 SWAP2 POP POP JUMP JUMPDEST PUSH32 0x4F6E6C792062656E65666963696172792063616E2063616C6C20746869730000 PUSH1 0x0 DUP3 ADD MSTORE POP JUMP JUMPDEST PUSH1 0x0 PUSH2 0x115E PUSH1 0x1E DUP4 PUSH2 0x1117 JUMP JUMPDEST SWAP2 POP PUSH2 0x1169 DUP3 PUSH2 0x1128 JUMP JUMPDEST PUSH1 0x20 DUP3 ADD SWAP1 POP SWAP2 SWAP1 POP JUMP JUMPDEST PUSH1 0x0 PUSH1 0x20 DUP3 ADD SWAP1 POP DUP2 DUP2 SUB PUSH1 0x0 DUP4 ADD MSTORE PUSH2 0x118D DUP2 PUSH2 0x1151 JUMP JUMPDEST SWAP1 POP SWAP2 SWAP1 POP JUMP JUMPDEST PUSH32 0x496E76616C696420706861736500000000000000000000000000000000000000 PUSH1 0x0 DUP3 ADD MSTORE POP JUMP JUMPDEST PUSH1 0x0 PUSH2 0x11CA PUSH1 0xD DUP4 PUSH2 0x1117 JUMP JUMPDEST SWAP2 POP PUSH2 0x11D5 DUP3 PUSH2 0x1194 JUMP JUMPDEST PUSH1 0x20 DUP3 ADD SWAP1 POP SWAP2 SWAP1 POP JUMP JUMPDEST PUSH1 0x0 PUSH1 0x20 DUP3 ADD SWAP1 POP DUP2 DUP2 SUB PUSH1 0x0 DUP4 ADD MSTORE PUSH2 0x11F9 DUP2 PUSH2 0x11BD JUMP JUMPDEST SWAP1 POP SWAP2 SWAP1 POP JUMP JUMPDEST PUSH1 0x0 PUSH1 0x40 DUP3 ADD SWAP1 POP PUSH2 0x1215 PUSH1 0x0 DUP4 ADD DUP6 PUSH2 0x10A5 JUMP JUMPDEST PUSH2 0x1222 PUSH1 0x20 DUP4 ADD DUP5 PUSH2 0xFF3 JUMP JUMPDEST SWAP4 SWAP3 POP POP POP JUMP JUMPDEST PUSH1 0x0 PUSH1 0x40 DUP3 ADD SWAP1 POP PUSH2 0x123E PUSH1 0x0 DUP4 ADD DUP6 PUSH2 0xFF3 JUMP JUMPDEST PUSH2 0x124B PUSH1 0x20 DUP4 ADD DUP5 PUSH2 0xFE4 JUMP JUMPDEST SWAP4 SWAP3 POP POP POP JUMP JUMPDEST PUSH1 0x0 DUP2 MLOAD SWAP1 POP PUSH2 0x1261 DUP2 PUSH2 0xF0D JUMP JUMPDEST SWAP3 SWAP2 POP POP JUMP JUMPDEST PUSH1 0x0 PUSH1 0x20 DUP3 DUP5 SUB SLT ISZERO PUSH2 0x127D JUMPI PUSH2 0x127C PUSH2 0xEC8 JUMP JUMPDEST JUMPDEST PUSH1 0x0 PUSH2 0x128B DUP5 DUP3 DUP6 ADD PUSH2 0x1252 JUMP JUMPDEST SWAP2 POP POP SWAP3 SWAP2 POP POP JUMP JUMPDEST PUSH32 0x4E487B7100000000000000000000000000000000000000000000000000000000 PUSH1 0x0 MSTORE PUSH1 0x11 PUSH1 0x4 MSTORE PUSH1 0x24 PUSH1 0x0 REVERT JUMPDEST PUSH1 0x0 PUSH2 0x12CE DUP3 PUSH2 0xECD JUMP JUMPDEST SWAP2 POP PUSH2 0x12D9 DUP4 PUSH2 0xECD JUMP JUMPDEST SWAP3 POP DUP3 DUP3 MUL PUSH2 0x12E7 DUP2 PUSH2 0xECD JUMP JUMPDEST SWAP2 POP DUP3 DUP3 DIV DUP5 EQ DUP4 ISZERO OR PUSH2 0x12FE JUMPI PUSH2 0x12FD PUSH2 0x1294 JUMP JUMPDEST JUMPDEST POP SWAP3 SWAP2 POP POP JUMP JUMPDEST PUSH1 0x0 PUSH2 0x1310 DUP3 PUSH2 0xECD JUMP JUMPDEST SWAP2 POP PUSH2 0x131B DUP4 PUSH2 0xECD JUMP JUMPDEST SWAP3 POP DUP3 DUP3 ADD SWAP1 POP DUP1 DUP3 GT ISZERO PUSH2 0x1333 JUMPI PUSH2 0x1332 PUSH2 0x1294 JUMP JUMPDEST JUMPDEST SWAP3 SWAP2 POP POP JUMP JUMPDEST PUSH1 0x0 PUSH2 0x1344 DUP3 PUSH2 0xECD JUMP JUMPDEST SWAP2 POP PUSH2 0x134F DUP4 PUSH2 0xECD JUMP JUMPDEST SWAP3 POP DUP3 DUP3 SUB SWAP1 POP DUP2 DUP2 GT ISZERO PUSH2 0x1367 JUMPI PUSH2 0x1366 PUSH2 0x1294 JUMP JUMPDEST JUMPDEST SWAP3 SWAP2 POP POP JUMP JUMPDEST PUSH32 0x41756374696F6E20616C726561647920656E6465640000000000000000000000 PUSH1 0x0 DUP3 ADD MSTORE POP JUMP JUMPDEST PUSH1 0x0 PUSH2 0x13A3 PUSH1 0x15 DUP4 PUSH2 0x1117 JUMP JUMPDEST SWAP2 POP PUSH2 0x13AE DUP3 PUSH2 0x136D JUMP JUMPDEST PUSH1 0x20 DUP3 ADD SWAP1 POP SWAP2 SWAP1 POP JUMP JUMPDEST PUSH1 0x0 PUSH1 0x20 DUP3 ADD SWAP1 POP DUP2 DUP2 SUB PUSH1 0x0 DUP4 ADD MSTORE PUSH2 0x13D2 DUP2 PUSH2 0x1396 JUMP JUMPDEST SWAP1 POP SWAP2 SWAP1 POP JUMP INVALID LOG2 PUSH5 0x6970667358 0x22 SLT KECCAK256 0xC6 ADDRESS EQ XOR 0x25 SWAP12 DUP15 PUSH7 0xF3B8EF6CD38E5B 0xDC 0xE9 PUSH19 0x5DF35A5DB035BB3BC0CD41C8BF5364736F6C63 NUMBER STOP ADDMOD SLT STOP CALLER PUSH1 0x80 PUSH1 0x40 MSTORE CALLVALUE DUP1 ISZERO PUSH2 0x10 JUMPI PUSH1 0x0 DUP1 REVERT JUMPDEST POP PUSH2 0x212 DUP1 PUSH2 0x20 PUSH1 0x0 CODECOPY PUSH1 0x0 RETURN INVALID PUSH1 0x80 PUSH1 0x40 MSTORE CALLVALUE DUP1 ISZERO PUSH2 0x10 JUMPI PUSH1 0x0 DUP1 REVERT JUMPDEST POP PUSH1 0x4 CALLDATASIZE LT PUSH2 0x2B JUMPI PUSH1 0x0 CALLDATALOAD PUSH1 0xE0 SHR DUP1 PUSH4 0xB3EC48DD EQ PUSH2 0x30 JUMPI JUMPDEST PUSH1 0x0 DUP1 REVERT JUMPDEST PUSH2 0x4A PUSH1 0x4 DUP1 CALLDATASIZE SUB DUP2 ADD SWAP1 PUSH2 0x45 SWAP2 SWAP1 PUSH2 0x104 JUMP JUMPDEST PUSH2 0x60 JUMP JUMPDEST PUSH1 0x40 MLOAD PUSH2 0x57 SWAP2 SWAP1 PUSH2 0x153 JUMP JUMPDEST PUSH1 0x40 MLOAD DUP1 SWAP2 SUB SWAP1 RETURN JUMPDEST PUSH1 0x0 DUP3 DUP3 PUSH1 0x40 MLOAD PUSH1 0x20 ADD PUSH2 0x75 SWAP3 SWAP2 SWAP1 PUSH2 0x1B0 JUMP JUMPDEST PUSH1 0x40 MLOAD PUSH1 0x20 DUP2 DUP4 SUB SUB DUP2 MSTORE SWAP1 PUSH1 0x40 MSTORE DUP1 MLOAD SWAP1 PUSH1 0x20 ADD KECCAK256 SWAP1 POP SWAP3 SWAP2 POP POP JUMP JUMPDEST PUSH1 0x0 DUP1 REVERT JUMPDEST PUSH1 0x0 DUP2 SWAP1 POP SWAP2 SWAP1 POP JUMP JUMPDEST PUSH2 0xAB DUP2 PUSH2 0x98 JUMP JUMPDEST DUP2 EQ PUSH2 0xB6 JUMPI PUSH1 0x0 DUP1 REVERT JUMPDEST POP JUMP JUMPDEST PUSH1 0x0 DUP2 CALLDATALOAD SWAP1 POP PUSH2 0xC8 DUP2 PUSH2 0xA2 JUMP JUMPDEST SWAP3 SWAP2 POP POP JUMP JUMPDEST PUSH1 0x0 DUP2 SWAP1 POP SWAP2 SWAP1 POP JUMP JUMPDEST PUSH2 0xE1 DUP2 PUSH2 0xCE JUMP JUMPDEST DUP2 EQ PUSH2 0xEC JUMPI PUSH1 0x0 DUP1 REVERT JUMPDEST POP JUMP JUMPDEST PUSH1 0x0 DUP2 CALLDATALOAD SWAP1 POP PUSH2 0xFE DUP2 PUSH2 0xD8 JUMP JUMPDEST SWAP3 SWAP2 POP POP JUMP JUMPDEST PUSH1 0x0 DUP1 PUSH1 0x40 DUP4 DUP6 SUB SLT ISZERO PUSH2 0x11B JUMPI PUSH2 0x11A PUSH2 0x93 JUMP JUMPDEST JUMPDEST PUSH1 0x0 PUSH2 0x129 DUP6 DUP3 DUP7 ADD PUSH2 0xB9 JUMP JUMPDEST SWAP3 POP POP PUSH1 0x20 PUSH2 0x13A DUP6 DUP3 DUP7 ADD PUSH2 0xEF JUMP JUMPDEST SWAP2 POP POP SWAP3 POP SWAP3 SWAP1 POP JUMP JUMPDEST PUSH2 0x14D DUP2 PUSH2 0xCE JUMP JUMPDEST DUP3 MSTORE POP POP JUMP JUMPDEST PUSH1 0x0 PUSH1 0x20 DUP3 ADD SWAP1 POP PUSH2 0x168 PUSH1 0x0 DUP4 ADD DUP5 PUSH2 0x144 JUMP JUMPDEST SWAP3 SWAP2 POP POP JUMP JUMPDEST PUSH1 0x0 DUP2 SWAP1 POP SWAP2 SWAP1 POP JUMP JUMPDEST PUSH2 0x189 PUSH2 0x184 DUP3 PUSH2 0x98 JUMP JUMPDEST PUSH2 0x16E JUMP JUMPDEST DUP3 MSTORE POP POP JUMP JUMPDEST PUSH1 0x0 DUP2 SWAP1 POP SWAP2 SWAP1 POP JUMP JUMPDEST PUSH2 0x1AA PUSH2 0x1A5 DUP3 PUSH2 0xCE JUMP JUMPDEST PUSH2 0x18F JUMP JUMPDEST DUP3 MSTORE POP POP JUMP JUMPDEST PUSH1 0x0 PUSH2 0x1BC DUP3 DUP6 PUSH2 0x178 JUMP JUMPDEST PUSH1 0x20 DUP3 ADD SWAP2 POP PUSH2 0x1CC DUP3 DUP5 PUSH2 0x199 JUMP JUMPDEST PUSH1 0x20 DUP3 ADD SWAP2 POP DUP2 SWAP1 POP SWAP4 SWAP3 POP POP POP JUMP INVALID LOG2 PUSH5 0x6970667358 0x22 SLT KECCAK256 0xBB MSTORE GT 0xE8 0xDB 0x21 PUSH18 0x759EA4B3C2384D89A0D5948459E991B7918A 0xAA 0xBB PUSH3 0xBE4A96 PUSH25 0x64736F6C634300081200330000000000000000000000000000 "
				},
				"gasEstimates": {
					"creation": {
						"codeDepositCost": "1027000",
						"executionCost": "infinite",
						"totalCost": "infinite"
					},
					"external": {
						"advancePhase()": "41620",
						"auctionEnd()": "infinite",
						"beneficiary()": "2559",
						"bid(bytes32)": "47113",
						"bids(address)": "5151",
						"checkRefund()": "2570",
						"currentPhase()": "2611",
						"highestBid()": "2539",
						"highestBidder()": "2536",
						"khashContract()": "infinite",
						"reveal(uint256,bytes32)": "infinite",
						"withdraw()": "infinite"
					}
				},
				"methodIdentifiers": {
					"advancePhase()": "be25a718",
					"auctionEnd()": "2a24f46c",
					"beneficiary()": "38af3eed",
					"bid(bytes32)": "957bb1e0",
					"bids(address)": "62ea82db",
					"checkRefund()": "94c246d5",
					"currentPhase()": "055ad42e",
					"highestBid()": "d57bde79",
					"highestBidder()": "91f90157",
					"khashContract()": "63142015",
					"reveal(uint256,bytes32)": "4036778f",
					"withdraw()": "3ccfd60b"
				}
			},
			"storageLayout": {
				"storage": [
					{
						"astId": 23,
						"contract": "Projects/BlindAuction-Dapp/blindauction-contract/contracts/BlindAuction.sol:BlindAuction",
						"label": "khashContract",
						"offset": 0,
						"slot": "0",
						"type": "t_contract(Khash)20"
					},
					{
						"astId": 35,
						"contract": "Projects/BlindAuction-Dapp/blindauction-contract/contracts/BlindAuction.sol:BlindAuction",
						"label": "beneficiary",
						"offset": 0,
						"slot": "1",
						"type": "t_address_payable"
					},
					{
						"astId": 40,
						"contract": "Projects/BlindAuction-Dapp/blindauction-contract/contracts/BlindAuction.sol:BlindAuction",
						"label": "currentPhase",
						"offset": 20,
						"slot": "1",
						"type": "t_enum(Phase)33"
					},
					{
						"astId": 45,
						"contract": "Projects/BlindAuction-Dapp/blindauction-contract/contracts/BlindAuction.sol:BlindAuction",
						"label": "bids",
						"offset": 0,
						"slot": "2",
						"type": "t_mapping(t_address,t_struct(Bid)28_storage)"
					},
					{
						"astId": 49,
						"contract": "Projects/BlindAuction-Dapp/blindauction-contract/contracts/BlindAuction.sol:BlindAuction",
						"label": "pendingReturns",
						"offset": 0,
						"slot": "3",
						"type": "t_mapping(t_address,t_uint256)"
					},
					{
						"astId": 51,
						"contract": "Projects/BlindAuction-Dapp/blindauction-contract/contracts/BlindAuction.sol:BlindAuction",
						"label": "highestBidder",
						"offset": 0,
						"slot": "4",
						"type": "t_address"
					},
					{
						"astId": 53,
						"contract": "Projects/BlindAuction-Dapp/blindauction-contract/contracts/BlindAuction.sol:BlindAuction",
						"label": "highestBid",
						"offset": 0,
						"slot": "5",
						"type": "t_uint256"
					}
				],
				"types": {
					"t_address": {
						"encoding": "inplace",
						"label": "address",
						"numberOfBytes": "20"
					},
					"t_address_payable": {
						"encoding": "inplace",
						"label": "address payable",
						"numberOfBytes": "20"
					},
					"t_bytes32": {
						"encoding": "inplace",
						"label": "bytes32",
						"numberOfBytes": "32"
					},
					"t_contract(Khash)20": {
						"encoding": "inplace",
						"label": "contract Khash",
						"numberOfBytes": "20"
					},
					"t_enum(Phase)33": {
						"encoding": "inplace",
						"label": "enum BlindAuction.Phase",
						"numberOfBytes": "1"
					},
					"t_mapping(t_address,t_struct(Bid)28_storage)": {
						"encoding": "mapping",
						"key": "t_address",
						"label": "mapping(address => struct BlindAuction.Bid)",
						"numberOfBytes": "32",
						"value": "t_struct(Bid)28_storage"
					},
					"t_mapping(t_address,t_uint256)": {
						"encoding": "mapping",
						"key": "t_address",
						"label": "mapping(address => uint256)",
						"numberOfBytes": "32",
						"value": "t_uint256"
					},
					"t_struct(Bid)28_storage": {
						"encoding": "inplace",
						"label": "struct BlindAuction.Bid",
						"members": [
							{
								"astId": 25,
								"contract": "Projects/BlindAuction-Dapp/blindauction-contract/contracts/BlindAuction.sol:BlindAuction",
								"label": "blindedBid",
								"offset": 0,
								"slot": "0",
								"type": "t_bytes32"
							},
							{
								"astId": 27,
								"contract": "Projects/BlindAuction-Dapp/blindauction-contract/contracts/BlindAuction.sol:BlindAuction",
								"label": "deposit",
								"offset": 0,
								"slot": "1",
								"type": "t_uint256"
							}
						],
						"numberOfBytes": "64"
					},
					"t_uint256": {
						"encoding": "inplace",
						"label": "uint256",
						"numberOfBytes": "32"
					}
				}
			},
			"userdoc": {
				"kind": "user",
				"methods": {},
				"version": 1
			}
		}
	}
}