{
	"data": {
		"bytecode": {
			"linkReferences": {},
			"object": "608060405234801561001057600080fd5b50610348806100206000396000f3fe608060405234801561001057600080fd5b50600436106100415760003560e01c8063508397101461004657806356e2778c14610076578063b71602b3146100a6575b600080fd5b610060600480360381019061005b91906101c7565b6100d6565b60405161006d9190610216565b60405180910390f35b610090600480360381019061008b91906101c7565b6100f6565b60405161009d9190610216565b60405180910390f35b6100c060048036038101906100bb91906101c7565b61010c565b6040516100cd9190610216565b60405180910390f35b60006100ee828460ff1661012090919063ffffffff16565b905092915050565b600081836101049190610260565b905092915050565b60006101188383610120565b905092915050565b60008260ff1682846101329190610260565b60ff1611610175576040517f08c379a000000000000000000000000000000000000000000000000000000000815260040161016c906102f2565b60405180910390fd5b81836101819190610260565b905092915050565b600080fd5b600060ff82169050919050565b6101a48161018e565b81146101af57600080fd5b50565b6000813590506101c18161019b565b92915050565b600080604083850312156101de576101dd610189565b5b60006101ec858286016101b2565b92505060206101fd858286016101b2565b9150509250929050565b6102108161018e565b82525050565b600060208201905061022b6000830184610207565b92915050565b7f4e487b7100000000000000000000000000000000000000000000000000000000600052601160045260246000fd5b600061026b8261018e565b91506102768361018e565b9250828201905060ff81111561028f5761028e610231565b5b92915050565b600082825260208201905092915050565b7f4572726f72203a206164646974696f6e204f766572666c6f7700000000000000600082015250565b60006102dc601983610295565b91506102e7826102a6565b602082019050919050565b6000602082019050818103600083015261030b816102cf565b905091905056fea26469706673582212206dfc59a28d0634c3aa0e78550f9e29829b9d5ef71f4e754708372999900a989964736f6c63430008120033",
			"opcodes": "PUSH1 0x80 PUSH1 0x40 MSTORE CALLVALUE DUP1 ISZERO PUSH2 0x10 JUMPI PUSH1 0x0 DUP1 REVERT JUMPDEST POP PUSH2 0x348 DUP1 PUSH2 0x20 PUSH1 0x0 CODECOPY PUSH1 0x0 RETURN INVALID PUSH1 0x80 PUSH1 0x40 MSTORE CALLVALUE DUP1 ISZERO PUSH2 0x10 JUMPI PUSH1 0x0 DUP1 REVERT JUMPDEST POP PUSH1 0x4 CALLDATASIZE LT PUSH2 0x41 JUMPI PUSH1 0x0 CALLDATALOAD PUSH1 0xE0 SHR DUP1 PUSH4 0x50839710 EQ PUSH2 0x46 JUMPI DUP1 PUSH4 0x56E2778C EQ PUSH2 0x76 JUMPI DUP1 PUSH4 0xB71602B3 EQ PUSH2 0xA6 JUMPI JUMPDEST PUSH1 0x0 DUP1 REVERT JUMPDEST PUSH2 0x60 PUSH1 0x4 DUP1 CALLDATASIZE SUB DUP2 ADD SWAP1 PUSH2 0x5B SWAP2 SWAP1 PUSH2 0x1C7 JUMP JUMPDEST PUSH2 0xD6 JUMP JUMPDEST PUSH1 0x40 MLOAD PUSH2 0x6D SWAP2 SWAP1 PUSH2 0x216 JUMP JUMPDEST PUSH1 0x40 MLOAD DUP1 SWAP2 SUB SWAP1 RETURN JUMPDEST PUSH2 0x90 PUSH1 0x4 DUP1 CALLDATASIZE SUB DUP2 ADD SWAP1 PUSH2 0x8B SWAP2 SWAP1 PUSH2 0x1C7 JUMP JUMPDEST PUSH2 0xF6 JUMP JUMPDEST PUSH1 0x40 MLOAD PUSH2 0x9D SWAP2 SWAP1 PUSH2 0x216 JUMP JUMPDEST PUSH1 0x40 MLOAD DUP1 SWAP2 SUB SWAP1 RETURN JUMPDEST PUSH2 0xC0 PUSH1 0x4 DUP1 CALLDATASIZE SUB DUP2 ADD SWAP1 PUSH2 0xBB SWAP2 SWAP1 PUSH2 0x1C7 JUMP JUMPDEST PUSH2 0x10C JUMP JUMPDEST PUSH1 0x40 MLOAD PUSH2 0xCD SWAP2 SWAP1 PUSH2 0x216 JUMP JUMPDEST PUSH1 0x40 MLOAD DUP1 SWAP2 SUB SWAP1 RETURN JUMPDEST PUSH1 0x0 PUSH2 0xEE DUP3 DUP5 PUSH1 0xFF AND PUSH2 0x120 SWAP1 SWAP2 SWAP1 PUSH4 0xFFFFFFFF AND JUMP JUMPDEST SWAP1 POP SWAP3 SWAP2 POP POP JUMP JUMPDEST PUSH1 0x0 DUP2 DUP4 PUSH2 0x104 SWAP2 SWAP1 PUSH2 0x260 JUMP JUMPDEST SWAP1 POP SWAP3 SWAP2 POP POP JUMP JUMPDEST PUSH1 0x0 PUSH2 0x118 DUP4 DUP4 PUSH2 0x120 JUMP JUMPDEST SWAP1 POP SWAP3 SWAP2 POP POP JUMP JUMPDEST PUSH1 0x0 DUP3 PUSH1 0xFF AND DUP3 DUP5 PUSH2 0x132 SWAP2 SWAP1 PUSH2 0x260 JUMP JUMPDEST PUSH1 0xFF AND GT PUSH2 0x175 JUMPI PUSH1 0x40 MLOAD PUSH32 0x8C379A000000000000000000000000000000000000000000000000000000000 DUP2 MSTORE PUSH1 0x4 ADD PUSH2 0x16C SWAP1 PUSH2 0x2F2 JUMP JUMPDEST PUSH1 0x40 MLOAD DUP1 SWAP2 SUB SWAP1 REVERT JUMPDEST DUP2 DUP4 PUSH2 0x181 SWAP2 SWAP1 PUSH2 0x260 JUMP JUMPDEST SWAP1 POP SWAP3 SWAP2 POP POP JUMP JUMPDEST PUSH1 0x0 DUP1 REVERT JUMPDEST PUSH1 0x0 PUSH1 0xFF DUP3 AND SWAP1 POP SWAP2 SWAP1 POP JUMP JUMPDEST PUSH2 0x1A4 DUP2 PUSH2 0x18E JUMP JUMPDEST DUP2 EQ PUSH2 0x1AF JUMPI PUSH1 0x0 DUP1 REVERT JUMPDEST POP JUMP JUMPDEST PUSH1 0x0 DUP2 CALLDATALOAD SWAP1 POP PUSH2 0x1C1 DUP2 PUSH2 0x19B JUMP JUMPDEST SWAP3 SWAP2 POP POP JUMP JUMPDEST PUSH1 0x0 DUP1 PUSH1 0x40 DUP4 DUP6 SUB SLT ISZERO PUSH2 0x1DE JUMPI PUSH2 0x1DD PUSH2 0x189 JUMP JUMPDEST JUMPDEST PUSH1 0x0 PUSH2 0x1EC DUP6 DUP3 DUP7 ADD PUSH2 0x1B2 JUMP JUMPDEST SWAP3 POP POP PUSH1 0x20 PUSH2 0x1FD DUP6 DUP3 DUP7 ADD PUSH2 0x1B2 JUMP JUMPDEST SWAP2 POP POP SWAP3 POP SWAP3 SWAP1 POP JUMP JUMPDEST PUSH2 0x210 DUP2 PUSH2 0x18E JUMP JUMPDEST DUP3 MSTORE POP POP JUMP JUMPDEST PUSH1 0x0 PUSH1 0x20 DUP3 ADD SWAP1 POP PUSH2 0x22B PUSH1 0x0 DUP4 ADD DUP5 PUSH2 0x207 JUMP JUMPDEST SWAP3 SWAP2 POP POP JUMP JUMPDEST PUSH32 0x4E487B7100000000000000000000000000000000000000000000000000000000 PUSH1 0x0 MSTORE PUSH1 0x11 PUSH1 0x4 MSTORE PUSH1 0x24 PUSH1 0x0 REVERT JUMPDEST PUSH1 0x0 PUSH2 0x26B DUP3 PUSH2 0x18E JUMP JUMPDEST SWAP2 POP PUSH2 0x276 DUP4 PUSH2 0x18E JUMP JUMPDEST SWAP3 POP DUP3 DUP3 ADD SWAP1 POP PUSH1 0xFF DUP2 GT ISZERO PUSH2 0x28F JUMPI PUSH2 0x28E PUSH2 0x231 JUMP JUMPDEST JUMPDEST SWAP3 SWAP2 POP POP JUMP JUMPDEST PUSH1 0x0 DUP3 DUP3 MSTORE PUSH1 0x20 DUP3 ADD SWAP1 POP SWAP3 SWAP2 POP POP JUMP JUMPDEST PUSH32 0x4572726F72203A206164646974696F6E204F766572666C6F7700000000000000 PUSH1 0x0 DUP3 ADD MSTORE POP JUMP JUMPDEST PUSH1 0x0 PUSH2 0x2DC PUSH1 0x19 DUP4 PUSH2 0x295 JUMP JUMPDEST SWAP2 POP PUSH2 0x2E7 DUP3 PUSH2 0x2A6 JUMP JUMPDEST PUSH1 0x20 DUP3 ADD SWAP1 POP SWAP2 SWAP1 POP JUMP JUMPDEST PUSH1 0x0 PUSH1 0x20 DUP3 ADD SWAP1 POP DUP2 DUP2 SUB PUSH1 0x0 DUP4 ADD MSTORE PUSH2 0x30B DUP2 PUSH2 0x2CF JUMP JUMPDEST SWAP1 POP SWAP2 SWAP1 POP JUMP INVALID LOG2 PUSH5 0x6970667358 0x22 SLT KECCAK256 PUSH14 0xFC59A28D0634C3AA0E78550F9E29 DUP3 SWAP12 SWAP14 0x5E 0xF7 0x1F 0x4E PUSH22 0x4708372999900A989964736F6C634300081200330000 "
		},
		"gasEstimates": {
			"creation": {
				"codeDepositCost": "168000",
				"executionCost": "214",
				"totalCost": "168214"
			},
			"external": {
				"noOverflow1(uint8,uint8)": "infinite",
				"noOverflow2(uint8,uint8)": "infinite",
				"overflow(uint8,uint8)": "infinite"
			}
		},
		"methodIdentifiers": {
			"noOverflow1(uint8,uint8)": "b71602b3",
			"noOverflow2(uint8,uint8)": "50839710",
			"overflow(uint8,uint8)": "56e2778c"
		}
	},
	"abi": [
		{
			"inputs": [
				{
					"internalType": "uint8",
					"name": "int1",
					"type": "uint8"
				},
				{
					"internalType": "uint8",
					"name": "int2",
					"type": "uint8"
				}
			],
			"name": "noOverflow1",
			"outputs": [
				{
					"internalType": "uint8",
					"name": "",
					"type": "uint8"
				}
			],
			"stateMutability": "pure",
			"type": "function"
		},
		{
			"inputs": [
				{
					"internalType": "uint8",
					"name": "int1",
					"type": "uint8"
				},
				{
					"internalType": "uint8",
					"name": "int2",
					"type": "uint8"
				}
			],
			"name": "noOverflow2",
			"outputs": [
				{
					"internalType": "uint8",
					"name": "",
					"type": "uint8"
				}
			],
			"stateMutability": "pure",
			"type": "function"
		},
		{
			"inputs": [
				{
					"internalType": "uint8",
					"name": "int1",
					"type": "uint8"
				},
				{
					"internalType": "uint8",
					"name": "int2",
					"type": "uint8"
				}
			],
			"name": "overflow",
			"outputs": [
				{
					"internalType": "uint8",
					"name": "",
					"type": "uint8"
				}
			],
			"stateMutability": "pure",
			"type": "function"
		}
	]
}