{
	"data": {
		"bytecode": {
			"linkReferences": {},
			"object": "60806040526040518060400160405280601181526020017f536f67616e6720556e6976657273697479000000000000000000000000000000815250600090816200004a91906200033f565b5060056001556040518060400160405280601281526020017f412070697a7a612072657374617572656e740000000000000000000000000000815250600290816200009691906200033f565b506006600355600354600154620000ae919062000455565b600455348015620000be57600080fd5b5062000490565b600081519050919050565b7f4e487b7100000000000000000000000000000000000000000000000000000000600052604160045260246000fd5b7f4e487b7100000000000000000000000000000000000000000000000000000000600052602260045260246000fd5b600060028204905060018216806200014757607f821691505b6020821081036200015d576200015c620000ff565b5b50919050565b60008190508160005260206000209050919050565b60006020601f8301049050919050565b600082821b905092915050565b600060088302620001c77fffffffffffffffffffffffffffffffffffffffffffffffffffffffffffffffff8262000188565b620001d3868362000188565b95508019841693508086168417925050509392505050565b6000819050919050565b6000819050919050565b6000620002206200021a6200021484620001eb565b620001f5565b620001eb565b9050919050565b6000819050919050565b6200023c83620001ff565b620002546200024b8262000227565b84845462000195565b825550505050565b600090565b6200026b6200025c565b6200027881848462000231565b505050565b5b81811015620002a0576200029460008262000261565b6001810190506200027e565b5050565b601f821115620002ef57620002b98162000163565b620002c48462000178565b81016020851015620002d4578190505b620002ec620002e38562000178565b8301826200027d565b50505b505050565b600082821c905092915050565b60006200031460001984600802620002f4565b1980831691505092915050565b60006200032f838362000301565b9150826002028217905092915050565b6200034a82620000c5565b67ffffffffffffffff811115620003665762000365620000d0565b5b6200037282546200012e565b6200037f828285620002a4565b600060209050601f831160018114620003b75760008415620003a2578287015190505b620003ae858262000321565b8655506200041e565b601f198416620003c78662000163565b60005b82811015620003f157848901518255600182019150602085019450602081019050620003ca565b868310156200041157848901516200040d601f89168262000301565b8355505b6001600288020188555050505b505050505050565b7f4e487b7100000000000000000000000000000000000000000000000000000000600052601160045260246000fd5b60006200046282620001eb565b91506200046f83620001eb565b92508282019050808211156200048a576200048962000426565b5b92915050565b61039c80620004a06000396000f3fe608060405234801561001057600080fd5b50600436106100575760003560e01c80632edc91ca1461005c5780638cb5d4711461007a578063a508d3b614610098578063bc65793e146100b6578063d2619fe0146100d4575b600080fd5b6100646100f2565b60405161007191906102b0565b60405180910390f35b610082610180565b60405161008f91906102eb565b60405180910390f35b6100a0610186565b6040516100ad91906102eb565b60405180910390f35b6100be61018c565b6040516100cb91906102eb565b60405180910390f35b6100dc610192565b6040516100e991906102b0565b60405180910390f35b600280546100ff90610335565b80601f016020809104026020016040519081016040528092919081815260200182805461012b90610335565b80156101785780601f1061014d57610100808354040283529160200191610178565b820191906000526020600020905b81548152906001019060200180831161015b57829003601f168201915b505050505081565b60045481565b60015481565b60035481565b6000805461019f90610335565b80601f01602080910402602001604051908101604052809291908181526020018280546101cb90610335565b80156102185780601f106101ed57610100808354040283529160200191610218565b820191906000526020600020905b8154815290600101906020018083116101fb57829003601f168201915b505050505081565b600081519050919050565b600082825260208201905092915050565b60005b8381101561025a57808201518184015260208101905061023f565b60008484015250505050565b6000601f19601f8301169050919050565b600061028282610220565b61028c818561022b565b935061029c81856020860161023c565b6102a581610266565b840191505092915050565b600060208201905081810360008301526102ca8184610277565b905092915050565b6000819050919050565b6102e5816102d2565b82525050565b600060208201905061030060008301846102dc565b92915050565b7f4e487b7100000000000000000000000000000000000000000000000000000000600052602260045260246000fd5b6000600282049050600182168061034d57607f821691505b6020821081036103605761035f610306565b5b5091905056fea2646970667358221220a65b76181e18dc22fca203fee32935c046c98371f2a09e3e5d30d19347b782d264736f6c63430008120033",
			"opcodes": "PUSH1 0x80 PUSH1 0x40 MSTORE PUSH1 0x40 MLOAD DUP1 PUSH1 0x40 ADD PUSH1 0x40 MSTORE DUP1 PUSH1 0x11 DUP2 MSTORE PUSH1 0x20 ADD PUSH32 0x536F67616E6720556E6976657273697479000000000000000000000000000000 DUP2 MSTORE POP PUSH1 0x0 SWAP1 DUP2 PUSH3 0x4A SWAP2 SWAP1 PUSH3 0x33F JUMP JUMPDEST POP PUSH1 0x5 PUSH1 0x1 SSTORE PUSH1 0x40 MLOAD DUP1 PUSH1 0x40 ADD PUSH1 0x40 MSTORE DUP1 PUSH1 0x12 DUP2 MSTORE PUSH1 0x20 ADD PUSH32 0x412070697A7A612072657374617572656E740000000000000000000000000000 DUP2 MSTORE POP PUSH1 0x2 SWAP1 DUP2 PUSH3 0x96 SWAP2 SWAP1 PUSH3 0x33F JUMP JUMPDEST POP PUSH1 0x6 PUSH1 0x3 SSTORE PUSH1 0x3 SLOAD PUSH1 0x1 SLOAD PUSH3 0xAE SWAP2 SWAP1 PUSH3 0x455 JUMP JUMPDEST PUSH1 0x4 SSTORE CALLVALUE DUP1 ISZERO PUSH3 0xBE JUMPI PUSH1 0x0 DUP1 REVERT JUMPDEST POP PUSH3 0x490 JUMP JUMPDEST PUSH1 0x0 DUP2 MLOAD SWAP1 POP SWAP2 SWAP1 POP JUMP JUMPDEST PUSH32 0x4E487B7100000000000000000000000000000000000000000000000000000000 PUSH1 0x0 MSTORE PUSH1 0x41 PUSH1 0x4 MSTORE PUSH1 0x24 PUSH1 0x0 REVERT JUMPDEST PUSH32 0x4E487B7100000000000000000000000000000000000000000000000000000000 PUSH1 0x0 MSTORE PUSH1 0x22 PUSH1 0x4 MSTORE PUSH1 0x24 PUSH1 0x0 REVERT JUMPDEST PUSH1 0x0 PUSH1 0x2 DUP3 DIV SWAP1 POP PUSH1 0x1 DUP3 AND DUP1 PUSH3 0x147 JUMPI PUSH1 0x7F DUP3 AND SWAP2 POP JUMPDEST PUSH1 0x20 DUP3 LT DUP2 SUB PUSH3 0x15D JUMPI PUSH3 0x15C PUSH3 0xFF JUMP JUMPDEST JUMPDEST POP SWAP2 SWAP1 POP JUMP JUMPDEST PUSH1 0x0 DUP2 SWAP1 POP DUP2 PUSH1 0x0 MSTORE PUSH1 0x20 PUSH1 0x0 KECCAK256 SWAP1 POP SWAP2 SWAP1 POP JUMP JUMPDEST PUSH1 0x0 PUSH1 0x20 PUSH1 0x1F DUP4 ADD DIV SWAP1 POP SWAP2 SWAP1 POP JUMP JUMPDEST PUSH1 0x0 DUP3 DUP3 SHL SWAP1 POP SWAP3 SWAP2 POP POP JUMP JUMPDEST PUSH1 0x0 PUSH1 0x8 DUP4 MUL PUSH3 0x1C7 PUSH32 0xFFFFFFFFFFFFFFFFFFFFFFFFFFFFFFFFFFFFFFFFFFFFFFFFFFFFFFFFFFFFFFFF DUP3 PUSH3 0x188 JUMP JUMPDEST PUSH3 0x1D3 DUP7 DUP4 PUSH3 0x188 JUMP JUMPDEST SWAP6 POP DUP1 NOT DUP5 AND SWAP4 POP DUP1 DUP7 AND DUP5 OR SWAP3 POP POP POP SWAP4 SWAP3 POP POP POP JUMP JUMPDEST PUSH1 0x0 DUP2 SWAP1 POP SWAP2 SWAP1 POP JUMP JUMPDEST PUSH1 0x0 DUP2 SWAP1 POP SWAP2 SWAP1 POP JUMP JUMPDEST PUSH1 0x0 PUSH3 0x220 PUSH3 0x21A PUSH3 0x214 DUP5 PUSH3 0x1EB JUMP JUMPDEST PUSH3 0x1F5 JUMP JUMPDEST PUSH3 0x1EB JUMP JUMPDEST SWAP1 POP SWAP2 SWAP1 POP JUMP JUMPDEST PUSH1 0x0 DUP2 SWAP1 POP SWAP2 SWAP1 POP JUMP JUMPDEST PUSH3 0x23C DUP4 PUSH3 0x1FF JUMP JUMPDEST PUSH3 0x254 PUSH3 0x24B DUP3 PUSH3 0x227 JUMP JUMPDEST DUP5 DUP5 SLOAD PUSH3 0x195 JUMP JUMPDEST DUP3 SSTORE POP POP POP POP JUMP JUMPDEST PUSH1 0x0 SWAP1 JUMP JUMPDEST PUSH3 0x26B PUSH3 0x25C JUMP JUMPDEST PUSH3 0x278 DUP2 DUP5 DUP5 PUSH3 0x231 JUMP JUMPDEST POP POP POP JUMP JUMPDEST JUMPDEST DUP2 DUP2 LT ISZERO PUSH3 0x2A0 JUMPI PUSH3 0x294 PUSH1 0x0 DUP3 PUSH3 0x261 JUMP JUMPDEST PUSH1 0x1 DUP2 ADD SWAP1 POP PUSH3 0x27E JUMP JUMPDEST POP POP JUMP JUMPDEST PUSH1 0x1F DUP3 GT ISZERO PUSH3 0x2EF JUMPI PUSH3 0x2B9 DUP2 PUSH3 0x163 JUMP JUMPDEST PUSH3 0x2C4 DUP5 PUSH3 0x178 JUMP JUMPDEST DUP2 ADD PUSH1 0x20 DUP6 LT ISZERO PUSH3 0x2D4 JUMPI DUP2 SWAP1 POP JUMPDEST PUSH3 0x2EC PUSH3 0x2E3 DUP6 PUSH3 0x178 JUMP JUMPDEST DUP4 ADD DUP3 PUSH3 0x27D JUMP JUMPDEST POP POP JUMPDEST POP POP POP JUMP JUMPDEST PUSH1 0x0 DUP3 DUP3 SHR SWAP1 POP SWAP3 SWAP2 POP POP JUMP JUMPDEST PUSH1 0x0 PUSH3 0x314 PUSH1 0x0 NOT DUP5 PUSH1 0x8 MUL PUSH3 0x2F4 JUMP JUMPDEST NOT DUP1 DUP4 AND SWAP2 POP POP SWAP3 SWAP2 POP POP JUMP JUMPDEST PUSH1 0x0 PUSH3 0x32F DUP4 DUP4 PUSH3 0x301 JUMP JUMPDEST SWAP2 POP DUP3 PUSH1 0x2 MUL DUP3 OR SWAP1 POP SWAP3 SWAP2 POP POP JUMP JUMPDEST PUSH3 0x34A DUP3 PUSH3 0xC5 JUMP JUMPDEST PUSH8 0xFFFFFFFFFFFFFFFF DUP2 GT ISZERO PUSH3 0x366 JUMPI PUSH3 0x365 PUSH3 0xD0 JUMP JUMPDEST JUMPDEST PUSH3 0x372 DUP3 SLOAD PUSH3 0x12E JUMP JUMPDEST PUSH3 0x37F DUP3 DUP3 DUP6 PUSH3 0x2A4 JUMP JUMPDEST PUSH1 0x0 PUSH1 0x20 SWAP1 POP PUSH1 0x1F DUP4 GT PUSH1 0x1 DUP2 EQ PUSH3 0x3B7 JUMPI PUSH1 0x0 DUP5 ISZERO PUSH3 0x3A2 JUMPI DUP3 DUP8 ADD MLOAD SWAP1 POP JUMPDEST PUSH3 0x3AE DUP6 DUP3 PUSH3 0x321 JUMP JUMPDEST DUP7 SSTORE POP PUSH3 0x41E JUMP JUMPDEST PUSH1 0x1F NOT DUP5 AND PUSH3 0x3C7 DUP7 PUSH3 0x163 JUMP JUMPDEST PUSH1 0x0 JUMPDEST DUP3 DUP2 LT ISZERO PUSH3 0x3F1 JUMPI DUP5 DUP10 ADD MLOAD DUP3 SSTORE PUSH1 0x1 DUP3 ADD SWAP2 POP PUSH1 0x20 DUP6 ADD SWAP5 POP PUSH1 0x20 DUP2 ADD SWAP1 POP PUSH3 0x3CA JUMP JUMPDEST DUP7 DUP4 LT ISZERO PUSH3 0x411 JUMPI DUP5 DUP10 ADD MLOAD PUSH3 0x40D PUSH1 0x1F DUP10 AND DUP3 PUSH3 0x301 JUMP JUMPDEST DUP4 SSTORE POP JUMPDEST PUSH1 0x1 PUSH1 0x2 DUP9 MUL ADD DUP9 SSTORE POP POP POP JUMPDEST POP POP POP POP POP POP JUMP JUMPDEST PUSH32 0x4E487B7100000000000000000000000000000000000000000000000000000000 PUSH1 0x0 MSTORE PUSH1 0x11 PUSH1 0x4 MSTORE PUSH1 0x24 PUSH1 0x0 REVERT JUMPDEST PUSH1 0x0 PUSH3 0x462 DUP3 PUSH3 0x1EB JUMP JUMPDEST SWAP2 POP PUSH3 0x46F DUP4 PUSH3 0x1EB JUMP JUMPDEST SWAP3 POP DUP3 DUP3 ADD SWAP1 POP DUP1 DUP3 GT ISZERO PUSH3 0x48A JUMPI PUSH3 0x489 PUSH3 0x426 JUMP JUMPDEST JUMPDEST SWAP3 SWAP2 POP POP JUMP JUMPDEST PUSH2 0x39C DUP1 PUSH3 0x4A0 PUSH1 0x0 CODECOPY PUSH1 0x0 RETURN INVALID PUSH1 0x80 PUSH1 0x40 MSTORE CALLVALUE DUP1 ISZERO PUSH2 0x10 JUMPI PUSH1 0x0 DUP1 REVERT JUMPDEST POP PUSH1 0x4 CALLDATASIZE LT PUSH2 0x57 JUMPI PUSH1 0x0 CALLDATALOAD PUSH1 0xE0 SHR DUP1 PUSH4 0x2EDC91CA EQ PUSH2 0x5C JUMPI DUP1 PUSH4 0x8CB5D471 EQ PUSH2 0x7A JUMPI DUP1 PUSH4 0xA508D3B6 EQ PUSH2 0x98 JUMPI DUP1 PUSH4 0xBC65793E EQ PUSH2 0xB6 JUMPI DUP1 PUSH4 0xD2619FE0 EQ PUSH2 0xD4 JUMPI JUMPDEST PUSH1 0x0 DUP1 REVERT JUMPDEST PUSH2 0x64 PUSH2 0xF2 JUMP JUMPDEST PUSH1 0x40 MLOAD PUSH2 0x71 SWAP2 SWAP1 PUSH2 0x2B0 JUMP JUMPDEST PUSH1 0x40 MLOAD DUP1 SWAP2 SUB SWAP1 RETURN JUMPDEST PUSH2 0x82 PUSH2 0x180 JUMP JUMPDEST PUSH1 0x40 MLOAD PUSH2 0x8F SWAP2 SWAP1 PUSH2 0x2EB JUMP JUMPDEST PUSH1 0x40 MLOAD DUP1 SWAP2 SUB SWAP1 RETURN JUMPDEST PUSH2 0xA0 PUSH2 0x186 JUMP JUMPDEST PUSH1 0x40 MLOAD PUSH2 0xAD SWAP2 SWAP1 PUSH2 0x2EB JUMP JUMPDEST PUSH1 0x40 MLOAD DUP1 SWAP2 SUB SWAP1 RETURN JUMPDEST PUSH2 0xBE PUSH2 0x18C JUMP JUMPDEST PUSH1 0x40 MLOAD PUSH2 0xCB SWAP2 SWAP1 PUSH2 0x2EB JUMP JUMPDEST PUSH1 0x40 MLOAD DUP1 SWAP2 SUB SWAP1 RETURN JUMPDEST PUSH2 0xDC PUSH2 0x192 JUMP JUMPDEST PUSH1 0x40 MLOAD PUSH2 0xE9 SWAP2 SWAP1 PUSH2 0x2B0 JUMP JUMPDEST PUSH1 0x40 MLOAD DUP1 SWAP2 SUB SWAP1 RETURN JUMPDEST PUSH1 0x2 DUP1 SLOAD PUSH2 0xFF SWAP1 PUSH2 0x335 JUMP JUMPDEST DUP1 PUSH1 0x1F ADD PUSH1 0x20 DUP1 SWAP2 DIV MUL PUSH1 0x20 ADD PUSH1 0x40 MLOAD SWAP1 DUP2 ADD PUSH1 0x40 MSTORE DUP1 SWAP3 SWAP2 SWAP1 DUP2 DUP2 MSTORE PUSH1 0x20 ADD DUP3 DUP1 SLOAD PUSH2 0x12B SWAP1 PUSH2 0x335 JUMP JUMPDEST DUP1 ISZERO PUSH2 0x178 JUMPI DUP1 PUSH1 0x1F LT PUSH2 0x14D JUMPI PUSH2 0x100 DUP1 DUP4 SLOAD DIV MUL DUP4 MSTORE SWAP2 PUSH1 0x20 ADD SWAP2 PUSH2 0x178 JUMP JUMPDEST DUP3 ADD SWAP2 SWAP1 PUSH1 0x0 MSTORE PUSH1 0x20 PUSH1 0x0 KECCAK256 SWAP1 JUMPDEST DUP2 SLOAD DUP2 MSTORE SWAP1 PUSH1 0x1 ADD SWAP1 PUSH1 0x20 ADD DUP1 DUP4 GT PUSH2 0x15B JUMPI DUP3 SWAP1 SUB PUSH1 0x1F AND DUP3 ADD SWAP2 JUMPDEST POP POP POP POP POP DUP2 JUMP JUMPDEST PUSH1 0x4 SLOAD DUP2 JUMP JUMPDEST PUSH1 0x1 SLOAD DUP2 JUMP JUMPDEST PUSH1 0x3 SLOAD DUP2 JUMP JUMPDEST PUSH1 0x0 DUP1 SLOAD PUSH2 0x19F SWAP1 PUSH2 0x335 JUMP JUMPDEST DUP1 PUSH1 0x1F ADD PUSH1 0x20 DUP1 SWAP2 DIV MUL PUSH1 0x20 ADD PUSH1 0x40 MLOAD SWAP1 DUP2 ADD PUSH1 0x40 MSTORE DUP1 SWAP3 SWAP2 SWAP1 DUP2 DUP2 MSTORE PUSH1 0x20 ADD DUP3 DUP1 SLOAD PUSH2 0x1CB SWAP1 PUSH2 0x335 JUMP JUMPDEST DUP1 ISZERO PUSH2 0x218 JUMPI DUP1 PUSH1 0x1F LT PUSH2 0x1ED JUMPI PUSH2 0x100 DUP1 DUP4 SLOAD DIV MUL DUP4 MSTORE SWAP2 PUSH1 0x20 ADD SWAP2 PUSH2 0x218 JUMP JUMPDEST DUP3 ADD SWAP2 SWAP1 PUSH1 0x0 MSTORE PUSH1 0x20 PUSH1 0x0 KECCAK256 SWAP1 JUMPDEST DUP2 SLOAD DUP2 MSTORE SWAP1 PUSH1 0x1 ADD SWAP1 PUSH1 0x20 ADD DUP1 DUP4 GT PUSH2 0x1FB JUMPI DUP3 SWAP1 SUB PUSH1 0x1F AND DUP3 ADD SWAP2 JUMPDEST POP POP POP POP POP DUP2 JUMP JUMPDEST PUSH1 0x0 DUP2 MLOAD SWAP1 POP SWAP2 SWAP1 POP JUMP JUMPDEST PUSH1 0x0 DUP3 DUP3 MSTORE PUSH1 0x20 DUP3 ADD SWAP1 POP SWAP3 SWAP2 POP POP JUMP JUMPDEST PUSH1 0x0 JUMPDEST DUP4 DUP2 LT ISZERO PUSH2 0x25A JUMPI DUP1 DUP3 ADD MLOAD DUP2 DUP5 ADD MSTORE PUSH1 0x20 DUP2 ADD SWAP1 POP PUSH2 0x23F JUMP JUMPDEST PUSH1 0x0 DUP5 DUP5 ADD MSTORE POP POP POP POP JUMP JUMPDEST PUSH1 0x0 PUSH1 0x1F NOT PUSH1 0x1F DUP4 ADD AND SWAP1 POP SWAP2 SWAP1 POP JUMP JUMPDEST PUSH1 0x0 PUSH2 0x282 DUP3 PUSH2 0x220 JUMP JUMPDEST PUSH2 0x28C DUP2 DUP6 PUSH2 0x22B JUMP JUMPDEST SWAP4 POP PUSH2 0x29C DUP2 DUP6 PUSH1 0x20 DUP7 ADD PUSH2 0x23C JUMP JUMPDEST PUSH2 0x2A5 DUP2 PUSH2 0x266 JUMP JUMPDEST DUP5 ADD SWAP2 POP POP SWAP3 SWAP2 POP POP JUMP JUMPDEST PUSH1 0x0 PUSH1 0x20 DUP3 ADD SWAP1 POP DUP2 DUP2 SUB PUSH1 0x0 DUP4 ADD MSTORE PUSH2 0x2CA DUP2 DUP5 PUSH2 0x277 JUMP JUMPDEST SWAP1 POP SWAP3 SWAP2 POP POP JUMP JUMPDEST PUSH1 0x0 DUP2 SWAP1 POP SWAP2 SWAP1 POP JUMP JUMPDEST PUSH2 0x2E5 DUP2 PUSH2 0x2D2 JUMP JUMPDEST DUP3 MSTORE POP POP JUMP JUMPDEST PUSH1 0x0 PUSH1 0x20 DUP3 ADD SWAP1 POP PUSH2 0x300 PUSH1 0x0 DUP4 ADD DUP5 PUSH2 0x2DC JUMP JUMPDEST SWAP3 SWAP2 POP POP JUMP JUMPDEST PUSH32 0x4E487B7100000000000000000000000000000000000000000000000000000000 PUSH1 0x0 MSTORE PUSH1 0x22 PUSH1 0x4 MSTORE PUSH1 0x24 PUSH1 0x0 REVERT JUMPDEST PUSH1 0x0 PUSH1 0x2 DUP3 DIV SWAP1 POP PUSH1 0x1 DUP3 AND DUP1 PUSH2 0x34D JUMPI PUSH1 0x7F DUP3 AND SWAP2 POP JUMPDEST PUSH1 0x20 DUP3 LT DUP2 SUB PUSH2 0x360 JUMPI PUSH2 0x35F PUSH2 0x306 JUMP JUMPDEST JUMPDEST POP SWAP2 SWAP1 POP JUMP INVALID LOG2 PUSH5 0x6970667358 0x22 SLT KECCAK256 0xA6 JUMPDEST PUSH23 0x181E18DC22FCA203FEE32935C046C98371F2A09E3E5D30 0xD1 SWAP4 SELFBALANCE 0xB7 DUP3 0xD2 PUSH5 0x736F6C6343 STOP ADDMOD SLT STOP CALLER "
		},
		"gasEstimates": {
			"creation": {
				"codeDepositCost": "184800",
				"executionCost": "infinite",
				"totalCost": "infinite"
			},
			"external": {
				"schoolHours()": "2451",
				"schoolName()": "infinite",
				"totalHours()": "2429",
				"workPlace()": "infinite",
				"workingHours()": "2473"
			}
		},
		"methodIdentifiers": {
			"schoolHours()": "a508d3b6",
			"schoolName()": "d2619fe0",
			"totalHours()": "8cb5d471",
			"workPlace()": "2edc91ca",
			"workingHours()": "bc65793e"
		}
	},
	"abi": [
		{
			"inputs": [],
			"name": "schoolHours",
			"outputs": [
				{
					"internalType": "uint256",
					"name": "",
					"type": "uint256"
				}
			],
			"stateMutability": "view",
			"type": "function"
		},
		{
			"inputs": [],
			"name": "schoolName",
			"outputs": [
				{
					"internalType": "string",
					"name": "",
					"type": "string"
				}
			],
			"stateMutability": "view",
			"type": "function"
		},
		{
			"inputs": [],
			"name": "totalHours",
			"outputs": [
				{
					"internalType": "uint256",
					"name": "",
					"type": "uint256"
				}
			],
			"stateMutability": "view",
			"type": "function"
		},
		{
			"inputs": [],
			"name": "workPlace",
			"outputs": [
				{
					"internalType": "string",
					"name": "",
					"type": "string"
				}
			],
			"stateMutability": "view",
			"type": "function"
		},
		{
			"inputs": [],
			"name": "workingHours",
			"outputs": [
				{
					"internalType": "uint256",
					"name": "",
					"type": "uint256"
				}
			],
			"stateMutability": "view",
			"type": "function"
		}
	]
}