{
	"Textbook/Chapter2/example2.6.sol": {
		"Ex2_6": {
			"abi": [
				{
					"inputs": [],
					"name": "justA",
					"outputs": [
						{
							"internalType": "uint256",
							"name": "",
							"type": "uint256"
						}
					],
					"stateMutability": "view",
					"type": "function"
				},
				{
					"inputs": [],
					"name": "prePlus",
					"outputs": [
						{
							"internalType": "uint256",
							"name": "",
							"type": "uint256"
						}
					],
					"stateMutability": "nonpayable",
					"type": "function"
				}
			],
			"devdoc": {
				"kind": "dev",
				"methods": {},
				"version": 1
			},
			"evm": {
				"assembly": "    /* \"Textbook/Chapter2/example2.6.sol\":57:244  contract Ex2_6 {... */\n  mstore(0x40, 0x80)\n    /* \"Textbook/Chapter2/example2.6.sol\":87:88  5 */\n  0x05\n    /* \"Textbook/Chapter2/example2.6.sol\":78:88  uint a = 5 */\n  0x00\n  sstore\n    /* \"Textbook/Chapter2/example2.6.sol\":57:244  contract Ex2_6 {... */\n  callvalue\n  dup1\n  iszero\n  tag_1\n  jumpi\n  0x00\n  dup1\n  revert\ntag_1:\n  pop\n  dataSize(sub_0)\n  dup1\n  dataOffset(sub_0)\n  0x00\n  codecopy\n  0x00\n  return\nstop\n\nsub_0: assembly {\n        /* \"Textbook/Chapter2/example2.6.sol\":57:244  contract Ex2_6 {... */\n      mstore(0x40, 0x80)\n      callvalue\n      dup1\n      iszero\n      tag_1\n      jumpi\n      0x00\n      dup1\n      revert\n    tag_1:\n      pop\n      jumpi(tag_2, lt(calldatasize, 0x04))\n      shr(0xe0, calldataload(0x00))\n      dup1\n      0x1407b80d\n      eq\n      tag_3\n      jumpi\n      dup1\n      0xd7cf1533\n      eq\n      tag_4\n      jumpi\n    tag_2:\n      0x00\n      dup1\n      revert\n        /* \"Textbook/Chapter2/example2.6.sol\":94:161  function justA() public view returns(uint){... */\n    tag_3:\n      tag_5\n      tag_6\n      jump\t// in\n    tag_5:\n      mload(0x40)\n      tag_7\n      swap2\n      swap1\n      tag_8\n      jump\t// in\n    tag_7:\n      mload(0x40)\n      dup1\n      swap2\n      sub\n      swap1\n      return\n        /* \"Textbook/Chapter2/example2.6.sol\":166:242  function prePlus() public returns(uint){... */\n    tag_4:\n      tag_9\n      tag_10\n      jump\t// in\n    tag_9:\n      mload(0x40)\n      tag_11\n      swap2\n      swap1\n      tag_8\n      jump\t// in\n    tag_11:\n      mload(0x40)\n      dup1\n      swap2\n      sub\n      swap1\n      return\n        /* \"Textbook/Chapter2/example2.6.sol\":94:161  function justA() public view returns(uint){... */\n    tag_6:\n        /* \"Textbook/Chapter2/example2.6.sol\":131:135  uint */\n      0x00\n        /* \"Textbook/Chapter2/example2.6.sol\":153:154  a */\n      dup1\n      sload\n        /* \"Textbook/Chapter2/example2.6.sol\":146:154  return a */\n      swap1\n      pop\n        /* \"Textbook/Chapter2/example2.6.sol\":94:161  function justA() public view returns(uint){... */\n      swap1\n      jump\t// out\n        /* \"Textbook/Chapter2/example2.6.sol\":166:242  function prePlus() public returns(uint){... */\n    tag_10:\n        /* \"Textbook/Chapter2/example2.6.sol\":200:204  uint */\n      0x00\n        /* \"Textbook/Chapter2/example2.6.sol\":224:225  a */\n      dup1\n      0x00\n        /* \"Textbook/Chapter2/example2.6.sol\":222:225  ++a */\n      dup2\n      sload\n      tag_14\n      swap1\n      tag_15\n      jump\t// in\n    tag_14:\n      swap2\n      swap1\n      pop\n      dup2\n      swap1\n      sstore\n        /* \"Textbook/Chapter2/example2.6.sol\":215:225  return ++a */\n      swap1\n      pop\n        /* \"Textbook/Chapter2/example2.6.sol\":166:242  function prePlus() public returns(uint){... */\n      swap1\n      jump\t// out\n        /* \"#utility.yul\":7:125   */\n    tag_17:\n        /* \"#utility.yul\":94:118   */\n      tag_19\n        /* \"#utility.yul\":112:117   */\n      dup2\n        /* \"#utility.yul\":94:118   */\n      tag_20\n      jump\t// in\n    tag_19:\n        /* \"#utility.yul\":89:92   */\n      dup3\n        /* \"#utility.yul\":82:119   */\n      mstore\n        /* \"#utility.yul\":72:125   */\n      pop\n      pop\n      jump\t// out\n        /* \"#utility.yul\":131:353   */\n    tag_8:\n      0x00\n        /* \"#utility.yul\":262:264   */\n      0x20\n        /* \"#utility.yul\":251:260   */\n      dup3\n        /* \"#utility.yul\":247:265   */\n      add\n        /* \"#utility.yul\":239:265   */\n      swap1\n      pop\n        /* \"#utility.yul\":275:346   */\n      tag_22\n        /* \"#utility.yul\":343:344   */\n      0x00\n        /* \"#utility.yul\":332:341   */\n      dup4\n        /* \"#utility.yul\":328:345   */\n      add\n        /* \"#utility.yul\":319:325   */\n      dup5\n        /* \"#utility.yul\":275:346   */\n      tag_17\n      jump\t// in\n    tag_22:\n        /* \"#utility.yul\":229:353   */\n      swap3\n      swap2\n      pop\n      pop\n      jump\t// out\n        /* \"#utility.yul\":359:436   */\n    tag_20:\n      0x00\n        /* \"#utility.yul\":425:430   */\n      dup2\n        /* \"#utility.yul\":414:430   */\n      swap1\n      pop\n        /* \"#utility.yul\":404:436   */\n      swap2\n      swap1\n      pop\n      jump\t// out\n        /* \"#utility.yul\":442:675   */\n    tag_15:\n      0x00\n        /* \"#utility.yul\":504:528   */\n      tag_25\n        /* \"#utility.yul\":522:527   */\n      dup3\n        /* \"#utility.yul\":504:528   */\n      tag_20\n      jump\t// in\n    tag_25:\n        /* \"#utility.yul\":495:528   */\n      swap2\n      pop\n        /* \"#utility.yul\":550:616   */\n      0xffffffffffffffffffffffffffffffffffffffffffffffffffffffffffffffff\n        /* \"#utility.yul\":543:548   */\n      dup3\n        /* \"#utility.yul\":540:617   */\n      eq\n        /* \"#utility.yul\":537:539   */\n      iszero\n      tag_26\n      jumpi\n        /* \"#utility.yul\":620:638   */\n      tag_27\n      tag_28\n      jump\t// in\n    tag_27:\n        /* \"#utility.yul\":537:539   */\n    tag_26:\n        /* \"#utility.yul\":667:668   */\n      0x01\n        /* \"#utility.yul\":660:665   */\n      dup3\n        /* \"#utility.yul\":656:669   */\n      add\n        /* \"#utility.yul\":649:669   */\n      swap1\n      pop\n        /* \"#utility.yul\":485:675   */\n      swap2\n      swap1\n      pop\n      jump\t// out\n        /* \"#utility.yul\":681:861   */\n    tag_28:\n        /* \"#utility.yul\":729:806   */\n      0x4e487b7100000000000000000000000000000000000000000000000000000000\n        /* \"#utility.yul\":726:727   */\n      0x00\n        /* \"#utility.yul\":719:807   */\n      mstore\n        /* \"#utility.yul\":826:830   */\n      0x11\n        /* \"#utility.yul\":823:824   */\n      0x04\n        /* \"#utility.yul\":816:831   */\n      mstore\n        /* \"#utility.yul\":850:854   */\n      0x24\n        /* \"#utility.yul\":847:848   */\n      0x00\n        /* \"#utility.yul\":840:855   */\n      revert\n\n    auxdata: 0xa2646970667358221220079d2f923901875e1217916ee24eb4bc1f3b2fadf1cff6d042699759173683a564736f6c63430008000033\n}\n",
				"bytecode": {
					"linkReferences": {},
					"object": "6080604052600560005534801561001557600080fd5b5061017d806100256000396000f3fe608060405234801561001057600080fd5b50600436106100365760003560e01c80631407b80d1461003b578063d7cf153314610059575b600080fd5b610043610077565b60405161005091906100aa565b60405180910390f35b610061610080565b60405161006e91906100aa565b60405180910390f35b60008054905090565b60008060008154610090906100cf565b919050819055905090565b6100a4816100c5565b82525050565b60006020820190506100bf600083018461009b565b92915050565b6000819050919050565b60006100da826100c5565b91507fffffffffffffffffffffffffffffffffffffffffffffffffffffffffffffffff82141561010d5761010c610118565b5b600182019050919050565b7f4e487b7100000000000000000000000000000000000000000000000000000000600052601160045260246000fdfea2646970667358221220079d2f923901875e1217916ee24eb4bc1f3b2fadf1cff6d042699759173683a564736f6c63430008000033",
					"opcodes": "PUSH1 0x80 PUSH1 0x40 MSTORE PUSH1 0x5 PUSH1 0x0 SSTORE CALLVALUE DUP1 ISZERO PUSH2 0x15 JUMPI PUSH1 0x0 DUP1 REVERT JUMPDEST POP PUSH2 0x17D DUP1 PUSH2 0x25 PUSH1 0x0 CODECOPY PUSH1 0x0 RETURN INVALID PUSH1 0x80 PUSH1 0x40 MSTORE CALLVALUE DUP1 ISZERO PUSH2 0x10 JUMPI PUSH1 0x0 DUP1 REVERT JUMPDEST POP PUSH1 0x4 CALLDATASIZE LT PUSH2 0x36 JUMPI PUSH1 0x0 CALLDATALOAD PUSH1 0xE0 SHR DUP1 PUSH4 0x1407B80D EQ PUSH2 0x3B JUMPI DUP1 PUSH4 0xD7CF1533 EQ PUSH2 0x59 JUMPI JUMPDEST PUSH1 0x0 DUP1 REVERT JUMPDEST PUSH2 0x43 PUSH2 0x77 JUMP JUMPDEST PUSH1 0x40 MLOAD PUSH2 0x50 SWAP2 SWAP1 PUSH2 0xAA JUMP JUMPDEST PUSH1 0x40 MLOAD DUP1 SWAP2 SUB SWAP1 RETURN JUMPDEST PUSH2 0x61 PUSH2 0x80 JUMP JUMPDEST PUSH1 0x40 MLOAD PUSH2 0x6E SWAP2 SWAP1 PUSH2 0xAA JUMP JUMPDEST PUSH1 0x40 MLOAD DUP1 SWAP2 SUB SWAP1 RETURN JUMPDEST PUSH1 0x0 DUP1 SLOAD SWAP1 POP SWAP1 JUMP JUMPDEST PUSH1 0x0 DUP1 PUSH1 0x0 DUP2 SLOAD PUSH2 0x90 SWAP1 PUSH2 0xCF JUMP JUMPDEST SWAP2 SWAP1 POP DUP2 SWAP1 SSTORE SWAP1 POP SWAP1 JUMP JUMPDEST PUSH2 0xA4 DUP2 PUSH2 0xC5 JUMP JUMPDEST DUP3 MSTORE POP POP JUMP JUMPDEST PUSH1 0x0 PUSH1 0x20 DUP3 ADD SWAP1 POP PUSH2 0xBF PUSH1 0x0 DUP4 ADD DUP5 PUSH2 0x9B JUMP JUMPDEST SWAP3 SWAP2 POP POP JUMP JUMPDEST PUSH1 0x0 DUP2 SWAP1 POP SWAP2 SWAP1 POP JUMP JUMPDEST PUSH1 0x0 PUSH2 0xDA DUP3 PUSH2 0xC5 JUMP JUMPDEST SWAP2 POP PUSH32 0xFFFFFFFFFFFFFFFFFFFFFFFFFFFFFFFFFFFFFFFFFFFFFFFFFFFFFFFFFFFFFFFF DUP3 EQ ISZERO PUSH2 0x10D JUMPI PUSH2 0x10C PUSH2 0x118 JUMP JUMPDEST JUMPDEST PUSH1 0x1 DUP3 ADD SWAP1 POP SWAP2 SWAP1 POP JUMP JUMPDEST PUSH32 0x4E487B7100000000000000000000000000000000000000000000000000000000 PUSH1 0x0 MSTORE PUSH1 0x11 PUSH1 0x4 MSTORE PUSH1 0x24 PUSH1 0x0 REVERT INVALID LOG2 PUSH5 0x6970667358 0x22 SLT KECCAK256 SMOD SWAP14 0x2F SWAP3 CODECOPY ADD DUP8 0x5E SLT OR SWAP2 PUSH15 0xE24EB4BC1F3B2FADF1CFF6D0426997 MSIZE OR CALLDATASIZE DUP4 0xA5 PUSH5 0x736F6C6343 STOP ADDMOD STOP STOP CALLER "
				},
				"gasEstimates": {
					"creation": {
						"codeDepositCost": "76200",
						"executionCost": "20129",
						"totalCost": "96329"
					},
					"external": {
						"justA()": "1115",
						"prePlus()": "infinite"
					}
				},
				"methodIdentifiers": {
					"justA()": "1407b80d",
					"prePlus()": "d7cf1533"
				}
			},
			"storageLayout": {
				"storage": [
					{
						"astId": 4,
						"contract": "Textbook/Chapter2/example2.6.sol:Ex2_6",
						"label": "a",
						"offset": 0,
						"slot": "0",
						"type": "t_uint256"
					}
				],
				"types": {
					"t_uint256": {
						"encoding": "inplace",
						"label": "uint256",
						"numberOfBytes": "32"
					}
				}
			},
			"userdoc": {
				"kind": "user",
				"methods": {},
				"version": 1
			}
		}
	}
}