{
	"Textbook/Chapter8/quiz4.sol": {
		"quiz4": {
			"abi": [
				{
					"inputs": [
						{
							"internalType": "uint256",
							"name": "num1",
							"type": "uint256"
						},
						{
							"internalType": "uint256",
							"name": "num2",
							"type": "uint256"
						}
					],
					"name": "substraction",
					"outputs": [
						{
							"internalType": "uint256",
							"name": "",
							"type": "uint256"
						}
					],
					"stateMutability": "pure",
					"type": "function"
				}
			],
			"devdoc": {
				"kind": "dev",
				"methods": {},
				"version": 1
			},
			"evm": {
				"assembly": "    /* \"Textbook/Chapter8/quiz4.sol\":266:456  contract quiz4 {... */\n  mstore(0x40, 0x80)\n  callvalue\n  dup1\n  iszero\n  tag_1\n  jumpi\n  0x00\n  dup1\n  revert\ntag_1:\n  pop\n  dataSize(sub_0)\n  dup1\n  dataOffset(sub_0)\n  0x00\n  codecopy\n  0x00\n  return\nstop\n\nsub_0: assembly {\n        /* \"Textbook/Chapter8/quiz4.sol\":266:456  contract quiz4 {... */\n      mstore(0x40, 0x80)\n      callvalue\n      dup1\n      iszero\n      tag_1\n      jumpi\n      0x00\n      dup1\n      revert\n    tag_1:\n      pop\n      jumpi(tag_2, lt(calldatasize, 0x04))\n      shr(0xe0, calldataload(0x00))\n      dup1\n      0xcdeb3314\n      eq\n      tag_3\n      jumpi\n    tag_2:\n      0x00\n      dup1\n      revert\n        /* \"Textbook/Chapter8/quiz4.sol\":313:454  function substraction(uint num1, uint num2)... */\n    tag_3:\n      tag_4\n      0x04\n      dup1\n      calldatasize\n      sub\n      0x40\n      dup2\n      lt\n      iszero\n      tag_5\n      jumpi\n      0x00\n      dup1\n      revert\n    tag_5:\n      dup2\n      add\n      swap1\n      dup1\n      dup1\n      calldataload\n      swap1\n      0x20\n      add\n      swap1\n      swap3\n      swap2\n      swap1\n      dup1\n      calldataload\n      swap1\n      0x20\n      add\n      swap1\n      swap3\n      swap2\n      swap1\n      pop\n      pop\n      pop\n      tag_6\n      jump\t// in\n    tag_4:\n      mload(0x40)\n      dup1\n      dup3\n      dup2\n      mstore\n      0x20\n      add\n      swap2\n      pop\n      pop\n      mload(0x40)\n      dup1\n      swap2\n      sub\n      swap1\n      return\n    tag_6:\n        /* \"Textbook/Chapter8/quiz4.sol\":402:406  uint */\n      0x00\n        /* \"Textbook/Chapter8/quiz4.sol\":429:443  num1.sub(num2) */\n      tag_8\n        /* \"Textbook/Chapter8/quiz4.sol\":438:442  num2 */\n      dup3\n        /* \"Textbook/Chapter8/quiz4.sol\":429:433  num1 */\n      dup5\n        /* \"Textbook/Chapter8/quiz4.sol\":429:437  num1.sub */\n      tag_9\n      swap1\n        /* \"Textbook/Chapter8/quiz4.sol\":429:443  num1.sub(num2) */\n      swap2\n      swap1\n      0xffffffff\n      and\n      jump\t// in\n    tag_8:\n        /* \"Textbook/Chapter8/quiz4.sol\":422:443  return num1.sub(num2) */\n      swap1\n      pop\n        /* \"Textbook/Chapter8/quiz4.sol\":313:454  function substraction(uint num1, uint num2)... */\n      swap3\n      swap2\n      pop\n      pop\n      jump\t// out\n        /* \"Textbook/Chapter8/quiz4.sol\":76:262  function sub(uint num1, uint num2) ... */\n    tag_9:\n        /* \"Textbook/Chapter8/quiz4.sol\":159:163  uint */\n      0x00\n        /* \"Textbook/Chapter8/quiz4.sol\":195:199  num1 */\n      dup3\n        /* \"Textbook/Chapter8/quiz4.sol\":187:191  num2 */\n      dup3\n        /* \"Textbook/Chapter8/quiz4.sol\":187:199  num2 <= num1 */\n      gt\n      iszero\n        /* \"Textbook/Chapter8/quiz4.sol\":179:219  require(num2 <= num1, \"Underflow Error\") */\n      tag_11\n      jumpi\n      mload(0x40)\n      0x08c379a000000000000000000000000000000000000000000000000000000000\n      dup2\n      mstore\n      0x04\n      add\n      dup1\n      dup1\n      0x20\n      add\n      dup3\n      dup2\n      sub\n      dup3\n      mstore\n      0x0f\n      dup2\n      mstore\n      0x20\n      add\n      dup1\n      0x556e646572666c6f77204572726f720000000000000000000000000000000000\n      dup2\n      mstore\n      pop\n      0x20\n      add\n      swap2\n      pop\n      pop\n      mload(0x40)\n      dup1\n      swap2\n      sub\n      swap1\n      revert\n    tag_11:\n        /* \"Textbook/Chapter8/quiz4.sol\":247:251  num2 */\n      dup2\n        /* \"Textbook/Chapter8/quiz4.sol\":240:244  num1 */\n      dup4\n        /* \"Textbook/Chapter8/quiz4.sol\":240:251  num1 - num2 */\n      sub\n        /* \"Textbook/Chapter8/quiz4.sol\":233:251  return num1 - num2 */\n      swap1\n      pop\n        /* \"Textbook/Chapter8/quiz4.sol\":76:262  function sub(uint num1, uint num2) ... */\n      swap3\n      swap2\n      pop\n      pop\n      jump\t// out\n\n    auxdata: 0xa26469706673582212200516bdb04a7bb3c3dd709e987208092e321fc0246873c42bb4697d02639395e064736f6c63430007060033\n}\n",
				"bytecode": {
					"linkReferences": {},
					"object": "608060405234801561001057600080fd5b50610152806100206000396000f3fe608060405234801561001057600080fd5b506004361061002b5760003560e01c8063cdeb331414610030575b600080fd5b6100666004803603604081101561004657600080fd5b81019080803590602001909291908035906020019092919050505061007c565b6040518082815260200191505060405180910390f35b6000610091828461009990919063ffffffff16565b905092915050565b600082821115610111576040517f08c379a000000000000000000000000000000000000000000000000000000000815260040180806020018281038252600f8152602001807f556e646572666c6f77204572726f72000000000000000000000000000000000081525060200191505060405180910390fd5b81830390509291505056fea26469706673582212200516bdb04a7bb3c3dd709e987208092e321fc0246873c42bb4697d02639395e064736f6c63430007060033",
					"opcodes": "PUSH1 0x80 PUSH1 0x40 MSTORE CALLVALUE DUP1 ISZERO PUSH2 0x10 JUMPI PUSH1 0x0 DUP1 REVERT JUMPDEST POP PUSH2 0x152 DUP1 PUSH2 0x20 PUSH1 0x0 CODECOPY PUSH1 0x0 RETURN INVALID PUSH1 0x80 PUSH1 0x40 MSTORE CALLVALUE DUP1 ISZERO PUSH2 0x10 JUMPI PUSH1 0x0 DUP1 REVERT JUMPDEST POP PUSH1 0x4 CALLDATASIZE LT PUSH2 0x2B JUMPI PUSH1 0x0 CALLDATALOAD PUSH1 0xE0 SHR DUP1 PUSH4 0xCDEB3314 EQ PUSH2 0x30 JUMPI JUMPDEST PUSH1 0x0 DUP1 REVERT JUMPDEST PUSH2 0x66 PUSH1 0x4 DUP1 CALLDATASIZE SUB PUSH1 0x40 DUP2 LT ISZERO PUSH2 0x46 JUMPI PUSH1 0x0 DUP1 REVERT JUMPDEST DUP2 ADD SWAP1 DUP1 DUP1 CALLDATALOAD SWAP1 PUSH1 0x20 ADD SWAP1 SWAP3 SWAP2 SWAP1 DUP1 CALLDATALOAD SWAP1 PUSH1 0x20 ADD SWAP1 SWAP3 SWAP2 SWAP1 POP POP POP PUSH2 0x7C JUMP JUMPDEST PUSH1 0x40 MLOAD DUP1 DUP3 DUP2 MSTORE PUSH1 0x20 ADD SWAP2 POP POP PUSH1 0x40 MLOAD DUP1 SWAP2 SUB SWAP1 RETURN JUMPDEST PUSH1 0x0 PUSH2 0x91 DUP3 DUP5 PUSH2 0x99 SWAP1 SWAP2 SWAP1 PUSH4 0xFFFFFFFF AND JUMP JUMPDEST SWAP1 POP SWAP3 SWAP2 POP POP JUMP JUMPDEST PUSH1 0x0 DUP3 DUP3 GT ISZERO PUSH2 0x111 JUMPI PUSH1 0x40 MLOAD PUSH32 0x8C379A000000000000000000000000000000000000000000000000000000000 DUP2 MSTORE PUSH1 0x4 ADD DUP1 DUP1 PUSH1 0x20 ADD DUP3 DUP2 SUB DUP3 MSTORE PUSH1 0xF DUP2 MSTORE PUSH1 0x20 ADD DUP1 PUSH32 0x556E646572666C6F77204572726F720000000000000000000000000000000000 DUP2 MSTORE POP PUSH1 0x20 ADD SWAP2 POP POP PUSH1 0x40 MLOAD DUP1 SWAP2 SUB SWAP1 REVERT JUMPDEST DUP2 DUP4 SUB SWAP1 POP SWAP3 SWAP2 POP POP JUMP INVALID LOG2 PUSH5 0x6970667358 0x22 SLT KECCAK256 SDIV AND 0xBD 0xB0 0x4A PUSH28 0xB3C3DD709E987208092E321FC0246873C42BB4697D02639395E06473 PUSH16 0x6C634300070600330000000000000000 "
				},
				"gasEstimates": {
					"creation": {
						"codeDepositCost": "67600",
						"executionCost": "117",
						"totalCost": "67717"
					},
					"external": {
						"substraction(uint256,uint256)": "infinite"
					}
				},
				"methodIdentifiers": {
					"substraction(uint256,uint256)": "cdeb3314"
				}
			},
			"storageLayout": {
				"storage": [],
				"types": null
			},
			"userdoc": {
				"kind": "user",
				"methods": {},
				"version": 1
			}
		}
	}
}