{
	"Lecture Note/week06/enum.sol": {
		"Ex6_9": {
			"abi": [
				{
					"inputs": [],
					"stateMutability": "nonpayable",
					"type": "constructor"
				},
				{
					"anonymous": false,
					"inputs": [
						{
							"indexed": false,
							"internalType": "string",
							"name": "info",
							"type": "string"
						}
					],
					"name": "Information",
					"type": "event"
				},
				{
					"inputs": [],
					"name": "delivaryFood",
					"outputs": [],
					"stateMutability": "nonpayable",
					"type": "function"
				},
				{
					"inputs": [],
					"name": "foodStatus",
					"outputs": [
						{
							"internalType": "enum Ex6_9.FoodProcess",
							"name": "",
							"type": "uint8"
						}
					],
					"stateMutability": "view",
					"type": "function"
				},
				{
					"inputs": [],
					"name": "orderFoold",
					"outputs": [],
					"stateMutability": "nonpayable",
					"type": "function"
				},
				{
					"inputs": [],
					"name": "paymentFood",
					"outputs": [],
					"stateMutability": "nonpayable",
					"type": "function"
				},
				{
					"inputs": [],
					"name": "takeAwayFood",
					"outputs": [],
					"stateMutability": "nonpayable",
					"type": "function"
				}
			],
			"devdoc": {
				"kind": "dev",
				"methods": {},
				"version": 1
			},
			"evm": {
				"assembly": "    /* \"Lecture Note/week06/enum.sol\":57:1282  contract Ex6_9 {... */\n  mstore(0x40, 0x80)\n    /* \"Lecture Note/week06/enum.sol\":249:312  constructor() {... */\n  callvalue\n  dup1\n  iszero\n  tag_1\n  jumpi\n  0x00\n  dup1\n  revert\ntag_1:\n  pop\n    /* \"Lecture Note/week06/enum.sol\":286:305  FoodProcess.payment */\n  0x03\n    /* \"Lecture Note/week06/enum.sol\":273:283  foodStatus */\n  0x00\n  dup1\n    /* \"Lecture Note/week06/enum.sol\":273:305  foodStatus = FoodProcess.payment */\n  0x0100\n  exp\n  dup2\n  sload\n  dup2\n  0xff\n  mul\n  not\n  and\n  swap1\n  dup4\n  0x03\n  dup2\n  gt\n  iszero\n  tag_4\n  jumpi\n  tag_5\n  tag_6\n  jump\t// in\ntag_5:\ntag_4:\n  mul\n  or\n  swap1\n  sstore\n  pop\n    /* \"Lecture Note/week06/enum.sol\":57:1282  contract Ex6_9 {... */\n  jump(tag_7)\n    /* \"#utility.yul\":7:187   */\ntag_6:\n    /* \"#utility.yul\":55:132   */\n  0x4e487b7100000000000000000000000000000000000000000000000000000000\n    /* \"#utility.yul\":52:53   */\n  0x00\n    /* \"#utility.yul\":45:133   */\n  mstore\n    /* \"#utility.yul\":152:156   */\n  0x21\n    /* \"#utility.yul\":149:150   */\n  0x04\n    /* \"#utility.yul\":142:157   */\n  mstore\n    /* \"#utility.yul\":176:180   */\n  0x24\n    /* \"#utility.yul\":173:174   */\n  0x00\n    /* \"#utility.yul\":166:181   */\n  revert\n    /* \"Lecture Note/week06/enum.sol\":57:1282  contract Ex6_9 {... */\ntag_7:\n  dataSize(sub_0)\n  dup1\n  dataOffset(sub_0)\n  0x00\n  codecopy\n  0x00\n  return\nstop\n\nsub_0: assembly {\n        /* \"Lecture Note/week06/enum.sol\":57:1282  contract Ex6_9 {... */\n      mstore(0x40, 0x80)\n      callvalue\n      dup1\n      iszero\n      tag_1\n      jumpi\n      0x00\n      dup1\n      revert\n    tag_1:\n      pop\n      jumpi(tag_2, lt(calldatasize, 0x04))\n      shr(0xe0, calldataload(0x00))\n      dup1\n      0x7c01e13f\n      eq\n      tag_3\n      jumpi\n      dup1\n      0x7ede53d3\n      eq\n      tag_4\n      jumpi\n      dup1\n      0x94d15a9e\n      eq\n      tag_5\n      jumpi\n      dup1\n      0xc62efc2b\n      eq\n      tag_6\n      jumpi\n      dup1\n      0xd9c966fd\n      eq\n      tag_7\n      jumpi\n    tag_2:\n      0x00\n      dup1\n      revert\n        /* \"Lecture Note/week06/enum.sol\":800:1040  function delivaryFood() ... */\n    tag_3:\n      tag_8\n      tag_9\n      jump\t// in\n    tag_8:\n      stop\n        /* \"Lecture Note/week06/enum.sol\":318:548  function orderFoold()  ... */\n    tag_4:\n      tag_10\n      tag_11\n      jump\t// in\n    tag_10:\n      stop\n        /* \"Lecture Note/week06/enum.sol\":558:790  function takeAwayFood()... */\n    tag_5:\n      tag_12\n      tag_13\n      jump\t// in\n    tag_12:\n      stop\n        /* \"Lecture Note/week06/enum.sol\":1050:1280  function paymentFood() ... */\n    tag_6:\n      tag_14\n      tag_15\n      jump\t// in\n    tag_14:\n      stop\n        /* \"Lecture Note/week06/enum.sol\":213:242  FoodProcess public foodStatus */\n    tag_7:\n      tag_16\n      tag_17\n      jump\t// in\n    tag_16:\n      mload(0x40)\n      tag_18\n      swap2\n      swap1\n      tag_19\n      jump\t// in\n    tag_18:\n      mload(0x40)\n      dup1\n      swap2\n      sub\n      swap1\n      return\n        /* \"Lecture Note/week06/enum.sol\":800:1040  function delivaryFood() ... */\n    tag_9:\n        /* \"Lecture Note/week06/enum.sol\":876:896  FoodProcess.takeAway */\n      0x01\n        /* \"Lecture Note/week06/enum.sol\":862:896  foodStatus == FoodProcess.takeAway */\n      0x03\n      dup2\n      gt\n      iszero\n      tag_21\n      jumpi\n      tag_22\n      tag_23\n      jump\t// in\n    tag_22:\n    tag_21:\n        /* \"Lecture Note/week06/enum.sol\":862:872  foodStatus */\n      0x00\n      dup1\n      sload\n      swap1\n      0x0100\n      exp\n      swap1\n      div\n      0xff\n      and\n        /* \"Lecture Note/week06/enum.sol\":862:896  foodStatus == FoodProcess.takeAway */\n      0x03\n      dup2\n      gt\n      iszero\n      tag_24\n      jumpi\n      tag_25\n      tag_23\n      jump\t// in\n    tag_25:\n    tag_24:\n      eq\n        /* \"Lecture Note/week06/enum.sol\":854:931  require(foodStatus == FoodProcess.takeAway, \"It must be the takeAway status\") */\n      tag_26\n      jumpi\n      mload(0x40)\n      0x08c379a000000000000000000000000000000000000000000000000000000000\n      dup2\n      mstore\n      0x04\n      add\n      tag_27\n      swap1\n      tag_28\n      jump\t// in\n    tag_27:\n      mload(0x40)\n      dup1\n      swap2\n      sub\n      swap1\n      revert\n    tag_26:\n        /* \"Lecture Note/week06/enum.sol\":958:978  FoodProcess.delivery */\n      0x02\n        /* \"Lecture Note/week06/enum.sol\":945:955  foodStatus */\n      0x00\n      dup1\n        /* \"Lecture Note/week06/enum.sol\":945:978  foodStatus = FoodProcess.delivery */\n      0x0100\n      exp\n      dup2\n      sload\n      dup2\n      0xff\n      mul\n      not\n      and\n      swap1\n      dup4\n      0x03\n      dup2\n      gt\n      iszero\n      tag_29\n      jumpi\n      tag_30\n      tag_23\n      jump\t// in\n    tag_30:\n    tag_29:\n      mul\n      or\n      swap1\n      sstore\n      pop\n        /* \"Lecture Note/week06/enum.sol\":997:1029  Information (\"delivery success\") */\n      0xff8fea957fb7cb582ef297c1c74436fe7a9914efbc52adf197600dc9d171efbc\n      mload(0x40)\n      tag_31\n      swap1\n      tag_32\n      jump\t// in\n    tag_31:\n      mload(0x40)\n      dup1\n      swap2\n      sub\n      swap1\n      log1\n        /* \"Lecture Note/week06/enum.sol\":800:1040  function delivaryFood() ... */\n      jump\t// out\n        /* \"Lecture Note/week06/enum.sol\":318:548  function orderFoold()  ... */\n    tag_11:\n        /* \"Lecture Note/week06/enum.sol\":393:412  FoodProcess.payment */\n      0x03\n        /* \"Lecture Note/week06/enum.sol\":379:412  foodStatus == FoodProcess.payment */\n      dup1\n      dup2\n      gt\n      iszero\n      tag_34\n      jumpi\n      tag_35\n      tag_23\n      jump\t// in\n    tag_35:\n    tag_34:\n        /* \"Lecture Note/week06/enum.sol\":379:389  foodStatus */\n      0x00\n      dup1\n      sload\n      swap1\n      0x0100\n      exp\n      swap1\n      div\n      0xff\n      and\n        /* \"Lecture Note/week06/enum.sol\":379:412  foodStatus == FoodProcess.payment */\n      0x03\n      dup2\n      gt\n      iszero\n      tag_36\n      jumpi\n      tag_37\n      tag_23\n      jump\t// in\n    tag_37:\n    tag_36:\n      eq\n        /* \"Lecture Note/week06/enum.sol\":371:446  require(foodStatus == FoodProcess.payment, \"It must be the payment status\") */\n      tag_38\n      jumpi\n      mload(0x40)\n      0x08c379a000000000000000000000000000000000000000000000000000000000\n      dup2\n      mstore\n      0x04\n      add\n      tag_39\n      swap1\n      tag_40\n      jump\t// in\n    tag_39:\n      mload(0x40)\n      dup1\n      swap2\n      sub\n      swap1\n      revert\n    tag_38:\n        /* \"Lecture Note/week06/enum.sol\":473:490  FoodProcess.order */\n      0x00\n        /* \"Lecture Note/week06/enum.sol\":460:470  foodStatus */\n      dup1\n      0x00\n        /* \"Lecture Note/week06/enum.sol\":460:490  foodStatus = FoodProcess.order */\n      0x0100\n      exp\n      dup2\n      sload\n      dup2\n      0xff\n      mul\n      not\n      and\n      swap1\n      dup4\n      0x03\n      dup2\n      gt\n      iszero\n      tag_41\n      jumpi\n      tag_42\n      tag_23\n      jump\t// in\n    tag_42:\n    tag_41:\n      mul\n      or\n      swap1\n      sstore\n      pop\n        /* \"Lecture Note/week06/enum.sol\":509:537  Information(\"Order success\") */\n      0xff8fea957fb7cb582ef297c1c74436fe7a9914efbc52adf197600dc9d171efbc\n      mload(0x40)\n      tag_43\n      swap1\n      tag_44\n      jump\t// in\n    tag_43:\n      mload(0x40)\n      dup1\n      swap2\n      sub\n      swap1\n      log1\n        /* \"Lecture Note/week06/enum.sol\":318:548  function orderFoold()  ... */\n      jump\t// out\n        /* \"Lecture Note/week06/enum.sol\":558:790  function takeAwayFood()... */\n    tag_13:\n        /* \"Lecture Note/week06/enum.sol\":633:650  FoodProcess.order */\n      0x00\n        /* \"Lecture Note/week06/enum.sol\":619:650  foodStatus == FoodProcess.order */\n      0x03\n      dup2\n      gt\n      iszero\n      tag_46\n      jumpi\n      tag_47\n      tag_23\n      jump\t// in\n    tag_47:\n    tag_46:\n        /* \"Lecture Note/week06/enum.sol\":619:629  foodStatus */\n      0x00\n      dup1\n      sload\n      swap1\n      0x0100\n      exp\n      swap1\n      div\n      0xff\n      and\n        /* \"Lecture Note/week06/enum.sol\":619:650  foodStatus == FoodProcess.order */\n      0x03\n      dup2\n      gt\n      iszero\n      tag_48\n      jumpi\n      tag_49\n      tag_23\n      jump\t// in\n    tag_49:\n    tag_48:\n      eq\n        /* \"Lecture Note/week06/enum.sol\":611:682  require(foodStatus == FoodProcess.order, \"It must be the order status\") */\n      tag_50\n      jumpi\n      mload(0x40)\n      0x08c379a000000000000000000000000000000000000000000000000000000000\n      dup2\n      mstore\n      0x04\n      add\n      tag_51\n      swap1\n      tag_52\n      jump\t// in\n    tag_51:\n      mload(0x40)\n      dup1\n      swap2\n      sub\n      swap1\n      revert\n    tag_50:\n        /* \"Lecture Note/week06/enum.sol\":709:729  FoodProcess.takeAway */\n      0x01\n        /* \"Lecture Note/week06/enum.sol\":696:706  foodStatus */\n      0x00\n      dup1\n        /* \"Lecture Note/week06/enum.sol\":696:729  foodStatus = FoodProcess.takeAway */\n      0x0100\n      exp\n      dup2\n      sload\n      dup2\n      0xff\n      mul\n      not\n      and\n      swap1\n      dup4\n      0x03\n      dup2\n      gt\n      iszero\n      tag_53\n      jumpi\n      tag_54\n      tag_23\n      jump\t// in\n    tag_54:\n    tag_53:\n      mul\n      or\n      swap1\n      sstore\n      pop\n        /* \"Lecture Note/week06/enum.sol\":748:779  Information(\"takeAway Success\") */\n      0xff8fea957fb7cb582ef297c1c74436fe7a9914efbc52adf197600dc9d171efbc\n      mload(0x40)\n      tag_55\n      swap1\n      tag_56\n      jump\t// in\n    tag_55:\n      mload(0x40)\n      dup1\n      swap2\n      sub\n      swap1\n      log1\n        /* \"Lecture Note/week06/enum.sol\":558:790  function takeAwayFood()... */\n      jump\t// out\n        /* \"Lecture Note/week06/enum.sol\":1050:1280  function paymentFood() ... */\n    tag_15:\n        /* \"Lecture Note/week06/enum.sol\":1137:1138  2 */\n      0x02\n        /* \"Lecture Note/week06/enum.sol\":1125:1139  FoodProcess(2) */\n      0x03\n      dup2\n      gt\n      iszero\n      tag_58\n      jumpi\n      tag_59\n      tag_23\n      jump\t// in\n    tag_59:\n    tag_58:\n        /* \"Lecture Note/week06/enum.sol\":1111:1139  foodStatus == FoodProcess(2) */\n      0x03\n      dup2\n      gt\n      iszero\n      tag_60\n      jumpi\n      tag_61\n      tag_23\n      jump\t// in\n    tag_61:\n    tag_60:\n        /* \"Lecture Note/week06/enum.sol\":1111:1121  foodStatus */\n      0x00\n      dup1\n      sload\n      swap1\n      0x0100\n      exp\n      swap1\n      div\n      0xff\n      and\n        /* \"Lecture Note/week06/enum.sol\":1111:1139  foodStatus == FoodProcess(2) */\n      0x03\n      dup2\n      gt\n      iszero\n      tag_62\n      jumpi\n      tag_63\n      tag_23\n      jump\t// in\n    tag_63:\n    tag_62:\n      eq\n        /* \"Lecture Note/week06/enum.sol\":1103:1174  require(foodStatus == FoodProcess(2), \"It must be the delivery status\") */\n      tag_64\n      jumpi\n      mload(0x40)\n      0x08c379a000000000000000000000000000000000000000000000000000000000\n      dup2\n      mstore\n      0x04\n      add\n      tag_65\n      swap1\n      tag_66\n      jump\t// in\n    tag_65:\n      mload(0x40)\n      dup1\n      swap2\n      sub\n      swap1\n      revert\n    tag_64:\n        /* \"Lecture Note/week06/enum.sol\":1201:1220  FoodProcess.payment */\n      0x03\n        /* \"Lecture Note/week06/enum.sol\":1188:1198  foodStatus */\n      0x00\n      dup1\n        /* \"Lecture Note/week06/enum.sol\":1188:1220  foodStatus = FoodProcess.payment */\n      0x0100\n      exp\n      dup2\n      sload\n      dup2\n      0xff\n      mul\n      not\n      and\n      swap1\n      dup4\n      0x03\n      dup2\n      gt\n      iszero\n      tag_67\n      jumpi\n      tag_68\n      tag_23\n      jump\t// in\n    tag_68:\n    tag_67:\n      mul\n      or\n      swap1\n      sstore\n      pop\n        /* \"Lecture Note/week06/enum.sol\":1239:1269  Information(\"Payment success\") */\n      0xff8fea957fb7cb582ef297c1c74436fe7a9914efbc52adf197600dc9d171efbc\n      mload(0x40)\n      tag_69\n      swap1\n      tag_70\n      jump\t// in\n    tag_69:\n      mload(0x40)\n      dup1\n      swap2\n      sub\n      swap1\n      log1\n        /* \"Lecture Note/week06/enum.sol\":1050:1280  function paymentFood() ... */\n      jump\t// out\n        /* \"Lecture Note/week06/enum.sol\":213:242  FoodProcess public foodStatus */\n    tag_17:\n      0x00\n      dup1\n      sload\n      swap1\n      0x0100\n      exp\n      swap1\n      div\n      0xff\n      and\n      dup2\n      jump\t// out\n        /* \"#utility.yul\":7:187   */\n    tag_23:\n        /* \"#utility.yul\":55:132   */\n      0x4e487b7100000000000000000000000000000000000000000000000000000000\n        /* \"#utility.yul\":52:53   */\n      0x00\n        /* \"#utility.yul\":45:133   */\n      mstore\n        /* \"#utility.yul\":152:156   */\n      0x21\n        /* \"#utility.yul\":149:150   */\n      0x04\n        /* \"#utility.yul\":142:157   */\n      mstore\n        /* \"#utility.yul\":176:180   */\n      0x24\n        /* \"#utility.yul\":173:174   */\n      0x00\n        /* \"#utility.yul\":166:181   */\n      revert\n        /* \"#utility.yul\":193:312   */\n    tag_71:\n        /* \"#utility.yul\":280:281   */\n      0x04\n        /* \"#utility.yul\":273:278   */\n      dup2\n        /* \"#utility.yul\":270:282   */\n      lt\n        /* \"#utility.yul\":260:306   */\n      tag_95\n      jumpi\n        /* \"#utility.yul\":286:304   */\n      tag_96\n      tag_23\n      jump\t// in\n    tag_96:\n        /* \"#utility.yul\":260:306   */\n    tag_95:\n        /* \"#utility.yul\":193:312   */\n      pop\n      jump\t// out\n        /* \"#utility.yul\":318:457   */\n    tag_72:\n        /* \"#utility.yul\":369:376   */\n      0x00\n        /* \"#utility.yul\":398:403   */\n      dup2\n        /* \"#utility.yul\":387:403   */\n      swap1\n      pop\n        /* \"#utility.yul\":404:451   */\n      tag_98\n        /* \"#utility.yul\":445:450   */\n      dup3\n        /* \"#utility.yul\":404:451   */\n      tag_71\n      jump\t// in\n    tag_98:\n        /* \"#utility.yul\":318:457   */\n      swap2\n      swap1\n      pop\n      jump\t// out\n        /* \"#utility.yul\":463:602   */\n    tag_73:\n        /* \"#utility.yul\":525:534   */\n      0x00\n        /* \"#utility.yul\":558:596   */\n      tag_100\n        /* \"#utility.yul\":590:595   */\n      dup3\n        /* \"#utility.yul\":558:596   */\n      tag_72\n      jump\t// in\n    tag_100:\n        /* \"#utility.yul\":545:596   */\n      swap1\n      pop\n        /* \"#utility.yul\":463:602   */\n      swap2\n      swap1\n      pop\n      jump\t// out\n        /* \"#utility.yul\":608:763   */\n    tag_74:\n        /* \"#utility.yul\":707:756   */\n      tag_102\n        /* \"#utility.yul\":750:755   */\n      dup2\n        /* \"#utility.yul\":707:756   */\n      tag_73\n      jump\t// in\n    tag_102:\n        /* \"#utility.yul\":702:705   */\n      dup3\n        /* \"#utility.yul\":695:757   */\n      mstore\n        /* \"#utility.yul\":608:763   */\n      pop\n      pop\n      jump\t// out\n        /* \"#utility.yul\":769:1015   */\n    tag_19:\n        /* \"#utility.yul\":874:878   */\n      0x00\n        /* \"#utility.yul\":912:914   */\n      0x20\n        /* \"#utility.yul\":901:910   */\n      dup3\n        /* \"#utility.yul\":897:915   */\n      add\n        /* \"#utility.yul\":889:915   */\n      swap1\n      pop\n        /* \"#utility.yul\":925:1008   */\n      tag_104\n        /* \"#utility.yul\":1005:1006   */\n      0x00\n        /* \"#utility.yul\":994:1003   */\n      dup4\n        /* \"#utility.yul\":990:1007   */\n      add\n        /* \"#utility.yul\":981:987   */\n      dup5\n        /* \"#utility.yul\":925:1008   */\n      tag_74\n      jump\t// in\n    tag_104:\n        /* \"#utility.yul\":769:1015   */\n      swap3\n      swap2\n      pop\n      pop\n      jump\t// out\n        /* \"#utility.yul\":1021:1190   */\n    tag_75:\n        /* \"#utility.yul\":1105:1116   */\n      0x00\n        /* \"#utility.yul\":1139:1145   */\n      dup3\n        /* \"#utility.yul\":1134:1137   */\n      dup3\n        /* \"#utility.yul\":1127:1146   */\n      mstore\n        /* \"#utility.yul\":1179:1183   */\n      0x20\n        /* \"#utility.yul\":1174:1177   */\n      dup3\n        /* \"#utility.yul\":1170:1184   */\n      add\n        /* \"#utility.yul\":1155:1184   */\n      swap1\n      pop\n        /* \"#utility.yul\":1021:1190   */\n      swap3\n      swap2\n      pop\n      pop\n      jump\t// out\n        /* \"#utility.yul\":1196:1376   */\n    tag_76:\n        /* \"#utility.yul\":1336:1368   */\n      0x4974206d757374206265207468652074616b6541776179207374617475730000\n        /* \"#utility.yul\":1332:1333   */\n      0x00\n        /* \"#utility.yul\":1324:1330   */\n      dup3\n        /* \"#utility.yul\":1320:1334   */\n      add\n        /* \"#utility.yul\":1313:1369   */\n      mstore\n        /* \"#utility.yul\":1196:1376   */\n      pop\n      jump\t// out\n        /* \"#utility.yul\":1382:1748   */\n    tag_77:\n        /* \"#utility.yul\":1524:1527   */\n      0x00\n        /* \"#utility.yul\":1545:1612   */\n      tag_108\n        /* \"#utility.yul\":1609:1611   */\n      0x1e\n        /* \"#utility.yul\":1604:1607   */\n      dup4\n        /* \"#utility.yul\":1545:1612   */\n      tag_75\n      jump\t// in\n    tag_108:\n        /* \"#utility.yul\":1538:1612   */\n      swap2\n      pop\n        /* \"#utility.yul\":1621:1714   */\n      tag_109\n        /* \"#utility.yul\":1710:1713   */\n      dup3\n        /* \"#utility.yul\":1621:1714   */\n      tag_76\n      jump\t// in\n    tag_109:\n        /* \"#utility.yul\":1739:1741   */\n      0x20\n        /* \"#utility.yul\":1734:1737   */\n      dup3\n        /* \"#utility.yul\":1730:1742   */\n      add\n        /* \"#utility.yul\":1723:1742   */\n      swap1\n      pop\n        /* \"#utility.yul\":1382:1748   */\n      swap2\n      swap1\n      pop\n      jump\t// out\n        /* \"#utility.yul\":1754:2173   */\n    tag_28:\n        /* \"#utility.yul\":1920:1924   */\n      0x00\n        /* \"#utility.yul\":1958:1960   */\n      0x20\n        /* \"#utility.yul\":1947:1956   */\n      dup3\n        /* \"#utility.yul\":1943:1961   */\n      add\n        /* \"#utility.yul\":1935:1961   */\n      swap1\n      pop\n        /* \"#utility.yul\":2007:2016   */\n      dup2\n        /* \"#utility.yul\":2001:2005   */\n      dup2\n        /* \"#utility.yul\":1997:2017   */\n      sub\n        /* \"#utility.yul\":1993:1994   */\n      0x00\n        /* \"#utility.yul\":1982:1991   */\n      dup4\n        /* \"#utility.yul\":1978:1995   */\n      add\n        /* \"#utility.yul\":1971:2018   */\n      mstore\n        /* \"#utility.yul\":2035:2166   */\n      tag_111\n        /* \"#utility.yul\":2161:2165   */\n      dup2\n        /* \"#utility.yul\":2035:2166   */\n      tag_77\n      jump\t// in\n    tag_111:\n        /* \"#utility.yul\":2027:2166   */\n      swap1\n      pop\n        /* \"#utility.yul\":1754:2173   */\n      swap2\n      swap1\n      pop\n      jump\t// out\n        /* \"#utility.yul\":2179:2345   */\n    tag_78:\n        /* \"#utility.yul\":2319:2337   */\n      0x64656c6976657279207375636365737300000000000000000000000000000000\n        /* \"#utility.yul\":2315:2316   */\n      0x00\n        /* \"#utility.yul\":2307:2313   */\n      dup3\n        /* \"#utility.yul\":2303:2317   */\n      add\n        /* \"#utility.yul\":2296:2338   */\n      mstore\n        /* \"#utility.yul\":2179:2345   */\n      pop\n      jump\t// out\n        /* \"#utility.yul\":2351:2717   */\n    tag_79:\n        /* \"#utility.yul\":2493:2496   */\n      0x00\n        /* \"#utility.yul\":2514:2581   */\n      tag_114\n        /* \"#utility.yul\":2578:2580   */\n      0x10\n        /* \"#utility.yul\":2573:2576   */\n      dup4\n        /* \"#utility.yul\":2514:2581   */\n      tag_75\n      jump\t// in\n    tag_114:\n        /* \"#utility.yul\":2507:2581   */\n      swap2\n      pop\n        /* \"#utility.yul\":2590:2683   */\n      tag_115\n        /* \"#utility.yul\":2679:2682   */\n      dup3\n        /* \"#utility.yul\":2590:2683   */\n      tag_78\n      jump\t// in\n    tag_115:\n        /* \"#utility.yul\":2708:2710   */\n      0x20\n        /* \"#utility.yul\":2703:2706   */\n      dup3\n        /* \"#utility.yul\":2699:2711   */\n      add\n        /* \"#utility.yul\":2692:2711   */\n      swap1\n      pop\n        /* \"#utility.yul\":2351:2717   */\n      swap2\n      swap1\n      pop\n      jump\t// out\n        /* \"#utility.yul\":2723:3142   */\n    tag_32:\n        /* \"#utility.yul\":2889:2893   */\n      0x00\n        /* \"#utility.yul\":2927:2929   */\n      0x20\n        /* \"#utility.yul\":2916:2925   */\n      dup3\n        /* \"#utility.yul\":2912:2930   */\n      add\n        /* \"#utility.yul\":2904:2930   */\n      swap1\n      pop\n        /* \"#utility.yul\":2976:2985   */\n      dup2\n        /* \"#utility.yul\":2970:2974   */\n      dup2\n        /* \"#utility.yul\":2966:2986   */\n      sub\n        /* \"#utility.yul\":2962:2963   */\n      0x00\n        /* \"#utility.yul\":2951:2960   */\n      dup4\n        /* \"#utility.yul\":2947:2964   */\n      add\n        /* \"#utility.yul\":2940:2987   */\n      mstore\n        /* \"#utility.yul\":3004:3135   */\n      tag_117\n        /* \"#utility.yul\":3130:3134   */\n      dup2\n        /* \"#utility.yul\":3004:3135   */\n      tag_79\n      jump\t// in\n    tag_117:\n        /* \"#utility.yul\":2996:3135   */\n      swap1\n      pop\n        /* \"#utility.yul\":2723:3142   */\n      swap2\n      swap1\n      pop\n      jump\t// out\n        /* \"#utility.yul\":3148:3327   */\n    tag_80:\n        /* \"#utility.yul\":3288:3319   */\n      0x4974206d75737420626520746865207061796d656e7420737461747573000000\n        /* \"#utility.yul\":3284:3285   */\n      0x00\n        /* \"#utility.yul\":3276:3282   */\n      dup3\n        /* \"#utility.yul\":3272:3286   */\n      add\n        /* \"#utility.yul\":3265:3320   */\n      mstore\n        /* \"#utility.yul\":3148:3327   */\n      pop\n      jump\t// out\n        /* \"#utility.yul\":3333:3699   */\n    tag_81:\n        /* \"#utility.yul\":3475:3478   */\n      0x00\n        /* \"#utility.yul\":3496:3563   */\n      tag_120\n        /* \"#utility.yul\":3560:3562   */\n      0x1d\n        /* \"#utility.yul\":3555:3558   */\n      dup4\n        /* \"#utility.yul\":3496:3563   */\n      tag_75\n      jump\t// in\n    tag_120:\n        /* \"#utility.yul\":3489:3563   */\n      swap2\n      pop\n        /* \"#utility.yul\":3572:3665   */\n      tag_121\n        /* \"#utility.yul\":3661:3664   */\n      dup3\n        /* \"#utility.yul\":3572:3665   */\n      tag_80\n      jump\t// in\n    tag_121:\n        /* \"#utility.yul\":3690:3692   */\n      0x20\n        /* \"#utility.yul\":3685:3688   */\n      dup3\n        /* \"#utility.yul\":3681:3693   */\n      add\n        /* \"#utility.yul\":3674:3693   */\n      swap1\n      pop\n        /* \"#utility.yul\":3333:3699   */\n      swap2\n      swap1\n      pop\n      jump\t// out\n        /* \"#utility.yul\":3705:4124   */\n    tag_40:\n        /* \"#utility.yul\":3871:3875   */\n      0x00\n        /* \"#utility.yul\":3909:3911   */\n      0x20\n        /* \"#utility.yul\":3898:3907   */\n      dup3\n        /* \"#utility.yul\":3894:3912   */\n      add\n        /* \"#utility.yul\":3886:3912   */\n      swap1\n      pop\n        /* \"#utility.yul\":3958:3967   */\n      dup2\n        /* \"#utility.yul\":3952:3956   */\n      dup2\n        /* \"#utility.yul\":3948:3968   */\n      sub\n        /* \"#utility.yul\":3944:3945   */\n      0x00\n        /* \"#utility.yul\":3933:3942   */\n      dup4\n        /* \"#utility.yul\":3929:3946   */\n      add\n        /* \"#utility.yul\":3922:3969   */\n      mstore\n        /* \"#utility.yul\":3986:4117   */\n      tag_123\n        /* \"#utility.yul\":4112:4116   */\n      dup2\n        /* \"#utility.yul\":3986:4117   */\n      tag_81\n      jump\t// in\n    tag_123:\n        /* \"#utility.yul\":3978:4117   */\n      swap1\n      pop\n        /* \"#utility.yul\":3705:4124   */\n      swap2\n      swap1\n      pop\n      jump\t// out\n        /* \"#utility.yul\":4130:4293   */\n    tag_82:\n        /* \"#utility.yul\":4270:4285   */\n      0x4f72646572207375636365737300000000000000000000000000000000000000\n        /* \"#utility.yul\":4266:4267   */\n      0x00\n        /* \"#utility.yul\":4258:4264   */\n      dup3\n        /* \"#utility.yul\":4254:4268   */\n      add\n        /* \"#utility.yul\":4247:4286   */\n      mstore\n        /* \"#utility.yul\":4130:4293   */\n      pop\n      jump\t// out\n        /* \"#utility.yul\":4299:4665   */\n    tag_83:\n        /* \"#utility.yul\":4441:4444   */\n      0x00\n        /* \"#utility.yul\":4462:4529   */\n      tag_126\n        /* \"#utility.yul\":4526:4528   */\n      0x0d\n        /* \"#utility.yul\":4521:4524   */\n      dup4\n        /* \"#utility.yul\":4462:4529   */\n      tag_75\n      jump\t// in\n    tag_126:\n        /* \"#utility.yul\":4455:4529   */\n      swap2\n      pop\n        /* \"#utility.yul\":4538:4631   */\n      tag_127\n        /* \"#utility.yul\":4627:4630   */\n      dup3\n        /* \"#utility.yul\":4538:4631   */\n      tag_82\n      jump\t// in\n    tag_127:\n        /* \"#utility.yul\":4656:4658   */\n      0x20\n        /* \"#utility.yul\":4651:4654   */\n      dup3\n        /* \"#utility.yul\":4647:4659   */\n      add\n        /* \"#utility.yul\":4640:4659   */\n      swap1\n      pop\n        /* \"#utility.yul\":4299:4665   */\n      swap2\n      swap1\n      pop\n      jump\t// out\n        /* \"#utility.yul\":4671:5090   */\n    tag_44:\n        /* \"#utility.yul\":4837:4841   */\n      0x00\n        /* \"#utility.yul\":4875:4877   */\n      0x20\n        /* \"#utility.yul\":4864:4873   */\n      dup3\n        /* \"#utility.yul\":4860:4878   */\n      add\n        /* \"#utility.yul\":4852:4878   */\n      swap1\n      pop\n        /* \"#utility.yul\":4924:4933   */\n      dup2\n        /* \"#utility.yul\":4918:4922   */\n      dup2\n        /* \"#utility.yul\":4914:4934   */\n      sub\n        /* \"#utility.yul\":4910:4911   */\n      0x00\n        /* \"#utility.yul\":4899:4908   */\n      dup4\n        /* \"#utility.yul\":4895:4912   */\n      add\n        /* \"#utility.yul\":4888:4935   */\n      mstore\n        /* \"#utility.yul\":4952:5083   */\n      tag_129\n        /* \"#utility.yul\":5078:5082   */\n      dup2\n        /* \"#utility.yul\":4952:5083   */\n      tag_83\n      jump\t// in\n    tag_129:\n        /* \"#utility.yul\":4944:5083   */\n      swap1\n      pop\n        /* \"#utility.yul\":4671:5090   */\n      swap2\n      swap1\n      pop\n      jump\t// out\n        /* \"#utility.yul\":5096:5273   */\n    tag_84:\n        /* \"#utility.yul\":5236:5265   */\n      0x4974206d75737420626520746865206f72646572207374617475730000000000\n        /* \"#utility.yul\":5232:5233   */\n      0x00\n        /* \"#utility.yul\":5224:5230   */\n      dup3\n        /* \"#utility.yul\":5220:5234   */\n      add\n        /* \"#utility.yul\":5213:5266   */\n      mstore\n        /* \"#utility.yul\":5096:5273   */\n      pop\n      jump\t// out\n        /* \"#utility.yul\":5279:5645   */\n    tag_85:\n        /* \"#utility.yul\":5421:5424   */\n      0x00\n        /* \"#utility.yul\":5442:5509   */\n      tag_132\n        /* \"#utility.yul\":5506:5508   */\n      0x1b\n        /* \"#utility.yul\":5501:5504   */\n      dup4\n        /* \"#utility.yul\":5442:5509   */\n      tag_75\n      jump\t// in\n    tag_132:\n        /* \"#utility.yul\":5435:5509   */\n      swap2\n      pop\n        /* \"#utility.yul\":5518:5611   */\n      tag_133\n        /* \"#utility.yul\":5607:5610   */\n      dup3\n        /* \"#utility.yul\":5518:5611   */\n      tag_84\n      jump\t// in\n    tag_133:\n        /* \"#utility.yul\":5636:5638   */\n      0x20\n        /* \"#utility.yul\":5631:5634   */\n      dup3\n        /* \"#utility.yul\":5627:5639   */\n      add\n        /* \"#utility.yul\":5620:5639   */\n      swap1\n      pop\n        /* \"#utility.yul\":5279:5645   */\n      swap2\n      swap1\n      pop\n      jump\t// out\n        /* \"#utility.yul\":5651:6070   */\n    tag_52:\n        /* \"#utility.yul\":5817:5821   */\n      0x00\n        /* \"#utility.yul\":5855:5857   */\n      0x20\n        /* \"#utility.yul\":5844:5853   */\n      dup3\n        /* \"#utility.yul\":5840:5858   */\n      add\n        /* \"#utility.yul\":5832:5858   */\n      swap1\n      pop\n        /* \"#utility.yul\":5904:5913   */\n      dup2\n        /* \"#utility.yul\":5898:5902   */\n      dup2\n        /* \"#utility.yul\":5894:5914   */\n      sub\n        /* \"#utility.yul\":5890:5891   */\n      0x00\n        /* \"#utility.yul\":5879:5888   */\n      dup4\n        /* \"#utility.yul\":5875:5892   */\n      add\n        /* \"#utility.yul\":5868:5915   */\n      mstore\n        /* \"#utility.yul\":5932:6063   */\n      tag_135\n        /* \"#utility.yul\":6058:6062   */\n      dup2\n        /* \"#utility.yul\":5932:6063   */\n      tag_85\n      jump\t// in\n    tag_135:\n        /* \"#utility.yul\":5924:6063   */\n      swap1\n      pop\n        /* \"#utility.yul\":5651:6070   */\n      swap2\n      swap1\n      pop\n      jump\t// out\n        /* \"#utility.yul\":6076:6242   */\n    tag_86:\n        /* \"#utility.yul\":6216:6234   */\n      0x74616b6541776179205375636365737300000000000000000000000000000000\n        /* \"#utility.yul\":6212:6213   */\n      0x00\n        /* \"#utility.yul\":6204:6210   */\n      dup3\n        /* \"#utility.yul\":6200:6214   */\n      add\n        /* \"#utility.yul\":6193:6235   */\n      mstore\n        /* \"#utility.yul\":6076:6242   */\n      pop\n      jump\t// out\n        /* \"#utility.yul\":6248:6614   */\n    tag_87:\n        /* \"#utility.yul\":6390:6393   */\n      0x00\n        /* \"#utility.yul\":6411:6478   */\n      tag_138\n        /* \"#utility.yul\":6475:6477   */\n      0x10\n        /* \"#utility.yul\":6470:6473   */\n      dup4\n        /* \"#utility.yul\":6411:6478   */\n      tag_75\n      jump\t// in\n    tag_138:\n        /* \"#utility.yul\":6404:6478   */\n      swap2\n      pop\n        /* \"#utility.yul\":6487:6580   */\n      tag_139\n        /* \"#utility.yul\":6576:6579   */\n      dup3\n        /* \"#utility.yul\":6487:6580   */\n      tag_86\n      jump\t// in\n    tag_139:\n        /* \"#utility.yul\":6605:6607   */\n      0x20\n        /* \"#utility.yul\":6600:6603   */\n      dup3\n        /* \"#utility.yul\":6596:6608   */\n      add\n        /* \"#utility.yul\":6589:6608   */\n      swap1\n      pop\n        /* \"#utility.yul\":6248:6614   */\n      swap2\n      swap1\n      pop\n      jump\t// out\n        /* \"#utility.yul\":6620:7039   */\n    tag_56:\n        /* \"#utility.yul\":6786:6790   */\n      0x00\n        /* \"#utility.yul\":6824:6826   */\n      0x20\n        /* \"#utility.yul\":6813:6822   */\n      dup3\n        /* \"#utility.yul\":6809:6827   */\n      add\n        /* \"#utility.yul\":6801:6827   */\n      swap1\n      pop\n        /* \"#utility.yul\":6873:6882   */\n      dup2\n        /* \"#utility.yul\":6867:6871   */\n      dup2\n        /* \"#utility.yul\":6863:6883   */\n      sub\n        /* \"#utility.yul\":6859:6860   */\n      0x00\n        /* \"#utility.yul\":6848:6857   */\n      dup4\n        /* \"#utility.yul\":6844:6861   */\n      add\n        /* \"#utility.yul\":6837:6884   */\n      mstore\n        /* \"#utility.yul\":6901:7032   */\n      tag_141\n        /* \"#utility.yul\":7027:7031   */\n      dup2\n        /* \"#utility.yul\":6901:7032   */\n      tag_87\n      jump\t// in\n    tag_141:\n        /* \"#utility.yul\":6893:7032   */\n      swap1\n      pop\n        /* \"#utility.yul\":6620:7039   */\n      swap2\n      swap1\n      pop\n      jump\t// out\n        /* \"#utility.yul\":7045:7225   */\n    tag_88:\n        /* \"#utility.yul\":7185:7217   */\n      0x4974206d757374206265207468652064656c6976657279207374617475730000\n        /* \"#utility.yul\":7181:7182   */\n      0x00\n        /* \"#utility.yul\":7173:7179   */\n      dup3\n        /* \"#utility.yul\":7169:7183   */\n      add\n        /* \"#utility.yul\":7162:7218   */\n      mstore\n        /* \"#utility.yul\":7045:7225   */\n      pop\n      jump\t// out\n        /* \"#utility.yul\":7231:7597   */\n    tag_89:\n        /* \"#utility.yul\":7373:7376   */\n      0x00\n        /* \"#utility.yul\":7394:7461   */\n      tag_144\n        /* \"#utility.yul\":7458:7460   */\n      0x1e\n        /* \"#utility.yul\":7453:7456   */\n      dup4\n        /* \"#utility.yul\":7394:7461   */\n      tag_75\n      jump\t// in\n    tag_144:\n        /* \"#utility.yul\":7387:7461   */\n      swap2\n      pop\n        /* \"#utility.yul\":7470:7563   */\n      tag_145\n        /* \"#utility.yul\":7559:7562   */\n      dup3\n        /* \"#utility.yul\":7470:7563   */\n      tag_88\n      jump\t// in\n    tag_145:\n        /* \"#utility.yul\":7588:7590   */\n      0x20\n        /* \"#utility.yul\":7583:7586   */\n      dup3\n        /* \"#utility.yul\":7579:7591   */\n      add\n        /* \"#utility.yul\":7572:7591   */\n      swap1\n      pop\n        /* \"#utility.yul\":7231:7597   */\n      swap2\n      swap1\n      pop\n      jump\t// out\n        /* \"#utility.yul\":7603:8022   */\n    tag_66:\n        /* \"#utility.yul\":7769:7773   */\n      0x00\n        /* \"#utility.yul\":7807:7809   */\n      0x20\n        /* \"#utility.yul\":7796:7805   */\n      dup3\n        /* \"#utility.yul\":7792:7810   */\n      add\n        /* \"#utility.yul\":7784:7810   */\n      swap1\n      pop\n        /* \"#utility.yul\":7856:7865   */\n      dup2\n        /* \"#utility.yul\":7850:7854   */\n      dup2\n        /* \"#utility.yul\":7846:7866   */\n      sub\n        /* \"#utility.yul\":7842:7843   */\n      0x00\n        /* \"#utility.yul\":7831:7840   */\n      dup4\n        /* \"#utility.yul\":7827:7844   */\n      add\n        /* \"#utility.yul\":7820:7867   */\n      mstore\n        /* \"#utility.yul\":7884:8015   */\n      tag_147\n        /* \"#utility.yul\":8010:8014   */\n      dup2\n        /* \"#utility.yul\":7884:8015   */\n      tag_89\n      jump\t// in\n    tag_147:\n        /* \"#utility.yul\":7876:8015   */\n      swap1\n      pop\n        /* \"#utility.yul\":7603:8022   */\n      swap2\n      swap1\n      pop\n      jump\t// out\n        /* \"#utility.yul\":8028:8193   */\n    tag_90:\n        /* \"#utility.yul\":8168:8185   */\n      0x5061796d656e7420737563636573730000000000000000000000000000000000\n        /* \"#utility.yul\":8164:8165   */\n      0x00\n        /* \"#utility.yul\":8156:8162   */\n      dup3\n        /* \"#utility.yul\":8152:8166   */\n      add\n        /* \"#utility.yul\":8145:8186   */\n      mstore\n        /* \"#utility.yul\":8028:8193   */\n      pop\n      jump\t// out\n        /* \"#utility.yul\":8199:8565   */\n    tag_91:\n        /* \"#utility.yul\":8341:8344   */\n      0x00\n        /* \"#utility.yul\":8362:8429   */\n      tag_150\n        /* \"#utility.yul\":8426:8428   */\n      0x0f\n        /* \"#utility.yul\":8421:8424   */\n      dup4\n        /* \"#utility.yul\":8362:8429   */\n      tag_75\n      jump\t// in\n    tag_150:\n        /* \"#utility.yul\":8355:8429   */\n      swap2\n      pop\n        /* \"#utility.yul\":8438:8531   */\n      tag_151\n        /* \"#utility.yul\":8527:8530   */\n      dup3\n        /* \"#utility.yul\":8438:8531   */\n      tag_90\n      jump\t// in\n    tag_151:\n        /* \"#utility.yul\":8556:8558   */\n      0x20\n        /* \"#utility.yul\":8551:8554   */\n      dup3\n        /* \"#utility.yul\":8547:8559   */\n      add\n        /* \"#utility.yul\":8540:8559   */\n      swap1\n      pop\n        /* \"#utility.yul\":8199:8565   */\n      swap2\n      swap1\n      pop\n      jump\t// out\n        /* \"#utility.yul\":8571:8990   */\n    tag_70:\n        /* \"#utility.yul\":8737:8741   */\n      0x00\n        /* \"#utility.yul\":8775:8777   */\n      0x20\n        /* \"#utility.yul\":8764:8773   */\n      dup3\n        /* \"#utility.yul\":8760:8778   */\n      add\n        /* \"#utility.yul\":8752:8778   */\n      swap1\n      pop\n        /* \"#utility.yul\":8824:8833   */\n      dup2\n        /* \"#utility.yul\":8818:8822   */\n      dup2\n        /* \"#utility.yul\":8814:8834   */\n      sub\n        /* \"#utility.yul\":8810:8811   */\n      0x00\n        /* \"#utility.yul\":8799:8808   */\n      dup4\n        /* \"#utility.yul\":8795:8812   */\n      add\n        /* \"#utility.yul\":8788:8835   */\n      mstore\n        /* \"#utility.yul\":8852:8983   */\n      tag_153\n        /* \"#utility.yul\":8978:8982   */\n      dup2\n        /* \"#utility.yul\":8852:8983   */\n      tag_91\n      jump\t// in\n    tag_153:\n        /* \"#utility.yul\":8844:8983   */\n      swap1\n      pop\n        /* \"#utility.yul\":8571:8990   */\n      swap2\n      swap1\n      pop\n      jump\t// out\n\n    auxdata: 0xa26469706673582212204e62320c372dd1e94418fcce05b69f4b9e9cd64bcfff4f19963872b74a93328d64736f6c63430008120033\n}\n",
				"bytecode": {
					"linkReferences": {},
					"object": "608060405234801561001057600080fd5b5060036000806101000a81548160ff0219169083600381111561003657610035610040565b5b021790555061006f565b7f4e487b7100000000000000000000000000000000000000000000000000000000600052602160045260246000fd5b6108518061007e6000396000f3fe608060405234801561001057600080fd5b50600436106100575760003560e01c80637c01e13f1461005c5780637ede53d31461006657806394d15a9e14610070578063c62efc2b1461007a578063d9c966fd14610084575b600080fd5b6100646100a2565b005b61006e610177565b005b61007861024b565b005b610082610320565b005b61008c610407565b604051610099919061048f565b60405180910390f35b600160038111156100b6576100b5610418565b5b60008054906101000a900460ff1660038111156100d6576100d5610418565b5b14610116576040517f08c379a000000000000000000000000000000000000000000000000000000000815260040161010d90610507565b60405180910390fd5b60026000806101000a81548160ff0219169083600381111561013b5761013a610418565b5b02179055507fff8fea957fb7cb582ef297c1c74436fe7a9914efbc52adf197600dc9d171efbc60405161016d90610573565b60405180910390a1565b60038081111561018a57610189610418565b5b60008054906101000a900460ff1660038111156101aa576101a9610418565b5b146101ea576040517f08c379a00000000000000000000000000000000000000000000000000000000081526004016101e1906105df565b60405180910390fd5b60008060006101000a81548160ff0219169083600381111561020f5761020e610418565b5b02179055507fff8fea957fb7cb582ef297c1c74436fe7a9914efbc52adf197600dc9d171efbc6040516102419061064b565b60405180910390a1565b6000600381111561025f5761025e610418565b5b60008054906101000a900460ff16600381111561027f5761027e610418565b5b146102bf576040517f08c379a00000000000000000000000000000000000000000000000000000000081526004016102b6906106b7565b60405180910390fd5b60016000806101000a81548160ff021916908360038111156102e4576102e3610418565b5b02179055507fff8fea957fb7cb582ef297c1c74436fe7a9914efbc52adf197600dc9d171efbc60405161031690610723565b60405180910390a1565b6002600381111561033457610333610418565b5b600381111561034657610345610418565b5b60008054906101000a900460ff16600381111561036657610365610418565b5b146103a6576040517f08c379a000000000000000000000000000000000000000000000000000000000815260040161039d9061078f565b60405180910390fd5b60036000806101000a81548160ff021916908360038111156103cb576103ca610418565b5b02179055507fff8fea957fb7cb582ef297c1c74436fe7a9914efbc52adf197600dc9d171efbc6040516103fd906107fb565b60405180910390a1565b60008054906101000a900460ff1681565b7f4e487b7100000000000000000000000000000000000000000000000000000000600052602160045260246000fd5b6004811061045857610457610418565b5b50565b600081905061046982610447565b919050565b60006104798261045b565b9050919050565b6104898161046e565b82525050565b60006020820190506104a46000830184610480565b92915050565b600082825260208201905092915050565b7f4974206d757374206265207468652074616b6541776179207374617475730000600082015250565b60006104f1601e836104aa565b91506104fc826104bb565b602082019050919050565b60006020820190508181036000830152610520816104e4565b9050919050565b7f64656c6976657279207375636365737300000000000000000000000000000000600082015250565b600061055d6010836104aa565b915061056882610527565b602082019050919050565b6000602082019050818103600083015261058c81610550565b9050919050565b7f4974206d75737420626520746865207061796d656e7420737461747573000000600082015250565b60006105c9601d836104aa565b91506105d482610593565b602082019050919050565b600060208201905081810360008301526105f8816105bc565b9050919050565b7f4f72646572207375636365737300000000000000000000000000000000000000600082015250565b6000610635600d836104aa565b9150610640826105ff565b602082019050919050565b6000602082019050818103600083015261066481610628565b9050919050565b7f4974206d75737420626520746865206f72646572207374617475730000000000600082015250565b60006106a1601b836104aa565b91506106ac8261066b565b602082019050919050565b600060208201905081810360008301526106d081610694565b9050919050565b7f74616b6541776179205375636365737300000000000000000000000000000000600082015250565b600061070d6010836104aa565b9150610718826106d7565b602082019050919050565b6000602082019050818103600083015261073c81610700565b9050919050565b7f4974206d757374206265207468652064656c6976657279207374617475730000600082015250565b6000610779601e836104aa565b915061078482610743565b602082019050919050565b600060208201905081810360008301526107a88161076c565b9050919050565b7f5061796d656e7420737563636573730000000000000000000000000000000000600082015250565b60006107e5600f836104aa565b91506107f0826107af565b602082019050919050565b60006020820190508181036000830152610814816107d8565b905091905056fea26469706673582212204e62320c372dd1e94418fcce05b69f4b9e9cd64bcfff4f19963872b74a93328d64736f6c63430008120033",
					"opcodes": "PUSH1 0x80 PUSH1 0x40 MSTORE CALLVALUE DUP1 ISZERO PUSH2 0x10 JUMPI PUSH1 0x0 DUP1 REVERT JUMPDEST POP PUSH1 0x3 PUSH1 0x0 DUP1 PUSH2 0x100 EXP DUP2 SLOAD DUP2 PUSH1 0xFF MUL NOT AND SWAP1 DUP4 PUSH1 0x3 DUP2 GT ISZERO PUSH2 0x36 JUMPI PUSH2 0x35 PUSH2 0x40 JUMP JUMPDEST JUMPDEST MUL OR SWAP1 SSTORE POP PUSH2 0x6F JUMP JUMPDEST PUSH32 0x4E487B7100000000000000000000000000000000000000000000000000000000 PUSH1 0x0 MSTORE PUSH1 0x21 PUSH1 0x4 MSTORE PUSH1 0x24 PUSH1 0x0 REVERT JUMPDEST PUSH2 0x851 DUP1 PUSH2 0x7E PUSH1 0x0 CODECOPY PUSH1 0x0 RETURN INVALID PUSH1 0x80 PUSH1 0x40 MSTORE CALLVALUE DUP1 ISZERO PUSH2 0x10 JUMPI PUSH1 0x0 DUP1 REVERT JUMPDEST POP PUSH1 0x4 CALLDATASIZE LT PUSH2 0x57 JUMPI PUSH1 0x0 CALLDATALOAD PUSH1 0xE0 SHR DUP1 PUSH4 0x7C01E13F EQ PUSH2 0x5C JUMPI DUP1 PUSH4 0x7EDE53D3 EQ PUSH2 0x66 JUMPI DUP1 PUSH4 0x94D15A9E EQ PUSH2 0x70 JUMPI DUP1 PUSH4 0xC62EFC2B EQ PUSH2 0x7A JUMPI DUP1 PUSH4 0xD9C966FD EQ PUSH2 0x84 JUMPI JUMPDEST PUSH1 0x0 DUP1 REVERT JUMPDEST PUSH2 0x64 PUSH2 0xA2 JUMP JUMPDEST STOP JUMPDEST PUSH2 0x6E PUSH2 0x177 JUMP JUMPDEST STOP JUMPDEST PUSH2 0x78 PUSH2 0x24B JUMP JUMPDEST STOP JUMPDEST PUSH2 0x82 PUSH2 0x320 JUMP JUMPDEST STOP JUMPDEST PUSH2 0x8C PUSH2 0x407 JUMP JUMPDEST PUSH1 0x40 MLOAD PUSH2 0x99 SWAP2 SWAP1 PUSH2 0x48F JUMP JUMPDEST PUSH1 0x40 MLOAD DUP1 SWAP2 SUB SWAP1 RETURN JUMPDEST PUSH1 0x1 PUSH1 0x3 DUP2 GT ISZERO PUSH2 0xB6 JUMPI PUSH2 0xB5 PUSH2 0x418 JUMP JUMPDEST JUMPDEST PUSH1 0x0 DUP1 SLOAD SWAP1 PUSH2 0x100 EXP SWAP1 DIV PUSH1 0xFF AND PUSH1 0x3 DUP2 GT ISZERO PUSH2 0xD6 JUMPI PUSH2 0xD5 PUSH2 0x418 JUMP JUMPDEST JUMPDEST EQ PUSH2 0x116 JUMPI PUSH1 0x40 MLOAD PUSH32 0x8C379A000000000000000000000000000000000000000000000000000000000 DUP2 MSTORE PUSH1 0x4 ADD PUSH2 0x10D SWAP1 PUSH2 0x507 JUMP JUMPDEST PUSH1 0x40 MLOAD DUP1 SWAP2 SUB SWAP1 REVERT JUMPDEST PUSH1 0x2 PUSH1 0x0 DUP1 PUSH2 0x100 EXP DUP2 SLOAD DUP2 PUSH1 0xFF MUL NOT AND SWAP1 DUP4 PUSH1 0x3 DUP2 GT ISZERO PUSH2 0x13B JUMPI PUSH2 0x13A PUSH2 0x418 JUMP JUMPDEST JUMPDEST MUL OR SWAP1 SSTORE POP PUSH32 0xFF8FEA957FB7CB582EF297C1C74436FE7A9914EFBC52ADF197600DC9D171EFBC PUSH1 0x40 MLOAD PUSH2 0x16D SWAP1 PUSH2 0x573 JUMP JUMPDEST PUSH1 0x40 MLOAD DUP1 SWAP2 SUB SWAP1 LOG1 JUMP JUMPDEST PUSH1 0x3 DUP1 DUP2 GT ISZERO PUSH2 0x18A JUMPI PUSH2 0x189 PUSH2 0x418 JUMP JUMPDEST JUMPDEST PUSH1 0x0 DUP1 SLOAD SWAP1 PUSH2 0x100 EXP SWAP1 DIV PUSH1 0xFF AND PUSH1 0x3 DUP2 GT ISZERO PUSH2 0x1AA JUMPI PUSH2 0x1A9 PUSH2 0x418 JUMP JUMPDEST JUMPDEST EQ PUSH2 0x1EA JUMPI PUSH1 0x40 MLOAD PUSH32 0x8C379A000000000000000000000000000000000000000000000000000000000 DUP2 MSTORE PUSH1 0x4 ADD PUSH2 0x1E1 SWAP1 PUSH2 0x5DF JUMP JUMPDEST PUSH1 0x40 MLOAD DUP1 SWAP2 SUB SWAP1 REVERT JUMPDEST PUSH1 0x0 DUP1 PUSH1 0x0 PUSH2 0x100 EXP DUP2 SLOAD DUP2 PUSH1 0xFF MUL NOT AND SWAP1 DUP4 PUSH1 0x3 DUP2 GT ISZERO PUSH2 0x20F JUMPI PUSH2 0x20E PUSH2 0x418 JUMP JUMPDEST JUMPDEST MUL OR SWAP1 SSTORE POP PUSH32 0xFF8FEA957FB7CB582EF297C1C74436FE7A9914EFBC52ADF197600DC9D171EFBC PUSH1 0x40 MLOAD PUSH2 0x241 SWAP1 PUSH2 0x64B JUMP JUMPDEST PUSH1 0x40 MLOAD DUP1 SWAP2 SUB SWAP1 LOG1 JUMP JUMPDEST PUSH1 0x0 PUSH1 0x3 DUP2 GT ISZERO PUSH2 0x25F JUMPI PUSH2 0x25E PUSH2 0x418 JUMP JUMPDEST JUMPDEST PUSH1 0x0 DUP1 SLOAD SWAP1 PUSH2 0x100 EXP SWAP1 DIV PUSH1 0xFF AND PUSH1 0x3 DUP2 GT ISZERO PUSH2 0x27F JUMPI PUSH2 0x27E PUSH2 0x418 JUMP JUMPDEST JUMPDEST EQ PUSH2 0x2BF JUMPI PUSH1 0x40 MLOAD PUSH32 0x8C379A000000000000000000000000000000000000000000000000000000000 DUP2 MSTORE PUSH1 0x4 ADD PUSH2 0x2B6 SWAP1 PUSH2 0x6B7 JUMP JUMPDEST PUSH1 0x40 MLOAD DUP1 SWAP2 SUB SWAP1 REVERT JUMPDEST PUSH1 0x1 PUSH1 0x0 DUP1 PUSH2 0x100 EXP DUP2 SLOAD DUP2 PUSH1 0xFF MUL NOT AND SWAP1 DUP4 PUSH1 0x3 DUP2 GT ISZERO PUSH2 0x2E4 JUMPI PUSH2 0x2E3 PUSH2 0x418 JUMP JUMPDEST JUMPDEST MUL OR SWAP1 SSTORE POP PUSH32 0xFF8FEA957FB7CB582EF297C1C74436FE7A9914EFBC52ADF197600DC9D171EFBC PUSH1 0x40 MLOAD PUSH2 0x316 SWAP1 PUSH2 0x723 JUMP JUMPDEST PUSH1 0x40 MLOAD DUP1 SWAP2 SUB SWAP1 LOG1 JUMP JUMPDEST PUSH1 0x2 PUSH1 0x3 DUP2 GT ISZERO PUSH2 0x334 JUMPI PUSH2 0x333 PUSH2 0x418 JUMP JUMPDEST JUMPDEST PUSH1 0x3 DUP2 GT ISZERO PUSH2 0x346 JUMPI PUSH2 0x345 PUSH2 0x418 JUMP JUMPDEST JUMPDEST PUSH1 0x0 DUP1 SLOAD SWAP1 PUSH2 0x100 EXP SWAP1 DIV PUSH1 0xFF AND PUSH1 0x3 DUP2 GT ISZERO PUSH2 0x366 JUMPI PUSH2 0x365 PUSH2 0x418 JUMP JUMPDEST JUMPDEST EQ PUSH2 0x3A6 JUMPI PUSH1 0x40 MLOAD PUSH32 0x8C379A000000000000000000000000000000000000000000000000000000000 DUP2 MSTORE PUSH1 0x4 ADD PUSH2 0x39D SWAP1 PUSH2 0x78F JUMP JUMPDEST PUSH1 0x40 MLOAD DUP1 SWAP2 SUB SWAP1 REVERT JUMPDEST PUSH1 0x3 PUSH1 0x0 DUP1 PUSH2 0x100 EXP DUP2 SLOAD DUP2 PUSH1 0xFF MUL NOT AND SWAP1 DUP4 PUSH1 0x3 DUP2 GT ISZERO PUSH2 0x3CB JUMPI PUSH2 0x3CA PUSH2 0x418 JUMP JUMPDEST JUMPDEST MUL OR SWAP1 SSTORE POP PUSH32 0xFF8FEA957FB7CB582EF297C1C74436FE7A9914EFBC52ADF197600DC9D171EFBC PUSH1 0x40 MLOAD PUSH2 0x3FD SWAP1 PUSH2 0x7FB JUMP JUMPDEST PUSH1 0x40 MLOAD DUP1 SWAP2 SUB SWAP1 LOG1 JUMP JUMPDEST PUSH1 0x0 DUP1 SLOAD SWAP1 PUSH2 0x100 EXP SWAP1 DIV PUSH1 0xFF AND DUP2 JUMP JUMPDEST PUSH32 0x4E487B7100000000000000000000000000000000000000000000000000000000 PUSH1 0x0 MSTORE PUSH1 0x21 PUSH1 0x4 MSTORE PUSH1 0x24 PUSH1 0x0 REVERT JUMPDEST PUSH1 0x4 DUP2 LT PUSH2 0x458 JUMPI PUSH2 0x457 PUSH2 0x418 JUMP JUMPDEST JUMPDEST POP JUMP JUMPDEST PUSH1 0x0 DUP2 SWAP1 POP PUSH2 0x469 DUP3 PUSH2 0x447 JUMP JUMPDEST SWAP2 SWAP1 POP JUMP JUMPDEST PUSH1 0x0 PUSH2 0x479 DUP3 PUSH2 0x45B JUMP JUMPDEST SWAP1 POP SWAP2 SWAP1 POP JUMP JUMPDEST PUSH2 0x489 DUP2 PUSH2 0x46E JUMP JUMPDEST DUP3 MSTORE POP POP JUMP JUMPDEST PUSH1 0x0 PUSH1 0x20 DUP3 ADD SWAP1 POP PUSH2 0x4A4 PUSH1 0x0 DUP4 ADD DUP5 PUSH2 0x480 JUMP JUMPDEST SWAP3 SWAP2 POP POP JUMP JUMPDEST PUSH1 0x0 DUP3 DUP3 MSTORE PUSH1 0x20 DUP3 ADD SWAP1 POP SWAP3 SWAP2 POP POP JUMP JUMPDEST PUSH32 0x4974206D757374206265207468652074616B6541776179207374617475730000 PUSH1 0x0 DUP3 ADD MSTORE POP JUMP JUMPDEST PUSH1 0x0 PUSH2 0x4F1 PUSH1 0x1E DUP4 PUSH2 0x4AA JUMP JUMPDEST SWAP2 POP PUSH2 0x4FC DUP3 PUSH2 0x4BB JUMP JUMPDEST PUSH1 0x20 DUP3 ADD SWAP1 POP SWAP2 SWAP1 POP JUMP JUMPDEST PUSH1 0x0 PUSH1 0x20 DUP3 ADD SWAP1 POP DUP2 DUP2 SUB PUSH1 0x0 DUP4 ADD MSTORE PUSH2 0x520 DUP2 PUSH2 0x4E4 JUMP JUMPDEST SWAP1 POP SWAP2 SWAP1 POP JUMP JUMPDEST PUSH32 0x64656C6976657279207375636365737300000000000000000000000000000000 PUSH1 0x0 DUP3 ADD MSTORE POP JUMP JUMPDEST PUSH1 0x0 PUSH2 0x55D PUSH1 0x10 DUP4 PUSH2 0x4AA JUMP JUMPDEST SWAP2 POP PUSH2 0x568 DUP3 PUSH2 0x527 JUMP JUMPDEST PUSH1 0x20 DUP3 ADD SWAP1 POP SWAP2 SWAP1 POP JUMP JUMPDEST PUSH1 0x0 PUSH1 0x20 DUP3 ADD SWAP1 POP DUP2 DUP2 SUB PUSH1 0x0 DUP4 ADD MSTORE PUSH2 0x58C DUP2 PUSH2 0x550 JUMP JUMPDEST SWAP1 POP SWAP2 SWAP1 POP JUMP JUMPDEST PUSH32 0x4974206D75737420626520746865207061796D656E7420737461747573000000 PUSH1 0x0 DUP3 ADD MSTORE POP JUMP JUMPDEST PUSH1 0x0 PUSH2 0x5C9 PUSH1 0x1D DUP4 PUSH2 0x4AA JUMP JUMPDEST SWAP2 POP PUSH2 0x5D4 DUP3 PUSH2 0x593 JUMP JUMPDEST PUSH1 0x20 DUP3 ADD SWAP1 POP SWAP2 SWAP1 POP JUMP JUMPDEST PUSH1 0x0 PUSH1 0x20 DUP3 ADD SWAP1 POP DUP2 DUP2 SUB PUSH1 0x0 DUP4 ADD MSTORE PUSH2 0x5F8 DUP2 PUSH2 0x5BC JUMP JUMPDEST SWAP1 POP SWAP2 SWAP1 POP JUMP JUMPDEST PUSH32 0x4F72646572207375636365737300000000000000000000000000000000000000 PUSH1 0x0 DUP3 ADD MSTORE POP JUMP JUMPDEST PUSH1 0x0 PUSH2 0x635 PUSH1 0xD DUP4 PUSH2 0x4AA JUMP JUMPDEST SWAP2 POP PUSH2 0x640 DUP3 PUSH2 0x5FF JUMP JUMPDEST PUSH1 0x20 DUP3 ADD SWAP1 POP SWAP2 SWAP1 POP JUMP JUMPDEST PUSH1 0x0 PUSH1 0x20 DUP3 ADD SWAP1 POP DUP2 DUP2 SUB PUSH1 0x0 DUP4 ADD MSTORE PUSH2 0x664 DUP2 PUSH2 0x628 JUMP JUMPDEST SWAP1 POP SWAP2 SWAP1 POP JUMP JUMPDEST PUSH32 0x4974206D75737420626520746865206F72646572207374617475730000000000 PUSH1 0x0 DUP3 ADD MSTORE POP JUMP JUMPDEST PUSH1 0x0 PUSH2 0x6A1 PUSH1 0x1B DUP4 PUSH2 0x4AA JUMP JUMPDEST SWAP2 POP PUSH2 0x6AC DUP3 PUSH2 0x66B JUMP JUMPDEST PUSH1 0x20 DUP3 ADD SWAP1 POP SWAP2 SWAP1 POP JUMP JUMPDEST PUSH1 0x0 PUSH1 0x20 DUP3 ADD SWAP1 POP DUP2 DUP2 SUB PUSH1 0x0 DUP4 ADD MSTORE PUSH2 0x6D0 DUP2 PUSH2 0x694 JUMP JUMPDEST SWAP1 POP SWAP2 SWAP1 POP JUMP JUMPDEST PUSH32 0x74616B6541776179205375636365737300000000000000000000000000000000 PUSH1 0x0 DUP3 ADD MSTORE POP JUMP JUMPDEST PUSH1 0x0 PUSH2 0x70D PUSH1 0x10 DUP4 PUSH2 0x4AA JUMP JUMPDEST SWAP2 POP PUSH2 0x718 DUP3 PUSH2 0x6D7 JUMP JUMPDEST PUSH1 0x20 DUP3 ADD SWAP1 POP SWAP2 SWAP1 POP JUMP JUMPDEST PUSH1 0x0 PUSH1 0x20 DUP3 ADD SWAP1 POP DUP2 DUP2 SUB PUSH1 0x0 DUP4 ADD MSTORE PUSH2 0x73C DUP2 PUSH2 0x700 JUMP JUMPDEST SWAP1 POP SWAP2 SWAP1 POP JUMP JUMPDEST PUSH32 0x4974206D757374206265207468652064656C6976657279207374617475730000 PUSH1 0x0 DUP3 ADD MSTORE POP JUMP JUMPDEST PUSH1 0x0 PUSH2 0x779 PUSH1 0x1E DUP4 PUSH2 0x4AA JUMP JUMPDEST SWAP2 POP PUSH2 0x784 DUP3 PUSH2 0x743 JUMP JUMPDEST PUSH1 0x20 DUP3 ADD SWAP1 POP SWAP2 SWAP1 POP JUMP JUMPDEST PUSH1 0x0 PUSH1 0x20 DUP3 ADD SWAP1 POP DUP2 DUP2 SUB PUSH1 0x0 DUP4 ADD MSTORE PUSH2 0x7A8 DUP2 PUSH2 0x76C JUMP JUMPDEST SWAP1 POP SWAP2 SWAP1 POP JUMP JUMPDEST PUSH32 0x5061796D656E7420737563636573730000000000000000000000000000000000 PUSH1 0x0 DUP3 ADD MSTORE POP JUMP JUMPDEST PUSH1 0x0 PUSH2 0x7E5 PUSH1 0xF DUP4 PUSH2 0x4AA JUMP JUMPDEST SWAP2 POP PUSH2 0x7F0 DUP3 PUSH2 0x7AF JUMP JUMPDEST PUSH1 0x20 DUP3 ADD SWAP1 POP SWAP2 SWAP1 POP JUMP JUMPDEST PUSH1 0x0 PUSH1 0x20 DUP3 ADD SWAP1 POP DUP2 DUP2 SUB PUSH1 0x0 DUP4 ADD MSTORE PUSH2 0x814 DUP2 PUSH2 0x7D8 JUMP JUMPDEST SWAP1 POP SWAP2 SWAP1 POP JUMP INVALID LOG2 PUSH5 0x6970667358 0x22 SLT KECCAK256 0x4E PUSH3 0x320C37 0x2D 0xD1 0xE9 PREVRANDAO XOR 0xFC 0xCE SDIV 0xB6 SWAP16 0x4B SWAP15 SWAP13 0xD6 0x4B 0xCF SELFDESTRUCT 0x4F NOT SWAP7 CODESIZE PUSH19 0xB74A93328D64736F6C63430008120033000000 "
				},
				"gasEstimates": {
					"creation": {
						"codeDepositCost": "425800",
						"executionCost": "24760",
						"totalCost": "450560"
					},
					"external": {
						"delivaryFood()": "28419",
						"foodStatus()": "2623",
						"orderFoold()": "28441",
						"paymentFood()": "28511",
						"takeAwayFood()": "28463"
					}
				},
				"methodIdentifiers": {
					"delivaryFood()": "7c01e13f",
					"foodStatus()": "d9c966fd",
					"orderFoold()": "7ede53d3",
					"paymentFood()": "c62efc2b",
					"takeAwayFood()": "94d15a9e"
				}
			},
			"storageLayout": {
				"storage": [
					{
						"astId": 13,
						"contract": "Lecture Note/week06/enum.sol:Ex6_9",
						"label": "foodStatus",
						"offset": 0,
						"slot": "0",
						"type": "t_enum(FoodProcess)10"
					}
				],
				"types": {
					"t_enum(FoodProcess)10": {
						"encoding": "inplace",
						"label": "enum Ex6_9.FoodProcess",
						"numberOfBytes": "1"
					}
				}
			},
			"userdoc": {
				"kind": "user",
				"methods": {},
				"version": 1
			}
		}
	}
}