{
	"Lecture Note/week11/LotteryGame.sol": {
		"LotteryGame": {
			"abi": [
				{
					"inputs": [],
					"stateMutability": "nonpayable",
					"type": "constructor"
				},
				{
					"anonymous": false,
					"inputs": [
						{
							"indexed": false,
							"internalType": "address",
							"name": "player",
							"type": "address"
						}
					],
					"name": "PlayerEntered",
					"type": "event"
				},
				{
					"anonymous": false,
					"inputs": [
						{
							"indexed": false,
							"internalType": "address",
							"name": "winner",
							"type": "address"
						}
					],
					"name": "Winner",
					"type": "event"
				},
				{
					"inputs": [],
					"name": "closeGame",
					"outputs": [],
					"stateMutability": "nonpayable",
					"type": "function"
				},
				{
					"inputs": [],
					"name": "enter",
					"outputs": [],
					"stateMutability": "payable",
					"type": "function"
				},
				{
					"inputs": [],
					"name": "getPlayers",
					"outputs": [
						{
							"internalType": "address[]",
							"name": "",
							"type": "address[]"
						}
					],
					"stateMutability": "view",
					"type": "function"
				},
				{
					"inputs": [],
					"name": "lottoStatus",
					"outputs": [
						{
							"internalType": "enum LotteryGame.Status",
							"name": "",
							"type": "uint8"
						}
					],
					"stateMutability": "view",
					"type": "function"
				},
				{
					"inputs": [],
					"name": "manager",
					"outputs": [
						{
							"internalType": "address",
							"name": "",
							"type": "address"
						}
					],
					"stateMutability": "view",
					"type": "function"
				},
				{
					"inputs": [],
					"name": "openGame",
					"outputs": [],
					"stateMutability": "nonpayable",
					"type": "function"
				},
				{
					"inputs": [],
					"name": "pickWinner",
					"outputs": [],
					"stateMutability": "nonpayable",
					"type": "function"
				},
				{
					"inputs": [
						{
							"internalType": "uint256",
							"name": "",
							"type": "uint256"
						}
					],
					"name": "players",
					"outputs": [
						{
							"internalType": "address",
							"name": "",
							"type": "address"
						}
					],
					"stateMutability": "view",
					"type": "function"
				}
			],
			"devdoc": {
				"kind": "dev",
				"methods": {},
				"version": 1
			},
			"evm": {
				"assembly": "    /* \"Lecture Note/week11/LotteryGame.sol\":58:2263  contract LotteryGame {... */\n  mstore(0x40, 0x80)\n    /* \"Lecture Note/week11/LotteryGame.sol\":318:322  true */\n  0x01\n    /* \"Lecture Note/week11/LotteryGame.sol\":305:322  bool check = true */\n  0x02\n  exp(0x0100, 0x01)\n  dup2\n  sload\n  dup2\n  0xff\n  mul\n  not\n  and\n  swap1\n  dup4\n  iszero\n  iszero\n  mul\n  or\n  swap1\n  sstore\n  pop\n    /* \"Lecture Note/week11/LotteryGame.sol\":599:650  constructor() {... */\n  callvalue\n  dup1\n  iszero\n  tag_1\n  jumpi\n  0x00\n  dup1\n  revert\ntag_1:\n  pop\n    /* \"Lecture Note/week11/LotteryGame.sol\":633:643  msg.sender */\n  caller\n    /* \"Lecture Note/week11/LotteryGame.sol\":623:630  manager */\n  0x00\n  dup1\n    /* \"Lecture Note/week11/LotteryGame.sol\":623:643  manager = msg.sender */\n  0x0100\n  exp\n  dup2\n  sload\n  dup2\n  0xffffffffffffffffffffffffffffffffffffffff\n  mul\n  not\n  and\n  swap1\n  dup4\n  0xffffffffffffffffffffffffffffffffffffffff\n  and\n  mul\n  or\n  swap1\n  sstore\n  pop\n    /* \"Lecture Note/week11/LotteryGame.sol\":58:2263  contract LotteryGame {... */\n  dataSize(sub_0)\n  dup1\n  dataOffset(sub_0)\n  0x00\n  codecopy\n  0x00\n  return\nstop\n\nsub_0: assembly {\n        /* \"Lecture Note/week11/LotteryGame.sol\":58:2263  contract LotteryGame {... */\n      mstore(0x40, 0x80)\n      jumpi(tag_1, lt(calldatasize, 0x04))\n      shr(0xe0, calldataload(0x00))\n      dup1\n      0xb12cf032\n      gt\n      tag_10\n      jumpi\n      dup1\n      0xb12cf032\n      eq\n      tag_6\n      jumpi\n      dup1\n      0xe97dcb62\n      eq\n      tag_7\n      jumpi\n      dup1\n      0xf71d96cb\n      eq\n      tag_8\n      jumpi\n      dup1\n      0xfa12d782\n      eq\n      tag_9\n      jumpi\n      jump(tag_1)\n    tag_10:\n      dup1\n      0x481c6a75\n      eq\n      tag_2\n      jumpi\n      dup1\n      0x5d495aea\n      eq\n      tag_3\n      jumpi\n      dup1\n      0x786b844b\n      eq\n      tag_4\n      jumpi\n      dup1\n      0x8b5b9ccc\n      eq\n      tag_5\n      jumpi\n    tag_1:\n      0x00\n      dup1\n      revert\n        /* \"Lecture Note/week11/LotteryGame.sol\":85:107  address public manager */\n    tag_2:\n      callvalue\n      dup1\n      iszero\n      tag_11\n      jumpi\n      0x00\n      dup1\n      revert\n    tag_11:\n      pop\n      tag_12\n      tag_13\n      jump\t// in\n    tag_12:\n      mload(0x40)\n      tag_14\n      swap2\n      swap1\n      tag_15\n      jump\t// in\n    tag_14:\n      mload(0x40)\n      dup1\n      swap2\n      sub\n      swap1\n      return\n        /* \"Lecture Note/week11/LotteryGame.sol\":1663:2033  function pickWinner() ... */\n    tag_3:\n      callvalue\n      dup1\n      iszero\n      tag_16\n      jumpi\n      0x00\n      dup1\n      revert\n    tag_16:\n      pop\n      tag_17\n      tag_18\n      jump\t// in\n    tag_17:\n      stop\n        /* \"Lecture Note/week11/LotteryGame.sol\":2152:2261  function closeGame()... */\n    tag_4:\n      callvalue\n      dup1\n      iszero\n      tag_19\n      jumpi\n      0x00\n      dup1\n      revert\n    tag_19:\n      pop\n      tag_20\n      tag_21\n      jump\t// in\n    tag_20:\n      stop\n        /* \"Lecture Note/week11/LotteryGame.sol\":656:779  function getPlayers() ... */\n    tag_5:\n      callvalue\n      dup1\n      iszero\n      tag_22\n      jumpi\n      0x00\n      dup1\n      revert\n    tag_22:\n      pop\n      tag_23\n      tag_24\n      jump\t// in\n    tag_23:\n      mload(0x40)\n      tag_25\n      swap2\n      swap1\n      tag_26\n      jump\t// in\n    tag_25:\n      mload(0x40)\n      dup1\n      swap2\n      sub\n      swap1\n      return\n        /* \"Lecture Note/week11/LotteryGame.sol\":197:222  Status public lottoStatus */\n    tag_6:\n      callvalue\n      dup1\n      iszero\n      tag_27\n      jumpi\n      0x00\n      dup1\n      revert\n    tag_27:\n      pop\n      tag_28\n      tag_29\n      jump\t// in\n    tag_28:\n      mload(0x40)\n      tag_30\n      swap2\n      swap1\n      tag_31\n      jump\t// in\n    tag_30:\n      mload(0x40)\n      dup1\n      swap2\n      sub\n      swap1\n      return\n        /* \"Lecture Note/week11/LotteryGame.sol\":1068:1440  function enter() ... */\n    tag_7:\n      tag_32\n      tag_33\n      jump\t// in\n    tag_32:\n      stop\n        /* \"Lecture Note/week11/LotteryGame.sol\":113:137  address[] public players */\n    tag_8:\n      callvalue\n      dup1\n      iszero\n      tag_34\n      jumpi\n      0x00\n      dup1\n      revert\n    tag_34:\n      pop\n      tag_35\n      0x04\n      dup1\n      calldatasize\n      sub\n      dup2\n      add\n      swap1\n      tag_36\n      swap2\n      swap1\n      tag_37\n      jump\t// in\n    tag_36:\n      tag_38\n      jump\t// in\n    tag_35:\n      mload(0x40)\n      tag_39\n      swap2\n      swap1\n      tag_15\n      jump\t// in\n    tag_39:\n      mload(0x40)\n      dup1\n      swap2\n      sub\n      swap1\n      return\n        /* \"Lecture Note/week11/LotteryGame.sol\":2039:2146  function openGame()... */\n    tag_9:\n      callvalue\n      dup1\n      iszero\n      tag_40\n      jumpi\n      0x00\n      dup1\n      revert\n    tag_40:\n      pop\n      tag_41\n      tag_42\n      jump\t// in\n    tag_41:\n      stop\n        /* \"Lecture Note/week11/LotteryGame.sol\":85:107  address public manager */\n    tag_13:\n      0x00\n      dup1\n      sload\n      swap1\n      0x0100\n      exp\n      swap1\n      div\n      0xffffffffffffffffffffffffffffffffffffffff\n      and\n      dup2\n      jump\t// out\n        /* \"Lecture Note/week11/LotteryGame.sol\":1663:2033  function pickWinner() ... */\n    tag_18:\n        /* \"Lecture Note/week11/LotteryGame.sol\":383:390  manager */\n      0x00\n      dup1\n      sload\n      swap1\n      0x0100\n      exp\n      swap1\n      div\n      0xffffffffffffffffffffffffffffffffffffffff\n      and\n        /* \"Lecture Note/week11/LotteryGame.sol\":369:390  msg.sender == manager */\n      0xffffffffffffffffffffffffffffffffffffffff\n      and\n        /* \"Lecture Note/week11/LotteryGame.sol\":369:379  msg.sender */\n      caller\n        /* \"Lecture Note/week11/LotteryGame.sol\":369:390  msg.sender == manager */\n      0xffffffffffffffffffffffffffffffffffffffff\n      and\n      eq\n        /* \"Lecture Note/week11/LotteryGame.sol\":361:442  require(msg.sender == manager, \"Error : Only the manager can call this function\") */\n      tag_44\n      jumpi\n      mload(0x40)\n      0x08c379a000000000000000000000000000000000000000000000000000000000\n      dup2\n      mstore\n      0x04\n      add\n      tag_45\n      swap1\n      tag_46\n      jump\t// in\n    tag_45:\n      mload(0x40)\n      dup1\n      swap2\n      sub\n      swap1\n      revert\n    tag_44:\n        /* \"Lecture Note/week11/LotteryGame.sol\":1760:1772  Status.close */\n      0x01\n        /* \"Lecture Note/week11/LotteryGame.sol\":1745:1772  lottoStatus == Status.close */\n      dup1\n      dup2\n      gt\n      iszero\n      tag_48\n      jumpi\n      tag_49\n      tag_50\n      jump\t// in\n    tag_49:\n    tag_48:\n        /* \"Lecture Note/week11/LotteryGame.sol\":1745:1756  lottoStatus */\n      0x02\n      0x00\n      swap1\n      sload\n      swap1\n      0x0100\n      exp\n      swap1\n      div\n      0xff\n      and\n        /* \"Lecture Note/week11/LotteryGame.sol\":1745:1772  lottoStatus == Status.close */\n      0x01\n      dup2\n      gt\n      iszero\n      tag_51\n      jumpi\n      tag_52\n      tag_50\n      jump\t// in\n    tag_52:\n    tag_51:\n      eq\n        /* \"Lecture Note/week11/LotteryGame.sol\":1737:1806  require(lottoStatus == Status.close, \"Error : The Game is not ended\") */\n      tag_53\n      jumpi\n      mload(0x40)\n      0x08c379a000000000000000000000000000000000000000000000000000000000\n      dup2\n      mstore\n      0x04\n      add\n      tag_54\n      swap1\n      tag_55\n      jump\t// in\n    tag_54:\n      mload(0x40)\n      dup1\n      swap2\n      sub\n      swap1\n      revert\n    tag_53:\n        /* \"Lecture Note/week11/LotteryGame.sol\":1820:1830  uint index */\n      0x00\n        /* \"Lecture Note/week11/LotteryGame.sol\":1844:1851  players */\n      0x01\n        /* \"Lecture Note/week11/LotteryGame.sol\":1844:1858  players.length */\n      dup1\n      sload\n      swap1\n      pop\n        /* \"Lecture Note/week11/LotteryGame.sol\":1833:1841  random() */\n      tag_56\n        /* \"Lecture Note/week11/LotteryGame.sol\":1833:1839  random */\n      tag_57\n        /* \"Lecture Note/week11/LotteryGame.sol\":1833:1841  random() */\n      jump\t// in\n    tag_56:\n        /* \"Lecture Note/week11/LotteryGame.sol\":1833:1858  random() % players.length */\n      tag_58\n      swap2\n      swap1\n      tag_59\n      jump\t// in\n    tag_58:\n        /* \"Lecture Note/week11/LotteryGame.sol\":1820:1858  uint index = random() % players.length */\n      swap1\n      pop\n        /* \"Lecture Note/week11/LotteryGame.sol\":1872:1886  address winner */\n      0x00\n        /* \"Lecture Note/week11/LotteryGame.sol\":1889:1896  players */\n      0x01\n        /* \"Lecture Note/week11/LotteryGame.sol\":1897:1902  index */\n      dup3\n        /* \"Lecture Note/week11/LotteryGame.sol\":1889:1903  players[index] */\n      dup2\n      sload\n      dup2\n      lt\n      tag_60\n      jumpi\n      tag_61\n      tag_62\n      jump\t// in\n    tag_61:\n    tag_60:\n      swap1\n      0x00\n      mstore\n      keccak256(0x00, 0x20)\n      add\n      0x00\n      swap1\n      sload\n      swap1\n      0x0100\n      exp\n      swap1\n      div\n      0xffffffffffffffffffffffffffffffffffffffff\n      and\n        /* \"Lecture Note/week11/LotteryGame.sol\":1872:1903  address winner = players[index] */\n      swap1\n      pop\n        /* \"Lecture Note/week11/LotteryGame.sol\":1924:1931  players */\n      0x01\n      0x00\n        /* \"Lecture Note/week11/LotteryGame.sol\":1917:1931  delete players */\n      tag_64\n      swap2\n      swap1\n      tag_65\n      jump\t// in\n    tag_64:\n        /* \"Lecture Note/week11/LotteryGame.sol\":1953:1959  winner */\n      dup1\n        /* \"Lecture Note/week11/LotteryGame.sol\":1945:1969  payable(winner).transfer */\n      0xffffffffffffffffffffffffffffffffffffffff\n      and\n        /* \"Lecture Note/week11/LotteryGame.sol\":1945:1992  payable(winner).transfer(address(this).balance) */\n      0x08fc\n        /* \"Lecture Note/week11/LotteryGame.sol\":1970:1991  address(this).balance */\n      selfbalance\n        /* \"Lecture Note/week11/LotteryGame.sol\":1945:1992  payable(winner).transfer(address(this).balance) */\n      swap1\n      dup2\n      iszero\n      mul\n      swap1\n      mload(0x40)\n      0x00\n      mload(0x40)\n      dup1\n      dup4\n      sub\n      dup2\n      dup6\n      dup9\n      dup9\n      call\n      swap4\n      pop\n      pop\n      pop\n      pop\n      iszero\n      dup1\n      iszero\n      tag_67\n      jumpi\n      returndatasize\n      0x00\n      dup1\n      returndatacopy\n      revert(0x00, returndatasize)\n    tag_67:\n      pop\n        /* \"Lecture Note/week11/LotteryGame.sol\":2012:2026  Winner(winner) */\n      0x745c90b656b4aafe296c8ca35aeacfe56cb96c90e1d320e5da643fff1051b6c0\n        /* \"Lecture Note/week11/LotteryGame.sol\":2019:2025  winner */\n      dup2\n        /* \"Lecture Note/week11/LotteryGame.sol\":2012:2026  Winner(winner) */\n      mload(0x40)\n      tag_68\n      swap2\n      swap1\n      tag_15\n      jump\t// in\n    tag_68:\n      mload(0x40)\n      dup1\n      swap2\n      sub\n      swap1\n      log1\n        /* \"Lecture Note/week11/LotteryGame.sol\":1723:2033  {... */\n      pop\n      pop\n        /* \"Lecture Note/week11/LotteryGame.sol\":1663:2033  function pickWinner() ... */\n      jump\t// out\n        /* \"Lecture Note/week11/LotteryGame.sol\":2152:2261  function closeGame()... */\n    tag_21:\n        /* \"Lecture Note/week11/LotteryGame.sol\":383:390  manager */\n      0x00\n      dup1\n      sload\n      swap1\n      0x0100\n      exp\n      swap1\n      div\n      0xffffffffffffffffffffffffffffffffffffffff\n      and\n        /* \"Lecture Note/week11/LotteryGame.sol\":369:390  msg.sender == manager */\n      0xffffffffffffffffffffffffffffffffffffffff\n      and\n        /* \"Lecture Note/week11/LotteryGame.sol\":369:379  msg.sender */\n      caller\n        /* \"Lecture Note/week11/LotteryGame.sol\":369:390  msg.sender == manager */\n      0xffffffffffffffffffffffffffffffffffffffff\n      and\n      eq\n        /* \"Lecture Note/week11/LotteryGame.sol\":361:442  require(msg.sender == manager, \"Error : Only the manager can call this function\") */\n      tag_70\n      jumpi\n      mload(0x40)\n      0x08c379a000000000000000000000000000000000000000000000000000000000\n      dup2\n      mstore\n      0x04\n      add\n      tag_71\n      swap1\n      tag_46\n      jump\t// in\n    tag_71:\n      mload(0x40)\n      dup1\n      swap2\n      sub\n      swap1\n      revert\n    tag_70:\n        /* \"Lecture Note/week11/LotteryGame.sol\":2238:2250  Status.close */\n      0x01\n        /* \"Lecture Note/week11/LotteryGame.sol\":2224:2235  lottoStatus */\n      0x02\n      0x00\n        /* \"Lecture Note/week11/LotteryGame.sol\":2224:2250  lottoStatus = Status.close */\n      0x0100\n      exp\n      dup2\n      sload\n      dup2\n      0xff\n      mul\n      not\n      and\n      swap1\n      dup4\n      0x01\n      dup2\n      gt\n      iszero\n      tag_73\n      jumpi\n      tag_74\n      tag_50\n      jump\t// in\n    tag_74:\n    tag_73:\n      mul\n      or\n      swap1\n      sstore\n      pop\n        /* \"Lecture Note/week11/LotteryGame.sol\":2152:2261  function closeGame()... */\n      jump\t// out\n        /* \"Lecture Note/week11/LotteryGame.sol\":656:779  function getPlayers() ... */\n    tag_24:\n        /* \"Lecture Note/week11/LotteryGame.sol\":726:742  address[] memory */\n      0x60\n        /* \"Lecture Note/week11/LotteryGame.sol\":765:772  players */\n      0x01\n        /* \"Lecture Note/week11/LotteryGame.sol\":758:772  return players */\n      dup1\n      sload\n      dup1\n      0x20\n      mul\n      0x20\n      add\n      mload(0x40)\n      swap1\n      dup2\n      add\n      0x40\n      mstore\n      dup1\n      swap3\n      swap2\n      swap1\n      dup2\n      dup2\n      mstore\n      0x20\n      add\n      dup3\n      dup1\n      sload\n      dup1\n      iszero\n      tag_76\n      jumpi\n      0x20\n      mul\n      dup3\n      add\n      swap2\n      swap1\n      0x00\n      mstore\n      keccak256(0x00, 0x20)\n      swap1\n    tag_77:\n      dup2\n      0x00\n      swap1\n      sload\n      swap1\n      0x0100\n      exp\n      swap1\n      div\n      0xffffffffffffffffffffffffffffffffffffffff\n      and\n      0xffffffffffffffffffffffffffffffffffffffff\n      and\n      dup2\n      mstore\n      0x20\n      add\n      swap1\n      0x01\n      add\n      swap1\n      dup1\n      dup4\n      gt\n      tag_77\n      jumpi\n    tag_76:\n      pop\n      pop\n      pop\n      pop\n      pop\n      swap1\n      pop\n        /* \"Lecture Note/week11/LotteryGame.sol\":656:779  function getPlayers() ... */\n      swap1\n      jump\t// out\n        /* \"Lecture Note/week11/LotteryGame.sol\":197:222  Status public lottoStatus */\n    tag_29:\n      0x02\n      0x00\n      swap1\n      sload\n      swap1\n      0x0100\n      exp\n      swap1\n      div\n      0xff\n      and\n      dup2\n      jump\t// out\n        /* \"Lecture Note/week11/LotteryGame.sol\":1068:1440  function enter() ... */\n    tag_33:\n        /* \"Lecture Note/week11/LotteryGame.sol\":519:526  manager */\n      0x00\n      dup1\n      sload\n      swap1\n      0x0100\n      exp\n      swap1\n      div\n      0xffffffffffffffffffffffffffffffffffffffff\n      and\n        /* \"Lecture Note/week11/LotteryGame.sol\":505:526  msg.sender != manager */\n      0xffffffffffffffffffffffffffffffffffffffff\n      and\n        /* \"Lecture Note/week11/LotteryGame.sol\":505:515  msg.sender */\n      caller\n        /* \"Lecture Note/week11/LotteryGame.sol\":505:526  msg.sender != manager */\n      0xffffffffffffffffffffffffffffffffffffffff\n      and\n      sub\n        /* \"Lecture Note/week11/LotteryGame.sol\":497:575  require(msg.sender != manager, \"Error : Manager can not bet the lottery game\") */\n      tag_79\n      jumpi\n      mload(0x40)\n      0x08c379a000000000000000000000000000000000000000000000000000000000\n      dup2\n      mstore\n      0x04\n      add\n      tag_80\n      swap1\n      tag_81\n      jump\t// in\n    tag_80:\n      mload(0x40)\n      dup1\n      swap2\n      sub\n      swap1\n      revert\n    tag_79:\n        /* \"Lecture Note/week11/LotteryGame.sol\":1176:1187  Status.open */\n      0x00\n        /* \"Lecture Note/week11/LotteryGame.sol\":1161:1187  lottoStatus == Status.open */\n      0x01\n      dup2\n      gt\n      iszero\n      tag_83\n      jumpi\n      tag_84\n      tag_50\n      jump\t// in\n    tag_84:\n    tag_83:\n        /* \"Lecture Note/week11/LotteryGame.sol\":1161:1172  lottoStatus */\n      0x02\n      0x00\n      swap1\n      sload\n      swap1\n      0x0100\n      exp\n      swap1\n      div\n      0xff\n      and\n        /* \"Lecture Note/week11/LotteryGame.sol\":1161:1187  lottoStatus == Status.open */\n      0x01\n      dup2\n      gt\n      iszero\n      tag_85\n      jumpi\n      tag_86\n      tag_50\n      jump\t// in\n    tag_86:\n    tag_85:\n      eq\n        /* \"Lecture Note/week11/LotteryGame.sol\":1153:1216  require(lottoStatus == Status.open, \"Error : Gane is not open\") */\n      tag_87\n      jumpi\n      mload(0x40)\n      0x08c379a000000000000000000000000000000000000000000000000000000000\n      dup2\n      mstore\n      0x04\n      add\n      tag_88\n      swap1\n      tag_89\n      jump\t// in\n    tag_88:\n      mload(0x40)\n      dup1\n      swap2\n      sub\n      swap1\n      revert\n    tag_87:\n        /* \"Lecture Note/week11/LotteryGame.sol\":1251:1258  1 ether */\n      0x0de0b6b3a7640000\n        /* \"Lecture Note/week11/LotteryGame.sol\":1238:1247  msg.value */\n      callvalue\n        /* \"Lecture Note/week11/LotteryGame.sol\":1238:1258  msg.value == 1 ether */\n      eq\n        /* \"Lecture Note/week11/LotteryGame.sol\":1230:1286  require(msg.value == 1 ether, \"Only 1 Ether is Allowed\") */\n      tag_90\n      jumpi\n      mload(0x40)\n      0x08c379a000000000000000000000000000000000000000000000000000000000\n      dup2\n      mstore\n      0x04\n      add\n      tag_91\n      swap1\n      tag_92\n      jump\t// in\n    tag_91:\n      mload(0x40)\n      dup1\n      swap2\n      sub\n      swap1\n      revert\n    tag_90:\n        /* \"Lecture Note/week11/LotteryGame.sol\":1318:1323  false */\n      0x00\n        /* \"Lecture Note/week11/LotteryGame.sol\":1304:1323  checkDup() == false */\n      iszero\n      iszero\n        /* \"Lecture Note/week11/LotteryGame.sol\":1304:1314  checkDup() */\n      tag_93\n        /* \"Lecture Note/week11/LotteryGame.sol\":1304:1312  checkDup */\n      tag_94\n        /* \"Lecture Note/week11/LotteryGame.sol\":1304:1314  checkDup() */\n      jump\t// in\n    tag_93:\n        /* \"Lecture Note/week11/LotteryGame.sol\":1304:1323  checkDup() == false */\n      iszero\n      iszero\n      sub\n        /* \"Lecture Note/week11/LotteryGame.sol\":1300:1430  if (checkDup() == false) {... */\n      tag_95\n      jumpi\n        /* \"Lecture Note/week11/LotteryGame.sol\":1343:1350  players */\n      0x01\n        /* \"Lecture Note/week11/LotteryGame.sol\":1356:1366  msg.sender */\n      caller\n        /* \"Lecture Note/week11/LotteryGame.sol\":1343:1367  players.push(msg.sender) */\n      swap1\n      dup1\n      0x01\n      dup2\n      sload\n      add\n      dup1\n      dup3\n      sstore\n      dup1\n      swap2\n      pop\n      pop\n      0x01\n      swap1\n      sub\n      swap1\n      0x00\n      mstore\n      keccak256(0x00, 0x20)\n      add\n      0x00\n      swap1\n      swap2\n      swap1\n      swap2\n      swap1\n      swap2\n      0x0100\n      exp\n      dup2\n      sload\n      dup2\n      0xffffffffffffffffffffffffffffffffffffffff\n      mul\n      not\n      and\n      swap1\n      dup4\n      0xffffffffffffffffffffffffffffffffffffffff\n      and\n      mul\n      or\n      swap1\n      sstore\n      pop\n        /* \"Lecture Note/week11/LotteryGame.sol\":1390:1415  PlayerEntered(msg.sender) */\n      0x4d999952f9aa655a216ee2df5968ca0e670e9582ddc96cfe7d8168114b8ca37f\n        /* \"Lecture Note/week11/LotteryGame.sol\":1404:1414  msg.sender */\n      caller\n        /* \"Lecture Note/week11/LotteryGame.sol\":1390:1415  PlayerEntered(msg.sender) */\n      mload(0x40)\n      tag_97\n      swap2\n      swap1\n      tag_15\n      jump\t// in\n    tag_97:\n      mload(0x40)\n      dup1\n      swap2\n      sub\n      swap1\n      log1\n        /* \"Lecture Note/week11/LotteryGame.sol\":1300:1430  if (checkDup() == false) {... */\n    tag_95:\n        /* \"Lecture Note/week11/LotteryGame.sol\":1068:1440  function enter() ... */\n      jump\t// out\n        /* \"Lecture Note/week11/LotteryGame.sol\":113:137  address[] public players */\n    tag_38:\n      0x01\n      dup2\n      dup2\n      sload\n      dup2\n      lt\n      tag_98\n      jumpi\n      0x00\n      dup1\n      revert\n    tag_98:\n      swap1\n      0x00\n      mstore\n      keccak256(0x00, 0x20)\n      add\n      0x00\n      swap2\n      pop\n      sload\n      swap1\n      0x0100\n      exp\n      swap1\n      div\n      0xffffffffffffffffffffffffffffffffffffffff\n      and\n      dup2\n      jump\t// out\n        /* \"Lecture Note/week11/LotteryGame.sol\":2039:2146  function openGame()... */\n    tag_42:\n        /* \"Lecture Note/week11/LotteryGame.sol\":383:390  manager */\n      0x00\n      dup1\n      sload\n      swap1\n      0x0100\n      exp\n      swap1\n      div\n      0xffffffffffffffffffffffffffffffffffffffff\n      and\n        /* \"Lecture Note/week11/LotteryGame.sol\":369:390  msg.sender == manager */\n      0xffffffffffffffffffffffffffffffffffffffff\n      and\n        /* \"Lecture Note/week11/LotteryGame.sol\":369:379  msg.sender */\n      caller\n        /* \"Lecture Note/week11/LotteryGame.sol\":369:390  msg.sender == manager */\n      0xffffffffffffffffffffffffffffffffffffffff\n      and\n      eq\n        /* \"Lecture Note/week11/LotteryGame.sol\":361:442  require(msg.sender == manager, \"Error : Only the manager can call this function\") */\n      tag_101\n      jumpi\n      mload(0x40)\n      0x08c379a000000000000000000000000000000000000000000000000000000000\n      dup2\n      mstore\n      0x04\n      add\n      tag_102\n      swap1\n      tag_46\n      jump\t// in\n    tag_102:\n      mload(0x40)\n      dup1\n      swap2\n      sub\n      swap1\n      revert\n    tag_101:\n        /* \"Lecture Note/week11/LotteryGame.sol\":2124:2135  Status.open */\n      0x00\n        /* \"Lecture Note/week11/LotteryGame.sol\":2110:2121  lottoStatus */\n      0x02\n      0x00\n        /* \"Lecture Note/week11/LotteryGame.sol\":2110:2135  lottoStatus = Status.open */\n      0x0100\n      exp\n      dup2\n      sload\n      dup2\n      0xff\n      mul\n      not\n      and\n      swap1\n      dup4\n      0x01\n      dup2\n      gt\n      iszero\n      tag_104\n      jumpi\n      tag_105\n      tag_50\n      jump\t// in\n    tag_105:\n    tag_104:\n      mul\n      or\n      swap1\n      sstore\n      pop\n        /* \"Lecture Note/week11/LotteryGame.sol\":2039:2146  function openGame()... */\n      jump\t// out\n        /* \"Lecture Note/week11/LotteryGame.sol\":1446:1657  function random() ... */\n    tag_57:\n        /* \"Lecture Note/week11/LotteryGame.sol\":1513:1517  uint */\n      0x00\n        /* \"Lecture Note/week11/LotteryGame.sol\":1533:1542  uint hash */\n      dup1\n        /* \"Lecture Note/week11/LotteryGame.sol\":1577:1589  block.number */\n      number\n        /* \"Lecture Note/week11/LotteryGame.sol\":1591:1606  block.timestamp */\n      timestamp\n        /* \"Lecture Note/week11/LotteryGame.sol\":1608:1615  players */\n      0x01\n        /* \"Lecture Note/week11/LotteryGame.sol\":1608:1622  players.length */\n      dup1\n      sload\n      swap1\n      pop\n        /* \"Lecture Note/week11/LotteryGame.sol\":1560:1623  abi.encodePacked(block.number, block.timestamp, players.length) */\n      add(0x20, mload(0x40))\n      tag_107\n      swap4\n      swap3\n      swap2\n      swap1\n      tag_108\n      jump\t// in\n    tag_107:\n      mload(0x40)\n      0x20\n      dup2\n      dup4\n      sub\n      sub\n      dup2\n      mstore\n      swap1\n      0x40\n      mstore\n        /* \"Lecture Note/week11/LotteryGame.sol\":1550:1624  keccak256(abi.encodePacked(block.number, block.timestamp, players.length)) */\n      dup1\n      mload\n      swap1\n      0x20\n      add\n      keccak256\n        /* \"Lecture Note/week11/LotteryGame.sol\":1545:1625  uint(keccak256(abi.encodePacked(block.number, block.timestamp, players.length))) */\n      0x00\n      shr\n        /* \"Lecture Note/week11/LotteryGame.sol\":1533:1625  uint hash = uint(keccak256(abi.encodePacked(block.number, block.timestamp, players.length))) */\n      swap1\n      pop\n        /* \"Lecture Note/week11/LotteryGame.sol\":1646:1650  hash */\n      dup1\n        /* \"Lecture Note/week11/LotteryGame.sol\":1639:1650  return hash */\n      swap2\n      pop\n      pop\n        /* \"Lecture Note/week11/LotteryGame.sol\":1446:1657  function random() ... */\n      swap1\n      jump\t// out\n        /* \"Lecture Note/week11/LotteryGame.sol\":785:1062  function checkDup() ... */\n    tag_94:\n        /* \"Lecture Note/week11/LotteryGame.sol\":854:858  bool */\n      0x00\n        /* \"Lecture Note/week11/LotteryGame.sol\":879:885  uint i */\n      dup1\n        /* \"Lecture Note/week11/LotteryGame.sol\":888:889  0 */\n      0x00\n        /* \"Lecture Note/week11/LotteryGame.sol\":879:889  uint i = 0 */\n      swap1\n      pop\n        /* \"Lecture Note/week11/LotteryGame.sol\":874:1030  for (uint i = 0; i < players.length; i++) {... */\n    tag_110:\n        /* \"Lecture Note/week11/LotteryGame.sol\":895:902  players */\n      0x01\n        /* \"Lecture Note/week11/LotteryGame.sol\":895:909  players.length */\n      dup1\n      sload\n      swap1\n      pop\n        /* \"Lecture Note/week11/LotteryGame.sol\":891:892  i */\n      dup2\n        /* \"Lecture Note/week11/LotteryGame.sol\":891:909  i < players.length */\n      lt\n        /* \"Lecture Note/week11/LotteryGame.sol\":874:1030  for (uint i = 0; i < players.length; i++) {... */\n      iszero\n      tag_111\n      jumpi\n        /* \"Lecture Note/week11/LotteryGame.sol\":952:962  msg.sender */\n      caller\n        /* \"Lecture Note/week11/LotteryGame.sol\":938:962  players[i] == msg.sender */\n      0xffffffffffffffffffffffffffffffffffffffff\n      and\n        /* \"Lecture Note/week11/LotteryGame.sol\":938:945  players */\n      0x01\n        /* \"Lecture Note/week11/LotteryGame.sol\":946:947  i */\n      dup3\n        /* \"Lecture Note/week11/LotteryGame.sol\":938:948  players[i] */\n      dup2\n      sload\n      dup2\n      lt\n      tag_113\n      jumpi\n      tag_114\n      tag_62\n      jump\t// in\n    tag_114:\n    tag_113:\n      swap1\n      0x00\n      mstore\n      keccak256(0x00, 0x20)\n      add\n      0x00\n      swap1\n      sload\n      swap1\n      0x0100\n      exp\n      swap1\n      div\n      0xffffffffffffffffffffffffffffffffffffffff\n      and\n        /* \"Lecture Note/week11/LotteryGame.sol\":938:962  players[i] == msg.sender */\n      0xffffffffffffffffffffffffffffffffffffffff\n      and\n      sub\n        /* \"Lecture Note/week11/LotteryGame.sol\":934:1016  if (players[i] == msg.sender) {... */\n      tag_116\n      jumpi\n        /* \"Lecture Note/week11/LotteryGame.sol\":993:997  true */\n      0x01\n        /* \"Lecture Note/week11/LotteryGame.sol\":986:997  return true */\n      swap2\n      pop\n      pop\n      jump(tag_109)\n        /* \"Lecture Note/week11/LotteryGame.sol\":934:1016  if (players[i] == msg.sender) {... */\n    tag_116:\n        /* \"Lecture Note/week11/LotteryGame.sol\":911:914  i++ */\n      dup1\n      dup1\n      tag_117\n      swap1\n      tag_118\n      jump\t// in\n    tag_117:\n      swap2\n      pop\n      pop\n        /* \"Lecture Note/week11/LotteryGame.sol\":874:1030  for (uint i = 0; i < players.length; i++) {... */\n      jump(tag_110)\n    tag_111:\n      pop\n        /* \"Lecture Note/week11/LotteryGame.sol\":1050:1055  false */\n      0x00\n        /* \"Lecture Note/week11/LotteryGame.sol\":1043:1055  return false */\n      swap1\n      pop\n        /* \"Lecture Note/week11/LotteryGame.sol\":785:1062  function checkDup() ... */\n    tag_109:\n      swap1\n      jump\t// out\n    tag_65:\n      pop\n      dup1\n      sload\n      0x00\n      dup3\n      sstore\n      swap1\n      0x00\n      mstore\n      keccak256(0x00, 0x20)\n      swap1\n      dup2\n      add\n      swap1\n      tag_120\n      swap2\n      swap1\n      tag_121\n      jump\t// in\n    tag_120:\n      pop\n      jump\t// out\n    tag_121:\n    tag_122:\n      dup1\n      dup3\n      gt\n      iszero\n      tag_123\n      jumpi\n      0x00\n      dup2\n      0x00\n      swap1\n      sstore\n      pop\n      0x01\n      add\n      jump(tag_122)\n    tag_123:\n      pop\n      swap1\n      jump\t// out\n        /* \"#utility.yul\":7:133   */\n    tag_124:\n        /* \"#utility.yul\":44:51   */\n      0x00\n        /* \"#utility.yul\":84:126   */\n      0xffffffffffffffffffffffffffffffffffffffff\n        /* \"#utility.yul\":77:82   */\n      dup3\n        /* \"#utility.yul\":73:127   */\n      and\n        /* \"#utility.yul\":62:127   */\n      swap1\n      pop\n        /* \"#utility.yul\":7:133   */\n      swap2\n      swap1\n      pop\n      jump\t// out\n        /* \"#utility.yul\":139:235   */\n    tag_125:\n        /* \"#utility.yul\":176:183   */\n      0x00\n        /* \"#utility.yul\":205:229   */\n      tag_162\n        /* \"#utility.yul\":223:228   */\n      dup3\n        /* \"#utility.yul\":205:229   */\n      tag_124\n      jump\t// in\n    tag_162:\n        /* \"#utility.yul\":194:229   */\n      swap1\n      pop\n        /* \"#utility.yul\":139:235   */\n      swap2\n      swap1\n      pop\n      jump\t// out\n        /* \"#utility.yul\":241:359   */\n    tag_126:\n        /* \"#utility.yul\":328:352   */\n      tag_164\n        /* \"#utility.yul\":346:351   */\n      dup2\n        /* \"#utility.yul\":328:352   */\n      tag_125\n      jump\t// in\n    tag_164:\n        /* \"#utility.yul\":323:326   */\n      dup3\n        /* \"#utility.yul\":316:353   */\n      mstore\n        /* \"#utility.yul\":241:359   */\n      pop\n      pop\n      jump\t// out\n        /* \"#utility.yul\":365:587   */\n    tag_15:\n        /* \"#utility.yul\":458:462   */\n      0x00\n        /* \"#utility.yul\":496:498   */\n      0x20\n        /* \"#utility.yul\":485:494   */\n      dup3\n        /* \"#utility.yul\":481:499   */\n      add\n        /* \"#utility.yul\":473:499   */\n      swap1\n      pop\n        /* \"#utility.yul\":509:580   */\n      tag_166\n        /* \"#utility.yul\":577:578   */\n      0x00\n        /* \"#utility.yul\":566:575   */\n      dup4\n        /* \"#utility.yul\":562:579   */\n      add\n        /* \"#utility.yul\":553:559   */\n      dup5\n        /* \"#utility.yul\":509:580   */\n      tag_126\n      jump\t// in\n    tag_166:\n        /* \"#utility.yul\":365:587   */\n      swap3\n      swap2\n      pop\n      pop\n      jump\t// out\n        /* \"#utility.yul\":593:707   */\n    tag_127:\n        /* \"#utility.yul\":660:666   */\n      0x00\n        /* \"#utility.yul\":694:699   */\n      dup2\n        /* \"#utility.yul\":688:700   */\n      mload\n        /* \"#utility.yul\":678:700   */\n      swap1\n      pop\n        /* \"#utility.yul\":593:707   */\n      swap2\n      swap1\n      pop\n      jump\t// out\n        /* \"#utility.yul\":713:897   */\n    tag_128:\n        /* \"#utility.yul\":812:823   */\n      0x00\n        /* \"#utility.yul\":846:852   */\n      dup3\n        /* \"#utility.yul\":841:844   */\n      dup3\n        /* \"#utility.yul\":834:853   */\n      mstore\n        /* \"#utility.yul\":886:890   */\n      0x20\n        /* \"#utility.yul\":881:884   */\n      dup3\n        /* \"#utility.yul\":877:891   */\n      add\n        /* \"#utility.yul\":862:891   */\n      swap1\n      pop\n        /* \"#utility.yul\":713:897   */\n      swap3\n      swap2\n      pop\n      pop\n      jump\t// out\n        /* \"#utility.yul\":903:1035   */\n    tag_129:\n        /* \"#utility.yul\":970:974   */\n      0x00\n        /* \"#utility.yul\":993:996   */\n      dup2\n        /* \"#utility.yul\":985:996   */\n      swap1\n      pop\n        /* \"#utility.yul\":1023:1027   */\n      0x20\n        /* \"#utility.yul\":1018:1021   */\n      dup3\n        /* \"#utility.yul\":1014:1028   */\n      add\n        /* \"#utility.yul\":1006:1028   */\n      swap1\n      pop\n        /* \"#utility.yul\":903:1035   */\n      swap2\n      swap1\n      pop\n      jump\t// out\n        /* \"#utility.yul\":1041:1149   */\n    tag_130:\n        /* \"#utility.yul\":1118:1142   */\n      tag_171\n        /* \"#utility.yul\":1136:1141   */\n      dup2\n        /* \"#utility.yul\":1118:1142   */\n      tag_125\n      jump\t// in\n    tag_171:\n        /* \"#utility.yul\":1113:1116   */\n      dup3\n        /* \"#utility.yul\":1106:1143   */\n      mstore\n        /* \"#utility.yul\":1041:1149   */\n      pop\n      pop\n      jump\t// out\n        /* \"#utility.yul\":1155:1334   */\n    tag_131:\n        /* \"#utility.yul\":1224:1234   */\n      0x00\n        /* \"#utility.yul\":1245:1291   */\n      tag_173\n        /* \"#utility.yul\":1287:1290   */\n      dup4\n        /* \"#utility.yul\":1279:1285   */\n      dup4\n        /* \"#utility.yul\":1245:1291   */\n      tag_130\n      jump\t// in\n    tag_173:\n        /* \"#utility.yul\":1323:1327   */\n      0x20\n        /* \"#utility.yul\":1318:1321   */\n      dup4\n        /* \"#utility.yul\":1314:1328   */\n      add\n        /* \"#utility.yul\":1300:1328   */\n      swap1\n      pop\n        /* \"#utility.yul\":1155:1334   */\n      swap3\n      swap2\n      pop\n      pop\n      jump\t// out\n        /* \"#utility.yul\":1340:1453   */\n    tag_132:\n        /* \"#utility.yul\":1410:1414   */\n      0x00\n        /* \"#utility.yul\":1442:1446   */\n      0x20\n        /* \"#utility.yul\":1437:1440   */\n      dup3\n        /* \"#utility.yul\":1433:1447   */\n      add\n        /* \"#utility.yul\":1425:1447   */\n      swap1\n      pop\n        /* \"#utility.yul\":1340:1453   */\n      swap2\n      swap1\n      pop\n      jump\t// out\n        /* \"#utility.yul\":1489:2221   */\n    tag_133:\n        /* \"#utility.yul\":1608:1611   */\n      0x00\n        /* \"#utility.yul\":1637:1691   */\n      tag_176\n        /* \"#utility.yul\":1685:1690   */\n      dup3\n        /* \"#utility.yul\":1637:1691   */\n      tag_127\n      jump\t// in\n    tag_176:\n        /* \"#utility.yul\":1707:1793   */\n      tag_177\n        /* \"#utility.yul\":1786:1792   */\n      dup2\n        /* \"#utility.yul\":1781:1784   */\n      dup6\n        /* \"#utility.yul\":1707:1793   */\n      tag_128\n      jump\t// in\n    tag_177:\n        /* \"#utility.yul\":1700:1793   */\n      swap4\n      pop\n        /* \"#utility.yul\":1817:1873   */\n      tag_178\n        /* \"#utility.yul\":1867:1872   */\n      dup4\n        /* \"#utility.yul\":1817:1873   */\n      tag_129\n      jump\t// in\n    tag_178:\n        /* \"#utility.yul\":1896:1903   */\n      dup1\n        /* \"#utility.yul\":1927:1928   */\n      0x00\n        /* \"#utility.yul\":1912:2196   */\n    tag_179:\n        /* \"#utility.yul\":1937:1943   */\n      dup4\n        /* \"#utility.yul\":1934:1935   */\n      dup2\n        /* \"#utility.yul\":1931:1944   */\n      lt\n        /* \"#utility.yul\":1912:2196   */\n      iszero\n      tag_181\n      jumpi\n        /* \"#utility.yul\":2013:2019   */\n      dup2\n        /* \"#utility.yul\":2007:2020   */\n      mload\n        /* \"#utility.yul\":2040:2103   */\n      tag_182\n        /* \"#utility.yul\":2099:2102   */\n      dup9\n        /* \"#utility.yul\":2084:2097   */\n      dup3\n        /* \"#utility.yul\":2040:2103   */\n      tag_131\n      jump\t// in\n    tag_182:\n        /* \"#utility.yul\":2033:2103   */\n      swap8\n      pop\n        /* \"#utility.yul\":2126:2186   */\n      tag_183\n        /* \"#utility.yul\":2179:2185   */\n      dup4\n        /* \"#utility.yul\":2126:2186   */\n      tag_132\n      jump\t// in\n    tag_183:\n        /* \"#utility.yul\":2116:2186   */\n      swap3\n      pop\n        /* \"#utility.yul\":1972:2196   */\n      pop\n        /* \"#utility.yul\":1959:1960   */\n      0x01\n        /* \"#utility.yul\":1956:1957   */\n      dup2\n        /* \"#utility.yul\":1952:1961   */\n      add\n        /* \"#utility.yul\":1947:1961   */\n      swap1\n      pop\n        /* \"#utility.yul\":1912:2196   */\n      jump(tag_179)\n    tag_181:\n        /* \"#utility.yul\":1916:1930   */\n      pop\n        /* \"#utility.yul\":2212:2215   */\n      dup6\n        /* \"#utility.yul\":2205:2215   */\n      swap4\n      pop\n        /* \"#utility.yul\":1613:2221   */\n      pop\n      pop\n      pop\n        /* \"#utility.yul\":1489:2221   */\n      swap3\n      swap2\n      pop\n      pop\n      jump\t// out\n        /* \"#utility.yul\":2227:2600   */\n    tag_26:\n        /* \"#utility.yul\":2370:2374   */\n      0x00\n        /* \"#utility.yul\":2408:2410   */\n      0x20\n        /* \"#utility.yul\":2397:2406   */\n      dup3\n        /* \"#utility.yul\":2393:2411   */\n      add\n        /* \"#utility.yul\":2385:2411   */\n      swap1\n      pop\n        /* \"#utility.yul\":2457:2466   */\n      dup2\n        /* \"#utility.yul\":2451:2455   */\n      dup2\n        /* \"#utility.yul\":2447:2467   */\n      sub\n        /* \"#utility.yul\":2443:2444   */\n      0x00\n        /* \"#utility.yul\":2432:2441   */\n      dup4\n        /* \"#utility.yul\":2428:2445   */\n      add\n        /* \"#utility.yul\":2421:2468   */\n      mstore\n        /* \"#utility.yul\":2485:2593   */\n      tag_185\n        /* \"#utility.yul\":2588:2592   */\n      dup2\n        /* \"#utility.yul\":2579:2585   */\n      dup5\n        /* \"#utility.yul\":2485:2593   */\n      tag_133\n      jump\t// in\n    tag_185:\n        /* \"#utility.yul\":2477:2593   */\n      swap1\n      pop\n        /* \"#utility.yul\":2227:2600   */\n      swap3\n      swap2\n      pop\n      pop\n      jump\t// out\n        /* \"#utility.yul\":2606:2786   */\n    tag_50:\n        /* \"#utility.yul\":2654:2731   */\n      0x4e487b7100000000000000000000000000000000000000000000000000000000\n        /* \"#utility.yul\":2651:2652   */\n      0x00\n        /* \"#utility.yul\":2644:2732   */\n      mstore\n        /* \"#utility.yul\":2751:2755   */\n      0x21\n        /* \"#utility.yul\":2748:2749   */\n      0x04\n        /* \"#utility.yul\":2741:2756   */\n      mstore\n        /* \"#utility.yul\":2775:2779   */\n      0x24\n        /* \"#utility.yul\":2772:2773   */\n      0x00\n        /* \"#utility.yul\":2765:2780   */\n      revert\n        /* \"#utility.yul\":2792:2905   */\n    tag_134:\n        /* \"#utility.yul\":2873:2874   */\n      0x02\n        /* \"#utility.yul\":2866:2871   */\n      dup2\n        /* \"#utility.yul\":2863:2875   */\n      lt\n        /* \"#utility.yul\":2853:2899   */\n      tag_188\n      jumpi\n        /* \"#utility.yul\":2879:2897   */\n      tag_189\n      tag_50\n      jump\t// in\n    tag_189:\n        /* \"#utility.yul\":2853:2899   */\n    tag_188:\n        /* \"#utility.yul\":2792:2905   */\n      pop\n      jump\t// out\n        /* \"#utility.yul\":2911:3038   */\n    tag_135:\n        /* \"#utility.yul\":2956:2963   */\n      0x00\n        /* \"#utility.yul\":2985:2990   */\n      dup2\n        /* \"#utility.yul\":2974:2990   */\n      swap1\n      pop\n        /* \"#utility.yul\":2991:3032   */\n      tag_191\n        /* \"#utility.yul\":3026:3031   */\n      dup3\n        /* \"#utility.yul\":2991:3032   */\n      tag_134\n      jump\t// in\n    tag_191:\n        /* \"#utility.yul\":2911:3038   */\n      swap2\n      swap1\n      pop\n      jump\t// out\n        /* \"#utility.yul\":3044:3171   */\n    tag_136:\n        /* \"#utility.yul\":3100:3109   */\n      0x00\n        /* \"#utility.yul\":3133:3165   */\n      tag_193\n        /* \"#utility.yul\":3159:3164   */\n      dup3\n        /* \"#utility.yul\":3133:3165   */\n      tag_135\n      jump\t// in\n    tag_193:\n        /* \"#utility.yul\":3120:3165   */\n      swap1\n      pop\n        /* \"#utility.yul\":3044:3171   */\n      swap2\n      swap1\n      pop\n      jump\t// out\n        /* \"#utility.yul\":3177:3320   */\n    tag_137:\n        /* \"#utility.yul\":3270:3313   */\n      tag_195\n        /* \"#utility.yul\":3307:3312   */\n      dup2\n        /* \"#utility.yul\":3270:3313   */\n      tag_136\n      jump\t// in\n    tag_195:\n        /* \"#utility.yul\":3265:3268   */\n      dup3\n        /* \"#utility.yul\":3258:3314   */\n      mstore\n        /* \"#utility.yul\":3177:3320   */\n      pop\n      pop\n      jump\t// out\n        /* \"#utility.yul\":3326:3560   */\n    tag_31:\n        /* \"#utility.yul\":3425:3429   */\n      0x00\n        /* \"#utility.yul\":3463:3465   */\n      0x20\n        /* \"#utility.yul\":3452:3461   */\n      dup3\n        /* \"#utility.yul\":3448:3466   */\n      add\n        /* \"#utility.yul\":3440:3466   */\n      swap1\n      pop\n        /* \"#utility.yul\":3476:3553   */\n      tag_197\n        /* \"#utility.yul\":3550:3551   */\n      0x00\n        /* \"#utility.yul\":3539:3548   */\n      dup4\n        /* \"#utility.yul\":3535:3552   */\n      add\n        /* \"#utility.yul\":3526:3532   */\n      dup5\n        /* \"#utility.yul\":3476:3553   */\n      tag_137\n      jump\t// in\n    tag_197:\n        /* \"#utility.yul\":3326:3560   */\n      swap3\n      swap2\n      pop\n      pop\n      jump\t// out\n        /* \"#utility.yul\":3647:3764   */\n    tag_139:\n        /* \"#utility.yul\":3756:3757   */\n      0x00\n        /* \"#utility.yul\":3753:3754   */\n      dup1\n        /* \"#utility.yul\":3746:3758   */\n      revert\n        /* \"#utility.yul\":3893:3970   */\n    tag_141:\n        /* \"#utility.yul\":3930:3937   */\n      0x00\n        /* \"#utility.yul\":3959:3964   */\n      dup2\n        /* \"#utility.yul\":3948:3964   */\n      swap1\n      pop\n        /* \"#utility.yul\":3893:3970   */\n      swap2\n      swap1\n      pop\n      jump\t// out\n        /* \"#utility.yul\":3976:4098   */\n    tag_142:\n        /* \"#utility.yul\":4049:4073   */\n      tag_203\n        /* \"#utility.yul\":4067:4072   */\n      dup2\n        /* \"#utility.yul\":4049:4073   */\n      tag_141\n      jump\t// in\n    tag_203:\n        /* \"#utility.yul\":4042:4047   */\n      dup2\n        /* \"#utility.yul\":4039:4074   */\n      eq\n        /* \"#utility.yul\":4029:4092   */\n      tag_204\n      jumpi\n        /* \"#utility.yul\":4088:4089   */\n      0x00\n        /* \"#utility.yul\":4085:4086   */\n      dup1\n        /* \"#utility.yul\":4078:4090   */\n      revert\n        /* \"#utility.yul\":4029:4092   */\n    tag_204:\n        /* \"#utility.yul\":3976:4098   */\n      pop\n      jump\t// out\n        /* \"#utility.yul\":4104:4243   */\n    tag_143:\n        /* \"#utility.yul\":4150:4155   */\n      0x00\n        /* \"#utility.yul\":4188:4194   */\n      dup2\n        /* \"#utility.yul\":4175:4195   */\n      calldataload\n        /* \"#utility.yul\":4166:4195   */\n      swap1\n      pop\n        /* \"#utility.yul\":4204:4237   */\n      tag_206\n        /* \"#utility.yul\":4231:4236   */\n      dup2\n        /* \"#utility.yul\":4204:4237   */\n      tag_142\n      jump\t// in\n    tag_206:\n        /* \"#utility.yul\":4104:4243   */\n      swap3\n      swap2\n      pop\n      pop\n      jump\t// out\n        /* \"#utility.yul\":4249:4578   */\n    tag_37:\n        /* \"#utility.yul\":4308:4314   */\n      0x00\n        /* \"#utility.yul\":4357:4359   */\n      0x20\n        /* \"#utility.yul\":4345:4354   */\n      dup3\n        /* \"#utility.yul\":4336:4343   */\n      dup5\n        /* \"#utility.yul\":4332:4355   */\n      sub\n        /* \"#utility.yul\":4328:4360   */\n      slt\n        /* \"#utility.yul\":4325:4444   */\n      iszero\n      tag_208\n      jumpi\n        /* \"#utility.yul\":4363:4442   */\n      tag_209\n      tag_139\n      jump\t// in\n    tag_209:\n        /* \"#utility.yul\":4325:4444   */\n    tag_208:\n        /* \"#utility.yul\":4483:4484   */\n      0x00\n        /* \"#utility.yul\":4508:4561   */\n      tag_210\n        /* \"#utility.yul\":4553:4560   */\n      dup5\n        /* \"#utility.yul\":4544:4550   */\n      dup3\n        /* \"#utility.yul\":4533:4542   */\n      dup6\n        /* \"#utility.yul\":4529:4551   */\n      add\n        /* \"#utility.yul\":4508:4561   */\n      tag_143\n      jump\t// in\n    tag_210:\n        /* \"#utility.yul\":4498:4561   */\n      swap2\n      pop\n        /* \"#utility.yul\":4454:4571   */\n      pop\n        /* \"#utility.yul\":4249:4578   */\n      swap3\n      swap2\n      pop\n      pop\n      jump\t// out\n        /* \"#utility.yul\":4584:4753   */\n    tag_144:\n        /* \"#utility.yul\":4668:4679   */\n      0x00\n        /* \"#utility.yul\":4702:4708   */\n      dup3\n        /* \"#utility.yul\":4697:4700   */\n      dup3\n        /* \"#utility.yul\":4690:4709   */\n      mstore\n        /* \"#utility.yul\":4742:4746   */\n      0x20\n        /* \"#utility.yul\":4737:4740   */\n      dup3\n        /* \"#utility.yul\":4733:4747   */\n      add\n        /* \"#utility.yul\":4718:4747   */\n      swap1\n      pop\n        /* \"#utility.yul\":4584:4753   */\n      swap3\n      swap2\n      pop\n      pop\n      jump\t// out\n        /* \"#utility.yul\":4759:4993   */\n    tag_145:\n        /* \"#utility.yul\":4899:4933   */\n      0x4572726f72203a204f6e6c7920746865206d616e616765722063616e2063616c\n        /* \"#utility.yul\":4895:4896   */\n      0x00\n        /* \"#utility.yul\":4887:4893   */\n      dup3\n        /* \"#utility.yul\":4883:4897   */\n      add\n        /* \"#utility.yul\":4876:4934   */\n      mstore\n        /* \"#utility.yul\":4968:4985   */\n      0x6c20746869732066756e6374696f6e0000000000000000000000000000000000\n        /* \"#utility.yul\":4963:4965   */\n      0x20\n        /* \"#utility.yul\":4955:4961   */\n      dup3\n        /* \"#utility.yul\":4951:4966   */\n      add\n        /* \"#utility.yul\":4944:4986   */\n      mstore\n        /* \"#utility.yul\":4759:4993   */\n      pop\n      jump\t// out\n        /* \"#utility.yul\":4999:5365   */\n    tag_146:\n        /* \"#utility.yul\":5141:5144   */\n      0x00\n        /* \"#utility.yul\":5162:5229   */\n      tag_214\n        /* \"#utility.yul\":5226:5228   */\n      0x2f\n        /* \"#utility.yul\":5221:5224   */\n      dup4\n        /* \"#utility.yul\":5162:5229   */\n      tag_144\n      jump\t// in\n    tag_214:\n        /* \"#utility.yul\":5155:5229   */\n      swap2\n      pop\n        /* \"#utility.yul\":5238:5331   */\n      tag_215\n        /* \"#utility.yul\":5327:5330   */\n      dup3\n        /* \"#utility.yul\":5238:5331   */\n      tag_145\n      jump\t// in\n    tag_215:\n        /* \"#utility.yul\":5356:5358   */\n      0x40\n        /* \"#utility.yul\":5351:5354   */\n      dup3\n        /* \"#utility.yul\":5347:5359   */\n      add\n        /* \"#utility.yul\":5340:5359   */\n      swap1\n      pop\n        /* \"#utility.yul\":4999:5365   */\n      swap2\n      swap1\n      pop\n      jump\t// out\n        /* \"#utility.yul\":5371:5790   */\n    tag_46:\n        /* \"#utility.yul\":5537:5541   */\n      0x00\n        /* \"#utility.yul\":5575:5577   */\n      0x20\n        /* \"#utility.yul\":5564:5573   */\n      dup3\n        /* \"#utility.yul\":5560:5578   */\n      add\n        /* \"#utility.yul\":5552:5578   */\n      swap1\n      pop\n        /* \"#utility.yul\":5624:5633   */\n      dup2\n        /* \"#utility.yul\":5618:5622   */\n      dup2\n        /* \"#utility.yul\":5614:5634   */\n      sub\n        /* \"#utility.yul\":5610:5611   */\n      0x00\n        /* \"#utility.yul\":5599:5608   */\n      dup4\n        /* \"#utility.yul\":5595:5612   */\n      add\n        /* \"#utility.yul\":5588:5635   */\n      mstore\n        /* \"#utility.yul\":5652:5783   */\n      tag_217\n        /* \"#utility.yul\":5778:5782   */\n      dup2\n        /* \"#utility.yul\":5652:5783   */\n      tag_146\n      jump\t// in\n    tag_217:\n        /* \"#utility.yul\":5644:5783   */\n      swap1\n      pop\n        /* \"#utility.yul\":5371:5790   */\n      swap2\n      swap1\n      pop\n      jump\t// out\n        /* \"#utility.yul\":5796:5975   */\n    tag_147:\n        /* \"#utility.yul\":5936:5967   */\n      0x4572726f72203a205468652047616d65206973206e6f7420656e646564000000\n        /* \"#utility.yul\":5932:5933   */\n      0x00\n        /* \"#utility.yul\":5924:5930   */\n      dup3\n        /* \"#utility.yul\":5920:5934   */\n      add\n        /* \"#utility.yul\":5913:5968   */\n      mstore\n        /* \"#utility.yul\":5796:5975   */\n      pop\n      jump\t// out\n        /* \"#utility.yul\":5981:6347   */\n    tag_148:\n        /* \"#utility.yul\":6123:6126   */\n      0x00\n        /* \"#utility.yul\":6144:6211   */\n      tag_220\n        /* \"#utility.yul\":6208:6210   */\n      0x1d\n        /* \"#utility.yul\":6203:6206   */\n      dup4\n        /* \"#utility.yul\":6144:6211   */\n      tag_144\n      jump\t// in\n    tag_220:\n        /* \"#utility.yul\":6137:6211   */\n      swap2\n      pop\n        /* \"#utility.yul\":6220:6313   */\n      tag_221\n        /* \"#utility.yul\":6309:6312   */\n      dup3\n        /* \"#utility.yul\":6220:6313   */\n      tag_147\n      jump\t// in\n    tag_221:\n        /* \"#utility.yul\":6338:6340   */\n      0x20\n        /* \"#utility.yul\":6333:6336   */\n      dup3\n        /* \"#utility.yul\":6329:6341   */\n      add\n        /* \"#utility.yul\":6322:6341   */\n      swap1\n      pop\n        /* \"#utility.yul\":5981:6347   */\n      swap2\n      swap1\n      pop\n      jump\t// out\n        /* \"#utility.yul\":6353:6772   */\n    tag_55:\n        /* \"#utility.yul\":6519:6523   */\n      0x00\n        /* \"#utility.yul\":6557:6559   */\n      0x20\n        /* \"#utility.yul\":6546:6555   */\n      dup3\n        /* \"#utility.yul\":6542:6560   */\n      add\n        /* \"#utility.yul\":6534:6560   */\n      swap1\n      pop\n        /* \"#utility.yul\":6606:6615   */\n      dup2\n        /* \"#utility.yul\":6600:6604   */\n      dup2\n        /* \"#utility.yul\":6596:6616   */\n      sub\n        /* \"#utility.yul\":6592:6593   */\n      0x00\n        /* \"#utility.yul\":6581:6590   */\n      dup4\n        /* \"#utility.yul\":6577:6594   */\n      add\n        /* \"#utility.yul\":6570:6617   */\n      mstore\n        /* \"#utility.yul\":6634:6765   */\n      tag_223\n        /* \"#utility.yul\":6760:6764   */\n      dup2\n        /* \"#utility.yul\":6634:6765   */\n      tag_148\n      jump\t// in\n    tag_223:\n        /* \"#utility.yul\":6626:6765   */\n      swap1\n      pop\n        /* \"#utility.yul\":6353:6772   */\n      swap2\n      swap1\n      pop\n      jump\t// out\n        /* \"#utility.yul\":6778:6958   */\n    tag_149:\n        /* \"#utility.yul\":6826:6903   */\n      0x4e487b7100000000000000000000000000000000000000000000000000000000\n        /* \"#utility.yul\":6823:6824   */\n      0x00\n        /* \"#utility.yul\":6816:6904   */\n      mstore\n        /* \"#utility.yul\":6923:6927   */\n      0x12\n        /* \"#utility.yul\":6920:6921   */\n      0x04\n        /* \"#utility.yul\":6913:6928   */\n      mstore\n        /* \"#utility.yul\":6947:6951   */\n      0x24\n        /* \"#utility.yul\":6944:6945   */\n      0x00\n        /* \"#utility.yul\":6937:6952   */\n      revert\n        /* \"#utility.yul\":6964:7140   */\n    tag_59:\n        /* \"#utility.yul\":6996:6997   */\n      0x00\n        /* \"#utility.yul\":7013:7033   */\n      tag_226\n        /* \"#utility.yul\":7031:7032   */\n      dup3\n        /* \"#utility.yul\":7013:7033   */\n      tag_141\n      jump\t// in\n    tag_226:\n        /* \"#utility.yul\":7008:7033   */\n      swap2\n      pop\n        /* \"#utility.yul\":7047:7067   */\n      tag_227\n        /* \"#utility.yul\":7065:7066   */\n      dup4\n        /* \"#utility.yul\":7047:7067   */\n      tag_141\n      jump\t// in\n    tag_227:\n        /* \"#utility.yul\":7042:7067   */\n      swap3\n      pop\n        /* \"#utility.yul\":7086:7087   */\n      dup3\n        /* \"#utility.yul\":7076:7111   */\n      tag_228\n      jumpi\n        /* \"#utility.yul\":7091:7109   */\n      tag_229\n      tag_149\n      jump\t// in\n    tag_229:\n        /* \"#utility.yul\":7076:7111   */\n    tag_228:\n        /* \"#utility.yul\":7132:7133   */\n      dup3\n        /* \"#utility.yul\":7129:7130   */\n      dup3\n        /* \"#utility.yul\":7125:7134   */\n      mod\n        /* \"#utility.yul\":7120:7134   */\n      swap1\n      pop\n        /* \"#utility.yul\":6964:7140   */\n      swap3\n      swap2\n      pop\n      pop\n      jump\t// out\n        /* \"#utility.yul\":7146:7326   */\n    tag_62:\n        /* \"#utility.yul\":7194:7271   */\n      0x4e487b7100000000000000000000000000000000000000000000000000000000\n        /* \"#utility.yul\":7191:7192   */\n      0x00\n        /* \"#utility.yul\":7184:7272   */\n      mstore\n        /* \"#utility.yul\":7291:7295   */\n      0x32\n        /* \"#utility.yul\":7288:7289   */\n      0x04\n        /* \"#utility.yul\":7281:7296   */\n      mstore\n        /* \"#utility.yul\":7315:7319   */\n      0x24\n        /* \"#utility.yul\":7312:7313   */\n      0x00\n        /* \"#utility.yul\":7305:7320   */\n      revert\n        /* \"#utility.yul\":7332:7563   */\n    tag_150:\n        /* \"#utility.yul\":7472:7506   */\n      0x4572726f72203a204d616e616765722063616e206e6f74206265742074686520\n        /* \"#utility.yul\":7468:7469   */\n      0x00\n        /* \"#utility.yul\":7460:7466   */\n      dup3\n        /* \"#utility.yul\":7456:7470   */\n      add\n        /* \"#utility.yul\":7449:7507   */\n      mstore\n        /* \"#utility.yul\":7541:7555   */\n      0x6c6f74746572792067616d650000000000000000000000000000000000000000\n        /* \"#utility.yul\":7536:7538   */\n      0x20\n        /* \"#utility.yul\":7528:7534   */\n      dup3\n        /* \"#utility.yul\":7524:7539   */\n      add\n        /* \"#utility.yul\":7517:7556   */\n      mstore\n        /* \"#utility.yul\":7332:7563   */\n      pop\n      jump\t// out\n        /* \"#utility.yul\":7569:7935   */\n    tag_151:\n        /* \"#utility.yul\":7711:7714   */\n      0x00\n        /* \"#utility.yul\":7732:7799   */\n      tag_233\n        /* \"#utility.yul\":7796:7798   */\n      0x2c\n        /* \"#utility.yul\":7791:7794   */\n      dup4\n        /* \"#utility.yul\":7732:7799   */\n      tag_144\n      jump\t// in\n    tag_233:\n        /* \"#utility.yul\":7725:7799   */\n      swap2\n      pop\n        /* \"#utility.yul\":7808:7901   */\n      tag_234\n        /* \"#utility.yul\":7897:7900   */\n      dup3\n        /* \"#utility.yul\":7808:7901   */\n      tag_150\n      jump\t// in\n    tag_234:\n        /* \"#utility.yul\":7926:7928   */\n      0x40\n        /* \"#utility.yul\":7921:7924   */\n      dup3\n        /* \"#utility.yul\":7917:7929   */\n      add\n        /* \"#utility.yul\":7910:7929   */\n      swap1\n      pop\n        /* \"#utility.yul\":7569:7935   */\n      swap2\n      swap1\n      pop\n      jump\t// out\n        /* \"#utility.yul\":7941:8360   */\n    tag_81:\n        /* \"#utility.yul\":8107:8111   */\n      0x00\n        /* \"#utility.yul\":8145:8147   */\n      0x20\n        /* \"#utility.yul\":8134:8143   */\n      dup3\n        /* \"#utility.yul\":8130:8148   */\n      add\n        /* \"#utility.yul\":8122:8148   */\n      swap1\n      pop\n        /* \"#utility.yul\":8194:8203   */\n      dup2\n        /* \"#utility.yul\":8188:8192   */\n      dup2\n        /* \"#utility.yul\":8184:8204   */\n      sub\n        /* \"#utility.yul\":8180:8181   */\n      0x00\n        /* \"#utility.yul\":8169:8178   */\n      dup4\n        /* \"#utility.yul\":8165:8182   */\n      add\n        /* \"#utility.yul\":8158:8205   */\n      mstore\n        /* \"#utility.yul\":8222:8353   */\n      tag_236\n        /* \"#utility.yul\":8348:8352   */\n      dup2\n        /* \"#utility.yul\":8222:8353   */\n      tag_151\n      jump\t// in\n    tag_236:\n        /* \"#utility.yul\":8214:8353   */\n      swap1\n      pop\n        /* \"#utility.yul\":7941:8360   */\n      swap2\n      swap1\n      pop\n      jump\t// out\n        /* \"#utility.yul\":8366:8540   */\n    tag_152:\n        /* \"#utility.yul\":8506:8532   */\n      0x4572726f72203a2047616e65206973206e6f74206f70656e0000000000000000\n        /* \"#utility.yul\":8502:8503   */\n      0x00\n        /* \"#utility.yul\":8494:8500   */\n      dup3\n        /* \"#utility.yul\":8490:8504   */\n      add\n        /* \"#utility.yul\":8483:8533   */\n      mstore\n        /* \"#utility.yul\":8366:8540   */\n      pop\n      jump\t// out\n        /* \"#utility.yul\":8546:8912   */\n    tag_153:\n        /* \"#utility.yul\":8688:8691   */\n      0x00\n        /* \"#utility.yul\":8709:8776   */\n      tag_239\n        /* \"#utility.yul\":8773:8775   */\n      0x18\n        /* \"#utility.yul\":8768:8771   */\n      dup4\n        /* \"#utility.yul\":8709:8776   */\n      tag_144\n      jump\t// in\n    tag_239:\n        /* \"#utility.yul\":8702:8776   */\n      swap2\n      pop\n        /* \"#utility.yul\":8785:8878   */\n      tag_240\n        /* \"#utility.yul\":8874:8877   */\n      dup3\n        /* \"#utility.yul\":8785:8878   */\n      tag_152\n      jump\t// in\n    tag_240:\n        /* \"#utility.yul\":8903:8905   */\n      0x20\n        /* \"#utility.yul\":8898:8901   */\n      dup3\n        /* \"#utility.yul\":8894:8906   */\n      add\n        /* \"#utility.yul\":8887:8906   */\n      swap1\n      pop\n        /* \"#utility.yul\":8546:8912   */\n      swap2\n      swap1\n      pop\n      jump\t// out\n        /* \"#utility.yul\":8918:9337   */\n    tag_89:\n        /* \"#utility.yul\":9084:9088   */\n      0x00\n        /* \"#utility.yul\":9122:9124   */\n      0x20\n        /* \"#utility.yul\":9111:9120   */\n      dup3\n        /* \"#utility.yul\":9107:9125   */\n      add\n        /* \"#utility.yul\":9099:9125   */\n      swap1\n      pop\n        /* \"#utility.yul\":9171:9180   */\n      dup2\n        /* \"#utility.yul\":9165:9169   */\n      dup2\n        /* \"#utility.yul\":9161:9181   */\n      sub\n        /* \"#utility.yul\":9157:9158   */\n      0x00\n        /* \"#utility.yul\":9146:9155   */\n      dup4\n        /* \"#utility.yul\":9142:9159   */\n      add\n        /* \"#utility.yul\":9135:9182   */\n      mstore\n        /* \"#utility.yul\":9199:9330   */\n      tag_242\n        /* \"#utility.yul\":9325:9329   */\n      dup2\n        /* \"#utility.yul\":9199:9330   */\n      tag_153\n      jump\t// in\n    tag_242:\n        /* \"#utility.yul\":9191:9330   */\n      swap1\n      pop\n        /* \"#utility.yul\":8918:9337   */\n      swap2\n      swap1\n      pop\n      jump\t// out\n        /* \"#utility.yul\":9343:9516   */\n    tag_154:\n        /* \"#utility.yul\":9483:9508   */\n      0x4f6e6c79203120457468657220697320416c6c6f776564000000000000000000\n        /* \"#utility.yul\":9479:9480   */\n      0x00\n        /* \"#utility.yul\":9471:9477   */\n      dup3\n        /* \"#utility.yul\":9467:9481   */\n      add\n        /* \"#utility.yul\":9460:9509   */\n      mstore\n        /* \"#utility.yul\":9343:9516   */\n      pop\n      jump\t// out\n        /* \"#utility.yul\":9522:9888   */\n    tag_155:\n        /* \"#utility.yul\":9664:9667   */\n      0x00\n        /* \"#utility.yul\":9685:9752   */\n      tag_245\n        /* \"#utility.yul\":9749:9751   */\n      0x17\n        /* \"#utility.yul\":9744:9747   */\n      dup4\n        /* \"#utility.yul\":9685:9752   */\n      tag_144\n      jump\t// in\n    tag_245:\n        /* \"#utility.yul\":9678:9752   */\n      swap2\n      pop\n        /* \"#utility.yul\":9761:9854   */\n      tag_246\n        /* \"#utility.yul\":9850:9853   */\n      dup3\n        /* \"#utility.yul\":9761:9854   */\n      tag_154\n      jump\t// in\n    tag_246:\n        /* \"#utility.yul\":9879:9881   */\n      0x20\n        /* \"#utility.yul\":9874:9877   */\n      dup3\n        /* \"#utility.yul\":9870:9882   */\n      add\n        /* \"#utility.yul\":9863:9882   */\n      swap1\n      pop\n        /* \"#utility.yul\":9522:9888   */\n      swap2\n      swap1\n      pop\n      jump\t// out\n        /* \"#utility.yul\":9894:10313   */\n    tag_92:\n        /* \"#utility.yul\":10060:10064   */\n      0x00\n        /* \"#utility.yul\":10098:10100   */\n      0x20\n        /* \"#utility.yul\":10087:10096   */\n      dup3\n        /* \"#utility.yul\":10083:10101   */\n      add\n        /* \"#utility.yul\":10075:10101   */\n      swap1\n      pop\n        /* \"#utility.yul\":10147:10156   */\n      dup2\n        /* \"#utility.yul\":10141:10145   */\n      dup2\n        /* \"#utility.yul\":10137:10157   */\n      sub\n        /* \"#utility.yul\":10133:10134   */\n      0x00\n        /* \"#utility.yul\":10122:10131   */\n      dup4\n        /* \"#utility.yul\":10118:10135   */\n      add\n        /* \"#utility.yul\":10111:10158   */\n      mstore\n        /* \"#utility.yul\":10175:10306   */\n      tag_248\n        /* \"#utility.yul\":10301:10305   */\n      dup2\n        /* \"#utility.yul\":10175:10306   */\n      tag_155\n      jump\t// in\n    tag_248:\n        /* \"#utility.yul\":10167:10306   */\n      swap1\n      pop\n        /* \"#utility.yul\":9894:10313   */\n      swap2\n      swap1\n      pop\n      jump\t// out\n        /* \"#utility.yul\":10319:10398   */\n    tag_156:\n        /* \"#utility.yul\":10358:10365   */\n      0x00\n        /* \"#utility.yul\":10387:10392   */\n      dup2\n        /* \"#utility.yul\":10376:10392   */\n      swap1\n      pop\n        /* \"#utility.yul\":10319:10398   */\n      swap2\n      swap1\n      pop\n      jump\t// out\n        /* \"#utility.yul\":10404:10561   */\n    tag_157:\n        /* \"#utility.yul\":10509:10554   */\n      tag_251\n        /* \"#utility.yul\":10529:10553   */\n      tag_252\n        /* \"#utility.yul\":10547:10552   */\n      dup3\n        /* \"#utility.yul\":10529:10553   */\n      tag_141\n      jump\t// in\n    tag_252:\n        /* \"#utility.yul\":10509:10554   */\n      tag_156\n      jump\t// in\n    tag_251:\n        /* \"#utility.yul\":10504:10507   */\n      dup3\n        /* \"#utility.yul\":10497:10555   */\n      mstore\n        /* \"#utility.yul\":10404:10561   */\n      pop\n      pop\n      jump\t// out\n        /* \"#utility.yul\":10567:11105   */\n    tag_108:\n        /* \"#utility.yul\":10735:10738   */\n      0x00\n        /* \"#utility.yul\":10750:10825   */\n      tag_254\n        /* \"#utility.yul\":10821:10824   */\n      dup3\n        /* \"#utility.yul\":10812:10818   */\n      dup7\n        /* \"#utility.yul\":10750:10825   */\n      tag_157\n      jump\t// in\n    tag_254:\n        /* \"#utility.yul\":10850:10852   */\n      0x20\n        /* \"#utility.yul\":10845:10848   */\n      dup3\n        /* \"#utility.yul\":10841:10853   */\n      add\n        /* \"#utility.yul\":10834:10853   */\n      swap2\n      pop\n        /* \"#utility.yul\":10863:10938   */\n      tag_255\n        /* \"#utility.yul\":10934:10937   */\n      dup3\n        /* \"#utility.yul\":10925:10931   */\n      dup6\n        /* \"#utility.yul\":10863:10938   */\n      tag_157\n      jump\t// in\n    tag_255:\n        /* \"#utility.yul\":10963:10965   */\n      0x20\n        /* \"#utility.yul\":10958:10961   */\n      dup3\n        /* \"#utility.yul\":10954:10966   */\n      add\n        /* \"#utility.yul\":10947:10966   */\n      swap2\n      pop\n        /* \"#utility.yul\":10976:11051   */\n      tag_256\n        /* \"#utility.yul\":11047:11050   */\n      dup3\n        /* \"#utility.yul\":11038:11044   */\n      dup5\n        /* \"#utility.yul\":10976:11051   */\n      tag_157\n      jump\t// in\n    tag_256:\n        /* \"#utility.yul\":11076:11078   */\n      0x20\n        /* \"#utility.yul\":11071:11074   */\n      dup3\n        /* \"#utility.yul\":11067:11079   */\n      add\n        /* \"#utility.yul\":11060:11079   */\n      swap2\n      pop\n        /* \"#utility.yul\":11096:11099   */\n      dup2\n        /* \"#utility.yul\":11089:11099   */\n      swap1\n      pop\n        /* \"#utility.yul\":10567:11105   */\n      swap5\n      swap4\n      pop\n      pop\n      pop\n      pop\n      jump\t// out\n        /* \"#utility.yul\":11111:11291   */\n    tag_158:\n        /* \"#utility.yul\":11159:11236   */\n      0x4e487b7100000000000000000000000000000000000000000000000000000000\n        /* \"#utility.yul\":11156:11157   */\n      0x00\n        /* \"#utility.yul\":11149:11237   */\n      mstore\n        /* \"#utility.yul\":11256:11260   */\n      0x11\n        /* \"#utility.yul\":11253:11254   */\n      0x04\n        /* \"#utility.yul\":11246:11261   */\n      mstore\n        /* \"#utility.yul\":11280:11284   */\n      0x24\n        /* \"#utility.yul\":11277:11278   */\n      0x00\n        /* \"#utility.yul\":11270:11285   */\n      revert\n        /* \"#utility.yul\":11297:11530   */\n    tag_118:\n        /* \"#utility.yul\":11336:11339   */\n      0x00\n        /* \"#utility.yul\":11359:11383   */\n      tag_259\n        /* \"#utility.yul\":11377:11382   */\n      dup3\n        /* \"#utility.yul\":11359:11383   */\n      tag_141\n      jump\t// in\n    tag_259:\n        /* \"#utility.yul\":11350:11383   */\n      swap2\n      pop\n        /* \"#utility.yul\":11405:11471   */\n      0xffffffffffffffffffffffffffffffffffffffffffffffffffffffffffffffff\n        /* \"#utility.yul\":11398:11403   */\n      dup3\n        /* \"#utility.yul\":11395:11472   */\n      sub\n        /* \"#utility.yul\":11392:11495   */\n      tag_260\n      jumpi\n        /* \"#utility.yul\":11475:11493   */\n      tag_261\n      tag_158\n      jump\t// in\n    tag_261:\n        /* \"#utility.yul\":11392:11495   */\n    tag_260:\n        /* \"#utility.yul\":11522:11523   */\n      0x01\n        /* \"#utility.yul\":11515:11520   */\n      dup3\n        /* \"#utility.yul\":11511:11524   */\n      add\n        /* \"#utility.yul\":11504:11524   */\n      swap1\n      pop\n        /* \"#utility.yul\":11297:11530   */\n      swap2\n      swap1\n      pop\n      jump\t// out\n\n    auxdata: 0xa2646970667358221220f98589aff783a0f25d5b2b314e9cbecda67a859d3b7260bd0efe4e0b8d208c9564736f6c63430008120033\n}\n",
				"bytecode": {
					"linkReferences": {},
					"object": "60806040526001600260016101000a81548160ff02191690831515021790555034801561002b57600080fd5b50336000806101000a81548173ffffffffffffffffffffffffffffffffffffffff021916908373ffffffffffffffffffffffffffffffffffffffff160217905550610f698061007b6000396000f3fe60806040526004361061007b5760003560e01c8063b12cf0321161004e578063b12cf03214610104578063e97dcb621461012f578063f71d96cb14610139578063fa12d782146101765761007b565b8063481c6a75146100805780635d495aea146100ab578063786b844b146100c25780638b5b9ccc146100d9575b600080fd5b34801561008c57600080fd5b5061009561018d565b6040516100a29190610961565b60405180910390f35b3480156100b757600080fd5b506100c06101b1565b005b3480156100ce57600080fd5b506100d76103a3565b005b3480156100e557600080fd5b506100ee61045e565b6040516100fb9190610a3a565b60405180910390f35b34801561011057600080fd5b506101196104ec565b6040516101269190610ad3565b60405180910390f35b6101376104ff565b005b34801561014557600080fd5b50610160600480360381019061015b9190610b29565b6106fd565b60405161016d9190610961565b60405180910390f35b34801561018257600080fd5b5061018b61073c565b005b60008054906101000a900473ffffffffffffffffffffffffffffffffffffffff1681565b60008054906101000a900473ffffffffffffffffffffffffffffffffffffffff1673ffffffffffffffffffffffffffffffffffffffff163373ffffffffffffffffffffffffffffffffffffffff161461023f576040517f08c379a000000000000000000000000000000000000000000000000000000000815260040161023690610bd9565b60405180910390fd5b60018081111561025257610251610a5c565b5b600260009054906101000a900460ff16600181111561027457610273610a5c565b5b146102b4576040517f08c379a00000000000000000000000000000000000000000000000000000000081526004016102ab90610c45565b60405180910390fd5b60006001805490506102c46107f7565b6102ce9190610c94565b90506000600182815481106102e6576102e5610cc5565b5b9060005260206000200160009054906101000a900473ffffffffffffffffffffffffffffffffffffffff1690506001600061032191906108e2565b8073ffffffffffffffffffffffffffffffffffffffff166108fc479081150290604051600060405180830381858888f19350505050158015610367573d6000803e3d6000fd5b507f745c90b656b4aafe296c8ca35aeacfe56cb96c90e1d320e5da643fff1051b6c0816040516103979190610961565b60405180910390a15050565b60008054906101000a900473ffffffffffffffffffffffffffffffffffffffff1673ffffffffffffffffffffffffffffffffffffffff163373ffffffffffffffffffffffffffffffffffffffff1614610431576040517f08c379a000000000000000000000000000000000000000000000000000000000815260040161042890610bd9565b60405180910390fd5b6001600260006101000a81548160ff0219169083600181111561045757610456610a5c565b5b0217905550565b606060018054806020026020016040519081016040528092919081815260200182805480156104e257602002820191906000526020600020905b8160009054906101000a900473ffffffffffffffffffffffffffffffffffffffff1673ffffffffffffffffffffffffffffffffffffffff1681526020019060010190808311610498575b5050505050905090565b600260009054906101000a900460ff1681565b60008054906101000a900473ffffffffffffffffffffffffffffffffffffffff1673ffffffffffffffffffffffffffffffffffffffff163373ffffffffffffffffffffffffffffffffffffffff160361058d576040517f08c379a000000000000000000000000000000000000000000000000000000000815260040161058490610d66565b60405180910390fd5b600060018111156105a1576105a0610a5c565b5b600260009054906101000a900460ff1660018111156105c3576105c2610a5c565b5b14610603576040517f08c379a00000000000000000000000000000000000000000000000000000000081526004016105fa90610dd2565b60405180910390fd5b670de0b6b3a7640000341461064d576040517f08c379a000000000000000000000000000000000000000000000000000000000815260040161064490610e3e565b60405180910390fd5b60001515610659610836565b1515036106fb576001339080600181540180825580915050600190039060005260206000200160009091909190916101000a81548173ffffffffffffffffffffffffffffffffffffffff021916908373ffffffffffffffffffffffffffffffffffffffff1602179055507f4d999952f9aa655a216ee2df5968ca0e670e9582ddc96cfe7d8168114b8ca37f336040516106f29190610961565b60405180910390a15b565b6001818154811061070d57600080fd5b906000526020600020016000915054906101000a900473ffffffffffffffffffffffffffffffffffffffff1681565b60008054906101000a900473ffffffffffffffffffffffffffffffffffffffff1673ffffffffffffffffffffffffffffffffffffffff163373ffffffffffffffffffffffffffffffffffffffff16146107ca576040517f08c379a00000000000000000000000000000000000000000000000000000000081526004016107c190610bd9565b60405180910390fd5b6000600260006101000a81548160ff021916908360018111156107f0576107ef610a5c565b5b0217905550565b600080434260018054905060405160200161081493929190610e7f565b6040516020818303038152906040528051906020012060001c90508091505090565b600080600090505b6001805490508110156108d9573373ffffffffffffffffffffffffffffffffffffffff166001828154811061087657610875610cc5565b5b9060005260206000200160009054906101000a900473ffffffffffffffffffffffffffffffffffffffff1673ffffffffffffffffffffffffffffffffffffffff16036108c65760019150506108df565b80806108d190610eeb565b91505061083e565b50600090505b90565b50805460008255906000526020600020908101906109009190610903565b50565b5b8082111561091c576000816000905550600101610904565b5090565b600073ffffffffffffffffffffffffffffffffffffffff82169050919050565b600061094b82610920565b9050919050565b61095b81610940565b82525050565b60006020820190506109766000830184610952565b92915050565b600081519050919050565b600082825260208201905092915050565b6000819050602082019050919050565b6109b181610940565b82525050565b60006109c383836109a8565b60208301905092915050565b6000602082019050919050565b60006109e78261097c565b6109f18185610987565b93506109fc83610998565b8060005b83811015610a2d578151610a1488826109b7565b9750610a1f836109cf565b925050600181019050610a00565b5085935050505092915050565b60006020820190508181036000830152610a5481846109dc565b905092915050565b7f4e487b7100000000000000000000000000000000000000000000000000000000600052602160045260246000fd5b60028110610a9c57610a9b610a5c565b5b50565b6000819050610aad82610a8b565b919050565b6000610abd82610a9f565b9050919050565b610acd81610ab2565b82525050565b6000602082019050610ae86000830184610ac4565b92915050565b600080fd5b6000819050919050565b610b0681610af3565b8114610b1157600080fd5b50565b600081359050610b2381610afd565b92915050565b600060208284031215610b3f57610b3e610aee565b5b6000610b4d84828501610b14565b91505092915050565b600082825260208201905092915050565b7f4572726f72203a204f6e6c7920746865206d616e616765722063616e2063616c60008201527f6c20746869732066756e6374696f6e0000000000000000000000000000000000602082015250565b6000610bc3602f83610b56565b9150610bce82610b67565b604082019050919050565b60006020820190508181036000830152610bf281610bb6565b9050919050565b7f4572726f72203a205468652047616d65206973206e6f7420656e646564000000600082015250565b6000610c2f601d83610b56565b9150610c3a82610bf9565b602082019050919050565b60006020820190508181036000830152610c5e81610c22565b9050919050565b7f4e487b7100000000000000000000000000000000000000000000000000000000600052601260045260246000fd5b6000610c9f82610af3565b9150610caa83610af3565b925082610cba57610cb9610c65565b5b828206905092915050565b7f4e487b7100000000000000000000000000000000000000000000000000000000600052603260045260246000fd5b7f4572726f72203a204d616e616765722063616e206e6f7420626574207468652060008201527f6c6f74746572792067616d650000000000000000000000000000000000000000602082015250565b6000610d50602c83610b56565b9150610d5b82610cf4565b604082019050919050565b60006020820190508181036000830152610d7f81610d43565b9050919050565b7f4572726f72203a2047616e65206973206e6f74206f70656e0000000000000000600082015250565b6000610dbc601883610b56565b9150610dc782610d86565b602082019050919050565b60006020820190508181036000830152610deb81610daf565b9050919050565b7f4f6e6c79203120457468657220697320416c6c6f776564000000000000000000600082015250565b6000610e28601783610b56565b9150610e3382610df2565b602082019050919050565b60006020820190508181036000830152610e5781610e1b565b9050919050565b6000819050919050565b610e79610e7482610af3565b610e5e565b82525050565b6000610e8b8286610e68565b602082019150610e9b8285610e68565b602082019150610eab8284610e68565b602082019150819050949350505050565b7f4e487b7100000000000000000000000000000000000000000000000000000000600052601160045260246000fd5b6000610ef682610af3565b91507fffffffffffffffffffffffffffffffffffffffffffffffffffffffffffffffff8203610f2857610f27610ebc565b5b60018201905091905056fea2646970667358221220f98589aff783a0f25d5b2b314e9cbecda67a859d3b7260bd0efe4e0b8d208c9564736f6c63430008120033",
					"opcodes": "PUSH1 0x80 PUSH1 0x40 MSTORE PUSH1 0x1 PUSH1 0x2 PUSH1 0x1 PUSH2 0x100 EXP DUP2 SLOAD DUP2 PUSH1 0xFF MUL NOT AND SWAP1 DUP4 ISZERO ISZERO MUL OR SWAP1 SSTORE POP CALLVALUE DUP1 ISZERO PUSH2 0x2B JUMPI PUSH1 0x0 DUP1 REVERT JUMPDEST POP CALLER PUSH1 0x0 DUP1 PUSH2 0x100 EXP DUP2 SLOAD DUP2 PUSH20 0xFFFFFFFFFFFFFFFFFFFFFFFFFFFFFFFFFFFFFFFF MUL NOT AND SWAP1 DUP4 PUSH20 0xFFFFFFFFFFFFFFFFFFFFFFFFFFFFFFFFFFFFFFFF AND MUL OR SWAP1 SSTORE POP PUSH2 0xF69 DUP1 PUSH2 0x7B PUSH1 0x0 CODECOPY PUSH1 0x0 RETURN INVALID PUSH1 0x80 PUSH1 0x40 MSTORE PUSH1 0x4 CALLDATASIZE LT PUSH2 0x7B JUMPI PUSH1 0x0 CALLDATALOAD PUSH1 0xE0 SHR DUP1 PUSH4 0xB12CF032 GT PUSH2 0x4E JUMPI DUP1 PUSH4 0xB12CF032 EQ PUSH2 0x104 JUMPI DUP1 PUSH4 0xE97DCB62 EQ PUSH2 0x12F JUMPI DUP1 PUSH4 0xF71D96CB EQ PUSH2 0x139 JUMPI DUP1 PUSH4 0xFA12D782 EQ PUSH2 0x176 JUMPI PUSH2 0x7B JUMP JUMPDEST DUP1 PUSH4 0x481C6A75 EQ PUSH2 0x80 JUMPI DUP1 PUSH4 0x5D495AEA EQ PUSH2 0xAB JUMPI DUP1 PUSH4 0x786B844B EQ PUSH2 0xC2 JUMPI DUP1 PUSH4 0x8B5B9CCC EQ PUSH2 0xD9 JUMPI JUMPDEST PUSH1 0x0 DUP1 REVERT JUMPDEST CALLVALUE DUP1 ISZERO PUSH2 0x8C JUMPI PUSH1 0x0 DUP1 REVERT JUMPDEST POP PUSH2 0x95 PUSH2 0x18D JUMP JUMPDEST PUSH1 0x40 MLOAD PUSH2 0xA2 SWAP2 SWAP1 PUSH2 0x961 JUMP JUMPDEST PUSH1 0x40 MLOAD DUP1 SWAP2 SUB SWAP1 RETURN JUMPDEST CALLVALUE DUP1 ISZERO PUSH2 0xB7 JUMPI PUSH1 0x0 DUP1 REVERT JUMPDEST POP PUSH2 0xC0 PUSH2 0x1B1 JUMP JUMPDEST STOP JUMPDEST CALLVALUE DUP1 ISZERO PUSH2 0xCE JUMPI PUSH1 0x0 DUP1 REVERT JUMPDEST POP PUSH2 0xD7 PUSH2 0x3A3 JUMP JUMPDEST STOP JUMPDEST CALLVALUE DUP1 ISZERO PUSH2 0xE5 JUMPI PUSH1 0x0 DUP1 REVERT JUMPDEST POP PUSH2 0xEE PUSH2 0x45E JUMP JUMPDEST PUSH1 0x40 MLOAD PUSH2 0xFB SWAP2 SWAP1 PUSH2 0xA3A JUMP JUMPDEST PUSH1 0x40 MLOAD DUP1 SWAP2 SUB SWAP1 RETURN JUMPDEST CALLVALUE DUP1 ISZERO PUSH2 0x110 JUMPI PUSH1 0x0 DUP1 REVERT JUMPDEST POP PUSH2 0x119 PUSH2 0x4EC JUMP JUMPDEST PUSH1 0x40 MLOAD PUSH2 0x126 SWAP2 SWAP1 PUSH2 0xAD3 JUMP JUMPDEST PUSH1 0x40 MLOAD DUP1 SWAP2 SUB SWAP1 RETURN JUMPDEST PUSH2 0x137 PUSH2 0x4FF JUMP JUMPDEST STOP JUMPDEST CALLVALUE DUP1 ISZERO PUSH2 0x145 JUMPI PUSH1 0x0 DUP1 REVERT JUMPDEST POP PUSH2 0x160 PUSH1 0x4 DUP1 CALLDATASIZE SUB DUP2 ADD SWAP1 PUSH2 0x15B SWAP2 SWAP1 PUSH2 0xB29 JUMP JUMPDEST PUSH2 0x6FD JUMP JUMPDEST PUSH1 0x40 MLOAD PUSH2 0x16D SWAP2 SWAP1 PUSH2 0x961 JUMP JUMPDEST PUSH1 0x40 MLOAD DUP1 SWAP2 SUB SWAP1 RETURN JUMPDEST CALLVALUE DUP1 ISZERO PUSH2 0x182 JUMPI PUSH1 0x0 DUP1 REVERT JUMPDEST POP PUSH2 0x18B PUSH2 0x73C JUMP JUMPDEST STOP JUMPDEST PUSH1 0x0 DUP1 SLOAD SWAP1 PUSH2 0x100 EXP SWAP1 DIV PUSH20 0xFFFFFFFFFFFFFFFFFFFFFFFFFFFFFFFFFFFFFFFF AND DUP2 JUMP JUMPDEST PUSH1 0x0 DUP1 SLOAD SWAP1 PUSH2 0x100 EXP SWAP1 DIV PUSH20 0xFFFFFFFFFFFFFFFFFFFFFFFFFFFFFFFFFFFFFFFF AND PUSH20 0xFFFFFFFFFFFFFFFFFFFFFFFFFFFFFFFFFFFFFFFF AND CALLER PUSH20 0xFFFFFFFFFFFFFFFFFFFFFFFFFFFFFFFFFFFFFFFF AND EQ PUSH2 0x23F JUMPI PUSH1 0x40 MLOAD PUSH32 0x8C379A000000000000000000000000000000000000000000000000000000000 DUP2 MSTORE PUSH1 0x4 ADD PUSH2 0x236 SWAP1 PUSH2 0xBD9 JUMP JUMPDEST PUSH1 0x40 MLOAD DUP1 SWAP2 SUB SWAP1 REVERT JUMPDEST PUSH1 0x1 DUP1 DUP2 GT ISZERO PUSH2 0x252 JUMPI PUSH2 0x251 PUSH2 0xA5C JUMP JUMPDEST JUMPDEST PUSH1 0x2 PUSH1 0x0 SWAP1 SLOAD SWAP1 PUSH2 0x100 EXP SWAP1 DIV PUSH1 0xFF AND PUSH1 0x1 DUP2 GT ISZERO PUSH2 0x274 JUMPI PUSH2 0x273 PUSH2 0xA5C JUMP JUMPDEST JUMPDEST EQ PUSH2 0x2B4 JUMPI PUSH1 0x40 MLOAD PUSH32 0x8C379A000000000000000000000000000000000000000000000000000000000 DUP2 MSTORE PUSH1 0x4 ADD PUSH2 0x2AB SWAP1 PUSH2 0xC45 JUMP JUMPDEST PUSH1 0x40 MLOAD DUP1 SWAP2 SUB SWAP1 REVERT JUMPDEST PUSH1 0x0 PUSH1 0x1 DUP1 SLOAD SWAP1 POP PUSH2 0x2C4 PUSH2 0x7F7 JUMP JUMPDEST PUSH2 0x2CE SWAP2 SWAP1 PUSH2 0xC94 JUMP JUMPDEST SWAP1 POP PUSH1 0x0 PUSH1 0x1 DUP3 DUP2 SLOAD DUP2 LT PUSH2 0x2E6 JUMPI PUSH2 0x2E5 PUSH2 0xCC5 JUMP JUMPDEST JUMPDEST SWAP1 PUSH1 0x0 MSTORE PUSH1 0x20 PUSH1 0x0 KECCAK256 ADD PUSH1 0x0 SWAP1 SLOAD SWAP1 PUSH2 0x100 EXP SWAP1 DIV PUSH20 0xFFFFFFFFFFFFFFFFFFFFFFFFFFFFFFFFFFFFFFFF AND SWAP1 POP PUSH1 0x1 PUSH1 0x0 PUSH2 0x321 SWAP2 SWAP1 PUSH2 0x8E2 JUMP JUMPDEST DUP1 PUSH20 0xFFFFFFFFFFFFFFFFFFFFFFFFFFFFFFFFFFFFFFFF AND PUSH2 0x8FC SELFBALANCE SWAP1 DUP2 ISZERO MUL SWAP1 PUSH1 0x40 MLOAD PUSH1 0x0 PUSH1 0x40 MLOAD DUP1 DUP4 SUB DUP2 DUP6 DUP9 DUP9 CALL SWAP4 POP POP POP POP ISZERO DUP1 ISZERO PUSH2 0x367 JUMPI RETURNDATASIZE PUSH1 0x0 DUP1 RETURNDATACOPY RETURNDATASIZE PUSH1 0x0 REVERT JUMPDEST POP PUSH32 0x745C90B656B4AAFE296C8CA35AEACFE56CB96C90E1D320E5DA643FFF1051B6C0 DUP2 PUSH1 0x40 MLOAD PUSH2 0x397 SWAP2 SWAP1 PUSH2 0x961 JUMP JUMPDEST PUSH1 0x40 MLOAD DUP1 SWAP2 SUB SWAP1 LOG1 POP POP JUMP JUMPDEST PUSH1 0x0 DUP1 SLOAD SWAP1 PUSH2 0x100 EXP SWAP1 DIV PUSH20 0xFFFFFFFFFFFFFFFFFFFFFFFFFFFFFFFFFFFFFFFF AND PUSH20 0xFFFFFFFFFFFFFFFFFFFFFFFFFFFFFFFFFFFFFFFF AND CALLER PUSH20 0xFFFFFFFFFFFFFFFFFFFFFFFFFFFFFFFFFFFFFFFF AND EQ PUSH2 0x431 JUMPI PUSH1 0x40 MLOAD PUSH32 0x8C379A000000000000000000000000000000000000000000000000000000000 DUP2 MSTORE PUSH1 0x4 ADD PUSH2 0x428 SWAP1 PUSH2 0xBD9 JUMP JUMPDEST PUSH1 0x40 MLOAD DUP1 SWAP2 SUB SWAP1 REVERT JUMPDEST PUSH1 0x1 PUSH1 0x2 PUSH1 0x0 PUSH2 0x100 EXP DUP2 SLOAD DUP2 PUSH1 0xFF MUL NOT AND SWAP1 DUP4 PUSH1 0x1 DUP2 GT ISZERO PUSH2 0x457 JUMPI PUSH2 0x456 PUSH2 0xA5C JUMP JUMPDEST JUMPDEST MUL OR SWAP1 SSTORE POP JUMP JUMPDEST PUSH1 0x60 PUSH1 0x1 DUP1 SLOAD DUP1 PUSH1 0x20 MUL PUSH1 0x20 ADD PUSH1 0x40 MLOAD SWAP1 DUP2 ADD PUSH1 0x40 MSTORE DUP1 SWAP3 SWAP2 SWAP1 DUP2 DUP2 MSTORE PUSH1 0x20 ADD DUP3 DUP1 SLOAD DUP1 ISZERO PUSH2 0x4E2 JUMPI PUSH1 0x20 MUL DUP3 ADD SWAP2 SWAP1 PUSH1 0x0 MSTORE PUSH1 0x20 PUSH1 0x0 KECCAK256 SWAP1 JUMPDEST DUP2 PUSH1 0x0 SWAP1 SLOAD SWAP1 PUSH2 0x100 EXP SWAP1 DIV PUSH20 0xFFFFFFFFFFFFFFFFFFFFFFFFFFFFFFFFFFFFFFFF AND PUSH20 0xFFFFFFFFFFFFFFFFFFFFFFFFFFFFFFFFFFFFFFFF AND DUP2 MSTORE PUSH1 0x20 ADD SWAP1 PUSH1 0x1 ADD SWAP1 DUP1 DUP4 GT PUSH2 0x498 JUMPI JUMPDEST POP POP POP POP POP SWAP1 POP SWAP1 JUMP JUMPDEST PUSH1 0x2 PUSH1 0x0 SWAP1 SLOAD SWAP1 PUSH2 0x100 EXP SWAP1 DIV PUSH1 0xFF AND DUP2 JUMP JUMPDEST PUSH1 0x0 DUP1 SLOAD SWAP1 PUSH2 0x100 EXP SWAP1 DIV PUSH20 0xFFFFFFFFFFFFFFFFFFFFFFFFFFFFFFFFFFFFFFFF AND PUSH20 0xFFFFFFFFFFFFFFFFFFFFFFFFFFFFFFFFFFFFFFFF AND CALLER PUSH20 0xFFFFFFFFFFFFFFFFFFFFFFFFFFFFFFFFFFFFFFFF AND SUB PUSH2 0x58D JUMPI PUSH1 0x40 MLOAD PUSH32 0x8C379A000000000000000000000000000000000000000000000000000000000 DUP2 MSTORE PUSH1 0x4 ADD PUSH2 0x584 SWAP1 PUSH2 0xD66 JUMP JUMPDEST PUSH1 0x40 MLOAD DUP1 SWAP2 SUB SWAP1 REVERT JUMPDEST PUSH1 0x0 PUSH1 0x1 DUP2 GT ISZERO PUSH2 0x5A1 JUMPI PUSH2 0x5A0 PUSH2 0xA5C JUMP JUMPDEST JUMPDEST PUSH1 0x2 PUSH1 0x0 SWAP1 SLOAD SWAP1 PUSH2 0x100 EXP SWAP1 DIV PUSH1 0xFF AND PUSH1 0x1 DUP2 GT ISZERO PUSH2 0x5C3 JUMPI PUSH2 0x5C2 PUSH2 0xA5C JUMP JUMPDEST JUMPDEST EQ PUSH2 0x603 JUMPI PUSH1 0x40 MLOAD PUSH32 0x8C379A000000000000000000000000000000000000000000000000000000000 DUP2 MSTORE PUSH1 0x4 ADD PUSH2 0x5FA SWAP1 PUSH2 0xDD2 JUMP JUMPDEST PUSH1 0x40 MLOAD DUP1 SWAP2 SUB SWAP1 REVERT JUMPDEST PUSH8 0xDE0B6B3A7640000 CALLVALUE EQ PUSH2 0x64D JUMPI PUSH1 0x40 MLOAD PUSH32 0x8C379A000000000000000000000000000000000000000000000000000000000 DUP2 MSTORE PUSH1 0x4 ADD PUSH2 0x644 SWAP1 PUSH2 0xE3E JUMP JUMPDEST PUSH1 0x40 MLOAD DUP1 SWAP2 SUB SWAP1 REVERT JUMPDEST PUSH1 0x0 ISZERO ISZERO PUSH2 0x659 PUSH2 0x836 JUMP JUMPDEST ISZERO ISZERO SUB PUSH2 0x6FB JUMPI PUSH1 0x1 CALLER SWAP1 DUP1 PUSH1 0x1 DUP2 SLOAD ADD DUP1 DUP3 SSTORE DUP1 SWAP2 POP POP PUSH1 0x1 SWAP1 SUB SWAP1 PUSH1 0x0 MSTORE PUSH1 0x20 PUSH1 0x0 KECCAK256 ADD PUSH1 0x0 SWAP1 SWAP2 SWAP1 SWAP2 SWAP1 SWAP2 PUSH2 0x100 EXP DUP2 SLOAD DUP2 PUSH20 0xFFFFFFFFFFFFFFFFFFFFFFFFFFFFFFFFFFFFFFFF MUL NOT AND SWAP1 DUP4 PUSH20 0xFFFFFFFFFFFFFFFFFFFFFFFFFFFFFFFFFFFFFFFF AND MUL OR SWAP1 SSTORE POP PUSH32 0x4D999952F9AA655A216EE2DF5968CA0E670E9582DDC96CFE7D8168114B8CA37F CALLER PUSH1 0x40 MLOAD PUSH2 0x6F2 SWAP2 SWAP1 PUSH2 0x961 JUMP JUMPDEST PUSH1 0x40 MLOAD DUP1 SWAP2 SUB SWAP1 LOG1 JUMPDEST JUMP JUMPDEST PUSH1 0x1 DUP2 DUP2 SLOAD DUP2 LT PUSH2 0x70D JUMPI PUSH1 0x0 DUP1 REVERT JUMPDEST SWAP1 PUSH1 0x0 MSTORE PUSH1 0x20 PUSH1 0x0 KECCAK256 ADD PUSH1 0x0 SWAP2 POP SLOAD SWAP1 PUSH2 0x100 EXP SWAP1 DIV PUSH20 0xFFFFFFFFFFFFFFFFFFFFFFFFFFFFFFFFFFFFFFFF AND DUP2 JUMP JUMPDEST PUSH1 0x0 DUP1 SLOAD SWAP1 PUSH2 0x100 EXP SWAP1 DIV PUSH20 0xFFFFFFFFFFFFFFFFFFFFFFFFFFFFFFFFFFFFFFFF AND PUSH20 0xFFFFFFFFFFFFFFFFFFFFFFFFFFFFFFFFFFFFFFFF AND CALLER PUSH20 0xFFFFFFFFFFFFFFFFFFFFFFFFFFFFFFFFFFFFFFFF AND EQ PUSH2 0x7CA JUMPI PUSH1 0x40 MLOAD PUSH32 0x8C379A000000000000000000000000000000000000000000000000000000000 DUP2 MSTORE PUSH1 0x4 ADD PUSH2 0x7C1 SWAP1 PUSH2 0xBD9 JUMP JUMPDEST PUSH1 0x40 MLOAD DUP1 SWAP2 SUB SWAP1 REVERT JUMPDEST PUSH1 0x0 PUSH1 0x2 PUSH1 0x0 PUSH2 0x100 EXP DUP2 SLOAD DUP2 PUSH1 0xFF MUL NOT AND SWAP1 DUP4 PUSH1 0x1 DUP2 GT ISZERO PUSH2 0x7F0 JUMPI PUSH2 0x7EF PUSH2 0xA5C JUMP JUMPDEST JUMPDEST MUL OR SWAP1 SSTORE POP JUMP JUMPDEST PUSH1 0x0 DUP1 NUMBER TIMESTAMP PUSH1 0x1 DUP1 SLOAD SWAP1 POP PUSH1 0x40 MLOAD PUSH1 0x20 ADD PUSH2 0x814 SWAP4 SWAP3 SWAP2 SWAP1 PUSH2 0xE7F JUMP JUMPDEST PUSH1 0x40 MLOAD PUSH1 0x20 DUP2 DUP4 SUB SUB DUP2 MSTORE SWAP1 PUSH1 0x40 MSTORE DUP1 MLOAD SWAP1 PUSH1 0x20 ADD KECCAK256 PUSH1 0x0 SHR SWAP1 POP DUP1 SWAP2 POP POP SWAP1 JUMP JUMPDEST PUSH1 0x0 DUP1 PUSH1 0x0 SWAP1 POP JUMPDEST PUSH1 0x1 DUP1 SLOAD SWAP1 POP DUP2 LT ISZERO PUSH2 0x8D9 JUMPI CALLER PUSH20 0xFFFFFFFFFFFFFFFFFFFFFFFFFFFFFFFFFFFFFFFF AND PUSH1 0x1 DUP3 DUP2 SLOAD DUP2 LT PUSH2 0x876 JUMPI PUSH2 0x875 PUSH2 0xCC5 JUMP JUMPDEST JUMPDEST SWAP1 PUSH1 0x0 MSTORE PUSH1 0x20 PUSH1 0x0 KECCAK256 ADD PUSH1 0x0 SWAP1 SLOAD SWAP1 PUSH2 0x100 EXP SWAP1 DIV PUSH20 0xFFFFFFFFFFFFFFFFFFFFFFFFFFFFFFFFFFFFFFFF AND PUSH20 0xFFFFFFFFFFFFFFFFFFFFFFFFFFFFFFFFFFFFFFFF AND SUB PUSH2 0x8C6 JUMPI PUSH1 0x1 SWAP2 POP POP PUSH2 0x8DF JUMP JUMPDEST DUP1 DUP1 PUSH2 0x8D1 SWAP1 PUSH2 0xEEB JUMP JUMPDEST SWAP2 POP POP PUSH2 0x83E JUMP JUMPDEST POP PUSH1 0x0 SWAP1 POP JUMPDEST SWAP1 JUMP JUMPDEST POP DUP1 SLOAD PUSH1 0x0 DUP3 SSTORE SWAP1 PUSH1 0x0 MSTORE PUSH1 0x20 PUSH1 0x0 KECCAK256 SWAP1 DUP2 ADD SWAP1 PUSH2 0x900 SWAP2 SWAP1 PUSH2 0x903 JUMP JUMPDEST POP JUMP JUMPDEST JUMPDEST DUP1 DUP3 GT ISZERO PUSH2 0x91C JUMPI PUSH1 0x0 DUP2 PUSH1 0x0 SWAP1 SSTORE POP PUSH1 0x1 ADD PUSH2 0x904 JUMP JUMPDEST POP SWAP1 JUMP JUMPDEST PUSH1 0x0 PUSH20 0xFFFFFFFFFFFFFFFFFFFFFFFFFFFFFFFFFFFFFFFF DUP3 AND SWAP1 POP SWAP2 SWAP1 POP JUMP JUMPDEST PUSH1 0x0 PUSH2 0x94B DUP3 PUSH2 0x920 JUMP JUMPDEST SWAP1 POP SWAP2 SWAP1 POP JUMP JUMPDEST PUSH2 0x95B DUP2 PUSH2 0x940 JUMP JUMPDEST DUP3 MSTORE POP POP JUMP JUMPDEST PUSH1 0x0 PUSH1 0x20 DUP3 ADD SWAP1 POP PUSH2 0x976 PUSH1 0x0 DUP4 ADD DUP5 PUSH2 0x952 JUMP JUMPDEST SWAP3 SWAP2 POP POP JUMP JUMPDEST PUSH1 0x0 DUP2 MLOAD SWAP1 POP SWAP2 SWAP1 POP JUMP JUMPDEST PUSH1 0x0 DUP3 DUP3 MSTORE PUSH1 0x20 DUP3 ADD SWAP1 POP SWAP3 SWAP2 POP POP JUMP JUMPDEST PUSH1 0x0 DUP2 SWAP1 POP PUSH1 0x20 DUP3 ADD SWAP1 POP SWAP2 SWAP1 POP JUMP JUMPDEST PUSH2 0x9B1 DUP2 PUSH2 0x940 JUMP JUMPDEST DUP3 MSTORE POP POP JUMP JUMPDEST PUSH1 0x0 PUSH2 0x9C3 DUP4 DUP4 PUSH2 0x9A8 JUMP JUMPDEST PUSH1 0x20 DUP4 ADD SWAP1 POP SWAP3 SWAP2 POP POP JUMP JUMPDEST PUSH1 0x0 PUSH1 0x20 DUP3 ADD SWAP1 POP SWAP2 SWAP1 POP JUMP JUMPDEST PUSH1 0x0 PUSH2 0x9E7 DUP3 PUSH2 0x97C JUMP JUMPDEST PUSH2 0x9F1 DUP2 DUP6 PUSH2 0x987 JUMP JUMPDEST SWAP4 POP PUSH2 0x9FC DUP4 PUSH2 0x998 JUMP JUMPDEST DUP1 PUSH1 0x0 JUMPDEST DUP4 DUP2 LT ISZERO PUSH2 0xA2D JUMPI DUP2 MLOAD PUSH2 0xA14 DUP9 DUP3 PUSH2 0x9B7 JUMP JUMPDEST SWAP8 POP PUSH2 0xA1F DUP4 PUSH2 0x9CF JUMP JUMPDEST SWAP3 POP POP PUSH1 0x1 DUP2 ADD SWAP1 POP PUSH2 0xA00 JUMP JUMPDEST POP DUP6 SWAP4 POP POP POP POP SWAP3 SWAP2 POP POP JUMP JUMPDEST PUSH1 0x0 PUSH1 0x20 DUP3 ADD SWAP1 POP DUP2 DUP2 SUB PUSH1 0x0 DUP4 ADD MSTORE PUSH2 0xA54 DUP2 DUP5 PUSH2 0x9DC JUMP JUMPDEST SWAP1 POP SWAP3 SWAP2 POP POP JUMP JUMPDEST PUSH32 0x4E487B7100000000000000000000000000000000000000000000000000000000 PUSH1 0x0 MSTORE PUSH1 0x21 PUSH1 0x4 MSTORE PUSH1 0x24 PUSH1 0x0 REVERT JUMPDEST PUSH1 0x2 DUP2 LT PUSH2 0xA9C JUMPI PUSH2 0xA9B PUSH2 0xA5C JUMP JUMPDEST JUMPDEST POP JUMP JUMPDEST PUSH1 0x0 DUP2 SWAP1 POP PUSH2 0xAAD DUP3 PUSH2 0xA8B JUMP JUMPDEST SWAP2 SWAP1 POP JUMP JUMPDEST PUSH1 0x0 PUSH2 0xABD DUP3 PUSH2 0xA9F JUMP JUMPDEST SWAP1 POP SWAP2 SWAP1 POP JUMP JUMPDEST PUSH2 0xACD DUP2 PUSH2 0xAB2 JUMP JUMPDEST DUP3 MSTORE POP POP JUMP JUMPDEST PUSH1 0x0 PUSH1 0x20 DUP3 ADD SWAP1 POP PUSH2 0xAE8 PUSH1 0x0 DUP4 ADD DUP5 PUSH2 0xAC4 JUMP JUMPDEST SWAP3 SWAP2 POP POP JUMP JUMPDEST PUSH1 0x0 DUP1 REVERT JUMPDEST PUSH1 0x0 DUP2 SWAP1 POP SWAP2 SWAP1 POP JUMP JUMPDEST PUSH2 0xB06 DUP2 PUSH2 0xAF3 JUMP JUMPDEST DUP2 EQ PUSH2 0xB11 JUMPI PUSH1 0x0 DUP1 REVERT JUMPDEST POP JUMP JUMPDEST PUSH1 0x0 DUP2 CALLDATALOAD SWAP1 POP PUSH2 0xB23 DUP2 PUSH2 0xAFD JUMP JUMPDEST SWAP3 SWAP2 POP POP JUMP JUMPDEST PUSH1 0x0 PUSH1 0x20 DUP3 DUP5 SUB SLT ISZERO PUSH2 0xB3F JUMPI PUSH2 0xB3E PUSH2 0xAEE JUMP JUMPDEST JUMPDEST PUSH1 0x0 PUSH2 0xB4D DUP5 DUP3 DUP6 ADD PUSH2 0xB14 JUMP JUMPDEST SWAP2 POP POP SWAP3 SWAP2 POP POP JUMP JUMPDEST PUSH1 0x0 DUP3 DUP3 MSTORE PUSH1 0x20 DUP3 ADD SWAP1 POP SWAP3 SWAP2 POP POP JUMP JUMPDEST PUSH32 0x4572726F72203A204F6E6C7920746865206D616E616765722063616E2063616C PUSH1 0x0 DUP3 ADD MSTORE PUSH32 0x6C20746869732066756E6374696F6E0000000000000000000000000000000000 PUSH1 0x20 DUP3 ADD MSTORE POP JUMP JUMPDEST PUSH1 0x0 PUSH2 0xBC3 PUSH1 0x2F DUP4 PUSH2 0xB56 JUMP JUMPDEST SWAP2 POP PUSH2 0xBCE DUP3 PUSH2 0xB67 JUMP JUMPDEST PUSH1 0x40 DUP3 ADD SWAP1 POP SWAP2 SWAP1 POP JUMP JUMPDEST PUSH1 0x0 PUSH1 0x20 DUP3 ADD SWAP1 POP DUP2 DUP2 SUB PUSH1 0x0 DUP4 ADD MSTORE PUSH2 0xBF2 DUP2 PUSH2 0xBB6 JUMP JUMPDEST SWAP1 POP SWAP2 SWAP1 POP JUMP JUMPDEST PUSH32 0x4572726F72203A205468652047616D65206973206E6F7420656E646564000000 PUSH1 0x0 DUP3 ADD MSTORE POP JUMP JUMPDEST PUSH1 0x0 PUSH2 0xC2F PUSH1 0x1D DUP4 PUSH2 0xB56 JUMP JUMPDEST SWAP2 POP PUSH2 0xC3A DUP3 PUSH2 0xBF9 JUMP JUMPDEST PUSH1 0x20 DUP3 ADD SWAP1 POP SWAP2 SWAP1 POP JUMP JUMPDEST PUSH1 0x0 PUSH1 0x20 DUP3 ADD SWAP1 POP DUP2 DUP2 SUB PUSH1 0x0 DUP4 ADD MSTORE PUSH2 0xC5E DUP2 PUSH2 0xC22 JUMP JUMPDEST SWAP1 POP SWAP2 SWAP1 POP JUMP JUMPDEST PUSH32 0x4E487B7100000000000000000000000000000000000000000000000000000000 PUSH1 0x0 MSTORE PUSH1 0x12 PUSH1 0x4 MSTORE PUSH1 0x24 PUSH1 0x0 REVERT JUMPDEST PUSH1 0x0 PUSH2 0xC9F DUP3 PUSH2 0xAF3 JUMP JUMPDEST SWAP2 POP PUSH2 0xCAA DUP4 PUSH2 0xAF3 JUMP JUMPDEST SWAP3 POP DUP3 PUSH2 0xCBA JUMPI PUSH2 0xCB9 PUSH2 0xC65 JUMP JUMPDEST JUMPDEST DUP3 DUP3 MOD SWAP1 POP SWAP3 SWAP2 POP POP JUMP JUMPDEST PUSH32 0x4E487B7100000000000000000000000000000000000000000000000000000000 PUSH1 0x0 MSTORE PUSH1 0x32 PUSH1 0x4 MSTORE PUSH1 0x24 PUSH1 0x0 REVERT JUMPDEST PUSH32 0x4572726F72203A204D616E616765722063616E206E6F74206265742074686520 PUSH1 0x0 DUP3 ADD MSTORE PUSH32 0x6C6F74746572792067616D650000000000000000000000000000000000000000 PUSH1 0x20 DUP3 ADD MSTORE POP JUMP JUMPDEST PUSH1 0x0 PUSH2 0xD50 PUSH1 0x2C DUP4 PUSH2 0xB56 JUMP JUMPDEST SWAP2 POP PUSH2 0xD5B DUP3 PUSH2 0xCF4 JUMP JUMPDEST PUSH1 0x40 DUP3 ADD SWAP1 POP SWAP2 SWAP1 POP JUMP JUMPDEST PUSH1 0x0 PUSH1 0x20 DUP3 ADD SWAP1 POP DUP2 DUP2 SUB PUSH1 0x0 DUP4 ADD MSTORE PUSH2 0xD7F DUP2 PUSH2 0xD43 JUMP JUMPDEST SWAP1 POP SWAP2 SWAP1 POP JUMP JUMPDEST PUSH32 0x4572726F72203A2047616E65206973206E6F74206F70656E0000000000000000 PUSH1 0x0 DUP3 ADD MSTORE POP JUMP JUMPDEST PUSH1 0x0 PUSH2 0xDBC PUSH1 0x18 DUP4 PUSH2 0xB56 JUMP JUMPDEST SWAP2 POP PUSH2 0xDC7 DUP3 PUSH2 0xD86 JUMP JUMPDEST PUSH1 0x20 DUP3 ADD SWAP1 POP SWAP2 SWAP1 POP JUMP JUMPDEST PUSH1 0x0 PUSH1 0x20 DUP3 ADD SWAP1 POP DUP2 DUP2 SUB PUSH1 0x0 DUP4 ADD MSTORE PUSH2 0xDEB DUP2 PUSH2 0xDAF JUMP JUMPDEST SWAP1 POP SWAP2 SWAP1 POP JUMP JUMPDEST PUSH32 0x4F6E6C79203120457468657220697320416C6C6F776564000000000000000000 PUSH1 0x0 DUP3 ADD MSTORE POP JUMP JUMPDEST PUSH1 0x0 PUSH2 0xE28 PUSH1 0x17 DUP4 PUSH2 0xB56 JUMP JUMPDEST SWAP2 POP PUSH2 0xE33 DUP3 PUSH2 0xDF2 JUMP JUMPDEST PUSH1 0x20 DUP3 ADD SWAP1 POP SWAP2 SWAP1 POP JUMP JUMPDEST PUSH1 0x0 PUSH1 0x20 DUP3 ADD SWAP1 POP DUP2 DUP2 SUB PUSH1 0x0 DUP4 ADD MSTORE PUSH2 0xE57 DUP2 PUSH2 0xE1B JUMP JUMPDEST SWAP1 POP SWAP2 SWAP1 POP JUMP JUMPDEST PUSH1 0x0 DUP2 SWAP1 POP SWAP2 SWAP1 POP JUMP JUMPDEST PUSH2 0xE79 PUSH2 0xE74 DUP3 PUSH2 0xAF3 JUMP JUMPDEST PUSH2 0xE5E JUMP JUMPDEST DUP3 MSTORE POP POP JUMP JUMPDEST PUSH1 0x0 PUSH2 0xE8B DUP3 DUP7 PUSH2 0xE68 JUMP JUMPDEST PUSH1 0x20 DUP3 ADD SWAP2 POP PUSH2 0xE9B DUP3 DUP6 PUSH2 0xE68 JUMP JUMPDEST PUSH1 0x20 DUP3 ADD SWAP2 POP PUSH2 0xEAB DUP3 DUP5 PUSH2 0xE68 JUMP JUMPDEST PUSH1 0x20 DUP3 ADD SWAP2 POP DUP2 SWAP1 POP SWAP5 SWAP4 POP POP POP POP JUMP JUMPDEST PUSH32 0x4E487B7100000000000000000000000000000000000000000000000000000000 PUSH1 0x0 MSTORE PUSH1 0x11 PUSH1 0x4 MSTORE PUSH1 0x24 PUSH1 0x0 REVERT JUMPDEST PUSH1 0x0 PUSH2 0xEF6 DUP3 PUSH2 0xAF3 JUMP JUMPDEST SWAP2 POP PUSH32 0xFFFFFFFFFFFFFFFFFFFFFFFFFFFFFFFFFFFFFFFFFFFFFFFFFFFFFFFFFFFFFFFF DUP3 SUB PUSH2 0xF28 JUMPI PUSH2 0xF27 PUSH2 0xEBC JUMP JUMPDEST JUMPDEST PUSH1 0x1 DUP3 ADD SWAP1 POP SWAP2 SWAP1 POP JUMP INVALID LOG2 PUSH5 0x6970667358 0x22 SLT KECCAK256 0xF9 DUP6 DUP10 0xAF 0xF7 DUP4 LOG0 CALLCODE 0x5D JUMPDEST 0x2B BALANCE 0x4E SWAP13 0xBE 0xCD 0xA6 PUSH27 0x859D3B7260BD0EFE4E0B8D208C9564736F6C634300081200330000 "
				},
				"gasEstimates": {
					"creation": {
						"codeDepositCost": "789000",
						"executionCost": "49408",
						"totalCost": "838408"
					},
					"external": {
						"closeGame()": "26643",
						"enter()": "infinite",
						"getPlayers()": "infinite",
						"lottoStatus()": "2560",
						"manager()": "2512",
						"openGame()": "26664",
						"pickWinner()": "infinite",
						"players(uint256)": "5000"
					},
					"internal": {
						"checkDup()": "infinite",
						"random()": "infinite"
					}
				},
				"methodIdentifiers": {
					"closeGame()": "786b844b",
					"enter()": "e97dcb62",
					"getPlayers()": "8b5b9ccc",
					"lottoStatus()": "b12cf032",
					"manager()": "481c6a75",
					"openGame()": "fa12d782",
					"pickWinner()": "5d495aea",
					"players(uint256)": "f71d96cb"
				}
			},
			"storageLayout": {
				"storage": [
					{
						"astId": 3,
						"contract": "Lecture Note/week11/LotteryGame.sol:LotteryGame",
						"label": "manager",
						"offset": 0,
						"slot": "0",
						"type": "t_address"
					},
					{
						"astId": 6,
						"contract": "Lecture Note/week11/LotteryGame.sol:LotteryGame",
						"label": "players",
						"offset": 0,
						"slot": "1",
						"type": "t_array(t_address)dyn_storage"
					},
					{
						"astId": 12,
						"contract": "Lecture Note/week11/LotteryGame.sol:LotteryGame",
						"label": "lottoStatus",
						"offset": 0,
						"slot": "2",
						"type": "t_enum(Status)9"
					},
					{
						"astId": 23,
						"contract": "Lecture Note/week11/LotteryGame.sol:LotteryGame",
						"label": "check",
						"offset": 1,
						"slot": "2",
						"type": "t_bool"
					}
				],
				"types": {
					"t_address": {
						"encoding": "inplace",
						"label": "address",
						"numberOfBytes": "20"
					},
					"t_array(t_address)dyn_storage": {
						"base": "t_address",
						"encoding": "dynamic_array",
						"label": "address[]",
						"numberOfBytes": "32"
					},
					"t_bool": {
						"encoding": "inplace",
						"label": "bool",
						"numberOfBytes": "1"
					},
					"t_enum(Status)9": {
						"encoding": "inplace",
						"label": "enum LotteryGame.Status",
						"numberOfBytes": "1"
					}
				}
			},
			"userdoc": {
				"kind": "user",
				"methods": {},
				"version": 1
			}
		}
	}
}