{
	"Lecture Note/week11/LotteryGame.sol": {
		"LotteryGame": {
			"abi": [
				{
					"inputs": [],
					"stateMutability": "nonpayable",
					"type": "constructor"
				},
				{
					"anonymous": false,
					"inputs": [
						{
							"indexed": false,
							"internalType": "address",
							"name": "player",
							"type": "address"
						}
					],
					"name": "PlayerEntered",
					"type": "event"
				},
				{
					"anonymous": false,
					"inputs": [
						{
							"indexed": false,
							"internalType": "address",
							"name": "winner",
							"type": "address"
						}
					],
					"name": "Winner",
					"type": "event"
				},
				{
					"inputs": [],
					"name": "enter",
					"outputs": [],
					"stateMutability": "payable",
					"type": "function"
				},
				{
					"inputs": [],
					"name": "getPlayers",
					"outputs": [
						{
							"internalType": "address[]",
							"name": "",
							"type": "address[]"
						}
					],
					"stateMutability": "view",
					"type": "function"
				},
				{
					"inputs": [],
					"name": "lottoStatus",
					"outputs": [
						{
							"internalType": "enum LotteryGame.Status",
							"name": "",
							"type": "uint8"
						}
					],
					"stateMutability": "view",
					"type": "function"
				},
				{
					"inputs": [],
					"name": "manager",
					"outputs": [
						{
							"internalType": "address",
							"name": "",
							"type": "address"
						}
					],
					"stateMutability": "view",
					"type": "function"
				},
				{
					"inputs": [],
					"name": "openGame",
					"outputs": [],
					"stateMutability": "nonpayable",
					"type": "function"
				},
				{
					"inputs": [],
					"name": "pickWinner",
					"outputs": [],
					"stateMutability": "nonpayable",
					"type": "function"
				},
				{
					"inputs": [
						{
							"internalType": "uint256",
							"name": "",
							"type": "uint256"
						}
					],
					"name": "players",
					"outputs": [
						{
							"internalType": "address",
							"name": "",
							"type": "address"
						}
					],
					"stateMutability": "view",
					"type": "function"
				}
			],
			"devdoc": {
				"kind": "dev",
				"methods": {},
				"version": 1
			},
			"evm": {
				"assembly": "    /* \"Lecture Note/week11/LotteryGame.sol\":58:2106  contract LotteryGame {... */\n  mstore(0x40, 0x80)\n    /* \"Lecture Note/week11/LotteryGame.sol\":318:322  true */\n  0x01\n    /* \"Lecture Note/week11/LotteryGame.sol\":305:322  bool check = true */\n  0x02\n  exp(0x0100, 0x01)\n  dup2\n  sload\n  dup2\n  0xff\n  mul\n  not\n  and\n  swap1\n  dup4\n  iszero\n  iszero\n  mul\n  or\n  swap1\n  sstore\n  pop\n    /* \"Lecture Note/week11/LotteryGame.sol\":599:650  constructor() {... */\n  callvalue\n  dup1\n  iszero\n  tag_1\n  jumpi\n  0x00\n  dup1\n  revert\ntag_1:\n  pop\n    /* \"Lecture Note/week11/LotteryGame.sol\":633:643  msg.sender */\n  caller\n    /* \"Lecture Note/week11/LotteryGame.sol\":623:630  manager */\n  0x00\n  dup1\n    /* \"Lecture Note/week11/LotteryGame.sol\":623:643  manager = msg.sender */\n  0x0100\n  exp\n  dup2\n  sload\n  dup2\n  0xffffffffffffffffffffffffffffffffffffffff\n  mul\n  not\n  and\n  swap1\n  dup4\n  0xffffffffffffffffffffffffffffffffffffffff\n  and\n  mul\n  or\n  swap1\n  sstore\n  pop\n    /* \"Lecture Note/week11/LotteryGame.sol\":58:2106  contract LotteryGame {... */\n  dataSize(sub_0)\n  dup1\n  dataOffset(sub_0)\n  0x00\n  codecopy\n  0x00\n  return\nstop\n\nsub_0: assembly {\n        /* \"Lecture Note/week11/LotteryGame.sol\":58:2106  contract LotteryGame {... */\n      mstore(0x40, 0x80)\n      jumpi(tag_1, lt(calldatasize, 0x04))\n      shr(0xe0, calldataload(0x00))\n      dup1\n      0xb12cf032\n      gt\n      tag_9\n      jumpi\n      dup1\n      0xb12cf032\n      eq\n      tag_5\n      jumpi\n      dup1\n      0xe97dcb62\n      eq\n      tag_6\n      jumpi\n      dup1\n      0xf71d96cb\n      eq\n      tag_7\n      jumpi\n      dup1\n      0xfa12d782\n      eq\n      tag_8\n      jumpi\n      jump(tag_1)\n    tag_9:\n      dup1\n      0x481c6a75\n      eq\n      tag_2\n      jumpi\n      dup1\n      0x5d495aea\n      eq\n      tag_3\n      jumpi\n      dup1\n      0x8b5b9ccc\n      eq\n      tag_4\n      jumpi\n    tag_1:\n      0x00\n      dup1\n      revert\n        /* \"Lecture Note/week11/LotteryGame.sol\":85:107  address public manager */\n    tag_2:\n      callvalue\n      dup1\n      iszero\n      tag_10\n      jumpi\n      0x00\n      dup1\n      revert\n    tag_10:\n      pop\n      tag_11\n      tag_12\n      jump\t// in\n    tag_11:\n      mload(0x40)\n      tag_13\n      swap2\n      swap1\n      tag_14\n      jump\t// in\n    tag_13:\n      mload(0x40)\n      dup1\n      swap2\n      sub\n      swap1\n      return\n        /* \"Lecture Note/week11/LotteryGame.sol\":1663:1990  function pickWinner() ... */\n    tag_3:\n      callvalue\n      dup1\n      iszero\n      tag_15\n      jumpi\n      0x00\n      dup1\n      revert\n    tag_15:\n      pop\n      tag_16\n      tag_17\n      jump\t// in\n    tag_16:\n      stop\n        /* \"Lecture Note/week11/LotteryGame.sol\":656:779  function getPlayers() ... */\n    tag_4:\n      callvalue\n      dup1\n      iszero\n      tag_18\n      jumpi\n      0x00\n      dup1\n      revert\n    tag_18:\n      pop\n      tag_19\n      tag_20\n      jump\t// in\n    tag_19:\n      mload(0x40)\n      tag_21\n      swap2\n      swap1\n      tag_22\n      jump\t// in\n    tag_21:\n      mload(0x40)\n      dup1\n      swap2\n      sub\n      swap1\n      return\n        /* \"Lecture Note/week11/LotteryGame.sol\":197:222  Status public lottoStatus */\n    tag_5:\n      callvalue\n      dup1\n      iszero\n      tag_23\n      jumpi\n      0x00\n      dup1\n      revert\n    tag_23:\n      pop\n      tag_24\n      tag_25\n      jump\t// in\n    tag_24:\n      mload(0x40)\n      tag_26\n      swap2\n      swap1\n      tag_27\n      jump\t// in\n    tag_26:\n      mload(0x40)\n      dup1\n      swap2\n      sub\n      swap1\n      return\n        /* \"Lecture Note/week11/LotteryGame.sol\":1068:1440  function enter() ... */\n    tag_6:\n      tag_28\n      tag_29\n      jump\t// in\n    tag_28:\n      stop\n        /* \"Lecture Note/week11/LotteryGame.sol\":113:137  address[] public players */\n    tag_7:\n      callvalue\n      dup1\n      iszero\n      tag_30\n      jumpi\n      0x00\n      dup1\n      revert\n    tag_30:\n      pop\n      tag_31\n      0x04\n      dup1\n      calldatasize\n      sub\n      dup2\n      add\n      swap1\n      tag_32\n      swap2\n      swap1\n      tag_33\n      jump\t// in\n    tag_32:\n      tag_34\n      jump\t// in\n    tag_31:\n      mload(0x40)\n      tag_35\n      swap2\n      swap1\n      tag_14\n      jump\t// in\n    tag_35:\n      mload(0x40)\n      dup1\n      swap2\n      sub\n      swap1\n      return\n        /* \"Lecture Note/week11/LotteryGame.sol\":1996:2103  function openGame()... */\n    tag_8:\n      callvalue\n      dup1\n      iszero\n      tag_36\n      jumpi\n      0x00\n      dup1\n      revert\n    tag_36:\n      pop\n      tag_37\n      tag_38\n      jump\t// in\n    tag_37:\n      stop\n        /* \"Lecture Note/week11/LotteryGame.sol\":85:107  address public manager */\n    tag_12:\n      0x00\n      dup1\n      sload\n      swap1\n      0x0100\n      exp\n      swap1\n      div\n      0xffffffffffffffffffffffffffffffffffffffff\n      and\n      dup2\n      jump\t// out\n        /* \"Lecture Note/week11/LotteryGame.sol\":1663:1990  function pickWinner() ... */\n    tag_17:\n        /* \"Lecture Note/week11/LotteryGame.sol\":383:390  manager */\n      0x00\n      dup1\n      sload\n      swap1\n      0x0100\n      exp\n      swap1\n      div\n      0xffffffffffffffffffffffffffffffffffffffff\n      and\n        /* \"Lecture Note/week11/LotteryGame.sol\":369:390  msg.sender == manager */\n      0xffffffffffffffffffffffffffffffffffffffff\n      and\n        /* \"Lecture Note/week11/LotteryGame.sol\":369:379  msg.sender */\n      caller\n        /* \"Lecture Note/week11/LotteryGame.sol\":369:390  msg.sender == manager */\n      0xffffffffffffffffffffffffffffffffffffffff\n      and\n      eq\n        /* \"Lecture Note/week11/LotteryGame.sol\":361:442  require(msg.sender == manager, \"Error : Only the manager can call this function\") */\n      tag_40\n      jumpi\n      mload(0x40)\n      0x08c379a000000000000000000000000000000000000000000000000000000000\n      dup2\n      mstore\n      0x04\n      add\n      tag_41\n      swap1\n      tag_42\n      jump\t// in\n    tag_41:\n      mload(0x40)\n      dup1\n      swap2\n      sub\n      swap1\n      revert\n    tag_40:\n        /* \"Lecture Note/week11/LotteryGame.sol\":1737:1747  uint index */\n      0x00\n        /* \"Lecture Note/week11/LotteryGame.sol\":1761:1768  players */\n      0x01\n        /* \"Lecture Note/week11/LotteryGame.sol\":1761:1775  players.length */\n      dup1\n      sload\n      swap1\n      pop\n        /* \"Lecture Note/week11/LotteryGame.sol\":1750:1758  random() */\n      tag_44\n        /* \"Lecture Note/week11/LotteryGame.sol\":1750:1756  random */\n      tag_45\n        /* \"Lecture Note/week11/LotteryGame.sol\":1750:1758  random() */\n      jump\t// in\n    tag_44:\n        /* \"Lecture Note/week11/LotteryGame.sol\":1750:1775  random() % players.length */\n      tag_46\n      swap2\n      swap1\n      tag_47\n      jump\t// in\n    tag_46:\n        /* \"Lecture Note/week11/LotteryGame.sol\":1737:1775  uint index = random() % players.length */\n      swap1\n      pop\n        /* \"Lecture Note/week11/LotteryGame.sol\":1789:1803  address winner */\n      0x00\n        /* \"Lecture Note/week11/LotteryGame.sol\":1806:1813  players */\n      0x01\n        /* \"Lecture Note/week11/LotteryGame.sol\":1814:1819  index */\n      dup3\n        /* \"Lecture Note/week11/LotteryGame.sol\":1806:1820  players[index] */\n      dup2\n      sload\n      dup2\n      lt\n      tag_48\n      jumpi\n      tag_49\n      tag_50\n      jump\t// in\n    tag_49:\n    tag_48:\n      swap1\n      0x00\n      mstore\n      keccak256(0x00, 0x20)\n      add\n      0x00\n      swap1\n      sload\n      swap1\n      0x0100\n      exp\n      swap1\n      div\n      0xffffffffffffffffffffffffffffffffffffffff\n      and\n        /* \"Lecture Note/week11/LotteryGame.sol\":1789:1820  address winner = players[index] */\n      swap1\n      pop\n        /* \"Lecture Note/week11/LotteryGame.sol\":1841:1848  players */\n      0x01\n      0x00\n        /* \"Lecture Note/week11/LotteryGame.sol\":1834:1848  delete players */\n      tag_52\n      swap2\n      swap1\n      tag_53\n      jump\t// in\n    tag_52:\n        /* \"Lecture Note/week11/LotteryGame.sol\":1870:1876  winner */\n      dup1\n        /* \"Lecture Note/week11/LotteryGame.sol\":1862:1886  payable(winner).transfer */\n      0xffffffffffffffffffffffffffffffffffffffff\n      and\n        /* \"Lecture Note/week11/LotteryGame.sol\":1862:1909  payable(winner).transfer(address(this).balance) */\n      0x08fc\n        /* \"Lecture Note/week11/LotteryGame.sol\":1887:1908  address(this).balance */\n      selfbalance\n        /* \"Lecture Note/week11/LotteryGame.sol\":1862:1909  payable(winner).transfer(address(this).balance) */\n      swap1\n      dup2\n      iszero\n      mul\n      swap1\n      mload(0x40)\n      0x00\n      mload(0x40)\n      dup1\n      dup4\n      sub\n      dup2\n      dup6\n      dup9\n      dup9\n      call\n      swap4\n      pop\n      pop\n      pop\n      pop\n      iszero\n      dup1\n      iszero\n      tag_55\n      jumpi\n      returndatasize\n      0x00\n      dup1\n      returndatacopy\n      revert(0x00, returndatasize)\n    tag_55:\n      pop\n        /* \"Lecture Note/week11/LotteryGame.sol\":1938:1950  Status.close */\n      0x01\n        /* \"Lecture Note/week11/LotteryGame.sol\":1924:1935  lottoStatus */\n      0x02\n      0x00\n        /* \"Lecture Note/week11/LotteryGame.sol\":1924:1950  lottoStatus = Status.close */\n      0x0100\n      exp\n      dup2\n      sload\n      dup2\n      0xff\n      mul\n      not\n      and\n      swap1\n      dup4\n      0x01\n      dup2\n      gt\n      iszero\n      tag_56\n      jumpi\n      tag_57\n      tag_58\n      jump\t// in\n    tag_57:\n    tag_56:\n      mul\n      or\n      swap1\n      sstore\n      pop\n        /* \"Lecture Note/week11/LotteryGame.sol\":1969:1983  Winner(winner) */\n      0x745c90b656b4aafe296c8ca35aeacfe56cb96c90e1d320e5da643fff1051b6c0\n        /* \"Lecture Note/week11/LotteryGame.sol\":1976:1982  winner */\n      dup2\n        /* \"Lecture Note/week11/LotteryGame.sol\":1969:1983  Winner(winner) */\n      mload(0x40)\n      tag_59\n      swap2\n      swap1\n      tag_14\n      jump\t// in\n    tag_59:\n      mload(0x40)\n      dup1\n      swap2\n      sub\n      swap1\n      log1\n        /* \"Lecture Note/week11/LotteryGame.sol\":1723:1990  {... */\n      pop\n      pop\n        /* \"Lecture Note/week11/LotteryGame.sol\":1663:1990  function pickWinner() ... */\n      jump\t// out\n        /* \"Lecture Note/week11/LotteryGame.sol\":656:779  function getPlayers() ... */\n    tag_20:\n        /* \"Lecture Note/week11/LotteryGame.sol\":726:742  address[] memory */\n      0x60\n        /* \"Lecture Note/week11/LotteryGame.sol\":765:772  players */\n      0x01\n        /* \"Lecture Note/week11/LotteryGame.sol\":758:772  return players */\n      dup1\n      sload\n      dup1\n      0x20\n      mul\n      0x20\n      add\n      mload(0x40)\n      swap1\n      dup2\n      add\n      0x40\n      mstore\n      dup1\n      swap3\n      swap2\n      swap1\n      dup2\n      dup2\n      mstore\n      0x20\n      add\n      dup3\n      dup1\n      sload\n      dup1\n      iszero\n      tag_61\n      jumpi\n      0x20\n      mul\n      dup3\n      add\n      swap2\n      swap1\n      0x00\n      mstore\n      keccak256(0x00, 0x20)\n      swap1\n    tag_62:\n      dup2\n      0x00\n      swap1\n      sload\n      swap1\n      0x0100\n      exp\n      swap1\n      div\n      0xffffffffffffffffffffffffffffffffffffffff\n      and\n      0xffffffffffffffffffffffffffffffffffffffff\n      and\n      dup2\n      mstore\n      0x20\n      add\n      swap1\n      0x01\n      add\n      swap1\n      dup1\n      dup4\n      gt\n      tag_62\n      jumpi\n    tag_61:\n      pop\n      pop\n      pop\n      pop\n      pop\n      swap1\n      pop\n        /* \"Lecture Note/week11/LotteryGame.sol\":656:779  function getPlayers() ... */\n      swap1\n      jump\t// out\n        /* \"Lecture Note/week11/LotteryGame.sol\":197:222  Status public lottoStatus */\n    tag_25:\n      0x02\n      0x00\n      swap1\n      sload\n      swap1\n      0x0100\n      exp\n      swap1\n      div\n      0xff\n      and\n      dup2\n      jump\t// out\n        /* \"Lecture Note/week11/LotteryGame.sol\":1068:1440  function enter() ... */\n    tag_29:\n        /* \"Lecture Note/week11/LotteryGame.sol\":519:526  manager */\n      0x00\n      dup1\n      sload\n      swap1\n      0x0100\n      exp\n      swap1\n      div\n      0xffffffffffffffffffffffffffffffffffffffff\n      and\n        /* \"Lecture Note/week11/LotteryGame.sol\":505:526  msg.sender != manager */\n      0xffffffffffffffffffffffffffffffffffffffff\n      and\n        /* \"Lecture Note/week11/LotteryGame.sol\":505:515  msg.sender */\n      caller\n        /* \"Lecture Note/week11/LotteryGame.sol\":505:526  msg.sender != manager */\n      0xffffffffffffffffffffffffffffffffffffffff\n      and\n      sub\n        /* \"Lecture Note/week11/LotteryGame.sol\":497:575  require(msg.sender != manager, \"Error : Manager can not bet the lottery game\") */\n      tag_64\n      jumpi\n      mload(0x40)\n      0x08c379a000000000000000000000000000000000000000000000000000000000\n      dup2\n      mstore\n      0x04\n      add\n      tag_65\n      swap1\n      tag_66\n      jump\t// in\n    tag_65:\n      mload(0x40)\n      dup1\n      swap2\n      sub\n      swap1\n      revert\n    tag_64:\n        /* \"Lecture Note/week11/LotteryGame.sol\":1176:1187  Status.open */\n      0x00\n        /* \"Lecture Note/week11/LotteryGame.sol\":1161:1187  lottoStatus == Status.open */\n      0x01\n      dup2\n      gt\n      iszero\n      tag_68\n      jumpi\n      tag_69\n      tag_58\n      jump\t// in\n    tag_69:\n    tag_68:\n        /* \"Lecture Note/week11/LotteryGame.sol\":1161:1172  lottoStatus */\n      0x02\n      0x00\n      swap1\n      sload\n      swap1\n      0x0100\n      exp\n      swap1\n      div\n      0xff\n      and\n        /* \"Lecture Note/week11/LotteryGame.sol\":1161:1187  lottoStatus == Status.open */\n      0x01\n      dup2\n      gt\n      iszero\n      tag_70\n      jumpi\n      tag_71\n      tag_58\n      jump\t// in\n    tag_71:\n    tag_70:\n      eq\n        /* \"Lecture Note/week11/LotteryGame.sol\":1153:1216  require(lottoStatus == Status.open, \"Error : Gane is not open\") */\n      tag_72\n      jumpi\n      mload(0x40)\n      0x08c379a000000000000000000000000000000000000000000000000000000000\n      dup2\n      mstore\n      0x04\n      add\n      tag_73\n      swap1\n      tag_74\n      jump\t// in\n    tag_73:\n      mload(0x40)\n      dup1\n      swap2\n      sub\n      swap1\n      revert\n    tag_72:\n        /* \"Lecture Note/week11/LotteryGame.sol\":1251:1258  1 ether */\n      0x0de0b6b3a7640000\n        /* \"Lecture Note/week11/LotteryGame.sol\":1238:1247  msg.value */\n      callvalue\n        /* \"Lecture Note/week11/LotteryGame.sol\":1238:1258  msg.value == 1 ether */\n      eq\n        /* \"Lecture Note/week11/LotteryGame.sol\":1230:1286  require(msg.value == 1 ether, \"Only 1 Ether is Allowed\") */\n      tag_75\n      jumpi\n      mload(0x40)\n      0x08c379a000000000000000000000000000000000000000000000000000000000\n      dup2\n      mstore\n      0x04\n      add\n      tag_76\n      swap1\n      tag_77\n      jump\t// in\n    tag_76:\n      mload(0x40)\n      dup1\n      swap2\n      sub\n      swap1\n      revert\n    tag_75:\n        /* \"Lecture Note/week11/LotteryGame.sol\":1318:1323  false */\n      0x00\n        /* \"Lecture Note/week11/LotteryGame.sol\":1304:1323  checkDup() == false */\n      iszero\n      iszero\n        /* \"Lecture Note/week11/LotteryGame.sol\":1304:1314  checkDup() */\n      tag_78\n        /* \"Lecture Note/week11/LotteryGame.sol\":1304:1312  checkDup */\n      tag_79\n        /* \"Lecture Note/week11/LotteryGame.sol\":1304:1314  checkDup() */\n      jump\t// in\n    tag_78:\n        /* \"Lecture Note/week11/LotteryGame.sol\":1304:1323  checkDup() == false */\n      iszero\n      iszero\n      sub\n        /* \"Lecture Note/week11/LotteryGame.sol\":1300:1430  if (checkDup() == false) {... */\n      tag_80\n      jumpi\n        /* \"Lecture Note/week11/LotteryGame.sol\":1343:1350  players */\n      0x01\n        /* \"Lecture Note/week11/LotteryGame.sol\":1356:1366  msg.sender */\n      caller\n        /* \"Lecture Note/week11/LotteryGame.sol\":1343:1367  players.push(msg.sender) */\n      swap1\n      dup1\n      0x01\n      dup2\n      sload\n      add\n      dup1\n      dup3\n      sstore\n      dup1\n      swap2\n      pop\n      pop\n      0x01\n      swap1\n      sub\n      swap1\n      0x00\n      mstore\n      keccak256(0x00, 0x20)\n      add\n      0x00\n      swap1\n      swap2\n      swap1\n      swap2\n      swap1\n      swap2\n      0x0100\n      exp\n      dup2\n      sload\n      dup2\n      0xffffffffffffffffffffffffffffffffffffffff\n      mul\n      not\n      and\n      swap1\n      dup4\n      0xffffffffffffffffffffffffffffffffffffffff\n      and\n      mul\n      or\n      swap1\n      sstore\n      pop\n        /* \"Lecture Note/week11/LotteryGame.sol\":1390:1415  PlayerEntered(msg.sender) */\n      0x4d999952f9aa655a216ee2df5968ca0e670e9582ddc96cfe7d8168114b8ca37f\n        /* \"Lecture Note/week11/LotteryGame.sol\":1404:1414  msg.sender */\n      caller\n        /* \"Lecture Note/week11/LotteryGame.sol\":1390:1415  PlayerEntered(msg.sender) */\n      mload(0x40)\n      tag_82\n      swap2\n      swap1\n      tag_14\n      jump\t// in\n    tag_82:\n      mload(0x40)\n      dup1\n      swap2\n      sub\n      swap1\n      log1\n        /* \"Lecture Note/week11/LotteryGame.sol\":1300:1430  if (checkDup() == false) {... */\n    tag_80:\n        /* \"Lecture Note/week11/LotteryGame.sol\":1068:1440  function enter() ... */\n      jump\t// out\n        /* \"Lecture Note/week11/LotteryGame.sol\":113:137  address[] public players */\n    tag_34:\n      0x01\n      dup2\n      dup2\n      sload\n      dup2\n      lt\n      tag_83\n      jumpi\n      0x00\n      dup1\n      revert\n    tag_83:\n      swap1\n      0x00\n      mstore\n      keccak256(0x00, 0x20)\n      add\n      0x00\n      swap2\n      pop\n      sload\n      swap1\n      0x0100\n      exp\n      swap1\n      div\n      0xffffffffffffffffffffffffffffffffffffffff\n      and\n      dup2\n      jump\t// out\n        /* \"Lecture Note/week11/LotteryGame.sol\":1996:2103  function openGame()... */\n    tag_38:\n        /* \"Lecture Note/week11/LotteryGame.sol\":383:390  manager */\n      0x00\n      dup1\n      sload\n      swap1\n      0x0100\n      exp\n      swap1\n      div\n      0xffffffffffffffffffffffffffffffffffffffff\n      and\n        /* \"Lecture Note/week11/LotteryGame.sol\":369:390  msg.sender == manager */\n      0xffffffffffffffffffffffffffffffffffffffff\n      and\n        /* \"Lecture Note/week11/LotteryGame.sol\":369:379  msg.sender */\n      caller\n        /* \"Lecture Note/week11/LotteryGame.sol\":369:390  msg.sender == manager */\n      0xffffffffffffffffffffffffffffffffffffffff\n      and\n      eq\n        /* \"Lecture Note/week11/LotteryGame.sol\":361:442  require(msg.sender == manager, \"Error : Only the manager can call this function\") */\n      tag_86\n      jumpi\n      mload(0x40)\n      0x08c379a000000000000000000000000000000000000000000000000000000000\n      dup2\n      mstore\n      0x04\n      add\n      tag_87\n      swap1\n      tag_42\n      jump\t// in\n    tag_87:\n      mload(0x40)\n      dup1\n      swap2\n      sub\n      swap1\n      revert\n    tag_86:\n        /* \"Lecture Note/week11/LotteryGame.sol\":2081:2092  Status.open */\n      0x00\n        /* \"Lecture Note/week11/LotteryGame.sol\":2067:2078  lottoStatus */\n      0x02\n      0x00\n        /* \"Lecture Note/week11/LotteryGame.sol\":2067:2092  lottoStatus = Status.open */\n      0x0100\n      exp\n      dup2\n      sload\n      dup2\n      0xff\n      mul\n      not\n      and\n      swap1\n      dup4\n      0x01\n      dup2\n      gt\n      iszero\n      tag_89\n      jumpi\n      tag_90\n      tag_58\n      jump\t// in\n    tag_90:\n    tag_89:\n      mul\n      or\n      swap1\n      sstore\n      pop\n        /* \"Lecture Note/week11/LotteryGame.sol\":1996:2103  function openGame()... */\n      jump\t// out\n        /* \"Lecture Note/week11/LotteryGame.sol\":1446:1657  function random() ... */\n    tag_45:\n        /* \"Lecture Note/week11/LotteryGame.sol\":1513:1517  uint */\n      0x00\n        /* \"Lecture Note/week11/LotteryGame.sol\":1533:1542  uint hash */\n      dup1\n        /* \"Lecture Note/week11/LotteryGame.sol\":1577:1589  block.number */\n      number\n        /* \"Lecture Note/week11/LotteryGame.sol\":1591:1606  block.timestamp */\n      timestamp\n        /* \"Lecture Note/week11/LotteryGame.sol\":1608:1615  players */\n      0x01\n        /* \"Lecture Note/week11/LotteryGame.sol\":1608:1622  players.length */\n      dup1\n      sload\n      swap1\n      pop\n        /* \"Lecture Note/week11/LotteryGame.sol\":1560:1623  abi.encodePacked(block.number, block.timestamp, players.length) */\n      add(0x20, mload(0x40))\n      tag_92\n      swap4\n      swap3\n      swap2\n      swap1\n      tag_93\n      jump\t// in\n    tag_92:\n      mload(0x40)\n      0x20\n      dup2\n      dup4\n      sub\n      sub\n      dup2\n      mstore\n      swap1\n      0x40\n      mstore\n        /* \"Lecture Note/week11/LotteryGame.sol\":1550:1624  keccak256(abi.encodePacked(block.number, block.timestamp, players.length)) */\n      dup1\n      mload\n      swap1\n      0x20\n      add\n      keccak256\n        /* \"Lecture Note/week11/LotteryGame.sol\":1545:1625  uint(keccak256(abi.encodePacked(block.number, block.timestamp, players.length))) */\n      0x00\n      shr\n        /* \"Lecture Note/week11/LotteryGame.sol\":1533:1625  uint hash = uint(keccak256(abi.encodePacked(block.number, block.timestamp, players.length))) */\n      swap1\n      pop\n        /* \"Lecture Note/week11/LotteryGame.sol\":1646:1650  hash */\n      dup1\n        /* \"Lecture Note/week11/LotteryGame.sol\":1639:1650  return hash */\n      swap2\n      pop\n      pop\n        /* \"Lecture Note/week11/LotteryGame.sol\":1446:1657  function random() ... */\n      swap1\n      jump\t// out\n        /* \"Lecture Note/week11/LotteryGame.sol\":785:1062  function checkDup() ... */\n    tag_79:\n        /* \"Lecture Note/week11/LotteryGame.sol\":854:858  bool */\n      0x00\n        /* \"Lecture Note/week11/LotteryGame.sol\":879:885  uint i */\n      dup1\n        /* \"Lecture Note/week11/LotteryGame.sol\":888:889  0 */\n      0x00\n        /* \"Lecture Note/week11/LotteryGame.sol\":879:889  uint i = 0 */\n      swap1\n      pop\n        /* \"Lecture Note/week11/LotteryGame.sol\":874:1030  for (uint i = 0; i < players.length; i++) {... */\n    tag_95:\n        /* \"Lecture Note/week11/LotteryGame.sol\":895:902  players */\n      0x01\n        /* \"Lecture Note/week11/LotteryGame.sol\":895:909  players.length */\n      dup1\n      sload\n      swap1\n      pop\n        /* \"Lecture Note/week11/LotteryGame.sol\":891:892  i */\n      dup2\n        /* \"Lecture Note/week11/LotteryGame.sol\":891:909  i < players.length */\n      lt\n        /* \"Lecture Note/week11/LotteryGame.sol\":874:1030  for (uint i = 0; i < players.length; i++) {... */\n      iszero\n      tag_96\n      jumpi\n        /* \"Lecture Note/week11/LotteryGame.sol\":952:962  msg.sender */\n      caller\n        /* \"Lecture Note/week11/LotteryGame.sol\":938:962  players[i] == msg.sender */\n      0xffffffffffffffffffffffffffffffffffffffff\n      and\n        /* \"Lecture Note/week11/LotteryGame.sol\":938:945  players */\n      0x01\n        /* \"Lecture Note/week11/LotteryGame.sol\":946:947  i */\n      dup3\n        /* \"Lecture Note/week11/LotteryGame.sol\":938:948  players[i] */\n      dup2\n      sload\n      dup2\n      lt\n      tag_98\n      jumpi\n      tag_99\n      tag_50\n      jump\t// in\n    tag_99:\n    tag_98:\n      swap1\n      0x00\n      mstore\n      keccak256(0x00, 0x20)\n      add\n      0x00\n      swap1\n      sload\n      swap1\n      0x0100\n      exp\n      swap1\n      div\n      0xffffffffffffffffffffffffffffffffffffffff\n      and\n        /* \"Lecture Note/week11/LotteryGame.sol\":938:962  players[i] == msg.sender */\n      0xffffffffffffffffffffffffffffffffffffffff\n      and\n      sub\n        /* \"Lecture Note/week11/LotteryGame.sol\":934:1016  if (players[i] == msg.sender) {... */\n      tag_101\n      jumpi\n        /* \"Lecture Note/week11/LotteryGame.sol\":993:997  true */\n      0x01\n        /* \"Lecture Note/week11/LotteryGame.sol\":986:997  return true */\n      swap2\n      pop\n      pop\n      jump(tag_94)\n        /* \"Lecture Note/week11/LotteryGame.sol\":934:1016  if (players[i] == msg.sender) {... */\n    tag_101:\n        /* \"Lecture Note/week11/LotteryGame.sol\":911:914  i++ */\n      dup1\n      dup1\n      tag_102\n      swap1\n      tag_103\n      jump\t// in\n    tag_102:\n      swap2\n      pop\n      pop\n        /* \"Lecture Note/week11/LotteryGame.sol\":874:1030  for (uint i = 0; i < players.length; i++) {... */\n      jump(tag_95)\n    tag_96:\n      pop\n        /* \"Lecture Note/week11/LotteryGame.sol\":1050:1055  false */\n      0x00\n        /* \"Lecture Note/week11/LotteryGame.sol\":1043:1055  return false */\n      swap1\n      pop\n        /* \"Lecture Note/week11/LotteryGame.sol\":785:1062  function checkDup() ... */\n    tag_94:\n      swap1\n      jump\t// out\n    tag_53:\n      pop\n      dup1\n      sload\n      0x00\n      dup3\n      sstore\n      swap1\n      0x00\n      mstore\n      keccak256(0x00, 0x20)\n      swap1\n      dup2\n      add\n      swap1\n      tag_105\n      swap2\n      swap1\n      tag_106\n      jump\t// in\n    tag_105:\n      pop\n      jump\t// out\n    tag_106:\n    tag_107:\n      dup1\n      dup3\n      gt\n      iszero\n      tag_108\n      jumpi\n      0x00\n      dup2\n      0x00\n      swap1\n      sstore\n      pop\n      0x01\n      add\n      jump(tag_107)\n    tag_108:\n      pop\n      swap1\n      jump\t// out\n        /* \"#utility.yul\":7:133   */\n    tag_109:\n        /* \"#utility.yul\":44:51   */\n      0x00\n        /* \"#utility.yul\":84:126   */\n      0xffffffffffffffffffffffffffffffffffffffff\n        /* \"#utility.yul\":77:82   */\n      dup3\n        /* \"#utility.yul\":73:127   */\n      and\n        /* \"#utility.yul\":62:127   */\n      swap1\n      pop\n        /* \"#utility.yul\":7:133   */\n      swap2\n      swap1\n      pop\n      jump\t// out\n        /* \"#utility.yul\":139:235   */\n    tag_110:\n        /* \"#utility.yul\":176:183   */\n      0x00\n        /* \"#utility.yul\":205:229   */\n      tag_145\n        /* \"#utility.yul\":223:228   */\n      dup3\n        /* \"#utility.yul\":205:229   */\n      tag_109\n      jump\t// in\n    tag_145:\n        /* \"#utility.yul\":194:229   */\n      swap1\n      pop\n        /* \"#utility.yul\":139:235   */\n      swap2\n      swap1\n      pop\n      jump\t// out\n        /* \"#utility.yul\":241:359   */\n    tag_111:\n        /* \"#utility.yul\":328:352   */\n      tag_147\n        /* \"#utility.yul\":346:351   */\n      dup2\n        /* \"#utility.yul\":328:352   */\n      tag_110\n      jump\t// in\n    tag_147:\n        /* \"#utility.yul\":323:326   */\n      dup3\n        /* \"#utility.yul\":316:353   */\n      mstore\n        /* \"#utility.yul\":241:359   */\n      pop\n      pop\n      jump\t// out\n        /* \"#utility.yul\":365:587   */\n    tag_14:\n        /* \"#utility.yul\":458:462   */\n      0x00\n        /* \"#utility.yul\":496:498   */\n      0x20\n        /* \"#utility.yul\":485:494   */\n      dup3\n        /* \"#utility.yul\":481:499   */\n      add\n        /* \"#utility.yul\":473:499   */\n      swap1\n      pop\n        /* \"#utility.yul\":509:580   */\n      tag_149\n        /* \"#utility.yul\":577:578   */\n      0x00\n        /* \"#utility.yul\":566:575   */\n      dup4\n        /* \"#utility.yul\":562:579   */\n      add\n        /* \"#utility.yul\":553:559   */\n      dup5\n        /* \"#utility.yul\":509:580   */\n      tag_111\n      jump\t// in\n    tag_149:\n        /* \"#utility.yul\":365:587   */\n      swap3\n      swap2\n      pop\n      pop\n      jump\t// out\n        /* \"#utility.yul\":593:707   */\n    tag_112:\n        /* \"#utility.yul\":660:666   */\n      0x00\n        /* \"#utility.yul\":694:699   */\n      dup2\n        /* \"#utility.yul\":688:700   */\n      mload\n        /* \"#utility.yul\":678:700   */\n      swap1\n      pop\n        /* \"#utility.yul\":593:707   */\n      swap2\n      swap1\n      pop\n      jump\t// out\n        /* \"#utility.yul\":713:897   */\n    tag_113:\n        /* \"#utility.yul\":812:823   */\n      0x00\n        /* \"#utility.yul\":846:852   */\n      dup3\n        /* \"#utility.yul\":841:844   */\n      dup3\n        /* \"#utility.yul\":834:853   */\n      mstore\n        /* \"#utility.yul\":886:890   */\n      0x20\n        /* \"#utility.yul\":881:884   */\n      dup3\n        /* \"#utility.yul\":877:891   */\n      add\n        /* \"#utility.yul\":862:891   */\n      swap1\n      pop\n        /* \"#utility.yul\":713:897   */\n      swap3\n      swap2\n      pop\n      pop\n      jump\t// out\n        /* \"#utility.yul\":903:1035   */\n    tag_114:\n        /* \"#utility.yul\":970:974   */\n      0x00\n        /* \"#utility.yul\":993:996   */\n      dup2\n        /* \"#utility.yul\":985:996   */\n      swap1\n      pop\n        /* \"#utility.yul\":1023:1027   */\n      0x20\n        /* \"#utility.yul\":1018:1021   */\n      dup3\n        /* \"#utility.yul\":1014:1028   */\n      add\n        /* \"#utility.yul\":1006:1028   */\n      swap1\n      pop\n        /* \"#utility.yul\":903:1035   */\n      swap2\n      swap1\n      pop\n      jump\t// out\n        /* \"#utility.yul\":1041:1149   */\n    tag_115:\n        /* \"#utility.yul\":1118:1142   */\n      tag_154\n        /* \"#utility.yul\":1136:1141   */\n      dup2\n        /* \"#utility.yul\":1118:1142   */\n      tag_110\n      jump\t// in\n    tag_154:\n        /* \"#utility.yul\":1113:1116   */\n      dup3\n        /* \"#utility.yul\":1106:1143   */\n      mstore\n        /* \"#utility.yul\":1041:1149   */\n      pop\n      pop\n      jump\t// out\n        /* \"#utility.yul\":1155:1334   */\n    tag_116:\n        /* \"#utility.yul\":1224:1234   */\n      0x00\n        /* \"#utility.yul\":1245:1291   */\n      tag_156\n        /* \"#utility.yul\":1287:1290   */\n      dup4\n        /* \"#utility.yul\":1279:1285   */\n      dup4\n        /* \"#utility.yul\":1245:1291   */\n      tag_115\n      jump\t// in\n    tag_156:\n        /* \"#utility.yul\":1323:1327   */\n      0x20\n        /* \"#utility.yul\":1318:1321   */\n      dup4\n        /* \"#utility.yul\":1314:1328   */\n      add\n        /* \"#utility.yul\":1300:1328   */\n      swap1\n      pop\n        /* \"#utility.yul\":1155:1334   */\n      swap3\n      swap2\n      pop\n      pop\n      jump\t// out\n        /* \"#utility.yul\":1340:1453   */\n    tag_117:\n        /* \"#utility.yul\":1410:1414   */\n      0x00\n        /* \"#utility.yul\":1442:1446   */\n      0x20\n        /* \"#utility.yul\":1437:1440   */\n      dup3\n        /* \"#utility.yul\":1433:1447   */\n      add\n        /* \"#utility.yul\":1425:1447   */\n      swap1\n      pop\n        /* \"#utility.yul\":1340:1453   */\n      swap2\n      swap1\n      pop\n      jump\t// out\n        /* \"#utility.yul\":1489:2221   */\n    tag_118:\n        /* \"#utility.yul\":1608:1611   */\n      0x00\n        /* \"#utility.yul\":1637:1691   */\n      tag_159\n        /* \"#utility.yul\":1685:1690   */\n      dup3\n        /* \"#utility.yul\":1637:1691   */\n      tag_112\n      jump\t// in\n    tag_159:\n        /* \"#utility.yul\":1707:1793   */\n      tag_160\n        /* \"#utility.yul\":1786:1792   */\n      dup2\n        /* \"#utility.yul\":1781:1784   */\n      dup6\n        /* \"#utility.yul\":1707:1793   */\n      tag_113\n      jump\t// in\n    tag_160:\n        /* \"#utility.yul\":1700:1793   */\n      swap4\n      pop\n        /* \"#utility.yul\":1817:1873   */\n      tag_161\n        /* \"#utility.yul\":1867:1872   */\n      dup4\n        /* \"#utility.yul\":1817:1873   */\n      tag_114\n      jump\t// in\n    tag_161:\n        /* \"#utility.yul\":1896:1903   */\n      dup1\n        /* \"#utility.yul\":1927:1928   */\n      0x00\n        /* \"#utility.yul\":1912:2196   */\n    tag_162:\n        /* \"#utility.yul\":1937:1943   */\n      dup4\n        /* \"#utility.yul\":1934:1935   */\n      dup2\n        /* \"#utility.yul\":1931:1944   */\n      lt\n        /* \"#utility.yul\":1912:2196   */\n      iszero\n      tag_164\n      jumpi\n        /* \"#utility.yul\":2013:2019   */\n      dup2\n        /* \"#utility.yul\":2007:2020   */\n      mload\n        /* \"#utility.yul\":2040:2103   */\n      tag_165\n        /* \"#utility.yul\":2099:2102   */\n      dup9\n        /* \"#utility.yul\":2084:2097   */\n      dup3\n        /* \"#utility.yul\":2040:2103   */\n      tag_116\n      jump\t// in\n    tag_165:\n        /* \"#utility.yul\":2033:2103   */\n      swap8\n      pop\n        /* \"#utility.yul\":2126:2186   */\n      tag_166\n        /* \"#utility.yul\":2179:2185   */\n      dup4\n        /* \"#utility.yul\":2126:2186   */\n      tag_117\n      jump\t// in\n    tag_166:\n        /* \"#utility.yul\":2116:2186   */\n      swap3\n      pop\n        /* \"#utility.yul\":1972:2196   */\n      pop\n        /* \"#utility.yul\":1959:1960   */\n      0x01\n        /* \"#utility.yul\":1956:1957   */\n      dup2\n        /* \"#utility.yul\":1952:1961   */\n      add\n        /* \"#utility.yul\":1947:1961   */\n      swap1\n      pop\n        /* \"#utility.yul\":1912:2196   */\n      jump(tag_162)\n    tag_164:\n        /* \"#utility.yul\":1916:1930   */\n      pop\n        /* \"#utility.yul\":2212:2215   */\n      dup6\n        /* \"#utility.yul\":2205:2215   */\n      swap4\n      pop\n        /* \"#utility.yul\":1613:2221   */\n      pop\n      pop\n      pop\n        /* \"#utility.yul\":1489:2221   */\n      swap3\n      swap2\n      pop\n      pop\n      jump\t// out\n        /* \"#utility.yul\":2227:2600   */\n    tag_22:\n        /* \"#utility.yul\":2370:2374   */\n      0x00\n        /* \"#utility.yul\":2408:2410   */\n      0x20\n        /* \"#utility.yul\":2397:2406   */\n      dup3\n        /* \"#utility.yul\":2393:2411   */\n      add\n        /* \"#utility.yul\":2385:2411   */\n      swap1\n      pop\n        /* \"#utility.yul\":2457:2466   */\n      dup2\n        /* \"#utility.yul\":2451:2455   */\n      dup2\n        /* \"#utility.yul\":2447:2467   */\n      sub\n        /* \"#utility.yul\":2443:2444   */\n      0x00\n        /* \"#utility.yul\":2432:2441   */\n      dup4\n        /* \"#utility.yul\":2428:2445   */\n      add\n        /* \"#utility.yul\":2421:2468   */\n      mstore\n        /* \"#utility.yul\":2485:2593   */\n      tag_168\n        /* \"#utility.yul\":2588:2592   */\n      dup2\n        /* \"#utility.yul\":2579:2585   */\n      dup5\n        /* \"#utility.yul\":2485:2593   */\n      tag_118\n      jump\t// in\n    tag_168:\n        /* \"#utility.yul\":2477:2593   */\n      swap1\n      pop\n        /* \"#utility.yul\":2227:2600   */\n      swap3\n      swap2\n      pop\n      pop\n      jump\t// out\n        /* \"#utility.yul\":2606:2786   */\n    tag_58:\n        /* \"#utility.yul\":2654:2731   */\n      0x4e487b7100000000000000000000000000000000000000000000000000000000\n        /* \"#utility.yul\":2651:2652   */\n      0x00\n        /* \"#utility.yul\":2644:2732   */\n      mstore\n        /* \"#utility.yul\":2751:2755   */\n      0x21\n        /* \"#utility.yul\":2748:2749   */\n      0x04\n        /* \"#utility.yul\":2741:2756   */\n      mstore\n        /* \"#utility.yul\":2775:2779   */\n      0x24\n        /* \"#utility.yul\":2772:2773   */\n      0x00\n        /* \"#utility.yul\":2765:2780   */\n      revert\n        /* \"#utility.yul\":2792:2905   */\n    tag_119:\n        /* \"#utility.yul\":2873:2874   */\n      0x02\n        /* \"#utility.yul\":2866:2871   */\n      dup2\n        /* \"#utility.yul\":2863:2875   */\n      lt\n        /* \"#utility.yul\":2853:2899   */\n      tag_171\n      jumpi\n        /* \"#utility.yul\":2879:2897   */\n      tag_172\n      tag_58\n      jump\t// in\n    tag_172:\n        /* \"#utility.yul\":2853:2899   */\n    tag_171:\n        /* \"#utility.yul\":2792:2905   */\n      pop\n      jump\t// out\n        /* \"#utility.yul\":2911:3038   */\n    tag_120:\n        /* \"#utility.yul\":2956:2963   */\n      0x00\n        /* \"#utility.yul\":2985:2990   */\n      dup2\n        /* \"#utility.yul\":2974:2990   */\n      swap1\n      pop\n        /* \"#utility.yul\":2991:3032   */\n      tag_174\n        /* \"#utility.yul\":3026:3031   */\n      dup3\n        /* \"#utility.yul\":2991:3032   */\n      tag_119\n      jump\t// in\n    tag_174:\n        /* \"#utility.yul\":2911:3038   */\n      swap2\n      swap1\n      pop\n      jump\t// out\n        /* \"#utility.yul\":3044:3171   */\n    tag_121:\n        /* \"#utility.yul\":3100:3109   */\n      0x00\n        /* \"#utility.yul\":3133:3165   */\n      tag_176\n        /* \"#utility.yul\":3159:3164   */\n      dup3\n        /* \"#utility.yul\":3133:3165   */\n      tag_120\n      jump\t// in\n    tag_176:\n        /* \"#utility.yul\":3120:3165   */\n      swap1\n      pop\n        /* \"#utility.yul\":3044:3171   */\n      swap2\n      swap1\n      pop\n      jump\t// out\n        /* \"#utility.yul\":3177:3320   */\n    tag_122:\n        /* \"#utility.yul\":3270:3313   */\n      tag_178\n        /* \"#utility.yul\":3307:3312   */\n      dup2\n        /* \"#utility.yul\":3270:3313   */\n      tag_121\n      jump\t// in\n    tag_178:\n        /* \"#utility.yul\":3265:3268   */\n      dup3\n        /* \"#utility.yul\":3258:3314   */\n      mstore\n        /* \"#utility.yul\":3177:3320   */\n      pop\n      pop\n      jump\t// out\n        /* \"#utility.yul\":3326:3560   */\n    tag_27:\n        /* \"#utility.yul\":3425:3429   */\n      0x00\n        /* \"#utility.yul\":3463:3465   */\n      0x20\n        /* \"#utility.yul\":3452:3461   */\n      dup3\n        /* \"#utility.yul\":3448:3466   */\n      add\n        /* \"#utility.yul\":3440:3466   */\n      swap1\n      pop\n        /* \"#utility.yul\":3476:3553   */\n      tag_180\n        /* \"#utility.yul\":3550:3551   */\n      0x00\n        /* \"#utility.yul\":3539:3548   */\n      dup4\n        /* \"#utility.yul\":3535:3552   */\n      add\n        /* \"#utility.yul\":3526:3532   */\n      dup5\n        /* \"#utility.yul\":3476:3553   */\n      tag_122\n      jump\t// in\n    tag_180:\n        /* \"#utility.yul\":3326:3560   */\n      swap3\n      swap2\n      pop\n      pop\n      jump\t// out\n        /* \"#utility.yul\":3647:3764   */\n    tag_124:\n        /* \"#utility.yul\":3756:3757   */\n      0x00\n        /* \"#utility.yul\":3753:3754   */\n      dup1\n        /* \"#utility.yul\":3746:3758   */\n      revert\n        /* \"#utility.yul\":3893:3970   */\n    tag_126:\n        /* \"#utility.yul\":3930:3937   */\n      0x00\n        /* \"#utility.yul\":3959:3964   */\n      dup2\n        /* \"#utility.yul\":3948:3964   */\n      swap1\n      pop\n        /* \"#utility.yul\":3893:3970   */\n      swap2\n      swap1\n      pop\n      jump\t// out\n        /* \"#utility.yul\":3976:4098   */\n    tag_127:\n        /* \"#utility.yul\":4049:4073   */\n      tag_186\n        /* \"#utility.yul\":4067:4072   */\n      dup2\n        /* \"#utility.yul\":4049:4073   */\n      tag_126\n      jump\t// in\n    tag_186:\n        /* \"#utility.yul\":4042:4047   */\n      dup2\n        /* \"#utility.yul\":4039:4074   */\n      eq\n        /* \"#utility.yul\":4029:4092   */\n      tag_187\n      jumpi\n        /* \"#utility.yul\":4088:4089   */\n      0x00\n        /* \"#utility.yul\":4085:4086   */\n      dup1\n        /* \"#utility.yul\":4078:4090   */\n      revert\n        /* \"#utility.yul\":4029:4092   */\n    tag_187:\n        /* \"#utility.yul\":3976:4098   */\n      pop\n      jump\t// out\n        /* \"#utility.yul\":4104:4243   */\n    tag_128:\n        /* \"#utility.yul\":4150:4155   */\n      0x00\n        /* \"#utility.yul\":4188:4194   */\n      dup2\n        /* \"#utility.yul\":4175:4195   */\n      calldataload\n        /* \"#utility.yul\":4166:4195   */\n      swap1\n      pop\n        /* \"#utility.yul\":4204:4237   */\n      tag_189\n        /* \"#utility.yul\":4231:4236   */\n      dup2\n        /* \"#utility.yul\":4204:4237   */\n      tag_127\n      jump\t// in\n    tag_189:\n        /* \"#utility.yul\":4104:4243   */\n      swap3\n      swap2\n      pop\n      pop\n      jump\t// out\n        /* \"#utility.yul\":4249:4578   */\n    tag_33:\n        /* \"#utility.yul\":4308:4314   */\n      0x00\n        /* \"#utility.yul\":4357:4359   */\n      0x20\n        /* \"#utility.yul\":4345:4354   */\n      dup3\n        /* \"#utility.yul\":4336:4343   */\n      dup5\n        /* \"#utility.yul\":4332:4355   */\n      sub\n        /* \"#utility.yul\":4328:4360   */\n      slt\n        /* \"#utility.yul\":4325:4444   */\n      iszero\n      tag_191\n      jumpi\n        /* \"#utility.yul\":4363:4442   */\n      tag_192\n      tag_124\n      jump\t// in\n    tag_192:\n        /* \"#utility.yul\":4325:4444   */\n    tag_191:\n        /* \"#utility.yul\":4483:4484   */\n      0x00\n        /* \"#utility.yul\":4508:4561   */\n      tag_193\n        /* \"#utility.yul\":4553:4560   */\n      dup5\n        /* \"#utility.yul\":4544:4550   */\n      dup3\n        /* \"#utility.yul\":4533:4542   */\n      dup6\n        /* \"#utility.yul\":4529:4551   */\n      add\n        /* \"#utility.yul\":4508:4561   */\n      tag_128\n      jump\t// in\n    tag_193:\n        /* \"#utility.yul\":4498:4561   */\n      swap2\n      pop\n        /* \"#utility.yul\":4454:4571   */\n      pop\n        /* \"#utility.yul\":4249:4578   */\n      swap3\n      swap2\n      pop\n      pop\n      jump\t// out\n        /* \"#utility.yul\":4584:4753   */\n    tag_129:\n        /* \"#utility.yul\":4668:4679   */\n      0x00\n        /* \"#utility.yul\":4702:4708   */\n      dup3\n        /* \"#utility.yul\":4697:4700   */\n      dup3\n        /* \"#utility.yul\":4690:4709   */\n      mstore\n        /* \"#utility.yul\":4742:4746   */\n      0x20\n        /* \"#utility.yul\":4737:4740   */\n      dup3\n        /* \"#utility.yul\":4733:4747   */\n      add\n        /* \"#utility.yul\":4718:4747   */\n      swap1\n      pop\n        /* \"#utility.yul\":4584:4753   */\n      swap3\n      swap2\n      pop\n      pop\n      jump\t// out\n        /* \"#utility.yul\":4759:4993   */\n    tag_130:\n        /* \"#utility.yul\":4899:4933   */\n      0x4572726f72203a204f6e6c7920746865206d616e616765722063616e2063616c\n        /* \"#utility.yul\":4895:4896   */\n      0x00\n        /* \"#utility.yul\":4887:4893   */\n      dup3\n        /* \"#utility.yul\":4883:4897   */\n      add\n        /* \"#utility.yul\":4876:4934   */\n      mstore\n        /* \"#utility.yul\":4968:4985   */\n      0x6c20746869732066756e6374696f6e0000000000000000000000000000000000\n        /* \"#utility.yul\":4963:4965   */\n      0x20\n        /* \"#utility.yul\":4955:4961   */\n      dup3\n        /* \"#utility.yul\":4951:4966   */\n      add\n        /* \"#utility.yul\":4944:4986   */\n      mstore\n        /* \"#utility.yul\":4759:4993   */\n      pop\n      jump\t// out\n        /* \"#utility.yul\":4999:5365   */\n    tag_131:\n        /* \"#utility.yul\":5141:5144   */\n      0x00\n        /* \"#utility.yul\":5162:5229   */\n      tag_197\n        /* \"#utility.yul\":5226:5228   */\n      0x2f\n        /* \"#utility.yul\":5221:5224   */\n      dup4\n        /* \"#utility.yul\":5162:5229   */\n      tag_129\n      jump\t// in\n    tag_197:\n        /* \"#utility.yul\":5155:5229   */\n      swap2\n      pop\n        /* \"#utility.yul\":5238:5331   */\n      tag_198\n        /* \"#utility.yul\":5327:5330   */\n      dup3\n        /* \"#utility.yul\":5238:5331   */\n      tag_130\n      jump\t// in\n    tag_198:\n        /* \"#utility.yul\":5356:5358   */\n      0x40\n        /* \"#utility.yul\":5351:5354   */\n      dup3\n        /* \"#utility.yul\":5347:5359   */\n      add\n        /* \"#utility.yul\":5340:5359   */\n      swap1\n      pop\n        /* \"#utility.yul\":4999:5365   */\n      swap2\n      swap1\n      pop\n      jump\t// out\n        /* \"#utility.yul\":5371:5790   */\n    tag_42:\n        /* \"#utility.yul\":5537:5541   */\n      0x00\n        /* \"#utility.yul\":5575:5577   */\n      0x20\n        /* \"#utility.yul\":5564:5573   */\n      dup3\n        /* \"#utility.yul\":5560:5578   */\n      add\n        /* \"#utility.yul\":5552:5578   */\n      swap1\n      pop\n        /* \"#utility.yul\":5624:5633   */\n      dup2\n        /* \"#utility.yul\":5618:5622   */\n      dup2\n        /* \"#utility.yul\":5614:5634   */\n      sub\n        /* \"#utility.yul\":5610:5611   */\n      0x00\n        /* \"#utility.yul\":5599:5608   */\n      dup4\n        /* \"#utility.yul\":5595:5612   */\n      add\n        /* \"#utility.yul\":5588:5635   */\n      mstore\n        /* \"#utility.yul\":5652:5783   */\n      tag_200\n        /* \"#utility.yul\":5778:5782   */\n      dup2\n        /* \"#utility.yul\":5652:5783   */\n      tag_131\n      jump\t// in\n    tag_200:\n        /* \"#utility.yul\":5644:5783   */\n      swap1\n      pop\n        /* \"#utility.yul\":5371:5790   */\n      swap2\n      swap1\n      pop\n      jump\t// out\n        /* \"#utility.yul\":5796:5976   */\n    tag_132:\n        /* \"#utility.yul\":5844:5921   */\n      0x4e487b7100000000000000000000000000000000000000000000000000000000\n        /* \"#utility.yul\":5841:5842   */\n      0x00\n        /* \"#utility.yul\":5834:5922   */\n      mstore\n        /* \"#utility.yul\":5941:5945   */\n      0x12\n        /* \"#utility.yul\":5938:5939   */\n      0x04\n        /* \"#utility.yul\":5931:5946   */\n      mstore\n        /* \"#utility.yul\":5965:5969   */\n      0x24\n        /* \"#utility.yul\":5962:5963   */\n      0x00\n        /* \"#utility.yul\":5955:5970   */\n      revert\n        /* \"#utility.yul\":5982:6158   */\n    tag_47:\n        /* \"#utility.yul\":6014:6015   */\n      0x00\n        /* \"#utility.yul\":6031:6051   */\n      tag_203\n        /* \"#utility.yul\":6049:6050   */\n      dup3\n        /* \"#utility.yul\":6031:6051   */\n      tag_126\n      jump\t// in\n    tag_203:\n        /* \"#utility.yul\":6026:6051   */\n      swap2\n      pop\n        /* \"#utility.yul\":6065:6085   */\n      tag_204\n        /* \"#utility.yul\":6083:6084   */\n      dup4\n        /* \"#utility.yul\":6065:6085   */\n      tag_126\n      jump\t// in\n    tag_204:\n        /* \"#utility.yul\":6060:6085   */\n      swap3\n      pop\n        /* \"#utility.yul\":6104:6105   */\n      dup3\n        /* \"#utility.yul\":6094:6129   */\n      tag_205\n      jumpi\n        /* \"#utility.yul\":6109:6127   */\n      tag_206\n      tag_132\n      jump\t// in\n    tag_206:\n        /* \"#utility.yul\":6094:6129   */\n    tag_205:\n        /* \"#utility.yul\":6150:6151   */\n      dup3\n        /* \"#utility.yul\":6147:6148   */\n      dup3\n        /* \"#utility.yul\":6143:6152   */\n      mod\n        /* \"#utility.yul\":6138:6152   */\n      swap1\n      pop\n        /* \"#utility.yul\":5982:6158   */\n      swap3\n      swap2\n      pop\n      pop\n      jump\t// out\n        /* \"#utility.yul\":6164:6344   */\n    tag_50:\n        /* \"#utility.yul\":6212:6289   */\n      0x4e487b7100000000000000000000000000000000000000000000000000000000\n        /* \"#utility.yul\":6209:6210   */\n      0x00\n        /* \"#utility.yul\":6202:6290   */\n      mstore\n        /* \"#utility.yul\":6309:6313   */\n      0x32\n        /* \"#utility.yul\":6306:6307   */\n      0x04\n        /* \"#utility.yul\":6299:6314   */\n      mstore\n        /* \"#utility.yul\":6333:6337   */\n      0x24\n        /* \"#utility.yul\":6330:6331   */\n      0x00\n        /* \"#utility.yul\":6323:6338   */\n      revert\n        /* \"#utility.yul\":6350:6581   */\n    tag_133:\n        /* \"#utility.yul\":6490:6524   */\n      0x4572726f72203a204d616e616765722063616e206e6f74206265742074686520\n        /* \"#utility.yul\":6486:6487   */\n      0x00\n        /* \"#utility.yul\":6478:6484   */\n      dup3\n        /* \"#utility.yul\":6474:6488   */\n      add\n        /* \"#utility.yul\":6467:6525   */\n      mstore\n        /* \"#utility.yul\":6559:6573   */\n      0x6c6f74746572792067616d650000000000000000000000000000000000000000\n        /* \"#utility.yul\":6554:6556   */\n      0x20\n        /* \"#utility.yul\":6546:6552   */\n      dup3\n        /* \"#utility.yul\":6542:6557   */\n      add\n        /* \"#utility.yul\":6535:6574   */\n      mstore\n        /* \"#utility.yul\":6350:6581   */\n      pop\n      jump\t// out\n        /* \"#utility.yul\":6587:6953   */\n    tag_134:\n        /* \"#utility.yul\":6729:6732   */\n      0x00\n        /* \"#utility.yul\":6750:6817   */\n      tag_210\n        /* \"#utility.yul\":6814:6816   */\n      0x2c\n        /* \"#utility.yul\":6809:6812   */\n      dup4\n        /* \"#utility.yul\":6750:6817   */\n      tag_129\n      jump\t// in\n    tag_210:\n        /* \"#utility.yul\":6743:6817   */\n      swap2\n      pop\n        /* \"#utility.yul\":6826:6919   */\n      tag_211\n        /* \"#utility.yul\":6915:6918   */\n      dup3\n        /* \"#utility.yul\":6826:6919   */\n      tag_133\n      jump\t// in\n    tag_211:\n        /* \"#utility.yul\":6944:6946   */\n      0x40\n        /* \"#utility.yul\":6939:6942   */\n      dup3\n        /* \"#utility.yul\":6935:6947   */\n      add\n        /* \"#utility.yul\":6928:6947   */\n      swap1\n      pop\n        /* \"#utility.yul\":6587:6953   */\n      swap2\n      swap1\n      pop\n      jump\t// out\n        /* \"#utility.yul\":6959:7378   */\n    tag_66:\n        /* \"#utility.yul\":7125:7129   */\n      0x00\n        /* \"#utility.yul\":7163:7165   */\n      0x20\n        /* \"#utility.yul\":7152:7161   */\n      dup3\n        /* \"#utility.yul\":7148:7166   */\n      add\n        /* \"#utility.yul\":7140:7166   */\n      swap1\n      pop\n        /* \"#utility.yul\":7212:7221   */\n      dup2\n        /* \"#utility.yul\":7206:7210   */\n      dup2\n        /* \"#utility.yul\":7202:7222   */\n      sub\n        /* \"#utility.yul\":7198:7199   */\n      0x00\n        /* \"#utility.yul\":7187:7196   */\n      dup4\n        /* \"#utility.yul\":7183:7200   */\n      add\n        /* \"#utility.yul\":7176:7223   */\n      mstore\n        /* \"#utility.yul\":7240:7371   */\n      tag_213\n        /* \"#utility.yul\":7366:7370   */\n      dup2\n        /* \"#utility.yul\":7240:7371   */\n      tag_134\n      jump\t// in\n    tag_213:\n        /* \"#utility.yul\":7232:7371   */\n      swap1\n      pop\n        /* \"#utility.yul\":6959:7378   */\n      swap2\n      swap1\n      pop\n      jump\t// out\n        /* \"#utility.yul\":7384:7558   */\n    tag_135:\n        /* \"#utility.yul\":7524:7550   */\n      0x4572726f72203a2047616e65206973206e6f74206f70656e0000000000000000\n        /* \"#utility.yul\":7520:7521   */\n      0x00\n        /* \"#utility.yul\":7512:7518   */\n      dup3\n        /* \"#utility.yul\":7508:7522   */\n      add\n        /* \"#utility.yul\":7501:7551   */\n      mstore\n        /* \"#utility.yul\":7384:7558   */\n      pop\n      jump\t// out\n        /* \"#utility.yul\":7564:7930   */\n    tag_136:\n        /* \"#utility.yul\":7706:7709   */\n      0x00\n        /* \"#utility.yul\":7727:7794   */\n      tag_216\n        /* \"#utility.yul\":7791:7793   */\n      0x18\n        /* \"#utility.yul\":7786:7789   */\n      dup4\n        /* \"#utility.yul\":7727:7794   */\n      tag_129\n      jump\t// in\n    tag_216:\n        /* \"#utility.yul\":7720:7794   */\n      swap2\n      pop\n        /* \"#utility.yul\":7803:7896   */\n      tag_217\n        /* \"#utility.yul\":7892:7895   */\n      dup3\n        /* \"#utility.yul\":7803:7896   */\n      tag_135\n      jump\t// in\n    tag_217:\n        /* \"#utility.yul\":7921:7923   */\n      0x20\n        /* \"#utility.yul\":7916:7919   */\n      dup3\n        /* \"#utility.yul\":7912:7924   */\n      add\n        /* \"#utility.yul\":7905:7924   */\n      swap1\n      pop\n        /* \"#utility.yul\":7564:7930   */\n      swap2\n      swap1\n      pop\n      jump\t// out\n        /* \"#utility.yul\":7936:8355   */\n    tag_74:\n        /* \"#utility.yul\":8102:8106   */\n      0x00\n        /* \"#utility.yul\":8140:8142   */\n      0x20\n        /* \"#utility.yul\":8129:8138   */\n      dup3\n        /* \"#utility.yul\":8125:8143   */\n      add\n        /* \"#utility.yul\":8117:8143   */\n      swap1\n      pop\n        /* \"#utility.yul\":8189:8198   */\n      dup2\n        /* \"#utility.yul\":8183:8187   */\n      dup2\n        /* \"#utility.yul\":8179:8199   */\n      sub\n        /* \"#utility.yul\":8175:8176   */\n      0x00\n        /* \"#utility.yul\":8164:8173   */\n      dup4\n        /* \"#utility.yul\":8160:8177   */\n      add\n        /* \"#utility.yul\":8153:8200   */\n      mstore\n        /* \"#utility.yul\":8217:8348   */\n      tag_219\n        /* \"#utility.yul\":8343:8347   */\n      dup2\n        /* \"#utility.yul\":8217:8348   */\n      tag_136\n      jump\t// in\n    tag_219:\n        /* \"#utility.yul\":8209:8348   */\n      swap1\n      pop\n        /* \"#utility.yul\":7936:8355   */\n      swap2\n      swap1\n      pop\n      jump\t// out\n        /* \"#utility.yul\":8361:8534   */\n    tag_137:\n        /* \"#utility.yul\":8501:8526   */\n      0x4f6e6c79203120457468657220697320416c6c6f776564000000000000000000\n        /* \"#utility.yul\":8497:8498   */\n      0x00\n        /* \"#utility.yul\":8489:8495   */\n      dup3\n        /* \"#utility.yul\":8485:8499   */\n      add\n        /* \"#utility.yul\":8478:8527   */\n      mstore\n        /* \"#utility.yul\":8361:8534   */\n      pop\n      jump\t// out\n        /* \"#utility.yul\":8540:8906   */\n    tag_138:\n        /* \"#utility.yul\":8682:8685   */\n      0x00\n        /* \"#utility.yul\":8703:8770   */\n      tag_222\n        /* \"#utility.yul\":8767:8769   */\n      0x17\n        /* \"#utility.yul\":8762:8765   */\n      dup4\n        /* \"#utility.yul\":8703:8770   */\n      tag_129\n      jump\t// in\n    tag_222:\n        /* \"#utility.yul\":8696:8770   */\n      swap2\n      pop\n        /* \"#utility.yul\":8779:8872   */\n      tag_223\n        /* \"#utility.yul\":8868:8871   */\n      dup3\n        /* \"#utility.yul\":8779:8872   */\n      tag_137\n      jump\t// in\n    tag_223:\n        /* \"#utility.yul\":8897:8899   */\n      0x20\n        /* \"#utility.yul\":8892:8895   */\n      dup3\n        /* \"#utility.yul\":8888:8900   */\n      add\n        /* \"#utility.yul\":8881:8900   */\n      swap1\n      pop\n        /* \"#utility.yul\":8540:8906   */\n      swap2\n      swap1\n      pop\n      jump\t// out\n        /* \"#utility.yul\":8912:9331   */\n    tag_77:\n        /* \"#utility.yul\":9078:9082   */\n      0x00\n        /* \"#utility.yul\":9116:9118   */\n      0x20\n        /* \"#utility.yul\":9105:9114   */\n      dup3\n        /* \"#utility.yul\":9101:9119   */\n      add\n        /* \"#utility.yul\":9093:9119   */\n      swap1\n      pop\n        /* \"#utility.yul\":9165:9174   */\n      dup2\n        /* \"#utility.yul\":9159:9163   */\n      dup2\n        /* \"#utility.yul\":9155:9175   */\n      sub\n        /* \"#utility.yul\":9151:9152   */\n      0x00\n        /* \"#utility.yul\":9140:9149   */\n      dup4\n        /* \"#utility.yul\":9136:9153   */\n      add\n        /* \"#utility.yul\":9129:9176   */\n      mstore\n        /* \"#utility.yul\":9193:9324   */\n      tag_225\n        /* \"#utility.yul\":9319:9323   */\n      dup2\n        /* \"#utility.yul\":9193:9324   */\n      tag_138\n      jump\t// in\n    tag_225:\n        /* \"#utility.yul\":9185:9324   */\n      swap1\n      pop\n        /* \"#utility.yul\":8912:9331   */\n      swap2\n      swap1\n      pop\n      jump\t// out\n        /* \"#utility.yul\":9337:9416   */\n    tag_139:\n        /* \"#utility.yul\":9376:9383   */\n      0x00\n        /* \"#utility.yul\":9405:9410   */\n      dup2\n        /* \"#utility.yul\":9394:9410   */\n      swap1\n      pop\n        /* \"#utility.yul\":9337:9416   */\n      swap2\n      swap1\n      pop\n      jump\t// out\n        /* \"#utility.yul\":9422:9579   */\n    tag_140:\n        /* \"#utility.yul\":9527:9572   */\n      tag_228\n        /* \"#utility.yul\":9547:9571   */\n      tag_229\n        /* \"#utility.yul\":9565:9570   */\n      dup3\n        /* \"#utility.yul\":9547:9571   */\n      tag_126\n      jump\t// in\n    tag_229:\n        /* \"#utility.yul\":9527:9572   */\n      tag_139\n      jump\t// in\n    tag_228:\n        /* \"#utility.yul\":9522:9525   */\n      dup3\n        /* \"#utility.yul\":9515:9573   */\n      mstore\n        /* \"#utility.yul\":9422:9579   */\n      pop\n      pop\n      jump\t// out\n        /* \"#utility.yul\":9585:10123   */\n    tag_93:\n        /* \"#utility.yul\":9753:9756   */\n      0x00\n        /* \"#utility.yul\":9768:9843   */\n      tag_231\n        /* \"#utility.yul\":9839:9842   */\n      dup3\n        /* \"#utility.yul\":9830:9836   */\n      dup7\n        /* \"#utility.yul\":9768:9843   */\n      tag_140\n      jump\t// in\n    tag_231:\n        /* \"#utility.yul\":9868:9870   */\n      0x20\n        /* \"#utility.yul\":9863:9866   */\n      dup3\n        /* \"#utility.yul\":9859:9871   */\n      add\n        /* \"#utility.yul\":9852:9871   */\n      swap2\n      pop\n        /* \"#utility.yul\":9881:9956   */\n      tag_232\n        /* \"#utility.yul\":9952:9955   */\n      dup3\n        /* \"#utility.yul\":9943:9949   */\n      dup6\n        /* \"#utility.yul\":9881:9956   */\n      tag_140\n      jump\t// in\n    tag_232:\n        /* \"#utility.yul\":9981:9983   */\n      0x20\n        /* \"#utility.yul\":9976:9979   */\n      dup3\n        /* \"#utility.yul\":9972:9984   */\n      add\n        /* \"#utility.yul\":9965:9984   */\n      swap2\n      pop\n        /* \"#utility.yul\":9994:10069   */\n      tag_233\n        /* \"#utility.yul\":10065:10068   */\n      dup3\n        /* \"#utility.yul\":10056:10062   */\n      dup5\n        /* \"#utility.yul\":9994:10069   */\n      tag_140\n      jump\t// in\n    tag_233:\n        /* \"#utility.yul\":10094:10096   */\n      0x20\n        /* \"#utility.yul\":10089:10092   */\n      dup3\n        /* \"#utility.yul\":10085:10097   */\n      add\n        /* \"#utility.yul\":10078:10097   */\n      swap2\n      pop\n        /* \"#utility.yul\":10114:10117   */\n      dup2\n        /* \"#utility.yul\":10107:10117   */\n      swap1\n      pop\n        /* \"#utility.yul\":9585:10123   */\n      swap5\n      swap4\n      pop\n      pop\n      pop\n      pop\n      jump\t// out\n        /* \"#utility.yul\":10129:10309   */\n    tag_141:\n        /* \"#utility.yul\":10177:10254   */\n      0x4e487b7100000000000000000000000000000000000000000000000000000000\n        /* \"#utility.yul\":10174:10175   */\n      0x00\n        /* \"#utility.yul\":10167:10255   */\n      mstore\n        /* \"#utility.yul\":10274:10278   */\n      0x11\n        /* \"#utility.yul\":10271:10272   */\n      0x04\n        /* \"#utility.yul\":10264:10279   */\n      mstore\n        /* \"#utility.yul\":10298:10302   */\n      0x24\n        /* \"#utility.yul\":10295:10296   */\n      0x00\n        /* \"#utility.yul\":10288:10303   */\n      revert\n        /* \"#utility.yul\":10315:10548   */\n    tag_103:\n        /* \"#utility.yul\":10354:10357   */\n      0x00\n        /* \"#utility.yul\":10377:10401   */\n      tag_236\n        /* \"#utility.yul\":10395:10400   */\n      dup3\n        /* \"#utility.yul\":10377:10401   */\n      tag_126\n      jump\t// in\n    tag_236:\n        /* \"#utility.yul\":10368:10401   */\n      swap2\n      pop\n        /* \"#utility.yul\":10423:10489   */\n      0xffffffffffffffffffffffffffffffffffffffffffffffffffffffffffffffff\n        /* \"#utility.yul\":10416:10421   */\n      dup3\n        /* \"#utility.yul\":10413:10490   */\n      sub\n        /* \"#utility.yul\":10410:10513   */\n      tag_237\n      jumpi\n        /* \"#utility.yul\":10493:10511   */\n      tag_238\n      tag_141\n      jump\t// in\n    tag_238:\n        /* \"#utility.yul\":10410:10513   */\n    tag_237:\n        /* \"#utility.yul\":10540:10541   */\n      0x01\n        /* \"#utility.yul\":10533:10538   */\n      dup3\n        /* \"#utility.yul\":10529:10542   */\n      add\n        /* \"#utility.yul\":10522:10542   */\n      swap1\n      pop\n        /* \"#utility.yul\":10315:10548   */\n      swap2\n      swap1\n      pop\n      jump\t// out\n\n    auxdata: 0xa264697066735822122049a132cfb14d06c55661dfb5a0fdcf36b5cbb68e753c837662376e5b37219e3364736f6c63430008120033\n}\n",
				"bytecode": {
					"linkReferences": {},
					"object": "60806040526001600260016101000a81548160ff02191690831515021790555034801561002b57600080fd5b50336000806101000a81548173ffffffffffffffffffffffffffffffffffffffff021916908373ffffffffffffffffffffffffffffffffffffffff160217905550610dd68061007b6000396000f3fe6080604052600436106100705760003560e01c8063b12cf0321161004e578063b12cf032146100e2578063e97dcb621461010d578063f71d96cb14610117578063fa12d7821461015457610070565b8063481c6a75146100755780635d495aea146100a05780638b5b9ccc146100b7575b600080fd5b34801561008157600080fd5b5061008a61016b565b604051610097919061083a565b60405180910390f35b3480156100ac57600080fd5b506100b561018f565b005b3480156100c357600080fd5b506100cc610337565b6040516100d99190610913565b60405180910390f35b3480156100ee57600080fd5b506100f76103c5565b60405161010491906109ac565b60405180910390f35b6101156103d8565b005b34801561012357600080fd5b5061013e60048036038101906101399190610a02565b6105d6565b60405161014b919061083a565b60405180910390f35b34801561016057600080fd5b50610169610615565b005b60008054906101000a900473ffffffffffffffffffffffffffffffffffffffff1681565b60008054906101000a900473ffffffffffffffffffffffffffffffffffffffff1673ffffffffffffffffffffffffffffffffffffffff163373ffffffffffffffffffffffffffffffffffffffff161461021d576040517f08c379a000000000000000000000000000000000000000000000000000000000815260040161021490610ab2565b60405180910390fd5b600060018054905061022d6106d0565b6102379190610b01565b905060006001828154811061024f5761024e610b32565b5b9060005260206000200160009054906101000a900473ffffffffffffffffffffffffffffffffffffffff1690506001600061028a91906107bb565b8073ffffffffffffffffffffffffffffffffffffffff166108fc479081150290604051600060405180830381858888f193505050501580156102d0573d6000803e3d6000fd5b506001600260006101000a81548160ff021916908360018111156102f7576102f6610935565b5b02179055507f745c90b656b4aafe296c8ca35aeacfe56cb96c90e1d320e5da643fff1051b6c08160405161032b919061083a565b60405180910390a15050565b606060018054806020026020016040519081016040528092919081815260200182805480156103bb57602002820191906000526020600020905b8160009054906101000a900473ffffffffffffffffffffffffffffffffffffffff1673ffffffffffffffffffffffffffffffffffffffff1681526020019060010190808311610371575b5050505050905090565b600260009054906101000a900460ff1681565b60008054906101000a900473ffffffffffffffffffffffffffffffffffffffff1673ffffffffffffffffffffffffffffffffffffffff163373ffffffffffffffffffffffffffffffffffffffff1603610466576040517f08c379a000000000000000000000000000000000000000000000000000000000815260040161045d90610bd3565b60405180910390fd5b6000600181111561047a57610479610935565b5b600260009054906101000a900460ff16600181111561049c5761049b610935565b5b146104dc576040517f08c379a00000000000000000000000000000000000000000000000000000000081526004016104d390610c3f565b60405180910390fd5b670de0b6b3a76400003414610526576040517f08c379a000000000000000000000000000000000000000000000000000000000815260040161051d90610cab565b60405180910390fd5b6000151561053261070f565b1515036105d4576001339080600181540180825580915050600190039060005260206000200160009091909190916101000a81548173ffffffffffffffffffffffffffffffffffffffff021916908373ffffffffffffffffffffffffffffffffffffffff1602179055507f4d999952f9aa655a216ee2df5968ca0e670e9582ddc96cfe7d8168114b8ca37f336040516105cb919061083a565b60405180910390a15b565b600181815481106105e657600080fd5b906000526020600020016000915054906101000a900473ffffffffffffffffffffffffffffffffffffffff1681565b60008054906101000a900473ffffffffffffffffffffffffffffffffffffffff1673ffffffffffffffffffffffffffffffffffffffff163373ffffffffffffffffffffffffffffffffffffffff16146106a3576040517f08c379a000000000000000000000000000000000000000000000000000000000815260040161069a90610ab2565b60405180910390fd5b6000600260006101000a81548160ff021916908360018111156106c9576106c8610935565b5b0217905550565b60008043426001805490506040516020016106ed93929190610cec565b6040516020818303038152906040528051906020012060001c90508091505090565b600080600090505b6001805490508110156107b2573373ffffffffffffffffffffffffffffffffffffffff166001828154811061074f5761074e610b32565b5b9060005260206000200160009054906101000a900473ffffffffffffffffffffffffffffffffffffffff1673ffffffffffffffffffffffffffffffffffffffff160361079f5760019150506107b8565b80806107aa90610d58565b915050610717565b50600090505b90565b50805460008255906000526020600020908101906107d991906107dc565b50565b5b808211156107f55760008160009055506001016107dd565b5090565b600073ffffffffffffffffffffffffffffffffffffffff82169050919050565b6000610824826107f9565b9050919050565b61083481610819565b82525050565b600060208201905061084f600083018461082b565b92915050565b600081519050919050565b600082825260208201905092915050565b6000819050602082019050919050565b61088a81610819565b82525050565b600061089c8383610881565b60208301905092915050565b6000602082019050919050565b60006108c082610855565b6108ca8185610860565b93506108d583610871565b8060005b838110156109065781516108ed8882610890565b97506108f8836108a8565b9250506001810190506108d9565b5085935050505092915050565b6000602082019050818103600083015261092d81846108b5565b905092915050565b7f4e487b7100000000000000000000000000000000000000000000000000000000600052602160045260246000fd5b6002811061097557610974610935565b5b50565b600081905061098682610964565b919050565b600061099682610978565b9050919050565b6109a68161098b565b82525050565b60006020820190506109c1600083018461099d565b92915050565b600080fd5b6000819050919050565b6109df816109cc565b81146109ea57600080fd5b50565b6000813590506109fc816109d6565b92915050565b600060208284031215610a1857610a176109c7565b5b6000610a26848285016109ed565b91505092915050565b600082825260208201905092915050565b7f4572726f72203a204f6e6c7920746865206d616e616765722063616e2063616c60008201527f6c20746869732066756e6374696f6e0000000000000000000000000000000000602082015250565b6000610a9c602f83610a2f565b9150610aa782610a40565b604082019050919050565b60006020820190508181036000830152610acb81610a8f565b9050919050565b7f4e487b7100000000000000000000000000000000000000000000000000000000600052601260045260246000fd5b6000610b0c826109cc565b9150610b17836109cc565b925082610b2757610b26610ad2565b5b828206905092915050565b7f4e487b7100000000000000000000000000000000000000000000000000000000600052603260045260246000fd5b7f4572726f72203a204d616e616765722063616e206e6f7420626574207468652060008201527f6c6f74746572792067616d650000000000000000000000000000000000000000602082015250565b6000610bbd602c83610a2f565b9150610bc882610b61565b604082019050919050565b60006020820190508181036000830152610bec81610bb0565b9050919050565b7f4572726f72203a2047616e65206973206e6f74206f70656e0000000000000000600082015250565b6000610c29601883610a2f565b9150610c3482610bf3565b602082019050919050565b60006020820190508181036000830152610c5881610c1c565b9050919050565b7f4f6e6c79203120457468657220697320416c6c6f776564000000000000000000600082015250565b6000610c95601783610a2f565b9150610ca082610c5f565b602082019050919050565b60006020820190508181036000830152610cc481610c88565b9050919050565b6000819050919050565b610ce6610ce1826109cc565b610ccb565b82525050565b6000610cf88286610cd5565b602082019150610d088285610cd5565b602082019150610d188284610cd5565b602082019150819050949350505050565b7f4e487b7100000000000000000000000000000000000000000000000000000000600052601160045260246000fd5b6000610d63826109cc565b91507fffffffffffffffffffffffffffffffffffffffffffffffffffffffffffffffff8203610d9557610d94610d29565b5b60018201905091905056fea264697066735822122049a132cfb14d06c55661dfb5a0fdcf36b5cbb68e753c837662376e5b37219e3364736f6c63430008120033",
					"opcodes": "PUSH1 0x80 PUSH1 0x40 MSTORE PUSH1 0x1 PUSH1 0x2 PUSH1 0x1 PUSH2 0x100 EXP DUP2 SLOAD DUP2 PUSH1 0xFF MUL NOT AND SWAP1 DUP4 ISZERO ISZERO MUL OR SWAP1 SSTORE POP CALLVALUE DUP1 ISZERO PUSH2 0x2B JUMPI PUSH1 0x0 DUP1 REVERT JUMPDEST POP CALLER PUSH1 0x0 DUP1 PUSH2 0x100 EXP DUP2 SLOAD DUP2 PUSH20 0xFFFFFFFFFFFFFFFFFFFFFFFFFFFFFFFFFFFFFFFF MUL NOT AND SWAP1 DUP4 PUSH20 0xFFFFFFFFFFFFFFFFFFFFFFFFFFFFFFFFFFFFFFFF AND MUL OR SWAP1 SSTORE POP PUSH2 0xDD6 DUP1 PUSH2 0x7B PUSH1 0x0 CODECOPY PUSH1 0x0 RETURN INVALID PUSH1 0x80 PUSH1 0x40 MSTORE PUSH1 0x4 CALLDATASIZE LT PUSH2 0x70 JUMPI PUSH1 0x0 CALLDATALOAD PUSH1 0xE0 SHR DUP1 PUSH4 0xB12CF032 GT PUSH2 0x4E JUMPI DUP1 PUSH4 0xB12CF032 EQ PUSH2 0xE2 JUMPI DUP1 PUSH4 0xE97DCB62 EQ PUSH2 0x10D JUMPI DUP1 PUSH4 0xF71D96CB EQ PUSH2 0x117 JUMPI DUP1 PUSH4 0xFA12D782 EQ PUSH2 0x154 JUMPI PUSH2 0x70 JUMP JUMPDEST DUP1 PUSH4 0x481C6A75 EQ PUSH2 0x75 JUMPI DUP1 PUSH4 0x5D495AEA EQ PUSH2 0xA0 JUMPI DUP1 PUSH4 0x8B5B9CCC EQ PUSH2 0xB7 JUMPI JUMPDEST PUSH1 0x0 DUP1 REVERT JUMPDEST CALLVALUE DUP1 ISZERO PUSH2 0x81 JUMPI PUSH1 0x0 DUP1 REVERT JUMPDEST POP PUSH2 0x8A PUSH2 0x16B JUMP JUMPDEST PUSH1 0x40 MLOAD PUSH2 0x97 SWAP2 SWAP1 PUSH2 0x83A JUMP JUMPDEST PUSH1 0x40 MLOAD DUP1 SWAP2 SUB SWAP1 RETURN JUMPDEST CALLVALUE DUP1 ISZERO PUSH2 0xAC JUMPI PUSH1 0x0 DUP1 REVERT JUMPDEST POP PUSH2 0xB5 PUSH2 0x18F JUMP JUMPDEST STOP JUMPDEST CALLVALUE DUP1 ISZERO PUSH2 0xC3 JUMPI PUSH1 0x0 DUP1 REVERT JUMPDEST POP PUSH2 0xCC PUSH2 0x337 JUMP JUMPDEST PUSH1 0x40 MLOAD PUSH2 0xD9 SWAP2 SWAP1 PUSH2 0x913 JUMP JUMPDEST PUSH1 0x40 MLOAD DUP1 SWAP2 SUB SWAP1 RETURN JUMPDEST CALLVALUE DUP1 ISZERO PUSH2 0xEE JUMPI PUSH1 0x0 DUP1 REVERT JUMPDEST POP PUSH2 0xF7 PUSH2 0x3C5 JUMP JUMPDEST PUSH1 0x40 MLOAD PUSH2 0x104 SWAP2 SWAP1 PUSH2 0x9AC JUMP JUMPDEST PUSH1 0x40 MLOAD DUP1 SWAP2 SUB SWAP1 RETURN JUMPDEST PUSH2 0x115 PUSH2 0x3D8 JUMP JUMPDEST STOP JUMPDEST CALLVALUE DUP1 ISZERO PUSH2 0x123 JUMPI PUSH1 0x0 DUP1 REVERT JUMPDEST POP PUSH2 0x13E PUSH1 0x4 DUP1 CALLDATASIZE SUB DUP2 ADD SWAP1 PUSH2 0x139 SWAP2 SWAP1 PUSH2 0xA02 JUMP JUMPDEST PUSH2 0x5D6 JUMP JUMPDEST PUSH1 0x40 MLOAD PUSH2 0x14B SWAP2 SWAP1 PUSH2 0x83A JUMP JUMPDEST PUSH1 0x40 MLOAD DUP1 SWAP2 SUB SWAP1 RETURN JUMPDEST CALLVALUE DUP1 ISZERO PUSH2 0x160 JUMPI PUSH1 0x0 DUP1 REVERT JUMPDEST POP PUSH2 0x169 PUSH2 0x615 JUMP JUMPDEST STOP JUMPDEST PUSH1 0x0 DUP1 SLOAD SWAP1 PUSH2 0x100 EXP SWAP1 DIV PUSH20 0xFFFFFFFFFFFFFFFFFFFFFFFFFFFFFFFFFFFFFFFF AND DUP2 JUMP JUMPDEST PUSH1 0x0 DUP1 SLOAD SWAP1 PUSH2 0x100 EXP SWAP1 DIV PUSH20 0xFFFFFFFFFFFFFFFFFFFFFFFFFFFFFFFFFFFFFFFF AND PUSH20 0xFFFFFFFFFFFFFFFFFFFFFFFFFFFFFFFFFFFFFFFF AND CALLER PUSH20 0xFFFFFFFFFFFFFFFFFFFFFFFFFFFFFFFFFFFFFFFF AND EQ PUSH2 0x21D JUMPI PUSH1 0x40 MLOAD PUSH32 0x8C379A000000000000000000000000000000000000000000000000000000000 DUP2 MSTORE PUSH1 0x4 ADD PUSH2 0x214 SWAP1 PUSH2 0xAB2 JUMP JUMPDEST PUSH1 0x40 MLOAD DUP1 SWAP2 SUB SWAP1 REVERT JUMPDEST PUSH1 0x0 PUSH1 0x1 DUP1 SLOAD SWAP1 POP PUSH2 0x22D PUSH2 0x6D0 JUMP JUMPDEST PUSH2 0x237 SWAP2 SWAP1 PUSH2 0xB01 JUMP JUMPDEST SWAP1 POP PUSH1 0x0 PUSH1 0x1 DUP3 DUP2 SLOAD DUP2 LT PUSH2 0x24F JUMPI PUSH2 0x24E PUSH2 0xB32 JUMP JUMPDEST JUMPDEST SWAP1 PUSH1 0x0 MSTORE PUSH1 0x20 PUSH1 0x0 KECCAK256 ADD PUSH1 0x0 SWAP1 SLOAD SWAP1 PUSH2 0x100 EXP SWAP1 DIV PUSH20 0xFFFFFFFFFFFFFFFFFFFFFFFFFFFFFFFFFFFFFFFF AND SWAP1 POP PUSH1 0x1 PUSH1 0x0 PUSH2 0x28A SWAP2 SWAP1 PUSH2 0x7BB JUMP JUMPDEST DUP1 PUSH20 0xFFFFFFFFFFFFFFFFFFFFFFFFFFFFFFFFFFFFFFFF AND PUSH2 0x8FC SELFBALANCE SWAP1 DUP2 ISZERO MUL SWAP1 PUSH1 0x40 MLOAD PUSH1 0x0 PUSH1 0x40 MLOAD DUP1 DUP4 SUB DUP2 DUP6 DUP9 DUP9 CALL SWAP4 POP POP POP POP ISZERO DUP1 ISZERO PUSH2 0x2D0 JUMPI RETURNDATASIZE PUSH1 0x0 DUP1 RETURNDATACOPY RETURNDATASIZE PUSH1 0x0 REVERT JUMPDEST POP PUSH1 0x1 PUSH1 0x2 PUSH1 0x0 PUSH2 0x100 EXP DUP2 SLOAD DUP2 PUSH1 0xFF MUL NOT AND SWAP1 DUP4 PUSH1 0x1 DUP2 GT ISZERO PUSH2 0x2F7 JUMPI PUSH2 0x2F6 PUSH2 0x935 JUMP JUMPDEST JUMPDEST MUL OR SWAP1 SSTORE POP PUSH32 0x745C90B656B4AAFE296C8CA35AEACFE56CB96C90E1D320E5DA643FFF1051B6C0 DUP2 PUSH1 0x40 MLOAD PUSH2 0x32B SWAP2 SWAP1 PUSH2 0x83A JUMP JUMPDEST PUSH1 0x40 MLOAD DUP1 SWAP2 SUB SWAP1 LOG1 POP POP JUMP JUMPDEST PUSH1 0x60 PUSH1 0x1 DUP1 SLOAD DUP1 PUSH1 0x20 MUL PUSH1 0x20 ADD PUSH1 0x40 MLOAD SWAP1 DUP2 ADD PUSH1 0x40 MSTORE DUP1 SWAP3 SWAP2 SWAP1 DUP2 DUP2 MSTORE PUSH1 0x20 ADD DUP3 DUP1 SLOAD DUP1 ISZERO PUSH2 0x3BB JUMPI PUSH1 0x20 MUL DUP3 ADD SWAP2 SWAP1 PUSH1 0x0 MSTORE PUSH1 0x20 PUSH1 0x0 KECCAK256 SWAP1 JUMPDEST DUP2 PUSH1 0x0 SWAP1 SLOAD SWAP1 PUSH2 0x100 EXP SWAP1 DIV PUSH20 0xFFFFFFFFFFFFFFFFFFFFFFFFFFFFFFFFFFFFFFFF AND PUSH20 0xFFFFFFFFFFFFFFFFFFFFFFFFFFFFFFFFFFFFFFFF AND DUP2 MSTORE PUSH1 0x20 ADD SWAP1 PUSH1 0x1 ADD SWAP1 DUP1 DUP4 GT PUSH2 0x371 JUMPI JUMPDEST POP POP POP POP POP SWAP1 POP SWAP1 JUMP JUMPDEST PUSH1 0x2 PUSH1 0x0 SWAP1 SLOAD SWAP1 PUSH2 0x100 EXP SWAP1 DIV PUSH1 0xFF AND DUP2 JUMP JUMPDEST PUSH1 0x0 DUP1 SLOAD SWAP1 PUSH2 0x100 EXP SWAP1 DIV PUSH20 0xFFFFFFFFFFFFFFFFFFFFFFFFFFFFFFFFFFFFFFFF AND PUSH20 0xFFFFFFFFFFFFFFFFFFFFFFFFFFFFFFFFFFFFFFFF AND CALLER PUSH20 0xFFFFFFFFFFFFFFFFFFFFFFFFFFFFFFFFFFFFFFFF AND SUB PUSH2 0x466 JUMPI PUSH1 0x40 MLOAD PUSH32 0x8C379A000000000000000000000000000000000000000000000000000000000 DUP2 MSTORE PUSH1 0x4 ADD PUSH2 0x45D SWAP1 PUSH2 0xBD3 JUMP JUMPDEST PUSH1 0x40 MLOAD DUP1 SWAP2 SUB SWAP1 REVERT JUMPDEST PUSH1 0x0 PUSH1 0x1 DUP2 GT ISZERO PUSH2 0x47A JUMPI PUSH2 0x479 PUSH2 0x935 JUMP JUMPDEST JUMPDEST PUSH1 0x2 PUSH1 0x0 SWAP1 SLOAD SWAP1 PUSH2 0x100 EXP SWAP1 DIV PUSH1 0xFF AND PUSH1 0x1 DUP2 GT ISZERO PUSH2 0x49C JUMPI PUSH2 0x49B PUSH2 0x935 JUMP JUMPDEST JUMPDEST EQ PUSH2 0x4DC JUMPI PUSH1 0x40 MLOAD PUSH32 0x8C379A000000000000000000000000000000000000000000000000000000000 DUP2 MSTORE PUSH1 0x4 ADD PUSH2 0x4D3 SWAP1 PUSH2 0xC3F JUMP JUMPDEST PUSH1 0x40 MLOAD DUP1 SWAP2 SUB SWAP1 REVERT JUMPDEST PUSH8 0xDE0B6B3A7640000 CALLVALUE EQ PUSH2 0x526 JUMPI PUSH1 0x40 MLOAD PUSH32 0x8C379A000000000000000000000000000000000000000000000000000000000 DUP2 MSTORE PUSH1 0x4 ADD PUSH2 0x51D SWAP1 PUSH2 0xCAB JUMP JUMPDEST PUSH1 0x40 MLOAD DUP1 SWAP2 SUB SWAP1 REVERT JUMPDEST PUSH1 0x0 ISZERO ISZERO PUSH2 0x532 PUSH2 0x70F JUMP JUMPDEST ISZERO ISZERO SUB PUSH2 0x5D4 JUMPI PUSH1 0x1 CALLER SWAP1 DUP1 PUSH1 0x1 DUP2 SLOAD ADD DUP1 DUP3 SSTORE DUP1 SWAP2 POP POP PUSH1 0x1 SWAP1 SUB SWAP1 PUSH1 0x0 MSTORE PUSH1 0x20 PUSH1 0x0 KECCAK256 ADD PUSH1 0x0 SWAP1 SWAP2 SWAP1 SWAP2 SWAP1 SWAP2 PUSH2 0x100 EXP DUP2 SLOAD DUP2 PUSH20 0xFFFFFFFFFFFFFFFFFFFFFFFFFFFFFFFFFFFFFFFF MUL NOT AND SWAP1 DUP4 PUSH20 0xFFFFFFFFFFFFFFFFFFFFFFFFFFFFFFFFFFFFFFFF AND MUL OR SWAP1 SSTORE POP PUSH32 0x4D999952F9AA655A216EE2DF5968CA0E670E9582DDC96CFE7D8168114B8CA37F CALLER PUSH1 0x40 MLOAD PUSH2 0x5CB SWAP2 SWAP1 PUSH2 0x83A JUMP JUMPDEST PUSH1 0x40 MLOAD DUP1 SWAP2 SUB SWAP1 LOG1 JUMPDEST JUMP JUMPDEST PUSH1 0x1 DUP2 DUP2 SLOAD DUP2 LT PUSH2 0x5E6 JUMPI PUSH1 0x0 DUP1 REVERT JUMPDEST SWAP1 PUSH1 0x0 MSTORE PUSH1 0x20 PUSH1 0x0 KECCAK256 ADD PUSH1 0x0 SWAP2 POP SLOAD SWAP1 PUSH2 0x100 EXP SWAP1 DIV PUSH20 0xFFFFFFFFFFFFFFFFFFFFFFFFFFFFFFFFFFFFFFFF AND DUP2 JUMP JUMPDEST PUSH1 0x0 DUP1 SLOAD SWAP1 PUSH2 0x100 EXP SWAP1 DIV PUSH20 0xFFFFFFFFFFFFFFFFFFFFFFFFFFFFFFFFFFFFFFFF AND PUSH20 0xFFFFFFFFFFFFFFFFFFFFFFFFFFFFFFFFFFFFFFFF AND CALLER PUSH20 0xFFFFFFFFFFFFFFFFFFFFFFFFFFFFFFFFFFFFFFFF AND EQ PUSH2 0x6A3 JUMPI PUSH1 0x40 MLOAD PUSH32 0x8C379A000000000000000000000000000000000000000000000000000000000 DUP2 MSTORE PUSH1 0x4 ADD PUSH2 0x69A SWAP1 PUSH2 0xAB2 JUMP JUMPDEST PUSH1 0x40 MLOAD DUP1 SWAP2 SUB SWAP1 REVERT JUMPDEST PUSH1 0x0 PUSH1 0x2 PUSH1 0x0 PUSH2 0x100 EXP DUP2 SLOAD DUP2 PUSH1 0xFF MUL NOT AND SWAP1 DUP4 PUSH1 0x1 DUP2 GT ISZERO PUSH2 0x6C9 JUMPI PUSH2 0x6C8 PUSH2 0x935 JUMP JUMPDEST JUMPDEST MUL OR SWAP1 SSTORE POP JUMP JUMPDEST PUSH1 0x0 DUP1 NUMBER TIMESTAMP PUSH1 0x1 DUP1 SLOAD SWAP1 POP PUSH1 0x40 MLOAD PUSH1 0x20 ADD PUSH2 0x6ED SWAP4 SWAP3 SWAP2 SWAP1 PUSH2 0xCEC JUMP JUMPDEST PUSH1 0x40 MLOAD PUSH1 0x20 DUP2 DUP4 SUB SUB DUP2 MSTORE SWAP1 PUSH1 0x40 MSTORE DUP1 MLOAD SWAP1 PUSH1 0x20 ADD KECCAK256 PUSH1 0x0 SHR SWAP1 POP DUP1 SWAP2 POP POP SWAP1 JUMP JUMPDEST PUSH1 0x0 DUP1 PUSH1 0x0 SWAP1 POP JUMPDEST PUSH1 0x1 DUP1 SLOAD SWAP1 POP DUP2 LT ISZERO PUSH2 0x7B2 JUMPI CALLER PUSH20 0xFFFFFFFFFFFFFFFFFFFFFFFFFFFFFFFFFFFFFFFF AND PUSH1 0x1 DUP3 DUP2 SLOAD DUP2 LT PUSH2 0x74F JUMPI PUSH2 0x74E PUSH2 0xB32 JUMP JUMPDEST JUMPDEST SWAP1 PUSH1 0x0 MSTORE PUSH1 0x20 PUSH1 0x0 KECCAK256 ADD PUSH1 0x0 SWAP1 SLOAD SWAP1 PUSH2 0x100 EXP SWAP1 DIV PUSH20 0xFFFFFFFFFFFFFFFFFFFFFFFFFFFFFFFFFFFFFFFF AND PUSH20 0xFFFFFFFFFFFFFFFFFFFFFFFFFFFFFFFFFFFFFFFF AND SUB PUSH2 0x79F JUMPI PUSH1 0x1 SWAP2 POP POP PUSH2 0x7B8 JUMP JUMPDEST DUP1 DUP1 PUSH2 0x7AA SWAP1 PUSH2 0xD58 JUMP JUMPDEST SWAP2 POP POP PUSH2 0x717 JUMP JUMPDEST POP PUSH1 0x0 SWAP1 POP JUMPDEST SWAP1 JUMP JUMPDEST POP DUP1 SLOAD PUSH1 0x0 DUP3 SSTORE SWAP1 PUSH1 0x0 MSTORE PUSH1 0x20 PUSH1 0x0 KECCAK256 SWAP1 DUP2 ADD SWAP1 PUSH2 0x7D9 SWAP2 SWAP1 PUSH2 0x7DC JUMP JUMPDEST POP JUMP JUMPDEST JUMPDEST DUP1 DUP3 GT ISZERO PUSH2 0x7F5 JUMPI PUSH1 0x0 DUP2 PUSH1 0x0 SWAP1 SSTORE POP PUSH1 0x1 ADD PUSH2 0x7DD JUMP JUMPDEST POP SWAP1 JUMP JUMPDEST PUSH1 0x0 PUSH20 0xFFFFFFFFFFFFFFFFFFFFFFFFFFFFFFFFFFFFFFFF DUP3 AND SWAP1 POP SWAP2 SWAP1 POP JUMP JUMPDEST PUSH1 0x0 PUSH2 0x824 DUP3 PUSH2 0x7F9 JUMP JUMPDEST SWAP1 POP SWAP2 SWAP1 POP JUMP JUMPDEST PUSH2 0x834 DUP2 PUSH2 0x819 JUMP JUMPDEST DUP3 MSTORE POP POP JUMP JUMPDEST PUSH1 0x0 PUSH1 0x20 DUP3 ADD SWAP1 POP PUSH2 0x84F PUSH1 0x0 DUP4 ADD DUP5 PUSH2 0x82B JUMP JUMPDEST SWAP3 SWAP2 POP POP JUMP JUMPDEST PUSH1 0x0 DUP2 MLOAD SWAP1 POP SWAP2 SWAP1 POP JUMP JUMPDEST PUSH1 0x0 DUP3 DUP3 MSTORE PUSH1 0x20 DUP3 ADD SWAP1 POP SWAP3 SWAP2 POP POP JUMP JUMPDEST PUSH1 0x0 DUP2 SWAP1 POP PUSH1 0x20 DUP3 ADD SWAP1 POP SWAP2 SWAP1 POP JUMP JUMPDEST PUSH2 0x88A DUP2 PUSH2 0x819 JUMP JUMPDEST DUP3 MSTORE POP POP JUMP JUMPDEST PUSH1 0x0 PUSH2 0x89C DUP4 DUP4 PUSH2 0x881 JUMP JUMPDEST PUSH1 0x20 DUP4 ADD SWAP1 POP SWAP3 SWAP2 POP POP JUMP JUMPDEST PUSH1 0x0 PUSH1 0x20 DUP3 ADD SWAP1 POP SWAP2 SWAP1 POP JUMP JUMPDEST PUSH1 0x0 PUSH2 0x8C0 DUP3 PUSH2 0x855 JUMP JUMPDEST PUSH2 0x8CA DUP2 DUP6 PUSH2 0x860 JUMP JUMPDEST SWAP4 POP PUSH2 0x8D5 DUP4 PUSH2 0x871 JUMP JUMPDEST DUP1 PUSH1 0x0 JUMPDEST DUP4 DUP2 LT ISZERO PUSH2 0x906 JUMPI DUP2 MLOAD PUSH2 0x8ED DUP9 DUP3 PUSH2 0x890 JUMP JUMPDEST SWAP8 POP PUSH2 0x8F8 DUP4 PUSH2 0x8A8 JUMP JUMPDEST SWAP3 POP POP PUSH1 0x1 DUP2 ADD SWAP1 POP PUSH2 0x8D9 JUMP JUMPDEST POP DUP6 SWAP4 POP POP POP POP SWAP3 SWAP2 POP POP JUMP JUMPDEST PUSH1 0x0 PUSH1 0x20 DUP3 ADD SWAP1 POP DUP2 DUP2 SUB PUSH1 0x0 DUP4 ADD MSTORE PUSH2 0x92D DUP2 DUP5 PUSH2 0x8B5 JUMP JUMPDEST SWAP1 POP SWAP3 SWAP2 POP POP JUMP JUMPDEST PUSH32 0x4E487B7100000000000000000000000000000000000000000000000000000000 PUSH1 0x0 MSTORE PUSH1 0x21 PUSH1 0x4 MSTORE PUSH1 0x24 PUSH1 0x0 REVERT JUMPDEST PUSH1 0x2 DUP2 LT PUSH2 0x975 JUMPI PUSH2 0x974 PUSH2 0x935 JUMP JUMPDEST JUMPDEST POP JUMP JUMPDEST PUSH1 0x0 DUP2 SWAP1 POP PUSH2 0x986 DUP3 PUSH2 0x964 JUMP JUMPDEST SWAP2 SWAP1 POP JUMP JUMPDEST PUSH1 0x0 PUSH2 0x996 DUP3 PUSH2 0x978 JUMP JUMPDEST SWAP1 POP SWAP2 SWAP1 POP JUMP JUMPDEST PUSH2 0x9A6 DUP2 PUSH2 0x98B JUMP JUMPDEST DUP3 MSTORE POP POP JUMP JUMPDEST PUSH1 0x0 PUSH1 0x20 DUP3 ADD SWAP1 POP PUSH2 0x9C1 PUSH1 0x0 DUP4 ADD DUP5 PUSH2 0x99D JUMP JUMPDEST SWAP3 SWAP2 POP POP JUMP JUMPDEST PUSH1 0x0 DUP1 REVERT JUMPDEST PUSH1 0x0 DUP2 SWAP1 POP SWAP2 SWAP1 POP JUMP JUMPDEST PUSH2 0x9DF DUP2 PUSH2 0x9CC JUMP JUMPDEST DUP2 EQ PUSH2 0x9EA JUMPI PUSH1 0x0 DUP1 REVERT JUMPDEST POP JUMP JUMPDEST PUSH1 0x0 DUP2 CALLDATALOAD SWAP1 POP PUSH2 0x9FC DUP2 PUSH2 0x9D6 JUMP JUMPDEST SWAP3 SWAP2 POP POP JUMP JUMPDEST PUSH1 0x0 PUSH1 0x20 DUP3 DUP5 SUB SLT ISZERO PUSH2 0xA18 JUMPI PUSH2 0xA17 PUSH2 0x9C7 JUMP JUMPDEST JUMPDEST PUSH1 0x0 PUSH2 0xA26 DUP5 DUP3 DUP6 ADD PUSH2 0x9ED JUMP JUMPDEST SWAP2 POP POP SWAP3 SWAP2 POP POP JUMP JUMPDEST PUSH1 0x0 DUP3 DUP3 MSTORE PUSH1 0x20 DUP3 ADD SWAP1 POP SWAP3 SWAP2 POP POP JUMP JUMPDEST PUSH32 0x4572726F72203A204F6E6C7920746865206D616E616765722063616E2063616C PUSH1 0x0 DUP3 ADD MSTORE PUSH32 0x6C20746869732066756E6374696F6E0000000000000000000000000000000000 PUSH1 0x20 DUP3 ADD MSTORE POP JUMP JUMPDEST PUSH1 0x0 PUSH2 0xA9C PUSH1 0x2F DUP4 PUSH2 0xA2F JUMP JUMPDEST SWAP2 POP PUSH2 0xAA7 DUP3 PUSH2 0xA40 JUMP JUMPDEST PUSH1 0x40 DUP3 ADD SWAP1 POP SWAP2 SWAP1 POP JUMP JUMPDEST PUSH1 0x0 PUSH1 0x20 DUP3 ADD SWAP1 POP DUP2 DUP2 SUB PUSH1 0x0 DUP4 ADD MSTORE PUSH2 0xACB DUP2 PUSH2 0xA8F JUMP JUMPDEST SWAP1 POP SWAP2 SWAP1 POP JUMP JUMPDEST PUSH32 0x4E487B7100000000000000000000000000000000000000000000000000000000 PUSH1 0x0 MSTORE PUSH1 0x12 PUSH1 0x4 MSTORE PUSH1 0x24 PUSH1 0x0 REVERT JUMPDEST PUSH1 0x0 PUSH2 0xB0C DUP3 PUSH2 0x9CC JUMP JUMPDEST SWAP2 POP PUSH2 0xB17 DUP4 PUSH2 0x9CC JUMP JUMPDEST SWAP3 POP DUP3 PUSH2 0xB27 JUMPI PUSH2 0xB26 PUSH2 0xAD2 JUMP JUMPDEST JUMPDEST DUP3 DUP3 MOD SWAP1 POP SWAP3 SWAP2 POP POP JUMP JUMPDEST PUSH32 0x4E487B7100000000000000000000000000000000000000000000000000000000 PUSH1 0x0 MSTORE PUSH1 0x32 PUSH1 0x4 MSTORE PUSH1 0x24 PUSH1 0x0 REVERT JUMPDEST PUSH32 0x4572726F72203A204D616E616765722063616E206E6F74206265742074686520 PUSH1 0x0 DUP3 ADD MSTORE PUSH32 0x6C6F74746572792067616D650000000000000000000000000000000000000000 PUSH1 0x20 DUP3 ADD MSTORE POP JUMP JUMPDEST PUSH1 0x0 PUSH2 0xBBD PUSH1 0x2C DUP4 PUSH2 0xA2F JUMP JUMPDEST SWAP2 POP PUSH2 0xBC8 DUP3 PUSH2 0xB61 JUMP JUMPDEST PUSH1 0x40 DUP3 ADD SWAP1 POP SWAP2 SWAP1 POP JUMP JUMPDEST PUSH1 0x0 PUSH1 0x20 DUP3 ADD SWAP1 POP DUP2 DUP2 SUB PUSH1 0x0 DUP4 ADD MSTORE PUSH2 0xBEC DUP2 PUSH2 0xBB0 JUMP JUMPDEST SWAP1 POP SWAP2 SWAP1 POP JUMP JUMPDEST PUSH32 0x4572726F72203A2047616E65206973206E6F74206F70656E0000000000000000 PUSH1 0x0 DUP3 ADD MSTORE POP JUMP JUMPDEST PUSH1 0x0 PUSH2 0xC29 PUSH1 0x18 DUP4 PUSH2 0xA2F JUMP JUMPDEST SWAP2 POP PUSH2 0xC34 DUP3 PUSH2 0xBF3 JUMP JUMPDEST PUSH1 0x20 DUP3 ADD SWAP1 POP SWAP2 SWAP1 POP JUMP JUMPDEST PUSH1 0x0 PUSH1 0x20 DUP3 ADD SWAP1 POP DUP2 DUP2 SUB PUSH1 0x0 DUP4 ADD MSTORE PUSH2 0xC58 DUP2 PUSH2 0xC1C JUMP JUMPDEST SWAP1 POP SWAP2 SWAP1 POP JUMP JUMPDEST PUSH32 0x4F6E6C79203120457468657220697320416C6C6F776564000000000000000000 PUSH1 0x0 DUP3 ADD MSTORE POP JUMP JUMPDEST PUSH1 0x0 PUSH2 0xC95 PUSH1 0x17 DUP4 PUSH2 0xA2F JUMP JUMPDEST SWAP2 POP PUSH2 0xCA0 DUP3 PUSH2 0xC5F JUMP JUMPDEST PUSH1 0x20 DUP3 ADD SWAP1 POP SWAP2 SWAP1 POP JUMP JUMPDEST PUSH1 0x0 PUSH1 0x20 DUP3 ADD SWAP1 POP DUP2 DUP2 SUB PUSH1 0x0 DUP4 ADD MSTORE PUSH2 0xCC4 DUP2 PUSH2 0xC88 JUMP JUMPDEST SWAP1 POP SWAP2 SWAP1 POP JUMP JUMPDEST PUSH1 0x0 DUP2 SWAP1 POP SWAP2 SWAP1 POP JUMP JUMPDEST PUSH2 0xCE6 PUSH2 0xCE1 DUP3 PUSH2 0x9CC JUMP JUMPDEST PUSH2 0xCCB JUMP JUMPDEST DUP3 MSTORE POP POP JUMP JUMPDEST PUSH1 0x0 PUSH2 0xCF8 DUP3 DUP7 PUSH2 0xCD5 JUMP JUMPDEST PUSH1 0x20 DUP3 ADD SWAP2 POP PUSH2 0xD08 DUP3 DUP6 PUSH2 0xCD5 JUMP JUMPDEST PUSH1 0x20 DUP3 ADD SWAP2 POP PUSH2 0xD18 DUP3 DUP5 PUSH2 0xCD5 JUMP JUMPDEST PUSH1 0x20 DUP3 ADD SWAP2 POP DUP2 SWAP1 POP SWAP5 SWAP4 POP POP POP POP JUMP JUMPDEST PUSH32 0x4E487B7100000000000000000000000000000000000000000000000000000000 PUSH1 0x0 MSTORE PUSH1 0x11 PUSH1 0x4 MSTORE PUSH1 0x24 PUSH1 0x0 REVERT JUMPDEST PUSH1 0x0 PUSH2 0xD63 DUP3 PUSH2 0x9CC JUMP JUMPDEST SWAP2 POP PUSH32 0xFFFFFFFFFFFFFFFFFFFFFFFFFFFFFFFFFFFFFFFFFFFFFFFFFFFFFFFFFFFFFFFF DUP3 SUB PUSH2 0xD95 JUMPI PUSH2 0xD94 PUSH2 0xD29 JUMP JUMPDEST JUMPDEST PUSH1 0x1 DUP3 ADD SWAP1 POP SWAP2 SWAP1 POP JUMP INVALID LOG2 PUSH5 0x6970667358 0x22 SLT KECCAK256 0x49 LOG1 ORIGIN 0xCF 0xB1 0x4D MOD 0xC5 JUMP PUSH2 0xDFB5 LOG0 REVERT 0xCF CALLDATASIZE 0xB5 0xCB 0xB6 DUP15 PUSH22 0x3C837662376E5B37219E3364736F6C63430008120033 "
				},
				"gasEstimates": {
					"creation": {
						"codeDepositCost": "708400",
						"executionCost": "49324",
						"totalCost": "757724"
					},
					"external": {
						"enter()": "infinite",
						"getPlayers()": "infinite",
						"lottoStatus()": "2560",
						"manager()": "2512",
						"openGame()": "26664",
						"pickWinner()": "infinite",
						"players(uint256)": "5000"
					},
					"internal": {
						"checkDup()": "infinite",
						"random()": "infinite"
					}
				},
				"methodIdentifiers": {
					"enter()": "e97dcb62",
					"getPlayers()": "8b5b9ccc",
					"lottoStatus()": "b12cf032",
					"manager()": "481c6a75",
					"openGame()": "fa12d782",
					"pickWinner()": "5d495aea",
					"players(uint256)": "f71d96cb"
				}
			},
			"storageLayout": {
				"storage": [
					{
						"astId": 3,
						"contract": "Lecture Note/week11/LotteryGame.sol:LotteryGame",
						"label": "manager",
						"offset": 0,
						"slot": "0",
						"type": "t_address"
					},
					{
						"astId": 6,
						"contract": "Lecture Note/week11/LotteryGame.sol:LotteryGame",
						"label": "players",
						"offset": 0,
						"slot": "1",
						"type": "t_array(t_address)dyn_storage"
					},
					{
						"astId": 12,
						"contract": "Lecture Note/week11/LotteryGame.sol:LotteryGame",
						"label": "lottoStatus",
						"offset": 0,
						"slot": "2",
						"type": "t_enum(Status)9"
					},
					{
						"astId": 23,
						"contract": "Lecture Note/week11/LotteryGame.sol:LotteryGame",
						"label": "check",
						"offset": 1,
						"slot": "2",
						"type": "t_bool"
					}
				],
				"types": {
					"t_address": {
						"encoding": "inplace",
						"label": "address",
						"numberOfBytes": "20"
					},
					"t_array(t_address)dyn_storage": {
						"base": "t_address",
						"encoding": "dynamic_array",
						"label": "address[]",
						"numberOfBytes": "32"
					},
					"t_bool": {
						"encoding": "inplace",
						"label": "bool",
						"numberOfBytes": "1"
					},
					"t_enum(Status)9": {
						"encoding": "inplace",
						"label": "enum LotteryGame.Status",
						"numberOfBytes": "1"
					}
				}
			},
			"userdoc": {
				"kind": "user",
				"methods": {},
				"version": 1
			}
		}
	}
}