{
	"Lecture Note/week11/Hotel.sol": {
		"HotelRoom": {
			"abi": [
				{
					"inputs": [],
					"stateMutability": "nonpayable",
					"type": "constructor"
				},
				{
					"anonymous": false,
					"inputs": [
						{
							"indexed": false,
							"internalType": "address",
							"name": "_occupant",
							"type": "address"
						},
						{
							"indexed": false,
							"internalType": "uint256",
							"name": "_value",
							"type": "uint256"
						}
					],
					"name": "Occupy",
					"type": "event"
				},
				{
					"inputs": [],
					"name": "book",
					"outputs": [],
					"stateMutability": "payable",
					"type": "function"
				},
				{
					"inputs": [],
					"name": "currentStatus",
					"outputs": [
						{
							"internalType": "enum HotelRoom.Status",
							"name": "",
							"type": "uint8"
						}
					],
					"stateMutability": "view",
					"type": "function"
				},
				{
					"inputs": [],
					"name": "reset",
					"outputs": [],
					"stateMutability": "nonpayable",
					"type": "function"
				},
				{
					"inputs": [
						{
							"internalType": "uint256",
							"name": "_amount",
							"type": "uint256"
						}
					],
					"name": "setAmount",
					"outputs": [],
					"stateMutability": "nonpayable",
					"type": "function"
				}
			],
			"devdoc": {
				"kind": "dev",
				"methods": {},
				"version": 1
			},
			"evm": {
				"assembly": "    /* \"Lecture Note/week11/Hotel.sol\":61:1263  contract HotelRoom {... */\n  mstore(0x40, 0x80)\n    /* \"Lecture Note/week11/Hotel.sol\":186:194  10 ether */\n  0x8ac7230489e80000\n    /* \"Lecture Note/week11/Hotel.sol\":172:194  uint amount = 10 ether */\n  0x01\n  sstore\n    /* \"Lecture Note/week11/Hotel.sol\":282:295  Status.Vacant */\n  0x00\n    /* \"Lecture Note/week11/Hotel.sol\":252:295  Status public currentStatus = Status.Vacant */\n  0x02\n  exp(0x0100, 0x00)\n  dup2\n  sload\n  dup2\n  0xff\n  mul\n  not\n  and\n  swap1\n  dup4\n  0x01\n  dup2\n  gt\n  iszero\n  tag_1\n  jumpi\n  tag_2\n  tag_3\n  jump\t// in\ntag_2:\ntag_1:\n  mul\n  or\n  swap1\n  sstore\n  pop\n    /* \"Lecture Note/week11/Hotel.sol\":302:399  constructor() {... */\n  callvalue\n  dup1\n  iszero\n  tag_4\n  jumpi\n  0x00\n  dup1\n  revert\ntag_4:\n  pop\n    /* \"Lecture Note/week11/Hotel.sol\":342:352  msg.sender */\n  caller\n    /* \"Lecture Note/week11/Hotel.sol\":326:331  owner */\n  0x00\n  dup1\n    /* \"Lecture Note/week11/Hotel.sol\":326:353  owner = payable(msg.sender) */\n  0x0100\n  exp\n  dup2\n  sload\n  dup2\n  0xffffffffffffffffffffffffffffffffffffffff\n  mul\n  not\n  and\n  swap1\n  dup4\n  0xffffffffffffffffffffffffffffffffffffffff\n  and\n  mul\n  or\n  swap1\n  sstore\n  pop\n    /* \"Lecture Note/week11/Hotel.sol\":379:392  Status.Vacant */\n  0x00\n    /* \"Lecture Note/week11/Hotel.sol\":363:376  currentStatus */\n  0x02\n  0x00\n    /* \"Lecture Note/week11/Hotel.sol\":363:392  currentStatus = Status.Vacant */\n  0x0100\n  exp\n  dup2\n  sload\n  dup2\n  0xff\n  mul\n  not\n  and\n  swap1\n  dup4\n  0x01\n  dup2\n  gt\n  iszero\n  tag_7\n  jumpi\n  tag_8\n  tag_3\n  jump\t// in\ntag_8:\ntag_7:\n  mul\n  or\n  swap1\n  sstore\n  pop\n    /* \"Lecture Note/week11/Hotel.sol\":61:1263  contract HotelRoom {... */\n  jump(tag_9)\n    /* \"#utility.yul\":7:187   */\ntag_3:\n    /* \"#utility.yul\":55:132   */\n  0x4e487b7100000000000000000000000000000000000000000000000000000000\n    /* \"#utility.yul\":52:53   */\n  0x00\n    /* \"#utility.yul\":45:133   */\n  mstore\n    /* \"#utility.yul\":152:156   */\n  0x21\n    /* \"#utility.yul\":149:150   */\n  0x04\n    /* \"#utility.yul\":142:157   */\n  mstore\n    /* \"#utility.yul\":176:180   */\n  0x24\n    /* \"#utility.yul\":173:174   */\n  0x00\n    /* \"#utility.yul\":166:181   */\n  revert\n    /* \"Lecture Note/week11/Hotel.sol\":61:1263  contract HotelRoom {... */\ntag_9:\n  dataSize(sub_0)\n  dup1\n  dataOffset(sub_0)\n  0x00\n  codecopy\n  0x00\n  return\nstop\n\nsub_0: assembly {\n        /* \"Lecture Note/week11/Hotel.sol\":61:1263  contract HotelRoom {... */\n      mstore(0x40, 0x80)\n      jumpi(tag_1, lt(calldatasize, 0x04))\n      shr(0xe0, calldataload(0x00))\n      dup1\n      0x05a8da72\n      eq\n      tag_2\n      jumpi\n      dup1\n      0x271f88b4\n      eq\n      tag_3\n      jumpi\n      dup1\n      0xd826f88f\n      eq\n      tag_4\n      jumpi\n      dup1\n      0xef8a9235\n      eq\n      tag_5\n      jumpi\n    tag_1:\n      0x00\n      dup1\n      revert\n        /* \"Lecture Note/week11/Hotel.sol\":893:1135  function book() ... */\n    tag_2:\n      tag_6\n      tag_7\n      jump\t// in\n    tag_6:\n      stop\n        /* \"Lecture Note/week11/Hotel.sol\":1141:1261  function setAmount(uint _amount) ... */\n    tag_3:\n      callvalue\n      dup1\n      iszero\n      tag_8\n      jumpi\n      0x00\n      dup1\n      revert\n    tag_8:\n      pop\n      tag_9\n      0x04\n      dup1\n      calldatasize\n      sub\n      dup2\n      add\n      swap1\n      tag_10\n      swap2\n      swap1\n      tag_11\n      jump\t// in\n    tag_10:\n      tag_12\n      jump\t// in\n    tag_9:\n      stop\n        /* \"Lecture Note/week11/Hotel.sol\":780:887  function reset()... */\n    tag_4:\n      callvalue\n      dup1\n      iszero\n      tag_13\n      jumpi\n      0x00\n      dup1\n      revert\n    tag_13:\n      pop\n      tag_14\n      tag_15\n      jump\t// in\n    tag_14:\n      stop\n        /* \"Lecture Note/week11/Hotel.sol\":252:295  Status public currentStatus = Status.Vacant */\n    tag_5:\n      callvalue\n      dup1\n      iszero\n      tag_16\n      jumpi\n      0x00\n      dup1\n      revert\n    tag_16:\n      pop\n      tag_17\n      tag_18\n      jump\t// in\n    tag_17:\n      mload(0x40)\n      tag_19\n      swap2\n      swap1\n      tag_20\n      jump\t// in\n    tag_19:\n      mload(0x40)\n      dup1\n      swap2\n      sub\n      swap1\n      return\n        /* \"Lecture Note/week11/Hotel.sol\":893:1135  function book() ... */\n    tag_7:\n        /* \"Lecture Note/week11/Hotel.sol\":467:480  Status.Vacant */\n      0x00\n        /* \"Lecture Note/week11/Hotel.sol\":450:480  currentStatus == Status.Vacant */\n      0x01\n      dup2\n      gt\n      iszero\n      tag_22\n      jumpi\n      tag_23\n      tag_24\n      jump\t// in\n    tag_23:\n    tag_22:\n        /* \"Lecture Note/week11/Hotel.sol\":450:463  currentStatus */\n      0x02\n      0x00\n      swap1\n      sload\n      swap1\n      0x0100\n      exp\n      swap1\n      div\n      0xff\n      and\n        /* \"Lecture Note/week11/Hotel.sol\":450:480  currentStatus == Status.Vacant */\n      0x01\n      dup2\n      gt\n      iszero\n      tag_25\n      jumpi\n      tag_26\n      tag_24\n      jump\t// in\n    tag_26:\n    tag_25:\n      eq\n        /* \"Lecture Note/week11/Hotel.sol\":442:515  require(currentStatus == Status.Vacant, \"Error : The room is not vacant\") */\n      tag_27\n      jumpi\n      mload(0x40)\n      0x08c379a000000000000000000000000000000000000000000000000000000000\n      dup2\n      mstore\n      0x04\n      add\n      tag_28\n      swap1\n      tag_29\n      jump\t// in\n    tag_28:\n      mload(0x40)\n      dup1\n      swap2\n      sub\n      swap1\n      revert\n    tag_27:\n        /* \"Lecture Note/week11/Hotel.sol\":983:989  amount */\n      sload(0x01)\n        /* \"Lecture Note/week11/Hotel.sol\":599:606  _amount */\n      dup1\n        /* \"Lecture Note/week11/Hotel.sol\":586:595  msg.value */\n      callvalue\n        /* \"Lecture Note/week11/Hotel.sol\":586:606  msg.value >= _amount */\n      lt\n      iszero\n        /* \"Lecture Note/week11/Hotel.sol\":578:644  require(msg.value >= _amount, \"Error : Not enough ether provided\") */\n      tag_31\n      jumpi\n      mload(0x40)\n      0x08c379a000000000000000000000000000000000000000000000000000000000\n      dup2\n      mstore\n      0x04\n      add\n      tag_32\n      swap1\n      tag_33\n      jump\t// in\n    tag_32:\n      mload(0x40)\n      dup1\n      swap2\n      sub\n      swap1\n      revert\n    tag_31:\n        /* \"Lecture Note/week11/Hotel.sol\":1021:1036  Status.Occupied */\n      0x01\n        /* \"Lecture Note/week11/Hotel.sol\":1005:1018  currentStatus */\n      0x02\n      0x00\n        /* \"Lecture Note/week11/Hotel.sol\":1005:1036  currentStatus = Status.Occupied */\n      0x0100\n      exp\n      dup2\n      sload\n      dup2\n      0xff\n      mul\n      not\n      and\n      swap1\n      dup4\n      0x01\n      dup2\n      gt\n      iszero\n      tag_35\n      jumpi\n      tag_36\n      tag_24\n      jump\t// in\n    tag_36:\n    tag_35:\n      mul\n      or\n      swap1\n      sstore\n      pop\n        /* \"Lecture Note/week11/Hotel.sol\":1050:1055  owner */\n      0x00\n      dup1\n      sload\n      swap1\n      0x0100\n      exp\n      swap1\n      div\n      0xffffffffffffffffffffffffffffffffffffffff\n      and\n        /* \"Lecture Note/week11/Hotel.sol\":1050:1064  owner.transfer */\n      0xffffffffffffffffffffffffffffffffffffffff\n      and\n        /* \"Lecture Note/week11/Hotel.sol\":1050:1075  owner.transfer(msg.value) */\n      0x08fc\n        /* \"Lecture Note/week11/Hotel.sol\":1065:1074  msg.value */\n      callvalue\n        /* \"Lecture Note/week11/Hotel.sol\":1050:1075  owner.transfer(msg.value) */\n      swap1\n      dup2\n      iszero\n      mul\n      swap1\n      mload(0x40)\n      0x00\n      mload(0x40)\n      dup1\n      dup4\n      sub\n      dup2\n      dup6\n      dup9\n      dup9\n      call\n      swap4\n      pop\n      pop\n      pop\n      pop\n      iszero\n      dup1\n      iszero\n      tag_38\n      jumpi\n      returndatasize\n      0x00\n      dup1\n      returndatacopy\n      revert(0x00, returndatasize)\n    tag_38:\n      pop\n        /* \"Lecture Note/week11/Hotel.sol\":1095:1124  Occupy(msg.sender, msg.value) */\n      0xba951166d42eb077151bdecb7cf6027562f04f0143b0c141b1bb0a33eef5d693\n        /* \"Lecture Note/week11/Hotel.sol\":1102:1112  msg.sender */\n      caller\n        /* \"Lecture Note/week11/Hotel.sol\":1114:1123  msg.value */\n      callvalue\n        /* \"Lecture Note/week11/Hotel.sol\":1095:1124  Occupy(msg.sender, msg.value) */\n      mload(0x40)\n      tag_39\n      swap3\n      swap2\n      swap1\n      tag_40\n      jump\t// in\n    tag_39:\n      mload(0x40)\n      dup1\n      swap2\n      sub\n      swap1\n      log1\n        /* \"Lecture Note/week11/Hotel.sol\":525:526  _ */\n      pop\n        /* \"Lecture Note/week11/Hotel.sol\":893:1135  function book() ... */\n      jump\t// out\n        /* \"Lecture Note/week11/Hotel.sol\":1141:1261  function setAmount(uint _amount) ... */\n    tag_12:\n        /* \"Lecture Note/week11/Hotel.sol\":716:726  msg.sender */\n      caller\n        /* \"Lecture Note/week11/Hotel.sol\":707:726  owner == msg.sender */\n      0xffffffffffffffffffffffffffffffffffffffff\n      and\n        /* \"Lecture Note/week11/Hotel.sol\":707:712  owner */\n      0x00\n      dup1\n      sload\n      swap1\n      0x0100\n      exp\n      swap1\n      div\n      0xffffffffffffffffffffffffffffffffffffffff\n      and\n        /* \"Lecture Note/week11/Hotel.sol\":707:726  owner == msg.sender */\n      0xffffffffffffffffffffffffffffffffffffffff\n      and\n      eq\n        /* \"Lecture Note/week11/Hotel.sol\":699:756  require(owner == msg.sender, \"Error : you are not owner\") */\n      tag_42\n      jumpi\n      mload(0x40)\n      0x08c379a000000000000000000000000000000000000000000000000000000000\n      dup2\n      mstore\n      0x04\n      add\n      tag_43\n      swap1\n      tag_44\n      jump\t// in\n    tag_43:\n      mload(0x40)\n      dup1\n      swap2\n      sub\n      swap1\n      revert\n    tag_42:\n        /* \"Lecture Note/week11/Hotel.sol\":1243:1250  1 ether */\n      0x0de0b6b3a7640000\n        /* \"Lecture Note/week11/Hotel.sol\":1233:1240  _amount */\n      dup2\n        /* \"Lecture Note/week11/Hotel.sol\":1233:1250  _amount * 1 ether */\n      tag_46\n      swap2\n      swap1\n      tag_47\n      jump\t// in\n    tag_46:\n        /* \"Lecture Note/week11/Hotel.sol\":1224:1230  amount */\n      0x01\n        /* \"Lecture Note/week11/Hotel.sol\":1224:1250  amount = _amount * 1 ether */\n      dup2\n      swap1\n      sstore\n      pop\n        /* \"Lecture Note/week11/Hotel.sol\":1141:1261  function setAmount(uint _amount) ... */\n      pop\n      jump\t// out\n        /* \"Lecture Note/week11/Hotel.sol\":780:887  function reset()... */\n    tag_15:\n        /* \"Lecture Note/week11/Hotel.sol\":716:726  msg.sender */\n      caller\n        /* \"Lecture Note/week11/Hotel.sol\":707:726  owner == msg.sender */\n      0xffffffffffffffffffffffffffffffffffffffff\n      and\n        /* \"Lecture Note/week11/Hotel.sol\":707:712  owner */\n      0x00\n      dup1\n      sload\n      swap1\n      0x0100\n      exp\n      swap1\n      div\n      0xffffffffffffffffffffffffffffffffffffffff\n      and\n        /* \"Lecture Note/week11/Hotel.sol\":707:726  owner == msg.sender */\n      0xffffffffffffffffffffffffffffffffffffffff\n      and\n      eq\n        /* \"Lecture Note/week11/Hotel.sol\":699:756  require(owner == msg.sender, \"Error : you are not owner\") */\n      tag_49\n      jumpi\n      mload(0x40)\n      0x08c379a000000000000000000000000000000000000000000000000000000000\n      dup2\n      mstore\n      0x04\n      add\n      tag_50\n      swap1\n      tag_44\n      jump\t// in\n    tag_50:\n      mload(0x40)\n      dup1\n      swap2\n      sub\n      swap1\n      revert\n    tag_49:\n        /* \"Lecture Note/week11/Hotel.sol\":863:876  Status.Vacant */\n      0x00\n        /* \"Lecture Note/week11/Hotel.sol\":847:860  currentStatus */\n      0x02\n      0x00\n        /* \"Lecture Note/week11/Hotel.sol\":847:876  currentStatus = Status.Vacant */\n      0x0100\n      exp\n      dup2\n      sload\n      dup2\n      0xff\n      mul\n      not\n      and\n      swap1\n      dup4\n      0x01\n      dup2\n      gt\n      iszero\n      tag_52\n      jumpi\n      tag_53\n      tag_24\n      jump\t// in\n    tag_53:\n    tag_52:\n      mul\n      or\n      swap1\n      sstore\n      pop\n        /* \"Lecture Note/week11/Hotel.sol\":780:887  function reset()... */\n      jump\t// out\n        /* \"Lecture Note/week11/Hotel.sol\":252:295  Status public currentStatus = Status.Vacant */\n    tag_18:\n      0x02\n      0x00\n      swap1\n      sload\n      swap1\n      0x0100\n      exp\n      swap1\n      div\n      0xff\n      and\n      dup2\n      jump\t// out\n        /* \"#utility.yul\":88:205   */\n    tag_55:\n        /* \"#utility.yul\":197:198   */\n      0x00\n        /* \"#utility.yul\":194:195   */\n      dup1\n        /* \"#utility.yul\":187:199   */\n      revert\n        /* \"#utility.yul\":334:411   */\n    tag_57:\n        /* \"#utility.yul\":371:378   */\n      0x00\n        /* \"#utility.yul\":400:405   */\n      dup2\n        /* \"#utility.yul\":389:405   */\n      swap1\n      pop\n        /* \"#utility.yul\":334:411   */\n      swap2\n      swap1\n      pop\n      jump\t// out\n        /* \"#utility.yul\":417:539   */\n    tag_58:\n        /* \"#utility.yul\":490:514   */\n      tag_82\n        /* \"#utility.yul\":508:513   */\n      dup2\n        /* \"#utility.yul\":490:514   */\n      tag_57\n      jump\t// in\n    tag_82:\n        /* \"#utility.yul\":483:488   */\n      dup2\n        /* \"#utility.yul\":480:515   */\n      eq\n        /* \"#utility.yul\":470:533   */\n      tag_83\n      jumpi\n        /* \"#utility.yul\":529:530   */\n      0x00\n        /* \"#utility.yul\":526:527   */\n      dup1\n        /* \"#utility.yul\":519:531   */\n      revert\n        /* \"#utility.yul\":470:533   */\n    tag_83:\n        /* \"#utility.yul\":417:539   */\n      pop\n      jump\t// out\n        /* \"#utility.yul\":545:684   */\n    tag_59:\n        /* \"#utility.yul\":591:596   */\n      0x00\n        /* \"#utility.yul\":629:635   */\n      dup2\n        /* \"#utility.yul\":616:636   */\n      calldataload\n        /* \"#utility.yul\":607:636   */\n      swap1\n      pop\n        /* \"#utility.yul\":645:678   */\n      tag_85\n        /* \"#utility.yul\":672:677   */\n      dup2\n        /* \"#utility.yul\":645:678   */\n      tag_58\n      jump\t// in\n    tag_85:\n        /* \"#utility.yul\":545:684   */\n      swap3\n      swap2\n      pop\n      pop\n      jump\t// out\n        /* \"#utility.yul\":690:1019   */\n    tag_11:\n        /* \"#utility.yul\":749:755   */\n      0x00\n        /* \"#utility.yul\":798:800   */\n      0x20\n        /* \"#utility.yul\":786:795   */\n      dup3\n        /* \"#utility.yul\":777:784   */\n      dup5\n        /* \"#utility.yul\":773:796   */\n      sub\n        /* \"#utility.yul\":769:801   */\n      slt\n        /* \"#utility.yul\":766:885   */\n      iszero\n      tag_87\n      jumpi\n        /* \"#utility.yul\":804:883   */\n      tag_88\n      tag_55\n      jump\t// in\n    tag_88:\n        /* \"#utility.yul\":766:885   */\n    tag_87:\n        /* \"#utility.yul\":924:925   */\n      0x00\n        /* \"#utility.yul\":949:1002   */\n      tag_89\n        /* \"#utility.yul\":994:1001   */\n      dup5\n        /* \"#utility.yul\":985:991   */\n      dup3\n        /* \"#utility.yul\":974:983   */\n      dup6\n        /* \"#utility.yul\":970:992   */\n      add\n        /* \"#utility.yul\":949:1002   */\n      tag_59\n      jump\t// in\n    tag_89:\n        /* \"#utility.yul\":939:1002   */\n      swap2\n      pop\n        /* \"#utility.yul\":895:1012   */\n      pop\n        /* \"#utility.yul\":690:1019   */\n      swap3\n      swap2\n      pop\n      pop\n      jump\t// out\n        /* \"#utility.yul\":1025:1205   */\n    tag_24:\n        /* \"#utility.yul\":1073:1150   */\n      0x4e487b7100000000000000000000000000000000000000000000000000000000\n        /* \"#utility.yul\":1070:1071   */\n      0x00\n        /* \"#utility.yul\":1063:1151   */\n      mstore\n        /* \"#utility.yul\":1170:1174   */\n      0x21\n        /* \"#utility.yul\":1167:1168   */\n      0x04\n        /* \"#utility.yul\":1160:1175   */\n      mstore\n        /* \"#utility.yul\":1194:1198   */\n      0x24\n        /* \"#utility.yul\":1191:1192   */\n      0x00\n        /* \"#utility.yul\":1184:1199   */\n      revert\n        /* \"#utility.yul\":1211:1324   */\n    tag_60:\n        /* \"#utility.yul\":1292:1293   */\n      0x02\n        /* \"#utility.yul\":1285:1290   */\n      dup2\n        /* \"#utility.yul\":1282:1294   */\n      lt\n        /* \"#utility.yul\":1272:1318   */\n      tag_92\n      jumpi\n        /* \"#utility.yul\":1298:1316   */\n      tag_93\n      tag_24\n      jump\t// in\n    tag_93:\n        /* \"#utility.yul\":1272:1318   */\n    tag_92:\n        /* \"#utility.yul\":1211:1324   */\n      pop\n      jump\t// out\n        /* \"#utility.yul\":1330:1457   */\n    tag_61:\n        /* \"#utility.yul\":1375:1382   */\n      0x00\n        /* \"#utility.yul\":1404:1409   */\n      dup2\n        /* \"#utility.yul\":1393:1409   */\n      swap1\n      pop\n        /* \"#utility.yul\":1410:1451   */\n      tag_95\n        /* \"#utility.yul\":1445:1450   */\n      dup3\n        /* \"#utility.yul\":1410:1451   */\n      tag_60\n      jump\t// in\n    tag_95:\n        /* \"#utility.yul\":1330:1457   */\n      swap2\n      swap1\n      pop\n      jump\t// out\n        /* \"#utility.yul\":1463:1590   */\n    tag_62:\n        /* \"#utility.yul\":1519:1528   */\n      0x00\n        /* \"#utility.yul\":1552:1584   */\n      tag_97\n        /* \"#utility.yul\":1578:1583   */\n      dup3\n        /* \"#utility.yul\":1552:1584   */\n      tag_61\n      jump\t// in\n    tag_97:\n        /* \"#utility.yul\":1539:1584   */\n      swap1\n      pop\n        /* \"#utility.yul\":1463:1590   */\n      swap2\n      swap1\n      pop\n      jump\t// out\n        /* \"#utility.yul\":1596:1739   */\n    tag_63:\n        /* \"#utility.yul\":1689:1732   */\n      tag_99\n        /* \"#utility.yul\":1726:1731   */\n      dup2\n        /* \"#utility.yul\":1689:1732   */\n      tag_62\n      jump\t// in\n    tag_99:\n        /* \"#utility.yul\":1684:1687   */\n      dup3\n        /* \"#utility.yul\":1677:1733   */\n      mstore\n        /* \"#utility.yul\":1596:1739   */\n      pop\n      pop\n      jump\t// out\n        /* \"#utility.yul\":1745:1979   */\n    tag_20:\n        /* \"#utility.yul\":1844:1848   */\n      0x00\n        /* \"#utility.yul\":1882:1884   */\n      0x20\n        /* \"#utility.yul\":1871:1880   */\n      dup3\n        /* \"#utility.yul\":1867:1885   */\n      add\n        /* \"#utility.yul\":1859:1885   */\n      swap1\n      pop\n        /* \"#utility.yul\":1895:1972   */\n      tag_101\n        /* \"#utility.yul\":1969:1970   */\n      0x00\n        /* \"#utility.yul\":1958:1967   */\n      dup4\n        /* \"#utility.yul\":1954:1971   */\n      add\n        /* \"#utility.yul\":1945:1951   */\n      dup5\n        /* \"#utility.yul\":1895:1972   */\n      tag_63\n      jump\t// in\n    tag_101:\n        /* \"#utility.yul\":1745:1979   */\n      swap3\n      swap2\n      pop\n      pop\n      jump\t// out\n        /* \"#utility.yul\":1985:2154   */\n    tag_64:\n        /* \"#utility.yul\":2069:2080   */\n      0x00\n        /* \"#utility.yul\":2103:2109   */\n      dup3\n        /* \"#utility.yul\":2098:2101   */\n      dup3\n        /* \"#utility.yul\":2091:2110   */\n      mstore\n        /* \"#utility.yul\":2143:2147   */\n      0x20\n        /* \"#utility.yul\":2138:2141   */\n      dup3\n        /* \"#utility.yul\":2134:2148   */\n      add\n        /* \"#utility.yul\":2119:2148   */\n      swap1\n      pop\n        /* \"#utility.yul\":1985:2154   */\n      swap3\n      swap2\n      pop\n      pop\n      jump\t// out\n        /* \"#utility.yul\":2160:2340   */\n    tag_65:\n        /* \"#utility.yul\":2300:2332   */\n      0x4572726f72203a2054686520726f6f6d206973206e6f7420766163616e740000\n        /* \"#utility.yul\":2296:2297   */\n      0x00\n        /* \"#utility.yul\":2288:2294   */\n      dup3\n        /* \"#utility.yul\":2284:2298   */\n      add\n        /* \"#utility.yul\":2277:2333   */\n      mstore\n        /* \"#utility.yul\":2160:2340   */\n      pop\n      jump\t// out\n        /* \"#utility.yul\":2346:2712   */\n    tag_66:\n        /* \"#utility.yul\":2488:2491   */\n      0x00\n        /* \"#utility.yul\":2509:2576   */\n      tag_105\n        /* \"#utility.yul\":2573:2575   */\n      0x1e\n        /* \"#utility.yul\":2568:2571   */\n      dup4\n        /* \"#utility.yul\":2509:2576   */\n      tag_64\n      jump\t// in\n    tag_105:\n        /* \"#utility.yul\":2502:2576   */\n      swap2\n      pop\n        /* \"#utility.yul\":2585:2678   */\n      tag_106\n        /* \"#utility.yul\":2674:2677   */\n      dup3\n        /* \"#utility.yul\":2585:2678   */\n      tag_65\n      jump\t// in\n    tag_106:\n        /* \"#utility.yul\":2703:2705   */\n      0x20\n        /* \"#utility.yul\":2698:2701   */\n      dup3\n        /* \"#utility.yul\":2694:2706   */\n      add\n        /* \"#utility.yul\":2687:2706   */\n      swap1\n      pop\n        /* \"#utility.yul\":2346:2712   */\n      swap2\n      swap1\n      pop\n      jump\t// out\n        /* \"#utility.yul\":2718:3137   */\n    tag_29:\n        /* \"#utility.yul\":2884:2888   */\n      0x00\n        /* \"#utility.yul\":2922:2924   */\n      0x20\n        /* \"#utility.yul\":2911:2920   */\n      dup3\n        /* \"#utility.yul\":2907:2925   */\n      add\n        /* \"#utility.yul\":2899:2925   */\n      swap1\n      pop\n        /* \"#utility.yul\":2971:2980   */\n      dup2\n        /* \"#utility.yul\":2965:2969   */\n      dup2\n        /* \"#utility.yul\":2961:2981   */\n      sub\n        /* \"#utility.yul\":2957:2958   */\n      0x00\n        /* \"#utility.yul\":2946:2955   */\n      dup4\n        /* \"#utility.yul\":2942:2959   */\n      add\n        /* \"#utility.yul\":2935:2982   */\n      mstore\n        /* \"#utility.yul\":2999:3130   */\n      tag_108\n        /* \"#utility.yul\":3125:3129   */\n      dup2\n        /* \"#utility.yul\":2999:3130   */\n      tag_66\n      jump\t// in\n    tag_108:\n        /* \"#utility.yul\":2991:3130   */\n      swap1\n      pop\n        /* \"#utility.yul\":2718:3137   */\n      swap2\n      swap1\n      pop\n      jump\t// out\n        /* \"#utility.yul\":3143:3363   */\n    tag_67:\n        /* \"#utility.yul\":3283:3317   */\n      0x4572726f72203a204e6f7420656e6f7567682065746865722070726f76696465\n        /* \"#utility.yul\":3279:3280   */\n      0x00\n        /* \"#utility.yul\":3271:3277   */\n      dup3\n        /* \"#utility.yul\":3267:3281   */\n      add\n        /* \"#utility.yul\":3260:3318   */\n      mstore\n        /* \"#utility.yul\":3352:3355   */\n      0x6400000000000000000000000000000000000000000000000000000000000000\n        /* \"#utility.yul\":3347:3349   */\n      0x20\n        /* \"#utility.yul\":3339:3345   */\n      dup3\n        /* \"#utility.yul\":3335:3350   */\n      add\n        /* \"#utility.yul\":3328:3356   */\n      mstore\n        /* \"#utility.yul\":3143:3363   */\n      pop\n      jump\t// out\n        /* \"#utility.yul\":3369:3735   */\n    tag_68:\n        /* \"#utility.yul\":3511:3514   */\n      0x00\n        /* \"#utility.yul\":3532:3599   */\n      tag_111\n        /* \"#utility.yul\":3596:3598   */\n      0x21\n        /* \"#utility.yul\":3591:3594   */\n      dup4\n        /* \"#utility.yul\":3532:3599   */\n      tag_64\n      jump\t// in\n    tag_111:\n        /* \"#utility.yul\":3525:3599   */\n      swap2\n      pop\n        /* \"#utility.yul\":3608:3701   */\n      tag_112\n        /* \"#utility.yul\":3697:3700   */\n      dup3\n        /* \"#utility.yul\":3608:3701   */\n      tag_67\n      jump\t// in\n    tag_112:\n        /* \"#utility.yul\":3726:3728   */\n      0x40\n        /* \"#utility.yul\":3721:3724   */\n      dup3\n        /* \"#utility.yul\":3717:3729   */\n      add\n        /* \"#utility.yul\":3710:3729   */\n      swap1\n      pop\n        /* \"#utility.yul\":3369:3735   */\n      swap2\n      swap1\n      pop\n      jump\t// out\n        /* \"#utility.yul\":3741:4160   */\n    tag_33:\n        /* \"#utility.yul\":3907:3911   */\n      0x00\n        /* \"#utility.yul\":3945:3947   */\n      0x20\n        /* \"#utility.yul\":3934:3943   */\n      dup3\n        /* \"#utility.yul\":3930:3948   */\n      add\n        /* \"#utility.yul\":3922:3948   */\n      swap1\n      pop\n        /* \"#utility.yul\":3994:4003   */\n      dup2\n        /* \"#utility.yul\":3988:3992   */\n      dup2\n        /* \"#utility.yul\":3984:4004   */\n      sub\n        /* \"#utility.yul\":3980:3981   */\n      0x00\n        /* \"#utility.yul\":3969:3978   */\n      dup4\n        /* \"#utility.yul\":3965:3982   */\n      add\n        /* \"#utility.yul\":3958:4005   */\n      mstore\n        /* \"#utility.yul\":4022:4153   */\n      tag_114\n        /* \"#utility.yul\":4148:4152   */\n      dup2\n        /* \"#utility.yul\":4022:4153   */\n      tag_68\n      jump\t// in\n    tag_114:\n        /* \"#utility.yul\":4014:4153   */\n      swap1\n      pop\n        /* \"#utility.yul\":3741:4160   */\n      swap2\n      swap1\n      pop\n      jump\t// out\n        /* \"#utility.yul\":4166:4292   */\n    tag_69:\n        /* \"#utility.yul\":4203:4210   */\n      0x00\n        /* \"#utility.yul\":4243:4285   */\n      0xffffffffffffffffffffffffffffffffffffffff\n        /* \"#utility.yul\":4236:4241   */\n      dup3\n        /* \"#utility.yul\":4232:4286   */\n      and\n        /* \"#utility.yul\":4221:4286   */\n      swap1\n      pop\n        /* \"#utility.yul\":4166:4292   */\n      swap2\n      swap1\n      pop\n      jump\t// out\n        /* \"#utility.yul\":4298:4394   */\n    tag_70:\n        /* \"#utility.yul\":4335:4342   */\n      0x00\n        /* \"#utility.yul\":4364:4388   */\n      tag_117\n        /* \"#utility.yul\":4382:4387   */\n      dup3\n        /* \"#utility.yul\":4364:4388   */\n      tag_69\n      jump\t// in\n    tag_117:\n        /* \"#utility.yul\":4353:4388   */\n      swap1\n      pop\n        /* \"#utility.yul\":4298:4394   */\n      swap2\n      swap1\n      pop\n      jump\t// out\n        /* \"#utility.yul\":4400:4518   */\n    tag_71:\n        /* \"#utility.yul\":4487:4511   */\n      tag_119\n        /* \"#utility.yul\":4505:4510   */\n      dup2\n        /* \"#utility.yul\":4487:4511   */\n      tag_70\n      jump\t// in\n    tag_119:\n        /* \"#utility.yul\":4482:4485   */\n      dup3\n        /* \"#utility.yul\":4475:4512   */\n      mstore\n        /* \"#utility.yul\":4400:4518   */\n      pop\n      pop\n      jump\t// out\n        /* \"#utility.yul\":4524:4642   */\n    tag_72:\n        /* \"#utility.yul\":4611:4635   */\n      tag_121\n        /* \"#utility.yul\":4629:4634   */\n      dup2\n        /* \"#utility.yul\":4611:4635   */\n      tag_57\n      jump\t// in\n    tag_121:\n        /* \"#utility.yul\":4606:4609   */\n      dup3\n        /* \"#utility.yul\":4599:4636   */\n      mstore\n        /* \"#utility.yul\":4524:4642   */\n      pop\n      pop\n      jump\t// out\n        /* \"#utility.yul\":4648:4980   */\n    tag_40:\n        /* \"#utility.yul\":4769:4773   */\n      0x00\n        /* \"#utility.yul\":4807:4809   */\n      0x40\n        /* \"#utility.yul\":4796:4805   */\n      dup3\n        /* \"#utility.yul\":4792:4810   */\n      add\n        /* \"#utility.yul\":4784:4810   */\n      swap1\n      pop\n        /* \"#utility.yul\":4820:4891   */\n      tag_123\n        /* \"#utility.yul\":4888:4889   */\n      0x00\n        /* \"#utility.yul\":4877:4886   */\n      dup4\n        /* \"#utility.yul\":4873:4890   */\n      add\n        /* \"#utility.yul\":4864:4870   */\n      dup6\n        /* \"#utility.yul\":4820:4891   */\n      tag_71\n      jump\t// in\n    tag_123:\n        /* \"#utility.yul\":4901:4973   */\n      tag_124\n        /* \"#utility.yul\":4969:4971   */\n      0x20\n        /* \"#utility.yul\":4958:4967   */\n      dup4\n        /* \"#utility.yul\":4954:4972   */\n      add\n        /* \"#utility.yul\":4945:4951   */\n      dup5\n        /* \"#utility.yul\":4901:4973   */\n      tag_72\n      jump\t// in\n    tag_124:\n        /* \"#utility.yul\":4648:4980   */\n      swap4\n      swap3\n      pop\n      pop\n      pop\n      jump\t// out\n        /* \"#utility.yul\":4986:5161   */\n    tag_73:\n        /* \"#utility.yul\":5126:5153   */\n      0x4572726f72203a20796f7520617265206e6f74206f776e657200000000000000\n        /* \"#utility.yul\":5122:5123   */\n      0x00\n        /* \"#utility.yul\":5114:5120   */\n      dup3\n        /* \"#utility.yul\":5110:5124   */\n      add\n        /* \"#utility.yul\":5103:5154   */\n      mstore\n        /* \"#utility.yul\":4986:5161   */\n      pop\n      jump\t// out\n        /* \"#utility.yul\":5167:5533   */\n    tag_74:\n        /* \"#utility.yul\":5309:5312   */\n      0x00\n        /* \"#utility.yul\":5330:5397   */\n      tag_127\n        /* \"#utility.yul\":5394:5396   */\n      0x19\n        /* \"#utility.yul\":5389:5392   */\n      dup4\n        /* \"#utility.yul\":5330:5397   */\n      tag_64\n      jump\t// in\n    tag_127:\n        /* \"#utility.yul\":5323:5397   */\n      swap2\n      pop\n        /* \"#utility.yul\":5406:5499   */\n      tag_128\n        /* \"#utility.yul\":5495:5498   */\n      dup3\n        /* \"#utility.yul\":5406:5499   */\n      tag_73\n      jump\t// in\n    tag_128:\n        /* \"#utility.yul\":5524:5526   */\n      0x20\n        /* \"#utility.yul\":5519:5522   */\n      dup3\n        /* \"#utility.yul\":5515:5527   */\n      add\n        /* \"#utility.yul\":5508:5527   */\n      swap1\n      pop\n        /* \"#utility.yul\":5167:5533   */\n      swap2\n      swap1\n      pop\n      jump\t// out\n        /* \"#utility.yul\":5539:5958   */\n    tag_44:\n        /* \"#utility.yul\":5705:5709   */\n      0x00\n        /* \"#utility.yul\":5743:5745   */\n      0x20\n        /* \"#utility.yul\":5732:5741   */\n      dup3\n        /* \"#utility.yul\":5728:5746   */\n      add\n        /* \"#utility.yul\":5720:5746   */\n      swap1\n      pop\n        /* \"#utility.yul\":5792:5801   */\n      dup2\n        /* \"#utility.yul\":5786:5790   */\n      dup2\n        /* \"#utility.yul\":5782:5802   */\n      sub\n        /* \"#utility.yul\":5778:5779   */\n      0x00\n        /* \"#utility.yul\":5767:5776   */\n      dup4\n        /* \"#utility.yul\":5763:5780   */\n      add\n        /* \"#utility.yul\":5756:5803   */\n      mstore\n        /* \"#utility.yul\":5820:5951   */\n      tag_130\n        /* \"#utility.yul\":5946:5950   */\n      dup2\n        /* \"#utility.yul\":5820:5951   */\n      tag_74\n      jump\t// in\n    tag_130:\n        /* \"#utility.yul\":5812:5951   */\n      swap1\n      pop\n        /* \"#utility.yul\":5539:5958   */\n      swap2\n      swap1\n      pop\n      jump\t// out\n        /* \"#utility.yul\":5964:6144   */\n    tag_75:\n        /* \"#utility.yul\":6012:6089   */\n      0x4e487b7100000000000000000000000000000000000000000000000000000000\n        /* \"#utility.yul\":6009:6010   */\n      0x00\n        /* \"#utility.yul\":6002:6090   */\n      mstore\n        /* \"#utility.yul\":6109:6113   */\n      0x11\n        /* \"#utility.yul\":6106:6107   */\n      0x04\n        /* \"#utility.yul\":6099:6114   */\n      mstore\n        /* \"#utility.yul\":6133:6137   */\n      0x24\n        /* \"#utility.yul\":6130:6131   */\n      0x00\n        /* \"#utility.yul\":6123:6138   */\n      revert\n        /* \"#utility.yul\":6150:6560   */\n    tag_47:\n        /* \"#utility.yul\":6190:6197   */\n      0x00\n        /* \"#utility.yul\":6213:6233   */\n      tag_133\n        /* \"#utility.yul\":6231:6232   */\n      dup3\n        /* \"#utility.yul\":6213:6233   */\n      tag_57\n      jump\t// in\n    tag_133:\n        /* \"#utility.yul\":6208:6233   */\n      swap2\n      pop\n        /* \"#utility.yul\":6247:6267   */\n      tag_134\n        /* \"#utility.yul\":6265:6266   */\n      dup4\n        /* \"#utility.yul\":6247:6267   */\n      tag_57\n      jump\t// in\n    tag_134:\n        /* \"#utility.yul\":6242:6267   */\n      swap3\n      pop\n        /* \"#utility.yul\":6302:6303   */\n      dup3\n        /* \"#utility.yul\":6299:6300   */\n      dup3\n        /* \"#utility.yul\":6295:6304   */\n      mul\n        /* \"#utility.yul\":6324:6354   */\n      tag_135\n        /* \"#utility.yul\":6342:6353   */\n      dup2\n        /* \"#utility.yul\":6324:6354   */\n      tag_57\n      jump\t// in\n    tag_135:\n        /* \"#utility.yul\":6313:6354   */\n      swap2\n      pop\n        /* \"#utility.yul\":6503:6504   */\n      dup3\n        /* \"#utility.yul\":6494:6501   */\n      dup3\n        /* \"#utility.yul\":6490:6505   */\n      div\n        /* \"#utility.yul\":6487:6488   */\n      dup5\n        /* \"#utility.yul\":6484:6506   */\n      eq\n        /* \"#utility.yul\":6464:6465   */\n      dup4\n        /* \"#utility.yul\":6457:6466   */\n      iszero\n        /* \"#utility.yul\":6437:6520   */\n      or\n        /* \"#utility.yul\":6414:6553   */\n      tag_136\n      jumpi\n        /* \"#utility.yul\":6533:6551   */\n      tag_137\n      tag_75\n      jump\t// in\n    tag_137:\n        /* \"#utility.yul\":6414:6553   */\n    tag_136:\n        /* \"#utility.yul\":6198:6560   */\n      pop\n        /* \"#utility.yul\":6150:6560   */\n      swap3\n      swap2\n      pop\n      pop\n      jump\t// out\n\n    auxdata: 0xa26469706673582212203be5e76a9ed6bac63bbd08164219f9f0b8c17a75130e2e940e3d28e038e40f0e64736f6c63430008120033\n}\n",
				"bytecode": {
					"linkReferences": {},
					"object": "6080604052678ac7230489e800006001556000600260006101000a81548160ff02191690836001811115610036576100356100b8565b5b021790555034801561004757600080fd5b50336000806101000a81548173ffffffffffffffffffffffffffffffffffffffff021916908373ffffffffffffffffffffffffffffffffffffffff1602179055506000600260006101000a81548160ff021916908360018111156100ae576100ad6100b8565b5b02179055506100e7565b7f4e487b7100000000000000000000000000000000000000000000000000000000600052602160045260246000fd5b610751806100f66000396000f3fe60806040526004361061003f5760003560e01c806305a8da7214610044578063271f88b41461004e578063d826f88f14610077578063ef8a92351461008e575b600080fd5b61004c6100b9565b005b34801561005a57600080fd5b50610075600480360381019061007091906103f7565b610243565b005b34801561008357600080fd5b5061008c6102ee565b005b34801561009a57600080fd5b506100a36103a9565b6040516100b0919061049b565b60405180910390f35b600060018111156100cd576100cc610424565b5b600260009054906101000a900460ff1660018111156100ef576100ee610424565b5b1461012f576040517f08c379a000000000000000000000000000000000000000000000000000000000815260040161012690610513565b60405180910390fd5b60015480341015610175576040517f08c379a000000000000000000000000000000000000000000000000000000000815260040161016c906105a5565b60405180910390fd5b6001600260006101000a81548160ff0219169083600181111561019b5761019a610424565b5b021790555060008054906101000a900473ffffffffffffffffffffffffffffffffffffffff1673ffffffffffffffffffffffffffffffffffffffff166108fc349081150290604051600060405180830381858888f19350505050158015610206573d6000803e3d6000fd5b507fba951166d42eb077151bdecb7cf6027562f04f0143b0c141b1bb0a33eef5d6933334604051610238929190610615565b60405180910390a150565b3373ffffffffffffffffffffffffffffffffffffffff1660008054906101000a900473ffffffffffffffffffffffffffffffffffffffff1673ffffffffffffffffffffffffffffffffffffffff16146102d1576040517f08c379a00000000000000000000000000000000000000000000000000000000081526004016102c89061068a565b60405180910390fd5b670de0b6b3a7640000816102e591906106d9565b60018190555050565b3373ffffffffffffffffffffffffffffffffffffffff1660008054906101000a900473ffffffffffffffffffffffffffffffffffffffff1673ffffffffffffffffffffffffffffffffffffffff161461037c576040517f08c379a00000000000000000000000000000000000000000000000000000000081526004016103739061068a565b60405180910390fd5b6000600260006101000a81548160ff021916908360018111156103a2576103a1610424565b5b0217905550565b600260009054906101000a900460ff1681565b600080fd5b6000819050919050565b6103d4816103c1565b81146103df57600080fd5b50565b6000813590506103f1816103cb565b92915050565b60006020828403121561040d5761040c6103bc565b5b600061041b848285016103e2565b91505092915050565b7f4e487b7100000000000000000000000000000000000000000000000000000000600052602160045260246000fd5b6002811061046457610463610424565b5b50565b600081905061047582610453565b919050565b600061048582610467565b9050919050565b6104958161047a565b82525050565b60006020820190506104b0600083018461048c565b92915050565b600082825260208201905092915050565b7f4572726f72203a2054686520726f6f6d206973206e6f7420766163616e740000600082015250565b60006104fd601e836104b6565b9150610508826104c7565b602082019050919050565b6000602082019050818103600083015261052c816104f0565b9050919050565b7f4572726f72203a204e6f7420656e6f7567682065746865722070726f7669646560008201527f6400000000000000000000000000000000000000000000000000000000000000602082015250565b600061058f6021836104b6565b915061059a82610533565b604082019050919050565b600060208201905081810360008301526105be81610582565b9050919050565b600073ffffffffffffffffffffffffffffffffffffffff82169050919050565b60006105f0826105c5565b9050919050565b610600816105e5565b82525050565b61060f816103c1565b82525050565b600060408201905061062a60008301856105f7565b6106376020830184610606565b9392505050565b7f4572726f72203a20796f7520617265206e6f74206f776e657200000000000000600082015250565b60006106746019836104b6565b915061067f8261063e565b602082019050919050565b600060208201905081810360008301526106a381610667565b9050919050565b7f4e487b7100000000000000000000000000000000000000000000000000000000600052601160045260246000fd5b60006106e4826103c1565b91506106ef836103c1565b92508282026106fd816103c1565b91508282048414831517610714576107136106aa565b5b509291505056fea26469706673582212203be5e76a9ed6bac63bbd08164219f9f0b8c17a75130e2e940e3d28e038e40f0e64736f6c63430008120033",
					"opcodes": "PUSH1 0x80 PUSH1 0x40 MSTORE PUSH8 0x8AC7230489E80000 PUSH1 0x1 SSTORE PUSH1 0x0 PUSH1 0x2 PUSH1 0x0 PUSH2 0x100 EXP DUP2 SLOAD DUP2 PUSH1 0xFF MUL NOT AND SWAP1 DUP4 PUSH1 0x1 DUP2 GT ISZERO PUSH2 0x36 JUMPI PUSH2 0x35 PUSH2 0xB8 JUMP JUMPDEST JUMPDEST MUL OR SWAP1 SSTORE POP CALLVALUE DUP1 ISZERO PUSH2 0x47 JUMPI PUSH1 0x0 DUP1 REVERT JUMPDEST POP CALLER PUSH1 0x0 DUP1 PUSH2 0x100 EXP DUP2 SLOAD DUP2 PUSH20 0xFFFFFFFFFFFFFFFFFFFFFFFFFFFFFFFFFFFFFFFF MUL NOT AND SWAP1 DUP4 PUSH20 0xFFFFFFFFFFFFFFFFFFFFFFFFFFFFFFFFFFFFFFFF AND MUL OR SWAP1 SSTORE POP PUSH1 0x0 PUSH1 0x2 PUSH1 0x0 PUSH2 0x100 EXP DUP2 SLOAD DUP2 PUSH1 0xFF MUL NOT AND SWAP1 DUP4 PUSH1 0x1 DUP2 GT ISZERO PUSH2 0xAE JUMPI PUSH2 0xAD PUSH2 0xB8 JUMP JUMPDEST JUMPDEST MUL OR SWAP1 SSTORE POP PUSH2 0xE7 JUMP JUMPDEST PUSH32 0x4E487B7100000000000000000000000000000000000000000000000000000000 PUSH1 0x0 MSTORE PUSH1 0x21 PUSH1 0x4 MSTORE PUSH1 0x24 PUSH1 0x0 REVERT JUMPDEST PUSH2 0x751 DUP1 PUSH2 0xF6 PUSH1 0x0 CODECOPY PUSH1 0x0 RETURN INVALID PUSH1 0x80 PUSH1 0x40 MSTORE PUSH1 0x4 CALLDATASIZE LT PUSH2 0x3F JUMPI PUSH1 0x0 CALLDATALOAD PUSH1 0xE0 SHR DUP1 PUSH4 0x5A8DA72 EQ PUSH2 0x44 JUMPI DUP1 PUSH4 0x271F88B4 EQ PUSH2 0x4E JUMPI DUP1 PUSH4 0xD826F88F EQ PUSH2 0x77 JUMPI DUP1 PUSH4 0xEF8A9235 EQ PUSH2 0x8E JUMPI JUMPDEST PUSH1 0x0 DUP1 REVERT JUMPDEST PUSH2 0x4C PUSH2 0xB9 JUMP JUMPDEST STOP JUMPDEST CALLVALUE DUP1 ISZERO PUSH2 0x5A JUMPI PUSH1 0x0 DUP1 REVERT JUMPDEST POP PUSH2 0x75 PUSH1 0x4 DUP1 CALLDATASIZE SUB DUP2 ADD SWAP1 PUSH2 0x70 SWAP2 SWAP1 PUSH2 0x3F7 JUMP JUMPDEST PUSH2 0x243 JUMP JUMPDEST STOP JUMPDEST CALLVALUE DUP1 ISZERO PUSH2 0x83 JUMPI PUSH1 0x0 DUP1 REVERT JUMPDEST POP PUSH2 0x8C PUSH2 0x2EE JUMP JUMPDEST STOP JUMPDEST CALLVALUE DUP1 ISZERO PUSH2 0x9A JUMPI PUSH1 0x0 DUP1 REVERT JUMPDEST POP PUSH2 0xA3 PUSH2 0x3A9 JUMP JUMPDEST PUSH1 0x40 MLOAD PUSH2 0xB0 SWAP2 SWAP1 PUSH2 0x49B JUMP JUMPDEST PUSH1 0x40 MLOAD DUP1 SWAP2 SUB SWAP1 RETURN JUMPDEST PUSH1 0x0 PUSH1 0x1 DUP2 GT ISZERO PUSH2 0xCD JUMPI PUSH2 0xCC PUSH2 0x424 JUMP JUMPDEST JUMPDEST PUSH1 0x2 PUSH1 0x0 SWAP1 SLOAD SWAP1 PUSH2 0x100 EXP SWAP1 DIV PUSH1 0xFF AND PUSH1 0x1 DUP2 GT ISZERO PUSH2 0xEF JUMPI PUSH2 0xEE PUSH2 0x424 JUMP JUMPDEST JUMPDEST EQ PUSH2 0x12F JUMPI PUSH1 0x40 MLOAD PUSH32 0x8C379A000000000000000000000000000000000000000000000000000000000 DUP2 MSTORE PUSH1 0x4 ADD PUSH2 0x126 SWAP1 PUSH2 0x513 JUMP JUMPDEST PUSH1 0x40 MLOAD DUP1 SWAP2 SUB SWAP1 REVERT JUMPDEST PUSH1 0x1 SLOAD DUP1 CALLVALUE LT ISZERO PUSH2 0x175 JUMPI PUSH1 0x40 MLOAD PUSH32 0x8C379A000000000000000000000000000000000000000000000000000000000 DUP2 MSTORE PUSH1 0x4 ADD PUSH2 0x16C SWAP1 PUSH2 0x5A5 JUMP JUMPDEST PUSH1 0x40 MLOAD DUP1 SWAP2 SUB SWAP1 REVERT JUMPDEST PUSH1 0x1 PUSH1 0x2 PUSH1 0x0 PUSH2 0x100 EXP DUP2 SLOAD DUP2 PUSH1 0xFF MUL NOT AND SWAP1 DUP4 PUSH1 0x1 DUP2 GT ISZERO PUSH2 0x19B JUMPI PUSH2 0x19A PUSH2 0x424 JUMP JUMPDEST JUMPDEST MUL OR SWAP1 SSTORE POP PUSH1 0x0 DUP1 SLOAD SWAP1 PUSH2 0x100 EXP SWAP1 DIV PUSH20 0xFFFFFFFFFFFFFFFFFFFFFFFFFFFFFFFFFFFFFFFF AND PUSH20 0xFFFFFFFFFFFFFFFFFFFFFFFFFFFFFFFFFFFFFFFF AND PUSH2 0x8FC CALLVALUE SWAP1 DUP2 ISZERO MUL SWAP1 PUSH1 0x40 MLOAD PUSH1 0x0 PUSH1 0x40 MLOAD DUP1 DUP4 SUB DUP2 DUP6 DUP9 DUP9 CALL SWAP4 POP POP POP POP ISZERO DUP1 ISZERO PUSH2 0x206 JUMPI RETURNDATASIZE PUSH1 0x0 DUP1 RETURNDATACOPY RETURNDATASIZE PUSH1 0x0 REVERT JUMPDEST POP PUSH32 0xBA951166D42EB077151BDECB7CF6027562F04F0143B0C141B1BB0A33EEF5D693 CALLER CALLVALUE PUSH1 0x40 MLOAD PUSH2 0x238 SWAP3 SWAP2 SWAP1 PUSH2 0x615 JUMP JUMPDEST PUSH1 0x40 MLOAD DUP1 SWAP2 SUB SWAP1 LOG1 POP JUMP JUMPDEST CALLER PUSH20 0xFFFFFFFFFFFFFFFFFFFFFFFFFFFFFFFFFFFFFFFF AND PUSH1 0x0 DUP1 SLOAD SWAP1 PUSH2 0x100 EXP SWAP1 DIV PUSH20 0xFFFFFFFFFFFFFFFFFFFFFFFFFFFFFFFFFFFFFFFF AND PUSH20 0xFFFFFFFFFFFFFFFFFFFFFFFFFFFFFFFFFFFFFFFF AND EQ PUSH2 0x2D1 JUMPI PUSH1 0x40 MLOAD PUSH32 0x8C379A000000000000000000000000000000000000000000000000000000000 DUP2 MSTORE PUSH1 0x4 ADD PUSH2 0x2C8 SWAP1 PUSH2 0x68A JUMP JUMPDEST PUSH1 0x40 MLOAD DUP1 SWAP2 SUB SWAP1 REVERT JUMPDEST PUSH8 0xDE0B6B3A7640000 DUP2 PUSH2 0x2E5 SWAP2 SWAP1 PUSH2 0x6D9 JUMP JUMPDEST PUSH1 0x1 DUP2 SWAP1 SSTORE POP POP JUMP JUMPDEST CALLER PUSH20 0xFFFFFFFFFFFFFFFFFFFFFFFFFFFFFFFFFFFFFFFF AND PUSH1 0x0 DUP1 SLOAD SWAP1 PUSH2 0x100 EXP SWAP1 DIV PUSH20 0xFFFFFFFFFFFFFFFFFFFFFFFFFFFFFFFFFFFFFFFF AND PUSH20 0xFFFFFFFFFFFFFFFFFFFFFFFFFFFFFFFFFFFFFFFF AND EQ PUSH2 0x37C JUMPI PUSH1 0x40 MLOAD PUSH32 0x8C379A000000000000000000000000000000000000000000000000000000000 DUP2 MSTORE PUSH1 0x4 ADD PUSH2 0x373 SWAP1 PUSH2 0x68A JUMP JUMPDEST PUSH1 0x40 MLOAD DUP1 SWAP2 SUB SWAP1 REVERT JUMPDEST PUSH1 0x0 PUSH1 0x2 PUSH1 0x0 PUSH2 0x100 EXP DUP2 SLOAD DUP2 PUSH1 0xFF MUL NOT AND SWAP1 DUP4 PUSH1 0x1 DUP2 GT ISZERO PUSH2 0x3A2 JUMPI PUSH2 0x3A1 PUSH2 0x424 JUMP JUMPDEST JUMPDEST MUL OR SWAP1 SSTORE POP JUMP JUMPDEST PUSH1 0x2 PUSH1 0x0 SWAP1 SLOAD SWAP1 PUSH2 0x100 EXP SWAP1 DIV PUSH1 0xFF AND DUP2 JUMP JUMPDEST PUSH1 0x0 DUP1 REVERT JUMPDEST PUSH1 0x0 DUP2 SWAP1 POP SWAP2 SWAP1 POP JUMP JUMPDEST PUSH2 0x3D4 DUP2 PUSH2 0x3C1 JUMP JUMPDEST DUP2 EQ PUSH2 0x3DF JUMPI PUSH1 0x0 DUP1 REVERT JUMPDEST POP JUMP JUMPDEST PUSH1 0x0 DUP2 CALLDATALOAD SWAP1 POP PUSH2 0x3F1 DUP2 PUSH2 0x3CB JUMP JUMPDEST SWAP3 SWAP2 POP POP JUMP JUMPDEST PUSH1 0x0 PUSH1 0x20 DUP3 DUP5 SUB SLT ISZERO PUSH2 0x40D JUMPI PUSH2 0x40C PUSH2 0x3BC JUMP JUMPDEST JUMPDEST PUSH1 0x0 PUSH2 0x41B DUP5 DUP3 DUP6 ADD PUSH2 0x3E2 JUMP JUMPDEST SWAP2 POP POP SWAP3 SWAP2 POP POP JUMP JUMPDEST PUSH32 0x4E487B7100000000000000000000000000000000000000000000000000000000 PUSH1 0x0 MSTORE PUSH1 0x21 PUSH1 0x4 MSTORE PUSH1 0x24 PUSH1 0x0 REVERT JUMPDEST PUSH1 0x2 DUP2 LT PUSH2 0x464 JUMPI PUSH2 0x463 PUSH2 0x424 JUMP JUMPDEST JUMPDEST POP JUMP JUMPDEST PUSH1 0x0 DUP2 SWAP1 POP PUSH2 0x475 DUP3 PUSH2 0x453 JUMP JUMPDEST SWAP2 SWAP1 POP JUMP JUMPDEST PUSH1 0x0 PUSH2 0x485 DUP3 PUSH2 0x467 JUMP JUMPDEST SWAP1 POP SWAP2 SWAP1 POP JUMP JUMPDEST PUSH2 0x495 DUP2 PUSH2 0x47A JUMP JUMPDEST DUP3 MSTORE POP POP JUMP JUMPDEST PUSH1 0x0 PUSH1 0x20 DUP3 ADD SWAP1 POP PUSH2 0x4B0 PUSH1 0x0 DUP4 ADD DUP5 PUSH2 0x48C JUMP JUMPDEST SWAP3 SWAP2 POP POP JUMP JUMPDEST PUSH1 0x0 DUP3 DUP3 MSTORE PUSH1 0x20 DUP3 ADD SWAP1 POP SWAP3 SWAP2 POP POP JUMP JUMPDEST PUSH32 0x4572726F72203A2054686520726F6F6D206973206E6F7420766163616E740000 PUSH1 0x0 DUP3 ADD MSTORE POP JUMP JUMPDEST PUSH1 0x0 PUSH2 0x4FD PUSH1 0x1E DUP4 PUSH2 0x4B6 JUMP JUMPDEST SWAP2 POP PUSH2 0x508 DUP3 PUSH2 0x4C7 JUMP JUMPDEST PUSH1 0x20 DUP3 ADD SWAP1 POP SWAP2 SWAP1 POP JUMP JUMPDEST PUSH1 0x0 PUSH1 0x20 DUP3 ADD SWAP1 POP DUP2 DUP2 SUB PUSH1 0x0 DUP4 ADD MSTORE PUSH2 0x52C DUP2 PUSH2 0x4F0 JUMP JUMPDEST SWAP1 POP SWAP2 SWAP1 POP JUMP JUMPDEST PUSH32 0x4572726F72203A204E6F7420656E6F7567682065746865722070726F76696465 PUSH1 0x0 DUP3 ADD MSTORE PUSH32 0x6400000000000000000000000000000000000000000000000000000000000000 PUSH1 0x20 DUP3 ADD MSTORE POP JUMP JUMPDEST PUSH1 0x0 PUSH2 0x58F PUSH1 0x21 DUP4 PUSH2 0x4B6 JUMP JUMPDEST SWAP2 POP PUSH2 0x59A DUP3 PUSH2 0x533 JUMP JUMPDEST PUSH1 0x40 DUP3 ADD SWAP1 POP SWAP2 SWAP1 POP JUMP JUMPDEST PUSH1 0x0 PUSH1 0x20 DUP3 ADD SWAP1 POP DUP2 DUP2 SUB PUSH1 0x0 DUP4 ADD MSTORE PUSH2 0x5BE DUP2 PUSH2 0x582 JUMP JUMPDEST SWAP1 POP SWAP2 SWAP1 POP JUMP JUMPDEST PUSH1 0x0 PUSH20 0xFFFFFFFFFFFFFFFFFFFFFFFFFFFFFFFFFFFFFFFF DUP3 AND SWAP1 POP SWAP2 SWAP1 POP JUMP JUMPDEST PUSH1 0x0 PUSH2 0x5F0 DUP3 PUSH2 0x5C5 JUMP JUMPDEST SWAP1 POP SWAP2 SWAP1 POP JUMP JUMPDEST PUSH2 0x600 DUP2 PUSH2 0x5E5 JUMP JUMPDEST DUP3 MSTORE POP POP JUMP JUMPDEST PUSH2 0x60F DUP2 PUSH2 0x3C1 JUMP JUMPDEST DUP3 MSTORE POP POP JUMP JUMPDEST PUSH1 0x0 PUSH1 0x40 DUP3 ADD SWAP1 POP PUSH2 0x62A PUSH1 0x0 DUP4 ADD DUP6 PUSH2 0x5F7 JUMP JUMPDEST PUSH2 0x637 PUSH1 0x20 DUP4 ADD DUP5 PUSH2 0x606 JUMP JUMPDEST SWAP4 SWAP3 POP POP POP JUMP JUMPDEST PUSH32 0x4572726F72203A20796F7520617265206E6F74206F776E657200000000000000 PUSH1 0x0 DUP3 ADD MSTORE POP JUMP JUMPDEST PUSH1 0x0 PUSH2 0x674 PUSH1 0x19 DUP4 PUSH2 0x4B6 JUMP JUMPDEST SWAP2 POP PUSH2 0x67F DUP3 PUSH2 0x63E JUMP JUMPDEST PUSH1 0x20 DUP3 ADD SWAP1 POP SWAP2 SWAP1 POP JUMP JUMPDEST PUSH1 0x0 PUSH1 0x20 DUP3 ADD SWAP1 POP DUP2 DUP2 SUB PUSH1 0x0 DUP4 ADD MSTORE PUSH2 0x6A3 DUP2 PUSH2 0x667 JUMP JUMPDEST SWAP1 POP SWAP2 SWAP1 POP JUMP JUMPDEST PUSH32 0x4E487B7100000000000000000000000000000000000000000000000000000000 PUSH1 0x0 MSTORE PUSH1 0x11 PUSH1 0x4 MSTORE PUSH1 0x24 PUSH1 0x0 REVERT JUMPDEST PUSH1 0x0 PUSH2 0x6E4 DUP3 PUSH2 0x3C1 JUMP JUMPDEST SWAP2 POP PUSH2 0x6EF DUP4 PUSH2 0x3C1 JUMP JUMPDEST SWAP3 POP DUP3 DUP3 MUL PUSH2 0x6FD DUP2 PUSH2 0x3C1 JUMP JUMPDEST SWAP2 POP DUP3 DUP3 DIV DUP5 EQ DUP4 ISZERO OR PUSH2 0x714 JUMPI PUSH2 0x713 PUSH2 0x6AA JUMP JUMPDEST JUMPDEST POP SWAP3 SWAP2 POP POP JUMP INVALID LOG2 PUSH5 0x6970667358 0x22 SLT KECCAK256 EXTCODESIZE 0xE5 0xE7 PUSH11 0x9ED6BAC63BBD08164219F9 CREATE 0xB8 0xC1 PUSH27 0x75130E2E940E3D28E038E40F0E64736F6C63430008120033000000 "
				},
				"gasEstimates": {
					"creation": {
						"codeDepositCost": "374600",
						"executionCost": "95369",
						"totalCost": "469969"
					},
					"external": {
						"book()": "infinite",
						"currentStatus()": "2604",
						"reset()": "26620",
						"setAmount(uint256)": "infinite"
					}
				},
				"methodIdentifiers": {
					"book()": "05a8da72",
					"currentStatus()": "ef8a9235",
					"reset()": "d826f88f",
					"setAmount(uint256)": "271f88b4"
				}
			},
			"storageLayout": {
				"storage": [
					{
						"astId": 6,
						"contract": "Lecture Note/week11/Hotel.sol:HotelRoom",
						"label": "owner",
						"offset": 0,
						"slot": "0",
						"type": "t_address_payable"
					},
					{
						"astId": 9,
						"contract": "Lecture Note/week11/Hotel.sol:HotelRoom",
						"label": "amount",
						"offset": 0,
						"slot": "1",
						"type": "t_uint256"
					},
					{
						"astId": 20,
						"contract": "Lecture Note/week11/Hotel.sol:HotelRoom",
						"label": "currentStatus",
						"offset": 0,
						"slot": "2",
						"type": "t_enum(Status)4"
					}
				],
				"types": {
					"t_address_payable": {
						"encoding": "inplace",
						"label": "address payable",
						"numberOfBytes": "20"
					},
					"t_enum(Status)4": {
						"encoding": "inplace",
						"label": "enum HotelRoom.Status",
						"numberOfBytes": "1"
					},
					"t_uint256": {
						"encoding": "inplace",
						"label": "uint256",
						"numberOfBytes": "32"
					}
				}
			},
			"userdoc": {
				"kind": "user",
				"methods": {},
				"version": 1
			}
		}
	}
}