{
	"Textbook/Chapter4/keywordBreak.sol": {
		"Ex4_13": {
			"abi": [
				{
					"inputs": [],
					"name": "fun1",
					"outputs": [
						{
							"internalType": "uint256",
							"name": "",
							"type": "uint256"
						}
					],
					"stateMutability": "pure",
					"type": "function"
				}
			],
			"devdoc": {
				"kind": "dev",
				"methods": {},
				"version": 1
			},
			"evm": {
				"assembly": "    /* \"Textbook/Chapter4/keywordBreak.sol\":57:323  contract Ex4_13{... */\n  mstore(0x40, 0x80)\n  callvalue\n  dup1\n  iszero\n  tag_1\n  jumpi\n  0x00\n  dup1\n  revert\ntag_1:\n  pop\n  dataSize(sub_0)\n  dup1\n  dataOffset(sub_0)\n  0x00\n  codecopy\n  0x00\n  return\nstop\n\nsub_0: assembly {\n        /* \"Textbook/Chapter4/keywordBreak.sol\":57:323  contract Ex4_13{... */\n      mstore(0x40, 0x80)\n      callvalue\n      dup1\n      iszero\n      tag_1\n      jumpi\n      0x00\n      dup1\n      revert\n    tag_1:\n      pop\n      jumpi(tag_2, lt(calldatasize, 0x04))\n      shr(0xe0, calldataload(0x00))\n      dup1\n      0x446a45b7\n      eq\n      tag_3\n      jumpi\n    tag_2:\n      0x00\n      dup1\n      revert\n        /* \"Textbook/Chapter4/keywordBreak.sol\":78:321  function fun1() ... */\n    tag_3:\n      tag_4\n      tag_5\n      jump\t// in\n    tag_4:\n      mload(0x40)\n      tag_6\n      swap2\n      swap1\n      tag_7\n      jump\t// in\n    tag_6:\n      mload(0x40)\n      dup1\n      swap2\n      sub\n      swap1\n      return\n    tag_5:\n        /* \"Textbook/Chapter4/keywordBreak.sol\":141:145  uint */\n      0x00\n        /* \"Textbook/Chapter4/keywordBreak.sol\":160:171  uint result */\n      dup1\n        /* \"Textbook/Chapter4/keywordBreak.sol\":174:175  0 */\n      0x00\n        /* \"Textbook/Chapter4/keywordBreak.sol\":160:175  uint result = 0 */\n      swap1\n      pop\n        /* \"Textbook/Chapter4/keywordBreak.sol\":193:199  uint i */\n      0x00\n        /* \"Textbook/Chapter4/keywordBreak.sol\":189:296  for(uint i = 0; i < 10; ++i){... */\n    tag_9:\n        /* \"Textbook/Chapter4/keywordBreak.sol\":209:211  10 */\n      0x0a\n        /* \"Textbook/Chapter4/keywordBreak.sol\":205:206  i */\n      dup2\n        /* \"Textbook/Chapter4/keywordBreak.sol\":205:211  i < 10 */\n      lt\n        /* \"Textbook/Chapter4/keywordBreak.sol\":189:296  for(uint i = 0; i < 10; ++i){... */\n      iszero\n      tag_10\n      jumpi\n        /* \"Textbook/Chapter4/keywordBreak.sol\":243:244  0 */\n      0x00\n        /* \"Textbook/Chapter4/keywordBreak.sol\":238:239  i */\n      dup2\n        /* \"Textbook/Chapter4/keywordBreak.sol\":238:244  i == 0 */\n      sub\n        /* \"Textbook/Chapter4/keywordBreak.sol\":235:253  if(i == 0){break;} */\n      iszero\n        /* \"Textbook/Chapter4/keywordBreak.sol\":246:251  break */\n      tag_10\n        /* \"Textbook/Chapter4/keywordBreak.sol\":235:253  if(i == 0){break;} */\n      jumpi\n        /* \"Textbook/Chapter4/keywordBreak.sol\":280:281  i */\n      dup1\n        /* \"Textbook/Chapter4/keywordBreak.sol\":270:281  result += i */\n      dup3\n      tag_13\n      swap2\n      swap1\n      tag_14\n      jump\t// in\n    tag_13:\n      swap2\n      pop\n        /* \"Textbook/Chapter4/keywordBreak.sol\":213:216  ++i */\n      dup1\n      tag_15\n      swap1\n      tag_16\n      jump\t// in\n    tag_15:\n      swap1\n      pop\n        /* \"Textbook/Chapter4/keywordBreak.sol\":189:296  for(uint i = 0; i < 10; ++i){... */\n      jump(tag_9)\n    tag_10:\n      pop\n        /* \"Textbook/Chapter4/keywordBreak.sol\":304:310  result */\n      dup1\n        /* \"Textbook/Chapter4/keywordBreak.sol\":297:310  return result */\n      swap2\n      pop\n      pop\n        /* \"Textbook/Chapter4/keywordBreak.sol\":78:321  function fun1() ... */\n      swap1\n      jump\t// out\n        /* \"#utility.yul\":7:84   */\n    tag_17:\n        /* \"#utility.yul\":44:51   */\n      0x00\n        /* \"#utility.yul\":73:78   */\n      dup2\n        /* \"#utility.yul\":62:78   */\n      swap1\n      pop\n        /* \"#utility.yul\":7:84   */\n      swap2\n      swap1\n      pop\n      jump\t// out\n        /* \"#utility.yul\":90:208   */\n    tag_18:\n        /* \"#utility.yul\":177:201   */\n      tag_23\n        /* \"#utility.yul\":195:200   */\n      dup2\n        /* \"#utility.yul\":177:201   */\n      tag_17\n      jump\t// in\n    tag_23:\n        /* \"#utility.yul\":172:175   */\n      dup3\n        /* \"#utility.yul\":165:202   */\n      mstore\n        /* \"#utility.yul\":90:208   */\n      pop\n      pop\n      jump\t// out\n        /* \"#utility.yul\":214:436   */\n    tag_7:\n        /* \"#utility.yul\":307:311   */\n      0x00\n        /* \"#utility.yul\":345:347   */\n      0x20\n        /* \"#utility.yul\":334:343   */\n      dup3\n        /* \"#utility.yul\":330:348   */\n      add\n        /* \"#utility.yul\":322:348   */\n      swap1\n      pop\n        /* \"#utility.yul\":358:429   */\n      tag_25\n        /* \"#utility.yul\":426:427   */\n      0x00\n        /* \"#utility.yul\":415:424   */\n      dup4\n        /* \"#utility.yul\":411:428   */\n      add\n        /* \"#utility.yul\":402:408   */\n      dup5\n        /* \"#utility.yul\":358:429   */\n      tag_18\n      jump\t// in\n    tag_25:\n        /* \"#utility.yul\":214:436   */\n      swap3\n      swap2\n      pop\n      pop\n      jump\t// out\n        /* \"#utility.yul\":442:622   */\n    tag_19:\n        /* \"#utility.yul\":490:567   */\n      0x4e487b7100000000000000000000000000000000000000000000000000000000\n        /* \"#utility.yul\":487:488   */\n      0x00\n        /* \"#utility.yul\":480:568   */\n      mstore\n        /* \"#utility.yul\":587:591   */\n      0x11\n        /* \"#utility.yul\":584:585   */\n      0x04\n        /* \"#utility.yul\":577:592   */\n      mstore\n        /* \"#utility.yul\":611:615   */\n      0x24\n        /* \"#utility.yul\":608:609   */\n      0x00\n        /* \"#utility.yul\":601:616   */\n      revert\n        /* \"#utility.yul\":628:819   */\n    tag_14:\n        /* \"#utility.yul\":668:671   */\n      0x00\n        /* \"#utility.yul\":687:707   */\n      tag_28\n        /* \"#utility.yul\":705:706   */\n      dup3\n        /* \"#utility.yul\":687:707   */\n      tag_17\n      jump\t// in\n    tag_28:\n        /* \"#utility.yul\":682:707   */\n      swap2\n      pop\n        /* \"#utility.yul\":721:741   */\n      tag_29\n        /* \"#utility.yul\":739:740   */\n      dup4\n        /* \"#utility.yul\":721:741   */\n      tag_17\n      jump\t// in\n    tag_29:\n        /* \"#utility.yul\":716:741   */\n      swap3\n      pop\n        /* \"#utility.yul\":764:765   */\n      dup3\n        /* \"#utility.yul\":761:762   */\n      dup3\n        /* \"#utility.yul\":757:766   */\n      add\n        /* \"#utility.yul\":750:766   */\n      swap1\n      pop\n        /* \"#utility.yul\":785:788   */\n      dup1\n        /* \"#utility.yul\":782:783   */\n      dup3\n        /* \"#utility.yul\":779:789   */\n      gt\n        /* \"#utility.yul\":776:812   */\n      iszero\n      tag_30\n      jumpi\n        /* \"#utility.yul\":792:810   */\n      tag_31\n      tag_19\n      jump\t// in\n    tag_31:\n        /* \"#utility.yul\":776:812   */\n    tag_30:\n        /* \"#utility.yul\":628:819   */\n      swap3\n      swap2\n      pop\n      pop\n      jump\t// out\n        /* \"#utility.yul\":825:1058   */\n    tag_16:\n        /* \"#utility.yul\":864:867   */\n      0x00\n        /* \"#utility.yul\":887:911   */\n      tag_33\n        /* \"#utility.yul\":905:910   */\n      dup3\n        /* \"#utility.yul\":887:911   */\n      tag_17\n      jump\t// in\n    tag_33:\n        /* \"#utility.yul\":878:911   */\n      swap2\n      pop\n        /* \"#utility.yul\":933:999   */\n      0xffffffffffffffffffffffffffffffffffffffffffffffffffffffffffffffff\n        /* \"#utility.yul\":926:931   */\n      dup3\n        /* \"#utility.yul\":923:1000   */\n      sub\n        /* \"#utility.yul\":920:1023   */\n      tag_34\n      jumpi\n        /* \"#utility.yul\":1003:1021   */\n      tag_35\n      tag_19\n      jump\t// in\n    tag_35:\n        /* \"#utility.yul\":920:1023   */\n    tag_34:\n        /* \"#utility.yul\":1050:1051   */\n      0x01\n        /* \"#utility.yul\":1043:1048   */\n      dup3\n        /* \"#utility.yul\":1039:1052   */\n      add\n        /* \"#utility.yul\":1032:1052   */\n      swap1\n      pop\n        /* \"#utility.yul\":825:1058   */\n      swap2\n      swap1\n      pop\n      jump\t// out\n\n    auxdata: 0xa2646970667358221220a6ab6fba5603a6f1fe0fedfce720ee752dddb5b572642dcfaa314bd07353d30564736f6c63430008120033\n}\n",
				"bytecode": {
					"linkReferences": {},
					"object": "608060405234801561001057600080fd5b506101a6806100206000396000f3fe608060405234801561001057600080fd5b506004361061002b5760003560e01c8063446a45b714610030575b600080fd5b61003861004e565b60405161004591906100aa565b60405180910390f35b6000806000905060005b600a81101561008957600081031561008957808261007691906100f4565b91508061008290610128565b9050610058565b508091505090565b6000819050919050565b6100a481610091565b82525050565b60006020820190506100bf600083018461009b565b92915050565b7f4e487b7100000000000000000000000000000000000000000000000000000000600052601160045260246000fd5b60006100ff82610091565b915061010a83610091565b9250828201905080821115610122576101216100c5565b5b92915050565b600061013382610091565b91507fffffffffffffffffffffffffffffffffffffffffffffffffffffffffffffffff8203610165576101646100c5565b5b60018201905091905056fea2646970667358221220a6ab6fba5603a6f1fe0fedfce720ee752dddb5b572642dcfaa314bd07353d30564736f6c63430008120033",
					"opcodes": "PUSH1 0x80 PUSH1 0x40 MSTORE CALLVALUE DUP1 ISZERO PUSH2 0x10 JUMPI PUSH1 0x0 DUP1 REVERT JUMPDEST POP PUSH2 0x1A6 DUP1 PUSH2 0x20 PUSH1 0x0 CODECOPY PUSH1 0x0 RETURN INVALID PUSH1 0x80 PUSH1 0x40 MSTORE CALLVALUE DUP1 ISZERO PUSH2 0x10 JUMPI PUSH1 0x0 DUP1 REVERT JUMPDEST POP PUSH1 0x4 CALLDATASIZE LT PUSH2 0x2B JUMPI PUSH1 0x0 CALLDATALOAD PUSH1 0xE0 SHR DUP1 PUSH4 0x446A45B7 EQ PUSH2 0x30 JUMPI JUMPDEST PUSH1 0x0 DUP1 REVERT JUMPDEST PUSH2 0x38 PUSH2 0x4E JUMP JUMPDEST PUSH1 0x40 MLOAD PUSH2 0x45 SWAP2 SWAP1 PUSH2 0xAA JUMP JUMPDEST PUSH1 0x40 MLOAD DUP1 SWAP2 SUB SWAP1 RETURN JUMPDEST PUSH1 0x0 DUP1 PUSH1 0x0 SWAP1 POP PUSH1 0x0 JUMPDEST PUSH1 0xA DUP2 LT ISZERO PUSH2 0x89 JUMPI PUSH1 0x0 DUP2 SUB ISZERO PUSH2 0x89 JUMPI DUP1 DUP3 PUSH2 0x76 SWAP2 SWAP1 PUSH2 0xF4 JUMP JUMPDEST SWAP2 POP DUP1 PUSH2 0x82 SWAP1 PUSH2 0x128 JUMP JUMPDEST SWAP1 POP PUSH2 0x58 JUMP JUMPDEST POP DUP1 SWAP2 POP POP SWAP1 JUMP JUMPDEST PUSH1 0x0 DUP2 SWAP1 POP SWAP2 SWAP1 POP JUMP JUMPDEST PUSH2 0xA4 DUP2 PUSH2 0x91 JUMP JUMPDEST DUP3 MSTORE POP POP JUMP JUMPDEST PUSH1 0x0 PUSH1 0x20 DUP3 ADD SWAP1 POP PUSH2 0xBF PUSH1 0x0 DUP4 ADD DUP5 PUSH2 0x9B JUMP JUMPDEST SWAP3 SWAP2 POP POP JUMP JUMPDEST PUSH32 0x4E487B7100000000000000000000000000000000000000000000000000000000 PUSH1 0x0 MSTORE PUSH1 0x11 PUSH1 0x4 MSTORE PUSH1 0x24 PUSH1 0x0 REVERT JUMPDEST PUSH1 0x0 PUSH2 0xFF DUP3 PUSH2 0x91 JUMP JUMPDEST SWAP2 POP PUSH2 0x10A DUP4 PUSH2 0x91 JUMP JUMPDEST SWAP3 POP DUP3 DUP3 ADD SWAP1 POP DUP1 DUP3 GT ISZERO PUSH2 0x122 JUMPI PUSH2 0x121 PUSH2 0xC5 JUMP JUMPDEST JUMPDEST SWAP3 SWAP2 POP POP JUMP JUMPDEST PUSH1 0x0 PUSH2 0x133 DUP3 PUSH2 0x91 JUMP JUMPDEST SWAP2 POP PUSH32 0xFFFFFFFFFFFFFFFFFFFFFFFFFFFFFFFFFFFFFFFFFFFFFFFFFFFFFFFFFFFFFFFF DUP3 SUB PUSH2 0x165 JUMPI PUSH2 0x164 PUSH2 0xC5 JUMP JUMPDEST JUMPDEST PUSH1 0x1 DUP3 ADD SWAP1 POP SWAP2 SWAP1 POP JUMP INVALID LOG2 PUSH5 0x6970667358 0x22 SLT KECCAK256 0xA6 0xAB PUSH16 0xBA5603A6F1FE0FEDFCE720EE752DDDB5 0xB5 PUSH19 0x642DCFAA314BD07353D30564736F6C63430008 SLT STOP CALLER "
				},
				"gasEstimates": {
					"creation": {
						"codeDepositCost": "84400",
						"executionCost": "135",
						"totalCost": "84535"
					},
					"external": {
						"fun1()": "385"
					}
				},
				"methodIdentifiers": {
					"fun1()": "446a45b7"
				}
			},
			"storageLayout": {
				"storage": [],
				"types": null
			},
			"userdoc": {
				"kind": "user",
				"methods": {},
				"version": 1
			}
		}
	}
}