{
	"Textbook/Chapter6/quiz2.sol": {
		"quiz2_1": {
			"abi": [
				{
					"inputs": [
						{
							"internalType": "uint256",
							"name": "n1",
							"type": "uint256"
						},
						{
							"internalType": "uint256",
							"name": "n2",
							"type": "uint256"
						}
					],
					"name": "addNumbers",
					"outputs": [
						{
							"internalType": "uint256",
							"name": "",
							"type": "uint256"
						}
					],
					"stateMutability": "view",
					"type": "function"
				}
			],
			"devdoc": {
				"kind": "dev",
				"methods": {},
				"version": 1
			},
			"evm": {
				"assembly": "    /* \"Textbook/Chapter6/quiz2.sol\":453:662  contract quiz2_1 {... */\n  mstore(0x40, 0x80)\n    /* \"Textbook/Chapter6/quiz2.sol\":501:511  new Math() */\n  mload(0x40)\n  tag_1\n  swap1\n  tag_2\n  jump\t// in\ntag_1:\n  mload(0x40)\n  dup1\n  swap2\n  sub\n  swap1\n  0x00\n  create\n  dup1\n  iszero\n  dup1\n  iszero\n  tag_3\n  jumpi\n  returndatasize\n  0x00\n  dup1\n  returndatacopy\n  revert(0x00, returndatasize)\ntag_3:\n  pop\n    /* \"Textbook/Chapter6/quiz2.sol\":476:511  Math internal instance = new Math() */\n  0x00\n  dup1\n  0x0100\n  exp\n  dup2\n  sload\n  dup2\n  0xffffffffffffffffffffffffffffffffffffffff\n  mul\n  not\n  and\n  swap1\n  dup4\n  0xffffffffffffffffffffffffffffffffffffffff\n  and\n  mul\n  or\n  swap1\n  sstore\n  pop\n    /* \"Textbook/Chapter6/quiz2.sol\":453:662  contract quiz2_1 {... */\n  callvalue\n  dup1\n  iszero\n  tag_4\n  jumpi\n  0x00\n  dup1\n  revert\ntag_4:\n  pop\n  jump(tag_5)\ntag_2:\n  dataSize(sub_1)\n  dup1\n  dataOffset(sub_1)\n  dup4\n  codecopy\n  add\n  swap1\n  jump\t// out\ntag_5:\n  dataSize(sub_0)\n  dup1\n  dataOffset(sub_0)\n  0x00\n  codecopy\n  0x00\n  return\nstop\n\nsub_0: assembly {\n        /* \"Textbook/Chapter6/quiz2.sol\":453:662  contract quiz2_1 {... */\n      mstore(0x40, 0x80)\n      callvalue\n      dup1\n      iszero\n      tag_1\n      jumpi\n      0x00\n      dup1\n      revert\n    tag_1:\n      pop\n      jumpi(tag_2, lt(calldatasize, 0x04))\n      shr(0xe0, calldataload(0x00))\n      dup1\n      0xef9fc50b\n      eq\n      tag_3\n      jumpi\n    tag_2:\n      0x00\n      dup1\n      revert\n        /* \"Textbook/Chapter6/quiz2.sol\":518:660  function addNumbers(uint n1, uint n2)... */\n    tag_3:\n      tag_4\n      0x04\n      dup1\n      calldatasize\n      sub\n      dup2\n      add\n      swap1\n      tag_5\n      swap2\n      swap1\n      tag_6\n      jump\t// in\n    tag_5:\n      tag_7\n      jump\t// in\n    tag_4:\n      mload(0x40)\n      tag_8\n      swap2\n      swap1\n      tag_9\n      jump\t// in\n    tag_8:\n      mload(0x40)\n      dup1\n      swap2\n      sub\n      swap1\n      return\n    tag_7:\n        /* \"Textbook/Chapter6/quiz2.sol\":602:606  uint */\n      0x00\n        /* \"Textbook/Chapter6/quiz2.sol\":629:637  instance */\n      dup1\n      0x00\n      swap1\n      sload\n      swap1\n      0x0100\n      exp\n      swap1\n      div\n      0xffffffffffffffffffffffffffffffffffffffff\n      and\n        /* \"Textbook/Chapter6/quiz2.sol\":629:641  instance.add */\n      0xffffffffffffffffffffffffffffffffffffffff\n      and\n      0x771602f7\n        /* \"Textbook/Chapter6/quiz2.sol\":642:644  n1 */\n      dup5\n        /* \"Textbook/Chapter6/quiz2.sol\":646:648  n2 */\n      dup5\n        /* \"Textbook/Chapter6/quiz2.sol\":629:649  instance.add(n1, n2) */\n      mload(0x40)\n      dup4\n      0xffffffff\n      and\n      0xe0\n      shl\n      dup2\n      mstore\n      0x04\n      add\n      tag_11\n      swap3\n      swap2\n      swap1\n      tag_12\n      jump\t// in\n    tag_11:\n      0x20\n      mload(0x40)\n      dup1\n      dup4\n      sub\n      dup2\n      dup7\n      gas\n      staticcall\n      iszero\n      dup1\n      iszero\n      tag_14\n      jumpi\n      returndatasize\n      0x00\n      dup1\n      returndatacopy\n      revert(0x00, returndatasize)\n    tag_14:\n      pop\n      pop\n      pop\n      pop\n      mload(0x40)\n      returndatasize\n      not(0x1f)\n      0x1f\n      dup3\n      add\n      and\n      dup3\n      add\n      dup1\n      0x40\n      mstore\n      pop\n      dup2\n      add\n      swap1\n      tag_15\n      swap2\n      swap1\n      tag_16\n      jump\t// in\n    tag_15:\n        /* \"Textbook/Chapter6/quiz2.sol\":622:649  return instance.add(n1, n2) */\n      swap1\n      pop\n        /* \"Textbook/Chapter6/quiz2.sol\":518:660  function addNumbers(uint n1, uint n2)... */\n      swap3\n      swap2\n      pop\n      pop\n      jump\t// out\n        /* \"#utility.yul\":88:205   */\n    tag_18:\n        /* \"#utility.yul\":197:198   */\n      0x00\n        /* \"#utility.yul\":194:195   */\n      dup1\n        /* \"#utility.yul\":187:199   */\n      revert\n        /* \"#utility.yul\":334:411   */\n    tag_20:\n        /* \"#utility.yul\":371:378   */\n      0x00\n        /* \"#utility.yul\":400:405   */\n      dup2\n        /* \"#utility.yul\":389:405   */\n      swap1\n      pop\n        /* \"#utility.yul\":334:411   */\n      swap2\n      swap1\n      pop\n      jump\t// out\n        /* \"#utility.yul\":417:539   */\n    tag_21:\n        /* \"#utility.yul\":490:514   */\n      tag_31\n        /* \"#utility.yul\":508:513   */\n      dup2\n        /* \"#utility.yul\":490:514   */\n      tag_20\n      jump\t// in\n    tag_31:\n        /* \"#utility.yul\":483:488   */\n      dup2\n        /* \"#utility.yul\":480:515   */\n      eq\n        /* \"#utility.yul\":470:533   */\n      tag_32\n      jumpi\n        /* \"#utility.yul\":529:530   */\n      0x00\n        /* \"#utility.yul\":526:527   */\n      dup1\n        /* \"#utility.yul\":519:531   */\n      revert\n        /* \"#utility.yul\":470:533   */\n    tag_32:\n        /* \"#utility.yul\":417:539   */\n      pop\n      jump\t// out\n        /* \"#utility.yul\":545:684   */\n    tag_22:\n        /* \"#utility.yul\":591:596   */\n      0x00\n        /* \"#utility.yul\":629:635   */\n      dup2\n        /* \"#utility.yul\":616:636   */\n      calldataload\n        /* \"#utility.yul\":607:636   */\n      swap1\n      pop\n        /* \"#utility.yul\":645:678   */\n      tag_34\n        /* \"#utility.yul\":672:677   */\n      dup2\n        /* \"#utility.yul\":645:678   */\n      tag_21\n      jump\t// in\n    tag_34:\n        /* \"#utility.yul\":545:684   */\n      swap3\n      swap2\n      pop\n      pop\n      jump\t// out\n        /* \"#utility.yul\":690:1164   */\n    tag_6:\n        /* \"#utility.yul\":758:764   */\n      0x00\n        /* \"#utility.yul\":766:772   */\n      dup1\n        /* \"#utility.yul\":815:817   */\n      0x40\n        /* \"#utility.yul\":803:812   */\n      dup4\n        /* \"#utility.yul\":794:801   */\n      dup6\n        /* \"#utility.yul\":790:813   */\n      sub\n        /* \"#utility.yul\":786:818   */\n      slt\n        /* \"#utility.yul\":783:902   */\n      iszero\n      tag_36\n      jumpi\n        /* \"#utility.yul\":821:900   */\n      tag_37\n      tag_18\n      jump\t// in\n    tag_37:\n        /* \"#utility.yul\":783:902   */\n    tag_36:\n        /* \"#utility.yul\":941:942   */\n      0x00\n        /* \"#utility.yul\":966:1019   */\n      tag_38\n        /* \"#utility.yul\":1011:1018   */\n      dup6\n        /* \"#utility.yul\":1002:1008   */\n      dup3\n        /* \"#utility.yul\":991:1000   */\n      dup7\n        /* \"#utility.yul\":987:1009   */\n      add\n        /* \"#utility.yul\":966:1019   */\n      tag_22\n      jump\t// in\n    tag_38:\n        /* \"#utility.yul\":956:1019   */\n      swap3\n      pop\n        /* \"#utility.yul\":912:1029   */\n      pop\n        /* \"#utility.yul\":1068:1070   */\n      0x20\n        /* \"#utility.yul\":1094:1147   */\n      tag_39\n        /* \"#utility.yul\":1139:1146   */\n      dup6\n        /* \"#utility.yul\":1130:1136   */\n      dup3\n        /* \"#utility.yul\":1119:1128   */\n      dup7\n        /* \"#utility.yul\":1115:1137   */\n      add\n        /* \"#utility.yul\":1094:1147   */\n      tag_22\n      jump\t// in\n    tag_39:\n        /* \"#utility.yul\":1084:1147   */\n      swap2\n      pop\n        /* \"#utility.yul\":1039:1157   */\n      pop\n        /* \"#utility.yul\":690:1164   */\n      swap3\n      pop\n      swap3\n      swap1\n      pop\n      jump\t// out\n        /* \"#utility.yul\":1170:1288   */\n    tag_23:\n        /* \"#utility.yul\":1257:1281   */\n      tag_41\n        /* \"#utility.yul\":1275:1280   */\n      dup2\n        /* \"#utility.yul\":1257:1281   */\n      tag_20\n      jump\t// in\n    tag_41:\n        /* \"#utility.yul\":1252:1255   */\n      dup3\n        /* \"#utility.yul\":1245:1282   */\n      mstore\n        /* \"#utility.yul\":1170:1288   */\n      pop\n      pop\n      jump\t// out\n        /* \"#utility.yul\":1294:1516   */\n    tag_9:\n        /* \"#utility.yul\":1387:1391   */\n      0x00\n        /* \"#utility.yul\":1425:1427   */\n      0x20\n        /* \"#utility.yul\":1414:1423   */\n      dup3\n        /* \"#utility.yul\":1410:1428   */\n      add\n        /* \"#utility.yul\":1402:1428   */\n      swap1\n      pop\n        /* \"#utility.yul\":1438:1509   */\n      tag_43\n        /* \"#utility.yul\":1506:1507   */\n      0x00\n        /* \"#utility.yul\":1495:1504   */\n      dup4\n        /* \"#utility.yul\":1491:1508   */\n      add\n        /* \"#utility.yul\":1482:1488   */\n      dup5\n        /* \"#utility.yul\":1438:1509   */\n      tag_23\n      jump\t// in\n    tag_43:\n        /* \"#utility.yul\":1294:1516   */\n      swap3\n      swap2\n      pop\n      pop\n      jump\t// out\n        /* \"#utility.yul\":1522:1854   */\n    tag_12:\n        /* \"#utility.yul\":1643:1647   */\n      0x00\n        /* \"#utility.yul\":1681:1683   */\n      0x40\n        /* \"#utility.yul\":1670:1679   */\n      dup3\n        /* \"#utility.yul\":1666:1684   */\n      add\n        /* \"#utility.yul\":1658:1684   */\n      swap1\n      pop\n        /* \"#utility.yul\":1694:1765   */\n      tag_45\n        /* \"#utility.yul\":1762:1763   */\n      0x00\n        /* \"#utility.yul\":1751:1760   */\n      dup4\n        /* \"#utility.yul\":1747:1764   */\n      add\n        /* \"#utility.yul\":1738:1744   */\n      dup6\n        /* \"#utility.yul\":1694:1765   */\n      tag_23\n      jump\t// in\n    tag_45:\n        /* \"#utility.yul\":1775:1847   */\n      tag_46\n        /* \"#utility.yul\":1843:1845   */\n      0x20\n        /* \"#utility.yul\":1832:1841   */\n      dup4\n        /* \"#utility.yul\":1828:1846   */\n      add\n        /* \"#utility.yul\":1819:1825   */\n      dup5\n        /* \"#utility.yul\":1775:1847   */\n      tag_23\n      jump\t// in\n    tag_46:\n        /* \"#utility.yul\":1522:1854   */\n      swap4\n      swap3\n      pop\n      pop\n      pop\n      jump\t// out\n        /* \"#utility.yul\":1860:2003   */\n    tag_24:\n        /* \"#utility.yul\":1917:1922   */\n      0x00\n        /* \"#utility.yul\":1948:1954   */\n      dup2\n        /* \"#utility.yul\":1942:1955   */\n      mload\n        /* \"#utility.yul\":1933:1955   */\n      swap1\n      pop\n        /* \"#utility.yul\":1964:1997   */\n      tag_48\n        /* \"#utility.yul\":1991:1996   */\n      dup2\n        /* \"#utility.yul\":1964:1997   */\n      tag_21\n      jump\t// in\n    tag_48:\n        /* \"#utility.yul\":1860:2003   */\n      swap3\n      swap2\n      pop\n      pop\n      jump\t// out\n        /* \"#utility.yul\":2009:2360   */\n    tag_16:\n        /* \"#utility.yul\":2079:2085   */\n      0x00\n        /* \"#utility.yul\":2128:2130   */\n      0x20\n        /* \"#utility.yul\":2116:2125   */\n      dup3\n        /* \"#utility.yul\":2107:2114   */\n      dup5\n        /* \"#utility.yul\":2103:2126   */\n      sub\n        /* \"#utility.yul\":2099:2131   */\n      slt\n        /* \"#utility.yul\":2096:2215   */\n      iszero\n      tag_50\n      jumpi\n        /* \"#utility.yul\":2134:2213   */\n      tag_51\n      tag_18\n      jump\t// in\n    tag_51:\n        /* \"#utility.yul\":2096:2215   */\n    tag_50:\n        /* \"#utility.yul\":2254:2255   */\n      0x00\n        /* \"#utility.yul\":2279:2343   */\n      tag_52\n        /* \"#utility.yul\":2335:2342   */\n      dup5\n        /* \"#utility.yul\":2326:2332   */\n      dup3\n        /* \"#utility.yul\":2315:2324   */\n      dup6\n        /* \"#utility.yul\":2311:2333   */\n      add\n        /* \"#utility.yul\":2279:2343   */\n      tag_24\n      jump\t// in\n    tag_52:\n        /* \"#utility.yul\":2269:2343   */\n      swap2\n      pop\n        /* \"#utility.yul\":2225:2353   */\n      pop\n        /* \"#utility.yul\":2009:2360   */\n      swap3\n      swap2\n      pop\n      pop\n      jump\t// out\n\n    auxdata: 0xa26469706673582212202eaf6f64c28342f16bc2e62de7a8d10e6cf8b1b58560f967e1480c5ff23f918064736f6c63430008120033\n}\n\nsub_1: assembly {\n        /* \"Textbook/Chapter6/quiz2.sol\":57:210  contract Math {... */\n      mstore(0x40, 0x80)\n      callvalue\n      dup1\n      iszero\n      tag_1\n      jumpi\n      0x00\n      dup1\n      revert\n    tag_1:\n      pop\n      dataSize(sub_0)\n      dup1\n      dataOffset(sub_0)\n      0x00\n      codecopy\n      0x00\n      return\n    stop\n\n    sub_0: assembly {\n            /* \"Textbook/Chapter6/quiz2.sol\":57:210  contract Math {... */\n          mstore(0x40, 0x80)\n          callvalue\n          dup1\n          iszero\n          tag_1\n          jumpi\n          0x00\n          dup1\n          revert\n        tag_1:\n          pop\n          jumpi(tag_2, lt(calldatasize, 0x04))\n          shr(0xe0, calldataload(0x00))\n          dup1\n          0x771602f7\n          eq\n          tag_3\n          jumpi\n        tag_2:\n          0x00\n          dup1\n          revert\n            /* \"Textbook/Chapter6/quiz2.sol\":77:208  function add(uint num1, uint num2)... */\n        tag_3:\n          tag_4\n          0x04\n          dup1\n          calldatasize\n          sub\n          dup2\n          add\n          swap1\n          tag_5\n          swap2\n          swap1\n          tag_6\n          jump\t// in\n        tag_5:\n          tag_7\n          jump\t// in\n        tag_4:\n          mload(0x40)\n          tag_8\n          swap2\n          swap1\n          tag_9\n          jump\t// in\n        tag_8:\n          mload(0x40)\n          dup1\n          swap2\n          sub\n          swap1\n          return\n        tag_7:\n            /* \"Textbook/Chapter6/quiz2.sol\":159:163  uint */\n          0x00\n            /* \"Textbook/Chapter6/quiz2.sol\":193:197  num2 */\n          dup2\n            /* \"Textbook/Chapter6/quiz2.sol\":186:190  num1 */\n          dup4\n            /* \"Textbook/Chapter6/quiz2.sol\":186:197  num1 + num2 */\n          tag_11\n          swap2\n          swap1\n          tag_12\n          jump\t// in\n        tag_11:\n            /* \"Textbook/Chapter6/quiz2.sol\":179:197  return num1 + num2 */\n          swap1\n          pop\n            /* \"Textbook/Chapter6/quiz2.sol\":77:208  function add(uint num1, uint num2)... */\n          swap3\n          swap2\n          pop\n          pop\n          jump\t// out\n            /* \"#utility.yul\":88:205   */\n        tag_14:\n            /* \"#utility.yul\":197:198   */\n          0x00\n            /* \"#utility.yul\":194:195   */\n          dup1\n            /* \"#utility.yul\":187:199   */\n          revert\n            /* \"#utility.yul\":334:411   */\n        tag_16:\n            /* \"#utility.yul\":371:378   */\n          0x00\n            /* \"#utility.yul\":400:405   */\n          dup2\n            /* \"#utility.yul\":389:405   */\n          swap1\n          pop\n            /* \"#utility.yul\":334:411   */\n          swap2\n          swap1\n          pop\n          jump\t// out\n            /* \"#utility.yul\":417:539   */\n        tag_17:\n            /* \"#utility.yul\":490:514   */\n          tag_27\n            /* \"#utility.yul\":508:513   */\n          dup2\n            /* \"#utility.yul\":490:514   */\n          tag_16\n          jump\t// in\n        tag_27:\n            /* \"#utility.yul\":483:488   */\n          dup2\n            /* \"#utility.yul\":480:515   */\n          eq\n            /* \"#utility.yul\":470:533   */\n          tag_28\n          jumpi\n            /* \"#utility.yul\":529:530   */\n          0x00\n            /* \"#utility.yul\":526:527   */\n          dup1\n            /* \"#utility.yul\":519:531   */\n          revert\n            /* \"#utility.yul\":470:533   */\n        tag_28:\n            /* \"#utility.yul\":417:539   */\n          pop\n          jump\t// out\n            /* \"#utility.yul\":545:684   */\n        tag_18:\n            /* \"#utility.yul\":591:596   */\n          0x00\n            /* \"#utility.yul\":629:635   */\n          dup2\n            /* \"#utility.yul\":616:636   */\n          calldataload\n            /* \"#utility.yul\":607:636   */\n          swap1\n          pop\n            /* \"#utility.yul\":645:678   */\n          tag_30\n            /* \"#utility.yul\":672:677   */\n          dup2\n            /* \"#utility.yul\":645:678   */\n          tag_17\n          jump\t// in\n        tag_30:\n            /* \"#utility.yul\":545:684   */\n          swap3\n          swap2\n          pop\n          pop\n          jump\t// out\n            /* \"#utility.yul\":690:1164   */\n        tag_6:\n            /* \"#utility.yul\":758:764   */\n          0x00\n            /* \"#utility.yul\":766:772   */\n          dup1\n            /* \"#utility.yul\":815:817   */\n          0x40\n            /* \"#utility.yul\":803:812   */\n          dup4\n            /* \"#utility.yul\":794:801   */\n          dup6\n            /* \"#utility.yul\":790:813   */\n          sub\n            /* \"#utility.yul\":786:818   */\n          slt\n            /* \"#utility.yul\":783:902   */\n          iszero\n          tag_32\n          jumpi\n            /* \"#utility.yul\":821:900   */\n          tag_33\n          tag_14\n          jump\t// in\n        tag_33:\n            /* \"#utility.yul\":783:902   */\n        tag_32:\n            /* \"#utility.yul\":941:942   */\n          0x00\n            /* \"#utility.yul\":966:1019   */\n          tag_34\n            /* \"#utility.yul\":1011:1018   */\n          dup6\n            /* \"#utility.yul\":1002:1008   */\n          dup3\n            /* \"#utility.yul\":991:1000   */\n          dup7\n            /* \"#utility.yul\":987:1009   */\n          add\n            /* \"#utility.yul\":966:1019   */\n          tag_18\n          jump\t// in\n        tag_34:\n            /* \"#utility.yul\":956:1019   */\n          swap3\n          pop\n            /* \"#utility.yul\":912:1029   */\n          pop\n            /* \"#utility.yul\":1068:1070   */\n          0x20\n            /* \"#utility.yul\":1094:1147   */\n          tag_35\n            /* \"#utility.yul\":1139:1146   */\n          dup6\n            /* \"#utility.yul\":1130:1136   */\n          dup3\n            /* \"#utility.yul\":1119:1128   */\n          dup7\n            /* \"#utility.yul\":1115:1137   */\n          add\n            /* \"#utility.yul\":1094:1147   */\n          tag_18\n          jump\t// in\n        tag_35:\n            /* \"#utility.yul\":1084:1147   */\n          swap2\n          pop\n            /* \"#utility.yul\":1039:1157   */\n          pop\n            /* \"#utility.yul\":690:1164   */\n          swap3\n          pop\n          swap3\n          swap1\n          pop\n          jump\t// out\n            /* \"#utility.yul\":1170:1288   */\n        tag_19:\n            /* \"#utility.yul\":1257:1281   */\n          tag_37\n            /* \"#utility.yul\":1275:1280   */\n          dup2\n            /* \"#utility.yul\":1257:1281   */\n          tag_16\n          jump\t// in\n        tag_37:\n            /* \"#utility.yul\":1252:1255   */\n          dup3\n            /* \"#utility.yul\":1245:1282   */\n          mstore\n            /* \"#utility.yul\":1170:1288   */\n          pop\n          pop\n          jump\t// out\n            /* \"#utility.yul\":1294:1516   */\n        tag_9:\n            /* \"#utility.yul\":1387:1391   */\n          0x00\n            /* \"#utility.yul\":1425:1427   */\n          0x20\n            /* \"#utility.yul\":1414:1423   */\n          dup3\n            /* \"#utility.yul\":1410:1428   */\n          add\n            /* \"#utility.yul\":1402:1428   */\n          swap1\n          pop\n            /* \"#utility.yul\":1438:1509   */\n          tag_39\n            /* \"#utility.yul\":1506:1507   */\n          0x00\n            /* \"#utility.yul\":1495:1504   */\n          dup4\n            /* \"#utility.yul\":1491:1508   */\n          add\n            /* \"#utility.yul\":1482:1488   */\n          dup5\n            /* \"#utility.yul\":1438:1509   */\n          tag_19\n          jump\t// in\n        tag_39:\n            /* \"#utility.yul\":1294:1516   */\n          swap3\n          swap2\n          pop\n          pop\n          jump\t// out\n            /* \"#utility.yul\":1522:1702   */\n        tag_20:\n            /* \"#utility.yul\":1570:1647   */\n          0x4e487b7100000000000000000000000000000000000000000000000000000000\n            /* \"#utility.yul\":1567:1568   */\n          0x00\n            /* \"#utility.yul\":1560:1648   */\n          mstore\n            /* \"#utility.yul\":1667:1671   */\n          0x11\n            /* \"#utility.yul\":1664:1665   */\n          0x04\n            /* \"#utility.yul\":1657:1672   */\n          mstore\n            /* \"#utility.yul\":1691:1695   */\n          0x24\n            /* \"#utility.yul\":1688:1689   */\n          0x00\n            /* \"#utility.yul\":1681:1696   */\n          revert\n            /* \"#utility.yul\":1708:1899   */\n        tag_12:\n            /* \"#utility.yul\":1748:1751   */\n          0x00\n            /* \"#utility.yul\":1767:1787   */\n          tag_42\n            /* \"#utility.yul\":1785:1786   */\n          dup3\n            /* \"#utility.yul\":1767:1787   */\n          tag_16\n          jump\t// in\n        tag_42:\n            /* \"#utility.yul\":1762:1787   */\n          swap2\n          pop\n            /* \"#utility.yul\":1801:1821   */\n          tag_43\n            /* \"#utility.yul\":1819:1820   */\n          dup4\n            /* \"#utility.yul\":1801:1821   */\n          tag_16\n          jump\t// in\n        tag_43:\n            /* \"#utility.yul\":1796:1821   */\n          swap3\n          pop\n            /* \"#utility.yul\":1844:1845   */\n          dup3\n            /* \"#utility.yul\":1841:1842   */\n          dup3\n            /* \"#utility.yul\":1837:1846   */\n          add\n            /* \"#utility.yul\":1830:1846   */\n          swap1\n          pop\n            /* \"#utility.yul\":1865:1868   */\n          dup1\n            /* \"#utility.yul\":1862:1863   */\n          dup3\n            /* \"#utility.yul\":1859:1869   */\n          gt\n            /* \"#utility.yul\":1856:1892   */\n          iszero\n          tag_44\n          jumpi\n            /* \"#utility.yul\":1872:1890   */\n          tag_45\n          tag_20\n          jump\t// in\n        tag_45:\n            /* \"#utility.yul\":1856:1892   */\n        tag_44:\n            /* \"#utility.yul\":1708:1899   */\n          swap3\n          swap2\n          pop\n          pop\n          jump\t// out\n\n        auxdata: 0xa264697066735822122061361e96579c5b19641f0a6ea4c257262ed4eca3a109c58c435f13c89cdccdd764736f6c63430008120033\n    }\n}\n",
				"bytecode": {
					"linkReferences": {},
					"object": "60806040526040516100109061007e565b604051809103906000f08015801561002c573d6000803e3d6000fd5b506000806101000a81548173ffffffffffffffffffffffffffffffffffffffff021916908373ffffffffffffffffffffffffffffffffffffffff16021790555034801561007857600080fd5b5061008b565b6101d4806102e783390190565b61024d8061009a6000396000f3fe608060405234801561001057600080fd5b506004361061002b5760003560e01c8063ef9fc50b14610030575b600080fd5b61004a60048036038101906100459190610142565b610060565b6040516100579190610191565b60405180910390f35b60008060009054906101000a900473ffffffffffffffffffffffffffffffffffffffff1673ffffffffffffffffffffffffffffffffffffffff1663771602f784846040518363ffffffff1660e01b81526004016100be9291906101ac565b602060405180830381865afa1580156100db573d6000803e3d6000fd5b505050506040513d601f19601f820116820180604052508101906100ff91906101ea565b905092915050565b600080fd5b6000819050919050565b61011f8161010c565b811461012a57600080fd5b50565b60008135905061013c81610116565b92915050565b6000806040838503121561015957610158610107565b5b60006101678582860161012d565b92505060206101788582860161012d565b9150509250929050565b61018b8161010c565b82525050565b60006020820190506101a66000830184610182565b92915050565b60006040820190506101c16000830185610182565b6101ce6020830184610182565b9392505050565b6000815190506101e481610116565b92915050565b600060208284031215610200576101ff610107565b5b600061020e848285016101d5565b9150509291505056fea26469706673582212202eaf6f64c28342f16bc2e62de7a8d10e6cf8b1b58560f967e1480c5ff23f918064736f6c63430008120033608060405234801561001057600080fd5b506101b4806100206000396000f3fe608060405234801561001057600080fd5b506004361061002b5760003560e01c8063771602f714610030575b600080fd5b61004a600480360381019061004591906100b1565b610060565b6040516100579190610100565b60405180910390f35b6000818361006e919061014a565b905092915050565b600080fd5b6000819050919050565b61008e8161007b565b811461009957600080fd5b50565b6000813590506100ab81610085565b92915050565b600080604083850312156100c8576100c7610076565b5b60006100d68582860161009c565b92505060206100e78582860161009c565b9150509250929050565b6100fa8161007b565b82525050565b600060208201905061011560008301846100f1565b92915050565b7f4e487b7100000000000000000000000000000000000000000000000000000000600052601160045260246000fd5b60006101558261007b565b91506101608361007b565b92508282019050808211156101785761017761011b565b5b9291505056fea264697066735822122061361e96579c5b19641f0a6ea4c257262ed4eca3a109c58c435f13c89cdccdd764736f6c63430008120033",
					"opcodes": "PUSH1 0x80 PUSH1 0x40 MSTORE PUSH1 0x40 MLOAD PUSH2 0x10 SWAP1 PUSH2 0x7E JUMP JUMPDEST PUSH1 0x40 MLOAD DUP1 SWAP2 SUB SWAP1 PUSH1 0x0 CREATE DUP1 ISZERO DUP1 ISZERO PUSH2 0x2C JUMPI RETURNDATASIZE PUSH1 0x0 DUP1 RETURNDATACOPY RETURNDATASIZE PUSH1 0x0 REVERT JUMPDEST POP PUSH1 0x0 DUP1 PUSH2 0x100 EXP DUP2 SLOAD DUP2 PUSH20 0xFFFFFFFFFFFFFFFFFFFFFFFFFFFFFFFFFFFFFFFF MUL NOT AND SWAP1 DUP4 PUSH20 0xFFFFFFFFFFFFFFFFFFFFFFFFFFFFFFFFFFFFFFFF AND MUL OR SWAP1 SSTORE POP CALLVALUE DUP1 ISZERO PUSH2 0x78 JUMPI PUSH1 0x0 DUP1 REVERT JUMPDEST POP PUSH2 0x8B JUMP JUMPDEST PUSH2 0x1D4 DUP1 PUSH2 0x2E7 DUP4 CODECOPY ADD SWAP1 JUMP JUMPDEST PUSH2 0x24D DUP1 PUSH2 0x9A PUSH1 0x0 CODECOPY PUSH1 0x0 RETURN INVALID PUSH1 0x80 PUSH1 0x40 MSTORE CALLVALUE DUP1 ISZERO PUSH2 0x10 JUMPI PUSH1 0x0 DUP1 REVERT JUMPDEST POP PUSH1 0x4 CALLDATASIZE LT PUSH2 0x2B JUMPI PUSH1 0x0 CALLDATALOAD PUSH1 0xE0 SHR DUP1 PUSH4 0xEF9FC50B EQ PUSH2 0x30 JUMPI JUMPDEST PUSH1 0x0 DUP1 REVERT JUMPDEST PUSH2 0x4A PUSH1 0x4 DUP1 CALLDATASIZE SUB DUP2 ADD SWAP1 PUSH2 0x45 SWAP2 SWAP1 PUSH2 0x142 JUMP JUMPDEST PUSH2 0x60 JUMP JUMPDEST PUSH1 0x40 MLOAD PUSH2 0x57 SWAP2 SWAP1 PUSH2 0x191 JUMP JUMPDEST PUSH1 0x40 MLOAD DUP1 SWAP2 SUB SWAP1 RETURN JUMPDEST PUSH1 0x0 DUP1 PUSH1 0x0 SWAP1 SLOAD SWAP1 PUSH2 0x100 EXP SWAP1 DIV PUSH20 0xFFFFFFFFFFFFFFFFFFFFFFFFFFFFFFFFFFFFFFFF AND PUSH20 0xFFFFFFFFFFFFFFFFFFFFFFFFFFFFFFFFFFFFFFFF AND PUSH4 0x771602F7 DUP5 DUP5 PUSH1 0x40 MLOAD DUP4 PUSH4 0xFFFFFFFF AND PUSH1 0xE0 SHL DUP2 MSTORE PUSH1 0x4 ADD PUSH2 0xBE SWAP3 SWAP2 SWAP1 PUSH2 0x1AC JUMP JUMPDEST PUSH1 0x20 PUSH1 0x40 MLOAD DUP1 DUP4 SUB DUP2 DUP7 GAS STATICCALL ISZERO DUP1 ISZERO PUSH2 0xDB JUMPI RETURNDATASIZE PUSH1 0x0 DUP1 RETURNDATACOPY RETURNDATASIZE PUSH1 0x0 REVERT JUMPDEST POP POP POP POP PUSH1 0x40 MLOAD RETURNDATASIZE PUSH1 0x1F NOT PUSH1 0x1F DUP3 ADD AND DUP3 ADD DUP1 PUSH1 0x40 MSTORE POP DUP2 ADD SWAP1 PUSH2 0xFF SWAP2 SWAP1 PUSH2 0x1EA JUMP JUMPDEST SWAP1 POP SWAP3 SWAP2 POP POP JUMP JUMPDEST PUSH1 0x0 DUP1 REVERT JUMPDEST PUSH1 0x0 DUP2 SWAP1 POP SWAP2 SWAP1 POP JUMP JUMPDEST PUSH2 0x11F DUP2 PUSH2 0x10C JUMP JUMPDEST DUP2 EQ PUSH2 0x12A JUMPI PUSH1 0x0 DUP1 REVERT JUMPDEST POP JUMP JUMPDEST PUSH1 0x0 DUP2 CALLDATALOAD SWAP1 POP PUSH2 0x13C DUP2 PUSH2 0x116 JUMP JUMPDEST SWAP3 SWAP2 POP POP JUMP JUMPDEST PUSH1 0x0 DUP1 PUSH1 0x40 DUP4 DUP6 SUB SLT ISZERO PUSH2 0x159 JUMPI PUSH2 0x158 PUSH2 0x107 JUMP JUMPDEST JUMPDEST PUSH1 0x0 PUSH2 0x167 DUP6 DUP3 DUP7 ADD PUSH2 0x12D JUMP JUMPDEST SWAP3 POP POP PUSH1 0x20 PUSH2 0x178 DUP6 DUP3 DUP7 ADD PUSH2 0x12D JUMP JUMPDEST SWAP2 POP POP SWAP3 POP SWAP3 SWAP1 POP JUMP JUMPDEST PUSH2 0x18B DUP2 PUSH2 0x10C JUMP JUMPDEST DUP3 MSTORE POP POP JUMP JUMPDEST PUSH1 0x0 PUSH1 0x20 DUP3 ADD SWAP1 POP PUSH2 0x1A6 PUSH1 0x0 DUP4 ADD DUP5 PUSH2 0x182 JUMP JUMPDEST SWAP3 SWAP2 POP POP JUMP JUMPDEST PUSH1 0x0 PUSH1 0x40 DUP3 ADD SWAP1 POP PUSH2 0x1C1 PUSH1 0x0 DUP4 ADD DUP6 PUSH2 0x182 JUMP JUMPDEST PUSH2 0x1CE PUSH1 0x20 DUP4 ADD DUP5 PUSH2 0x182 JUMP JUMPDEST SWAP4 SWAP3 POP POP POP JUMP JUMPDEST PUSH1 0x0 DUP2 MLOAD SWAP1 POP PUSH2 0x1E4 DUP2 PUSH2 0x116 JUMP JUMPDEST SWAP3 SWAP2 POP POP JUMP JUMPDEST PUSH1 0x0 PUSH1 0x20 DUP3 DUP5 SUB SLT ISZERO PUSH2 0x200 JUMPI PUSH2 0x1FF PUSH2 0x107 JUMP JUMPDEST JUMPDEST PUSH1 0x0 PUSH2 0x20E DUP5 DUP3 DUP6 ADD PUSH2 0x1D5 JUMP JUMPDEST SWAP2 POP POP SWAP3 SWAP2 POP POP JUMP INVALID LOG2 PUSH5 0x6970667358 0x22 SLT KECCAK256 0x2E 0xAF PUSH16 0x64C28342F16BC2E62DE7A8D10E6CF8B1 0xB5 DUP6 PUSH1 0xF9 PUSH8 0xE1480C5FF23F9180 PUSH5 0x736F6C6343 STOP ADDMOD SLT STOP CALLER PUSH1 0x80 PUSH1 0x40 MSTORE CALLVALUE DUP1 ISZERO PUSH2 0x10 JUMPI PUSH1 0x0 DUP1 REVERT JUMPDEST POP PUSH2 0x1B4 DUP1 PUSH2 0x20 PUSH1 0x0 CODECOPY PUSH1 0x0 RETURN INVALID PUSH1 0x80 PUSH1 0x40 MSTORE CALLVALUE DUP1 ISZERO PUSH2 0x10 JUMPI PUSH1 0x0 DUP1 REVERT JUMPDEST POP PUSH1 0x4 CALLDATASIZE LT PUSH2 0x2B JUMPI PUSH1 0x0 CALLDATALOAD PUSH1 0xE0 SHR DUP1 PUSH4 0x771602F7 EQ PUSH2 0x30 JUMPI JUMPDEST PUSH1 0x0 DUP1 REVERT JUMPDEST PUSH2 0x4A PUSH1 0x4 DUP1 CALLDATASIZE SUB DUP2 ADD SWAP1 PUSH2 0x45 SWAP2 SWAP1 PUSH2 0xB1 JUMP JUMPDEST PUSH2 0x60 JUMP JUMPDEST PUSH1 0x40 MLOAD PUSH2 0x57 SWAP2 SWAP1 PUSH2 0x100 JUMP JUMPDEST PUSH1 0x40 MLOAD DUP1 SWAP2 SUB SWAP1 RETURN JUMPDEST PUSH1 0x0 DUP2 DUP4 PUSH2 0x6E SWAP2 SWAP1 PUSH2 0x14A JUMP JUMPDEST SWAP1 POP SWAP3 SWAP2 POP POP JUMP JUMPDEST PUSH1 0x0 DUP1 REVERT JUMPDEST PUSH1 0x0 DUP2 SWAP1 POP SWAP2 SWAP1 POP JUMP JUMPDEST PUSH2 0x8E DUP2 PUSH2 0x7B JUMP JUMPDEST DUP2 EQ PUSH2 0x99 JUMPI PUSH1 0x0 DUP1 REVERT JUMPDEST POP JUMP JUMPDEST PUSH1 0x0 DUP2 CALLDATALOAD SWAP1 POP PUSH2 0xAB DUP2 PUSH2 0x85 JUMP JUMPDEST SWAP3 SWAP2 POP POP JUMP JUMPDEST PUSH1 0x0 DUP1 PUSH1 0x40 DUP4 DUP6 SUB SLT ISZERO PUSH2 0xC8 JUMPI PUSH2 0xC7 PUSH2 0x76 JUMP JUMPDEST JUMPDEST PUSH1 0x0 PUSH2 0xD6 DUP6 DUP3 DUP7 ADD PUSH2 0x9C JUMP JUMPDEST SWAP3 POP POP PUSH1 0x20 PUSH2 0xE7 DUP6 DUP3 DUP7 ADD PUSH2 0x9C JUMP JUMPDEST SWAP2 POP POP SWAP3 POP SWAP3 SWAP1 POP JUMP JUMPDEST PUSH2 0xFA DUP2 PUSH2 0x7B JUMP JUMPDEST DUP3 MSTORE POP POP JUMP JUMPDEST PUSH1 0x0 PUSH1 0x20 DUP3 ADD SWAP1 POP PUSH2 0x115 PUSH1 0x0 DUP4 ADD DUP5 PUSH2 0xF1 JUMP JUMPDEST SWAP3 SWAP2 POP POP JUMP JUMPDEST PUSH32 0x4E487B7100000000000000000000000000000000000000000000000000000000 PUSH1 0x0 MSTORE PUSH1 0x11 PUSH1 0x4 MSTORE PUSH1 0x24 PUSH1 0x0 REVERT JUMPDEST PUSH1 0x0 PUSH2 0x155 DUP3 PUSH2 0x7B JUMP JUMPDEST SWAP2 POP PUSH2 0x160 DUP4 PUSH2 0x7B JUMP JUMPDEST SWAP3 POP DUP3 DUP3 ADD SWAP1 POP DUP1 DUP3 GT ISZERO PUSH2 0x178 JUMPI PUSH2 0x177 PUSH2 0x11B JUMP JUMPDEST JUMPDEST SWAP3 SWAP2 POP POP JUMP INVALID LOG2 PUSH5 0x6970667358 0x22 SLT KECCAK256 PUSH2 0x361E SWAP7 JUMPI SWAP13 JUMPDEST NOT PUSH5 0x1F0A6EA4C2 JUMPI 0x26 0x2E 0xD4 0xEC LOG3 LOG1 MULMOD 0xC5 DUP13 NUMBER 0x5F SGT 0xC8 SWAP13 0xDC 0xCD 0xD7 PUSH5 0x736F6C6343 STOP ADDMOD SLT STOP CALLER "
				},
				"gasEstimates": {
					"creation": {
						"codeDepositCost": "117800",
						"executionCost": "infinite",
						"totalCost": "infinite"
					},
					"external": {
						"addNumbers(uint256,uint256)": "infinite"
					}
				},
				"methodIdentifiers": {
					"addNumbers(uint256,uint256)": "ef9fc50b"
				}
			},
			"storageLayout": {
				"storage": [
					{
						"astId": 54,
						"contract": "Textbook/Chapter6/quiz2.sol:quiz2_1",
						"label": "instance",
						"offset": 0,
						"slot": "0",
						"type": "t_contract(Math)16"
					}
				],
				"types": {
					"t_contract(Math)16": {
						"encoding": "inplace",
						"label": "contract Math",
						"numberOfBytes": "20"
					}
				}
			},
			"userdoc": {
				"kind": "user",
				"methods": {},
				"version": 1
			}
		}
	}
}