{
	"Textbook/Chapter3/memories.sol": {
		"Ex3_15": {
			"abi": [
				{
					"inputs": [
						{
							"internalType": "string",
							"name": "str",
							"type": "string"
						}
					],
					"name": "myFun",
					"outputs": [
						{
							"internalType": "uint256",
							"name": "",
							"type": "uint256"
						},
						{
							"internalType": "string",
							"name": "",
							"type": "string"
						},
						{
							"internalType": "bytes",
							"name": "",
							"type": "bytes"
						}
					],
					"stateMutability": "pure",
					"type": "function"
				}
			],
			"devdoc": {
				"kind": "dev",
				"methods": {},
				"version": 1
			},
			"evm": {
				"assembly": "    /* \"Textbook/Chapter3/memories.sol\":57:419  contract Ex3_15 {... */\n  mstore(0x40, 0x80)\n  callvalue\n  dup1\n  iszero\n  tag_1\n  jumpi\n  0x00\n  dup1\n  revert\ntag_1:\n  pop\n  dataSize(sub_0)\n  dup1\n  dataOffset(sub_0)\n  0x00\n  codecopy\n  0x00\n  return\nstop\n\nsub_0: assembly {\n        /* \"Textbook/Chapter3/memories.sol\":57:419  contract Ex3_15 {... */\n      mstore(0x40, 0x80)\n      callvalue\n      dup1\n      iszero\n      tag_1\n      jumpi\n      0x00\n      dup1\n      revert\n    tag_1:\n      pop\n      jumpi(tag_2, lt(calldatasize, 0x04))\n      shr(0xe0, calldataload(0x00))\n      dup1\n      0xd2d1dd72\n      eq\n      tag_3\n      jumpi\n    tag_2:\n      0x00\n      dup1\n      revert\n        /* \"Textbook/Chapter3/memories.sol\":80:417  function myFun(string memory str) ... */\n    tag_3:\n      tag_4\n      0x04\n      dup1\n      calldatasize\n      sub\n      dup2\n      add\n      swap1\n      tag_5\n      swap2\n      swap1\n      tag_6\n      jump\t// in\n    tag_5:\n      tag_7\n      jump\t// in\n    tag_4:\n      mload(0x40)\n      tag_8\n      swap4\n      swap3\n      swap2\n      swap1\n      tag_9\n      jump\t// in\n    tag_8:\n      mload(0x40)\n      dup1\n      swap2\n      sub\n      swap1\n      return\n    tag_7:\n        /* \"Textbook/Chapter3/memories.sol\":174:178  uint */\n      0x00\n        /* \"Textbook/Chapter3/memories.sol\":192:205  string memory */\n      0x60\n        /* \"Textbook/Chapter3/memories.sol\":219:231  bytes memory */\n      dup1\n        /* \"Textbook/Chapter3/memories.sol\":256:264  uint num */\n      0x00\n        /* \"Textbook/Chapter3/memories.sol\":267:269  99 */\n      0x63\n        /* \"Textbook/Chapter3/memories.sol\":256:269  uint num = 99 */\n      swap1\n      pop\n        /* \"Textbook/Chapter3/memories.sol\":283:299  bytes memory byt */\n      0x00\n        /* \"Textbook/Chapter3/memories.sol\":283:309  bytes memory byt = hex\"01\" */\n      mload(0x40)\n      dup1\n      0x40\n      add\n      0x40\n      mstore\n      dup1\n      0x01\n      dup2\n      mstore\n      0x20\n      add\n      0x0100000000000000000000000000000000000000000000000000000000000000\n      dup2\n      mstore\n      pop\n      swap1\n      pop\n        /* \"Textbook/Chapter3/memories.sol\":347:350  num */\n      dup2\n        /* \"Textbook/Chapter3/memories.sol\":368:371  str */\n      dup7\n        /* \"Textbook/Chapter3/memories.sol\":389:392  byt */\n      dup3\n        /* \"Textbook/Chapter3/memories.sol\":323:406  return(... */\n      swap5\n      pop\n      swap5\n      pop\n      swap5\n      pop\n      pop\n      pop\n        /* \"Textbook/Chapter3/memories.sol\":80:417  function myFun(string memory str) ... */\n      swap2\n      swap4\n      swap1\n      swap3\n      pop\n      jump\t// out\n        /* \"#utility.yul\":7:351   */\n    tag_12:\n      0x00\n        /* \"#utility.yul\":110:175   */\n      tag_14\n        /* \"#utility.yul\":125:174   */\n      tag_15\n        /* \"#utility.yul\":167:173   */\n      dup5\n        /* \"#utility.yul\":125:174   */\n      tag_16\n      jump\t// in\n    tag_15:\n        /* \"#utility.yul\":110:175   */\n      tag_17\n      jump\t// in\n    tag_14:\n        /* \"#utility.yul\":101:175   */\n      swap1\n      pop\n        /* \"#utility.yul\":198:204   */\n      dup3\n        /* \"#utility.yul\":191:196   */\n      dup2\n        /* \"#utility.yul\":184:205   */\n      mstore\n        /* \"#utility.yul\":236:240   */\n      0x20\n        /* \"#utility.yul\":229:234   */\n      dup2\n        /* \"#utility.yul\":225:241   */\n      add\n        /* \"#utility.yul\":274:277   */\n      dup5\n        /* \"#utility.yul\":265:271   */\n      dup5\n        /* \"#utility.yul\":260:263   */\n      dup5\n        /* \"#utility.yul\":256:272   */\n      add\n        /* \"#utility.yul\":253:278   */\n      gt\n        /* \"#utility.yul\":250:252   */\n      iszero\n      tag_18\n      jumpi\n        /* \"#utility.yul\":291:292   */\n      0x00\n        /* \"#utility.yul\":288:289   */\n      dup1\n        /* \"#utility.yul\":281:293   */\n      revert\n        /* \"#utility.yul\":250:252   */\n    tag_18:\n        /* \"#utility.yul\":304:345   */\n      tag_19\n        /* \"#utility.yul\":338:344   */\n      dup5\n        /* \"#utility.yul\":333:336   */\n      dup3\n        /* \"#utility.yul\":328:331   */\n      dup6\n        /* \"#utility.yul\":304:345   */\n      tag_20\n      jump\t// in\n    tag_19:\n        /* \"#utility.yul\":91:351   */\n      pop\n      swap4\n      swap3\n      pop\n      pop\n      pop\n      jump\t// out\n        /* \"#utility.yul\":371:644   */\n    tag_21:\n      0x00\n        /* \"#utility.yul\":476:479   */\n      dup3\n        /* \"#utility.yul\":469:473   */\n      0x1f\n        /* \"#utility.yul\":461:467   */\n      dup4\n        /* \"#utility.yul\":457:474   */\n      add\n        /* \"#utility.yul\":453:480   */\n      slt\n        /* \"#utility.yul\":443:445   */\n      tag_23\n      jumpi\n        /* \"#utility.yul\":494:495   */\n      0x00\n        /* \"#utility.yul\":491:492   */\n      dup1\n        /* \"#utility.yul\":484:496   */\n      revert\n        /* \"#utility.yul\":443:445   */\n    tag_23:\n        /* \"#utility.yul\":534:540   */\n      dup2\n        /* \"#utility.yul\":521:541   */\n      calldataload\n        /* \"#utility.yul\":559:638   */\n      tag_24\n        /* \"#utility.yul\":634:637   */\n      dup5\n        /* \"#utility.yul\":626:632   */\n      dup3\n        /* \"#utility.yul\":619:623   */\n      0x20\n        /* \"#utility.yul\":611:617   */\n      dup7\n        /* \"#utility.yul\":607:624   */\n      add\n        /* \"#utility.yul\":559:638   */\n      tag_12\n      jump\t// in\n    tag_24:\n        /* \"#utility.yul\":550:638   */\n      swap2\n      pop\n        /* \"#utility.yul\":433:644   */\n      pop\n      swap3\n      swap2\n      pop\n      pop\n      jump\t// out\n        /* \"#utility.yul\":650:1025   */\n    tag_6:\n      0x00\n        /* \"#utility.yul\":768:770   */\n      0x20\n        /* \"#utility.yul\":756:765   */\n      dup3\n        /* \"#utility.yul\":747:754   */\n      dup5\n        /* \"#utility.yul\":743:766   */\n      sub\n        /* \"#utility.yul\":739:771   */\n      slt\n        /* \"#utility.yul\":736:738   */\n      iszero\n      tag_26\n      jumpi\n        /* \"#utility.yul\":784:785   */\n      0x00\n        /* \"#utility.yul\":781:782   */\n      dup1\n        /* \"#utility.yul\":774:786   */\n      revert\n        /* \"#utility.yul\":736:738   */\n    tag_26:\n        /* \"#utility.yul\":855:856   */\n      0x00\n        /* \"#utility.yul\":844:853   */\n      dup3\n        /* \"#utility.yul\":840:857   */\n      add\n        /* \"#utility.yul\":827:858   */\n      calldataload\n        /* \"#utility.yul\":885:903   */\n      0xffffffffffffffff\n        /* \"#utility.yul\":877:883   */\n      dup2\n        /* \"#utility.yul\":874:904   */\n      gt\n        /* \"#utility.yul\":871:873   */\n      iszero\n      tag_27\n      jumpi\n        /* \"#utility.yul\":917:918   */\n      0x00\n        /* \"#utility.yul\":914:915   */\n      dup1\n        /* \"#utility.yul\":907:919   */\n      revert\n        /* \"#utility.yul\":871:873   */\n    tag_27:\n        /* \"#utility.yul\":945:1008   */\n      tag_28\n        /* \"#utility.yul\":1000:1007   */\n      dup5\n        /* \"#utility.yul\":991:997   */\n      dup3\n        /* \"#utility.yul\":980:989   */\n      dup6\n        /* \"#utility.yul\":976:998   */\n      add\n        /* \"#utility.yul\":945:1008   */\n      tag_21\n      jump\t// in\n    tag_28:\n        /* \"#utility.yul\":935:1008   */\n      swap2\n      pop\n        /* \"#utility.yul\":798:1018   */\n      pop\n        /* \"#utility.yul\":726:1025   */\n      swap3\n      swap2\n      pop\n      pop\n      jump\t// out\n        /* \"#utility.yul\":1031:1391   */\n    tag_29:\n      0x00\n        /* \"#utility.yul\":1145:1183   */\n      tag_31\n        /* \"#utility.yul\":1177:1182   */\n      dup3\n        /* \"#utility.yul\":1145:1183   */\n      tag_32\n      jump\t// in\n    tag_31:\n        /* \"#utility.yul\":1199:1269   */\n      tag_33\n        /* \"#utility.yul\":1262:1268   */\n      dup2\n        /* \"#utility.yul\":1257:1260   */\n      dup6\n        /* \"#utility.yul\":1199:1269   */\n      tag_34\n      jump\t// in\n    tag_33:\n        /* \"#utility.yul\":1192:1269   */\n      swap4\n      pop\n        /* \"#utility.yul\":1278:1330   */\n      tag_35\n        /* \"#utility.yul\":1323:1329   */\n      dup2\n        /* \"#utility.yul\":1318:1321   */\n      dup6\n        /* \"#utility.yul\":1311:1315   */\n      0x20\n        /* \"#utility.yul\":1304:1309   */\n      dup7\n        /* \"#utility.yul\":1300:1316   */\n      add\n        /* \"#utility.yul\":1278:1330   */\n      tag_36\n      jump\t// in\n    tag_35:\n        /* \"#utility.yul\":1355:1384   */\n      tag_37\n        /* \"#utility.yul\":1377:1383   */\n      dup2\n        /* \"#utility.yul\":1355:1384   */\n      tag_38\n      jump\t// in\n    tag_37:\n        /* \"#utility.yul\":1350:1353   */\n      dup5\n        /* \"#utility.yul\":1346:1385   */\n      add\n        /* \"#utility.yul\":1339:1385   */\n      swap2\n      pop\n        /* \"#utility.yul\":1121:1391   */\n      pop\n      swap3\n      swap2\n      pop\n      pop\n      jump\t// out\n        /* \"#utility.yul\":1397:1761   */\n    tag_39:\n      0x00\n        /* \"#utility.yul\":1513:1552   */\n      tag_41\n        /* \"#utility.yul\":1546:1551   */\n      dup3\n        /* \"#utility.yul\":1513:1552   */\n      tag_42\n      jump\t// in\n    tag_41:\n        /* \"#utility.yul\":1568:1639   */\n      tag_43\n        /* \"#utility.yul\":1632:1638   */\n      dup2\n        /* \"#utility.yul\":1627:1630   */\n      dup6\n        /* \"#utility.yul\":1568:1639   */\n      tag_44\n      jump\t// in\n    tag_43:\n        /* \"#utility.yul\":1561:1639   */\n      swap4\n      pop\n        /* \"#utility.yul\":1648:1700   */\n      tag_45\n        /* \"#utility.yul\":1693:1699   */\n      dup2\n        /* \"#utility.yul\":1688:1691   */\n      dup6\n        /* \"#utility.yul\":1681:1685   */\n      0x20\n        /* \"#utility.yul\":1674:1679   */\n      dup7\n        /* \"#utility.yul\":1670:1686   */\n      add\n        /* \"#utility.yul\":1648:1700   */\n      tag_36\n      jump\t// in\n    tag_45:\n        /* \"#utility.yul\":1725:1754   */\n      tag_46\n        /* \"#utility.yul\":1747:1753   */\n      dup2\n        /* \"#utility.yul\":1725:1754   */\n      tag_38\n      jump\t// in\n    tag_46:\n        /* \"#utility.yul\":1720:1723   */\n      dup5\n        /* \"#utility.yul\":1716:1755   */\n      add\n        /* \"#utility.yul\":1709:1755   */\n      swap2\n      pop\n        /* \"#utility.yul\":1489:1761   */\n      pop\n      swap3\n      swap2\n      pop\n      pop\n      jump\t// out\n        /* \"#utility.yul\":1767:1885   */\n    tag_47:\n        /* \"#utility.yul\":1854:1878   */\n      tag_49\n        /* \"#utility.yul\":1872:1877   */\n      dup2\n        /* \"#utility.yul\":1854:1878   */\n      tag_50\n      jump\t// in\n    tag_49:\n        /* \"#utility.yul\":1849:1852   */\n      dup3\n        /* \"#utility.yul\":1842:1879   */\n      mstore\n        /* \"#utility.yul\":1832:1885   */\n      pop\n      pop\n      jump\t// out\n        /* \"#utility.yul\":1891:2511   */\n    tag_9:\n      0x00\n        /* \"#utility.yul\":2116:2118   */\n      0x60\n        /* \"#utility.yul\":2105:2114   */\n      dup3\n        /* \"#utility.yul\":2101:2119   */\n      add\n        /* \"#utility.yul\":2093:2119   */\n      swap1\n      pop\n        /* \"#utility.yul\":2129:2200   */\n      tag_52\n        /* \"#utility.yul\":2197:2198   */\n      0x00\n        /* \"#utility.yul\":2186:2195   */\n      dup4\n        /* \"#utility.yul\":2182:2199   */\n      add\n        /* \"#utility.yul\":2173:2179   */\n      dup7\n        /* \"#utility.yul\":2129:2200   */\n      tag_47\n      jump\t// in\n    tag_52:\n        /* \"#utility.yul\":2247:2256   */\n      dup2\n        /* \"#utility.yul\":2241:2245   */\n      dup2\n        /* \"#utility.yul\":2237:2257   */\n      sub\n        /* \"#utility.yul\":2232:2234   */\n      0x20\n        /* \"#utility.yul\":2221:2230   */\n      dup4\n        /* \"#utility.yul\":2217:2235   */\n      add\n        /* \"#utility.yul\":2210:2258   */\n      mstore\n        /* \"#utility.yul\":2275:2353   */\n      tag_53\n        /* \"#utility.yul\":2348:2352   */\n      dup2\n        /* \"#utility.yul\":2339:2345   */\n      dup6\n        /* \"#utility.yul\":2275:2353   */\n      tag_39\n      jump\t// in\n    tag_53:\n        /* \"#utility.yul\":2267:2353   */\n      swap1\n      pop\n        /* \"#utility.yul\":2400:2409   */\n      dup2\n        /* \"#utility.yul\":2394:2398   */\n      dup2\n        /* \"#utility.yul\":2390:2410   */\n      sub\n        /* \"#utility.yul\":2385:2387   */\n      0x40\n        /* \"#utility.yul\":2374:2383   */\n      dup4\n        /* \"#utility.yul\":2370:2388   */\n      add\n        /* \"#utility.yul\":2363:2411   */\n      mstore\n        /* \"#utility.yul\":2428:2504   */\n      tag_54\n        /* \"#utility.yul\":2499:2503   */\n      dup2\n        /* \"#utility.yul\":2490:2496   */\n      dup5\n        /* \"#utility.yul\":2428:2504   */\n      tag_29\n      jump\t// in\n    tag_54:\n        /* \"#utility.yul\":2420:2504   */\n      swap1\n      pop\n        /* \"#utility.yul\":2083:2511   */\n      swap5\n      swap4\n      pop\n      pop\n      pop\n      pop\n      jump\t// out\n        /* \"#utility.yul\":2517:2800   */\n    tag_17:\n      0x00\n        /* \"#utility.yul\":2583:2585   */\n      0x40\n        /* \"#utility.yul\":2577:2586   */\n      mload\n        /* \"#utility.yul\":2567:2586   */\n      swap1\n      pop\n        /* \"#utility.yul\":2625:2629   */\n      dup2\n        /* \"#utility.yul\":2617:2623   */\n      dup2\n        /* \"#utility.yul\":2613:2630   */\n      add\n        /* \"#utility.yul\":2732:2738   */\n      dup2\n        /* \"#utility.yul\":2720:2730   */\n      dup2\n        /* \"#utility.yul\":2717:2739   */\n      lt\n        /* \"#utility.yul\":2696:2714   */\n      0xffffffffffffffff\n        /* \"#utility.yul\":2684:2694   */\n      dup3\n        /* \"#utility.yul\":2681:2715   */\n      gt\n        /* \"#utility.yul\":2678:2740   */\n      or\n        /* \"#utility.yul\":2675:2677   */\n      iszero\n      tag_56\n      jumpi\n        /* \"#utility.yul\":2743:2761   */\n      tag_57\n      tag_58\n      jump\t// in\n    tag_57:\n        /* \"#utility.yul\":2675:2677   */\n    tag_56:\n        /* \"#utility.yul\":2783:2793   */\n      dup1\n        /* \"#utility.yul\":2779:2781   */\n      0x40\n        /* \"#utility.yul\":2772:2794   */\n      mstore\n        /* \"#utility.yul\":2557:2800   */\n      pop\n      swap2\n      swap1\n      pop\n      jump\t// out\n        /* \"#utility.yul\":2806:3138   */\n    tag_16:\n      0x00\n        /* \"#utility.yul\":2958:2976   */\n      0xffffffffffffffff\n        /* \"#utility.yul\":2950:2956   */\n      dup3\n        /* \"#utility.yul\":2947:2977   */\n      gt\n        /* \"#utility.yul\":2944:2946   */\n      iszero\n      tag_60\n      jumpi\n        /* \"#utility.yul\":2980:2998   */\n      tag_61\n      tag_58\n      jump\t// in\n    tag_61:\n        /* \"#utility.yul\":2944:2946   */\n    tag_60:\n        /* \"#utility.yul\":3065:3069   */\n      0x1f\n        /* \"#utility.yul\":3061:3070   */\n      not\n        /* \"#utility.yul\":3054:3058   */\n      0x1f\n        /* \"#utility.yul\":3046:3052   */\n      dup4\n        /* \"#utility.yul\":3042:3059   */\n      add\n        /* \"#utility.yul\":3038:3071   */\n      and\n        /* \"#utility.yul\":3030:3071   */\n      swap1\n      pop\n        /* \"#utility.yul\":3126:3130   */\n      0x20\n        /* \"#utility.yul\":3120:3124   */\n      dup2\n        /* \"#utility.yul\":3116:3131   */\n      add\n        /* \"#utility.yul\":3108:3131   */\n      swap1\n      pop\n        /* \"#utility.yul\":2873:3138   */\n      swap2\n      swap1\n      pop\n      jump\t// out\n        /* \"#utility.yul\":3144:3242   */\n    tag_32:\n      0x00\n        /* \"#utility.yul\":3229:3234   */\n      dup2\n        /* \"#utility.yul\":3223:3235   */\n      mload\n        /* \"#utility.yul\":3213:3235   */\n      swap1\n      pop\n        /* \"#utility.yul\":3202:3242   */\n      swap2\n      swap1\n      pop\n      jump\t// out\n        /* \"#utility.yul\":3248:3347   */\n    tag_42:\n      0x00\n        /* \"#utility.yul\":3334:3339   */\n      dup2\n        /* \"#utility.yul\":3328:3340   */\n      mload\n        /* \"#utility.yul\":3318:3340   */\n      swap1\n      pop\n        /* \"#utility.yul\":3307:3347   */\n      swap2\n      swap1\n      pop\n      jump\t// out\n        /* \"#utility.yul\":3353:3521   */\n    tag_34:\n      0x00\n        /* \"#utility.yul\":3470:3476   */\n      dup3\n        /* \"#utility.yul\":3465:3468   */\n      dup3\n        /* \"#utility.yul\":3458:3477   */\n      mstore\n        /* \"#utility.yul\":3510:3514   */\n      0x20\n        /* \"#utility.yul\":3505:3508   */\n      dup3\n        /* \"#utility.yul\":3501:3515   */\n      add\n        /* \"#utility.yul\":3486:3515   */\n      swap1\n      pop\n        /* \"#utility.yul\":3448:3521   */\n      swap3\n      swap2\n      pop\n      pop\n      jump\t// out\n        /* \"#utility.yul\":3527:3696   */\n    tag_44:\n      0x00\n        /* \"#utility.yul\":3645:3651   */\n      dup3\n        /* \"#utility.yul\":3640:3643   */\n      dup3\n        /* \"#utility.yul\":3633:3652   */\n      mstore\n        /* \"#utility.yul\":3685:3689   */\n      0x20\n        /* \"#utility.yul\":3680:3683   */\n      dup3\n        /* \"#utility.yul\":3676:3690   */\n      add\n        /* \"#utility.yul\":3661:3690   */\n      swap1\n      pop\n        /* \"#utility.yul\":3623:3696   */\n      swap3\n      swap2\n      pop\n      pop\n      jump\t// out\n        /* \"#utility.yul\":3702:3779   */\n    tag_50:\n      0x00\n        /* \"#utility.yul\":3768:3773   */\n      dup2\n        /* \"#utility.yul\":3757:3773   */\n      swap1\n      pop\n        /* \"#utility.yul\":3747:3779   */\n      swap2\n      swap1\n      pop\n      jump\t// out\n        /* \"#utility.yul\":3785:3939   */\n    tag_20:\n        /* \"#utility.yul\":3869:3875   */\n      dup3\n        /* \"#utility.yul\":3864:3867   */\n      dup2\n        /* \"#utility.yul\":3859:3862   */\n      dup4\n        /* \"#utility.yul\":3846:3876   */\n      calldatacopy\n        /* \"#utility.yul\":3931:3932   */\n      0x00\n        /* \"#utility.yul\":3922:3928   */\n      dup4\n        /* \"#utility.yul\":3917:3920   */\n      dup4\n        /* \"#utility.yul\":3913:3929   */\n      add\n        /* \"#utility.yul\":3906:3933   */\n      mstore\n        /* \"#utility.yul\":3836:3939   */\n      pop\n      pop\n      pop\n      jump\t// out\n        /* \"#utility.yul\":3945:4252   */\n    tag_36:\n        /* \"#utility.yul\":4013:4014   */\n      0x00\n        /* \"#utility.yul\":4023:4136   */\n    tag_69:\n        /* \"#utility.yul\":4037:4043   */\n      dup4\n        /* \"#utility.yul\":4034:4035   */\n      dup2\n        /* \"#utility.yul\":4031:4044   */\n      lt\n        /* \"#utility.yul\":4023:4136   */\n      iszero\n      tag_71\n      jumpi\n        /* \"#utility.yul\":4122:4123   */\n      dup1\n        /* \"#utility.yul\":4117:4120   */\n      dup3\n        /* \"#utility.yul\":4113:4124   */\n      add\n        /* \"#utility.yul\":4107:4125   */\n      mload\n        /* \"#utility.yul\":4103:4104   */\n      dup2\n        /* \"#utility.yul\":4098:4101   */\n      dup5\n        /* \"#utility.yul\":4094:4105   */\n      add\n        /* \"#utility.yul\":4087:4126   */\n      mstore\n        /* \"#utility.yul\":4059:4061   */\n      0x20\n        /* \"#utility.yul\":4056:4057   */\n      dup2\n        /* \"#utility.yul\":4052:4062   */\n      add\n        /* \"#utility.yul\":4047:4062   */\n      swap1\n      pop\n        /* \"#utility.yul\":4023:4136   */\n      jump(tag_69)\n    tag_71:\n        /* \"#utility.yul\":4154:4160   */\n      dup4\n        /* \"#utility.yul\":4151:4152   */\n      dup2\n        /* \"#utility.yul\":4148:4161   */\n      gt\n        /* \"#utility.yul\":4145:4147   */\n      iszero\n      tag_72\n      jumpi\n        /* \"#utility.yul\":4234:4235   */\n      0x00\n        /* \"#utility.yul\":4225:4231   */\n      dup5\n        /* \"#utility.yul\":4220:4223   */\n      dup5\n        /* \"#utility.yul\":4216:4232   */\n      add\n        /* \"#utility.yul\":4209:4236   */\n      mstore\n        /* \"#utility.yul\":4145:4147   */\n    tag_72:\n        /* \"#utility.yul\":3994:4252   */\n      pop\n      pop\n      pop\n      pop\n      jump\t// out\n        /* \"#utility.yul\":4258:4438   */\n    tag_58:\n        /* \"#utility.yul\":4306:4383   */\n      0x4e487b7100000000000000000000000000000000000000000000000000000000\n        /* \"#utility.yul\":4303:4304   */\n      0x00\n        /* \"#utility.yul\":4296:4384   */\n      mstore\n        /* \"#utility.yul\":4403:4407   */\n      0x41\n        /* \"#utility.yul\":4400:4401   */\n      0x04\n        /* \"#utility.yul\":4393:4408   */\n      mstore\n        /* \"#utility.yul\":4427:4431   */\n      0x24\n        /* \"#utility.yul\":4424:4425   */\n      0x00\n        /* \"#utility.yul\":4417:4432   */\n      revert\n        /* \"#utility.yul\":4444:4546   */\n    tag_38:\n      0x00\n        /* \"#utility.yul\":4536:4538   */\n      0x1f\n        /* \"#utility.yul\":4532:4539   */\n      not\n        /* \"#utility.yul\":4527:4529   */\n      0x1f\n        /* \"#utility.yul\":4520:4525   */\n      dup4\n        /* \"#utility.yul\":4516:4530   */\n      add\n        /* \"#utility.yul\":4512:4540   */\n      and\n        /* \"#utility.yul\":4502:4540   */\n      swap1\n      pop\n        /* \"#utility.yul\":4492:4546   */\n      swap2\n      swap1\n      pop\n      jump\t// out\n\n    auxdata: 0xa264697066735822122016e943f4e7ccf0cf945853fbe3ff7de822668e11834bfa63080068f0c2ea536964736f6c63430008000033\n}\n",
				"bytecode": {
					"linkReferences": {},
					"object": "608060405234801561001057600080fd5b50610383806100206000396000f3fe608060405234801561001057600080fd5b506004361061002b5760003560e01c8063d2d1dd7214610030575b600080fd5b61004a60048036038101906100459190610121565b610062565b604051610059939291906101e3565b60405180910390f35b600060608060006063905060006040518060400160405280600181526020017f0100000000000000000000000000000000000000000000000000000000000000815250905081868294509450945050509193909250565b60006100cc6100c784610259565b610228565b9050828152602081018484840111156100e457600080fd5b6100ef8482856102cb565b509392505050565b600082601f83011261010857600080fd5b81356101188482602086016100b9565b91505092915050565b60006020828403121561013357600080fd5b600082013567ffffffffffffffff81111561014d57600080fd5b610159848285016100f7565b91505092915050565b600061016d82610289565b610177818561029f565b93506101878185602086016102da565b6101908161033c565b840191505092915050565b60006101a682610294565b6101b081856102b0565b93506101c08185602086016102da565b6101c98161033c565b840191505092915050565b6101dd816102c1565b82525050565b60006060820190506101f860008301866101d4565b818103602083015261020a818561019b565b9050818103604083015261021e8184610162565b9050949350505050565b6000604051905081810181811067ffffffffffffffff8211171561024f5761024e61030d565b5b8060405250919050565b600067ffffffffffffffff8211156102745761027361030d565b5b601f19601f8301169050602081019050919050565b600081519050919050565b600081519050919050565b600082825260208201905092915050565b600082825260208201905092915050565b6000819050919050565b82818337600083830152505050565b60005b838110156102f85780820151818401526020810190506102dd565b83811115610307576000848401525b50505050565b7f4e487b7100000000000000000000000000000000000000000000000000000000600052604160045260246000fd5b6000601f19601f830116905091905056fea264697066735822122016e943f4e7ccf0cf945853fbe3ff7de822668e11834bfa63080068f0c2ea536964736f6c63430008000033",
					"opcodes": "PUSH1 0x80 PUSH1 0x40 MSTORE CALLVALUE DUP1 ISZERO PUSH2 0x10 JUMPI PUSH1 0x0 DUP1 REVERT JUMPDEST POP PUSH2 0x383 DUP1 PUSH2 0x20 PUSH1 0x0 CODECOPY PUSH1 0x0 RETURN INVALID PUSH1 0x80 PUSH1 0x40 MSTORE CALLVALUE DUP1 ISZERO PUSH2 0x10 JUMPI PUSH1 0x0 DUP1 REVERT JUMPDEST POP PUSH1 0x4 CALLDATASIZE LT PUSH2 0x2B JUMPI PUSH1 0x0 CALLDATALOAD PUSH1 0xE0 SHR DUP1 PUSH4 0xD2D1DD72 EQ PUSH2 0x30 JUMPI JUMPDEST PUSH1 0x0 DUP1 REVERT JUMPDEST PUSH2 0x4A PUSH1 0x4 DUP1 CALLDATASIZE SUB DUP2 ADD SWAP1 PUSH2 0x45 SWAP2 SWAP1 PUSH2 0x121 JUMP JUMPDEST PUSH2 0x62 JUMP JUMPDEST PUSH1 0x40 MLOAD PUSH2 0x59 SWAP4 SWAP3 SWAP2 SWAP1 PUSH2 0x1E3 JUMP JUMPDEST PUSH1 0x40 MLOAD DUP1 SWAP2 SUB SWAP1 RETURN JUMPDEST PUSH1 0x0 PUSH1 0x60 DUP1 PUSH1 0x0 PUSH1 0x63 SWAP1 POP PUSH1 0x0 PUSH1 0x40 MLOAD DUP1 PUSH1 0x40 ADD PUSH1 0x40 MSTORE DUP1 PUSH1 0x1 DUP2 MSTORE PUSH1 0x20 ADD PUSH32 0x100000000000000000000000000000000000000000000000000000000000000 DUP2 MSTORE POP SWAP1 POP DUP2 DUP7 DUP3 SWAP5 POP SWAP5 POP SWAP5 POP POP POP SWAP2 SWAP4 SWAP1 SWAP3 POP JUMP JUMPDEST PUSH1 0x0 PUSH2 0xCC PUSH2 0xC7 DUP5 PUSH2 0x259 JUMP JUMPDEST PUSH2 0x228 JUMP JUMPDEST SWAP1 POP DUP3 DUP2 MSTORE PUSH1 0x20 DUP2 ADD DUP5 DUP5 DUP5 ADD GT ISZERO PUSH2 0xE4 JUMPI PUSH1 0x0 DUP1 REVERT JUMPDEST PUSH2 0xEF DUP5 DUP3 DUP6 PUSH2 0x2CB JUMP JUMPDEST POP SWAP4 SWAP3 POP POP POP JUMP JUMPDEST PUSH1 0x0 DUP3 PUSH1 0x1F DUP4 ADD SLT PUSH2 0x108 JUMPI PUSH1 0x0 DUP1 REVERT JUMPDEST DUP2 CALLDATALOAD PUSH2 0x118 DUP5 DUP3 PUSH1 0x20 DUP7 ADD PUSH2 0xB9 JUMP JUMPDEST SWAP2 POP POP SWAP3 SWAP2 POP POP JUMP JUMPDEST PUSH1 0x0 PUSH1 0x20 DUP3 DUP5 SUB SLT ISZERO PUSH2 0x133 JUMPI PUSH1 0x0 DUP1 REVERT JUMPDEST PUSH1 0x0 DUP3 ADD CALLDATALOAD PUSH8 0xFFFFFFFFFFFFFFFF DUP2 GT ISZERO PUSH2 0x14D JUMPI PUSH1 0x0 DUP1 REVERT JUMPDEST PUSH2 0x159 DUP5 DUP3 DUP6 ADD PUSH2 0xF7 JUMP JUMPDEST SWAP2 POP POP SWAP3 SWAP2 POP POP JUMP JUMPDEST PUSH1 0x0 PUSH2 0x16D DUP3 PUSH2 0x289 JUMP JUMPDEST PUSH2 0x177 DUP2 DUP6 PUSH2 0x29F JUMP JUMPDEST SWAP4 POP PUSH2 0x187 DUP2 DUP6 PUSH1 0x20 DUP7 ADD PUSH2 0x2DA JUMP JUMPDEST PUSH2 0x190 DUP2 PUSH2 0x33C JUMP JUMPDEST DUP5 ADD SWAP2 POP POP SWAP3 SWAP2 POP POP JUMP JUMPDEST PUSH1 0x0 PUSH2 0x1A6 DUP3 PUSH2 0x294 JUMP JUMPDEST PUSH2 0x1B0 DUP2 DUP6 PUSH2 0x2B0 JUMP JUMPDEST SWAP4 POP PUSH2 0x1C0 DUP2 DUP6 PUSH1 0x20 DUP7 ADD PUSH2 0x2DA JUMP JUMPDEST PUSH2 0x1C9 DUP2 PUSH2 0x33C JUMP JUMPDEST DUP5 ADD SWAP2 POP POP SWAP3 SWAP2 POP POP JUMP JUMPDEST PUSH2 0x1DD DUP2 PUSH2 0x2C1 JUMP JUMPDEST DUP3 MSTORE POP POP JUMP JUMPDEST PUSH1 0x0 PUSH1 0x60 DUP3 ADD SWAP1 POP PUSH2 0x1F8 PUSH1 0x0 DUP4 ADD DUP7 PUSH2 0x1D4 JUMP JUMPDEST DUP2 DUP2 SUB PUSH1 0x20 DUP4 ADD MSTORE PUSH2 0x20A DUP2 DUP6 PUSH2 0x19B JUMP JUMPDEST SWAP1 POP DUP2 DUP2 SUB PUSH1 0x40 DUP4 ADD MSTORE PUSH2 0x21E DUP2 DUP5 PUSH2 0x162 JUMP JUMPDEST SWAP1 POP SWAP5 SWAP4 POP POP POP POP JUMP JUMPDEST PUSH1 0x0 PUSH1 0x40 MLOAD SWAP1 POP DUP2 DUP2 ADD DUP2 DUP2 LT PUSH8 0xFFFFFFFFFFFFFFFF DUP3 GT OR ISZERO PUSH2 0x24F JUMPI PUSH2 0x24E PUSH2 0x30D JUMP JUMPDEST JUMPDEST DUP1 PUSH1 0x40 MSTORE POP SWAP2 SWAP1 POP JUMP JUMPDEST PUSH1 0x0 PUSH8 0xFFFFFFFFFFFFFFFF DUP3 GT ISZERO PUSH2 0x274 JUMPI PUSH2 0x273 PUSH2 0x30D JUMP JUMPDEST JUMPDEST PUSH1 0x1F NOT PUSH1 0x1F DUP4 ADD AND SWAP1 POP PUSH1 0x20 DUP2 ADD SWAP1 POP SWAP2 SWAP1 POP JUMP JUMPDEST PUSH1 0x0 DUP2 MLOAD SWAP1 POP SWAP2 SWAP1 POP JUMP JUMPDEST PUSH1 0x0 DUP2 MLOAD SWAP1 POP SWAP2 SWAP1 POP JUMP JUMPDEST PUSH1 0x0 DUP3 DUP3 MSTORE PUSH1 0x20 DUP3 ADD SWAP1 POP SWAP3 SWAP2 POP POP JUMP JUMPDEST PUSH1 0x0 DUP3 DUP3 MSTORE PUSH1 0x20 DUP3 ADD SWAP1 POP SWAP3 SWAP2 POP POP JUMP JUMPDEST PUSH1 0x0 DUP2 SWAP1 POP SWAP2 SWAP1 POP JUMP JUMPDEST DUP3 DUP2 DUP4 CALLDATACOPY PUSH1 0x0 DUP4 DUP4 ADD MSTORE POP POP POP JUMP JUMPDEST PUSH1 0x0 JUMPDEST DUP4 DUP2 LT ISZERO PUSH2 0x2F8 JUMPI DUP1 DUP3 ADD MLOAD DUP2 DUP5 ADD MSTORE PUSH1 0x20 DUP2 ADD SWAP1 POP PUSH2 0x2DD JUMP JUMPDEST DUP4 DUP2 GT ISZERO PUSH2 0x307 JUMPI PUSH1 0x0 DUP5 DUP5 ADD MSTORE JUMPDEST POP POP POP POP JUMP JUMPDEST PUSH32 0x4E487B7100000000000000000000000000000000000000000000000000000000 PUSH1 0x0 MSTORE PUSH1 0x41 PUSH1 0x4 MSTORE PUSH1 0x24 PUSH1 0x0 REVERT JUMPDEST PUSH1 0x0 PUSH1 0x1F NOT PUSH1 0x1F DUP4 ADD AND SWAP1 POP SWAP2 SWAP1 POP JUMP INVALID LOG2 PUSH5 0x6970667358 0x22 SLT KECCAK256 AND 0xE9 NUMBER DELEGATECALL 0xE7 0xCC CREATE 0xCF SWAP5 PC MSTORE8 0xFB 0xE3 SELFDESTRUCT PUSH30 0xE822668E11834BFA63080068F0C2EA536964736F6C634300080000330000 "
				},
				"gasEstimates": {
					"creation": {
						"codeDepositCost": "179800",
						"executionCost": "226",
						"totalCost": "180026"
					},
					"external": {
						"myFun(string)": "infinite"
					}
				},
				"methodIdentifiers": {
					"myFun(string)": "d2d1dd72"
				}
			},
			"storageLayout": {
				"storage": [],
				"types": null
			},
			"userdoc": {
				"kind": "user",
				"methods": {},
				"version": 1
			}
		}
	}
}