{
	"Textbook/Chapter5/arrayParam.sol": {
		"Ex5_11": {
			"abi": [
				{
					"inputs": [],
					"name": "add",
					"outputs": [],
					"stateMutability": "nonpayable",
					"type": "function"
				},
				{
					"inputs": [],
					"name": "add2",
					"outputs": [
						{
							"internalType": "uint256[]",
							"name": "",
							"type": "uint256[]"
						},
						{
							"internalType": "uint256[]",
							"name": "",
							"type": "uint256[]"
						}
					],
					"stateMutability": "nonpayable",
					"type": "function"
				},
				{
					"inputs": [
						{
							"internalType": "uint256",
							"name": "",
							"type": "uint256"
						}
					],
					"name": "numbers1",
					"outputs": [
						{
							"internalType": "uint256",
							"name": "",
							"type": "uint256"
						}
					],
					"stateMutability": "view",
					"type": "function"
				},
				{
					"inputs": [
						{
							"internalType": "uint256",
							"name": "",
							"type": "uint256"
						}
					],
					"name": "numbers2",
					"outputs": [
						{
							"internalType": "uint256",
							"name": "",
							"type": "uint256"
						}
					],
					"stateMutability": "view",
					"type": "function"
				}
			],
			"devdoc": {
				"kind": "dev",
				"methods": {},
				"version": 1
			},
			"evm": {
				"assembly": "    /* \"Textbook/Chapter5/arrayParam.sol\":57:1285  contract Ex5_11 {... */\n  mstore(0x40, 0x80)\n    /* \"Textbook/Chapter5/arrayParam.sol\":80:113  uint [] public numbers1 = [1,2,3] */\n  mload(0x40)\n  dup1\n  0x60\n  add\n  0x40\n  mstore\n  dup1\n    /* \"Textbook/Chapter5/arrayParam.sol\":107:108  1 */\n  0x01\n    /* \"Textbook/Chapter5/arrayParam.sol\":80:113  uint [] public numbers1 = [1,2,3] */\n  0xff\n  and\n  dup2\n  mstore\n  0x20\n  add\n    /* \"Textbook/Chapter5/arrayParam.sol\":109:110  2 */\n  0x02\n    /* \"Textbook/Chapter5/arrayParam.sol\":80:113  uint [] public numbers1 = [1,2,3] */\n  0xff\n  and\n  dup2\n  mstore\n  0x20\n  add\n    /* \"Textbook/Chapter5/arrayParam.sol\":111:112  3 */\n  0x03\n    /* \"Textbook/Chapter5/arrayParam.sol\":80:113  uint [] public numbers1 = [1,2,3] */\n  0xff\n  and\n  dup2\n  mstore\n  pop\n  0x00\n  swap1\n  0x03\n  tag_1\n  swap3\n  swap2\n  swap1\n  tag_2\n  jump\t// in\ntag_1:\n  pop\n    /* \"Textbook/Chapter5/arrayParam.sol\":119:152  uint [] public numbers2 = [1,2,3] */\n  mload(0x40)\n  dup1\n  0x60\n  add\n  0x40\n  mstore\n  dup1\n    /* \"Textbook/Chapter5/arrayParam.sol\":146:147  1 */\n  0x01\n    /* \"Textbook/Chapter5/arrayParam.sol\":119:152  uint [] public numbers2 = [1,2,3] */\n  0xff\n  and\n  dup2\n  mstore\n  0x20\n  add\n    /* \"Textbook/Chapter5/arrayParam.sol\":148:149  2 */\n  0x02\n    /* \"Textbook/Chapter5/arrayParam.sol\":119:152  uint [] public numbers2 = [1,2,3] */\n  0xff\n  and\n  dup2\n  mstore\n  0x20\n  add\n    /* \"Textbook/Chapter5/arrayParam.sol\":150:151  3 */\n  0x03\n    /* \"Textbook/Chapter5/arrayParam.sol\":119:152  uint [] public numbers2 = [1,2,3] */\n  0xff\n  and\n  dup2\n  mstore\n  pop\n  0x01\n  swap1\n  0x03\n  tag_3\n  swap3\n  swap2\n  swap1\n  tag_2\n  jump\t// in\ntag_3:\n  pop\n    /* \"Textbook/Chapter5/arrayParam.sol\":57:1285  contract Ex5_11 {... */\n  callvalue\n  dup1\n  iszero\n  tag_4\n  jumpi\n  0x00\n  dup1\n  revert\ntag_4:\n  pop\n  jump(tag_5)\ntag_2:\n  dup3\n  dup1\n  sload\n  dup3\n  dup3\n  sstore\n  swap1\n  0x00\n  mstore\n  keccak256(0x00, 0x20)\n  swap1\n  dup2\n  add\n  swap3\n  dup3\n  iszero\n  tag_6\n  jumpi\n  swap2\n  0x20\n  mul\n  dup3\n  add\ntag_7:\n  dup3\n  dup2\n  gt\n  iszero\n  tag_8\n  jumpi\n  dup3\n  mload\n  dup3\n  swap1\n  0xff\n  and\n  swap1\n  sstore\n  swap2\n  0x20\n  add\n  swap2\n  swap1\n  0x01\n  add\n  swap1\n  jump(tag_7)\ntag_8:\ntag_6:\n  pop\n  swap1\n  pop\n  tag_9\n  swap2\n  swap1\n  tag_10\n  jump\t// in\ntag_9:\n  pop\n  swap1\n  jump\t// out\ntag_10:\ntag_11:\n  dup1\n  dup3\n  gt\n  iszero\n  tag_12\n  jumpi\n  0x00\n  dup2\n  0x00\n  swap1\n  sstore\n  pop\n  0x01\n  add\n  jump(tag_11)\ntag_12:\n  pop\n  swap1\n  jump\t// out\ntag_5:\n  dataSize(sub_0)\n  dup1\n  dataOffset(sub_0)\n  0x00\n  codecopy\n  0x00\n  return\nstop\n\nsub_0: assembly {\n        /* \"Textbook/Chapter5/arrayParam.sol\":57:1285  contract Ex5_11 {... */\n      mstore(0x40, 0x80)\n      callvalue\n      dup1\n      iszero\n      tag_1\n      jumpi\n      0x00\n      dup1\n      revert\n    tag_1:\n      pop\n      jumpi(tag_2, lt(calldatasize, 0x04))\n      shr(0xe0, calldataload(0x00))\n      dup1\n      0x4f2be91f\n      eq\n      tag_3\n      jumpi\n      dup1\n      0x62b44ce1\n      eq\n      tag_4\n      jumpi\n      dup1\n      0x6c1f222f\n      eq\n      tag_5\n      jumpi\n      dup1\n      0x859cc7d6\n      eq\n      tag_6\n      jumpi\n    tag_2:\n      0x00\n      dup1\n      revert\n        /* \"Textbook/Chapter5/arrayParam.sol\":383:487  function add() ... */\n    tag_3:\n      tag_7\n      tag_8\n      jump\t// in\n    tag_7:\n      stop\n        /* \"Textbook/Chapter5/arrayParam.sol\":80:113  uint [] public numbers1 = [1,2,3] */\n    tag_4:\n      tag_9\n      0x04\n      dup1\n      calldatasize\n      sub\n      dup2\n      add\n      swap1\n      tag_10\n      swap2\n      swap1\n      tag_11\n      jump\t// in\n    tag_10:\n      tag_12\n      jump\t// in\n    tag_9:\n      mload(0x40)\n      tag_13\n      swap2\n      swap1\n      tag_14\n      jump\t// in\n    tag_13:\n      mload(0x40)\n      dup1\n      swap2\n      sub\n      swap1\n      return\n        /* \"Textbook/Chapter5/arrayParam.sol\":497:1283  function add2() public returns(uint[] memory, uint[] memory) {... */\n    tag_5:\n      tag_15\n      tag_16\n      jump\t// in\n    tag_15:\n      mload(0x40)\n      tag_17\n      swap3\n      swap2\n      swap1\n      tag_18\n      jump\t// in\n    tag_17:\n      mload(0x40)\n      dup1\n      swap2\n      sub\n      swap1\n      return\n        /* \"Textbook/Chapter5/arrayParam.sol\":119:152  uint [] public numbers2 = [1,2,3] */\n    tag_6:\n      tag_19\n      0x04\n      dup1\n      calldatasize\n      sub\n      dup2\n      add\n      swap1\n      tag_20\n      swap2\n      swap1\n      tag_11\n      jump\t// in\n    tag_20:\n      tag_21\n      jump\t// in\n    tag_19:\n      mload(0x40)\n      tag_22\n      swap2\n      swap1\n      tag_14\n      jump\t// in\n    tag_22:\n      mload(0x40)\n      dup1\n      swap2\n      sub\n      swap1\n      return\n        /* \"Textbook/Chapter5/arrayParam.sol\":383:487  function add() ... */\n    tag_8:\n        /* \"Textbook/Chapter5/arrayParam.sol\":428:445  _push99(numbers1) */\n      tag_24\n        /* \"Textbook/Chapter5/arrayParam.sol\":436:444  numbers1 */\n      0x00\n        /* \"Textbook/Chapter5/arrayParam.sol\":428:435  _push99 */\n      tag_25\n        /* \"Textbook/Chapter5/arrayParam.sol\":428:445  _push99(numbers1) */\n      jump\t// in\n    tag_24:\n      pop\n        /* \"Textbook/Chapter5/arrayParam.sol\":459:476  _push99(numbers2) */\n      tag_26\n        /* \"Textbook/Chapter5/arrayParam.sol\":467:475  numbers2 */\n      0x01\n        /* \"Textbook/Chapter5/arrayParam.sol\":459:466  _push99 */\n      tag_25\n        /* \"Textbook/Chapter5/arrayParam.sol\":459:476  _push99(numbers2) */\n      jump\t// in\n    tag_26:\n      pop\n        /* \"Textbook/Chapter5/arrayParam.sol\":383:487  function add() ... */\n      jump\t// out\n        /* \"Textbook/Chapter5/arrayParam.sol\":80:113  uint [] public numbers1 = [1,2,3] */\n    tag_12:\n      0x00\n      dup2\n      dup2\n      sload\n      dup2\n      lt\n      tag_27\n      jumpi\n      0x00\n      dup1\n      revert\n    tag_27:\n      swap1\n      0x00\n      mstore\n      keccak256(0x00, 0x20)\n      add\n      0x00\n      swap2\n      pop\n      swap1\n      pop\n      sload\n      dup2\n      jump\t// out\n        /* \"Textbook/Chapter5/arrayParam.sol\":497:1283  function add2() public returns(uint[] memory, uint[] memory) {... */\n    tag_16:\n        /* \"Textbook/Chapter5/arrayParam.sol\":528:541  uint[] memory */\n      0x60\n        /* \"Textbook/Chapter5/arrayParam.sol\":543:556  uint[] memory */\n      dup1\n        /* \"Textbook/Chapter5/arrayParam.sol\":564:593  uint[] memory updatedNumbers1 */\n      0x00\n        /* \"Textbook/Chapter5/arrayParam.sol\":625:626  3 */\n      0x03\n        /* \"Textbook/Chapter5/arrayParam.sol\":607:615  numbers1 */\n      0x00\n        /* \"Textbook/Chapter5/arrayParam.sol\":607:622  numbers1.length */\n      dup1\n      sload\n      swap1\n      pop\n        /* \"Textbook/Chapter5/arrayParam.sol\":607:626  numbers1.length + 3 */\n      tag_30\n      swap2\n      swap1\n      tag_31\n      jump\t// in\n    tag_30:\n        /* \"Textbook/Chapter5/arrayParam.sol\":596:627  new uint[](numbers1.length + 3) */\n      0xffffffffffffffff\n      dup2\n      gt\n      iszero\n      tag_32\n      jumpi\n      tag_33\n      tag_34\n      jump\t// in\n    tag_33:\n    tag_32:\n      mload(0x40)\n      swap1\n      dup1\n      dup3\n      mstore\n      dup1\n      0x20\n      mul\n      0x20\n      add\n      dup3\n      add\n      0x40\n      mstore\n      dup1\n      iszero\n      tag_35\n      jumpi\n      dup2\n      0x20\n      add\n      0x20\n      dup3\n      mul\n      dup1\n      calldatasize\n      dup4\n      calldatacopy\n      dup1\n      dup3\n      add\n      swap2\n      pop\n      pop\n      swap1\n      pop\n    tag_35:\n      pop\n        /* \"Textbook/Chapter5/arrayParam.sol\":564:627  uint[] memory updatedNumbers1 = new uint[](numbers1.length + 3) */\n      swap1\n      pop\n        /* \"Textbook/Chapter5/arrayParam.sol\":633:662  uint[] memory updatedNumbers2 */\n      0x00\n        /* \"Textbook/Chapter5/arrayParam.sol\":694:695  3 */\n      0x03\n        /* \"Textbook/Chapter5/arrayParam.sol\":676:684  numbers2 */\n      0x01\n        /* \"Textbook/Chapter5/arrayParam.sol\":676:691  numbers2.length */\n      dup1\n      sload\n      swap1\n      pop\n        /* \"Textbook/Chapter5/arrayParam.sol\":676:695  numbers2.length + 3 */\n      tag_36\n      swap2\n      swap1\n      tag_31\n      jump\t// in\n    tag_36:\n        /* \"Textbook/Chapter5/arrayParam.sol\":665:696  new uint[](numbers2.length + 3) */\n      0xffffffffffffffff\n      dup2\n      gt\n      iszero\n      tag_37\n      jumpi\n      tag_38\n      tag_34\n      jump\t// in\n    tag_38:\n    tag_37:\n      mload(0x40)\n      swap1\n      dup1\n      dup3\n      mstore\n      dup1\n      0x20\n      mul\n      0x20\n      add\n      dup3\n      add\n      0x40\n      mstore\n      dup1\n      iszero\n      tag_39\n      jumpi\n      dup2\n      0x20\n      add\n      0x20\n      dup3\n      mul\n      dup1\n      calldatasize\n      dup4\n      calldatacopy\n      dup1\n      dup3\n      add\n      swap2\n      pop\n      pop\n      swap1\n      pop\n    tag_39:\n      pop\n        /* \"Textbook/Chapter5/arrayParam.sol\":633:696  uint[] memory updatedNumbers2 = new uint[](numbers2.length + 3) */\n      swap1\n      pop\n        /* \"Textbook/Chapter5/arrayParam.sol\":708:714  uint i */\n      0x00\n        /* \"Textbook/Chapter5/arrayParam.sol\":703:795  for (uint i = 0; i < numbers1.length; i++) {... */\n    tag_40:\n        /* \"Textbook/Chapter5/arrayParam.sol\":724:732  numbers1 */\n      0x00\n        /* \"Textbook/Chapter5/arrayParam.sol\":724:739  numbers1.length */\n      dup1\n      sload\n      swap1\n      pop\n        /* \"Textbook/Chapter5/arrayParam.sol\":720:721  i */\n      dup2\n        /* \"Textbook/Chapter5/arrayParam.sol\":720:739  i < numbers1.length */\n      lt\n        /* \"Textbook/Chapter5/arrayParam.sol\":703:795  for (uint i = 0; i < numbers1.length; i++) {... */\n      iszero\n      tag_41\n      jumpi\n        /* \"Textbook/Chapter5/arrayParam.sol\":777:785  numbers1 */\n      0x00\n        /* \"Textbook/Chapter5/arrayParam.sol\":786:787  i */\n      dup2\n        /* \"Textbook/Chapter5/arrayParam.sol\":777:788  numbers1[i] */\n      dup2\n      sload\n      dup2\n      lt\n      tag_43\n      jumpi\n      tag_44\n      tag_45\n      jump\t// in\n    tag_44:\n    tag_43:\n      swap1\n      0x00\n      mstore\n      keccak256(0x00, 0x20)\n      add\n      sload\n        /* \"Textbook/Chapter5/arrayParam.sol\":756:771  updatedNumbers1 */\n      dup4\n        /* \"Textbook/Chapter5/arrayParam.sol\":772:773  i */\n      dup3\n        /* \"Textbook/Chapter5/arrayParam.sol\":756:774  updatedNumbers1[i] */\n      dup2\n      mload\n      dup2\n      lt\n      tag_47\n      jumpi\n      tag_48\n      tag_45\n      jump\t// in\n    tag_48:\n    tag_47:\n      0x20\n      mul\n      0x20\n      add\n      add\n        /* \"Textbook/Chapter5/arrayParam.sol\":756:788  updatedNumbers1[i] = numbers1[i] */\n      dup2\n      dup2\n      mstore\n      pop\n      pop\n        /* \"Textbook/Chapter5/arrayParam.sol\":741:744  i++ */\n      dup1\n      dup1\n      tag_49\n      swap1\n      tag_50\n      jump\t// in\n    tag_49:\n      swap2\n      pop\n      pop\n        /* \"Textbook/Chapter5/arrayParam.sol\":703:795  for (uint i = 0; i < numbers1.length; i++) {... */\n      jump(tag_40)\n    tag_41:\n      pop\n        /* \"Textbook/Chapter5/arrayParam.sol\":805:811  uint i */\n      0x00\n        /* \"Textbook/Chapter5/arrayParam.sol\":800:892  for (uint i = 0; i < numbers2.length; i++) {... */\n    tag_51:\n        /* \"Textbook/Chapter5/arrayParam.sol\":821:829  numbers2 */\n      0x01\n        /* \"Textbook/Chapter5/arrayParam.sol\":821:836  numbers2.length */\n      dup1\n      sload\n      swap1\n      pop\n        /* \"Textbook/Chapter5/arrayParam.sol\":817:818  i */\n      dup2\n        /* \"Textbook/Chapter5/arrayParam.sol\":817:836  i < numbers2.length */\n      lt\n        /* \"Textbook/Chapter5/arrayParam.sol\":800:892  for (uint i = 0; i < numbers2.length; i++) {... */\n      iszero\n      tag_52\n      jumpi\n        /* \"Textbook/Chapter5/arrayParam.sol\":874:882  numbers2 */\n      0x01\n        /* \"Textbook/Chapter5/arrayParam.sol\":883:884  i */\n      dup2\n        /* \"Textbook/Chapter5/arrayParam.sol\":874:885  numbers2[i] */\n      dup2\n      sload\n      dup2\n      lt\n      tag_54\n      jumpi\n      tag_55\n      tag_45\n      jump\t// in\n    tag_55:\n    tag_54:\n      swap1\n      0x00\n      mstore\n      keccak256(0x00, 0x20)\n      add\n      sload\n        /* \"Textbook/Chapter5/arrayParam.sol\":853:868  updatedNumbers2 */\n      dup3\n        /* \"Textbook/Chapter5/arrayParam.sol\":869:870  i */\n      dup3\n        /* \"Textbook/Chapter5/arrayParam.sol\":853:871  updatedNumbers2[i] */\n      dup2\n      mload\n      dup2\n      lt\n      tag_57\n      jumpi\n      tag_58\n      tag_45\n      jump\t// in\n    tag_58:\n    tag_57:\n      0x20\n      mul\n      0x20\n      add\n      add\n        /* \"Textbook/Chapter5/arrayParam.sol\":853:885  updatedNumbers2[i] = numbers2[i] */\n      dup2\n      dup2\n      mstore\n      pop\n      pop\n        /* \"Textbook/Chapter5/arrayParam.sol\":838:841  i++ */\n      dup1\n      dup1\n      tag_59\n      swap1\n      tag_50\n      jump\t// in\n    tag_59:\n      swap2\n      pop\n      pop\n        /* \"Textbook/Chapter5/arrayParam.sol\":800:892  for (uint i = 0; i < numbers2.length; i++) {... */\n      jump(tag_51)\n    tag_52:\n      pop\n        /* \"Textbook/Chapter5/arrayParam.sol\":933:935  99 */\n      0x63\n        /* \"Textbook/Chapter5/arrayParam.sol\":898:913  updatedNumbers1 */\n      dup3\n        /* \"Textbook/Chapter5/arrayParam.sol\":914:922  numbers1 */\n      0x00\n        /* \"Textbook/Chapter5/arrayParam.sol\":914:929  numbers1.length */\n      dup1\n      sload\n      swap1\n      pop\n        /* \"Textbook/Chapter5/arrayParam.sol\":898:930  updatedNumbers1[numbers1.length] */\n      dup2\n      mload\n      dup2\n      lt\n      tag_60\n      jumpi\n      tag_61\n      tag_45\n      jump\t// in\n    tag_61:\n    tag_60:\n      0x20\n      mul\n      0x20\n      add\n      add\n        /* \"Textbook/Chapter5/arrayParam.sol\":898:935  updatedNumbers1[numbers1.length] = 99 */\n      dup2\n      dup2\n      mstore\n      pop\n      pop\n        /* \"Textbook/Chapter5/arrayParam.sol\":980:982  99 */\n      0x63\n        /* \"Textbook/Chapter5/arrayParam.sol\":941:956  updatedNumbers1 */\n      dup3\n        /* \"Textbook/Chapter5/arrayParam.sol\":975:976  1 */\n      0x01\n        /* \"Textbook/Chapter5/arrayParam.sol\":957:965  numbers1 */\n      0x00\n        /* \"Textbook/Chapter5/arrayParam.sol\":957:972  numbers1.length */\n      dup1\n      sload\n      swap1\n      pop\n        /* \"Textbook/Chapter5/arrayParam.sol\":957:976  numbers1.length + 1 */\n      tag_62\n      swap2\n      swap1\n      tag_31\n      jump\t// in\n    tag_62:\n        /* \"Textbook/Chapter5/arrayParam.sol\":941:977  updatedNumbers1[numbers1.length + 1] */\n      dup2\n      mload\n      dup2\n      lt\n      tag_63\n      jumpi\n      tag_64\n      tag_45\n      jump\t// in\n    tag_64:\n    tag_63:\n      0x20\n      mul\n      0x20\n      add\n      add\n        /* \"Textbook/Chapter5/arrayParam.sol\":941:982  updatedNumbers1[numbers1.length + 1] = 99 */\n      dup2\n      dup2\n      mstore\n      pop\n      pop\n        /* \"Textbook/Chapter5/arrayParam.sol\":1027:1029  99 */\n      0x63\n        /* \"Textbook/Chapter5/arrayParam.sol\":988:1003  updatedNumbers1 */\n      dup3\n        /* \"Textbook/Chapter5/arrayParam.sol\":1022:1023  2 */\n      0x02\n        /* \"Textbook/Chapter5/arrayParam.sol\":1004:1012  numbers1 */\n      0x00\n        /* \"Textbook/Chapter5/arrayParam.sol\":1004:1019  numbers1.length */\n      dup1\n      sload\n      swap1\n      pop\n        /* \"Textbook/Chapter5/arrayParam.sol\":1004:1023  numbers1.length + 2 */\n      tag_65\n      swap2\n      swap1\n      tag_31\n      jump\t// in\n    tag_65:\n        /* \"Textbook/Chapter5/arrayParam.sol\":988:1024  updatedNumbers1[numbers1.length + 2] */\n      dup2\n      mload\n      dup2\n      lt\n      tag_66\n      jumpi\n      tag_67\n      tag_45\n      jump\t// in\n    tag_67:\n    tag_66:\n      0x20\n      mul\n      0x20\n      add\n      add\n        /* \"Textbook/Chapter5/arrayParam.sol\":988:1029  updatedNumbers1[numbers1.length + 2] = 99 */\n      dup2\n      dup2\n      mstore\n      pop\n      pop\n        /* \"Textbook/Chapter5/arrayParam.sol\":1071:1073  99 */\n      0x63\n        /* \"Textbook/Chapter5/arrayParam.sol\":1036:1051  updatedNumbers2 */\n      dup2\n        /* \"Textbook/Chapter5/arrayParam.sol\":1052:1060  numbers2 */\n      0x01\n        /* \"Textbook/Chapter5/arrayParam.sol\":1052:1067  numbers2.length */\n      dup1\n      sload\n      swap1\n      pop\n        /* \"Textbook/Chapter5/arrayParam.sol\":1036:1068  updatedNumbers2[numbers2.length] */\n      dup2\n      mload\n      dup2\n      lt\n      tag_68\n      jumpi\n      tag_69\n      tag_45\n      jump\t// in\n    tag_69:\n    tag_68:\n      0x20\n      mul\n      0x20\n      add\n      add\n        /* \"Textbook/Chapter5/arrayParam.sol\":1036:1073  updatedNumbers2[numbers2.length] = 99 */\n      dup2\n      dup2\n      mstore\n      pop\n      pop\n        /* \"Textbook/Chapter5/arrayParam.sol\":1118:1120  99 */\n      0x63\n        /* \"Textbook/Chapter5/arrayParam.sol\":1079:1094  updatedNumbers2 */\n      dup2\n        /* \"Textbook/Chapter5/arrayParam.sol\":1113:1114  1 */\n      0x01\n        /* \"Textbook/Chapter5/arrayParam.sol\":1095:1103  numbers2 */\n      dup1\n        /* \"Textbook/Chapter5/arrayParam.sol\":1095:1110  numbers2.length */\n      dup1\n      sload\n      swap1\n      pop\n        /* \"Textbook/Chapter5/arrayParam.sol\":1095:1114  numbers2.length + 1 */\n      tag_70\n      swap2\n      swap1\n      tag_31\n      jump\t// in\n    tag_70:\n        /* \"Textbook/Chapter5/arrayParam.sol\":1079:1115  updatedNumbers2[numbers2.length + 1] */\n      dup2\n      mload\n      dup2\n      lt\n      tag_71\n      jumpi\n      tag_72\n      tag_45\n      jump\t// in\n    tag_72:\n    tag_71:\n      0x20\n      mul\n      0x20\n      add\n      add\n        /* \"Textbook/Chapter5/arrayParam.sol\":1079:1120  updatedNumbers2[numbers2.length + 1] = 99 */\n      dup2\n      dup2\n      mstore\n      pop\n      pop\n        /* \"Textbook/Chapter5/arrayParam.sol\":1165:1167  99 */\n      0x63\n        /* \"Textbook/Chapter5/arrayParam.sol\":1126:1141  updatedNumbers2 */\n      dup2\n        /* \"Textbook/Chapter5/arrayParam.sol\":1160:1161  2 */\n      0x02\n        /* \"Textbook/Chapter5/arrayParam.sol\":1142:1150  numbers2 */\n      0x01\n        /* \"Textbook/Chapter5/arrayParam.sol\":1142:1157  numbers2.length */\n      dup1\n      sload\n      swap1\n      pop\n        /* \"Textbook/Chapter5/arrayParam.sol\":1142:1161  numbers2.length + 2 */\n      tag_73\n      swap2\n      swap1\n      tag_31\n      jump\t// in\n    tag_73:\n        /* \"Textbook/Chapter5/arrayParam.sol\":1126:1162  updatedNumbers2[numbers2.length + 2] */\n      dup2\n      mload\n      dup2\n      lt\n      tag_74\n      jumpi\n      tag_75\n      tag_45\n      jump\t// in\n    tag_75:\n    tag_74:\n      0x20\n      mul\n      0x20\n      add\n      add\n        /* \"Textbook/Chapter5/arrayParam.sol\":1126:1167  updatedNumbers2[numbers2.length + 2] = 99 */\n      dup2\n      dup2\n      mstore\n      pop\n      pop\n        /* \"Textbook/Chapter5/arrayParam.sol\":1185:1200  updatedNumbers1 */\n      dup2\n        /* \"Textbook/Chapter5/arrayParam.sol\":1174:1182  numbers1 */\n      0x00\n        /* \"Textbook/Chapter5/arrayParam.sol\":1174:1200  numbers1 = updatedNumbers1 */\n      swap1\n      dup1\n      mload\n      swap1\n      0x20\n      add\n      swap1\n      tag_76\n      swap3\n      swap2\n      swap1\n      tag_77\n      jump\t// in\n    tag_76:\n      pop\n        /* \"Textbook/Chapter5/arrayParam.sol\":1217:1232  updatedNumbers2 */\n      dup1\n        /* \"Textbook/Chapter5/arrayParam.sol\":1206:1214  numbers2 */\n      0x01\n        /* \"Textbook/Chapter5/arrayParam.sol\":1206:1232  numbers2 = updatedNumbers2 */\n      swap1\n      dup1\n      mload\n      swap1\n      0x20\n      add\n      swap1\n      tag_78\n      swap3\n      swap2\n      swap1\n      tag_77\n      jump\t// in\n    tag_78:\n      pop\n        /* \"Textbook/Chapter5/arrayParam.sol\":1247:1262  updatedNumbers1 */\n      dup2\n        /* \"Textbook/Chapter5/arrayParam.sol\":1264:1279  updatedNumbers2 */\n      dup2\n        /* \"Textbook/Chapter5/arrayParam.sol\":1239:1280  return (updatedNumbers1, updatedNumbers2) */\n      swap4\n      pop\n      swap4\n      pop\n      pop\n      pop\n        /* \"Textbook/Chapter5/arrayParam.sol\":497:1283  function add2() public returns(uint[] memory, uint[] memory) {... */\n      swap1\n      swap2\n      jump\t// out\n        /* \"Textbook/Chapter5/arrayParam.sol\":119:152  uint [] public numbers2 = [1,2,3] */\n    tag_21:\n      0x01\n      dup2\n      dup2\n      sload\n      dup2\n      lt\n      tag_79\n      jumpi\n      0x00\n      dup1\n      revert\n    tag_79:\n      swap1\n      0x00\n      mstore\n      keccak256(0x00, 0x20)\n      add\n      0x00\n      swap2\n      pop\n      swap1\n      pop\n      sload\n      dup2\n      jump\t// out\n        /* \"Textbook/Chapter5/arrayParam.sol\":159:373  function _push99(uint [] storage input) ... */\n    tag_25:\n        /* \"Textbook/Chapter5/arrayParam.sol\":234:248  uint [] memory */\n      0x60\n        /* \"Textbook/Chapter5/arrayParam.sol\":264:269  input */\n      dup2\n        /* \"Textbook/Chapter5/arrayParam.sol\":275:277  99 */\n      0x63\n        /* \"Textbook/Chapter5/arrayParam.sol\":264:278  input.push(99) */\n      swap1\n      dup1\n      0x01\n      dup2\n      sload\n      add\n      dup1\n      dup3\n      sstore\n      dup1\n      swap2\n      pop\n      pop\n      0x01\n      swap1\n      sub\n      swap1\n      0x00\n      mstore\n      keccak256(0x00, 0x20)\n      add\n      0x00\n      swap1\n      swap2\n      swap1\n      swap2\n      swap1\n      swap2\n      pop\n      sstore\n        /* \"Textbook/Chapter5/arrayParam.sol\":292:297  input */\n      dup2\n        /* \"Textbook/Chapter5/arrayParam.sol\":303:305  99 */\n      0x63\n        /* \"Textbook/Chapter5/arrayParam.sol\":292:306  input.push(99) */\n      swap1\n      dup1\n      0x01\n      dup2\n      sload\n      add\n      dup1\n      dup3\n      sstore\n      dup1\n      swap2\n      pop\n      pop\n      0x01\n      swap1\n      sub\n      swap1\n      0x00\n      mstore\n      keccak256(0x00, 0x20)\n      add\n      0x00\n      swap1\n      swap2\n      swap1\n      swap2\n      swap1\n      swap2\n      pop\n      sstore\n        /* \"Textbook/Chapter5/arrayParam.sol\":320:325  input */\n      dup2\n        /* \"Textbook/Chapter5/arrayParam.sol\":331:333  99 */\n      0x63\n        /* \"Textbook/Chapter5/arrayParam.sol\":320:334  input.push(99) */\n      swap1\n      dup1\n      0x01\n      dup2\n      sload\n      add\n      dup1\n      dup3\n      sstore\n      dup1\n      swap2\n      pop\n      pop\n      0x01\n      swap1\n      sub\n      swap1\n      0x00\n      mstore\n      keccak256(0x00, 0x20)\n      add\n      0x00\n      swap1\n      swap2\n      swap1\n      swap2\n      swap1\n      swap2\n      pop\n      sstore\n        /* \"Textbook/Chapter5/arrayParam.sol\":356:361  input */\n      dup2\n        /* \"Textbook/Chapter5/arrayParam.sol\":348:362  return (input) */\n      dup1\n      sload\n      dup1\n      0x20\n      mul\n      0x20\n      add\n      mload(0x40)\n      swap1\n      dup2\n      add\n      0x40\n      mstore\n      dup1\n      swap3\n      swap2\n      swap1\n      dup2\n      dup2\n      mstore\n      0x20\n      add\n      dup3\n      dup1\n      sload\n      dup1\n      iszero\n      tag_85\n      jumpi\n      0x20\n      mul\n      dup3\n      add\n      swap2\n      swap1\n      0x00\n      mstore\n      keccak256(0x00, 0x20)\n      swap1\n    tag_86:\n      dup2\n      sload\n      dup2\n      mstore\n      0x20\n      add\n      swap1\n      0x01\n      add\n      swap1\n      dup1\n      dup4\n      gt\n      tag_86\n      jumpi\n    tag_85:\n      pop\n      pop\n      pop\n      pop\n      pop\n      swap1\n      pop\n        /* \"Textbook/Chapter5/arrayParam.sol\":159:373  function _push99(uint [] storage input) ... */\n      swap2\n      swap1\n      pop\n      jump\t// out\n    tag_77:\n      dup3\n      dup1\n      sload\n      dup3\n      dup3\n      sstore\n      swap1\n      0x00\n      mstore\n      keccak256(0x00, 0x20)\n      swap1\n      dup2\n      add\n      swap3\n      dup3\n      iszero\n      tag_87\n      jumpi\n      swap2\n      0x20\n      mul\n      dup3\n      add\n    tag_88:\n      dup3\n      dup2\n      gt\n      iszero\n      tag_89\n      jumpi\n      dup3\n      mload\n      dup3\n      sstore\n      swap2\n      0x20\n      add\n      swap2\n      swap1\n      0x01\n      add\n      swap1\n      jump(tag_88)\n    tag_89:\n    tag_87:\n      pop\n      swap1\n      pop\n      tag_90\n      swap2\n      swap1\n      tag_91\n      jump\t// in\n    tag_90:\n      pop\n      swap1\n      jump\t// out\n    tag_91:\n    tag_92:\n      dup1\n      dup3\n      gt\n      iszero\n      tag_93\n      jumpi\n      0x00\n      dup2\n      0x00\n      swap1\n      sstore\n      pop\n      0x01\n      add\n      jump(tag_92)\n    tag_93:\n      pop\n      swap1\n      jump\t// out\n        /* \"#utility.yul\":88:205   */\n    tag_95:\n        /* \"#utility.yul\":197:198   */\n      0x00\n        /* \"#utility.yul\":194:195   */\n      dup1\n        /* \"#utility.yul\":187:199   */\n      revert\n        /* \"#utility.yul\":334:411   */\n    tag_97:\n        /* \"#utility.yul\":371:378   */\n      0x00\n        /* \"#utility.yul\":400:405   */\n      dup2\n        /* \"#utility.yul\":389:405   */\n      swap1\n      pop\n        /* \"#utility.yul\":334:411   */\n      swap2\n      swap1\n      pop\n      jump\t// out\n        /* \"#utility.yul\":417:539   */\n    tag_98:\n        /* \"#utility.yul\":490:514   */\n      tag_115\n        /* \"#utility.yul\":508:513   */\n      dup2\n        /* \"#utility.yul\":490:514   */\n      tag_97\n      jump\t// in\n    tag_115:\n        /* \"#utility.yul\":483:488   */\n      dup2\n        /* \"#utility.yul\":480:515   */\n      eq\n        /* \"#utility.yul\":470:533   */\n      tag_116\n      jumpi\n        /* \"#utility.yul\":529:530   */\n      0x00\n        /* \"#utility.yul\":526:527   */\n      dup1\n        /* \"#utility.yul\":519:531   */\n      revert\n        /* \"#utility.yul\":470:533   */\n    tag_116:\n        /* \"#utility.yul\":417:539   */\n      pop\n      jump\t// out\n        /* \"#utility.yul\":545:684   */\n    tag_99:\n        /* \"#utility.yul\":591:596   */\n      0x00\n        /* \"#utility.yul\":629:635   */\n      dup2\n        /* \"#utility.yul\":616:636   */\n      calldataload\n        /* \"#utility.yul\":607:636   */\n      swap1\n      pop\n        /* \"#utility.yul\":645:678   */\n      tag_118\n        /* \"#utility.yul\":672:677   */\n      dup2\n        /* \"#utility.yul\":645:678   */\n      tag_98\n      jump\t// in\n    tag_118:\n        /* \"#utility.yul\":545:684   */\n      swap3\n      swap2\n      pop\n      pop\n      jump\t// out\n        /* \"#utility.yul\":690:1019   */\n    tag_11:\n        /* \"#utility.yul\":749:755   */\n      0x00\n        /* \"#utility.yul\":798:800   */\n      0x20\n        /* \"#utility.yul\":786:795   */\n      dup3\n        /* \"#utility.yul\":777:784   */\n      dup5\n        /* \"#utility.yul\":773:796   */\n      sub\n        /* \"#utility.yul\":769:801   */\n      slt\n        /* \"#utility.yul\":766:885   */\n      iszero\n      tag_120\n      jumpi\n        /* \"#utility.yul\":804:883   */\n      tag_121\n      tag_95\n      jump\t// in\n    tag_121:\n        /* \"#utility.yul\":766:885   */\n    tag_120:\n        /* \"#utility.yul\":924:925   */\n      0x00\n        /* \"#utility.yul\":949:1002   */\n      tag_122\n        /* \"#utility.yul\":994:1001   */\n      dup5\n        /* \"#utility.yul\":985:991   */\n      dup3\n        /* \"#utility.yul\":974:983   */\n      dup6\n        /* \"#utility.yul\":970:992   */\n      add\n        /* \"#utility.yul\":949:1002   */\n      tag_99\n      jump\t// in\n    tag_122:\n        /* \"#utility.yul\":939:1002   */\n      swap2\n      pop\n        /* \"#utility.yul\":895:1012   */\n      pop\n        /* \"#utility.yul\":690:1019   */\n      swap3\n      swap2\n      pop\n      pop\n      jump\t// out\n        /* \"#utility.yul\":1025:1143   */\n    tag_100:\n        /* \"#utility.yul\":1112:1136   */\n      tag_124\n        /* \"#utility.yul\":1130:1135   */\n      dup2\n        /* \"#utility.yul\":1112:1136   */\n      tag_97\n      jump\t// in\n    tag_124:\n        /* \"#utility.yul\":1107:1110   */\n      dup3\n        /* \"#utility.yul\":1100:1137   */\n      mstore\n        /* \"#utility.yul\":1025:1143   */\n      pop\n      pop\n      jump\t// out\n        /* \"#utility.yul\":1149:1371   */\n    tag_14:\n        /* \"#utility.yul\":1242:1246   */\n      0x00\n        /* \"#utility.yul\":1280:1282   */\n      0x20\n        /* \"#utility.yul\":1269:1278   */\n      dup3\n        /* \"#utility.yul\":1265:1283   */\n      add\n        /* \"#utility.yul\":1257:1283   */\n      swap1\n      pop\n        /* \"#utility.yul\":1293:1364   */\n      tag_126\n        /* \"#utility.yul\":1361:1362   */\n      0x00\n        /* \"#utility.yul\":1350:1359   */\n      dup4\n        /* \"#utility.yul\":1346:1363   */\n      add\n        /* \"#utility.yul\":1337:1343   */\n      dup5\n        /* \"#utility.yul\":1293:1364   */\n      tag_100\n      jump\t// in\n    tag_126:\n        /* \"#utility.yul\":1149:1371   */\n      swap3\n      swap2\n      pop\n      pop\n      jump\t// out\n        /* \"#utility.yul\":1377:1491   */\n    tag_101:\n        /* \"#utility.yul\":1444:1450   */\n      0x00\n        /* \"#utility.yul\":1478:1483   */\n      dup2\n        /* \"#utility.yul\":1472:1484   */\n      mload\n        /* \"#utility.yul\":1462:1484   */\n      swap1\n      pop\n        /* \"#utility.yul\":1377:1491   */\n      swap2\n      swap1\n      pop\n      jump\t// out\n        /* \"#utility.yul\":1497:1681   */\n    tag_102:\n        /* \"#utility.yul\":1596:1607   */\n      0x00\n        /* \"#utility.yul\":1630:1636   */\n      dup3\n        /* \"#utility.yul\":1625:1628   */\n      dup3\n        /* \"#utility.yul\":1618:1637   */\n      mstore\n        /* \"#utility.yul\":1670:1674   */\n      0x20\n        /* \"#utility.yul\":1665:1668   */\n      dup3\n        /* \"#utility.yul\":1661:1675   */\n      add\n        /* \"#utility.yul\":1646:1675   */\n      swap1\n      pop\n        /* \"#utility.yul\":1497:1681   */\n      swap3\n      swap2\n      pop\n      pop\n      jump\t// out\n        /* \"#utility.yul\":1687:1819   */\n    tag_103:\n        /* \"#utility.yul\":1754:1758   */\n      0x00\n        /* \"#utility.yul\":1777:1780   */\n      dup2\n        /* \"#utility.yul\":1769:1780   */\n      swap1\n      pop\n        /* \"#utility.yul\":1807:1811   */\n      0x20\n        /* \"#utility.yul\":1802:1805   */\n      dup3\n        /* \"#utility.yul\":1798:1812   */\n      add\n        /* \"#utility.yul\":1790:1812   */\n      swap1\n      pop\n        /* \"#utility.yul\":1687:1819   */\n      swap2\n      swap1\n      pop\n      jump\t// out\n        /* \"#utility.yul\":1825:1933   */\n    tag_104:\n        /* \"#utility.yul\":1902:1926   */\n      tag_131\n        /* \"#utility.yul\":1920:1925   */\n      dup2\n        /* \"#utility.yul\":1902:1926   */\n      tag_97\n      jump\t// in\n    tag_131:\n        /* \"#utility.yul\":1897:1900   */\n      dup3\n        /* \"#utility.yul\":1890:1927   */\n      mstore\n        /* \"#utility.yul\":1825:1933   */\n      pop\n      pop\n      jump\t// out\n        /* \"#utility.yul\":1939:2118   */\n    tag_105:\n        /* \"#utility.yul\":2008:2018   */\n      0x00\n        /* \"#utility.yul\":2029:2075   */\n      tag_133\n        /* \"#utility.yul\":2071:2074   */\n      dup4\n        /* \"#utility.yul\":2063:2069   */\n      dup4\n        /* \"#utility.yul\":2029:2075   */\n      tag_104\n      jump\t// in\n    tag_133:\n        /* \"#utility.yul\":2107:2111   */\n      0x20\n        /* \"#utility.yul\":2102:2105   */\n      dup4\n        /* \"#utility.yul\":2098:2112   */\n      add\n        /* \"#utility.yul\":2084:2112   */\n      swap1\n      pop\n        /* \"#utility.yul\":1939:2118   */\n      swap3\n      swap2\n      pop\n      pop\n      jump\t// out\n        /* \"#utility.yul\":2124:2237   */\n    tag_106:\n        /* \"#utility.yul\":2194:2198   */\n      0x00\n        /* \"#utility.yul\":2226:2230   */\n      0x20\n        /* \"#utility.yul\":2221:2224   */\n      dup3\n        /* \"#utility.yul\":2217:2231   */\n      add\n        /* \"#utility.yul\":2209:2231   */\n      swap1\n      pop\n        /* \"#utility.yul\":2124:2237   */\n      swap2\n      swap1\n      pop\n      jump\t// out\n        /* \"#utility.yul\":2273:3005   */\n    tag_107:\n        /* \"#utility.yul\":2392:2395   */\n      0x00\n        /* \"#utility.yul\":2421:2475   */\n      tag_136\n        /* \"#utility.yul\":2469:2474   */\n      dup3\n        /* \"#utility.yul\":2421:2475   */\n      tag_101\n      jump\t// in\n    tag_136:\n        /* \"#utility.yul\":2491:2577   */\n      tag_137\n        /* \"#utility.yul\":2570:2576   */\n      dup2\n        /* \"#utility.yul\":2565:2568   */\n      dup6\n        /* \"#utility.yul\":2491:2577   */\n      tag_102\n      jump\t// in\n    tag_137:\n        /* \"#utility.yul\":2484:2577   */\n      swap4\n      pop\n        /* \"#utility.yul\":2601:2657   */\n      tag_138\n        /* \"#utility.yul\":2651:2656   */\n      dup4\n        /* \"#utility.yul\":2601:2657   */\n      tag_103\n      jump\t// in\n    tag_138:\n        /* \"#utility.yul\":2680:2687   */\n      dup1\n        /* \"#utility.yul\":2711:2712   */\n      0x00\n        /* \"#utility.yul\":2696:2980   */\n    tag_139:\n        /* \"#utility.yul\":2721:2727   */\n      dup4\n        /* \"#utility.yul\":2718:2719   */\n      dup2\n        /* \"#utility.yul\":2715:2728   */\n      lt\n        /* \"#utility.yul\":2696:2980   */\n      iszero\n      tag_141\n      jumpi\n        /* \"#utility.yul\":2797:2803   */\n      dup2\n        /* \"#utility.yul\":2791:2804   */\n      mload\n        /* \"#utility.yul\":2824:2887   */\n      tag_142\n        /* \"#utility.yul\":2883:2886   */\n      dup9\n        /* \"#utility.yul\":2868:2881   */\n      dup3\n        /* \"#utility.yul\":2824:2887   */\n      tag_105\n      jump\t// in\n    tag_142:\n        /* \"#utility.yul\":2817:2887   */\n      swap8\n      pop\n        /* \"#utility.yul\":2910:2970   */\n      tag_143\n        /* \"#utility.yul\":2963:2969   */\n      dup4\n        /* \"#utility.yul\":2910:2970   */\n      tag_106\n      jump\t// in\n    tag_143:\n        /* \"#utility.yul\":2900:2970   */\n      swap3\n      pop\n        /* \"#utility.yul\":2756:2980   */\n      pop\n        /* \"#utility.yul\":2743:2744   */\n      0x01\n        /* \"#utility.yul\":2740:2741   */\n      dup2\n        /* \"#utility.yul\":2736:2745   */\n      add\n        /* \"#utility.yul\":2731:2745   */\n      swap1\n      pop\n        /* \"#utility.yul\":2696:2980   */\n      jump(tag_139)\n    tag_141:\n        /* \"#utility.yul\":2700:2714   */\n      pop\n        /* \"#utility.yul\":2996:2999   */\n      dup6\n        /* \"#utility.yul\":2989:2999   */\n      swap4\n      pop\n        /* \"#utility.yul\":2397:3005   */\n      pop\n      pop\n      pop\n        /* \"#utility.yul\":2273:3005   */\n      swap3\n      swap2\n      pop\n      pop\n      jump\t// out\n        /* \"#utility.yul\":3011:3645   */\n    tag_18:\n        /* \"#utility.yul\":3232:3236   */\n      0x00\n        /* \"#utility.yul\":3270:3272   */\n      0x40\n        /* \"#utility.yul\":3259:3268   */\n      dup3\n        /* \"#utility.yul\":3255:3273   */\n      add\n        /* \"#utility.yul\":3247:3273   */\n      swap1\n      pop\n        /* \"#utility.yul\":3319:3328   */\n      dup2\n        /* \"#utility.yul\":3313:3317   */\n      dup2\n        /* \"#utility.yul\":3309:3329   */\n      sub\n        /* \"#utility.yul\":3305:3306   */\n      0x00\n        /* \"#utility.yul\":3294:3303   */\n      dup4\n        /* \"#utility.yul\":3290:3307   */\n      add\n        /* \"#utility.yul\":3283:3330   */\n      mstore\n        /* \"#utility.yul\":3347:3455   */\n      tag_145\n        /* \"#utility.yul\":3450:3454   */\n      dup2\n        /* \"#utility.yul\":3441:3447   */\n      dup6\n        /* \"#utility.yul\":3347:3455   */\n      tag_107\n      jump\t// in\n    tag_145:\n        /* \"#utility.yul\":3339:3455   */\n      swap1\n      pop\n        /* \"#utility.yul\":3502:3511   */\n      dup2\n        /* \"#utility.yul\":3496:3500   */\n      dup2\n        /* \"#utility.yul\":3492:3512   */\n      sub\n        /* \"#utility.yul\":3487:3489   */\n      0x20\n        /* \"#utility.yul\":3476:3485   */\n      dup4\n        /* \"#utility.yul\":3472:3490   */\n      add\n        /* \"#utility.yul\":3465:3513   */\n      mstore\n        /* \"#utility.yul\":3530:3638   */\n      tag_146\n        /* \"#utility.yul\":3633:3637   */\n      dup2\n        /* \"#utility.yul\":3624:3630   */\n      dup5\n        /* \"#utility.yul\":3530:3638   */\n      tag_107\n      jump\t// in\n    tag_146:\n        /* \"#utility.yul\":3522:3638   */\n      swap1\n      pop\n        /* \"#utility.yul\":3011:3645   */\n      swap4\n      swap3\n      pop\n      pop\n      pop\n      jump\t// out\n        /* \"#utility.yul\":3651:3831   */\n    tag_108:\n        /* \"#utility.yul\":3699:3776   */\n      0x4e487b7100000000000000000000000000000000000000000000000000000000\n        /* \"#utility.yul\":3696:3697   */\n      0x00\n        /* \"#utility.yul\":3689:3777   */\n      mstore\n        /* \"#utility.yul\":3796:3800   */\n      0x11\n        /* \"#utility.yul\":3793:3794   */\n      0x04\n        /* \"#utility.yul\":3786:3801   */\n      mstore\n        /* \"#utility.yul\":3820:3824   */\n      0x24\n        /* \"#utility.yul\":3817:3818   */\n      0x00\n        /* \"#utility.yul\":3810:3825   */\n      revert\n        /* \"#utility.yul\":3837:4028   */\n    tag_31:\n        /* \"#utility.yul\":3877:3880   */\n      0x00\n        /* \"#utility.yul\":3896:3916   */\n      tag_149\n        /* \"#utility.yul\":3914:3915   */\n      dup3\n        /* \"#utility.yul\":3896:3916   */\n      tag_97\n      jump\t// in\n    tag_149:\n        /* \"#utility.yul\":3891:3916   */\n      swap2\n      pop\n        /* \"#utility.yul\":3930:3950   */\n      tag_150\n        /* \"#utility.yul\":3948:3949   */\n      dup4\n        /* \"#utility.yul\":3930:3950   */\n      tag_97\n      jump\t// in\n    tag_150:\n        /* \"#utility.yul\":3925:3950   */\n      swap3\n      pop\n        /* \"#utility.yul\":3973:3974   */\n      dup3\n        /* \"#utility.yul\":3970:3971   */\n      dup3\n        /* \"#utility.yul\":3966:3975   */\n      add\n        /* \"#utility.yul\":3959:3975   */\n      swap1\n      pop\n        /* \"#utility.yul\":3994:3997   */\n      dup1\n        /* \"#utility.yul\":3991:3992   */\n      dup3\n        /* \"#utility.yul\":3988:3998   */\n      gt\n        /* \"#utility.yul\":3985:4021   */\n      iszero\n      tag_151\n      jumpi\n        /* \"#utility.yul\":4001:4019   */\n      tag_152\n      tag_108\n      jump\t// in\n    tag_152:\n        /* \"#utility.yul\":3985:4021   */\n    tag_151:\n        /* \"#utility.yul\":3837:4028   */\n      swap3\n      swap2\n      pop\n      pop\n      jump\t// out\n        /* \"#utility.yul\":4034:4214   */\n    tag_34:\n        /* \"#utility.yul\":4082:4159   */\n      0x4e487b7100000000000000000000000000000000000000000000000000000000\n        /* \"#utility.yul\":4079:4080   */\n      0x00\n        /* \"#utility.yul\":4072:4160   */\n      mstore\n        /* \"#utility.yul\":4179:4183   */\n      0x41\n        /* \"#utility.yul\":4176:4177   */\n      0x04\n        /* \"#utility.yul\":4169:4184   */\n      mstore\n        /* \"#utility.yul\":4203:4207   */\n      0x24\n        /* \"#utility.yul\":4200:4201   */\n      0x00\n        /* \"#utility.yul\":4193:4208   */\n      revert\n        /* \"#utility.yul\":4220:4400   */\n    tag_45:\n        /* \"#utility.yul\":4268:4345   */\n      0x4e487b7100000000000000000000000000000000000000000000000000000000\n        /* \"#utility.yul\":4265:4266   */\n      0x00\n        /* \"#utility.yul\":4258:4346   */\n      mstore\n        /* \"#utility.yul\":4365:4369   */\n      0x32\n        /* \"#utility.yul\":4362:4363   */\n      0x04\n        /* \"#utility.yul\":4355:4370   */\n      mstore\n        /* \"#utility.yul\":4389:4393   */\n      0x24\n        /* \"#utility.yul\":4386:4387   */\n      0x00\n        /* \"#utility.yul\":4379:4394   */\n      revert\n        /* \"#utility.yul\":4406:4639   */\n    tag_50:\n        /* \"#utility.yul\":4445:4448   */\n      0x00\n        /* \"#utility.yul\":4468:4492   */\n      tag_156\n        /* \"#utility.yul\":4486:4491   */\n      dup3\n        /* \"#utility.yul\":4468:4492   */\n      tag_97\n      jump\t// in\n    tag_156:\n        /* \"#utility.yul\":4459:4492   */\n      swap2\n      pop\n        /* \"#utility.yul\":4514:4580   */\n      0xffffffffffffffffffffffffffffffffffffffffffffffffffffffffffffffff\n        /* \"#utility.yul\":4507:4512   */\n      dup3\n        /* \"#utility.yul\":4504:4581   */\n      sub\n        /* \"#utility.yul\":4501:4604   */\n      tag_157\n      jumpi\n        /* \"#utility.yul\":4584:4602   */\n      tag_158\n      tag_108\n      jump\t// in\n    tag_158:\n        /* \"#utility.yul\":4501:4604   */\n    tag_157:\n        /* \"#utility.yul\":4631:4632   */\n      0x01\n        /* \"#utility.yul\":4624:4629   */\n      dup3\n        /* \"#utility.yul\":4620:4633   */\n      add\n        /* \"#utility.yul\":4613:4633   */\n      swap1\n      pop\n        /* \"#utility.yul\":4406:4639   */\n      swap2\n      swap1\n      pop\n      jump\t// out\n\n    auxdata: 0xa2646970667358221220d7994f37a3286e5d8e6a8022f5f9c42bffaa6d1dd506f94eaef7a8b9c65c2ddb64736f6c63430008120033\n}\n",
				"bytecode": {
					"linkReferences": {},
					"object": "60806040526040518060600160405280600160ff168152602001600260ff168152602001600360ff16815250600090600361003b929190610086565b506040518060600160405280600160ff168152602001600260ff168152602001600360ff168152506001906003610073929190610086565b5034801561008057600080fd5b506100f5565b8280548282559060005260206000209081019282156100c7579160200282015b828111156100c6578251829060ff169055916020019190600101906100a6565b5b5090506100d491906100d8565b5090565b5b808211156100f15760008160009055506001016100d9565b5090565b61080e806101046000396000f3fe608060405234801561001057600080fd5b506004361061004c5760003560e01c80634f2be91f1461005157806362b44ce11461005b5780636c1f222f1461008b578063859cc7d6146100aa575b600080fd5b6100596100da565b005b61007560048036038101906100709190610583565b6100f2565b60405161008291906105bf565b60405180910390f35b610093610116565b6040516100a1929190610698565b60405180910390f35b6100c460048036038101906100bf9190610583565b6103e6565b6040516100d191906105bf565b60405180910390f35b6100e4600061040a565b506100ef600161040a565b50565b6000818154811061010257600080fd5b906000526020600020016000915090505481565b6060806000600360008054905061012d91906106fe565b67ffffffffffffffff81111561014657610145610732565b5b6040519080825280602002602001820160405280156101745781602001602082028036833780820191505090505b5090506000600360018054905061018b91906106fe565b67ffffffffffffffff8111156101a4576101a3610732565b5b6040519080825280602002602001820160405280156101d25781602001602082028036833780820191505090505b50905060005b60008054905081101561023657600081815481106101f9576101f8610761565b5b906000526020600020015483828151811061021757610216610761565b5b602002602001018181525050808061022e90610790565b9150506101d8565b5060005b600180549050811015610298576001818154811061025b5761025a610761565b5b906000526020600020015482828151811061027957610278610761565b5b602002602001018181525050808061029090610790565b91505061023a565b50606382600080549050815181106102b3576102b2610761565b5b60200260200101818152505060638260016000805490506102d491906106fe565b815181106102e5576102e4610761565b5b602002602001018181525050606382600260008054905061030691906106fe565b8151811061031757610316610761565b5b6020026020010181815250506063816001805490508151811061033d5761033c610761565b5b6020026020010181815250506063816001808054905061035d91906106fe565b8151811061036e5761036d610761565b5b602002602001018181525050606381600260018054905061038f91906106fe565b815181106103a05761039f610761565b5b60200260200101818152505081600090805190602001906103c29291906104de565b5080600190805190602001906103d99291906104de565b5081819350935050509091565b600181815481106103f657600080fd5b906000526020600020016000915090505481565b6060816063908060018154018082558091505060019003906000526020600020016000909190919091505581606390806001815401808255809150506001900390600052602060002001600090919091909150558160639080600181540180825580915050600190039060005260206000200160009091909190915055818054806020026020016040519081016040528092919081815260200182805480156104d257602002820191906000526020600020905b8154815260200190600101908083116104be575b50505050509050919050565b82805482825590600052602060002090810192821561051a579160200282015b828111156105195782518255916020019190600101906104fe565b5b509050610527919061052b565b5090565b5b8082111561054457600081600090555060010161052c565b5090565b600080fd5b6000819050919050565b6105608161054d565b811461056b57600080fd5b50565b60008135905061057d81610557565b92915050565b60006020828403121561059957610598610548565b5b60006105a78482850161056e565b91505092915050565b6105b98161054d565b82525050565b60006020820190506105d460008301846105b0565b92915050565b600081519050919050565b600082825260208201905092915050565b6000819050602082019050919050565b61060f8161054d565b82525050565b60006106218383610606565b60208301905092915050565b6000602082019050919050565b6000610645826105da565b61064f81856105e5565b935061065a836105f6565b8060005b8381101561068b5781516106728882610615565b975061067d8361062d565b92505060018101905061065e565b5085935050505092915050565b600060408201905081810360008301526106b2818561063a565b905081810360208301526106c6818461063a565b90509392505050565b7f4e487b7100000000000000000000000000000000000000000000000000000000600052601160045260246000fd5b60006107098261054d565b91506107148361054d565b925082820190508082111561072c5761072b6106cf565b5b92915050565b7f4e487b7100000000000000000000000000000000000000000000000000000000600052604160045260246000fd5b7f4e487b7100000000000000000000000000000000000000000000000000000000600052603260045260246000fd5b600061079b8261054d565b91507fffffffffffffffffffffffffffffffffffffffffffffffffffffffffffffffff82036107cd576107cc6106cf565b5b60018201905091905056fea2646970667358221220d7994f37a3286e5d8e6a8022f5f9c42bffaa6d1dd506f94eaef7a8b9c65c2ddb64736f6c63430008120033",
					"opcodes": "PUSH1 0x80 PUSH1 0x40 MSTORE PUSH1 0x40 MLOAD DUP1 PUSH1 0x60 ADD PUSH1 0x40 MSTORE DUP1 PUSH1 0x1 PUSH1 0xFF AND DUP2 MSTORE PUSH1 0x20 ADD PUSH1 0x2 PUSH1 0xFF AND DUP2 MSTORE PUSH1 0x20 ADD PUSH1 0x3 PUSH1 0xFF AND DUP2 MSTORE POP PUSH1 0x0 SWAP1 PUSH1 0x3 PUSH2 0x3B SWAP3 SWAP2 SWAP1 PUSH2 0x86 JUMP JUMPDEST POP PUSH1 0x40 MLOAD DUP1 PUSH1 0x60 ADD PUSH1 0x40 MSTORE DUP1 PUSH1 0x1 PUSH1 0xFF AND DUP2 MSTORE PUSH1 0x20 ADD PUSH1 0x2 PUSH1 0xFF AND DUP2 MSTORE PUSH1 0x20 ADD PUSH1 0x3 PUSH1 0xFF AND DUP2 MSTORE POP PUSH1 0x1 SWAP1 PUSH1 0x3 PUSH2 0x73 SWAP3 SWAP2 SWAP1 PUSH2 0x86 JUMP JUMPDEST POP CALLVALUE DUP1 ISZERO PUSH2 0x80 JUMPI PUSH1 0x0 DUP1 REVERT JUMPDEST POP PUSH2 0xF5 JUMP JUMPDEST DUP3 DUP1 SLOAD DUP3 DUP3 SSTORE SWAP1 PUSH1 0x0 MSTORE PUSH1 0x20 PUSH1 0x0 KECCAK256 SWAP1 DUP2 ADD SWAP3 DUP3 ISZERO PUSH2 0xC7 JUMPI SWAP2 PUSH1 0x20 MUL DUP3 ADD JUMPDEST DUP3 DUP2 GT ISZERO PUSH2 0xC6 JUMPI DUP3 MLOAD DUP3 SWAP1 PUSH1 0xFF AND SWAP1 SSTORE SWAP2 PUSH1 0x20 ADD SWAP2 SWAP1 PUSH1 0x1 ADD SWAP1 PUSH2 0xA6 JUMP JUMPDEST JUMPDEST POP SWAP1 POP PUSH2 0xD4 SWAP2 SWAP1 PUSH2 0xD8 JUMP JUMPDEST POP SWAP1 JUMP JUMPDEST JUMPDEST DUP1 DUP3 GT ISZERO PUSH2 0xF1 JUMPI PUSH1 0x0 DUP2 PUSH1 0x0 SWAP1 SSTORE POP PUSH1 0x1 ADD PUSH2 0xD9 JUMP JUMPDEST POP SWAP1 JUMP JUMPDEST PUSH2 0x80E DUP1 PUSH2 0x104 PUSH1 0x0 CODECOPY PUSH1 0x0 RETURN INVALID PUSH1 0x80 PUSH1 0x40 MSTORE CALLVALUE DUP1 ISZERO PUSH2 0x10 JUMPI PUSH1 0x0 DUP1 REVERT JUMPDEST POP PUSH1 0x4 CALLDATASIZE LT PUSH2 0x4C JUMPI PUSH1 0x0 CALLDATALOAD PUSH1 0xE0 SHR DUP1 PUSH4 0x4F2BE91F EQ PUSH2 0x51 JUMPI DUP1 PUSH4 0x62B44CE1 EQ PUSH2 0x5B JUMPI DUP1 PUSH4 0x6C1F222F EQ PUSH2 0x8B JUMPI DUP1 PUSH4 0x859CC7D6 EQ PUSH2 0xAA JUMPI JUMPDEST PUSH1 0x0 DUP1 REVERT JUMPDEST PUSH2 0x59 PUSH2 0xDA JUMP JUMPDEST STOP JUMPDEST PUSH2 0x75 PUSH1 0x4 DUP1 CALLDATASIZE SUB DUP2 ADD SWAP1 PUSH2 0x70 SWAP2 SWAP1 PUSH2 0x583 JUMP JUMPDEST PUSH2 0xF2 JUMP JUMPDEST PUSH1 0x40 MLOAD PUSH2 0x82 SWAP2 SWAP1 PUSH2 0x5BF JUMP JUMPDEST PUSH1 0x40 MLOAD DUP1 SWAP2 SUB SWAP1 RETURN JUMPDEST PUSH2 0x93 PUSH2 0x116 JUMP JUMPDEST PUSH1 0x40 MLOAD PUSH2 0xA1 SWAP3 SWAP2 SWAP1 PUSH2 0x698 JUMP JUMPDEST PUSH1 0x40 MLOAD DUP1 SWAP2 SUB SWAP1 RETURN JUMPDEST PUSH2 0xC4 PUSH1 0x4 DUP1 CALLDATASIZE SUB DUP2 ADD SWAP1 PUSH2 0xBF SWAP2 SWAP1 PUSH2 0x583 JUMP JUMPDEST PUSH2 0x3E6 JUMP JUMPDEST PUSH1 0x40 MLOAD PUSH2 0xD1 SWAP2 SWAP1 PUSH2 0x5BF JUMP JUMPDEST PUSH1 0x40 MLOAD DUP1 SWAP2 SUB SWAP1 RETURN JUMPDEST PUSH2 0xE4 PUSH1 0x0 PUSH2 0x40A JUMP JUMPDEST POP PUSH2 0xEF PUSH1 0x1 PUSH2 0x40A JUMP JUMPDEST POP JUMP JUMPDEST PUSH1 0x0 DUP2 DUP2 SLOAD DUP2 LT PUSH2 0x102 JUMPI PUSH1 0x0 DUP1 REVERT JUMPDEST SWAP1 PUSH1 0x0 MSTORE PUSH1 0x20 PUSH1 0x0 KECCAK256 ADD PUSH1 0x0 SWAP2 POP SWAP1 POP SLOAD DUP2 JUMP JUMPDEST PUSH1 0x60 DUP1 PUSH1 0x0 PUSH1 0x3 PUSH1 0x0 DUP1 SLOAD SWAP1 POP PUSH2 0x12D SWAP2 SWAP1 PUSH2 0x6FE JUMP JUMPDEST PUSH8 0xFFFFFFFFFFFFFFFF DUP2 GT ISZERO PUSH2 0x146 JUMPI PUSH2 0x145 PUSH2 0x732 JUMP JUMPDEST JUMPDEST PUSH1 0x40 MLOAD SWAP1 DUP1 DUP3 MSTORE DUP1 PUSH1 0x20 MUL PUSH1 0x20 ADD DUP3 ADD PUSH1 0x40 MSTORE DUP1 ISZERO PUSH2 0x174 JUMPI DUP2 PUSH1 0x20 ADD PUSH1 0x20 DUP3 MUL DUP1 CALLDATASIZE DUP4 CALLDATACOPY DUP1 DUP3 ADD SWAP2 POP POP SWAP1 POP JUMPDEST POP SWAP1 POP PUSH1 0x0 PUSH1 0x3 PUSH1 0x1 DUP1 SLOAD SWAP1 POP PUSH2 0x18B SWAP2 SWAP1 PUSH2 0x6FE JUMP JUMPDEST PUSH8 0xFFFFFFFFFFFFFFFF DUP2 GT ISZERO PUSH2 0x1A4 JUMPI PUSH2 0x1A3 PUSH2 0x732 JUMP JUMPDEST JUMPDEST PUSH1 0x40 MLOAD SWAP1 DUP1 DUP3 MSTORE DUP1 PUSH1 0x20 MUL PUSH1 0x20 ADD DUP3 ADD PUSH1 0x40 MSTORE DUP1 ISZERO PUSH2 0x1D2 JUMPI DUP2 PUSH1 0x20 ADD PUSH1 0x20 DUP3 MUL DUP1 CALLDATASIZE DUP4 CALLDATACOPY DUP1 DUP3 ADD SWAP2 POP POP SWAP1 POP JUMPDEST POP SWAP1 POP PUSH1 0x0 JUMPDEST PUSH1 0x0 DUP1 SLOAD SWAP1 POP DUP2 LT ISZERO PUSH2 0x236 JUMPI PUSH1 0x0 DUP2 DUP2 SLOAD DUP2 LT PUSH2 0x1F9 JUMPI PUSH2 0x1F8 PUSH2 0x761 JUMP JUMPDEST JUMPDEST SWAP1 PUSH1 0x0 MSTORE PUSH1 0x20 PUSH1 0x0 KECCAK256 ADD SLOAD DUP4 DUP3 DUP2 MLOAD DUP2 LT PUSH2 0x217 JUMPI PUSH2 0x216 PUSH2 0x761 JUMP JUMPDEST JUMPDEST PUSH1 0x20 MUL PUSH1 0x20 ADD ADD DUP2 DUP2 MSTORE POP POP DUP1 DUP1 PUSH2 0x22E SWAP1 PUSH2 0x790 JUMP JUMPDEST SWAP2 POP POP PUSH2 0x1D8 JUMP JUMPDEST POP PUSH1 0x0 JUMPDEST PUSH1 0x1 DUP1 SLOAD SWAP1 POP DUP2 LT ISZERO PUSH2 0x298 JUMPI PUSH1 0x1 DUP2 DUP2 SLOAD DUP2 LT PUSH2 0x25B JUMPI PUSH2 0x25A PUSH2 0x761 JUMP JUMPDEST JUMPDEST SWAP1 PUSH1 0x0 MSTORE PUSH1 0x20 PUSH1 0x0 KECCAK256 ADD SLOAD DUP3 DUP3 DUP2 MLOAD DUP2 LT PUSH2 0x279 JUMPI PUSH2 0x278 PUSH2 0x761 JUMP JUMPDEST JUMPDEST PUSH1 0x20 MUL PUSH1 0x20 ADD ADD DUP2 DUP2 MSTORE POP POP DUP1 DUP1 PUSH2 0x290 SWAP1 PUSH2 0x790 JUMP JUMPDEST SWAP2 POP POP PUSH2 0x23A JUMP JUMPDEST POP PUSH1 0x63 DUP3 PUSH1 0x0 DUP1 SLOAD SWAP1 POP DUP2 MLOAD DUP2 LT PUSH2 0x2B3 JUMPI PUSH2 0x2B2 PUSH2 0x761 JUMP JUMPDEST JUMPDEST PUSH1 0x20 MUL PUSH1 0x20 ADD ADD DUP2 DUP2 MSTORE POP POP PUSH1 0x63 DUP3 PUSH1 0x1 PUSH1 0x0 DUP1 SLOAD SWAP1 POP PUSH2 0x2D4 SWAP2 SWAP1 PUSH2 0x6FE JUMP JUMPDEST DUP2 MLOAD DUP2 LT PUSH2 0x2E5 JUMPI PUSH2 0x2E4 PUSH2 0x761 JUMP JUMPDEST JUMPDEST PUSH1 0x20 MUL PUSH1 0x20 ADD ADD DUP2 DUP2 MSTORE POP POP PUSH1 0x63 DUP3 PUSH1 0x2 PUSH1 0x0 DUP1 SLOAD SWAP1 POP PUSH2 0x306 SWAP2 SWAP1 PUSH2 0x6FE JUMP JUMPDEST DUP2 MLOAD DUP2 LT PUSH2 0x317 JUMPI PUSH2 0x316 PUSH2 0x761 JUMP JUMPDEST JUMPDEST PUSH1 0x20 MUL PUSH1 0x20 ADD ADD DUP2 DUP2 MSTORE POP POP PUSH1 0x63 DUP2 PUSH1 0x1 DUP1 SLOAD SWAP1 POP DUP2 MLOAD DUP2 LT PUSH2 0x33D JUMPI PUSH2 0x33C PUSH2 0x761 JUMP JUMPDEST JUMPDEST PUSH1 0x20 MUL PUSH1 0x20 ADD ADD DUP2 DUP2 MSTORE POP POP PUSH1 0x63 DUP2 PUSH1 0x1 DUP1 DUP1 SLOAD SWAP1 POP PUSH2 0x35D SWAP2 SWAP1 PUSH2 0x6FE JUMP JUMPDEST DUP2 MLOAD DUP2 LT PUSH2 0x36E JUMPI PUSH2 0x36D PUSH2 0x761 JUMP JUMPDEST JUMPDEST PUSH1 0x20 MUL PUSH1 0x20 ADD ADD DUP2 DUP2 MSTORE POP POP PUSH1 0x63 DUP2 PUSH1 0x2 PUSH1 0x1 DUP1 SLOAD SWAP1 POP PUSH2 0x38F SWAP2 SWAP1 PUSH2 0x6FE JUMP JUMPDEST DUP2 MLOAD DUP2 LT PUSH2 0x3A0 JUMPI PUSH2 0x39F PUSH2 0x761 JUMP JUMPDEST JUMPDEST PUSH1 0x20 MUL PUSH1 0x20 ADD ADD DUP2 DUP2 MSTORE POP POP DUP2 PUSH1 0x0 SWAP1 DUP1 MLOAD SWAP1 PUSH1 0x20 ADD SWAP1 PUSH2 0x3C2 SWAP3 SWAP2 SWAP1 PUSH2 0x4DE JUMP JUMPDEST POP DUP1 PUSH1 0x1 SWAP1 DUP1 MLOAD SWAP1 PUSH1 0x20 ADD SWAP1 PUSH2 0x3D9 SWAP3 SWAP2 SWAP1 PUSH2 0x4DE JUMP JUMPDEST POP DUP2 DUP2 SWAP4 POP SWAP4 POP POP POP SWAP1 SWAP2 JUMP JUMPDEST PUSH1 0x1 DUP2 DUP2 SLOAD DUP2 LT PUSH2 0x3F6 JUMPI PUSH1 0x0 DUP1 REVERT JUMPDEST SWAP1 PUSH1 0x0 MSTORE PUSH1 0x20 PUSH1 0x0 KECCAK256 ADD PUSH1 0x0 SWAP2 POP SWAP1 POP SLOAD DUP2 JUMP JUMPDEST PUSH1 0x60 DUP2 PUSH1 0x63 SWAP1 DUP1 PUSH1 0x1 DUP2 SLOAD ADD DUP1 DUP3 SSTORE DUP1 SWAP2 POP POP PUSH1 0x1 SWAP1 SUB SWAP1 PUSH1 0x0 MSTORE PUSH1 0x20 PUSH1 0x0 KECCAK256 ADD PUSH1 0x0 SWAP1 SWAP2 SWAP1 SWAP2 SWAP1 SWAP2 POP SSTORE DUP2 PUSH1 0x63 SWAP1 DUP1 PUSH1 0x1 DUP2 SLOAD ADD DUP1 DUP3 SSTORE DUP1 SWAP2 POP POP PUSH1 0x1 SWAP1 SUB SWAP1 PUSH1 0x0 MSTORE PUSH1 0x20 PUSH1 0x0 KECCAK256 ADD PUSH1 0x0 SWAP1 SWAP2 SWAP1 SWAP2 SWAP1 SWAP2 POP SSTORE DUP2 PUSH1 0x63 SWAP1 DUP1 PUSH1 0x1 DUP2 SLOAD ADD DUP1 DUP3 SSTORE DUP1 SWAP2 POP POP PUSH1 0x1 SWAP1 SUB SWAP1 PUSH1 0x0 MSTORE PUSH1 0x20 PUSH1 0x0 KECCAK256 ADD PUSH1 0x0 SWAP1 SWAP2 SWAP1 SWAP2 SWAP1 SWAP2 POP SSTORE DUP2 DUP1 SLOAD DUP1 PUSH1 0x20 MUL PUSH1 0x20 ADD PUSH1 0x40 MLOAD SWAP1 DUP2 ADD PUSH1 0x40 MSTORE DUP1 SWAP3 SWAP2 SWAP1 DUP2 DUP2 MSTORE PUSH1 0x20 ADD DUP3 DUP1 SLOAD DUP1 ISZERO PUSH2 0x4D2 JUMPI PUSH1 0x20 MUL DUP3 ADD SWAP2 SWAP1 PUSH1 0x0 MSTORE PUSH1 0x20 PUSH1 0x0 KECCAK256 SWAP1 JUMPDEST DUP2 SLOAD DUP2 MSTORE PUSH1 0x20 ADD SWAP1 PUSH1 0x1 ADD SWAP1 DUP1 DUP4 GT PUSH2 0x4BE JUMPI JUMPDEST POP POP POP POP POP SWAP1 POP SWAP2 SWAP1 POP JUMP JUMPDEST DUP3 DUP1 SLOAD DUP3 DUP3 SSTORE SWAP1 PUSH1 0x0 MSTORE PUSH1 0x20 PUSH1 0x0 KECCAK256 SWAP1 DUP2 ADD SWAP3 DUP3 ISZERO PUSH2 0x51A JUMPI SWAP2 PUSH1 0x20 MUL DUP3 ADD JUMPDEST DUP3 DUP2 GT ISZERO PUSH2 0x519 JUMPI DUP3 MLOAD DUP3 SSTORE SWAP2 PUSH1 0x20 ADD SWAP2 SWAP1 PUSH1 0x1 ADD SWAP1 PUSH2 0x4FE JUMP JUMPDEST JUMPDEST POP SWAP1 POP PUSH2 0x527 SWAP2 SWAP1 PUSH2 0x52B JUMP JUMPDEST POP SWAP1 JUMP JUMPDEST JUMPDEST DUP1 DUP3 GT ISZERO PUSH2 0x544 JUMPI PUSH1 0x0 DUP2 PUSH1 0x0 SWAP1 SSTORE POP PUSH1 0x1 ADD PUSH2 0x52C JUMP JUMPDEST POP SWAP1 JUMP JUMPDEST PUSH1 0x0 DUP1 REVERT JUMPDEST PUSH1 0x0 DUP2 SWAP1 POP SWAP2 SWAP1 POP JUMP JUMPDEST PUSH2 0x560 DUP2 PUSH2 0x54D JUMP JUMPDEST DUP2 EQ PUSH2 0x56B JUMPI PUSH1 0x0 DUP1 REVERT JUMPDEST POP JUMP JUMPDEST PUSH1 0x0 DUP2 CALLDATALOAD SWAP1 POP PUSH2 0x57D DUP2 PUSH2 0x557 JUMP JUMPDEST SWAP3 SWAP2 POP POP JUMP JUMPDEST PUSH1 0x0 PUSH1 0x20 DUP3 DUP5 SUB SLT ISZERO PUSH2 0x599 JUMPI PUSH2 0x598 PUSH2 0x548 JUMP JUMPDEST JUMPDEST PUSH1 0x0 PUSH2 0x5A7 DUP5 DUP3 DUP6 ADD PUSH2 0x56E JUMP JUMPDEST SWAP2 POP POP SWAP3 SWAP2 POP POP JUMP JUMPDEST PUSH2 0x5B9 DUP2 PUSH2 0x54D JUMP JUMPDEST DUP3 MSTORE POP POP JUMP JUMPDEST PUSH1 0x0 PUSH1 0x20 DUP3 ADD SWAP1 POP PUSH2 0x5D4 PUSH1 0x0 DUP4 ADD DUP5 PUSH2 0x5B0 JUMP JUMPDEST SWAP3 SWAP2 POP POP JUMP JUMPDEST PUSH1 0x0 DUP2 MLOAD SWAP1 POP SWAP2 SWAP1 POP JUMP JUMPDEST PUSH1 0x0 DUP3 DUP3 MSTORE PUSH1 0x20 DUP3 ADD SWAP1 POP SWAP3 SWAP2 POP POP JUMP JUMPDEST PUSH1 0x0 DUP2 SWAP1 POP PUSH1 0x20 DUP3 ADD SWAP1 POP SWAP2 SWAP1 POP JUMP JUMPDEST PUSH2 0x60F DUP2 PUSH2 0x54D JUMP JUMPDEST DUP3 MSTORE POP POP JUMP JUMPDEST PUSH1 0x0 PUSH2 0x621 DUP4 DUP4 PUSH2 0x606 JUMP JUMPDEST PUSH1 0x20 DUP4 ADD SWAP1 POP SWAP3 SWAP2 POP POP JUMP JUMPDEST PUSH1 0x0 PUSH1 0x20 DUP3 ADD SWAP1 POP SWAP2 SWAP1 POP JUMP JUMPDEST PUSH1 0x0 PUSH2 0x645 DUP3 PUSH2 0x5DA JUMP JUMPDEST PUSH2 0x64F DUP2 DUP6 PUSH2 0x5E5 JUMP JUMPDEST SWAP4 POP PUSH2 0x65A DUP4 PUSH2 0x5F6 JUMP JUMPDEST DUP1 PUSH1 0x0 JUMPDEST DUP4 DUP2 LT ISZERO PUSH2 0x68B JUMPI DUP2 MLOAD PUSH2 0x672 DUP9 DUP3 PUSH2 0x615 JUMP JUMPDEST SWAP8 POP PUSH2 0x67D DUP4 PUSH2 0x62D JUMP JUMPDEST SWAP3 POP POP PUSH1 0x1 DUP2 ADD SWAP1 POP PUSH2 0x65E JUMP JUMPDEST POP DUP6 SWAP4 POP POP POP POP SWAP3 SWAP2 POP POP JUMP JUMPDEST PUSH1 0x0 PUSH1 0x40 DUP3 ADD SWAP1 POP DUP2 DUP2 SUB PUSH1 0x0 DUP4 ADD MSTORE PUSH2 0x6B2 DUP2 DUP6 PUSH2 0x63A JUMP JUMPDEST SWAP1 POP DUP2 DUP2 SUB PUSH1 0x20 DUP4 ADD MSTORE PUSH2 0x6C6 DUP2 DUP5 PUSH2 0x63A JUMP JUMPDEST SWAP1 POP SWAP4 SWAP3 POP POP POP JUMP JUMPDEST PUSH32 0x4E487B7100000000000000000000000000000000000000000000000000000000 PUSH1 0x0 MSTORE PUSH1 0x11 PUSH1 0x4 MSTORE PUSH1 0x24 PUSH1 0x0 REVERT JUMPDEST PUSH1 0x0 PUSH2 0x709 DUP3 PUSH2 0x54D JUMP JUMPDEST SWAP2 POP PUSH2 0x714 DUP4 PUSH2 0x54D JUMP JUMPDEST SWAP3 POP DUP3 DUP3 ADD SWAP1 POP DUP1 DUP3 GT ISZERO PUSH2 0x72C JUMPI PUSH2 0x72B PUSH2 0x6CF JUMP JUMPDEST JUMPDEST SWAP3 SWAP2 POP POP JUMP JUMPDEST PUSH32 0x4E487B7100000000000000000000000000000000000000000000000000000000 PUSH1 0x0 MSTORE PUSH1 0x41 PUSH1 0x4 MSTORE PUSH1 0x24 PUSH1 0x0 REVERT JUMPDEST PUSH32 0x4E487B7100000000000000000000000000000000000000000000000000000000 PUSH1 0x0 MSTORE PUSH1 0x32 PUSH1 0x4 MSTORE PUSH1 0x24 PUSH1 0x0 REVERT JUMPDEST PUSH1 0x0 PUSH2 0x79B DUP3 PUSH2 0x54D JUMP JUMPDEST SWAP2 POP PUSH32 0xFFFFFFFFFFFFFFFFFFFFFFFFFFFFFFFFFFFFFFFFFFFFFFFFFFFFFFFFFFFFFFFF DUP3 SUB PUSH2 0x7CD JUMPI PUSH2 0x7CC PUSH2 0x6CF JUMP JUMPDEST JUMPDEST PUSH1 0x1 DUP3 ADD SWAP1 POP SWAP2 SWAP1 POP JUMP INVALID LOG2 PUSH5 0x6970667358 0x22 SLT KECCAK256 0xD7 SWAP10 0x4F CALLDATACOPY LOG3 0x28 PUSH15 0x5D8E6A8022F5F9C42BFFAA6D1DD506 0xF9 0x4E 0xAE 0xF7 0xA8 0xB9 0xC6 0x5C 0x2D 0xDB PUSH5 0x736F6C6343 STOP ADDMOD SLT STOP CALLER "
				},
				"gasEstimates": {
					"creation": {
						"codeDepositCost": "412400",
						"executionCost": "infinite",
						"totalCost": "infinite"
					},
					"external": {
						"add()": "infinite",
						"add2()": "infinite",
						"numbers1(uint256)": "infinite",
						"numbers2(uint256)": "infinite"
					},
					"internal": {
						"_push99(uint256[] storage pointer)": "infinite"
					}
				},
				"methodIdentifiers": {
					"add()": "4f2be91f",
					"add2()": "6c1f222f",
					"numbers1(uint256)": "62b44ce1",
					"numbers2(uint256)": "859cc7d6"
				}
			},
			"storageLayout": {
				"storage": [
					{
						"astId": 8,
						"contract": "Textbook/Chapter5/arrayParam.sol:Ex5_11",
						"label": "numbers1",
						"offset": 0,
						"slot": "0",
						"type": "t_array(t_uint256)dyn_storage"
					},
					{
						"astId": 15,
						"contract": "Textbook/Chapter5/arrayParam.sol:Ex5_11",
						"label": "numbers2",
						"offset": 0,
						"slot": "1",
						"type": "t_array(t_uint256)dyn_storage"
					}
				],
				"types": {
					"t_array(t_uint256)dyn_storage": {
						"base": "t_uint256",
						"encoding": "dynamic_array",
						"label": "uint256[]",
						"numberOfBytes": "32"
					},
					"t_uint256": {
						"encoding": "inplace",
						"label": "uint256",
						"numberOfBytes": "32"
					}
				}
			},
			"userdoc": {
				"kind": "user",
				"methods": {},
				"version": 1
			}
		}
	}
}