{
	"Textbook/Chapter5/quiz3.sol": {
		"quiz3": {
			"abi": [
				{
					"inputs": [
						{
							"internalType": "uint256",
							"name": "",
							"type": "uint256"
						}
					],
					"name": "openMarket",
					"outputs": [
						{
							"internalType": "string",
							"name": "itemName",
							"type": "string"
						},
						{
							"internalType": "uint256",
							"name": "price",
							"type": "uint256"
						}
					],
					"stateMutability": "view",
					"type": "function"
				},
				{
					"inputs": [
						{
							"internalType": "string",
							"name": "item",
							"type": "string"
						}
					],
					"name": "search",
					"outputs": [
						{
							"internalType": "uint256",
							"name": "",
							"type": "uint256"
						}
					],
					"stateMutability": "view",
					"type": "function"
				},
				{
					"inputs": [
						{
							"internalType": "string",
							"name": "item",
							"type": "string"
						},
						{
							"internalType": "uint256",
							"name": "_price",
							"type": "uint256"
						}
					],
					"name": "sell",
					"outputs": [],
					"stateMutability": "nonpayable",
					"type": "function"
				}
			],
			"devdoc": {
				"kind": "dev",
				"methods": {},
				"version": 1
			},
			"evm": {
				"assembly": "    /* \"Textbook/Chapter5/quiz3.sol\":57:684  contract quiz3 {... */\n  mstore(0x40, 0x80)\n  callvalue\n  dup1\n  iszero\n  tag_1\n  jumpi\n  0x00\n  dup1\n  revert\ntag_1:\n  pop\n  dataSize(sub_0)\n  dup1\n  dataOffset(sub_0)\n  0x00\n  codecopy\n  0x00\n  return\nstop\n\nsub_0: assembly {\n        /* \"Textbook/Chapter5/quiz3.sol\":57:684  contract quiz3 {... */\n      mstore(0x40, 0x80)\n      callvalue\n      dup1\n      iszero\n      tag_1\n      jumpi\n      0x00\n      dup1\n      revert\n    tag_1:\n      pop\n      jumpi(tag_2, lt(calldatasize, 0x04))\n      shr(0xe0, calldataload(0x00))\n      dup1\n      0x820ed086\n      eq\n      tag_3\n      jumpi\n      dup1\n      0x9f656321\n      eq\n      tag_4\n      jumpi\n      dup1\n      0xbaa26757\n      eq\n      tag_5\n      jumpi\n    tag_2:\n      0x00\n      dup1\n      revert\n        /* \"Textbook/Chapter5/quiz3.sol\":319:681  function search(string memory item) ... */\n    tag_3:\n      tag_6\n      0x04\n      dup1\n      calldatasize\n      sub\n      dup2\n      add\n      swap1\n      tag_7\n      swap2\n      swap1\n      tag_8\n      jump\t// in\n    tag_7:\n      tag_9\n      jump\t// in\n    tag_6:\n      mload(0x40)\n      tag_10\n      swap2\n      swap1\n      tag_11\n      jump\t// in\n    tag_10:\n      mload(0x40)\n      dup1\n      swap2\n      sub\n      swap1\n      return\n        /* \"Textbook/Chapter5/quiz3.sol\":185:309  function sell(string memory item, uint _price)... */\n    tag_4:\n      tag_12\n      0x04\n      dup1\n      calldatasize\n      sub\n      dup2\n      add\n      swap1\n      tag_13\n      swap2\n      swap1\n      tag_14\n      jump\t// in\n    tag_13:\n      tag_15\n      jump\t// in\n    tag_12:\n      stop\n        /* \"Textbook/Chapter5/quiz3.sol\":151:178  Market [] public openMarket */\n    tag_5:\n      tag_16\n      0x04\n      dup1\n      calldatasize\n      sub\n      dup2\n      add\n      swap1\n      tag_17\n      swap2\n      swap1\n      tag_18\n      jump\t// in\n    tag_17:\n      tag_19\n      jump\t// in\n    tag_16:\n      mload(0x40)\n      tag_20\n      swap3\n      swap2\n      swap1\n      tag_21\n      jump\t// in\n    tag_20:\n      mload(0x40)\n      dup1\n      swap2\n      sub\n      swap1\n      return\n        /* \"Textbook/Chapter5/quiz3.sol\":319:681  function search(string memory item) ... */\n    tag_9:\n        /* \"Textbook/Chapter5/quiz3.sol\":402:406  uint */\n      0x00\n        /* \"Textbook/Chapter5/quiz3.sol\":427:435  uint idx */\n      dup1\n        /* \"Textbook/Chapter5/quiz3.sol\":438:439  0 */\n      0x00\n        /* \"Textbook/Chapter5/quiz3.sol\":427:439  uint idx = 0 */\n      swap1\n      pop\n        /* \"Textbook/Chapter5/quiz3.sol\":422:648  for (uint idx = 0; idx < openMarket.length; ++idx) {... */\n    tag_23:\n        /* \"Textbook/Chapter5/quiz3.sol\":447:457  openMarket */\n      0x00\n        /* \"Textbook/Chapter5/quiz3.sol\":447:464  openMarket.length */\n      dup1\n      sload\n      swap1\n      pop\n        /* \"Textbook/Chapter5/quiz3.sol\":441:444  idx */\n      dup2\n        /* \"Textbook/Chapter5/quiz3.sol\":441:464  idx < openMarket.length */\n      lt\n        /* \"Textbook/Chapter5/quiz3.sol\":422:648  for (uint idx = 0; idx < openMarket.length; ++idx) {... */\n      iszero\n      tag_24\n      jumpi\n        /* \"Textbook/Chapter5/quiz3.sol\":557:561  item */\n      dup3\n        /* \"Textbook/Chapter5/quiz3.sol\":541:563  keccak256(bytes(item)) */\n      dup1\n      mload\n      swap1\n      0x20\n      add\n      keccak256\n        /* \"Textbook/Chapter5/quiz3.sol\":511:521  openMarket */\n      0x00\n        /* \"Textbook/Chapter5/quiz3.sol\":522:525  idx */\n      dup3\n        /* \"Textbook/Chapter5/quiz3.sol\":511:526  openMarket[idx] */\n      dup2\n      sload\n      dup2\n      lt\n      tag_26\n      jumpi\n      tag_27\n      tag_28\n      jump\t// in\n    tag_27:\n    tag_26:\n      swap1\n      0x00\n      mstore\n      keccak256(0x00, 0x20)\n      swap1\n      0x02\n      mul\n      add\n        /* \"Textbook/Chapter5/quiz3.sol\":511:535  openMarket[idx].itemName */\n      0x00\n      add\n        /* \"Textbook/Chapter5/quiz3.sol\":495:537  keccak256(bytes(openMarket[idx].itemName)) */\n      mload(0x40)\n      tag_30\n      swap2\n      swap1\n      tag_31\n      jump\t// in\n    tag_30:\n      mload(0x40)\n      dup1\n      swap2\n      sub\n      swap1\n      keccak256\n        /* \"Textbook/Chapter5/quiz3.sol\":495:563  keccak256(bytes(openMarket[idx].itemName)) == keccak256(bytes(item)) */\n      sub\n        /* \"Textbook/Chapter5/quiz3.sol\":491:634  if (keccak256(bytes(openMarket[idx].itemName)) == keccak256(bytes(item))) {... */\n      tag_32\n      jumpi\n        /* \"Textbook/Chapter5/quiz3.sol\":594:604  openMarket */\n      0x00\n        /* \"Textbook/Chapter5/quiz3.sol\":605:608  idx */\n      dup2\n        /* \"Textbook/Chapter5/quiz3.sol\":594:609  openMarket[idx] */\n      dup2\n      sload\n      dup2\n      lt\n      tag_33\n      jumpi\n      tag_34\n      tag_28\n      jump\t// in\n    tag_34:\n    tag_33:\n      swap1\n      0x00\n      mstore\n      keccak256(0x00, 0x20)\n      swap1\n      0x02\n      mul\n      add\n        /* \"Textbook/Chapter5/quiz3.sol\":594:615  openMarket[idx].price */\n      0x01\n      add\n      sload\n        /* \"Textbook/Chapter5/quiz3.sol\":587:615  return openMarket[idx].price */\n      swap2\n      pop\n      pop\n      jump(tag_22)\n        /* \"Textbook/Chapter5/quiz3.sol\":491:634  if (keccak256(bytes(openMarket[idx].itemName)) == keccak256(bytes(item))) {... */\n    tag_32:\n        /* \"Textbook/Chapter5/quiz3.sol\":466:471  ++idx */\n      dup1\n      tag_36\n      swap1\n      tag_37\n      jump\t// in\n    tag_36:\n      swap1\n      pop\n        /* \"Textbook/Chapter5/quiz3.sol\":422:648  for (uint idx = 0; idx < openMarket.length; ++idx) {... */\n      jump(tag_23)\n    tag_24:\n      pop\n        /* \"Textbook/Chapter5/quiz3.sol\":669:670  0 */\n      0x00\n        /* \"Textbook/Chapter5/quiz3.sol\":662:670  return 0 */\n      swap1\n      pop\n        /* \"Textbook/Chapter5/quiz3.sol\":319:681  function search(string memory item) ... */\n    tag_22:\n      swap2\n      swap1\n      pop\n      jump\t// out\n        /* \"Textbook/Chapter5/quiz3.sol\":185:309  function sell(string memory item, uint _price)... */\n    tag_15:\n        /* \"Textbook/Chapter5/quiz3.sol\":261:271  openMarket */\n      0x00\n        /* \"Textbook/Chapter5/quiz3.sol\":277:297  Market(item, _price) */\n      mload(0x40)\n      dup1\n      0x40\n      add\n      0x40\n      mstore\n      dup1\n        /* \"Textbook/Chapter5/quiz3.sol\":284:288  item */\n      dup5\n        /* \"Textbook/Chapter5/quiz3.sol\":277:297  Market(item, _price) */\n      dup2\n      mstore\n      0x20\n      add\n        /* \"Textbook/Chapter5/quiz3.sol\":290:296  _price */\n      dup4\n        /* \"Textbook/Chapter5/quiz3.sol\":277:297  Market(item, _price) */\n      dup2\n      mstore\n      pop\n        /* \"Textbook/Chapter5/quiz3.sol\":261:298  openMarket.push(Market(item, _price)) */\n      swap1\n      dup1\n      0x01\n      dup2\n      sload\n      add\n      dup1\n      dup3\n      sstore\n      dup1\n      swap2\n      pop\n      pop\n      0x01\n      swap1\n      sub\n      swap1\n      0x00\n      mstore\n      keccak256(0x00, 0x20)\n      swap1\n      0x02\n      mul\n      add\n      0x00\n      swap1\n      swap2\n      swap1\n      swap2\n      swap1\n      swap2\n      pop\n      0x00\n      dup3\n      add\n      mload\n      dup2\n      0x00\n      add\n      swap1\n      dup2\n      tag_40\n      swap2\n      swap1\n      tag_41\n      jump\t// in\n    tag_40:\n      pop\n      0x20\n      dup3\n      add\n      mload\n      dup2\n      0x01\n      add\n      sstore\n      pop\n      pop\n        /* \"Textbook/Chapter5/quiz3.sol\":185:309  function sell(string memory item, uint _price)... */\n      pop\n      pop\n      jump\t// out\n        /* \"Textbook/Chapter5/quiz3.sol\":151:178  Market [] public openMarket */\n    tag_19:\n      0x00\n      dup2\n      dup2\n      sload\n      dup2\n      lt\n      tag_42\n      jumpi\n      0x00\n      dup1\n      revert\n    tag_42:\n      swap1\n      0x00\n      mstore\n      keccak256(0x00, 0x20)\n      swap1\n      0x02\n      mul\n      add\n      0x00\n      swap2\n      pop\n      swap1\n      pop\n      dup1\n      0x00\n      add\n      dup1\n      sload\n      tag_44\n      swap1\n      tag_45\n      jump\t// in\n    tag_44:\n      dup1\n      0x1f\n      add\n      0x20\n      dup1\n      swap2\n      div\n      mul\n      0x20\n      add\n      mload(0x40)\n      swap1\n      dup2\n      add\n      0x40\n      mstore\n      dup1\n      swap3\n      swap2\n      swap1\n      dup2\n      dup2\n      mstore\n      0x20\n      add\n      dup3\n      dup1\n      sload\n      tag_46\n      swap1\n      tag_45\n      jump\t// in\n    tag_46:\n      dup1\n      iszero\n      tag_47\n      jumpi\n      dup1\n      0x1f\n      lt\n      tag_48\n      jumpi\n      0x0100\n      dup1\n      dup4\n      sload\n      div\n      mul\n      dup4\n      mstore\n      swap2\n      0x20\n      add\n      swap2\n      jump(tag_47)\n    tag_48:\n      dup3\n      add\n      swap2\n      swap1\n      0x00\n      mstore\n      keccak256(0x00, 0x20)\n      swap1\n    tag_49:\n      dup2\n      sload\n      dup2\n      mstore\n      swap1\n      0x01\n      add\n      swap1\n      0x20\n      add\n      dup1\n      dup4\n      gt\n      tag_49\n      jumpi\n      dup3\n      swap1\n      sub\n      0x1f\n      and\n      dup3\n      add\n      swap2\n    tag_47:\n      pop\n      pop\n      pop\n      pop\n      pop\n      swap1\n      dup1\n      0x01\n      add\n      sload\n      swap1\n      pop\n      dup3\n      jump\t// out\n        /* \"#utility.yul\":7:82   */\n    tag_50:\n        /* \"#utility.yul\":40:46   */\n      0x00\n        /* \"#utility.yul\":73:75   */\n      0x40\n        /* \"#utility.yul\":67:76   */\n      mload\n        /* \"#utility.yul\":57:76   */\n      swap1\n      pop\n        /* \"#utility.yul\":7:82   */\n      swap1\n      jump\t// out\n        /* \"#utility.yul\":88:205   */\n    tag_51:\n        /* \"#utility.yul\":197:198   */\n      0x00\n        /* \"#utility.yul\":194:195   */\n      dup1\n        /* \"#utility.yul\":187:199   */\n      revert\n        /* \"#utility.yul\":211:328   */\n    tag_52:\n        /* \"#utility.yul\":320:321   */\n      0x00\n        /* \"#utility.yul\":317:318   */\n      dup1\n        /* \"#utility.yul\":310:322   */\n      revert\n        /* \"#utility.yul\":334:451   */\n    tag_53:\n        /* \"#utility.yul\":443:444   */\n      0x00\n        /* \"#utility.yul\":440:441   */\n      dup1\n        /* \"#utility.yul\":433:445   */\n      revert\n        /* \"#utility.yul\":457:574   */\n    tag_54:\n        /* \"#utility.yul\":566:567   */\n      0x00\n        /* \"#utility.yul\":563:564   */\n      dup1\n        /* \"#utility.yul\":556:568   */\n      revert\n        /* \"#utility.yul\":580:682   */\n    tag_55:\n        /* \"#utility.yul\":621:627   */\n      0x00\n        /* \"#utility.yul\":672:674   */\n      0x1f\n        /* \"#utility.yul\":668:675   */\n      not\n        /* \"#utility.yul\":663:665   */\n      0x1f\n        /* \"#utility.yul\":656:661   */\n      dup4\n        /* \"#utility.yul\":652:666   */\n      add\n        /* \"#utility.yul\":648:676   */\n      and\n        /* \"#utility.yul\":638:676   */\n      swap1\n      pop\n        /* \"#utility.yul\":580:682   */\n      swap2\n      swap1\n      pop\n      jump\t// out\n        /* \"#utility.yul\":688:868   */\n    tag_56:\n        /* \"#utility.yul\":736:813   */\n      0x4e487b7100000000000000000000000000000000000000000000000000000000\n        /* \"#utility.yul\":733:734   */\n      0x00\n        /* \"#utility.yul\":726:814   */\n      mstore\n        /* \"#utility.yul\":833:837   */\n      0x41\n        /* \"#utility.yul\":830:831   */\n      0x04\n        /* \"#utility.yul\":823:838   */\n      mstore\n        /* \"#utility.yul\":857:861   */\n      0x24\n        /* \"#utility.yul\":854:855   */\n      0x00\n        /* \"#utility.yul\":847:862   */\n      revert\n        /* \"#utility.yul\":874:1155   */\n    tag_57:\n        /* \"#utility.yul\":957:984   */\n      tag_100\n        /* \"#utility.yul\":979:983   */\n      dup3\n        /* \"#utility.yul\":957:984   */\n      tag_55\n      jump\t// in\n    tag_100:\n        /* \"#utility.yul\":949:955   */\n      dup2\n        /* \"#utility.yul\":945:985   */\n      add\n        /* \"#utility.yul\":1087:1093   */\n      dup2\n        /* \"#utility.yul\":1075:1085   */\n      dup2\n        /* \"#utility.yul\":1072:1094   */\n      lt\n        /* \"#utility.yul\":1051:1069   */\n      0xffffffffffffffff\n        /* \"#utility.yul\":1039:1049   */\n      dup3\n        /* \"#utility.yul\":1036:1070   */\n      gt\n        /* \"#utility.yul\":1033:1095   */\n      or\n        /* \"#utility.yul\":1030:1118   */\n      iszero\n      tag_101\n      jumpi\n        /* \"#utility.yul\":1098:1116   */\n      tag_102\n      tag_56\n      jump\t// in\n    tag_102:\n        /* \"#utility.yul\":1030:1118   */\n    tag_101:\n        /* \"#utility.yul\":1138:1148   */\n      dup1\n        /* \"#utility.yul\":1134:1136   */\n      0x40\n        /* \"#utility.yul\":1127:1149   */\n      mstore\n        /* \"#utility.yul\":917:1155   */\n      pop\n        /* \"#utility.yul\":874:1155   */\n      pop\n      pop\n      jump\t// out\n        /* \"#utility.yul\":1161:1290   */\n    tag_58:\n        /* \"#utility.yul\":1195:1201   */\n      0x00\n        /* \"#utility.yul\":1222:1242   */\n      tag_104\n      tag_50\n      jump\t// in\n    tag_104:\n        /* \"#utility.yul\":1212:1242   */\n      swap1\n      pop\n        /* \"#utility.yul\":1251:1284   */\n      tag_105\n        /* \"#utility.yul\":1279:1283   */\n      dup3\n        /* \"#utility.yul\":1271:1277   */\n      dup3\n        /* \"#utility.yul\":1251:1284   */\n      tag_57\n      jump\t// in\n    tag_105:\n        /* \"#utility.yul\":1161:1290   */\n      swap2\n      swap1\n      pop\n      jump\t// out\n        /* \"#utility.yul\":1296:1604   */\n    tag_59:\n        /* \"#utility.yul\":1358:1362   */\n      0x00\n        /* \"#utility.yul\":1448:1466   */\n      0xffffffffffffffff\n        /* \"#utility.yul\":1440:1446   */\n      dup3\n        /* \"#utility.yul\":1437:1467   */\n      gt\n        /* \"#utility.yul\":1434:1490   */\n      iszero\n      tag_107\n      jumpi\n        /* \"#utility.yul\":1470:1488   */\n      tag_108\n      tag_56\n      jump\t// in\n    tag_108:\n        /* \"#utility.yul\":1434:1490   */\n    tag_107:\n        /* \"#utility.yul\":1508:1537   */\n      tag_109\n        /* \"#utility.yul\":1530:1536   */\n      dup3\n        /* \"#utility.yul\":1508:1537   */\n      tag_55\n      jump\t// in\n    tag_109:\n        /* \"#utility.yul\":1500:1537   */\n      swap1\n      pop\n        /* \"#utility.yul\":1592:1596   */\n      0x20\n        /* \"#utility.yul\":1586:1590   */\n      dup2\n        /* \"#utility.yul\":1582:1597   */\n      add\n        /* \"#utility.yul\":1574:1597   */\n      swap1\n      pop\n        /* \"#utility.yul\":1296:1604   */\n      swap2\n      swap1\n      pop\n      jump\t// out\n        /* \"#utility.yul\":1610:1756   */\n    tag_60:\n        /* \"#utility.yul\":1707:1713   */\n      dup3\n        /* \"#utility.yul\":1702:1705   */\n      dup2\n        /* \"#utility.yul\":1697:1700   */\n      dup4\n        /* \"#utility.yul\":1684:1714   */\n      calldatacopy\n        /* \"#utility.yul\":1748:1749   */\n      0x00\n        /* \"#utility.yul\":1739:1745   */\n      dup4\n        /* \"#utility.yul\":1734:1737   */\n      dup4\n        /* \"#utility.yul\":1730:1746   */\n      add\n        /* \"#utility.yul\":1723:1750   */\n      mstore\n        /* \"#utility.yul\":1610:1756   */\n      pop\n      pop\n      pop\n      jump\t// out\n        /* \"#utility.yul\":1762:2187   */\n    tag_61:\n        /* \"#utility.yul\":1840:1845   */\n      0x00\n        /* \"#utility.yul\":1865:1931   */\n      tag_112\n        /* \"#utility.yul\":1881:1930   */\n      tag_113\n        /* \"#utility.yul\":1923:1929   */\n      dup5\n        /* \"#utility.yul\":1881:1930   */\n      tag_59\n      jump\t// in\n    tag_113:\n        /* \"#utility.yul\":1865:1931   */\n      tag_58\n      jump\t// in\n    tag_112:\n        /* \"#utility.yul\":1856:1931   */\n      swap1\n      pop\n        /* \"#utility.yul\":1954:1960   */\n      dup3\n        /* \"#utility.yul\":1947:1952   */\n      dup2\n        /* \"#utility.yul\":1940:1961   */\n      mstore\n        /* \"#utility.yul\":1992:1996   */\n      0x20\n        /* \"#utility.yul\":1985:1990   */\n      dup2\n        /* \"#utility.yul\":1981:1997   */\n      add\n        /* \"#utility.yul\":2030:2033   */\n      dup5\n        /* \"#utility.yul\":2021:2027   */\n      dup5\n        /* \"#utility.yul\":2016:2019   */\n      dup5\n        /* \"#utility.yul\":2012:2028   */\n      add\n        /* \"#utility.yul\":2009:2034   */\n      gt\n        /* \"#utility.yul\":2006:2118   */\n      iszero\n      tag_114\n      jumpi\n        /* \"#utility.yul\":2037:2116   */\n      tag_115\n      tag_54\n      jump\t// in\n    tag_115:\n        /* \"#utility.yul\":2006:2118   */\n    tag_114:\n        /* \"#utility.yul\":2127:2181   */\n      tag_116\n        /* \"#utility.yul\":2174:2180   */\n      dup5\n        /* \"#utility.yul\":2169:2172   */\n      dup3\n        /* \"#utility.yul\":2164:2167   */\n      dup6\n        /* \"#utility.yul\":2127:2181   */\n      tag_60\n      jump\t// in\n    tag_116:\n        /* \"#utility.yul\":1846:2187   */\n      pop\n        /* \"#utility.yul\":1762:2187   */\n      swap4\n      swap3\n      pop\n      pop\n      pop\n      jump\t// out\n        /* \"#utility.yul\":2207:2547   */\n    tag_62:\n        /* \"#utility.yul\":2263:2268   */\n      0x00\n        /* \"#utility.yul\":2312:2315   */\n      dup3\n        /* \"#utility.yul\":2305:2309   */\n      0x1f\n        /* \"#utility.yul\":2297:2303   */\n      dup4\n        /* \"#utility.yul\":2293:2310   */\n      add\n        /* \"#utility.yul\":2289:2316   */\n      slt\n        /* \"#utility.yul\":2279:2401   */\n      tag_118\n      jumpi\n        /* \"#utility.yul\":2320:2399   */\n      tag_119\n      tag_53\n      jump\t// in\n    tag_119:\n        /* \"#utility.yul\":2279:2401   */\n    tag_118:\n        /* \"#utility.yul\":2437:2443   */\n      dup2\n        /* \"#utility.yul\":2424:2444   */\n      calldataload\n        /* \"#utility.yul\":2462:2541   */\n      tag_120\n        /* \"#utility.yul\":2537:2540   */\n      dup5\n        /* \"#utility.yul\":2529:2535   */\n      dup3\n        /* \"#utility.yul\":2522:2526   */\n      0x20\n        /* \"#utility.yul\":2514:2520   */\n      dup7\n        /* \"#utility.yul\":2510:2527   */\n      add\n        /* \"#utility.yul\":2462:2541   */\n      tag_61\n      jump\t// in\n    tag_120:\n        /* \"#utility.yul\":2453:2541   */\n      swap2\n      pop\n        /* \"#utility.yul\":2269:2547   */\n      pop\n        /* \"#utility.yul\":2207:2547   */\n      swap3\n      swap2\n      pop\n      pop\n      jump\t// out\n        /* \"#utility.yul\":2553:3062   */\n    tag_8:\n        /* \"#utility.yul\":2622:2628   */\n      0x00\n        /* \"#utility.yul\":2671:2673   */\n      0x20\n        /* \"#utility.yul\":2659:2668   */\n      dup3\n        /* \"#utility.yul\":2650:2657   */\n      dup5\n        /* \"#utility.yul\":2646:2669   */\n      sub\n        /* \"#utility.yul\":2642:2674   */\n      slt\n        /* \"#utility.yul\":2639:2758   */\n      iszero\n      tag_122\n      jumpi\n        /* \"#utility.yul\":2677:2756   */\n      tag_123\n      tag_51\n      jump\t// in\n    tag_123:\n        /* \"#utility.yul\":2639:2758   */\n    tag_122:\n        /* \"#utility.yul\":2825:2826   */\n      0x00\n        /* \"#utility.yul\":2814:2823   */\n      dup3\n        /* \"#utility.yul\":2810:2827   */\n      add\n        /* \"#utility.yul\":2797:2828   */\n      calldataload\n        /* \"#utility.yul\":2855:2873   */\n      0xffffffffffffffff\n        /* \"#utility.yul\":2847:2853   */\n      dup2\n        /* \"#utility.yul\":2844:2874   */\n      gt\n        /* \"#utility.yul\":2841:2958   */\n      iszero\n      tag_124\n      jumpi\n        /* \"#utility.yul\":2877:2956   */\n      tag_125\n      tag_52\n      jump\t// in\n    tag_125:\n        /* \"#utility.yul\":2841:2958   */\n    tag_124:\n        /* \"#utility.yul\":2982:3045   */\n      tag_126\n        /* \"#utility.yul\":3037:3044   */\n      dup5\n        /* \"#utility.yul\":3028:3034   */\n      dup3\n        /* \"#utility.yul\":3017:3026   */\n      dup6\n        /* \"#utility.yul\":3013:3035   */\n      add\n        /* \"#utility.yul\":2982:3045   */\n      tag_62\n      jump\t// in\n    tag_126:\n        /* \"#utility.yul\":2972:3045   */\n      swap2\n      pop\n        /* \"#utility.yul\":2768:3055   */\n      pop\n        /* \"#utility.yul\":2553:3062   */\n      swap3\n      swap2\n      pop\n      pop\n      jump\t// out\n        /* \"#utility.yul\":3068:3145   */\n    tag_63:\n        /* \"#utility.yul\":3105:3112   */\n      0x00\n        /* \"#utility.yul\":3134:3139   */\n      dup2\n        /* \"#utility.yul\":3123:3139   */\n      swap1\n      pop\n        /* \"#utility.yul\":3068:3145   */\n      swap2\n      swap1\n      pop\n      jump\t// out\n        /* \"#utility.yul\":3151:3269   */\n    tag_64:\n        /* \"#utility.yul\":3238:3262   */\n      tag_129\n        /* \"#utility.yul\":3256:3261   */\n      dup2\n        /* \"#utility.yul\":3238:3262   */\n      tag_63\n      jump\t// in\n    tag_129:\n        /* \"#utility.yul\":3233:3236   */\n      dup3\n        /* \"#utility.yul\":3226:3263   */\n      mstore\n        /* \"#utility.yul\":3151:3269   */\n      pop\n      pop\n      jump\t// out\n        /* \"#utility.yul\":3275:3497   */\n    tag_11:\n        /* \"#utility.yul\":3368:3372   */\n      0x00\n        /* \"#utility.yul\":3406:3408   */\n      0x20\n        /* \"#utility.yul\":3395:3404   */\n      dup3\n        /* \"#utility.yul\":3391:3409   */\n      add\n        /* \"#utility.yul\":3383:3409   */\n      swap1\n      pop\n        /* \"#utility.yul\":3419:3490   */\n      tag_131\n        /* \"#utility.yul\":3487:3488   */\n      0x00\n        /* \"#utility.yul\":3476:3485   */\n      dup4\n        /* \"#utility.yul\":3472:3489   */\n      add\n        /* \"#utility.yul\":3463:3469   */\n      dup5\n        /* \"#utility.yul\":3419:3490   */\n      tag_64\n      jump\t// in\n    tag_131:\n        /* \"#utility.yul\":3275:3497   */\n      swap3\n      swap2\n      pop\n      pop\n      jump\t// out\n        /* \"#utility.yul\":3503:3625   */\n    tag_65:\n        /* \"#utility.yul\":3576:3600   */\n      tag_133\n        /* \"#utility.yul\":3594:3599   */\n      dup2\n        /* \"#utility.yul\":3576:3600   */\n      tag_63\n      jump\t// in\n    tag_133:\n        /* \"#utility.yul\":3569:3574   */\n      dup2\n        /* \"#utility.yul\":3566:3601   */\n      eq\n        /* \"#utility.yul\":3556:3619   */\n      tag_134\n      jumpi\n        /* \"#utility.yul\":3615:3616   */\n      0x00\n        /* \"#utility.yul\":3612:3613   */\n      dup1\n        /* \"#utility.yul\":3605:3617   */\n      revert\n        /* \"#utility.yul\":3556:3619   */\n    tag_134:\n        /* \"#utility.yul\":3503:3625   */\n      pop\n      jump\t// out\n        /* \"#utility.yul\":3631:3770   */\n    tag_66:\n        /* \"#utility.yul\":3677:3682   */\n      0x00\n        /* \"#utility.yul\":3715:3721   */\n      dup2\n        /* \"#utility.yul\":3702:3722   */\n      calldataload\n        /* \"#utility.yul\":3693:3722   */\n      swap1\n      pop\n        /* \"#utility.yul\":3731:3764   */\n      tag_136\n        /* \"#utility.yul\":3758:3763   */\n      dup2\n        /* \"#utility.yul\":3731:3764   */\n      tag_65\n      jump\t// in\n    tag_136:\n        /* \"#utility.yul\":3631:3770   */\n      swap3\n      swap2\n      pop\n      pop\n      jump\t// out\n        /* \"#utility.yul\":3776:4430   */\n    tag_14:\n        /* \"#utility.yul\":3854:3860   */\n      0x00\n        /* \"#utility.yul\":3862:3868   */\n      dup1\n        /* \"#utility.yul\":3911:3913   */\n      0x40\n        /* \"#utility.yul\":3899:3908   */\n      dup4\n        /* \"#utility.yul\":3890:3897   */\n      dup6\n        /* \"#utility.yul\":3886:3909   */\n      sub\n        /* \"#utility.yul\":3882:3914   */\n      slt\n        /* \"#utility.yul\":3879:3998   */\n      iszero\n      tag_138\n      jumpi\n        /* \"#utility.yul\":3917:3996   */\n      tag_139\n      tag_51\n      jump\t// in\n    tag_139:\n        /* \"#utility.yul\":3879:3998   */\n    tag_138:\n        /* \"#utility.yul\":4065:4066   */\n      0x00\n        /* \"#utility.yul\":4054:4063   */\n      dup4\n        /* \"#utility.yul\":4050:4067   */\n      add\n        /* \"#utility.yul\":4037:4068   */\n      calldataload\n        /* \"#utility.yul\":4095:4113   */\n      0xffffffffffffffff\n        /* \"#utility.yul\":4087:4093   */\n      dup2\n        /* \"#utility.yul\":4084:4114   */\n      gt\n        /* \"#utility.yul\":4081:4198   */\n      iszero\n      tag_140\n      jumpi\n        /* \"#utility.yul\":4117:4196   */\n      tag_141\n      tag_52\n      jump\t// in\n    tag_141:\n        /* \"#utility.yul\":4081:4198   */\n    tag_140:\n        /* \"#utility.yul\":4222:4285   */\n      tag_142\n        /* \"#utility.yul\":4277:4284   */\n      dup6\n        /* \"#utility.yul\":4268:4274   */\n      dup3\n        /* \"#utility.yul\":4257:4266   */\n      dup7\n        /* \"#utility.yul\":4253:4275   */\n      add\n        /* \"#utility.yul\":4222:4285   */\n      tag_62\n      jump\t// in\n    tag_142:\n        /* \"#utility.yul\":4212:4285   */\n      swap3\n      pop\n        /* \"#utility.yul\":4008:4295   */\n      pop\n        /* \"#utility.yul\":4334:4336   */\n      0x20\n        /* \"#utility.yul\":4360:4413   */\n      tag_143\n        /* \"#utility.yul\":4405:4412   */\n      dup6\n        /* \"#utility.yul\":4396:4402   */\n      dup3\n        /* \"#utility.yul\":4385:4394   */\n      dup7\n        /* \"#utility.yul\":4381:4403   */\n      add\n        /* \"#utility.yul\":4360:4413   */\n      tag_66\n      jump\t// in\n    tag_143:\n        /* \"#utility.yul\":4350:4413   */\n      swap2\n      pop\n        /* \"#utility.yul\":4305:4423   */\n      pop\n        /* \"#utility.yul\":3776:4430   */\n      swap3\n      pop\n      swap3\n      swap1\n      pop\n      jump\t// out\n        /* \"#utility.yul\":4436:4765   */\n    tag_18:\n        /* \"#utility.yul\":4495:4501   */\n      0x00\n        /* \"#utility.yul\":4544:4546   */\n      0x20\n        /* \"#utility.yul\":4532:4541   */\n      dup3\n        /* \"#utility.yul\":4523:4530   */\n      dup5\n        /* \"#utility.yul\":4519:4542   */\n      sub\n        /* \"#utility.yul\":4515:4547   */\n      slt\n        /* \"#utility.yul\":4512:4631   */\n      iszero\n      tag_145\n      jumpi\n        /* \"#utility.yul\":4550:4629   */\n      tag_146\n      tag_51\n      jump\t// in\n    tag_146:\n        /* \"#utility.yul\":4512:4631   */\n    tag_145:\n        /* \"#utility.yul\":4670:4671   */\n      0x00\n        /* \"#utility.yul\":4695:4748   */\n      tag_147\n        /* \"#utility.yul\":4740:4747   */\n      dup5\n        /* \"#utility.yul\":4731:4737   */\n      dup3\n        /* \"#utility.yul\":4720:4729   */\n      dup6\n        /* \"#utility.yul\":4716:4738   */\n      add\n        /* \"#utility.yul\":4695:4748   */\n      tag_66\n      jump\t// in\n    tag_147:\n        /* \"#utility.yul\":4685:4748   */\n      swap2\n      pop\n        /* \"#utility.yul\":4641:4758   */\n      pop\n        /* \"#utility.yul\":4436:4765   */\n      swap3\n      swap2\n      pop\n      pop\n      jump\t// out\n        /* \"#utility.yul\":4771:4870   */\n    tag_67:\n        /* \"#utility.yul\":4823:4829   */\n      0x00\n        /* \"#utility.yul\":4857:4862   */\n      dup2\n        /* \"#utility.yul\":4851:4863   */\n      mload\n        /* \"#utility.yul\":4841:4863   */\n      swap1\n      pop\n        /* \"#utility.yul\":4771:4870   */\n      swap2\n      swap1\n      pop\n      jump\t// out\n        /* \"#utility.yul\":4876:5045   */\n    tag_68:\n        /* \"#utility.yul\":4960:4971   */\n      0x00\n        /* \"#utility.yul\":4994:5000   */\n      dup3\n        /* \"#utility.yul\":4989:4992   */\n      dup3\n        /* \"#utility.yul\":4982:5001   */\n      mstore\n        /* \"#utility.yul\":5034:5038   */\n      0x20\n        /* \"#utility.yul\":5029:5032   */\n      dup3\n        /* \"#utility.yul\":5025:5039   */\n      add\n        /* \"#utility.yul\":5010:5039   */\n      swap1\n      pop\n        /* \"#utility.yul\":4876:5045   */\n      swap3\n      swap2\n      pop\n      pop\n      jump\t// out\n        /* \"#utility.yul\":5051:5297   */\n    tag_69:\n        /* \"#utility.yul\":5132:5133   */\n      0x00\n        /* \"#utility.yul\":5142:5255   */\n    tag_151:\n        /* \"#utility.yul\":5156:5162   */\n      dup4\n        /* \"#utility.yul\":5153:5154   */\n      dup2\n        /* \"#utility.yul\":5150:5163   */\n      lt\n        /* \"#utility.yul\":5142:5255   */\n      iszero\n      tag_153\n      jumpi\n        /* \"#utility.yul\":5241:5242   */\n      dup1\n        /* \"#utility.yul\":5236:5239   */\n      dup3\n        /* \"#utility.yul\":5232:5243   */\n      add\n        /* \"#utility.yul\":5226:5244   */\n      mload\n        /* \"#utility.yul\":5222:5223   */\n      dup2\n        /* \"#utility.yul\":5217:5220   */\n      dup5\n        /* \"#utility.yul\":5213:5224   */\n      add\n        /* \"#utility.yul\":5206:5245   */\n      mstore\n        /* \"#utility.yul\":5178:5180   */\n      0x20\n        /* \"#utility.yul\":5175:5176   */\n      dup2\n        /* \"#utility.yul\":5171:5181   */\n      add\n        /* \"#utility.yul\":5166:5181   */\n      swap1\n      pop\n        /* \"#utility.yul\":5142:5255   */\n      jump(tag_151)\n    tag_153:\n        /* \"#utility.yul\":5289:5290   */\n      0x00\n        /* \"#utility.yul\":5280:5286   */\n      dup5\n        /* \"#utility.yul\":5275:5278   */\n      dup5\n        /* \"#utility.yul\":5271:5287   */\n      add\n        /* \"#utility.yul\":5264:5291   */\n      mstore\n        /* \"#utility.yul\":5113:5297   */\n      pop\n        /* \"#utility.yul\":5051:5297   */\n      pop\n      pop\n      pop\n      jump\t// out\n        /* \"#utility.yul\":5303:5680   */\n    tag_70:\n        /* \"#utility.yul\":5391:5394   */\n      0x00\n        /* \"#utility.yul\":5419:5458   */\n      tag_155\n        /* \"#utility.yul\":5452:5457   */\n      dup3\n        /* \"#utility.yul\":5419:5458   */\n      tag_67\n      jump\t// in\n    tag_155:\n        /* \"#utility.yul\":5474:5545   */\n      tag_156\n        /* \"#utility.yul\":5538:5544   */\n      dup2\n        /* \"#utility.yul\":5533:5536   */\n      dup6\n        /* \"#utility.yul\":5474:5545   */\n      tag_68\n      jump\t// in\n    tag_156:\n        /* \"#utility.yul\":5467:5545   */\n      swap4\n      pop\n        /* \"#utility.yul\":5554:5619   */\n      tag_157\n        /* \"#utility.yul\":5612:5618   */\n      dup2\n        /* \"#utility.yul\":5607:5610   */\n      dup6\n        /* \"#utility.yul\":5600:5604   */\n      0x20\n        /* \"#utility.yul\":5593:5598   */\n      dup7\n        /* \"#utility.yul\":5589:5605   */\n      add\n        /* \"#utility.yul\":5554:5619   */\n      tag_69\n      jump\t// in\n    tag_157:\n        /* \"#utility.yul\":5644:5673   */\n      tag_158\n        /* \"#utility.yul\":5666:5672   */\n      dup2\n        /* \"#utility.yul\":5644:5673   */\n      tag_55\n      jump\t// in\n    tag_158:\n        /* \"#utility.yul\":5639:5642   */\n      dup5\n        /* \"#utility.yul\":5635:5674   */\n      add\n        /* \"#utility.yul\":5628:5674   */\n      swap2\n      pop\n        /* \"#utility.yul\":5395:5680   */\n      pop\n        /* \"#utility.yul\":5303:5680   */\n      swap3\n      swap2\n      pop\n      pop\n      jump\t// out\n        /* \"#utility.yul\":5686:6109   */\n    tag_21:\n        /* \"#utility.yul\":5827:5831   */\n      0x00\n        /* \"#utility.yul\":5865:5867   */\n      0x40\n        /* \"#utility.yul\":5854:5863   */\n      dup3\n        /* \"#utility.yul\":5850:5868   */\n      add\n        /* \"#utility.yul\":5842:5868   */\n      swap1\n      pop\n        /* \"#utility.yul\":5914:5923   */\n      dup2\n        /* \"#utility.yul\":5908:5912   */\n      dup2\n        /* \"#utility.yul\":5904:5924   */\n      sub\n        /* \"#utility.yul\":5900:5901   */\n      0x00\n        /* \"#utility.yul\":5889:5898   */\n      dup4\n        /* \"#utility.yul\":5885:5902   */\n      add\n        /* \"#utility.yul\":5878:5925   */\n      mstore\n        /* \"#utility.yul\":5942:6020   */\n      tag_160\n        /* \"#utility.yul\":6015:6019   */\n      dup2\n        /* \"#utility.yul\":6006:6012   */\n      dup6\n        /* \"#utility.yul\":5942:6020   */\n      tag_70\n      jump\t// in\n    tag_160:\n        /* \"#utility.yul\":5934:6020   */\n      swap1\n      pop\n        /* \"#utility.yul\":6030:6102   */\n      tag_161\n        /* \"#utility.yul\":6098:6100   */\n      0x20\n        /* \"#utility.yul\":6087:6096   */\n      dup4\n        /* \"#utility.yul\":6083:6101   */\n      add\n        /* \"#utility.yul\":6074:6080   */\n      dup5\n        /* \"#utility.yul\":6030:6102   */\n      tag_64\n      jump\t// in\n    tag_161:\n        /* \"#utility.yul\":5686:6109   */\n      swap4\n      swap3\n      pop\n      pop\n      pop\n      jump\t// out\n        /* \"#utility.yul\":6115:6295   */\n    tag_28:\n        /* \"#utility.yul\":6163:6240   */\n      0x4e487b7100000000000000000000000000000000000000000000000000000000\n        /* \"#utility.yul\":6160:6161   */\n      0x00\n        /* \"#utility.yul\":6153:6241   */\n      mstore\n        /* \"#utility.yul\":6260:6264   */\n      0x32\n        /* \"#utility.yul\":6257:6258   */\n      0x04\n        /* \"#utility.yul\":6250:6265   */\n      mstore\n        /* \"#utility.yul\":6284:6288   */\n      0x24\n        /* \"#utility.yul\":6281:6282   */\n      0x00\n        /* \"#utility.yul\":6274:6289   */\n      revert\n        /* \"#utility.yul\":6301:6481   */\n    tag_71:\n        /* \"#utility.yul\":6349:6426   */\n      0x4e487b7100000000000000000000000000000000000000000000000000000000\n        /* \"#utility.yul\":6346:6347   */\n      0x00\n        /* \"#utility.yul\":6339:6427   */\n      mstore\n        /* \"#utility.yul\":6446:6450   */\n      0x22\n        /* \"#utility.yul\":6443:6444   */\n      0x04\n        /* \"#utility.yul\":6436:6451   */\n      mstore\n        /* \"#utility.yul\":6470:6474   */\n      0x24\n        /* \"#utility.yul\":6467:6468   */\n      0x00\n        /* \"#utility.yul\":6460:6475   */\n      revert\n        /* \"#utility.yul\":6487:6807   */\n    tag_45:\n        /* \"#utility.yul\":6531:6537   */\n      0x00\n        /* \"#utility.yul\":6568:6569   */\n      0x02\n        /* \"#utility.yul\":6562:6566   */\n      dup3\n        /* \"#utility.yul\":6558:6570   */\n      div\n        /* \"#utility.yul\":6548:6570   */\n      swap1\n      pop\n        /* \"#utility.yul\":6615:6616   */\n      0x01\n        /* \"#utility.yul\":6609:6613   */\n      dup3\n        /* \"#utility.yul\":6605:6617   */\n      and\n        /* \"#utility.yul\":6636:6654   */\n      dup1\n        /* \"#utility.yul\":6626:6707   */\n      tag_165\n      jumpi\n        /* \"#utility.yul\":6692:6696   */\n      0x7f\n        /* \"#utility.yul\":6684:6690   */\n      dup3\n        /* \"#utility.yul\":6680:6697   */\n      and\n        /* \"#utility.yul\":6670:6697   */\n      swap2\n      pop\n        /* \"#utility.yul\":6626:6707   */\n    tag_165:\n        /* \"#utility.yul\":6754:6756   */\n      0x20\n        /* \"#utility.yul\":6746:6752   */\n      dup3\n        /* \"#utility.yul\":6743:6757   */\n      lt\n        /* \"#utility.yul\":6723:6741   */\n      dup2\n        /* \"#utility.yul\":6720:6758   */\n      sub\n        /* \"#utility.yul\":6717:6801   */\n      tag_166\n      jumpi\n        /* \"#utility.yul\":6773:6791   */\n      tag_167\n      tag_71\n      jump\t// in\n    tag_167:\n        /* \"#utility.yul\":6717:6801   */\n    tag_166:\n        /* \"#utility.yul\":6538:6807   */\n      pop\n        /* \"#utility.yul\":6487:6807   */\n      swap2\n      swap1\n      pop\n      jump\t// out\n        /* \"#utility.yul\":6813:6960   */\n    tag_72:\n        /* \"#utility.yul\":6914:6925   */\n      0x00\n        /* \"#utility.yul\":6951:6954   */\n      dup2\n        /* \"#utility.yul\":6936:6954   */\n      swap1\n      pop\n        /* \"#utility.yul\":6813:6960   */\n      swap3\n      swap2\n      pop\n      pop\n      jump\t// out\n        /* \"#utility.yul\":6966:7110   */\n    tag_73:\n        /* \"#utility.yul\":7018:7022   */\n      0x00\n        /* \"#utility.yul\":7041:7044   */\n      dup2\n        /* \"#utility.yul\":7033:7044   */\n      swap1\n      pop\n        /* \"#utility.yul\":7064:7067   */\n      dup2\n        /* \"#utility.yul\":7061:7062   */\n      0x00\n        /* \"#utility.yul\":7054:7068   */\n      mstore\n        /* \"#utility.yul\":7098:7102   */\n      0x20\n        /* \"#utility.yul\":7095:7096   */\n      0x00\n        /* \"#utility.yul\":7085:7103   */\n      keccak256\n        /* \"#utility.yul\":7077:7103   */\n      swap1\n      pop\n        /* \"#utility.yul\":6966:7110   */\n      swap2\n      swap1\n      pop\n      jump\t// out\n        /* \"#utility.yul\":7138:8016   */\n    tag_74:\n        /* \"#utility.yul\":7243:7246   */\n      0x00\n        /* \"#utility.yul\":7280:7285   */\n      dup2\n        /* \"#utility.yul\":7274:7286   */\n      sload\n        /* \"#utility.yul\":7309:7345   */\n      tag_171\n        /* \"#utility.yul\":7335:7344   */\n      dup2\n        /* \"#utility.yul\":7309:7345   */\n      tag_45\n      jump\t// in\n    tag_171:\n        /* \"#utility.yul\":7361:7449   */\n      tag_172\n        /* \"#utility.yul\":7442:7448   */\n      dup2\n        /* \"#utility.yul\":7437:7440   */\n      dup7\n        /* \"#utility.yul\":7361:7449   */\n      tag_72\n      jump\t// in\n    tag_172:\n        /* \"#utility.yul\":7354:7449   */\n      swap5\n      pop\n        /* \"#utility.yul\":7480:7481   */\n      0x01\n        /* \"#utility.yul\":7469:7478   */\n      dup3\n        /* \"#utility.yul\":7465:7482   */\n      and\n        /* \"#utility.yul\":7496:7497   */\n      0x00\n        /* \"#utility.yul\":7491:7657   */\n      dup2\n      eq\n      tag_174\n      jumpi\n        /* \"#utility.yul\":7671:7672   */\n      0x01\n        /* \"#utility.yul\":7666:8010   */\n      dup2\n      eq\n      tag_175\n      jumpi\n        /* \"#utility.yul\":7458:8010   */\n      jump(tag_173)\n        /* \"#utility.yul\":7491:7657   */\n    tag_174:\n        /* \"#utility.yul\":7575:7579   */\n      0xff\n        /* \"#utility.yul\":7571:7580   */\n      not\n        /* \"#utility.yul\":7560:7569   */\n      dup4\n        /* \"#utility.yul\":7556:7581   */\n      and\n        /* \"#utility.yul\":7551:7554   */\n      dup7\n        /* \"#utility.yul\":7544:7582   */\n      mstore\n        /* \"#utility.yul\":7637:7643   */\n      dup2\n        /* \"#utility.yul\":7630:7644   */\n      iszero\n        /* \"#utility.yul\":7623:7645   */\n      iszero\n        /* \"#utility.yul\":7615:7621   */\n      dup3\n        /* \"#utility.yul\":7611:7646   */\n      mul\n        /* \"#utility.yul\":7606:7609   */\n      dup7\n        /* \"#utility.yul\":7602:7647   */\n      add\n        /* \"#utility.yul\":7595:7647   */\n      swap4\n      pop\n        /* \"#utility.yul\":7491:7657   */\n      jump(tag_173)\n        /* \"#utility.yul\":7666:8010   */\n    tag_175:\n        /* \"#utility.yul\":7733:7774   */\n      tag_176\n        /* \"#utility.yul\":7768:7773   */\n      dup6\n        /* \"#utility.yul\":7733:7774   */\n      tag_73\n      jump\t// in\n    tag_176:\n        /* \"#utility.yul\":7796:7797   */\n      0x00\n        /* \"#utility.yul\":7810:7964   */\n    tag_177:\n        /* \"#utility.yul\":7824:7830   */\n      dup4\n        /* \"#utility.yul\":7821:7822   */\n      dup2\n        /* \"#utility.yul\":7818:7831   */\n      lt\n        /* \"#utility.yul\":7810:7964   */\n      iszero\n      tag_179\n      jumpi\n        /* \"#utility.yul\":7898:7905   */\n      dup2\n        /* \"#utility.yul\":7892:7906   */\n      sload\n        /* \"#utility.yul\":7888:7889   */\n      dup2\n        /* \"#utility.yul\":7883:7886   */\n      dup10\n        /* \"#utility.yul\":7879:7890   */\n      add\n        /* \"#utility.yul\":7872:7907   */\n      mstore\n        /* \"#utility.yul\":7948:7949   */\n      0x01\n        /* \"#utility.yul\":7939:7946   */\n      dup3\n        /* \"#utility.yul\":7935:7950   */\n      add\n        /* \"#utility.yul\":7924:7950   */\n      swap2\n      pop\n        /* \"#utility.yul\":7846:7850   */\n      0x20\n        /* \"#utility.yul\":7843:7844   */\n      dup2\n        /* \"#utility.yul\":7839:7851   */\n      add\n        /* \"#utility.yul\":7834:7851   */\n      swap1\n      pop\n        /* \"#utility.yul\":7810:7964   */\n      jump(tag_177)\n    tag_179:\n        /* \"#utility.yul\":7993:7999   */\n      dup4\n        /* \"#utility.yul\":7988:7991   */\n      dup9\n        /* \"#utility.yul\":7984:8000   */\n      add\n        /* \"#utility.yul\":7977:8000   */\n      swap6\n      pop\n        /* \"#utility.yul\":7673:8010   */\n      pop\n      pop\n        /* \"#utility.yul\":7458:8010   */\n    tag_173:\n      pop\n        /* \"#utility.yul\":7247:8016   */\n      pop\n      pop\n        /* \"#utility.yul\":7138:8016   */\n      swap3\n      swap2\n      pop\n      pop\n      jump\t// out\n        /* \"#utility.yul\":8022:8295   */\n    tag_31:\n        /* \"#utility.yul\":8153:8156   */\n      0x00\n        /* \"#utility.yul\":8175:8269   */\n      tag_181\n        /* \"#utility.yul\":8265:8268   */\n      dup3\n        /* \"#utility.yul\":8256:8262   */\n      dup5\n        /* \"#utility.yul\":8175:8269   */\n      tag_74\n      jump\t// in\n    tag_181:\n        /* \"#utility.yul\":8168:8269   */\n      swap2\n      pop\n        /* \"#utility.yul\":8286:8289   */\n      dup2\n        /* \"#utility.yul\":8279:8289   */\n      swap1\n      pop\n        /* \"#utility.yul\":8022:8295   */\n      swap3\n      swap2\n      pop\n      pop\n      jump\t// out\n        /* \"#utility.yul\":8301:8481   */\n    tag_75:\n        /* \"#utility.yul\":8349:8426   */\n      0x4e487b7100000000000000000000000000000000000000000000000000000000\n        /* \"#utility.yul\":8346:8347   */\n      0x00\n        /* \"#utility.yul\":8339:8427   */\n      mstore\n        /* \"#utility.yul\":8446:8450   */\n      0x11\n        /* \"#utility.yul\":8443:8444   */\n      0x04\n        /* \"#utility.yul\":8436:8451   */\n      mstore\n        /* \"#utility.yul\":8470:8474   */\n      0x24\n        /* \"#utility.yul\":8467:8468   */\n      0x00\n        /* \"#utility.yul\":8460:8475   */\n      revert\n        /* \"#utility.yul\":8487:8720   */\n    tag_37:\n        /* \"#utility.yul\":8526:8529   */\n      0x00\n        /* \"#utility.yul\":8549:8573   */\n      tag_184\n        /* \"#utility.yul\":8567:8572   */\n      dup3\n        /* \"#utility.yul\":8549:8573   */\n      tag_63\n      jump\t// in\n    tag_184:\n        /* \"#utility.yul\":8540:8573   */\n      swap2\n      pop\n        /* \"#utility.yul\":8595:8661   */\n      0xffffffffffffffffffffffffffffffffffffffffffffffffffffffffffffffff\n        /* \"#utility.yul\":8588:8593   */\n      dup3\n        /* \"#utility.yul\":8585:8662   */\n      sub\n        /* \"#utility.yul\":8582:8685   */\n      tag_185\n      jumpi\n        /* \"#utility.yul\":8665:8683   */\n      tag_186\n      tag_75\n      jump\t// in\n    tag_186:\n        /* \"#utility.yul\":8582:8685   */\n    tag_185:\n        /* \"#utility.yul\":8712:8713   */\n      0x01\n        /* \"#utility.yul\":8705:8710   */\n      dup3\n        /* \"#utility.yul\":8701:8714   */\n      add\n        /* \"#utility.yul\":8694:8714   */\n      swap1\n      pop\n        /* \"#utility.yul\":8487:8720   */\n      swap2\n      swap1\n      pop\n      jump\t// out\n        /* \"#utility.yul\":8726:8867   */\n    tag_76:\n        /* \"#utility.yul\":8775:8779   */\n      0x00\n        /* \"#utility.yul\":8798:8801   */\n      dup2\n        /* \"#utility.yul\":8790:8801   */\n      swap1\n      pop\n        /* \"#utility.yul\":8821:8824   */\n      dup2\n        /* \"#utility.yul\":8818:8819   */\n      0x00\n        /* \"#utility.yul\":8811:8825   */\n      mstore\n        /* \"#utility.yul\":8855:8859   */\n      0x20\n        /* \"#utility.yul\":8852:8853   */\n      0x00\n        /* \"#utility.yul\":8842:8860   */\n      keccak256\n        /* \"#utility.yul\":8834:8860   */\n      swap1\n      pop\n        /* \"#utility.yul\":8726:8867   */\n      swap2\n      swap1\n      pop\n      jump\t// out\n        /* \"#utility.yul\":8873:8966   */\n    tag_77:\n        /* \"#utility.yul\":8910:8916   */\n      0x00\n        /* \"#utility.yul\":8957:8959   */\n      0x20\n        /* \"#utility.yul\":8952:8954   */\n      0x1f\n        /* \"#utility.yul\":8945:8950   */\n      dup4\n        /* \"#utility.yul\":8941:8955   */\n      add\n        /* \"#utility.yul\":8937:8960   */\n      div\n        /* \"#utility.yul\":8927:8960   */\n      swap1\n      pop\n        /* \"#utility.yul\":8873:8966   */\n      swap2\n      swap1\n      pop\n      jump\t// out\n        /* \"#utility.yul\":8972:9079   */\n    tag_78:\n        /* \"#utility.yul\":9016:9024   */\n      0x00\n        /* \"#utility.yul\":9066:9071   */\n      dup3\n        /* \"#utility.yul\":9060:9064   */\n      dup3\n        /* \"#utility.yul\":9056:9072   */\n      shl\n        /* \"#utility.yul\":9035:9072   */\n      swap1\n      pop\n        /* \"#utility.yul\":8972:9079   */\n      swap3\n      swap2\n      pop\n      pop\n      jump\t// out\n        /* \"#utility.yul\":9085:9478   */\n    tag_79:\n        /* \"#utility.yul\":9154:9160   */\n      0x00\n        /* \"#utility.yul\":9204:9205   */\n      0x08\n        /* \"#utility.yul\":9192:9202   */\n      dup4\n        /* \"#utility.yul\":9188:9206   */\n      mul\n        /* \"#utility.yul\":9227:9324   */\n      tag_191\n        /* \"#utility.yul\":9257:9323   */\n      0xffffffffffffffffffffffffffffffffffffffffffffffffffffffffffffffff\n        /* \"#utility.yul\":9246:9255   */\n      dup3\n        /* \"#utility.yul\":9227:9324   */\n      tag_78\n      jump\t// in\n    tag_191:\n        /* \"#utility.yul\":9345:9384   */\n      tag_192\n        /* \"#utility.yul\":9375:9383   */\n      dup7\n        /* \"#utility.yul\":9364:9373   */\n      dup4\n        /* \"#utility.yul\":9345:9384   */\n      tag_78\n      jump\t// in\n    tag_192:\n        /* \"#utility.yul\":9333:9384   */\n      swap6\n      pop\n        /* \"#utility.yul\":9417:9421   */\n      dup1\n        /* \"#utility.yul\":9413:9422   */\n      not\n        /* \"#utility.yul\":9406:9411   */\n      dup5\n        /* \"#utility.yul\":9402:9423   */\n      and\n        /* \"#utility.yul\":9393:9423   */\n      swap4\n      pop\n        /* \"#utility.yul\":9466:9470   */\n      dup1\n        /* \"#utility.yul\":9456:9464   */\n      dup7\n        /* \"#utility.yul\":9452:9471   */\n      and\n        /* \"#utility.yul\":9445:9450   */\n      dup5\n        /* \"#utility.yul\":9442:9472   */\n      or\n        /* \"#utility.yul\":9432:9472   */\n      swap3\n      pop\n        /* \"#utility.yul\":9161:9478   */\n      pop\n      pop\n        /* \"#utility.yul\":9085:9478   */\n      swap4\n      swap3\n      pop\n      pop\n      pop\n      jump\t// out\n        /* \"#utility.yul\":9484:9544   */\n    tag_80:\n        /* \"#utility.yul\":9512:9515   */\n      0x00\n        /* \"#utility.yul\":9533:9538   */\n      dup2\n        /* \"#utility.yul\":9526:9538   */\n      swap1\n      pop\n        /* \"#utility.yul\":9484:9544   */\n      swap2\n      swap1\n      pop\n      jump\t// out\n        /* \"#utility.yul\":9550:9692   */\n    tag_81:\n        /* \"#utility.yul\":9600:9609   */\n      0x00\n        /* \"#utility.yul\":9633:9686   */\n      tag_195\n        /* \"#utility.yul\":9651:9685   */\n      tag_196\n        /* \"#utility.yul\":9660:9684   */\n      tag_197\n        /* \"#utility.yul\":9678:9683   */\n      dup5\n        /* \"#utility.yul\":9660:9684   */\n      tag_63\n      jump\t// in\n    tag_197:\n        /* \"#utility.yul\":9651:9685   */\n      tag_80\n      jump\t// in\n    tag_196:\n        /* \"#utility.yul\":9633:9686   */\n      tag_63\n      jump\t// in\n    tag_195:\n        /* \"#utility.yul\":9620:9686   */\n      swap1\n      pop\n        /* \"#utility.yul\":9550:9692   */\n      swap2\n      swap1\n      pop\n      jump\t// out\n        /* \"#utility.yul\":9698:9773   */\n    tag_82:\n        /* \"#utility.yul\":9741:9744   */\n      0x00\n        /* \"#utility.yul\":9762:9767   */\n      dup2\n        /* \"#utility.yul\":9755:9767   */\n      swap1\n      pop\n        /* \"#utility.yul\":9698:9773   */\n      swap2\n      swap1\n      pop\n      jump\t// out\n        /* \"#utility.yul\":9779:10048   */\n    tag_83:\n        /* \"#utility.yul\":9889:9928   */\n      tag_200\n        /* \"#utility.yul\":9920:9927   */\n      dup4\n        /* \"#utility.yul\":9889:9928   */\n      tag_81\n      jump\t// in\n    tag_200:\n        /* \"#utility.yul\":9950:10041   */\n      tag_201\n        /* \"#utility.yul\":9999:10040   */\n      tag_202\n        /* \"#utility.yul\":10023:10039   */\n      dup3\n        /* \"#utility.yul\":9999:10040   */\n      tag_82\n      jump\t// in\n    tag_202:\n        /* \"#utility.yul\":9991:9997   */\n      dup5\n        /* \"#utility.yul\":9984:9988   */\n      dup5\n        /* \"#utility.yul\":9978:9989   */\n      sload\n        /* \"#utility.yul\":9950:10041   */\n      tag_79\n      jump\t// in\n    tag_201:\n        /* \"#utility.yul\":9944:9948   */\n      dup3\n        /* \"#utility.yul\":9937:10042   */\n      sstore\n        /* \"#utility.yul\":9855:10048   */\n      pop\n        /* \"#utility.yul\":9779:10048   */\n      pop\n      pop\n      pop\n      jump\t// out\n        /* \"#utility.yul\":10054:10127   */\n    tag_84:\n        /* \"#utility.yul\":10099:10102   */\n      0x00\n        /* \"#utility.yul\":10054:10127   */\n      swap1\n      jump\t// out\n        /* \"#utility.yul\":10133:10322   */\n    tag_85:\n        /* \"#utility.yul\":10210:10242   */\n      tag_205\n      tag_84\n      jump\t// in\n    tag_205:\n        /* \"#utility.yul\":10251:10316   */\n      tag_206\n        /* \"#utility.yul\":10309:10315   */\n      dup2\n        /* \"#utility.yul\":10301:10307   */\n      dup5\n        /* \"#utility.yul\":10295:10299   */\n      dup5\n        /* \"#utility.yul\":10251:10316   */\n      tag_83\n      jump\t// in\n    tag_206:\n        /* \"#utility.yul\":10186:10322   */\n      pop\n        /* \"#utility.yul\":10133:10322   */\n      pop\n      pop\n      jump\t// out\n        /* \"#utility.yul\":10328:10514   */\n    tag_86:\n        /* \"#utility.yul\":10388:10508   */\n    tag_208:\n        /* \"#utility.yul\":10405:10408   */\n      dup2\n        /* \"#utility.yul\":10398:10403   */\n      dup2\n        /* \"#utility.yul\":10395:10409   */\n      lt\n        /* \"#utility.yul\":10388:10508   */\n      iszero\n      tag_210\n      jumpi\n        /* \"#utility.yul\":10459:10498   */\n      tag_211\n        /* \"#utility.yul\":10496:10497   */\n      0x00\n        /* \"#utility.yul\":10489:10494   */\n      dup3\n        /* \"#utility.yul\":10459:10498   */\n      tag_85\n      jump\t// in\n    tag_211:\n        /* \"#utility.yul\":10432:10433   */\n      0x01\n        /* \"#utility.yul\":10425:10430   */\n      dup2\n        /* \"#utility.yul\":10421:10434   */\n      add\n        /* \"#utility.yul\":10412:10434   */\n      swap1\n      pop\n        /* \"#utility.yul\":10388:10508   */\n      jump(tag_208)\n    tag_210:\n        /* \"#utility.yul\":10328:10514   */\n      pop\n      pop\n      jump\t// out\n        /* \"#utility.yul\":10520:11063   */\n    tag_87:\n        /* \"#utility.yul\":10621:10623   */\n      0x1f\n        /* \"#utility.yul\":10616:10619   */\n      dup3\n        /* \"#utility.yul\":10613:10624   */\n      gt\n        /* \"#utility.yul\":10610:11056   */\n      iszero\n      tag_213\n      jumpi\n        /* \"#utility.yul\":10655:10693   */\n      tag_214\n        /* \"#utility.yul\":10687:10692   */\n      dup2\n        /* \"#utility.yul\":10655:10693   */\n      tag_76\n      jump\t// in\n    tag_214:\n        /* \"#utility.yul\":10739:10768   */\n      tag_215\n        /* \"#utility.yul\":10757:10767   */\n      dup5\n        /* \"#utility.yul\":10739:10768   */\n      tag_77\n      jump\t// in\n    tag_215:\n        /* \"#utility.yul\":10729:10737   */\n      dup2\n        /* \"#utility.yul\":10725:10769   */\n      add\n        /* \"#utility.yul\":10922:10924   */\n      0x20\n        /* \"#utility.yul\":10910:10920   */\n      dup6\n        /* \"#utility.yul\":10907:10925   */\n      lt\n        /* \"#utility.yul\":10904:10953   */\n      iszero\n      tag_216\n      jumpi\n        /* \"#utility.yul\":10943:10951   */\n      dup2\n        /* \"#utility.yul\":10928:10951   */\n      swap1\n      pop\n        /* \"#utility.yul\":10904:10953   */\n    tag_216:\n        /* \"#utility.yul\":10966:11046   */\n      tag_217\n        /* \"#utility.yul\":11022:11044   */\n      tag_218\n        /* \"#utility.yul\":11040:11043   */\n      dup6\n        /* \"#utility.yul\":11022:11044   */\n      tag_77\n      jump\t// in\n    tag_218:\n        /* \"#utility.yul\":11012:11020   */\n      dup4\n        /* \"#utility.yul\":11008:11045   */\n      add\n        /* \"#utility.yul\":10995:11006   */\n      dup3\n        /* \"#utility.yul\":10966:11046   */\n      tag_86\n      jump\t// in\n    tag_217:\n        /* \"#utility.yul\":10625:11056   */\n      pop\n      pop\n        /* \"#utility.yul\":10610:11056   */\n    tag_213:\n        /* \"#utility.yul\":10520:11063   */\n      pop\n      pop\n      pop\n      jump\t// out\n        /* \"#utility.yul\":11069:11186   */\n    tag_88:\n        /* \"#utility.yul\":11123:11131   */\n      0x00\n        /* \"#utility.yul\":11173:11178   */\n      dup3\n        /* \"#utility.yul\":11167:11171   */\n      dup3\n        /* \"#utility.yul\":11163:11179   */\n      shr\n        /* \"#utility.yul\":11142:11179   */\n      swap1\n      pop\n        /* \"#utility.yul\":11069:11186   */\n      swap3\n      swap2\n      pop\n      pop\n      jump\t// out\n        /* \"#utility.yul\":11192:11361   */\n    tag_89:\n        /* \"#utility.yul\":11236:11242   */\n      0x00\n        /* \"#utility.yul\":11269:11320   */\n      tag_221\n        /* \"#utility.yul\":11317:11318   */\n      0x00\n        /* \"#utility.yul\":11313:11319   */\n      not\n        /* \"#utility.yul\":11305:11310   */\n      dup5\n        /* \"#utility.yul\":11302:11303   */\n      0x08\n        /* \"#utility.yul\":11298:11311   */\n      mul\n        /* \"#utility.yul\":11269:11320   */\n      tag_88\n      jump\t// in\n    tag_221:\n        /* \"#utility.yul\":11265:11321   */\n      not\n        /* \"#utility.yul\":11350:11354   */\n      dup1\n        /* \"#utility.yul\":11344:11348   */\n      dup4\n        /* \"#utility.yul\":11340:11355   */\n      and\n        /* \"#utility.yul\":11330:11355   */\n      swap2\n      pop\n        /* \"#utility.yul\":11243:11361   */\n      pop\n        /* \"#utility.yul\":11192:11361   */\n      swap3\n      swap2\n      pop\n      pop\n      jump\t// out\n        /* \"#utility.yul\":11366:11661   */\n    tag_90:\n        /* \"#utility.yul\":11442:11446   */\n      0x00\n        /* \"#utility.yul\":11588:11617   */\n      tag_223\n        /* \"#utility.yul\":11613:11616   */\n      dup4\n        /* \"#utility.yul\":11607:11611   */\n      dup4\n        /* \"#utility.yul\":11588:11617   */\n      tag_89\n      jump\t// in\n    tag_223:\n        /* \"#utility.yul\":11580:11617   */\n      swap2\n      pop\n        /* \"#utility.yul\":11650:11653   */\n      dup3\n        /* \"#utility.yul\":11647:11648   */\n      0x02\n        /* \"#utility.yul\":11643:11654   */\n      mul\n        /* \"#utility.yul\":11637:11641   */\n      dup3\n        /* \"#utility.yul\":11634:11655   */\n      or\n        /* \"#utility.yul\":11626:11655   */\n      swap1\n      pop\n        /* \"#utility.yul\":11366:11661   */\n      swap3\n      swap2\n      pop\n      pop\n      jump\t// out\n        /* \"#utility.yul\":11666:13061   */\n    tag_41:\n        /* \"#utility.yul\":11783:11820   */\n      tag_225\n        /* \"#utility.yul\":11816:11819   */\n      dup3\n        /* \"#utility.yul\":11783:11820   */\n      tag_67\n      jump\t// in\n    tag_225:\n        /* \"#utility.yul\":11885:11903   */\n      0xffffffffffffffff\n        /* \"#utility.yul\":11877:11883   */\n      dup2\n        /* \"#utility.yul\":11874:11904   */\n      gt\n        /* \"#utility.yul\":11871:11927   */\n      iszero\n      tag_226\n      jumpi\n        /* \"#utility.yul\":11907:11925   */\n      tag_227\n      tag_56\n      jump\t// in\n    tag_227:\n        /* \"#utility.yul\":11871:11927   */\n    tag_226:\n        /* \"#utility.yul\":11951:11989   */\n      tag_228\n        /* \"#utility.yul\":11983:11987   */\n      dup3\n        /* \"#utility.yul\":11977:11988   */\n      sload\n        /* \"#utility.yul\":11951:11989   */\n      tag_45\n      jump\t// in\n    tag_228:\n        /* \"#utility.yul\":12036:12103   */\n      tag_229\n        /* \"#utility.yul\":12096:12102   */\n      dup3\n        /* \"#utility.yul\":12088:12094   */\n      dup3\n        /* \"#utility.yul\":12082:12086   */\n      dup6\n        /* \"#utility.yul\":12036:12103   */\n      tag_87\n      jump\t// in\n    tag_229:\n        /* \"#utility.yul\":12130:12131   */\n      0x00\n        /* \"#utility.yul\":12154:12158   */\n      0x20\n        /* \"#utility.yul\":12141:12158   */\n      swap1\n      pop\n        /* \"#utility.yul\":12186:12188   */\n      0x1f\n        /* \"#utility.yul\":12178:12184   */\n      dup4\n        /* \"#utility.yul\":12175:12189   */\n      gt\n        /* \"#utility.yul\":12203:12204   */\n      0x01\n        /* \"#utility.yul\":12198:12816   */\n      dup2\n      eq\n      tag_231\n      jumpi\n        /* \"#utility.yul\":12860:12861   */\n      0x00\n        /* \"#utility.yul\":12877:12883   */\n      dup5\n        /* \"#utility.yul\":12874:12951   */\n      iszero\n      tag_232\n      jumpi\n        /* \"#utility.yul\":12926:12935   */\n      dup3\n        /* \"#utility.yul\":12921:12924   */\n      dup8\n        /* \"#utility.yul\":12917:12936   */\n      add\n        /* \"#utility.yul\":12911:12937   */\n      mload\n        /* \"#utility.yul\":12902:12937   */\n      swap1\n      pop\n        /* \"#utility.yul\":12874:12951   */\n    tag_232:\n        /* \"#utility.yul\":12977:13044   */\n      tag_233\n        /* \"#utility.yul\":13037:13043   */\n      dup6\n        /* \"#utility.yul\":13030:13035   */\n      dup3\n        /* \"#utility.yul\":12977:13044   */\n      tag_90\n      jump\t// in\n    tag_233:\n        /* \"#utility.yul\":12971:12975   */\n      dup7\n        /* \"#utility.yul\":12964:13045   */\n      sstore\n        /* \"#utility.yul\":12833:13055   */\n      pop\n        /* \"#utility.yul\":12168:13055   */\n      jump(tag_230)\n        /* \"#utility.yul\":12198:12816   */\n    tag_231:\n        /* \"#utility.yul\":12250:12254   */\n      0x1f\n        /* \"#utility.yul\":12246:12255   */\n      not\n        /* \"#utility.yul\":12238:12244   */\n      dup5\n        /* \"#utility.yul\":12234:12256   */\n      and\n        /* \"#utility.yul\":12284:12321   */\n      tag_234\n        /* \"#utility.yul\":12316:12320   */\n      dup7\n        /* \"#utility.yul\":12284:12321   */\n      tag_76\n      jump\t// in\n    tag_234:\n        /* \"#utility.yul\":12343:12344   */\n      0x00\n        /* \"#utility.yul\":12357:12565   */\n    tag_235:\n        /* \"#utility.yul\":12371:12378   */\n      dup3\n        /* \"#utility.yul\":12368:12369   */\n      dup2\n        /* \"#utility.yul\":12365:12379   */\n      lt\n        /* \"#utility.yul\":12357:12565   */\n      iszero\n      tag_237\n      jumpi\n        /* \"#utility.yul\":12450:12459   */\n      dup5\n        /* \"#utility.yul\":12445:12448   */\n      dup10\n        /* \"#utility.yul\":12441:12460   */\n      add\n        /* \"#utility.yul\":12435:12461   */\n      mload\n        /* \"#utility.yul\":12427:12433   */\n      dup3\n        /* \"#utility.yul\":12420:12462   */\n      sstore\n        /* \"#utility.yul\":12501:12502   */\n      0x01\n        /* \"#utility.yul\":12493:12499   */\n      dup3\n        /* \"#utility.yul\":12489:12503   */\n      add\n        /* \"#utility.yul\":12479:12503   */\n      swap2\n      pop\n        /* \"#utility.yul\":12548:12550   */\n      0x20\n        /* \"#utility.yul\":12537:12546   */\n      dup6\n        /* \"#utility.yul\":12533:12551   */\n      add\n        /* \"#utility.yul\":12520:12551   */\n      swap5\n      pop\n        /* \"#utility.yul\":12394:12398   */\n      0x20\n        /* \"#utility.yul\":12391:12392   */\n      dup2\n        /* \"#utility.yul\":12387:12399   */\n      add\n        /* \"#utility.yul\":12382:12399   */\n      swap1\n      pop\n        /* \"#utility.yul\":12357:12565   */\n      jump(tag_235)\n    tag_237:\n        /* \"#utility.yul\":12593:12599   */\n      dup7\n        /* \"#utility.yul\":12584:12591   */\n      dup4\n        /* \"#utility.yul\":12581:12600   */\n      lt\n        /* \"#utility.yul\":12578:12757   */\n      iszero\n      tag_238\n      jumpi\n        /* \"#utility.yul\":12651:12660   */\n      dup5\n        /* \"#utility.yul\":12646:12649   */\n      dup10\n        /* \"#utility.yul\":12642:12661   */\n      add\n        /* \"#utility.yul\":12636:12662   */\n      mload\n        /* \"#utility.yul\":12694:12742   */\n      tag_239\n        /* \"#utility.yul\":12736:12740   */\n      0x1f\n        /* \"#utility.yul\":12728:12734   */\n      dup10\n        /* \"#utility.yul\":12724:12741   */\n      and\n        /* \"#utility.yul\":12713:12722   */\n      dup3\n        /* \"#utility.yul\":12694:12742   */\n      tag_89\n      jump\t// in\n    tag_239:\n        /* \"#utility.yul\":12686:12692   */\n      dup4\n        /* \"#utility.yul\":12679:12743   */\n      sstore\n        /* \"#utility.yul\":12601:12757   */\n      pop\n        /* \"#utility.yul\":12578:12757   */\n    tag_238:\n        /* \"#utility.yul\":12803:12804   */\n      0x01\n        /* \"#utility.yul\":12799:12800   */\n      0x02\n        /* \"#utility.yul\":12791:12797   */\n      dup9\n        /* \"#utility.yul\":12787:12801   */\n      mul\n        /* \"#utility.yul\":12783:12805   */\n      add\n        /* \"#utility.yul\":12777:12781   */\n      dup9\n        /* \"#utility.yul\":12770:12806   */\n      sstore\n        /* \"#utility.yul\":12205:12816   */\n      pop\n      pop\n      pop\n        /* \"#utility.yul\":12168:13055   */\n    tag_230:\n      pop\n        /* \"#utility.yul\":11758:13061   */\n      pop\n      pop\n      pop\n        /* \"#utility.yul\":11666:13061   */\n      pop\n      pop\n      jump\t// out\n\n    auxdata: 0xa2646970667358221220ad48d17c064a1ecfc9d7ee2518cd2a9fdac7a8b738bd4ee19a5d2fe23b2e2adc64736f6c63430008120033\n}\n",
				"bytecode": {
					"linkReferences": {},
					"object": "608060405234801561001057600080fd5b50610a3a806100206000396000f3fe608060405234801561001057600080fd5b50600436106100415760003560e01c8063820ed086146100465780639f65632114610076578063baa2675714610092575b600080fd5b610060600480360381019061005b91906103e5565b6100c3565b60405161006d9190610447565b60405180910390f35b610090600480360381019061008b919061048e565b610169565b005b6100ac60048036038101906100a791906104ea565b6101cf565b6040516100ba929190610596565b60405180910390f35b600080600090505b60008054905081101561015e578280519060200120600082815481106100f4576100f36105c6565b5b906000526020600020906002020160000160405161011291906106f8565b60405180910390200361014d5760008181548110610133576101326105c6565b5b906000526020600020906002020160010154915050610164565b806101579061073e565b90506100cb565b50600090505b919050565b6000604051806040016040528084815260200183815250908060018154018082558091505060019003906000526020600020906002020160009091909190915060008201518160000190816101be9190610932565b506020820151816001015550505050565b600081815481106101df57600080fd5b906000526020600020906002020160009150905080600001805461020290610624565b80601f016020809104026020016040519081016040528092919081815260200182805461022e90610624565b801561027b5780601f106102505761010080835404028352916020019161027b565b820191906000526020600020905b81548152906001019060200180831161025e57829003601f168201915b5050505050908060010154905082565b6000604051905090565b600080fd5b600080fd5b600080fd5b600080fd5b6000601f19601f8301169050919050565b7f4e487b7100000000000000000000000000000000000000000000000000000000600052604160045260246000fd5b6102f2826102a9565b810181811067ffffffffffffffff82111715610311576103106102ba565b5b80604052505050565b600061032461028b565b905061033082826102e9565b919050565b600067ffffffffffffffff8211156103505761034f6102ba565b5b610359826102a9565b9050602081019050919050565b82818337600083830152505050565b600061038861038384610335565b61031a565b9050828152602081018484840111156103a4576103a36102a4565b5b6103af848285610366565b509392505050565b600082601f8301126103cc576103cb61029f565b5b81356103dc848260208601610375565b91505092915050565b6000602082840312156103fb576103fa610295565b5b600082013567ffffffffffffffff8111156104195761041861029a565b5b610425848285016103b7565b91505092915050565b6000819050919050565b6104418161042e565b82525050565b600060208201905061045c6000830184610438565b92915050565b61046b8161042e565b811461047657600080fd5b50565b60008135905061048881610462565b92915050565b600080604083850312156104a5576104a4610295565b5b600083013567ffffffffffffffff8111156104c3576104c261029a565b5b6104cf858286016103b7565b92505060206104e085828601610479565b9150509250929050565b600060208284031215610500576104ff610295565b5b600061050e84828501610479565b91505092915050565b600081519050919050565b600082825260208201905092915050565b60005b83811015610551578082015181840152602081019050610536565b60008484015250505050565b600061056882610517565b6105728185610522565b9350610582818560208601610533565b61058b816102a9565b840191505092915050565b600060408201905081810360008301526105b0818561055d565b90506105bf6020830184610438565b9392505050565b7f4e487b7100000000000000000000000000000000000000000000000000000000600052603260045260246000fd5b7f4e487b7100000000000000000000000000000000000000000000000000000000600052602260045260246000fd5b6000600282049050600182168061063c57607f821691505b60208210810361064f5761064e6105f5565b5b50919050565b600081905092915050565b60008190508160005260206000209050919050565b6000815461068281610624565b61068c8186610655565b945060018216600081146106a757600181146106bc576106ef565b60ff19831686528115158202860193506106ef565b6106c585610660565b60005b838110156106e7578154818901526001820191506020810190506106c8565b838801955050505b50505092915050565b60006107048284610675565b915081905092915050565b7f4e487b7100000000000000000000000000000000000000000000000000000000600052601160045260246000fd5b60006107498261042e565b91507fffffffffffffffffffffffffffffffffffffffffffffffffffffffffffffffff820361077b5761077a61070f565b5b600182019050919050565b60008190508160005260206000209050919050565b60006020601f8301049050919050565b600082821b905092915050565b6000600883026107e87fffffffffffffffffffffffffffffffffffffffffffffffffffffffffffffffff826107ab565b6107f286836107ab565b95508019841693508086168417925050509392505050565b6000819050919050565b600061082f61082a6108258461042e565b61080a565b61042e565b9050919050565b6000819050919050565b61084983610814565b61085d61085582610836565b8484546107b8565b825550505050565b600090565b610872610865565b61087d818484610840565b505050565b5b818110156108a15761089660008261086a565b600181019050610883565b5050565b601f8211156108e6576108b781610786565b6108c08461079b565b810160208510156108cf578190505b6108e36108db8561079b565b830182610882565b50505b505050565b600082821c905092915050565b6000610909600019846008026108eb565b1980831691505092915050565b600061092283836108f8565b9150826002028217905092915050565b61093b82610517565b67ffffffffffffffff811115610954576109536102ba565b5b61095e8254610624565b6109698282856108a5565b600060209050601f83116001811461099c576000841561098a578287015190505b6109948582610916565b8655506109fc565b601f1984166109aa86610786565b60005b828110156109d2578489015182556001820191506020850194506020810190506109ad565b868310156109ef57848901516109eb601f8916826108f8565b8355505b6001600288020188555050505b50505050505056fea2646970667358221220ad48d17c064a1ecfc9d7ee2518cd2a9fdac7a8b738bd4ee19a5d2fe23b2e2adc64736f6c63430008120033",
					"opcodes": "PUSH1 0x80 PUSH1 0x40 MSTORE CALLVALUE DUP1 ISZERO PUSH2 0x10 JUMPI PUSH1 0x0 DUP1 REVERT JUMPDEST POP PUSH2 0xA3A DUP1 PUSH2 0x20 PUSH1 0x0 CODECOPY PUSH1 0x0 RETURN INVALID PUSH1 0x80 PUSH1 0x40 MSTORE CALLVALUE DUP1 ISZERO PUSH2 0x10 JUMPI PUSH1 0x0 DUP1 REVERT JUMPDEST POP PUSH1 0x4 CALLDATASIZE LT PUSH2 0x41 JUMPI PUSH1 0x0 CALLDATALOAD PUSH1 0xE0 SHR DUP1 PUSH4 0x820ED086 EQ PUSH2 0x46 JUMPI DUP1 PUSH4 0x9F656321 EQ PUSH2 0x76 JUMPI DUP1 PUSH4 0xBAA26757 EQ PUSH2 0x92 JUMPI JUMPDEST PUSH1 0x0 DUP1 REVERT JUMPDEST PUSH2 0x60 PUSH1 0x4 DUP1 CALLDATASIZE SUB DUP2 ADD SWAP1 PUSH2 0x5B SWAP2 SWAP1 PUSH2 0x3E5 JUMP JUMPDEST PUSH2 0xC3 JUMP JUMPDEST PUSH1 0x40 MLOAD PUSH2 0x6D SWAP2 SWAP1 PUSH2 0x447 JUMP JUMPDEST PUSH1 0x40 MLOAD DUP1 SWAP2 SUB SWAP1 RETURN JUMPDEST PUSH2 0x90 PUSH1 0x4 DUP1 CALLDATASIZE SUB DUP2 ADD SWAP1 PUSH2 0x8B SWAP2 SWAP1 PUSH2 0x48E JUMP JUMPDEST PUSH2 0x169 JUMP JUMPDEST STOP JUMPDEST PUSH2 0xAC PUSH1 0x4 DUP1 CALLDATASIZE SUB DUP2 ADD SWAP1 PUSH2 0xA7 SWAP2 SWAP1 PUSH2 0x4EA JUMP JUMPDEST PUSH2 0x1CF JUMP JUMPDEST PUSH1 0x40 MLOAD PUSH2 0xBA SWAP3 SWAP2 SWAP1 PUSH2 0x596 JUMP JUMPDEST PUSH1 0x40 MLOAD DUP1 SWAP2 SUB SWAP1 RETURN JUMPDEST PUSH1 0x0 DUP1 PUSH1 0x0 SWAP1 POP JUMPDEST PUSH1 0x0 DUP1 SLOAD SWAP1 POP DUP2 LT ISZERO PUSH2 0x15E JUMPI DUP3 DUP1 MLOAD SWAP1 PUSH1 0x20 ADD KECCAK256 PUSH1 0x0 DUP3 DUP2 SLOAD DUP2 LT PUSH2 0xF4 JUMPI PUSH2 0xF3 PUSH2 0x5C6 JUMP JUMPDEST JUMPDEST SWAP1 PUSH1 0x0 MSTORE PUSH1 0x20 PUSH1 0x0 KECCAK256 SWAP1 PUSH1 0x2 MUL ADD PUSH1 0x0 ADD PUSH1 0x40 MLOAD PUSH2 0x112 SWAP2 SWAP1 PUSH2 0x6F8 JUMP JUMPDEST PUSH1 0x40 MLOAD DUP1 SWAP2 SUB SWAP1 KECCAK256 SUB PUSH2 0x14D JUMPI PUSH1 0x0 DUP2 DUP2 SLOAD DUP2 LT PUSH2 0x133 JUMPI PUSH2 0x132 PUSH2 0x5C6 JUMP JUMPDEST JUMPDEST SWAP1 PUSH1 0x0 MSTORE PUSH1 0x20 PUSH1 0x0 KECCAK256 SWAP1 PUSH1 0x2 MUL ADD PUSH1 0x1 ADD SLOAD SWAP2 POP POP PUSH2 0x164 JUMP JUMPDEST DUP1 PUSH2 0x157 SWAP1 PUSH2 0x73E JUMP JUMPDEST SWAP1 POP PUSH2 0xCB JUMP JUMPDEST POP PUSH1 0x0 SWAP1 POP JUMPDEST SWAP2 SWAP1 POP JUMP JUMPDEST PUSH1 0x0 PUSH1 0x40 MLOAD DUP1 PUSH1 0x40 ADD PUSH1 0x40 MSTORE DUP1 DUP5 DUP2 MSTORE PUSH1 0x20 ADD DUP4 DUP2 MSTORE POP SWAP1 DUP1 PUSH1 0x1 DUP2 SLOAD ADD DUP1 DUP3 SSTORE DUP1 SWAP2 POP POP PUSH1 0x1 SWAP1 SUB SWAP1 PUSH1 0x0 MSTORE PUSH1 0x20 PUSH1 0x0 KECCAK256 SWAP1 PUSH1 0x2 MUL ADD PUSH1 0x0 SWAP1 SWAP2 SWAP1 SWAP2 SWAP1 SWAP2 POP PUSH1 0x0 DUP3 ADD MLOAD DUP2 PUSH1 0x0 ADD SWAP1 DUP2 PUSH2 0x1BE SWAP2 SWAP1 PUSH2 0x932 JUMP JUMPDEST POP PUSH1 0x20 DUP3 ADD MLOAD DUP2 PUSH1 0x1 ADD SSTORE POP POP POP POP JUMP JUMPDEST PUSH1 0x0 DUP2 DUP2 SLOAD DUP2 LT PUSH2 0x1DF JUMPI PUSH1 0x0 DUP1 REVERT JUMPDEST SWAP1 PUSH1 0x0 MSTORE PUSH1 0x20 PUSH1 0x0 KECCAK256 SWAP1 PUSH1 0x2 MUL ADD PUSH1 0x0 SWAP2 POP SWAP1 POP DUP1 PUSH1 0x0 ADD DUP1 SLOAD PUSH2 0x202 SWAP1 PUSH2 0x624 JUMP JUMPDEST DUP1 PUSH1 0x1F ADD PUSH1 0x20 DUP1 SWAP2 DIV MUL PUSH1 0x20 ADD PUSH1 0x40 MLOAD SWAP1 DUP2 ADD PUSH1 0x40 MSTORE DUP1 SWAP3 SWAP2 SWAP1 DUP2 DUP2 MSTORE PUSH1 0x20 ADD DUP3 DUP1 SLOAD PUSH2 0x22E SWAP1 PUSH2 0x624 JUMP JUMPDEST DUP1 ISZERO PUSH2 0x27B JUMPI DUP1 PUSH1 0x1F LT PUSH2 0x250 JUMPI PUSH2 0x100 DUP1 DUP4 SLOAD DIV MUL DUP4 MSTORE SWAP2 PUSH1 0x20 ADD SWAP2 PUSH2 0x27B JUMP JUMPDEST DUP3 ADD SWAP2 SWAP1 PUSH1 0x0 MSTORE PUSH1 0x20 PUSH1 0x0 KECCAK256 SWAP1 JUMPDEST DUP2 SLOAD DUP2 MSTORE SWAP1 PUSH1 0x1 ADD SWAP1 PUSH1 0x20 ADD DUP1 DUP4 GT PUSH2 0x25E JUMPI DUP3 SWAP1 SUB PUSH1 0x1F AND DUP3 ADD SWAP2 JUMPDEST POP POP POP POP POP SWAP1 DUP1 PUSH1 0x1 ADD SLOAD SWAP1 POP DUP3 JUMP JUMPDEST PUSH1 0x0 PUSH1 0x40 MLOAD SWAP1 POP SWAP1 JUMP JUMPDEST PUSH1 0x0 DUP1 REVERT JUMPDEST PUSH1 0x0 DUP1 REVERT JUMPDEST PUSH1 0x0 DUP1 REVERT JUMPDEST PUSH1 0x0 DUP1 REVERT JUMPDEST PUSH1 0x0 PUSH1 0x1F NOT PUSH1 0x1F DUP4 ADD AND SWAP1 POP SWAP2 SWAP1 POP JUMP JUMPDEST PUSH32 0x4E487B7100000000000000000000000000000000000000000000000000000000 PUSH1 0x0 MSTORE PUSH1 0x41 PUSH1 0x4 MSTORE PUSH1 0x24 PUSH1 0x0 REVERT JUMPDEST PUSH2 0x2F2 DUP3 PUSH2 0x2A9 JUMP JUMPDEST DUP2 ADD DUP2 DUP2 LT PUSH8 0xFFFFFFFFFFFFFFFF DUP3 GT OR ISZERO PUSH2 0x311 JUMPI PUSH2 0x310 PUSH2 0x2BA JUMP JUMPDEST JUMPDEST DUP1 PUSH1 0x40 MSTORE POP POP POP JUMP JUMPDEST PUSH1 0x0 PUSH2 0x324 PUSH2 0x28B JUMP JUMPDEST SWAP1 POP PUSH2 0x330 DUP3 DUP3 PUSH2 0x2E9 JUMP JUMPDEST SWAP2 SWAP1 POP JUMP JUMPDEST PUSH1 0x0 PUSH8 0xFFFFFFFFFFFFFFFF DUP3 GT ISZERO PUSH2 0x350 JUMPI PUSH2 0x34F PUSH2 0x2BA JUMP JUMPDEST JUMPDEST PUSH2 0x359 DUP3 PUSH2 0x2A9 JUMP JUMPDEST SWAP1 POP PUSH1 0x20 DUP2 ADD SWAP1 POP SWAP2 SWAP1 POP JUMP JUMPDEST DUP3 DUP2 DUP4 CALLDATACOPY PUSH1 0x0 DUP4 DUP4 ADD MSTORE POP POP POP JUMP JUMPDEST PUSH1 0x0 PUSH2 0x388 PUSH2 0x383 DUP5 PUSH2 0x335 JUMP JUMPDEST PUSH2 0x31A JUMP JUMPDEST SWAP1 POP DUP3 DUP2 MSTORE PUSH1 0x20 DUP2 ADD DUP5 DUP5 DUP5 ADD GT ISZERO PUSH2 0x3A4 JUMPI PUSH2 0x3A3 PUSH2 0x2A4 JUMP JUMPDEST JUMPDEST PUSH2 0x3AF DUP5 DUP3 DUP6 PUSH2 0x366 JUMP JUMPDEST POP SWAP4 SWAP3 POP POP POP JUMP JUMPDEST PUSH1 0x0 DUP3 PUSH1 0x1F DUP4 ADD SLT PUSH2 0x3CC JUMPI PUSH2 0x3CB PUSH2 0x29F JUMP JUMPDEST JUMPDEST DUP2 CALLDATALOAD PUSH2 0x3DC DUP5 DUP3 PUSH1 0x20 DUP7 ADD PUSH2 0x375 JUMP JUMPDEST SWAP2 POP POP SWAP3 SWAP2 POP POP JUMP JUMPDEST PUSH1 0x0 PUSH1 0x20 DUP3 DUP5 SUB SLT ISZERO PUSH2 0x3FB JUMPI PUSH2 0x3FA PUSH2 0x295 JUMP JUMPDEST JUMPDEST PUSH1 0x0 DUP3 ADD CALLDATALOAD PUSH8 0xFFFFFFFFFFFFFFFF DUP2 GT ISZERO PUSH2 0x419 JUMPI PUSH2 0x418 PUSH2 0x29A JUMP JUMPDEST JUMPDEST PUSH2 0x425 DUP5 DUP3 DUP6 ADD PUSH2 0x3B7 JUMP JUMPDEST SWAP2 POP POP SWAP3 SWAP2 POP POP JUMP JUMPDEST PUSH1 0x0 DUP2 SWAP1 POP SWAP2 SWAP1 POP JUMP JUMPDEST PUSH2 0x441 DUP2 PUSH2 0x42E JUMP JUMPDEST DUP3 MSTORE POP POP JUMP JUMPDEST PUSH1 0x0 PUSH1 0x20 DUP3 ADD SWAP1 POP PUSH2 0x45C PUSH1 0x0 DUP4 ADD DUP5 PUSH2 0x438 JUMP JUMPDEST SWAP3 SWAP2 POP POP JUMP JUMPDEST PUSH2 0x46B DUP2 PUSH2 0x42E JUMP JUMPDEST DUP2 EQ PUSH2 0x476 JUMPI PUSH1 0x0 DUP1 REVERT JUMPDEST POP JUMP JUMPDEST PUSH1 0x0 DUP2 CALLDATALOAD SWAP1 POP PUSH2 0x488 DUP2 PUSH2 0x462 JUMP JUMPDEST SWAP3 SWAP2 POP POP JUMP JUMPDEST PUSH1 0x0 DUP1 PUSH1 0x40 DUP4 DUP6 SUB SLT ISZERO PUSH2 0x4A5 JUMPI PUSH2 0x4A4 PUSH2 0x295 JUMP JUMPDEST JUMPDEST PUSH1 0x0 DUP4 ADD CALLDATALOAD PUSH8 0xFFFFFFFFFFFFFFFF DUP2 GT ISZERO PUSH2 0x4C3 JUMPI PUSH2 0x4C2 PUSH2 0x29A JUMP JUMPDEST JUMPDEST PUSH2 0x4CF DUP6 DUP3 DUP7 ADD PUSH2 0x3B7 JUMP JUMPDEST SWAP3 POP POP PUSH1 0x20 PUSH2 0x4E0 DUP6 DUP3 DUP7 ADD PUSH2 0x479 JUMP JUMPDEST SWAP2 POP POP SWAP3 POP SWAP3 SWAP1 POP JUMP JUMPDEST PUSH1 0x0 PUSH1 0x20 DUP3 DUP5 SUB SLT ISZERO PUSH2 0x500 JUMPI PUSH2 0x4FF PUSH2 0x295 JUMP JUMPDEST JUMPDEST PUSH1 0x0 PUSH2 0x50E DUP5 DUP3 DUP6 ADD PUSH2 0x479 JUMP JUMPDEST SWAP2 POP POP SWAP3 SWAP2 POP POP JUMP JUMPDEST PUSH1 0x0 DUP2 MLOAD SWAP1 POP SWAP2 SWAP1 POP JUMP JUMPDEST PUSH1 0x0 DUP3 DUP3 MSTORE PUSH1 0x20 DUP3 ADD SWAP1 POP SWAP3 SWAP2 POP POP JUMP JUMPDEST PUSH1 0x0 JUMPDEST DUP4 DUP2 LT ISZERO PUSH2 0x551 JUMPI DUP1 DUP3 ADD MLOAD DUP2 DUP5 ADD MSTORE PUSH1 0x20 DUP2 ADD SWAP1 POP PUSH2 0x536 JUMP JUMPDEST PUSH1 0x0 DUP5 DUP5 ADD MSTORE POP POP POP POP JUMP JUMPDEST PUSH1 0x0 PUSH2 0x568 DUP3 PUSH2 0x517 JUMP JUMPDEST PUSH2 0x572 DUP2 DUP6 PUSH2 0x522 JUMP JUMPDEST SWAP4 POP PUSH2 0x582 DUP2 DUP6 PUSH1 0x20 DUP7 ADD PUSH2 0x533 JUMP JUMPDEST PUSH2 0x58B DUP2 PUSH2 0x2A9 JUMP JUMPDEST DUP5 ADD SWAP2 POP POP SWAP3 SWAP2 POP POP JUMP JUMPDEST PUSH1 0x0 PUSH1 0x40 DUP3 ADD SWAP1 POP DUP2 DUP2 SUB PUSH1 0x0 DUP4 ADD MSTORE PUSH2 0x5B0 DUP2 DUP6 PUSH2 0x55D JUMP JUMPDEST SWAP1 POP PUSH2 0x5BF PUSH1 0x20 DUP4 ADD DUP5 PUSH2 0x438 JUMP JUMPDEST SWAP4 SWAP3 POP POP POP JUMP JUMPDEST PUSH32 0x4E487B7100000000000000000000000000000000000000000000000000000000 PUSH1 0x0 MSTORE PUSH1 0x32 PUSH1 0x4 MSTORE PUSH1 0x24 PUSH1 0x0 REVERT JUMPDEST PUSH32 0x4E487B7100000000000000000000000000000000000000000000000000000000 PUSH1 0x0 MSTORE PUSH1 0x22 PUSH1 0x4 MSTORE PUSH1 0x24 PUSH1 0x0 REVERT JUMPDEST PUSH1 0x0 PUSH1 0x2 DUP3 DIV SWAP1 POP PUSH1 0x1 DUP3 AND DUP1 PUSH2 0x63C JUMPI PUSH1 0x7F DUP3 AND SWAP2 POP JUMPDEST PUSH1 0x20 DUP3 LT DUP2 SUB PUSH2 0x64F JUMPI PUSH2 0x64E PUSH2 0x5F5 JUMP JUMPDEST JUMPDEST POP SWAP2 SWAP1 POP JUMP JUMPDEST PUSH1 0x0 DUP2 SWAP1 POP SWAP3 SWAP2 POP POP JUMP JUMPDEST PUSH1 0x0 DUP2 SWAP1 POP DUP2 PUSH1 0x0 MSTORE PUSH1 0x20 PUSH1 0x0 KECCAK256 SWAP1 POP SWAP2 SWAP1 POP JUMP JUMPDEST PUSH1 0x0 DUP2 SLOAD PUSH2 0x682 DUP2 PUSH2 0x624 JUMP JUMPDEST PUSH2 0x68C DUP2 DUP7 PUSH2 0x655 JUMP JUMPDEST SWAP5 POP PUSH1 0x1 DUP3 AND PUSH1 0x0 DUP2 EQ PUSH2 0x6A7 JUMPI PUSH1 0x1 DUP2 EQ PUSH2 0x6BC JUMPI PUSH2 0x6EF JUMP JUMPDEST PUSH1 0xFF NOT DUP4 AND DUP7 MSTORE DUP2 ISZERO ISZERO DUP3 MUL DUP7 ADD SWAP4 POP PUSH2 0x6EF JUMP JUMPDEST PUSH2 0x6C5 DUP6 PUSH2 0x660 JUMP JUMPDEST PUSH1 0x0 JUMPDEST DUP4 DUP2 LT ISZERO PUSH2 0x6E7 JUMPI DUP2 SLOAD DUP2 DUP10 ADD MSTORE PUSH1 0x1 DUP3 ADD SWAP2 POP PUSH1 0x20 DUP2 ADD SWAP1 POP PUSH2 0x6C8 JUMP JUMPDEST DUP4 DUP9 ADD SWAP6 POP POP POP JUMPDEST POP POP POP SWAP3 SWAP2 POP POP JUMP JUMPDEST PUSH1 0x0 PUSH2 0x704 DUP3 DUP5 PUSH2 0x675 JUMP JUMPDEST SWAP2 POP DUP2 SWAP1 POP SWAP3 SWAP2 POP POP JUMP JUMPDEST PUSH32 0x4E487B7100000000000000000000000000000000000000000000000000000000 PUSH1 0x0 MSTORE PUSH1 0x11 PUSH1 0x4 MSTORE PUSH1 0x24 PUSH1 0x0 REVERT JUMPDEST PUSH1 0x0 PUSH2 0x749 DUP3 PUSH2 0x42E JUMP JUMPDEST SWAP2 POP PUSH32 0xFFFFFFFFFFFFFFFFFFFFFFFFFFFFFFFFFFFFFFFFFFFFFFFFFFFFFFFFFFFFFFFF DUP3 SUB PUSH2 0x77B JUMPI PUSH2 0x77A PUSH2 0x70F JUMP JUMPDEST JUMPDEST PUSH1 0x1 DUP3 ADD SWAP1 POP SWAP2 SWAP1 POP JUMP JUMPDEST PUSH1 0x0 DUP2 SWAP1 POP DUP2 PUSH1 0x0 MSTORE PUSH1 0x20 PUSH1 0x0 KECCAK256 SWAP1 POP SWAP2 SWAP1 POP JUMP JUMPDEST PUSH1 0x0 PUSH1 0x20 PUSH1 0x1F DUP4 ADD DIV SWAP1 POP SWAP2 SWAP1 POP JUMP JUMPDEST PUSH1 0x0 DUP3 DUP3 SHL SWAP1 POP SWAP3 SWAP2 POP POP JUMP JUMPDEST PUSH1 0x0 PUSH1 0x8 DUP4 MUL PUSH2 0x7E8 PUSH32 0xFFFFFFFFFFFFFFFFFFFFFFFFFFFFFFFFFFFFFFFFFFFFFFFFFFFFFFFFFFFFFFFF DUP3 PUSH2 0x7AB JUMP JUMPDEST PUSH2 0x7F2 DUP7 DUP4 PUSH2 0x7AB JUMP JUMPDEST SWAP6 POP DUP1 NOT DUP5 AND SWAP4 POP DUP1 DUP7 AND DUP5 OR SWAP3 POP POP POP SWAP4 SWAP3 POP POP POP JUMP JUMPDEST PUSH1 0x0 DUP2 SWAP1 POP SWAP2 SWAP1 POP JUMP JUMPDEST PUSH1 0x0 PUSH2 0x82F PUSH2 0x82A PUSH2 0x825 DUP5 PUSH2 0x42E JUMP JUMPDEST PUSH2 0x80A JUMP JUMPDEST PUSH2 0x42E JUMP JUMPDEST SWAP1 POP SWAP2 SWAP1 POP JUMP JUMPDEST PUSH1 0x0 DUP2 SWAP1 POP SWAP2 SWAP1 POP JUMP JUMPDEST PUSH2 0x849 DUP4 PUSH2 0x814 JUMP JUMPDEST PUSH2 0x85D PUSH2 0x855 DUP3 PUSH2 0x836 JUMP JUMPDEST DUP5 DUP5 SLOAD PUSH2 0x7B8 JUMP JUMPDEST DUP3 SSTORE POP POP POP POP JUMP JUMPDEST PUSH1 0x0 SWAP1 JUMP JUMPDEST PUSH2 0x872 PUSH2 0x865 JUMP JUMPDEST PUSH2 0x87D DUP2 DUP5 DUP5 PUSH2 0x840 JUMP JUMPDEST POP POP POP JUMP JUMPDEST JUMPDEST DUP2 DUP2 LT ISZERO PUSH2 0x8A1 JUMPI PUSH2 0x896 PUSH1 0x0 DUP3 PUSH2 0x86A JUMP JUMPDEST PUSH1 0x1 DUP2 ADD SWAP1 POP PUSH2 0x883 JUMP JUMPDEST POP POP JUMP JUMPDEST PUSH1 0x1F DUP3 GT ISZERO PUSH2 0x8E6 JUMPI PUSH2 0x8B7 DUP2 PUSH2 0x786 JUMP JUMPDEST PUSH2 0x8C0 DUP5 PUSH2 0x79B JUMP JUMPDEST DUP2 ADD PUSH1 0x20 DUP6 LT ISZERO PUSH2 0x8CF JUMPI DUP2 SWAP1 POP JUMPDEST PUSH2 0x8E3 PUSH2 0x8DB DUP6 PUSH2 0x79B JUMP JUMPDEST DUP4 ADD DUP3 PUSH2 0x882 JUMP JUMPDEST POP POP JUMPDEST POP POP POP JUMP JUMPDEST PUSH1 0x0 DUP3 DUP3 SHR SWAP1 POP SWAP3 SWAP2 POP POP JUMP JUMPDEST PUSH1 0x0 PUSH2 0x909 PUSH1 0x0 NOT DUP5 PUSH1 0x8 MUL PUSH2 0x8EB JUMP JUMPDEST NOT DUP1 DUP4 AND SWAP2 POP POP SWAP3 SWAP2 POP POP JUMP JUMPDEST PUSH1 0x0 PUSH2 0x922 DUP4 DUP4 PUSH2 0x8F8 JUMP JUMPDEST SWAP2 POP DUP3 PUSH1 0x2 MUL DUP3 OR SWAP1 POP SWAP3 SWAP2 POP POP JUMP JUMPDEST PUSH2 0x93B DUP3 PUSH2 0x517 JUMP JUMPDEST PUSH8 0xFFFFFFFFFFFFFFFF DUP2 GT ISZERO PUSH2 0x954 JUMPI PUSH2 0x953 PUSH2 0x2BA JUMP JUMPDEST JUMPDEST PUSH2 0x95E DUP3 SLOAD PUSH2 0x624 JUMP JUMPDEST PUSH2 0x969 DUP3 DUP3 DUP6 PUSH2 0x8A5 JUMP JUMPDEST PUSH1 0x0 PUSH1 0x20 SWAP1 POP PUSH1 0x1F DUP4 GT PUSH1 0x1 DUP2 EQ PUSH2 0x99C JUMPI PUSH1 0x0 DUP5 ISZERO PUSH2 0x98A JUMPI DUP3 DUP8 ADD MLOAD SWAP1 POP JUMPDEST PUSH2 0x994 DUP6 DUP3 PUSH2 0x916 JUMP JUMPDEST DUP7 SSTORE POP PUSH2 0x9FC JUMP JUMPDEST PUSH1 0x1F NOT DUP5 AND PUSH2 0x9AA DUP7 PUSH2 0x786 JUMP JUMPDEST PUSH1 0x0 JUMPDEST DUP3 DUP2 LT ISZERO PUSH2 0x9D2 JUMPI DUP5 DUP10 ADD MLOAD DUP3 SSTORE PUSH1 0x1 DUP3 ADD SWAP2 POP PUSH1 0x20 DUP6 ADD SWAP5 POP PUSH1 0x20 DUP2 ADD SWAP1 POP PUSH2 0x9AD JUMP JUMPDEST DUP7 DUP4 LT ISZERO PUSH2 0x9EF JUMPI DUP5 DUP10 ADD MLOAD PUSH2 0x9EB PUSH1 0x1F DUP10 AND DUP3 PUSH2 0x8F8 JUMP JUMPDEST DUP4 SSTORE POP JUMPDEST PUSH1 0x1 PUSH1 0x2 DUP9 MUL ADD DUP9 SSTORE POP POP POP JUMPDEST POP POP POP POP POP POP JUMP INVALID LOG2 PUSH5 0x6970667358 0x22 SLT KECCAK256 0xAD BASEFEE 0xD1 PUSH29 0x64A1ECFC9D7EE2518CD2A9FDAC7A8B738BD4EE19A5D2FE23B2E2ADC64 PUSH20 0x6F6C634300081200330000000000000000000000 "
				},
				"gasEstimates": {
					"creation": {
						"codeDepositCost": "523600",
						"executionCost": "556",
						"totalCost": "524156"
					},
					"external": {
						"openMarket(uint256)": "infinite",
						"search(string)": "infinite",
						"sell(string,uint256)": "infinite"
					}
				},
				"methodIdentifiers": {
					"openMarket(uint256)": "baa26757",
					"search(string)": "820ed086",
					"sell(string,uint256)": "9f656321"
				}
			},
			"storageLayout": {
				"storage": [
					{
						"astId": 10,
						"contract": "Textbook/Chapter5/quiz3.sol:quiz3",
						"label": "openMarket",
						"offset": 0,
						"slot": "0",
						"type": "t_array(t_struct(Market)6_storage)dyn_storage"
					}
				],
				"types": {
					"t_array(t_struct(Market)6_storage)dyn_storage": {
						"base": "t_struct(Market)6_storage",
						"encoding": "dynamic_array",
						"label": "struct quiz3.Market[]",
						"numberOfBytes": "32"
					},
					"t_string_storage": {
						"encoding": "bytes",
						"label": "string",
						"numberOfBytes": "32"
					},
					"t_struct(Market)6_storage": {
						"encoding": "inplace",
						"label": "struct quiz3.Market",
						"members": [
							{
								"astId": 3,
								"contract": "Textbook/Chapter5/quiz3.sol:quiz3",
								"label": "itemName",
								"offset": 0,
								"slot": "0",
								"type": "t_string_storage"
							},
							{
								"astId": 5,
								"contract": "Textbook/Chapter5/quiz3.sol:quiz3",
								"label": "price",
								"offset": 0,
								"slot": "1",
								"type": "t_uint256"
							}
						],
						"numberOfBytes": "64"
					},
					"t_uint256": {
						"encoding": "inplace",
						"label": "uint256",
						"numberOfBytes": "32"
					}
				}
			},
			"userdoc": {
				"kind": "user",
				"methods": {},
				"version": 1
			}
		}
	}
}